{"abi":[{"type":"function","name":"CLAIM_REWARDS_GAS_FEE_LIMIT","inputs":[],"outputs":[{"name":"","type":"bytes32","internalType":"bytes32"}],"stateMutability":"view"},{"type":"function","name":"CLOSE_FEE_RATE","inputs":[],"outputs":[{"name":"","type":"bytes32","internalType":"bytes32"}],"stateMutability":"view"},{"type":"function","name":"LONG_SHORT_OI_BOTTOM_LIMIT","inputs":[],"outputs":[{"name":"","type":"bytes32","internalType":"bytes32"}],"stateMutability":"view"},{"type":"function","name":"LONG_SHORT_RATIO_LIMIT","inputs":[],"outputs":[{"name":"","type":"bytes32","internalType":"bytes32"}],"stateMutability":"view"},{"type":"function","name":"MAX_LEVERAGE","inputs":[],"outputs":[{"name":"","type":"bytes32","internalType":"bytes32"}],"stateMutability":"view"},{"type":"function","name":"MAX_LONG_OPEN_INTEREST_CAP","inputs":[],"outputs":[{"name":"","type":"bytes32","internalType":"bytes32"}],"stateMutability":"view"},{"type":"function","name":"MAX_SHORT_OPEN_INTEREST_CAP","inputs":[],"outputs":[{"name":"","type":"bytes32","internalType":"bytes32"}],"stateMutability":"view"},{"type":"function","name":"MINT_GAS_FEE_LIMIT","inputs":[],"outputs":[{"name":"","type":"bytes32","internalType":"bytes32"}],"stateMutability":"view"},{"type":"function","name":"OPEN_FEE_RATE","inputs":[],"outputs":[{"name":"","type":"bytes32","internalType":"bytes32"}],"stateMutability":"view"},{"type":"function","name":"PLACE_DECREASE_ORDER_GAS_FEE_LIMIT","inputs":[],"outputs":[{"name":"","type":"bytes32","internalType":"bytes32"}],"stateMutability":"view"},{"type":"function","name":"PLACE_INCREASE_ORDER_GAS_FEE_LIMIT","inputs":[],"outputs":[{"name":"","type":"bytes32","internalType":"bytes32"}],"stateMutability":"view"},{"type":"function","name":"POSITION_UPDATE_LEVERAGE_GAS_FEE_LIMIT","inputs":[],"outputs":[{"name":"","type":"bytes32","internalType":"bytes32"}],"stateMutability":"view"},{"type":"function","name":"POSITION_UPDATE_MARGIN_GAS_FEE_LIMIT","inputs":[],"outputs":[{"name":"","type":"bytes32","internalType":"bytes32"}],"stateMutability":"view"},{"type":"function","name":"REDEEM_GAS_FEE_LIMIT","inputs":[],"outputs":[{"name":"","type":"bytes32","internalType":"bytes32"}],"stateMutability":"view"},{"type":"function","name":"TICK_SIZE","inputs":[],"outputs":[{"name":"","type":"bytes32","internalType":"bytes32"}],"stateMutability":"view"},{"type":"function","name":"UNISWAP_ROUTER","inputs":[],"outputs":[{"name":"","type":"bytes32","internalType":"bytes32"}],"stateMutability":"view"},{"type":"function","name":"WITHDRAW_GAS_FEE_LIMIT","inputs":[],"outputs":[{"name":"","type":"bytes32","internalType":"bytes32"}],"stateMutability":"view"},{"type":"function","name":"WRAPPER_TOKEN","inputs":[],"outputs":[{"name":"","type":"bytes32","internalType":"bytes32"}],"stateMutability":"view"},{"type":"function","name":"getChainConfig","inputs":[],"outputs":[{"name":"chainConfig","type":"tuple","internalType":"struct AppConfig.ChainConfig","components":[{"name":"wrapperToken","type":"address","internalType":"address"},{"name":"mintGasFeeLimit","type":"uint256","internalType":"uint256"},{"name":"redeemGasFeeLimit","type":"uint256","internalType":"uint256"},{"name":"placeIncreaseOrderGasFeeLimit","type":"uint256","internalType":"uint256"},{"name":"placeDecreaseOrderGasFeeLimit","type":"uint256","internalType":"uint256"},{"name":"positionUpdateMarginGasFeeLimit","type":"uint256","internalType":"uint256"},{"name":"positionUpdateLeverageGasFeeLimit","type":"uint256","internalType":"uint256"},{"name":"withdrawGasFeeLimit","type":"uint256","internalType":"uint256"},{"name":"claimRewardsGasFeeLimit","type":"uint256","internalType":"uint256"}]}],"stateMutability":"view"},{"type":"function","name":"getSymbolConfig","inputs":[{"name":"symbol","type":"bytes32","internalType":"bytes32"}],"outputs":[{"name":"","type":"tuple","internalType":"struct AppConfig.SymbolConfig","components":[{"name":"maxLeverage","type":"uint256","internalType":"uint256"},{"name":"tickSize","type":"uint256","internalType":"uint256"},{"name":"openFeeRate","type":"uint256","internalType":"uint256"},{"name":"closeFeeRate","type":"uint256","internalType":"uint256"},{"name":"maxLongOpenInterestCap","type":"uint256","internalType":"uint256"},{"name":"maxShortOpenInterestCap","type":"uint256","internalType":"uint256"},{"name":"longShortRatioLimit","type":"uint256","internalType":"uint256"},{"name":"longShortOiBottomLimit","type":"uint256","internalType":"uint256"}]}],"stateMutability":"view"},{"type":"function","name":"getUniswapRouter","inputs":[],"outputs":[{"name":"","type":"address","internalType":"address"}],"stateMutability":"view"}],"bytecode":{"object":"0x612f9f610039600b82828239805160001a607314602c57634e487b7160e01b600052600060045260246000fd5b30600052607381538281f3fe73000000000000000000000000000000000000000030146080604052600436106101625760003560e01c8063813a029d116100cd578063bea9849e11610086578063bea9849e146102c4578063c2339264146102e4578063d088f55e146102ec578063d8264920146102f4578063e1be37bd146102fc578063e78160921461037057600080fd5b8063813a029d146102945780638570560d1461029c5780639b45ec97146102a4578063a3caef7e146102ac578063abc11cd0146102b4578063bafe4287146102bc57600080fd5b8063524900b51161011f578063524900b5146101c4578063547319df146101e4578063554988fa146101ec578063606c0c94146101f45780636690212a1461026c5780637724b1061461028c57600080fd5b806315513ea31461016757806319dfbeca14610182578063341f3af91461018a5780633b533993146101ac578063418dd7e8146101b45780634ebc4a98146101bc575b600080fd5b61016f610378565b6040519081526020015b60405180910390f35b61016f6103a0565b81801561019657600080fd5b506101aa6101a5366004612a38565b6103af565b005b61016f610be9565b61016f610bf8565b61016f610c07565b6101cc610c16565b6040516001600160a01b039091168152602001610179565b61016f610dae565b61016f610dbd565b6101fc610dcc565b604051610179919081516001600160a01b031681526020808301519082015260408083015190820152606080830151908201526080808301519082015260a0828101519082015260c0808301519082015260e0808301519082015261010091820151918101919091526101200190565b81801561027857600080fd5b506101aa610287366004612aba565b6116d8565b61016f611eb0565b61016f611ebf565b61016f611ece565b61016f611edd565b61016f611eec565b61016f611efb565b61016f611f0a565b8180156102d057600080fd5b506101aa6102df366004612b49565b611f19565b61016f6120ad565b61016f6120bc565b61016f6120cb565b61030f61030a366004612b6d565b6120da565b6040516101799190600061010082019050825182526020830151602083015260408301516040830152606083015160608301526080830151608083015260a083015160a083015260c083015160c083015260e083015160e083015292915050565b61016f612952565b60405160200161038790612b86565b6040516020818303038152906040528051906020012081565b60405160200161038790612bad565b600073__$819338afc672a9cefb034a8d5ff76e114d$__6386d5c4be6040518163ffffffff1660e01b8152600401602060405180830381865af41580156103fa573d6000803e3d6000fd5b505050506040513d601f19601f8201168201806040525081019061041e9190612bdb565b90506000604051602001610452906020808252600c908201526b434841494e5f434f4e46494760a01b604082015260600190565b6040516020818303038152906040528051906020012090508173__$819338afc672a9cefb034a8d5ff76e114d$__632aa3374890918360405160200161049790612b86565b604051602081830303815290604052805190602001206040516020016104c7929190918252602082015260400190565b60408051808303601f19018152908290528051602090910120875160e085901b6001600160e01b0319168352600483019390935260248201526001600160a01b03909116604482015260640160006040518083038186803b15801561052b57600080fd5b505af415801561053f573d6000803e3d6000fd5b505050508173__$819338afc672a9cefb034a8d5ff76e114d$__635e42ae1690918360405160200161057090612bf4565b604051602081830303815290604052805190602001206040516020016105a0929190918252602082015260400190565b60408051601f19818403018152908290528051602091820120908801516001600160e01b031960e086901b16835260048301939093526024820152604481019190915260640160006040518083038186803b1580156105fe57600080fd5b505af4158015610612573d6000803e3d6000fd5b505050508173__$819338afc672a9cefb034a8d5ff76e114d$__635e42ae1690918360405160200161064390612bad565b60405160208183030381529060405280519060200120604051602001610673929190918252602082015260400190565b60408051808303601f1901815282825280516020909101209088015160e085901b6001600160e01b031916835260048301939093526024820152604481019190915260640160006040518083038186803b1580156106d057600080fd5b505af41580156106e4573d6000803e3d6000fd5b505050508173__$819338afc672a9cefb034a8d5ff76e114d$__635e42ae1690918360405160200161071590612c20565b60405160208183030381529060405280519060200120604051602001610745929190918252602082015260400190565b60408051601f1981840301815290829052805160209091012060608801516001600160e01b031960e086901b16835260048301939093526024820152604481019190915260640160006040518083038186803b1580156107a457600080fd5b505af41580156107b8573d6000803e3d6000fd5b505050508173__$819338afc672a9cefb034a8d5ff76e114d$__635e42ae169091836040516020016107e990612c62565b60405160208183030381529060405280519060200120604051602001610819929190918252602082015260400190565b60408051601f1981840301815290829052805160209091012060808801516001600160e01b031960e086901b16835260048301939093526024820152604481019190915260640160006040518083038186803b15801561087857600080fd5b505af415801561088c573d6000803e3d6000fd5b505050508173__$819338afc672a9cefb034a8d5ff76e114d$__635e42ae169091836040516020016108bd90612ca4565b604051602081830303815290604052805190602001206040516020016108ed929190918252602082015260400190565b60408051601f1981840301815290829052805160209091012060a08801516001600160e01b031960e086901b16835260048301939093526024820152604481019190915260640160006040518083038186803b15801561094c57600080fd5b505af4158015610960573d6000803e3d6000fd5b505050508173__$819338afc672a9cefb034a8d5ff76e114d$__635e42ae1690918360405160200161099190612ce8565b604051602081830303815290604052805190602001206040516020016109c1929190918252602082015260400190565b60408051601f1981840301815290829052805160209091012060c08801516001600160e01b031960e086901b16835260048301939093526024820152604481019190915260640160006040518083038186803b158015610a2057600080fd5b505af4158015610a34573d6000803e3d6000fd5b505050508173__$819338afc672a9cefb034a8d5ff76e114d$__635e42ae16909183604051602001610a6590612d2e565b60405160208183030381529060405280519060200120604051602001610a95929190918252602082015260400190565b604051602081830303815290604052805190602001208660e001516040518463ffffffff1660e01b8152600401610adf939291909283526020830191909152604082015260600190565b60006040518083038186803b158015610af757600080fd5b505af4158015610b0b573d6000803e3d6000fd5b505050508173__$819338afc672a9cefb034a8d5ff76e114d$__635e42ae16909183604051602001610b3c90612d5e565b60405160208183030381529060405280519060200120604051602001610b6c929190918252602082015260400190565b60408051601f198184030181529082905280516020909101206101008801516001600160e01b031960e086901b16835260048301939093526024820152604481019190915260640160006040518083038186803b158015610bcc57600080fd5b505af4158015610be0573d6000803e3d6000fd5b50505050505050565b60405160200161038790612d95565b60405160200161038790612ca4565b60405160200161038790612dcc565b60008073__$819338afc672a9cefb034a8d5ff76e114d$__6386d5c4be6040518163ffffffff1660e01b8152600401602060405180830381865af4158015610c62573d6000803e3d6000fd5b505050506040513d601f19601f82011682018060405250810190610c869190612bdb565b90508073__$819338afc672a9cefb034a8d5ff76e114d$__6356c8caa99091604051602001610cd6906020808252600d908201526c434f4d4d4f4e5f434f4e46494760981b604082015260600190565b60405160208183030381529060405280519060200120604051602001610cfb90612dfc565b60405160208183030381529060405280519060200120604051602001610d2b929190918252602082015260400190565b604051602081830303815290604052805190602001206040518363ffffffff1660e01b8152600401610d67929190918252602082015260400190565b602060405180830381865af4158015610d84573d6000803e3d6000fd5b505050506040513d601f19601f82011682018060405250810190610da89190612e24565b91505090565b60405160200161038790612e41565b60405160200161038790612c62565b610e2460405180610120016040528060006001600160a01b0316815260200160008152602001600081526020016000815260200160008152602001600081526020016000815260200160008152602001600081525090565b600073__$819338afc672a9cefb034a8d5ff76e114d$__6386d5c4be6040518163ffffffff1660e01b8152600401602060405180830381865af4158015610e6f573d6000803e3d6000fd5b505050506040513d601f19601f82011682018060405250810190610e939190612bdb565b90506000604051602001610ec7906020808252600c908201526b434841494e5f434f4e46494760a01b604082015260600190565b6040516020818303038152906040528051906020012090508173__$819338afc672a9cefb034a8d5ff76e114d$__6356c8caa9909183604051602001610f0c90612b86565b60405160208183030381529060405280519060200120604051602001610f3c929190918252602082015260400190565b604051602081830303815290604052805190602001206040518363ffffffff1660e01b8152600401610f78929190918252602082015260400190565b602060405180830381865af4158015610f95573d6000803e3d6000fd5b505050506040513d601f19601f82011682018060405250810190610fb99190612e24565b6001600160a01b0316835260405173__$819338afc672a9cefb034a8d5ff76e114d$__90638b7764479084908490610ff390602001612bf4565b60405160208183030381529060405280519060200120604051602001611023929190918252602082015260400190565b604051602081830303815290604052805190602001206040518363ffffffff1660e01b815260040161105f929190918252602082015260400190565b602060405180830381865af415801561107c573d6000803e3d6000fd5b505050506040513d601f19601f820116820180604052508101906110a09190612bdb565b8360200181815250508173__$819338afc672a9cefb034a8d5ff76e114d$__638b7764479091836040516020016110d690612bad565b60405160208183030381529060405280519060200120604051602001611106929190918252602082015260400190565b604051602081830303815290604052805190602001206040518363ffffffff1660e01b8152600401611142929190918252602082015260400190565b602060405180830381865af415801561115f573d6000803e3d6000fd5b505050506040513d601f19601f820116820180604052508101906111839190612bdb565b8360400181815250508173__$819338afc672a9cefb034a8d5ff76e114d$__638b7764479091836040516020016111b990612c20565b604051602081830303815290604052805190602001206040516020016111e9929190918252602082015260400190565b604051602081830303815290604052805190602001206040518363ffffffff1660e01b8152600401611225929190918252602082015260400190565b602060405180830381865af4158015611242573d6000803e3d6000fd5b505050506040513d601f19601f820116820180604052508101906112669190612bdb565b606084015260405173__$819338afc672a9cefb034a8d5ff76e114d$__90638b776447908490849061129a90602001612c62565b604051602081830303815290604052805190602001206040516020016112ca929190918252602082015260400190565b604051602081830303815290604052805190602001206040518363ffffffff1660e01b8152600401611306929190918252602082015260400190565b602060405180830381865af4158015611323573d6000803e3d6000fd5b505050506040513d601f19601f820116820180604052508101906113479190612bdb565b608084015260405173__$819338afc672a9cefb034a8d5ff76e114d$__90638b776447908490849061137b90602001612ca4565b604051602081830303815290604052805190602001206040516020016113ab929190918252602082015260400190565b604051602081830303815290604052805190602001206040518363ffffffff1660e01b81526004016113e7929190918252602082015260400190565b602060405180830381865af4158015611404573d6000803e3d6000fd5b505050506040513d601f19601f820116820180604052508101906114289190612bdb565b60a084015260405173__$819338afc672a9cefb034a8d5ff76e114d$__90638b776447908490849061145c90602001612ce8565b6040516020818303038152906040528051906020012060405160200161148c929190918252602082015260400190565b604051602081830303815290604052805190602001206040518363ffffffff1660e01b81526004016114c8929190918252602082015260400190565b602060405180830381865af41580156114e5573d6000803e3d6000fd5b505050506040513d601f19601f820116820180604052508101906115099190612bdb565b60c084015260405173__$819338afc672a9cefb034a8d5ff76e114d$__90638b776447908490849061153d90602001612d2e565b6040516020818303038152906040528051906020012060405160200161156d929190918252602082015260400190565b604051602081830303815290604052805190602001206040518363ffffffff1660e01b81526004016115a9929190918252602082015260400190565b602060405180830381865af41580156115c6573d6000803e3d6000fd5b505050506040513d601f19601f820116820180604052508101906115ea9190612bdb565b60e084015260405173__$819338afc672a9cefb034a8d5ff76e114d$__90638b776447908490849061161e90602001612d5e565b6040516020818303038152906040528051906020012060405160200161164e929190918252602082015260400190565b604051602081830303815290604052805190602001206040518363ffffffff1660e01b815260040161168a929190918252602082015260400190565b602060405180830381865af41580156116a7573d6000803e3d6000fd5b505050506040513d601f19601f820116820180604052508101906116cb9190612bdb565b6101008401525090919050565b600073__$819338afc672a9cefb034a8d5ff76e114d$__6386d5c4be6040518163ffffffff1660e01b8152600401602060405180830381865af4158015611723573d6000803e3d6000fd5b505050506040513d601f19601f820116820180604052508101906117479190612bdb565b9050600060405160200161177c906020808252600d908201526c53594d424f4c5f434f4e46494760981b604082015260600190565b60408051808303601f19018152908290528051602090910120631ee99d2f60e11b8252600482018490526024820181905260448201869052915073__$819338afc672a9cefb034a8d5ff76e114d$__90633dd33a5e9060640160006040518083038186803b1580156117ed57600080fd5b505af4158015611801573d6000803e3d6000fd5b505050508173__$819338afc672a9cefb034a8d5ff76e114d$__635e42ae169091838760405160200161183390612e68565b60408051601f19818403018152828252805160209182012090830194909452810191909152606081019190915260800160408051808303601f19018152908290528051602090910120875160e085901b6001600160e01b031916835260048301939093526024820152604481019190915260640160006040518083038186803b1580156118bf57600080fd5b505af41580156118d3573d6000803e3d6000fd5b505050508173__$819338afc672a9cefb034a8d5ff76e114d$__635e42ae169091838760405160200161190590612e8e565b60408051601f19818403018152828252805160209182012090830194909452810191909152606081019190915260800160408051601f19818403018152908290528051602091820120908801516001600160e01b031960e086901b16835260048301939093526024820152604481019190915260640160006040518083038186803b15801561199357600080fd5b505af41580156119a7573d6000803e3d6000fd5b505050508173__$819338afc672a9cefb034a8d5ff76e114d$__635e42ae16909183876040516020016119d990612e41565b60408051601f19818403018152828252805160209182012090830194909452810191909152606081019190915260800160408051808303601f1901815282825280516020909101209088015160e085901b6001600160e01b031916835260048301939093526024820152604481019190915260640160006040518083038186803b158015611a6657600080fd5b505af4158015611a7a573d6000803e3d6000fd5b505050508173__$819338afc672a9cefb034a8d5ff76e114d$__635e42ae1690918387604051602001611aac90612eb1565b60408051601f19818403018152828252805160209182012090830194909452810191909152606081019190915260800160408051601f1981840301815290829052805160209091012060608801516001600160e01b031960e086901b16835260048301939093526024820152604481019190915260640160006040518083038186803b158015611b3b57600080fd5b505af4158015611b4f573d6000803e3d6000fd5b505050508173__$819338afc672a9cefb034a8d5ff76e114d$__635e42ae1690918387604051602001611b8190612ed9565b60408051601f19818403018152828252805160209182012090830194909452810191909152606081019190915260800160408051601f1981840301815290829052805160209091012060808801516001600160e01b031960e086901b16835260048301939093526024820152604481019190915260640160006040518083038186803b158015611c1057600080fd5b505af4158015611c24573d6000803e3d6000fd5b505050508173__$819338afc672a9cefb034a8d5ff76e114d$__635e42ae1690918387604051602001611c5690612d95565b60408051601f19818403018152828252805160209182012090830194909452810191909152606081019190915260800160408051601f1981840301815290829052805160209091012060a08801516001600160e01b031960e086901b16835260048301939093526024820152604481019190915260640160006040518083038186803b158015611ce557600080fd5b505af4158015611cf9573d6000803e3d6000fd5b505050508173__$819338afc672a9cefb034a8d5ff76e114d$__635e42ae1690918387604051602001611d2b90612dcc565b60408051601f19818403018152828252805160209182012090830194909452810191909152606081019190915260800160408051601f1981840301815290829052805160209091012060c08801516001600160e01b031960e086901b16835260048301939093526024820152604481019190915260640160006040518083038186803b158015611dba57600080fd5b505af4158015611dce573d6000803e3d6000fd5b505050508173__$819338afc672a9cefb034a8d5ff76e114d$__635e42ae1690918387604051602001611e0090612f10565b60408051601f198184030181528282528051602091820120908301949094528101919091526060810191909152608001604051602081830303815290604052805190602001208660e001516040518463ffffffff1660e01b8152600401611e7a939291909283526020830191909152604082015260600190565b60006040518083038186803b158015611e9257600080fd5b505af4158015611ea6573d6000803e3d6000fd5b5050505050505050565b60405160200161038790612ce8565b60405160200161038790612eb1565b60405160200161038790612ed9565b60405160200161038790612e68565b60405160200161038790612bf4565b60405160200161038790612e8e565b60405160200161038790612d2e565b600073__$819338afc672a9cefb034a8d5ff76e114d$__6386d5c4be6040518163ffffffff1660e01b8152600401602060405180830381865af4158015611f64573d6000803e3d6000fd5b505050506040513d601f19601f82011682018060405250810190611f889190612bdb565b90508073__$819338afc672a9cefb034a8d5ff76e114d$__632aa337489091604051602001611fd8906020808252600d908201526c434f4d4d4f4e5f434f4e46494760981b604082015260600190565b60405160208183030381529060405280519060200120604051602001611ffd90612dfc565b6040516020818303038152906040528051906020012060405160200161202d929190918252602082015260400190565b60408051601f198184030181529082905280516020909101206001600160e01b031960e085901b168252600482019290925260248101919091526001600160a01b038516604482015260640160006040518083038186803b15801561209157600080fd5b505af41580156120a5573d6000803e3d6000fd5b505050505050565b60405160200161038790612f10565b60405160200161038790612c20565b60405160200161038790612dfc565b6120e2612961565b6120ea612961565b600073__$819338afc672a9cefb034a8d5ff76e114d$__6386d5c4be6040518163ffffffff1660e01b8152600401602060405180830381865af4158015612135573d6000803e3d6000fd5b505050506040513d601f19601f820116820180604052508101906121599190612bdb565b9050600060405160200161218e906020808252600d908201526c53594d424f4c5f434f4e46494760981b604082015260600190565b60408051808303601f19018152908290528051602090910120637cc7c2c960e01b8252600482018490526024820181905260448201879052915073__$819338afc672a9cefb034a8d5ff76e114d$__90637cc7c2c990606401602060405180830381865af4158015612204573d6000803e3d6000fd5b505050506040513d601f19601f820116820180604052508101906122289190612f47565b6122355750909392505050565b8173__$819338afc672a9cefb034a8d5ff76e114d$__638b7764479091838860405160200161226390612e68565b60408051601f198184030181528282528051602091820120908301949094528101919091526060810191909152608001604051602081830303815290604052805190602001206040518363ffffffff1660e01b81526004016122cf929190918252602082015260400190565b602060405180830381865af41580156122ec573d6000803e3d6000fd5b505050506040513d601f19601f820116820180604052508101906123109190612bdb565b835260405173__$819338afc672a9cefb034a8d5ff76e114d$__90638b7764479084908490899061234390602001612e8e565b60408051601f198184030181528282528051602091820120908301949094528101919091526060810191909152608001604051602081830303815290604052805190602001206040518363ffffffff1660e01b81526004016123af929190918252602082015260400190565b602060405180830381865af41580156123cc573d6000803e3d6000fd5b505050506040513d601f19601f820116820180604052508101906123f09190612bdb565b8360200181815250508173__$819338afc672a9cefb034a8d5ff76e114d$__638b7764479091838860405160200161242790612e41565b60408051601f198184030181528282528051602091820120908301949094528101919091526060810191909152608001604051602081830303815290604052805190602001206040518363ffffffff1660e01b8152600401612493929190918252602082015260400190565b602060405180830381865af41580156124b0573d6000803e3d6000fd5b505050506040513d601f19601f820116820180604052508101906124d49190612bdb565b8360400181815250508173__$819338afc672a9cefb034a8d5ff76e114d$__638b7764479091838860405160200161250b90612eb1565b60408051601f198184030181528282528051602091820120908301949094528101919091526060810191909152608001604051602081830303815290604052805190602001206040518363ffffffff1660e01b8152600401612577929190918252602082015260400190565b602060405180830381865af4158015612594573d6000803e3d6000fd5b505050506040513d601f19601f820116820180604052508101906125b89190612bdb565b606084015260405173__$819338afc672a9cefb034a8d5ff76e114d$__90638b776447908490849089906125ee90602001612ed9565b60408051601f198184030181528282528051602091820120908301949094528101919091526060810191909152608001604051602081830303815290604052805190602001206040518363ffffffff1660e01b815260040161265a929190918252602082015260400190565b602060405180830381865af4158015612677573d6000803e3d6000fd5b505050506040513d601f19601f8201168201806040525081019061269b9190612bdb565b608084015260405173__$819338afc672a9cefb034a8d5ff76e114d$__90638b776447908490849089906126d190602001612d95565b60408051601f198184030181528282528051602091820120908301949094528101919091526060810191909152608001604051602081830303815290604052805190602001206040518363ffffffff1660e01b815260040161273d929190918252602082015260400190565b602060405180830381865af415801561275a573d6000803e3d6000fd5b505050506040513d601f19601f8201168201806040525081019061277e9190612bdb565b60a084015260405173__$819338afc672a9cefb034a8d5ff76e114d$__90638b776447908490849089906127b490602001612dcc565b60408051601f198184030181528282528051602091820120908301949094528101919091526060810191909152608001604051602081830303815290604052805190602001206040518363ffffffff1660e01b8152600401612820929190918252602082015260400190565b602060405180830381865af415801561283d573d6000803e3d6000fd5b505050506040513d601f19601f820116820180604052508101906128619190612bdb565b60c084015260405173__$819338afc672a9cefb034a8d5ff76e114d$__90638b7764479084908490899061289790602001612f10565b60408051601f198184030181528282528051602091820120908301949094528101919091526060810191909152608001604051602081830303815290604052805190602001206040518363ffffffff1660e01b8152600401612903929190918252602082015260400190565b602060405180830381865af4158015612920573d6000803e3d6000fd5b505050506040513d601f19601f820116820180604052508101906129449190612bdb565b60e084015250909392505050565b60405160200161038790612d5e565b60405180610100016040528060008152602001600081526020016000815260200160008152602001600081526020016000815260200160008152602001600081525090565b604051610120810167ffffffffffffffff811182821017156129d857634e487b7160e01b600052604160045260246000fd5b60405290565b604051610100810167ffffffffffffffff811182821017156129d857634e487b7160e01b600052604160045260246000fd5b6001600160a01b0381168114612a2557600080fd5b50565b8035612a3381612a10565b919050565b60006101208284031215612a4b57600080fd5b612a536129a6565b612a5c83612a28565b81526020830135602082015260408301356040820152606083013560608201526080830135608082015260a083013560a082015260c083013560c082015260e083013560e08201526101008084013581830152508091505092915050565b600080828403610120811215612acf57600080fd5b8335925061010080601f1983011215612ae757600080fd5b612aef6129de565b91506020850135825260408501356020830152606085013560408301526080850135606083015260a0850135608083015260c085013560a083015260e085013560c08301528085013560e083015250809150509250929050565b600060208284031215612b5b57600080fd5b8135612b6681612a10565b9392505050565b600060208284031215612b7f57600080fd5b5035919050565b6020808252600d908201526c2ba920a82822a92faa27a5a2a760991b604082015260600190565b60208082526014908201527314915111515357d1d054d7d1915157d31253525560621b604082015260600190565b600060208284031215612bed57600080fd5b5051919050565b6020808252601290820152711352539517d1d054d7d1915157d31253525560721b604082015260600190565b60208082526022908201527f504c4143455f494e4352454153455f4f524445525f4741535f4645455f4c494d604082015261125560f21b606082015260800190565b60208082526022908201527f504c4143455f44454352454153455f4f524445525f4741535f4645455f4c494d604082015261125560f21b606082015260800190565b60208082526024908201527f504f534954494f4e5f5550444154455f4d415247494e5f4741535f4645455f4c6040820152631253525560e21b606082015260800190565b60208082526026908201527f504f534954494f4e5f5550444154455f4c455645524147455f4741535f46454560408201526517d31253525560d21b606082015260800190565b60208082526016908201527515d2551211149055d7d1d054d7d1915157d31253525560521b604082015260600190565b6020808252601b908201527f434c41494d5f524557415244535f4741535f4645455f4c494d49540000000000604082015260600190565b6020808252601b908201527f4d41585f53484f52545f4f50454e5f494e5445524553545f4341500000000000604082015260600190565b6020808252601690820152751313d391d7d4d213d49517d490551253d7d31253525560521b604082015260600190565b6020808252600e908201526d2aa724a9aba0a82fa927aaaa22a960911b604082015260600190565b600060208284031215612e3657600080fd5b8151612b6681612a10565b6020808252600d908201526c4f50454e5f4645455f5241544560981b604082015260600190565b6020808252600c908201526b4d41585f4c4556455241474560a01b604082015260600190565b6020808252600990820152685449434b5f53495a4560b81b604082015260600190565b6020808252600e908201526d434c4f53455f4645455f5241544560901b604082015260600190565b6020808252601a908201527f4d41585f4c4f4e475f4f50454e5f494e5445524553545f434150000000000000604082015260600190565b6020808252601a908201527f4c4f4e475f53484f52545f4f495f424f54544f4d5f4c494d4954000000000000604082015260600190565b600060208284031215612f5957600080fd5b81518015158114612b6657600080fdfea2646970667358221220af3e8898b566af2bf6631d4baf3b7e9fd089856cacf08215269b3a8d992d6f6564736f6c63430008190033","linkReferences":{"src/storage/AppStorage.sol":{"AppStorage":[{"start":1004,"length":20},{"start":1190,"length":20},{"start":1407,"length":20},{"start":1618,"length":20},{"start":1828,"length":20},{"start":2040,"length":20},{"start":2252,"length":20},{"start":2464,"length":20},{"start":2676,"length":20},{"start":2891,"length":20},{"start":3156,"length":20},{"start":3268,"length":20},{"start":3681,"length":20},{"start":3867,"length":20},{"start":4098,"length":20},{"start":4325,"length":20},{"start":4552,"length":20},{"start":4777,"length":20},{"start":5002,"length":20},{"start":5227,"length":20},{"start":5452,"length":20},{"start":5677,"length":20},{"start":5909,"length":20},{"start":6129,"length":20},{"start":6209,"length":20},{"start":6419,"length":20},{"start":6631,"length":20},{"start":6842,"length":20},{"start":7055,"length":20},{"start":7268,"length":20},{"start":7481,"length":20},{"start":7694,"length":20},{"start":8022,"length":20},{"start":8134,"length":20},{"start":8487,"length":20},{"start":8707,"length":20},{"start":8817,"length":20},{"start":9040,"length":20},{"start":9269,"length":20},{"start":9497,"length":20},{"start":9723,"length":20},{"start":9950,"length":20},{"start":10177,"length":20},{"start":10404,"length":20}]}}},"methodIdentifiers":{"CLAIM_REWARDS_GAS_FEE_LIMIT()":"e7816092","CLOSE_FEE_RATE()":"813a029d","LONG_SHORT_OI_BOTTOM_LIMIT()":"c2339264","LONG_SHORT_RATIO_LIMIT()":"4ebc4a98","MAX_LEVERAGE()":"9b45ec97","MAX_LONG_OPEN_INTEREST_CAP()":"8570560d","MAX_SHORT_OPEN_INTEREST_CAP()":"3b533993","MINT_GAS_FEE_LIMIT()":"a3caef7e","OPEN_FEE_RATE()":"547319df","PLACE_DECREASE_ORDER_GAS_FEE_LIMIT()":"554988fa","PLACE_INCREASE_ORDER_GAS_FEE_LIMIT()":"d088f55e","POSITION_UPDATE_LEVERAGE_GAS_FEE_LIMIT()":"7724b106","POSITION_UPDATE_MARGIN_GAS_FEE_LIMIT()":"418dd7e8","REDEEM_GAS_FEE_LIMIT()":"19dfbeca","TICK_SIZE()":"abc11cd0","UNISWAP_ROUTER()":"d8264920","WITHDRAW_GAS_FEE_LIMIT()":"bafe4287","WRAPPER_TOKEN()":"15513ea3","getChainConfig()":"606c0c94","getSymbolConfig(bytes32)":"e1be37bd","getUniswapRouter()":"524900b5","setChainConfig(AppConfig.ChainConfig)":"341f3af9","setSymbolConfig(bytes32,AppConfig.SymbolConfig)":"6690212a","setUniswapRouter(address)":"bea9849e"},"id":120}