{"abi":[{"type":"function","name":"CLAIM_REWARDS_GAS_FEE_LIMIT","inputs":[],"outputs":[{"name":"","type":"bytes32","internalType":"bytes32"}],"stateMutability":"view"},{"type":"function","name":"CLOSE_FEE_RATE","inputs":[],"outputs":[{"name":"","type":"bytes32","internalType":"bytes32"}],"stateMutability":"view"},{"type":"function","name":"LONG_SHORT_OI_BOTTOM_LIMIT","inputs":[],"outputs":[{"name":"","type":"bytes32","internalType":"bytes32"}],"stateMutability":"view"},{"type":"function","name":"LONG_SHORT_RATIO_LIMIT","inputs":[],"outputs":[{"name":"","type":"bytes32","internalType":"bytes32"}],"stateMutability":"view"},{"type":"function","name":"MAX_LEVERAGE","inputs":[],"outputs":[{"name":"","type":"bytes32","internalType":"bytes32"}],"stateMutability":"view"},{"type":"function","name":"MAX_LONG_OPEN_INTEREST_CAP","inputs":[],"outputs":[{"name":"","type":"bytes32","internalType":"bytes32"}],"stateMutability":"view"},{"type":"function","name":"MAX_SHORT_OPEN_INTEREST_CAP","inputs":[],"outputs":[{"name":"","type":"bytes32","internalType":"bytes32"}],"stateMutability":"view"},{"type":"function","name":"MINT_GAS_FEE_LIMIT","inputs":[],"outputs":[{"name":"","type":"bytes32","internalType":"bytes32"}],"stateMutability":"view"},{"type":"function","name":"OPEN_FEE_RATE","inputs":[],"outputs":[{"name":"","type":"bytes32","internalType":"bytes32"}],"stateMutability":"view"},{"type":"function","name":"PLACE_DECREASE_ORDER_GAS_FEE_LIMIT","inputs":[],"outputs":[{"name":"","type":"bytes32","internalType":"bytes32"}],"stateMutability":"view"},{"type":"function","name":"PLACE_INCREASE_ORDER_GAS_FEE_LIMIT","inputs":[],"outputs":[{"name":"","type":"bytes32","internalType":"bytes32"}],"stateMutability":"view"},{"type":"function","name":"POSITION_UPDATE_LEVERAGE_GAS_FEE_LIMIT","inputs":[],"outputs":[{"name":"","type":"bytes32","internalType":"bytes32"}],"stateMutability":"view"},{"type":"function","name":"POSITION_UPDATE_MARGIN_GAS_FEE_LIMIT","inputs":[],"outputs":[{"name":"","type":"bytes32","internalType":"bytes32"}],"stateMutability":"view"},{"type":"function","name":"REDEEM_GAS_FEE_LIMIT","inputs":[],"outputs":[{"name":"","type":"bytes32","internalType":"bytes32"}],"stateMutability":"view"},{"type":"function","name":"TICK_SIZE","inputs":[],"outputs":[{"name":"","type":"bytes32","internalType":"bytes32"}],"stateMutability":"view"},{"type":"function","name":"UNISWAP_ROUTER","inputs":[],"outputs":[{"name":"","type":"bytes32","internalType":"bytes32"}],"stateMutability":"view"},{"type":"function","name":"WITHDRAW_GAS_FEE_LIMIT","inputs":[],"outputs":[{"name":"","type":"bytes32","internalType":"bytes32"}],"stateMutability":"view"},{"type":"function","name":"WRAPPER_TOKEN","inputs":[],"outputs":[{"name":"","type":"bytes32","internalType":"bytes32"}],"stateMutability":"view"}],"bytecode":{"object":"0x610655610039600b82828239805160001a607314602c57634e487b7160e01b600052600060045260246000fd5b30600052607381538281f3fe73000000000000000000000000000000000000000030146080604052600436106101205760003560e01c80638570560d116100ac578063bafe42871161007b578063bafe42871461019f578063c2339264146101a7578063d088f55e146101af578063d8264920146101b7578063e7816092146101bf57600080fd5b80638570560d1461017f5780639b45ec9714610187578063a3caef7e1461018f578063abc11cd01461019757600080fd5b80634ebc4a98116100f35780634ebc4a9814610157578063547319df1461015f578063554988fa146101675780637724b1061461016f578063813a029d1461017757600080fd5b806315513ea31461012557806319dfbeca1461013f5780633b53399314610147578063418dd7e81461014f575b600080fd5b61012d6101c7565b60405190815260200160405180910390f35b61012d610211565b61012d610249565b61012d61028a565b61012d6102d8565b61012d610312565b61012d610343565b61012d61038f565b61012d6103df565b61012d610411565b61012d610452565b61012d610482565b61012d6104b8565b61012d6104e5565b61012d61051f565b61012d610560565b61012d6105ac565b61012d6105de565b6040516020016101f8906020808252600d908201526c2ba920a82822a92faa27a5a2a760991b604082015260600190565b6040516020818303038152906040528051906020012081565b6040516020016101f89060208082526014908201527314915111515357d1d054d7d1915157d31253525560621b604082015260600190565b6040516020016101f8906020808252601b908201527f4d41585f53484f52545f4f50454e5f494e5445524553545f4341500000000000604082015260600190565b6040516020016101f89060208082526024908201527f504f534954494f4e5f5550444154455f4d415247494e5f4741535f4645455f4c6040820152631253525560e21b606082015260800190565b6040516020016101f8906020808252601690820152751313d391d7d4d213d49517d490551253d7d31253525560521b604082015260600190565b6040516020016101f8906020808252600d908201526c4f50454e5f4645455f5241544560981b604082015260600190565b6040516020016101f89060208082526022908201527f504c4143455f44454352454153455f4f524445525f4741535f4645455f4c494d604082015261125560f21b606082015260800190565b6040516020016101f89060208082526026908201527f504f534954494f4e5f5550444154455f4c455645524147455f4741535f46454560408201526517d31253525560d21b606082015260800190565b6040516020016101f8906020808252600e908201526d434c4f53455f4645455f5241544560901b604082015260600190565b6040516020016101f8906020808252601a908201527f4d41585f4c4f4e475f4f50454e5f494e5445524553545f434150000000000000604082015260600190565b6040516020016101f8906020808252600c908201526b4d41585f4c4556455241474560a01b604082015260600190565b6040516020016101f8906020808252601290820152711352539517d1d054d7d1915157d31253525560721b604082015260600190565b6040516020016101f8906020808252600990820152685449434b5f53495a4560b81b604082015260600190565b6040516020016101f89060208082526016908201527515d2551211149055d7d1d054d7d1915157d31253525560521b604082015260600190565b6040516020016101f8906020808252601a908201527f4c4f4e475f53484f52545f4f495f424f54544f4d5f4c494d4954000000000000604082015260600190565b6040516020016101f89060208082526022908201527f504c4143455f494e4352454153455f4f524445525f4741535f4645455f4c494d604082015261125560f21b606082015260800190565b6040516020016101f8906020808252600e908201526d2aa724a9aba0a82fa927aaaa22a960911b604082015260600190565b6040516020016101f8906020808252601b908201527f434c41494d5f524557415244535f4741535f4645455f4c494d4954000000000060408201526060019056fea26469706673582212204d0c2f1148c9078d3a985badf66501b06b2e54edeb14906d4d08f41d8c1f3b2f64736f6c63430008190033","linkReferences":{}},"methodIdentifiers":{"CLAIM_REWARDS_GAS_FEE_LIMIT()":"e7816092","CLOSE_FEE_RATE()":"813a029d","LONG_SHORT_OI_BOTTOM_LIMIT()":"c2339264","LONG_SHORT_RATIO_LIMIT()":"4ebc4a98","MAX_LEVERAGE()":"9b45ec97","MAX_LONG_OPEN_INTEREST_CAP()":"8570560d","MAX_SHORT_OPEN_INTEREST_CAP()":"3b533993","MINT_GAS_FEE_LIMIT()":"a3caef7e","OPEN_FEE_RATE()":"547319df","PLACE_DECREASE_ORDER_GAS_FEE_LIMIT()":"554988fa","PLACE_INCREASE_ORDER_GAS_FEE_LIMIT()":"d088f55e","POSITION_UPDATE_LEVERAGE_GAS_FEE_LIMIT()":"7724b106","POSITION_UPDATE_MARGIN_GAS_FEE_LIMIT()":"418dd7e8","REDEEM_GAS_FEE_LIMIT()":"19dfbeca","TICK_SIZE()":"abc11cd0","UNISWAP_ROUTER()":"d8264920","WITHDRAW_GAS_FEE_LIMIT()":"bafe4287","WRAPPER_TOKEN()":"15513ea3"},"id":130}