{"abi":[{"type":"function","name":"LP_VAULT","inputs":[],"outputs":[{"name":"","type":"bytes32","internalType":"bytes32"}],"stateMutability":"view"},{"type":"function","name":"PORTFOLIO_VAULT","inputs":[],"outputs":[{"name":"","type":"bytes32","internalType":"bytes32"}],"stateMutability":"view"},{"type":"function","name":"TRADE_VAULT","inputs":[],"outputs":[{"name":"","type":"bytes32","internalType":"bytes32"}],"stateMutability":"view"}],"bytecode":{"object":"0x610157610039600b82828239805160001a607314602c57634e487b7160e01b600052600060045260246000fd5b30600052607381538281f3fe730000000000000000000000000000000000000000301460806040526004361061004b5760003560e01c806390ec670714610050578063b271efef1461006a578063cf2e708b14610072575b600080fd5b61005861007a565b60405190815260200160405180910390f35b6100586100c2565b6100586100ee565b6040516020016100a9906020808252600b908201526a151490511157d59055531560aa1b604082015260600190565b6040516020818303038152906040528051906020012081565b6040516020016100a990602080825260089082015267131417d59055531560c21b604082015260600190565b6040516020016100a9906020808252600f908201526e1413d4951193d31253d7d590555315608a1b60408201526060019056fea2646970667358221220ec8edccdb649738bb25209b3015412e1347729697bd2a625dbbb2a59e80cc14364736f6c63430008190033","linkReferences":{}},"methodIdentifiers":{"LP_VAULT()":"b271efef","PORTFOLIO_VAULT()":"cf2e708b","TRADE_VAULT()":"90ec6707"},"id":135}