{"abi":[{"type":"function","name":"LP_VAULT","inputs":[],"outputs":[{"name":"","type":"bytes32","internalType":"bytes32"}],"stateMutability":"view"},{"type":"function","name":"PORTFOLIO_VAULT","inputs":[],"outputs":[{"name":"","type":"bytes32","internalType":"bytes32"}],"stateMutability":"view"},{"type":"function","name":"TRADE_VAULT","inputs":[],"outputs":[{"name":"","type":"bytes32","internalType":"bytes32"}],"stateMutability":"view"},{"type":"function","name":"getLpVault","inputs":[],"outputs":[{"name":"","type":"address","internalType":"address"}],"stateMutability":"view"},{"type":"function","name":"getPortfolioVault","inputs":[],"outputs":[{"name":"","type":"address","internalType":"address"}],"stateMutability":"view"},{"type":"function","name":"getTradeVault","inputs":[],"outputs":[{"name":"","type":"address","internalType":"address"}],"stateMutability":"view"}],"bytecode":{"object":"0x610575610039600b82828239805160001a607314602c57634e487b7160e01b600052600060045260246000fd5b30600052607381538281f3fe730000000000000000000000000000000000000000301460806040526004361061006c5760003560e01c8063131d5c8a1461007157806390ec670714610096578063b271efef146100ac578063cf2e708b146100b4578063da57c7f8146100bc578063f413e81a146100c4575b600080fd5b6100796100cc565b6040516001600160a01b0390911681526020015b60405180910390f35b61009e610262565b60405190815260200161008d565b61009e6102aa565b61009e6102d6565b610079610309565b6100796103e9565b60008073__$819338afc672a9cefb034a8d5ff76e114d$__6386d5c4be6040518163ffffffff1660e01b8152600401602060405180830381865af4158015610118573d6000803e3d6000fd5b505050506040513d601f19601f8201168201806040525081019061013c91906104d0565b90508073__$819338afc672a9cefb034a8d5ff76e114d$__6356c8caa9909160405160200161016a906104e9565b604051602081830303815290604052805190602001206040516020016101af906020808252600b908201526a151490511157d59055531560aa1b604082015260600190565b604051602081830303815290604052805190602001206040516020016101df929190918252602082015260400190565b604051602081830303815290604052805190602001206040518363ffffffff1660e01b815260040161021b929190918252602082015260400190565b602060405180830381865af4158015610238573d6000803e3d6000fd5b505050506040513d601f19601f8201168201806040525081019061025c919061050f565b91505090565b604051602001610291906020808252600b908201526a151490511157d59055531560aa1b604082015260600190565b6040516020818303038152906040528051906020012081565b60405160200161029190602080825260089082015267131417d59055531560c21b604082015260600190565b604051602001610291906020808252600f908201526e1413d4951193d31253d7d590555315608a1b604082015260600190565b60008073__$819338afc672a9cefb034a8d5ff76e114d$__6386d5c4be6040518163ffffffff1660e01b8152600401602060405180830381865af4158015610355573d6000803e3d6000fd5b505050506040513d601f19601f8201168201806040525081019061037991906104d0565b90508073__$819338afc672a9cefb034a8d5ff76e114d$__6356c8caa990916040516020016103a7906104e9565b604051602081830303815290604052805190602001206040516020016101af90602080825260089082015267131417d59055531560c21b604082015260600190565b60008073__$819338afc672a9cefb034a8d5ff76e114d$__6386d5c4be6040518163ffffffff1660e01b8152600401602060405180830381865af4158015610435573d6000803e3d6000fd5b505050506040513d601f19601f8201168201806040525081019061045991906104d0565b90508073__$819338afc672a9cefb034a8d5ff76e114d$__6356c8caa99091604051602001610487906104e9565b604051602081830303815290604052805190602001206040516020016101af906020808252600f908201526e1413d4951193d31253d7d590555315608a1b604082015260600190565b6000602082840312156104e257600080fd5b5051919050565b6020808252600c908201526b5641554c545f434f4e46494760a01b604082015260600190565b60006020828403121561052157600080fd5b81516001600160a01b038116811461053857600080fd5b939250505056fea2646970667358221220863111cf5192f95ab3a5cea9a5e1ee8508791ef46be9056c72e116a8d8f9e11464736f6c63430008190033","linkReferences":{"src/storage/AppStorage.sol":{"AppStorage":[{"start":266,"length":20},{"start":378,"length":20},{"start":839,"length":20},{"start":951,"length":20},{"start":1063,"length":20},{"start":1175,"length":20}]}}},"methodIdentifiers":{"LP_VAULT()":"b271efef","PORTFOLIO_VAULT()":"cf2e708b","TRADE_VAULT()":"90ec6707","getLpVault()":"da57c7f8","getPortfolioVault()":"f413e81a","getTradeVault()":"131d5c8a"},"id":135}