{"abi":[{"type":"function","name":"createMarket","inputs":[{"name":"params","type":"tuple","internalType":"struct MarketFactoryProcess.CreateMarketParams","components":[{"name":"code","type":"bytes32","internalType":"bytes32"},{"name":"stakeTokenName","type":"string","internalType":"string"},{"name":"indexToken","type":"address","internalType":"address"},{"name":"baseToken","type":"address","internalType":"address"}]}],"outputs":[{"name":"","type":"address","internalType":"address"}],"stateMutability":"nonpayable"},{"type":"function","name":"createStakeUsdPool","inputs":[{"name":"stakeTokenName","type":"string","internalType":"string"},{"name":"decimals","type":"uint8","internalType":"uint8"}],"outputs":[{"name":"","type":"address","internalType":"address"}],"stateMutability":"nonpayable"},{"type":"event","name":"MarketCreated","inputs":[{"name":"code","type":"bytes32","indexed":false,"internalType":"bytes32"},{"name":"stakeTokenName","type":"string","indexed":false,"internalType":"string"},{"name":"indexToken","type":"address","indexed":false,"internalType":"address"},{"name":"baseToken","type":"address","indexed":false,"internalType":"address"},{"name":"stakeToken","type":"address","indexed":false,"internalType":"address"}],"anonymous":false},{"type":"event","name":"PoolCreated","inputs":[{"name":"name","type":"string","indexed":false,"internalType":"string"},{"name":"stakeToken","type":"address","indexed":false,"internalType":"address"}],"anonymous":false},{"type":"error","name":"AddressZero","inputs":[]},{"type":"error","name":"Bytes32Empty","inputs":[]},{"type":"error","name":"CreateStakePoolExists","inputs":[{"name":"stakeToken","type":"address","internalType":"address"}]},{"type":"error","name":"CreateSymbolExists","inputs":[{"name":"code","type":"bytes32","internalType":"bytes32"}]},{"type":"error","name":"InvalidRoleAccess","inputs":[{"name":"account","type":"address","internalType":"address"},{"name":"role","type":"bytes32","internalType":"bytes32"}]},{"type":"error","name":"StringEmpty","inputs":[]}],"bytecode":{"object":"0x6080604052348015600f57600080fd5b50600160005561272f806100246000396000f3fe608060405234801561001057600080fd5b50600436106100365760003560e01c80634777232f1461003b578063ea26e5f21461006a575b600080fd5b61004e6100493660046109b0565b61007d565b6040516001600160a01b03909116815260200160405180910390f35b61004e6100783660046109fa565b610130565b60006100876101df565b61009965434f4e46494760d01b61023d565b6100e36100a96020840184610a7d565b8080601f01602080910402602001604051908101604052809392919081815260200183838082843760009201919091525061027092505050565b6100fb6100f66060840160408501610ae2565b610292565b61010e6100f66080840160608501610ae2565b61011f61011a83610b6d565b6102b9565b905061012b6001600055565b919050565b600061013a6101df565b61014c65434f4e46494760d01b61023d565b61018b84848080601f01602080910402602001604051908101604052809392919081815260200183838082843760009201919091525061027092505050565b6101cc84848080601f01602080910402602001604051908101604052809392919081815260200183838082843760009201919091525086925061057c915050565b90506101d86001600055565b9392505050565b6002600054036102365760405162461bcd60e51b815260206004820152601f60248201527f5265656e7472616e637947756172643a207265656e7472616e742063616c6c0060448201526064015b60405180910390fd5b6002600055565b61024733826106a2565b61026d57604051632d7d0e0d60e21b81523360048201526024810182905260440161022d565b50565b805160000361026d57604051639fac066960e01b815260040160405180910390fd5b6001600160a01b03811661026d57604051639fabe1c160e01b815260040160405180910390fd5b6000806102c983600001516106dc565b60028101549091506001600160a01b0316156102fe578251604051632141f25960e11b8152600481019190915260240161022d565b6040838101516002830180546001600160a01b03199081166001600160a01b0393841617909155606086015160038501805490921692811692909217905560018301805460ff191690556020808601519251919260009261035f9201610c7a565b6040516020818303038152906040528051906020012090506000818660200151846001600160a01b031663313ce5676040518163ffffffff1660e01b8152600401602060405180830381865afa1580156103bd573d6000803e3d6000fd5b505050506040513d601f19601f820116820180604052508101906103e19190610caf565b306040516103ee906109a3565b6103fa93929190610ccc565b8190604051809103906000f590508015801561041a573d6000803e3d6000fd5b50600185018054610100600160a81b0319166101006001600160a01b038416021790559450849050600061044d826106ee565b80549091506001600160a01b0316156104845760405163a6330c2d60e01b81526001600160a01b038716600482015260240161022d565b80546001600160a01b0319166001600160a01b038716178155602087015160018201906104b19082610d8c565b5060608701516002820180546001600160a01b0319166001600160a01b039092169190911790558651600382018190556104ea90610764565b6104f38661078b565b600061050288600001516107a9565b88518082556001820180546001600160a01b0319166001600160a01b038b1617905560208a01516040808c015160608d015191519495507fd109a1a49e2cbbbfdda2ff250815577b0c9cbda3af97dbf749f9c4a49c771c9b94610569949392908d90610e4c565b60405180910390a1505050505050919050565b6000806105876107f4565b6001600160a01b0316146105c25761059d6107f4565b60405163a6330c2d60e01b81526001600160a01b03909116600482015260240161022d565b6000836040516020016105d59190610e8f565b6040516020818303038152906040528051906020012090506000818585306040516105ff906109a3565b61060b93929190610ccc565b8190604051809103906000f590508015801561062b573d6000803e3d6000fd5b509050809250600061063c846106ee565b80546001600160a01b0319166001600160a01b03861617815590506106608461080f565b7fbaac1d377f7c2e2a167c81423f0456e71e6d48ee308b381c5d4666a6bd5242a88685604051610691929190610ec8565b60405180910390a150505092915050565b6000806106ad61083b565b6001600160a01b03851660009081526020829052604090209091506106d2908461089d565b9150505b92915050565b60006106e7826108b5565b9182555090565b60008082604051602001610745919060408082526017908201527f78797a2e656c66692e73746f726167652e4c70506f6f6c00000000000000000060608201526001600160a01b0391909116602082015260800190565b60408051601f1981840301815291905280516020909101209392505050565b600061076e610900565b600190810180549182018155600090815260209020019190915550565b6000610795610900565b90506107a46002820183610944565b505050565b6040805160208101829052601760608201527f78797a2e656c66692e73746f726167652e4d61726b65740000000000000000006080820152908101829052600090819060a001610745565b6000806107ff610900565b546001600160a01b031692915050565b6000610819610900565b80546001600160a01b0319166001600160a01b03939093169290921790915550565b60008060405160200161087f906020808252601e908201527f78797a2e656c66692e73746f726167652e416363657373436f6e74726f6c0000604082015260600190565b60408051601f19818403018152919052805160209091012092915050565b600081815260018301602052604081205415156101d8565b6040805160208101829052601760608201527f78797a2e656c66692e73746f726167652e53796d626f6c0000000000000000006080820152908101829052600090819060a001610745565b60008060405160200161087f906020808252601b908201527f78797a2e656c66692e73746f726167652e436f6d6d6f6e446174610000000000604082015260600190565b60006101d8836001600160a01b038416600081815260018301602052604081205461099b575081546001818101845560008481526020808220909301849055845484825282860190935260409020919091556106d6565b5060006106d6565b61180780610ef383390190565b6000602082840312156109c257600080fd5b813567ffffffffffffffff8111156109d957600080fd5b8201608081850312156101d857600080fd5b60ff8116811461026d57600080fd5b600080600060408486031215610a0f57600080fd5b833567ffffffffffffffff80821115610a2757600080fd5b818601915086601f830112610a3b57600080fd5b813581811115610a4a57600080fd5b876020828501011115610a5c57600080fd5b60209283019550935050840135610a72816109eb565b809150509250925092565b6000808335601e19843603018112610a9457600080fd5b83018035915067ffffffffffffffff821115610aaf57600080fd5b602001915036819003821315610ac457600080fd5b9250929050565b80356001600160a01b038116811461012b57600080fd5b600060208284031215610af457600080fd5b6101d882610acb565b634e487b7160e01b600052604160045260246000fd5b6040516080810167ffffffffffffffff81118282101715610b3657610b36610afd565b60405290565b604051601f8201601f1916810167ffffffffffffffff81118282101715610b6557610b65610afd565b604052919050565b600060808236031215610b7f57600080fd5b610b87610b13565b8235815260208084013567ffffffffffffffff80821115610ba757600080fd5b9085019036601f830112610bba57600080fd5b813581811115610bcc57610bcc610afd565b610bde601f8201601f19168501610b3c565b91508082523684828501011115610bf457600080fd5b808484018584013760009082018401529183019190915250610c1860408401610acb565b6040820152610c2960608401610acb565b606082015292915050565b6000815180845260005b81811015610c5a57602081850181015186830182015201610c3e565b506000602082860101526020601f19601f83011685010191505092915050565b60408152600b60408201526a29aa20a5a2afaa27a5a2a760a91b60608201526080602082015260006101d86080830184610c34565b600060208284031215610cc157600080fd5b81516101d8816109eb565b606081526000610cdf6060830186610c34565b60ff949094166020830152506001600160a01b0391909116604090910152919050565b600181811c90821680610d1657607f821691505b602082108103610d3657634e487b7160e01b600052602260045260246000fd5b50919050565b601f8211156107a4576000816000526020600020601f850160051c81016020861015610d655750805b601f850160051c820191505b81811015610d8457828155600101610d71565b505050505050565b815167ffffffffffffffff811115610da657610da6610afd565b610dba81610db48454610d02565b84610d3c565b602080601f831160018114610def5760008415610dd75750858301515b600019600386901b1c1916600185901b178555610d84565b600085815260208120601f198616915b82811015610e1e57888601518255948401946001909101908401610dff565b5085821015610e3c5787850151600019600388901b60f8161c191681555b5050505050600190811b01905550565b85815260a060208201526000610e6560a0830187610c34565b6001600160a01b039586166040840152938516606083015250921660809092019190915292915050565b60408152600f60408201526e29aa20a5a2afaaa9a22faa27a5a2a760891b60608201526080602082015260006101d86080830184610c34565b604081526000610edb6040830185610c34565b905060018060a01b0383166020830152939250505056fe60806040526006805460ff1916601217905534801561001d57600080fd5b5060405161180738038061180783398101604081905261003c916101af565b60408051808201909152600b81526a29ba30b5b2903a37b5b2b760a91b6020820152819084600361006d8382610324565b50600461007a8282610324565b5050506100ad7fa49807205ce4d355092ef5a8a18f56e8913cf4a201fbe287825b095693c21775826100c960201b60201c565b50506006805460ff191660ff92909216919091179055506103e3565b60008281526005602090815260408083206001600160a01b038516845290915290205460ff166101685760008281526005602090815260408083206001600160a01b03851684529091529020805460ff191660011790556101273390565b6001600160a01b0316816001600160a01b0316837f2f8788117e7eff1d82e926ec794901d17c78024a50270940304540a733656f0d60405160405180910390a45b5050565b634e487b7160e01b600052604160045260246000fd5b805160ff8116811461019357600080fd5b919050565b80516001600160a01b038116811461019357600080fd5b6000806000606084860312156101c457600080fd5b83516001600160401b03808211156101db57600080fd5b818601915086601f8301126101ef57600080fd5b8151818111156102015761020161016c565b604051601f8201601f19908116603f011681019083821181831017156102295761022961016c565b8160405282815260209350898484870101111561024557600080fd5b600091505b82821015610267578482018401518183018501529083019061024a565b6000848483010152809750505050610280818701610182565b9350505061029060408501610198565b90509250925092565b600181811c908216806102ad57607f821691505b6020821081036102cd57634e487b7160e01b600052602260045260246000fd5b50919050565b601f82111561031f576000816000526020600020601f850160051c810160208610156102fc5750805b601f850160051c820191505b8181101561031b57828155600101610308565b5050505b505050565b81516001600160401b0381111561033d5761033d61016c565b6103518161034b8454610299565b846102d3565b602080601f831160018114610386576000841561036e5750858301515b600019600386901b1c1916600185901b17855561031b565b600085815260208120601f198616915b828110156103b557888601518255948401946001909101908401610396565b50858210156103d35787850151600019600388901b60f8161c191681555b5050505050600190811b01905550565b611415806103f26000396000f3fe608060405234801561001057600080fd5b50600436106101585760003560e01c806339509351116100c35780639dc29fac1161007c5780639dc29fac146102ea578063a217fddf146102fd578063a457c2d714610305578063a9059cbb14610318578063d547741f1461032b578063dd62ed3e1461033e57600080fd5b8063395093511461026b57806340c10f191461027e57806370a082311461029157806375b238fc146102ba57806391d14854146102cf57806395d89b41146102e257600080fd5b8063248a9ca311610115578063248a9ca3146101e75780632d3456701461020a5780632f2ff15d1461021d578063313ce5671461023057806335bb3e161461024557806336568abe1461025857600080fd5b806301ffc9a71461015d57806306fdde0314610185578063078d3b791461019a578063095ea7b3146101af57806318160ddd146101c257806323b872dd146101d4575b600080fd5b61017061016b3660046110c2565b610351565b60405190151581526020015b60405180910390f35b61018d610388565b60405161017c9190611110565b6101ad6101a836600461115f565b61041a565b005b6101706101bd36600461119b565b61047c565b6002545b60405190815260200161017c565b6101706101e236600461115f565b610494565b6101c66101f53660046111c5565b60009081526005602052604090206001015490565b6101ad6102183660046111de565b6104b8565b6101ad61022b3660046111f9565b6104ec565b60065460405160ff909116815260200161017c565b6101ad6102533660046111de565b610516565b6101ad6102663660046111f9565b610546565b61017061027936600461119b565b6105c0565b6101ad61028c36600461119b565b6105e2565b6101c661029f3660046111de565b6001600160a01b031660009081526020819052604090205490565b6101c66000805160206113c083398151915281565b6101706102dd3660046111f9565b610604565b61018d61062f565b6101ad6102f836600461119b565b61063e565b6101c6600081565b61017061031336600461119b565b610660565b61017061032636600461119b565b6106db565b6101ad6103393660046111f9565b6106e9565b6101c661034c366004611225565b61070e565b60006001600160e01b03198216637965db0b60e01b148061038257506301ffc9a760e01b6001600160e01b03198316145b92915050565b6060600380546103979061124f565b80601f01602080910402602001604051908101604052809291908181526020018280546103c39061124f565b80156104105780601f106103e557610100808354040283529160200191610410565b820191906000526020600020905b8154815290600101906020018083116103f357829003601f168201915b5050505050905090565b6000805160206113c083398151915261043281610739565b306001600160a01b0384160361046b57604051638d6a597160e01b81526001600160a01b03841660048201526024015b60405180910390fd5b610476848484610746565b50505050565b60003361048a81858561079e565b5060019392505050565b6000336104a28582856108c2565b6104ad858585610936565b506001949350505050565b6000805160206113c08339815191526104d081610739565b6104e86000805160206113c083398151915283610ada565b5050565b60008281526005602052604090206001015461050781610739565b6105118383610b41565b505050565b6000805160206113c083398151915261052e81610739565b6104e86000805160206113c083398151915283610b41565b6001600160a01b03811633146105b65760405162461bcd60e51b815260206004820152602f60248201527f416363657373436f6e74726f6c3a2063616e206f6e6c792072656e6f756e636560448201526e103937b632b9903337b91039b2b63360891b6064820152608401610462565b6104e88282610ada565b60003361048a8185856105d3838361070e565b6105dd919061129f565b61079e565b6000805160206113c08339815191526105fa81610739565b6105118383610bc7565b60009182526005602090815260408084206001600160a01b0393909316845291905290205460ff1690565b6060600480546103979061124f565b6000805160206113c083398151915261065681610739565b6105118383610c86565b6000338161066e828661070e565b9050838110156106ce5760405162461bcd60e51b815260206004820152602560248201527f45524332303a2064656372656173656420616c6c6f77616e63652062656c6f77604482015264207a65726f60d81b6064820152608401610462565b6104ad828686840361079e565b60003361048a818585610936565b60008281526005602052604090206001015461070481610739565b6105118383610ada565b6001600160a01b03918216600090815260016020908152604080832093909416825291909152205490565b6107438133610db8565b50565b8060000361075357505050565b600061076484848462030d40610e11565b9050806104765760405163012f3b8f60e71b81526001600160a01b0380861660048301528416602482015260448101839052606401610462565b6001600160a01b0383166108005760405162461bcd60e51b8152602060048201526024808201527f45524332303a20617070726f76652066726f6d20746865207a65726f206164646044820152637265737360e01b6064820152608401610462565b6001600160a01b0382166108615760405162461bcd60e51b815260206004820152602260248201527f45524332303a20617070726f766520746f20746865207a65726f206164647265604482015261737360f01b6064820152608401610462565b6001600160a01b0383811660008181526001602090815260408083209487168084529482529182902085905590518481527f8c5be1e5ebec7d5bd14f71427d1e84f3dd0314c0f7b2291e5b200ac8c7c3b925910160405180910390a3505050565b60006108ce848461070e565b9050600019811461047657818110156109295760405162461bcd60e51b815260206004820152601d60248201527f45524332303a20696e73756666696369656e7420616c6c6f77616e63650000006044820152606401610462565b610476848484840361079e565b6001600160a01b03831661099a5760405162461bcd60e51b815260206004820152602560248201527f45524332303a207472616e736665722066726f6d20746865207a65726f206164604482015264647265737360d81b6064820152608401610462565b6001600160a01b0382166109fc5760405162461bcd60e51b815260206004820152602360248201527f45524332303a207472616e7366657220746f20746865207a65726f206164647260448201526265737360e81b6064820152608401610462565b6001600160a01b03831660009081526020819052604090205481811015610a745760405162461bcd60e51b815260206004820152602660248201527f45524332303a207472616e7366657220616d6f756e7420657863656564732062604482015265616c616e636560d01b6064820152608401610462565b6001600160a01b03848116600081815260208181526040808320878703905593871680835291849020805487019055925185815290927fddf252ad1be2c89b69c2b068fc378daa952ba7f163c4a11628f55a4df523b3ef910160405180910390a3610476565b610ae48282610604565b156104e85760008281526005602090815260408083206001600160a01b0385168085529252808320805460ff1916905551339285917ff6391f5c32d9c69d2a47ea670b442974b53935d1edc7fd64eb21e047a839171b9190a45050565b610b4b8282610604565b6104e85760008281526005602090815260408083206001600160a01b03851684529091529020805460ff19166001179055610b833390565b6001600160a01b0316816001600160a01b0316837f2f8788117e7eff1d82e926ec794901d17c78024a50270940304540a733656f0d60405160405180910390a45050565b6001600160a01b038216610c1d5760405162461bcd60e51b815260206004820152601f60248201527f45524332303a206d696e7420746f20746865207a65726f2061646472657373006044820152606401610462565b8060026000828254610c2f919061129f565b90915550506001600160a01b038216600081815260208181526040808320805486019055518481527fddf252ad1be2c89b69c2b068fc378daa952ba7f163c4a11628f55a4df523b3ef910160405180910390a35050565b6001600160a01b038216610ce65760405162461bcd60e51b815260206004820152602160248201527f45524332303a206275726e2066726f6d20746865207a65726f206164647265736044820152607360f81b6064820152608401610462565b6001600160a01b03821660009081526020819052604090205481811015610d5a5760405162461bcd60e51b815260206004820152602260248201527f45524332303a206275726e20616d6f756e7420657863656564732062616c616e604482015261636560f01b6064820152608401610462565b6001600160a01b0383166000818152602081815260408083208686039055600280548790039055518581529192917fddf252ad1be2c89b69c2b068fc378daa952ba7f163c4a11628f55a4df523b3ef910160405180910390a3505050565b610dc28282610604565b6104e857610dcf81610f0d565b610dda836020610f1f565b604051602001610deb9291906112b2565b60408051601f198184030181529082905262461bcd60e51b825261046291600401611110565b604080516001600160a01b038581166024830152604480830186905283518084039091018152606490920183526020820180516001600160e01b031663a9059cbb60e01b1790529151600092839182918916908690610e71908690611327565b60006040518083038160008787f1925050503d8060008114610eaf576040519150601f19603f3d011682016040523d82523d6000602084013e610eb4565b606091505b509150915081610eca5760009350505050610f05565b60008151118015610eec575080806020019051810190610eea9190611343565b155b15610efd5760009350505050610f05565b600193505050505b949350505050565b60606103826001600160a01b03831660145b60606000610f2e836002611365565b610f3990600261129f565b67ffffffffffffffff811115610f5157610f5161137c565b6040519080825280601f01601f191660200182016040528015610f7b576020820181803683370190505b509050600360fc1b81600081518110610f9657610f96611392565b60200101906001600160f81b031916908160001a905350600f60fb1b81600181518110610fc557610fc5611392565b60200101906001600160f81b031916908160001a9053506000610fe9846002611365565b610ff490600161129f565b90505b600181111561106c576f181899199a1a9b1b9c1cb0b131b232b360811b85600f166010811061102857611028611392565b1a60f81b82828151811061103e5761103e611392565b60200101906001600160f81b031916908160001a90535060049490941c93611065816113a8565b9050610ff7565b5083156110bb5760405162461bcd60e51b815260206004820181905260248201527f537472696e67733a20686578206c656e67746820696e73756666696369656e746044820152606401610462565b9392505050565b6000602082840312156110d457600080fd5b81356001600160e01b0319811681146110bb57600080fd5b60005b838110156111075781810151838201526020016110ef565b50506000910152565b602081526000825180602084015261112f8160408501602087016110ec565b601f01601f19169190910160400192915050565b80356001600160a01b038116811461115a57600080fd5b919050565b60008060006060848603121561117457600080fd5b61117d84611143565b925061118b60208501611143565b9150604084013590509250925092565b600080604083850312156111ae57600080fd5b6111b783611143565b946020939093013593505050565b6000602082840312156111d757600080fd5b5035919050565b6000602082840312156111f057600080fd5b6110bb82611143565b6000806040838503121561120c57600080fd5b8235915061121c60208401611143565b90509250929050565b6000806040838503121561123857600080fd5b61124183611143565b915061121c60208401611143565b600181811c9082168061126357607f821691505b60208210810361128357634e487b7160e01b600052602260045260246000fd5b50919050565b634e487b7160e01b600052601160045260246000fd5b8082018082111561038257610382611289565b7f416363657373436f6e74726f6c3a206163636f756e74200000000000000000008152600083516112ea8160178501602088016110ec565b7001034b99036b4b9b9b4b733903937b6329607d1b601791840191820152835161131b8160288401602088016110ec565b01602801949350505050565b600082516113398184602087016110ec565b9190910192915050565b60006020828403121561135557600080fd5b815180151581146110bb57600080fd5b808202811582820484141761038257610382611289565b634e487b7160e01b600052604160045260246000fd5b634e487b7160e01b600052603260045260246000fd5b6000816113b7576113b7611289565b50600019019056fea49807205ce4d355092ef5a8a18f56e8913cf4a201fbe287825b095693c21775a2646970667358221220792a843a97db07b05d52d1dbbf4ff22dd4bc641c2b0f9d759ddb9cd07fb4e3c364736f6c63430008190033a26469706673582212202a8c7f7ab6e3ed65ef9945f273f48d9b773ef1e66f8563766d76162e5582544364736f6c63430008190033","linkReferences":{}},"methodIdentifiers":{"createMarket((bytes32,string,address,address))":"4777232f","createStakeUsdPool(string,uint8)":"ea26e5f2"},"id":63}