{"abi":[{"type":"function","name":"createMarket","inputs":[{"name":"params","type":"tuple","internalType":"struct MarketFactoryProcess.CreateMarketParams","components":[{"name":"code","type":"bytes32","internalType":"bytes32"},{"name":"stakeTokenName","type":"string","internalType":"string"},{"name":"indexToken","type":"address","internalType":"address"},{"name":"baseToken","type":"address","internalType":"address"}]}],"outputs":[],"stateMutability":"nonpayable"},{"type":"function","name":"createStakeUsdPool","inputs":[{"name":"stakeTokenName","type":"string","internalType":"string"},{"name":"decimals","type":"uint8","internalType":"uint8"}],"outputs":[{"name":"","type":"address","internalType":"address"}],"stateMutability":"nonpayable"},{"type":"error","name":"InvalidRoleAccess","inputs":[{"name":"account","type":"address","internalType":"address"},{"name":"role","type":"bytes32","internalType":"bytes32"}]}],"bytecode":{"object":"0x6080604052348015600f57600080fd5b506001600055610808806100246000396000f3fe608060405234801561001057600080fd5b50600436106100365760003560e01c80634777232f1461003b578063ea26e5f214610050575b600080fd5b61004e610049366004610554565b61007f565b005b61006361005e36600461058f565b610301565b6040516001600160a01b03909116815260200160405180910390f35b610087610414565b61009965434f4e46494760d01b610472565b604051631861063560e31b81528135600482015273__$1a578a93a81f7683136677deb9a71eef42$__9063c30831a89060240160006040518083038186803b1580156100e457600080fd5b505af41580156100f8573d6000803e3d6000fd5b5050505073__$1a578a93a81f7683136677deb9a71eef42$__6303e234a48280602001906101269190610618565b6040518363ffffffff1660e01b815260040161014392919061068f565b60006040518083038186803b15801561015b57600080fd5b505af415801561016f573d6000803e3d6000fd5b5050505073__$6da87a77f33546d3f0e6244a8f7078a532$__637ff877008260400160208101906101a091906106c8565b6040516001600160e01b031960e084901b1681526001600160a01b03909116600482015260240160006040518083038186803b1580156101df57600080fd5b505af41580156101f3573d6000803e3d6000fd5b5050505073__$6da87a77f33546d3f0e6244a8f7078a532$__637ff8770082606001602081019061022491906106c8565b6040516001600160e01b031960e084901b1681526001600160a01b03909116600482015260240160006040518083038186803b15801561026357600080fd5b505af4158015610277573d6000803e3d6000fd5b505060405163f65b312760e01b815273__$fd083341c1ac6a6c266950739f88ea92ec$__925063f65b312791506102b29084906004016106e5565b602060405180830381865af41580156102cf573d6000803e3d6000fd5b505050506040513d601f19601f820116820180604052508101906102f3919061078e565b506102fe6001600055565b50565b600061030b610414565b61031d65434f4e46494760d01b610472565b60405162f88d2960e21b815273__$1a578a93a81f7683136677deb9a71eef42$__906303e234a490610355908790879060040161068f565b60006040518083038186803b15801561036d57600080fd5b505af4158015610381573d6000803e3d6000fd5b505060405163751372f960e11b815273__$fd083341c1ac6a6c266950739f88ea92ec$__925063ea26e5f291506103c0908790879087906004016107ab565b602060405180830381865af41580156103dd573d6000803e3d6000fd5b505050506040513d601f19601f82011682018060405250810190610401919061078e565b905061040d6001600055565b9392505050565b60026000540361046b5760405162461bcd60e51b815260206004820152601f60248201527f5265656e7472616e637947756172643a207265656e7472616e742063616c6c0060448201526064015b60405180910390fd5b6002600055565b61047c33826104a2565b6102fe57604051632d7d0e0d60e21b815233600482015260248101829052604401610462565b6000806104ad6104da565b6001600160a01b03851660009081526020829052604090209091506104d2908461053c565b949350505050565b60008060405160200161051e906020808252601e908201527f78797a2e656c66692e73746f726167652e416363657373436f6e74726f6c0000604082015260600190565b60408051601f19818403018152919052805160209091012092915050565b6000818152600183016020526040812054151561040d565b60006020828403121561056657600080fd5b813567ffffffffffffffff81111561057d57600080fd5b82016080818503121561040d57600080fd5b6000806000604084860312156105a457600080fd5b833567ffffffffffffffff808211156105bc57600080fd5b818601915086601f8301126105d057600080fd5b8135818111156105df57600080fd5b8760208285010111156105f157600080fd5b6020928301955093505084013560ff8116811461060d57600080fd5b809150509250925092565b6000808335601e1984360301811261062f57600080fd5b83018035915067ffffffffffffffff82111561064a57600080fd5b60200191503681900382131561065f57600080fd5b9250929050565b81835281816020850137506000828201602090810191909152601f909101601f19169091010190565b6020815260006104d2602083018486610666565b6001600160a01b03811681146102fe57600080fd5b80356106c3816106a3565b919050565b6000602082840312156106da57600080fd5b813561040d816106a3565b602081528135602082015260006020830135601e1984360301811261070957600080fd5b830160208101903567ffffffffffffffff81111561072657600080fd5b80360382131561073557600080fd5b6080604085015261074a60a085018284610666565b915050604084013561075b816106a3565b6001600160a01b038116606085015250610777606085016106b8565b6001600160a01b0381166080850152509392505050565b6000602082840312156107a057600080fd5b815161040d816106a3565b6040815260006107bf604083018587610666565b905060ff8316602083015294935050505056fea26469706673582212200c0e1d99021dda1b8e47c7815a63a8f1c6c35d0da3d16f5f3564b1f4997a71bc64736f6c63430008190033","linkReferences":{"src/process/MarketFactoryProcess.sol":{"MarketFactoryProcess":[{"start":684,"length":20},{"start":950,"length":20}]},"src/utils/AddressUtils.sol":{"AddressUtils":[{"start":409,"length":20},{"start":541,"length":20}]},"src/utils/TypeUtils.sol":{"TypeUtils":[{"start":211,"length":20},{"start":290,"length":20},{"start":847,"length":20}]}}},"methodIdentifiers":{"createMarket((bytes32,string,address,address))":"4777232f","createStakeUsdPool(string,uint8)":"ea26e5f2"},"id":63}