{"abi":[{"type":"function","name":"ALL_PERMISSION_FLAG","inputs":[],"outputs":[{"name":"","type":"bytes32","internalType":"bytes32"}],"stateMutability":"view"},{"type":"function","name":"BURN_PERMISSION_FLAG","inputs":[],"outputs":[{"name":"","type":"bytes32","internalType":"bytes32"}],"stateMutability":"view"},{"type":"function","name":"DEPOSIT_PERMISSION_FLAG","inputs":[],"outputs":[{"name":"","type":"bytes32","internalType":"bytes32"}],"stateMutability":"view"},{"type":"function","name":"MINT_PERMISSION_FLAG","inputs":[],"outputs":[{"name":"","type":"bytes32","internalType":"bytes32"}],"stateMutability":"view"},{"type":"function","name":"ORDER_PERMISSION_FLAG","inputs":[],"outputs":[{"name":"","type":"bytes32","internalType":"bytes32"}],"stateMutability":"view"},{"type":"function","name":"WITHDRAW_PERMISSION_FLAG","inputs":[],"outputs":[{"name":"","type":"bytes32","internalType":"bytes32"}],"stateMutability":"view"},{"type":"error","name":"AddressDenied","inputs":[{"name":"to","type":"address","internalType":"address"}]}],"bytecode":{"object":"0x6101a3610039600b82828239805160001a607314602c57634e487b7160e01b600052600060045260246000fd5b30600052607381538281f3fe730000000000000000000000000000000000000000301460806040526004361061006c5760003560e01c80631a4e7ede1461007157806348355ba7146100aa578063763dde02146100d15780637d8f6a46146100f8578063937062281461011f578063fa03b4d214610146575b600080fd5b6100987f3b226e539733dbbabd4b4d14a11468ade4803c50e42aa599bd4c8c5bb9a8c6bd81565b60405190815260200160405180910390f35b6100987f693bdef2aaf3effda459e6a1e4d3faec120b1fab8b8534ebb5f653f9c7f7c59b81565b6100987f61f941c7db6274ccb062eb4f91c9b01f90aed8f6789f1cc23ba31735d307dafe81565b6100987f036a8f0409abfd6ac7133e4e64806c130f78573525195f75d9cf483447e6ed3781565b6100987f4fa14d620357ceaf4556d627fb221a6ca187f52b73b3acef53780fd68f02474d81565b6100987f6addd3c34c04de28a18f3d7a5666c3a2db4f23e56d2e0e05876b411139557b608156fea2646970667358221220faba72efa0332061b2ca6f681ad590818c4ad79bd24be9b329c152de0503f6e464736f6c63430008190033","linkReferences":{}},"methodIdentifiers":{"ALL_PERMISSION_FLAG()":"1a4e7ede","BURN_PERMISSION_FLAG()":"93706228","DEPOSIT_PERMISSION_FLAG()":"fa03b4d2","MINT_PERMISSION_FLAG()":"763dde02","ORDER_PERMISSION_FLAG()":"7d8f6a46","WITHDRAW_PERMISSION_FLAG()":"48355ba7"},"id":148}