{"abi":[{"type":"function","name":"ALL_PERMISSION_FLAG","inputs":[],"outputs":[{"name":"","type":"bytes32","internalType":"bytes32"}],"stateMutability":"view"},{"type":"function","name":"BURN_PERMISSION_FLAG","inputs":[],"outputs":[{"name":"","type":"bytes32","internalType":"bytes32"}],"stateMutability":"view"},{"type":"function","name":"DEPOSIT_PERMISSION_FLAG","inputs":[],"outputs":[{"name":"","type":"bytes32","internalType":"bytes32"}],"stateMutability":"view"},{"type":"function","name":"MINT_PERMISSION_FLAG","inputs":[],"outputs":[{"name":"","type":"bytes32","internalType":"bytes32"}],"stateMutability":"view"},{"type":"function","name":"ORDER_PERMISSION_FLAG","inputs":[],"outputs":[{"name":"","type":"bytes32","internalType":"bytes32"}],"stateMutability":"view"},{"type":"function","name":"WITHDRAW_PERMISSION_FLAG","inputs":[],"outputs":[{"name":"","type":"bytes32","internalType":"bytes32"}],"stateMutability":"view"},{"type":"function","name":"isAllowed","inputs":[{"name":"featureKey","type":"bytes32","internalType":"bytes32"},{"name":"to","type":"address","internalType":"address"}],"outputs":[{"name":"","type":"bool","internalType":"bool"}],"stateMutability":"view"},{"type":"function","name":"isDenied","inputs":[{"name":"featureKey","type":"bytes32","internalType":"bytes32"},{"name":"to","type":"address","internalType":"address"}],"outputs":[{"name":"","type":"bool","internalType":"bool"}],"stateMutability":"view"},{"type":"function","name":"validDenied","inputs":[{"name":"featureKey","type":"bytes32","internalType":"bytes32"},{"name":"to","type":"address","internalType":"address"}],"outputs":[],"stateMutability":"view"},{"type":"error","name":"AddressDenied","inputs":[{"name":"to","type":"address","internalType":"address"}]}],"bytecode":{"object":"0x6103b2610039600b82828239805160001a607314602c57634e487b7160e01b600052600060045260246000fd5b30600052607381538281f3fe73000000000000000000000000000000000000000030146080604052600436106100a85760003560e01c806382027b6d1161007057806382027b6d146101715780639370622814610194578063f0350799146101bb578063f2ac8a69146101ce578063fa03b4d2146101e157600080fd5b806315bb2e93146100ad5780631a4e7ede146100c257806348355ba7146100fc578063763dde02146101235780637d8f6a461461014a575b600080fd5b6100c06100bb366004610327565b610208565b005b6100e97f3b226e539733dbbabd4b4d14a11468ade4803c50e42aa599bd4c8c5bb9a8c6bd81565b6040519081526020015b60405180910390f35b6100e97f693bdef2aaf3effda459e6a1e4d3faec120b1fab8b8534ebb5f653f9c7f7c59b81565b6100e97f61f941c7db6274ccb062eb4f91c9b01f90aed8f6789f1cc23ba31735d307dafe81565b6100e97f036a8f0409abfd6ac7133e4e64806c130f78573525195f75d9cf483447e6ed3781565b61018461017f366004610327565b610263565b60405190151581526020016100f3565b6100e97f4fa14d620357ceaf4556d627fb221a6ca187f52b73b3acef53780fd68f02474d81565b6100e96101c9366004610363565b610298565b6101846101dc366004610327565b6102f6565b6100e97f6addd3c34c04de28a18f3d7a5666c3a2db4f23e56d2e0e05876b411139557b6081565b600061021383610298565b6001600160a01b03831660009081526003820160205260409020549091501561025e5760405163365c832d60e11b81526001600160a01b038316600482015260240160405180910390fd5b505050565b60008061026f84610298565b6001600160a01b038416600090815260018201602052604090205490915015155b949350505050565b604080516020808201839052601b60608301527f78797a2e656c66692e73746f726167652e5065726d697373696f6e0000000000608080840191909152828401949094528251808303909401845260a0909101909152815191012090565b60008061030284610298565b6001600160a01b03841660009081526003820160205260409020549091501515610290565b6000806040838503121561033a57600080fd5b8235915060208301356001600160a01b038116811461035857600080fd5b809150509250929050565b60006020828403121561037557600080fd5b503591905056fea26469706673582212208385d595c968db3ddd9c3738138bb73b14440c6f8439fb2ab74ee982a5c4811164736f6c63430008190033","linkReferences":{}},"methodIdentifiers":{"ALL_PERMISSION_FLAG()":"1a4e7ede","BURN_PERMISSION_FLAG()":"93706228","DEPOSIT_PERMISSION_FLAG()":"fa03b4d2","MINT_PERMISSION_FLAG()":"763dde02","ORDER_PERMISSION_FLAG()":"7d8f6a46","WITHDRAW_PERMISSION_FLAG()":"48355ba7","isAllowed(bytes32,address)":"82027b6d","isDenied(bytes32,address)":"f2ac8a69","load(bytes32)":"f0350799","validDenied(bytes32,address)":"15bb2e93"},"id":148}