{"abi":[{"type":"function","name":"getAccountReferral","inputs":[{"name":"account","type":"address","internalType":"address"}],"outputs":[{"name":"","type":"tuple","internalType":"struct Referral.Props","components":[{"name":"account","type":"address","internalType":"address"},{"name":"code","type":"bytes32","internalType":"bytes32"},{"name":"referralCode","type":"bytes32","internalType":"bytes32"}]}],"stateMutability":"pure"},{"type":"function","name":"isCodeExists","inputs":[{"name":"code","type":"bytes32","internalType":"bytes32"}],"outputs":[{"name":"","type":"bool","internalType":"bool"}],"stateMutability":"view"}],"bytecode":{"object":"0x6080604052348015600f57600080fd5b5061029e8061001f6000396000f3fe608060405234801561001057600080fd5b50600436106100365760003560e01c80636ecc79e41461003b578063e8af7f0814610063575b600080fd5b61004e6100493660046101e4565b6100a1565b60405190151581526020015b60405180910390f35b6100766100713660046101fd565b61011e565b6040805182516001600160a01b0316815260208084015190820152918101519082015260600161005a565b604051631bb31e7960e21b81526004810182905260009073__$6aab829e329ce22790341f86426b81ad2f$__90636ecc79e490602401602060405180830381865af41580156100f4573d6000803e3d6000fd5b505050506040513d601f19601f82011682018060405250810190610118919061022d565b92915050565b60408051606081018252600080825260208201819052818301529051630bd039cd60e21b81526001600160a01b038316600482015273__$6aab829e329ce22790341f86426b81ad2f$__90632f40e73490602401602060405180830381865af415801561018f573d6000803e3d6000fd5b505050506040513d601f19601f820116820180604052508101906101b3919061024f565b6040805160608101825282546001600160a01b03168152600183015460208201526002909201549082015292915050565b6000602082840312156101f657600080fd5b5035919050565b60006020828403121561020f57600080fd5b81356001600160a01b038116811461022657600080fd5b9392505050565b60006020828403121561023f57600080fd5b8151801515811461022657600080fd5b60006020828403121561026157600080fd5b505191905056fea2646970667358221220e6ee458bf31be1c6b61e7fccc27348cd0933c9e6572d46a167b7936c48b80a1564736f6c63430008190033","linkReferences":{"src/storage/Referral.sol":{"Referral":[{"start":217,"length":20},{"start":372,"length":20}]}}},"methodIdentifiers":{"getAccountReferral(address)":"e8af7f08","isCodeExists(bytes32)":"6ecc79e4"},"id":59}