{"abi":[{"type":"function","name":"getAccountReferral","inputs":[{"name":"account","type":"address","internalType":"address"}],"outputs":[{"name":"","type":"tuple","internalType":"struct Referral.Props","components":[{"name":"account","type":"address","internalType":"address"},{"name":"code","type":"bytes32","internalType":"bytes32"},{"name":"referralCode","type":"bytes32","internalType":"bytes32"}]}],"stateMutability":"pure"},{"type":"function","name":"isCodeExists","inputs":[{"name":"code","type":"bytes32","internalType":"bytes32"}],"outputs":[{"name":"","type":"bool","internalType":"bool"}],"stateMutability":"view"}],"bytecode":{"object":"0x6080604052348015600f57600080fd5b506102fc8061001f6000396000f3fe608060405234801561001057600080fd5b50600436106100365760003560e01c80636ecc79e41461003b578063e8af7f0814610063575b600080fd5b61004e610049366004610284565b6100a1565b60405190151581526020015b60405180910390f35b61007661007136600461029d565b6100b2565b6040805182516001600160a01b0316815260208084015190820152918101519082015260600161005a565b60006100ac82610109565b92915050565b60408051606081018252600080825260208201819052918101919091526100d8826101de565b6040805160608101825282546001600160a01b03168152600183015460208201526002909201549082015292915050565b600080600060405160200161013a90602080825260089082015267149151915494905360c21b604082015260600190565b60405160208183030381529060405280519060200120604051602001610181906020808252600d908201526c524546455252414c5f434f444560981b604082015260600190565b604051602081830303815290604052805190602001206040516020016101b1929190918252602082015260400190565b60408051601f19818403018152919052805160209091012090506101d6828286610254565b949350505050565b60008082604051602001610235919060408082526019908201527f78797a2e656c66692e73746f726167652e526566657272616c0000000000000060608201526001600160a01b0391909116602082015260800190565b60408051601f1981840301815291905280516020909101209392505050565b6000828152600d8401602052604081206101d69083600081815260018301602052604081205415155b9392505050565b60006020828403121561029657600080fd5b5035919050565b6000602082840312156102af57600080fd5b81356001600160a01b038116811461027d57600080fdfea26469706673582212203850110810ce2b0136ff18bc60bfb4b4cba211b92c686cd6cb215bdd1008d46f64736f6c63430008190033","linkReferences":{}},"methodIdentifiers":{"getAccountReferral(address)":"e8af7f08","isCodeExists(bytes32)":"6ecc79e4"},"id":69}