{"abi":[{"type":"function","name":"TEST","inputs":[],"outputs":[{"name":"","type":"uint256","internalType":"uint256"}],"stateMutability":"view"},{"type":"error","name":"AddressZero","inputs":[]}],"bytecode":{"object":"0x60886037600b82828239805160001a607314602a57634e487b7160e01b600052600060045260246000fd5b30600052607381538281f3fe730000000000000000000000000000000000000000301460806040526004361060335760003560e01c806351d977a6146038575b600080fd5b60406103e881565b60405190815260200160405180910390f3fea2646970667358221220f0b305a71e7ddc45bc7e0b4971401c43d4945dada0c4de22f59d63b3ff13493064736f6c63430008190033","linkReferences":{}},"methodIdentifiers":{"TEST()":"51d977a6"},"id":160}