{"abi":[{"type":"function","name":"get","inputs":[{"name":"requestId","type":"uint256","internalType":"uint256"}],"outputs":[{"name":"","type":"tuple","internalType":"struct Redeem.Request","components":[{"name":"account","type":"address","internalType":"address"},{"name":"receiver","type":"address","internalType":"address"},{"name":"stakeToken","type":"address","internalType":"address"},{"name":"redeemToken","type":"address","internalType":"address"},{"name":"unStakeAmount","type":"uint256","internalType":"uint256"},{"name":"minRedeemAmount","type":"uint256","internalType":"uint256"},{"name":"executionFee","type":"uint256","internalType":"uint256"}]}],"stateMutability":"view"}],"bytecode":{"object":"0x6102fd610039600b82828239805160001a607314602c57634e487b7160e01b600052600060045260246000fd5b30600052607381538281f3fe73000000000000000000000000000000000000000030146080604052600436106100565760003560e01c80634cc822151461005b578063780900dc1461007d57806386d5c4be146100a35780639507d39a146100ab575b600080fd5b81801561006757600080fd5b5061007b6100763660046102ae565b610121565b005b61009061008b3660046102ae565b61017b565b6040519081526020015b60405180910390f35b610090610197565b6100be6100b93660046102ae565b6101f9565b60405161009a919081516001600160a01b039081168252602080840151821690830152604080840151821690830152606080840151909116908201526080808301519082015260a0828101519082015260c0918201519181019190915260e00190565b600061012b610197565b6000928352602052506040812080546001600160a01b0319908116825560018201805482169055600282018054821690556003820180549091169055600481018290556005810182905560060155565b600080610186610197565b600093845260205250506040902090565b6000806040516020016101db9060208082526017908201527f78797a2e656c66692e73746f726167652e52656465656d000000000000000000604082015260600190565b60408051601f19818403018152919052805160209091012092915050565b6040805160e081018252600080825260208201819052918101829052606081018290526080810182905260a0810182905260c081018290529061023a610197565b60009384526020908152604093849020845160e08101865281546001600160a01b039081168252600183015481169382019390935260028201548316958101959095526003810154909116606085015260048101546080850152600581015460a08501526006015460c08401525090919050565b6000602082840312156102c057600080fd5b503591905056fea26469706673582212202c194808a005a00c47ac51db282787d12ce9c9f88c598b0f9cc00f4fec2b96bd64736f6c63430008190033","linkReferences":{}},"methodIdentifiers":{"create(uint256)":"780900dc","get(uint256)":"9507d39a","load()":"86d5c4be","remove(uint256)":"4cc82215"},"id":150}