{"abi":[{"type":"function","name":"cancelMintStakeToken","inputs":[{"name":"requestId","type":"uint256","internalType":"uint256"},{"name":"reasonCode","type":"bytes32","internalType":"bytes32"}],"outputs":[],"stateMutability":"nonpayable"},{"type":"function","name":"cancelRedeemStakeToken","inputs":[{"name":"requestId","type":"uint256","internalType":"uint256"},{"name":"reasonCode","type":"bytes32","internalType":"bytes32"}],"outputs":[],"stateMutability":"nonpayable"},{"type":"function","name":"createMintStakeTokenRequest","inputs":[{"name":"params","type":"tuple","internalType":"struct IStake.MintStakeTokenParams","components":[{"name":"stakeToken","type":"address","internalType":"address"},{"name":"requestToken","type":"address","internalType":"address"},{"name":"requestTokenAmount","type":"uint256","internalType":"uint256"},{"name":"walletRequestTokenAmount","type":"uint256","internalType":"uint256"},{"name":"minStakeAmount","type":"uint256","internalType":"uint256"},{"name":"executionFee","type":"uint256","internalType":"uint256"},{"name":"isCollateral","type":"bool","internalType":"bool"},{"name":"isNativeToken","type":"bool","internalType":"bool"}]}],"outputs":[{"name":"requestId","type":"uint256","internalType":"uint256"}],"stateMutability":"payable"},{"type":"function","name":"createRedeemStakeTokenRequest","inputs":[{"name":"params","type":"tuple","internalType":"struct IStake.RedeemStakeTokenParams","components":[{"name":"receiver","type":"address","internalType":"address"},{"name":"stakeToken","type":"address","internalType":"address"},{"name":"redeemToken","type":"address","internalType":"address"},{"name":"unStakeAmount","type":"uint256","internalType":"uint256"},{"name":"minRedeemAmount","type":"uint256","internalType":"uint256"},{"name":"executionFee","type":"uint256","internalType":"uint256"}]}],"outputs":[{"name":"requestId","type":"uint256","internalType":"uint256"}],"stateMutability":"payable"},{"type":"function","name":"executeMintStakeToken","inputs":[{"name":"requestId","type":"uint256","internalType":"uint256"},{"name":"oracles","type":"tuple[]","internalType":"struct OracleProcess.OracleParam[]","components":[{"name":"token","type":"address","internalType":"address"},{"name":"targetToken","type":"address","internalType":"address"},{"name":"minPrice","type":"int256","internalType":"int256"},{"name":"maxPrice","type":"int256","internalType":"int256"}]}],"outputs":[],"stateMutability":"nonpayable"},{"type":"function","name":"executeRedeemStakeToken","inputs":[{"name":"requestId","type":"uint256","internalType":"uint256"},{"name":"oracles","type":"tuple[]","internalType":"struct OracleProcess.OracleParam[]","components":[{"name":"token","type":"address","internalType":"address"},{"name":"targetToken","type":"address","internalType":"address"},{"name":"minPrice","type":"int256","internalType":"int256"},{"name":"maxPrice","type":"int256","internalType":"int256"}]}],"outputs":[],"stateMutability":"nonpayable"},{"type":"event","name":"AccountTokenUpdateEvent","inputs":[{"name":"account","type":"address","indexed":false,"internalType":"address"},{"name":"token","type":"address","indexed":false,"internalType":"address"},{"name":"preBalance","type":"tuple","indexed":false,"internalType":"struct Account.TokenBalance","components":[{"name":"amount","type":"uint256","internalType":"uint256"},{"name":"usedAmount","type":"uint256","internalType":"uint256"},{"name":"interest","type":"uint256","internalType":"uint256"},{"name":"liability","type":"uint256","internalType":"uint256"}]},{"name":"balance","type":"tuple","indexed":false,"internalType":"struct Account.TokenBalance","components":[{"name":"amount","type":"uint256","internalType":"uint256"},{"name":"usedAmount","type":"uint256","internalType":"uint256"},{"name":"interest","type":"uint256","internalType":"uint256"},{"name":"liability","type":"uint256","internalType":"uint256"}]},{"name":"source","type":"uint8","indexed":false,"internalType":"enum Account.UpdateSource"}],"anonymous":false},{"type":"event","name":"CancelMintEvent","inputs":[{"name":"requestId","type":"uint256","indexed":true,"internalType":"uint256"},{"name":"data","type":"tuple","indexed":false,"internalType":"struct Mint.Request","components":[{"name":"account","type":"address","internalType":"address"},{"name":"stakeToken","type":"address","internalType":"address"},{"name":"requestToken","type":"address","internalType":"address"},{"name":"requestTokenAmount","type":"uint256","internalType":"uint256"},{"name":"walletRequestTokenAmount","type":"uint256","internalType":"uint256"},{"name":"minStakeAmount","type":"uint256","internalType":"uint256"},{"name":"executionFee","type":"uint256","internalType":"uint256"},{"name":"isCollateral","type":"bool","internalType":"bool"},{"name":"isExecutionFeeFromLpVault","type":"bool","internalType":"bool"}]},{"name":"reasonCode","type":"bytes32","indexed":false,"internalType":"bytes32"}],"anonymous":false},{"type":"event","name":"CancelRedeemEvent","inputs":[{"name":"requestId","type":"uint256","indexed":true,"internalType":"uint256"},{"name":"data","type":"tuple","indexed":false,"internalType":"struct Redeem.Request","components":[{"name":"account","type":"address","internalType":"address"},{"name":"receiver","type":"address","internalType":"address"},{"name":"stakeToken","type":"address","internalType":"address"},{"name":"redeemToken","type":"address","internalType":"address"},{"name":"unStakeAmount","type":"uint256","internalType":"uint256"},{"name":"minRedeemAmount","type":"uint256","internalType":"uint256"},{"name":"executionFee","type":"uint256","internalType":"uint256"}]},{"name":"reasonCode","type":"bytes32","indexed":false,"internalType":"bytes32"}],"anonymous":false},{"type":"event","name":"ChargeMintOrRedeemFeeEvent","inputs":[{"name":"params","type":"tuple","indexed":false,"internalType":"struct FeeProcess.ChargeMintOrRedeemFeeEventParams","components":[{"name":"stakeToken","type":"address","internalType":"address"},{"name":"feeToken","type":"address","internalType":"address"},{"name":"account","type":"address","internalType":"address"},{"name":"feeType","type":"bytes32","internalType":"bytes32"},{"name":"fee","type":"uint256","internalType":"uint256"}]}],"anonymous":false},{"type":"event","name":"CreateMintEvent","inputs":[{"name":"requestId","type":"uint256","indexed":true,"internalType":"uint256"},{"name":"data","type":"tuple","indexed":false,"internalType":"struct Mint.Request","components":[{"name":"account","type":"address","internalType":"address"},{"name":"stakeToken","type":"address","internalType":"address"},{"name":"requestToken","type":"address","internalType":"address"},{"name":"requestTokenAmount","type":"uint256","internalType":"uint256"},{"name":"walletRequestTokenAmount","type":"uint256","internalType":"uint256"},{"name":"minStakeAmount","type":"uint256","internalType":"uint256"},{"name":"executionFee","type":"uint256","internalType":"uint256"},{"name":"isCollateral","type":"bool","internalType":"bool"},{"name":"isExecutionFeeFromLpVault","type":"bool","internalType":"bool"}]}],"anonymous":false},{"type":"event","name":"CreateRedeemEvent","inputs":[{"name":"requestId","type":"uint256","indexed":true,"internalType":"uint256"},{"name":"data","type":"tuple","indexed":false,"internalType":"struct Redeem.Request","components":[{"name":"account","type":"address","internalType":"address"},{"name":"receiver","type":"address","internalType":"address"},{"name":"stakeToken","type":"address","internalType":"address"},{"name":"redeemToken","type":"address","internalType":"address"},{"name":"unStakeAmount","type":"uint256","internalType":"uint256"},{"name":"minRedeemAmount","type":"uint256","internalType":"uint256"},{"name":"executionFee","type":"uint256","internalType":"uint256"}]}],"anonymous":false},{"type":"event","name":"LossExecutionFeeUpdateEvent","inputs":[{"name":"preAmount","type":"uint256","indexed":false,"internalType":"uint256"},{"name":"amount","type":"uint256","indexed":false,"internalType":"uint256"}],"anonymous":false},{"type":"event","name":"MintSuccessEvent","inputs":[{"name":"requestId","type":"uint256","indexed":true,"internalType":"uint256"},{"name":"mintStakeAmount","type":"uint256","indexed":false,"internalType":"uint256"},{"name":"data","type":"tuple","indexed":false,"internalType":"struct Mint.Request","components":[{"name":"account","type":"address","internalType":"address"},{"name":"stakeToken","type":"address","internalType":"address"},{"name":"requestToken","type":"address","internalType":"address"},{"name":"requestTokenAmount","type":"uint256","internalType":"uint256"},{"name":"walletRequestTokenAmount","type":"uint256","internalType":"uint256"},{"name":"minStakeAmount","type":"uint256","internalType":"uint256"},{"name":"executionFee","type":"uint256","internalType":"uint256"},{"name":"isCollateral","type":"bool","internalType":"bool"},{"name":"isExecutionFeeFromLpVault","type":"bool","internalType":"bool"}]}],"anonymous":false},{"type":"event","name":"PoolTokenUpdateEvent","inputs":[{"name":"stakeToken","type":"address","indexed":false,"internalType":"address"},{"name":"token","type":"address","indexed":false,"internalType":"address"},{"name":"preAmount","type":"uint256","indexed":false,"internalType":"uint256"},{"name":"preLiability","type":"uint256","indexed":false,"internalType":"uint256"},{"name":"preHoldAmount","type":"uint256","indexed":false,"internalType":"uint256"},{"name":"preUnsettledAmount","type":"int256","indexed":false,"internalType":"int256"},{"name":"preLossAmount","type":"uint256","indexed":false,"internalType":"uint256"},{"name":"amount","type":"uint256","indexed":false,"internalType":"uint256"},{"name":"liability","type":"uint256","indexed":false,"internalType":"uint256"},{"name":"holdAmount","type":"uint256","indexed":false,"internalType":"uint256"},{"name":"unsettledAmount","type":"int256","indexed":false,"internalType":"int256"},{"name":"lossAmount","type":"uint256","indexed":false,"internalType":"uint256"},{"name":"updateBlock","type":"uint256","indexed":false,"internalType":"uint256"}],"anonymous":false},{"type":"event","name":"RedeemSuccessEvent","inputs":[{"name":"requestId","type":"uint256","indexed":true,"internalType":"uint256"},{"name":"redeemTokenAmount","type":"uint256","indexed":false,"internalType":"uint256"},{"name":"data","type":"tuple","indexed":false,"internalType":"struct Redeem.Request","components":[{"name":"account","type":"address","internalType":"address"},{"name":"receiver","type":"address","internalType":"address"},{"name":"stakeToken","type":"address","internalType":"address"},{"name":"redeemToken","type":"address","internalType":"address"},{"name":"unStakeAmount","type":"uint256","internalType":"uint256"},{"name":"minRedeemAmount","type":"uint256","internalType":"uint256"},{"name":"executionFee","type":"uint256","internalType":"uint256"}]}],"anonymous":false},{"type":"event","name":"StakingAccountFeeRewardsUpdateEvent","inputs":[{"name":"account","type":"address","indexed":false,"internalType":"address"},{"name":"stakeToken","type":"address","indexed":false,"internalType":"address"},{"name":"realisedRewardsTokenAmount","type":"uint256","indexed":false,"internalType":"uint256"},{"name":"openRewardsPerStakeToken","type":"uint256","indexed":false,"internalType":"uint256"}],"anonymous":false},{"type":"event","name":"UsdPoolTokenUpdateEvent","inputs":[{"name":"token","type":"address","indexed":false,"internalType":"address"},{"name":"preAmount","type":"uint256","indexed":false,"internalType":"uint256"},{"name":"preHoldAmount","type":"uint256","indexed":false,"internalType":"uint256"},{"name":"preUnsettledAmount","type":"uint256","indexed":false,"internalType":"uint256"},{"name":"amount","type":"uint256","indexed":false,"internalType":"uint256"},{"name":"holdAmount","type":"uint256","indexed":false,"internalType":"uint256"},{"name":"unsettledAmount","type":"uint256","indexed":false,"internalType":"uint256"},{"name":"updateBlock","type":"uint256","indexed":false,"internalType":"uint256"}],"anonymous":false},{"type":"error","name":"AccountNotExist","inputs":[]},{"type":"error","name":"AddressZero","inputs":[]},{"type":"error","name":"ExecutionFeeNotEnough","inputs":[]},{"type":"error","name":"InvalidRoleAccess","inputs":[{"name":"account","type":"address","internalType":"address"},{"name":"role","type":"bytes32","internalType":"bytes32"}]},{"type":"error","name":"MintFailedWithBalanceNotEnough","inputs":[{"name":"account","type":"address","internalType":"address"},{"name":"baseToken","type":"address","internalType":"address"}]},{"type":"error","name":"MintRequestNotExists","inputs":[]},{"type":"error","name":"MintStakeTokenTooSmall","inputs":[{"name":"minStakeAmount","type":"uint256","internalType":"uint256"},{"name":"realStakeAmount","type":"uint256","internalType":"uint256"}]},{"type":"error","name":"MintTokenInvalid","inputs":[{"name":"stakeToken","type":"address","internalType":"address"},{"name":"mintToken","type":"address","internalType":"address"}]},{"type":"error","name":"MintWithAmountZero","inputs":[]},{"type":"error","name":"MintWithParamError","inputs":[]},{"type":"error","name":"PoolAmountNotEnough","inputs":[{"name":"stakeToken","type":"address","internalType":"address"},{"name":"token","type":"address","internalType":"address"}]},{"type":"error","name":"PoolNotExists","inputs":[]},{"type":"error","name":"PoolValueIsZero","inputs":[]},{"type":"error","name":"PoolValueLessThanZero","inputs":[]},{"type":"error","name":"PriceIsZero","inputs":[]},{"type":"error","name":"RedeemRequestNotExists","inputs":[]},{"type":"error","name":"RedeemStakeTokenTooSmall","inputs":[{"name":"redeemAmount","type":"uint256","internalType":"uint256"}]},{"type":"error","name":"RedeemTokenInvalid","inputs":[{"name":"stakeToken","type":"address","internalType":"address"},{"name":"mintToken","type":"address","internalType":"address"}]},{"type":"error","name":"RedeemWithAmountNotEnough","inputs":[{"name":"account","type":"address","internalType":"address"},{"name":"stakeToken","type":"address","internalType":"address"}]},{"type":"error","name":"StakeTokenInvalid","inputs":[{"name":"stakeToken","type":"address","internalType":"address"}]},{"type":"error","name":"TokenTransferError","inputs":[{"name":"token","type":"address","internalType":"address"},{"name":"receiver","type":"address","internalType":"address"},{"name":"amount","type":"uint256","internalType":"uint256"}]},{"type":"error","name":"TransferErrorWithVaultBalanceNotEnough","inputs":[{"name":"vault","type":"address","internalType":"address"},{"name":"token","type":"address","internalType":"address"},{"name":"receiver","type":"address","internalType":"address"},{"name":"amount","type":"uint256","internalType":"uint256"}]}],"bytecode":{"object":"0x6080604052348015600f57600080fd5b50600160005561920b806100246000396000f3fe6080604052600436106100555760003560e01c8063182250891461005a5780633b6f91441461007c5780636990d2451461009c5780639d437bd8146100bc578063a7cb6602146100dc578063a8b6d8aa14610101575b600080fd5b34801561006657600080fd5b5061007a6100753660046187e6565b610114565b005b34801561008857600080fd5b5061007a610097366004618865565b6102fb565b3480156100a857600080fd5b5061007a6100b73660046187e6565b6103af565b3480156100c857600080fd5b5061007a6100d7366004618865565b6104b6565b6100ef6100ea366004618887565b61055d565b60405190815260200160405180910390f35b6100ef61010f36600461889a565b610875565b61011c610aff565b60005a90506101336525a2a2a822a960d11b610b58565b600061013e85610b8b565b80519091506001600160a01b031661016957604051630f1bc76960e01b815260040160405180910390fd5b6101c48484808060200260200160405190810160405280939291908181526020016000905b828210156101ba576101ab608083028601368190038101906188e2565b8152602001906001019061018e565b5050505050610c70565b6101ce8582610deb565b506101d7610fac565b6102ea6040518060a0016040528083610100015161025657306001600160a01b0316631f7592ea6040518163ffffffff1660e01b8152600401602060405180830381865afa15801561022d573d6000803e3d6000fd5b505050506040513d601f19601f820116820180604052508101906102519190618965565b6102b8565b306001600160a01b03166308ba026f6040518163ffffffff1660e01b8152600401602060405180830381865afa158015610294573d6000803e3d6000fd5b505050506040513d601f19601f820116820180604052508101906102b89190618965565b6001600160a01b03908116825260c0850151602083015260408201869052336060830152845116608090910152610fbe565b50506102f66001600055565b505050565b60005a90506103126525a2a2a822a960d11b610b58565b600061031d84610b8b565b80519091506001600160a01b031661034857604051630f1bc76960e01b815260040160405180910390fd5b61035384828561106e565b6103a96040518060a0016040528083610100015161025657306001600160a01b0316631f7592ea6040518163ffffffff1660e01b8152600401602060405180830381865afa15801561022d573d6000803e3d6000fd5b50505050565b6103b7610aff565b60005a90506103ce6525a2a2a822a960d11b610b58565b61041f8383808060200260200160405190810160405280939291908181526020016000905b828210156101ba57610410608083028601368190038101906188e2565b815260200190600101906103f3565b600061042a856111a8565b60208101519091506001600160a01b031661045857604051630a24c01d60e31b815260040160405180910390fd5b610462858261125d565b61046a610fac565b6102ea6040518060a00160405280306001600160a01b0316631f7592ea6040518163ffffffff1660e01b8152600401602060405180830381865afa158015610294573d6000803e3d6000fd5b60005a90506104cd6525a2a2a822a960d11b610b58565b60006104d8846111a8565b60208101519091506001600160a01b031661050657604051630a24c01d60e31b815260040160405180910390fd5b610511848285611325565b6103a96040518060a00160405280306001600160a01b0316631f7592ea6040518163ffffffff1660e01b8152600401602060405180830381865afa158015610294573d6000803e3d6000fd5b6000610567610aff565b816040013560000361058c57604051637e278d5760e11b815260040160405180910390fd5b600061059b6020840184618982565b6001600160a01b0316036105c25760405163801c452360e01b815260040160405180910390fd5b3360006105d56040850160208601618982565b90506105e46020850185618982565b6001600160a01b03166105f5611360565b6001600160a01b0316036106475761060c8161137b565b6106425761061d6020850185618982565b816040516364f3d63f60e01b815260040161063992919061899f565b60405180910390fd5b6106f3565b61065c6106576020860186618982565b611399565b156106c15760006106786106736020870187618982565b6113b3565b60028101549091506001600160a01b038381169116146106bb5761069f6020860186618982565b826040516364f3d63f60e01b815260040161063992919061899f565b506106f3565b6106ce6020850185618982565b60405163f31dadd760e01b81526001600160a01b039091166004820152602401610639565b6060840135156108015761070e610100850160e086016189d2565b158061071d5750836060013534145b6107695760405162461bcd60e51b815260206004820152601960248201527f4465706f7369742065746820616d6f756e74206572726f7221000000000000006044820152606401610639565b6107ff6040518060a00160405280846001600160a01b031681526020018660200160208101906107999190618982565b6001600160a01b03168152606087013560208201526040016107c160e0880160c089016189d2565b6107cc5760026107cf565b60035b60038111156107e0576107e06189ef565b81526020016107f6610100880160e089016189d2565b15159052611429565b505b60008061081c8461081736899003890189618a05565b6116cc565b9150915081866040013510156108455760405163801c452360e01b815260040160405180910390fd5b61086061085736889003880188618a05565b858585856117d5565b9450505050506108706001600055565b919050565b600061087f610aff565b60008260600135116108c85760405162461bcd60e51b81526020600482015260126024820152710756e5374616b65416d6f756e74203d3d20360741b6044820152606401610639565b6108dd6108d86020840184618982565b6118e3565b3360006108f06040850160208601618982565b6040516370a0823160e01b81526001600160a01b03848116600483015291909116906370a0823190602401602060405180830381865afa158015610938573d6000803e3d6000fd5b505050506040513d601f19601f8201168201806040525081019061095c9190618ac1565b90508060000361099257816109776040860160208701618982565b60405163f8b251f760e01b815260040161063992919061899f565b83606001358110156109af57816109776040860160208701618982565b6109bf6040850160208601618982565b6001600160a01b03166109d0611360565b6001600160a01b031603610a3a576109f66109f16060860160408701618982565b61137b565b610a3557610a0a6040850160208601618982565b610a1a6060860160408701618982565b60405163fdeabc1960e01b815260040161063992919061899f565b610ac6565b610a4d6106576040860160208701618982565b15610ab6576000610a676106736040870160208801618982565b9050610a796060860160408701618982565b60028201546001600160a01b03908116911614610ab057610aa06040860160208701618982565b610a1a6060870160408801618982565b50610ac6565b6106ce6040850160208601618982565b610ad4828560a0013561190a565b610af1610ae636869003860186618ada565b8386606001356119a7565b925050506108706001600055565b600260005403610b515760405162461bcd60e51b815260206004820152601f60248201527f5265656e7472616e637947756172643a207265656e7472616e742063616c6c006044820152606401610639565b6002600055565b610b623382611af0565b610b8857604051632d7d0e0d60e21b815233600482015260248101829052604401610639565b50565b6040805161012081018252600080825260208201819052918101829052606081018290526080810182905260a0810182905260c0810182905260e08101829052610100810182905290610bdc611b2a565b6000938452602090815260409384902084516101208101865281546001600160a01b03908116825260018301548116938201939093526002820154909216948201949094526003840154606082015260048401546080820152600584015460a0820152600684015460c082015260079093015460ff808216151560e086015261010091829004161515908401525090919050565b6000610c7a611b84565b905060005b82518110156102f65760006001600160a01b0316838281518110610ca557610ca5618b7d565b6020026020010151602001516001600160a01b031603610d4457610d3f838281518110610cd457610cd4618b7d565b6020026020010151600001516040518060400160405280868581518110610cfd57610cfd618b7d565b6020026020010151604001518152602001868581518110610d2057610d20618b7d565b60200260200101516060015181525084611bc89092919063ffffffff16565b610de3565b610de3838281518110610d5957610d59618b7d565b602002602001015160000151848381518110610d7757610d77618b7d565b6020026020010151602001516040518060400160405280878681518110610da057610da0618b7d565b6020026020010151604001518152602001878681518110610dc357610dc3618b7d565b60200260200101516060015181525085611c10909392919063ffffffff16565b600101610c7f565b6000610dff82600001518360200151611c87565b81602001516001600160a01b0316610e15611360565b6001600160a01b031603610e3357610e2c82611e15565b9050610e78565b610e408260200151611399565b15610e4e57610e2c82611fcb565b602082015160405163f31dadd760e01b81526001600160a01b039091166004820152602401610639565b8160e00151158015610e8e575060008260800151115b15610f6357306001600160a01b031663da57c7f86040518163ffffffff1660e01b8152600401602060405180830381865afa158015610ed1573d6000803e3d6000fd5b505050506040513d601f19601f82011682018060405250810190610ef59190618965565b6001600160a01b031663078d3b798360400151846020015185608001516040518463ffffffff1660e01b8152600401610f3093929190618b93565b600060405180830381600087803b158015610f4a57600080fd5b505af1158015610f5e573d6000803e3d6000fd5b505050505b610f6c836121c7565b827f8a80f55ce3b49486350f9315527bfbcf32618bcc8ea340a87812793f0bd5848a8284604051610f9e929190618c2c565b60405180910390a292915050565b610fbc610fb7611b84565b61222e565b565b60005a8260400151610fd09190618c57565b90506000610fde3a83618c6a565b9050600080846020015183111561100757602085015192506110008380618c57565b905061101a565b8285602001516110179190618c57565b91505b845161103590611028612325565b5160208801513090612735565b50611044856060015184612745565b811561105857611058856080015183612745565b801561106757611067816127b7565b5050505050565b6080820151156111605761115e8260e001516110eb57306001600160a01b03166308ba026f6040518163ffffffff1660e01b8152600401602060405180830381865afa1580156110c2573d6000803e3d6000fd5b505050506040513d601f19601f820116820180604052508101906110e69190618965565b61114d565b306001600160a01b0316631f7592ea6040518163ffffffff1660e01b8152600401602060405180830381865afa158015611129573d6000803e3d6000fd5b505050506040513d601f19601f8201168201806040525081019061114d9190618965565b604084015184516080860151612735565b505b611169836121c7565b827f87a5dfa5d03ec783309e94762b09020fb3f521691da6822b0e474968d00c9069838360405161119b929190618c81565b60405180910390a2505050565b6040805160e081018252600080825260208201819052918101829052606081018290526080810182905260a0810182905260c08101829052906111e9612830565b60009384526020908152604093849020845160e08101865281546001600160a01b039081168252600183015481169382019390935260028201548316958101959095526003810154909116606085015260048101546080850152600581015460a08501526006015460c08401525090919050565b600081604001516001600160a01b0316611275611360565b6001600160a01b0316036112935761128c82612874565b90506112d8565b6112a08260400151611399565b156112ae5761128c8261296e565b604080830151905163f31dadd760e01b81526001600160a01b039091166004820152602401610639565b6112ea82600001518360400151611c87565b6112f3836129d1565b827fd9c7373d68a1c72286e9e5cd0396717b394acf0b2c9e94f947037d75189521bb828460405161119b929190618cf2565b61132e836129d1565b827fef75392635c285f9b4b5b8614b053edf576df9b0c14f2cec0877b9479e123b31838360405161119b929190618d07565b60008061136b612a2b565b546001600160a01b031692915050565b600080611386612a6f565b90506113928184612ab3565b9392505050565b6000806113a4612a2b565b90506113926002820184612ab3565b6000808260405160200161140a919060408082526017908201527f78797a2e656c66692e73746f726167652e4c70506f6f6c00000000000000000060608201526001600160a01b0391909116602082015260800190565b60408051601f1981840301815291905280516020909101209392505050565b600080309050600083606001516003811115611447576114476189ef565b1580611468575083606001516003811115611464576114646189ef565b6003145b156114d657816001600160a01b0316631f7592ea6040518163ffffffff1660e01b8152600401602060405180830381865afa1580156114ab573d6000803e3d6000fd5b505050506040513d601f19601f820116820180604052508101906114cf9190618965565b90506115b3565b836060015160038111156114ec576114ec6189ef565b60010361153157816001600160a01b03166397e7b7f26040518163ffffffff1660e01b8152600401602060405180830381865afa1580156114ab573d6000803e3d6000fd5b83606001516003811115611547576115476189ef565b6002036115b357816001600160a01b03166308ba026f6040518163ffffffff1660e01b8152600401602060405180830381865afa15801561158c573d6000803e3d6000fd5b505050506040513d601f19601f820116820180604052508101906115b09190618965565b90505b60208401516080850151156116a75760006115cc612325565b60000151905085602001516001600160a01b0316816001600160a01b0316146116375760405162461bcd60e51b815260206004820152601960248201527f4465706f736974207769746820746f6b656e206572726f7221000000000000006044820152606401610639565b806001600160a01b031663d0e30db087604001516040518263ffffffff1660e01b81526004016000604051808303818588803b15801561167657600080fd5b505af115801561168a573d6000803e3d6000fd5b50505050508091506116a182848860400151612ad5565b506116c4565b845160408601516116c4916001600160a01b038416918590612b19565b949350505050565b60008060006116d9612325565b90506116ed8460a001518260200151612b71565b8360e00151801561170657508360a00151846060015110155b1561172b578360a00151846060015161171f9190618c57565b600192509250506117ce565b8360a00151341461177e5760405162461bcd60e51b815260206004820152601e60248201527f6d696e74207769746820657865637574696f6e20666565206572726f722100006044820152606401610639565b6040805160a080820183526001600160a01b0380891683528451166020830152860151918101919091526117c2906060810160005b81526001602090910152611429565b50505050606081015160005b9250929050565b6000806118017f459475c12259fe72148865d9fe01f9668b683131314e14a2174d1735fa9be01a612b9f565b9050600061180e82612bff565b80546001600160a01b03199081166001600160a01b038a81169190911783558a516001840180548416918316919091179055600283018054909216908916179055608089015160058201556040808a015160038301556004820187905560a08a0151600683015560c08a015160078301805461ffff191691151561ff00191691909117610100881515021790555190915082907feb4ce043d789d36d4d520264b531b595d64659f7bd34b5804d6c5b7de8782ea9906118ce908490618d23565b60405180910390a25090505b95945050505050565b6001600160a01b038116610b8857604051639fabe1c160e01b815260040160405180910390fd5b6000611914612325565b9050611924828260400151612b71565b8134146119735760405162461bcd60e51b815260206004820181905260248201527f72656465656d207769746820657865637574696f6e20666565206572726f72216044820152606401610639565b6040805160a0810182526001600160a01b03808616825283511660208201529081018390526103a9906060810160006117b3565b6000806119d37f66e74d3d85bfddc0018272d955e86b6c8998e367fbe4932f2780e7f41f1e8518612b9f565b905060006119e082612c1b565b80546001600160a01b038088166001600160a01b0319928316178355885160018401805491831691841691909117905560208901516002840180549183169184169190911790556040808a0151600385018054919093169316929092179055600482018690556080880151600583015560a088015160068301555190915082907f5c3a7b87afa472ecf385ce68265aa6663da414919935249155b8d24ee878db0c90611adf90849081546001600160a01b039081168252600183015481166020830152600283015481166040830152600383015416606082015260048201546080820152600582015460a082015260069091015460c082015260e00190565b60405180910390a250949350505050565b600080611afb612c26565b6001600160a01b0385166000908152602082905260409020909150611b209084612c6a565b9150505b92915050565b600080604051602001611b66906020808252601590820152741e1e5e8b995b199a4b9cdd1bdc9859d94b935a5b9d605a1b604082015260600190565b60408051601f19818403018152919052805160209091012092915050565b600080604051602001611b66906020808252601c908201527f78797a2e656c66692e73746f726167652e4f7261636c65507269636500000000604082015260600190565b611bd28383612ab3565b611be257611be08383612c82565b505b6001600160a01b03909116600090815260029092016020908152604090922081518155910151600190910155565b60008383604051602001611c2592919061899f565b60408051601f1981840301815291905280516020909101209050611c4c6004860182612c6a565b611c5f57611c5d6004860182612c97565b505b6000908152600690940160209081526040909420815181559301516001909301929092555050565b6000611c9283612ca3565b6001600160a01b03831660009081526004820160205260408120919250611cb884612cb7565b9050611cc5816007015490565b826001015403611cd6575050505050565b6040516370a0823160e01b81526001600160a01b038681166004830152600091908616906370a0823190602401602060405180830381865afa158015611d20573d6000803e3d6000fd5b505050506040513d601f19601f82011682018060405250810190611d449190618ac1565b9050600081118015611d705750611d5a82612cf0565b60018401546007840154611d6e9190618c57565b115b15611df957611d7d611360565b6001600160a01b0316856001600160a01b031614611dbd57611db88360010154611da8846007015490565b611db29190618c57565b82612d3b565b611de0565b611de08360010154611dd0846007015490565b611dda9190618c57565b82612d50565b836000016000828254611df39190618da1565b90915550505b60078201546001840155611e0d8486612d5c565b505050505050565b6000611e24826040015161137b565b611e4d57816020015182604001516040516364f3d63f60e01b815260040161063992919061899f565b6000611e5c8360400151612dc9565b90506000611e9e611e708560400151612e2d565b60200151611e819060ff8516618c57565b611e8c90600a618e98565b611e946131aa565b604001519061350a565b90508084606001511015611ed557606084015160405163044c152560e11b8152610639918391600401918252602082015260400190565b836060015184608001511015611f0b57611f0b8460000151856040015186608001518760600151611f069190618c57565b613516565b6000611f268560600151611f1d6135a3565b60200151613924565b9050611f6781866020015187604001518860000151604051602001611f4a90618ea4565b604051602081830303815290604052805190602001206000613930565b6000818660600151611f799190618c57565b90506000611f85612a6f565b9050611f92878284613bd3565b95506000611fa38860000151613d95565b9050611faf8188613df7565b6040880151611fc090839085613e13565b505050505050919050565b6000816080015182606001511115611ffe57611ffe8260000151836040015184608001518560600151611f069190618c57565b600061200d8360000151613d95565b9050600061201e84602001516113b3565b905061202981613eeb565b60006120388560200151613f16565b90506120786040518060a0016040528060006001600160a01b0316815260200160008152602001600060ff16815260200160008152602001600081525090565b60408601516001600160a01b039081168083526002850154909116146120bd57856020015186604001516040516364f3d63f60e01b815260040161063992919061899f565b80516120c890612dc9565b60ff16604082015280516000906120f8906120e290612e2d565b60200151836040015160ff16611e819190618c57565b9050808760600151101561212f57606087015160405163044c152560e11b8152610639918391600401918252602082015260400190565b61214187606001518460400151613924565b6020808401829052888101516040808b01518b5191516121699594919291611f4a9101618ea4565b8160200151876060015161217d9190618c57565b60608301819052612191908890869061429f565b6080830181905260208801516121a991879190614365565b60608201516121b99085906143ed565b506080015195945050505050565b60006121d1611b2a565b6000928352602052506040812080546001600160a01b031990811682556001820180548216905560028201805490911690556003810182905560048101829055600581018290556006810191909155600701805461ffff19169055565b6000612239826143f9565b905060005b81518110156102f65782600201600083838151811061225f5761225f618b7d565b60200260200101516001600160a01b03166001600160a01b03168152602001908152602001600020600080820160009055600182016000905550508260030160008383815181106122b2576122b2618b7d565b60200260200101516001600160a01b03166001600160a01b031681526020019081526020016000206000808201600090556001820160009055505061231c82828151811061230257612302618b7d565b60200260200101518460000161440690919063ffffffff16565b5060010161223e565b61237d60405180610120016040528060006001600160a01b0316815260200160008152602001600081526020016000815260200160008152602001600081526020016000815260200160008152602001600081525090565b6000806040516020016123b0906020808252600c908201526b434841494e5f434f4e46494760a01b604082015260600190565b604051602081830303815290604052805190602001209050612452816040516020016123fd906020808252600d908201526c2ba920a82822a92faa27a5a2a760991b604082015260600190565b6040516020818303038152906040528051906020012060405160200161242d929190918252602082015260400190565b604051602081830303815290604052805190602001208361441b90919063ffffffff16565b6001600160a01b031683526040516124ee908290612499906020016020808252601290820152711352539517d1d054d7d1915157d31253525560721b604082015260600190565b604051602081830303815290604052805190602001206040516020016124c9929190918252602082015260400190565b604051602081830303815290604052805190602001208361443a90919063ffffffff16565b836020018181525050612533816040516020016124999060208082526014908201527314915111515357d1d054d7d1915157d31253525560621b604082015260600190565b83604001818152505061258c816040516020016124999060208082526022908201527f504c4143455f494e4352454153455f4f524445525f4741535f4645455f4c494d604082015261125560f21b606082015260800190565b60608401526040516125e39082906124999060200160208082526022908201527f504c4143455f44454352454153455f4f524445525f4741535f4645455f4c494d604082015261125560f21b606082015260800190565b608084015260405161263c9082906124999060200160208082526024908201527f504f534954494f4e5f5550444154455f4d415247494e5f4741535f4645455f4c6040820152631253525560e21b606082015260800190565b60a08401526040516126979082906124999060200160208082526026908201527f504f534954494f4e5f5550444154455f4c455645524147455f4741535f46454560408201526517d31253525560d21b606082015260800190565b60c08401526040516126dc9082906124999060200160208082526016908201527515d2551211149055d7d1d054d7d1915157d31253525560521b604082015260600190565b60e0840152604051612728908290612499906020016020808252601b908201527f434c41494d5f524557415244535f4741535f4645455f4c494d49540000000000604082015260600190565b6101008401525090919050565b60006118da85858585600061444d565b600061274f612325565b51604051632e1a7d4d60e01b8152600481018490529091506001600160a01b03821690632e1a7d4d90602401600060405180830381600087803b15801561279557600080fd5b505af11580156127a9573d6000803e3d6000fd5b505050506102f6838361458f565b60006127c1612a2b565b9050818160070160008282546127d79190618da1565b909155505060078101547f5425704060c90c62f0083d9ff73df530b982ea5c64c0dab3c7d5da4761a451199061280e908490618c57565b6007830154604080519283526020830191909152015b60405180910390a15050565b600080604051602001611b669060208082526017908201527f78797a2e656c66692e73746f726167652e52656465656d000000000000000000604082015260600190565b604081810151825191516370a0823160e01b81526001600160a01b0380841660048301526000939184918416906370a0823190602401602060405180830381865afa1580156128c7573d6000803e3d6000fd5b505050506040513d601f19601f820116820180604052508101906128eb9190618ac1565b9050846080015181101561291657818360405163f8b251f760e01b815260040161063992919061899f565b6000612920612a6f565b905061292d818588614632565b9450600061293a84612ca3565b905061295387608001518261487090919063ffffffff16565b6060870151612964908390886148d4565b5050505050919050565b60008061297e83604001516113b3565b606084015160028201549192506001600160a01b039182169116146129c2578260400151836060015160405163fdeabc1960e01b815260040161063992919061899f565b6113928184856060015161498a565b60006129db612830565b6000928352602052506040812080546001600160a01b0319908116825560018201805482169055600282018054821690556003820180549091169055600481018290556005810182905560060155565b600080604051602001611b66906020808252601b908201527f78797a2e656c66692e73746f726167652e436f6d6d6f6e446174610000000000604082015260600190565b600080604051602001611b669060208082526018908201527f78797a2e656c66692e73746f726167652e557364506f6f6c0000000000000000604082015260600190565b6001600160a01b03811660009081526001830160205260408120541515611392565b80600003612ae257505050565b6000612af384848462030d40614c22565b9050806103a95783838360405163012f3b8f60e71b815260040161063993929190618b93565b6103a9846323b872dd60e01b858585604051602401612b3a93929190618b93565b60408051601f198184030181529190526020810180516001600160e01b03166001600160e01b031990931692909217909152614d1c565b612b7b3a82618c6a565b821015612b9b576040516369343e3760e11b815260040160405180910390fd5b5050565b600080612baa614df1565b600084815260208290526040902054909150610457811015612bda57612bd36104576001618da1565b9050612be8565b80612be481618ec6565b9150505b600093845260209190915260409092208290555090565b600080612c0a611b2a565b600093845260205250506040902090565b600080612c0a612830565b600080604051602001611b66906020808252601e908201527f78797a2e656c66692e73746f726167652e416363657373436f6e74726f6c0000604082015260600190565b60008181526001830160205260408120541515611392565b6000611392836001600160a01b038416614e35565b60006113928383614e35565b6000808260405160200161140a9190618edf565b6001600160a01b031660009081527fb31b5831e77ebf4a20e050d886d24b00d24f44760e3342d08fb455df41d4aaf96020526040902090565b6000805b6008830154811015612d3557826008018181548110612d1557612d15618b7d565b906000526020600020015482612d2b9190618da1565b9150600101612cf4565b50919050565b60006113928383670de0b6b3a7640000614e84565b6000611392838361350a565b81546001600160a01b038281166000818152600486016020908152604091829020805460019091015483519590961685529084019290925282015260608101919091527f6c91b1f647ea3a524740e83eb44a468110c48521ee1961bb3bf2f0872a04dd6c90608001612824565b6000816001600160a01b031663313ce5676040518163ffffffff1660e01b8152600401602060405180830381865afa158015612e09573d6000803e3d6000fd5b505050506040513d601f19601f82011682018060405250810190611b249190618f27565b612e356185e6565b612e3d6185e6565b600080604051602001612e769060208082526012908201527154524144455f544f4b454e5f434f4e46494760701b604082015260600190565b60408051601f1981840301815291905280516020909101209050612e9b828287614f6e565b612ea85750909392505050565b612f4d8186604051602001612ee6906020808252601590820152741254d7d4d5541413d49517d0d3d313105511549053605a1b604082015260600190565b60405160208183030381529060405280519060200120604051602001612f28939291909283526001600160a01b03919091166020830152604082015260600190565b6040516020818303038152906040528051906020012083614f8890919063ffffffff16565b15158352604051612fc89082908790612f8690602001602080825260099082015268282922a1a4a9a4a7a760b91b604082015260600190565b604051602081830303815290604052805190602001206040516020016124c9939291909283526001600160a01b03919091166020830152604082015260600190565b8360200181815250506130028186604051602001612f8690602080825260089082015267111254d0d3d5539560c21b604082015260600190565b8360400181815250506130478186604051602001612f86906020808252601390820152720434f4c4c41544552414c5f555345525f43415606c1b604082015260600190565b606084015260405161308c9082908790612f86906020016020808252601490820152730434f4c4c41544552414c5f544f54414c5f4341560641b604082015260600190565b60808401526040516130cf9082908790612f869060200160208082526012908201527104c494142494c4954595f555345525f4341560741b604082015260600190565b60a08401526040516131139082908790612f869060200160208082526013908201527204c494142494c4954595f544f54414c5f43415606c1b604082015260600190565b60c08401526040516131589082908790612f869060200160208082526014908201527324a72a22a922a9aa2fa920aa22afa320a1aa27a960611b604082015260600190565b60e084015260405161319b9082908790612f86906020016020808252601290820152712624a8aaa4a220aa24a7a72fa320a1aa27a960711b604082015260600190565b61010084015250909392505050565b613200604051806101400160405280600081526020016000815260200160008152602001600081526020016000815260200160008152602001600081526020016000815260200160008152602001600081525090565b600080604051602001613233906020808252600c908201526b5354414b455f434f4e46494760a01b604082015260600190565b604051602081830303815290604052805190602001209050613290816040516020016124999060208082526019908201527f434f4c4c41544552414c5f50524f544543545f464143544f5200000000000000604082015260600190565b83526040516132cd9082906124999060200160208082526011908201527021a7a62620aa22a920a62fa320a1aa27a960791b604082015260600190565b83602001818152505061331481604051602001612499906020808252601690820152754d494e5f505245434953494f4e5f4d554c5449504c4560501b604082015260600190565b83604001818152505061336281604051602001612499906020808252601e908201527f4d494e545f4645455f5354414b494e475f524557415244535f524154494f0000604082015260600190565b60608401526040516133ae908290612499906020016020808252601b908201527f4d494e545f4645455f504f4f4c5f524557415244535f524154494f0000000000604082015260600190565b60808401526040516133f8908290612499906020016020808252818101527f52454445454d5f4645455f5354414b494e475f524557415244535f524154494f604082015260600190565b60a0840152604051613444908290612499906020016020808252601d908201527f52454445454d5f4645455f504f4f4c5f524557415244535f524154494f000000604082015260600190565b60c0840152604051613490908290612499906020016020808252601b908201527f504f4f4c5f524557415244535f494e54455256414c5f4c494d49540000000000604082015260600190565b60e08401526040516134c69082906124999060200160208082526007908201526626a4a72fa0a82960c91b604082015260600190565b6101008401526040516134fd9082906124999060200160208082526007908201526626a0ac2fa0a82960c91b604082015260600190565b6101208401525090919050565b60006113928284618c6a565b600061352184614fa1565b6001600160a01b03841660009081526004820160205260409020549091508211156135635783836040516338d5f1dd60e01b815260040161063992919061899f565b613570818484600b614ff8565b600061357b82615176565b905060008112156110675784846040516338d5f1dd60e01b815260040161063992919061899f565b6135dc6040518060c001604052806000815260200160008152602001600081526020016000815260200160608152602001606081525090565b600080604051602001613612906020808252600f908201526e5553445f504f4f4c5f434f4e46494760881b604082015260600190565b60405160208183030381529060405280519060200120905061366681604051602001612499906020808252601490820152731413d3d317d3125455525112551657d31253525560621b604082015260600190565b835260405161369f908290612499906020016020808252600d908201526c4d494e545f4645455f5241544560981b604082015260600190565b8360200181815250506136df81604051602001612499906020808252600f908201526e52454445454d5f4645455f5241544560881b604082015260600190565b8360400181815250506137258160405160200161249990602080825260159082015274155394d1551513115117d490551253d7d312535255605a1b604082015260600190565b60608401526040516137be90829061376990602001602080825260159082015274535550504f52545f535441424c455f544f4b454e5360581b604082015260600190565b60405160208183030381529060405280519060200120604051602001613799929190918252602082015260400190565b604051602081830303815290604052805190602001208361518490919063ffffffff16565b608084018190525167ffffffffffffffff8111156137de576137de6188ac565b604051908082528060200260200182016040528015613807578160200160208202803683370190505b5060a084015260005b83608001515181101561391e576138f5828560800151838151811061383757613837618b7d565b602002602001015160405160200161388e9060208082526025908201527f535441424c455f544f4b454e535f424f52524f57494e475f494e5445524553546040820152645f5241544560d81b606082015260800190565b604051602081830303815290604052805190602001206040516020016138d0939291909283526001600160a01b03919091166020830152604082015260600190565b604051602081830303815290604052805190602001208461443a90919063ffffffff16565b8460a00151828151811061390b5761390b618b7d565b6020908102919091010152600101613810565b50505090565b600061139283836151f3565b6139796040518060e0016040528060008152602001600081526020016000815260200160008152602001600081526020016000815260200160006001600160a01b031681525090565b60006139836131aa565b905060405160200161399490618ea4565b6040516020818303038152906040528051906020012084036139c6576060810151825260808101516020830152613a03565b6040516020016139d590618f4a565b604051602081830303815290604052805190602001208403613a035760a0810151825260c081015160208301525b613a118883600001516151f3565b60408301526020820151613a269089906151f3565b608083018190526040830151613a489190613a42908b90615203565b90615203565b60a08301527fb31b5831e77ebf4a20e050d886d24b00d24f44760e3342d08fb455df41d4aafa6000613a7989612cb7565b90507fb31b5831e77ebf4a20e050d886d24b00d24f44760e3342d08fb455df41d4ab018515613ae1576040850151613ab69084908c908c9061520f565b6080850151613ac89083908b90615274565b60a0850151613adc9082908c908c9061520f565b613b1b565b6040850151613af59084908c908c906152db565b6080850151613b079083908b9061533a565b60a0850151613b1b9082908c908c906152db565b6040805160a0810182526001600160a01b03808d1682528b811660208301528a168183015260608101899052608081018d905290517f9a37589f1078970477df9d898a565f6f1c38acef28e97a1302cfa722e41ad94290613bbd90839081516001600160a01b03908116825260208084015182169083015260408084015190911690820152606080830151908201526080918201519181019190915260a00190565b60405180910390a1505050505050505050505050565b600080846040015190506000613bec866020015161539b565b90506000613bf983612dc9565b90506000613c0a8860200151612dc9565b90506000613c17886153ff565b9050600084158015613c27575081155b15613c3e57613c3788858561540d565b9050613cd9565b84158015613c4c5750600082115b15613c87576000613c688386613c638a600161542e565b615453565b613c72908a618da1565b9050613c7f81868661540d565b915050613cd9565b81600003613ca8576040516338aa994560e11b815260040160405180910390fd5b6000613cbf8986613cba8a600161542e565b615473565b9050613cd583613ccf888461350a565b9061549c565b9150505b60008a60a00151118015613cf057508960a0015181105b15613d1e5760a08a015160405163044c152560e11b8152600481019190915260248101829052604401610639565b60208a01518a516040516340c10f1960e01b81526001600160a01b039182166004820152602481018490529116906340c10f1990604401600060405180830381600087803b158015613d6f57600080fd5b505af1158015613d83573d6000803e3d6000fd5b50929c9b505050505050505050505050565b60008082604051602001613da99190618edf565b60408051601f19818403018152919052805160209091012080549092508291506001600160a01b0316612d355781546001600160a01b0384166001600160a01b031990911617825550919050565b808260050154613e079190618da1565b82600501819055505050565b613e1d8383612ab3565b613e695760405162461bcd60e51b815260206004820152601b60248201527f737461626c6520746f6b656e206e6f7420737570706f727465642100000000006044820152606401610639565b6001600160a01b03821660009081526002840160205260408120613e8e9084906154a8565b6001600160a01b0384166000908152600286016020526040812080549293508492909190613ebd908490618da1565b90915550506001600160a01b038316600090815260028501602052604090205460808201526103a98161554b565b60028101546001600160a01b0316610b88576040516302ea63c760e21b815260040160405180910390fd5b613f1e618634565b613f26618634565b600080604051602001613f5b906020808252600e908201526d4c505f504f4f4c5f434f4e46494760901b604082015260600190565b60408051601f1981840301815291905280516020909101209050613f80828287614f6e565b613f8d5750909392505050565b613fc88186604051602001612f8690602080825260129082015271424153455f494e5445524553545f5241544560701b604082015260600190565b835260405161400a9082908790612f86906020016020808252601490820152731413d3d317d3125455525112551657d31253525560621b604082015260600190565b8360200181815250506140498186604051602001612f86906020808252600d908201526c4d494e545f4645455f5241544560981b604082015260600190565b83604001818152505061408a8186604051602001612f86906020808252600f908201526e52454445454d5f4645455f5241544560881b604082015260600190565b60608401526040516140cf9082908790612f86906020016020808252601490820152731413d3d317d4139317d490551253d7d31253525560621b604082015260600190565b608084015260405161411b9082908790612f86906020016020808252818101527f554e534554544c45445f424153455f544f4b454e5f524154494f5f4c494d4954604082015260600190565b60a08401526040516141749082908790612f869060200160208082526022908201527f554e534554544c45445f535441424c455f544f4b454e5f524154494f5f4c494d604082015261125560f21b606082015260800190565b60c08401526040516141c29082908790612f86906020016020808252601d908201527f504f4f4c5f535441424c455f544f4b454e5f524154494f5f4c494d4954000000604082015260600190565b60e08401526040516142109082908790612f86906020016020808252601c908201527f504f4f4c5f535441424c455f544f4b454e5f4c4f53535f4c494d495400000000604082015260600190565b610100840152604051614290908290879061424e906020016020808252600c908201526b41535345545f544f4b454e5360a01b604082015260600190565b60405160208183030381529060405280519060200120604051602001613799939291909283526001600160a01b03919091166020830152604082015260600190565b61012084015250909392505050565b6000806142ac84846155da565b905060008560a001511180156142c557508460a0015181105b156142f35760a085015160405163044c152560e11b8152600481019190915260248101829052604401610639565b602085015185516040516340c10f1960e01b81526001600160a01b039182166004820152602481018490529116906340c10f1990604401600060405180830381600087803b15801561434457600080fd5b505af1158015614358573d6000803e3d6000fd5b5092979650505050505050565b6143726001840183612ab3565b156143bd576001600160a01b038216600090815260038401602052604090205461439d908290618da1565b6001600160a01b0383166000908152600385016020526040902055505050565b6143ca6001840183612c82565b506001600160a01b03821660009081526003840160205260409020819055505050565b612b9b828260016156e1565b606060006113928361575d565b6000611392836001600160a01b0384166157b9565b600090815260029190910160205260409020546001600160a01b031690565b6000908152602091909152604090205490565b60008260000361445f575060006118da565b6040516370a0823160e01b81526001600160a01b038781166004830152600091908716906370a0823190602401602060405180830381865afa1580156144a9573d6000803e3d6000fd5b505050506040513d601f19601f820116820180604052508101906144cd9190618ac1565b90508381106145425760405163078d3b7960e01b81526001600160a01b0388169063078d3b799061450690899089908990600401618b93565b600060405180830381600087803b15801561452057600080fd5b505af1158015614534573d6000803e3d6000fd5b5050505060019150506118da565b8261458257604051635ac09ed760e11b81526001600160a01b03808916600483015280881660248301528616604482015260648101859052608401610639565b5060009695505050505050565b604080516000808252602082019092526001600160a01b0384169083906040516145b99190618f92565b60006040518083038185875af1925050503d80600081146145f6576040519150601f19603f3d011682016040523d82523d6000602084013e6145fb565b606091505b50509050806102f65760405162461bcd60e51b815260206004820152600360248201526253544560e81b6044820152606401610639565b805160009081614641866153ff565b9050600061464e8661539b565b905081158061465b575080155b1561468057606085015160405163f8b251f760e01b815261063991859160040161899f565b600061468f8660600151612dc9565b905060006146ae83613ccf868a6080015161350a90919063ffffffff16565b905060006146c68284613c638b60600151600061542e565b905060008860a001511180156146df57508760a0015181105b156147005760405163020876bb60e51b815260048101829052602401610639565b8061471889606001518c6158b390919063ffffffff16565b1015614740578751606089015160405163f8b251f760e01b815261063992919060040161899f565b60006147578261474e6135a3565b60400151613924565b905061477b818a604001518b606001518c60000151604051602001611f4a90618f4a565b6040808a015160808b01519151632770a7eb60e21b81526001600160a01b038a811660048301526024820193909352911690639dc29fac90604401600060405180830381600087803b1580156147d057600080fd5b505af11580156147e4573d6000803e3d6000fd5b5050505088604001516001600160a01b031663078d3b798a606001518b6020015184866148119190618c57565b6040518463ffffffff1660e01b815260040161482f93929190618b93565b600060405180830381600087803b15801561484957600080fd5b505af115801561485d573d6000803e3d6000fd5b50939d9c50505050505050505050505050565b80826005015410156148c45760405162461bcd60e51b815260206004820152601b60248201527f75736420746f6b656e20616d6f756e74206e6f7420656e6f75676800000000006044820152606401610639565b808260050154613e079190618c57565b6148df83838361593d565b6149365760405162461bcd60e51b815260206004820152602260248201527f737562206661696c656420776974682062616c616e6365206e6f7420656e6f756044820152610ced60f31b6064820152608401610639565b6001600160a01b0382166000908152600284016020526040812061495b9084906154a8565b6001600160a01b0384166000908152600286016020526040812080549293508492909190613ebd908490618c57565b60006149c86040518060c001604052806000815260200160008152602001600060ff1681526020016000815260200160008152602001600081525090565b6149d1856159b7565b815284546149e7906001600160a01b031661539b565b60208201526149f583612dc9565b60ff16604082015280511580614a0d57506020810151155b15614a3057835160405163f8b251f760e01b81526106399190859060040161899f565b602081015181516080860151614a4b9291613ccf919061350a565b606082018190526040820151614a679190613c6386600061542e565b60808201819052614a77866159e5565b1015614a9f578351606085015160405163f8b251f760e01b815261063992919060040161899f565b60008460a00151118015614aba57508360a001518160800151105b15614ae057806080015160405163020876bb60e51b815260040161063991815260200190565b6000614aef8560000151612ca3565b8654909150600090614b09906001600160a01b0316613f16565b90506000614b1f84608001518360600151613924565b9050614b4381886040015189606001518a60000151604051602001611f4a90618f4a565b614b6e8760400151886060015189602001518760a001518860800151614b699190618c57565b612735565b5060028801546080850151614b90918a916001600160a01b03909116906159f3565b604087810151885160808a01519251632770a7eb60e21b81526001600160a01b03918216600482015260248101939093521690639dc29fac90604401600060405180830381600087803b158015614be657600080fd5b505af1158015614bfa573d6000803e3d6000fd5b5050505060408701516080880151614c13918591615a63565b50505060800151949350505050565b604080516001600160a01b038581166024830152604480830186905283518084039091018152606490920183526020820180516001600160e01b031663a9059cbb60e01b1790529151600092839182918916908690614c82908690618f92565b60006040518083038160008787f1925050503d8060008114614cc0576040519150601f19603f3d011682016040523d82523d6000602084013e614cc5565b606091505b509150915081614cdb57600093505050506116c4565b60008151118015614cfd575080806020019051810190614cfb9190618fae565b155b15614d0e57600093505050506116c4565b506001979650505050505050565b6000614d71826040518060400160405280602081526020017f5361666545524332303a206c6f772d6c6576656c2063616c6c206661696c6564815250856001600160a01b0316615b149092919063ffffffff16565b9050805160001480614d92575080806020019051810190614d929190618fae565b6102f65760405162461bcd60e51b815260206004820152602a60248201527f5361666545524332303a204552433230206f7065726174696f6e20646964206e6044820152691bdd081cdd58d8d9595960b21b6064820152608401610639565b600080604051602001611b66906020808252601c908201527f78797a2e656c66692e73746f726167652e5575696443726561746f7200000000604082015260600190565b6000818152600183016020526040812054614e7c57508154600181810184556000848152602080822090930184905584548482528286019093526040902091909155611b24565b506000611b24565b6000808060001985870985870292508281108382030391505080600003614ebe57838281614eb457614eb4618fcb565b0492505050611392565b808411614f055760405162461bcd60e51b81526020600482015260156024820152744d6174683a206d756c446976206f766572666c6f7760581b6044820152606401610639565b60008486880960026001871981018816978890046003810283188082028403028082028403028082028403028082028403028082028403029081029092039091026000889003889004909101858311909403939093029303949094049190911702949350505050565b6000828152600c8401602052604081206116c49083612ab3565b6000908152600391909101602052604090205460ff1690565b6000808260405160200161140a919060408082526018908201527f78797a2e656c66692e73746f726167652e4163636f756e74000000000000000060608201526001600160a01b0391909116602082015260800190565b6150056002850184612ab3565b6150455760405162461bcd60e51b8152602060048201526011602482015270746f6b656e206e6f74206578697374732160781b6044820152606401610639565b6001600160a01b03831660009081526004850160205260409020548211156150af5760405162461bcd60e51b815260206004820152601860248201527f746f6b656e20616d6f756e74206e6f7420656e6f7567682100000000000000006044820152606401610639565b6001600160a01b0383166000818152600486016020818152604080842081516080810183528154808252600183015482860152600283015493820193909352600382015460608201529585529290915285929061510d908490618c57565b909155505084546001600160a01b0385811660009081526004880160205260409081902090517f1d59acd5f3bb87326c498fe747e339bda33b5370b6f8df63a48f232d73efb7489361516793169188918691908890619003565b60405180910390a15050505050565b600060606113928382615b23565b60008181526008830160209081526040918290208054835181840281018401909452808452606093928301828280156151e657602002820191906000526020600020905b81546001600160a01b031681526001909101906020018083116151c8575b5050505050905092915050565b60006113928383620186a0614e84565b60006113928284618c57565b61521c6004850183612ab3565b61522f5761522d6004850183612c82565b505b600061523b8484615bd1565b600081815260068701602052604090205490915061525a908390618da1565b600091825260069095016020526040902093909355505050565b6152816004840183612ab3565b615294576152926004840183612c82565b505b6001600160a01b03821660009081526006840160205260409020546152ba908290618da1565b6001600160a01b039092166000908152600690930160205250604090912055565b6152e58483612ab3565b6152f5576152f38483612c82565b505b60006153018484615bd1565b6000818152600287016020526040902054909150615320908390618da1565b600091825260029095016020526040902093909355505050565b6153448383612ab3565b615354576153528383612c82565b505b6001600160a01b038216600090815260028401602052604090205461537a908290618da1565b6001600160a01b039092166000908152600290930160205250604090912055565b6000816001600160a01b03166318160ddd6040518163ffffffff1660e01b8152600401602060405180830381865afa1580156153db573d6000803e3d6000fd5b505050506040513d601f19601f82011682018060405250810190611b249190618ac1565b600060606113928382615c5e565b60006116c48461541e84600a61907b565b61542986600a61907b565b614e84565b60008061543a84615c8e565b90508261544b578060200151611b20565b519392505050565b60006116c48461546485600a61907b565b615429856402540be40061350a565b60006116c461548384600a61907b565b613ccf6402540be400615496888761350a565b9061350a565b6000611392828461908a565b6154f960405180610100016040528060006001600160a01b03168152602001600081526020016000815260200160008152602001600081526020016000815260200160008152602001600081525090565b6001600160a01b0383168152815460208201819052600183015460408301819052600284015460608401819052608084019290925260a083015260c0820152615540615d21565b60e082015292915050565b805160208083015160408085015160608087015160808089015160a0808b015160c0808d015160e0808f01518b516001600160a01b03909f168f529c8e019b909b52988c0197909752948a0193909352908801528601528401528201527f217ba1d63771ad2228865ab2d862a89115d536eabbe8315c584eafe090d7f42290610100015b60405180910390a150565b815460009081906155f3906001600160a01b031661539b565b6002850154909150600090615610906001600160a01b0316612dc9565b9050600061561d866159b7565b905060008315801561562d575081155b156156395750846156d7565b831580156156475750600082115b1561567e57600287015461566d9083908590613c63906001600160a01b0316600161542e565b6156779087618da1565b90506156d7565b8160000361569f576040516338aa994560e11b815260040160405180910390fd5b60028701546000906156c39088908690613cba906001600160a01b0316600161542e565b90506156d383613ccf878461350a565b9150505b9695505050505050565b801561573c578254600284015460009161570b916001600160a01b03918216911660048701615da7565b9050828460040160000160008282546157249190618da1565b9091555050600484015460e08201526103a981615ea9565b818360040160000160008282546157539190618da1565b9091555050505050565b6060816000018054806020026020016040519081016040528092919081815260200182805480156157ad57602002820191906000526020600020905b815481526020019060010190808311615799575b50505050509050919050565b600081815260018301602052604081205480156158a25760006157dd600183618c57565b85549091506000906157f190600190618c57565b905081811461585657600086600001828154811061581157615811618b7d565b906000526020600020015490508087600001848154811061583457615834618b7d565b6000918252602080832090910192909255918252600188019052604090208390555b85548690806158675761586761909e565b600190038181906000526020600020016000905590558560010160008681526020019081526020016000206000905560019350505050611b24565b6000915050611b24565b5092915050565b6001600160a01b03811660009081526002830160205260408120816158d6615f8f565b9050806000036158fa57600182015482546158f19190618c57565b92505050611b24565b600061590a836001015483615f9f565b90508083600001541161591e57600061592b565b825461592b908290618c57565b9350505050611b24565b505092915050565b6001600160a01b03821660009081526002840160205260408120805483111561596a576000915050611392565b6000615974615f8f565b90508060000361599b5760018201548254859161599091618c57565b101592505050611392565b60018201548254615990906159b1908790618c57565b836151f3565b6000806159c383615faf565b905060008113156159dc576159d781615fbd565b611392565b60009392505050565b600060606113928382616013565b6159fe838383616244565b615a2957825460405163c5fa5f3d60e01b8152610639916001600160a01b031690849060040161899f565b60028301546001600160a01b03808416911603615a4f57615a4a838261633c565b615a5a565b615a5a838383616348565b6102f683616446565b6001600160a01b0382166000908152600384016020526040902054811115615acd5760405162461bcd60e51b815260206004820152601760248201527f746f6b656e20616d6f756e74206e6f7420656e6f7567680000000000000000006044820152606401610639565b6001600160a01b0382166000908152600384016020526040902054615af3908290618c57565b6001600160a01b039092166000908152600390930160205250604090912055565b60606116c48484600085616470565b600080615b308484616540565b9050600080615b3f868661663f565b915091506000615b4f8787616772565b9050615b69828260400151615b649190618da1565b616940565b815160001315615b7a578151615b7d565b60005b615b8685616940565b615ba88a60010154856020015189615b9e9190618da1565b615b649190618da1565b615bb291906190b4565b615bbc91906190d4565b615bc691906190b4565b979650505050505050565b6000604051602001615c089060208082526011908201527008c8a8abe829a9eaa9ca8bea0a48a8c92b607b1b604082015260600190565b60408051601f198184030181528282528051602091820120908301526001600160a01b03808616918301919091528316606082015260800160405160208183030381529060405280519060200120905092915050565b600080615c6b84846169aa565b90506000811315615c8457615c7f81615fbd565b611b20565b5060009392505050565b60408051808201909152600080825260208201526000615cac611b84565b604080518082018252600080825260209182018190526001600160a01b03871681526002840182528290208251808401909352805480845260019091015491830191909152919250901580615d0357506020810151155b156113925760405163907adecd60e01b815260040160405180910390fd5b600061a4b1461480615d35575062066eee46145b15615da25760646001600160a01b031663a3b1b31d6040518163ffffffff1660e01b8152600401602060405180830381865afa158015615d79573d6000803e3d6000fd5b505050506040513d601f19601f82011682018060405250810190615d9d9190618ac1565b905090565b504390565b615e24604051806101a0016040528060006001600160a01b0316815260200160006001600160a01b0316815260200160008152602001600081526020016000815260200160008152602001600081526020016000815260200160008152602001600081526020016000815260200160008152602001600081525090565b6001600160a01b03808516825283166020820152815460408201819052600183015460608301819052600284015460808401819052600385015460a08501819052600486015460c0860181905260e0860194909452610100850192909252610120840152610140830152610160820152615e9c615d21565b6101808201529392505050565b7f3c20d1ba6bcc5e5bd62d967908bf1ce684e6b52dbaab9f84ebfbf1b184b46bf8816000015182602001518360400151846060015185608001518660a001518760c001518860e001518961010001518a61012001518b61014001518c61016001518d61018001516040516155cf9d9c9b9a999897969594939291906001600160a01b039d8e1681529b909c1660208c015260408b019990995260608a0197909752608089019590955260a088019390935260c087019190915260e08601526101008501526101208401526101408301526101608201526101808101919091526101a00190565b6000615f99616a9b565b51919050565b600061139283620186a084614e84565b600060606113928382616adc565b60008082121561600f5760405162461bcd60e51b815260206004820181905260248201527f53616665436173743a2076616c7565206d75737420626520706f7369746976656044820152606401610639565b5090565b60078201546004830154600091829161602b90616940565b61603591906190d4565b9050600081121561604a576000915050611b24565b600061605585616cc8565b8051909150156161ec576002850154600090616079906001600160a01b0316612dc9565b600287015490915060009061609a9087906001600160a01b03166001616cd6565b905060005b83518110156161e857600088600e0160008684815181106160c2576160c2618b7d565b60200260200101516001600160a01b03166001600160a01b0316815260200190815260200160002090506000816004015411801561612457506161088160040154616940565b6003820154825461611890616940565b61612291906190d4565b125b156161df5760006161ad82600301546161408460000154616940565b61614d8560040154616940565b61615791906190b4565b61616191906190b4565b61618388868151811061617657616176618b7d565b6020026020010151612dc9565b6161a88c8a888151811061619957616199618b7d565b60200260200101516001616cd6565b616d7b565b905060006161bc828787616db5565b9050808813156161d7576161d081896190b4565b97506161dc565b600097505b50505b5060010161609f565b5050505b6000616203836161fe615b6489616dea565b616e0b565b90506162158660040160020154616940565b81136162225760006156d7565b6156d76162358760040160020154616940565b61623f90836190b4565b615fbd565b600283015460009081906001600160a01b0385811691161461627f576001600160a01b0384166000908152600e860160205260409020616284565b846004015b9050828160000154101561629c576000915050611392565b60006162a786616dea565b9050806000036162f6576162ba84616940565b6162c78360020154616940565b600384015484546162d790616940565b6162e191906190d4565b6162eb91906190b4565b121592505050611392565b6163038260020154616940565b6162eb836003015461631487616940565b855461631f90616940565b61632991906190b4565b61633391906190d4565b6161fe84616940565b612b9b82826001616e26565b82546001600160a01b038381166000908152600e86016020526040812090926163749216908590615da7565b6001600160a01b0384166000908152600e860160205260408120805492935084929091906163a3908490618c57565b90915550506001600160a01b0383166000818152600e86016020818152604083205460e08601819052938352520361643d576163e2600c850184614406565b506001600160a01b0383166000908152600e850160205260408120818155600181018290556002810182905560038101829055600481018290559060058201818181818181816164328282618687565b505050505050505050505b6103a981615ea9565b600061645182615faf565b1215610b885760405163abe7824160e01b815260040160405180910390fd5b6060824710156164d15760405162461bcd60e51b815260206004820152602660248201527f416464726573733a20696e73756666696369656e742062616c616e636520666f6044820152651c8818d85b1b60d21b6064820152608401610639565b600080866001600160a01b031685876040516164ed9190618f92565b60006040518083038185875af1925050503d806000811461652a576040519150601f19603f3d011682016040523d82523d6000602084013e61652f565b606091505b5091509150615bc687838387616ee4565b600080600061654e85616f5d565b905060005b81518110156166355761657e82828151811061657157616571618b7d565b6020026020010151612e2d565b511561662d57600086600401600084848151811061659e5761659e618b7d565b60200260200101516001600160a01b03166001600160a01b03168152602001908152602001600020604051806080016040529081600082015481526020016001820154815260200160028201548152602001600382015481525050905061662961662284848151811061661357616613618b7d565b60200260200101518389616f6b565b8590616fca565b9350505b600101616553565b5090949350505050565b600080600080600061665087616f5d565b905060005b815181101561673757600088600401600084848151811061667857616678618b7d565b60200260200101516001600160a01b03166001600160a01b0316815260200190815260200160002060405180608001604052908160008201548152602001600182015481526020016002820154815260200160038201548152505090506167036166fc8484815181106166ed576166ed618b7d565b6020026020010151838b616fd6565b8690616fca565b945061672c61662284848151811061671d5761671d618b7d565b6020026020010151838b617048565b935050600101616655565b506001870154156167665760018701546167519084618da1565b92508660010154826167639190618da1565b91505b50909590945092505050565b6167ab6040518060c001604052806000815260200160008152602001600081526020016000815260200160008152602001600081525090565b6167b4836170a7565b60006167c18460016170cf565b905060006167cd6172f8565b60a00151905060005b82518110156169375760008382815181106167f3576167f3618b7d565b602002602001015190506000616812878360c001518460400151616cd6565b9050600061682383602001516178d1565b90506000616834848a856000617ba6565b9050600081131561686e5761686761685f826161fe6168568860a00151612e2d565b60400151616940565b895190617bcf565b885261689a565b61689761685f826161fe6168858860a00151612e2d565b6101000151615b6490620186a0618da1565b88525b6168bb6168b08560e00151846000015189617bdb565b60608a015190616fca565b606089015261016084015160208901516168d491616fca565b602089015261018084015160408901516168ed91616fca565b604089015260e084015160a089015161690591616fca565b60a0890152616922616917858b617c04565b60808a015190617bcf565b60808901525050600190920191506167d69050565b50505092915050565b60006001600160ff1b0382111561600f5760405162461bcd60e51b815260206004820152602860248201527f53616665436173743a2076616c756520646f65736e27742066697420696e2061604482015267371034b73a191a9b60c11b6064820152608401610639565b600080806169b785617efe565b805190915015616a935760005b81518110156166355760008660020160008484815181106169e7576169e7618b7d565b60200260200101516001600160a01b03166001600160a01b031681526020019081526020016000209050600081600001541180616a28575060008160020154115b15616a8a57616a87616a80616a408360020154616940565b8354616a4b90616940565b616a5591906190d4565b616a6a86868151811061617657616176618b7d565b6161a88a88888151811061619957616199618b7d565b8590617bcf565b93505b506001016169c4565b509392505050565b616ad46040518060c001604052806000815260200160008152602001600081526020016000815260200160608152602001606081525090565b615d9d6135a3565b60048201546000908190151580616af7575060078401546000125b15616b965760038401546002850154600091616b219186906001906001600160a01b031681617f09565b6002860154909150600090616b429086906001600160a01b03166001616cd6565b9050616b91828760040160030154616b608960040160000154616940565b616b6a91906190d4565b616b7491906190d4565b6002880154616b8b906001600160a01b0316612dc9565b83616d7b565b925050505b6000616ba185616cc8565b805190915015616a935760005b815181101561663557600086600e016000848481518110616bd157616bd1618b7d565b60200260200101516001600160a01b03166001600160a01b031681526020019081526020016000209050600081600001541180616c12575060008160030154135b15616cbf576000616c458860030154886000878781518110616c3657616c36618b7d565b60200260200101516001617f09565b9050616cbb616cb482616c5b8560040154616940565b60038601548654616c6b90616940565b616c7591906190d4565b616c7f91906190b4565b616c8991906190d4565b616c9e87878151811061617657616176618b7d565b6161a88b89898151811061619957616199618b7d565b8690617bcf565b9450505b50600101616bae565b6060611b2482600c016143f9565b6000805b8451811015616d7057836001600160a01b0316858281518110616cff57616cff618b7d565b6020026020010151600001516001600160a01b031603616d685782616d4157848181518110616d3057616d30618b7d565b602002602001015160600151616d60565b848181518110616d5357616d53618b7d565b6020026020010151604001515b915050611392565b600101616cda565b506116c4838361542e565b60006116c4616d8e615b6485600a61907b565b616daf616d9f6402540be400616940565b616da98887618165565b90618165565b90618171565b60006116c4616dd2616dcb6402540be400616940565b8490618165565b616daf616de3615b6487600a61907b565b8790618165565b8054600090616e01906001600160a01b0316613f16565b6020015192915050565b6000611392616e1c620186a0616940565b616daf8585618165565b6004830154821115616e8a5760405162461bcd60e51b815260206004820152602760248201527f6261736520746f6b656e20616d6f756e74206c657373207468616e2073756220604482015266616d6f756e742160c81b6064820152608401610639565b8015616ecd5782546002840154600091616eb4916001600160a01b03918216911660048701615da7565b9050828460040160000160008282546157249190618c57565b818360040160000160008282546157539190618c57565b60608315616f53578251600003616f4c576001600160a01b0385163b616f4c5760405162461bcd60e51b815260206004820152601d60248201527f416464726573733a2063616c6c20746f206e6f6e2d636f6e74726163740000006044820152606401610639565b50816116c4565b6116c4838361817d565b6060611b24826002016143f9565b60008260200151836000015111616f8457506000611392565b6000616fb284602001518560000151616f9d9190618c57565b616fa687612dc9565b613cba868960016181a7565b90506118da81616fc187612e2d565b604001516151f3565b60006113928284618da1565b60008260000151836020015111616fef57506000611392565b600061700884600001518560200151616f9d9190618c57565b9050600061701586612e2d565b61010001511115617041576170378161702d87612e2d565b61010001516151f3565b616d609082618da1565b9050611392565b8151606083015160208401516000929161706191618c57565b1161706e57506000611392565b8251606084015160208501516116c4929161708891618c57565b6170929190618c57565b61709b86612dc9565b613cba858860016181a7565b80546001600160a01b0316610b8857604051633902b86b60e11b815260040160405180910390fd5b606060006170dc84618209565b905060006170ea8285618217565b67ffffffffffffffff811115617102576171026188ac565b60405190808252806020026020018201604052801561713b57816020015b6171286186a5565b8152602001906001900390816171205790505b5090506000805b83518110156172ed57600061716d85838151811061716257617162618b7d565b602002602001015190565b6040805161022081018252825481526001830154602080830191909152600284015460ff808216151584860152610100808304909116151560608086019182526001600160a01b036201000090940484166080808801919091526003890154851660a08089019190915260048a015490951660c08089019190915260058a015460e0808a019190915260068b01549589019590955260078a015461012089015260088a015461014089015260098a0154610160890152600a8a0154610180890152600b8a01546101a089015288519485018952600c8a01548552600d8a015496850196909652600e89015497840197909752600f880154908301526010870154958201959095526011860154918101919091526012850154918101919091526101c082015260138301546101e082015260149092015461020083015251909150871515901515036172e457808484815181106172cb576172cb618b7d565b60209081029190910101526172e1600184618da1565b92505b50600101617142565b509095945050505050565b617378604051806102000160405280606081526020016060815260200160008152602001600081526020016000815260200160008152602001600081526020016000815260200160008152602001600081526020016000815260200160008152602001600081526020016000815260200160008152602001600081525090565b6000806040516020016173ab906020808252600c908201526b54524144455f434f4e46494760a01b604082015260600190565b6040516020818303038152906040528051906020012090506173f781604051602001613769906020808252600c908201526b54524144455f544f4b454e5360a01b604082015260600190565b8084525167ffffffffffffffff811115617413576174136188ac565b60405190808252806020026020018201604052801561744c57816020015b6174396185e6565b8152602001906001900390816174315790505b50602084015260005b8351518110156174a1576174788460000151828151811061657157616571618b7d565b8460200151828151811061748e5761748e618b7d565b6020908102919091010152600101617455565b506174de816040516020016124999060208082526014908201527313525397d3d491115497d3505491d25397d554d160621b604082015260600190565b83604001818152505061752c81604051602001612499906020808252601a908201527f415641494c41424c455f434f4c4c41544552414c5f524154494f000000000000604082015260600190565b606084015260405161756a908290612499906020016020808252600f908201526e10d493d4d4d7d3151597d312535255608a1b604082015260600190565b60808401526040516175b6908290612499906020016020808252601b908201527f4d41585f4d41494e54454e414e43455f4d415247494e5f524154450000000000604082015260600190565b60a08401526040516175fa9082906124999060200160208082526015908201527446554e44494e475f4645455f424153455f5241544560581b604082015260600190565b60c084015260405161763e908290612499906020016020808252601590820152744d41585f46554e44494e475f424153455f5241544560581b604082015260600190565b60e08401526040516176949082906124999060200160208082526021908201527f54524144494e475f4645455f5354414b494e475f524557415244535f524154496040820152604f60f81b606082015260800190565b6101008401526040516176e1908290612499906020016020808252601e908201527f54524144494e475f4645455f504f4f4c5f524557415244535f524154494f0000604082015260600190565b6101208401526040516177399082906124999060200160208082526022908201527f54524144494e475f4645455f5553445f504f4f4c5f524557415244535f524154604082015261494f60f01b606082015260800190565b6101408401526040516177929082906124999060200160208082526023908201527f424f52524f57494e475f4645455f5354414b494e475f524557415244535f524160408201526254494f60e81b606082015260800190565b6101608401526040516177dd908290612499906020016020808252818101527f424f52524f57494e475f4645455f504f4f4c5f524557415244535f524154494f604082015260600190565b61018084015260405161782a9082906124999060200160208082526019908201527f4155544f5f5245445543455f50524f4649545f464143544f5200000000000000604082015260600190565b6101a0840152604051617877908290612499906020016020808252601c908201527f4155544f5f5245445543455f4c49515549444954595f464143544f5200000000604082015260600190565b6101c08401526040516178c49082906124999060200160208082526019908201527f535741505f534c49505045525f544f4b454e5f464143544f5200000000000000604082015260600190565b6101e08401525090919050565b6178d961878c565b6178e161878c565b600080604051602001617915906020808252600d908201526c53594d424f4c5f434f4e46494760981b604082015260600190565b60408051601f198184030181529190528051602090910120905061793a8282876183a4565b6179475750909392505050565b6179b1818660405160200161797c906020808252600c908201526b4d41585f4c4556455241474560a01b604082015260600190565b60408051601f1981840301815282825280516020918201209083019490945281019190915260608101919091526080016124c9565b83526040516179e8908290879061797c906020016020808252600990820152685449434b5f53495a4560b81b604082015260600190565b836020018181525050617a27818660405160200161797c906020808252600d908201526c4f50454e5f4645455f5241544560981b604082015260600190565b836040018181525050617a67818660405160200161797c906020808252600e908201526d434c4f53455f4645455f5241544560901b604082015260600190565b6060840152604051617ab5908290879061797c906020016020808252601a908201527f4d41585f4c4f4e475f4f50454e5f494e5445524553545f434150000000000000604082015260600190565b6080840152604051617b03908290879061797c906020016020808252601b908201527f4d41585f53484f52545f4f50454e5f494e5445524553545f4341500000000000604082015260600190565b60a0840152604051617b4a908290879061797c906020016020808252601690820152751313d391d7d4d213d49517d490551253d7d31253525560521b604082015260600190565b60c0840152604051617b98908290879061797c906020016020808252601a908201527f4c4f4e475f53484f52545f4f495f424f54544f4d5f4c494d4954000000000000604082015260600190565b60e084015250909392505050565b6000806000617bb68787876183be565b9150915083617bc55780615bc6565b5095945050505050565b600061139282846190d4565b60006116c4617bea85846151f3565b617bfe86617bf987600261350a565b615f9f565b9061849d565b6000617c496040518060e001604052806000815260200160008152602001600060ff168152602001600081526020016000815260200160008152602001600081525090565b617c5b846020015185604001516184b3565b606082015260e0840151617c9090617c7290616940565b856101c00151608001518360600151617c8b91906190b4565b6184db565b608082015260a0840151617ca390612dc9565b60ff1660408083019190915284015115617cf257617cd7816080015182604001516161a8868860a001518960400151616cd6565b846101c0015160c00151617ceb91906190d4565b8152617d0e565b8060800151846101c0015160c00151617d0b91906190d4565b81525b6000617d1d85602001516184f1565b6040805160c08101909152815481526001820154909190602083019060ff166003811115617d4d57617d4d6189ef565b6003811115617d5e57617d5e6189ef565b815260018201546001600160a01b03610100909104811660208301526002830154811660408301526003830154166060820152600482018054608090920191617da6906190f4565b80601f0160208091040260200160405190810160405280929190818152602001828054617dd2906190f4565b8015617e1f5780601f10617df457610100808354040283529160200191617e1f565b820191906000526020600020905b815481529060010190602001808311617e0257829003601f168201915b5050505050815250509050617e41816040015186604001518760a0015161853c565b60a0830152610140850151610120860151617e8b91617e6d91617e6890620186a090618c57565b6151f3565b866101c00151602001518460a00151617e869190618c57565b612d3b565b8260c0018181525050617eb48260c001518360400151613cba878960a001518a604001516181a7565b856101c0015160600151617ec89190618da1565b60208301819052617ed890616940565b82516101c087015151617eea90616940565b617ef491906190d4565b6118da91906190d4565b6060611b24826143f9565b600080617f158761858f565b90506000617f22886184f1565b6040805160c08101909152815481526001820154909190602083019060ff166003811115617f5257617f526189ef565b6003811115617f6357617f636189ef565b815260018201546001600160a01b03610100909104811660208301526002830154811660408301526003830154166060820152600482018054608090920191617fab906190f4565b80601f0160208091040260200160405190810160405280929190818152602001828054617fd7906190f4565b80156180245780601f10617ff957610100808354040283529160200191618024565b820191906000526020600020905b81548152906001019060200180831161800757829003601f168201915b5050505050815250509050600086618055576001600160a01b0386166000908152600684016020526040902061805a565b826002015b805490915060000361807257600093505050506118da565b60006180848984606001516001616cd6565b905061808f81615fbd565b8260010154036180a65760009450505050506118da565b87156181395760006180e36180be8460010154616940565b616daf6180d86180d18760010154616940565b86906185da565b8654616da990616940565b905086156181245760006180f98b8a6000616cd6565b905061810e826181088b612dc9565b83616db5565b61811790619128565b96505050505050506118da565b61812d81619128565b955050505050506118da565b60006180e361814b8460010154616940565b616daf6180d88561815f8860010154616940565b906185da565b60006113928284619144565b60006113928284619174565b81511561818d5781518083602001fd5b8060405162461bcd60e51b815260040161063991906191a2565b6000805b8451811015616d7057836001600160a01b03168582815181106181d0576181d0618b7d565b6020026020010151600001516001600160a01b0316036182015782616d4157848181518110616d3057616d30618b7d565b6001016181ab565b6060611b24826005016143f9565b6000806182226186a5565b60005b85518110156166355761824386828151811061716257617162618b7d565b6040805161022081018252825481526001830154602080830191909152600284015460ff808216151584860152610100808304909116151560608086019182526001600160a01b036201000090940484166080808801919091526003890154851660a08089019190915260048a015490951660c08089019190915260058a015460e0808a019190915260068b01549589019590955260078a015461012089015260088a015461014089015260098a0154610160890152600a8a0154610180890152600b8a01546101a089015288519485018952600c8a01548552600d8a015496850196909652600e89015497840197909752600f880154908301526010870154958201959095526011860154918101919091526012850154918101919091526101c082015260138301546101e0820152601490920154610200830152519092508515159015150361839c57618399600184618da1565b92505b600101618225565b6000828152600d8401602052604081206116c49083612c6a565b6000808460e001516000036183d857506000905080618495565b84604001511561843f57600061841d6183f5876101000151616940565b616daf6184106184098a6101000151616940565b88906185da565b616da98a60e00151616940565b9050618436816184308860a00151612dc9565b86616db5565b92509050618495565b6000618467618452876101000151616940565b616daf6184108761815f8b6101000151616940565b9050600061847b868860a001516000616cd6565b905061848e826181088960a00151612dc9565b9350909150505b935093915050565b60008183106184ac5781611392565b5090919050565b6000806184bf8461858f565b9050826184d0576008810154611b20565b600701549392505050565b6000611392616e1c670de0b6b3a7640000616940565b6040805160208101829052601760608201527f78797a2e656c66692e73746f726167652e53796d626f6c0000000000000000006080820152908101829052600090819060a00161140a565b6000821561855c57600061854f856113b3565b6012015491506113929050565b6000618566612a6f565b6001600160a01b0384166000908152600382016020526040902090915060020154915050611392565b6040805160208101829052601760608201527f78797a2e656c66692e73746f726167652e4d61726b65740000000000000000006080820152908101829052600090819060a00161140a565b600061139282846190b4565b60405180610120016040528060001515815260200160008152602001600081526020016000815260200160008152602001600081526020016000815260200160008152602001600081525090565b604051806101400160405280600081526020016000815260200160008152602001600081526020016000815260200160008152602001600081526020016000815260200160008152602001606081525090565b5080546000825590600052602060002090810190610b8891906187d1565b604051806102200160405280600080191681526020016000801916815260200160001515815260200160001515815260200160006001600160a01b0316815260200160006001600160a01b0316815260200160006001600160a01b03168152602001600081526020016000815260200160008152602001600081526020016000815260200160008152602001600081526020016187786040518060e00160405280600081526020016000815260200160008152602001600081526020016000815260200160008152602001600081525090565b815260200160008152602001600081525090565b60405180610100016040528060008152602001600081526020016000815260200160008152602001600081526020016000815260200160008152602001600081525090565b5b8082111561600f57600081556001016187d2565b6000806000604084860312156187fb57600080fd5b83359250602084013567ffffffffffffffff8082111561881a57600080fd5b818601915086601f83011261882e57600080fd5b81358181111561883d57600080fd5b8760208260071b850101111561885257600080fd5b6020830194508093505050509250925092565b6000806040838503121561887857600080fd5b50508035926020909101359150565b60006101008284031215612d3557600080fd5b600060c08284031215612d3557600080fd5b634e487b7160e01b600052604160045260246000fd5b6001600160a01b0381168114610b8857600080fd5b8035610870816188c2565b6000608082840312156188f457600080fd5b6040516080810181811067ffffffffffffffff8211171561892557634e487b7160e01b600052604160045260246000fd5b6040528235618933816188c2565b81526020830135618943816188c2565b6020820152604083810135908201526060928301359281019290925250919050565b60006020828403121561897757600080fd5b8151611392816188c2565b60006020828403121561899457600080fd5b8135611392816188c2565b6001600160a01b0392831681529116602082015260400190565b8015158114610b8857600080fd5b8035610870816189b9565b6000602082840312156189e457600080fd5b8135611392816189b9565b634e487b7160e01b600052602160045260246000fd5b6000610100808385031215618a1957600080fd5b6040519081019067ffffffffffffffff82118183101715618a4a57634e487b7160e01b600052604160045260246000fd5b8160405283359150618a5b826188c2565b818152618a6a602085016188d7565b602082015260408401356040820152606084013560608201526080840135608082015260a084013560a0820152618aa360c085016189c7565b60c0820152618ab460e085016189c7565b60e0820152949350505050565b600060208284031215618ad357600080fd5b5051919050565b600060c08284031215618aec57600080fd5b60405160c0810181811067ffffffffffffffff82111715618b1d57634e487b7160e01b600052604160045260246000fd5b6040528235618b2b816188c2565b81526020830135618b3b816188c2565b60208201526040830135618b4e816188c2565b80604083015250606083013560608201526080830135608082015260a083013560a08201528091505092915050565b634e487b7160e01b600052603260045260246000fd5b6001600160a01b039384168152919092166020820152604081019190915260600190565b60018060a01b0380825116835280602083015116602084015280604083015116604084015250606081015160608301526080810151608083015260a081015160a083015260c081015160c083015260e0810151618c1860e084018215159052565b5061010081810151801515848301526103a9565b82815261014081016113926020830184618bb7565b634e487b7160e01b600052601160045260246000fd5b81810381811115611b2457611b24618c41565b8082028115828204841417611b2457611b24618c41565b6101408101618c908285618bb7565b826101208301529392505050565b60018060a01b03808251168352806020830151166020840152806040830151166040840152806060830151166060840152506080810151608083015260a081015160a083015260c081015160c08301525050565b82815261010081016113926020830184618c9e565b6101008101618d168285618c9e565b8260e08301529392505050565b81546001600160a01b03168152610120810160018301546001600160a01b03908116602084015260028401541660408301526003830154606083015260048301546080830152600583015460a0830152600683015460c0830152600783015460ff808216151560e0850152600882901c1615156101008401526158ac565b80820180821115611b2457611b24618c41565b600181815b80851115618def578160001904821115618dd557618dd5618c41565b80851615618de257918102915b93841c9390800290618db9565b509250929050565b600082618e0657506001611b24565b81618e1357506000611b24565b8160018114618e295760028114618e3357618e4f565b6001915050611b24565b60ff841115618e4457618e44618c41565b50506001821b611b24565b5060208310610133831016604e8410600b8410161715618e72575081810a611b24565b618e7c8383618db4565b8060001904821115618e9057618e90618c41565b029392505050565b60006113928383618df7565b60208082526008908201526711915157d352539560c21b604082015260600190565b600060018201618ed857618ed8618c41565b5060010190565b6040808252601f908201527f78797a2e656c66692e73746f726167652e5374616b696e674163636f756e740060608201526001600160a01b0391909116602082015260800190565b600060208284031215618f3957600080fd5b815160ff8116811461139257600080fd5b6020808252600a90820152694645455f52454445454d60b01b604082015260600190565b60005b83811015618f89578181015183820152602001618f71565b50506000910152565b60008251618fa4818460208701618f6e565b9190910192915050565b600060208284031215618fc057600080fd5b8151611392816189b9565b634e487b7160e01b600052601260045260246000fd5b600f8110618fff57634e487b7160e01b600052602160045260246000fd5b9052565b60006101608201905060018060a01b038088168352808716602084015250845160408301526020850151606083015260408501516080830152606085015160a0830152835460c0830152600184015460e0830152600284015461010083015260038401546101208301526156d7610140830184618fe1565b600061139260ff841683618df7565b60008261909957619099618fcb565b500490565b634e487b7160e01b600052603160045260246000fd5b81810360008312801583831316838312821617156158ac576158ac618c41565b808201828112600083128015821682158216171561593557615935618c41565b600181811c9082168061910857607f821691505b602082108103612d3557634e487b7160e01b600052602260045260246000fd5b6000600160ff1b820161913d5761913d618c41565b5060000390565b80820260008212600160ff1b8414161561916057619160618c41565b8181058314821517611b2457611b24618c41565b60008261918357619183618fcb565b600160ff1b82146000198414161561919d5761919d618c41565b500590565b60208152600082518060208401526191c1816040850160208701618f6e565b601f01601f1916919091016040019291505056fea2646970667358221220311150a899b7d20e469fb42a662d465e5648f794254a20542a3f6a7426e5378664736f6c63430008190033","linkReferences":{}},"methodIdentifiers":{"cancelMintStakeToken(uint256,bytes32)":"3b6f9144","cancelRedeemStakeToken(uint256,bytes32)":"9d437bd8","createMintStakeTokenRequest((address,address,uint256,uint256,uint256,uint256,bool,bool))":"a7cb6602","createRedeemStakeTokenRequest((address,address,address,uint256,uint256,uint256))":"a8b6d8aa","executeMintStakeToken(uint256,(address,address,int256,int256)[])":"18225089","executeRedeemStakeToken(uint256,(address,address,int256,int256)[])":"6990d245"},"id":71}