{"abi":[{"type":"function","name":"AUTO_REDUCE_LIQUIDITY_FACTOR","inputs":[],"outputs":[{"name":"","type":"bytes32","internalType":"bytes32"}],"stateMutability":"view"},{"type":"function","name":"AUTO_REDUCE_PROFIT_FACTOR","inputs":[],"outputs":[{"name":"","type":"bytes32","internalType":"bytes32"}],"stateMutability":"view"},{"type":"function","name":"AVAILABLE_COLLATERAL_RATIO","inputs":[],"outputs":[{"name":"","type":"bytes32","internalType":"bytes32"}],"stateMutability":"view"},{"type":"function","name":"BORROWING_FEE_POOL_REWARDS_RATIO","inputs":[],"outputs":[{"name":"","type":"bytes32","internalType":"bytes32"}],"stateMutability":"view"},{"type":"function","name":"BORROWING_FEE_STAKING_REWARDS_RATIO","inputs":[],"outputs":[{"name":"","type":"bytes32","internalType":"bytes32"}],"stateMutability":"view"},{"type":"function","name":"CROSS_LTV_LIMIT","inputs":[],"outputs":[{"name":"","type":"bytes32","internalType":"bytes32"}],"stateMutability":"view"},{"type":"function","name":"FUNDING_FEE_BASE_RATE","inputs":[],"outputs":[{"name":"","type":"bytes32","internalType":"bytes32"}],"stateMutability":"view"},{"type":"function","name":"MAX_FUNDING_BASE_RATE","inputs":[],"outputs":[{"name":"","type":"bytes32","internalType":"bytes32"}],"stateMutability":"view"},{"type":"function","name":"MAX_MAINTENANCE_MARGIN_RATE","inputs":[],"outputs":[{"name":"","type":"bytes32","internalType":"bytes32"}],"stateMutability":"view"},{"type":"function","name":"MIN_ORDER_MARGIN_USD","inputs":[],"outputs":[{"name":"","type":"bytes32","internalType":"bytes32"}],"stateMutability":"view"},{"type":"function","name":"SWAP_SLIPPER_TOKEN_FACTOR","inputs":[],"outputs":[{"name":"","type":"bytes32","internalType":"bytes32"}],"stateMutability":"view"},{"type":"function","name":"TRADE_TOKENS","inputs":[],"outputs":[{"name":"","type":"bytes32","internalType":"bytes32"}],"stateMutability":"view"},{"type":"function","name":"TRADING_FEE_POOL_REWARDS_RATIO","inputs":[],"outputs":[{"name":"","type":"bytes32","internalType":"bytes32"}],"stateMutability":"view"},{"type":"function","name":"TRADING_FEE_STAKING_REWARDS_RATIO","inputs":[],"outputs":[{"name":"","type":"bytes32","internalType":"bytes32"}],"stateMutability":"view"},{"type":"function","name":"TRADING_FEE_USD_POOL_REWARDS_RATIO","inputs":[],"outputs":[{"name":"","type":"bytes32","internalType":"bytes32"}],"stateMutability":"view"}],"bytecode":{"object":"0x610593610039600b82828239805160001a607314602c57634e487b7160e01b600052600060045260246000fd5b30600052607381538281f3fe73000000000000000000000000000000000000000030146080604052600436106100ff5760003560e01c80638cc4c2e9116100a1578063a8425b7a11610070578063a8425b7a1461016e578063aa052c6814610176578063d68859a31461017e578063de2a4ad11461018657600080fd5b80638cc4c2e91461014e578063964268f4146101565780639796bc971461015e578063a24165fb1461016657600080fd5b80633bf57085116100dd5780633bf570851461012e5780633dd65b1914610136578063442dc5781461013e5780635d05c7011461014657600080fd5b80630f7ffc8d1461010457806327fc28ba1461011e5780633071e21d14610126575b600080fd5b61010c61018e565b60405190815260200160405180910390f35b61010c6101e6565b61010c610227565b61010c610260565b61010c6102a1565b61010c6102ee565b61010c610321565b61010c610362565b61010c6103a3565b61010c6103e4565b61010c61041c565b61010c610467565b61010c6104a0565b61010c6104d0565b61010c61051c565b6040516020016101cd906020808252818101527f424f52524f57494e475f4645455f504f4f4c5f524557415244535f524154494f604082015260600190565b6040516020818303038152906040528051906020012081565b6040516020016101cd906020808252601e908201527f54524144494e475f4645455f504f4f4c5f524557415244535f524154494f0000604082015260600190565b6040516020016101cd906020808252601590820152744d41585f46554e44494e475f424153455f5241544560581b604082015260600190565b6040516020016101cd906020808252601c908201527f4155544f5f5245445543455f4c49515549444954595f464143544f5200000000604082015260600190565b6040516020016101cd9060208082526023908201527f424f52524f57494e475f4645455f5354414b494e475f524557415244535f524160408201526254494f60e81b606082015260800190565b6040516020016101cd906020808252600f908201526e10d493d4d4d7d3151597d312535255608a1b604082015260600190565b6040516020016101cd9060208082526019908201527f4155544f5f5245445543455f50524f4649545f464143544f5200000000000000604082015260600190565b6040516020016101cd906020808252601a908201527f415641494c41424c455f434f4c4c41544552414c5f524154494f000000000000604082015260600190565b6040516020016101cd906020808252601b908201527f4d41585f4d41494e54454e414e43455f4d415247494e5f524154450000000000604082015260600190565b6040516020016101cd9060208082526014908201527313525397d3d491115497d3505491d25397d554d160621b604082015260600190565b6040516020016101cd9060208082526021908201527f54524144494e475f4645455f5354414b494e475f524557415244535f524154496040820152604f60f81b606082015260800190565b6040516020016101cd9060208082526015908201527446554e44494e475f4645455f424153455f5241544560581b604082015260600190565b6040516020016101cd906020808252600c908201526b54524144455f544f4b454e5360a01b604082015260600190565b6040516020016101cd9060208082526022908201527f54524144494e475f4645455f5553445f504f4f4c5f524557415244535f524154604082015261494f60f01b606082015260800190565b6040516020016101cd9060208082526019908201527f535741505f534c49505045525f544f4b454e5f464143544f520000000000000060408201526060019056fea26469706673582212207897d4d7455606b3ff18466995564efac3e5c65d161676620c2e202f6f5a25f564736f6c63430008190033","linkReferences":{}},"methodIdentifiers":{"AUTO_REDUCE_LIQUIDITY_FACTOR()":"3bf57085","AUTO_REDUCE_PROFIT_FACTOR()":"5d05c701","AVAILABLE_COLLATERAL_RATIO()":"8cc4c2e9","BORROWING_FEE_POOL_REWARDS_RATIO()":"0f7ffc8d","BORROWING_FEE_STAKING_REWARDS_RATIO()":"3dd65b19","CROSS_LTV_LIMIT()":"442dc578","FUNDING_FEE_BASE_RATE()":"a8425b7a","MAX_FUNDING_BASE_RATE()":"3071e21d","MAX_MAINTENANCE_MARGIN_RATE()":"964268f4","MIN_ORDER_MARGIN_USD()":"9796bc97","SWAP_SLIPPER_TOKEN_FACTOR()":"de2a4ad1","TRADE_TOKENS()":"aa052c68","TRADING_FEE_POOL_REWARDS_RATIO()":"27fc28ba","TRADING_FEE_STAKING_REWARDS_RATIO()":"a24165fb","TRADING_FEE_USD_POOL_REWARDS_RATIO()":"d68859a3"},"id":133}