{"abi":[{"type":"function","name":"AUTO_REDUCE_LIQUIDITY_FACTOR","inputs":[],"outputs":[{"name":"","type":"bytes32","internalType":"bytes32"}],"stateMutability":"view"},{"type":"function","name":"AUTO_REDUCE_PROFIT_FACTOR","inputs":[],"outputs":[{"name":"","type":"bytes32","internalType":"bytes32"}],"stateMutability":"view"},{"type":"function","name":"AVAILABLE_COLLATERAL_RATIO","inputs":[],"outputs":[{"name":"","type":"bytes32","internalType":"bytes32"}],"stateMutability":"view"},{"type":"function","name":"BORROWING_FEE_POOL_REWARDS_RATIO","inputs":[],"outputs":[{"name":"","type":"bytes32","internalType":"bytes32"}],"stateMutability":"view"},{"type":"function","name":"BORROWING_FEE_STAKING_REWARDS_RATIO","inputs":[],"outputs":[{"name":"","type":"bytes32","internalType":"bytes32"}],"stateMutability":"view"},{"type":"function","name":"CROSS_LTV_LIMIT","inputs":[],"outputs":[{"name":"","type":"bytes32","internalType":"bytes32"}],"stateMutability":"view"},{"type":"function","name":"FUNDING_FEE_BASE_RATE","inputs":[],"outputs":[{"name":"","type":"bytes32","internalType":"bytes32"}],"stateMutability":"view"},{"type":"function","name":"MAX_FUNDING_BASE_RATE","inputs":[],"outputs":[{"name":"","type":"bytes32","internalType":"bytes32"}],"stateMutability":"view"},{"type":"function","name":"MAX_MAINTENANCE_MARGIN_RATE","inputs":[],"outputs":[{"name":"","type":"bytes32","internalType":"bytes32"}],"stateMutability":"view"},{"type":"function","name":"MIN_ORDER_MARGIN_USD","inputs":[],"outputs":[{"name":"","type":"bytes32","internalType":"bytes32"}],"stateMutability":"view"},{"type":"function","name":"SWAP_SLIPPER_TOKEN_FACTOR","inputs":[],"outputs":[{"name":"","type":"bytes32","internalType":"bytes32"}],"stateMutability":"view"},{"type":"function","name":"TRADE_TOKENS","inputs":[],"outputs":[{"name":"","type":"bytes32","internalType":"bytes32"}],"stateMutability":"view"},{"type":"function","name":"TRADING_FEE_POOL_REWARDS_RATIO","inputs":[],"outputs":[{"name":"","type":"bytes32","internalType":"bytes32"}],"stateMutability":"view"},{"type":"function","name":"TRADING_FEE_STAKING_REWARDS_RATIO","inputs":[],"outputs":[{"name":"","type":"bytes32","internalType":"bytes32"}],"stateMutability":"view"},{"type":"function","name":"TRADING_FEE_USD_POOL_REWARDS_RATIO","inputs":[],"outputs":[{"name":"","type":"bytes32","internalType":"bytes32"}],"stateMutability":"view"},{"type":"function","name":"getTradeConfig","inputs":[],"outputs":[{"name":"config","type":"tuple","internalType":"struct AppTradeConfig.TradeConfig","components":[{"name":"tradeTokens","type":"address[]","internalType":"address[]"},{"name":"tradeTokenConfigs","type":"tuple[]","internalType":"struct AppTradeTokenConfig.TradeTokenConfig[]","components":[{"name":"isSupportCollateral","type":"bool","internalType":"bool"},{"name":"precision","type":"uint256","internalType":"uint256"},{"name":"discount","type":"uint256","internalType":"uint256"},{"name":"collateralUserCap","type":"uint256","internalType":"uint256"},{"name":"collateralTotalCap","type":"uint256","internalType":"uint256"},{"name":"liabilityUserCap","type":"uint256","internalType":"uint256"},{"name":"liabilityTotalCap","type":"uint256","internalType":"uint256"},{"name":"interestRateFactor","type":"uint256","internalType":"uint256"},{"name":"liquidationFactor","type":"uint256","internalType":"uint256"}]},{"name":"minOrderMarginUSD","type":"uint256","internalType":"uint256"},{"name":"availableCollateralRatio","type":"uint256","internalType":"uint256"},{"name":"crossLtvLimit","type":"uint256","internalType":"uint256"},{"name":"maxMaintenanceMarginRate","type":"uint256","internalType":"uint256"},{"name":"fundingFeeBaseRate","type":"uint256","internalType":"uint256"},{"name":"maxFundingBaseRate","type":"uint256","internalType":"uint256"},{"name":"tradingFeeStakingRewardsRatio","type":"uint256","internalType":"uint256"},{"name":"tradingFeePoolRewardsRatio","type":"uint256","internalType":"uint256"},{"name":"tradingFeeUsdPoolRewardsRatio","type":"uint256","internalType":"uint256"},{"name":"borrowingFeeStakingRewardsRatio","type":"uint256","internalType":"uint256"},{"name":"borrowingFeePoolRewardsRatio","type":"uint256","internalType":"uint256"},{"name":"autoReduceProfitFactor","type":"uint256","internalType":"uint256"},{"name":"autoReduceLiquidityFactor","type":"uint256","internalType":"uint256"},{"name":"swapSlipperTokenFactor","type":"uint256","internalType":"uint256"}]}],"stateMutability":"view"}],"bytecode":{"object":"0x613f6e610039600b82828239805160001a607314602c57634e487b7160e01b600052600060045260246000fd5b30600052607381538281f3fe73000000000000000000000000000000000000000030146080604052600436106101155760003560e01c80638cc4c2e9116100ac578063a8425b7a1161007b578063a8425b7a146101a7578063aa052c68146101af578063b4584988146101b7578063d68859a3146101cc578063de2a4ad1146101d457600080fd5b80638cc4c2e914610187578063964268f41461018f5780639796bc9714610197578063a24165fb1461019f57600080fd5b80633bf57085116100e85780633bf57085146101675780633dd65b191461016f578063442dc578146101775780635d05c7011461017f57600080fd5b80630f7ffc8d1461011a57806327fc28ba146101355780633071e21d1461013d5780633bb4412b14610145575b600080fd5b6101226101dc565b6040519081526020015b60405180910390f35b610122610204565b610122610213565b81801561015157600080fd5b50610165610160366004613738565b610222565b005b6101226110be565b6101226110cd565b6101226110dc565b6101226110eb565b6101226110fa565b610122611109565b610122611118565b610122611127565b610122611136565b610122611145565b6101bf611154565b60405161012c919061392c565b61012261214a565b610122612159565b6040516020016101eb90613a1f565b6040516020818303038152906040528051906020012081565b6040516020016101eb90613a54565b6040516020016101eb90613a8b565b600073__$819338afc672a9cefb034a8d5ff76e114d$__6386d5c4be6040518163ffffffff1660e01b8152600401602060405180830381865af415801561026d573d6000803e3d6000fd5b505050506040513d601f19601f820116820180604052508101906102919190613aba565b905060006040516020016102c5906020808252600c908201526b54524144455f434f4e46494760a01b604082015260600190565b60405160208183030381529060405280519060200120905060008273__$819338afc672a9cefb034a8d5ff76e114d$__63f22e161d90918460405160200161030c90613ad3565b6040516020818303038152906040528051906020012060405160200161033c929190918252602082015260400190565b604051602081830303815290604052805190602001206040518363ffffffff1660e01b8152600401610378929190918252602082015260400190565b600060405180830381865af4158015610395573d6000803e3d6000fd5b505050506040513d6000823e601f3d908101601f191682016040526103bd9190810190613af9565b905060005b81518110156103f5576103ed8282815181106103e0576103e0613b93565b6020026020010151612168565b6001016103c2565b508273__$819338afc672a9cefb034a8d5ff76e114d$__6385df2a9490918460405160200161042390613ad3565b60405160208183030381529060405280519060200120604051602001610453929190918252602082015260400190565b60408051601f1981840301815290829052805160209091012088516001600160e01b031960e086901b16835261048c9392600401613ba9565b60006040518083038186803b1580156104a457600080fd5b505af41580156104b8573d6000803e3d6000fd5b5050505060005b8451518110156105155761050d856000015182815181106104e2576104e2613b93565b60200260200101518660200151838151811061050057610500613b93565b6020026020010151612b61565b6001016104bf565b508273__$819338afc672a9cefb034a8d5ff76e114d$__635e42ae1690918460405160200161054390613c09565b60405160208183030381529060405280519060200120604051602001610573929190918252602082015260400190565b60408051808303601f1901815282825280516020909101209089015160e085901b6001600160e01b031916835260048301939093526024820152604481019190915260640160006040518083038186803b1580156105d057600080fd5b505af41580156105e4573d6000803e3d6000fd5b505050508273__$819338afc672a9cefb034a8d5ff76e114d$__635e42ae1690918460405160200161061590613c37565b60405160208183030381529060405280519060200120604051602001610645929190918252602082015260400190565b60408051601f1981840301815290829052805160209091012060608901516001600160e01b031960e086901b16835260048301939093526024820152604481019190915260640160006040518083038186803b1580156106a457600080fd5b505af41580156106b8573d6000803e3d6000fd5b505050508273__$819338afc672a9cefb034a8d5ff76e114d$__635e42ae169091846040516020016106e990613c6e565b60405160208183030381529060405280519060200120604051602001610719929190918252602082015260400190565b60408051601f1981840301815290829052805160209091012060808901516001600160e01b031960e086901b16835260048301939093526024820152604481019190915260640160006040518083038186803b15801561077857600080fd5b505af415801561078c573d6000803e3d6000fd5b505050508273__$819338afc672a9cefb034a8d5ff76e114d$__635e42ae169091846040516020016107bd90613c97565b604051602081830303815290604052805190602001206040516020016107ed929190918252602082015260400190565b60408051601f1981840301815290829052805160209091012060a08901516001600160e01b031960e086901b16835260048301939093526024820152604481019190915260640160006040518083038186803b15801561084c57600080fd5b505af4158015610860573d6000803e3d6000fd5b505050508273__$819338afc672a9cefb034a8d5ff76e114d$__635e42ae1690918460405160200161089190613cce565b604051602081830303815290604052805190602001206040516020016108c1929190918252602082015260400190565b60408051601f1981840301815290829052805160209091012060c08901516001600160e01b031960e086901b16835260048301939093526024820152604481019190915260640160006040518083038186803b15801561092057600080fd5b505af4158015610934573d6000803e3d6000fd5b505050508273__$819338afc672a9cefb034a8d5ff76e114d$__635e42ae1690918460405160200161096590613a8b565b60405160208183030381529060405280519060200120604051602001610995929190918252602082015260400190565b604051602081830303815290604052805190602001208760e001516040518463ffffffff1660e01b81526004016109df939291909283526020830191909152604082015260600190565b60006040518083038186803b1580156109f757600080fd5b505af4158015610a0b573d6000803e3d6000fd5b505050508273__$819338afc672a9cefb034a8d5ff76e114d$__635e42ae16909184604051602001610a3c90613cfd565b60405160208183030381529060405280519060200120604051602001610a6c929190918252602082015260400190565b60408051601f198184030181529082905280516020909101206101008901516001600160e01b031960e086901b16835260048301939093526024820152604481019190915260640160006040518083038186803b158015610acc57600080fd5b505af4158015610ae0573d6000803e3d6000fd5b505050508273__$819338afc672a9cefb034a8d5ff76e114d$__635e42ae16909184604051602001610b1190613a54565b60405160208183030381529060405280519060200120604051602001610b41929190918252602082015260400190565b60408051601f198184030181529082905280516020909101206101208901516001600160e01b031960e086901b16835260048301939093526024820152604481019190915260640160006040518083038186803b158015610ba157600080fd5b505af4158015610bb5573d6000803e3d6000fd5b505050508273__$819338afc672a9cefb034a8d5ff76e114d$__635e42ae16909184604051602001610be690613d3e565b60405160208183030381529060405280519060200120604051602001610c16929190918252602082015260400190565b60408051601f198184030181529082905280516020909101206101408901516001600160e01b031960e086901b16835260048301939093526024820152604481019190915260640160006040518083038186803b158015610c7657600080fd5b505af4158015610c8a573d6000803e3d6000fd5b505050508273__$819338afc672a9cefb034a8d5ff76e114d$__635e42ae16909184604051602001610cbb90613d80565b60405160208183030381529060405280519060200120604051602001610ceb929190918252602082015260400190565b60408051601f198184030181529082905280516020909101206101608901516001600160e01b031960e086901b16835260048301939093526024820152604481019190915260640160006040518083038186803b158015610d4b57600080fd5b505af4158015610d5f573d6000803e3d6000fd5b505050508273__$819338afc672a9cefb034a8d5ff76e114d$__635e42ae16909184604051602001610d9090613a1f565b60405160208183030381529060405280519060200120604051602001610dc0929190918252602082015260400190565b60408051601f198184030181529082905280516020909101206101808901516001600160e01b031960e086901b16835260048301939093526024820152604481019190915260640160006040518083038186803b158015610e2057600080fd5b505af4158015610e34573d6000803e3d6000fd5b505050508273__$819338afc672a9cefb034a8d5ff76e114d$__635e42ae16909184604051602001610e6590613dc3565b60405160208183030381529060405280519060200120604051602001610e95929190918252602082015260400190565b60408051601f198184030181529082905280516020909101206101a08901516001600160e01b031960e086901b16835260048301939093526024820152604481019190915260640160006040518083038186803b158015610ef557600080fd5b505af4158015610f09573d6000803e3d6000fd5b505050508273__$819338afc672a9cefb034a8d5ff76e114d$__635e42ae16909184604051602001610f3a90613dfa565b60405160208183030381529060405280519060200120604051602001610f6a929190918252602082015260400190565b60408051601f198184030181529082905280516020909101206101c08901516001600160e01b031960e086901b16835260048301939093526024820152604481019190915260640160006040518083038186803b158015610fca57600080fd5b505af4158015610fde573d6000803e3d6000fd5b505050508273__$819338afc672a9cefb034a8d5ff76e114d$__635e42ae1690918460405160200161100f90613e31565b6040516020818303038152906040528051906020012060405160200161103f929190918252602082015260400190565b60408051601f198184030181529082905280516020909101206101e08901516001600160e01b031960e086901b1683526004830193909352602482015260448101919091526064015b60006040518083038186803b1580156110a057600080fd5b505af41580156110b4573d6000803e3d6000fd5b5050505050505050565b6040516020016101eb90613dfa565b6040516020016101eb90613d80565b6040516020016101eb90613c6e565b6040516020016101eb90613dc3565b6040516020016101eb90613c37565b6040516020016101eb90613c97565b6040516020016101eb90613c09565b6040516020016101eb90613cfd565b6040516020016101eb90613cce565b6040516020016101eb90613ad3565b6111d4604051806102000160405280606081526020016060815260200160008152602001600081526020016000815260200160008152602001600081526020016000815260200160008152602001600081526020016000815260200160008152602001600081526020016000815260200160008152602001600081525090565b600073__$819338afc672a9cefb034a8d5ff76e114d$__6386d5c4be6040518163ffffffff1660e01b8152600401602060405180830381865af415801561121f573d6000803e3d6000fd5b505050506040513d601f19601f820116820180604052508101906112439190613aba565b90506000604051602001611277906020808252600c908201526b54524144455f434f4e46494760a01b604082015260600190565b6040516020818303038152906040528051906020012090508173__$819338afc672a9cefb034a8d5ff76e114d$__63f22e161d9091836040516020016112bc90613ad3565b604051602081830303815290604052805190602001206040516020016112ec929190918252602082015260400190565b604051602081830303815290604052805190602001206040518363ffffffff1660e01b8152600401611328929190918252602082015260400190565b600060405180830381865af4158015611345573d6000803e3d6000fd5b505050506040513d6000823e601f3d908101601f1916820160405261136d9190810190613af9565b8084525167ffffffffffffffff811115611389576113896134f8565b60405190808252806020026020018201604052801561140b57816020015b6113f860405180610120016040528060001515815260200160008152602001600081526020016000815260200160008152602001600081526020016000815260200160008152602001600081525090565b8152602001906001900390816113a75790505b50602084015260005b8351518110156114ec5773__$74cab1088a768f44346aa8a34ab8d56734$__63e981fddd8560000151838151811061144e5761144e613b93565b60200260200101516040518263ffffffff1660e01b815260040161148191906001600160a01b0391909116815260200190565b61012060405180830381865af415801561149f573d6000803e3d6000fd5b505050506040513d601f19601f820116820180604052508101906114c39190613e73565b846020015182815181106114d9576114d9613b93565b6020908102919091010152600101611414565b508173__$819338afc672a9cefb034a8d5ff76e114d$__638b77644790918360405160200161151a90613c09565b6040516020818303038152906040528051906020012060405160200161154a929190918252602082015260400190565b604051602081830303815290604052805190602001206040518363ffffffff1660e01b8152600401611586929190918252602082015260400190565b602060405180830381865af41580156115a3573d6000803e3d6000fd5b505050506040513d601f19601f820116820180604052508101906115c79190613aba565b8360400181815250508173__$819338afc672a9cefb034a8d5ff76e114d$__638b7764479091836040516020016115fd90613c37565b6040516020818303038152906040528051906020012060405160200161162d929190918252602082015260400190565b604051602081830303815290604052805190602001206040518363ffffffff1660e01b8152600401611669929190918252602082015260400190565b602060405180830381865af4158015611686573d6000803e3d6000fd5b505050506040513d601f19601f820116820180604052508101906116aa9190613aba565b606084015260405173__$819338afc672a9cefb034a8d5ff76e114d$__90638b77644790849084906116de90602001613c6e565b6040516020818303038152906040528051906020012060405160200161170e929190918252602082015260400190565b604051602081830303815290604052805190602001206040518363ffffffff1660e01b815260040161174a929190918252602082015260400190565b602060405180830381865af4158015611767573d6000803e3d6000fd5b505050506040513d601f19601f8201168201806040525081019061178b9190613aba565b608084015260405173__$819338afc672a9cefb034a8d5ff76e114d$__90638b77644790849084906117bf90602001613c97565b604051602081830303815290604052805190602001206040516020016117ef929190918252602082015260400190565b604051602081830303815290604052805190602001206040518363ffffffff1660e01b815260040161182b929190918252602082015260400190565b602060405180830381865af4158015611848573d6000803e3d6000fd5b505050506040513d601f19601f8201168201806040525081019061186c9190613aba565b60a084015260405173__$819338afc672a9cefb034a8d5ff76e114d$__90638b77644790849084906118a090602001613cce565b604051602081830303815290604052805190602001206040516020016118d0929190918252602082015260400190565b604051602081830303815290604052805190602001206040518363ffffffff1660e01b815260040161190c929190918252602082015260400190565b602060405180830381865af4158015611929573d6000803e3d6000fd5b505050506040513d601f19601f8201168201806040525081019061194d9190613aba565b60c084015260405173__$819338afc672a9cefb034a8d5ff76e114d$__90638b776447908490849061198190602001613a8b565b604051602081830303815290604052805190602001206040516020016119b1929190918252602082015260400190565b604051602081830303815290604052805190602001206040518363ffffffff1660e01b81526004016119ed929190918252602082015260400190565b602060405180830381865af4158015611a0a573d6000803e3d6000fd5b505050506040513d601f19601f82011682018060405250810190611a2e9190613aba565b60e084015260405173__$819338afc672a9cefb034a8d5ff76e114d$__90638b7764479084908490611a6290602001613cfd565b60405160208183030381529060405280519060200120604051602001611a92929190918252602082015260400190565b604051602081830303815290604052805190602001206040518363ffffffff1660e01b8152600401611ace929190918252602082015260400190565b602060405180830381865af4158015611aeb573d6000803e3d6000fd5b505050506040513d601f19601f82011682018060405250810190611b0f9190613aba565b61010084015260405173__$819338afc672a9cefb034a8d5ff76e114d$__90638b7764479084908490611b4490602001613a54565b60405160208183030381529060405280519060200120604051602001611b74929190918252602082015260400190565b604051602081830303815290604052805190602001206040518363ffffffff1660e01b8152600401611bb0929190918252602082015260400190565b602060405180830381865af4158015611bcd573d6000803e3d6000fd5b505050506040513d601f19601f82011682018060405250810190611bf19190613aba565b61012084015260405173__$819338afc672a9cefb034a8d5ff76e114d$__90638b7764479084908490611c2690602001613d3e565b60405160208183030381529060405280519060200120604051602001611c56929190918252602082015260400190565b604051602081830303815290604052805190602001206040518363ffffffff1660e01b8152600401611c92929190918252602082015260400190565b602060405180830381865af4158015611caf573d6000803e3d6000fd5b505050506040513d601f19601f82011682018060405250810190611cd39190613aba565b61014084015260405173__$819338afc672a9cefb034a8d5ff76e114d$__90638b7764479084908490611d0890602001613d80565b60405160208183030381529060405280519060200120604051602001611d38929190918252602082015260400190565b604051602081830303815290604052805190602001206040518363ffffffff1660e01b8152600401611d74929190918252602082015260400190565b602060405180830381865af4158015611d91573d6000803e3d6000fd5b505050506040513d601f19601f82011682018060405250810190611db59190613aba565b61016084015260405173__$819338afc672a9cefb034a8d5ff76e114d$__90638b7764479084908490611dea90602001613a1f565b60405160208183030381529060405280519060200120604051602001611e1a929190918252602082015260400190565b604051602081830303815290604052805190602001206040518363ffffffff1660e01b8152600401611e56929190918252602082015260400190565b602060405180830381865af4158015611e73573d6000803e3d6000fd5b505050506040513d601f19601f82011682018060405250810190611e979190613aba565b61018084015260405173__$819338afc672a9cefb034a8d5ff76e114d$__90638b7764479084908490611ecc90602001613dc3565b60405160208183030381529060405280519060200120604051602001611efc929190918252602082015260400190565b604051602081830303815290604052805190602001206040518363ffffffff1660e01b8152600401611f38929190918252602082015260400190565b602060405180830381865af4158015611f55573d6000803e3d6000fd5b505050506040513d601f19601f82011682018060405250810190611f799190613aba565b6101a084015260405173__$819338afc672a9cefb034a8d5ff76e114d$__90638b7764479084908490611fae90602001613dfa565b60405160208183030381529060405280519060200120604051602001611fde929190918252602082015260400190565b604051602081830303815290604052805190602001206040518363ffffffff1660e01b815260040161201a929190918252602082015260400190565b602060405180830381865af4158015612037573d6000803e3d6000fd5b505050506040513d601f19601f8201168201806040525081019061205b9190613aba565b6101c084015260405173__$819338afc672a9cefb034a8d5ff76e114d$__90638b776447908490849061209090602001613e31565b604051602081830303815290604052805190602001206040516020016120c0929190918252602082015260400190565b604051602081830303815290604052805190602001206040518363ffffffff1660e01b81526004016120fc929190918252602082015260400190565b602060405180830381865af4158015612119573d6000803e3d6000fd5b505050506040513d601f19601f8201168201806040525081019061213d9190613aba565b6101e08401525090919050565b6040516020016101eb90613d3e565b6040516020016101eb90613e31565b600073__$819338afc672a9cefb034a8d5ff76e114d$__6386d5c4be6040518163ffffffff1660e01b8152600401602060405180830381865af41580156121b3573d6000803e3d6000fd5b505050506040513d601f19601f820116820180604052508101906121d79190613aba565b905060006040516020016122119060208082526012908201527154524144455f544f4b454e5f434f4e46494760701b604082015260600190565b60408051808303601f19018152908290528051602090910120632f6e7e7960e01b825260048201849052602482018190526001600160a01b0385166044830152915073__$819338afc672a9cefb034a8d5ff76e114d$__90632f6e7e7990606401602060405180830381865af415801561228f573d6000803e3d6000fd5b505050506040513d601f19601f820116820180604052508101906122b39190613ef5565b6122bc57505050565b6040516335ce146360e21b815260048101839052602481018290526001600160a01b038416604482015273__$819338afc672a9cefb034a8d5ff76e114d$__9063d738518c9060640160006040518083038186803b15801561231d57600080fd5b505af4158015612331573d6000803e3d6000fd5b505050508173__$819338afc672a9cefb034a8d5ff76e114d$__63d43132659091838660405160200161238d906020808252601590820152741254d7d4d5541413d49517d0d3d313105511549053605a1b604082015260600190565b604051602081830303815290604052805190602001206040516020016123b593929190613f19565b604051602081830303815290604052805190602001206040518363ffffffff1660e01b81526004016123f1929190918252602082015260400190565b60006040518083038186803b15801561240957600080fd5b505af415801561241d573d6000803e3d6000fd5b505050508173__$819338afc672a9cefb034a8d5ff76e114d$__6376e43b4d9091838660405160200161246d90602080825260099082015268282922a1a4a9a4a7a760b91b604082015260600190565b6040516020818303038152906040528051906020012060405160200161249593929190613f19565b604051602081830303815290604052805190602001206040518363ffffffff1660e01b81526004016124d1929190918252602082015260400190565b60006040518083038186803b1580156124e957600080fd5b505af41580156124fd573d6000803e3d6000fd5b505050508173__$819338afc672a9cefb034a8d5ff76e114d$__6376e43b4d9091838660405160200161254c90602080825260089082015267111254d0d3d5539560c21b604082015260600190565b6040516020818303038152906040528051906020012060405160200161257493929190613f19565b604051602081830303815290604052805190602001206040518363ffffffff1660e01b81526004016125b0929190918252602082015260400190565b60006040518083038186803b1580156125c857600080fd5b505af41580156125dc573d6000803e3d6000fd5b505050508173__$819338afc672a9cefb034a8d5ff76e114d$__6376e43b4d90918386604051602001612636906020808252601390820152720434f4c4c41544552414c5f555345525f43415606c1b604082015260600190565b6040516020818303038152906040528051906020012060405160200161265e93929190613f19565b604051602081830303815290604052805190602001206040518363ffffffff1660e01b815260040161269a929190918252602082015260400190565b60006040518083038186803b1580156126b257600080fd5b505af41580156126c6573d6000803e3d6000fd5b505050508173__$819338afc672a9cefb034a8d5ff76e114d$__6376e43b4d90918386604051602001612721906020808252601490820152730434f4c4c41544552414c5f544f54414c5f4341560641b604082015260600190565b6040516020818303038152906040528051906020012060405160200161274993929190613f19565b604051602081830303815290604052805190602001206040518363ffffffff1660e01b8152600401612785929190918252602082015260400190565b60006040518083038186803b15801561279d57600080fd5b505af41580156127b1573d6000803e3d6000fd5b505050508173__$819338afc672a9cefb034a8d5ff76e114d$__6376e43b4d9091838660405160200161280a9060208082526012908201527104c494142494c4954595f555345525f4341560741b604082015260600190565b6040516020818303038152906040528051906020012060405160200161283293929190613f19565b604051602081830303815290604052805190602001206040518363ffffffff1660e01b815260040161286e929190918252602082015260400190565b60006040518083038186803b15801561288657600080fd5b505af415801561289a573d6000803e3d6000fd5b505050508173__$819338afc672a9cefb034a8d5ff76e114d$__6376e43b4d909183866040516020016128f49060208082526013908201527204c494142494c4954595f544f54414c5f43415606c1b604082015260600190565b6040516020818303038152906040528051906020012060405160200161291c93929190613f19565b604051602081830303815290604052805190602001206040518363ffffffff1660e01b8152600401612958929190918252602082015260400190565b60006040518083038186803b15801561297057600080fd5b505af4158015612984573d6000803e3d6000fd5b505050508173__$819338afc672a9cefb034a8d5ff76e114d$__6376e43b4d909183866040516020016129df9060208082526014908201527324a72a22a922a9aa2fa920aa22afa320a1aa27a960611b604082015260600190565b60405160208183030381529060405280519060200120604051602001612a0793929190613f19565b604051602081830303815290604052805190602001206040518363ffffffff1660e01b8152600401612a43929190918252602082015260400190565b60006040518083038186803b158015612a5b57600080fd5b505af4158015612a6f573d6000803e3d6000fd5b505050508173__$819338afc672a9cefb034a8d5ff76e114d$__6376e43b4d90918386604051602001612ac8906020808252601290820152712624a8aaa4a220aa24a7a72fa320a1aa27a960711b604082015260600190565b60405160208183030381529060405280519060200120604051602001612af093929190613f19565b604051602081830303815290604052805190602001206040518363ffffffff1660e01b8152600401612b2c929190918252602082015260400190565b60006040518083038186803b158015612b4457600080fd5b505af4158015612b58573d6000803e3d6000fd5b50505050505050565b600073__$819338afc672a9cefb034a8d5ff76e114d$__6386d5c4be6040518163ffffffff1660e01b8152600401602060405180830381865af4158015612bac573d6000803e3d6000fd5b505050506040513d601f19601f82011682018060405250810190612bd09190613aba565b90506000604051602001612c0a9060208082526012908201527154524144455f544f4b454e5f434f4e46494760701b604082015260600190565b60408051808303601f19018152908290528051602090910120636c75c7ef60e01b825260048201849052602482018190526001600160a01b0386166044830152915073__$819338afc672a9cefb034a8d5ff76e114d$__90636c75c7ef9060640160006040518083038186803b158015612c8357600080fd5b505af4158015612c97573d6000803e3d6000fd5b505050508173__$819338afc672a9cefb034a8d5ff76e114d$__6307a735a890918387604051602001612cf3906020808252601590820152741254d7d4d5541413d49517d0d3d313105511549053605a1b604082015260600190565b60405160208183030381529060405280519060200120604051602001612d1b93929190613f19565b60408051808303601f19018152908290528051602090910120875160e085901b6001600160e01b031916835260048301939093526024820152901515604482015260640160006040518083038186803b158015612d7757600080fd5b505af4158015612d8b573d6000803e3d6000fd5b505050508173__$819338afc672a9cefb034a8d5ff76e114d$__635e42ae1690918387604051602001612ddb90602080825260099082015268282922a1a4a9a4a7a760b91b604082015260600190565b60405160208183030381529060405280519060200120604051602001612e0393929190613f19565b60408051601f19818403018152908290528051602091820120908801516001600160e01b031960e086901b16835260048301939093526024820152604481019190915260640160006040518083038186803b158015612e6157600080fd5b505af4158015612e75573d6000803e3d6000fd5b505050508173__$819338afc672a9cefb034a8d5ff76e114d$__635e42ae1690918387604051602001612ec490602080825260089082015267111254d0d3d5539560c21b604082015260600190565b60405160208183030381529060405280519060200120604051602001612eec93929190613f19565b60408051808303601f1901815282825280516020909101209088015160e085901b6001600160e01b031916835260048301939093526024820152604481019190915260640160006040518083038186803b158015612f4957600080fd5b505af4158015612f5d573d6000803e3d6000fd5b505050508173__$819338afc672a9cefb034a8d5ff76e114d$__635e42ae1690918387604051602001612fb7906020808252601390820152720434f4c4c41544552414c5f555345525f43415606c1b604082015260600190565b60405160208183030381529060405280519060200120604051602001612fdf93929190613f19565b60408051601f1981840301815290829052805160209091012060608801516001600160e01b031960e086901b16835260048301939093526024820152604481019190915260640160006040518083038186803b15801561303e57600080fd5b505af4158015613052573d6000803e3d6000fd5b505050508173__$819338afc672a9cefb034a8d5ff76e114d$__635e42ae16909183876040516020016130ad906020808252601490820152730434f4c4c41544552414c5f544f54414c5f4341560641b604082015260600190565b604051602081830303815290604052805190602001206040516020016130d593929190613f19565b60408051601f1981840301815290829052805160209091012060808801516001600160e01b031960e086901b16835260048301939093526024820152604481019190915260640160006040518083038186803b15801561313457600080fd5b505af4158015613148573d6000803e3d6000fd5b505050508173__$819338afc672a9cefb034a8d5ff76e114d$__635e42ae16909183876040516020016131a19060208082526012908201527104c494142494c4954595f555345525f4341560741b604082015260600190565b604051602081830303815290604052805190602001206040516020016131c993929190613f19565b60408051601f1981840301815290829052805160209091012060a08801516001600160e01b031960e086901b16835260048301939093526024820152604481019190915260640160006040518083038186803b15801561322857600080fd5b505af415801561323c573d6000803e3d6000fd5b505050508173__$819338afc672a9cefb034a8d5ff76e114d$__635e42ae16909183876040516020016132969060208082526013908201527204c494142494c4954595f544f54414c5f43415606c1b604082015260600190565b604051602081830303815290604052805190602001206040516020016132be93929190613f19565b60408051601f1981840301815290829052805160209091012060c08801516001600160e01b031960e086901b16835260048301939093526024820152604481019190915260640160006040518083038186803b15801561331d57600080fd5b505af4158015613331573d6000803e3d6000fd5b505050508173__$819338afc672a9cefb034a8d5ff76e114d$__635e42ae169091838760405160200161338c9060208082526014908201527324a72a22a922a9aa2fa920aa22afa320a1aa27a960611b604082015260600190565b604051602081830303815290604052805190602001206040516020016133b493929190613f19565b604051602081830303815290604052805190602001208660e001516040518463ffffffff1660e01b81526004016133fe939291909283526020830191909152604082015260600190565b60006040518083038186803b15801561341657600080fd5b505af415801561342a573d6000803e3d6000fd5b505050508173__$819338afc672a9cefb034a8d5ff76e114d$__635e42ae1690918387604051602001613483906020808252601290820152712624a8aaa4a220aa24a7a72fa320a1aa27a960711b604082015260600190565b604051602081830303815290604052805190602001206040516020016134ab93929190613f19565b60408051601f198184030181529082905280516020909101206101008801516001600160e01b031960e086901b168352600483019390935260248201526044810191909152606401611088565b634e487b7160e01b600052604160045260246000fd5b604051610120810167ffffffffffffffff81118282101715613532576135326134f8565b60405290565b604051610200810167ffffffffffffffff81118282101715613532576135326134f8565b604051601f8201601f1916810167ffffffffffffffff81118282101715613585576135856134f8565b604052919050565b600067ffffffffffffffff8211156135a7576135a76134f8565b5060051b60200190565b6001600160a01b03811681146135c657600080fd5b50565b600082601f8301126135da57600080fd5b813560206135ef6135ea8361358d565b61355c565b8083825260208201915060208460051b87010193508684111561361157600080fd5b602086015b84811015613636578035613629816135b1565b8352918301918301613616565b509695505050505050565b80151581146135c657600080fd5b803561365a81613641565b919050565b600082601f83011261367057600080fd5b813560206136806135ea8361358d565b82815261012092830285018201928282019190878511156136a057600080fd5b8387015b8581101561372b5781818a0312156136bc5760008081fd5b6136c461350e565b6136cd8261364f565b8152818601358682015260408083013590820152606080830135908201526080808301359082015260a0808301359082015260c0808301359082015260e08083013590820152610100808301359082015284529284019281016136a4565b5090979650505050505050565b60006020828403121561374a57600080fd5b813567ffffffffffffffff8082111561376257600080fd5b90830190610200828603121561377757600080fd5b61377f613538565b82358281111561378e57600080fd5b61379a878286016135c9565b8252506020830135828111156137af57600080fd5b6137bb8782860161365f565b60208301525060408381013590820152606080840135908201526080808401359082015260a0808401359082015260c0808401359082015260e08084013590820152610100808401359082015261012080840135908201526101408084013590820152610160808401359082015261018080840135908201526101a080840135908201526101c080840135908201526101e09283013592810192909252509392505050565b60008151808452602080850194506020840160005b8381101561389a5781516001600160a01b031687529582019590820190600101613875565b509495945050505050565b60008151808452602080850194506020840160005b8381101561389a578151805115158852838101518489015260408082015190890152606080820151908901526080808201519089015260a0808201519089015260c0808201519089015260e08082015190890152610100908101519088015261012090960195908201906001016138ba565b602081526000825161020080602085015261394b610220850183613860565b91506020850151601f1985840301604086015261396883826138a5565b604087015160608781019190915287015160808088019190915287015160a08088019190915287015160c08088019190915287015160e08088019190915287015161010080880191909152870151610120808801919091528701516101408088019190915287015161016080880191909152870151610180808801919091528701516101a0808801919091528701516101c0808801919091528701516101e080880191909152909601519190940152509192915050565b6020808252818101527f424f52524f57494e475f4645455f504f4f4c5f524557415244535f524154494f604082015260600190565b6020808252601e908201527f54524144494e475f4645455f504f4f4c5f524557415244535f524154494f0000604082015260600190565b6020808252601590820152744d41585f46554e44494e475f424153455f5241544560581b604082015260600190565b600060208284031215613acc57600080fd5b5051919050565b6020808252600c908201526b54524144455f544f4b454e5360a01b604082015260600190565b60006020808385031215613b0c57600080fd5b825167ffffffffffffffff811115613b2357600080fd5b8301601f81018513613b3457600080fd5b8051613b426135ea8261358d565b81815260059190911b82018301908381019087831115613b6157600080fd5b928401925b82841015613b88578351613b79816135b1565b82529284019290840190613b66565b979650505050505050565b634e487b7160e01b600052603260045260246000fd5b60006060820185835260208560208501526060604085015281855180845260808601915060208701935060005b81811015613bfb5784516001600160a01b031683529383019391830191600101613bd6565b509098975050505050505050565b60208082526014908201527313525397d3d491115497d3505491d25397d554d160621b604082015260600190565b6020808252601a908201527f415641494c41424c455f434f4c4c41544552414c5f524154494f000000000000604082015260600190565b6020808252600f908201526e10d493d4d4d7d3151597d312535255608a1b604082015260600190565b6020808252601b908201527f4d41585f4d41494e54454e414e43455f4d415247494e5f524154450000000000604082015260600190565b60208082526015908201527446554e44494e475f4645455f424153455f5241544560581b604082015260600190565b60208082526021908201527f54524144494e475f4645455f5354414b494e475f524557415244535f524154496040820152604f60f81b606082015260800190565b60208082526022908201527f54524144494e475f4645455f5553445f504f4f4c5f524557415244535f524154604082015261494f60f01b606082015260800190565b60208082526023908201527f424f52524f57494e475f4645455f5354414b494e475f524557415244535f524160408201526254494f60e81b606082015260800190565b60208082526019908201527f4155544f5f5245445543455f50524f4649545f464143544f5200000000000000604082015260600190565b6020808252601c908201527f4155544f5f5245445543455f4c49515549444954595f464143544f5200000000604082015260600190565b60208082526019908201527f535741505f534c49505045525f544f4b454e5f464143544f5200000000000000604082015260600190565b805161365a81613641565b60006101208284031215613e8657600080fd5b613e8e61350e565b613e9783613e68565b81526020830151602082015260408301516040820152606083015160608201526080830151608082015260a083015160a082015260c083015160c082015260e083015160e08201526101008084015181830152508091505092915050565b600060208284031215613f0757600080fd5b8151613f1281613641565b9392505050565b9283526001600160a01b0391909116602083015260408201526060019056fea2646970667358221220fe1b2f90f0bc68e9f79ac76e1b0e5722782d522a5593ce0ff92e12e70c08352664736f6c63430008190033","linkReferences":{"src/storage/AppStorage.sol":{"AppStorage":[{"start":607,"length":20},{"start":795,"length":20},{"start":1074,"length":20},{"start":1362,"length":20},{"start":1572,"length":20},{"start":1784,"length":20},{"start":1996,"length":20},{"start":2208,"length":20},{"start":2420,"length":20},{"start":2635,"length":20},{"start":2848,"length":20},{"start":3061,"length":20},{"start":3274,"length":20},{"start":3487,"length":20},{"start":3700,"length":20},{"start":3913,"length":20},{"start":4126,"length":20},{"start":4625,"length":20},{"start":4811,"length":20},{"start":5417,"length":20},{"start":5644,"length":20},{"start":5869,"length":20},{"start":6094,"length":20},{"start":6319,"length":20},{"start":6544,"length":20},{"start":6769,"length":20},{"start":6995,"length":20},{"start":7221,"length":20},{"start":7447,"length":20},{"start":7673,"length":20},{"start":7899,"length":20},{"start":8125,"length":20},{"start":8351,"length":20},{"start":8613,"length":20},{"start":8846,"length":20},{"start":8993,"length":20},{"start":9073,"length":20},{"start":9309,"length":20},{"start":9533,"length":20},{"start":9756,"length":20},{"start":9990,"length":20},{"start":10225,"length":20},{"start":10458,"length":20},{"start":10692,"length":20},{"start":10927,"length":20},{"start":11166,"length":20},{"start":11399,"length":20},{"start":11479,"length":20},{"start":11723,"length":20},{"start":11957,"length":20},{"start":12189,"length":20},{"start":12434,"length":20},{"start":12680,"length":20},{"start":12924,"length":20},{"start":13169,"length":20},{"start":13418,"length":20}]},"src/storage/AppTradeTokenConfig.sol":{"AppTradeTokenConfig":[{"start":5209,"length":20}]}}},"methodIdentifiers":{"AUTO_REDUCE_LIQUIDITY_FACTOR()":"3bf57085","AUTO_REDUCE_PROFIT_FACTOR()":"5d05c701","AVAILABLE_COLLATERAL_RATIO()":"8cc4c2e9","BORROWING_FEE_POOL_REWARDS_RATIO()":"0f7ffc8d","BORROWING_FEE_STAKING_REWARDS_RATIO()":"3dd65b19","CROSS_LTV_LIMIT()":"442dc578","FUNDING_FEE_BASE_RATE()":"a8425b7a","MAX_FUNDING_BASE_RATE()":"3071e21d","MAX_MAINTENANCE_MARGIN_RATE()":"964268f4","MIN_ORDER_MARGIN_USD()":"9796bc97","SWAP_SLIPPER_TOKEN_FACTOR()":"de2a4ad1","TRADE_TOKENS()":"aa052c68","TRADING_FEE_POOL_REWARDS_RATIO()":"27fc28ba","TRADING_FEE_STAKING_REWARDS_RATIO()":"a24165fb","TRADING_FEE_USD_POOL_REWARDS_RATIO()":"d68859a3","getTradeConfig()":"b4584988","setTradeConfig(AppTradeConfig.TradeConfig)":"3bb4412b"},"id":133}