{"abi":[{"type":"function","name":"autoRebalance","inputs":[{"name":"oracles","type":"tuple[]","internalType":"struct OracleProcess.OracleParam[]","components":[{"name":"token","type":"address","internalType":"address"},{"name":"targetToken","type":"address","internalType":"address"},{"name":"minPrice","type":"int256","internalType":"int256"},{"name":"maxPrice","type":"int256","internalType":"int256"}]}],"outputs":[],"stateMutability":"nonpayable"},{"type":"event","name":"LossExecutionFeeUpdateEvent","inputs":[{"name":"preAmount","type":"uint256","indexed":false,"internalType":"uint256"},{"name":"amount","type":"uint256","indexed":false,"internalType":"uint256"}],"anonymous":false},{"type":"event","name":"PoolTokenUpdateEvent","inputs":[{"name":"stakeToken","type":"address","indexed":false,"internalType":"address"},{"name":"token","type":"address","indexed":false,"internalType":"address"},{"name":"preAmount","type":"uint256","indexed":false,"internalType":"uint256"},{"name":"preLiability","type":"uint256","indexed":false,"internalType":"uint256"},{"name":"preHoldAmount","type":"uint256","indexed":false,"internalType":"uint256"},{"name":"preUnsettledAmount","type":"int256","indexed":false,"internalType":"int256"},{"name":"preLossAmount","type":"uint256","indexed":false,"internalType":"uint256"},{"name":"amount","type":"uint256","indexed":false,"internalType":"uint256"},{"name":"liability","type":"uint256","indexed":false,"internalType":"uint256"},{"name":"holdAmount","type":"uint256","indexed":false,"internalType":"uint256"},{"name":"unsettledAmount","type":"int256","indexed":false,"internalType":"int256"},{"name":"lossAmount","type":"uint256","indexed":false,"internalType":"uint256"},{"name":"updateBlock","type":"uint256","indexed":false,"internalType":"uint256"}],"anonymous":false},{"type":"event","name":"UsdPoolTokenUpdateEvent","inputs":[{"name":"token","type":"address","indexed":false,"internalType":"address"},{"name":"preAmount","type":"uint256","indexed":false,"internalType":"uint256"},{"name":"preHoldAmount","type":"uint256","indexed":false,"internalType":"uint256"},{"name":"preUnsettledAmount","type":"uint256","indexed":false,"internalType":"uint256"},{"name":"amount","type":"uint256","indexed":false,"internalType":"uint256"},{"name":"holdAmount","type":"uint256","indexed":false,"internalType":"uint256"},{"name":"unsettledAmount","type":"uint256","indexed":false,"internalType":"uint256"},{"name":"updateBlock","type":"uint256","indexed":false,"internalType":"uint256"}],"anonymous":false},{"type":"error","name":"InvalidRoleAccess","inputs":[{"name":"account","type":"address","internalType":"address"},{"name":"role","type":"bytes32","internalType":"bytes32"}]},{"type":"error","name":"PriceIsZero","inputs":[]},{"type":"error","name":"TransferErrorWithVaultBalanceNotEnough","inputs":[{"name":"vault","type":"address","internalType":"address"},{"name":"token","type":"address","internalType":"address"},{"name":"receiver","type":"address","internalType":"address"},{"name":"amount","type":"uint256","internalType":"uint256"}]}],"bytecode":{"object":"0x6080604052348015600f57600080fd5b50613b1e8061001f6000396000f3fe608060405234801561001057600080fd5b506004361061002b5760003560e01c8063d3e4af2814610030575b600080fd5b61004361003e3660046136f4565b610045565b005b6100576525a2a2a822a960d11b6100d5565b60005a90506100b78383808060200260200160405190810160405280939291908181526020016000905b828210156100ad5761009e60808302860136819003810190613794565b81526020019060010190610081565b505050505061010d565b6100bf610288565b6100c7610367565b6100d081610379565b505050565b6100df33826103a5565b61010a57604051632d7d0e0d60e21b8152336004820152602481018290526044015b60405180910390fd5b50565b60006101176103df565b905060005b82518110156100d05760006001600160a01b031683828151811061014257610142613817565b6020026020010151602001516001600160a01b0316036101e1576101dc83828151811061017157610171613817565b602002602001015160000151604051806040016040528086858151811061019a5761019a613817565b60200260200101516040015181526020018685815181106101bd576101bd613817565b602002602001015160600151815250846104419092919063ffffffff16565b610280565b6102808382815181106101f6576101f6613817565b60200260200101516000015184838151811061021457610214613817565b602002602001015160200151604051806040016040528087868151811061023d5761023d613817565b602002602001015160400151815260200187868151811061026057610260613817565b60200260200101516060015181525085610489909392919063ffffffff16565b60010161011c565b6000610292610506565b905060005b81518110156102ea5760006102c48383815181106102b7576102b7613817565b6020026020010151610526565b60028101549091506102e1906001600160a01b031660008561059c565b50600101610297565b5060006102f5610a7f565b905060005b81518110156103305761032882828151811061031857610318613817565b602002602001015160018561059c565b6001016102fa565b5060005b82518110156100d05761035f83828151811061035257610352613817565b6020026020010151610a96565b600101610334565b6103776103726103df565b611291565b565b60005a6103869083613843565b905060006103943a83613856565b905080156100d0576100d081611388565b6000806103b0611400565b6001600160a01b03851660009081526020829052604090209091506103d59084611444565b9150505b92915050565b600080604051602001610423906020808252601c908201527f78797a2e656c66692e73746f726167652e4f7261636c65507269636500000000604082015260600190565b60408051601f19818403018152919052805160209091012092915050565b61044b838361145f565b61045b576104598383611481565b505b6001600160a01b03909116600090815260029092016020908152604090922081518155910151600190910155565b604080516001600160a01b0385811660208084019190915290851682840152825180830384018152606090920190925280519101206104cb6004860182611444565b6104de576104dc6004860182611496565b505b6000908152600690940160209081526040909420815181559301516001909301929092555050565b606060006105126114a2565b9050610520816002016114e6565b91505090565b6000808260405160200161057d919060408082526017908201527f78797a2e656c66692e73746f726167652e4c70506f6f6c00000000000000000060608201526001600160a01b0391909116602082015260800190565b60408051601f1981840301815291905280516020909101209392505050565b8180156105af57506105ad836114f3565b155b806105c75750811580156105c757506105c7836114f3565b156105d157505050565b6106036040518060a0016040528060608152602001600081526020016060815260200160008152602001600081525090565b815167ffffffffffffffff81111561061d5761061d613769565b604051908082528060200260200182016040528015610646578160200160208202803683370190505b50815260005b825181101561076157600061066c8483815181106102b7576102b7613817565b905084156106b7576001600160a01b0386166000908152600e8201602052604090206003015483518051849081106106a6576106a6613817565b6020026020010181815250506106fc565b60028101546001600160a01b038781169116146106d55760006106db565b60078101545b83518051849081106106ef576106ef613817565b6020026020010181815250505b60008360000151838151811061071457610714613817565b6020026020010151136107275750610759565b825180518390811061073b5761073b613817565b602002602001015183602001818151610754919061386d565b905250505b60010161064c565b5060008160200151136107745750505050565b815167ffffffffffffffff81111561078e5761078e613769565b6040519080825280602002602001820160405280156107b7578160200160208202803683370190505b5060408201526107f16107ec856107cc6114a2565b906001600160a01b03166000908152600691909101602052604090205490565b611528565b6060820181905260208201511315610a795760006108128260600151611596565b61081f8360200151611596565b6108299190613843565b9050808260800181815250506000306001600160a01b0316631f7592ea6040518163ffffffff1660e01b8152600401602060405180830381865afa158015610875573d6000803e3d6000fd5b505050506040513d601f19601f820116820180604052508101906108999190613895565b905060005b8451811015610a755783518051829081106108bb576108bb613817565b602002602001015160000315610a6d5760006108e28683815181106102b7576102b7613817565b9050600186516108f29190613843565b820361092a5784608001518560400151838151811061091357610913613817565b6020908102919091010152600060808601526109bb565b610966846109548760000151858151811061094757610947613817565b6020026020010151611596565b6109618860200151611596565b6115e8565b8560400151838151811061097c5761097c613817565b6020026020010181815250508460400151828151811061099e5761099e613817565b6020026020010151856080018181516109b79190613843565b9052505b86156109f8576109f388866040015184815181106109db576109db613817565b6020026020010151836115fd9092919063ffffffff16565b610a28565b610a2885604001518381518110610a1157610a11613817565b60200260200101518261170a90919063ffffffff16565b610a6a8389888581518110610a3f57610a3f613817565b602002602001015188604001518681518110610a5d57610a5d613817565b60200260200101516117ea565b50505b60010161089e565b5050505b50505050565b60606000610a8b611803565b9050610520816114e6565b6000610aa182610526565b90506000610aae82611847565b90506000815167ffffffffffffffff811115610acc57610acc613769565b604051908082528060200260200182016040528015610af5578160200160208202803683370190505b50905060005b8251811015610ba0576000610b32848381518110610b1b57610b1b613817565b60200260200101518661150a90919063ffffffff16565b9050806004015481600001541015610b665780546004820154610b58916107ec91613843565b610b61906138b2565b610b7a565b60048101548154610b7a916107ec91613843565b838381518110610b8c57610b8c613817565b602090810291909101015250600101610afb565b5060005b8151811015610e2d57818181518110610bbf57610bbf613817565b602002602001015160000315610e25576000828281518110610be357610be3613817565b60200260200101511215610e25576000610c1e838381518110610c0857610c08613817565b6020026020010151610c19906138b2565b611596565b905060005b8351811015610e22576000848281518110610c4057610c40613817565b60200260200101511315610e1a576000610c6585838151811061094757610947613817565b90506000610cf182610c8f898681518110610c8257610c82613817565b6020026020010151611855565b610ca48a8981518110610c8257610c82613817565b610cc88b8881518110610cb957610cb9613817565b602002602001015160016118b9565b610cec8c8b81518110610cdd57610cdd613817565b602002602001015160006118b9565b6118de565b905083811115610d5957839050610d5684610d17898881518110610c8257610c82613817565b610d2c8a8781518110610c8257610c82613817565b610d418b8a81518110610cdd57610cdd613817565b610cec8c8981518110610cb957610cb9613817565b91505b610d6281611528565b868681518110610d7457610d74613817565b6020026020010151610d86919061386d565b868681518110610d9857610d98613817565b602002602001018181525050610dad82611528565b868481518110610dbf57610dbf613817565b6020026020010151610dd191906138ce565b868481518110610de357610de3613817565b6020026020010181815250506000868681518110610e0357610e03613817565b602002602001015112610e17575050610e22565b50505b600101610c23565b50505b600101610ba4565b506000610e38611803565b90506000610e4461194a565b905060005b8351811015610a75576000610e80868381518110610e6957610e69613817565b60200260200101518861150a90919063ffffffff16565b9050848281518110610e9457610e94613817565b6020026020010151600003610f5d57610ed8868381518110610eb857610eb8613817565b60200260200101518260040154600187611965909392919063ffffffff16565b610f24868381518110610eed57610eed613817565b60200260200101518260040154836000015411610f0b576000610f1c565b60048301548354610f1c9190613843565b869190611a5a565b610f4d88878481518110610f3a57610f3a613817565b60200260200101518584600001546117ea565b5060008082556004820155611288565b6000858381518110610f7157610f71613817565b6020026020010151131561113b57610f94868381518110610eb857610eb8613817565b611013868381518110610fa957610fa9613817565b60200260200101518260040154610fcb88868151811061094757610947613817565b8454610fd79190613843565b11610fe3576000610f1c565b8260040154610ffd88868151811061094757610947613817565b84546110099190613843565b610f1c9190613843565b61107b8887848151811061102957611029613817565b60200260200101518561104789878151811061094757610947613817565b8554116110555760006117ea565b61106a89878151811061094757610947613817565b85546110769190613843565b6117ea565b5060006110c48988858151811061109457611094613817565b60200260200101516110b189878151811061094757610947613817565b60028c01546001600160a01b0316611b32565b90506110f88784815181106110db576110db613817565b602002602001015182602001518a611bef9092919063ffffffff16565b6060810151611108908990611ced565b806020015161112287858151811061094757610947613817565b61112c9190613843565b82555060006004820155611288565b60028701548651600091611189918b916001600160a01b0316908a908790811061116757611167613817565b60200260200101516111848a8881518110610c0857610c08613817565b611cfd565b90506111a2816020015189611da690919063ffffffff16565b6111d48784815181106111b7576111b7613817565b602002602001015182606001518a611db29092919063ffffffff16565b6112098784815181106111e9576111e9613817565b60200260200101518360040154600188611965909392919063ffffffff16565b6112588988858151811061121f5761121f613817565b60200260200101518661123d8a8881518110610c0857610c08613817565b6060860151875461124e9190613843565b61107691906138ee565b5061126e868481518110610c0857610c08613817565b816060015161127d9190613843565b825550600060048201555b50600101610e49565b600061129c826114e6565b905060005b81518110156100d0578260020160008383815181106112c2576112c2613817565b60200260200101516001600160a01b03166001600160a01b031681526020019081526020016000206000808201600090556001820160009055505082600301600083838151811061131557611315613817565b60200260200101516001600160a01b03166001600160a01b031681526020019081526020016000206000808201600090556001820160009055505061137f82828151811061136557611365613817565b602002602001015184600001611e7c90919063ffffffff16565b506001016112a1565b60006113926114a2565b9050818160070160008282546113a891906138ee565b909155505060078101547f5425704060c90c62f0083d9ff73df530b982ea5c64c0dab3c7d5da4761a45119906113df908490613843565b60078301546040805192835260208301919091520160405180910390a15050565b600080604051602001610423906020808252601e908201527f78797a2e656c66692e73746f726167652e416363657373436f6e74726f6c0000604082015260600190565b600081815260018301602052604081205415155b9392505050565b6001600160a01b03811660009081526001830160205260408120541515611458565b6000611458836001600160a01b038416611e91565b60006114588383611e91565b600080604051602001610423906020808252601b908201527f78797a2e656c66692e73746f726167652e436f6d6d6f6e446174610000000000604082015260600190565b6060600061145883611ee0565b6000806114fe611803565b9050611458818461145f565b6001600160a01b03166000908152600e919091016020526040902090565b60006001600160ff1b038211156115925760405162461bcd60e51b815260206004820152602860248201527f53616665436173743a2076616c756520646f65736e27742066697420696e2061604482015267371034b73a191a9b60c11b6064820152608401610101565b5090565b6000808212156115925760405162461bcd60e51b815260206004820181905260248201527f53616665436173743a2076616c7565206d75737420626520706f7369746976656044820152606401610101565b60006115f5848484611f3c565b949350505050565b61160a600c84018361145f565b61161d5761161b600c840183611481565b505b600061162882611528565b6001600160a01b0384166000908152600e86016020526040902060038101549192509082131561169a5760405162461bcd60e51b815260206004820152601d60248201527f736574746c6520737461626c6520746f6b656e206f766572666c6f77210000006044820152606401610101565b84546000906116b3906001600160a01b03168684612026565b9050828260030160008282546116c991906138ce565b90915550508154849083906000906116e29084906138ee565b90915550506003820154610140820152815460e082015261170281612128565b505050505050565b600061171582611528565b9050808360040160030154121561176e5760405162461bcd60e51b815260206004820152601b60248201527f736574746c65206261736520746f6b656e206f766572666c6f772100000000006044820152606401610101565b82546002840154600091611792916001600160a01b03918216911660048701612026565b9050818460040160030160008282546117ab91906138ce565b90915550506004840180548491906000906117c79084906138ee565b90915550506007840154610140820152600484015460e0820152610a7981612128565b60006117fa858585856000612219565b95945050505050565b6000806040516020016104239060208082526018908201527f78797a2e656c66692e73746f726167652e557364506f6f6c0000000000000000604082015260600190565b60606103d982600c016114e6565b6000816001600160a01b031663313ce5676040518163ffffffff1660e01b8152600401602060405180830381865afa158015611895573d6000803e3d6000fd5b505050506040513d601f19601f820116820180604052508101906103d99190613901565b6000806118c584612363565b9050826118d65780602001516103d5565b519392505050565b60008460ff168460ff16106119265761191f826119196118fe8888613924565b61190990600a613a21565b6119138a886123f6565b906123f6565b90612402565b90506117fa565b61191f6119338587613924565b61193e90600a613a21565b61191984818a886123f6565b6000806119556114a2565b546001600160a01b031692915050565b61196f848461145f565b61197f5761197d8484611481565b505b6001600160a01b038316600090815260028086016020526040909120908101548311156119f95760405162461bcd60e51b815260206004820152602260248201527f7855736420736574746c6520737461626c6520746f6b656e206f766572666c6f604482015261772160f01b6064820152608401610101565b6000611a05858361240e565b905083826002016000828254611a1b9190613843565b9091555050600282015460c08201528215611a515783826000016000828254611a4491906138ee565b9091555050815460808201525b611702816124b1565b611a64838361145f565b611ab05760405162461bcd60e51b815260206004820152601b60248201527f737461626c6520746f6b656e206e6f7420737570706f727465642100000000006044820152606401610101565b6001600160a01b03821660009081526002840160205260408120611ad590849061240e565b6001600160a01b0384166000908152600286016020526040812080549293508492909190611b049084906138ee565b90915550506001600160a01b03831660009081526002850160205260409020546080820152610a79816124b1565b611b3a613639565b6000611b6884611b4987611855565b611b5286611855565b611b5d8960016118b9565b610cec8860006118b9565b9050611b8081611b76612539565b6101e00151612bc9565b611b8a9082613843565b9050611be56040518060c00160405280886001600160a01b03168152602001876001600160a01b03168152602001868152602001838152602001856001600160a01b03168152602001886001600160a01b0316815250612bd9565b9695505050505050565b82546001600160a01b038381166000908152600e8601602052604081209092611c1b9216908590612026565b6001600160a01b0384166000908152600e86016020526040812080549293508492909190611c4a908490613843565b90915550506001600160a01b0383166000818152600e86016020818152604083205460e086018190529383525203611ce457611c89600c850184611e7c565b506001600160a01b0383166000908152600e85016020526040812081815560018101829055600281018290556003810182905560048101829055906005820181818181818181611cd98282613673565b505050505050505050505b610a7981612128565b611cf982826001612d5a565b5050565b611d05613639565b6000611d3383611d1486611855565b611d1d88611855565b611d288860016118b9565b610cec8a60006118b9565b9050611d4181611b76612539565b611d4b90826138ee565b9050611be56040518060c00160405280886001600160a01b03168152602001876001600160a01b03168152602001838152602001858152602001866001600160a01b03168152602001886001600160a01b0316815250612bd9565b611cf982826001612dd6565b82546001600160a01b038381166000908152600e8601602052604081209092611dde9216908590612026565b9050611ded600c85018461145f565b15611e27576001600160a01b0383166000908152600e8501602052604081208054849290611e1c9084906138ee565b90915550611e539050565b611e34600c850184611481565b506001600160a01b0383166000908152600e8501602052604090208290555b6001600160a01b0383166000908152600e8501602052604090205460e0820152610a7981612128565b6000611458836001600160a01b038416612e94565b6000818152600183016020526040812054611ed8575081546001818101845560008481526020808220909301849055845484825282860190935260409020919091556103d9565b5060006103d9565b606081600001805480602002602001604051908101604052809291908181526020018280548015611f3057602002820191906000526020600020905b815481526020019060010190808311611f1c575b50505050509050919050565b6000808060001985870985870292508281108382030391505080600003611f7657838281611f6c57611f6c613a30565b0492505050611458565b808411611fbd5760405162461bcd60e51b81526020600482015260156024820152744d6174683a206d756c446976206f766572666c6f7760581b6044820152606401610101565b60008486880960026001871981018816978890046003810283188082028403028082028403028082028403028082028403028082028403029081029092039091026000889003889004909101858311909403939093029303949094049190911702949350505050565b6120a3604051806101a0016040528060006001600160a01b0316815260200160006001600160a01b0316815260200160008152602001600081526020016000815260200160008152602001600081526020016000815260200160008152602001600081526020016000815260200160008152602001600081525090565b6001600160a01b03808516825283166020820152815460408201819052600183015460608301819052600284015460808401819052600385015460a08501819052600486015460c0860181905260e086019490945261010085019290925261012084015261014083015261016082015261211b612f8e565b6101808201529392505050565b7f3c20d1ba6bcc5e5bd62d967908bf1ce684e6b52dbaab9f84ebfbf1b184b46bf8816000015182602001518360400151846060015185608001518660a001518760c001518860e001518961010001518a61012001518b61014001518c61016001518d610180015160405161220e9d9c9b9a999897969594939291906001600160a01b039d8e1681529b909c1660208c015260408b019990995260608a0197909752608089019590955260a088019390935260c087019190915260e08601526101008501526101208401526101408301526101608201526101808101919091526101a00190565b60405180910390a150565b60008260000361222b575060006117fa565b6040516370a0823160e01b81526001600160a01b038781166004830152600091908716906370a0823190602401602060405180830381865afa158015612275573d6000803e3d6000fd5b505050506040513d601f19601f820116820180604052508101906122999190613a46565b90508381106123165760405163078d3b7960e01b81526001600160a01b03878116600483015286811660248301526044820186905288169063078d3b7990606401600060405180830381600087803b1580156122f457600080fd5b505af1158015612308573d6000803e3d6000fd5b5050505060019150506117fa565b8261235657604051635ac09ed760e11b81526001600160a01b03808916600483015280881660248301528616604482015260648101859052608401610101565b5060009695505050505050565b604080518082019091526000808252602082015260006123816103df565b604080518082018252600080825260209182018190526001600160a01b038716815260028401825282902082518084019093528054808452600190910154918301919091529192509015806123d857506020810151155b156114585760405163907adecd60e01b815260040160405180910390fd5b60006114588284613856565b60006114588284613a5f565b61245f60405180610100016040528060006001600160a01b03168152602001600081526020016000815260200160008152602001600081526020016000815260200160008152602001600081525090565b6001600160a01b0383168152815460208201819052600183015460408301819052600284015460608401819052608084019290925260a083015260c08201526124a6612f8e565b60e082015292915050565b805160208083015160408085015160608087015160808089015160a0808b015160c0808d015160e0808f01518b516001600160a01b03909f168f529c8e019b909b52988c0197909752948a0193909352908801528601528401528201527f217ba1d63771ad2228865ab2d862a89115d536eabbe8315c584eafe090d7f422906101000161220e565b6125b9604051806102000160405280606081526020016060815260200160008152602001600081526020016000815260200160008152602001600081526020016000815260200160008152602001600081526020016000815260200160008152602001600081526020016000815260200160008152602001600081525090565b6000806040516020016125ec906020808252600c908201526b54524144455f434f4e46494760a01b604082015260600190565b60405160208183030381529060405280519060200120905061268d81604051602001612638906020808252600c908201526b54524144455f544f4b454e5360a01b604082015260600190565b60405160208183030381529060405280519060200120604051602001612668929190918252602082015260400190565b604051602081830303815290604052805190602001208361301490919063ffffffff16565b8084525167ffffffffffffffff8111156126a9576126a9613769565b6040519080825280602002602001820160405280156126e257816020015b6126cf613691565b8152602001906001900390816126c75790505b50602084015260005b8351518110156127445761271b8460000151828151811061270e5761270e613817565b6020026020010151613083565b8460200151828151811061273157612731613817565b60209081029190910101526001016126eb565b506127d6816040516020016127819060208082526014908201527313525397d3d491115497d3505491d25397d554d160621b604082015260600190565b604051602081830303815290604052805190602001206040516020016127b1929190918252602082015260400190565b604051602081830303815290604052805190602001208361340090919063ffffffff16565b83604001818152505061282481604051602001612781906020808252601a908201527f415641494c41424c455f434f4c4c41544552414c5f524154494f000000000000604082015260600190565b6060840152604051612862908290612781906020016020808252600f908201526e10d493d4d4d7d3151597d312535255608a1b604082015260600190565b60808401526040516128ae908290612781906020016020808252601b908201527f4d41585f4d41494e54454e414e43455f4d415247494e5f524154450000000000604082015260600190565b60a08401526040516128f29082906127819060200160208082526015908201527446554e44494e475f4645455f424153455f5241544560581b604082015260600190565b60c0840152604051612936908290612781906020016020808252601590820152744d41585f46554e44494e475f424153455f5241544560581b604082015260600190565b60e084015260405161298c9082906127819060200160208082526021908201527f54524144494e475f4645455f5354414b494e475f524557415244535f524154496040820152604f60f81b606082015260800190565b6101008401526040516129d9908290612781906020016020808252601e908201527f54524144494e475f4645455f504f4f4c5f524557415244535f524154494f0000604082015260600190565b610120840152604051612a319082906127819060200160208082526022908201527f54524144494e475f4645455f5553445f504f4f4c5f524557415244535f524154604082015261494f60f01b606082015260800190565b610140840152604051612a8a9082906127819060200160208082526023908201527f424f52524f57494e475f4645455f5354414b494e475f524557415244535f524160408201526254494f60e81b606082015260800190565b610160840152604051612ad5908290612781906020016020808252818101527f424f52524f57494e475f4645455f504f4f4c5f524557415244535f524154494f604082015260600190565b610180840152604051612b229082906127819060200160208082526019908201527f4155544f5f5245445543455f50524f4649545f464143544f5200000000000000604082015260600190565b6101a0840152604051612b6f908290612781906020016020808252601c908201527f4155544f5f5245445543455f4c49515549444954595f464143544f5200000000604082015260600190565b6101c0840152604051612bbc9082906127819060200160208082526019908201527f535741505f534c49505045525f544f4b454e5f464143544f5200000000000000604082015260600190565b6101e08401525090919050565b60006114588383620186a0611f3c565b612be1613639565b60208201516001600160a01b03908116825260808301511660408201526000612c08613413565b9050612c24836000015184602001513086604001516000612219565b50612c3883602001518285604001516134e7565b60408051610100810182526020808601516001600160a01b0390811683526080808801518216928401928352610bb884860190815260a0808a015184166060808801918252429488019485528b8901519288019283528b015160c08801908152600060e08901818152995163414bf38960e01b8152895188166004820152975187166024890152935162ffffff166044880152905185166064870152925160848601525160a4850152905160c48401529351811660e483015291929184169063414bf38990610104016020604051808303816000875af1158015612d20573d6000803e3d6000fd5b505050506040513d601f19601f82011682018060405250810190612d449190613a46565b6060850152505050604090910151602082015290565b8015612db55782546002840154600091612d84916001600160a01b03918216911660048701612026565b905082846004016000016000828254612d9d91906138ee565b9091555050600484015460e0820152610a7981612128565b81836004016000016000828254612dcc91906138ee565b9091555050505050565b6004830154821115612e3a5760405162461bcd60e51b815260206004820152602760248201527f6261736520746f6b656e20616d6f756e74206c657373207468616e2073756220604482015266616d6f756e742160c81b6064820152608401610101565b8015612e7d5782546002840154600091612e64916001600160a01b03918216911660048701612026565b905082846004016000016000828254612d9d9190613843565b81836004016000016000828254612dcc9190613843565b60008181526001830160205260408120548015612f7d576000612eb8600183613843565b8554909150600090612ecc90600190613843565b9050818114612f31576000866000018281548110612eec57612eec613817565b9060005260206000200154905080876000018481548110612f0f57612f0f613817565b6000918252602080832090910192909255918252600188019052604090208390555b8554869080612f4257612f42613a81565b6001900381819060005260206000200160009055905585600101600086815260200190815260200160002060009055600193505050506103d9565b60009150506103d9565b5092915050565b600061a4b1461480612fa2575062066eee46145b1561300f5760646001600160a01b031663a3b1b31d6040518163ffffffff1660e01b8152600401602060405180830381865afa158015612fe6573d6000803e3d6000fd5b505050506040513d601f19601f8201168201806040525081019061300a9190613a46565b905090565b504390565b600081815260088301602090815260409182902080548351818402810184019094528084526060939283018282801561307657602002820191906000526020600020905b81546001600160a01b03168152600190910190602001808311613058575b5050505050905092915050565b61308b613691565b613093613691565b6000806040516020016130cc9060208082526012908201527154524144455f544f4b454e5f434f4e46494760701b604082015260600190565b60408051601f19818403018152919052805160209091012090506130f18282876135e7565b6130fe5750909392505050565b6131a3818660405160200161313c906020808252601590820152741254d7d4d5541413d49517d0d3d313105511549053605a1b604082015260600190565b6040516020818303038152906040528051906020012060405160200161317e939291909283526001600160a01b03919091166020830152604082015260600190565b604051602081830303815290604052805190602001208361360190919063ffffffff16565b1515835260405161321e90829087906131dc90602001602080825260099082015268282922a1a4a9a4a7a760b91b604082015260600190565b604051602081830303815290604052805190602001206040516020016127b1939291909283526001600160a01b03919091166020830152604082015260600190565b83602001818152505061325881866040516020016131dc90602080825260089082015267111254d0d3d5539560c21b604082015260600190565b83604001818152505061329d81866040516020016131dc906020808252601390820152720434f4c4c41544552414c5f555345525f43415606c1b604082015260600190565b60608401526040516132e290829087906131dc906020016020808252601490820152730434f4c4c41544552414c5f544f54414c5f4341560641b604082015260600190565b608084015260405161332590829087906131dc9060200160208082526012908201527104c494142494c4954595f555345525f4341560741b604082015260600190565b60a084015260405161336990829087906131dc9060200160208082526013908201527204c494142494c4954595f544f54414c5f43415606c1b604082015260600190565b60c08401526040516133ae90829087906131dc9060200160208082526014908201527324a72a22a922a9aa2fa920aa22afa320a1aa27a960611b604082015260600190565b60e08401526040516133f190829087906131dc906020016020808252601290820152712624a8aaa4a220aa24a7a72fa320a1aa27a960711b604082015260600190565b61010084015250909392505050565b6000908152602091909152604090205490565b60008061052060405160200161344a906020808252600d908201526c434f4d4d4f4e5f434f4e46494760981b604082015260600190565b60405160208183030381529060405280519060200120604051602001613492906020808252600e908201526d2aa724a9aba0a82fa927aaaa22a960911b604082015260600190565b604051602081830303815290604052805190602001206040516020016134c2929190918252602082015260400190565b604051602081830303815290604052805190602001208261361a90919063ffffffff16565b604080516001600160a01b038481166024830152604480830185905283518084039091018152606490920183526020820180516001600160e01b031663095ea7b360e01b17905291516000928392908716916135439190613a97565b6000604051808303816000865af19150503d8060008114613580576040519150601f19603f3d011682016040523d82523d6000602084013e613585565b606091505b50915091508180156135af5750805115806135af5750808060200190518101906135af9190613ac6565b6135e05760405162461bcd60e51b8152602060048201526002602482015261534160f01b6044820152606401610101565b5050505050565b6000828152600c8401602052604081206115f5908361145f565b6000908152600391909101602052604090205460ff1690565b600090815260029190910160205260409020546001600160a01b031690565b604051806080016040528060006001600160a01b031681526020016000815260200160006001600160a01b03168152602001600081525090565b508054600082559060005260206000209081019061010a91906136df565b60405180610120016040528060001515815260200160008152602001600081526020016000815260200160008152602001600081526020016000815260200160008152602001600081525090565b5b8082111561159257600081556001016136e0565b6000806020838503121561370757600080fd5b823567ffffffffffffffff8082111561371f57600080fd5b818501915085601f83011261373357600080fd5b81358181111561374257600080fd5b8660208260071b850101111561375757600080fd5b60209290920196919550909350505050565b634e487b7160e01b600052604160045260246000fd5b6001600160a01b038116811461010a57600080fd5b6000608082840312156137a657600080fd5b6040516080810181811067ffffffffffffffff821117156137d757634e487b7160e01b600052604160045260246000fd5b60405282356137e58161377f565b815260208301356137f58161377f565b6020820152604083810135908201526060928301359281019290925250919050565b634e487b7160e01b600052603260045260246000fd5b634e487b7160e01b600052601160045260246000fd5b818103818111156103d9576103d961382d565b80820281158282048414176103d9576103d961382d565b808201828112600083128015821682158216171561388d5761388d61382d565b505092915050565b6000602082840312156138a757600080fd5b81516114588161377f565b6000600160ff1b82016138c7576138c761382d565b5060000390565b8181036000831280158383131683831282161715612f8757612f8761382d565b808201808211156103d9576103d961382d565b60006020828403121561391357600080fd5b815160ff8116811461145857600080fd5b60ff82811682821603908111156103d9576103d961382d565b600181815b8085111561397857816000190482111561395e5761395e61382d565b8085161561396b57918102915b93841c9390800290613942565b509250929050565b60008261398f575060016103d9565b8161399c575060006103d9565b81600181146139b257600281146139bc576139d8565b60019150506103d9565b60ff8411156139cd576139cd61382d565b50506001821b6103d9565b5060208310610133831016604e8410600b84101617156139fb575081810a6103d9565b613a05838361393d565b8060001904821115613a1957613a1961382d565b029392505050565b600061145860ff841683613980565b634e487b7160e01b600052601260045260246000fd5b600060208284031215613a5857600080fd5b5051919050565b600082613a7c57634e487b7160e01b600052601260045260246000fd5b500490565b634e487b7160e01b600052603160045260246000fd5b6000825160005b81811015613ab85760208186018101518583015201613a9e565b506000920191825250919050565b600060208284031215613ad857600080fd5b8151801515811461145857600080fdfea2646970667358221220896420d37fe2a0cf44e1c527b267dfa636dfda52a5227407234f71e1c7effa2664736f6c63430008190033","linkReferences":{}},"methodIdentifiers":{"autoRebalance((address,address,int256,int256)[])":"d3e4af28"},"id":68}