{"abi":[{"type":"constructor","inputs":[],"stateMutability":"payable"},{"type":"function","name":"counter_increment","inputs":[],"outputs":[],"stateMutability":"nonpayable"},{"type":"function","name":"counter_setNumber1","inputs":[{"name":"newNumber","type":"uint256","internalType":"uint256"}],"outputs":[],"stateMutability":"nonpayable"},{"type":"function","name":"counter_setNumber2","inputs":[{"name":"newNumber","type":"uint256","internalType":"uint256"}],"outputs":[],"stateMutability":"nonpayable"},{"type":"function","name":"invariant_number_never_zero","inputs":[],"outputs":[{"name":"","type":"bool","internalType":"bool"}],"stateMutability":"nonpayable"},{"type":"event","name":"Log","inputs":[{"name":"","type":"string","indexed":false,"internalType":"string"}],"anonymous":false}],"bytecode":{"object":"0x6080604052600a600e565b6063565b6040516018906056565b604051809103906000f0801580156033573d6000803e3d6000fd5b50600080546001600160a01b0319166001600160a01b0392909216919091179055565b61012c806105e583390190565b610573806100726000396000f3fe608060405234801561001057600080fd5b506004361061004c5760003560e01c806325ee74aa1461005157806329140ad7146100665780633268c27d14610082578063a1e3ca4114610095575b600080fd5b61006461005f3660046104a6565b61009d565b005b61006e6101e0565b604051901515815260200160405180910390f35b6100646100903660046104a6565b61025f565b61006461030f565b600054604051633fb5c1cb60e01b8152600481018390526001600160a01b0390911690633fb5c1cb90602401600060405180830381600087803b1580156100e357600080fd5b505af19250505080156100f4575060015b61012f5761012c6000604051806040016040528060118152602001707365744e756d626572207265766572747360781b81525061036a565b50565b801561012c5761012c8160008054906101000a90046001600160a01b03166001600160a01b0316638381f58a6040518163ffffffff1660e01b8152600401602060405180830381865afa15801561018a573d6000803e3d6000fd5b505050506040513d601f19601f820116820180604052508101906101ae91906104bf565b1460405180604001604052806013815260200172373ab6b132b910109e903732bba73ab6b132b960691b81525061036a565b60008060009054906101000a90046001600160a01b03166001600160a01b0316638381f58a6040518163ffffffff1660e01b8152600401602060405180830381865afa158015610234573d6000803e3d6000fd5b505050506040513d601f19601f8201168201806040525081019061025891906104bf565b1515919050565b6102676103b2565b600054604051633fb5c1cb60e01b8152600481018390526001600160a01b0390911690633fb5c1cb90602401600060405180830381600087803b1580156102ad57600080fd5b505af11580156102c1573d6000803e3d6000fd5b505050506102cd61042c565b801561012c5761012c816002600001541460405180604001604052806013815260200172373ab6b132b910109e903732bba73ab6b132b960691b81525061036a565b600080546040805163684ef04560e11b815290516001600160a01b039092169263d09de08a9260048084019382900301818387803b15801561035057600080fd5b505af1158015610364573d6000803e3d6000fd5b50505050565b816103ae577fcf34ef537ac33ee1ac626ca1587a0a7e8e51561e5514f8cb36afa1c5102b3bab8160405161039e91906104d8565b60405180910390a16103ae610527565b5050565b60008054906101000a90046001600160a01b03166001600160a01b0316638381f58a6040518163ffffffff1660e01b8152600401602060405180830381865afa158015610403573d6000803e3d6000fd5b505050506040513d601f19601f8201168201806040525081019061042791906104bf565b600155565b60008054906101000a90046001600160a01b03166001600160a01b0316638381f58a6040518163ffffffff1660e01b8152600401602060405180830381865afa15801561047d573d6000803e3d6000fd5b505050506040513d601f19601f820116820180604052508101906104a191906104bf565b600255565b6000602082840312156104b857600080fd5b5035919050565b6000602082840312156104d157600080fd5b5051919050565b60006020808352835180602085015260005b81811015610506578581018301518582016040015282016104ea565b506000604082860101526040601f19601f8301168501019250505092915050565b634e487b7160e01b600052600160045260246000fdfea2646970667358221220eebd99d1d1a741ec390c7853388e4a91c9e65e91f7b28ff966c39f338132451864736f6c6343000819003360806040526001600055348015601457600080fd5b50610108806100246000396000f3fe6080604052348015600f57600080fd5b5060043610603c5760003560e01c80633fb5c1cb1460415780638381f58a146052578063d09de08a14606c575b600080fd5b6050604c3660046094565b6072565b005b605a60005481565b60405190815260200160405180910390f35b60506080565b8015607d5760008190555b50565b600080549080608d8360ac565b9190505550565b60006020828403121560a557600080fd5b5035919050565b60006001820160cb57634e487b7160e01b600052601160045260246000fd5b506001019056fea264697066735822122052a210577a362d09106d5b126e5fcee907969127112317e2a55d9f52d0bc727564736f6c63430008190033","linkReferences":{}},"methodIdentifiers":{"counter_increment()":"a1e3ca41","counter_setNumber1(uint256)":"25ee74aa","counter_setNumber2(uint256)":"3268c27d","invariant_number_never_zero()":"29140ad7"},"id":35}