{"abi":[{"type":"constructor","inputs":[],"stateMutability":"payable"},{"type":"function","name":"accountFacet_batchUpdateAccountToken","inputs":[{"name":"params","type":"tuple","internalType":"struct AssetsProcess.UpdateAccountTokenParams","components":[{"name":"account","type":"address","internalType":"address"},{"name":"tokens","type":"address[]","internalType":"address[]"},{"name":"changedTokenAmounts","type":"int256[]","internalType":"int256[]"}]}],"outputs":[],"stateMutability":"nonpayable"},{"type":"function","name":"accountFacet_cancelWithdraw","inputs":[{"name":"requestId","type":"uint256","internalType":"uint256"},{"name":"reasonCode","type":"bytes32","internalType":"bytes32"}],"outputs":[],"stateMutability":"nonpayable"},{"type":"function","name":"accountFacet_createWithdrawRequest","inputs":[{"name":"token","type":"address","internalType":"address"},{"name":"amount","type":"uint256","internalType":"uint256"}],"outputs":[],"stateMutability":"nonpayable"},{"type":"function","name":"accountFacet_deposit","inputs":[{"name":"token","type":"address","internalType":"address"},{"name":"amount","type":"uint256","internalType":"uint256"}],"outputs":[],"stateMutability":"nonpayable"},{"type":"function","name":"btcFeed","inputs":[],"outputs":[{"name":"","type":"address","internalType":"contract MockAggregatorV3"}],"stateMutability":"view"},{"type":"function","name":"btcFeedDecimals","inputs":[],"outputs":[{"name":"","type":"uint8","internalType":"uint8"}],"stateMutability":"view"},{"type":"function","name":"orderFacet_batchCreateOrderRequest","inputs":[{"name":"params","type":"tuple","internalType":"struct IOrder.PlaceOrderParams","components":[{"name":"symbol","type":"bytes32","internalType":"bytes32"},{"name":"isCrossMargin","type":"bool","internalType":"bool"},{"name":"isNativeToken","type":"bool","internalType":"bool"},{"name":"orderSide","type":"uint8","internalType":"enum Order.Side"},{"name":"posSide","type":"uint8","internalType":"enum Order.PositionSide"},{"name":"orderType","type":"uint8","internalType":"enum Order.Type"},{"name":"stopType","type":"uint8","internalType":"enum Order.StopType"},{"name":"marginToken","type":"address","internalType":"address"},{"name":"qty","type":"uint256","internalType":"uint256"},{"name":"orderMargin","type":"uint256","internalType":"uint256"},{"name":"leverage","type":"uint256","internalType":"uint256"},{"name":"triggerPrice","type":"uint256","internalType":"uint256"},{"name":"acceptablePrice","type":"uint256","internalType":"uint256"},{"name":"executionFee","type":"uint256","internalType":"uint256"},{"name":"placeTime","type":"uint256","internalType":"uint256"}]}],"outputs":[],"stateMutability":"nonpayable"},{"type":"function","name":"orderFacet_cancelOrder","inputs":[{"name":"orderId","type":"uint256","internalType":"uint256"},{"name":"reasonCode","type":"bytes32","internalType":"bytes32"}],"outputs":[],"stateMutability":"nonpayable"},{"type":"function","name":"orderFacet_createOrderRequest","inputs":[{"name":"params","type":"tuple","internalType":"struct IOrder.PlaceOrderParams","components":[{"name":"symbol","type":"bytes32","internalType":"bytes32"},{"name":"isCrossMargin","type":"bool","internalType":"bool"},{"name":"isNativeToken","type":"bool","internalType":"bool"},{"name":"orderSide","type":"uint8","internalType":"enum Order.Side"},{"name":"posSide","type":"uint8","internalType":"enum Order.PositionSide"},{"name":"orderType","type":"uint8","internalType":"enum Order.Type"},{"name":"stopType","type":"uint8","internalType":"enum Order.StopType"},{"name":"marginToken","type":"address","internalType":"address"},{"name":"qty","type":"uint256","internalType":"uint256"},{"name":"orderMargin","type":"uint256","internalType":"uint256"},{"name":"leverage","type":"uint256","internalType":"uint256"},{"name":"triggerPrice","type":"uint256","internalType":"uint256"},{"name":"acceptablePrice","type":"uint256","internalType":"uint256"},{"name":"executionFee","type":"uint256","internalType":"uint256"},{"name":"placeTime","type":"uint256","internalType":"uint256"}]}],"outputs":[],"stateMutability":"nonpayable"},{"type":"function","name":"positionFacet_autoReducePositions","inputs":[{"name":"positionKeys","type":"bytes32[]","internalType":"bytes32[]"}],"outputs":[],"stateMutability":"nonpayable"},{"type":"function","name":"positionFacet_cancelUpdateLeverageRequest","inputs":[{"name":"requestId","type":"uint256","internalType":"uint256"},{"name":"reasonCode","type":"bytes32","internalType":"bytes32"}],"outputs":[],"stateMutability":"nonpayable"},{"type":"function","name":"positionFacet_cancelUpdatePositionMarginRequest","inputs":[{"name":"requestId","type":"uint256","internalType":"uint256"},{"name":"reasonCode","type":"bytes32","internalType":"bytes32"}],"outputs":[],"stateMutability":"nonpayable"},{"type":"function","name":"positionFacet_createUpdateLeverageRequest","inputs":[{"name":"params","type":"tuple","internalType":"struct IPosition.UpdateLeverageParams","components":[{"name":"symbol","type":"bytes32","internalType":"bytes32"},{"name":"isLong","type":"bool","internalType":"bool"},{"name":"isNativeToken","type":"bool","internalType":"bool"},{"name":"isCrossMargin","type":"bool","internalType":"bool"},{"name":"leverage","type":"uint256","internalType":"uint256"},{"name":"marginToken","type":"address","internalType":"address"},{"name":"addMarginAmount","type":"uint256","internalType":"uint256"},{"name":"executionFee","type":"uint256","internalType":"uint256"}]}],"outputs":[],"stateMutability":"nonpayable"},{"type":"function","name":"positionFacet_createUpdatePositionMarginRequest","inputs":[{"name":"params","type":"tuple","internalType":"struct IPosition.UpdatePositionMarginParams","components":[{"name":"positionKey","type":"bytes32","internalType":"bytes32"},{"name":"isAdd","type":"bool","internalType":"bool"},{"name":"isNativeToken","type":"bool","internalType":"bool"},{"name":"marginToken","type":"address","internalType":"address"},{"name":"updateMarginAmount","type":"uint256","internalType":"uint256"},{"name":"executionFee","type":"uint256","internalType":"uint256"}]}],"outputs":[],"stateMutability":"nonpayable"},{"type":"function","name":"stakeFacet_cancelMintStakeToken","inputs":[{"name":"requestId","type":"uint256","internalType":"uint256"},{"name":"reasonCode","type":"bytes32","internalType":"bytes32"}],"outputs":[],"stateMutability":"nonpayable"},{"type":"function","name":"stakeFacet_cancelRedeemStakeToken","inputs":[{"name":"requestId","type":"uint256","internalType":"uint256"},{"name":"reasonCode","type":"bytes32","internalType":"bytes32"}],"outputs":[],"stateMutability":"nonpayable"},{"type":"function","name":"stakeFacet_createMintStakeTokenRequest","inputs":[{"name":"params","type":"tuple","internalType":"struct IStake.MintStakeTokenParams","components":[{"name":"stakeToken","type":"address","internalType":"address"},{"name":"requestToken","type":"address","internalType":"address"},{"name":"requestTokenAmount","type":"uint256","internalType":"uint256"},{"name":"walletRequestTokenAmount","type":"uint256","internalType":"uint256"},{"name":"minStakeAmount","type":"uint256","internalType":"uint256"},{"name":"executionFee","type":"uint256","internalType":"uint256"},{"name":"isCollateral","type":"bool","internalType":"bool"},{"name":"isNativeToken","type":"bool","internalType":"bool"}]}],"outputs":[],"stateMutability":"nonpayable"},{"type":"function","name":"stakeFacet_createRedeemStakeTokenRequest","inputs":[{"name":"params","type":"tuple","internalType":"struct IStake.RedeemStakeTokenParams","components":[{"name":"receiver","type":"address","internalType":"address"},{"name":"stakeToken","type":"address","internalType":"address"},{"name":"redeemToken","type":"address","internalType":"address"},{"name":"unStakeAmount","type":"uint256","internalType":"uint256"},{"name":"minRedeemAmount","type":"uint256","internalType":"uint256"},{"name":"executionFee","type":"uint256","internalType":"uint256"}]}],"outputs":[],"stateMutability":"nonpayable"},{"type":"function","name":"usdcFeed","inputs":[],"outputs":[{"name":"","type":"address","internalType":"contract MockAggregatorV3"}],"stateMutability":"view"},{"type":"function","name":"usdcFeedDecimals","inputs":[],"outputs":[{"name":"","type":"uint8","internalType":"uint8"}],"stateMutability":"view"},{"type":"function","name":"wethFeed","inputs":[],"outputs":[{"name":"","type":"address","internalType":"contract MockAggregatorV3"}],"stateMutability":"view"},{"type":"function","name":"wethFeedDecimals","inputs":[],"outputs":[{"name":"","type":"uint8","internalType":"uint8"}],"stateMutability":"view"},{"type":"event","name":"Log","inputs":[{"name":"","type":"string","indexed":false,"internalType":"string"}],"anonymous":false}],"bytecode":{"object":"0x6080604052600080546001600160a01b0319908116737109709ecfa91a80626ff3989d68f67f5b1dd12d1790915560398054821630908117909155603a805490921617905561004c610051565b615b19565b60405161005d90614f08565b604051809103906000f080158015610079573d6000803e3d6000fd5b50600180546001600160a01b0319166001600160a01b03929092169190911790556040516006906100a990614f16565b6040808252600490820152635553444360e01b606082015260ff9091166020820152608001604051809103906000f0801580156100ea573d6000803e3d6000fd5b50600380546001600160a01b0319166001600160a01b039290921691909117905560405160089061011a90614f16565b6040808252600490820152635742544360e01b606082015260ff9091166020820152608001604051809103906000f08015801561015b573d6000803e3d6000fd5b50600280546001600160a01b0319166001600160a01b0392909216919091179055604080516003808252608082019092529060208201606080368337505081516101ac926004925060200190614f24565b50600154600480546001600160a01b03909216916000906101cf576101cf615363565b600091825260209091200180546001600160a01b0319166001600160a01b0392831617905560035460048054919092169190600190811061021257610212615363565b600091825260209091200180546001600160a01b0319166001600160a01b03928316179055600280546004805491909316929190811061025457610254615363565b9060005260206000200160006101000a8154816001600160a01b0302191690836001600160a01b031602179055503060405161028f90614f89565b6001600160a01b039091168152602001604051809103906000f0801580156102bb573d6000803e3d6000fd5b50603880546001600160a01b0319166001600160a01b039290921691909117905560405130906102ea90614f97565b6001600160a01b039091168152602001604051809103906000f080158015610316573d6000803e3d6000fd5b50603680546001600160a01b0319166001600160a01b0392909216919091179055604051309061034590614fa5565b6001600160a01b039091168152602001604051809103906000f080158015610371573d6000803e3d6000fd5b50603780546001600160a01b0319166001600160a01b039290921691909117905561039a610797565b6040516103a690614fb3565b604051809103906000f0801580156103c2573d6000803e3d6000fd5b50603380546001600160a01b0319166001600160a01b03928316908117909155600c54600d546040519184169316919030906103fd90614fc1565b6001600160a01b039485168152928416602084015290831660408301529091166060820152608001604051809103906000f080158015610441573d6000803e3d6000fd5b50603480546001600160a01b03929092166001600160a01b0319928316811790915560358054831682179055601f8054831682179055602080548316821790556021805483168217905560228054831682179055602380548316821790556024805483168217905560258054831682179055602680548316821790556028805483168217905560298054831682179055602a8054831682179055602b8054831682179055602c8054831682179055602d8054831682179055602e8054831682179055602f80548316821790556030805483168217905560318054831682179055603280548316821790556027805490921617905561053d610d4d565b610545612a37565b61054d612b5d565b6024805460405163ac4ab3fb60e01b81523060048201526420a226a4a760d91b928101929092526001600160a01b03169063ac4ab3fb90604401602060405180830381865afa1580156105a4573d6000803e3d6000fd5b505050506040513d601f19601f820116820180604052508101906105c89190615379565b6105d4576105d46153a2565b6024805460405163ac4ab3fb60e01b8152306004820152665550475241444560c81b928101929092526001600160a01b03169063ac4ab3fb90604401602060405180830381865afa15801561062d573d6000803e3d6000fd5b505050506040513d601f19601f820116820180604052508101906106519190615379565b61065d5761065d6153a2565b6024805460405163ac4ab3fb60e01b815230600482015265434f4e46494760d01b928101929092526001600160a01b03169063ac4ab3fb90604401602060405180830381865afa1580156106b5573d6000803e3d6000fd5b505050506040513d601f19601f820116820180604052508101906106d99190615379565b6106e5576106e56153a2565b6024805460405163ac4ab3fb60e01b81523060048201526525a2a2a822a960d11b928101929092526001600160a01b03169063ac4ab3fb90604401602060405180830381865afa15801561073d573d6000803e3d6000fd5b505050506040513d601f19601f820116820180604052508101906107619190615379565b61076d5761076d6153a2565b610775612c78565b61077d612cfc565b610785612f40565b61078d613718565b610795613cee565b565b6040516107a390614fcf565b604051809103906000f0801580156107bf573d6000803e3d6000fd5b50600b80546001600160a01b0319166001600160a01b03929092169190911790556040516107ec90614fdd565b604051809103906000f080158015610808573d6000803e3d6000fd5b50600c80546001600160a01b0319166001600160a01b039290921691909117905560405161083590614feb565b604051809103906000f080158015610851573d6000803e3d6000fd5b50600d80546001600160a01b0319166001600160a01b039290921691909117905560405161087e90614ff9565b604051809103906000f08015801561089a573d6000803e3d6000fd5b50600e80546001600160a01b0319166001600160a01b03929092169190911790556040516108c790615007565b604051809103906000f0801580156108e3573d6000803e3d6000fd5b50600f80546001600160a01b0319166001600160a01b039290921691909117905560405161091090615015565b604051809103906000f08015801561092c573d6000803e3d6000fd5b50601080546001600160a01b0319166001600160a01b039290921691909117905560405161095990615023565b604051809103906000f080158015610975573d6000803e3d6000fd5b50601180546001600160a01b0319166001600160a01b03929092169190911790556040516109a290615031565b604051809103906000f0801580156109be573d6000803e3d6000fd5b50601280546001600160a01b0319166001600160a01b03929092169190911790556040516109eb9061503f565b604051809103906000f080158015610a07573d6000803e3d6000fd5b50601380546001600160a01b0319166001600160a01b0392909216919091179055604051610a349061504d565b604051809103906000f080158015610a50573d6000803e3d6000fd5b50601480546001600160a01b0319166001600160a01b0392909216919091179055604051610a7d9061505b565b604051809103906000f080158015610a99573d6000803e3d6000fd5b50601580546001600160a01b0319166001600160a01b0392909216919091179055604051610ac690615069565b604051809103906000f080158015610ae2573d6000803e3d6000fd5b50601680546001600160a01b0319166001600160a01b0392909216919091179055604051610b0f90615077565b604051809103906000f080158015610b2b573d6000803e3d6000fd5b50601780546001600160a01b0319166001600160a01b0392909216919091179055604051610b5890615085565b604051809103906000f080158015610b74573d6000803e3d6000fd5b50601880546001600160a01b0319166001600160a01b0392909216919091179055604051610ba190615093565b604051809103906000f080158015610bbd573d6000803e3d6000fd5b50601980546001600160a01b0319166001600160a01b0392909216919091179055604051610bea906150a1565b604051809103906000f080158015610c06573d6000803e3d6000fd5b50601a80546001600160a01b0319166001600160a01b0392909216919091179055604051610c33906150af565b604051809103906000f080158015610c4f573d6000803e3d6000fd5b50601b80546001600160a01b0319166001600160a01b0392909216919091179055604051610c7c906150bd565b604051809103906000f080158015610c98573d6000803e3d6000fd5b50601c80546001600160a01b0319166001600160a01b0392909216919091179055604051610cc5906150cb565b604051809103906000f080158015610ce1573d6000803e3d6000fd5b50601d80546001600160a01b0319166001600160a01b0392909216919091179055604051610d0e906150d9565b604051809103906000f080158015610d2a573d6000803e3d6000fd5b50601e80546001600160a01b0319166001600160a01b0392909216919091179055565b610de2604051806102600160405280606081526020016060815260200160608152602001606081526020016060815260200160608152602001606081526020016060815260200160608152602001606081526020016060815260200160608152602001606081526020016060815260200160608152602001606081526020016060815260200160608152602001606081525090565b604080516012808252610260820190925290816020015b60408051606080820183526000808352602083015291810191909152815260200190600190039081610df957505081526040805160078082526101008201909252906020820160e0803683375050506020820181905280516311f9fbc960e21b9190600090610e6a57610e6a615363565b6001600160e01b0319909216602092830291909101820152810151805163750b5a1960e01b91906001908110610ea257610ea2615363565b6001600160e01b031990921660209283029190910182015281015180516302e9d19960e01b91906002908110610eda57610eda615363565b6001600160e01b031990921660209283029190910182015281015180516313874d3760e01b91906003908110610f1257610f12615363565b6001600160e01b0319909216602092830291909101820152810151805163115647f760e01b91906004908110610f4a57610f4a615363565b6001600160e01b03199092166020928302919091018201528101518051630f6a21fd60e31b91906005908110610f8257610f82615363565b6001600160e01b0319909216602092830291909101820152810151805163abac566560e01b91906006908110610fba57610fba615363565b6001600160e01b03199092166020928302919091018201526040805160608101909152600b546001600160a01b03168152908101600081526020838101519101528151805160009061100e5761100e615363565b602090810291909101015260408051600a808252610160820190925290816020016020820280368337505050604082018190528051632544cc2d60e01b919060009061105c5761105c615363565b6001600160e01b03199092166020928302919091019091015260408101518051635f54c24f60e11b9190600190811061109757611097615363565b6001600160e01b031990921660209283029190910190910152604081015180516368b5f86b60e01b919060029081106110d2576110d2615363565b6001600160e01b031990921660209283029190910190910152604081015180516313b8dec760e21b9190600390811061110d5761110d615363565b6001600160e01b03199092166020928302919091019091015260408101518051630ee75e3f60e21b9190600490811061114857611148615363565b6001600160e01b0319909216602092830291909101909101526040810151805163659d67bb60e01b9190600590811061118357611183615363565b6001600160e01b031990921660209283029190910190910152604081015180516330fe427560e21b919060069081106111be576111be615363565b6001600160e01b0319909216602092830291909101909101526040810151805163f29486a160e01b919060079081106111f9576111f9615363565b6001600160e01b03199092166020928302919091019091015260408101518051634f42ce0560e01b9190600890811061123457611234615363565b6001600160e01b0319909216602092830291909101909101526040810151805163e1be37bd60e01b9190600990811061126f5761126f615363565b6001600160e01b03199092166020928302919091018201526040805160608101909152601e546001600160a01b031681529081016000815260408301516020909101528151805160019081106112c7576112c7615363565b6020908102919091010152604080516001808252818301909252908160200160208202803683375050506060820181905280516001621df23f60e21b0319919060009061131657611316615363565b6001600160e01b031990921660209283029190910182015260408051606081019091526017546001600160a01b0316815290810160008152606083015160209091015281518051600290811061136e5761136e615363565b602090810291909101015260408051600b80825261018082019092529081602001602082028036833750505060808201819052805163e9e6741f60e01b91906000906113bc576113bc615363565b6001600160e01b0319909216602092830291909101909101526080810151805163943144b760e01b919060019081106113f7576113f7615363565b6001600160e01b031990921660209283029190910190910152608081015180516324211a4b60e21b9190600290811061143257611432615363565b6001600160e01b031990921660209283029190910190910152608081015180516351ebcaad60e01b9190600390811061146d5761146d615363565b6001600160e01b03199092166020928302919091019091015260808101518051637ad1830360e01b919060049081106114a8576114a8615363565b6001600160e01b0319909216602092830291909101909101526080810151805163bc8f47c560e01b919060059081106114e3576114e3615363565b6001600160e01b031990921660209283029190910190910152608081015180516355be18cb60e01b9190600690811061151e5761151e615363565b6001600160e01b0319909216602092830291909101909101526080810151805163b9ee807360e01b9190600790811061155957611559615363565b6001600160e01b0319909216602092830291909101909101526080810151805163ada5636560e01b9190600890811061159457611594615363565b6001600160e01b03199092166020928302919091019091015260808101518051632e4cd5d560e11b919060099081106115cf576115cf615363565b6001600160e01b03199092166020928302919091019091015260808101518051632dcf295f60e11b9190600a90811061160a5761160a615363565b6001600160e01b031990921660209283029190910182015260408051606081019091526016546001600160a01b0316815290810160008152608083015160209091015281518051600390811061166257611662615363565b602090810291909101015260408051600680825260e082019092529081602001602082028036833750505060a08201819052805163c082871360e01b91906000906116af576116af615363565b6001600160e01b03199092166020928302919091019091015260a08101518051635a536f8f60e01b919060019081106116ea576116ea615363565b6001600160e01b03199092166020928302919091019091015260a08101518051632b277aa960e21b9190600290811061172557611725615363565b6001600160e01b03199092166020928302919091019091015260a08101518051631b2df54560e31b9190600390811061176057611760615363565b6001600160e01b03199092166020928302919091019091015260a081015180516319c6034360e21b9190600490811061179b5761179b615363565b6001600160e01b03199092166020928302919091019091015260a081015180516308d601cb60e21b919060059081106117d6576117d6615363565b6001600160e01b03199092166020928302919091018201526040805160608101909152601a546001600160a01b031681529081016000815260a083015160209091015281518051600490811061182e5761182e615363565b602090810291909101015260408051600680825260e082019092529081602001602082028036833750505060c082018190528051631ea9aba960e21b919060009061187b5761187b615363565b6001600160e01b03199092166020928302919091019091015260c08101518051635cfac83760e01b919060019081106118b6576118b6615363565b6001600160e01b03199092166020928302919091019091015260c081015180516378a0c2cd60e11b919060029081106118f1576118f1615363565b6001600160e01b03199092166020928302919091019091015260c0810151805163a7b039d960e01b9190600390811061192c5761192c615363565b6001600160e01b03199092166020928302919091019091015260c081015180516351d1a5af60e01b9190600490811061196757611967615363565b6001600160e01b03199092166020928302919091019091015260c0810151805163cd0743c960e01b919060059081106119a2576119a2615363565b6001600160e01b03199092166020928302919091018201526040805160608101909152601d546001600160a01b031681529081016000815260c08301516020909101528151805160059081106119fa576119fa615363565b6020908102919091010152604080516002808252606082019092529081602001602082028036833750505060e082018190528051634777232f60e01b9190600090611a4757611a47615363565b6001600160e01b03199092166020928302919091019091015260e0810151805163751372f960e11b91906001908110611a8257611a82615363565b6001600160e01b031990921660209283029190910182015260408051606081019091526018546001600160a01b031681529081016000815260e0830151602090910152815180516006908110611ada57611ada615363565b602090810291909101015260408051600280825260608201909252908160200160208202803683375050506101008201819052805163180e24bb60e01b9190600090611b2857611b28615363565b6001600160e01b0319909216602092830291909101909101526101008101518051631d3c97b760e01b91906001908110611b6457611b64615363565b6001600160e01b031990921660209283029190910182015260408051606081019091526012546001600160a01b0316815290810160008152610100830151602090910152815180516007908110611bbd57611bbd615363565b602090810291909101015260408051600580825260c0820190925290816020016020820280368337505050610120820181905280516325829b0560e11b9190600090611c0b57611c0b615363565b6001600160e01b03199092166020928302919091019091015261012081015180516344f3a60560e11b91906001908110611c4757611c47615363565b6001600160e01b03199092166020928302919091019091015261012081015180516322dabfa560e01b91906002908110611c8357611c83615363565b6001600160e01b03199092166020928302919091019091015261012081015180516305b47d8160e51b91906003908110611cbf57611cbf615363565b6001600160e01b0319909216602092830291909101909101526101208101518051639508352760e01b91906004908110611cfb57611cfb615363565b6001600160e01b03199092166020928302919091018201526040805160608101909152600e546001600160a01b0316815290810160008152610120830151602090910152815180516008908110611d5457611d54615363565b602090810291909101015260408051600580825260c08201909252908160200160208202803683375050506101408201819052805163bbe4f6db60e01b9190600090611da257611da2615363565b6001600160e01b031990921660209283029190910190910152610140810151805163075d037d60e41b91906001908110611dde57611dde615363565b6001600160e01b03199092166020928302919091019091015261014081015180516327a79e3d60e21b91906002908110611e1a57611e1a615363565b6001600160e01b0319909216602092830291909101909101526101408101518051631559a24360e01b91906003908110611e5657611e56615363565b6001600160e01b0319909216602092830291909101909101526101408101518051631f27dbe160e11b91906004908110611e9257611e92615363565b6001600160e01b031990921660209283029190910182015260408051606081019091526014546001600160a01b0316815290810160008152610140830151602090910152815180516009908110611eeb57611eeb615363565b60209081029190910101526040805160098082526101408201909252908160200160208202803683375050506101608201819052805163fe1b724560e01b9190600090611f3a57611f3a615363565b6001600160e01b0319909216602092830291909101909101526101608101518051630c46f97d60e21b91906001908110611f7657611f76615363565b6001600160e01b031990921660209283029190910190910152610160810151805163e606789b60e01b91906002908110611fb257611fb2615363565b6001600160e01b0319909216602092830291909101909101526101608101518051637431564760e01b91906003908110611fee57611fee615363565b6001600160e01b031990921660209283029190910190910152610160810151805163cb5c8d8160e01b9190600490811061202a5761202a615363565b6001600160e01b03199092166020928302919091019091015261016081015180516359086dc960e01b9190600590811061206657612066615363565b6001600160e01b031990921660209283029190910190910152610160810151805163027edeab60e21b919060069081106120a2576120a2615363565b6001600160e01b031990921660209283029190910190910152610160810151805163fb11e96960e01b919060079081106120de576120de615363565b6001600160e01b03199092166020928302919091019091015261016081015180516320832e3160e11b9190600890811061211a5761211a615363565b6001600160e01b03199092166020928302919091018201526040805160608101909152600f546001600160a01b031681529081016000815261016083015160209091015281518051600a90811061217357612173615363565b60209081029190910101526040805160018082528183019092529081602001602082028036833750505061018082018190528051631a7c95e560e31b91906000906121c0576121c0615363565b6001600160e01b031990921660209283029190910182015260408051606081019091526015546001600160a01b031681529081016000815261018083015160209091015281518051600b90811061221957612219615363565b602090810291909101015260408051600280825260608201909252908160200160208202803683375050506101a082018190528051631bb31e7960e21b919060009061226757612267615363565b6001600160e01b0319909216602092830291909101909101526101a08101518051631d15efe160e31b919060019081106122a3576122a3615363565b6001600160e01b03199092166020928302919091018201526040805160608101909152601c546001600160a01b03168152908101600081526101a083015160209091015281518051600c9081106122fc576122fc615363565b602090810291909101015260408051600480825260a08201909252908160200160208202803683375050506101c082018190528051632ac9d0b760e21b919060009061234a5761234a615363565b6001600160e01b0319909216602092830291909101909101526101c0810151805163208dd1ff60e01b9190600190811061238657612386615363565b6001600160e01b0319909216602092830291909101909101526101c081015180516319666e6960e31b919060029081106123c2576123c2615363565b6001600160e01b0319909216602092830291909101909101526101c0810151805163ac4ab3fb60e01b919060039081106123fe576123fe615363565b6001600160e01b031990921660209283029190910182015260408051606081019091526010546001600160a01b03168152908101600081526101c083015160209091015281518051600d90811061245757612457615363565b602090810291909101015260408051600680825260e08201909252908160200160208202803683375050506101e0820181905280516353e5b30160e11b91906000906124a5576124a5615363565b6001600160e01b0319909216602092830291909101909101526101e08101518051631822508960e01b919060019081106124e1576124e1615363565b6001600160e01b0319909216602092830291909101909101526101e08101518051630edbe45160e21b9190600290811061251d5761251d615363565b6001600160e01b0319909216602092830291909101909101526101e0810151805163545b6c5560e11b9190600390811061255957612559615363565b6001600160e01b0319909216602092830291909101909101526101e08101518051636990d24560e01b9190600490811061259557612595615363565b6001600160e01b0319909216602092830291909101909101526101e081015180516313a86f7b60e31b919060059081106125d1576125d1615363565b6001600160e01b031990921660209283029190910182015260408051606081019091526011546001600160a01b03168152908101600081526101e083015160209091015281518051600e90811061262a5761262a615363565b6020908102919091010152604080516003808252608082019092529081602001602082028036833750505061020082018190528051630324f16d60e61b919060009061267857612678615363565b6001600160e01b0319909216602092830291909101909101526102008101518051638e94134760e01b919060019081106126b4576126b4615363565b6001600160e01b0319909216602092830291909101909101526102008101518051639fe30b0360e01b919060029081106126f0576126f0615363565b6001600160e01b031990921660209283029190910182015260408051606081019091526013546001600160a01b031681529081016000815261020083015160209091015281518051600f90811061274957612749615363565b60209081029190910101526040805160018082528183019092529081602001602082028036833750505061022082018190528051637bdb02cb60e01b919060009061279657612796615363565b6001600160e01b03199092166020928302919091018201526040805160608101909152601b546001600160a01b03168152908101600081526102208301516020909101528151805160109081106127ef576127ef615363565b602090810291909101015260408051600680825260e08201909252908160200160208202803683375050506102408201819052805163098eae4560e11b919060009061283d5761283d615363565b6001600160e01b0319909216602092830291909101909101526102408101518051631b4af8ff60e31b9190600190811061287957612879615363565b6001600160e01b0319909216602092830291909101909101526102408101518051637a09f40d60e11b919060029081106128b5576128b5615363565b6001600160e01b0319909216602092830291909101909101526102408101518051634bf3dbf960e11b919060039081106128f1576128f1615363565b6001600160e01b03199092166020928302919091019091015261024081015180516308ba026f60e01b9190600490811061292d5761292d615363565b6001600160e01b0319909216602092830291909101909101526102408101518051630fbac97560e11b9190600590811061296957612969615363565b6001600160e01b031990921660209283029190910182015260408051606081019091526019546001600160a01b03168152908101600081526102408301516020909101528151805160119081106129c2576129c2615363565b6020908102919091018101919091525481516040516307e4c70760e21b81526001600160a01b0390921691631f931c1c91612a02916000906004016153b8565b600060405180830381600087803b158015612a1c57600080fd5b505af1158015612a30573d6000803e3d6000fd5b5050505050565b603654603554604051631add9f0b60e11b81526001600160a01b0391821660048201529116906335bb3e1690602401600060405180830381600087803b158015612a8057600080fd5b505af1158015612a94573d6000803e3d6000fd5b5050603754603554604051631add9f0b60e11b81526001600160a01b039182166004820152911692506335bb3e169150602401600060405180830381600087803b158015612ae157600080fd5b505af1158015612af5573d6000803e3d6000fd5b5050603854603554604051631add9f0b60e11b81526001600160a01b039182166004820152911692506335bb3e1691506024015b600060405180830381600087803b158015612b4357600080fd5b505af1158015612b57573d6000803e3d6000fd5b50505050565b60248054604051632ac9d0b760e21b8152306004820152665550475241444560c81b928101929092526001600160a01b03169063ab2742dc90604401600060405180830381600087803b158015612bb357600080fd5b505af1158015612bc7573d6000803e3d6000fd5b505060248054604051632ac9d0b760e21b815230600482015265434f4e46494760d01b928101929092526001600160a01b0316925063ab2742dc9150604401600060405180830381600087803b158015612c2057600080fd5b505af1158015612c34573d6000803e3d6000fd5b505060248054604051632ac9d0b760e21b81523060048201526525a2a2a822a960d11b928101929092526001600160a01b0316925063ab2742dc9150604401612b29565b60408051606080820183526000808352602080840182905292840152825190810183526036546001600160a01b03908116825260385481169282019283526037548116828501908152602754945163659d67bb60e01b815283518316600482015293518216602485015251811660448401529092169063659d67bb90606401612a02565b6040805160808082018352600080835260606020808501829052848601839052938101829052845180840186528281528085018290528086018390528101919091528351808301855267574554485553444360c01b8152845180860186526004808252630f08aa8960e31b82870152828601919091526001546001600160a01b03908116838801819052838501528651948501875267574254435553444360c01b855286518088018852828152637842544360e01b8188015295850195909552600254851684870181905292840192909252602d549451634777232f60e01b8152909492939290921691634777232f91612df8918691016154ff565b600060405180830381600087803b158015612e1257600080fd5b505af1158015612e26573d6000803e3d6000fd5b5050602d54604051634777232f60e01b81526001600160a01b039091169250634777232f9150612e5a9084906004016154ff565b600060405180830381600087803b158015612e7457600080fd5b505af1158015612e88573d6000803e3d6000fd5b5050602d546040805180820182526004808252631e1554d160e21b6020830152915163751372f960e11b8152600095506001600160a01b03909316935063ea26e5f292612ed89260129101615555565b6020604051808303816000875af1158015612ef7573d6000803e3d6000fd5b505050506040513d601f19601f82011682018060405250810190612f1b919061557a565b600780546001600160a01b0319166001600160a01b0392909216919091179055505050565b60408051600180825281830190925260009160208083019080368337505060015482519293506001600160a01b031691839150600090612f8257612f82615363565b60200260200101906001600160a01b031690816001600160a01b031681525050612ff8604051806101400160405280600081526020016000815260200160008152602001600081526020016000815260200160008152602001600081526020016000815260200160008152602001606081525090565b604051806101400160405280640174876e808152602001620138808152602001607881526020016096815260200160008152602001600081526020016000815260200160008152602001600081526020018381525090506130576150e7565b506040805180820182526005546001600160a01b0390811682526020820184905260275492516368b5f86b60e01b8152919216906368b5f86b9061309f9084906004016155e8565b600060405180830381600087803b1580156130b957600080fd5b505af11580156130cd573d6000803e3d6000fd5b5060009250600191506130dd9050565b604051908082528060200260200182016040528015613106578160200160208202803683370190505b5060025481519192506001600160a01b031690829060009061312a5761312a615363565b60200260200101906001600160a01b031690816001600160a01b0316815250506131a0604051806101400160405280600081526020016000815260200160008152602001600081526020016000815260200160008152602001600081526020016000815260200160008152602001606081525090565b604051806101400160405280640174876e808152602001620138808152602001607881526020016096815260200160008152602001600081526020016000815260200160008152602001600081526020018381525093506131ff6150e7565b506040805180820182526006546001600160a01b0390811682526020820184905260275492516368b5f86b60e01b8152919216906368b5f86b906132479084906004016155e8565b600060405180830381600087803b15801561326157600080fd5b505af1158015613275573d6000803e3d6000fd5b505050506132c160405180610100016040528060008152602001600081526020016000815260200160008152602001600081526020016000815260200160008152602001600081525090565b604051806101000160405280621e84808152602001620f42408152602001606e8152602001608281526020016a084595161401484a00000081526020016a084595161401484a000000815260200161c350815260200169152d02c7e14af6800000815250905061332f61515d565b5060408051808201825267574554485553444360c01b815260208082018481526027548451630ee75e3f60e21b81528451600482015291518051602484015292830151604483015293820151606482015260608201516084820152608082015160a482015260a082015160c482015260c082015160e482015260e09091015161010482015290916001600160a01b031690633b9d78fc9061012401600060405180830381600087803b1580156133e457600080fd5b505af11580156133f8573d6000803e3d6000fd5b5050505061344460405180610100016040528060008152602001600081526020016000815260200160008152602001600081526020016000815260200160008152602001600081525090565b604051806101000160405280621e84808152602001620f424081526020016096815260200160aa81526020016a084595161401484a00000081526020016a084595161401484a000000815260200161c350815260200169152d02c7e14af680000081525090506134b261515d565b5060408051808201825267574254435553444360c01b815260208082018481526027548451630ee75e3f60e21b81528451600482015291518051602484015292830151604483015293820151606482015260608201516084820152608082015160a482015260a082015160c482015260c082015160e482015260e09091015161010482015290916001600160a01b031690633b9d78fc9061012401600060405180830381600087803b15801561356757600080fd5b505af115801561357b573d6000803e3d6000fd5b505050506135876151ba565b60408051600180825281830190925260009160208083019080368337505060035482519293506001600160a01b0316918391506000906135c9576135c9615363565b6001600160a01b039290921660209283029190910190910152604080516001808252818301909252600091816020016020820280368337019050509050632540be408160008151811061361e5761361e615363565b6020026020010181815250506136636040518060c001604052806000815260200160008152602001600081526020016000815260200160608152602001606081525090565b506040805160c081018252620138808152600a602080830182905282840191909152600060608301526080820185905260a082018490528251908101835281815260275492516313b8dec760e21b815290955090916001600160a01b031690634ee37b1c906136d6908790600401615693565b600060405180830381600087803b1580156136f057600080fd5b505af1158015613704573d6000803e3d6000fd5b505050505050505050505050505050505050565b61377060405180610120016040528060006001600160a01b0316815260200160008152602001600081526020016000815260200160008152602001600081526020016000815260200160008152602001600081525090565b5060408051610120810182526001546001600160a01b031681526216e3606020820181905281830181905260608201819052608080830182905260a0830182905260c0830182905260e08301829052610100830191909152825160038082529181019093529091600091816020016020820280368337505060035482519293506001600160a01b03169183915060009061380c5761380c615363565b6001600160a01b039283166020918202929092010152600180548351921691839190811061383c5761383c615363565b6001600160a01b039283166020918202929092010152600280548351921691839190811061386c5761386c615363565b6001600160a01b03929092166020928302919091019091015260408051600380825260808201909252600091816020015b6138ee60405180610120016040528060001515815260200160008152602001600081526020016000815260200160008152602001600081526020016000815260200160008152602001600081525090565b81526020019060019003908161389d57905050905060405180610120016040528060011515815260200160028152602001620182b88152602001642e90edd000815260200165b5e620f48000815260200164012a05f200815260200164e8d4a510008152602001600a81526020016113888152508160008151811061397557613975615363565b602002602001018190525060405180610120016040528060011515815260200160068152602001620182b8815260200168056bc75e2d63100000815260200169152d02c7e14af68000008152602001670de0b6b3a764000081526020016802b5e3af16b18800008152602001600a815260200161138881525081600181518110613a0157613a01615363565b602002602001018190525060405180610120016040528060011515815260200160068152602001620182b88152602001678ac7230489e80000815260200169021e19e0c9bab2400000815260200167016345785d8a00008152602001674563918244f400008152602001600a815260200161138881525081600281518110613a8b57613a8b615363565b6020026020010181905250613b16604051806102000160405280606081526020016060815260200160008152602001600081526020016000815260200160008152602001600081526020016000815260200160008152602001600081526020016000815260200160008152602001600081526020016000815260200160008152602001600081525090565b604051806102000160405280848152602001838152602001678ac7230489e8000081526020016201d4c081526020016201d4c081526020016103e881526020016404a817c8008152602001642e90edd0008152602001616978815260200161f61881526020016127108152602001616978815260200161f618815260200160008152602001600081526020016113888152509050613c00604051806101400160405280600081526020016000815260200160008152602001600081526020016000815260200160008152602001600081526020016000815260200160008152602001600081525090565b6040518061014001604052806101f481526020016113888152602001600b8152602001616978815260200161f6188152602001616978815260200161f618815260200160008152602001614e208152602001621e84808152509050613c636151fe565b506040805160808101825286815260208101849052808201839052600060608201526027549151632544cc2d60e01b815290916001600160a01b031690632544cc2d90613cb4908490600401615884565b600060405180830381600087803b158015613cce57600080fd5b505af1158015613ce2573d6000803e3d6000fd5b50505050505050505050565b6000546040516001625e79b760e01b03198152600160048201526001600160a01b039091169063ffa18649906024016020604051808303816000875af1158015613d3c573d6000803e3d6000fd5b505050506040513d601f19601f82011682018060405250810190613d60919061557a565b603b80546001600160a01b0319166001600160a01b039283161790556000546040516001625e79b760e01b031981526002600482015291169063ffa18649906024016020604051808303816000875af1158015613dc1573d6000803e3d6000fd5b505050506040513d601f19601f82011682018060405250810190613de5919061557a565b603c80546001600160a01b0319166001600160a01b039283161790556000546040516001625e79b760e01b031981526003600482015291169063ffa18649906024016020604051808303816000875af1158015613e46573d6000803e3d6000fd5b505050506040513d601f19601f82011682018060405250810190613e6a919061557a565b603d80546001600160a01b0319166001600160a01b03928316179055600054603b54604080516318caf8e360e31b81529184166004830152602482015260036044820152622137b160e91b606482015291169063c657c71890608401600060405180830381600087803b158015613ee057600080fd5b505af1158015613ef4573d6000803e3d6000fd5b5050600054603c54604080516318caf8e360e31b81526001600160a01b03928316600482015260248101919091526005604482015264416c69636560d81b60648201529116925063c657c7189150608401600060405180830381600087803b158015613f5f57600080fd5b505af1158015613f73573d6000803e3d6000fd5b5050600054603d54604080516318caf8e360e31b81526001600160a01b0392831660048083019190915260248201929092526044810191909152634a616b6560e01b60648201529116925063c657c7189150608401600060405180830381600087803b158015613fe257600080fd5b505af1158015613ff6573d6000803e3d6000fd5b5060039250614003915050565b60405190808252806020026020018201604052801561402c578160200160208202803683370190505b50805161404191603e91602090910190614f24565b50603b54603e80546001600160a01b039092169160009061406457614064615363565b600091825260209091200180546001600160a01b0319166001600160a01b03928316179055603c54603e805491909216919060019081106140a7576140a7615363565b600091825260209091200180546001600160a01b0319166001600160a01b03928316179055603d54603e805491909216919060029081106140ea576140ea615363565b6000918252602082200180546001600160a01b0319166001600160a01b0393909316929092179091555b603e5460ff821610156145a7576000603e8260ff168154811061413957614139615363565b6000918252602082200154905460405163c88a5e6d60e01b81526001600160a01b039283166004820181905268056bc75e2d631000006024830152935091169063c88a5e6d90604401600060405180830381600087803b15801561419c57600080fd5b505af11580156141b0573d6000803e3d6000fd5b50506003546040805163313ce56760e01b815290516001600160a01b0390921693506340c10f1992508491849163313ce5679160048083019260209291908290030181865afa158015614207573d6000803e3d6000fd5b505050506040513d601f19601f8201168201806040525081019061422b919061599c565b61423690600a615abb565b61424390620186a0615aca565b6040516001600160e01b031960e085901b1681526001600160a01b0390921660048301526024820152604401600060405180830381600087803b15801561428957600080fd5b505af115801561429d573d6000803e3d6000fd5b50506001546040805163313ce56760e01b815290516001600160a01b0390921693506340c10f1992508491849163313ce5679160048083019260209291908290030181865afa1580156142f4573d6000803e3d6000fd5b505050506040513d601f19601f82011682018060405250810190614318919061599c565b61432390600a615abb565b61432e906064615aca565b6040516001600160e01b031960e085901b1681526001600160a01b0390921660048301526024820152604401600060405180830381600087803b15801561437457600080fd5b505af1158015614388573d6000803e3d6000fd5b50506002546040805163313ce56760e01b815290516001600160a01b0390921693506340c10f1992508491849163313ce5679160048083019260209291908290030181865afa1580156143df573d6000803e3d6000fd5b505050506040513d601f19601f82011682018060405250810190614403919061599c565b61440e90600a615abb565b61441990600a615aca565b6040516001600160e01b031960e085901b1681526001600160a01b0390921660048301526024820152604401600060405180830381600087803b15801561445f57600080fd5b505af1158015614473573d6000803e3d6000fd5b5050505060005b60045460ff821610156145925760005460405163ca669fa760e01b81526001600160a01b0384811660048301529091169063ca669fa790602401600060405180830381600087803b1580156144ce57600080fd5b505af11580156144e2573d6000803e3d6000fd5b5050505060048160ff16815481106144fc576144fc615363565b60009182526020909120015460355460405163095ea7b360e01b81526001600160a01b039182166004820152600019602482015291169063095ea7b3906044016020604051808303816000875af115801561455b573d6000803e3d6000fd5b505050506040513d601f19601f8201168201806040525081019061457f9190615379565b508061458a81615ae1565b91505061447a565b5050808061459f90615ae1565b915050614114565b50600360009054906101000a90046001600160a01b03166001600160a01b031663313ce5676040518163ffffffff1660e01b8152600401602060405180830381865afa1580156145fb573d6000803e3d6000fd5b505050506040513d601f19601f8201168201806040525081019061461f919061599c565b61462a90600a615abb565b61463790620186a0615aca565b600354603b546040516370a0823160e01b81526001600160a01b0391821660048201529116906370a0823190602401602060405180830381865afa158015614683573d6000803e3d6000fd5b505050506040513d601f19601f820116820180604052508101906146a79190615b00565b146146b4576146b46153a2565b600360009054906101000a90046001600160a01b03166001600160a01b031663313ce5676040518163ffffffff1660e01b8152600401602060405180830381865afa158015614707573d6000803e3d6000fd5b505050506040513d601f19601f8201168201806040525081019061472b919061599c565b61473690600a615abb565b61474390620186a0615aca565b600354603c546040516370a0823160e01b81526001600160a01b0391821660048201529116906370a0823190602401602060405180830381865afa15801561478f573d6000803e3d6000fd5b505050506040513d601f19601f820116820180604052508101906147b39190615b00565b146147c0576147c06153a2565b600360009054906101000a90046001600160a01b03166001600160a01b031663313ce5676040518163ffffffff1660e01b8152600401602060405180830381865afa158015614813573d6000803e3d6000fd5b505050506040513d601f19601f82011682018060405250810190614837919061599c565b61484290600a615abb565b61484f90620186a0615aca565b600354603d546040516370a0823160e01b81526001600160a01b0391821660048201529116906370a0823190602401602060405180830381865afa15801561489b573d6000803e3d6000fd5b505050506040513d601f19601f820116820180604052508101906148bf9190615b00565b146148cc576148cc6153a2565b600160009054906101000a90046001600160a01b03166001600160a01b031663313ce5676040518163ffffffff1660e01b8152600401602060405180830381865afa15801561491f573d6000803e3d6000fd5b505050506040513d601f19601f82011682018060405250810190614943919061599c565b61494e90600a615abb565b614959906064615aca565b600154603b546040516370a0823160e01b81526001600160a01b0391821660048201529116906370a0823190602401602060405180830381865afa1580156149a5573d6000803e3d6000fd5b505050506040513d601f19601f820116820180604052508101906149c99190615b00565b146149d6576149d66153a2565b600160009054906101000a90046001600160a01b03166001600160a01b031663313ce5676040518163ffffffff1660e01b8152600401602060405180830381865afa158015614a29573d6000803e3d6000fd5b505050506040513d601f19601f82011682018060405250810190614a4d919061599c565b614a5890600a615abb565b614a63906064615aca565b600154603c546040516370a0823160e01b81526001600160a01b0391821660048201529116906370a0823190602401602060405180830381865afa158015614aaf573d6000803e3d6000fd5b505050506040513d601f19601f82011682018060405250810190614ad39190615b00565b14614ae057614ae06153a2565b600160009054906101000a90046001600160a01b03166001600160a01b031663313ce5676040518163ffffffff1660e01b8152600401602060405180830381865afa158015614b33573d6000803e3d6000fd5b505050506040513d601f19601f82011682018060405250810190614b57919061599c565b614b6290600a615abb565b614b6d906064615aca565b600154603d546040516370a0823160e01b81526001600160a01b0391821660048201529116906370a0823190602401602060405180830381865afa158015614bb9573d6000803e3d6000fd5b505050506040513d601f19601f82011682018060405250810190614bdd9190615b00565b14614bea57614bea6153a2565b600260009054906101000a90046001600160a01b03166001600160a01b031663313ce5676040518163ffffffff1660e01b8152600401602060405180830381865afa158015614c3d573d6000803e3d6000fd5b505050506040513d601f19601f82011682018060405250810190614c61919061599c565b614c6c90600a615abb565b614c7790600a615aca565b600254603b546040516370a0823160e01b81526001600160a01b0391821660048201529116906370a0823190602401602060405180830381865afa158015614cc3573d6000803e3d6000fd5b505050506040513d601f19601f82011682018060405250810190614ce79190615b00565b14614cf457614cf46153a2565b600260009054906101000a90046001600160a01b03166001600160a01b031663313ce5676040518163ffffffff1660e01b8152600401602060405180830381865afa158015614d47573d6000803e3d6000fd5b505050506040513d601f19601f82011682018060405250810190614d6b919061599c565b614d7690600a615abb565b614d8190600a615aca565b600254603c546040516370a0823160e01b81526001600160a01b0391821660048201529116906370a0823190602401602060405180830381865afa158015614dcd573d6000803e3d6000fd5b505050506040513d601f19601f82011682018060405250810190614df19190615b00565b14614dfe57614dfe6153a2565b600260009054906101000a90046001600160a01b03166001600160a01b031663313ce5676040518163ffffffff1660e01b8152600401602060405180830381865afa158015614e51573d6000803e3d6000fd5b505050506040513d601f19601f82011682018060405250810190614e75919061599c565b614e8090600a615abb565b614e8b90600a615aca565b600254603d546040516370a0823160e01b81526001600160a01b0391821660048201529116906370a0823190602401602060405180830381865afa158015614ed7573d6000803e3d6000fd5b505050506040513d601f19601f82011682018060405250810190614efb9190615b00565b14610795576107956153a2565b610e4280620065fa83390190565b610e37806200743c83390190565b828054828255906000526020600020908101928215614f79579160200282015b82811115614f7957825182546001600160a01b0319166001600160a01b03909116178255602090920191600190910190614f44565b50614f8592915061534e565b5090565b610ad3806200827383390190565b610ad38062008d4683390190565b610ad3806200981983390190565b61013b806200a2ec83390190565b611067806200a42783390190565b611d1c806200b48e83390190565b61101b806200d1aa83390190565b610a68806200e1c583390190565b612491806200ec2d83390190565b61345a80620110be83390190565b6105b4806201451883390190565b611fb18062014acc83390190565b6103218062016a7d83390190565b6108bc8062016d9e83390190565b6113cf806201765a83390190565b6104168062018a2983390190565b6116a08062018e3f83390190565b6103d8806201a4df83390190565b61082c806201a8b783390190565b61022a806201b0e383390190565b611364806201b30d83390190565b6118c6806201c67183390190565b6102bd806201df3783390190565b611122806201e1f483390190565b611b81806201f31683390190565b604051806040016040528060006001600160a01b03168152602001615158604051806101400160405280600081526020016000815260200160008152602001600081526020016000815260200160008152602001600081526020016000815260200160008152602001606081525090565b905290565b60405180604001604052806000801916815260200161515860405180610100016040528060008152602001600081526020016000815260200160008152602001600081526020016000815260200160008152602001600081525090565b60405180602001604052806151586040518060c001604052806000815260200160008152602001600081526020016000815260200160608152602001606081525090565b604051806080016040528061526160405180610120016040528060006001600160a01b0316815260200160008152602001600081526020016000815260200160008152602001600081526020016000815260200160008152602001600081525090565b81526020016152e6604051806102000160405280606081526020016060815260200160008152602001600081526020016000815260200160008152602001600081526020016000815260200160008152602001600081526020016000815260200160008152602001600081526020016000815260200160008152602001600081525090565b8152602001615341604051806101400160405280600081526020016000815260200160008152602001600081526020016000815260200160008152602001600081526020016000815260200160008152602001600081525090565b8152600060209091015290565b5b80821115614f85576000815560010161534f565b634e487b7160e01b600052603260045260246000fd5b60006020828403121561538b57600080fd5b8151801515811461539b57600080fd5b9392505050565b634e487b7160e01b600052600160045260246000fd5b60006060808301606084528086518083526080925060808601915060808160051b8701016020808a0160005b8481101561548b57898403607f19018652815180516001600160a01b0316855283810151898601906003811061542a57634e487b7160e01b600052602160045260246000fd5b868601526040918201519186018a905281519081905290840190600090898701905b808310156154765783516001600160e01b031916825292860192600192909201919086019061544c565b509785019795505050908201906001016153e4565b50506001600160a01b0389168882015250868103604088015260008152602081019998505050505050505050565b6000815180845260005b818110156154df576020818501810151868301820152016154c3565b506000602082860101526020601f19601f83011685010191505092915050565b6020815281516020820152600060208301516080604084015261552560a08401826154b9565b60408501516001600160a01b03908116606086810191909152909501519094166080909301929092525090919050565b60408152600061556860408301856154b9565b905060ff831660208301529392505050565b60006020828403121561558c57600080fd5b81516001600160a01b038116811461539b57600080fd5b60008151808452602080850194506020840160005b838110156155dd5781516001600160a01b0316875295820195908201906001016155b8565b509495945050505050565b6020815260018060a01b038251166020820152600060208301516040808401528051606084015260208101516080840152604081015160a0840152606081015160c0840152608081015160e084015260a0810151610100818186015260c08301519150610120828187015260e08401519250610140838188015282850151610160880152818501519450806101808801525050505061568b6101a08401826155a3565b949350505050565b60006020808352835181828501528051604085015281810151606085015260408101516080850152606081015160a0850152608081015160c0808601526156de6101008601826155a3565b60a09290920151858303603f190160e0870152805180845290840192600092508401905b808310156157225783518252928401926001929092019190840190615702565b509695505050505050565b60008151808452602080850194506020840160005b838110156155dd578151805115158852838101518489015260408082015190890152606080820151908901526080808201519089015260a0808201519089015260c0808201519089015260e0808201519089015261010090810151908801526101209096019590820190600101615742565b600061020082518185526157ca828601826155a3565b915050602083015184820360208601526157e4828261572d565b60408581015190870152606080860151908701526080808601519087015260a0808601519087015260c0808601519087015260e08086015190870152610100808601519087015261012080860151908701526101408086015190870152610160808601519087015261018080860151908701526101a080860151908701526101c080860151908701526101e0948501519490950193909352509192915050565b602081526000825160018060a01b038151166020840152602081015160408401526040810151606084015260608101516080840152608081015160a084015260a081015160c084015260c081015160e084015260e081015161010081818601528083015161012086015250505060208301516102a08061014085015261590e6102c08501836157b4565b60408681015180516101608801526020810151610180880152908101516101a08701526060808201516101c088015260808201516101e088015260a082015161020088015260c082015161022088015260e082015161024088015261010082015161026088015261012090910151610280870152909501516001600160a01b03169301929092525090919050565b6000602082840312156159ae57600080fd5b815160ff8116811461539b57600080fd5b634e487b7160e01b600052601160045260246000fd5b600181815b80851115615a105781600019048211156159f6576159f66159bf565b80851615615a0357918102915b93841c93908002906159da565b509250929050565b600082615a2757506001615ab5565b81615a3457506000615ab5565b8160018114615a4a5760028114615a5457615a70565b6001915050615ab5565b60ff841115615a6557615a656159bf565b50506001821b615ab5565b5060208310610133831016604e8410600b8410161715615a93575081810a615ab5565b615a9d83836159d5565b8060001904821115615ab157615ab16159bf565b0290505b92915050565b600061539b60ff841683615a18565b8082028115828204841417615ab557615ab56159bf565b600060ff821660ff8103615af757615af76159bf565b60010192915050565b600060208284031215615b1257600080fd5b5051919050565b610ad18062005b296000396000f3fe608060405234801561001057600080fd5b50600436106101425760003560e01c8063a4e7d977116100b8578063ceb78eb51161007c578063ceb78eb5146101cc578063d13ff4cd14610288578063dd47dacf1461029a578063e27c931b14610147578063e292b47f146102ad578063f44c1318146102c057600080fd5b8063a4e7d97714610211578063b219de8b1461023c578063c23d2a4a1461024f578063c2c0026514610262578063cea2f3e11461027557600080fd5b80632e694dc01161010a5780632e694dc0146101a65780633e0e3e0c146101b957806347439c54146101cc578063711bc03e146101eb5780638022b6fd146101cc57806393f1d238146101fe57600080fd5b80630160312c1461014757806317fcfd8e1461015a5780631cb1eac41461016d57806329409837146101805780632a10bc5314610193575b600080fd5b6101586101553660046105ea565b50565b005b610158610168366004610603565b6102d3565b61015861017b366004610678565b61033b565b61015861018e3660046106ac565b610373565b6101586101a13660046106eb565b6103d8565b6101586101b43660046106eb565b610411565b6101586101c73660046106ac565b61044a565b6101d4600881565b60405160ff90911681526020015b60405180910390f35b6101586101f9366004610728565b61047a565b61015861020c366004610678565b6104aa565b600954610224906001600160a01b031681565b6040516001600160a01b0390911681526020016101e2565b61015861024a366004610678565b6104e2565b600a54610224906001600160a01b031681565b610158610270366004610678565b61051a565b610158610283366004610745565b610552565b610158610296366004610678565b5050565b600854610224906001600160a01b031681565b6101586102bb366004610728565b610582565b6101586102ce366004610678565b6105b2565b60235460405163027edeab60e21b81526001600160a01b03909116906309fb7aac906103059085908590600401610780565b600060405180830381600087803b15801561031f57600080fd5b505af1158015610333573d6000803e3d6000fd5b505050505050565b60235460405163e606789b60e01b815260048101849052602481018390526001600160a01b039091169063e606789b90604401610305565b60235460405163fe1b724560e01b81526001600160a01b039091169063fe1b7245906103a39084906004016107c9565b600060405180830381600087803b1580156103bd57600080fd5b505af11580156103d1573d6000803e3d6000fd5b5050505050565b601f546040516311f9fbc960e21b81526001600160a01b03848116600483015260248201849052909116906347e7ef2490604401610305565b601f5460405163750b5a1960e01b81526001600160a01b038481166004830152602482018490529091169063750b5a1990604401610305565b60255460405163545b6c5560e11b81526001600160a01b039091169063a8b6d8aa906103a390849060040161082b565b602354604051637431564760e01b81526001600160a01b03909116906374315647906103a390849060040161088f565b602554604051630edbe45160e21b815260048101849052602481018390526001600160a01b0390911690633b6f914490604401610305565b601f546040516313874d3760e01b815260048101849052602481018390526001600160a01b03909116906313874d3790604401610305565b6023546040516359086dc960e01b815260048101849052602481018390526001600160a01b03909116906359086dc990604401610305565b601f5460405163115647f760e01b81526001600160a01b039091169063115647f7906103a390849060040161095f565b6025546040516353e5b30160e11b81526001600160a01b039091169063a7cb6602906103a3908490600401610a19565b6025546040516313a86f7b60e31b815260048101849052602481018390526001600160a01b0390911690639d437bd890604401610305565b60006101e082840312156105fd57600080fd5b50919050565b6000806020838503121561061657600080fd5b823567ffffffffffffffff8082111561062e57600080fd5b818501915085601f83011261064257600080fd5b81358181111561065157600080fd5b8660208260051b850101111561066657600080fd5b60209290920196919550909350505050565b6000806040838503121561068b57600080fd5b50508035926020909101359150565b600060c082840312156105fd57600080fd5b600060c082840312156106be57600080fd5b6106c8838361069a565b9392505050565b80356001600160a01b03811681146106e657600080fd5b919050565b600080604083850312156106fe57600080fd5b610707836106cf565b946020939093013593505050565b600061010082840312156105fd57600080fd5b6000610100828403121561073b57600080fd5b6106c88383610715565b60006020828403121561075757600080fd5b813567ffffffffffffffff81111561076e57600080fd5b8201606081850312156106c857600080fd5b6020808252810182905260006001600160fb1b038311156107a057600080fd5b8260051b80856040850137919091016040019392505050565b803580151581146106e657600080fd5b8135815260c081016107dd602084016107b9565b151560208301526107f0604084016107b9565b151560408301526001600160a01b0361080b606085016106cf565b1660608301526080830135608083015260a083013560a083015292915050565b60c081016001600160a01b0380610841856106cf565b16835280610851602086016106cf565b16602084015280610864604086016106cf565b16604084015250606083013560608301526080830135608083015260a083013560a083015292915050565b8135815261010081016108a4602084016107b9565b151560208301526108b7604084016107b9565b151560408301526108ca606084016107b9565b15156060830152608083810135908301526001600160a01b036108ef60a085016106cf565b1660a083015260c083013560c083015260e083013560e083015292915050565b6000808335601e1984360301811261092657600080fd5b830160208101925035905067ffffffffffffffff81111561094657600080fd5b8060051b360382131561095857600080fd5b9250929050565b6020808252600090608083016001600160a01b038061097d876106cf565b168386015261098e8387018761090f565b60606040880152928390529160009060a087015b818310156109c957836109b4866106cf565b168152938501936001929092019185016109a2565b6109d660408a018a61090f565b898303601f190160608b01528083529550935085019150600090505b83811015610a0e578235825291840191908401906001016109f2565b509695505050505050565b61010081016001600160a01b0380610a30856106cf565b16835280610a40602086016106cf565b1660208401525060408301356040830152606083013560608301526080830135608083015260a083013560a0830152610a7b60c084016107b9565b151560c0830152610a8e60e084016107b9565b151560e08301529291505056fea26469706673582212209b77a5f2d7f7812cd93771f91898d25010e95017651a3bfda45b228de39302c564736f6c6343000819003360806040526005805460ff1916601217905534801561001d57600080fd5b506040518060400160405280600d81526020016c09adec6d640ccdee440ae8aa89609b1b81525060126040518060400160405280600a81526020016926b7b1b5903a37b5b2b760b11b8152508281600390816100799190610146565b5060046100868282610146565b50506005805460ff191660ff9390931692909217909155506102059050565b634e487b7160e01b600052604160045260246000fd5b600181811c908216806100cf57607f821691505b6020821081036100ef57634e487b7160e01b600052602260045260246000fd5b50919050565b601f821115610141576000816000526020600020601f850160051c8101602086101561011e5750805b601f850160051c820191505b8181101561013d5782815560010161012a565b5050505b505050565b81516001600160401b0381111561015f5761015f6100a5565b6101738161016d84546100bb565b846100f5565b602080601f8311600181146101a857600084156101905750858301515b600019600386901b1c1916600185901b17855561013d565b600085815260208120601f198616915b828110156101d7578886015182559484019460019091019084016101b8565b50858210156101f55787850151600019600388901b60f8161c191681555b5050505050600190811b01905550565b610c2e806102146000396000f3fe6080604052600436106100e05760003560e01c806340c10f1911610084578063a457c2d711610056578063a457c2d714610270578063a9059cbb14610290578063d0e30db0146102b0578063dd62ed3e146102b857005b806340c10f19146101e557806370a082311461020557806395d89b411461023b5780639dc29fac1461025057005b806323b872dd116100bd57806323b872dd146101635780632e1a7d4d14610183578063313ce567146101a357806339509351146101c557005b806306fdde03146100e9578063095ea7b31461011457806318160ddd1461014457005b366100e757005b005b3480156100f557600080fd5b506100fe6102d8565b60405161010b9190610a5e565b60405180910390f35b34801561012057600080fd5b5061013461012f366004610ac9565b61036a565b604051901515815260200161010b565b34801561015057600080fd5b506002545b60405190815260200161010b565b34801561016f57600080fd5b5061013461017e366004610af3565b610384565b34801561018f57600080fd5b506100e761019e366004610b2f565b6103a8565b3480156101af57600080fd5b5060055460405160ff909116815260200161010b565b3480156101d157600080fd5b506101346101e0366004610ac9565b61042d565b3480156101f157600080fd5b506100e7610200366004610ac9565b61044f565b34801561021157600080fd5b50610155610220366004610b48565b6001600160a01b031660009081526020819052604090205490565b34801561024757600080fd5b506100fe610459565b34801561025c57600080fd5b506100e761026b366004610ac9565b610468565b34801561027c57600080fd5b5061013461028b366004610ac9565b610472565b34801561029c57600080fd5b506101346102ab366004610ac9565b6104ed565b6100e76104fb565b3480156102c457600080fd5b506101556102d3366004610b6a565b610507565b6060600380546102e790610b9d565b80601f016020809104026020016040519081016040528092919081815260200182805461031390610b9d565b80156103605780601f1061033557610100808354040283529160200191610360565b820191906000526020600020905b81548152906001019060200180831161034357829003601f168201915b5050505050905090565b600033610378818585610532565b60019150505b92915050565b600033610392858285610657565b61039d8585856106d1565b506001949350505050565b6103b23382610875565b604051600090339083908381818185875af1925050503d80600081146103f4576040519150601f19603f3d011682016040523d82523d6000602084013e6103f9565b606091505b5050905080610429576040516351134c8960e11b8152336004820152602481018390526044015b60405180910390fd5b5050565b6000336103788185856104408383610507565b61044a9190610bd7565b610532565b610429828261099f565b6060600480546102e790610b9d565b6104298282610875565b600033816104808286610507565b9050838110156104e05760405162461bcd60e51b815260206004820152602560248201527f45524332303a2064656372656173656420616c6c6f77616e63652062656c6f77604482015264207a65726f60d81b6064820152608401610420565b61039d8286868403610532565b6000336103788185856106d1565b610505333461099f565b565b6001600160a01b03918216600090815260016020908152604080832093909416825291909152205490565b6001600160a01b0383166105945760405162461bcd60e51b8152602060048201526024808201527f45524332303a20617070726f76652066726f6d20746865207a65726f206164646044820152637265737360e01b6064820152608401610420565b6001600160a01b0382166105f55760405162461bcd60e51b815260206004820152602260248201527f45524332303a20617070726f766520746f20746865207a65726f206164647265604482015261737360f01b6064820152608401610420565b6001600160a01b0383811660008181526001602090815260408083209487168084529482529182902085905590518481527f8c5be1e5ebec7d5bd14f71427d1e84f3dd0314c0f7b2291e5b200ac8c7c3b92591015b60405180910390a3505050565b60006106638484610507565b905060001981146106cb57818110156106be5760405162461bcd60e51b815260206004820152601d60248201527f45524332303a20696e73756666696369656e7420616c6c6f77616e63650000006044820152606401610420565b6106cb8484848403610532565b50505050565b6001600160a01b0383166107355760405162461bcd60e51b815260206004820152602560248201527f45524332303a207472616e736665722066726f6d20746865207a65726f206164604482015264647265737360d81b6064820152608401610420565b6001600160a01b0382166107975760405162461bcd60e51b815260206004820152602360248201527f45524332303a207472616e7366657220746f20746865207a65726f206164647260448201526265737360e81b6064820152608401610420565b6001600160a01b0383166000908152602081905260409020548181101561080f5760405162461bcd60e51b815260206004820152602660248201527f45524332303a207472616e7366657220616d6f756e7420657863656564732062604482015265616c616e636560d01b6064820152608401610420565b6001600160a01b03848116600081815260208181526040808320878703905593871680835291849020805487019055925185815290927fddf252ad1be2c89b69c2b068fc378daa952ba7f163c4a11628f55a4df523b3ef910160405180910390a36106cb565b6001600160a01b0382166108d55760405162461bcd60e51b815260206004820152602160248201527f45524332303a206275726e2066726f6d20746865207a65726f206164647265736044820152607360f81b6064820152608401610420565b6001600160a01b038216600090815260208190526040902054818110156109495760405162461bcd60e51b815260206004820152602260248201527f45524332303a206275726e20616d6f756e7420657863656564732062616c616e604482015261636560f01b6064820152608401610420565b6001600160a01b0383166000818152602081815260408083208686039055600280548790039055518581529192917fddf252ad1be2c89b69c2b068fc378daa952ba7f163c4a11628f55a4df523b3ef910161064a565b6001600160a01b0382166109f55760405162461bcd60e51b815260206004820152601f60248201527f45524332303a206d696e7420746f20746865207a65726f2061646472657373006044820152606401610420565b8060026000828254610a079190610bd7565b90915550506001600160a01b038216600081815260208181526040808320805486019055518481527fddf252ad1be2c89b69c2b068fc378daa952ba7f163c4a11628f55a4df523b3ef910160405180910390a35050565b60006020808352835180602085015260005b81811015610a8c57858101830151858201604001528201610a70565b506000604082860101526040601f19601f8301168501019250505092915050565b80356001600160a01b0381168114610ac457600080fd5b919050565b60008060408385031215610adc57600080fd5b610ae583610aad565b946020939093013593505050565b600080600060608486031215610b0857600080fd5b610b1184610aad565b9250610b1f60208501610aad565b9150604084013590509250925092565b600060208284031215610b4157600080fd5b5035919050565b600060208284031215610b5a57600080fd5b610b6382610aad565b9392505050565b60008060408385031215610b7d57600080fd5b610b8683610aad565b9150610b9460208401610aad565b90509250929050565b600181811c90821680610bb157607f821691505b602082108103610bd157634e487b7160e01b600052602260045260246000fd5b50919050565b8082018082111561037e57634e487b7160e01b600052601160045260246000fdfea2646970667358221220694afab354f2c8b521845081a940d7e858e7cf34a316e61907f589bc909f0d2564736f6c6343000819003360806040526005805460ff1916601217905534801561001d57600080fd5b50604051610e37380380610e3783398101604081905261003c916100c2565b60408051808201909152600a81526926b7b1b5903a37b5b2b760b11b602082015282600361006a8382610227565b5060046100778282610227565b50506005805460ff191660ff9390931692909217909155506102e69050565b634e487b7160e01b600052604160045260246000fd5b805160ff811681146100bd57600080fd5b919050565b600080604083850312156100d557600080fd5b82516001600160401b03808211156100ec57600080fd5b818501915085601f83011261010057600080fd5b81518181111561011257610112610096565b604051601f8201601f19908116603f0116810190838211818310171561013a5761013a610096565b8160405282815260209350888484870101111561015657600080fd5b600091505b82821015610178578482018401518183018501529083019061015b565b60008484830101528096505050506101918186016100ac565b925050509250929050565b600181811c908216806101b057607f821691505b6020821081036101d057634e487b7160e01b600052602260045260246000fd5b50919050565b601f821115610222576000816000526020600020601f850160051c810160208610156101ff5750805b601f850160051c820191505b8181101561021e5782815560010161020b565b5050505b505050565b81516001600160401b0381111561024057610240610096565b6102548161024e845461019c565b846101d6565b602080601f83116001811461028957600084156102715750858301515b600019600386901b1c1916600185901b17855561021e565b600085815260208120601f198616915b828110156102b857888601518255948401946001909101908401610299565b50858210156102d65787850151600019600388901b60f8161c191681555b5050505050600190811b01905550565b610b42806102f56000396000f3fe6080604052600436106100bd5760003560e01c806340c10f19116100795780639dc29fac116100565780639dc29fac1461020d578063a457c2d71461022d578063a9059cbb1461024d578063dd62ed3e1461026d57005b806340c10f19146101a257806370a08231146101c257806395d89b41146101f857005b806306fdde03146100c6578063095ea7b3146100f157806318160ddd1461012157806323b872dd14610140578063313ce56714610160578063395093511461018257005b366100c457005b005b3480156100d257600080fd5b506100db61028d565b6040516100e8919061098b565b60405180910390f35b3480156100fd57600080fd5b5061011161010c3660046109f6565b61031f565b60405190151581526020016100e8565b34801561012d57600080fd5b506002545b6040519081526020016100e8565b34801561014c57600080fd5b5061011161015b366004610a20565b610339565b34801561016c57600080fd5b5060055460405160ff90911681526020016100e8565b34801561018e57600080fd5b5061011161019d3660046109f6565b61035d565b3480156101ae57600080fd5b506100c46101bd3660046109f6565b61037f565b3480156101ce57600080fd5b506101326101dd366004610a5c565b6001600160a01b031660009081526020819052604090205490565b34801561020457600080fd5b506100db61038d565b34801561021957600080fd5b506100c46102283660046109f6565b61039c565b34801561023957600080fd5b506101116102483660046109f6565b6103a6565b34801561025957600080fd5b506101116102683660046109f6565b610426565b34801561027957600080fd5b50610132610288366004610a7e565b610434565b60606003805461029c90610ab1565b80601f01602080910402602001604051908101604052809291908181526020018280546102c890610ab1565b80156103155780601f106102ea57610100808354040283529160200191610315565b820191906000526020600020905b8154815290600101906020018083116102f857829003601f168201915b5050505050905090565b60003361032d81858561045f565b60019150505b92915050565b600033610347858285610584565b6103528585856105fe565b506001949350505050565b60003361032d8185856103708383610434565b61037a9190610aeb565b61045f565b61038982826107a2565b5050565b60606004805461029c90610ab1565b6103898282610861565b600033816103b48286610434565b9050838110156104195760405162461bcd60e51b815260206004820152602560248201527f45524332303a2064656372656173656420616c6c6f77616e63652062656c6f77604482015264207a65726f60d81b60648201526084015b60405180910390fd5b610352828686840361045f565b60003361032d8185856105fe565b6001600160a01b03918216600090815260016020908152604080832093909416825291909152205490565b6001600160a01b0383166104c15760405162461bcd60e51b8152602060048201526024808201527f45524332303a20617070726f76652066726f6d20746865207a65726f206164646044820152637265737360e01b6064820152608401610410565b6001600160a01b0382166105225760405162461bcd60e51b815260206004820152602260248201527f45524332303a20617070726f766520746f20746865207a65726f206164647265604482015261737360f01b6064820152608401610410565b6001600160a01b0383811660008181526001602090815260408083209487168084529482529182902085905590518481527f8c5be1e5ebec7d5bd14f71427d1e84f3dd0314c0f7b2291e5b200ac8c7c3b92591015b60405180910390a3505050565b60006105908484610434565b905060001981146105f857818110156105eb5760405162461bcd60e51b815260206004820152601d60248201527f45524332303a20696e73756666696369656e7420616c6c6f77616e63650000006044820152606401610410565b6105f8848484840361045f565b50505050565b6001600160a01b0383166106625760405162461bcd60e51b815260206004820152602560248201527f45524332303a207472616e736665722066726f6d20746865207a65726f206164604482015264647265737360d81b6064820152608401610410565b6001600160a01b0382166106c45760405162461bcd60e51b815260206004820152602360248201527f45524332303a207472616e7366657220746f20746865207a65726f206164647260448201526265737360e81b6064820152608401610410565b6001600160a01b0383166000908152602081905260409020548181101561073c5760405162461bcd60e51b815260206004820152602660248201527f45524332303a207472616e7366657220616d6f756e7420657863656564732062604482015265616c616e636560d01b6064820152608401610410565b6001600160a01b03848116600081815260208181526040808320878703905593871680835291849020805487019055925185815290927fddf252ad1be2c89b69c2b068fc378daa952ba7f163c4a11628f55a4df523b3ef910160405180910390a36105f8565b6001600160a01b0382166107f85760405162461bcd60e51b815260206004820152601f60248201527f45524332303a206d696e7420746f20746865207a65726f2061646472657373006044820152606401610410565b806002600082825461080a9190610aeb565b90915550506001600160a01b038216600081815260208181526040808320805486019055518481527fddf252ad1be2c89b69c2b068fc378daa952ba7f163c4a11628f55a4df523b3ef910160405180910390a35050565b6001600160a01b0382166108c15760405162461bcd60e51b815260206004820152602160248201527f45524332303a206275726e2066726f6d20746865207a65726f206164647265736044820152607360f81b6064820152608401610410565b6001600160a01b038216600090815260208190526040902054818110156109355760405162461bcd60e51b815260206004820152602260248201527f45524332303a206275726e20616d6f756e7420657863656564732062616c616e604482015261636560f01b6064820152608401610410565b6001600160a01b0383166000818152602081815260408083208686039055600280548790039055518581529192917fddf252ad1be2c89b69c2b068fc378daa952ba7f163c4a11628f55a4df523b3ef9101610577565b60006020808352835180602085015260005b818110156109b95785810183015185820160400152820161099d565b506000604082860101526040601f19601f8301168501019250505092915050565b80356001600160a01b03811681146109f157600080fd5b919050565b60008060408385031215610a0957600080fd5b610a12836109da565b946020939093013593505050565b600080600060608486031215610a3557600080fd5b610a3e846109da565b9250610a4c602085016109da565b9150604084013590509250925092565b600060208284031215610a6e57600080fd5b610a77826109da565b9392505050565b60008060408385031215610a9157600080fd5b610a9a836109da565b9150610aa8602084016109da565b90509250929050565b600181811c90821680610ac557607f821691505b602082108103610ae557634e487b7160e01b600052602260045260246000fd5b50919050565b8082018082111561033357634e487b7160e01b600052601160045260246000fdfea2646970667358221220bbe19ff4b3b5b3a7367183bf7a7f05443384abe78b28d6482fb6d4322d39c6a664736f6c63430008190033608060405234801561001057600080fd5b50604051610ad3380380610ad383398101604081905261002f91610100565b8061005a7fa49807205ce4d355092ef5a8a18f56e8913cf4a201fbe287825b095693c2177582610061565b5050610130565b6000828152602081815260408083206001600160a01b038516845290915290205460ff166100fc576000828152602081815260408083206001600160a01b03851684529091529020805460ff191660011790556100bb3390565b6001600160a01b0316816001600160a01b0316837f2f8788117e7eff1d82e926ec794901d17c78024a50270940304540a733656f0d60405160405180910390a45b5050565b60006020828403121561011257600080fd5b81516001600160a01b038116811461012957600080fd5b9392505050565b6109948061013f6000396000f3fe608060405234801561001057600080fd5b50600436106100a95760003560e01c806335bb3e161161007157806335bb3e161461014257806336568abe1461015557806375b238fc1461016857806391d148541461017d578063a217fddf14610190578063d547741f1461019857600080fd5b806301ffc9a7146100ae578063078d3b79146100d6578063248a9ca3146100eb5780632d3456701461011c5780632f2ff15d1461012f575b600080fd5b6100c16100bc36600461070d565b6101ab565b60405190151581526020015b60405180910390f35b6100e96100e4366004610753565b6101e2565b005b61010e6100f936600461078f565b60009081526020819052604090206001015490565b6040519081526020016100cd565b6100e961012a3660046107a8565b6102b3565b6100e961013d3660046107c3565b6102e7565b6100e96101503660046107a8565b610311565b6100e96101633660046107c3565b610341565b61010e60008051602061093f83398151915281565b6100c161018b3660046107c3565b6103bb565b61010e600081565b6100e96101a63660046107c3565b6103e4565b60006001600160e01b03198216637965db0b60e01b14806101dc57506301ffc9a760e01b6001600160e01b03198316145b92915050565b60008051602061093f8339815191526101fa81610409565b306001600160a01b0384160361023357604051638d6a597160e01b81526001600160a01b03841660048201526024015b60405180910390fd5b6040516317d5759960e31b81526001600160a01b038086166004830152841660248201526044810183905273__$37ba7fa00e1775c4c1178ee9b1b75f62af$__9063beabacc89060640160006040518083038186803b15801561029557600080fd5b505af41580156102a9573d6000803e3d6000fd5b5050505050505050565b60008051602061093f8339815191526102cb81610409565b6102e360008051602061093f83398151915283610416565b5050565b60008281526020819052604090206001015461030281610409565b61030c838361047b565b505050565b60008051602061093f83398151915261032981610409565b6102e360008051602061093f8339815191528361047b565b6001600160a01b03811633146103b15760405162461bcd60e51b815260206004820152602f60248201527f416363657373436f6e74726f6c3a2063616e206f6e6c792072656e6f756e636560448201526e103937b632b9903337b91039b2b63360891b606482015260840161022a565b6102e38282610416565b6000918252602082815260408084206001600160a01b0393909316845291905290205460ff1690565b6000828152602081905260409020600101546103ff81610409565b61030c8383610416565b61041381336104ff565b50565b61042082826103bb565b156102e3576000828152602081815260408083206001600160a01b0385168085529252808320805460ff1916905551339285917ff6391f5c32d9c69d2a47ea670b442974b53935d1edc7fd64eb21e047a839171b9190a45050565b61048582826103bb565b6102e3576000828152602081815260408083206001600160a01b03851684529091529020805460ff191660011790556104bb3390565b6001600160a01b0316816001600160a01b0316837f2f8788117e7eff1d82e926ec794901d17c78024a50270940304540a733656f0d60405160405180910390a45050565b61050982826103bb565b6102e35761051681610558565b61052183602061056a565b604051602001610532929190610813565b60408051601f198184030181529082905262461bcd60e51b825261022a91600401610888565b60606101dc6001600160a01b03831660145b606060006105798360026108d1565b6105849060026108e8565b67ffffffffffffffff81111561059c5761059c6108fb565b6040519080825280601f01601f1916602001820160405280156105c6576020820181803683370190505b509050600360fc1b816000815181106105e1576105e1610911565b60200101906001600160f81b031916908160001a905350600f60fb1b8160018151811061061057610610610911565b60200101906001600160f81b031916908160001a90535060006106348460026108d1565b61063f9060016108e8565b90505b60018111156106b7576f181899199a1a9b1b9c1cb0b131b232b360811b85600f166010811061067357610673610911565b1a60f81b82828151811061068957610689610911565b60200101906001600160f81b031916908160001a90535060049490941c936106b081610927565b9050610642565b5083156107065760405162461bcd60e51b815260206004820181905260248201527f537472696e67733a20686578206c656e67746820696e73756666696369656e74604482015260640161022a565b9392505050565b60006020828403121561071f57600080fd5b81356001600160e01b03198116811461070657600080fd5b80356001600160a01b038116811461074e57600080fd5b919050565b60008060006060848603121561076857600080fd5b61077184610737565b925061077f60208501610737565b9150604084013590509250925092565b6000602082840312156107a157600080fd5b5035919050565b6000602082840312156107ba57600080fd5b61070682610737565b600080604083850312156107d657600080fd5b823591506107e660208401610737565b90509250929050565b60005b8381101561080a5781810151838201526020016107f2565b50506000910152565b7f416363657373436f6e74726f6c3a206163636f756e742000000000000000000081526000835161084b8160178501602088016107ef565b7001034b99036b4b9b9b4b733903937b6329607d1b601791840191820152835161087c8160288401602088016107ef565b01602801949350505050565b60208152600082518060208401526108a78160408501602087016107ef565b601f01601f19169190910160400192915050565b634e487b7160e01b600052601160045260246000fd5b80820281158282048414176101dc576101dc6108bb565b808201808211156101dc576101dc6108bb565b634e487b7160e01b600052604160045260246000fd5b634e487b7160e01b600052603260045260246000fd5b600081610936576109366108bb565b50600019019056fea49807205ce4d355092ef5a8a18f56e8913cf4a201fbe287825b095693c21775a26469706673582212200982414401b8578f0ca632c1c8ddcaae2106174e1c43041fa08b646d07245dab64736f6c63430008190033608060405234801561001057600080fd5b50604051610ad3380380610ad383398101604081905261002f91610100565b8061005a7fa49807205ce4d355092ef5a8a18f56e8913cf4a201fbe287825b095693c2177582610061565b5050610130565b6000828152602081815260408083206001600160a01b038516845290915290205460ff166100fc576000828152602081815260408083206001600160a01b03851684529091529020805460ff191660011790556100bb3390565b6001600160a01b0316816001600160a01b0316837f2f8788117e7eff1d82e926ec794901d17c78024a50270940304540a733656f0d60405160405180910390a45b5050565b60006020828403121561011257600080fd5b81516001600160a01b038116811461012957600080fd5b9392505050565b6109948061013f6000396000f3fe608060405234801561001057600080fd5b50600436106100a95760003560e01c806335bb3e161161007157806335bb3e161461014257806336568abe1461015557806375b238fc1461016857806391d148541461017d578063a217fddf14610190578063d547741f1461019857600080fd5b806301ffc9a7146100ae578063078d3b79146100d6578063248a9ca3146100eb5780632d3456701461011c5780632f2ff15d1461012f575b600080fd5b6100c16100bc36600461070d565b6101ab565b60405190151581526020015b60405180910390f35b6100e96100e4366004610753565b6101e2565b005b61010e6100f936600461078f565b60009081526020819052604090206001015490565b6040519081526020016100cd565b6100e961012a3660046107a8565b6102b3565b6100e961013d3660046107c3565b6102e7565b6100e96101503660046107a8565b610311565b6100e96101633660046107c3565b610341565b61010e60008051602061093f83398151915281565b6100c161018b3660046107c3565b6103bb565b61010e600081565b6100e96101a63660046107c3565b6103e4565b60006001600160e01b03198216637965db0b60e01b14806101dc57506301ffc9a760e01b6001600160e01b03198316145b92915050565b60008051602061093f8339815191526101fa81610409565b306001600160a01b0384160361023357604051638d6a597160e01b81526001600160a01b03841660048201526024015b60405180910390fd5b6040516317d5759960e31b81526001600160a01b038086166004830152841660248201526044810183905273__$37ba7fa00e1775c4c1178ee9b1b75f62af$__9063beabacc89060640160006040518083038186803b15801561029557600080fd5b505af41580156102a9573d6000803e3d6000fd5b5050505050505050565b60008051602061093f8339815191526102cb81610409565b6102e360008051602061093f83398151915283610416565b5050565b60008281526020819052604090206001015461030281610409565b61030c838361047b565b505050565b60008051602061093f83398151915261032981610409565b6102e360008051602061093f8339815191528361047b565b6001600160a01b03811633146103b15760405162461bcd60e51b815260206004820152602f60248201527f416363657373436f6e74726f6c3a2063616e206f6e6c792072656e6f756e636560448201526e103937b632b9903337b91039b2b63360891b606482015260840161022a565b6102e38282610416565b6000918252602082815260408084206001600160a01b0393909316845291905290205460ff1690565b6000828152602081905260409020600101546103ff81610409565b61030c8383610416565b61041381336104ff565b50565b61042082826103bb565b156102e3576000828152602081815260408083206001600160a01b0385168085529252808320805460ff1916905551339285917ff6391f5c32d9c69d2a47ea670b442974b53935d1edc7fd64eb21e047a839171b9190a45050565b61048582826103bb565b6102e3576000828152602081815260408083206001600160a01b03851684529091529020805460ff191660011790556104bb3390565b6001600160a01b0316816001600160a01b0316837f2f8788117e7eff1d82e926ec794901d17c78024a50270940304540a733656f0d60405160405180910390a45050565b61050982826103bb565b6102e35761051681610558565b61052183602061056a565b604051602001610532929190610813565b60408051601f198184030181529082905262461bcd60e51b825261022a91600401610888565b60606101dc6001600160a01b03831660145b606060006105798360026108d1565b6105849060026108e8565b67ffffffffffffffff81111561059c5761059c6108fb565b6040519080825280601f01601f1916602001820160405280156105c6576020820181803683370190505b509050600360fc1b816000815181106105e1576105e1610911565b60200101906001600160f81b031916908160001a905350600f60fb1b8160018151811061061057610610610911565b60200101906001600160f81b031916908160001a90535060006106348460026108d1565b61063f9060016108e8565b90505b60018111156106b7576f181899199a1a9b1b9c1cb0b131b232b360811b85600f166010811061067357610673610911565b1a60f81b82828151811061068957610689610911565b60200101906001600160f81b031916908160001a90535060049490941c936106b081610927565b9050610642565b5083156107065760405162461bcd60e51b815260206004820181905260248201527f537472696e67733a20686578206c656e67746820696e73756666696369656e74604482015260640161022a565b9392505050565b60006020828403121561071f57600080fd5b81356001600160e01b03198116811461070657600080fd5b80356001600160a01b038116811461074e57600080fd5b919050565b60008060006060848603121561076857600080fd5b61077184610737565b925061077f60208501610737565b9150604084013590509250925092565b6000602082840312156107a157600080fd5b5035919050565b6000602082840312156107ba57600080fd5b61070682610737565b600080604083850312156107d657600080fd5b823591506107e660208401610737565b90509250929050565b60005b8381101561080a5781810151838201526020016107f2565b50506000910152565b7f416363657373436f6e74726f6c3a206163636f756e742000000000000000000081526000835161084b8160178501602088016107ef565b7001034b99036b4b9b9b4b733903937b6329607d1b601791840191820152835161087c8160288401602088016107ef565b01602801949350505050565b60208152600082518060208401526108a78160408501602087016107ef565b601f01601f19169190910160400192915050565b634e487b7160e01b600052601160045260246000fd5b80820281158282048414176101dc576101dc6108bb565b808201808211156101dc576101dc6108bb565b634e487b7160e01b600052604160045260246000fd5b634e487b7160e01b600052603260045260246000fd5b600081610936576109366108bb565b50600019019056fea49807205ce4d355092ef5a8a18f56e8913cf4a201fbe287825b095693c21775a2646970667358221220b230324905bed288863df737d35d51763bd2e15c7d920d137d5bf9cb2166fd9d64736f6c63430008190033608060405234801561001057600080fd5b50604051610ad3380380610ad383398101604081905261002f91610100565b8061005a7fa49807205ce4d355092ef5a8a18f56e8913cf4a201fbe287825b095693c2177582610061565b5050610130565b6000828152602081815260408083206001600160a01b038516845290915290205460ff166100fc576000828152602081815260408083206001600160a01b03851684529091529020805460ff191660011790556100bb3390565b6001600160a01b0316816001600160a01b0316837f2f8788117e7eff1d82e926ec794901d17c78024a50270940304540a733656f0d60405160405180910390a45b5050565b60006020828403121561011257600080fd5b81516001600160a01b038116811461012957600080fd5b9392505050565b6109948061013f6000396000f3fe608060405234801561001057600080fd5b50600436106100a95760003560e01c806335bb3e161161007157806335bb3e161461014257806336568abe1461015557806375b238fc1461016857806391d148541461017d578063a217fddf14610190578063d547741f1461019857600080fd5b806301ffc9a7146100ae578063078d3b79146100d6578063248a9ca3146100eb5780632d3456701461011c5780632f2ff15d1461012f575b600080fd5b6100c16100bc36600461070d565b6101ab565b60405190151581526020015b60405180910390f35b6100e96100e4366004610753565b6101e2565b005b61010e6100f936600461078f565b60009081526020819052604090206001015490565b6040519081526020016100cd565b6100e961012a3660046107a8565b6102b3565b6100e961013d3660046107c3565b6102e7565b6100e96101503660046107a8565b610311565b6100e96101633660046107c3565b610341565b61010e60008051602061093f83398151915281565b6100c161018b3660046107c3565b6103bb565b61010e600081565b6100e96101a63660046107c3565b6103e4565b60006001600160e01b03198216637965db0b60e01b14806101dc57506301ffc9a760e01b6001600160e01b03198316145b92915050565b60008051602061093f8339815191526101fa81610409565b306001600160a01b0384160361023357604051638d6a597160e01b81526001600160a01b03841660048201526024015b60405180910390fd5b6040516317d5759960e31b81526001600160a01b038086166004830152841660248201526044810183905273__$37ba7fa00e1775c4c1178ee9b1b75f62af$__9063beabacc89060640160006040518083038186803b15801561029557600080fd5b505af41580156102a9573d6000803e3d6000fd5b5050505050505050565b60008051602061093f8339815191526102cb81610409565b6102e360008051602061093f83398151915283610416565b5050565b60008281526020819052604090206001015461030281610409565b61030c838361047b565b505050565b60008051602061093f83398151915261032981610409565b6102e360008051602061093f8339815191528361047b565b6001600160a01b03811633146103b15760405162461bcd60e51b815260206004820152602f60248201527f416363657373436f6e74726f6c3a2063616e206f6e6c792072656e6f756e636560448201526e103937b632b9903337b91039b2b63360891b606482015260840161022a565b6102e38282610416565b6000918252602082815260408084206001600160a01b0393909316845291905290205460ff1690565b6000828152602081905260409020600101546103ff81610409565b61030c8383610416565b61041381336104ff565b50565b61042082826103bb565b156102e3576000828152602081815260408083206001600160a01b0385168085529252808320805460ff1916905551339285917ff6391f5c32d9c69d2a47ea670b442974b53935d1edc7fd64eb21e047a839171b9190a45050565b61048582826103bb565b6102e3576000828152602081815260408083206001600160a01b03851684529091529020805460ff191660011790556104bb3390565b6001600160a01b0316816001600160a01b0316837f2f8788117e7eff1d82e926ec794901d17c78024a50270940304540a733656f0d60405160405180910390a45050565b61050982826103bb565b6102e35761051681610558565b61052183602061056a565b604051602001610532929190610813565b60408051601f198184030181529082905262461bcd60e51b825261022a91600401610888565b60606101dc6001600160a01b03831660145b606060006105798360026108d1565b6105849060026108e8565b67ffffffffffffffff81111561059c5761059c6108fb565b6040519080825280601f01601f1916602001820160405280156105c6576020820181803683370190505b509050600360fc1b816000815181106105e1576105e1610911565b60200101906001600160f81b031916908160001a905350600f60fb1b8160018151811061061057610610610911565b60200101906001600160f81b031916908160001a90535060006106348460026108d1565b61063f9060016108e8565b90505b60018111156106b7576f181899199a1a9b1b9c1cb0b131b232b360811b85600f166010811061067357610673610911565b1a60f81b82828151811061068957610689610911565b60200101906001600160f81b031916908160001a90535060049490941c936106b081610927565b9050610642565b5083156107065760405162461bcd60e51b815260206004820181905260248201527f537472696e67733a20686578206c656e67746820696e73756666696369656e74604482015260640161022a565b9392505050565b60006020828403121561071f57600080fd5b81356001600160e01b03198116811461070657600080fd5b80356001600160a01b038116811461074e57600080fd5b919050565b60008060006060848603121561076857600080fd5b61077184610737565b925061077f60208501610737565b9150604084013590509250925092565b6000602082840312156107a157600080fd5b5035919050565b6000602082840312156107ba57600080fd5b61070682610737565b600080604083850312156107d657600080fd5b823591506107e660208401610737565b90509250929050565b60005b8381101561080a5781810151838201526020016107f2565b50506000910152565b7f416363657373436f6e74726f6c3a206163636f756e742000000000000000000081526000835161084b8160178501602088016107ef565b7001034b99036b4b9b9b4b733903937b6329607d1b601791840191820152835161087c8160288401602088016107ef565b01602801949350505050565b60208152600082518060208401526108a78160408501602087016107ef565b601f01601f19169190910160400192915050565b634e487b7160e01b600052601160045260246000fd5b80820281158282048414176101dc576101dc6108bb565b808201808211156101dc576101dc6108bb565b634e487b7160e01b600052604160045260246000fd5b634e487b7160e01b600052603260045260246000fd5b600081610936576109366108bb565b50600019019056fea49807205ce4d355092ef5a8a18f56e8913cf4a201fbe287825b095693c21775a2646970667358221220b189eb23ca38727dba4e5bffa939905c6427db78096a185249cf479ecdd8770264736f6c634300081900336080604052348015600f57600080fd5b5061011c8061001f6000396000f3fe6080604052348015600f57600080fd5b506004361060285760003560e01c8063e1c7392a14602d575b600080fd5b60e47fdab92b47c5ad1b8db72bf159fe8f1c5404b027a749c8120fa1db90a19db432506020527fb46b76674e207a68011f6dd4115a7d36585809e7100bf87f994f14761fc0bda38054600160ff1991821681179092557fd89dcb904de2ee5a64c455edf3aa8fa4accba0b29a38ebf28a59561a672287a880548216831790556348e2b09360e01b6000527fc2279572da5bef2fd6de7c5d89bb24597ca4c054256566f0be85b2409cffd2d080549091169091179055565b00fea2646970667358221220acb6feaa43ebb57767b9d7fed2bef95b20282e8febb4007e5cce5d88cba0162e64736f6c63430008190033608060405260405161106738038061106783398101604081905261002291610bfd565b610034816420a226a4a760d91b6102a0565b60408051600280825260608201909252600091816020015b6040805160608082018352600080835260208301529181019190915281526020019060019003908161004c5750506040805160018082528183019092529192506000919060208083019080368337019050509050631f931c1c60e01b816000815181106100bb576100bb610c51565b6001600160e01b031990921660209283029190910182015260408051606081019091526001600160a01b038816815290810160008152602001828152508260008151811061010b5761010b610c51565b602090810291909101015260408051600480825260a08201909252600091816020016020820280368337019050509050637a0ed62760e01b8160008151811061015657610156610c51565b6001600160e01b03199092166020928302919091019091015280516314bbdacb60e21b908290600190811061018d5761018d610c51565b6001600160e01b03199092166020928302919091019091015280516366ffd66360e11b90829060029081106101c4576101c4610c51565b6001600160e01b03199092166020928302919091019091015280516356fe50af60e11b90829060039081106101fb576101fb610c51565b6001600160e01b031990921660209283029190910182015260408051606081019091526001600160a01b038816815290810160008152602001828152508360018151811061024b5761024b610c51565b60209081029190910181019190915260408051600481526024810190915290810180516001600160e01b039081166370e39c9560e11b179091526102949185918891906102d516565b50505050505050610eca565b60006102aa61047f565b6001600160a01b03841660009081526020829052604090209091506102cf90836104e1565b50505050565b60005b83518110156104345760008482815181106102f5576102f5610c51565b6020026020010151604001519050600085838151811061031757610317610c51565b602002602001015160000151905081516000036103575760405163e767f91f60e01b81526001600160a01b03821660048201526024015b60405180910390fd5b600086848151811061036b5761036b610c51565b60200260200101516020015190506000600281111561038c5761038c610c67565b81600281111561039e5761039e610c67565b036103b2576103ad82846104f6565b610429565b60018160028111156103c6576103c6610c67565b036103d5576103ad82846106a2565b60028160028111156103e9576103e9610c67565b036103f8576103ad8284610825565b80600281111561040a5761040a610c67565b604051633ff4d20f60e11b815260ff909116600482015260240161034e565b5050506001016102d8565b507f8faa70878671ccd212d20771b795c50af8fd3ff6cf27f4bde57e5d4de0aeb67383838360405161046893929190610ccd565b60405180910390a161047a8282610aa4565b505050565b6000806040516020016104c3906020808252601e908201527f78797a2e656c66692e73746f726167652e416363657373436f6e74726f6c0000604082015260600190565b60408051601f19818403018152919052805160209091012092915050565b60006104ed8383610b6a565b90505b92915050565b6001600160a01b03821661051f57806040516302b8da0760e21b815260040161034e9190610dd0565b60008051602061101f8339815191525460408051606081019091526024808252600080516020610fb3833981519152929161056491869190610fd36020830139610bb9565b60005b835181101561069b57600084828151811061058457610584610c51565b6020908102919091018101516001600160e01b031981166000908152918690526040909120549091506001600160a01b031680156105e15760405163ebbf5d0760e01b81526001600160e01b03198316600482015260240161034e565b6040805180820182526001600160a01b03808a16825261ffff80881660208085019182526001600160e01b0319881660009081528b8252958620945185549251909316600160a01b026001600160b01b0319909216929093169190911717909155600180880180549182018155835291206008820401805460e085901c60046007909416939093026101000a92830263ffffffff90930219169190911790558361068a81610e34565b945050600190920191506105679050565b5050505050565b600080516020610fb38339815191526001600160a01b0383166106da578160405163cd98a96f60e01b815260040161034e9190610dd0565b6106fc8360405180606001604052806028815260200161103f60289139610bb9565b60005b82518110156102cf57600083828151811061071c5761071c610c51565b6020908102919091018101516001600160e01b031981166000908152918590526040909120549091506001600160a01b031630810361077a57604051632901806d60e11b81526001600160e01b03198316600482015260240161034e565b856001600160a01b0316816001600160a01b0316036107b857604051631ac6ce8d60e11b81526001600160e01b03198316600482015260240161034e565b6001600160a01b0381166107eb57604051637479f93960e01b81526001600160e01b03198316600482015260240161034e565b506001600160e01b031916600090815260208390526040902080546001600160a01b0319166001600160a01b0386161790556001016106ff565b60008051602061101f83398151915254600080516020610fb3833981519152906001600160a01b038416156108785760405163d091bc8160e01b81526001600160a01b038516600482015260240161034e565b60005b835181101561069b57600084828151811061089857610898610c51565b6020908102919091018101516001600160e01b0319811660009081528683526040908190208151808301909252546001600160a01b038116808352600160a01b90910461ffff16938201939093529092509061091357604051637a08a22d60e01b81526001600160e01b03198316600482015260240161034e565b8051306001600160a01b039091160361094b57604051630df5fd6160e31b81526001600160e01b03198316600482015260240161034e565b8361095581610e55565b94505083816020015161ffff1614610a3357600085600101858154811061097e5761097e610c51565b90600052602060002090600891828204019190066004029054906101000a900460e01b90508086600101836020015161ffff16815481106109c1576109c1610c51565b600091825260208083206008830401805463ffffffff60079094166004026101000a938402191660e09590951c92909202939093179055838201516001600160e01b03199390931681529087905260409020805461ffff60a01b1916600160a01b61ffff909316929092029190911790555b84600101805480610a4657610a46610e6c565b60008281526020808220600860001990940193840401805463ffffffff600460078716026101000a0219169055919092556001600160e01b0319909316815291859052506040902080546001600160b01b031916905560010161087b565b6001600160a01b038216610ab6575050565b610ad882604051806060016040528060288152602001610ff760289139610bb9565b600080836001600160a01b031683604051610af39190610e82565b600060405180830381855af49150503d8060008114610b2e576040519150601f19603f3d011682016040523d82523d6000602084013e610b33565b606091505b5091509150816102cf57805115610b4d5780518082602001fd5b838360405163192105d760e01b815260040161034e929190610e9e565b6000818152600183016020526040812054610bb1575081546001818101845560008481526020808220909301849055845484825282860190935260409020919091556104f0565b5060006104f0565b813b600081900361047a57828260405163919834b960e01b815260040161034e929190610e9e565b80516001600160a01b0381168114610bf857600080fd5b919050565b60008060008060808587031215610c1357600080fd5b610c1c85610be1565b9350610c2a60208601610be1565b9250610c3860408601610be1565b9150610c4660608601610be1565b905092959194509250565b634e487b7160e01b600052603260045260246000fd5b634e487b7160e01b600052602160045260246000fd5b60005b83811015610c98578181015183820152602001610c80565b50506000910152565b60008151808452610cb9816020860160208601610c7d565b601f01601f19169290920160200192915050565b60006060808301606084528087518083526080925060808601915060808160051b8701016020808b0160005b84811015610da057898403607f19018652815180516001600160a01b03168552838101518986019060038110610d3f57634e487b7160e01b600052602160045260246000fd5b868601526040918201519186018a905281519081905290840190600090898701905b80831015610d8b5783516001600160e01b0319168252928601926001929092019190860190610d61565b50978501979550505090820190600101610cf9565b50506001600160a01b038a16908801528681036040880152610dc28189610ca1565b9a9950505050505050505050565b6020808252825182820181905260009190848201906040850190845b81811015610e125783516001600160e01b03191683529284019291840191600101610dec565b50909695505050505050565b634e487b7160e01b600052601160045260246000fd5b600061ffff808316818103610e4b57610e4b610e1e565b6001019392505050565b600081610e6457610e64610e1e565b506000190190565b634e487b7160e01b600052603160045260246000fd5b60008251610e94818460208701610c7d565b9190910192915050565b6001600160a01b0383168152604060208201819052600090610ec290830184610ca1565b949350505050565b60db80610ed86000396000f3fe608060405236600a57005b60007fdab92b47c5ad1b8db72bf159fe8f1c5404b027a749c8120fa1db90a19db4324e600080356001600160e01b0319168152602082905260409020549091506001600160a01b031680608257604051630a82dd7360e31b81526001600160e01b031960003516600482015260240160405180910390fd5b3660008037600080366000845af43d6000803e80801560a0573d6000f35b3d6000fdfea2646970667358221220020e864faa78ef8638dd8569278bbfe5d794556ad27cdeb3e1d68d2ea386d69f64736f6c63430008190033dab92b47c5ad1b8db72bf159fe8f1c5404b027a749c8120fa1db90a19db4324e4c69624469616d6f6e644375743a2041646420666163657420686173206e6f20636f64654c69624469616d6f6e644375743a205f696e6974206164647265737320686173206e6f20636f6465dab92b47c5ad1b8db72bf159fe8f1c5404b027a749c8120fa1db90a19db4324f4c69624469616d6f6e644375743a205265706c61636520666163657420686173206e6f20636f64656080604052348015600f57600080fd5b50611cfd8061001f6000396000f3fe6080604052600436106100745760003560e01c806347e7ef241161004e57806347e7ef24146100e2578063750b5a19146100f55780637b510fe814610115578063abac56651461014b57600080fd5b806302e9d19914610080578063115647f7146100a257806313874d37146100c257600080fd5b3661007b57005b600080fd5b34801561008c57600080fd5b506100a061009b3660046113a1565b61016b565b005b3480156100ae57600080fd5b506100a06100bd3660046113ec565b610353565b3480156100ce57600080fd5b506100a06100dd366004611426565b61043b565b6100a06100f036600461145d565b61055e565b34801561010157600080fd5b506100a061011036600461145d565b610774565b34801561012157600080fd5b50610135610130366004611489565b610875565b604051610142919061156d565b60405180910390f35b34801561015757600080fd5b50610135610166366004611642565b610c3a565b61017d6525a2a2a822a960d11b61120e565b604051634a83e9cd60e11b81526004810184905260009073__$83cf1728bd700ee00b2b1fab9d79aec544$__90639507d39a90602401606060405180830381865af41580156101d0573d6000803e3d6000fd5b505050506040513d601f19601f820116820180604052508101906101f491906116fc565b80519091506001600160a01b031661021f576040516324d9d15b60e01b815260040160405180910390fd5b604051631d4cb62f60e21b815273__$bb4e55f00c0f45d2719800850b371b8ff8$__90637532d8bc9061025890869086906004016117cf565b60006040518083038186803b15801561027057600080fd5b505af4158015610284573d6000803e3d6000fd5b5050604051632c7dadbd60e21b815273__$ea03dc6e7176064baf45a14dcf3b0b0296$__925063b1f6b6f491506102c190879085906004016117e3565b60006040518083038186803b1580156102d957600080fd5b505af41580156102ed573d6000803e3d6000fd5b5050505073__$bb4e55f00c0f45d2719800850b371b8ff8$__63e52ed3656040518163ffffffff1660e01b815260040160006040518083038186803b15801561033557600080fd5b505af4158015610349573d6000803e3d6000fd5b5050505050505050565b73__$6da87a77f33546d3f0e6244a8f7078a532$__637ff8770061037a6020840184611489565b6040516001600160e01b031960e084901b1681526001600160a01b03909116600482015260240160006040518083038186803b1580156103b957600080fd5b505af41580156103cd573d6000803e3d6000fd5b505060405163eec5b28760e01b815273__$ea03dc6e7176064baf45a14dcf3b0b0296$__925063eec5b2879150610408908490600401611861565b60006040518083038186803b15801561042057600080fd5b505af4158015610434573d6000803e3d6000fd5b5050505050565b61044d6525a2a2a822a960d11b61120e565b604051634a83e9cd60e11b81526004810183905260009073__$83cf1728bd700ee00b2b1fab9d79aec544$__90639507d39a90602401606060405180830381865af41580156104a0573d6000803e3d6000fd5b505050506040513d601f19601f820116820180604052508101906104c491906116fc565b80519091506001600160a01b03166104ef576040516324d9d15b60e01b815260040160405180910390fd5b60405162b5903160e31b815273__$ea03dc6e7176064baf45a14dcf3b0b0296$__906305ac81889061052990869085908790600401611920565b60006040518083038186803b15801561054157600080fd5b505af4158015610555573d6000803e3d6000fd5b50505050505050565b8060000361057f57604051630b4fc37360e11b815260040160405180910390fd5b6001600160a01b038216158080156105975750813414155b156105c357604051630cca541d60e11b8152346004820152602481018390526044015b60405180910390fd5b8015801561064c575060405163e981fddd60e01b81526001600160a01b038416600482015273__$74cab1088a768f44346aa8a34ab8d56734$__9063e981fddd9060240161012060405180830381865af4158015610625573d6000803e3d6000fd5b505050506040513d601f19601f820116820180604052508101906106499190611974565b51155b1561066a5760405163219fc4b560e11b815260040160405180910390fd5b600033905073__$ea03dc6e7176064baf45a14dcf3b0b0296$__63996dd59e6040518060a00160405280846001600160a01b03168152602001856106ae578761071e565b73__$bda6750164d46530feeed1122c24ac1a13$__63606c0c946040518163ffffffff1660e01b815260040161012060405180830381865af41580156106f8573d6000803e3d6000fd5b505050506040513d601f19601f8201168201806040525081019061071c91906119f6565b515b6001600160a01b0316815260208101879052604001600081526020018515158152506040518263ffffffff1660e01b815260040161075c9190611a1a565b60006040518083038186803b15801561033557600080fd5b604051627ff87760e81b81526001600160a01b038316600482015273__$6da87a77f33546d3f0e6244a8f7078a532$__90637ff877009060240160006040518083038186803b1580156107c657600080fd5b505af41580156107da573d6000803e3d6000fd5b50505050806000036107ff57604051630b4fc37360e11b815260040160405180910390fd5b60405163750b5a1960e01b81526001600160a01b03831660048201526024810182905273__$ea03dc6e7176064baf45a14dcf3b0b0296$__9063750b5a199060440160006040518083038186803b15801561085957600080fd5b505af415801561086d573d6000803e3d6000fd5b505050505050565b61087d6112f3565b604051630bd039cd60e21b81526001600160a01b038316600482015260009073__$1dcbc4e76af7484d3342475f6e32ea9921$__90632f40e73490602401602060405180830381865af41580156108d8573d6000803e3d6000fd5b505050506040513d601f19601f820116820180604052508101906108fc9190611a81565b90506109066112f3565b604051637f80ceb160e01b81526004810183905273__$1dcbc4e76af7484d3342475f6e32ea9921$__90637f80ceb190602401602060405180830381865af4158015610956573d6000803e3d6000fd5b505050506040513d601f19601f8201168201806040525081019061097a9190611a9a565b610985579392505050565b60405163b2485df360e01b81526004810183905260009073__$1dcbc4e76af7484d3342475f6e32ea9921$__9063b2485df390602401600060405180830381865af41580156109d8573d6000803e3d6000fd5b505050506040513d6000823e601f3d908101601f19168201604052610a009190810190611ad8565b9050600081516001600160401b03811115610a1d57610a1d61167d565b604051908082528060200260200182016040528015610a7957816020015b610a666040518060800160405280600081526020016000815260200160008152602001600081525090565b815260200190600190039081610a3b5790505b50905060005b8251811015610b54578473__$1dcbc4e76af7484d3342475f6e32ea9921$__63a68524569091858481518110610ab757610ab7611b76565b60200260200101516040518363ffffffff1660e01b8152600401610aee9291909182526001600160a01b0316602082015260400190565b608060405180830381865af4158015610b0b573d6000803e3d6000fd5b505050506040513d601f19601f82011682018060405250810190610b2f9190611b8c565b828281518110610b4157610b41611b76565b6020908102919091010152600101610a7f565b506040516335cd115160e01b81526004810185905260009073__$1dcbc4e76af7484d3342475f6e32ea9921$__906335cd115190602401600060405180830381865af4158015610ba8573d6000803e3d6000fd5b505050506040513d6000823e601f3d908101601f19168201604052610bd09190810190611bf1565b60408051610160810182526001600160a01b0390991689526020890193909352918701929092526060860152505060006080840181905260a0840181905260c0840181905260019091015460e0840152610100830181905261012083018190526101408301525090565b610c426112f3565b604051630bd039cd60e21b81526001600160a01b038516600482015260009073__$1dcbc4e76af7484d3342475f6e32ea9921$__90632f40e73490602401602060405180830381865af4158015610c9d573d6000803e3d6000fd5b505050506040513d601f19601f82011682018060405250810190610cc19190611a81565b9050610ccb6112f3565b604051637f80ceb160e01b81526004810183905273__$1dcbc4e76af7484d3342475f6e32ea9921$__90637f80ceb190602401602060405180830381865af4158015610d1b573d6000803e3d6000fd5b505050506040513d601f19601f82011682018060405250810190610d3f9190611a9a565b610d4c5791506112079050565b60405163b2485df360e01b81526004810183905260009073__$1dcbc4e76af7484d3342475f6e32ea9921$__9063b2485df390602401600060405180830381865af4158015610d9f573d6000803e3d6000fd5b505050506040513d6000823e601f3d908101601f19168201604052610dc79190810190611ad8565b9050600081516001600160401b03811115610de457610de461167d565b604051908082528060200260200182016040528015610e4057816020015b610e2d6040518060800160405280600081526020016000815260200160008152602001600081525090565b815260200190600190039081610e025790505b50905060005b8251811015610f1b578473__$1dcbc4e76af7484d3342475f6e32ea9921$__63a68524569091858481518110610e7e57610e7e611b76565b60200260200101516040518363ffffffff1660e01b8152600401610eb59291909182526001600160a01b0316602082015260400190565b608060405180830381865af4158015610ed2573d6000803e3d6000fd5b505050506040513d601f19601f82011682018060405250810190610ef69190611b8c565b828281518110610f0857610f08611b76565b6020908102919091010152600101610e46565b5060405163c0a12cd760e01b81526000908190819073__$bda096e2a3df882a8dda445d5536da7776$__9063c0a12cd790610f5e908a908e908e90600401611c76565b606060405180830381865af4158015610f7b573d6000803e3d6000fd5b505050506040513d601f19601f82011682018060405250810190610f9f9190611c99565b604051633ca45c2f60e21b8152929550909350915060009073__$bda096e2a3df882a8dda445d5536da7776$__9063f29170bc90610fe5908b908f908f90600401611c76565b602060405180830381865af4158015611002573d6000803e3d6000fd5b505050506040513d601f19601f820116820180604052508101906110269190611a81565b90506040518061016001604052808d6001600160a01b031681526020018681526020018781526020018973__$1dcbc4e76af7484d3342475f6e32ea9921$__6335cd115190916040518263ffffffff1660e01b815260040161108a91815260200190565b600060405180830381865af41580156110a7573d6000803e3d6000fd5b505050506040513d6000823e601f3d908101601f191682016040526110cf9190810190611bf1565b81526020018973__$bda096e2a3df882a8dda445d5536da7776$__639ab05b4a90918f8f6040518463ffffffff1660e01b815260040161111193929190611c76565b602060405180830381865af415801561112e573d6000803e3d6000fd5b505050506040513d601f19601f820116820180604052508101906111529190611a81565b81526020018973__$bda096e2a3df882a8dda445d5536da7776$__633538b71090918f8f6040518463ffffffff1660e01b815260040161119493929190611c76565b602060405180830381865af41580156111b1573d6000803e3d6000fd5b505050506040513d601f19601f820116820180604052508101906111d59190611a81565b8152602081019290925260019098015460408201526060810193909352608083019190915260a0909101525091925050505b9392505050565b6112183382611241565b61123e57604051632d7d0e0d60e21b8152336004820152602481018290526044016105ba565b50565b60008061124c611279565b6001600160a01b038516600090815260208290526040902090915061127190846112db565b949350505050565b6000806040516020016112bd906020808252601e908201527f78797a2e656c66692e73746f726167652e416363657373436f6e74726f6c0000604082015260600190565b60408051601f19818403018152919052805160209091012092915050565b60008181526001830160205260408120541515611207565b60405180610160016040528060006001600160a01b03168152602001606081526020016060815260200160608152602001600081526020016000815260200160008152602001600081526020016000815260200160008152602001600081525090565b60008083601f84011261136857600080fd5b5081356001600160401b0381111561137f57600080fd5b6020830191508360208260071b850101111561139a57600080fd5b9250929050565b6000806000604084860312156113b657600080fd5b8335925060208401356001600160401b038111156113d357600080fd5b6113df86828701611356565b9497909650939450505050565b6000602082840312156113fe57600080fd5b81356001600160401b0381111561141457600080fd5b82016060818503121561120757600080fd5b6000806040838503121561143957600080fd5b50508035926020909101359150565b6001600160a01b038116811461123e57600080fd5b6000806040838503121561147057600080fd5b823561147b81611448565b946020939093013593505050565b60006020828403121561149b57600080fd5b813561120781611448565b60008151808452602080850194506020840160005b838110156114f75781518051885283810151848901526040808201519089015260609081015190880152608090960195908201906001016114bb565b509495945050505050565b60008151808452602080850194506020840160005b838110156114f75781516001600160a01b031687529582019590820190600101611517565b60008151808452602080850194506020840160005b838110156114f757815187529582019590820190600101611551565b602081526115876020820183516001600160a01b03169052565b600060208301516101608060408501526115a56101808501836114a6565b91506040850151601f19808685030160608701526115c38483611502565b93506060870151915080868503016080870152506115e1838261153c565b925050608085015160a085015260a085015160c085015260c085015160e085015260e0850151610100818187015280870151915050610120818187015280870151915050610140818187015280870151838701525050508091505092915050565b60008060006040848603121561165757600080fd5b833561166281611448565b925060208401356001600160401b038111156113d357600080fd5b634e487b7160e01b600052604160045260246000fd5b60405161012081016001600160401b03811182821017156116b6576116b661167d565b60405290565b604051601f8201601f191681016001600160401b03811182821017156116e4576116e461167d565b604052919050565b80516116f781611448565b919050565b60006060828403121561170e57600080fd5b604051606081018181106001600160401b03821117156117305761173061167d565b604052825161173e81611448565b8152602083015161174e81611448565b60208201526040928301519281019290925250919050565b8183526000602080850194508260005b858110156114f757813561178981611448565b6001600160a01b03908116885282840135906117a482611448565b1687840152604082810135908801526060808301359088015260809687019690910190600101611776565b602081526000611271602083018486611766565b82815260808101611207602083018480516001600160a01b03908116835260208083015190911690830152604090810151910152565b6000808335601e1984360301811261183057600080fd5b83016020810192503590506001600160401b0381111561184f57600080fd5b8060051b360382131561139a57600080fd5b6000602080835260808301843561187781611448565b6001600160a01b038181168685015261189287850188611819565b6060604089015293849052929150600060a087015b838210156118d05784356118ba81611448565b83168152938501936001919091019085016118a7565b6118dd60408a018a611819565b898303601f190160608b01528083529550935085019150600090505b83811015611915578235825291840191908401906001016118f9565b509695505050505050565b83815260a08101611956602083018580516001600160a01b03908116835260208083015190911690830152604090810151910152565b826080830152949350505050565b805180151581146116f757600080fd5b6000610120828403121561198757600080fd5b61198f611693565b61199883611964565b81526020830151602082015260408301516040820152606083015160608201526080830151608082015260a083015160a082015260c083015160c082015260e083015160e08201526101008084015181830152508091505092915050565b60006101208284031215611a0957600080fd5b611a11611693565b611998836116ec565b81516001600160a01b0390811682526020808401519091169082015260408083015190820152606082015160a082019060048110611a6857634e487b7160e01b600052602160045260246000fd5b8060608401525060808301511515608083015292915050565b600060208284031215611a9357600080fd5b5051919050565b600060208284031215611aac57600080fd5b61120782611964565b60006001600160401b03821115611ace57611ace61167d565b5060051b60200190565b60006020808385031215611aeb57600080fd5b82516001600160401b03811115611b0157600080fd5b8301601f81018513611b1257600080fd5b8051611b25611b2082611ab5565b6116bc565b81815260059190911b82018301908381019087831115611b4457600080fd5b928401925b82841015611b6b578351611b5c81611448565b82529284019290840190611b49565b979650505050505050565b634e487b7160e01b600052603260045260246000fd5b600060808284031215611b9e57600080fd5b604051608081018181106001600160401b0382111715611bc057611bc061167d565b8060405250825181526020830151602082015260408301516040820152606083015160608201528091505092915050565b60006020808385031215611c0457600080fd5b82516001600160401b03811115611c1a57600080fd5b8301601f81018513611c2b57600080fd5b8051611c39611b2082611ab5565b81815260059190911b82018301908381019087831115611c5857600080fd5b928401925b82841015611b6b57835182529284019290840190611c5d565b838152604060208201526000611c90604083018486611766565b95945050505050565b600080600060608486031215611cae57600080fd5b835192506020840151915060408401519050925092509256fea2646970667358221220f5285c32f325875ea1235eb9d9f0e1244dae376b49373bb2b641d8fdd0d1615b64736f6c634300081900336080604052348015600f57600080fd5b50610ffc8061001f6000396000f3fe608060405234801561001057600080fd5b506004361061002b5760003560e01c80631f931c1c14610030575b600080fd5b61004361003e366004610a42565b610045565b005b6100566420a226a4a760d91b6100a7565b6100a06100638587610b88565b8484848080601f0160208091040260200160405190810160405280939291908181526020018383808284376000920191909152506100df92505050565b5050505050565b6100b13382610284565b6100dc57604051632d7d0e0d60e21b8152336004820152602481018290526044015b60405180910390fd5b50565b60005b83518110156102395760008482815181106100ff576100ff610ccc565b6020026020010151604001519050600085838151811061012157610121610ccc565b6020026020010151600001519050815160000361015c5760405163e767f91f60e01b81526001600160a01b03821660048201526024016100d3565b600086848151811061017057610170610ccc565b60200260200101516020015190506000600281111561019157610191610ce2565b8160028111156101a3576101a3610ce2565b036101b7576101b282846102c2565b61022e565b60018160028111156101cb576101cb610ce2565b036101da576101b28284610481565b60028160028111156101ee576101ee610ce2565b036101fd576101b282846105fe565b80600281111561020f5761020f610ce2565b604051633ff4d20f60e11b815260ff90911660048201526024016100d3565b5050506001016100e2565b507f8faa70878671ccd212d20771b795c50af8fd3ff6cf27f4bde57e5d4de0aeb67383838360405161026d93929190610d48565b60405180910390a161027f828261088d565b505050565b60008061028f610953565b6001600160a01b03851660009081526020828152604080832087845260010190915290205490915015155b949350505050565b6001600160a01b0382166102eb57806040516302b8da0760e21b81526004016100d39190610e4b565b7fdab92b47c5ad1b8db72bf159fe8f1c5404b027a749c8120fa1db90a19db4324f54604080516060810190915260248082527fdab92b47c5ad1b8db72bf159fe8f1c5404b027a749c8120fa1db90a19db4324e929161035491869190610f5360208301396109b5565b60005b83518110156100a057600084828151811061037457610374610ccc565b6020908102919091018101516001600160e01b031981166000908152918690526040909120549091506001600160a01b031680156103c7578160405163ebbf5d0760e01b81526004016100d39190610e99565b6040805180820182526001600160a01b03808a16825261ffff80881660208085019182526001600160e01b0319881660009081528b8252958620945185549251909316600160a01b026001600160b01b0319909216929093169190911717909155600180880180549182018155835291206008820401805460e085901c60046007909416939093026101000a92830263ffffffff90930219169190911790558361047081610ec4565b945050600190920191506103579050565b7fdab92b47c5ad1b8db72bf159fe8f1c5404b027a749c8120fa1db90a19db4324e6001600160a01b0383166104cb578160405163cd98a96f60e01b81526004016100d39190610e4b565b6104ed83604051806060016040528060288152602001610f9f602891396109b5565b60005b82518110156105f857600083828151811061050d5761050d610ccc565b6020908102919091018101516001600160e01b031981166000908152918590526040909120549091506001600160a01b03163081036105615781604051632901806d60e11b81526004016100d39190610e99565b856001600160a01b0316816001600160a01b0316036105955781604051631ac6ce8d60e11b81526004016100d39190610e99565b6001600160a01b0381166105be5781604051637479f93960e01b81526004016100d39190610e99565b506001600160e01b031916600090815260208390526040902080546001600160a01b0319166001600160a01b0386161790556001016104f0565b50505050565b7fdab92b47c5ad1b8db72bf159fe8f1c5404b027a749c8120fa1db90a19db4324f547fdab92b47c5ad1b8db72bf159fe8f1c5404b027a749c8120fa1db90a19db4324e906001600160a01b038416156106755760405163d091bc8160e01b81526001600160a01b03851660048201526024016100d3565b60005b83518110156100a057600084828151811061069557610695610ccc565b6020908102919091018101516001600160e01b0319811660009081528683526040908190208151808301909252546001600160a01b038116808352600160a01b90910461ffff1693820193909352909250906107065781604051637a08a22d60e01b81526004016100d39190610e99565b8051306001600160a01b03909116036107345781604051630df5fd6160e31b81526004016100d39190610e99565b8361073e81610ee5565b94505083816020015161ffff161461081c57600085600101858154811061076757610767610ccc565b90600052602060002090600891828204019190066004029054906101000a900460e01b90508086600101836020015161ffff16815481106107aa576107aa610ccc565b600091825260208083206008830401805463ffffffff60079094166004026101000a938402191660e09590951c92909202939093179055838201516001600160e01b03199390931681529087905260409020805461ffff60a01b1916600160a01b61ffff909316929092029190911790555b8460010180548061082f5761082f610efc565b60008281526020808220600860001990940193840401805463ffffffff600460078716026101000a0219169055919092556001600160e01b0319909316815291859052506040902080546001600160b01b0319169055600101610678565b6001600160a01b03821661089f575050565b6108c182604051806060016040528060288152602001610f77602891396109b5565b600080836001600160a01b0316836040516108dc9190610f12565b600060405180830381855af49150503d8060008114610917576040519150601f19603f3d011682016040523d82523d6000602084013e61091c565b606091505b5091509150816105f8578051156109365780518082602001fd5b838360405163192105d760e01b81526004016100d3929190610f2e565b600080604051602001610997906020808252601e908201527f78797a2e656c66692e73746f726167652e416363657373436f6e74726f6c0000604082015260600190565b60408051601f19818403018152919052805160209091012092915050565b813b600081900361027f57828260405163919834b960e01b81526004016100d3929190610f2e565b80356001600160a01b03811681146109f457600080fd5b919050565b60008083601f840112610a0b57600080fd5b50813567ffffffffffffffff811115610a2357600080fd5b602083019150836020828501011115610a3b57600080fd5b9250929050565b600080600080600060608688031215610a5a57600080fd5b853567ffffffffffffffff80821115610a7257600080fd5b818801915088601f830112610a8657600080fd5b813581811115610a9557600080fd5b8960208260051b8501011115610aaa57600080fd5b60208301975080965050610ac0602089016109dd565b94506040880135915080821115610ad657600080fd5b50610ae3888289016109f9565b969995985093965092949392505050565b634e487b7160e01b600052604160045260246000fd5b6040516060810167ffffffffffffffff81118282101715610b2d57610b2d610af4565b60405290565b604051601f8201601f1916810167ffffffffffffffff81118282101715610b5c57610b5c610af4565b604052919050565b600067ffffffffffffffff821115610b7e57610b7e610af4565b5060051b60200190565b6000610b9b610b9684610b64565b610b33565b83815260208082019190600586811b860136811115610bb957600080fd5b865b81811015610cbf57803567ffffffffffffffff80821115610bdc5760008081fd5b818a01915060608236031215610bf25760008081fd5b610bfa610b0a565b610c03836109dd565b81528683013560038110610c175760008081fd5b8188015260408381013583811115610c2f5760008081fd5b939093019236601f850112610c4657600092508283fd5b83359250610c56610b9684610b64565b83815292871b84018801928881019036851115610c735760008081fd5b948901945b84861015610ca85785356001600160e01b031981168114610c995760008081fd5b82529489019490890190610c78565b918301919091525088525050948301948301610bbb565b5092979650505050505050565b634e487b7160e01b600052603260045260246000fd5b634e487b7160e01b600052602160045260246000fd5b60005b83811015610d13578181015183820152602001610cfb565b50506000910152565b60008151808452610d34816020860160208601610cf8565b601f01601f19169290920160200192915050565b60006060808301606084528087518083526080925060808601915060808160051b8701016020808b0160005b84811015610e1b57898403607f19018652815180516001600160a01b03168552838101518986019060038110610dba57634e487b7160e01b600052602160045260246000fd5b868601526040918201519186018a905281519081905290840190600090898701905b80831015610e065783516001600160e01b0319168252928601926001929092019190860190610ddc565b50978501979550505090820190600101610d74565b50506001600160a01b038a16908801528681036040880152610e3d8189610d1c565b9a9950505050505050505050565b6020808252825182820181905260009190848201906040850190845b81811015610e8d5783516001600160e01b03191683529284019291840191600101610e67565b50909695505050505050565b6001600160e01b031991909116815260200190565b634e487b7160e01b600052601160045260246000fd5b600061ffff808316818103610edb57610edb610eae565b6001019392505050565b600081610ef457610ef4610eae565b506000190190565b634e487b7160e01b600052603160045260246000fd5b60008251610f24818460208701610cf8565b9190910192915050565b6001600160a01b03831681526040602082018190526000906102ba90830184610d1c56fe4c69624469616d6f6e644375743a2041646420666163657420686173206e6f20636f64654c69624469616d6f6e644375743a205f696e6974206164647265737320686173206e6f20636f64654c69624469616d6f6e644375743a205265706c61636520666163657420686173206e6f20636f6465a2646970667358221220105cbec9cd98fcbbbae7f89035416a9976881490f53af6f1a17d2a728594a63064736f6c634300081900336080604052348015600f57600080fd5b50610a498061001f6000396000f3fe608060405234801561001057600080fd5b50600436106100575760003560e01c806301ffc9a71461005c57806352ef6b2c146100bd5780637a0ed627146100d2578063adfca15e146100e7578063cdffacc614610107575b600080fd5b6100a861006a3660046107f8565b6001600160e01b03191660009081527fdab92b47c5ad1b8db72bf159fe8f1c5404b027a749c8120fa1db90a19db43250602052604090205460ff1690565b60405190151581526020015b60405180910390f35b6100c561015f565b6040516100b49190610829565b6100da6102ec565b6040516100b491906108bc565b6100fa6100f536600461093b565b6106ba565b6040516100b49190610964565b6101476101153660046107f8565b6001600160e01b03191660009081526000805160206109f483398151915260205260409020546001600160a01b031690565b6040516001600160a01b0390911681526020016100b4565b7fdab92b47c5ad1b8db72bf159fe8f1c5404b027a749c8120fa1db90a19db4324f546060906000805160206109f4833981519152908067ffffffffffffffff8111156101ad576101ad610977565b6040519080825280602002602001820160405280156101d6578160200160208202803683370190505b5092506000805b828110156102e25760008460010182815481106101fc576101fc61098d565b6000918252602080832060088304015460079092166004026101000a90910460e01b6001600160e01b0319811683529087905260408220549092506001600160a01b031690805b8581101561028e5788818151811061025d5761025d61098d565b60200260200101516001600160a01b0316836001600160a01b031603610286576001915061028e565b600101610243565b50801561029e57506102da915050565b818886815181106102b1576102b161098d565b6001600160a01b0390921660209283029190910190910152846102d3816109b9565b9550505050505b6001016101dd565b5080845250505090565b7fdab92b47c5ad1b8db72bf159fe8f1c5404b027a749c8120fa1db90a19db4324f546060906000805160206109f4833981519152908067ffffffffffffffff81111561033a5761033a610977565b60405190808252806020026020018201604052801561038057816020015b6040805180820190915260008152606060208201528152602001906001900390816103585790505b50925060008167ffffffffffffffff81111561039e5761039e610977565b6040519080825280602002602001820160405280156103c7578160200160208202803683370190505b5090506000805b838110156106525760008560010182815481106103ed576103ed61098d565b6000918252602080832060088304015460079092166004026101000a90910460e01b6001600160e01b0319811683529088905260408220549092506001600160a01b031690805b8581101561052057826001600160a01b03168a82815181106104585761045861098d565b6020026020010151600001516001600160a01b03160361051857838a82815181106104855761048561098d565b6020026020010151602001518883815181106104a3576104a361098d565b602002602001015161ffff16815181106104bf576104bf61098d565b60200260200101906001600160e01b03191690816001600160e01b031916815250508681815181106104f3576104f361098d565b602002602001018051809190610508906109d2565b61ffff1690525060019150610520565b600101610434565b508015610530575061064a915050565b818986815181106105435761054361098d565b60209081029190910101516001600160a01b0390911690528667ffffffffffffffff81111561057457610574610977565b60405190808252806020026020018201604052801561059d578160200160208202803683370190505b508986815181106105b0576105b061098d565b602002602001015160200181905250828986815181106105d2576105d261098d565b6020026020010151602001516000815181106105f0576105f061098d565b60200260200101906001600160e01b03191690816001600160e01b0319168152505060018686815181106106265761062661098d565b61ffff9092166020928302919091019091015284610643816109b9565b9550505050505b6001016103ce565b5060005b818110156106af5760008382815181106106725761067261098d565b602002602001015161ffff16905060008783815181106106945761069461098d565b60209081029190910181015101519190915250600101610656565b508085525050505090565b7fdab92b47c5ad1b8db72bf159fe8f1c5404b027a749c8120fa1db90a19db4324f546060906000805160206109f48339815191529060008167ffffffffffffffff81111561070a5761070a610977565b604051908082528060200260200182016040528015610733578160200160208202803683370190505b50935060005b828110156107ed5760008460010182815481106107585761075861098d565b6000918252602080832060088304015460079092166004026101000a90910460e01b6001600160e01b031981168352908790526040909120549091506001600160a01b039081169088168190036107e357818785815181106107bc576107bc61098d565b6001600160e01b031990921660209283029190910190910152836107df816109b9565b9450505b5050600101610739565b508352509092915050565b60006020828403121561080a57600080fd5b81356001600160e01b03198116811461082257600080fd5b9392505050565b6020808252825182820181905260009190848201906040850190845b8181101561086a5783516001600160a01b031683529284019291840191600101610845565b50909695505050505050565b60008151808452602080850194506020840160005b838110156108b15781516001600160e01b0319168752958201959082019060010161088b565b509495945050505050565b600060208083018184528085518083526040925060408601915060408160051b87010184880160005b8381101561092d57888303603f19018552815180516001600160a01b0316845287015187840187905261091a87850182610876565b95880195935050908601906001016108e5565b509098975050505050505050565b60006020828403121561094d57600080fd5b81356001600160a01b038116811461082257600080fd5b6020815260006108226020830184610876565b634e487b7160e01b600052604160045260246000fd5b634e487b7160e01b600052603260045260246000fd5b634e487b7160e01b600052601160045260246000fd5b6000600182016109cb576109cb6109a3565b5060010190565b600061ffff8083168181036109e9576109e96109a3565b600101939250505056fedab92b47c5ad1b8db72bf159fe8f1c5404b027a749c8120fa1db90a19db4324ea264697066735822122043e71b8fa4cc404a75203a926486c6d8bd1f51b9ecd0c7baee691a94a97e903464736f6c634300081900336080604052348015600f57600080fd5b50600160005561246d806100246000396000f3fe60806040526004361061004e5760003560e01c806322dabfa51461005a5780634b05360a1461007c57806389e74c0a1461008f57806395083527146100a2578063b68fb020146100d857600080fd5b3661005557005b600080fd5b34801561006657600080fd5b5061007a610075366004611be9565b6100f8565b005b61007a61008a366004611c68565b6105fd565b61007a61009d366004611c7b565b610897565b3480156100ae57600080fd5b506100c26100bd366004611d16565b610d07565b6040516100cf9190611e6e565b60405180910390f35b3480156100e457600080fd5b5061007a6100f3366004611ec8565b6111f7565b60005a905061010f6525a2a2a822a960d11b61186e565b604051634a83e9cd60e11b81526004810185905260009073__$6f943ad19ffd2cc09153ac61e6a5ce1aaf$__90639507d39a90602401602060405180830381865af4158015610162573d6000803e3d6000fd5b505050506040513d601f19601f820116820180604052508101906101869190611eea565b604080516102208101825282546001600160a01b031681526001830154602082015260028084015491939284019160ff16908111156101c7576101c7611d33565b60028111156101d8576101d8611d33565b81526020016002820160019054906101000a900460ff16600281111561020057610200611d33565b600281111561021157610211611d33565b81526020016002820160029054906101000a900460ff16600381111561023957610239611d33565b600381111561024a5761024a611d33565b81526020016002820160039054906101000a900460ff16600281111561027257610272611d33565b600281111561028357610283611d33565b8152600282015460ff640100000000820481161515602084015265010000000000820416151560408301526001600160a01b03600160301b9091048116606083015260038301546080830152600483015460a0830152600583015460c0830152600683015460e0830152600783015461010083015260088301546101208301526009830154610140830152600a909201546101609091015281519192501661034657604051636f23541360e01b8152600481018690526024015b60405180910390fd5b604051631d4cb62f60e21b815273__$bb4e55f00c0f45d2719800850b371b8ff8$__90637532d8bc9061037f9087908790600401611f03565b60006040518083038186803b15801561039757600080fd5b505af41580156103ab573d6000803e3d6000fd5b505060405163e51f1db160e01b815273__$a1f1c663214543c64300a4f7e7440726cc$__925063e51f1db191506103e89088908590600401611f7d565b60006040518083038186803b15801561040057600080fd5b505af4158015610414573d6000803e3d6000fd5b5050505073__$bb4e55f00c0f45d2719800850b371b8ff8$__63e52ed3656040518163ffffffff1660e01b815260040160006040518083038186803b15801561045c57600080fd5b505af4158015610470573d6000803e3d6000fd5b5050505073__$e6ad93c07d6cc44a1daca561617df2deac$__634d4d56726040518060a001604052808460e0015161050957306001600160a01b0316631f7592ea6040518163ffffffff1660e01b8152600401602060405180830381865afa1580156104e0573d6000803e3d6000fd5b505050506040513d601f19601f820116820180604052508101906105049190611f9d565b61056b565b306001600160a01b03166397e7b7f26040518163ffffffff1660e01b8152600401602060405180830381865afa158015610547573d6000803e3d6000fd5b505050506040513d601f19601f8201168201806040525081019061056b9190611f9d565b6001600160a01b03168152602001846101e001518152602001858152602001336001600160a01b0316815260200184600001516001600160a01b03168152506040518263ffffffff1660e01b81526004016105c69190611fba565b60006040518083038186803b1580156105de57600080fd5b505af41580156105f2573d6000803e3d6000fd5b505050505050505050565b61060561189e565b33600161061860a0840160808501612015565b600281111561062957610629611d33565b1480156106435750610641604083016020840161204b565b155b1561079a57610658606083016040840161204b565b1580610668575081610120013534145b6106bf5760405162461bcd60e51b815260206004820152602260248201527f4465706f736974206e617469766520746f6b656e20616d6f756e74206572726f604482015261722160f01b606482015260840161033d565b73__$ea03dc6e7176064baf45a14dcf3b0b0296$__63ef59a9d16040518060a00160405280846001600160a01b031681526020018560e00160208101906107069190611d16565b6001600160a01b03168152610120860135602082015260400160018152602001610736606087016040880161204b565b15158152506040518263ffffffff1660e01b81526004016107579190612068565b602060405180830381865af4158015610774573d6000803e3d6000fd5b505050506040513d601f19601f820116820180604052508101906107989190611f9d565b505b60405163090788b560e31b81526001600160a01b038216600482015260009073__$1dcbc4e76af7484d3342475f6e32ea9921$__9063483c45a890602401602060405180830381865af41580156107f5573d6000803e3d6000fd5b505050506040513d601f19601f820116820180604052508101906108199190611eea565b60405163207f6c9360e01b815290915073__$a1f1c663214543c64300a4f7e7440726cc$__9063207f6c939061085890849087906001906004016120c9565b60006040518083038186803b15801561087057600080fd5b505af4158015610884573d6000803e3d6000fd5b5050505050506108946001600055565b50565b61089f61189e565b60405163090788b560e31b815233600482018190529060009073__$1dcbc4e76af7484d3342475f6e32ea9921$__9063483c45a890602401602060405180830381865af41580156108f4573d6000803e3d6000fd5b505050506040513d601f19601f820116820180604052508101906109189190611eea565b905060008073__$bda6750164d46530feeed1122c24ac1a13$__63606c0c946040518163ffffffff1660e01b815260040161012060405180830381865af4158015610967573d6000803e3d6000fd5b505050506040513d601f19601f8201168201806040525081019061098b9190612268565b90506000868660008181106109a2576109a26122ea565b90506101e0020160200160208101906109bb919061204b565b905060005b86811015610bbc5760018888838181106109dc576109dc6122ea565b90506101e0020160800160208101906109f59190612015565b6002811115610a0657610a06611d33565b03610a2457604051630af64c0b60e01b815260040160405180910390fd5b878782818110610a3657610a366122ea565b90506101e002016020016020810190610a4f919061204b565b151582151514610a7257604051632a61948760e01b815260040160405180910390fd5b73__$e6ad93c07d6cc44a1daca561617df2deac$__634b7bc681898984818110610a9e57610a9e6122ea565b90506101e002016101a0013585608001516040518363ffffffff1660e01b8152600401610ad5929190918252602082015260400190565b60006040518083038186803b158015610aed57600080fd5b505af4158015610b01573d6000803e3d6000fd5b5050505073__$a1f1c663214543c64300a4f7e7440726cc$__63207f6c93868a8a85818110610b3257610b326122ea565b90506101e0020160006040518463ffffffff1660e01b8152600401610b59939291906120c9565b60006040518083038186803b158015610b7157600080fd5b505af4158015610b85573d6000803e3d6000fd5b50505050878782818110610b9b57610b9b6122ea565b90506101e002016101a0013584610bb29190612300565b93506001016109c0565b50823414610c205760405162461bcd60e51b815260206004820152602b60248201527f426174636820706c616365206f72646572207769746820657865637574696f6e60448201526a20666565206572726f722160a81b606482015260840161033d565b6040805160a08101825285546001600160a01b039081168252845116602082015290810184905273__$ea03dc6e7176064baf45a14dcf3b0b0296$__9063ef59a9d1906060810184610c73576001610c76565b60005b6003811115610c8757610c87611d33565b815260016020909101526040516001600160e01b031960e084901b168152610cb29190600401612068565b602060405180830381865af4158015610ccf573d6000803e3d6000fd5b505050506040513d601f19601f82011682018060405250810190610cf39190611f9d565b505050505050610d036001600055565b5050565b604051630bd039cd60e21b81526001600160a01b038216600482015260609060009073__$1dcbc4e76af7484d3342475f6e32ea9921$__90632f40e73490602401602060405180830381865af4158015610d65573d6000803e3d6000fd5b505050506040513d601f19601f82011682018060405250810190610d899190611eea565b604051637f80ceb160e01b81526004810182905290915073__$1dcbc4e76af7484d3342475f6e32ea9921$__90637f80ceb190602401602060405180830381865af4158015610ddc573d6000803e3d6000fd5b505050506040513d601f19601f82011682018060405250810190610e009190612321565b156111f15760405163f075410d60e01b81526004810182905260009073__$1dcbc4e76af7484d3342475f6e32ea9921$__9063f075410d90602401600060405180830381865af4158015610e58573d6000803e3d6000fd5b505050506040513d6000823e601f3d908101601f19168201604052610e80919081019061233e565b9050805167ffffffffffffffff811115610e9c57610e9c6121f7565b604051908082528060200260200182016040528015610ed557816020015b610ec2611b3e565b815260200190600190039081610eba5790505b509250600073__$6f943ad19ffd2cc09153ac61e6a5ce1aaf$__6386d5c4be6040518163ffffffff1660e01b8152600401602060405180830381865af4158015610f23573d6000803e3d6000fd5b505050506040513d601f19601f82011682018060405250810190610f479190611eea565b905060005b82518110156111ed57828181518110610f6757610f676122ea565b6020026020010151858281518110610f8157610f816122ea565b602002602001015160000181815250508173__$6f943ad19ffd2cc09153ac61e6a5ce1aaf$__63c000c8ee9091858481518110610fc057610fc06122ea565b60200260200101516040518363ffffffff1660e01b8152600401610fee929190918252602082015260400190565b602060405180830381865af415801561100b573d6000803e3d6000fd5b505050506040513d601f19601f8201168201806040525081019061102f9190611eea565b604080516102208101825282546001600160a01b031681526001830154602082015260028084015491939284019160ff169081111561107057611070611d33565b600281111561108157611081611d33565b81526020016002820160019054906101000a900460ff1660028111156110a9576110a9611d33565b60028111156110ba576110ba611d33565b81526020016002820160029054906101000a900460ff1660038111156110e2576110e2611d33565b60038111156110f3576110f3611d33565b81526020016002820160039054906101000a900460ff16600281111561111b5761111b611d33565b600281111561112c5761112c611d33565b8152600282015460ff640100000000820481161515602084015265010000000000820416151560408301526001600160a01b03600160301b90910416606082015260038201546080820152600482015460a0820152600582015460c0820152600682015460e0820152600782015461010082015260088201546101208201526009820154610140820152600a909101546101609091015285518690839081106111d7576111d76122ea565b6020908102919091018101510152600101610f4c565b5050505b50919050565b60005a604051634a83e9cd60e11b81526004810185905290915060009073__$6f943ad19ffd2cc09153ac61e6a5ce1aaf$__90639507d39a90602401602060405180830381865af4158015611250573d6000803e3d6000fd5b505050506040513d601f19601f820116820180604052508101906112749190611eea565b604080516102208101825282546001600160a01b031681526001830154602082015260028084015491939284019160ff16908111156112b5576112b5611d33565b60028111156112c6576112c6611d33565b81526020016002820160019054906101000a900460ff1660028111156112ee576112ee611d33565b60028111156112ff576112ff611d33565b81526020016002820160029054906101000a900460ff16600381111561132757611327611d33565b600381111561133857611338611d33565b81526020016002820160039054906101000a900460ff16600281111561136057611360611d33565b600281111561137157611371611d33565b8152600282015460ff640100000000820481161515602084015265010000000000820416151560408301526001600160a01b03600160301b9091048116606083015260038301546080830152600483015460a0830152600583015460c0830152600683015460e0830152600783015461010083015260088301546101208301526009830154610140830152600a909201546101609091015281519192501661142f57604051636f23541360e01b81526004810185905260240161033d565b60006114436525a2a2a822a960d11b6118f7565b90508015801561145d575081516001600160a01b03163314155b1561147e57604051636f23541360e01b81526004810186905260240161033d565b60405163d7ffe5cf60e01b815273__$347f3da4ee9c6d555bb4c0194083f8df3e$__9063d7ffe5cf906114b9908890869089906004016123e4565b60006040518083038186803b1580156114d157600080fd5b505af41580156114e5573d6000803e3d6000fd5b5050505080156116765773__$e6ad93c07d6cc44a1daca561617df2deac$__634d4d56726040518060a001604052808560e0015161158457306001600160a01b0316631f7592ea6040518163ffffffff1660e01b8152600401602060405180830381865afa15801561155b573d6000803e3d6000fd5b505050506040513d601f19601f8201168201806040525081019061157f9190611f9d565b6115e6565b306001600160a01b03166397e7b7f26040518163ffffffff1660e01b8152600401602060405180830381865afa1580156115c2573d6000803e3d6000fd5b505050506040513d601f19601f820116820180604052508101906115e69190611f9d565b6001600160a01b03168152602001856101e001518152602001868152602001336001600160a01b0316815260200185600001516001600160a01b03168152506040518263ffffffff1660e01b81526004016116419190611fba565b60006040518083038186803b15801561165957600080fd5b505af415801561166d573d6000803e3d6000fd5b50505050611867565b73__$eda0f617f16c95263174d8d25961933b8d$__6385e2b8808360e0015161170057306001600160a01b0316631f7592ea6040518163ffffffff1660e01b8152600401602060405180830381865afa1580156116d7573d6000803e3d6000fd5b505050506040513d601f19601f820116820180604052508101906116fb9190611f9d565b611762565b306001600160a01b03166397e7b7f26040518163ffffffff1660e01b8152600401602060405180830381865afa15801561173e573d6000803e3d6000fd5b505050506040513d601f19601f820116820180604052508101906117629190611f9d565b73__$bda6750164d46530feeed1122c24ac1a13$__63606c0c946040518163ffffffff1660e01b815260040161012060405180830381865af41580156117ac573d6000803e3d6000fd5b505050506040513d601f19601f820116820180604052508101906117d09190612268565b516101e086015160405160e085901b6001600160e01b03191681526001600160a01b0393841660048201529290911660248301523060448301526064820152608401602060405180830381865af415801561182f573d6000803e3d6000fd5b505050506040513d601f19601f820116820180604052508101906118539190612321565b506118678260000151836101e00151611909565b5050505050565b61187833826119e6565b61089457604051632d7d0e0d60e21b81523360048201526024810182905260440161033d565b6002600054036118f05760405162461bcd60e51b815260206004820152601f60248201527f5265656e7472616e637947756172643a207265656e7472616e742063616c6c00604482015260640161033d565b6002600055565b600061190333836119e6565b92915050565b600073__$bda6750164d46530feeed1122c24ac1a13$__63606c0c946040518163ffffffff1660e01b815260040161012060405180830381865af4158015611955573d6000803e3d6000fd5b505050506040513d601f19601f820116820180604052508101906119799190612268565b51604051632e1a7d4d60e01b8152600481018490529091506001600160a01b03821690632e1a7d4d90602401600060405180830381600087803b1580156119bf57600080fd5b505af11580156119d3573d6000803e3d6000fd5b505050506119e18383611a1e565b505050565b6000806119f1611ac1565b6001600160a01b0385166000908152602082905260409020909150611a169084611b23565b949350505050565b604080516000808252602082019092526001600160a01b038416908390604051611a489190612408565b60006040518083038185875af1925050503d8060008114611a85576040519150601f19603f3d011682016040523d82523d6000602084013e611a8a565b606091505b50509050806119e15760405162461bcd60e51b815260206004820152600360248201526253544560e81b604482015260640161033d565b600080604051602001611b05906020808252601e908201527f78797a2e656c66692e73746f726167652e416363657373436f6e74726f6c0000604082015260600190565b60408051601f19818403018152919052805160209091012092915050565b600081815260018301602052604081205415155b9392505050565b604051806040016040528060008152602001611be460408051610220810182526000808252602082018190529091820190815260200160008152602001600081526020016000815260200160001515815260200160001515815260200160006001600160a01b0316815260200160008152602001600081526020016000815260200160008152602001600081526020016000815260200160008152602001600081525090565b905290565b600080600060408486031215611bfe57600080fd5b83359250602084013567ffffffffffffffff80821115611c1d57600080fd5b818601915086601f830112611c3157600080fd5b813581811115611c4057600080fd5b8760208260071b8501011115611c5557600080fd5b6020830194508093505050509250925092565b60006101e082840312156111f157600080fd5b60008060208385031215611c8e57600080fd5b823567ffffffffffffffff80821115611ca657600080fd5b818501915085601f830112611cba57600080fd5b813581811115611cc957600080fd5b8660206101e083028501011115611cdf57600080fd5b60209290920196919550909350505050565b6001600160a01b038116811461089457600080fd5b8035611d1181611cf1565b919050565b600060208284031215611d2857600080fd5b8135611b3781611cf1565b634e487b7160e01b600052602160045260246000fd5b60038110611d5957611d59611d33565b9052565b6004811061089457610894611d33565b611d5981611d5d565b80516001600160a01b03168252602081015160208301526040810151611d9f6040840182611d49565b506060810151611db26060840182611d49565b506080810151611dc56080840182611d6d565b5060a0810151611dd860a0840182611d49565b5060c0810151611dec60c084018215159052565b5060e0810151611e0060e084018215159052565b50610100818101516001600160a01b03169083015261012080820151908301526101408082015190830152610160808201519083015261018080820151908301526101a080820151908301526101c080820151908301526101e0808201519083015261020090810151910152565b6020808252825182820181905260009190848201906040850190845b81811015611ebc57835180518452850151611ea786850182611d76565b50928401926102409290920191600101611e8a565b50909695505050505050565b60008060408385031215611edb57600080fd5b50508035926020909101359150565b600060208284031215611efc57600080fd5b5051919050565b6020808252818101839052600090604080840186845b87811015611f70578135611f2c81611cf1565b6001600160a01b0390811684528286013590611f4782611cf1565b168386015281840135848401526060808301359084015260809283019290910190600101611f19565b5090979650505050505050565b8281526102408101611b376020830184611d76565b8051611d1181611cf1565b600060208284031215611faf57600080fd5b8151611b3781611cf1565b81516001600160a01b0390811682526020808401519083015260408084015190830152606080840151821690830152608092830151169181019190915260a00190565b6003811061089457600080fd5b8035611d1181611ffd565b60006020828403121561202757600080fd5b8135611b3781611ffd565b801515811461089457600080fd5b8035611d1181612032565b60006020828403121561205d57600080fd5b8135611b3781612032565b81516001600160a01b0390811682526020808401519091169082015260408083015190820152606082015160a08201906120a181611d5d565b8060608401525060808301511515608083015292915050565b803560048110611d1157600080fd5b600061022082019050848252833560208301526120e860208501612040565b8015156040840152506120fd60408501612040565b8015156060840152506121126060850161200a565b61211f6080840182611d49565b5061212c6080850161200a565b61213960a0840182611d49565b5061214660a085016120ba565b61215360c0840182611d6d565b5061216060c0850161200a565b61216d60e0840182611d49565b5061217a60e08501611d06565b610100612191818501836001600160a01b03169052565b61012091508086013582850152506101408186013581850152610160915080860135828501525061018081860135818501526101a091508086013582850152506101c08186013581850152808601356101e08501525050611a1661020083018415159052565b634e487b7160e01b600052604160045260246000fd5b604051610120810167ffffffffffffffff81118282101715612231576122316121f7565b60405290565b604051601f8201601f1916810167ffffffffffffffff81118282101715612260576122606121f7565b604052919050565b6000610120828403121561227b57600080fd5b61228361220d565b61228c83611f92565b81526020830151602082015260408301516040820152606083015160608201526080830151608082015260a083015160a082015260c083015160c082015260e083015160e08201526101008084015181830152508091505092915050565b634e487b7160e01b600052603260045260246000fd5b8082018082111561190357634e487b7160e01b600052601160045260246000fd5b60006020828403121561233357600080fd5b8151611b3781612032565b6000602080838503121561235157600080fd5b825167ffffffffffffffff8082111561236957600080fd5b818501915085601f83011261237d57600080fd5b81518181111561238f5761238f6121f7565b8060051b91506123a0848301612237565b81815291830184019184810190888411156123ba57600080fd5b938501935b838510156123d8578451825293850193908501906123bf565b98975050505050505050565b83815261026081016123f96020830185611d76565b82610240830152949350505050565b6000825160005b81811015612429576020818601810151858301520161240f565b50600092019182525091905056fea26469706673582212205f5dc78e77c734b33a72fb1b61e3f9e8ce1972ce3e7de751eb344bd213545c6664736f6c634300081900336080604052348015600f57600080fd5b506001600055613436806100246000396000f3fe6080604052600436106100865760003560e01c806374315647116100595780637431564714610123578063cb5c8d8114610136578063e606789b14610156578063fb11e96914610176578063fe1b7245146101a357600080fd5b806309fb7aac1461008b578063311be5f4146100ad57806341065c62146100cd57806359086dc914610103575b600080fd5b34801561009757600080fd5b506100ab6100a63660046127e0565b6101b6565b005b3480156100b957600080fd5b506100ab6100c8366004612855565b610578565b3480156100d957600080fd5b506100ed6100e8366004612912565b6108e8565b6040516100fa9190612aa3565b60405180910390f35b34801561010f57600080fd5b506100ab61011e366004612ab2565b610ac7565b6100ab610131366004612ad4565b610d3e565b34801561014257600080fd5b506100ab610151366004612855565b6112c4565b34801561016257600080fd5b506100ab610171366004612ab2565b6115fe565b34801561018257600080fd5b50610196610191366004612aed565b611874565b6040516100fa9190612b0a565b6100ab6101b1366004612b6f565b611cf0565b60005a90506101cd6525a2a2a822a960d11b612134565b604051631026392960e11b81527f8116fe254c434350c8a963d750885fee6b2213d5416ba4444044ed0bb91a725d600482015260009073__$6ebb2450d5e04bda18965cfdba2d8f11f4$__9063204c725290602401602060405180830381865af415801561023f573d6000803e3d6000fd5b505050506040513d601f19601f820116820180604052508101906102639190612b81565b905060005b8381101561050d57600073__$d6b170e28cdd9080cfdbe47025803469bd$__63f035079987878581811061029e5761029e612b9a565b905060200201356040518263ffffffff1660e01b81526004016102c391815260200190565b602060405180830381865af41580156102e0573d6000803e3d6000fd5b505050506040513d601f19601f820116820180604052508101906103049190612b81565b60405163a51dafc760e01b81526004810182905290915073__$d6b170e28cdd9080cfdbe47025803469bd$__9063a51dafc79060240160006040518083038186803b15801561035257600080fd5b505af4158015610366573d6000803e3d6000fd5b50506040805160e08101825286815260018501546020820152600081830152600285015460ff610100820481161515606084015260038701546001600160a01b039081166080850152600588015460a08501526004808901549551631a0994f560e01b81529590911690850152161515602483015273__$8fb5de803360e49e9972eec3a61ded82fb$__9350635b9a574e9250849160c082019073__$bb4e55f00c0f45d2719800850b371b8ff8$__90631a0994f590604401602060405180830381865af415801561043c573d6000803e3d6000fd5b505050506040513d601f19601f820116820180604052508101906104609190612b81565b9052604080516001600160e01b031960e086901b168152600481019390935281516024840152602082015160448401528101511515606483015260608101511515608483015260808101516001600160a01b031660a483015260a081015160c483015260c0015160e48201526101040160006040518083038186803b1580156104e857600080fd5b505af41580156104fc573d6000803e3d6000fd5b505060019093019250610268915050565b506040516307c43b6960e21b81526004810183905273__$e6ad93c07d6cc44a1daca561617df2deac$__90631f10eda4906024015b60006040518083038186803b15801561055a57600080fd5b505af415801561056e573d6000803e3d6000fd5b5050505050505050565b60005a905061058f6525a2a2a822a960d11b612134565b604051634a83e9cd60e11b81526004810185905260009073__$92d09698b02b86f60e573c24f774403d94$__90639507d39a9060240161010060405180830381865af41580156105e3573d6000803e3d6000fd5b505050506040513d601f19601f820116820180604052508101906106079190612c7f565b80519091506001600160a01b03166106325760405163fd0b752360e01b815260040160405180910390fd5b604051631d4cb62f60e21b815273__$bb4e55f00c0f45d2719800850b371b8ff8$__90637532d8bc9061066b9087908790600401612d10565b60006040518083038186803b15801561068357600080fd5b505af4158015610697573d6000803e3d6000fd5b505060405163ca7b4ab960e01b815273__$dc802fc1d3dd8347e08cf7a91e97b416c7$__925063ca7b4ab991506106d49088908590600401612de8565b60006040518083038186803b1580156106ec57600080fd5b505af4158015610700573d6000803e3d6000fd5b5050505073__$bb4e55f00c0f45d2719800850b371b8ff8$__63e52ed3656040518163ffffffff1660e01b815260040160006040518083038186803b15801561074857600080fd5b505af415801561075c573d6000803e3d6000fd5b5050505073__$e6ad93c07d6cc44a1daca561617df2deac$__634d4d56726040518060a001604052808460c001516107f557306001600160a01b0316631f7592ea6040518163ffffffff1660e01b8152600401602060405180830381865afa1580156107cc573d6000803e3d6000fd5b505050506040513d601f19601f820116820180604052508101906107f09190612dfd565b610857565b306001600160a01b03166397e7b7f26040518163ffffffff1660e01b8152600401602060405180830381865afa158015610833573d6000803e3d6000fd5b505050506040513d601f19601f820116820180604052508101906108579190612dfd565b6001600160a01b0316815260200184608001518152602001858152602001336001600160a01b0316815260200184600001516001600160a01b03168152506040518263ffffffff1660e01b81526004016108b19190612e1a565b60006040518083038186803b1580156108c957600080fd5b505af41580156108dd573d6000803e3d6000fd5b505050505050505050565b6108f06126e6565b60405163359c683b60e11b81526001600160a01b0380871660048301526024820186905284166044820152821515606482015273__$d6b170e28cdd9080cfdbe47025803469bd$__90636b38d07690608401602060405180830381865af415801561095f573d6000803e3d6000fd5b505050506040513d601f19601f820116820180604052508101906109839190612b81565b6040805161022081018252825481526001830154602080830191909152600284015460ff80821615158486015261010080830490911615156060808601919091526001600160a01b036201000090930483166080808701919091526003880154841660a080880191909152600489015490941660c080880191909152600589015460e08089019190915260068a015494880194909452600789015461012088015260088901546101408801526009890154610160880152600a890154610180880152600b8901546101a088015287519384018852600c8901548452600d89015495840195909552600e88015496830196909652600f870154908201526010860154948101949094526011850154908401526012840154908301526101c081019190915260138201546101e08201526014909101546102008201529050949350505050565b60005a9050610ade6525a2a2a822a960d11b612134565b604051634a83e9cd60e11b81526004810184905260009073__$e7b259f5f25536180660cb13f6599e15f1$__90639507d39a9060240161014060405180830381865af4158015610b32573d6000803e3d6000fd5b505050506040513d601f19601f82011682018060405250810190610b569190612e5d565b80519091506001600160a01b0316610b815760405163093d047f60e21b815260040160405180910390fd5b60405163621467b360e11b815273__$dc802fc1d3dd8347e08cf7a91e97b416c7$__9063c428cf6690610bbc90879085908890600401612f9d565b60006040518083038186803b158015610bd457600080fd5b505af4158015610be8573d6000803e3d6000fd5b5050505073__$e6ad93c07d6cc44a1daca561617df2deac$__634d4d56726040518060a001604052808460600151610c8157306001600160a01b0316631f7592ea6040518163ffffffff1660e01b8152600401602060405180830381865afa158015610c58573d6000803e3d6000fd5b505050506040513d601f19601f82011682018060405250810190610c7c9190612dfd565b610ce3565b306001600160a01b03166397e7b7f26040518163ffffffff1660e01b8152600401602060405180830381865afa158015610cbf573d6000803e3d6000fd5b505050506040513d601f19601f82011682018060405250810190610ce39190612dfd565b6001600160a01b031681526020018461010001518152602001858152602001336001600160a01b0316815260200184600001516001600160a01b03168152506040518263ffffffff1660e01b81526004016105429190612e1a565b60405163e1be37bd60e01b81528135600482015260009073__$acce7506676b87ccbb54b9fc6afc582415$__9063e1be37bd9060240161010060405180830381865af4158015610d92573d6000803e3d6000fd5b505050506040513d601f19601f82011682018060405250810190610db69190612fc1565b60405163f035079960e01b81528335600482015290915060009073__$772a6c28cc3d4776ea886febacbb24816f$__9063f035079990602401602060405180830381865af4158015610e0c573d6000803e3d6000fd5b505050506040513d601f19601f82011682018060405250810190610e309190612b81565b6040805160c08101909152815481526001820154909190602083019060ff166003811115610e6057610e60613030565b6003811115610e7157610e71613030565b815260018201546001600160a01b03610100909104811660208301526002830154811660408301526003830154166060820152600482018054608090920191610eb990613046565b80601f0160208091040260200160405190810160405280929190818152602001828054610ee590613046565b8015610f325780601f10610f0757610100808354040283529160200191610f32565b820191906000526020600020905b815481529060010190602001808311610f1557829003601f168201915b5050509190925250919250610f45915050565b600081602001516003811115610f5d57610f5d613030565b14610f83576040516303035c6f60e61b8152833560048201526024015b60405180910390fd5b815160808401351180610fa65750610f9f620186a06001613090565b8360800135105b15610fd157604051635c93c83760e01b81528335600482015260808401356024820152604401610f7a565b604051630bd039cd60e21b815233600482018190529060009073__$1dcbc4e76af7484d3342475f6e32ea9921$__90632f40e73490602401602060405180830381865af4158015611026573d6000803e3d6000fd5b505050506040513d601f19601f8201168201806040525081019061104a9190612b81565b905060008560c0013511801561106d575061106b60808601606087016130a7565b155b1561123c5761108260608601604087016130a7565b158061109157508460c0013534145b6110d95760405162461bcd60e51b81526020600482015260196024820152784465706f7369742065746820616d6f756e74206572726f722160381b6044820152606401610f7a565b73__$ea03dc6e7176064baf45a14dcf3b0b0296$__63ef59a9d16040518060a00160405280856001600160a01b0316815260200188604001602081019061112091906130a7565b6111395761113460c08a0160a08b01612aed565b6111a9565b73__$bda6750164d46530feeed1122c24ac1a13$__63606c0c946040518163ffffffff1660e01b815260040161012060405180830381865af4158015611183573d6000803e3d6000fd5b505050506040513d601f19601f820116820180604052508101906111a791906130c4565b515b6001600160a01b0316815260c08901356020820152604001600181526020016111d860608a0160408b016130a7565b15158152506040518263ffffffff1660e01b81526004016111f99190613146565b602060405180830381865af4158015611216573d6000803e3d6000fd5b505050506040513d601f19601f8201168201806040525081019061123a9190612dfd565b505b6000806112498388612167565b604051637f4c94bd60e01b8152919350915073__$dc802fc1d3dd8347e08cf7a91e97b416c7$__90637f4c94bd9061128b9087908b90879087906004016131ad565b60006040518083038186803b1580156112a357600080fd5b505af41580156112b7573d6000803e3d6000fd5b5050505050505050505050565b60005a90506112db6525a2a2a822a960d11b612134565b604051634a83e9cd60e11b81526004810185905260009073__$e7b259f5f25536180660cb13f6599e15f1$__90639507d39a9060240161014060405180830381865af415801561132f573d6000803e3d6000fd5b505050506040513d601f19601f820116820180604052508101906113539190612e5d565b80519091506001600160a01b031661137e5760405163093d047f60e21b815260040160405180910390fd5b604051631d4cb62f60e21b815273__$bb4e55f00c0f45d2719800850b371b8ff8$__90637532d8bc906113b79087908790600401612d10565b60006040518083038186803b1580156113cf57600080fd5b505af41580156113e3573d6000803e3d6000fd5b5050604051633fb2d04d60e21b815273__$dc802fc1d3dd8347e08cf7a91e97b416c7$__925063fecb413491506114209088908590600401613265565b60006040518083038186803b15801561143857600080fd5b505af415801561144c573d6000803e3d6000fd5b5050505073__$bb4e55f00c0f45d2719800850b371b8ff8$__63e52ed3656040518163ffffffff1660e01b815260040160006040518083038186803b15801561149457600080fd5b505af41580156114a8573d6000803e3d6000fd5b5050505073__$e6ad93c07d6cc44a1daca561617df2deac$__634d4d56726040518060a00160405280846060015161154157306001600160a01b0316631f7592ea6040518163ffffffff1660e01b8152600401602060405180830381865afa158015611518573d6000803e3d6000fd5b505050506040513d601f19601f8201168201806040525081019061153c9190612dfd565b6115a3565b306001600160a01b03166397e7b7f26040518163ffffffff1660e01b8152600401602060405180830381865afa15801561157f573d6000803e3d6000fd5b505050506040513d601f19601f820116820180604052508101906115a39190612dfd565b6001600160a01b031681526020018461010001518152602001858152602001336001600160a01b0316815260200184600001516001600160a01b03168152506040518263ffffffff1660e01b81526004016108b19190612e1a565b60005a90506116156525a2a2a822a960d11b612134565b604051634a83e9cd60e11b81526004810184905260009073__$92d09698b02b86f60e573c24f774403d94$__90639507d39a9060240161010060405180830381865af4158015611669573d6000803e3d6000fd5b505050506040513d601f19601f8201168201806040525081019061168d9190612c7f565b80519091506001600160a01b03166116b85760405163fd0b752360e01b815260040160405180910390fd5b60405163b34f305f60e01b815273__$dc802fc1d3dd8347e08cf7a91e97b416c7$__9063b34f305f906116f39087908590889060040161327a565b60006040518083038186803b15801561170b57600080fd5b505af415801561171f573d6000803e3d6000fd5b5050505073__$e6ad93c07d6cc44a1daca561617df2deac$__634d4d56726040518060a001604052808460c001516117b857306001600160a01b0316631f7592ea6040518163ffffffff1660e01b8152600401602060405180830381865afa15801561178f573d6000803e3d6000fd5b505050506040513d601f19601f820116820180604052508101906117b39190612dfd565b61181a565b306001600160a01b03166397e7b7f26040518163ffffffff1660e01b8152600401602060405180830381865afa1580156117f6573d6000803e3d6000fd5b505050506040513d601f19601f8201168201806040525081019061181a9190612dfd565b6001600160a01b0316815260200184608001518152602001858152602001336001600160a01b0316815260200184600001516001600160a01b03168152506040518263ffffffff1660e01b81526004016105429190612e1a565b604051630bd039cd60e21b81526001600160a01b038216600482015260609060009073__$1dcbc4e76af7484d3342475f6e32ea9921$__90632f40e73490602401602060405180830381865af41580156118d2573d6000803e3d6000fd5b505050506040513d601f19601f820116820180604052508101906118f69190612b81565b604051637f80ceb160e01b81526004810182905290915073__$1dcbc4e76af7484d3342475f6e32ea9921$__90637f80ceb190602401602060405180830381865af4158015611949573d6000803e3d6000fd5b505050506040513d601f19601f8201168201806040525081019061196d919061329e565b61197a5750606092915050565b6040516335cd115160e01b81526004810182905260009073__$1dcbc4e76af7484d3342475f6e32ea9921$__906335cd115190602401600060405180830381865af41580156119cd573d6000803e3d6000fd5b505050506040513d6000823e601f3d908101601f191682016040526119f591908101906132bb565b90506000815167ffffffffffffffff811115611a1357611a13612bb0565b604051908082528060200260200182016040528015611a4c57816020015b611a396127cd565b815260200190600190039081611a315790505b50905060005b8251811015611ce757600073__$d6b170e28cdd9080cfdbe47025803469bd$__63f0350799858481518110611a8957611a89612b9a565b60200260200101516040518263ffffffff1660e01b8152600401611aaf91815260200190565b602060405180830381865af4158015611acc573d6000803e3d6000fd5b505050506040513d601f19601f82011682018060405250810190611af09190612b81565b6040805161022081018252825481526001830154602080830191909152600284015460ff80821615158486015261010080830490911615156060808601919091526001600160a01b036201000090930483166080808701919091526003880154841660a080880191909152600489015490941660c080880191909152600589015460e08089019190915260068a015494880194909452600789015461012088015260088901546101408801526009890154610160880152600a890154610180880152600b8901546101a088015287519384018852600c8901548452600d89015495840195909552600e88015496830196909652600f870154908201526010860154948101949094526011850154908401526012840154908301526101c081019190915260138201546101e08201526014820154610200820152845191925090849084908110611c4157611c41612b9a565b60200260200101516000018190525073__$27841a34e195c5bdb1981cd870ebbdf8d8$__631e2ff94f6040518163ffffffff1660e01b8152600401602060405180830381865af4158015611c99573d6000803e3d6000fd5b505050506040513d601f19601f82011682018060405250810190611cbd9190612b81565b838381518110611ccf57611ccf612b9a565b60209081029190910101516040015250600101611a52565b50949350505050565b8060800135600003611d1557604051630b4fc37360e11b815260040160405180910390fd5b604051630bd039cd60e21b815233600482018190529060009073__$1dcbc4e76af7484d3342475f6e32ea9921$__90632f40e73490602401602060405180830381865af4158015611d6a573d6000803e3d6000fd5b505050506040513d601f19601f82011682018060405250810190611d8e9190612b81565b60405163cb7ccd9360e01b8152600481018290528435602482015290915073__$1dcbc4e76af7484d3342475f6e32ea9921$__9063cb7ccd9390604401602060405180830381865af4158015611de8573d6000803e3d6000fd5b505050506040513d601f19601f82011682018060405250810190611e0c919061329e565b611e2957604051634a32858f60e01b815260040160405180910390fd5b60405163f035079960e01b81528335600482015260009073__$d6b170e28cdd9080cfdbe47025803469bd$__9063f035079990602401602060405180830381865af4158015611e7c573d6000803e3d6000fd5b505050506040513d601f19601f82011682018060405250810190611ea09190612b81565b6002810154909150610100900460ff1615611ece57604051633046114760e01b815260040160405180910390fd5b611ede60408501602086016130a7565b156120ad57611ef360608501604086016130a7565b1580611f025750836080013534145b611f4a5760405162461bcd60e51b81526020600482015260196024820152784465706f7369742065746820616d6f756e74206572726f722160381b6044820152606401610f7a565b73__$ea03dc6e7176064baf45a14dcf3b0b0296$__63ef59a9d16040518060a00160405280866001600160a01b03168152602001876040016020810190611f9191906130a7565b611faa57611fa56080890160608a01612aed565b61201a565b73__$bda6750164d46530feeed1122c24ac1a13$__63606c0c946040518163ffffffff1660e01b815260040161012060405180830381865af4158015611ff4573d6000803e3d6000fd5b505050506040513d601f19601f8201168201806040525081019061201891906130c4565b515b6001600160a01b0316815260808801356020820152604001600181526020016120496060890160408a016130a7565b15158152506040518263ffffffff1660e01b815260040161206a9190613146565b602060405180830381865af4158015612087573d6000803e3d6000fd5b505050506040513d601f19601f820116820180604052508101906120ab9190612dfd565b505b6000806120ba84876123d7565b60405163af5c2a6b60e01b8152919350915073__$dc802fc1d3dd8347e08cf7a91e97b416c7$__9063af5c2a6b906120fc9088908a9087908790600401613361565b60006040518083038186803b15801561211457600080fd5b505af4158015612128573d6000803e3d6000fd5b50505050505050505050565b61213e338261262f565b61216457604051632d7d0e0d60e21b815233600482015260248101829052604401610f7a565b50565b600080600073__$bda6750164d46530feeed1122c24ac1a13$__63606c0c946040518163ffffffff1660e01b815260040161012060405180830381865af41580156121b6573d6000803e3d6000fd5b505050506040513d601f19601f820116820180604052508101906121da91906130c4565b60c0810151604051634b7bc68160e01b815260e08701356004820152602481019190915290915073__$e6ad93c07d6cc44a1daca561617df2deac$__90634b7bc6819060440160006040518083038186803b15801561223857600080fd5b505af415801561224c573d6000803e3d6000fd5b506122619250505060608501604086016130a7565b801561227557508360e001358460c0013510155b801561228e575061228c60808501606086016130a7565b155b156122b1576122a560e085013560c08601356133ed565b600192509250506123d0565b8360e0013534146123165760405162461bcd60e51b815260206004820152602960248201527f757064617465206c65766572616765207769746820657865637574696f6e20666044820152686565206572726f722160b81b6064820152608401610f7a565b6040805160a08101825286546001600160a01b039081168252835116602082015260e0860135818301526000606082015260016080820152905163ef59a9d160e01b815273__$ea03dc6e7176064baf45a14dcf3b0b0296$__9163ef59a9d1916123839190600401613146565b602060405180830381865af41580156123a0573d6000803e3d6000fd5b505050506040513d601f19601f820116820180604052508101906123c49190612dfd565b5050505060c081013560005b9250929050565b600080600073__$bda6750164d46530feeed1122c24ac1a13$__63606c0c946040518163ffffffff1660e01b815260040161012060405180830381865af4158015612426573d6000803e3d6000fd5b505050506040513d601f19601f8201168201806040525081019061244a91906130c4565b60a081810151604051634b7bc68160e01b8152918701356004830152602482015290915073__$e6ad93c07d6cc44a1daca561617df2deac$__90634b7bc6819060440160006040518083038186803b1580156124a557600080fd5b505af41580156124b9573d6000803e3d6000fd5b506124ce9250505060608501604086016130a7565b80156124e557506124e560408501602086016130a7565b80156124f957508360a00135846080013510155b15612510576122a560a085013560808601356133ed565b8360a0013534146125735760405162461bcd60e51b815260206004820152602760248201527f757064617465206d617267696e207769746820657865637574696f6e20666565604482015266206572726f722160c81b6064820152608401610f7a565b6040805160a0808201835287546001600160a01b0390811683528451166020830152860135818301526000606082015260016080820152905163ef59a9d160e01b815273__$ea03dc6e7176064baf45a14dcf3b0b0296$__9163ef59a9d1916125df9190600401613146565b602060405180830381865af41580156125fc573d6000803e3d6000fd5b505050506040513d601f19601f820116820180604052508101906126209190612dfd565b50505050608001359160009150565b60008061263a612669565b6001600160a01b038516600090815260208290526040902090915061265f90846126cb565b9150505b92915050565b6000806040516020016126ad906020808252601e908201527f78797a2e656c66692e73746f726167652e416363657373436f6e74726f6c0000604082015260600190565b60408051601f19818403018152919052805160209091012092915050565b600081815260018301602052604081205415155b9392505050565b604051806102200160405280600080191681526020016000801916815260200160001515815260200160001515815260200160006001600160a01b0316815260200160006001600160a01b0316815260200160006001600160a01b03168152602001600081526020016000815260200160008152602001600081526020016000815260200160008152602001600081526020016127b96040518060e00160405280600081526020016000815260200160008152602001600081526020016000815260200160008152602001600081525090565b815260200160008152602001600081525090565b60405180606001604052806127b96126e6565b600080602083850312156127f357600080fd5b823567ffffffffffffffff8082111561280b57600080fd5b818501915085601f83011261281f57600080fd5b81358181111561282e57600080fd5b8660208260051b850101111561284357600080fd5b60209290920196919550909350505050565b60008060006040848603121561286a57600080fd5b83359250602084013567ffffffffffffffff8082111561288957600080fd5b818601915086601f83011261289d57600080fd5b8135818111156128ac57600080fd5b8760208260071b85010111156128c157600080fd5b6020830194508093505050509250925092565b6001600160a01b038116811461216457600080fd5b80356128f4816128d4565b919050565b801515811461216457600080fd5b80356128f4816128f9565b6000806000806080858703121561292857600080fd5b8435612933816128d4565b935060208501359250604085013561294a816128d4565b9150606085013561295a816128f9565b939692955090935050565b80518252602081015160208301526040810151612986604084018215159052565b50606081015161299a606084018215159052565b5060808101516129b560808401826001600160a01b03169052565b5060a08101516129d060a08401826001600160a01b03169052565b5060c08101516129eb60c08401826001600160a01b03169052565b5060e08181015190830152610100808201519083015261012080820151908301526101408082015190830152610160808201519083015261018080820151908301526101a080820151908301526101c08082015180518285015260208101516101e085015260408101516102008501526060810151610220850152608081015161024085015260a081015161026085015260c081015161028085015250506101e08101516102a083015261020001516102c090910152565b6102e081016126638284612965565b60008060408385031215612ac557600080fd5b50508035926020909101359150565b60006101008284031215612ae757600080fd5b50919050565b600060208284031215612aff57600080fd5b81356126df816128d4565b602080825282518282018190526000919060409081850190868401855b82811015612b62578151612b3c858251612965565b808701516102e08601528501516103008501526103209093019290850190600101612b27565b5091979650505050505050565b600060c08284031215612ae757600080fd5b600060208284031215612b9357600080fd5b5051919050565b634e487b7160e01b600052603260045260246000fd5b634e487b7160e01b600052604160045260246000fd5b604051610100810167ffffffffffffffff81118282101715612bea57612bea612bb0565b60405290565b604051610140810167ffffffffffffffff81118282101715612bea57612bea612bb0565b604051610120810167ffffffffffffffff81118282101715612bea57612bea612bb0565b604051601f8201601f1916810167ffffffffffffffff81118282101715612c6157612c61612bb0565b604052919050565b80516128f4816128d4565b80516128f4816128f9565b60006101008284031215612c9257600080fd5b612c9a612bc6565b8251612ca5816128d4565b8152602083810151908201526040830151612cbf816128d4565b806040830152506060830151606082015260808301516080820152612ce660a08401612c74565b60a0820152612cf760c08401612c74565b60c082015260e083015160e08201528091505092915050565b6020808252818101839052600090604080840186845b87811015612d7d578135612d39816128d4565b6001600160a01b0390811684528286013590612d54826128d4565b168386015281840135848401526060808301359084015260809283019290910190600101612d26565b5090979650505050505050565b60018060a01b038082511683526020820151602084015280604083015116604084015250606081015160608301526080810151608083015260a0810151151560a083015260c0810151151560c083015260e081015160e08301525050565b82815261012081016126df6020830184612d8a565b600060208284031215612e0f57600080fd5b81516126df816128d4565b81516001600160a01b0390811682526020808401519083015260408084015190830152606080840151821690830152608092830151169181019190915260a00190565b60006101408284031215612e7057600080fd5b612e78612bf0565b612e8183612c69565b815260208301516020820152612e9960408401612c74565b6040820152612eaa60608401612c74565b6060820152612ebb60808401612c74565b608082015260a083015160a0820152612ed660c08401612c69565b60c082015260e083810151908201526101008084015190820152610120928301519281019290925250919050565b80516001600160a01b03168252602081015160208301526040810151612f2e604084018215159052565b506060810151612f42606084018215159052565b506080810151612f56608084018215159052565b5060a081015160a083015260c0810151612f7b60c08401826001600160a01b03169052565b5060e08181015190830152610100808201519083015261012090810151910152565b8381526101808101612fb26020830185612f04565b82610160830152949350505050565b60006101008284031215612fd457600080fd5b612fdc612bc6565b825181526020830151602082015260408301516040820152606083015160608201526080830151608082015260a083015160a082015260c083015160c082015260e083015160e08201528091505092915050565b634e487b7160e01b600052602160045260246000fd5b600181811c9082168061305a57607f821691505b602082108103612ae757634e487b7160e01b600052602260045260246000fd5b634e487b7160e01b600052601160045260246000fd5b80820281158282048414176126635761266361307a565b6000602082840312156130b957600080fd5b81356126df816128f9565b600061012082840312156130d757600080fd5b6130df612c14565b6130e883612c69565b81526020830151602082015260408301516040820152606083015160608201526080830151608082015260a083015160a082015260c083015160c082015260e083015160e08201526101008084015181830152508091505092915050565b81516001600160a01b0390811682526020808401519091169082015260408083015190820152606082015160a08201906004811061319457634e487b7160e01b600052602160045260246000fd5b8060608401525060808301511515608083015292915050565b6001600160a01b038516815283356020808301919091526101608201908501356131d6816128f9565b80151560408401525060408501356131ed816128f9565b80151560608401525061320260608601612907565b801515608084015250608085013560a083015261322160a086016128e9565b6001600160a01b03811660c08401525060c085013560e083015260e08501356101008301528361012083015261325c61014083018415159052565b95945050505050565b82815261016081016126df6020830184612f04565b838152610140810161328f6020830185612d8a565b82610120830152949350505050565b6000602082840312156132b057600080fd5b81516126df816128f9565b600060208083850312156132ce57600080fd5b825167ffffffffffffffff808211156132e657600080fd5b818501915085601f8301126132fa57600080fd5b81518181111561330c5761330c612bb0565b8060051b915061331d848301612c38565b818152918301840191848101908884111561333757600080fd5b938501935b838510156133555784518252938501939085019061333c565b98975050505050505050565b6001600160a01b03858116825284356020808401919091526101208301919086013561338c816128f9565b80151560408501525060408601356133a3816128f9565b80151560608501525060608601356133ba816128d4565b81811660808501525050608085013560a083015260a085013560c08301528360e083015261325c61010083018415159052565b818103818111156126635761266361307a56fea264697066735822122075a3cc5d8187e96c2563fdf3e903afbb2419470f0ff2657c9e50377e6798521f64736f6c634300081900336080604052348015600f57600080fd5b506105958061001f6000396000f3fe608060405234801561001057600080fd5b506004361061004c5760003560e01c8063208dd1ff14610051578063ab2742dc14610066578063ac4ab3fb14610079578063cb337348146100a0575b600080fd5b61006461005f3660046104cd565b6100b3565b005b6100646100743660046104cd565b610105565b61008c6100873660046104cd565b61014e565b604051901515815260200160405180910390f35b6100646100ae3660046104f7565b610163565b6100c5336420a226a4a760d91b6101ae565b6100f757604051632d7d0e0d60e21b81523360048201526420a226a4a760d91b60248201526044015b60405180910390fd5b61010182826101e6565b5050565b610117336420a226a4a760d91b6101ae565b61014457604051632d7d0e0d60e21b81523360048201526420a226a4a760d91b60248201526044016100ee565b6101018282610243565b600061015a83836101ae565b90505b92915050565b610175336420a226a4a760d91b6101ae565b6101a257604051632d7d0e0d60e21b81523360048201526420a226a4a760d91b60248201526044016100ee565b6101ab81610272565b50565b6000806101b96102ab565b6001600160a01b03851660009081526020829052604090209091506101de908461030d565b949350505050565b60006101f06102ab565b6001600160a01b0384166000908152602082905260409020909150610215908361030d565b1561023e576001600160a01b038316600090815260208290526040902061023c9083610325565b505b505050565b600061024d6102ab565b6001600160a01b038416600090815260208290526040902090915061023c9083610331565b600061027c6102ab565b6001600160a01b038316600090815260208290526040812091925081816102a3828261047f565b505050505050565b6000806040516020016102ef906020808252601e908201527f78797a2e656c66692e73746f726167652e416363657373436f6e74726f6c0000604082015260600190565b60408051601f19818403018152919052805160209091012092915050565b6000818152600183016020526040812054151561015a565b600061015a838361033d565b600061015a8383610430565b60008181526001830160205260408120548015610426576000610361600183610512565b855490915060009061037590600190610512565b90508181146103da57600086600001828154811061039557610395610533565b90600052602060002001549050808760000184815481106103b8576103b8610533565b6000918252602080832090910192909255918252600188019052604090208390555b85548690806103eb576103eb610549565b60019003818190600052602060002001600090559055856001016000868152602001908152602001600020600090556001935050505061015d565b600091505061015d565b60008181526001830160205260408120546104775750815460018181018455600084815260208082209093018490558454848252828601909352604090209190915561015d565b50600061015d565b50805460008255906000526020600020908101906101ab91905b808211156104ad5760008155600101610499565b5090565b80356001600160a01b03811681146104c857600080fd5b919050565b600080604083850312156104e057600080fd5b6104e9836104b1565b946020939093013593505050565b60006020828403121561050957600080fd5b61015a826104b1565b8181038181111561015d57634e487b7160e01b600052601160045260246000fd5b634e487b7160e01b600052603260045260246000fd5b634e487b7160e01b600052603160045260246000fdfea26469706673582212203c7c48ce293b27978ab6b7c87bd81c2c885f35d0ab4a4b47ce115eb14d3e4a5664736f6c634300081900336080604052348015600f57600080fd5b506001600055611f8d806100246000396000f3fe6080604052600436106100555760003560e01c8063182250891461005a5780633b6f91441461007c5780636990d2451461009c5780639d437bd8146100bc578063a7cb6602146100dc578063a8b6d8aa146100ef575b600080fd5b34801561006657600080fd5b5061007a61007536600461182c565b610102565b005b34801561008857600080fd5b5061007a6100973660046118ab565b610497565b3480156100a857600080fd5b5061007a6100b736600461182c565b610744565b3480156100c857600080fd5b5061007a6100d73660046118ab565b610999565b61007a6100ea3660046118cd565b610b23565b61007a6100fd3660046118e6565b611144565b61010a6116ee565b60005a90506101216525a2a2a822a960d11b611747565b604051634a83e9cd60e11b81526004810185905260009073__$988abcb60335749f19ec6e6d81793be917$__90639507d39a9060240161012060405180830381865af4158015610175573d6000803e3d6000fd5b505050506040513d601f19601f82011682018060405250810190610199919061196e565b80519091506001600160a01b03166101c457604051630f1bc76960e01b815260040160405180910390fd5b604051631d4cb62f60e21b815273__$bb4e55f00c0f45d2719800850b371b8ff8$__90637532d8bc906101fd9087908790600401611a08565b60006040518083038186803b15801561021557600080fd5b505af4158015610229573d6000803e3d6000fd5b505060405163c9ae3f5760e01b815273__$317369ce5f87122bd799bfe01bc62bd30d$__925063c9ae3f5791506102669088908590600401611af2565b602060405180830381865af4158015610283573d6000803e3d6000fd5b505050506040513d601f19601f820116820180604052508101906102a79190611b07565b5073__$bb4e55f00c0f45d2719800850b371b8ff8$__63e52ed3656040518163ffffffff1660e01b815260040160006040518083038186803b1580156102ec57600080fd5b505af4158015610300573d6000803e3d6000fd5b5050505073__$e6ad93c07d6cc44a1daca561617df2deac$__634d4d56726040518060a0016040528084610100015161039a57306001600160a01b0316631f7592ea6040518163ffffffff1660e01b8152600401602060405180830381865afa158015610371573d6000803e3d6000fd5b505050506040513d601f19601f820116820180604052508101906103959190611b20565b6103fc565b306001600160a01b03166308ba026f6040518163ffffffff1660e01b8152600401602060405180830381865afa1580156103d8573d6000803e3d6000fd5b505050506040513d601f19601f820116820180604052508101906103fc9190611b20565b6001600160a01b031681526020018460c001518152602001858152602001336001600160a01b0316815260200184600001516001600160a01b03168152506040518263ffffffff1660e01b81526004016104569190611b3d565b60006040518083038186803b15801561046e57600080fd5b505af4158015610482573d6000803e3d6000fd5b5050505050506104926001600055565b505050565b60005a90506104ae6525a2a2a822a960d11b611747565b604051634a83e9cd60e11b81526004810184905260009073__$988abcb60335749f19ec6e6d81793be917$__90639507d39a9060240161012060405180830381865af4158015610502573d6000803e3d6000fd5b505050506040513d601f19601f82011682018060405250810190610526919061196e565b80519091506001600160a01b031661055157604051630f1bc76960e01b815260040160405180910390fd5b6040516374ecebb160e11b815273__$317369ce5f87122bd799bfe01bc62bd30d$__9063e9d9d7629061058c90879085908890600401611b80565b60006040518083038186803b1580156105a457600080fd5b505af41580156105b8573d6000803e3d6000fd5b5050505073__$e6ad93c07d6cc44a1daca561617df2deac$__634d4d56726040518060a0016040528084610100015161065257306001600160a01b0316631f7592ea6040518163ffffffff1660e01b8152600401602060405180830381865afa158015610629573d6000803e3d6000fd5b505050506040513d601f19601f8201168201806040525081019061064d9190611b20565b6106b4565b306001600160a01b03166308ba026f6040518163ffffffff1660e01b8152600401602060405180830381865afa158015610690573d6000803e3d6000fd5b505050506040513d601f19601f820116820180604052508101906106b49190611b20565b6001600160a01b031681526020018460c001518152602001858152602001336001600160a01b0316815260200184600001516001600160a01b03168152506040518263ffffffff1660e01b815260040161070e9190611b3d565b60006040518083038186803b15801561072657600080fd5b505af415801561073a573d6000803e3d6000fd5b5050505050505050565b61074c6116ee565b60005a90506107636525a2a2a822a960d11b611747565b604051631d4cb62f60e21b815273__$bb4e55f00c0f45d2719800850b371b8ff8$__90637532d8bc9061079c9086908690600401611a08565b60006040518083038186803b1580156107b457600080fd5b505af41580156107c8573d6000803e3d6000fd5b5050604051634a83e9cd60e11b8152600481018790526000925073__$112492f1c5afaf3f538f3ccf4c11509573$__9150639507d39a9060240160e060405180830381865af415801561081f573d6000803e3d6000fd5b505050506040513d601f19601f820116820180604052508101906108439190611ba4565b60208101519091506001600160a01b031661087157604051630a24c01d60e31b815260040160405180910390fd5b604051635b86b58d60e01b815273__$8bc6b0bc08b50b3cdb2560c802737e16f1$__90635b86b58d906108aa9088908590600401611cae565b60006040518083038186803b1580156108c257600080fd5b505af41580156108d6573d6000803e3d6000fd5b5050505073__$bb4e55f00c0f45d2719800850b371b8ff8$__63e52ed3656040518163ffffffff1660e01b815260040160006040518083038186803b15801561091e57600080fd5b505af4158015610932573d6000803e3d6000fd5b5050505073__$e6ad93c07d6cc44a1daca561617df2deac$__634d4d56726040518060a00160405280306001600160a01b0316631f7592ea6040518163ffffffff1660e01b8152600401602060405180830381865afa1580156103d8573d6000803e3d6000fd5b60005a90506109b06525a2a2a822a960d11b611747565b604051634a83e9cd60e11b81526004810184905260009073__$112492f1c5afaf3f538f3ccf4c11509573$__90639507d39a9060240160e060405180830381865af4158015610a03573d6000803e3d6000fd5b505050506040513d601f19601f82011682018060405250810190610a279190611ba4565b60208101519091506001600160a01b0316610a5557604051630a24c01d60e31b815260040160405180910390fd5b604051631189a61f60e01b815273__$8bc6b0bc08b50b3cdb2560c802737e16f1$__90631189a61f90610a9090879085908890600401611cc3565b60006040518083038186803b158015610aa857600080fd5b505af4158015610abc573d6000803e3d6000fd5b5050505073__$e6ad93c07d6cc44a1daca561617df2deac$__634d4d56726040518060a00160405280306001600160a01b0316631f7592ea6040518163ffffffff1660e01b8152600401602060405180830381865afa158015610690573d6000803e3d6000fd5b610b2b6116ee565b8060400135600003610b5057604051637e278d5760e11b815260040160405180910390fd5b6000610b5f6020830183611ce7565b6001600160a01b031603610b865760405163801c452360e01b815260040160405180910390fd5b336000610b996040840160208501611ce7565b9050610ba86020840184611ce7565b6001600160a01b031673__$743db1863e6a0ee1ad13b47ec8f30557c4$__63f141859a6040518163ffffffff1660e01b8152600401602060405180830381865af4158015610bfa573d6000803e3d6000fd5b505050506040513d601f19601f82011682018060405250810190610c1e9190611b20565b6001600160a01b031603610cf0576040516339374da160e21b81526001600160a01b038216600482015273__$2ca09eef01f3e987781766047ffc2a4e22$__9063e4dd368490602401602060405180830381865af4158015610c84573d6000803e3d6000fd5b505050506040513d601f19601f82011682018060405250810190610ca89190611d04565b610ceb57610cb96020840184611ce7565b6040516364f3d63f60e01b81526001600160a01b03918216600482015290821660248201526044015b60405180910390fd5b610ea1565b73__$743db1863e6a0ee1ad13b47ec8f30557c4$__634f52e5b6610d176020860186611ce7565b6040516001600160e01b031960e084901b1681526001600160a01b039091166004820152602401602060405180830381865af4158015610d5b573d6000803e3d6000fd5b505050506040513d601f19601f82011682018060405250810190610d7f9190611d04565b15610e6f57600073__$7b3f0eea015ed8194e857e3ec238e14f04$__632f40e734610dad6020870187611ce7565b6040516001600160e01b031960e084901b1681526001600160a01b039091166004820152602401602060405180830381865af4158015610df1573d6000803e3d6000fd5b505050506040513d601f19601f82011682018060405250810190610e159190611b07565b60028101549091506001600160a01b03838116911614610e6957610e3c6020850185611ce7565b6040516364f3d63f60e01b81526001600160a01b0391821660048201529083166024820152604401610ce2565b50610ea1565b610e7c6020840184611ce7565b60405163f31dadd760e01b81526001600160a01b039091166004820152602401610ce2565b60608301351561101f57610ebc610100840160e08501611d21565b1580610ecb5750826060013534145b610f175760405162461bcd60e51b815260206004820152601960248201527f4465706f7369742065746820616d6f756e74206572726f7221000000000000006044820152606401610ce2565b73__$ea03dc6e7176064baf45a14dcf3b0b0296$__63ef59a9d16040518060a00160405280856001600160a01b03168152602001866020016020810190610f5e9190611ce7565b6001600160a01b0316815260608701356020820152604001610f8660e0880160c08901611d21565b610f91576002610f94565b60035b6003811115610fa557610fa5611d3e565b8152602001610fbb610100880160e08901611d21565b15158152506040518263ffffffff1660e01b8152600401610fdc9190611d54565b602060405180830381865af4158015610ff9573d6000803e3d6000fd5b505050506040513d601f19601f8201168201806040525081019061101d9190611b20565b505b60008073__$317369ce5f87122bd799bfe01bc62bd30d$__637c853ff385876040518363ffffffff1660e01b815260040161105b929190611e44565b6040805180830381865af4158015611077573d6000803e3d6000fd5b505050506040513d601f19601f8201168201806040525081019061109b9190611e62565b9150915081856040013510156110c45760405163801c452360e01b815260040160405180910390fd5b60405163a405d30760e01b815273__$317369ce5f87122bd799bfe01bc62bd30d$__9063a405d307906111039088908890889088908890600401611e92565b60006040518083038186803b15801561111b57600080fd5b505af415801561112f573d6000803e3d6000fd5b50505050505050506111416001600055565b50565b61114c6116ee565b60008160600135116111955760405162461bcd60e51b81526020600482015260126024820152710756e5374616b65416d6f756e74203d3d20360741b6044820152606401610ce2565b73__$6da87a77f33546d3f0e6244a8f7078a532$__637ff877006111bc6020840184611ce7565b6040516001600160e01b031960e084901b1681526001600160a01b03909116600482015260240160006040518083038186803b1580156111fb57600080fd5b505af415801561120f573d6000803e3d6000fd5b503392506000915061122990506040840160208501611ce7565b6040516370a0823160e01b81526001600160a01b03848116600483015291909116906370a0823190602401602060405180830381865afa158015611271573d6000803e3d6000fd5b505050506040513d601f19601f820116820180604052508101906112959190611b07565b9050806000036112dc57816112b06040850160208601611ce7565b60405163f8b251f760e01b81526001600160a01b03928316600482015291166024820152604401610ce2565b82606001358110156112f957816112b06040850160208601611ce7565b6113096040840160208501611ce7565b6001600160a01b031673__$743db1863e6a0ee1ad13b47ec8f30557c4$__63f141859a6040518163ffffffff1660e01b8152600401602060405180830381865af415801561135b573d6000803e3d6000fd5b505050506040513d601f19601f8201168201806040525081019061137f9190611b20565b6001600160a01b0316036114745773__$2ca09eef01f3e987781766047ffc2a4e22$__63e4dd36846113b76060860160408701611ce7565b6040516001600160e01b031960e084901b1681526001600160a01b039091166004820152602401602060405180830381865af41580156113fb573d6000803e3d6000fd5b505050506040513d601f19601f8201168201806040525081019061141f9190611d04565b61146f576114336040840160208501611ce7565b6114436060850160408601611ce7565b60405163fdeabc1960e01b81526001600160a01b03928316600482015291166024820152604401610ce2565b6115fe565b73__$743db1863e6a0ee1ad13b47ec8f30557c4$__634f52e5b661149e6040860160208701611ce7565b6040516001600160e01b031960e084901b1681526001600160a01b039091166004820152602401602060405180830381865af41580156114e2573d6000803e3d6000fd5b505050506040513d601f19601f820116820180604052508101906115069190611d04565b156115ee57600073__$7b3f0eea015ed8194e857e3ec238e14f04$__632f40e7346115376040870160208801611ce7565b6040516001600160e01b031960e084901b1681526001600160a01b039091166004820152602401602060405180830381865af415801561157b573d6000803e3d6000fd5b505050506040513d601f19601f8201168201806040525081019061159f9190611b07565b90506115b16060850160408601611ce7565b60028201546001600160a01b039081169116146115e8576115d86040850160208601611ce7565b6114436060860160408701611ce7565b506115fe565b610e7c6040840160208501611ce7565b604051633d39be3760e21b81526001600160a01b038316600482015260a0840135602482015273__$8bc6b0bc08b50b3cdb2560c802737e16f1$__9063f4e6f8dc9060440160006040518083038186803b15801561165b57600080fd5b505af415801561166f573d6000803e3d6000fd5b50506040516305c00cf160e01b815273__$8bc6b0bc08b50b3cdb2560c802737e16f1$__92506305c00cf191506116b29086908690606083013590600401611ed6565b60006040518083038186803b1580156116ca57600080fd5b505af41580156116de573d6000803e3d6000fd5b5050505050506111416001600055565b6002600054036117405760405162461bcd60e51b815260206004820152601f60248201527f5265656e7472616e637947756172643a207265656e7472616e742063616c6c006044820152606401610ce2565b6002600055565b6117513382611777565b61114157604051632d7d0e0d60e21b815233600482015260248101829052604401610ce2565b6000806117826117af565b6001600160a01b03851660009081526020829052604090209091506117a79084611811565b949350505050565b6000806040516020016117f3906020808252601e908201527f78797a2e656c66692e73746f726167652e416363657373436f6e74726f6c0000604082015260600190565b60408051601f19818403018152919052805160209091012092915050565b600081815260018301602052604081205415155b9392505050565b60008060006040848603121561184157600080fd5b83359250602084013567ffffffffffffffff8082111561186057600080fd5b818601915086601f83011261187457600080fd5b81358181111561188357600080fd5b8760208260071b850101111561189857600080fd5b6020830194508093505050509250925092565b600080604083850312156118be57600080fd5b50508035926020909101359150565b600061010082840312156118e057600080fd5b50919050565b600060c082840312156118e057600080fd5b604051610120810167ffffffffffffffff8111828210171561192a57634e487b7160e01b600052604160045260246000fd5b60405290565b6001600160a01b038116811461114157600080fd5b805161195081611930565b919050565b801515811461114157600080fd5b805161195081611955565b6000610120828403121561198157600080fd5b6119896118f8565b61199283611945565b81526119a060208401611945565b60208201526119b160408401611945565b6040820152606083015160608201526080830151608082015260a083015160a082015260c083015160c08201526119ea60e08401611963565b60e08201526101006119fd818501611963565b908201529392505050565b6020808252818101839052600090604080840186845b87811015611a75578135611a3181611930565b6001600160a01b0390811684528286013590611a4c82611930565b168386015281840135848401526060808301359084015260809283019290910190600101611a1e565b5090979650505050505050565b60018060a01b0380825116835280602083015116602084015280604083015116604084015250606081015160608301526080810151608083015260a081015160a083015260c081015160c083015260e0810151611ae360e084018215159052565b50610100908101511515910152565b82815261014081016118256020830184611a82565b600060208284031215611b1957600080fd5b5051919050565b600060208284031215611b3257600080fd5b815161182581611930565b81516001600160a01b0390811682526020808401519083015260408084015190830152606080840151821690830152608092830151169181019190915260a00190565b8381526101608101611b956020830185611a82565b82610140830152949350505050565b600060e08284031215611bb657600080fd5b60405160e0810181811067ffffffffffffffff82111715611be757634e487b7160e01b600052604160045260246000fd5b6040528251611bf581611930565b81526020830151611c0581611930565b60208201526040830151611c1881611930565b60408201526060830151611c2b81611930565b806060830152506080830151608082015260a083015160a082015260c083015160c08201528091505092915050565b60018060a01b03808251168352806020830151166020840152806040830151166040840152806060830151166060840152506080810151608083015260a081015160a083015260c081015160c08301525050565b82815261010081016118256020830184611c5a565b8381526101208101611cd86020830185611c5a565b82610100830152949350505050565b600060208284031215611cf957600080fd5b813561182581611930565b600060208284031215611d1657600080fd5b815161182581611955565b600060208284031215611d3357600080fd5b813561182581611955565b634e487b7160e01b600052602160045260246000fd5b81516001600160a01b0390811682526020808401519091169082015260408083015190820152606082015160a082019060048110611da257634e487b7160e01b600052602160045260246000fd5b8060608401525060808301511515608083015292915050565b8035611dc681611930565b6001600160a01b039081168352602082013590611de282611930565b8082166020850152505060408101356040830152606081013560608301526080810135608083015260a081013560a083015260c0810135611e2281611955565b151560c083015260e0810135611e3781611955565b80151560e0840152505050565b6001600160a01b038316815261012081016118256020830184611dbb565b60008060408385031215611e7557600080fd5b825191506020830151611e8781611955565b809150509250929050565b6101808101611ea18288611dbb565b6001600160a01b0395861661010083015293909416610120850152610140840191909152151561016090920191909152919050565b61010081018435611ee681611930565b6001600160a01b039081168352602086013590611f0282611930565b9081166020840152604086013590611f1982611930565b8082166040850152606087013560608501526080870135608085015260a087013560a085015280861660c085015250508260e083015294935050505056fea2646970667358221220800bd0728386c01470952e907c3b954cc53f712cd96afa309addfda3b45df6c564736f6c634300081900336080604052348015600f57600080fd5b506103028061001f6000396000f3fe608060405234801561001057600080fd5b50600436106100365760003560e01c8063180e24bb1461003b5780631d3c97b714610060575b600080fd5b61004e61004936600461018c565b610075565b60405190815260200160405180910390f35b61007361006e3660046101c8565b610103565b005b60405163180e24bb60e01b81526001600160a01b0383166004820152811515602482015260009073__$bb4e55f00c0f45d2719800850b371b8ff8$__9063180e24bb90604401602060405180830381865af41580156100d8573d6000803e3d6000fd5b505050506040513d601f19601f820116820180604052508101906100fc919061023d565b9392505050565b604051631d4cb62f60e21b815273__$bb4e55f00c0f45d2719800850b371b8ff8$__90637532d8bc9061013c9085908590600401610256565b60006040518083038186803b15801561015457600080fd5b505af4158015610168573d6000803e3d6000fd5b505050505050565b80356001600160a01b038116811461018757600080fd5b919050565b6000806040838503121561019f57600080fd5b6101a883610170565b9150602083013580151581146101bd57600080fd5b809150509250929050565b600080602083850312156101db57600080fd5b823567ffffffffffffffff808211156101f357600080fd5b818501915085601f83011261020757600080fd5b81358181111561021657600080fd5b8660208260071b850101111561022b57600080fd5b60209290920196919550909350505050565b60006020828403121561024f57600080fd5b5051919050565b6020808252818101839052600090604080840186845b878110156102bf576001600160a01b038061028684610170565b16845280610295878501610170565b1684870152508184013584840152606080830135908401526080928301929091019060010161026c565b509097965050505050505056fea26469706673582212205fbaa8df3b01cd0211b8eea482921f671bc15fa23aff36b990e197587f79fa7764736f6c634300081900336080604052348015600f57600080fd5b5061089d8061001f6000396000f3fe608060405234801561001057600080fd5b50600436106100415760003560e01c80638e941347146100465780639fe30b031461006c578063c93c5b401461007f575b600080fd5b61005961005436600461056d565b61009f565b6040519081526020015b60405180910390f35b61005961007a3660046105b8565b6101b2565b61009261008d3660046105dc565b61023b565b6040516100639190610651565b604051630bd039cd60e21b81526001600160a01b038416600482015260009073__$191a6263ecbfae700711f035c52cfbd3c9$__90632f40e73490602401602060405180830381865af41580156100fa573d6000803e3d6000fd5b505050506040513d601f19601f8201168201806040525081019061011e91906106f0565b60405163f077a96b60e01b815260048101919091526001600160a01b0380851660248301528316604482015273__$191a6263ecbfae700711f035c52cfbd3c9$__9063f077a96b906064016040805180830381865af4158015610185573d6000803e3d6000fd5b505050506040513d601f19601f820116820180604052508101906101a99190610750565b51949350505050565b604051630bd039cd60e21b81526001600160a01b038216600482015260009073__$191a6263ecbfae700711f035c52cfbd3c9$__90632f40e73490602401602060405180830381865af415801561020d573d6000803e3d6000fd5b505050506040513d601f19601f8201168201806040525081019061023191906106f0565b6005015492915050565b6102666040518060800160405280600081526020016060815260200160608152602001606081525090565b604051630bd039cd60e21b81526001600160a01b038416600482015260009073__$191a6263ecbfae700711f035c52cfbd3c9$__90632f40e73490602401602060405180830381865af41580156102c1573d6000803e3d6000fd5b505050506040513d601f19601f820116820180604052508101906102e591906106f0565b60405163b4396a5b60e01b8152600481018290526001600160a01b038516602482015290915060009073__$191a6263ecbfae700711f035c52cfbd3c9$__9063b4396a5b90604401600060405180830381865af415801561034a573d6000803e3d6000fd5b505050506040513d6000823e601f3d908101601f19168201604052610372919081019061079f565b90506000815167ffffffffffffffff81111561039057610390610709565b6040519080825280602002602001820160405280156103b9578160200160208202803683370190505b5090506000825167ffffffffffffffff8111156103d8576103d8610709565b604051908082528060200260200182016040528015610401578160200160208202803683370190505b50905060005b83518110156105125760008573__$191a6263ecbfae700711f035c52cfbd3c9$__63f077a96b90918a88868151811061044257610442610851565b60200260200101516040518463ffffffff1660e01b8152600401610482939291909283526001600160a01b03918216602084015216604082015260600190565b6040805180830381865af415801561049e573d6000803e3d6000fd5b505050506040513d601f19601f820116820180604052508101906104c29190610750565b905080600001518483815181106104db576104db610851565b60200260200101818152505080602001518383815181106104fe576104fe610851565b602090810291909101015250600101610407565b50604080516080810182526001600160a01b0388166000908152600390960160209081529582902054815294850193909352918301526060820152905092915050565b6001600160a01b038116811461056a57600080fd5b50565b60008060006060848603121561058257600080fd5b833561058d81610555565b9250602084013561059d81610555565b915060408401356105ad81610555565b809150509250925092565b6000602082840312156105ca57600080fd5b81356105d581610555565b9392505050565b600080604083850312156105ef57600080fd5b82356105fa81610555565b9150602083013561060a81610555565b809150509250929050565b60008151808452602080850194506020840160005b838110156106465781518752958201959082019060010161062a565b509495945050505050565b60208082528251828201528281015160806040840152805160a0840181905260009291820190839060c08601905b808310156106a85783516001600160a01b0316825292840192600192909201919084019061067f565b5060408701519350601f199250828682030160608701526106c98185610615565b935050506060850151818584030160808601526106e68382610615565b9695505050505050565b60006020828403121561070257600080fd5b5051919050565b634e487b7160e01b600052604160045260246000fd5b604051601f8201601f1916810167ffffffffffffffff8111828210171561074857610748610709565b604052919050565b60006040828403121561076257600080fd5b6040516040810181811067ffffffffffffffff8211171561078557610785610709565b604052825181526020928301519281019290925250919050565b600060208083850312156107b257600080fd5b825167ffffffffffffffff808211156107ca57600080fd5b818501915085601f8301126107de57600080fd5b8151818111156107f0576107f0610709565b8060051b915061080184830161071f565b818152918301840191848101908884111561081b57600080fd5b938501935b83851015610845578451925061083583610555565b8282529385019390850190610820565b98975050505050505050565b634e487b7160e01b600052603260045260246000fdfea26469706673582212201fb8a758f652e633a27b5ae9c417dca70e9d882a81b4d170313fde2bd4e937a964736f6c634300081900336080604052348015600f57600080fd5b5060016000556113ab806100246000396000f3fe608060405234801561001057600080fd5b50600436106100575760003560e01c80631559a2431461005c5780633e4fb7c21461008557806375d037d0146100a55780639e9e78f4146100ad578063bbe4f6db146100cd575b600080fd5b61006f61006a366004610507565b6100e0565b60405161007c9190610661565b60405180910390f35b610098610093366004610507565b61016d565b60405161007c919061095b565b61006f6101ee565b6100c06100bb3660046109d7565b61026c565b60405161007c9190610a2b565b6100c06100db366004610a3e565b6102fc565b6100e8610385565b6040516351a2d1d960e11b815273__$25f434b046b3be09ee6eb7fd6d1ece0e36$__9063a345a3b2906101219086908690600401610ac4565b600060405180830381865af415801561013e573d6000803e3d6000fd5b505050506040513d6000823e601f3d908101601f191682016040526101669190810190610e0c565b9392505050565b60405163c77b227f60e01b815260609073__$25f434b046b3be09ee6eb7fd6d1ece0e36$__9063c77b227f906101a99086908690600401610ac4565b600060405180830381865af41580156101c6573d6000803e3d6000fd5b505050506040513d6000823e601f3d908101601f1916820160405261016691908101906111f1565b6101f6610385565b73__$25f434b046b3be09ee6eb7fd6d1ece0e36$__6375d037d06040518163ffffffff1660e01b8152600401600060405180830381865af415801561023f573d6000803e3d6000fd5b505050506040513d6000823e601f3d908101601f191682016040526102679190810190610e0c565b905090565b6102746103d1565b604051630c39392160e31b815273__$25f434b046b3be09ee6eb7fd6d1ece0e36$__906361c9c908906102af908790879087906004016112a1565b600060405180830381865af41580156102cc573d6000803e3d6000fd5b505050506040513d6000823e601f3d908101601f191682016040526102f491908101906112c6565b949350505050565b6103046103d1565b604051630c39392160e31b815260609073__$25f434b046b3be09ee6eb7fd6d1ece0e36$__906361c9c9089061034090869085906004016112fa565b600060405180830381865af415801561035d573d6000803e3d6000fd5b505050506040513d6000823e601f3d908101601f1916820160405261016691908101906112c6565b6040518061012001604052806060815260200160608152602001606081526020016000815260200160008152602001606081526020016060815260200160008152602001600081525090565b604051806101c0016040528060006001600160a01b031681526020016060815260200160006001600160a01b031681526020016000801916815260200161044e6040518060e00160405280600081526020016000815260200160008152602001600081526020016000815260200160608152602001606081525090565b81526020016060815260200160608152602001600081526020016000815260200160008152602001600081526020016104a86040518060800160405280600081526020016000815260200160008152602001600081525090565b815260200160008152602001600081525090565b60008083601f8401126104ce57600080fd5b5081356001600160401b038111156104e557600080fd5b6020830191508360208260071b850101111561050057600080fd5b9250929050565b6000806020838503121561051a57600080fd5b82356001600160401b0381111561053057600080fd5b61053c858286016104bc565b90969095509350505050565b60008151808452602080850194506020840160005b838110156105825781516001600160a01b03168752958201959082019060010161055d565b509495945050505050565b60008151808452602080850194506020840160005b8381101561058257815180518852838101518489015260409081015190880152606090960195908201906001016105a2565b60008151808452602080850194506020840160005b83811015610582578151875295820195908201906001016105e9565b60008151808452602080850194506020840160005b838110156105825761064e878351805182526020810151602083015260408101516040830152606081015160608301525050565b608096909601959082019060010161061a565b6020815260008251610120806020850152610680610140850183610548565b91506020850151601f198086850301604087015261069e848361058d565b935060408701519150808685030160608701526106bb84836105d4565b935060608701516080870152608087015160a087015260a08701519150808685030160c08701526106ec84836105d4565b935060c08701519150808685030160e08701525061070a8382610605565b60e087015161010087810191909152909601519190940152509192915050565b60005b8381101561074557818101518382015260200161072d565b50506000910152565b6000815180845261076681602086016020860161072a565b601f01601f19169290920160200192915050565b8051825260208101516020830152604081015160408301526060810151606083015260808101516080830152600060a082015160e060a08501526107c160e0850182610548565b905060c083015184820360c08601526107da82826105d4565b95945050505050565b60008282518085526020808601955060208260051b8401016020860160005b8481101561083057601f1986840301895261081e83835161077a565b98840198925090830190600101610802565b5090979650505050505050565b80516001600160a01b03168252600061022060208301518160208601526108668286018261074e565b915050604083015161088360408601826001600160a01b03169052565b5060608301516060850152608083015184820360808601526108a5828261077a565b91505060a083015184820360a08601526108bf8282610548565b91505060c083015184820360c08601526108d982826107e3565b60e0858101519087015261010080860151908701526101208086015190870152610140808601519087015261016080860151805182890152602081015161018089015260408101516101a089015260608101516101c0890152919350915050506101808301516101e08501526101a08301516102008501528091505092915050565b600060208083016020845280855180835260408601915060408160051b87010192506020870160005b828110156109b257603f198886030184526109a085835161083d565b94509285019290850190600101610984565b5092979650505050505050565b6001600160a01b03811681146109d457600080fd5b50565b6000806000604084860312156109ec57600080fd5b83356109f7816109bf565b925060208401356001600160401b03811115610a1257600080fd5b610a1e868287016104bc565b9497909650939450505050565b602081526000610166602083018461083d565b600060208284031215610a5057600080fd5b8135610166816109bf565b8183526000602080850194508260005b85811015610582578135610a7e816109bf565b6001600160a01b0390811688528284013590610a99826109bf565b1687840152604082810135908801526060808301359088015260809687019690910190600101610a6b565b6020815260006102f4602083018486610a5b565b634e487b7160e01b600052604160045260246000fd5b604051606081016001600160401b0381118282101715610b1057610b10610ad8565b60405290565b60405161012081016001600160401b0381118282101715610b1057610b10610ad8565b60405160e081016001600160401b0381118282101715610b1057610b10610ad8565b6040516101c081016001600160401b0381118282101715610b1057610b10610ad8565b604051601f8201601f191681016001600160401b0381118282101715610ba657610ba6610ad8565b604052919050565b60006001600160401b03821115610bc757610bc7610ad8565b5060051b60200190565b8051610bdc816109bf565b919050565b600082601f830112610bf257600080fd5b81516020610c07610c0283610bae565b610b7e565b8083825260208201915060208460051b870101935086841115610c2957600080fd5b602086015b84811015610c4e578051610c41816109bf565b8352918301918301610c2e565b509695505050505050565b600082601f830112610c6a57600080fd5b81516020610c7a610c0283610bae565b82815260609283028501820192828201919087851115610c9957600080fd5b8387015b858110156108305781818a031215610cb55760008081fd5b610cbd610aee565b815181528582015186820152604080830151908201528452928401928101610c9d565b600082601f830112610cf157600080fd5b81516020610d01610c0283610bae565b8083825260208201915060208460051b870101935086841115610d2357600080fd5b602086015b84811015610c4e5780518352918301918301610d28565b600060808284031215610d5157600080fd5b604051608081018181106001600160401b0382111715610d7357610d73610ad8565b8060405250809150825181526020830151602082015260408301516040820152606083015160608201525092915050565b600082601f830112610db557600080fd5b81516020610dc5610c0283610bae565b8083825260208201915060208460071b870101935086841115610de757600080fd5b602086015b84811015610c4e57610dfe8882610d3f565b835291830191608001610dec565b600060208284031215610e1e57600080fd5b81516001600160401b0380821115610e3557600080fd5b908301906101208286031215610e4a57600080fd5b610e52610b16565b825182811115610e6157600080fd5b610e6d87828601610be1565b825250602083015182811115610e8257600080fd5b610e8e87828601610c59565b602083015250604083015182811115610ea657600080fd5b610eb287828601610ce0565b604083015250606083015160608201526080830151608082015260a083015182811115610ede57600080fd5b610eea87828601610ce0565b60a08301525060c083015182811115610f0257600080fd5b610f0e87828601610da4565b60c08301525060e083810151908201526101009283015192810192909252509392505050565b600082601f830112610f4557600080fd5b81516001600160401b03811115610f5e57610f5e610ad8565b610f71601f8201601f1916602001610b7e565b818152846020838601011115610f8657600080fd5b6102f482602083016020870161072a565b600060e08284031215610fa957600080fd5b610fb1610b39565b9050815181526020820151602082015260408201516040820152606082015160608201526080820151608082015260a08201516001600160401b0380821115610ff957600080fd5b61100585838601610be1565b60a084015260c084015191508082111561101e57600080fd5b5061102b84828501610ce0565b60c08301525092915050565b600082601f83011261104857600080fd5b81516020611058610c0283610bae565b82815260059290921b8401810191818101908684111561107757600080fd5b8286015b84811015610c4e5780516001600160401b0381111561109a5760008081fd5b6110a88986838b0101610f97565b84525091830191830161107b565b600061022082840312156110c957600080fd5b6110d1610b5b565b90506110dc82610bd1565b815260208201516001600160401b03808211156110f857600080fd5b61110485838601610f34565b602084015261111560408501610bd1565b604084015260608401516060840152608084015191508082111561113857600080fd5b61114485838601610f97565b608084015260a084015191508082111561115d57600080fd5b61116985838601610be1565b60a084015260c084015191508082111561118257600080fd5b5061118f84828501611037565b60c08301525060e082810151908201526101008083015190820152610120808301519082015261014080830151908201526101606111cf84828501610d3f565b908201526101e0820151610180820152610200909101516101a0820152919050565b6000602080838503121561120457600080fd5b82516001600160401b038082111561121b57600080fd5b818501915085601f83011261122f57600080fd5b815161123d610c0282610bae565b81815260059190911b8301840190848101908883111561125c57600080fd5b8585015b83811015611294578051858111156112785760008081fd5b6112868b89838a01016110b6565b845250918601918601611260565b5098975050505050505050565b6001600160a01b03841681526040602082018190526000906107da9083018486610a5b565b6000602082840312156112d857600080fd5b81516001600160401b038111156112ee57600080fd5b6102f4848285016110b6565b6001600160a01b038381168252604060208084018290528451848301819052600093606092909183870190888301875b82811015611365578151805187168552858101518716868601528881015189860152870151878501526080909301929084019060010161132a565b50919a995050505050505050505056fea26469706673582212204c85ace11c772486305c684fffa8a3a848151fd4aea9952b817781610752eb0e64736f6c634300081900336080604052348015600f57600080fd5b506103f78061001f6000396000f3fe608060405234801561001057600080fd5b506004361061002b5760003560e01c8063d3e4af2814610030575b600080fd5b61004361003e3660046102ba565b610045565b005b6100576525a2a2a822a960d11b6101e6565b60005a604051631d4cb62f60e21b815290915073__$bb4e55f00c0f45d2719800850b371b8ff8$__90637532d8bc90610096908690869060040161034b565b60006040518083038186803b1580156100ae57600080fd5b505af41580156100c2573d6000803e3d6000fd5b5050505073__$aa586609104187a69096da7747e4c95580$__637a6efd476040518163ffffffff1660e01b815260040160006040518083038186803b15801561010a57600080fd5b505af415801561011e573d6000803e3d6000fd5b5050505073__$bb4e55f00c0f45d2719800850b371b8ff8$__63e52ed3656040518163ffffffff1660e01b815260040160006040518083038186803b15801561016657600080fd5b505af415801561017a573d6000803e3d6000fd5b50506040516307c43b6960e21b81526004810184905273__$e6ad93c07d6cc44a1daca561617df2deac$__9250631f10eda4915060240160006040518083038186803b1580156101c957600080fd5b505af41580156101dd573d6000803e3d6000fd5b50505050505050565b6101f0338261021d565b61021a57604051632d7d0e0d60e21b81523360048201526024810182905260440160405180910390fd5b50565b600080610228610258565b6001600160a01b039490941660009081526020948552604080822094825260019094019094525050902054151590565b60008060405160200161029c906020808252601e908201527f78797a2e656c66692e73746f726167652e416363657373436f6e74726f6c0000604082015260600190565b60408051601f19818403018152919052805160209091012092915050565b600080602083850312156102cd57600080fd5b823567ffffffffffffffff808211156102e557600080fd5b818501915085601f8301126102f957600080fd5b81358181111561030857600080fd5b8660208260071b850101111561031d57600080fd5b60209290920196919550909350505050565b80356001600160a01b038116811461034657600080fd5b919050565b6020808252818101839052600090604080840186845b878110156103b4576001600160a01b038061037b8461032f565b1684528061038a87850161032f565b16848701525081840135848401526060808301359084015260809283019290910190600101610361565b509097965050505050505056fea26469706673582212209aee74c4d309342043f08fbb0311bad48e9814b2f4f469128f6393071ca2144864736f6c634300081900336080604052348015600f57600080fd5b506116818061001f6000396000f3fe6080604052600436106100a75760003560e01c8063943144b711610064578063943144b71461019b578063ada56365146101ae578063b9ee8073146101db578063bc8f47c5146101fb578063e9e6741f1461021b578063ed3bb1471461023b57600080fd5b806351ebcaad146100ac57806355be18cb146100df5780635b9e52be146100ff5780635c99abaa1461012c5780637ad18303146101595780639084692c14610179575b600080fd5b3480156100b857600080fd5b506100cc6100c7366004610f20565b61025b565b6040519081526020015b60405180910390f35b3480156100eb57600080fd5b506100cc6100fa366004610f20565b6102ec565b34801561010b57600080fd5b5061011f61011a366004610f59565b610337565b6040516100d691906110a1565b34801561013857600080fd5b5061014c610147366004611105565b6104a1565b6040516100d69190611150565b34801561016557600080fd5b506100cc610174366004611105565b610536565b34801561018557600080fd5b5061019961019436600461115e565b6105b5565b005b6101996101a93660046111dd565b6108b4565b3480156101ba57600080fd5b506101ce6101c9366004611105565b610930565b6040516100d69190611209565b3480156101e757600080fd5b506100cc6101f6366004610f20565b6109e4565b34801561020757600080fd5b506100cc61021636600461121c565b610a2f565b34801561022757600080fd5b5061019961023636600461115e565b610a79565b34801561024757600080fd5b50610199610256366004611241565b610c22565b60405163194a973560e21b81526001600160a01b0380841660048301528216602482015260009073__$67cfe04febc0c6a196ad44311ad3cbf110$__9063652a5cd4906044015b602060405180830381865af41580156102bf573d6000803e3d6000fd5b505050506040513d601f19601f820116820180604052508101906102e39190611263565b90505b92915050565b6040516355be18cb60e01b81526001600160a01b0380841660048301528216602482015260009073__$67cfe04febc0c6a196ad44311ad3cbf110$__906355be18cb906044016102a2565b606060008267ffffffffffffffff8111156103545761035461127c565b6040519080825280602002602001820160405280156103b957816020015b6103a6604051806080016040528060006001600160a01b031681526020016060815260200160608152602001606081525090565b8152602001906001900390816103725790505b50905060005b838110156104995773__$67cfe04febc0c6a196ad44311ad3cbf110$__63ada563658686848181106103f3576103f3611292565b90506020020160208101906104089190611105565b6040516001600160e01b031960e084901b1681526001600160a01b039091166004820152602401600060405180830381865af415801561044c573d6000803e3d6000fd5b505050506040513d6000823e601f3d908101601f191682016040526104749190810190611393565b82828151811061048657610486611292565b60209081029190910101526001016103bf565b509392505050565b60408051606081018252600080825260208201819052818301529051632e4cd5d560e11b81526001600160a01b038316600482015273__$67cfe04febc0c6a196ad44311ad3cbf110$__90635c99abaa90602401606060405180830381865af4158015610512573d6000803e3d6000fd5b505050506040513d601f19601f820116820180604052508101906102e6919061151f565b604051637ad1830360e01b81526001600160a01b038216600482015260009073__$67cfe04febc0c6a196ad44311ad3cbf110$__90637ad1830390602401602060405180830381865af4158015610591573d6000803e3d6000fd5b505050506040513d601f19601f820116820180604052508101906102e69190611263565b60005a90506105cc6525a2a2a822a960d11b610e27565b604051634a83e9cd60e11b81526004810185905260009073__$e643e6cf3917af9dcfb872331bc66323b0$__90639507d39a90602401606060405180830381865af415801561061f573d6000803e3d6000fd5b505050506040513d601f19601f82011682018060405250810190610643919061151f565b80519091506001600160a01b031661066e57604051630749e2d560e11b815260040160405180910390fd5b604051631d4cb62f60e21b815273__$bb4e55f00c0f45d2719800850b371b8ff8$__90637532d8bc906106a7908790879060040161153b565b60006040518083038186803b1580156106bf57600080fd5b505af41580156106d3573d6000803e3d6000fd5b5050604051633802c05360e01b815273__$0c429270477c585c18b26856120157750b$__9250633802c053915061071090889085906004016115b5565b60006040518083038186803b15801561072857600080fd5b505af415801561073c573d6000803e3d6000fd5b5050505073__$bb4e55f00c0f45d2719800850b371b8ff8$__63e52ed3656040518163ffffffff1660e01b815260040160006040518083038186803b15801561078457600080fd5b505af4158015610798573d6000803e3d6000fd5b5050505073__$e6ad93c07d6cc44a1daca561617df2deac$__634d4d56726040518060a00160405280306001600160a01b0316631f7592ea6040518163ffffffff1660e01b8152600401602060405180830381865afa1580156107ff573d6000803e3d6000fd5b505050506040513d601f19601f8201168201806040525081019061082391906115c9565b6001600160a01b0316815260200184604001518152602001858152602001336001600160a01b0316815260200184600001516001600160a01b03168152506040518263ffffffff1660e01b815260040161087d91906115e6565b60006040518083038186803b15801561089557600080fd5b505af41580156108a9573d6000803e3d6000fd5b505050505050505050565b6040516369479be960e01b81523360048201526001600160a01b03831660248201526044810182905273__$0c429270477c585c18b26856120157750b$__906369479be99060640160006040518083038186803b15801561091457600080fd5b505af4158015610928573d6000803e3d6000fd5b505050505050565b610964604051806080016040528060006001600160a01b031681526020016060815260200160608152602001606081525090565b60405163ada5636560e01b81526001600160a01b038316600482015273__$67cfe04febc0c6a196ad44311ad3cbf110$__9063ada5636590602401600060405180830381865af41580156109bc573d6000803e3d6000fd5b505050506040513d6000823e601f3d908101601f191682016040526102e69190810190611393565b60405163b9ee807360e01b81526001600160a01b0380841660048301528216602482015260009073__$67cfe04febc0c6a196ad44311ad3cbf110$__9063b9ee8073906044016102a2565b60405163840ad0f160e01b8152600481018390526001600160a01b038216602482015260009073__$67cfe04febc0c6a196ad44311ad3cbf110$__9063840ad0f1906044016102a2565b60005a9050610a906525a2a2a822a960d11b610e27565b604051631d4cb62f60e21b815273__$bb4e55f00c0f45d2719800850b371b8ff8$__90637532d8bc90610ac9908690869060040161153b565b60006040518083038186803b158015610ae157600080fd5b505af4158015610af5573d6000803e3d6000fd5b505060405163971b55b160e01b81526004810187905273__$847d921db394f33b9463483a8c1aff7906$__925063971b55b1915060240160006040518083038186803b158015610b4457600080fd5b505af4158015610b58573d6000803e3d6000fd5b5050505073__$bb4e55f00c0f45d2719800850b371b8ff8$__63e52ed3656040518163ffffffff1660e01b815260040160006040518083038186803b158015610ba057600080fd5b505af4158015610bb4573d6000803e3d6000fd5b50506040516307c43b6960e21b81526004810184905273__$e6ad93c07d6cc44a1daca561617df2deac$__9250631f10eda491506024015b60006040518083038186803b158015610c0457600080fd5b505af4158015610c18573d6000803e3d6000fd5b5050505050505050565b60005a9050610c396525a2a2a822a960d11b610e27565b604051634a83e9cd60e11b81526004810184905260009073__$e643e6cf3917af9dcfb872331bc66323b0$__90639507d39a90602401606060405180830381865af4158015610c8c573d6000803e3d6000fd5b505050506040513d601f19601f82011682018060405250810190610cb0919061151f565b80519091506001600160a01b0316610cdb57604051630749e2d560e11b815260040160405180910390fd5b60405163291cf96960e21b815273__$0c429270477c585c18b26856120157750b$__9063a473e5a490610d1690879085908890600401611629565b60006040518083038186803b158015610d2e57600080fd5b505af4158015610d42573d6000803e3d6000fd5b5050505073__$e6ad93c07d6cc44a1daca561617df2deac$__634d4d56726040518060a00160405280306001600160a01b0316631f7592ea6040518163ffffffff1660e01b8152600401602060405180830381865afa158015610da9573d6000803e3d6000fd5b505050506040513d601f19601f82011682018060405250810190610dcd91906115c9565b6001600160a01b0316815260200184604001518152602001858152602001336001600160a01b0316815260200184600001516001600160a01b03168152506040518263ffffffff1660e01b8152600401610bec91906115e6565b610e313382610e5e565b610e5b57604051632d7d0e0d60e21b81523360048201526024810182905260440160405180910390fd5b50565b600080610e69610ea9565b6001600160a01b0385166000908152602082905260409020909150610ea19084600081815260018301602052604081205415156102e3565b949350505050565b600080604051602001610eed906020808252601e908201527f78797a2e656c66692e73746f726167652e416363657373436f6e74726f6c0000604082015260600190565b60408051601f19818403018152919052805160209091012092915050565b6001600160a01b0381168114610e5b57600080fd5b60008060408385031215610f3357600080fd5b8235610f3e81610f0b565b91506020830135610f4e81610f0b565b809150509250929050565b60008060208385031215610f6c57600080fd5b823567ffffffffffffffff80821115610f8457600080fd5b818501915085601f830112610f9857600080fd5b813581811115610fa757600080fd5b8660208260051b8501011115610fbc57600080fd5b60209290920196919550909350505050565b60008151808452602080850194506020840160005b838110156110085781516001600160a01b031687529582019590820190600101610fe3565b509495945050505050565b60018060a01b038151168252600060208083015160808286015261103a6080860182610fce565b9050604084015185820360408701526110538282610fce565b606086810151888303918901919091528051808352908501935060009250908401905b808310156110965783518252928401926001929092019190840190611076565b509695505050505050565b600060208083016020845280855180835260408601915060408160051b87010192506020870160005b828110156110f857603f198886030184526110e6858351611013565b945092850192908501906001016110ca565b5092979650505050505050565b60006020828403121561111757600080fd5b813561112281610f0b565b9392505050565b80516001600160a01b03908116835260208083015190911690830152604090810151910152565b606081016102e68284611129565b60008060006040848603121561117357600080fd5b83359250602084013567ffffffffffffffff8082111561119257600080fd5b818601915086601f8301126111a657600080fd5b8135818111156111b557600080fd5b8760208260071b85010111156111ca57600080fd5b6020830194508093505050509250925092565b600080604083850312156111f057600080fd5b82356111fb81610f0b565b946020939093013593505050565b6020815260006102e36020830184611013565b6000806040838503121561122f57600080fd5b823591506020830135610f4e81610f0b565b6000806040838503121561125457600080fd5b50508035926020909101359150565b60006020828403121561127557600080fd5b5051919050565b634e487b7160e01b600052604160045260246000fd5b634e487b7160e01b600052603260045260246000fd5b6040516080810167ffffffffffffffff811182821017156112cb576112cb61127c565b60405290565b604051601f8201601f1916810167ffffffffffffffff811182821017156112fa576112fa61127c565b604052919050565b600067ffffffffffffffff82111561131c5761131c61127c565b5060051b60200190565b600082601f83011261133757600080fd5b8151602061134c61134783611302565b6112d1565b8083825260208201915060208460051b87010193508684111561136e57600080fd5b602086015b8481101561109657805161138681610f0b565b8352918301918301611373565b600060208083850312156113a657600080fd5b825167ffffffffffffffff808211156113be57600080fd5b90840190608082870312156113d257600080fd5b6113da6112a8565b82516113e581610f0b565b815282840151828111156113f857600080fd5b61140488828601611326565b858301525060408301518281111561141b57600080fd5b61142788828601611326565b60408301525060608301518281111561143f57600080fd5b80840193505086601f84011261145457600080fd5b8251915061146461134783611302565b82815260059290921b8301840191848101908884111561148357600080fd5b938501935b838510156114a157845182529385019390850190611488565b6060830152509695505050505050565b6000606082840312156114c357600080fd5b6040516060810181811067ffffffffffffffff821117156114e6576114e661127c565b806040525080915082516114f981610f0b565b8152602083015161150981610f0b565b6020820152604092830151920191909152919050565b60006060828403121561153157600080fd5b6102e383836114b1565b6020808252818101839052600090604080840186845b878110156115a857813561156481610f0b565b6001600160a01b039081168452828601359061157f82610f0b565b168386015281840135848401526060808301359084015260809283019290910190600101611551565b5090979650505050505050565b828152608081016111226020830184611129565b6000602082840312156115db57600080fd5b815161112281610f0b565b81516001600160a01b0390811682526020808401519083015260408084015190830152606080840151821690830152608092830151169181019190915260a00190565b83815260a0810161163d6020830185611129565b82608083015294935050505056fea264697066735822122029cf2ddebb626af8bd5adb7fbf3a2cc4a388a6ef0dc6f1c2816a810f7da3a1bd64736f6c634300081900336080604052348015600f57600080fd5b506103b98061001f6000396000f3fe60806040526004361061001e5760003560e01c8063ff88370414610023575b600080fd5b6100366100313660046102b8565b610038565b005b61004a6525a2a2a822a960d11b6101cc565b60005b61005a60208301836102f3565b90508110156101405761007060208301836102f3565b8281811061008057610080610344565b9050602002016020810190610095919061035a565b6001600160a01b03166340c10f196100b0602085018561035a565b6100bd60408601866102f3565b858181106100cd576100cd610344565b6040516001600160e01b031960e087901b1681526001600160a01b0390941660048501526020029190910135602483015250604401600060405180830381600087803b15801561011c57600080fd5b505af1158015610130573d6000803e3d6000fd5b50506001909201915061004d9050565b5073__$eda0f617f16c95263174d8d25961933b8d$__637c4368c1610168602084018461035a565b6040516001600160e01b031960e084901b1681526001600160a01b0390911660048201526060840135602482015260440160006040518083038186803b1580156101b157600080fd5b505af41580156101c5573d6000803e3d6000fd5b5050505050565b6101d63382610203565b61020057604051632d7d0e0d60e21b81523360048201526024810182905260440160405180910390fd5b50565b60008061020e61023b565b6001600160a01b0385166000908152602082905260409020909150610233908461029d565b949350505050565b60008060405160200161027f906020808252601e908201527f78797a2e656c66692e73746f726167652e416363657373436f6e74726f6c0000604082015260600190565b60408051601f19818403018152919052805160209091012092915050565b600081815260018301602052604081205415155b9392505050565b6000602082840312156102ca57600080fd5b813567ffffffffffffffff8111156102e157600080fd5b8201608081850312156102b157600080fd5b6000808335601e1984360301811261030a57600080fd5b83018035915067ffffffffffffffff82111561032557600080fd5b6020019150600581901b360382131561033d57600080fd5b9250929050565b634e487b7160e01b600052603260045260246000fd5b60006020828403121561036c57600080fd5b81356001600160a01b03811681146102b157600080fdfea2646970667358221220b31c3135026be2cf86026cb9174deb74f1539fd2d0e2a57774f4618defba6fcc64736f6c634300081900336080604052348015600f57600080fd5b506001600055610808806100246000396000f3fe608060405234801561001057600080fd5b50600436106100365760003560e01c80634777232f1461003b578063ea26e5f214610050575b600080fd5b61004e610049366004610554565b61007f565b005b61006361005e36600461058f565b610301565b6040516001600160a01b03909116815260200160405180910390f35b610087610414565b61009965434f4e46494760d01b610472565b604051631861063560e31b81528135600482015273__$1a578a93a81f7683136677deb9a71eef42$__9063c30831a89060240160006040518083038186803b1580156100e457600080fd5b505af41580156100f8573d6000803e3d6000fd5b5050505073__$1a578a93a81f7683136677deb9a71eef42$__6303e234a48280602001906101269190610618565b6040518363ffffffff1660e01b815260040161014392919061068f565b60006040518083038186803b15801561015b57600080fd5b505af415801561016f573d6000803e3d6000fd5b5050505073__$6da87a77f33546d3f0e6244a8f7078a532$__637ff877008260400160208101906101a091906106c8565b6040516001600160e01b031960e084901b1681526001600160a01b03909116600482015260240160006040518083038186803b1580156101df57600080fd5b505af41580156101f3573d6000803e3d6000fd5b5050505073__$6da87a77f33546d3f0e6244a8f7078a532$__637ff8770082606001602081019061022491906106c8565b6040516001600160e01b031960e084901b1681526001600160a01b03909116600482015260240160006040518083038186803b15801561026357600080fd5b505af4158015610277573d6000803e3d6000fd5b505060405163f65b312760e01b815273__$fd083341c1ac6a6c266950739f88ea92ec$__925063f65b312791506102b29084906004016106e5565b602060405180830381865af41580156102cf573d6000803e3d6000fd5b505050506040513d601f19601f820116820180604052508101906102f3919061078e565b506102fe6001600055565b50565b600061030b610414565b61031d65434f4e46494760d01b610472565b60405162f88d2960e21b815273__$1a578a93a81f7683136677deb9a71eef42$__906303e234a490610355908790879060040161068f565b60006040518083038186803b15801561036d57600080fd5b505af4158015610381573d6000803e3d6000fd5b505060405163751372f960e11b815273__$fd083341c1ac6a6c266950739f88ea92ec$__925063ea26e5f291506103c0908790879087906004016107ab565b602060405180830381865af41580156103dd573d6000803e3d6000fd5b505050506040513d601f19601f82011682018060405250810190610401919061078e565b905061040d6001600055565b9392505050565b60026000540361046b5760405162461bcd60e51b815260206004820152601f60248201527f5265656e7472616e637947756172643a207265656e7472616e742063616c6c0060448201526064015b60405180910390fd5b6002600055565b61047c33826104a2565b6102fe57604051632d7d0e0d60e21b815233600482015260248101829052604401610462565b6000806104ad6104da565b6001600160a01b03851660009081526020829052604090209091506104d2908461053c565b949350505050565b60008060405160200161051e906020808252601e908201527f78797a2e656c66692e73746f726167652e416363657373436f6e74726f6c0000604082015260600190565b60408051601f19818403018152919052805160209091012092915050565b6000818152600183016020526040812054151561040d565b60006020828403121561056657600080fd5b813567ffffffffffffffff81111561057d57600080fd5b82016080818503121561040d57600080fd5b6000806000604084860312156105a457600080fd5b833567ffffffffffffffff808211156105bc57600080fd5b818601915086601f8301126105d057600080fd5b8135818111156105df57600080fd5b8760208285010111156105f157600080fd5b6020928301955093505084013560ff8116811461060d57600080fd5b809150509250925092565b6000808335601e1984360301811261062f57600080fd5b83018035915067ffffffffffffffff82111561064a57600080fd5b60200191503681900382131561065f57600080fd5b9250929050565b81835281816020850137506000828201602090810191909152601f909101601f19169091010190565b6020815260006104d2602083018486610666565b6001600160a01b03811681146102fe57600080fd5b80356106c3816106a3565b919050565b6000602082840312156106da57600080fd5b813561040d816106a3565b602081528135602082015260006020830135601e1984360301811261070957600080fd5b830160208101903567ffffffffffffffff81111561072657600080fd5b80360382131561073557600080fd5b6080604085015261074a60a085018284610666565b915050604084013561075b816106a3565b6001600160a01b038116606085015250610777606085016106b8565b6001600160a01b0381166080850152509392505050565b6000602082840312156107a057600080fd5b815161040d816106a3565b6040815260006107bf604083018587610666565b905060ff8316602083015294935050505056fea26469706673582212200c0e1d99021dda1b8e47c7815a63a8f1c6c35d0da3d16f5f3564b1f4997a71bc64736f6c634300081900336080604052348015600f57600080fd5b5061020b8061001f6000396000f3fe608060405234801561001057600080fd5b50600436106100625760003560e01c806308ba026f14610067578063131d5c8a1461008b5780631f7592ea1461009357806397e7b7f21461008b578063da57c7f814610067578063f413e81a14610093575b600080fd5b61006f61009b565b6040516001600160a01b03909116815260200160405180910390f35b61006f61010f565b61006f61015a565b600073__$29df653331a3e9d3b471959b8240e5de4a$__63da57c7f86040518163ffffffff1660e01b8152600401602060405180830381865af41580156100e6573d6000803e3d6000fd5b505050506040513d601f19601f8201168201806040525081019061010a91906101a5565b905090565b600073__$29df653331a3e9d3b471959b8240e5de4a$__63131d5c8a6040518163ffffffff1660e01b8152600401602060405180830381865af41580156100e6573d6000803e3d6000fd5b600073__$29df653331a3e9d3b471959b8240e5de4a$__63f413e81a6040518163ffffffff1660e01b8152600401602060405180830381865af41580156100e6573d6000803e3d6000fd5b6000602082840312156101b757600080fd5b81516001600160a01b03811681146101ce57600080fd5b939250505056fea2646970667358221220dffaeeced6297dc659ee81ae8dee132657af6cc94cc4a4a055afb41f9fdbddca64736f6c634300081900336080604052348015600f57600080fd5b506113458061001f6000396000f3fe608060405234801561001057600080fd5b50600436106100625760003560e01c80632358072c146100675780635a536f8f1461008557806367180d0c1461009a578063ac9deaa4146100bb578063c0828713146100ce578063d96faa28146100e1575b600080fd5b61006f6100f4565b60405161007c9190610adc565b60405180910390f35b610098610093366004610c1c565b61016c565b005b6100ad6100a8366004610c71565b61031e565b60405190815260200161007c565b6100986100c9366004610caa565b610428565b6100986100dc366004610ce5565b61050e565b6100986100ef366004610d18565b6105c7565b606073__$4ad18bb3a553995d10fa18119b6296da0f$__63b45cb6b26040518163ffffffff1660e01b8152600401600060405180830381865af415801561013f573d6000803e3d6000fd5b505050506040513d6000823e601f3d908101601f191682016040526101679190810190610f80565b905090565b61017e6525a2a2a822a960d11b610986565b60005a604051631d4cb62f60e21b815290915073__$bb4e55f00c0f45d2719800850b371b8ff8$__90637532d8bc906101bd9086908690600401611031565b60006040518083038186803b1580156101d557600080fd5b505af41580156101e9573d6000803e3d6000fd5b50506040516336f9339360e01b81526001600160a01b038716600482015273__$90167e3aaa688da58f091fb45f9a9a1bfc$__92506336f9339391506024015b60006040518083038186803b15801561024157600080fd5b505af4158015610255573d6000803e3d6000fd5b5050505073__$bb4e55f00c0f45d2719800850b371b8ff8$__63e52ed3656040518163ffffffff1660e01b815260040160006040518083038186803b15801561029d57600080fd5b505af41580156102b1573d6000803e3d6000fd5b50506040516307c43b6960e21b81526004810184905273__$e6ad93c07d6cc44a1daca561617df2deac$__9250631f10eda4915060240160006040518083038186803b15801561030057600080fd5b505af4158015610314573d6000803e3d6000fd5b5050505050505050565b604051630bd039cd60e21b81526001600160a01b038316600482015260009073__$f6ab9fd2984f98cb13067c23c2bbf55b09$__90632f40e73490602401602060405180830381865af4158015610379573d6000803e3d6000fd5b505050506040513d601f19601f8201168201806040525081019061039d91906110ab565b60405163831fb95760e01b815260048101919091526001600160a01b038316602482015273__$f6ab9fd2984f98cb13067c23c2bbf55b09$__9063831fb95790604401602060405180830381865af41580156103fd573d6000803e3d6000fd5b505050506040513d601f19601f8201168201806040525081019061042191906110ab565b9392505050565b61043a6525a2a2a822a960d11b610986565b60005a60405163112572d960e31b815290915073__$90167e3aaa688da58f091fb45f9a9a1bfc$__9063892b96c89061047790859060040161113f565b60006040518083038186803b15801561048f57600080fd5b505af41580156104a3573d6000803e3d6000fd5b50506040516307c43b6960e21b81526004810184905273__$e6ad93c07d6cc44a1daca561617df2deac$__9250631f10eda4915060240160006040518083038186803b1580156104f257600080fd5b505af4158015610506573d6000803e3d6000fd5b505050505050565b6105206525a2a2a822a960d11b610986565b60005a604051631d4cb62f60e21b815290915073__$bb4e55f00c0f45d2719800850b371b8ff8$__90637532d8bc9061055f9086908690600401611031565b60006040518083038186803b15801561057757600080fd5b505af415801561058b573d6000803e3d6000fd5b505060405163a9ccf5f760e01b81526004810187905273__$90167e3aaa688da58f091fb45f9a9a1bfc$__925063a9ccf5f79150602401610229565b60405163310a0e4160e01b81526004810182905260009073__$4ad18bb3a553995d10fa18119b6296da0f$__9063310a0e4190602401600060405180830381865af415801561061a573d6000803e3d6000fd5b505050506040513d6000823e601f3d908101601f191682016040526106429190810190611208565b80519091506001600160a01b03166106755760405163527de13160e01b8152600481018390526024015b60405180910390fd5b60005b8160400151518110156107905773__$ea03dc6e7176064baf45a14dcf3b0b0296$__63ef59a9d16040518060a00160405280336001600160a01b03168152602001856040015185815181106106cf576106cf61123d565b60200260200101516001600160a01b03168152602001856060015185815181106106fb576106fb61123d565b602002602001015181526020016000600381111561071b5761071b611253565b815260006020909101526040516001600160e01b031960e084901b1681526107469190600401611269565b602060405180830381865af4158015610763573d6000803e3d6000fd5b505050506040513d601f19601f8201168201806040525081019061078791906112d0565b50600101610678565b5060005b8160800151518110156108e55773__$eda0f617f16c95263174d8d25961933b8d$__6385e2b880306001600160a01b0316631f7592ea6040518163ffffffff1660e01b8152600401602060405180830381865afa1580156107f9573d6000803e3d6000fd5b505050506040513d601f19601f8201168201806040525081019061081d91906112d0565b846080015184815181106108335761083361123d565b6020026020010151338660a0015186815181106108525761085261123d565b60209081029190910101516040516001600160e01b031960e087901b1681526001600160a01b0394851660048201529284166024840152921660448201526064810191909152608401602060405180830381865af41580156108b8573d6000803e3d6000fd5b505050506040513d601f19601f820116820180604052508101906108dc91906112ed565b50600101610794565b5060405163fc3d7d9960e01b81526004810183905273__$4ad18bb3a553995d10fa18119b6296da0f$__9063fc3d7d999060240160006040518083038186803b15801561093157600080fd5b505af4158015610945573d6000803e3d6000fd5b505050507f9658b573a066e713f2cff0b7a9e1d3b1c6395ce9379f271c4c3fa96552b9904f8260405161097a91815260200190565b60405180910390a15050565b61099033826109b9565b6109b657604051632d7d0e0d60e21b81523360048201526024810182905260440161066c565b50565b6000806109c4610a04565b6001600160a01b03851660009081526020829052604090209091506109fc908460008181526001830160205260408120541515610421565b949350505050565b600080604051602001610a48906020808252601e908201527f78797a2e656c66692e73746f726167652e416363657373436f6e74726f6c0000604082015260600190565b60408051601f19818403018152919052805160209091012092915050565b60008151808452602080850194506020840160005b83811015610aa05781516001600160a01b031687529582019590820190600101610a7b565b509495945050505050565b60008151808452602080850194506020840160005b83811015610aa057815187529582019590820190600101610ac0565b600060208083018184528085518083526040925060408601915060408160051b87010184880160005b83811015610bad57888303603f19018552815180516001600160a01b0316845287810151888501528681015160c088860181905290610b4682870182610a66565b91505060608083015186830382880152610b608382610aab565b9250505060808083015186830382880152610b7b8382610a66565b9250505060a08083015192508582038187015250610b998183610aab565b968901969450505090860190600101610b05565b509098975050505050505050565b6001600160a01b03811681146109b657600080fd5b60008083601f840112610be257600080fd5b50813567ffffffffffffffff811115610bfa57600080fd5b6020830191508360208260071b8501011115610c1557600080fd5b9250929050565b600080600060408486031215610c3157600080fd5b8335610c3c81610bbb565b9250602084013567ffffffffffffffff811115610c5857600080fd5b610c6486828701610bd0565b9497909650939450505050565b60008060408385031215610c8457600080fd5b8235610c8f81610bbb565b91506020830135610c9f81610bbb565b809150509250929050565b600060208284031215610cbc57600080fd5b813567ffffffffffffffff811115610cd357600080fd5b820160a0818503121561042157600080fd5b600080600060408486031215610cfa57600080fd5b83359250602084013567ffffffffffffffff811115610c5857600080fd5b600060208284031215610d2a57600080fd5b5035919050565b634e487b7160e01b600052604160045260246000fd5b60405160c0810167ffffffffffffffff81118282101715610d6a57610d6a610d31565b60405290565b604051601f8201601f1916810167ffffffffffffffff81118282101715610d9957610d99610d31565b604052919050565b600067ffffffffffffffff821115610dbb57610dbb610d31565b5060051b60200190565b8051610dd081610bbb565b919050565b600082601f830112610de657600080fd5b81516020610dfb610df683610da1565b610d70565b8083825260208201915060208460051b870101935086841115610e1d57600080fd5b602086015b84811015610e42578051610e3581610bbb565b8352918301918301610e22565b509695505050505050565b600082601f830112610e5e57600080fd5b81516020610e6e610df683610da1565b8083825260208201915060208460051b870101935086841115610e9057600080fd5b602086015b84811015610e425780518352918301918301610e95565b600060c08284031215610ebe57600080fd5b610ec6610d47565b9050610ed182610dc5565b815260208201516020820152604082015167ffffffffffffffff80821115610ef857600080fd5b610f0485838601610dd5565b60408401526060840151915080821115610f1d57600080fd5b610f2985838601610e4d565b60608401526080840151915080821115610f4257600080fd5b610f4e85838601610dd5565b608084015260a0840151915080821115610f6757600080fd5b50610f7484828501610e4d565b60a08301525092915050565b60006020808385031215610f9357600080fd5b825167ffffffffffffffff80821115610fab57600080fd5b818501915085601f830112610fbf57600080fd5b8151610fcd610df682610da1565b81815260059190911b83018401908481019088831115610fec57600080fd5b8585015b83811015611024578051858111156110085760008081fd5b6110168b89838a0101610eac565b845250918601918601610ff0565b5098975050505050505050565b6020808252818101839052600090604080840186845b8781101561109e57813561105a81610bbb565b6001600160a01b039081168452828601359061107582610bbb565b168386015281840135848401526060808301359084015260809283019290910190600101611047565b5090979650505050505050565b6000602082840312156110bd57600080fd5b5051919050565b6000808335601e198436030181126110db57600080fd5b830160208101925035905067ffffffffffffffff8111156110fb57600080fd5b8060051b3603821315610c1557600080fd5b81835260006001600160fb1b0383111561112657600080fd5b8260051b80836020870137939093016020019392505050565b6000602080835260c08301843561115581610bbb565b6001600160a01b039081166020868101919091528601359061117682610bbb565b80821660408701526040870135606087015261119560608801886110c4565b60a0608089015293849052929150600060e087015b838210156111d35784356111bd81610bbb565b83168152938501936001919091019085016111aa565b6111e060808a018a6110c4565b898303601f190160a08b0152965094506111fb81878761110d565b9998505050505050505050565b60006020828403121561121a57600080fd5b815167ffffffffffffffff81111561123157600080fd5b6109fc84828501610eac565b634e487b7160e01b600052603260045260246000fd5b634e487b7160e01b600052602160045260246000fd5b81516001600160a01b0390811682526020808401519091169082015260408083015190820152606082015160a0820190600481106112b757634e487b7160e01b600052602160045260246000fd5b8060608401525060808301511515608083015292915050565b6000602082840312156112e257600080fd5b815161042181610bbb565b6000602082840312156112ff57600080fd5b8151801515811461042157600080fdfea2646970667358221220cc3a56683db32e5527dca12be1d226ff03de9ed6925b2091bbf0d56e2a030e9864736f6c634300081900336080604052348015600f57600080fd5b506118a78061001f6000396000f3fe608060405234801561001057600080fd5b506004361061002b5760003560e01c80637bdb02cb14610030575b600080fd5b61004361003e366004610f52565b610045565b005b6100576525a2a2a822a960d11b6102d6565b604051631d4cb62f60e21b815273__$bb4e55f00c0f45d2719800850b371b8ff8$__90637532d8bc90610090908590859060040161102f565b60006040518083038186803b1580156100a857600080fd5b505af41580156100bc573d6000803e3d6000fd5b5050505060005b8581101561027157600073__$1dcbc4e76af7484d3342475f6e32ea9921$__632f40e7348989858181106100f9576100f96110a9565b905060200201602081019061010e91906110bf565b6040516001600160e01b031960e084901b1681526001600160a01b039091166004820152602401602060405180830381865af4158015610152573d6000803e3d6000fd5b505050506040513d601f19601f8201168201806040525081019061017691906110dc565b60405163fa98a2b960e01b81526004810182905290915073__$1dcbc4e76af7484d3342475f6e32ea9921$__9063fa98a2b99060240160006040518083038186803b1580156101c457600080fd5b505af41580156101d8573d6000803e3d6000fd5b5050505060005b8686848181106101f1576101f16110a9565b905060200281019061020391906110f5565b90508110156102675761025e82888886818110610222576102226110a9565b905060200281019061023491906110f5565b84818110610244576102446110a9565b905060200201602081019061025991906110bf565b61030e565b506001016101df565b50506001016100c3565b5073__$bb4e55f00c0f45d2719800850b371b8ff8$__63e52ed3656040518163ffffffff1660e01b815260040160006040518083038186803b1580156102b657600080fd5b505af41580156102ca573d6000803e3d6000fd5b50505050505050505050565b6102e03382610aad565b61030b57604051632d7d0e0d60e21b8152336004820152602481018290526044015b60405180910390fd5b50565b610316610ecf565b604051635342922b60e11b8152600481018490526001600160a01b038316602482015260009073__$1dcbc4e76af7484d3342475f6e32ea9921$__9063a685245690604401608060405180830381865af4158015610378573d6000803e3d6000fd5b505050506040513d601f19601f8201168201806040525081019061039c91906111f2565b606001519050600081116103c357604051633d41f51760e11b815260040160405180910390fd5b604051633087e7f760e11b81526004810185905260009073__$1dcbc4e76af7484d3342475f6e32ea9921$__9063610fcfee90602401600060405180830381865af4158015610416573d6000803e3d6000fd5b505050506040513d6000823e601f3d908101601f1916820160405261043e9190810190611302565b9050600081516001600160401b0381111561045b5761045b61113e565b604051908082528060200260200182016040528015610484578160200160208202803683370190505b509050600082516001600160401b038111156104a2576104a261113e565b6040519080825280602002602001820160405280156104cb578160200160208202803683370190505b50905060005b83518110156109e6578773__$1dcbc4e76af7484d3342475f6e32ea9921$__63c28348879091868481518110610509576105096110a9565b60200260200101516040518363ffffffff1660e01b81526004016105409291909182526001600160a01b0316602082015260400190565b602060405180830381865af415801561055d573d6000803e3d6000fd5b505050506040513d601f19601f8201168201806040525081019061058191906110dc565b838281518110610593576105936110a9565b6020026020010181815250508281815181106105b1576105b16110a9565b6020026020010151600003156109de57600073__$54cfd135a3b5f05a8488b7e4b687d6e5b3$__63f8739d7c8584815181106105ef576105ef6110a9565b602002602001015173__$27ae1b494209daa89c188ba5c7f8a7693b$__63d449a832898781518110610623576106236110a9565b60200260200101516040518263ffffffff1660e01b815260040161065691906001600160a01b0391909116815260200190565b602060405180830381865af4158015610673573d6000803e3d6000fd5b505050506040513d601f19601f820116820180604052508101906106979190611336565b604051636a24d41960e11b81526001600160a01b038d16600482015273__$27ae1b494209daa89c188ba5c7f8a7693b$__9063d449a83290602401602060405180830381865af41580156106ef573d6000803e3d6000fd5b505050506040513d601f19601f820116820180604052508101906107139190611336565b73__$bb4e55f00c0f45d2719800850b371b8ff8$__631a0994f58b898151811061073f5761073f6110a9565b60209081029190910101516040516001600160e01b031960e084901b1681526001600160a01b03909116600482015260016024820152604401602060405180830381865af4158015610795573d6000803e3d6000fd5b505050506040513d601f19601f820116820180604052508101906107b991906110dc565b604051631a0994f560e01b81526001600160a01b038f1660048201526000602482015273__$bb4e55f00c0f45d2719800850b371b8ff8$__90631a0994f590604401602060405180830381865af4158015610818573d6000803e3d6000fd5b505050506040513d601f19601f8201168201806040525081019061083c91906110dc565b6040516001600160e01b031960e088901b168152600481019590955260ff93841660248601529290911660448401526064830152608482015260a401602060405180830381865af4158015610895573d6000803e3d6000fd5b505050506040513d601f19601f820116820180604052508101906108b991906110dc565b905073__$54cfd135a3b5f05a8488b7e4b687d6e5b3$__63ee7fc5a38273__$b56fc33e0f834396fbc214489bd80c2dfc$__63b45849886040518163ffffffff1660e01b8152600401600060405180830381865af415801561091f573d6000803e3d6000fd5b505050506040513d6000823e601f3d908101601f191682016040526109479190810190611435565b6101e001516040516001600160e01b031960e085901b16815260048101929092526024820152604401602060405180830381865af415801561098d573d6000803e3d6000fd5b505050506040513d601f19601f820116820180604052508101906109b191906110dc565b6109bb9082611572565b9050808383815181106109d0576109d06110a9565b602002602001018181525050505b6001016104d1565b506000306001600160a01b0316631f7592ea6040518163ffffffff1660e01b8152600401602060405180830381865afa158015610a27573d6000803e3d6000fd5b505050506040513d601f19601f82011682018060405250810190610a4b9190611585565b88546040805160e0810182526001600160a01b03808516808352602083018a9052928201889052606082018790528b8116608083015260a082019290925260c08101899052929350610a9f92911690610ae5565b955050505050505b92915050565b600080610ab8610de4565b6001600160a01b0385166000908152602082905260409020909150610add9084610e46565b949350505050565b610aed610ecf565b6040516322f76fdf60e01b815260009073__$ca262b080372458bd5db04e5e671d7444d$__906322f76fdf90610b27908690600401611618565b600060405180830381865af4158015610b44573d6000803e3d6000fd5b505050506040513d6000823e601f3d908101601f19168201604052610b6c91908101906116c4565b9050610b9b604051806060016040528060006001600160a01b0316815260200160608152602001606081525090565b6001600160a01b0385168152815151610bb59060016117d0565b6001600160401b03811115610bcc57610bcc61113e565b604051908082528060200260200182016040528015610bf5578160200160208202803683370190505b506020820152815151610c099060016117d0565b6001600160401b03811115610c2057610c2061113e565b604051908082528060200260200182016040528015610c49578160200160208202803683370190505b50604082015260005b825151811015610d06578251805182908110610c7057610c706110a9565b602002602001015182602001518281518110610c8e57610c8e6110a9565b60200260200101906001600160a01b031690816001600160a01b031681525050610cd483602001518281518110610cc757610cc76110a9565b6020026020010151610e61565b610cdd906117e3565b82604001518281518110610cf357610cf36110a9565b6020908102919091010152600101610c52565b506040820151602082015183515181518110610d2457610d246110a9565b60200260200101906001600160a01b031690816001600160a01b031681525050610d518260600151610e61565b604082015183515181518110610d6957610d696110a9565b602090810291909101015260405163eec5b28760e01b815273__$ea03dc6e7176064baf45a14dcf3b0b0296$__9063eec5b28790610dab9084906004016117ff565b60006040518083038186803b158015610dc357600080fd5b505af4158015610dd7573d6000803e3d6000fd5b5093979650505050505050565b600080604051602001610e28906020808252601e908201527f78797a2e656c66692e73746f726167652e416363657373436f6e74726f6c0000604082015260600190565b60408051601f19818403018152919052805160209091012092915050565b600081815260018301602052604081205415155b9392505050565b60006001600160ff1b03821115610ecb5760405162461bcd60e51b815260206004820152602860248201527f53616665436173743a2076616c756520646f65736e27742066697420696e2061604482015267371034b73a191a9b60c11b6064820152608401610302565b5090565b6040518060a00160405280606081526020016060815260200160006001600160a01b0316815260200160008152602001600081525090565b60008083601f840112610f1957600080fd5b5081356001600160401b03811115610f3057600080fd5b6020830191508360208260051b8501011115610f4b57600080fd5b9250929050565b60008060008060008060608789031215610f6b57600080fd5b86356001600160401b0380821115610f8257600080fd5b610f8e8a838b01610f07565b90985096506020890135915080821115610fa757600080fd5b610fb38a838b01610f07565b90965094506040890135915080821115610fcc57600080fd5b818901915089601f830112610fe057600080fd5b813581811115610fef57600080fd5b8a60208260071b850101111561100457600080fd5b6020830194508093505050509295509295509295565b6001600160a01b038116811461030b57600080fd5b6020808252818101839052600090604080840186845b8781101561109c5781356110588161101a565b6001600160a01b03908116845282860135906110738261101a565b168386015281840135848401526060808301359084015260809283019290910190600101611045565b5090979650505050505050565b634e487b7160e01b600052603260045260246000fd5b6000602082840312156110d157600080fd5b8135610e5a8161101a565b6000602082840312156110ee57600080fd5b5051919050565b6000808335601e1984360301811261110c57600080fd5b8301803591506001600160401b0382111561112657600080fd5b6020019150600581901b3603821315610f4b57600080fd5b634e487b7160e01b600052604160045260246000fd5b60405161012081016001600160401b03811182821017156111775761117761113e565b60405290565b60405161020081016001600160401b03811182821017156111775761117761113e565b60405160a081016001600160401b03811182821017156111775761117761113e565b604051601f8201601f191681016001600160401b03811182821017156111ea576111ea61113e565b604052919050565b60006080828403121561120457600080fd5b604051608081018181106001600160401b03821117156112265761122661113e565b8060405250825181526020830151602082015260408301516040820152606083015160608201528091505092915050565b60006001600160401b038211156112705761127061113e565b5060051b60200190565b80516112858161101a565b919050565b600082601f83011261129b57600080fd5b815160206112b06112ab83611257565b6111c2565b8083825260208201915060208460051b8701019350868411156112d257600080fd5b602086015b848110156112f75780516112ea8161101a565b83529183019183016112d7565b509695505050505050565b60006020828403121561131457600080fd5b81516001600160401b0381111561132a57600080fd5b610add8482850161128a565b60006020828403121561134857600080fd5b815160ff81168114610e5a57600080fd5b8051801515811461128557600080fd5b600082601f83011261137a57600080fd5b8151602061138a6112ab83611257565b82815261012092830285018201928282019190878511156113aa57600080fd5b8387015b8581101561109c5781818a0312156113c65760008081fd5b6113ce611154565b6113d782611359565b8152818601518682015260408083015190820152606080830151908201526080808301519082015260a0808301519082015260c0808301519082015260e08083015190820152610100808301519082015284529284019281016113ae565b60006020828403121561144757600080fd5b81516001600160401b038082111561145e57600080fd5b90830190610200828603121561147357600080fd5b61147b61117d565b82518281111561148a57600080fd5b6114968782860161128a565b8252506020830151828111156114ab57600080fd5b6114b787828601611369565b60208301525060408381015190820152606080840151908201526080808401519082015260a0808401519082015260c0808401519082015260e08084015190820152610100808401519082015261012080840151908201526101408084015190820152610160808401519082015261018080840151908201526101a080840151908201526101c080840151908201526101e09283015192810192909252509392505050565b634e487b7160e01b600052601160045260246000fd5b81810381811115610aa757610aa761155c565b60006020828403121561159757600080fd5b8151610e5a8161101a565b60008151808452602080850194506020840160005b838110156115dc5781516001600160a01b0316875295820195908201906001016115b7565b509495945050505050565b60008151808452602080850194506020840160005b838110156115dc578151875295820195908201906001016115fc565b60208152600060018060a01b03808451166020840152602084015160e060408501526116486101008501826115a2565b90506040850151601f198086840301606087015261166683836115e7565b925060608701519150808684030160808701525061168482826115e7565b9150508160808601511660a085015260a085015191506116af60c08501836001600160a01b03169052565b60c085015160e0850152809250505092915050565b600060208083850312156116d757600080fd5b82516001600160401b03808211156116ee57600080fd5b9084019060a0828703121561170257600080fd5b61170a6111a0565b82518281111561171957600080fd5b6117258882860161128a565b825250838301518281111561173957600080fd5b83019150601f8201871361174c57600080fd5b815161175a6112ab82611257565b81815260059190911b8301850190858101908983111561177957600080fd5b938601935b828510156117975784518252938601939086019061177e565b83870152506117aa90506040840161127a565b604082015260608301516060820152608083015160808201528094505050505092915050565b80820180821115610aa757610aa761155c565b6000600160ff1b82016117f8576117f861155c565b5060000390565b602080825282516001600160a01b03168282015282810151606060408401526000919061182f60808501826115a2565b6040860151858203601f19016060870152805180835290840192506000918401905b808310156112f7578351825292840192600192909201919084019061185156fea2646970667358221220d7da27e79130cb196673f76bc5f4f5824a8da462e434b8c7988edebfae2a473464736f6c634300081900336080604052348015600f57600080fd5b5061029e8061001f6000396000f3fe608060405234801561001057600080fd5b50600436106100365760003560e01c80636ecc79e41461003b578063e8af7f0814610063575b600080fd5b61004e6100493660046101e4565b6100a1565b60405190151581526020015b60405180910390f35b6100766100713660046101fd565b61011e565b6040805182516001600160a01b0316815260208084015190820152918101519082015260600161005a565b604051631bb31e7960e21b81526004810182905260009073__$6aab829e329ce22790341f86426b81ad2f$__90636ecc79e490602401602060405180830381865af41580156100f4573d6000803e3d6000fd5b505050506040513d601f19601f82011682018060405250810190610118919061022d565b92915050565b60408051606081018252600080825260208201819052818301529051630bd039cd60e21b81526001600160a01b038316600482015273__$6aab829e329ce22790341f86426b81ad2f$__90632f40e73490602401602060405180830381865af415801561018f573d6000803e3d6000fd5b505050506040513d601f19601f820116820180604052508101906101b3919061024f565b6040805160608101825282546001600160a01b03168152600183015460208201526002909201549082015292915050565b6000602082840312156101f657600080fd5b5035919050565b60006020828403121561020f57600080fd5b81356001600160a01b038116811461022657600080fd5b9392505050565b60006020828403121561023f57600080fd5b8151801515811461022657600080fd5b60006020828403121561026157600080fd5b505191905056fea2646970667358221220e6ee458bf31be1c6b61e7fccc27348cd0933c9e6572d46a167b7936c48b80a1564736f6c634300081900336080604052348015600f57600080fd5b506111038061001f6000396000f3fe608060405234801561001057600080fd5b50600436106100625760003560e01c806351d1a5af146100675780635cfac837146100905780637aa6aea4146100b0578063a7b039d9146100c5578063cd0743c9146100e5578063f141859a14610106575b600080fd5b61007a610075366004610735565b610126565b6040516100879190610860565b60405180910390f35b6100a361009e366004610999565b6101b6565b6040516100879190610a53565b6100b86101cd565b6040516100879190610a62565b6100d86100d3366004610ac9565b6102f6565b6040516100879190610aed565b6100f86100f3366004610999565b610383565b604051908152602001610087565b61010e6103fa565b6040516001600160a01b039091168152602001610087565b61012e6105f6565b60405163aece5ffd60e01b815273__$7e3e375a043b2e0c3e1b8de6f9ee6f1a85$__9063aece5ffd9061016990879087908790600401610b04565b600060405180830381865af4158015610186573d6000803e3d6000fd5b505050506040513d6000823e601f3d908101601f191682016040526101ae9190810190610e78565b949350505050565b6101be6106a3565b6101c78261046e565b92915050565b6060600073__$743db1863e6a0ee1ad13b47ec8f30557c4$__637aa6aea46040518163ffffffff1660e01b8152600401600060405180830381865af415801561021a573d6000803e3d6000fd5b505050506040513d6000823e601f3d908101601f191682016040526102429190810190610f44565b90506000815167ffffffffffffffff81111561026057610260610b88565b60405190808252806020026020018201604052801561029957816020015b6102866106a3565b81526020019060019003908161027e5790505b50905060005b82518110156102ef576102ca8382815181106102bd576102bd610fd5565b602002602001015161046e565b8282815181106102dc576102dc610fd5565b602090810291909101015260010161029f565b5092915050565b60408051808201825260008082526020820152905163a7b039d960e01b81526001600160a01b038316600482015273__$7e3e375a043b2e0c3e1b8de6f9ee6f1a85$__9063a7b039d9906024016040805180830381865af415801561035f573d6000803e3d6000fd5b505050506040513d601f19601f820116820180604052508101906101c79190610feb565b60405163e556977360e01b81526004810182905260009073__$6ebb2450d5e04bda18965cfdba2d8f11f4$__9063e556977390602401602060405180830381865af41580156103d6573d6000803e3d6000fd5b505050506040513d601f19601f820116820180604052508101906101c79190611007565b600073__$743db1863e6a0ee1ad13b47ec8f30557c4$__63f141859a6040518163ffffffff1660e01b8152600401602060405180830381865af4158015610445573d6000803e3d6000fd5b505050506040513d601f19601f820116820180604052508101906104699190611020565b905090565b6104766106a3565b60405163f035079960e01b81526004810183905260009073__$772a6c28cc3d4776ea886febacbb24816f$__9063f035079990602401602060405180830381865af41580156104c9573d6000803e3d6000fd5b505050506040513d601f19601f820116820180604052508101906104ed9190611007565b600181015490915061010090046001600160a01b0316156105f057805482526001810154602083019060ff16600381111561052a5761052a6107b4565b9081600381111561053d5761053d6107b4565b905250600181015461010090046001600160a01b03908116604084810191909152600283015482166060850152600383015490911660808401525163e1be37bd60e01b81526004810184905273__$acce7506676b87ccbb54b9fc6afc582415$__9063e1be37bd9060240161010060405180830381865af41580156105c6573d6000803e3d6000fd5b505050506040513d601f19601f820116820180604052508101906105ea919061103d565b60a08301525b50919050565b604080516101a08101909152600060e08201818152610100830182905261012083018290526101408301829052610160830191909152606061018083015281908152602001600081526020016000815260200160008152602001606081526020016000815260200161069e6040518060e00160405280600081526020016000815260200160008152602001600081526020016000815260200160008152602001600081525090565b905290565b6040805160c0810190915260008082526020820190815260200160006001600160a01b0316815260200160006001600160a01b0316815260200160006001600160a01b0316815260200161069e60405180610100016040528060008152602001600081526020016000815260200160008152602001600081526020016000815260200160008152602001600081525090565b60008060006040848603121561074a57600080fd5b83359250602084013567ffffffffffffffff8082111561076957600080fd5b818601915086601f83011261077d57600080fd5b81358181111561078c57600080fd5b8760208260071b85010111156107a157600080fd5b6020830194508093505050509250925092565b634e487b7160e01b600052602160045260246000fd5b600481106107e857634e487b7160e01b600052602160045260246000fd5b9052565b60005b838110156108075781810151838201526020016107ef565b50506000910152565b60008151808452602080850194506020840160005b838110156108555761084287835180518252602090810151910152565b6040969096019590820190600101610825565b509495945050505050565b60208152600082516101a0602084015261028081516101c0850152602082015161088e6101e08601826107ca565b5060408201516001600160a01b039081166102008601526060830151811661022086015260808301511661024085015260a09091015160c061026085015280518285018190529091906102a06108ea82828801602087016107ec565b601f19601f8301168601935060208701516040870152604087015160608701526060870151608087015260808701519150828685030160a087015261093181850183610810565b935050505060a084015160c084015260c084015161099160e0850182805182526020810151602083015260408101516040830152606081015160608301526080810151608083015260a081015160a083015260c081015160c08301525050565b509392505050565b6000602082840312156109ab57600080fd5b5035919050565b8051825260208101516109c860208401826107ca565b50604081015160018060a01b038082166040850152806060840151166060850152806080840151166080850152505060a0810151805160a0840152602081015160c0840152604081015160e08401526060810151610100840152608081015161012084015260a081015161014084015260c081015161016084015260e0810151610180840152505050565b6101a081016101c782846109b2565b6020808252825182820181905260009190848201906040850190845b81811015610aa557610a918385516109b2565b928401926101a09290920191600101610a7e565b50909695505050505050565b6001600160a01b0381168114610ac657600080fd5b50565b600060208284031215610adb57600080fd5b8135610ae681610ab1565b9392505050565b8151815260208083015190820152604081016101c7565b838152604060208083018290528282018490526000919060609081850187855b88811015610b79578135610b3781610ab1565b6001600160a01b0390811684528285013590610b5282610ab1565b16838501528186013586840152848201358584015260809283019290910190600101610b24565b50909998505050505050505050565b634e487b7160e01b600052604160045260246000fd5b60405160c0810167ffffffffffffffff81118282101715610bc157610bc1610b88565b60405290565b60405160e0810167ffffffffffffffff81118282101715610bc157610bc1610b88565b604051601f8201601f1916810167ffffffffffffffff81118282101715610c1357610c13610b88565b604052919050565b8051610c2681610ab1565b919050565b600082601f830112610c3c57600080fd5b815167ffffffffffffffff811115610c5657610c56610b88565b610c69601f8201601f1916602001610bea565b818152846020838601011115610c7e57600080fd5b6101ae8260208301602087016107ec565b600060c08284031215610ca157600080fd5b610ca9610b9e565b905081518152602082015160048110610cc157600080fd5b6020820152610cd260408301610c1b565b6040820152610ce360608301610c1b565b6060820152610cf460808301610c1b565b608082015260a082015167ffffffffffffffff811115610d1357600080fd5b610d1f84828501610c2b565b60a08301525092915050565b600067ffffffffffffffff821115610d4557610d45610b88565b5060051b60200190565b600060408284031215610d6157600080fd5b6040516040810181811067ffffffffffffffff82111715610d8457610d84610b88565b604052825181526020928301519281019290925250919050565b600082601f830112610daf57600080fd5b81516020610dc4610dbf83610d2b565b610bea565b8083825260208201915060208460061b870101935086841115610de657600080fd5b602086015b84811015610e0b57610dfd8882610d4f565b835291830191604001610deb565b509695505050505050565b600060e08284031215610e2857600080fd5b610e30610bc7565b9050815181526020820151602082015260408201516040820152606082015160608201526080820151608082015260a082015160a082015260c082015160c082015292915050565b600060208284031215610e8a57600080fd5b815167ffffffffffffffff80821115610ea257600080fd5b908301906101a08286031215610eb757600080fd5b610ebf610bc7565b825182811115610ece57600080fd5b610eda87828601610c8f565b825250602083015160208201526040830151604082015260608301516060820152608083015182811115610f0d57600080fd5b610f1987828601610d9e565b60808301525060a083015160a0820152610f368660c08501610e16565b60c082015295945050505050565b60006020808385031215610f5757600080fd5b825167ffffffffffffffff811115610f6e57600080fd5b8301601f81018513610f7f57600080fd5b8051610f8d610dbf82610d2b565b81815260059190911b82018301908381019087831115610fac57600080fd5b928401925b82841015610fca57835182529284019290840190610fb1565b979650505050505050565b634e487b7160e01b600052603260045260246000fd5b600060408284031215610ffd57600080fd5b610ae68383610d4f565b60006020828403121561101957600080fd5b5051919050565b60006020828403121561103257600080fd5b8151610ae681610ab1565b600061010080838503121561105157600080fd5b6040519081019067ffffffffffffffff8211818310171561107457611074610b88565b81604052835181526020840151602082015260408401516040820152606084015160608201526080840151608082015260a084015160a082015260c084015160c082015260e084015160e082015280925050509291505056fea2646970667358221220dfa8b72706d06c0f27ad43b8404add69883dd083fcbb7a0b64a9a775c508a37564736f6c634300081900336080604052348015600f57600080fd5b50611b628061001f6000396000f3fe608060405234801561001057600080fd5b506004361061009e5760003560e01c806368b5f86b1161006657806368b5f86b1461010f578063bea9849e14610122578063c3f909d414610135578063e1be37bd1461014a578063f29486a1146101be57600080fd5b80632544cc2d146100a35780633b9d78fc146100b85780634ee37b1c146100cb5780634f42ce05146100de578063659d67bb146100fc575b600080fd5b6100b66100b1366004610921565b6101de565b005b6100b66100c636600461095c565b61025a565b6100b66100d9366004610975565b6102f7565b6100e6610340565b6040516100f391906109f4565b60405180910390f35b6100b661010a366004610a84565b6103ef565b6100b661011d366004610a96565b610438565b6100b6610130366004610af5565b610481565b61013d6104d3565b6040516100f39190610c69565b61015d610158366004610d87565b61054c565b6040516100f39190600061010082019050825182526020830151602083015260408301516040830152606083015160608301526080830151608083015260a083015160a083015260c083015160c083015260e083015160e083015292915050565b6101d16101cc366004610af5565b61060f565b6040516100f39190610da0565b6101f065434f4e46494760d01b6106e5565b604051638e34bdc160e01b815273__$acce7506676b87ccbb54b9fc6afc582415$__90638e34bdc190610227908490600401611094565b60006040518083038186803b15801561023f57600080fd5b505af4158015610253573d6000803e3d6000fd5b5050505050565b61026c65434f4e46494760d01b6106e5565b60408051635a19ab0760e01b81528235600482015260208301356024820152908201356044820152606082013560648201526080820135608482015260a082013560a482015260c082013560c482015260e082013560e482015261010082013561010482015273__$acce7506676b87ccbb54b9fc6afc582415$__90635a19ab079061012401610227565b61030965434f4e46494760d01b6106e5565b604051635a6c9f1960e11b815273__$acce7506676b87ccbb54b9fc6afc582415$__9063b4d93e32906102279084906004016111c1565b6103796040518060c001604052806000815260200160008152602001600081526020016000815260200160608152602001606081525090565b73__$acce7506676b87ccbb54b9fc6afc582415$__634f42ce056040518163ffffffff1660e01b8152600401600060405180830381865af41580156103c2573d6000803e3d6000fd5b505050506040513d6000823e601f3d908101601f191682016040526103ea919081019061146a565b905090565b61040165434f4e46494760d01b6106e5565b60405163a9f3f09160e01b815273__$acce7506676b87ccbb54b9fc6afc582415$__9063a9f3f09190610227908490600401611522565b61044a65434f4e46494760d01b6106e5565b6040516347da0aa760e01b815273__$acce7506676b87ccbb54b9fc6afc582415$__906347da0aa790610227908490600401611574565b61049365434f4e46494760d01b6106e5565b604051635f54c24f60e11b81526001600160a01b038216600482015273__$acce7506676b87ccbb54b9fc6afc582415$__9063bea9849e90602401610227565b6104db6107d1565b73__$acce7506676b87ccbb54b9fc6afc582415$__63c3f909d46040518163ffffffff1660e01b8152600401600060405180830381865af4158015610524573d6000803e3d6000fd5b505050506040513d6000823e601f3d908101601f191682016040526103ea91908101906118bb565b61059460405180610100016040528060008152602001600081526020016000815260200160008152602001600081526020016000815260200160008152602001600081525090565b60405163e1be37bd60e01b81526004810183905273__$acce7506676b87ccbb54b9fc6afc582415$__9063e1be37bd9060240161010060405180830381865af41580156105e5573d6000803e3d6000fd5b505050506040513d601f19601f8201168201806040525081019061060991906119d0565b92915050565b610665604051806101400160405280600081526020016000815260200160008152602001600081526020016000815260200160008152602001600081526020016000815260200160008152602001606081525090565b60405163f29486a160e01b81526001600160a01b038316600482015273__$acce7506676b87ccbb54b9fc6afc582415$__9063f29486a190602401600060405180830381865af41580156106bd573d6000803e3d6000fd5b505050506040513d6000823e601f3d908101601f191682016040526106099190810190611a5f565b6106ef338261071c565b61071957604051632d7d0e0d60e21b81523360048201526024810182905260440160405180910390fd5b50565b600080610727610754565b6001600160a01b038516600090815260208290526040902090915061074c90846107b6565b949350505050565b600080604051602001610798906020808252601e908201527f78797a2e656c66692e73746f726167652e416363657373436f6e74726f6c0000604082015260600190565b60408051601f19818403018152919052805160209091012092915050565b600081815260018301602052604081205415155b9392505050565b604051806080016040528061083460405180610120016040528060006001600160a01b0316815260200160008152602001600081526020016000815260200160008152602001600081526020016000815260200160008152602001600081525090565b81526020016108b9604051806102000160405280606081526020016060815260200160008152602001600081526020016000815260200160008152602001600081526020016000815260200160008152602001600081526020016000815260200160008152602001600081526020016000815260200160008152602001600081525090565b8152602001610914604051806101400160405280600081526020016000815260200160008152602001600081526020016000815260200160008152602001600081526020016000815260200160008152602001600081525090565b8152600060209091015290565b60006020828403121561093357600080fd5b81356001600160401b0381111561094957600080fd5b82016102a081850312156107ca57600080fd5b6000610120828403121561096f57600080fd5b50919050565b60006020828403121561098757600080fd5b81356001600160401b0381111561099d57600080fd5b8201602081850312156107ca57600080fd5b60008151808452602080850194506020840160005b838110156109e95781516001600160a01b0316875295820195908201906001016109c4565b509495945050505050565b600060208083528351818401528084015160408401526040840151606084015260608401516080840152608084015160c060a0850152610a3760e08501826109af565b60a0860151858203601f190160c0870152805180835290840192506000918401905b80831015610a795783518252928401926001929092019190840190610a59565b509695505050505050565b60006060828403121561096f57600080fd5b600060208284031215610aa857600080fd5b81356001600160401b03811115610abe57600080fd5b8201604081850312156107ca57600080fd5b6001600160a01b038116811461071957600080fd5b8035610af081610ad0565b919050565b600060208284031215610b0757600080fd5b81356107ca81610ad0565b60008151808452602080850194506020840160005b838110156109e9578151805115158852838101518489015260408082015190890152606080820151908901526080808201519089015260a0808201519089015260c0808201519089015260e0808201519089015261010090810151908801526101209096019590820190600101610b27565b60006102008251818552610baf828601826109af565b91505060208301518482036020860152610bc98282610b12565b60408581015190870152606080860151908701526080808601519087015260a0808601519087015260c0808601519087015260e08086015190870152610100808601519087015261012080860151908701526101408086015190870152610160808601519087015261018080860151908701526101a080860151908701526101c080860151908701526101e0948501519490950193909352509192915050565b602081526000825160018060a01b038151166020840152602081015160408401526040810151606084015260608101516080840152608081015160a084015260a081015160c084015260c081015160e084015260e081015161010081818601528083015161012086015250505060208301516102a080610140850152610cf36102c0850183610b99565b60408681015180516101608801526020810151610180880152908101516101a087015260608101516101c087015260808101516101e087015260a081015161020087015260c081015161022087015260e08101516102408701526101008101516102608701526101208101516102808701529092505060608501516001600160a01b038116858301525b5090949350505050565b600060208284031215610d9957600080fd5b5035919050565b6020815281516020820152602082015160408201526040820151606082015260608201516080820152608082015160a082015260a082015160c082015260c082015160e0820152600060e083015161010081818501528085015191505061012081818501528085015191505061014080818501525061074c6101608401826109af565b600082356101fe19833603018112610e3a57600080fd5b90910192915050565b6000808335601e19843603018112610e5a57600080fd5b83016020810192503590506001600160401b03811115610e7957600080fd5b8060051b3603821315610e8b57600080fd5b9250929050565b8183526000602080850194508260005b858110156109e9578135610eb581610ad0565b6001600160a01b031687529582019590820190600101610ea2565b6000808335601e19843603018112610ee757600080fd5b83016020810192503590506001600160401b03811115610f0657600080fd5b61012081023603821315610e8b57600080fd5b801515811461071957600080fd5b8183526000602080850194508260005b858110156109e9578135610f4a81610f19565b15158752818301358388015260408083013590880152606080830135908801526080808301359088015260a0808301359088015260c0808301359088015260e0808301359088015261010080830135908801526101209687019690910190600101610f37565b6000610200610fbf8384610e43565b828652610fcf8387018284610e92565b92505050610fe06020840184610ed0565b8583036020870152610ff3838284610f27565b60408681013590880152606080870135908801526080808701359088015260a0808701359088015260c0808701359088015260e08087013590880152610100808701359088015261012080870135908801526101408087013590880152610160808701359088015261018080870135908801526101a080870135908801526101c080870135908801526101e095860135959096019490945250929392505050565b60208152600082356110a581610ad0565b60018060a01b038116602084015250602083013560408301526040830135606083015260608301356080830152608083013560a083015260a083013560c083015260c083013560e083015261010060e084013581840152610120818501358185015261111381860186610e23565b9150506102a0610140818186015261112f6102c0860184610fb0565b8682018035610160880152602081013561018088015260408101356101a088015260608101356101c088015260808101356101e088015260a081013561020088015260c081013561022088015260e081013561024088015261010081013561026088015261012001356102808701529250506111ae6102808601610ae5565b6001600160a01b03811685830152610d7d565b60006020808352833560be198536030181126111dc57600080fd5b848101905081828501528035604085015281810135606085015260408101356080850152606081013560a08501526112176080820182610e43565b60c08087015261122c61010087018284610e92565b91505061123c60a0830183610e43565b868303603f190160e088015280835292506001600160fb1b0383111561126157600080fd5b8260051b92508281858401375001019392505050565b634e487b7160e01b600052604160045260246000fd5b60405160c081016001600160401b03811182821017156112af576112af611277565b60405290565b60405161012081016001600160401b03811182821017156112af576112af611277565b60405161020081016001600160401b03811182821017156112af576112af611277565b60405161014081016001600160401b03811182821017156112af576112af611277565b604051608081016001600160401b03811182821017156112af576112af611277565b604051601f8201601f191681016001600160401b038111828210171561136857611368611277565b604052919050565b60006001600160401b0382111561138957611389611277565b5060051b60200190565b8051610af081610ad0565b600082601f8301126113af57600080fd5b815160206113c46113bf83611370565b611340565b8083825260208201915060208460051b8701019350868411156113e657600080fd5b602086015b84811015610a795780516113fe81610ad0565b83529183019183016113eb565b600082601f83011261141c57600080fd5b8151602061142c6113bf83611370565b8083825260208201915060208460051b87010193508684111561144e57600080fd5b602086015b84811015610a795780518352918301918301611453565b60006020828403121561147c57600080fd5b81516001600160401b038082111561149357600080fd5b9083019060c082860312156114a757600080fd5b6114af61128d565b825181526020830151602082015260408301516040820152606083015160608201526080830151828111156114e357600080fd5b6114ef8782860161139e565b60808301525060a08301518281111561150757600080fd5b6115138782860161140b565b60a08301525095945050505050565b60608101823561153181610ad0565b6001600160a01b03908116835260208401359061154d82610ad0565b908116602084015260408401359061156482610ad0565b8082166040850152505092915050565b602081526000823561158581610ad0565b6001600160a01b03166020838101919091528301353684900361013e190181126115ae57600080fd5b83810190506040808401528035606084015260208101356080840152604081013560a0840152606081013560c0840152608081013560e084015261010060a08201358185015261012060c08301358186015261014060e0840135818701528284013561016087015261162282850185610e43565b9450925080610180870152505061163e6101a085018383610e92565b95945050505050565b8051610af081610f19565b600082601f83011261166357600080fd5b815160206116736113bf83611370565b828152610120928302850182019282820191908785111561169357600080fd5b8387015b8581101561171e5781818a0312156116af5760008081fd5b6116b76112b5565b6116c082611647565b8152818601518682015260408083015190820152606080830151908201526080808301519082015260a0808301519082015260c0808301519082015260e0808301519082015261010080830151908201528452928401928101611697565b5090979650505050505050565b6000610200828403121561173e57600080fd5b6117466112d8565b905081516001600160401b038082111561175f57600080fd5b61176b8583860161139e565b8352602084015191508082111561178157600080fd5b5061178e84828501611652565b60208301525060408201516040820152606082015160608201526080820151608082015260a082015160a082015260c082015160c082015260e082015160e08201526101008083015181830152506101208083015181830152506101408083015181830152506101608083015181830152506101808083015181830152506101a08083015181830152506101c08083015181830152506101e080830151818301525092915050565b6000610140828403121561184957600080fd5b6118516112fb565b9050815181526020820151602082015260408201516040820152606082015160608201526080820151608082015260a082015160a082015260c082015160c082015260e082015160e082015261010080830151818301525061012080830151818301525092915050565b6000602082840312156118cd57600080fd5b81516001600160401b03808211156118e457600080fd5b908301908185036102a08112156118fa57600080fd5b61190261131e565b6101208083121561191257600080fd5b61191a6112b5565b925061192585611393565b83526020850151602084015260408501516040840152606085015160608401526080850151608084015260a085015160a084015260c085015160c084015260e085015160e0840152610100808601518185015250828252808501519250508282111561199057600080fd5b61199c8783860161172b565b60208201526119af876101408601611836565b60408201526119c16102808501611393565b60608201529695505050505050565b60006101008083850312156119e457600080fd5b604051908101906001600160401b0382118183101715611a0657611a06611277565b81604052835181526020840151602082015260408401516040820152606084015160608201526080840151608082015260a084015160a082015260c084015160c082015260e084015160e0820152809250505092915050565b600060208284031215611a7157600080fd5b81516001600160401b0380821115611a8857600080fd5b908301906101408286031215611a9d57600080fd5b611aa56112fb565b825181526020830151602082015260408301516040820152606083015160608201526080830151608082015260a083015160a082015260c083015160c082015260e083015160e08201526101008084015181830152506101208084015183811115611b0f57600080fd5b611b1b8882870161139e565b91830191909152509594505050505056fea2646970667358221220023251a7a107b788ac1a1077da42ddf85b81c14fef1b84458be08ecdb5c45f0f64736f6c63430008190033","linkReferences":{"src/process/AccountProcess.sol":{"AccountProcess":[{"start":50143,"length":20},{"start":50278,"length":20},{"start":50564,"length":20},{"start":50695,"length":20}]},"src/process/AssetsProcess.sol":{"AssetsProcess":[{"start":46914,"length":20},{"start":47243,"length":20},{"start":47530,"length":20},{"start":47902,"length":20},{"start":48337,"length":20},{"start":62226,"length":20},{"start":63642,"length":20},{"start":74173,"length":20},{"start":77870,"length":20},{"start":78910,"length":20},{"start":79514,"length":20},{"start":88585,"length":20},{"start":113075,"length":20},{"start":119827,"length":20}]},"src/process/CancelOrderProcess.sol":{"CancelOrderProcess":[{"start":65758,"length":20}]},"src/process/ClaimRewardsProcess.sol":{"ClaimRewardsProcess":[{"start":103746,"length":20},{"start":104253,"length":20},{"start":105288,"length":20}]},"src/process/ConfigProcess.sol":{"ConfigProcess":[{"start":73273,"length":20},{"start":124830,"length":20},{"start":128308,"length":20},{"start":128521,"length":20},{"start":128589,"length":20},{"start":128688,"length":20},{"start":128837,"length":20},{"start":128910,"length":20},{"start":128998,"length":20},{"start":129042,"length":20},{"start":129247,"length":20},{"start":129464,"length":20}]},"src/process/DecreasePositionProcess.sol":{"DecreasePositionProcess":[{"start":70847,"length":20}]},"src/process/FeeQueryProcess.sol":{"FeeQueryProcess":[{"start":102626,"length":20},{"start":102771,"length":20},{"start":102951,"length":20},{"start":103222,"length":20},{"start":103349,"length":20},{"start":104416,"length":20},{"start":104555,"length":20},{"start":104629,"length":20}]},"src/process/FeeRewardsProcess.sol":{"FeeRewardsProcess":[{"start":104811,"length":20}]},"src/process/GasProcess.sol":{"GasProcess":[{"start":61639,"length":20},{"start":63173,"length":20},{"start":65858,"length":20},{"start":71174,"length":20},{"start":71748,"length":20},{"start":72912,"length":20},{"start":75152,"length":20},{"start":75783,"length":20},{"start":78565,"length":20},{"start":79186,"length":20},{"start":85494,"length":20},{"start":86190,"length":20},{"start":87080,"length":20},{"start":87474,"length":20},{"start":101338,"length":20},{"start":103932,"length":20},{"start":105002,"length":20},{"start":105382,"length":20},{"start":112117,"length":20},{"start":112615,"length":20}]},"src/process/LiquidationProcess.sol":{"LiquidationProcess":[{"start":111925,"length":20},{"start":112507,"length":20},{"start":112847,"length":20}]},"src/process/LpPoolQueryProcess.sol":{"LpPoolQueryProcess":[{"start":96117,"length":20},{"start":96253,"length":20},{"start":96374,"length":20},{"start":96513,"length":20},{"start":96660,"length":20}]},"src/process/MarketFactoryProcess.sol":{"MarketFactoryProcess":[{"start":109411,"length":20},{"start":109677,"length":20}]},"src/process/MarketQueryProcess.sol":{"MarketQueryProcess":[{"start":123728,"length":20},{"start":124217,"length":20}]},"src/process/MintProcess.sol":{"MintProcess":[{"start":85290,"length":20},{"start":86096,"length":20},{"start":88852,"length":20},{"start":89027,"length":20}]},"src/process/OracleProcess.sol":{"OracleProcess":[{"start":46811,"length":20},{"start":47008,"length":20},{"start":61350,"length":20},{"start":61547,"length":20},{"start":70884,"length":20},{"start":71459,"length":20},{"start":71656,"length":20},{"start":74863,"length":20},{"start":75060,"length":20},{"start":85187,"length":20},{"start":85402,"length":20},{"start":86626,"length":20},{"start":86988,"length":20},{"start":92986,"length":20},{"start":93102,"length":20},{"start":101044,"length":20},{"start":101228,"length":20},{"start":103643,"length":20},{"start":103840,"length":20},{"start":104701,"length":20},{"start":104892,"length":20},{"start":111807,"length":20},{"start":112007,"length":20},{"start":112737,"length":20},{"start":116470,"length":20},{"start":116996,"length":20},{"start":118181,"length":20},{"start":118382,"length":20}]},"src/process/OrderProcess.sol":{"OrderProcess":[{"start":61453,"length":20},{"start":62588,"length":20},{"start":63320,"length":20}]},"src/process/PositionMarginProcess.sol":{"PositionMarginProcess":[{"start":71562,"length":20},{"start":72818,"length":20},{"start":74559,"length":20},{"start":74966,"length":20},{"start":75689,"length":20},{"start":78256,"length":20}]},"src/process/RebalanceProcess.sol":{"RebalanceProcess":[{"start":101136,"length":20}]},"src/process/RedeemProcess.sol":{"RedeemProcess":[{"start":86896,"length":20},{"start":87380,"length":20},{"start":90390,"length":20},{"start":90480,"length":20}]},"src/process/SwapProcess.sol":{"SwapProcess":[{"start":119183,"length":20}]},"src/process/VaultProcess.sol":{"VaultProcess":[{"start":66249,"length":20},{"start":108097,"length":20},{"start":113359,"length":20}]},"src/storage/Account.sol":{"Account":[{"start":48459,"length":20},{"start":48585,"length":20},{"start":48715,"length":20},{"start":48952,"length":20},{"start":49179,"length":20},{"start":49424,"length":20},{"start":49550,"length":20},{"start":49682,"length":20},{"start":49919,"length":20},{"start":50431,"length":20},{"start":62476,"length":20},{"start":62731,"length":20},{"start":63868,"length":20},{"start":63987,"length":20},{"start":64111,"length":20},{"start":73934,"length":20},{"start":76154,"length":20},{"start":76273,"length":20},{"start":76405,"length":20},{"start":77330,"length":20},{"start":77456,"length":20},{"start":116575,"length":20},{"start":116767,"length":20},{"start":117198,"length":20},{"start":117356,"length":20},{"start":117613,"length":20}]},"src/storage/AppConfig.sol":{"AppConfig":[{"start":47965,"length":20},{"start":62832,"length":20},{"start":66485,"length":20},{"start":66910,"length":20},{"start":74269,"length":20},{"start":77966,"length":20},{"start":78416,"length":20},{"start":79040,"length":20}]},"src/storage/AppTradeConfig.sol":{"AppTradeConfig":[{"start":118632,"length":20}]},"src/storage/AppTradeTokenConfig.sol":{"AppTradeTokenConfig":[{"start":47767,"length":20}]},"src/storage/AppVaultConfig.sol":{"AppVaultConfig":[{"start":111009,"length":20},{"start":111125,"length":20},{"start":111200,"length":20}]},"src/storage/ClaimRewards.sol":{"ClaimRewards":[{"start":103491,"length":20},{"start":105136,"length":20}]},"src/storage/CommonData.sol":{"CommonData":[{"start":87715,"length":20},{"start":88034,"length":20},{"start":89604,"length":20},{"start":89958,"length":20},{"start":123878,"length":20},{"start":124433,"length":20}]},"src/storage/InsuranceFund.sol":{"InsuranceFund":[{"start":112235,"length":20},{"start":112367,"length":20}]},"src/storage/LiabilityClean.sol":{"LiabilityClean":[{"start":111652,"length":20},{"start":112908,"length":20},{"start":113704,"length":20}]},"src/storage/LpPool.sol":{"LpPool":[{"start":88184,"length":20},{"start":90111,"length":20}]},"src/storage/Mint.sol":{"Mint":[{"start":85034,"length":20},{"start":85943,"length":20}]},"src/storage/Order.sol":{"Order":[{"start":60793,"length":20},{"start":64301,"length":20},{"start":64485,"length":20},{"start":65127,"length":20}]},"src/storage/Position.sol":{"Position":[{"start":70486,"length":20},{"start":70655,"length":20},{"start":72199,"length":20},{"start":76609,"length":20},{"start":77604,"length":20}]},"src/storage/Redeem.sol":{"Redeem":[{"start":86740,"length":20},{"start":87225,"length":20}]},"src/storage/Referral.sol":{"Referral":[{"start":122896,"length":20},{"start":123051,"length":20}]},"src/storage/StakingAccount.sol":{"StakingAccount":[{"start":93821,"length":20},{"start":93961,"length":20},{"start":94096,"length":20},{"start":94276,"length":20},{"start":94413,"length":20},{"start":94674,"length":20}]},"src/storage/Symbol.sol":{"Symbol":[{"start":73396,"length":20},{"start":124578,"length":20}]},"src/storage/UpdateLeverage.sol":{"UpdateLeverage":[{"start":72665,"length":20},{"start":74710,"length":20}]},"src/storage/UpdatePositionMargin.sol":{"UpdatePositionMargin":[{"start":71306,"length":20},{"start":75536,"length":20}]},"src/storage/UsdPool.sol":{"UsdPool":[{"start":87866,"length":20},{"start":89727,"length":20}]},"src/storage/UuidCreator.sol":{"UuidCreator":[{"start":70375,"length":20},{"start":124335,"length":20}]},"src/storage/Withdraw.sol":{"Withdraw":[{"start":46659,"length":20},{"start":47379,"length":20}]},"src/utils/AddressUtils.sol":{"AddressUtils":[{"start":47106,"length":20},{"start":48190,"length":20},{"start":89223,"length":20},{"start":109136,"length":20},{"start":109268,"length":20}]},"src/utils/CalUtils.sol":{"CalUtils":[{"start":117845,"length":20},{"start":118605,"length":20}]},"src/utils/ChainUtils.sol":{"ChainUtils":[{"start":77108,"length":20}]},"src/utils/TokenUtils.sol":{"TokenUtils":[{"start":117897,"length":20},{"start":118085,"length":20}]},"src/utils/TransferUtils.sol":{"TransferUtils":[{"start":34322,"length":20},{"start":37093,"length":20},{"start":39864,"length":20}]},"src/utils/TypeUtils.sol":{"TypeUtils":[{"start":108938,"length":20},{"start":109017,"length":20},{"start":109574,"length":20}]}}},"methodIdentifiers":{"accountFacet_batchUpdateAccountToken((address,address[],int256[]))":"cea2f3e1","accountFacet_cancelWithdraw(uint256,bytes32)":"b219de8b","accountFacet_createWithdrawRequest(address,uint256)":"2e694dc0","accountFacet_deposit(address,uint256)":"2a10bc53","btcFeed()":"c23d2a4a","btcFeedDecimals()":"47439c54","orderFacet_batchCreateOrderRequest((bytes32,bool,bool,uint8,uint8,uint8,uint8,address,uint256,uint256,uint256,uint256,uint256,uint256,uint256))":"0160312c","orderFacet_cancelOrder(uint256,bytes32)":"d13ff4cd","orderFacet_createOrderRequest((bytes32,bool,bool,uint8,uint8,uint8,uint8,address,uint256,uint256,uint256,uint256,uint256,uint256,uint256))":"e27c931b","positionFacet_autoReducePositions(bytes32[])":"17fcfd8e","positionFacet_cancelUpdateLeverageRequest(uint256,bytes32)":"c2c00265","positionFacet_cancelUpdatePositionMarginRequest(uint256,bytes32)":"1cb1eac4","positionFacet_createUpdateLeverageRequest((bytes32,bool,bool,bool,uint256,address,uint256,uint256))":"711bc03e","positionFacet_createUpdatePositionMarginRequest((bytes32,bool,bool,address,uint256,uint256))":"29409837","stakeFacet_cancelMintStakeToken(uint256,bytes32)":"93f1d238","stakeFacet_cancelRedeemStakeToken(uint256,bytes32)":"f44c1318","stakeFacet_createMintStakeTokenRequest((address,address,uint256,uint256,uint256,uint256,bool,bool))":"e292b47f","stakeFacet_createRedeemStakeTokenRequest((address,address,address,uint256,uint256,uint256))":"3e0e3e0c","usdcFeed()":"a4e7d977","usdcFeedDecimals()":"ceb78eb5","wethFeed()":"dd47dacf","wethFeedDecimals()":"8022b6fd"},"id":175}