{"abi":[{"type":"constructor","inputs":[],"stateMutability":"payable"},{"type":"function","name":"accountFacet_cancelWithdraw","inputs":[{"name":"_requestIndex","type":"uint8","internalType":"uint8"},{"name":"_answer","type":"uint16","internalType":"uint16"}],"outputs":[],"stateMutability":"nonpayable"},{"type":"function","name":"accountFacet_createWithdrawRequest","inputs":[{"name":"_tokenIndex","type":"uint8","internalType":"uint8"},{"name":"_amount","type":"uint96","internalType":"uint96"},{"name":"_answer","type":"uint16","internalType":"uint16"}],"outputs":[],"stateMutability":"nonpayable"},{"type":"function","name":"accountFacet_deposit","inputs":[{"name":"_tokenIndex","type":"uint8","internalType":"uint8"},{"name":"_amount","type":"uint96","internalType":"uint96"},{"name":"_sendEth","type":"bool","internalType":"bool"},{"name":"_onlyEth","type":"bool","internalType":"bool"},{"name":"_ethValue","type":"uint96","internalType":"uint96"},{"name":"_answer","type":"uint16","internalType":"uint16"}],"outputs":[],"stateMutability":"nonpayable"},{"type":"function","name":"accountFacet_executeWithdraw","inputs":[{"name":"_answer","type":"uint16","internalType":"uint16"}],"outputs":[],"stateMutability":"nonpayable"},{"type":"function","name":"btcFeed","inputs":[],"outputs":[{"name":"","type":"address","internalType":"contract MockAggregatorV3"}],"stateMutability":"view"},{"type":"function","name":"btcFeedDecimals","inputs":[],"outputs":[{"name":"","type":"uint8","internalType":"uint8"}],"stateMutability":"view"},{"type":"function","name":"dealUsers","inputs":[],"outputs":[],"stateMutability":"nonpayable"},{"type":"function","name":"executeOrder","inputs":[{"name":"_answer","type":"uint16","internalType":"uint16"}],"outputs":[],"stateMutability":"nonpayable"},{"type":"function","name":"orderFacet_batchCreateOrderRequest","inputs":[{"name":"_answer","type":"uint16","internalType":"uint16"},{"name":"_numOrders","type":"uint8","internalType":"uint8"},{"name":"_isCrossMargin","type":"bool","internalType":"bool"},{"name":"_orderSide","type":"uint8","internalType":"uint8"},{"name":"_orderType","type":"uint8","internalType":"uint8"},{"name":"_stopType","type":"uint8","internalType":"uint8"},{"name":"_marginTokenIndex","type":"uint8","internalType":"uint8"},{"name":"_orderMargin","type":"uint96","internalType":"uint96"},{"name":"_triggerPrice","type":"uint64","internalType":"uint64"}],"outputs":[],"stateMutability":"nonpayable"},{"type":"function","name":"orderFacet_cancelOrder","inputs":[{"name":"_requestIndex","type":"uint8","internalType":"uint8"},{"name":"_answer","type":"uint16","internalType":"uint16"}],"outputs":[],"stateMutability":"nonpayable"},{"type":"function","name":"orderFacet_createOrderRequest","inputs":[{"name":"_answer","type":"uint16","internalType":"uint16"},{"name":"_isCrossMargin","type":"bool","internalType":"bool"},{"name":"_isNativeToken","type":"bool","internalType":"bool"},{"name":"_orderSide","type":"uint8","internalType":"uint8"},{"name":"_positionSide","type":"uint8","internalType":"uint8"},{"name":"_orderType","type":"uint8","internalType":"uint8"},{"name":"_stopType","type":"uint8","internalType":"uint8"},{"name":"_marginTokenIndex","type":"uint8","internalType":"uint8"},{"name":"_qty","type":"uint96","internalType":"uint96"},{"name":"_orderMargin","type":"uint96","internalType":"uint96"},{"name":"_leverage","type":"uint96","internalType":"uint96"},{"name":"_triggerPrice","type":"uint64","internalType":"uint64"}],"outputs":[],"stateMutability":"nonpayable"},{"type":"function","name":"positionFacet_autoReducePositions","inputs":[{"name":"_answer","type":"uint16","internalType":"uint16"}],"outputs":[],"stateMutability":"nonpayable"},{"type":"function","name":"positionFacet_cancelUpdateLeverageRequest","inputs":[{"name":"_requestIndex","type":"uint8","internalType":"uint8"},{"name":"_answer","type":"uint16","internalType":"uint16"}],"outputs":[],"stateMutability":"nonpayable"},{"type":"function","name":"positionFacet_cancelUpdatePositionMarginRequest","inputs":[{"name":"_requestIndex","type":"uint8","internalType":"uint8"},{"name":"_answer","type":"uint16","internalType":"uint16"}],"outputs":[],"stateMutability":"nonpayable"},{"type":"function","name":"positionFacet_createUpdateLeverageRequest","inputs":[{"name":"_answer","type":"uint16","internalType":"uint16"},{"name":"_isLong","type":"bool","internalType":"bool"},{"name":"_isNativeToken","type":"bool","internalType":"bool"},{"name":"_tokenIndex","type":"uint8","internalType":"uint8"},{"name":"_addMarginAmount","type":"uint96","internalType":"uint96"},{"name":"_leverage","type":"uint96","internalType":"uint96"}],"outputs":[],"stateMutability":"nonpayable"},{"type":"function","name":"positionFacet_createUpdatePositionMarginRequest","inputs":[{"name":"_answer","type":"uint16","internalType":"uint16"},{"name":"_isAdd","type":"bool","internalType":"bool"},{"name":"_isNativeToken","type":"bool","internalType":"bool"},{"name":"_tokenIndex","type":"uint8","internalType":"uint8"},{"name":"_updateMarginAmount","type":"uint96","internalType":"uint96"}],"outputs":[],"stateMutability":"nonpayable"},{"type":"function","name":"positionFacet_executeUpdateLeverageRequest","inputs":[{"name":"_answer","type":"uint16","internalType":"uint16"}],"outputs":[],"stateMutability":"nonpayable"},{"type":"function","name":"positionFacet_executeUpdatePositionMarginRequest","inputs":[{"name":"_answer","type":"uint16","internalType":"uint16"}],"outputs":[],"stateMutability":"nonpayable"},{"type":"function","name":"stakeFacet_cancelMintStakeToken","inputs":[{"name":"_requestIndex","type":"uint8","internalType":"uint8"},{"name":"_answer","type":"uint16","internalType":"uint16"}],"outputs":[],"stateMutability":"nonpayable"},{"type":"function","name":"stakeFacet_cancelRedeemStakeToken","inputs":[{"name":"_requestIndex","type":"uint8","internalType":"uint8"},{"name":"_answer","type":"uint16","internalType":"uint16"}],"outputs":[],"stateMutability":"nonpayable"},{"type":"function","name":"stakeFacet_createMintStakeTokenRequest","inputs":[{"name":"_answer","type":"uint16","internalType":"uint16"},{"name":"_stakeTokenIndex","type":"uint8","internalType":"uint8"},{"name":"_requestTokenIndex","type":"uint8","internalType":"uint8"},{"name":"_requestTokenAmount","type":"uint256","internalType":"uint256"},{"name":"_walletRequestTokenAmount","type":"uint96","internalType":"uint96"},{"name":"_minStakeAmount","type":"uint96","internalType":"uint96"},{"name":"_isCollateral","type":"bool","internalType":"bool"},{"name":"_isNativeToken","type":"bool","internalType":"bool"}],"outputs":[],"stateMutability":"nonpayable"},{"type":"function","name":"stakeFacet_createRedeemStakeTokenRequest","inputs":[{"name":"_answer","type":"uint16","internalType":"uint16"},{"name":"_stakeTokenIndex","type":"uint8","internalType":"uint8"},{"name":"_redeemTokenIndex","type":"uint8","internalType":"uint8"},{"name":"_requestTokenAmount","type":"uint256","internalType":"uint256"},{"name":"_unStakeAmount","type":"uint96","internalType":"uint96"},{"name":"_minRedeemAmount","type":"uint96","internalType":"uint96"}],"outputs":[],"stateMutability":"nonpayable"},{"type":"function","name":"stakeFacet_executeMintStakeToken","inputs":[{"name":"_answer","type":"uint16","internalType":"uint16"}],"outputs":[],"stateMutability":"nonpayable"},{"type":"function","name":"stakeFacet_executeRedeemStakeToken","inputs":[{"name":"_answer","type":"uint16","internalType":"uint16"}],"outputs":[],"stateMutability":"nonpayable"},{"type":"function","name":"usdcFeed","inputs":[],"outputs":[{"name":"","type":"address","internalType":"contract MockAggregatorV3"}],"stateMutability":"view"},{"type":"function","name":"usdcFeedDecimals","inputs":[],"outputs":[{"name":"","type":"uint8","internalType":"uint8"}],"stateMutability":"view"},{"type":"function","name":"wethFeed","inputs":[],"outputs":[{"name":"","type":"address","internalType":"contract MockAggregatorV3"}],"stateMutability":"view"},{"type":"function","name":"wethFeedDecimals","inputs":[],"outputs":[{"name":"","type":"uint8","internalType":"uint8"}],"stateMutability":"view"},{"type":"event","name":"Log","inputs":[{"name":"","type":"string","indexed":false,"internalType":"string"}],"anonymous":false}],"bytecode":{"object":"0x6080604052600080546001600160a01b0319908116737109709ecfa91a80626ff3989d68f67f5b1dd12d17909155603b8054821630908117909155603c805490921617905561004c610051565b615d5d565b60405161005d9061514c565b604051809103906000f080158015610079573d6000803e3d6000fd5b50600180546001600160a01b0319166001600160a01b03929092169190911790556040516012906100a99061515a565b6040808252600490820152635553444360e01b606082015260ff9091166020820152608001604051809103906000f0801580156100ea573d6000803e3d6000fd5b50600380546001600160a01b0319166001600160a01b039290921691909117905560405160089061011a9061515a565b6040808252600490820152635742544360e01b606082015260ff9091166020820152608001604051809103906000f08015801561015b573d6000803e3d6000fd5b50600280546001600160a01b0319166001600160a01b039283161790556000546040516001625e79b760e01b03198152670122333444455555600482015291169063ffa18649906024016020604051808303816000875af11580156101c4573d6000803e3d6000fd5b505050506040513d601f19601f820116820180604052508101906101e891906155a7565b600480546001600160a01b0319166001600160a01b039290921691909117905560408051600380825260808201909252906020820160608036833750508151610238926005925060200190615168565b50600154600580546001600160a01b039092169160009061025b5761025b6155d7565b600091825260209091200180546001600160a01b0319166001600160a01b0392831617905560035460058054919092169190600190811061029e5761029e6155d7565b600091825260209091200180546001600160a01b0319166001600160a01b0392831617905560028054600580549190931692919081106102e0576102e06155d7565b9060005260206000200160006101000a8154816001600160a01b0302191690836001600160a01b031602179055503060405161031b906151cd565b6001600160a01b039091168152602001604051809103906000f080158015610347573d6000803e3d6000fd5b50603a80546001600160a01b0319166001600160a01b03929092169190911790556040513090610376906151db565b6001600160a01b039091168152602001604051809103906000f0801580156103a2573d6000803e3d6000fd5b50603880546001600160a01b0319166001600160a01b039290921691909117905560405130906103d1906151e9565b6001600160a01b039091168152602001604051809103906000f0801580156103fd573d6000803e3d6000fd5b50603980546001600160a01b0319166001600160a01b0392909216919091179055610426610921565b604051610432906151f7565b604051809103906000f08015801561044e573d6000803e3d6000fd5b50603580546001600160a01b0319166001600160a01b03928316908117909155600e54600f5460405191841693169190309061048990615205565b6001600160a01b039485168152928416602084015290831660408301529091166060820152608001604051809103906000f0801580156104cd573d6000803e3d6000fd5b50603680546001600160a01b03929092166001600160a01b03199283168117909155603780548316821790556021805483168217905560228054831682179055602380548316821790556024805483168217905560258054831682179055602680548316821790556027805483168217905560288054831682179055602a8054831682179055602b8054831682179055602c8054831682179055602d8054831682179055602e8054831682179055602f80548316821790556030805483168217905560318054831682179055603280548316821790556033805483168217905560348054831682179055602980549092161790556105c9610ed7565b6105d1612bbe565b6105d9612ce4565b60265460405163ac4ab3fb60e01b81523060048201526420a226a4a760d91b60248201526001600160a01b039091169063ac4ab3fb90604401602060405180830381865afa15801561062f573d6000803e3d6000fd5b505050506040513d601f19601f8201168201806040525081019061065391906155ed565b61065f5761065f61560f565b60265460405163ac4ab3fb60e01b8152306004820152665550475241444560c81b60248201526001600160a01b039091169063ac4ab3fb90604401602060405180830381865afa1580156106b7573d6000803e3d6000fd5b505050506040513d601f19601f820116820180604052508101906106db91906155ed565b6106e7576106e761560f565b60265460405163ac4ab3fb60e01b815230600482015265434f4e46494760d01b60248201526001600160a01b039091169063ac4ab3fb90604401602060405180830381865afa15801561073e573d6000803e3d6000fd5b505050506040513d601f19601f8201168201806040525081019061076291906155ed565b61076e5761076e61560f565b60265460405163ac4ab3fb60e01b81523060048201526525a2a2a822a960d11b60248201526001600160a01b039091169063ac4ab3fb90604401602060405180830381865afa1580156107c5573d6000803e3d6000fd5b505050506040513d601f19601f820116820180604052508101906107e991906155ed565b6107f5576107f561560f565b6107fd612dfc565b610805612e80565b61080d613118565b6108156138f0565b60408051600380825260808201909252906020820160608036833750508151610845926009925060200190615168565b50600654600980546001600160a01b0390921691600090610868576108686155d7565b600091825260209091200180546001600160a01b0319166001600160a01b039283161790556007546009805491909216919060019081106108ab576108ab6155d7565b600091825260209091200180546001600160a01b0319166001600160a01b039283161790556008546009805491909216919060029081106108ee576108ee6155d7565b600091825260209091200180546001600160a01b0319166001600160a01b039290921691909117905561091f613ec6565b565b60405161092d90615213565b604051809103906000f080158015610949573d6000803e3d6000fd5b50600d80546001600160a01b0319166001600160a01b039290921691909117905560405161097690615221565b604051809103906000f080158015610992573d6000803e3d6000fd5b50600e80546001600160a01b0319166001600160a01b03929092169190911790556040516109bf9061522f565b604051809103906000f0801580156109db573d6000803e3d6000fd5b50600f80546001600160a01b0319166001600160a01b0392909216919091179055604051610a089061523d565b604051809103906000f080158015610a24573d6000803e3d6000fd5b50601080546001600160a01b0319166001600160a01b0392909216919091179055604051610a519061524b565b604051809103906000f080158015610a6d573d6000803e3d6000fd5b50601180546001600160a01b0319166001600160a01b0392909216919091179055604051610a9a90615259565b604051809103906000f080158015610ab6573d6000803e3d6000fd5b50601280546001600160a01b0319166001600160a01b0392909216919091179055604051610ae390615267565b604051809103906000f080158015610aff573d6000803e3d6000fd5b50601380546001600160a01b0319166001600160a01b0392909216919091179055604051610b2c90615275565b604051809103906000f080158015610b48573d6000803e3d6000fd5b50601480546001600160a01b0319166001600160a01b0392909216919091179055604051610b7590615283565b604051809103906000f080158015610b91573d6000803e3d6000fd5b50601580546001600160a01b0319166001600160a01b0392909216919091179055604051610bbe90615291565b604051809103906000f080158015610bda573d6000803e3d6000fd5b50601680546001600160a01b0319166001600160a01b0392909216919091179055604051610c079061529f565b604051809103906000f080158015610c23573d6000803e3d6000fd5b50601780546001600160a01b0319166001600160a01b0392909216919091179055604051610c50906152ad565b604051809103906000f080158015610c6c573d6000803e3d6000fd5b50601880546001600160a01b0319166001600160a01b0392909216919091179055604051610c99906152bb565b604051809103906000f080158015610cb5573d6000803e3d6000fd5b50601980546001600160a01b0319166001600160a01b0392909216919091179055604051610ce2906152c9565b604051809103906000f080158015610cfe573d6000803e3d6000fd5b50601a80546001600160a01b0319166001600160a01b0392909216919091179055604051610d2b906152d7565b604051809103906000f080158015610d47573d6000803e3d6000fd5b50601b80546001600160a01b0319166001600160a01b0392909216919091179055604051610d74906152e5565b604051809103906000f080158015610d90573d6000803e3d6000fd5b50601c80546001600160a01b0319166001600160a01b0392909216919091179055604051610dbd906152f3565b604051809103906000f080158015610dd9573d6000803e3d6000fd5b50601d80546001600160a01b0319166001600160a01b0392909216919091179055604051610e0690615301565b604051809103906000f080158015610e22573d6000803e3d6000fd5b50601e80546001600160a01b0319166001600160a01b0392909216919091179055604051610e4f9061530f565b604051809103906000f080158015610e6b573d6000803e3d6000fd5b50601f80546001600160a01b0319166001600160a01b0392909216919091179055604051610e989061531d565b604051809103906000f080158015610eb4573d6000803e3d6000fd5b50602080546001600160a01b0319166001600160a01b0392909216919091179055565b610f6c604051806102600160405280606081526020016060815260200160608152602001606081526020016060815260200160608152602001606081526020016060815260200160608152602001606081526020016060815260200160608152602001606081526020016060815260200160608152602001606081526020016060815260200160608152602001606081525090565b604080516012808252610260820190925290816020015b60408051606080820183526000808352602083015291810191909152815260200190600190039081610f8357505081526040805160078082526101008201909252906020820160e0803683375050506020820181905280516311f9fbc960e21b9190600090610ff457610ff46155d7565b6001600160e01b0319909216602092830291909101820152810151805163750b5a1960e01b9190600190811061102c5761102c6155d7565b6001600160e01b031990921660209283029190910182015281015180516302e9d19960e01b91906002908110611064576110646155d7565b6001600160e01b031990921660209283029190910182015281015180516313874d3760e01b9190600390811061109c5761109c6155d7565b6001600160e01b0319909216602092830291909101820152810151805163115647f760e01b919060049081106110d4576110d46155d7565b6001600160e01b03199092166020928302919091018201528101518051630f6a21fd60e31b9190600590811061110c5761110c6155d7565b6001600160e01b0319909216602092830291909101820152810151805163abac566560e01b91906006908110611144576111446155d7565b6001600160e01b03199092166020928302919091018201526040805160608101909152600d546001600160a01b031681529081016000815260208381015191015281518051600090611198576111986155d7565b602090810291909101015260408051600a808252610160820190925290816020016020820280368337505050604082018190528051632544cc2d60e01b91906000906111e6576111e66155d7565b6001600160e01b03199092166020928302919091019091015260408101518051635f54c24f60e11b91906001908110611221576112216155d7565b6001600160e01b031990921660209283029190910190910152604081015180516368b5f86b60e01b9190600290811061125c5761125c6155d7565b6001600160e01b031990921660209283029190910190910152604081015180516313b8dec760e21b91906003908110611297576112976155d7565b6001600160e01b03199092166020928302919091019091015260408101518051630ee75e3f60e21b919060049081106112d2576112d26155d7565b6001600160e01b0319909216602092830291909101909101526040810151805163659d67bb60e01b9190600590811061130d5761130d6155d7565b6001600160e01b031990921660209283029190910190910152604081015180516330fe427560e21b91906006908110611348576113486155d7565b6001600160e01b0319909216602092830291909101909101526040810151805163f29486a160e01b91906007908110611383576113836155d7565b6001600160e01b03199092166020928302919091019091015260408101518051634f42ce0560e01b919060089081106113be576113be6155d7565b6001600160e01b0319909216602092830291909101909101526040810151805163e1be37bd60e01b919060099081106113f9576113f96155d7565b6001600160e01b0319909216602092830291909101820152604080516060810190915281546001600160a01b03168152908101600081526040830151602090910152815180516001908110611450576114506155d7565b6020908102919091010152604080516001808252818301909252908160200160208202803683375050506060820181905280516001621df23f60e21b0319919060009061149f5761149f6155d7565b6001600160e01b031990921660209283029190910182015260408051606081019091526019546001600160a01b031681529081016000815260608301516020909101528151805160029081106114f7576114f76155d7565b602090810291909101015260408051600b80825261018082019092529081602001602082028036833750505060808201819052805163e9e6741f60e01b9190600090611545576115456155d7565b6001600160e01b0319909216602092830291909101909101526080810151805163943144b760e01b91906001908110611580576115806155d7565b6001600160e01b031990921660209283029190910190910152608081015180516324211a4b60e21b919060029081106115bb576115bb6155d7565b6001600160e01b031990921660209283029190910190910152608081015180516351ebcaad60e01b919060039081106115f6576115f66155d7565b6001600160e01b03199092166020928302919091019091015260808101518051637ad1830360e01b91906004908110611631576116316155d7565b6001600160e01b0319909216602092830291909101909101526080810151805163bc8f47c560e01b9190600590811061166c5761166c6155d7565b6001600160e01b031990921660209283029190910190910152608081015180516355be18cb60e01b919060069081106116a7576116a76155d7565b6001600160e01b0319909216602092830291909101909101526080810151805163b9ee807360e01b919060079081106116e2576116e26155d7565b6001600160e01b0319909216602092830291909101909101526080810151805163ada5636560e01b9190600890811061171d5761171d6155d7565b6001600160e01b03199092166020928302919091019091015260808101518051632e4cd5d560e11b91906009908110611758576117586155d7565b6001600160e01b03199092166020928302919091019091015260808101518051632dcf295f60e11b9190600a908110611793576117936155d7565b6001600160e01b031990921660209283029190910182015260408051606081019091526018546001600160a01b031681529081016000815260808301516020909101528151805160039081106117eb576117eb6155d7565b602090810291909101015260408051600680825260e082019092529081602001602082028036833750505060a08201819052805163c082871360e01b9190600090611838576118386155d7565b6001600160e01b03199092166020928302919091019091015260a08101518051635a536f8f60e01b91906001908110611873576118736155d7565b6001600160e01b03199092166020928302919091019091015260a08101518051632b277aa960e21b919060029081106118ae576118ae6155d7565b6001600160e01b03199092166020928302919091019091015260a08101518051631b2df54560e31b919060039081106118e9576118e96155d7565b6001600160e01b03199092166020928302919091019091015260a081015180516319c6034360e21b91906004908110611924576119246155d7565b6001600160e01b03199092166020928302919091019091015260a081015180516308d601cb60e21b9190600590811061195f5761195f6155d7565b6001600160e01b03199092166020928302919091018201526040805160608101909152601c546001600160a01b031681529081016000815260a08301516020909101528151805160049081106119b7576119b76155d7565b602090810291909101015260408051600680825260e082019092529081602001602082028036833750505060c082018190528051631ea9aba960e21b9190600090611a0457611a046155d7565b6001600160e01b03199092166020928302919091019091015260c08101518051635cfac83760e01b91906001908110611a3f57611a3f6155d7565b6001600160e01b03199092166020928302919091019091015260c081015180516378a0c2cd60e11b91906002908110611a7a57611a7a6155d7565b6001600160e01b03199092166020928302919091019091015260c0810151805163a7b039d960e01b91906003908110611ab557611ab56155d7565b6001600160e01b03199092166020928302919091019091015260c081015180516351d1a5af60e01b91906004908110611af057611af06155d7565b6001600160e01b03199092166020928302919091019091015260c0810151805163cd0743c960e01b91906005908110611b2b57611b2b6155d7565b6001600160e01b03199092166020928302919091018201526040805160608101909152601f546001600160a01b031681529081016000815260c0830151602090910152815180516005908110611b8357611b836155d7565b6020908102919091010152604080516002808252606082019092529081602001602082028036833750505060e082018190528051634777232f60e01b9190600090611bd057611bd06155d7565b6001600160e01b03199092166020928302919091019091015260e0810151805163751372f960e11b91906001908110611c0b57611c0b6155d7565b6001600160e01b03199092166020928302919091018201526040805160608101909152601a546001600160a01b031681529081016000815260e0830151602090910152815180516006908110611c6357611c636155d7565b602090810291909101015260408051600280825260608201909252908160200160208202803683375050506101008201819052805163180e24bb60e01b9190600090611cb157611cb16155d7565b6001600160e01b0319909216602092830291909101909101526101008101518051631d3c97b760e01b91906001908110611ced57611ced6155d7565b6001600160e01b031990921660209283029190910182015260408051606081019091526014546001600160a01b0316815290810160008152610100830151602090910152815180516007908110611d4657611d466155d7565b602090810291909101015260408051600580825260c0820190925290816020016020820280368337505050610120820181905280516325829b0560e11b9190600090611d9457611d946155d7565b6001600160e01b03199092166020928302919091019091015261012081015180516344f3a60560e11b91906001908110611dd057611dd06155d7565b6001600160e01b03199092166020928302919091019091015261012081015180516322dabfa560e01b91906002908110611e0c57611e0c6155d7565b6001600160e01b03199092166020928302919091019091015261012081015180516305b47d8160e51b91906003908110611e4857611e486155d7565b6001600160e01b0319909216602092830291909101909101526101208101518051639508352760e01b91906004908110611e8457611e846155d7565b6001600160e01b031990921660209283029190910182015260408051606081019091526010546001600160a01b0316815290810160008152610120830151602090910152815180516008908110611edd57611edd6155d7565b602090810291909101015260408051600580825260c08201909252908160200160208202803683375050506101408201819052805163bbe4f6db60e01b9190600090611f2b57611f2b6155d7565b6001600160e01b031990921660209283029190910190910152610140810151805163075d037d60e41b91906001908110611f6757611f676155d7565b6001600160e01b03199092166020928302919091019091015261014081015180516327a79e3d60e21b91906002908110611fa357611fa36155d7565b6001600160e01b0319909216602092830291909101909101526101408101518051631559a24360e01b91906003908110611fdf57611fdf6155d7565b6001600160e01b0319909216602092830291909101909101526101408101518051631f27dbe160e11b9190600490811061201b5761201b6155d7565b6001600160e01b031990921660209283029190910182015260408051606081019091526016546001600160a01b0316815290810160008152610140830151602090910152815180516009908110612074576120746155d7565b60209081029190910101526040805160098082526101408201909252908160200160208202803683375050506101608201819052805163fe1b724560e01b91906000906120c3576120c36155d7565b6001600160e01b0319909216602092830291909101909101526101608101518051630c46f97d60e21b919060019081106120ff576120ff6155d7565b6001600160e01b031990921660209283029190910190910152610160810151805163e606789b60e01b9190600290811061213b5761213b6155d7565b6001600160e01b0319909216602092830291909101909101526101608101518051637431564760e01b91906003908110612177576121776155d7565b6001600160e01b031990921660209283029190910190910152610160810151805163cb5c8d8160e01b919060049081106121b3576121b36155d7565b6001600160e01b03199092166020928302919091019091015261016081015180516359086dc960e01b919060059081106121ef576121ef6155d7565b6001600160e01b031990921660209283029190910190910152610160810151805163027edeab60e21b9190600690811061222b5761222b6155d7565b6001600160e01b031990921660209283029190910190910152610160810151805163fb11e96960e01b91906007908110612267576122676155d7565b6001600160e01b03199092166020928302919091019091015261016081015180516320832e3160e11b919060089081106122a3576122a36155d7565b6001600160e01b031990921660209283029190910182015260408051606081019091526011546001600160a01b031681529081016000815261016083015160209091015281518051600a9081106122fc576122fc6155d7565b60209081029190910101526040805160018082528183019092529081602001602082028036833750505061018082018190528051631a7c95e560e31b9190600090612349576123496155d7565b6001600160e01b031990921660209283029190910182015260408051606081019091526017546001600160a01b031681529081016000815261018083015160209091015281518051600b9081106123a2576123a26155d7565b602090810291909101015260408051600280825260608201909252908160200160208202803683375050506101a082018190528051631bb31e7960e21b91906000906123f0576123f06155d7565b6001600160e01b0319909216602092830291909101909101526101a08101518051631d15efe160e31b9190600190811061242c5761242c6155d7565b6001600160e01b03199092166020928302919091018201526040805160608101909152601e546001600160a01b03168152908101600081526101a083015160209091015281518051600c908110612485576124856155d7565b602090810291909101015260408051600480825260a08201909252908160200160208202803683375050506101c082018190528051632ac9d0b760e21b91906000906124d3576124d36155d7565b6001600160e01b0319909216602092830291909101909101526101c0810151805163208dd1ff60e01b9190600190811061250f5761250f6155d7565b6001600160e01b0319909216602092830291909101909101526101c081015180516319666e6960e31b9190600290811061254b5761254b6155d7565b6001600160e01b0319909216602092830291909101909101526101c0810151805163ac4ab3fb60e01b91906003908110612587576125876155d7565b6001600160e01b031990921660209283029190910182015260408051606081019091526012546001600160a01b03168152908101600081526101c083015160209091015281518051600d9081106125e0576125e06155d7565b602090810291909101015260408051600680825260e08201909252908160200160208202803683375050506101e0820181905280516353e5b30160e11b919060009061262e5761262e6155d7565b6001600160e01b0319909216602092830291909101909101526101e08101518051631822508960e01b9190600190811061266a5761266a6155d7565b6001600160e01b0319909216602092830291909101909101526101e08101518051630edbe45160e21b919060029081106126a6576126a66155d7565b6001600160e01b0319909216602092830291909101909101526101e0810151805163545b6c5560e11b919060039081106126e2576126e26155d7565b6001600160e01b0319909216602092830291909101909101526101e08101518051636990d24560e01b9190600490811061271e5761271e6155d7565b6001600160e01b0319909216602092830291909101909101526101e081015180516313a86f7b60e31b9190600590811061275a5761275a6155d7565b6001600160e01b031990921660209283029190910182015260408051606081019091526013546001600160a01b03168152908101600081526101e083015160209091015281518051600e9081106127b3576127b36155d7565b6020908102919091010152604080516003808252608082019092529081602001602082028036833750505061020082018190528051630324f16d60e61b9190600090612801576128016155d7565b6001600160e01b0319909216602092830291909101909101526102008101518051638e94134760e01b9190600190811061283d5761283d6155d7565b6001600160e01b0319909216602092830291909101909101526102008101518051639fe30b0360e01b91906002908110612879576128796155d7565b6001600160e01b031990921660209283029190910182015260408051606081019091526015546001600160a01b031681529081016000815261020083015160209091015281518051600f9081106128d2576128d26155d7565b60209081029190910101526040805160018082528183019092529081602001602082028036833750505061022082018190528051637bdb02cb60e01b919060009061291f5761291f6155d7565b6001600160e01b03199092166020928302919091018201526040805160608101909152601d546001600160a01b0316815290810160008152610220830151602090910152815180516010908110612978576129786155d7565b602090810291909101015260408051600680825260e08201909252908160200160208202803683375050506102408201819052805163098eae4560e11b91906000906129c6576129c66155d7565b6001600160e01b0319909216602092830291909101909101526102408101518051631b4af8ff60e31b91906001908110612a0257612a026155d7565b6001600160e01b0319909216602092830291909101909101526102408101518051637a09f40d60e11b91906002908110612a3e57612a3e6155d7565b6001600160e01b0319909216602092830291909101909101526102408101518051634bf3dbf960e11b91906003908110612a7a57612a7a6155d7565b6001600160e01b03199092166020928302919091019091015261024081015180516308ba026f60e01b91906004908110612ab657612ab66155d7565b6001600160e01b0319909216602092830291909101909101526102408101518051630fbac97560e11b91906005908110612af257612af26155d7565b6001600160e01b03199092166020928302919091018201526040805160608101909152601b546001600160a01b0316815290810160008152610240830151602090910152815180516011908110612b4b57612b4b6155d7565b602090810291909101015260225481516040516307e4c70760e21b81526001600160a01b0390921691631f931c1c91612b8991600090600401615625565b600060405180830381600087803b158015612ba357600080fd5b505af1158015612bb7573d6000803e3d6000fd5b5050505050565b603854603754604051631add9f0b60e11b81526001600160a01b0391821660048201529116906335bb3e1690602401600060405180830381600087803b158015612c0757600080fd5b505af1158015612c1b573d6000803e3d6000fd5b5050603954603754604051631add9f0b60e11b81526001600160a01b039182166004820152911692506335bb3e169150602401600060405180830381600087803b158015612c6857600080fd5b505af1158015612c7c573d6000803e3d6000fd5b5050603a54603754604051631add9f0b60e11b81526001600160a01b039182166004820152911692506335bb3e1691506024015b600060405180830381600087803b158015612cca57600080fd5b505af1158015612cde573d6000803e3d6000fd5b50505050565b602654604051632ac9d0b760e21b8152306004820152665550475241444560c81b60248201526001600160a01b039091169063ab2742dc90604401600060405180830381600087803b158015612d3957600080fd5b505af1158015612d4d573d6000803e3d6000fd5b5050602654604051632ac9d0b760e21b815230600482015265434f4e46494760d01b60248201526001600160a01b03909116925063ab2742dc9150604401600060405180830381600087803b158015612da557600080fd5b505af1158015612db9573d6000803e3d6000fd5b5050602654604051632ac9d0b760e21b81523060048201526525a2a2a822a960d11b60248201526001600160a01b03909116925063ab2742dc9150604401612cb0565b60408051606080820183526000808352602080840182905292840152825190810183526038546001600160a01b039081168252603a5481169282019283526039548116828501908152602954945163659d67bb60e01b815283518316600482015293518216602485015251811660448401529092169063659d67bb90606401612b89565b60408051608080820183526000808352606060208085018290528486018390529381018290528451808401865282815280850182905280860183905281018290528451808401865267574554485553444360c01b8152855180870187526004808252630f08aa8960e31b82880152828701919091526001546001600160a01b03908116838901819052838501528751958601885267574254435553444360c01b865287518089018952828152637842544360e01b8189015296860196909652600254861685880181905292850192909252602f549551634777232f60e01b815290959394929390921691634777232f91612f7c9187910161576c565b6020604051808303816000875af1158015612f9b573d6000803e3d6000fd5b505050506040513d601f19601f82011682018060405250810190612fbf91906155a7565b602f54604051634777232f60e01b81529192506000916001600160a01b0390911690634777232f90612ff590869060040161576c565b6020604051808303816000875af1158015613014573d6000803e3d6000fd5b505050506040513d601f19601f8201168201806040525081019061303891906155a7565b600680546001600160a01b038086166001600160a01b031992831617909255600780548385169216919091179055602f546040805180820182526004808252631e1554d160e21b6020830152915163751372f960e11b8152949550600094929093169263ea26e5f2926130ae92601291016157c2565b6020604051808303816000875af11580156130cd573d6000803e3d6000fd5b505050506040513d601f19601f820116820180604052508101906130f191906155a7565b600880546001600160a01b0319166001600160a01b03929092169190911790555050505050565b60408051600180825281830190925260009160208083019080368337505060015482519293506001600160a01b03169183915060009061315a5761315a6155d7565b60200260200101906001600160a01b031690816001600160a01b0316815250506131d0604051806101400160405280600081526020016000815260200160008152602001600081526020016000815260200160008152602001600081526020016000815260200160008152602001606081525090565b604051806101400160405280640174876e8081526020016201388081526020016078815260200160968152602001600081526020016000815260200160008152602001600081526020016000815260200183815250905061322f61532b565b506040805180820182526006546001600160a01b0390811682526020820184905260295492516368b5f86b60e01b8152919216906368b5f86b9061327790849060040161582c565b600060405180830381600087803b15801561329157600080fd5b505af11580156132a5573d6000803e3d6000fd5b5060009250600191506132b59050565b6040519080825280602002602001820160405280156132de578160200160208202803683370190505b5060025481519192506001600160a01b0316908290600090613302576133026155d7565b60200260200101906001600160a01b031690816001600160a01b031681525050613378604051806101400160405280600081526020016000815260200160008152602001600081526020016000815260200160008152602001600081526020016000815260200160008152602001606081525090565b604051806101400160405280640174876e808152602001620138808152602001607881526020016096815260200160008152602001600081526020016000815260200160008152602001600081526020018381525093506133d761532b565b506040805180820182526007546001600160a01b0390811682526020820184905260295492516368b5f86b60e01b8152919216906368b5f86b9061341f90849060040161582c565b600060405180830381600087803b15801561343957600080fd5b505af115801561344d573d6000803e3d6000fd5b5050505061349960405180610100016040528060008152602001600081526020016000815260200160008152602001600081526020016000815260200160008152602001600081525090565b604051806101000160405280621e84808152602001620f42408152602001606e8152602001608281526020016a084595161401484a00000081526020016a084595161401484a000000815260200161c350815260200169152d02c7e14af680000081525090506135076153a1565b5060408051808201825267574554485553444360c01b815260208082018481526029548451630ee75e3f60e21b81528451600482015291518051602484015292830151604483015293820151606482015260608201516084820152608082015160a482015260a082015160c482015260c082015160e482015260e09091015161010482015290916001600160a01b031690633b9d78fc9061012401600060405180830381600087803b1580156135bc57600080fd5b505af11580156135d0573d6000803e3d6000fd5b5050505061361c60405180610100016040528060008152602001600081526020016000815260200160008152602001600081526020016000815260200160008152602001600081525090565b604051806101000160405280621e84808152602001620f424081526020016096815260200160aa81526020016a084595161401484a00000081526020016a084595161401484a000000815260200161c350815260200169152d02c7e14af6800000815250905061368a6153a1565b5060408051808201825267574254435553444360c01b815260208082018481526029548451630ee75e3f60e21b81528451600482015291518051602484015292830151604483015293820151606482015260608201516084820152608082015160a482015260a082015160c482015260c082015160e482015260e09091015161010482015290916001600160a01b031690633b9d78fc9061012401600060405180830381600087803b15801561373f57600080fd5b505af1158015613753573d6000803e3d6000fd5b5050505061375f6153fe565b60408051600180825281830190925260009160208083019080368337505060035482519293506001600160a01b0316918391506000906137a1576137a16155d7565b6001600160a01b039290921660209283029190910190910152604080516001808252818301909252600091816020016020820280368337019050509050632540be40816000815181106137f6576137f66155d7565b60200260200101818152505061383b6040518060c001604052806000815260200160008152602001600081526020016000815260200160608152602001606081525090565b506040805160c081018252620138808152600a602080830182905282840191909152600060608301526080820185905260a082018490528251908101835281815260295492516313b8dec760e21b815290955090916001600160a01b031690634ee37b1c906138ae9087906004016158d7565b600060405180830381600087803b1580156138c857600080fd5b505af11580156138dc573d6000803e3d6000fd5b505050505050505050505050505050505050565b61394860405180610120016040528060006001600160a01b0316815260200160008152602001600081526020016000815260200160008152602001600081526020016000815260200160008152602001600081525090565b5060408051610120810182526001546001600160a01b031681526216e3606020820181905281830181905260608201819052608080830182905260a0830182905260c0830182905260e08301829052610100830191909152825160038082529181019093529091600091816020016020820280368337505060035482519293506001600160a01b0316918391506000906139e4576139e46155d7565b6001600160a01b0392831660209182029290920101526001805483519216918391908110613a1457613a146155d7565b6001600160a01b0392831660209182029290920101526002805483519216918391908110613a4457613a446155d7565b6001600160a01b03929092166020928302919091019091015260408051600380825260808201909252600091816020015b613ac660405180610120016040528060001515815260200160008152602001600081526020016000815260200160008152602001600081526020016000815260200160008152602001600081525090565b815260200190600190039081613a7557905050905060405180610120016040528060011515815260200160028152602001620182b88152602001642e90edd000815260200165b5e620f48000815260200164012a05f200815260200164e8d4a510008152602001600a815260200161138881525081600081518110613b4d57613b4d6155d7565b602002602001018190525060405180610120016040528060011515815260200160068152602001620182b8815260200168056bc75e2d63100000815260200169152d02c7e14af68000008152602001670de0b6b3a764000081526020016802b5e3af16b18800008152602001600a815260200161138881525081600181518110613bd957613bd96155d7565b602002602001018190525060405180610120016040528060011515815260200160068152602001620182b88152602001678ac7230489e80000815260200169021e19e0c9bab2400000815260200167016345785d8a00008152602001674563918244f400008152602001600a815260200161138881525081600281518110613c6357613c636155d7565b6020026020010181905250613cee604051806102000160405280606081526020016060815260200160008152602001600081526020016000815260200160008152602001600081526020016000815260200160008152602001600081526020016000815260200160008152602001600081526020016000815260200160008152602001600081525090565b604051806102000160405280848152602001838152602001678ac7230489e8000081526020016201d4c081526020016201d4c081526020016103e881526020016404a817c8008152602001642e90edd0008152602001616978815260200161f61881526020016127108152602001616978815260200161f618815260200160008152602001600081526020016113888152509050613dd8604051806101400160405280600081526020016000815260200160008152602001600081526020016000815260200160008152602001600081526020016000815260200160008152602001600081525090565b6040518061014001604052806101f481526020016113888152602001600b8152602001616978815260200161f6188152602001616978815260200161f618815260200160008152602001614e208152602001621e84808152509050613e3b615442565b506040805160808101825286815260208101849052808201839052600060608201526029549151632544cc2d60e01b815290916001600160a01b031690632544cc2d90613e8c908490600401615ac8565b600060405180830381600087803b158015613ea657600080fd5b505af1158015613eba573d6000803e3d6000fd5b50505050505050505050565b6000546040516001625e79b760e01b03198152600160048201526001600160a01b039091169063ffa18649906024016020604051808303816000875af1158015613f14573d6000803e3d6000fd5b505050506040513d601f19601f82011682018060405250810190613f3891906155a7565b603d80546001600160a01b0319166001600160a01b039283161790556000546040516001625e79b760e01b031981526002600482015291169063ffa18649906024016020604051808303816000875af1158015613f99573d6000803e3d6000fd5b505050506040513d601f19601f82011682018060405250810190613fbd91906155a7565b603e80546001600160a01b0319166001600160a01b039283161790556000546040516001625e79b760e01b031981526003600482015291169063ffa18649906024016020604051808303816000875af115801561401e573d6000803e3d6000fd5b505050506040513d601f19601f8201168201806040525081019061404291906155a7565b603f80546001600160a01b0319166001600160a01b03928316179055600054603d54604080516318caf8e360e31b81529184166004830152602482015260036044820152622137b160e91b606482015291169063c657c71890608401600060405180830381600087803b1580156140b857600080fd5b505af11580156140cc573d6000803e3d6000fd5b5050600054603e54604080516318caf8e360e31b81526001600160a01b03928316600482015260248101919091526005604482015264416c69636560d81b60648201529116925063c657c7189150608401600060405180830381600087803b15801561413757600080fd5b505af115801561414b573d6000803e3d6000fd5b5050600054603f54604080516318caf8e360e31b81526001600160a01b0392831660048083019190915260248201929092526044810191909152634a616b6560e01b60648201529116925063c657c7189150608401600060405180830381600087803b1580156141ba57600080fd5b505af11580156141ce573d6000803e3d6000fd5b50600392506141db915050565b604051908082528060200260200182016040528015614204578160200160208202803683370190505b50805161421991604091602090910190615168565b50603d54604080546001600160a01b039092169160009061423c5761423c6155d7565b600091825260209091200180546001600160a01b0319166001600160a01b03928316179055603e5460408054919092169190600190811061427f5761427f6155d7565b600091825260209091200180546001600160a01b0319166001600160a01b03928316179055603f546040805491909216919060029081106142c2576142c26155d7565b6000918252602082200180546001600160a01b0319166001600160a01b0393909316929092179091555b60405460ff8216101561477f57600060408260ff1681548110614311576143116155d7565b6000918252602082200154905460405163c88a5e6d60e01b81526001600160a01b039283166004820181905268056bc75e2d631000006024830152935091169063c88a5e6d90604401600060405180830381600087803b15801561437457600080fd5b505af1158015614388573d6000803e3d6000fd5b50506003546040805163313ce56760e01b815290516001600160a01b0390921693506340c10f1992508491849163313ce5679160048083019260209291908290030181865afa1580156143df573d6000803e3d6000fd5b505050506040513d601f19601f820116820180604052508101906144039190615be0565b61440e90600a615cff565b61441b90620186a0615d0e565b6040516001600160e01b031960e085901b1681526001600160a01b0390921660048301526024820152604401600060405180830381600087803b15801561446157600080fd5b505af1158015614475573d6000803e3d6000fd5b50506001546040805163313ce56760e01b815290516001600160a01b0390921693506340c10f1992508491849163313ce5679160048083019260209291908290030181865afa1580156144cc573d6000803e3d6000fd5b505050506040513d601f19601f820116820180604052508101906144f09190615be0565b6144fb90600a615cff565b614506906064615d0e565b6040516001600160e01b031960e085901b1681526001600160a01b0390921660048301526024820152604401600060405180830381600087803b15801561454c57600080fd5b505af1158015614560573d6000803e3d6000fd5b50506002546040805163313ce56760e01b815290516001600160a01b0390921693506340c10f1992508491849163313ce5679160048083019260209291908290030181865afa1580156145b7573d6000803e3d6000fd5b505050506040513d601f19601f820116820180604052508101906145db9190615be0565b6145e690600a615cff565b6145f190600a615d0e565b6040516001600160e01b031960e085901b1681526001600160a01b0390921660048301526024820152604401600060405180830381600087803b15801561463757600080fd5b505af115801561464b573d6000803e3d6000fd5b5050505060005b60055460ff8216101561476a5760005460405163ca669fa760e01b81526001600160a01b0384811660048301529091169063ca669fa790602401600060405180830381600087803b1580156146a657600080fd5b505af11580156146ba573d6000803e3d6000fd5b5050505060058160ff16815481106146d4576146d46155d7565b60009182526020909120015460375460405163095ea7b360e01b81526001600160a01b039182166004820152600019602482015291169063095ea7b3906044016020604051808303816000875af1158015614733573d6000803e3d6000fd5b505050506040513d601f19601f8201168201806040525081019061475791906155ed565b508061476281615d25565b915050614652565b5050808061477790615d25565b9150506142ec565b50600360009054906101000a90046001600160a01b03166001600160a01b031663313ce5676040518163ffffffff1660e01b8152600401602060405180830381865afa1580156147d3573d6000803e3d6000fd5b505050506040513d601f19601f820116820180604052508101906147f79190615be0565b61480290600a615cff565b61480f90620186a0615d0e565b600354603d546040516370a0823160e01b81526001600160a01b0391821660048201529116906370a0823190602401602060405180830381865afa15801561485b573d6000803e3d6000fd5b505050506040513d601f19601f8201168201806040525081019061487f9190615d44565b1461488c5761488c61560f565b600360009054906101000a90046001600160a01b03166001600160a01b031663313ce5676040518163ffffffff1660e01b8152600401602060405180830381865afa1580156148df573d6000803e3d6000fd5b505050506040513d601f19601f820116820180604052508101906149039190615be0565b61490e90600a615cff565b61491b90620186a0615d0e565b600354603e546040516370a0823160e01b81526001600160a01b0391821660048201529116906370a0823190602401602060405180830381865afa158015614967573d6000803e3d6000fd5b505050506040513d601f19601f8201168201806040525081019061498b9190615d44565b146149985761499861560f565b600360009054906101000a90046001600160a01b03166001600160a01b031663313ce5676040518163ffffffff1660e01b8152600401602060405180830381865afa1580156149eb573d6000803e3d6000fd5b505050506040513d601f19601f82011682018060405250810190614a0f9190615be0565b614a1a90600a615cff565b614a2790620186a0615d0e565b600354603f546040516370a0823160e01b81526001600160a01b0391821660048201529116906370a0823190602401602060405180830381865afa158015614a73573d6000803e3d6000fd5b505050506040513d601f19601f82011682018060405250810190614a979190615d44565b14614aa457614aa461560f565b600160009054906101000a90046001600160a01b03166001600160a01b031663313ce5676040518163ffffffff1660e01b8152600401602060405180830381865afa158015614af7573d6000803e3d6000fd5b505050506040513d601f19601f82011682018060405250810190614b1b9190615be0565b614b2690600a615cff565b614b31906064615d0e565b600154603d546040516370a0823160e01b81526001600160a01b0391821660048201529116906370a0823190602401602060405180830381865afa158015614b7d573d6000803e3d6000fd5b505050506040513d601f19601f82011682018060405250810190614ba19190615d44565b14614bae57614bae61560f565b600160009054906101000a90046001600160a01b03166001600160a01b031663313ce5676040518163ffffffff1660e01b8152600401602060405180830381865afa158015614c01573d6000803e3d6000fd5b505050506040513d601f19601f82011682018060405250810190614c259190615be0565b614c3090600a615cff565b614c3b906064615d0e565b600154603e546040516370a0823160e01b81526001600160a01b0391821660048201529116906370a0823190602401602060405180830381865afa158015614c87573d6000803e3d6000fd5b505050506040513d601f19601f82011682018060405250810190614cab9190615d44565b14614cb857614cb861560f565b600160009054906101000a90046001600160a01b03166001600160a01b031663313ce5676040518163ffffffff1660e01b8152600401602060405180830381865afa158015614d0b573d6000803e3d6000fd5b505050506040513d601f19601f82011682018060405250810190614d2f9190615be0565b614d3a90600a615cff565b614d45906064615d0e565b600154603f546040516370a0823160e01b81526001600160a01b0391821660048201529116906370a0823190602401602060405180830381865afa158015614d91573d6000803e3d6000fd5b505050506040513d601f19601f82011682018060405250810190614db59190615d44565b14614dc257614dc261560f565b600260009054906101000a90046001600160a01b03166001600160a01b031663313ce5676040518163ffffffff1660e01b8152600401602060405180830381865afa158015614e15573d6000803e3d6000fd5b505050506040513d601f19601f82011682018060405250810190614e399190615be0565b614e4490600a615cff565b614e4f90600a615d0e565b600254603d546040516370a0823160e01b81526001600160a01b0391821660048201529116906370a0823190602401602060405180830381865afa158015614e9b573d6000803e3d6000fd5b505050506040513d601f19601f82011682018060405250810190614ebf9190615d44565b14614ecc57614ecc61560f565b600260009054906101000a90046001600160a01b03166001600160a01b031663313ce5676040518163ffffffff1660e01b8152600401602060405180830381865afa158015614f1f573d6000803e3d6000fd5b505050506040513d601f19601f82011682018060405250810190614f439190615be0565b614f4e90600a615cff565b614f5990600a615d0e565b600254603e546040516370a0823160e01b81526001600160a01b0391821660048201529116906370a0823190602401602060405180830381865afa158015614fa5573d6000803e3d6000fd5b505050506040513d601f19601f82011682018060405250810190614fc99190615d44565b14614fd657614fd661560f565b600260009054906101000a90046001600160a01b03166001600160a01b031663313ce5676040518163ffffffff1660e01b8152600401602060405180830381865afa158015615029573d6000803e3d6000fd5b505050506040513d601f19601f8201168201806040525081019061504d9190615be0565b61505890600a615cff565b61506390600a615d0e565b600254603f546040516370a0823160e01b81526001600160a01b0391821660048201529116906370a0823190602401602060405180830381865afa1580156150af573d6000803e3d6000fd5b505050506040513d601f19601f820116820180604052508101906150d39190615d44565b146150e0576150e061560f565b603d546001600160a01b03163168056bc75e2d63100000146151045761510461560f565b603e546001600160a01b03163168056bc75e2d63100000146151285761512861560f565b603f546001600160a01b03163168056bc75e2d631000001461091f5761091f61560f565b610e4280620113c583390190565b610e37806201220783390190565b8280548282559060005260206000209081019282156151bd579160200282015b828111156151bd57825182546001600160a01b0319166001600160a01b03909116178255602090920191600190910190615188565b506151c9929150615592565b5090565b610ad3806201303e83390190565b610ad38062013b1183390190565b610ad380620145e483390190565b61013b80620150b783390190565b61106780620151f283390190565b611d37806201625983390190565b61101b8062017f9083390190565b610a688062018fab83390190565b6125678062019a1383390190565b613488806201bf7a83390190565b6105b4806201f40283390190565b611fed806201f9b683390190565b61032180620219a383390190565b6108bc8062021cc483390190565b6113cf806202258083390190565b610416806202394f83390190565b6116a08062023d6583390190565b6103d8806202540583390190565b61082d80620257dd83390190565b61022a806202600a83390190565b611364806202623483390190565b6118c6806202759883390190565b6102bd8062028e5e83390190565b611122806202911b83390190565b611b81806202a23d83390190565b604051806040016040528060006001600160a01b0316815260200161539c604051806101400160405280600081526020016000815260200160008152602001600081526020016000815260200160008152602001600081526020016000815260200160008152602001606081525090565b905290565b60405180604001604052806000801916815260200161539c60405180610100016040528060008152602001600081526020016000815260200160008152602001600081526020016000815260200160008152602001600081525090565b604051806020016040528061539c6040518060c001604052806000815260200160008152602001600081526020016000815260200160608152602001606081525090565b60405180608001604052806154a560405180610120016040528060006001600160a01b0316815260200160008152602001600081526020016000815260200160008152602001600081526020016000815260200160008152602001600081525090565b815260200161552a604051806102000160405280606081526020016060815260200160008152602001600081526020016000815260200160008152602001600081526020016000815260200160008152602001600081526020016000815260200160008152602001600081526020016000815260200160008152602001600081525090565b8152602001615585604051806101400160405280600081526020016000815260200160008152602001600081526020016000815260200160008152602001600081526020016000815260200160008152602001600081525090565b8152600060209091015290565b5b808211156151c95760008155600101615593565b6000602082840312156155b957600080fd5b81516001600160a01b03811681146155d057600080fd5b9392505050565b634e487b7160e01b600052603260045260246000fd5b6000602082840312156155ff57600080fd5b815180151581146155d057600080fd5b634e487b7160e01b600052600160045260246000fd5b60006060808301606084528086518083526080925060808601915060808160051b8701016020808a0160005b848110156156f857898403607f19018652815180516001600160a01b0316855283810151898601906003811061569757634e487b7160e01b600052602160045260246000fd5b868601526040918201519186018a905281519081905290840190600090898701905b808310156156e35783516001600160e01b03191682529286019260019290920191908601906156b9565b50978501979550505090820190600101615651565b50506001600160a01b0389168882015250868103604088015260008152602081019998505050505050505050565b6000815180845260005b8181101561574c57602081850181015186830182015201615730565b506000602082860101526020601f19601f83011685010191505092915050565b6020815281516020820152600060208301516080604084015261579260a0840182615726565b60408501516001600160a01b03908116606086810191909152909501519094166080909301929092525090919050565b6040815260006157d56040830185615726565b905060ff831660208301529392505050565b60008151808452602080850194506020840160005b838110156158215781516001600160a01b0316875295820195908201906001016157fc565b509495945050505050565b6020815260018060a01b038251166020820152600060208301516040808401528051606084015260208101516080840152604081015160a0840152606081015160c0840152608081015160e084015260a0810151610100818186015260c08301519150610120828187015260e0840151925061014083818801528285015161016088015281850151945080610180880152505050506158cf6101a08401826157e7565b949350505050565b60006020808352835181828501528051604085015281810151606085015260408101516080850152606081015160a0850152608081015160c0808601526159226101008601826157e7565b60a09290920151858303603f190160e0870152805180845290840192600092508401905b808310156159665783518252928401926001929092019190840190615946565b509695505050505050565b60008151808452602080850194506020840160005b83811015615821578151805115158852838101518489015260408082015190890152606080820151908901526080808201519089015260a0808201519089015260c0808201519089015260e0808201519089015261010090810151908801526101209096019590820190600101615986565b60006102008251818552615a0e828601826157e7565b91505060208301518482036020860152615a288282615971565b60408581015190870152606080860151908701526080808601519087015260a0808601519087015260c0808601519087015260e08086015190870152610100808601519087015261012080860151908701526101408086015190870152610160808601519087015261018080860151908701526101a080860151908701526101c080860151908701526101e0948501519490950193909352509192915050565b602081526000825160018060a01b038151166020840152602081015160408401526040810151606084015260608101516080840152608081015160a084015260a081015160c084015260c081015160e084015260e081015161010081818601528083015161012086015250505060208301516102a080610140850152615b526102c08501836159f8565b60408681015180516101608801526020810151610180880152908101516101a08701526060808201516101c088015260808201516101e088015260a082015161020088015260c082015161022088015260e082015161024088015261010082015161026088015261012090910151610280870152909501516001600160a01b03169301929092525090919050565b600060208284031215615bf257600080fd5b815160ff811681146155d057600080fd5b634e487b7160e01b600052601160045260246000fd5b600181815b80851115615c54578160001904821115615c3a57615c3a615c03565b80851615615c4757918102915b93841c9390800290615c1e565b509250929050565b600082615c6b57506001615cf9565b81615c7857506000615cf9565b8160018114615c8e5760028114615c9857615cb4565b6001915050615cf9565b60ff841115615ca957615ca9615c03565b50506001821b615cf9565b5060208310610133831016604e8410600b8410161715615cd7575081810a615cf9565b615ce18383615c19565b8060001904821115615cf557615cf5615c03565b0290505b92915050565b60006155d060ff841683615c5c565b8082028115828204841417615cf957615cf9615c03565b600060ff821660ff8103615d3b57615d3b615c03565b60010192915050565b600060208284031215615d5657600080fd5b5051919050565b61b6588062005d6d6000396000f3fe608060405234801561001057600080fd5b50600436106101c45760003560e01c80638022b6fd116100f9578063c1a95df211610097578063cc5f182a11610071578063cc5f182a14610399578063ceb78eb514610232578063dd47dacf146103ac578063f93e954b146103bf57600080fd5b8063c1a95df214610360578063c23d2a4a14610373578063c6705df11461038657600080fd5b8063a4e7d977116100d3578063a4e7d977146102fc578063b0bcf4bd14610327578063b412399c1461033a578063bd9e750e1461034d57600080fd5b80638022b6fd1461023257806389d72870146102d65780638e4b6ae7146102e957600080fd5b80634a74bc9b1161016657806367f6fd701161014057806367f6fd701461028a578063683b97271461029d5780636ecd6c01146102b057806373b8bfcc146102c357600080fd5b80634a74bc9b146102515780635039f6ca1461026457806359b3e1ab1461027757600080fd5b80633af68583116101a25780633af68583146101f95780633f086ce71461020c578063463539a41461021f57806347439c541461023257600080fd5b806309228a03146101c95780630b267147146101d357806337112506146101e6575b600080fd5b6101d16103d2565b005b6101d16101e136600461a4a7565b610807565b6101d16101f436600461a51f565b610a2d565b6101d161020736600461a5b5565b610f12565b6101d161021a36600461a621565b61141a565b6101d161022d36600461a63c565b611896565b61023a600881565b60405160ff90911681526020015b60405180910390f35b6101d161025f36600461a621565b611ca5565b6101d161027236600461a6a5565b612121565b6101d161028536600461a6a5565b61267c565b6101d161029836600461a621565b612b82565b6101d16102ab36600461a6a5565b612f72565b6101d16102be36600461a6ef565b6134ff565b6101d16102d136600461a621565b613b78565b6101d16102e436600461a6a5565b613dab565b6101d16102f736600461a7cf565b6142d8565b600b5461030f906001600160a01b031681565b6040516001600160a01b039091168152602001610248565b6101d161033536600461a621565b6146e6565b6101d161034836600461a621565b614ad1565b6101d161035b36600461a621565b614ec4565b6101d161036e36600461a6a5565b6152a7565b600c5461030f906001600160a01b031681565b6101d161039436600461a822565b61589e565b6101d16103a736600461a865565b615b35565b600a5461030f906001600160a01b031681565b6101d16103cd36600461a6a5565b615e75565b60e5546103e19060329061a925565b6000036107f05760005b6040548110156107ee5760405163ca669fa760e01b815230600482015260008051602061b5e28339815191529063ca669fa790602401600060405180830381600087803b15801561043b57600080fd5b505af115801561044f573d6000803e3d6000fd5b5050505060008051602061b5e28339815191526001600160a01b031663c88a5e6d604083815481106104835761048361a939565b60009182526020909120015460405160e083901b6001600160e01b03191681526001600160a01b03909116600482015268056bc75e2d631000006024820152604401600060405180830381600087803b1580156104df57600080fd5b505af11580156104f3573d6000803e3d6000fd5b505060405163ca669fa760e01b815230600482015260008051602061b5e2833981519152925063ca669fa79150602401600060405180830381600087803b15801561053d57600080fd5b505af1158015610551573d6000803e3d6000fd5b5050600154604080546001600160a01b0390921693506340c10f199250908490811061057f5761057f61a939565b60009182526020909120015460405160e083901b6001600160e01b03191681526001600160a01b03909116600482015268056bc75e2d631000006024820152604401600060405180830381600087803b1580156105db57600080fd5b505af11580156105ef573d6000803e3d6000fd5b505060405163ca669fa760e01b815230600482015260008051602061b5e2833981519152925063ca669fa79150602401600060405180830381600087803b15801561063957600080fd5b505af115801561064d573d6000803e3d6000fd5b5050600254604080546001600160a01b0390921693506340c10f199250908490811061067b5761067b61a939565b60009182526020909120015460405160e083901b6001600160e01b03191681526001600160a01b039091166004820152633b9aca006024820152604401600060405180830381600087803b1580156106d257600080fd5b505af11580156106e6573d6000803e3d6000fd5b505060405163ca669fa760e01b815230600482015260008051602061b5e2833981519152925063ca669fa79150602401600060405180830381600087803b15801561073057600080fd5b505af1158015610744573d6000803e3d6000fd5b5050600354604080546001600160a01b0390921693506340c10f19925090849081106107725761077261a939565b60009182526020909120015460405160e083901b6001600160e01b03191681526001600160a01b0390911660048201526402540be4006024820152604401600060405180830381600087803b1580156107ca57600080fd5b505af11580156107de573d6000803e3d6000fd5b5050600190920191506103eb9050565b505b60e580549060006108008361a965565b9190505550565b600061081282616318565b905061081e33826165b1565b60006108408860ff166000600160058054905061083b919061a97e565b61802b565b90506000600582815481106108575761085761a939565b60009182526020822001546040516370a0823160e01b81523360048201526001600160a01b0390911692506108e0906001600160601b038b1690839085906370a08231906024015b602060405180830381865afa1580156108bc573d6000803e3d6000fd5b505050506040513d601f19601f8201168201806040525081019061083b919061a997565b905060008815610915576109006001600160601b0388166000333161802b565b9050809150871561091057600092505b610919565b5060005b6021546040516311f9fbc960e21b81526001600160a01b03858116600483015260248201859052909116906347e7ef249083906044016000604051808303818588803b15801561096857600080fd5b505af19350505050801561097a575060015b15610a2057610989338661807d565b33600090815260f2602090815260408083206001600160a01b0387168452909152812080548492906109bc90849061a9b0565b909155505033600090815260f2602090815260408083206004546001600160a01b03168452909152812080548392906109f690849061a9b0565b92505081905550610a20600160405180606001604052806021815260200161b60260219139619af7565b5050505050505050505050565b6000610a3889616318565b9050610a4433826165b1565b610a4c61a0ba565b6040805161010081018252600080825260208201819052918101829052606081018290526080810182905260a0810182905260c0810182905260e0810191909152610aa88a60ff166000600160098054905061083b919061a97e565b60208301819052600980549091908110610ac457610ac461a939565b60009182526020822001546001600160a01b0316606084018190528252600554610af99160ff8c169161083b9060019061a97e565b808352600580549091908110610b1157610b1161a939565b6000918252602080832091909101546001600160a01b03166080850181905290830181905260408084018b9052516370a0823160e01b8152336004820152610b6e926001600160601b038b169290916370a082319060240161089f565b60c0830181905260608201526001600160601b0386166080820152610b963a6216e36061a9c3565b610ba29061271061a9b0565b60a0820181905260e08084019190915285151560c08301528415801591830191909152610be357610bd6886000333161802b565b60e0830181905260608201525b60275460e083810151604080516353e5b30160e11b815285516001600160a01b039081166004830152602087015181166024830152918601516044820152606086015160648201526080860151608482015260a086015160a482015260c0860151151560c482015292850151151560e48401529092169163a7cb6602916101040160206040518083038185885af193505050508015610c9f575060408051601f3d908101601f19168201909252610c9c9181019061a997565b60015b15610a2057610cae338561807d565b6040805161016081018252338152602080820193845284516001600160a01b0390811683850190815291860151811660608085019182529487015160808086019182529588015160a08087019182529689015160c0808801918252978a015160e0808901918252988b01511515610100808a01918252998c015115156101208a0190815260006101408b0181815260ee805460018101825592529a5160099091027fdb444da68c84f0a9ce08609100b69b8f3d5672687e0ca13fa3c0ac9eb2bde5d281018054928b166001600160a01b03199384161790559c517fdb444da68c84f0a9ce08609100b69b8f3d5672687e0ca13fa3c0ac9eb2bde5d38e015598517fdb444da68c84f0a9ce08609100b69b8f3d5672687e0ca13fa3c0ac9eb2bde5d48d018054918a16918b1691909117905595517fdb444da68c84f0a9ce08609100b69b8f3d5672687e0ca13fa3c0ac9eb2bde5d58c0180549190981698169790971790955591517fdb444da68c84f0a9ce08609100b69b8f3d5672687e0ca13fa3c0ac9eb2bde5d6890155517fdb444da68c84f0a9ce08609100b69b8f3d5672687e0ca13fa3c0ac9eb2bde5d7880155517fdb444da68c84f0a9ce08609100b69b8f3d5672687e0ca13fa3c0ac9eb2bde5d887015590517fdb444da68c84f0a9ce08609100b69b8f3d5672687e0ca13fa3c0ac9eb2bde5d986015590517fdb444da68c84f0a9ce08609100b69b8f3d5672687e0ca13fa3c0ac9eb2bde5da9094018054915192511515620100000262ff00001993151590940261ff00199515159590951661ffff199092169190911793909317161790555050505050505050505050565b6000610f1d87616318565b9050610f2933826165b1565b610f3161a11a565b6040805161010081018252600080825260208201819052918101829052606081018290526080810182905260a0810182905260c0810182905260e0810191909152607154610f8d9060ff88169060009061083b9060019061a97e565b60e08301819052607180549091908110610fa957610fa961a939565b600091825260208083209091015460c085018190528352891515908301528715156040830152610fec906001600160601b0386169061083b621e8480606461a9b0565b610100830181905260808201526005546110149060ff88169060009061083b9060019061a97e565b80835260058054909190811061102c5761102c61a939565b6000918252602080832091909101546001600160a01b0390811691850182815260a085019290925290516040516370a0823160e01b815233600482015261108a936001600160601b038a1693909216906370a082319060240161089f565b60a0830181905260c08201526110a33a6216e36061a9c3565b6110af9061271061a9b0565b60e08201819052606083015286156110e4576110d76001600160601b0386166000333161802b565b60c0820181905260608301525b60255460608381015160408051637431564760e01b815285516004820152602086015115156024820152908501511515604482015291840151151560648301526080840151608483015260a08401516001600160a01b0390811660a484015260c085015160c484015260e085015160e4840152909216916374315647916101040160206040518083038185885af1935050505080156111a0575060408051601f3d908101601f1916820190925261119d9181019061a997565b60015b1561140f576111af338561807d565b6040805161016081018252338152602080820193845284518284019081529085015115156060808401918252938601511515608080850191825294870151151560a08086019182529588015160c0808701918252968901516001600160a01b0390811660e0808901918252988b0151610100808a01918252998c01516101208a0190815260006101408b0181815260eb805460018101825592529a5160099091027f0446c598f3355ed7d8a3b7e0b99f9299d15e956a97faae081a0b49d17024abd2810180549287166001600160a01b03199384161790559c517f0446c598f3355ed7d8a3b7e0b99f9299d15e956a97faae081a0b49d17024abd38e015598517f0446c598f3355ed7d8a3b7e0b99f9299d15e956a97faae081a0b49d17024abd48d015596517f0446c598f3355ed7d8a3b7e0b99f9299d15e956a97faae081a0b49d17024abd58c018054975196511515620100000262ff000019971515909c0261ff00199215159290921661ffff1990981697909717179490941698909817909355517f0446c598f3355ed7d8a3b7e0b99f9299d15e956a97faae081a0b49d17024abd688015594517f0446c598f3355ed7d8a3b7e0b99f9299d15e956a97faae081a0b49d17024abd7870180549190921693169290921790915591517f0446c598f3355ed7d8a3b7e0b99f9299d15e956a97faae081a0b49d17024abd884015590517f0446c598f3355ed7d8a3b7e0b99f9299d15e956a97faae081a0b49d17024abd9830155517f0446c598f3355ed7d8a3b7e0b99f9299d15e956a97faae081a0b49d17024abda909101805491151560ff19929092169190911790555b505050505050505050565b600061142582616318565b905061142f61a172565b60008060005b60eb548110156116755760eb8054829081106114535761145361a939565b60009182526020918290206040805161016081018252600990930290910180546001600160a01b039081168085526001830154958501869052600283015493850193909352600382015460ff80821615156060870152610100808304821615156080880152620100009092048116151560a0870152600484015460c0870152600584015490921660e086015260068301549085015260078201546101208501526008909101541615156101408301529095509350915061151383866165b1565b83610140015161166d57603b5460405163ca669fa760e01b81526001600160a01b03909116600482015260008051602061b5e28339815191529063ca669fa790602401600060405180830381600087803b15801561157057600080fd5b505af1158015611584573d6000803e3d6000fd5b505060255460405163cb5c8d8160e01b81526001600160a01b03909116925063cb5c8d8191506115ba908590899060040161aa42565b600060405180830381600087803b1580156115d457600080fd5b505af19250505080156115e5575060015b61162857600160e660050182815481106116015761160161a939565b60009182526020909120600990910201600801805460ff191691151591909117905561166d565b611632838661807d565b600160e6600501828154811061164a5761164a61a939565b60009182526020909120600990910201600801805460ff19169115159190911790555b600101611435565b5060005b60eb5481101561188e5760eb8054829081106116975761169761a939565b600091825260209091206008600990920201015460ff161561187c5760eb80546116c39060019061a97e565b815481106116d3576116d361a939565b906000526020600020906009020160e660050182815481106116f7576116f761a939565b60009182526020909120825460099092020180546001600160a01b03199081166001600160a01b03938416178255600180850154908301556002808501549083015560038085018054918401805460ff938416151560ff1980831682178455845461010090819004871615150261ff001990921661ffff19909316929092171780835592546201000090819004851615150262ff00001990931692909217905560048087015490850155600580870154908501805490941695169490941790915560068085015490830155600780850154908301556008938401549390910180549390911615159290911691909117905560eb8054806117f9576117f961aa63565b60008281526020812060096000199093019283020180546001600160a01b03199081168255600182018390556002820183905560038201805462ffffff19169055600482018390556005820180549091169055600681018290556007810191909155600801805460ff191690559055801561187c57806118788161aa79565b9150505b806118868161a965565b915050611679565b505050505050565b60006118a186616318565b90506118ad33826165b1565b6118b561a11a565b6040805160c081018252600080825260208201819052918101829052606081018290526080810182905260a08101919091526070546119029060ff87169060009061083b9060019061a97e565b6080830181905260708054909190811061191e5761191e61a939565b600091825260208083209091015483528815159083015286151560408301526005546119559160ff88169161083b9060019061a97e565b80835260058054909190811061196d5761196d61a939565b6000918252602080832091909101546001600160a01b03908116918501828152606085019290925290516040516370a0823160e01b81523360048201526119cb936001600160601b03891693909216906370a082319060240161089f565b6040830181905260808201526119e43a6216e36061a9c3565b6119f09061271061a9b0565b60a0820181905260608301528515611a2557611a186001600160601b0385166000333161802b565b6080820181905260608301525b6025546060838101516040805163fe1b724560e01b8152855160048201526020860151151560248201529085015115156044820152918401516001600160a01b0390811660648401526080850151608484015260a085015160a48401529092169163fe1b72459160c40160206040518083038185885af193505050508015611aca575060408051601f3d908101601f19168201909252611ac79181019061a997565b60015b15611c9b57611ad9338561807d565b6040805161010080820183523382526020808301948552608087810151848601908152918701511515606085019081529487015115158185019081529087015160a080860191825288015160c08601908152600060e0870181815260ea8054600181018255925296517f61c831beab28d67d1bb40b5ae1a11e2757fa842f031a2d0bc94a7867bc5d26c2600790920291820180546001600160a01b0319166001600160a01b0390921691909117905597517f61c831beab28d67d1bb40b5ae1a11e2757fa842f031a2d0bc94a7867bc5d26c389015592517f61c831beab28d67d1bb40b5ae1a11e2757fa842f031a2d0bc94a7867bc5d26c488015594517f61c831beab28d67d1bb40b5ae1a11e2757fa842f031a2d0bc94a7867bc5d26c587018054925161ffff1990931691151561ff001916919091179115159093021790915591517f61c831beab28d67d1bb40b5ae1a11e2757fa842f031a2d0bc94a7867bc5d26c684015590517f61c831beab28d67d1bb40b5ae1a11e2757fa842f031a2d0bc94a7867bc5d26c7830155517f61c831beab28d67d1bb40b5ae1a11e2757fa842f031a2d0bc94a7867bc5d26c8909101805460ff19169115159190911790555b5050505050505050565b6000611cb082616318565b9050611cba61a172565b60008060005b60ee54811015611f085760ee805482908110611cde57611cde61a939565b60009182526020918290206040805161016081018252600990930290910180546001600160a01b0390811680855260018301549585018690526002830154821693850193909352600382015416606084015260048101546080840152600581015460a0840152600681015460c0840152600781015460e08401526008015460ff8082161515610100808601919091528204811615156101208501526201000090910416151561014083015290955093509150611d9a83866165b1565b836101400151611f0057603b5460405163ca669fa760e01b81526001600160a01b03909116600482015260008051602061b5e28339815191529063ca669fa790602401600060405180830381600087803b158015611df757600080fd5b505af1158015611e0b573d6000803e3d6000fd5b5050602754604051631822508960e01b81526001600160a01b03909116925063182250899150611e41908590899060040161aa42565b600060405180830381600087803b158015611e5b57600080fd5b505af1925050508015611e6c575060015b611eb557600160e66008018281548110611e8857611e8861a939565b906000526020600020906009020160080160026101000a81548160ff021916908315150217905550611f00565b611ebf838661807d565b600160e66008018281548110611ed757611ed761a939565b906000526020600020906009020160080160026101000a81548160ff0219169083151502179055505b600101611cc0565b5060005b60ee5481101561188e5760ee805482908110611f2a57611f2a61a939565b906000526020600020906009020160080160029054906101000a900460ff161561210f5760ee8054611f5e9060019061a97e565b81548110611f6e57611f6e61a939565b906000526020600020906009020160e66008018281548110611f9257611f9261a939565b60009182526020909120825460099092020180546001600160a01b03199081166001600160a01b0393841617825560018085015490830155600280850154908301805483169185169190911790556003808501549083018054909216931692909217909155600480830154908201556005808301549082015560068083015490820155600780830154908201556008918201805492909101805460ff938416151560ff19821681178355835461010090819004861615150261ff001990911661ffff19909216919091171780825591546201000090819004909316151590920262ff00001990911617905560ee80548061208e5761208e61aa63565b60008281526020812060096000199093019283020180546001600160a01b03199081168255600182018390556002820180548216905560038201805490911690556004810182905560058101829055600681018290556007810191909155600801805462ffffff191690559055801561210f578061210b8161aa79565b9150505b806121198161a965565b915050611f0c565b600061212c82616318565b905061213833826165b1565b60f05460009081805b8281101561218e5760f080548290811061215d5761215d61a939565b600091825260209091206007600890920201015460ff1661218657816121828161a965565b9250505b600101612141565b506000816001600160401b038111156121a9576121a961aa90565b6040519080825280602002602001820160405280156121e257816020015b6121cf61a1ce565b8152602001906001900390816121c75790505b5090506000805b848110156122ec5760f08054829081106122055761220561a939565b600091825260209091206007600890920201015460ff166122e45760f08054829081106122345761223461a939565b60009182526020918290206040805161010081018252600890930290910180546001600160a01b03908116845260018201549484019490945260028101548416918301919091526003810154909216606082015260048201546080820152600582015460a0820152600682015460c082015260079091015460ff16151560e082015283518490849081106122ca576122ca61a939565b602002602001018190525081806122e09061a965565b9250505b6001016121e9565b5060006123068960ff1660006001865161083b919061a97e565b9050600083828151811061231c5761231c61a939565b60209081029190910181015190810151603b5460405163ca669fa760e01b81526001600160a01b03909116600482015290985090915060008051602061b5e28339815191529063ca669fa790602401600060405180830381600087803b15801561238557600080fd5b505af1158015612399573d6000803e3d6000fd5b50506027546040516313a86f7b60e31b8152600481018b9052600060248201526001600160a01b039091169250639d437bd89150604401600060405180830381600087803b1580156123ea57600080fd5b505af19250505080156123fb575060015b156126705761240a338961807d565b604080516101008101825282516001600160a01b039081168252602082018a8152848401518216938301938452606080860151831690840190815260808087015190850190815260a08088015190860190815260c080890151908701908152600060e0880181815260f18054600181018255908352895160089091027fc29b39917e4e60f0fee5b6871b30a38e50531d76d1b0837811bd6351b34854ec81018054928b166001600160a01b031993841617905597517fc29b39917e4e60f0fee5b6871b30a38e50531d76d1b0837811bd6351b34854ed89015599517fc29b39917e4e60f0fee5b6871b30a38e50531d76d1b0837811bd6351b34854ee88018054918a16918c1691909117905594517fc29b39917e4e60f0fee5b6871b30a38e50531d76d1b0837811bd6351b34854ef870180549190981699169890981790955590517fc29b39917e4e60f0fee5b6871b30a38e50531d76d1b0837811bd6351b34854f0840155517fc29b39917e4e60f0fee5b6871b30a38e50531d76d1b0837811bd6351b34854f183015591517fc29b39917e4e60f0fee5b6871b30a38e50531d76d1b0837811bd6351b34854f282015590517fc29b39917e4e60f0fee5b6871b30a38e50531d76d1b0837811bd6351b34854f3909101805491151560ff19909216919091179055905b8781101561266d578860e6600a0182815481106126135761261361a939565b9060005260206000209060080201600101540361266557600160e6600a0182815481106126425761264261a939565b60009182526020909120600890910201600701805460ff19169115159190911790555b6001016125f4565b50505b50505050505050505050565b600061268782616318565b905061269333826165b1565b60e85460009081805b828110156126e95760e88054829081106126b8576126b861a939565b600091825260209091206005600690920201015460ff166126e157816126dd8161a965565b9250505b60010161269c565b506000816001600160401b038111156127045761270461aa90565b60405190808252806020026020018201604052801561273d57816020015b61272a61a230565b8152602001906001900390816127225790505b5090506000805b848110156128415760e88054829081106127605761276061a939565b600091825260209091206005600690920201015460ff166128395760e880548290811061278f5761278f61a939565b60009182526020918290206040805160e081018252600690930290910180546001600160a01b039081168452600182015494840194909452600281015460ff8082161515938501939093526101009004909316606083015260038301546080830152600483015460a0830152600590920154909116151560c0820152835184908490811061281f5761281f61a939565b602002602001018190525081806128359061a965565b9250505b600101612744565b50600061285b8960ff1660006001865161083b919061a97e565b905060008382815181106128715761287161a939565b60209081029190910181015190810151603b5460405163ca669fa760e01b81526001600160a01b03909116600482015290985090915060008051602061b5e28339815191529063ca669fa790602401600060405180830381600087803b1580156128da57600080fd5b505af11580156128ee573d6000803e3d6000fd5b5050602480546040516305b47d8160e51b8152600481018c90526000928101929092526001600160a01b0316925063b68fb0209150604401600060405180830381600087803b15801561294057600080fd5b505af1925050508015612951575060015b1561267057612960338961807d565b6040805160e08101825282516001600160a01b039081168252602082018a8152848401511515938301938452606080860151831690840190815260808087015190850190815260a080880151908601908152600060c0870181815260e9805460018101825590835288517fea6426b4b8d70caa8ece9a88fb0a9d4a6b817bb4a43ac6fbef64cb0e589129ee600690920291820180546001600160a01b031916918a1691909117905595517fea6426b4b8d70caa8ece9a88fb0a9d4a6b817bb4a43ac6fbef64cb0e589129ef87015597517fea6426b4b8d70caa8ece9a88fb0a9d4a6b817bb4a43ac6fbef64cb0e589129f08601805495516001600160a81b0319909616911515610100600160a81b03191691909117610100959097169490940295909517909255517fea6426b4b8d70caa8ece9a88fb0a9d4a6b817bb4a43ac6fbef64cb0e589129f1830155517fea6426b4b8d70caa8ece9a88fb0a9d4a6b817bb4a43ac6fbef64cb0e589129f282015592517fea6426b4b8d70caa8ece9a88fb0a9d4a6b817bb4a43ac6fbef64cb0e589129f3909301805460ff191693151593909317909255905b8781101561266d578860e66002018281548110612b2857612b2861a939565b90600052602060002090600602016001015403612b7a57600160e66002018281548110612b5757612b5761a939565b60009182526020909120600690910201600501805460ff19169115159190911790555b600101612b09565b6000612b8d82616318565b9050612bc06040805160a08101825260008082526020820181905291810182905260608101829052608081019190915290565b60008060008060005b60e654811015612dfb5760e6805482908110612be757612be761a939565b60009182526020918290206040805160a081018252600590930290910180546001600160a01b039081168085526001830154958501869052600283015490911692840183905260038201546060850181905260049092015460ff16151560808501529299509197509195509093509150612c6185886165b1565b8560800151612df357603b5460405163ca669fa760e01b81526001600160a01b03909116600482015260008051602061b5e28339815191529063ca669fa790602401600060405180830381600087803b158015612cbd57600080fd5b505af1158015612cd1573d6000803e3d6000fd5b50506021546040516302e9d19960e01b81526001600160a01b0390911692506302e9d1999150612d079087908b9060040161aa42565b600060405180830381600087803b158015612d2157600080fd5b505af1925050508015612d32575060015b612d7557600160e66000018281548110612d4e57612d4e61a939565b60009182526020909120600590910201600401805460ff1916911515919091179055612df3565b612d7f858861807d565b600160e66000018281548110612d9757612d9761a939565b60009182526020808320600592909202909101600401805460ff1916931515939093179092556001600160a01b03878116825260f383526040808320918716835292529081208054849290612ded90849061a9b0565b90915550505b600101612bc9565b5060005b60e654811015611c9b5760e6805482908110612e1d57612e1d61a939565b600091825260209091206004600590920201015460ff1615612f605760e68054612e499060019061a97e565b81548110612e5957612e5961a939565b906000526020600020906005020160e66000018281548110612e7d57612e7d61a939565b60009182526020909120825460059092020180546001600160a01b039283166001600160a01b031991821617825560018085015490830155600280850154908301805491909416911617909155600380830154908201556004918201549101805460ff191660ff909216151591909117905560e6805480612f0057612f0061aa63565b60008281526020812060056000199093019283020180546001600160a01b031990811682556001820183905560028201805490911690556003810191909155600401805460ff1916905590558015612f605780612f5c8161aa79565b9150505b80612f6a8161a965565b915050612dff565b6000612f7d82616318565b9050612f8933826165b1565b60ee5460009081805b82811015612fe75760ee805482908110612fae57612fae61a939565b906000526020600020906009020160080160029054906101000a900460ff16612fdf5781612fdb8161a965565b9250505b600101612f92565b506000816001600160401b038111156130025761300261aa90565b60405190808252806020026020018201604052801561303b57816020015b61302861a172565b8152602001906001900390816130205790505b5090506000805b8481101561317a5760ee80548290811061305e5761305e61a939565b906000526020600020906009020160080160029054906101000a900460ff166131725760ee8054829081106130955761309561a939565b60009182526020918290206040805161016081018252600990930290910180546001600160a01b03908116845260018201549484019490945260028101548416918301919091526003810154909216606082015260048201546080820152600582015460a0820152600682015460c0820152600782015460e082015260089091015460ff8082161515610100808501919091528204811615156101208401526201000090910416151561014082015283518490849081106131585761315861a939565b6020026020010181905250818061316e9061a965565b9250505b600101613042565b5060006131948960ff1660006001865161083b919061a97e565b905060008382815181106131aa576131aa61a939565b60209081029190910181015190810151603b5460405163ca669fa760e01b81526001600160a01b03909116600482015290985090915060008051602061b5e28339815191529063ca669fa790602401600060405180830381600087803b15801561321357600080fd5b505af1158015613227573d6000803e3d6000fd5b5050602754604051630edbe45160e21b8152600481018b9052600060248201526001600160a01b039091169250633b6f91449150604401600060405180830381600087803b15801561327857600080fd5b505af1925050508015613289575060015b1561267057613298338961807d565b600060405180610160016040528083600001516001600160a01b0316815260200189815260200183604001516001600160a01b0316815260200183606001516001600160a01b03168152602001836080015181526020018360a0015181526020018360c0015181526020018360e001518152602001836101000151151581526020018361012001511515815260200160001515815250905060e660090181908060018154018082558091505060019003906000526020600020906009020160009091909190915060008201518160000160006101000a8154816001600160a01b0302191690836001600160a01b031602179055506020820151816001015560408201518160020160006101000a8154816001600160a01b0302191690836001600160a01b0316021790555060608201518160030160006101000a8154816001600160a01b0302191690836001600160a01b031602179055506080820151816004015560a0820151816005015560c0820151816006015560e082015181600701556101008201518160080160006101000a81548160ff0219169083151502179055506101208201518160080160016101000a81548160ff0219169083151502179055506101408201518160080160026101000a81548160ff021916908315150217905550505060005b8781101561266d578860e6600801828154811061349f5761349f61a939565b906000526020600020906009020160010154036134f757600160e660080182815481106134ce576134ce61a939565b906000526020600020906009020160080160026101000a81548160ff0219169083151502179055505b600101613480565b600061350a8d616318565b905061351633826165b1565b61351e61a26c565b61352661a2cf565b8d151560208201528c1515604082015261354660ff8d166000600261802b565b808352600003613572576060810160005b9081600281111561356a5761356a61aaa6565b90525061358e565b815160010361358657606081016001613557565b600260608201525b60006135a08c60ff166000600261802b565b9050806000036135cc576080820160005b908160028111156135c4576135c461aaa6565b9052506135e7565b806001036135df576080820160016135b1565b600260808301525b6135f78b60ff166000600361802b565b602084018190526000036136275760a0820160005b9081600381111561361f5761361f61aaa6565b90525061365d565b826020015160010361363e5760a08201600161360c565b82602001516002036136555760a08201600261360c565b600360a08301525b61366d8a60ff166000600261802b565b6040840181905260000361369d5760c0820160005b908160028111156136955761369561aaa6565b9052506136bc565b82604001516001036136b45760c082016001613682565b600260c08301525b6136cc8960ff166000600261802b565b606084018190526005805490919081106136e8576136e861a939565b6000918252602090912001546001600160a01b039081166080850181905260e08401819052600154909116900361372c5767574554485553444360c01b8252613768565b60025460e08301516001600160a01b039182169116036137595767574254435553444360c01b8252613768565b67574554485553444360c01b82525b60005b845181101561381e578260e001516001600160a01b03168582815181106137945761379461a939565b6020026020010151600001516001600160a01b0316036138165761380f866001600160401b031660058784815181106137cf576137cf61a939565b6020026020010151606001516137e5919061aabc565b8784815181106137f7576137f761a939565b602002602001015160600151600a61083b919061a9c3565b6101608401525b60010161376b565b5061016082015161018083015260808301516040516370a0823160e01b815233600482015261386d916001600160601b038a16916000916001600160a01b0316906370a082319060240161089f565b60a08401526138886001600160601b0388166000333161802b565b60c084015260a0830151610120830152609154608d546089546138d2926001600160601b038c16926000926138bd919061a9b0565b6138c7919061a9b0565b61083b90606461a9c3565b6101008301526138f56001600160601b038716600061083b621e8480600261a9c3565b6101408301526139083a6216e36061a9c3565b6139149061271061a9b0565b6101a08301819052426101c084015260e08401526040820151156139455760c083015160e084018190526101208301525b60245460e08401516040516325829b0560e11b81526001600160a01b0390921691634b05360a919061397b90869060040161abd5565b60206040518083038185885af1935050505080156139b6575060408051601f3d908101601f191682019092526139b39181019061a997565b60015b15613b66576139c5338661807d565b6040805160e08082018352338252602082019384528583015115159282019283528501516001600160a01b0390811660608301908152610120870151608084019081526101a088015160a08501908152600060c0860181815260e88054600181018255925295517f53c8da29bfa275271df3f270296d5a7d61b57f8848c89b3f65f49e21340b7592600690920291820180546001600160a01b03191691871691909117905596517f53c8da29bfa275271df3f270296d5a7d61b57f8848c89b3f65f49e21340b759388015594517f53c8da29bfa275271df3f270296d5a7d61b57f8848c89b3f65f49e21340b75948701805493516001600160a81b0319909416911515610100600160a81b03191691909117929093166101000291909117909155517f53c8da29bfa275271df3f270296d5a7d61b57f8848c89b3f65f49e21340b759584015590517f53c8da29bfa275271df3f270296d5a7d61b57f8848c89b3f65f49e21340b7596830155517f53c8da29bfa275271df3f270296d5a7d61b57f8848c89b3f65f49e21340b7597909101805460ff19169115159190911790555b50505050505050505050505050505050565b6000613b8382616318565b905060005b604054811015613c1757613bc360408281548110613ba857613ba861a939565b6000918252602090912001546001600160a01b0316836165b1565b60005b607054811015613c0e576070805460f4919083908110613be857613be861a939565b600091825260208083209091015483546001818101865594845291909220015501613bc6565b50600101613b88565b5060f4546000906001600160401b03811115613c3557613c3561aa90565b604051908082528060200260200182016040528015613c5e578160200160208202803683370190505b50905060005b60f454811015613cb25760f4805482908110613c8257613c8261a939565b9060005260206000200154828281518110613c9f57613c9f61a939565b6020908102919091010152600101613c64565b506040805160008152602081019182905251613cd09160f49161a34e565b50603b5460405163ca669fa760e01b81526001600160a01b03909116600482015260008051602061b5e28339815191529063ca669fa790602401600060405180830381600087803b158015613d2457600080fd5b505af1158015613d38573d6000803e3d6000fd5b505060255460405163027edeab60e21b81526001600160a01b0390911692506309fb7aac9150613d6c90849060040161abe4565b600060405180830381600087803b158015613d8657600080fd5b505af1925050508015613d97575060015b15613da657613da6338361807d565b505050565b6000613db682616318565b9050613dc233826165b1565b60ea5460009081805b82811015613e185760ea805482908110613de757613de761a939565b600091825260209091206006600790920201015460ff16613e105781613e0c8161a965565b9250505b600101613dcb565b506000816001600160401b03811115613e3357613e3361aa90565b604051908082528060200260200182016040528015613e6c57816020015b613e5961a399565b815260200190600190039081613e515790505b5090506000805b84811015613f745760ea805482908110613e8f57613e8f61a939565b600091825260209091206006600790920201015460ff16613f6c5760ea805482908110613ebe57613ebe61a939565b6000918252602091829020604080516101008082018352600790940290920180546001600160a01b03168352600181015494830194909452600284015490820152600383015460ff80821615156060840152929004821615156080820152600483015460a0820152600583015460c082015260069092015416151560e08201528351849084908110613f5257613f5261a939565b60200260200101819052508180613f689061a965565b9250505b600101613e73565b506000613f8e8960ff1660006001865161083b919061a97e565b90506000838281518110613fa457613fa461a939565b60209081029190910181015190810151603b5460405163ca669fa760e01b81526001600160a01b03909116600482015290985090915060008051602061b5e28339815191529063ca669fa790602401600060405180830381600087803b15801561400d57600080fd5b505af1158015614021573d6000803e3d6000fd5b505060255460405163e606789b60e01b8152600481018b9052600060248201526001600160a01b03909116925063e606789b9150604401600060405180830381600087803b15801561407257600080fd5b505af1925050508015614083575060015b1561267057614092338961807d565b60408051610100808201835283516001600160a01b039081168352602083018b8152858501519484019485526060808701511515908501908152608080880151151590860190815260a08089015190870190815260c0808a0151908801908152600060e0890181815260ec80546001810182559083528a517fe7dfac380f4a6ed3a03e62f813161eff828766fa014393558e075e9ceb77d549600790920291820180546001600160a01b03191691909a161790985595517fe7dfac380f4a6ed3a03e62f813161eff828766fa014393558e075e9ceb77d54a88015598517fe7dfac380f4a6ed3a03e62f813161eff828766fa014393558e075e9ceb77d54b87015592517fe7dfac380f4a6ed3a03e62f813161eff828766fa014393558e075e9ceb77d54c86018054935161ffff1990941691151561ff001916919091179215159096029190911790945592517fe7dfac380f4a6ed3a03e62f813161eff828766fa014393558e075e9ceb77d54d83015591517fe7dfac380f4a6ed3a03e62f813161eff828766fa014393558e075e9ceb77d54e82015590517fe7dfac380f4a6ed3a03e62f813161eff828766fa014393558e075e9ceb77d54f909101805460ff1916911515919091179055905b8781101561266d578860e6600401828154811061427e5761427e61a939565b906000526020600020906007020160010154036142d057600160e660040182815481106142ad576142ad61a939565b60009182526020909120600790910201600601805460ff19169115159190911790555b60010161425f565b60006142e387616318565b90506142ef33826165b1565b6142f761a0ba565b6040805160c081018252600060208201819052918101829052606081018290526080810182905260a0810182905233815260095490916143439160ff8b16919061083b9060019061a97e565b6020830181905260098054909190811061435f5761435f61a939565b60009182526020808320909101546001600160a01b031660608501819052908301526005546143999160ff8a169161083b9060019061a97e565b604083018190526005805490919081106143b5576143b561a939565b6000918252602080832091909101546001600160a01b0390811660a086018190526040858101919091529184015191516370a0823160e01b8152336004820152614416936001600160601b038a1693909216906370a082319060240161089f565b60608201526001600160601b03841660808201526144373a6216e36061a9c3565b6144439061271061a9b0565b60a0820181815260e084018290526027546040805163545b6c5560e11b815285516001600160a01b03908116600483015260208701518116602483015291860151821660448201526060860151606482015260808601516084820152925160a4840152169163a8b6d8aa9160c40160206040518083038185885af1935050505080156144ec575060408051601f3d908101601f191682019092526144e99181019061a997565b60015b1561140f576144fb338561807d565b604080516101008101825233815260208082019384528401516001600160a01b039081168284019081529285015181166060808401918252860151608080850191825287015160a080860191825288015160c08601908152600060e0870181815260f080546001810182559252965160089091027f681483e2251cd5e2885507bb09f76bed3b99d3c377dd48396177647bfb4aafda810180549288166001600160a01b031993841617905598517f681483e2251cd5e2885507bb09f76bed3b99d3c377dd48396177647bfb4aafdb8a015596517f681483e2251cd5e2885507bb09f76bed3b99d3c377dd48396177647bfb4aafdc8901805491871691891691909117905592517f681483e2251cd5e2885507bb09f76bed3b99d3c377dd48396177647bfb4aafdd880180549190951696169590951790925590517f681483e2251cd5e2885507bb09f76bed3b99d3c377dd48396177647bfb4aafde85015591517f681483e2251cd5e2885507bb09f76bed3b99d3c377dd48396177647bfb4aafdf84015590517f681483e2251cd5e2885507bb09f76bed3b99d3c377dd48396177647bfb4aafe0830155517f681483e2251cd5e2885507bb09f76bed3b99d3c377dd48396177647bfb4aafe1909101805491151560ff19909216919091179055505050505050505050565b60006146f182616318565b90506146fb61a230565b60008060005b60e85481101561490d5760e880548290811061471f5761471f61a939565b60009182526020918290206040805160e081018252600690930290910180546001600160a01b039081168085526001830154958501869052600283015460ff8082161515958701959095526101009004909116606085015260038201546080850152600482015460a0850152600590910154909116151560c0830152909550935091506147ac83866165b1565b8360c0015161490557603b5460405163ca669fa760e01b81526001600160a01b03909116600482015260008051602061b5e28339815191529063ca669fa790602401600060405180830381600087803b15801561480857600080fd5b505af115801561481c573d6000803e3d6000fd5b50506024546040516322dabfa560e01b81526001600160a01b0390911692506322dabfa59150614852908590899060040161aa42565b600060405180830381600087803b15801561486c57600080fd5b505af192505050801561487d575060015b6148c057600160e660020182815481106148995761489961a939565b60009182526020909120600690910201600501805460ff1916911515919091179055614905565b6148ca838661807d565b600160e660020182815481106148e2576148e261a939565b60009182526020909120600690910201600501805460ff19169115159190911790555b600101614701565b5060005b60e85481101561188e5760e880548290811061492f5761492f61a939565b600091825260209091206005600690920201015460ff1615614abf5760e8805461495b9060019061a97e565b8154811061496b5761496b61a939565b906000526020600020906006020160e6600201828154811061498f5761498f61a939565b60009182526020909120825460069092020180546001600160a01b0319166001600160a01b039283161781556001808401549082015560028084018054918301805460ff938416151560ff1980831682178455935461010090819004909716909602610100600160a81b03199096166001600160a81b0319909116179490941790935560038085015490830155600480850154908301556005938401549390910180549390911615159290911691909117905560e8805480614a5357614a5361aa63565b60008281526020812060066000199093019283020180546001600160a01b0319168155600181018290556002810180546001600160a81b0319169055600381018290556004810191909155600501805460ff1916905590558015614abf5780614abb8161aa79565b9150505b80614ac98161a965565b915050614911565b6000614adc82616318565b9050614ae661a399565b60008060005b60ea54811015614cfe5760ea805482908110614b0a57614b0a61a939565b6000918252602091829020604080516101008082018352600790940290920180546001600160a01b03168084526001820154958401869052600282015492840192909252600381015460ff80821615156060860152949004841615156080840152600481015460a0840152600581015460c084015260060154909216151560e0820152955093509150614b9d83866165b1565b8360e00151614cf657603b5460405163ca669fa760e01b81526001600160a01b03909116600482015260008051602061b5e28339815191529063ca669fa790602401600060405180830381600087803b158015614bf957600080fd5b505af1158015614c0d573d6000803e3d6000fd5b5050602554604051630c46f97d60e21b81526001600160a01b03909116925063311be5f49150614c43908590899060040161aa42565b600060405180830381600087803b158015614c5d57600080fd5b505af1925050508015614c6e575060015b614cb157600160e66004018281548110614c8a57614c8a61a939565b60009182526020909120600790910201600601805460ff1916911515919091179055614cf6565b614cbb838661807d565b600160e66004018281548110614cd357614cd361a939565b60009182526020909120600790910201600601805460ff19169115159190911790555b600101614aec565b5060005b60ea5481101561188e5760ea805482908110614d2057614d2061a939565b600091825260209091206006600790920201015460ff1615614eb25760ea8054614d4c9060019061a97e565b81548110614d5c57614d5c61a939565b906000526020600020906007020160e66004018281548110614d8057614d8061a939565b60009182526020909120825460079092020180546001600160a01b0319166001600160a01b03909216919091178155600180830154908201556002808301549082015560038083018054918301805460ff938416151560ff1980831682178455935461010090819004861615150261ff001990911661ffff199092169190911717905560048085015490840155600580850154908401556006938401549390920180549390911615159290911691909117905560ea805480614e4457614e4461aa63565b60008281526020812060076000199093019283020180546001600160a01b0319168155600181018290556002810182905560038101805461ffff19169055600481018290556005810191909155600601805460ff1916905590558015614eb25780614eae8161aa79565b9150505b80614ebc8161a965565b915050614d02565b6000614ecf82616318565b9050614ed961a1ce565b60008060005b60f0548110156150ed5760f0805482908110614efd57614efd61a939565b60009182526020918290206040805161010081018252600890930290910180546001600160a01b0390811680855260018301549585018690526002830154821693850193909352600382015416606084015260048101546080840152600581015460a0840152600681015460c08401526007015460ff16151560e083015290955093509150614f8c83866165b1565b8360e001516150e557603b5460405163ca669fa760e01b81526001600160a01b03909116600482015260008051602061b5e28339815191529063ca669fa790602401600060405180830381600087803b158015614fe857600080fd5b505af1158015614ffc573d6000803e3d6000fd5b5050602754604051631822508960e01b81526001600160a01b03909116925063182250899150615032908590899060040161aa42565b600060405180830381600087803b15801561504c57600080fd5b505af192505050801561505d575060015b6150a057600160e6600a0182815481106150795761507961a939565b60009182526020909120600890910201600701805460ff19169115159190911790556150e5565b6150aa838661807d565b600160e6600a0182815481106150c2576150c261a939565b60009182526020909120600890910201600701805460ff19169115159190911790555b600101614edf565b5060005b60f05481101561188e5760f080548290811061510f5761510f61a939565b600091825260209091206007600890920201015460ff16156152955760f0805461513b9060019061a97e565b8154811061514b5761514b61a939565b906000526020600020906008020160e6600a01828154811061516f5761516f61a939565b60009182526020909120825460089092020180546001600160a01b039283166001600160a01b03199182161782556001808501549083015560028085015490830180549185169183169190911790556003808501549083018054919094169116179091556004808301549082015560058083015490820155600680830154908201556007918201549101805460ff191660ff909216151591909117905560f080548061521d5761521d61aa63565b60008281526020812060086000199093019283020180546001600160a01b031990811682556001820183905560028201805482169055600382018054909116905560048101829055600581018290556006810191909155600701805460ff191690559055801561529557806152918161aa79565b9150505b8061529f8161a965565b9150506150f1565b60006152b282616318565b90506152be33826165b1565b60eb5460009081805b828110156153145760eb8054829081106152e3576152e361a939565b600091825260209091206008600990920201015460ff1661530c57816153088161a965565b9250505b6001016152c7565b506000816001600160401b0381111561532f5761532f61aa90565b60405190808252806020026020018201604052801561536857816020015b61535561a172565b81526020019060019003908161534d5790505b5090506000805b8481101561549f5760eb80548290811061538b5761538b61a939565b600091825260209091206008600990920201015460ff166154975760eb8054829081106153ba576153ba61a939565b60009182526020918290206040805161016081018252600990930290910180546001600160a01b039081168452600182015494840194909452600281015491830191909152600381015460ff80821615156060850152610100808304821615156080860152620100009092048116151560a0850152600483015460c0850152600583015490941660e08401526006820154908301526007810154610120830152600801549091161515610140820152835184908490811061547d5761547d61a939565b602002602001018190525081806154939061a965565b9250505b60010161536f565b5060006154b98960ff1660006001865161083b919061a97e565b905060008382815181106154cf576154cf61a939565b60209081029190910181015190810151603b5460405163ca669fa760e01b81526001600160a01b03909116600482015290985090915060008051602061b5e28339815191529063ca669fa790602401600060405180830381600087803b15801561553857600080fd5b505af115801561554c573d6000803e3d6000fd5b50506025546040516359086dc960e01b8152600481018b9052600060248201526001600160a01b0390911692506359086dc99150604401600060405180830381600087803b15801561559d57600080fd5b505af19250505080156155ae575060015b15612670576155bd338961807d565b604080516101608101825282516001600160a01b039081168252602082018a8152848401519383019384526060808601511515908401908152608080870151151590850190815260a080880151151590860190815260c08089015190870190815260e0808a01518716908801908152610100808b0151818a01908152610120808d0151908b0190815260006101408c0181815260ed80546001810182559083528d5160099091027f0504e0a132d2ef5ca5f2fe74fc64437205bc10f32d5f13d533bf552916a94d3f81018054928f166001600160a01b03199384161790559b517f0504e0a132d2ef5ca5f2fe74fc64437205bc10f32d5f13d533bf552916a94d408d01559d517f0504e0a132d2ef5ca5f2fe74fc64437205bc10f32d5f13d533bf552916a94d418c015598517f0504e0a132d2ef5ca5f2fe74fc64437205bc10f32d5f13d533bf552916a94d428b018054995198511515620100000262ff00001999151590960261ff00199215159290921661ffff19909a169990991717969096169290921790955591517f0504e0a132d2ef5ca5f2fe74fc64437205bc10f32d5f13d533bf552916a94d43870155517f0504e0a132d2ef5ca5f2fe74fc64437205bc10f32d5f13d533bf552916a94d448601805491909716981697909717909455517f0504e0a132d2ef5ca5f2fe74fc64437205bc10f32d5f13d533bf552916a94d4583015593517f0504e0a132d2ef5ca5f2fe74fc64437205bc10f32d5f13d533bf552916a94d4682015592517f0504e0a132d2ef5ca5f2fe74fc64437205bc10f32d5f13d533bf552916a94d47909301805493151560ff199490941693909317909255905b8781101561266d578860e660040182815481106158445761584461a939565b9060005260206000209060070201600101540361589657600160e660040182815481106158735761587361a939565b60009182526020909120600790910201600601805460ff19169115159190911790555b600101615825565b60006158a982616318565b90506158b533826165b1565b60006158d28560ff166000600160058054905061083b919061a97e565b90506000600582815481106158e9576158e961a939565b60009182526020822001546003546001600160a01b03918216935016820361592c57615925866001600160601b0316600060416048015461802b565b9050615979565b6001546001600160a01b039081169083160361595c57615925866001600160601b0316600060416047015461802b565b615976866001600160601b0316600060416049015461802b565b90505b60215460405163750b5a1960e01b81526001600160a01b038481166004830152602482018490529091169063750b5a19906044016020604051808303816000875af19250505080156159e8575060408051601f3d908101601f191682019092526159e59181019061a997565b60015b15615b2c576159f7338661807d565b6040805160a081018252338152602081019283526001600160a01b038581169282019283526060820185815260006080840181815260e680546001810182559252935160059091027fd31ddb47b5e8664717d3718acbd132396ff496fe337159c99410be8658408a27810180549285166001600160a01b031993841617905595517fd31ddb47b5e8664717d3718acbd132396ff496fe337159c99410be8658408a2887015593517fd31ddb47b5e8664717d3718acbd132396ff496fe337159c99410be8658408a298601805491909316941693909317905590517fd31ddb47b5e8664717d3718acbd132396ff496fe337159c99410be8658408a2a830155517fd31ddb47b5e8664717d3718acbd132396ff496fe337159c99410be8658408a2b909101805491151560ff199092169190911790555b50505050505050565b6000615b408a616318565b9050615b4c33826165b1565b6060615b5661a26c565b615b668b60ff166001600261802b565b6101208201819052615b7f90848c8c8c8c8c8c8c619b3f565b60e083018190526024546040516344f3a60560e11b81529294506001600160a01b0316916389e74c0a9190615bb890869060040161ac28565b60006040518083038185885af193505050508015615bf857506040513d6000823e601f3d908101601f19168201604052615bf5919081019061ad70565b60015b1561266d57615c07338561807d565b615c0f61a230565b60005b8251811015615e64576040518060e00160405280336001600160a01b03168152602001848381518110615c4757615c4761a939565b60200260200101518152602001868381518110615c6657615c6661a939565b60200260200101516040015115158152602001868381518110615c8b57615c8b61a939565b602002602001015160e001516001600160a01b03168152602001868381518110615cb757615cb761a939565b602002602001015161012001518152602001868381518110615cdb57615cdb61a939565b6020908102919091018101516101a001518252600091810182905260e880546001818101835591909352835160069093027f53c8da29bfa275271df3f270296d5a7d61b57f8848c89b3f65f49e21340b7592810180546001600160a01b039586166001600160a01b0319909116179055918401517f53c8da29bfa275271df3f270296d5a7d61b57f8848c89b3f65f49e21340b759383015560408401517f53c8da29bfa275271df3f270296d5a7d61b57f8848c89b3f65f49e21340b759483018054606087015190951661010002610100600160a81b0319921515929092166001600160a81b0319909516949094171790925560808301517f53c8da29bfa275271df3f270296d5a7d61b57f8848c89b3f65f49e21340b759582015560a08301517f53c8da29bfa275271df3f270296d5a7d61b57f8848c89b3f65f49e21340b759682015560c08301517f53c8da29bfa275271df3f270296d5a7d61b57f8848c89b3f65f49e21340b7597909101805491151560ff199290921691909117905590925001615c12565b505050505050505050505050505050565b6000615e8082616318565b9050615e8c33826165b1565b60e65460009081805b82811015615ee25760e6805482908110615eb157615eb161a939565b600091825260209091206004600590920201015460ff16615eda5781615ed68161a965565b9250505b600101615e95565b506000816001600160401b03811115615efd57615efd61aa90565b604051908082528060200260200182016040528015615f5657816020015b6040805160a081018252600080825260208083018290529282018190526060820181905260808201528252600019909201910181615f1b5790505b5090506000805b8481101561603c5760e6805482908110615f7957615f7961a939565b600091825260209091206004600590920201015460ff166160345760e6805482908110615fa857615fa861a939565b60009182526020918290206040805160a081018252600590930290910180546001600160a01b0390811684526001820154948401949094526002810154909316908201526003820154606082015260049091015460ff1615156080820152835184908490811061601a5761601a61a939565b602002602001018190525081806160309061a965565b9250505b600101615f5d565b5060006160568960ff1660006001865161083b919061a97e565b9050600083828151811061606c5761606c61a939565b60209081029190910181015190810151603b5460405163ca669fa760e01b81526001600160a01b03909116600482015290985090915060008051602061b5e28339815191529063ca669fa790602401600060405180830381600087803b1580156160d557600080fd5b505af11580156160e9573d6000803e3d6000fd5b50506021546040516313874d3760e01b8152600481018b9052600060248201526001600160a01b0390911692506313874d379150604401600060405180830381600087803b15801561613a57600080fd5b505af192505050801561614b575060015b156126705761615a338961807d565b6040805160a08101825282516001600160a01b039081168252602082018a815284840151821693830193845260608086015190840190815260006080850181815260e78054600181018255908352865160059091027f6cb0db1d7354dfb4a1464318006df0643cafe2002a86a29ff8560f900fef28a1810180549288166001600160a01b031993841617905594517f6cb0db1d7354dfb4a1464318006df0643cafe2002a86a29ff8560f900fef28a286015596517f6cb0db1d7354dfb4a1464318006df0643cafe2002a86a29ff8560f900fef28a38501805491909616971696909617909355517f6cb0db1d7354dfb4a1464318006df0643cafe2002a86a29ff8560f900fef28a482015592517f6cb0db1d7354dfb4a1464318006df0643cafe2002a86a29ff8560f900fef28a5909301805493151560ff1990941693909317909255905b8781101561266d578860e660000182815481106162be576162be61a939565b9060005260206000209060050201600101540361631057600160e660000182815481106162ed576162ed61a939565b60009182526020909120600590910201600401805460ff19169115159190911790555b60010161629f565b60608060006163296113888561ae05565b6163359061038461ae26565b6163479061ffff166305f5e10061ae48565b63ffffffff169050600061635d619c408661ae05565b61636990614e2061ae26565b61637b9061ffff166305f5e10061ae48565b60055463ffffffff9190911691506305f5e100906001600160401b038111156163a6576163a661aa90565b6040519080825280602002602001820160405280156163f857816020015b6040805160808101825260008082526020808301829052928201819052606082015282526000199092019101816163c45790505b50935060005b84518110156165a6576005818154811061641a5761641a61a939565b9060005260206000200160009054906101000a90046001600160a01b031685828151811061644a5761644a61a939565b60209081029190910101516001600160a01b039182169052600154600580549190921691908390811061647f5761647f61a939565b6000918252602090912001546001600160a01b0316036164e457838582815181106164ac576164ac61a939565b60200260200101516040018181525050838582815181106164cf576164cf61a939565b6020026020010151606001818152505061659e565b600254600580546001600160a01b0390921691839081106165075761650761a939565b6000918252602090912001546001600160a01b03160361655757828582815181106165345761653461a939565b60200260200101516040018181525050828582815181106164cf576164cf61a939565b8185828151811061656a5761656a61a939565b602002602001015160400181815250508185828151811061658d5761658d61a939565b602002602001015160600181815250505b6001016163fe565b509295945050505050565b602154604051630f6a21fd60e31b81526001600160a01b0384811660048301526000921690637b510fe890602401600060405180830381865afa1580156165fc573d6000803e3d6000fd5b505050506040513d6000823e601f3d908101601f19168201604052616624919081019061afea565b8051604180546001600160a01b0319166001600160a01b03909216919091179055905060005b816020015151811015616760576041600a01826020015182815181106166725761667261a939565b602090810291909101810151518254600181018455600093845292829020909201919091558201518051604c9190839081106166b0576166b061a939565b6020908102919091018101518101518254600181018455600093845292829020909201919091558201518051604d9190839081106166f0576166f061a939565b602090810291909101810151604001518254600181018455600093845292829020909201919091558201518051604e9190839081106167315761673161a939565b60209081029190910181015160600151825460018181018555600094855292909320909201919091550161664a565b506040810151805161677a9160429160209091019061a3ed565b50606081015180516167949160439160209091019061a34e565b50608081015160445560a081015160455560c081015160465560e0810151604755610100810151604855610120810151604955610140810151604a5560215460405163abac566560e01b81526000916001600160a01b03169063abac566590616803908790879060040161b0fb565b600060405180830381865afa158015616820573d6000803e3d6000fd5b505050506040513d6000823e601f3d908101601f19168201604052616848919081019061afea565b8051604f80546001600160a01b0319166001600160a01b03909216919091179055905060005b826020015151811015616984576041601801836020015182815181106168965761689661a939565b602090810291909101810151518254600181018455600093845292829020909201919091558301518051605a9190839081106168d4576168d461a939565b6020908102919091018101518101518254600181018455600093845292829020909201919091558301518051605b9190839081106169145761691461a939565b602090810291909101810151604001518254600181018455600093845292829020909201919091558301518051605c9190839081106169555761695561a939565b60209081029190910181015160600151825460018181018555600094855292909320909201919091550161686e565b506040810151805161699e9160509160209091019061a3ed565b50606081015180516169b89160519160209091019061a34e565b50608081015160525560a081015160535560c081015160545560e081015160555561010081015160565561012081015160575561014081015160585560248054604051639508352760e01b81526001600160a01b03878116600483015260009392169163950835279101600060405180830381865afa158015616a3f573d6000803e3d6000fd5b505050506040513d6000823e601f3d908101601f19168201604052616a67919081019061b148565b905060005b8151811015616fb4576041601c01828281518110616a8c57616a8c61a939565b60209081029190910181015151825460018101845560009384529190922001558151605e90839083908110616ac357616ac361a939565b602090810291909101810151810151810151825460018101845560009384529190922001558151605f90839083908110616aff57616aff61a939565b60209081029190910181015181015160400151825460018101845560009384529282902091830490910180549192909160ff601f9092166101000a918202191690836002811115616b5257616b5261aaa6565b02179055506041601f01828281518110616b6e57616b6e61a939565b60209081029190910181015181015160600151825460018101845560009384529282902091830490910180549192909160ff601f9092166101000a918202191690836002811115616bc157616bc161aaa6565b02179055506041602001828281518110616bdd57616bdd61a939565b60209081029190910181015181015160800151825460018101845560009384529282902091830490910180549192909160ff601f9092166101000a918202191690836003811115616c3057616c3061aaa6565b02179055506041602101828281518110616c4c57616c4c61a939565b60209081029190910181015181015160a00151825460018101845560009384529282902091830490910180549192909160ff601f9092166101000a918202191690836002811115616c9f57616c9f61aaa6565b02179055506041602201828281518110616cbb57616cbb61a939565b60209081029190910181015181015160c001518254600181018455600093845292829020918304909101805460ff601f9094166101000a9384021916911515929092021790558151606490839083908110616d1857616d1861a939565b60209081029190910181015181015160e001518254600181018455600093845292829020918304909101805460ff601f9094166101000a9384021916911515929092021790558151606590839083908110616d7557616d7561a939565b602090810291909101810151810151610100015182546001810184556000938452919092200180546001600160a01b0319166001600160a01b039092169190911790558151606690839083908110616dcf57616dcf61a939565b6020908102919091018101518101516101200151825460018101845560009384529190922001558151606790839083908110616e0d57616e0d61a939565b6020908102919091018101518101516101400151825460018101845560009384529190922001558151606890839083908110616e4b57616e4b61a939565b6020908102919091018101518101516101600151825460018101845560009384529190922001558151606990839083908110616e8957616e8961a939565b6020908102919091018101518101516101800151825460018101845560009384529190922001558151606a90839083908110616ec757616ec761a939565b6020908102919091018101518101516101a00151825460018101845560009384529190922001558151606b90839083908110616f0557616f0561a939565b6020908102919091018101518101516101c00151825460018101845560009384529190922001558151606c90839083908110616f4357616f4361a939565b6020908102919091018101518101516101e00151825460018101845560009384529190922001558151606d90839083908110616f8157616f8161a939565b60209081029190910181015181015161020001518254600181810185556000948552929093209092019190915501616a6c565b5060255460405163fb11e96960e01b81526001600160a01b038781166004830152600092169063fb11e96990602401600060405180830381865afa158015617000573d6000803e3d6000fd5b505050506040513d6000823e601f3d908101601f19168201604052617028919081019061b39a565b905060005b81518110156176b9576041602d0182828151811061704d5761704d61a939565b602090810291909101810151810151825460018101845560009384529190922001558151606f908390839081106170865761708661a939565b602090810291909101810151604001518254600181018455600093845291909220015581516070908390839081106170c0576170c061a939565b60209081029190910181015151518254600181018455600093845291909220015581516071908390839081106170f8576170f861a939565b602090810291909101810151518101518254600181018455600093845291909220015581516072908390839081106171325761713261a939565b60209081029190910181015151604001518254600181018455600093845292829020918304909101805460ff601f9094166101000a938402191691151592909202179055815160739083908390811061718d5761718d61a939565b60209081029190910181015151606001518254600181018455600093845292829020918304909101805460ff601f9094166101000a93840219169115159290920217905581516074908390839081106171e8576171e861a939565b602090810291909101810151516080015182546001810184556000938452919092200180546001600160a01b0319166001600160a01b03909216919091179055815160759083908390811061723f5761723f61a939565b6020908102919091018101515160a0015182546001810184556000938452919092200180546001600160a01b0319166001600160a01b0390921691909117905581516076908390839081106172965761729661a939565b6020908102919091018101515160c0015182546001810184556000938452919092200180546001600160a01b0319166001600160a01b0390921691909117905581516077908390839081106172ed576172ed61a939565b6020908102919091018101515160e001518254600181018455600093845291909220015581516078908390839081106173285761732861a939565b6020908102919091018101515161010001518254600181018455600093845291909220015581516079908390839081106173645761736461a939565b602090810291909101810151516101200151825460018101845560009384529190922001558151607a908390839081106173a0576173a061a939565b602090810291909101810151516101400151825460018101845560009384529190922001558151607b908390839081106173dc576173dc61a939565b602090810291909101810151516101600151825460018101845560009384529190922001558151607c908390839081106174185761741861a939565b602090810291909101810151516101800151825460018101845560009384529190922001558151607d908390839081106174545761745461a939565b602090810291909101810151516101a00151825460018101845560009384529190922001558151607e908390839081106174905761749061a939565b602090810291909101810151516101e00151825460018101845560009384529190922001558151607f908390839081106174cc576174cc61a939565b6020908102919091018101515161020001518254600181018455600093845291909220015581516080908390839081106175085761750861a939565b602090810291909101810151516101c00151518254600181018455600093845291909220015581516081908390839081106175455761754561a939565b602090810291909101810151516101c001518101518254600181018455600093845291909220015581516082908390839081106175845761758461a939565b602090810291909101810151516101c00151604001518254600181018455600093845291909220015581516083908390839081106175c4576175c461a939565b602090810291909101810151516101c00151606001518254600181018455600093845291909220015581516084908390839081106176045761760461a939565b602090810291909101810151516101c00151608001518254600181018455600093845291909220015581516085908390839081106176445761764461a939565b602090810291909101810151516101c0015160a001518254600181018455600093845291909220015581516086908390839081106176845761768461a939565b602090810291909101810151516101c0015160c00151825460018181018555600094855292909320909201919091550161702d565b50603060009054906101000a90046001600160a01b03166001600160a01b0316631f7592ea6040518163ffffffff1660e01b8152600401602060405180830381865afa15801561770d573d6000803e3d6000fd5b505050506040513d601f19601f82011682018060405250810190617731919061b541565b6001600160a01b039081163160875560015460305460408051630fbac97560e11b81529051928416936370a0823193921691631f7592ea916004808201926020929091908290030181865afa15801561778e573d6000803e3d6000fd5b505050506040513d601f19601f820116820180604052508101906177b2919061b541565b6040516001600160e01b031960e084901b1681526001600160a01b039091166004820152602401602060405180830381865afa1580156177f6573d6000803e3d6000fd5b505050506040513d601f19601f8201168201806040525081019061781a919061a997565b60885560035460305460408051630fbac97560e11b815290516001600160a01b03938416936370a08231931691631f7592ea9160048083019260209291908290030181865afa158015617871573d6000803e3d6000fd5b505050506040513d601f19601f82011682018060405250810190617895919061b541565b6040516001600160e01b031960e084901b1681526001600160a01b039091166004820152602401602060405180830381865afa1580156178d9573d6000803e3d6000fd5b505050506040513d601f19601f820116820180604052508101906178fd919061a997565b60895560025460305460408051630fbac97560e11b815290516001600160a01b03938416936370a08231931691631f7592ea9160048083019260209291908290030181865afa158015617954573d6000803e3d6000fd5b505050506040513d601f19601f82011682018060405250810190617978919061b541565b6040516001600160e01b031960e084901b1681526001600160a01b039091166004820152602401602060405180830381865afa1580156179bc573d6000803e3d6000fd5b505050506040513d601f19601f820116820180604052508101906179e0919061a997565b608a5560305460408051634bf3dbf960e11b815290516001600160a01b03909216916397e7b7f2916004808201926020929091908290030181865afa158015617a2d573d6000803e3d6000fd5b505050506040513d601f19601f82011682018060405250810190617a51919061b541565b6001600160a01b0390811631608b5560015460305460408051634bf3dbf960e11b81529051928416936370a08231939216916397e7b7f2916004808201926020929091908290030181865afa158015617aae573d6000803e3d6000fd5b505050506040513d601f19601f82011682018060405250810190617ad2919061b541565b6040516001600160e01b031960e084901b1681526001600160a01b039091166004820152602401602060405180830381865afa158015617b16573d6000803e3d6000fd5b505050506040513d601f19601f82011682018060405250810190617b3a919061a997565b608c5560035460305460408051634bf3dbf960e11b815290516001600160a01b03938416936370a082319316916397e7b7f29160048083019260209291908290030181865afa158015617b91573d6000803e3d6000fd5b505050506040513d601f19601f82011682018060405250810190617bb5919061b541565b6040516001600160e01b031960e084901b1681526001600160a01b039091166004820152602401602060405180830381865afa158015617bf9573d6000803e3d6000fd5b505050506040513d601f19601f82011682018060405250810190617c1d919061a997565b608d5560025460305460408051634bf3dbf960e11b815290516001600160a01b03938416936370a082319316916397e7b7f29160048083019260209291908290030181865afa158015617c74573d6000803e3d6000fd5b505050506040513d601f19601f82011682018060405250810190617c98919061b541565b6040516001600160e01b031960e084901b1681526001600160a01b039091166004820152602401602060405180830381865afa158015617cdc573d6000803e3d6000fd5b505050506040513d601f19601f82011682018060405250810190617d00919061a997565b608e55603054604080516308ba026f60e01b815290516001600160a01b03909216916308ba026f916004808201926020929091908290030181865afa158015617d4d573d6000803e3d6000fd5b505050506040513d601f19601f82011682018060405250810190617d71919061b541565b6001600160a01b0390811631608f55600154603054604080516308ba026f60e01b81529051928416936370a08231939216916308ba026f916004808201926020929091908290030181865afa158015617dce573d6000803e3d6000fd5b505050506040513d601f19601f82011682018060405250810190617df2919061b541565b6040516001600160e01b031960e084901b1681526001600160a01b039091166004820152602401602060405180830381865afa158015617e36573d6000803e3d6000fd5b505050506040513d601f19601f82011682018060405250810190617e5a919061a997565b609055600354603054604080516308ba026f60e01b815290516001600160a01b03938416936370a082319316916308ba026f9160048083019260209291908290030181865afa158015617eb1573d6000803e3d6000fd5b505050506040513d601f19601f82011682018060405250810190617ed5919061b541565b6040516001600160e01b031960e084901b1681526001600160a01b039091166004820152602401602060405180830381865afa158015617f19573d6000803e3d6000fd5b505050506040513d601f19601f82011682018060405250810190617f3d919061a997565b609155600254603054604080516308ba026f60e01b815290516001600160a01b03938416936370a082319316916308ba026f9160048083019260209291908290030181865afa158015617f94573d6000803e3d6000fd5b505050506040513d601f19601f82011682018060405250810190617fb8919061b541565b6040516001600160e01b031960e084901b1681526001600160a01b039091166004820152602401602060405180830381865afa158015617ffc573d6000803e3d6000fd5b505050506040513d601f19601f82011682018060405250810190618020919061a997565b609255505050505050565b60008284108061803a57508184115b1561807357600061804b848461a97e565b61805690600161a9b0565b618060908661a925565b61806a908561a9b0565b91506180769050565b50825b9392505050565b602154604051630f6a21fd60e31b81526001600160a01b0384811660048301526000921690637b510fe890602401600060405180830381865afa1580156180c8573d6000803e3d6000fd5b505050506040513d6000823e601f3d908101601f191682016040526180f0919081019061afea565b8051609380546001600160a01b0319166001600160a01b03909216919091179055905060005b81602001515181101561822c576093600a018260200151828151811061813e5761813e61a939565b602090810291909101810151518254600181018455600093845292829020909201919091558201518051609e91908390811061817c5761817c61a939565b6020908102919091018101518101518254600181018455600093845292829020909201919091558201518051609f9190839081106181bc576181bc61a939565b60209081029190910181015160400151825460018101845560009384529282902090920191909155820151805160a09190839081106181fd576181fd61a939565b602090810291909101810151606001518254600181810185556000948552929093209092019190915501618116565b50604081015180516182469160949160209091019061a3ed565b50606081015180516182609160959160209091019061a34e565b50608081015160965560a081015160975560c081015160985560e0810151609955610100810151609a55610120810151609b55610140810151609c5560215460405163abac566560e01b81526000916001600160a01b03169063abac5665906182cf908790879060040161b0fb565b600060405180830381865afa1580156182ec573d6000803e3d6000fd5b505050506040513d6000823e601f3d908101601f19168201604052618314919081019061afea565b805160a180546001600160a01b0319166001600160a01b03909216919091179055905060005b826020015151811015618450576093601801836020015182815181106183625761836261a939565b60209081029190910181015151825460018101845560009384529282902090920191909155830151805160ac9190839081106183a0576183a061a939565b602090810291909101810151810151825460018101845560009384529282902090920191909155830151805160ad9190839081106183e0576183e061a939565b60209081029190910181015160400151825460018101845560009384529282902090920191909155830151805160ae9190839081106184215761842161a939565b60209081029190910181015160600151825460018181018555600094855292909320909201919091550161833a565b506040810151805161846a9160a29160209091019061a3ed565b50606081015180516184849160a39160209091019061a34e565b50608081015160a45560a081015160a55560c081015160a65560e081015160a75561010081015160a85561012081015160a95561014081015160aa5560248054604051639508352760e01b81526001600160a01b03878116600483015260009392169163950835279101600060405180830381865afa15801561850b573d6000803e3d6000fd5b505050506040513d6000823e601f3d908101601f19168201604052618533919081019061b148565b905060005b8151811015618a80576093601c018282815181106185585761855861a939565b6020908102919091018101515182546001810184556000938452919092200155815160b09083908390811061858f5761858f61a939565b60209081029190910181015181015181015182546001810184556000938452919092200155815160b1908390839081106185cb576185cb61a939565b60209081029190910181015181015160400151825460018101845560009384529282902091830490910180549192909160ff601f9092166101000a91820219169083600281111561861e5761861e61aaa6565b02179055506093601f0182828151811061863a5761863a61a939565b60209081029190910181015181015160600151825460018101845560009384529282902091830490910180549192909160ff601f9092166101000a91820219169083600281111561868d5761868d61aaa6565b021790555060936020018282815181106186a9576186a961a939565b60209081029190910181015181015160800151825460018101845560009384529282902091830490910180549192909160ff601f9092166101000a9182021916908360038111156186fc576186fc61aaa6565b021790555060936021018282815181106187185761871861a939565b60209081029190910181015181015160a00151825460018101845560009384529282902091830490910180549192909160ff601f9092166101000a91820219169083600281111561876b5761876b61aaa6565b021790555060936022018282815181106187875761878761a939565b60209081029190910181015181015160c001518254600181018455600093845292829020918304909101805460ff601f9094166101000a938402191691151592909202179055815160b6908390839081106187e4576187e461a939565b60209081029190910181015181015160e001518254600181018455600093845292829020918304909101805460ff601f9094166101000a938402191691151592909202179055815160b7908390839081106188415761884161a939565b602090810291909101810151810151610100015182546001810184556000938452919092200180546001600160a01b0319166001600160a01b03909216919091179055815160b89083908390811061889b5761889b61a939565b602090810291909101810151810151610120015182546001810184556000938452919092200155815160b9908390839081106188d9576188d961a939565b602090810291909101810151810151610140015182546001810184556000938452919092200155815160ba908390839081106189175761891761a939565b602090810291909101810151810151610160015182546001810184556000938452919092200155815160bb908390839081106189555761895561a939565b602090810291909101810151810151610180015182546001810184556000938452919092200155815160bc908390839081106189935761899361a939565b6020908102919091018101518101516101a0015182546001810184556000938452919092200155815160bd908390839081106189d1576189d161a939565b6020908102919091018101518101516101c0015182546001810184556000938452919092200155815160be90839083908110618a0f57618a0f61a939565b6020908102919091018101518101516101e0015182546001810184556000938452919092200155815160bf90839083908110618a4d57618a4d61a939565b60209081029190910181015181015161020001518254600181810185556000948552929093209092019190915501618538565b5060255460405163fb11e96960e01b81526001600160a01b038781166004830152600092169063fb11e96990602401600060405180830381865afa158015618acc573d6000803e3d6000fd5b505050506040513d6000823e601f3d908101601f19168201604052618af4919081019061b39a565b905060005b8151811015619185576093602d01828281518110618b1957618b1961a939565b60209081029190910181015181015182546001810184556000938452919092200155815160c190839083908110618b5257618b5261a939565b6020908102919091018101516040015182546001810184556000938452919092200155815160c290839083908110618b8c57618b8c61a939565b602090810291909101810151515182546001810184556000938452919092200155815160c390839083908110618bc457618bc461a939565b6020908102919091018101515181015182546001810184556000938452919092200155815160c490839083908110618bfe57618bfe61a939565b60209081029190910181015151604001518254600181018455600093845292829020918304909101805460ff601f9094166101000a938402191691151592909202179055815160c590839083908110618c5957618c5961a939565b60209081029190910181015151606001518254600181018455600093845292829020918304909101805460ff601f9094166101000a938402191691151592909202179055815160c690839083908110618cb457618cb461a939565b602090810291909101810151516080015182546001810184556000938452919092200180546001600160a01b0319166001600160a01b03909216919091179055815160c790839083908110618d0b57618d0b61a939565b6020908102919091018101515160a0015182546001810184556000938452919092200180546001600160a01b0319166001600160a01b03909216919091179055815160c890839083908110618d6257618d6261a939565b6020908102919091018101515160c0015182546001810184556000938452919092200180546001600160a01b0319166001600160a01b03909216919091179055815160c990839083908110618db957618db961a939565b6020908102919091018101515160e0015182546001810184556000938452919092200155815160ca90839083908110618df457618df461a939565b60209081029190910181015151610100015182546001810184556000938452919092200155815160cb90839083908110618e3057618e3061a939565b60209081029190910181015151610120015182546001810184556000938452919092200155815160cc90839083908110618e6c57618e6c61a939565b60209081029190910181015151610140015182546001810184556000938452919092200155815160cd90839083908110618ea857618ea861a939565b60209081029190910181015151610160015182546001810184556000938452919092200155815160ce90839083908110618ee457618ee461a939565b60209081029190910181015151610180015182546001810184556000938452919092200155815160cf90839083908110618f2057618f2061a939565b602090810291909101810151516101a0015182546001810184556000938452919092200155815160d090839083908110618f5c57618f5c61a939565b602090810291909101810151516101e0015182546001810184556000938452919092200155815160d190839083908110618f9857618f9861a939565b60209081029190910181015151610200015182546001810184556000938452919092200155815160d290839083908110618fd457618fd461a939565b602090810291909101810151516101c001515182546001810184556000938452919092200155815160d3908390839081106190115761901161a939565b602090810291909101810151516101c0015181015182546001810184556000938452919092200155815160d4908390839081106190505761905061a939565b602090810291909101810151516101c001516040015182546001810184556000938452919092200155815160d5908390839081106190905761909061a939565b602090810291909101810151516101c001516060015182546001810184556000938452919092200155815160d6908390839081106190d0576190d061a939565b602090810291909101810151516101c001516080015182546001810184556000938452919092200155815160d7908390839081106191105761911061a939565b602090810291909101810151516101c0015160a0015182546001810184556000938452919092200155815160d8908390839081106191505761915061a939565b602090810291909101810151516101c0015160c001518254600181810185556000948552929093209092019190915501618af9565b50603060009054906101000a90046001600160a01b03166001600160a01b0316631f7592ea6040518163ffffffff1660e01b8152600401602060405180830381865afa1580156191d9573d6000803e3d6000fd5b505050506040513d601f19601f820116820180604052508101906191fd919061b541565b6001600160a01b039081163160d95560015460305460408051630fbac97560e11b81529051928416936370a0823193921691631f7592ea916004808201926020929091908290030181865afa15801561925a573d6000803e3d6000fd5b505050506040513d601f19601f8201168201806040525081019061927e919061b541565b6040516001600160e01b031960e084901b1681526001600160a01b039091166004820152602401602060405180830381865afa1580156192c2573d6000803e3d6000fd5b505050506040513d601f19601f820116820180604052508101906192e6919061a997565b60da5560035460305460408051630fbac97560e11b815290516001600160a01b03938416936370a08231931691631f7592ea9160048083019260209291908290030181865afa15801561933d573d6000803e3d6000fd5b505050506040513d601f19601f82011682018060405250810190619361919061b541565b6040516001600160e01b031960e084901b1681526001600160a01b039091166004820152602401602060405180830381865afa1580156193a5573d6000803e3d6000fd5b505050506040513d601f19601f820116820180604052508101906193c9919061a997565b60db5560025460305460408051630fbac97560e11b815290516001600160a01b03938416936370a08231931691631f7592ea9160048083019260209291908290030181865afa158015619420573d6000803e3d6000fd5b505050506040513d601f19601f82011682018060405250810190619444919061b541565b6040516001600160e01b031960e084901b1681526001600160a01b039091166004820152602401602060405180830381865afa158015619488573d6000803e3d6000fd5b505050506040513d601f19601f820116820180604052508101906194ac919061a997565b60dc5560305460408051634bf3dbf960e11b815290516001600160a01b03909216916397e7b7f2916004808201926020929091908290030181865afa1580156194f9573d6000803e3d6000fd5b505050506040513d601f19601f8201168201806040525081019061951d919061b541565b6001600160a01b039081163160dd5560015460305460408051634bf3dbf960e11b81529051928416936370a08231939216916397e7b7f2916004808201926020929091908290030181865afa15801561957a573d6000803e3d6000fd5b505050506040513d601f19601f8201168201806040525081019061959e919061b541565b6040516001600160e01b031960e084901b1681526001600160a01b039091166004820152602401602060405180830381865afa1580156195e2573d6000803e3d6000fd5b505050506040513d601f19601f82011682018060405250810190619606919061a997565b60de5560035460305460408051634bf3dbf960e11b815290516001600160a01b03938416936370a082319316916397e7b7f29160048083019260209291908290030181865afa15801561965d573d6000803e3d6000fd5b505050506040513d601f19601f82011682018060405250810190619681919061b541565b6040516001600160e01b031960e084901b1681526001600160a01b039091166004820152602401602060405180830381865afa1580156196c5573d6000803e3d6000fd5b505050506040513d601f19601f820116820180604052508101906196e9919061a997565b60df5560025460305460408051634bf3dbf960e11b815290516001600160a01b03938416936370a082319316916397e7b7f29160048083019260209291908290030181865afa158015619740573d6000803e3d6000fd5b505050506040513d601f19601f82011682018060405250810190619764919061b541565b6040516001600160e01b031960e084901b1681526001600160a01b039091166004820152602401602060405180830381865afa1580156197a8573d6000803e3d6000fd5b505050506040513d601f19601f820116820180604052508101906197cc919061a997565b60e055603054604080516308ba026f60e01b815290516001600160a01b03909216916308ba026f916004808201926020929091908290030181865afa158015619819573d6000803e3d6000fd5b505050506040513d601f19601f8201168201806040525081019061983d919061b541565b6001600160a01b039081163160e155600154603054604080516308ba026f60e01b81529051928416936370a08231939216916308ba026f916004808201926020929091908290030181865afa15801561989a573d6000803e3d6000fd5b505050506040513d601f19601f820116820180604052508101906198be919061b541565b6040516001600160e01b031960e084901b1681526001600160a01b039091166004820152602401602060405180830381865afa158015619902573d6000803e3d6000fd5b505050506040513d601f19601f82011682018060405250810190619926919061a997565b60e255600354603054604080516308ba026f60e01b815290516001600160a01b03938416936370a082319316916308ba026f9160048083019260209291908290030181865afa15801561997d573d6000803e3d6000fd5b505050506040513d601f19601f820116820180604052508101906199a1919061b541565b6040516001600160e01b031960e084901b1681526001600160a01b039091166004820152602401602060405180830381865afa1580156199e5573d6000803e3d6000fd5b505050506040513d601f19601f82011682018060405250810190619a09919061a997565b60e355600254603054604080516308ba026f60e01b815290516001600160a01b03938416936370a082319316916308ba026f9160048083019260209291908290030181865afa158015619a60573d6000803e3d6000fd5b505050506040513d601f19601f82011682018060405250810190619a84919061b541565b6040516001600160e01b031960e084901b1681526001600160a01b039091166004820152602401602060405180830381865afa158015619ac8573d6000803e3d6000fd5b505050506040513d601f19601f82011682018060405250810190619aec919061a997565b60e455505050505050565b81619b3b577fcf34ef537ac33ee1ac626ca1587a0a7e8e51561e5514f8cb36afa1c5102b3bab81604051619b2b919061b55c565b60405180910390a1619b3b61b5ab565b5050565b606060008a6001600160401b03811115619b5b57619b5b61aa90565b604051908082528060200260200182016040528015619b9457816020015b619b8161a2cf565b815260200190600190039081619b795790505b509150619b9f61a26c565b619ba761a2cf565b60005b8d81101561a0a9578b15156020830152619bc560028261a925565b15619bd1576000619bd4565b60015b15156040830152619beb60ff8c166000600261802b565b808452600003619c17576060820160005b90816002811115619c0f57619c0f61aaa6565b905250619c33565b8251600103619c2b57606082016001619bfc565b600260608301525b619c3e60028261a925565b15619c4a576000619c4d565b60025b82608001906002811115619c6357619c6361aaa6565b90816002811115619c7657619c7661aaa6565b905250619c8960ff8b166000600261802b565b60208401819052600003619cb95760a0820160015b90816003811115619cb157619cb161aaa6565b905250619cd8565b8260200151600103619cd05760a082016003619c9e565b600260a08301525b619ce88960ff166000600261802b565b60408401819052600003619d185760c0820160005b90816002811115619d1057619d1061aaa6565b905250619d37565b8260400151600103619d2f5760c082016001619cfd565b600260c08301525b6040805160028082526060820183529091602083019080368337505050610100840181905260015481516001600160a01b039091169190600090619d7d57619d7d61a939565b6001600160a01b03928316602091820292909201015260025461010085015180519190921691906001908110619db557619db561a939565b60200260200101906001600160a01b031690816001600160a01b031681525050619de58860ff166000600161802b565b6060840181905261010084015180519091908110619e0557619e0561a939565b60209081029190910101516001600160a01b039081166080850181905260e084018190526001549091169003619e485767574554485553444360c01b8252619e57565b67574254435553444360c01b82525b60005b8d51811015619f04578260e001516001600160a01b03168e8281518110619e8357619e8361a939565b6020026020010151600001516001600160a01b031603619efc578d8181518110619eaf57619eaf61a939565b60200260200101516060015184610140018181525050619ef5876001600160401b03166005866101400151619ee4919061aabc565b61014087015161083b90600a61a9c3565b6101608401525b600101619e5a565b5061016082015161018083015260808301516040516370a0823160e01b8152336004820152619f9e916001600160601b038a16916000916002916001600160a01b03909116906370a0823190602401602060405180830381865afa158015619f70573d6000803e3d6000fd5b505050506040513d601f19601f82011682018060405250810190619f94919061a997565b61083b919061aabc565b60a0840152619fb96001600160601b0388166000333161802b565b60c084015260a0830151610120830152619ffa619fd788604261b5c1565b609154608d546089546001600160601b039390931692600092916138bd9161a9b0565b61010083015261a02761a00e88604d61b5c1565b6001600160601b0316600061083b621e8480600261a9c3565b61014083015261a03a3a6216e36061a9c3565b61a0469061271061a9b0565b6101a08301819052426101c084015260e084015260408201511561a0705760c08301516101208301525b8185828151811061a0835761a08361a939565b6020026020010181905250816101a001518461a09f919061a9b0565b9350600101619baa565b505050995099975050505050505050565b60405180610100016040528060008152602001600081526020016000815260200160006001600160a01b0316815260200160006001600160a01b0316815260200160006001600160a01b0316815260200160008152602001600081525090565b6040518061012001604052806000815260200160006001600160a01b03168152602001600081526020016000815260200160008152602001600081526020016000801916815260200160008152602001600081525090565b6040805161016081018252600080825260208201819052918101829052606081018290526080810182905260a0810182905260c0810182905260e081018290526101008101829052610120810182905261014081019190915290565b60405180610100016040528060006001600160a01b031681526020016000815260200160006001600160a01b0316815260200160006001600160a01b031681526020016000815260200160008152602001600081526020016000151581525090565b6040805160e081018252600080825260208201819052918101829052606081018290526080810182905260a0810182905260c081019190915290565b6040518061016001604052806000815260200160008152602001600081526020016000815260200160006001600160a01b031681526020016000815260200160008152602001600081526020016060815260200160008152602001600081525090565b604080516101e081018252600080825260208201819052918101829052906060820190815260200160008152602001600081526020016000815260200160006001600160a01b03168152602001600081526020016000815260200160008152602001600081526020016000815260200160008152602001600081525090565b82805482825590600052602060002090810192821561a389579160200282015b8281111561a38957825182559160200191906001019061a36e565b5061a39592915061a442565b5090565b60405180610100016040528060006001600160a01b03168152602001600081526020016000815260200160001515815260200160001515815260200160008152602001600081526020016000151581525090565b82805482825590600052602060002090810192821561a389579160200282015b8281111561a38957825182546001600160a01b0319166001600160a01b0390911617825560209092019160019091019061a40d565b5b8082111561a395576000815560010161a443565b803560ff8116811461a46857600080fd5b919050565b80356001600160601b038116811461a46857600080fd5b801515811461a49257600080fd5b50565b803561ffff8116811461a46857600080fd5b60008060008060008060c0878903121561a4c057600080fd5b61a4c98761a457565b955061a4d76020880161a46d565b9450604087013561a4e78161a484565b9350606087013561a4f78161a484565b925061a5056080880161a46d565b915061a51360a0880161a495565b90509295509295509295565b600080600080600080600080610100898b03121561a53c57600080fd5b61a5458961a495565b975061a55360208a0161a457565b965061a56160408a0161a457565b95506060890135945061a57660808a0161a46d565b935061a58460a08a0161a46d565b925060c089013561a5948161a484565b915060e089013561a5a48161a484565b809150509295985092959890939650565b60008060008060008060c0878903121561a5ce57600080fd5b61a5d78761a495565b9550602087013561a5e78161a484565b9450604087013561a5f78161a484565b935061a6056060880161a457565b925061a6136080880161a46d565b915061a51360a0880161a46d565b60006020828403121561a63357600080fd5b6180768261a495565b600080600080600060a0868803121561a65457600080fd5b61a65d8661a495565b9450602086013561a66d8161a484565b9350604086013561a67d8161a484565b925061a68b6060870161a457565b915061a6996080870161a46d565b90509295509295909350565b6000806040838503121561a6b857600080fd5b61a6c18361a457565b915061a6cf6020840161a495565b90509250929050565b80356001600160401b038116811461a46857600080fd5b6000806000806000806000806000806000806101808d8f03121561a71257600080fd5b61a71b8d61a495565b9b5060208d013561a72b8161a484565b9a5060408d013561a73b8161a484565b995061a74960608e0161a457565b985061a75760808e0161a457565b975061a76560a08e0161a457565b965061a77360c08e0161a457565b955061a78160e08e0161a457565b945061a7906101008e0161a46d565b935061a79f6101208e0161a46d565b925061a7ae6101408e0161a46d565b915061a7bd6101608e0161a6d8565b90509295989b509295989b509295989b565b60008060008060008060c0878903121561a7e857600080fd5b61a7f18761a495565b955061a7ff6020880161a457565b945061a80d6040880161a457565b93506060870135925061a6136080880161a46d565b60008060006060848603121561a83757600080fd5b61a8408461a457565b925061a84e6020850161a46d565b915061a85c6040850161a495565b90509250925092565b60008060008060008060008060006101208a8c03121561a88457600080fd5b61a88d8a61a495565b985061a89b60208b0161a457565b975060408a013561a8ab8161a484565b965061a8b960608b0161a457565b955061a8c760808b0161a457565b945061a8d560a08b0161a457565b935061a8e360c08b0161a457565b925061a8f160e08b0161a46d565b915061a9006101008b0161a6d8565b90509295985092959850929598565b634e487b7160e01b600052601260045260246000fd5b60008261a9345761a93461a90f565b500690565b634e487b7160e01b600052603260045260246000fd5b634e487b7160e01b600052601160045260246000fd5b60006001820161a9775761a97761a94f565b5060010190565b8181038181111561a9915761a99161a94f565b92915050565b60006020828403121561a9a957600080fd5b5051919050565b8082018082111561a9915761a99161a94f565b808202811582820484141761a9915761a99161a94f565b60008151808452602080850194506020840160005b8381101561aa3757815180516001600160a01b03908116895284820151168489015260408082015190890152606090810151908801526080909601959082019060010161a9ef565b509495945050505050565b82815260406020820152600061aa5b604083018461a9da565b949350505050565b634e487b7160e01b600052603160045260246000fd5b60008161aa885761aa8861a94f565b506000190190565b634e487b7160e01b600052604160045260246000fd5b634e487b7160e01b600052602160045260246000fd5b60008261aacb5761aacb61a90f565b500490565b6003811061aae05761aae061aaa6565b9052565b6004811061aae05761aae061aaa6565b80518252602081015161ab0b602084018215159052565b50604081015161ab1f604084018215159052565b50606081015161ab32606084018261aad0565b50608081015161ab45608084018261aad0565b5060a081015161ab5860a084018261aae4565b5060c081015161ab6b60c084018261aad0565b5060e081015161ab8660e08401826001600160a01b03169052565b50610100818101519083015261012080820151908301526101408082015190830152610160808201519083015261018080820151908301526101a080820151908301526101c090810151910152565b6101e0810161a991828461aaf4565b6020808252825182820181905260009190848201906040850190845b8181101561ac1c5783518352928401929184019160010161ac00565b50909695505050505050565b6020808252825182820181905260009190848201906040850190845b8181101561ac1c5761ac5783855161aaf4565b928401926101e0929092019160010161ac44565b604051608081016001600160401b038111828210171561ac8d5761ac8d61aa90565b60405290565b60405161016081016001600160401b038111828210171561ac8d5761ac8d61aa90565b604080519081016001600160401b038111828210171561ac8d5761ac8d61aa90565b60405161022081016001600160401b038111828210171561ac8d5761ac8d61aa90565b604051606081016001600160401b038111828210171561ac8d5761ac8d61aa90565b604051601f8201601f191681016001600160401b038111828210171561ad455761ad4561aa90565b604052919050565b60006001600160401b0382111561ad665761ad6661aa90565b5060051b60200190565b6000602080838503121561ad8357600080fd5b82516001600160401b0381111561ad9957600080fd5b8301601f8101851361adaa57600080fd5b805161adbd61adb88261ad4d565b61ad1d565b81815260059190911b8201830190838101908783111561addc57600080fd5b928401925b8284101561adfa5783518252928401929084019061ade1565b979650505050505050565b600061ffff8084168061ae1a5761ae1a61a90f565b92169190910692915050565b61ffff81811683821601908082111561ae415761ae4161a94f565b5092915050565b63ffffffff81811683821602808216919082811461ae685761ae6861a94f565b505092915050565b80516001600160a01b038116811461a46857600080fd5b600082601f83011261ae9857600080fd5b8151602061aea861adb88361ad4d565b82815260079290921b8401810191818101908684111561aec757600080fd5b8286015b8481101561af1a576080818903121561aee45760008081fd5b61aeec61ac6b565b815181528482015185820152604080830151908201526060808301519082015283529183019160800161aecb565b509695505050505050565b600082601f83011261af3657600080fd5b8151602061af4661adb88361ad4d565b8083825260208201915060208460051b87010193508684111561af6857600080fd5b602086015b8481101561af1a5761af7e8161ae70565b835291830191830161af6d565b600082601f83011261af9c57600080fd5b8151602061afac61adb88361ad4d565b8083825260208201915060208460051b87010193508684111561afce57600080fd5b602086015b8481101561af1a578051835291830191830161afd3565b60006020828403121561affc57600080fd5b81516001600160401b038082111561b01357600080fd5b90830190610160828603121561b02857600080fd5b61b03061ac93565b61b0398361ae70565b815260208301518281111561b04d57600080fd5b61b0598782860161ae87565b60208301525060408301518281111561b07157600080fd5b61b07d8782860161af25565b60408301525060608301518281111561b09557600080fd5b61b0a18782860161af8b565b6060830152506080838101519082015260a0808401519082015260c0808401519082015260e08084015190820152610100808401519082015261012080840151908201526101409283015192810192909252509392505050565b6001600160a01b038316815260406020820181905260009061aa5b9083018461a9da565b80516003811061a46857600080fd5b80516004811061a46857600080fd5b805161a4688161a484565b6000602080838503121561b15b57600080fd5b82516001600160401b0381111561b17157600080fd5b8301601f8101851361b18257600080fd5b805161b19061adb88261ad4d565b818152610240918202830184019184820191908884111561b1b057600080fd5b938501935b8385101561b30b578489038181121561b1ce5760008081fd5b61b1d661acb6565b8651815261022080601f198401121561b1ef5760008081fd5b61b1f761acd8565b925061b20489890161ae70565b83526040808901518a850152606061b21d818b0161b11f565b828601526080915061b230828b0161b11f565b9085015260a061b2418a820161b12e565b8286015260c0915061b254828b0161b11f565b9085015260e061b2658a820161b13d565b82860152610100915061b279828b0161b13d565b9085015261012061b28b8a820161ae70565b828601526101409150818a01518186015250610160808a0151828601526101809150818a015181860152506101a0808a0151828601526101c09150818a015181860152506101e0808a0151828601526102009150818a0151818601525081890151818501525050818882015280855250508583019250808501945061b1b5565b50979650505050505050565b600060e0828403121561b32957600080fd5b60405160e081018181106001600160401b038211171561b34b5761b34b61aa90565b8060405250809150825181526020830151602082015260408301516040820152606083015160608201526080830151608082015260a083015160a082015260c083015160c08201525092915050565b6000602080838503121561b3ad57600080fd5b82516001600160401b0381111561b3c357600080fd5b8301601f8101851361b3d457600080fd5b805161b3e261adb88261ad4d565b818152610320918202830184019184820191908884111561b40257600080fd5b938501935b8385101561b30b578489038181121561b4205760008081fd5b61b42861acfb565b6102e08083121561b4395760008081fd5b61b44161acd8565b9250875183528888015189840152604061b45c818a0161b13d565b81850152606061b46d818b0161b13d565b90850152608061b47e8a820161ae70565b9085015260a061b48f8a820161ae70565b9085015260c061b4a08a820161ae70565b9085015260e08981015190850152610100808a015190850152610120808a015190850152610140808a015190850152610160808a015190850152610180808a0151908501526101a0808a0151908501526101c061b4ff8e828c0161b317565b908501526102a08901516101e08501526102c089015161020085015292825287015188820152610300870151918101919091528352938401939185019161b407565b60006020828403121561b55357600080fd5b6180768261ae70565b60006020808352835180602085015260005b8181101561b58a5785810183015185820160400152820161b56e565b506000604082860101526040601f19601f8301168501019250505092915050565b634e487b7160e01b600052600160045260246000fd5b6001600160601b0381811683821601908082111561ae415761ae4161a94f56fe0000000000000000000000007109709ecfa91a80626ff3989d68f67f5b1dd12d6163636f756e7446616365745f6465706f7369743a207465737420706173736564a264697066735822122079cbb7c1836e83fd8cba8177f48ddd418af8efbc039b5a9febf0c74b1a8d19f464736f6c6343000819003360806040526005805460ff1916601217905534801561001d57600080fd5b506040518060400160405280600d81526020016c09adec6d640ccdee440ae8aa89609b1b81525060126040518060400160405280600a81526020016926b7b1b5903a37b5b2b760b11b8152508281600390816100799190610146565b5060046100868282610146565b50506005805460ff191660ff9390931692909217909155506102059050565b634e487b7160e01b600052604160045260246000fd5b600181811c908216806100cf57607f821691505b6020821081036100ef57634e487b7160e01b600052602260045260246000fd5b50919050565b601f821115610141576000816000526020600020601f850160051c8101602086101561011e5750805b601f850160051c820191505b8181101561013d5782815560010161012a565b5050505b505050565b81516001600160401b0381111561015f5761015f6100a5565b6101738161016d84546100bb565b846100f5565b602080601f8311600181146101a857600084156101905750858301515b600019600386901b1c1916600185901b17855561013d565b600085815260208120601f198616915b828110156101d7578886015182559484019460019091019084016101b8565b50858210156101f55787850151600019600388901b60f8161c191681555b5050505050600190811b01905550565b610c2e806102146000396000f3fe6080604052600436106100e05760003560e01c806340c10f1911610084578063a457c2d711610056578063a457c2d714610270578063a9059cbb14610290578063d0e30db0146102b0578063dd62ed3e146102b857005b806340c10f19146101e557806370a082311461020557806395d89b411461023b5780639dc29fac1461025057005b806323b872dd116100bd57806323b872dd146101635780632e1a7d4d14610183578063313ce567146101a357806339509351146101c557005b806306fdde03146100e9578063095ea7b31461011457806318160ddd1461014457005b366100e757005b005b3480156100f557600080fd5b506100fe6102d8565b60405161010b9190610a5e565b60405180910390f35b34801561012057600080fd5b5061013461012f366004610ac9565b61036a565b604051901515815260200161010b565b34801561015057600080fd5b506002545b60405190815260200161010b565b34801561016f57600080fd5b5061013461017e366004610af3565b610384565b34801561018f57600080fd5b506100e761019e366004610b2f565b6103a8565b3480156101af57600080fd5b5060055460405160ff909116815260200161010b565b3480156101d157600080fd5b506101346101e0366004610ac9565b61042d565b3480156101f157600080fd5b506100e7610200366004610ac9565b61044f565b34801561021157600080fd5b50610155610220366004610b48565b6001600160a01b031660009081526020819052604090205490565b34801561024757600080fd5b506100fe610459565b34801561025c57600080fd5b506100e761026b366004610ac9565b610468565b34801561027c57600080fd5b5061013461028b366004610ac9565b610472565b34801561029c57600080fd5b506101346102ab366004610ac9565b6104ed565b6100e76104fb565b3480156102c457600080fd5b506101556102d3366004610b6a565b610507565b6060600380546102e790610b9d565b80601f016020809104026020016040519081016040528092919081815260200182805461031390610b9d565b80156103605780601f1061033557610100808354040283529160200191610360565b820191906000526020600020905b81548152906001019060200180831161034357829003601f168201915b5050505050905090565b600033610378818585610532565b60019150505b92915050565b600033610392858285610657565b61039d8585856106d1565b506001949350505050565b6103b23382610875565b604051600090339083908381818185875af1925050503d80600081146103f4576040519150601f19603f3d011682016040523d82523d6000602084013e6103f9565b606091505b5050905080610429576040516351134c8960e11b8152336004820152602481018390526044015b60405180910390fd5b5050565b6000336103788185856104408383610507565b61044a9190610bd7565b610532565b610429828261099f565b6060600480546102e790610b9d565b6104298282610875565b600033816104808286610507565b9050838110156104e05760405162461bcd60e51b815260206004820152602560248201527f45524332303a2064656372656173656420616c6c6f77616e63652062656c6f77604482015264207a65726f60d81b6064820152608401610420565b61039d8286868403610532565b6000336103788185856106d1565b610505333461099f565b565b6001600160a01b03918216600090815260016020908152604080832093909416825291909152205490565b6001600160a01b0383166105945760405162461bcd60e51b8152602060048201526024808201527f45524332303a20617070726f76652066726f6d20746865207a65726f206164646044820152637265737360e01b6064820152608401610420565b6001600160a01b0382166105f55760405162461bcd60e51b815260206004820152602260248201527f45524332303a20617070726f766520746f20746865207a65726f206164647265604482015261737360f01b6064820152608401610420565b6001600160a01b0383811660008181526001602090815260408083209487168084529482529182902085905590518481527f8c5be1e5ebec7d5bd14f71427d1e84f3dd0314c0f7b2291e5b200ac8c7c3b92591015b60405180910390a3505050565b60006106638484610507565b905060001981146106cb57818110156106be5760405162461bcd60e51b815260206004820152601d60248201527f45524332303a20696e73756666696369656e7420616c6c6f77616e63650000006044820152606401610420565b6106cb8484848403610532565b50505050565b6001600160a01b0383166107355760405162461bcd60e51b815260206004820152602560248201527f45524332303a207472616e736665722066726f6d20746865207a65726f206164604482015264647265737360d81b6064820152608401610420565b6001600160a01b0382166107975760405162461bcd60e51b815260206004820152602360248201527f45524332303a207472616e7366657220746f20746865207a65726f206164647260448201526265737360e81b6064820152608401610420565b6001600160a01b0383166000908152602081905260409020548181101561080f5760405162461bcd60e51b815260206004820152602660248201527f45524332303a207472616e7366657220616d6f756e7420657863656564732062604482015265616c616e636560d01b6064820152608401610420565b6001600160a01b03848116600081815260208181526040808320878703905593871680835291849020805487019055925185815290927fddf252ad1be2c89b69c2b068fc378daa952ba7f163c4a11628f55a4df523b3ef910160405180910390a36106cb565b6001600160a01b0382166108d55760405162461bcd60e51b815260206004820152602160248201527f45524332303a206275726e2066726f6d20746865207a65726f206164647265736044820152607360f81b6064820152608401610420565b6001600160a01b038216600090815260208190526040902054818110156109495760405162461bcd60e51b815260206004820152602260248201527f45524332303a206275726e20616d6f756e7420657863656564732062616c616e604482015261636560f01b6064820152608401610420565b6001600160a01b0383166000818152602081815260408083208686039055600280548790039055518581529192917fddf252ad1be2c89b69c2b068fc378daa952ba7f163c4a11628f55a4df523b3ef910161064a565b6001600160a01b0382166109f55760405162461bcd60e51b815260206004820152601f60248201527f45524332303a206d696e7420746f20746865207a65726f2061646472657373006044820152606401610420565b8060026000828254610a079190610bd7565b90915550506001600160a01b038216600081815260208181526040808320805486019055518481527fddf252ad1be2c89b69c2b068fc378daa952ba7f163c4a11628f55a4df523b3ef910160405180910390a35050565b60006020808352835180602085015260005b81811015610a8c57858101830151858201604001528201610a70565b506000604082860101526040601f19601f8301168501019250505092915050565b80356001600160a01b0381168114610ac457600080fd5b919050565b60008060408385031215610adc57600080fd5b610ae583610aad565b946020939093013593505050565b600080600060608486031215610b0857600080fd5b610b1184610aad565b9250610b1f60208501610aad565b9150604084013590509250925092565b600060208284031215610b4157600080fd5b5035919050565b600060208284031215610b5a57600080fd5b610b6382610aad565b9392505050565b60008060408385031215610b7d57600080fd5b610b8683610aad565b9150610b9460208401610aad565b90509250929050565b600181811c90821680610bb157607f821691505b602082108103610bd157634e487b7160e01b600052602260045260246000fd5b50919050565b8082018082111561037e57634e487b7160e01b600052601160045260246000fdfea2646970667358221220694afab354f2c8b521845081a940d7e858e7cf34a316e61907f589bc909f0d2564736f6c6343000819003360806040526005805460ff1916601217905534801561001d57600080fd5b50604051610e37380380610e3783398101604081905261003c916100c2565b60408051808201909152600a81526926b7b1b5903a37b5b2b760b11b602082015282600361006a8382610227565b5060046100778282610227565b50506005805460ff191660ff9390931692909217909155506102e69050565b634e487b7160e01b600052604160045260246000fd5b805160ff811681146100bd57600080fd5b919050565b600080604083850312156100d557600080fd5b82516001600160401b03808211156100ec57600080fd5b818501915085601f83011261010057600080fd5b81518181111561011257610112610096565b604051601f8201601f19908116603f0116810190838211818310171561013a5761013a610096565b8160405282815260209350888484870101111561015657600080fd5b600091505b82821015610178578482018401518183018501529083019061015b565b60008484830101528096505050506101918186016100ac565b925050509250929050565b600181811c908216806101b057607f821691505b6020821081036101d057634e487b7160e01b600052602260045260246000fd5b50919050565b601f821115610222576000816000526020600020601f850160051c810160208610156101ff5750805b601f850160051c820191505b8181101561021e5782815560010161020b565b5050505b505050565b81516001600160401b0381111561024057610240610096565b6102548161024e845461019c565b846101d6565b602080601f83116001811461028957600084156102715750858301515b600019600386901b1c1916600185901b17855561021e565b600085815260208120601f198616915b828110156102b857888601518255948401946001909101908401610299565b50858210156102d65787850151600019600388901b60f8161c191681555b5050505050600190811b01905550565b610b42806102f56000396000f3fe6080604052600436106100bd5760003560e01c806340c10f19116100795780639dc29fac116100565780639dc29fac1461020d578063a457c2d71461022d578063a9059cbb1461024d578063dd62ed3e1461026d57005b806340c10f19146101a257806370a08231146101c257806395d89b41146101f857005b806306fdde03146100c6578063095ea7b3146100f157806318160ddd1461012157806323b872dd14610140578063313ce56714610160578063395093511461018257005b366100c457005b005b3480156100d257600080fd5b506100db61028d565b6040516100e8919061098b565b60405180910390f35b3480156100fd57600080fd5b5061011161010c3660046109f6565b61031f565b60405190151581526020016100e8565b34801561012d57600080fd5b506002545b6040519081526020016100e8565b34801561014c57600080fd5b5061011161015b366004610a20565b610339565b34801561016c57600080fd5b5060055460405160ff90911681526020016100e8565b34801561018e57600080fd5b5061011161019d3660046109f6565b61035d565b3480156101ae57600080fd5b506100c46101bd3660046109f6565b61037f565b3480156101ce57600080fd5b506101326101dd366004610a5c565b6001600160a01b031660009081526020819052604090205490565b34801561020457600080fd5b506100db61038d565b34801561021957600080fd5b506100c46102283660046109f6565b61039c565b34801561023957600080fd5b506101116102483660046109f6565b6103a6565b34801561025957600080fd5b506101116102683660046109f6565b610426565b34801561027957600080fd5b50610132610288366004610a7e565b610434565b60606003805461029c90610ab1565b80601f01602080910402602001604051908101604052809291908181526020018280546102c890610ab1565b80156103155780601f106102ea57610100808354040283529160200191610315565b820191906000526020600020905b8154815290600101906020018083116102f857829003601f168201915b5050505050905090565b60003361032d81858561045f565b60019150505b92915050565b600033610347858285610584565b6103528585856105fe565b506001949350505050565b60003361032d8185856103708383610434565b61037a9190610aeb565b61045f565b61038982826107a2565b5050565b60606004805461029c90610ab1565b6103898282610861565b600033816103b48286610434565b9050838110156104195760405162461bcd60e51b815260206004820152602560248201527f45524332303a2064656372656173656420616c6c6f77616e63652062656c6f77604482015264207a65726f60d81b60648201526084015b60405180910390fd5b610352828686840361045f565b60003361032d8185856105fe565b6001600160a01b03918216600090815260016020908152604080832093909416825291909152205490565b6001600160a01b0383166104c15760405162461bcd60e51b8152602060048201526024808201527f45524332303a20617070726f76652066726f6d20746865207a65726f206164646044820152637265737360e01b6064820152608401610410565b6001600160a01b0382166105225760405162461bcd60e51b815260206004820152602260248201527f45524332303a20617070726f766520746f20746865207a65726f206164647265604482015261737360f01b6064820152608401610410565b6001600160a01b0383811660008181526001602090815260408083209487168084529482529182902085905590518481527f8c5be1e5ebec7d5bd14f71427d1e84f3dd0314c0f7b2291e5b200ac8c7c3b92591015b60405180910390a3505050565b60006105908484610434565b905060001981146105f857818110156105eb5760405162461bcd60e51b815260206004820152601d60248201527f45524332303a20696e73756666696369656e7420616c6c6f77616e63650000006044820152606401610410565b6105f8848484840361045f565b50505050565b6001600160a01b0383166106625760405162461bcd60e51b815260206004820152602560248201527f45524332303a207472616e736665722066726f6d20746865207a65726f206164604482015264647265737360d81b6064820152608401610410565b6001600160a01b0382166106c45760405162461bcd60e51b815260206004820152602360248201527f45524332303a207472616e7366657220746f20746865207a65726f206164647260448201526265737360e81b6064820152608401610410565b6001600160a01b0383166000908152602081905260409020548181101561073c5760405162461bcd60e51b815260206004820152602660248201527f45524332303a207472616e7366657220616d6f756e7420657863656564732062604482015265616c616e636560d01b6064820152608401610410565b6001600160a01b03848116600081815260208181526040808320878703905593871680835291849020805487019055925185815290927fddf252ad1be2c89b69c2b068fc378daa952ba7f163c4a11628f55a4df523b3ef910160405180910390a36105f8565b6001600160a01b0382166107f85760405162461bcd60e51b815260206004820152601f60248201527f45524332303a206d696e7420746f20746865207a65726f2061646472657373006044820152606401610410565b806002600082825461080a9190610aeb565b90915550506001600160a01b038216600081815260208181526040808320805486019055518481527fddf252ad1be2c89b69c2b068fc378daa952ba7f163c4a11628f55a4df523b3ef910160405180910390a35050565b6001600160a01b0382166108c15760405162461bcd60e51b815260206004820152602160248201527f45524332303a206275726e2066726f6d20746865207a65726f206164647265736044820152607360f81b6064820152608401610410565b6001600160a01b038216600090815260208190526040902054818110156109355760405162461bcd60e51b815260206004820152602260248201527f45524332303a206275726e20616d6f756e7420657863656564732062616c616e604482015261636560f01b6064820152608401610410565b6001600160a01b0383166000818152602081815260408083208686039055600280548790039055518581529192917fddf252ad1be2c89b69c2b068fc378daa952ba7f163c4a11628f55a4df523b3ef9101610577565b60006020808352835180602085015260005b818110156109b95785810183015185820160400152820161099d565b506000604082860101526040601f19601f8301168501019250505092915050565b80356001600160a01b03811681146109f157600080fd5b919050565b60008060408385031215610a0957600080fd5b610a12836109da565b946020939093013593505050565b600080600060608486031215610a3557600080fd5b610a3e846109da565b9250610a4c602085016109da565b9150604084013590509250925092565b600060208284031215610a6e57600080fd5b610a77826109da565b9392505050565b60008060408385031215610a9157600080fd5b610a9a836109da565b9150610aa8602084016109da565b90509250929050565b600181811c90821680610ac557607f821691505b602082108103610ae557634e487b7160e01b600052602260045260246000fd5b50919050565b8082018082111561033357634e487b7160e01b600052601160045260246000fdfea2646970667358221220bbe19ff4b3b5b3a7367183bf7a7f05443384abe78b28d6482fb6d4322d39c6a664736f6c63430008190033608060405234801561001057600080fd5b50604051610ad3380380610ad383398101604081905261002f91610100565b8061005a7fa49807205ce4d355092ef5a8a18f56e8913cf4a201fbe287825b095693c2177582610061565b5050610130565b6000828152602081815260408083206001600160a01b038516845290915290205460ff166100fc576000828152602081815260408083206001600160a01b03851684529091529020805460ff191660011790556100bb3390565b6001600160a01b0316816001600160a01b0316837f2f8788117e7eff1d82e926ec794901d17c78024a50270940304540a733656f0d60405160405180910390a45b5050565b60006020828403121561011257600080fd5b81516001600160a01b038116811461012957600080fd5b9392505050565b6109948061013f6000396000f3fe608060405234801561001057600080fd5b50600436106100a95760003560e01c806335bb3e161161007157806335bb3e161461014257806336568abe1461015557806375b238fc1461016857806391d148541461017d578063a217fddf14610190578063d547741f1461019857600080fd5b806301ffc9a7146100ae578063078d3b79146100d6578063248a9ca3146100eb5780632d3456701461011c5780632f2ff15d1461012f575b600080fd5b6100c16100bc36600461070d565b6101ab565b60405190151581526020015b60405180910390f35b6100e96100e4366004610753565b6101e2565b005b61010e6100f936600461078f565b60009081526020819052604090206001015490565b6040519081526020016100cd565b6100e961012a3660046107a8565b6102b3565b6100e961013d3660046107c3565b6102e7565b6100e96101503660046107a8565b610311565b6100e96101633660046107c3565b610341565b61010e60008051602061093f83398151915281565b6100c161018b3660046107c3565b6103bb565b61010e600081565b6100e96101a63660046107c3565b6103e4565b60006001600160e01b03198216637965db0b60e01b14806101dc57506301ffc9a760e01b6001600160e01b03198316145b92915050565b60008051602061093f8339815191526101fa81610409565b306001600160a01b0384160361023357604051638d6a597160e01b81526001600160a01b03841660048201526024015b60405180910390fd5b6040516317d5759960e31b81526001600160a01b038086166004830152841660248201526044810183905273__$37ba7fa00e1775c4c1178ee9b1b75f62af$__9063beabacc89060640160006040518083038186803b15801561029557600080fd5b505af41580156102a9573d6000803e3d6000fd5b5050505050505050565b60008051602061093f8339815191526102cb81610409565b6102e360008051602061093f83398151915283610416565b5050565b60008281526020819052604090206001015461030281610409565b61030c838361047b565b505050565b60008051602061093f83398151915261032981610409565b6102e360008051602061093f8339815191528361047b565b6001600160a01b03811633146103b15760405162461bcd60e51b815260206004820152602f60248201527f416363657373436f6e74726f6c3a2063616e206f6e6c792072656e6f756e636560448201526e103937b632b9903337b91039b2b63360891b606482015260840161022a565b6102e38282610416565b6000918252602082815260408084206001600160a01b0393909316845291905290205460ff1690565b6000828152602081905260409020600101546103ff81610409565b61030c8383610416565b61041381336104ff565b50565b61042082826103bb565b156102e3576000828152602081815260408083206001600160a01b0385168085529252808320805460ff1916905551339285917ff6391f5c32d9c69d2a47ea670b442974b53935d1edc7fd64eb21e047a839171b9190a45050565b61048582826103bb565b6102e3576000828152602081815260408083206001600160a01b03851684529091529020805460ff191660011790556104bb3390565b6001600160a01b0316816001600160a01b0316837f2f8788117e7eff1d82e926ec794901d17c78024a50270940304540a733656f0d60405160405180910390a45050565b61050982826103bb565b6102e35761051681610558565b61052183602061056a565b604051602001610532929190610813565b60408051601f198184030181529082905262461bcd60e51b825261022a91600401610888565b60606101dc6001600160a01b03831660145b606060006105798360026108d1565b6105849060026108e8565b67ffffffffffffffff81111561059c5761059c6108fb565b6040519080825280601f01601f1916602001820160405280156105c6576020820181803683370190505b509050600360fc1b816000815181106105e1576105e1610911565b60200101906001600160f81b031916908160001a905350600f60fb1b8160018151811061061057610610610911565b60200101906001600160f81b031916908160001a90535060006106348460026108d1565b61063f9060016108e8565b90505b60018111156106b7576f181899199a1a9b1b9c1cb0b131b232b360811b85600f166010811061067357610673610911565b1a60f81b82828151811061068957610689610911565b60200101906001600160f81b031916908160001a90535060049490941c936106b081610927565b9050610642565b5083156107065760405162461bcd60e51b815260206004820181905260248201527f537472696e67733a20686578206c656e67746820696e73756666696369656e74604482015260640161022a565b9392505050565b60006020828403121561071f57600080fd5b81356001600160e01b03198116811461070657600080fd5b80356001600160a01b038116811461074e57600080fd5b919050565b60008060006060848603121561076857600080fd5b61077184610737565b925061077f60208501610737565b9150604084013590509250925092565b6000602082840312156107a157600080fd5b5035919050565b6000602082840312156107ba57600080fd5b61070682610737565b600080604083850312156107d657600080fd5b823591506107e660208401610737565b90509250929050565b60005b8381101561080a5781810151838201526020016107f2565b50506000910152565b7f416363657373436f6e74726f6c3a206163636f756e742000000000000000000081526000835161084b8160178501602088016107ef565b7001034b99036b4b9b9b4b733903937b6329607d1b601791840191820152835161087c8160288401602088016107ef565b01602801949350505050565b60208152600082518060208401526108a78160408501602087016107ef565b601f01601f19169190910160400192915050565b634e487b7160e01b600052601160045260246000fd5b80820281158282048414176101dc576101dc6108bb565b808201808211156101dc576101dc6108bb565b634e487b7160e01b600052604160045260246000fd5b634e487b7160e01b600052603260045260246000fd5b600081610936576109366108bb565b50600019019056fea49807205ce4d355092ef5a8a18f56e8913cf4a201fbe287825b095693c21775a26469706673582212200982414401b8578f0ca632c1c8ddcaae2106174e1c43041fa08b646d07245dab64736f6c63430008190033608060405234801561001057600080fd5b50604051610ad3380380610ad383398101604081905261002f91610100565b8061005a7fa49807205ce4d355092ef5a8a18f56e8913cf4a201fbe287825b095693c2177582610061565b5050610130565b6000828152602081815260408083206001600160a01b038516845290915290205460ff166100fc576000828152602081815260408083206001600160a01b03851684529091529020805460ff191660011790556100bb3390565b6001600160a01b0316816001600160a01b0316837f2f8788117e7eff1d82e926ec794901d17c78024a50270940304540a733656f0d60405160405180910390a45b5050565b60006020828403121561011257600080fd5b81516001600160a01b038116811461012957600080fd5b9392505050565b6109948061013f6000396000f3fe608060405234801561001057600080fd5b50600436106100a95760003560e01c806335bb3e161161007157806335bb3e161461014257806336568abe1461015557806375b238fc1461016857806391d148541461017d578063a217fddf14610190578063d547741f1461019857600080fd5b806301ffc9a7146100ae578063078d3b79146100d6578063248a9ca3146100eb5780632d3456701461011c5780632f2ff15d1461012f575b600080fd5b6100c16100bc36600461070d565b6101ab565b60405190151581526020015b60405180910390f35b6100e96100e4366004610753565b6101e2565b005b61010e6100f936600461078f565b60009081526020819052604090206001015490565b6040519081526020016100cd565b6100e961012a3660046107a8565b6102b3565b6100e961013d3660046107c3565b6102e7565b6100e96101503660046107a8565b610311565b6100e96101633660046107c3565b610341565b61010e60008051602061093f83398151915281565b6100c161018b3660046107c3565b6103bb565b61010e600081565b6100e96101a63660046107c3565b6103e4565b60006001600160e01b03198216637965db0b60e01b14806101dc57506301ffc9a760e01b6001600160e01b03198316145b92915050565b60008051602061093f8339815191526101fa81610409565b306001600160a01b0384160361023357604051638d6a597160e01b81526001600160a01b03841660048201526024015b60405180910390fd5b6040516317d5759960e31b81526001600160a01b038086166004830152841660248201526044810183905273__$37ba7fa00e1775c4c1178ee9b1b75f62af$__9063beabacc89060640160006040518083038186803b15801561029557600080fd5b505af41580156102a9573d6000803e3d6000fd5b5050505050505050565b60008051602061093f8339815191526102cb81610409565b6102e360008051602061093f83398151915283610416565b5050565b60008281526020819052604090206001015461030281610409565b61030c838361047b565b505050565b60008051602061093f83398151915261032981610409565b6102e360008051602061093f8339815191528361047b565b6001600160a01b03811633146103b15760405162461bcd60e51b815260206004820152602f60248201527f416363657373436f6e74726f6c3a2063616e206f6e6c792072656e6f756e636560448201526e103937b632b9903337b91039b2b63360891b606482015260840161022a565b6102e38282610416565b6000918252602082815260408084206001600160a01b0393909316845291905290205460ff1690565b6000828152602081905260409020600101546103ff81610409565b61030c8383610416565b61041381336104ff565b50565b61042082826103bb565b156102e3576000828152602081815260408083206001600160a01b0385168085529252808320805460ff1916905551339285917ff6391f5c32d9c69d2a47ea670b442974b53935d1edc7fd64eb21e047a839171b9190a45050565b61048582826103bb565b6102e3576000828152602081815260408083206001600160a01b03851684529091529020805460ff191660011790556104bb3390565b6001600160a01b0316816001600160a01b0316837f2f8788117e7eff1d82e926ec794901d17c78024a50270940304540a733656f0d60405160405180910390a45050565b61050982826103bb565b6102e35761051681610558565b61052183602061056a565b604051602001610532929190610813565b60408051601f198184030181529082905262461bcd60e51b825261022a91600401610888565b60606101dc6001600160a01b03831660145b606060006105798360026108d1565b6105849060026108e8565b67ffffffffffffffff81111561059c5761059c6108fb565b6040519080825280601f01601f1916602001820160405280156105c6576020820181803683370190505b509050600360fc1b816000815181106105e1576105e1610911565b60200101906001600160f81b031916908160001a905350600f60fb1b8160018151811061061057610610610911565b60200101906001600160f81b031916908160001a90535060006106348460026108d1565b61063f9060016108e8565b90505b60018111156106b7576f181899199a1a9b1b9c1cb0b131b232b360811b85600f166010811061067357610673610911565b1a60f81b82828151811061068957610689610911565b60200101906001600160f81b031916908160001a90535060049490941c936106b081610927565b9050610642565b5083156107065760405162461bcd60e51b815260206004820181905260248201527f537472696e67733a20686578206c656e67746820696e73756666696369656e74604482015260640161022a565b9392505050565b60006020828403121561071f57600080fd5b81356001600160e01b03198116811461070657600080fd5b80356001600160a01b038116811461074e57600080fd5b919050565b60008060006060848603121561076857600080fd5b61077184610737565b925061077f60208501610737565b9150604084013590509250925092565b6000602082840312156107a157600080fd5b5035919050565b6000602082840312156107ba57600080fd5b61070682610737565b600080604083850312156107d657600080fd5b823591506107e660208401610737565b90509250929050565b60005b8381101561080a5781810151838201526020016107f2565b50506000910152565b7f416363657373436f6e74726f6c3a206163636f756e742000000000000000000081526000835161084b8160178501602088016107ef565b7001034b99036b4b9b9b4b733903937b6329607d1b601791840191820152835161087c8160288401602088016107ef565b01602801949350505050565b60208152600082518060208401526108a78160408501602087016107ef565b601f01601f19169190910160400192915050565b634e487b7160e01b600052601160045260246000fd5b80820281158282048414176101dc576101dc6108bb565b808201808211156101dc576101dc6108bb565b634e487b7160e01b600052604160045260246000fd5b634e487b7160e01b600052603260045260246000fd5b600081610936576109366108bb565b50600019019056fea49807205ce4d355092ef5a8a18f56e8913cf4a201fbe287825b095693c21775a2646970667358221220b230324905bed288863df737d35d51763bd2e15c7d920d137d5bf9cb2166fd9d64736f6c63430008190033608060405234801561001057600080fd5b50604051610ad3380380610ad383398101604081905261002f91610100565b8061005a7fa49807205ce4d355092ef5a8a18f56e8913cf4a201fbe287825b095693c2177582610061565b5050610130565b6000828152602081815260408083206001600160a01b038516845290915290205460ff166100fc576000828152602081815260408083206001600160a01b03851684529091529020805460ff191660011790556100bb3390565b6001600160a01b0316816001600160a01b0316837f2f8788117e7eff1d82e926ec794901d17c78024a50270940304540a733656f0d60405160405180910390a45b5050565b60006020828403121561011257600080fd5b81516001600160a01b038116811461012957600080fd5b9392505050565b6109948061013f6000396000f3fe608060405234801561001057600080fd5b50600436106100a95760003560e01c806335bb3e161161007157806335bb3e161461014257806336568abe1461015557806375b238fc1461016857806391d148541461017d578063a217fddf14610190578063d547741f1461019857600080fd5b806301ffc9a7146100ae578063078d3b79146100d6578063248a9ca3146100eb5780632d3456701461011c5780632f2ff15d1461012f575b600080fd5b6100c16100bc36600461070d565b6101ab565b60405190151581526020015b60405180910390f35b6100e96100e4366004610753565b6101e2565b005b61010e6100f936600461078f565b60009081526020819052604090206001015490565b6040519081526020016100cd565b6100e961012a3660046107a8565b6102b3565b6100e961013d3660046107c3565b6102e7565b6100e96101503660046107a8565b610311565b6100e96101633660046107c3565b610341565b61010e60008051602061093f83398151915281565b6100c161018b3660046107c3565b6103bb565b61010e600081565b6100e96101a63660046107c3565b6103e4565b60006001600160e01b03198216637965db0b60e01b14806101dc57506301ffc9a760e01b6001600160e01b03198316145b92915050565b60008051602061093f8339815191526101fa81610409565b306001600160a01b0384160361023357604051638d6a597160e01b81526001600160a01b03841660048201526024015b60405180910390fd5b6040516317d5759960e31b81526001600160a01b038086166004830152841660248201526044810183905273__$37ba7fa00e1775c4c1178ee9b1b75f62af$__9063beabacc89060640160006040518083038186803b15801561029557600080fd5b505af41580156102a9573d6000803e3d6000fd5b5050505050505050565b60008051602061093f8339815191526102cb81610409565b6102e360008051602061093f83398151915283610416565b5050565b60008281526020819052604090206001015461030281610409565b61030c838361047b565b505050565b60008051602061093f83398151915261032981610409565b6102e360008051602061093f8339815191528361047b565b6001600160a01b03811633146103b15760405162461bcd60e51b815260206004820152602f60248201527f416363657373436f6e74726f6c3a2063616e206f6e6c792072656e6f756e636560448201526e103937b632b9903337b91039b2b63360891b606482015260840161022a565b6102e38282610416565b6000918252602082815260408084206001600160a01b0393909316845291905290205460ff1690565b6000828152602081905260409020600101546103ff81610409565b61030c8383610416565b61041381336104ff565b50565b61042082826103bb565b156102e3576000828152602081815260408083206001600160a01b0385168085529252808320805460ff1916905551339285917ff6391f5c32d9c69d2a47ea670b442974b53935d1edc7fd64eb21e047a839171b9190a45050565b61048582826103bb565b6102e3576000828152602081815260408083206001600160a01b03851684529091529020805460ff191660011790556104bb3390565b6001600160a01b0316816001600160a01b0316837f2f8788117e7eff1d82e926ec794901d17c78024a50270940304540a733656f0d60405160405180910390a45050565b61050982826103bb565b6102e35761051681610558565b61052183602061056a565b604051602001610532929190610813565b60408051601f198184030181529082905262461bcd60e51b825261022a91600401610888565b60606101dc6001600160a01b03831660145b606060006105798360026108d1565b6105849060026108e8565b67ffffffffffffffff81111561059c5761059c6108fb565b6040519080825280601f01601f1916602001820160405280156105c6576020820181803683370190505b509050600360fc1b816000815181106105e1576105e1610911565b60200101906001600160f81b031916908160001a905350600f60fb1b8160018151811061061057610610610911565b60200101906001600160f81b031916908160001a90535060006106348460026108d1565b61063f9060016108e8565b90505b60018111156106b7576f181899199a1a9b1b9c1cb0b131b232b360811b85600f166010811061067357610673610911565b1a60f81b82828151811061068957610689610911565b60200101906001600160f81b031916908160001a90535060049490941c936106b081610927565b9050610642565b5083156107065760405162461bcd60e51b815260206004820181905260248201527f537472696e67733a20686578206c656e67746820696e73756666696369656e74604482015260640161022a565b9392505050565b60006020828403121561071f57600080fd5b81356001600160e01b03198116811461070657600080fd5b80356001600160a01b038116811461074e57600080fd5b919050565b60008060006060848603121561076857600080fd5b61077184610737565b925061077f60208501610737565b9150604084013590509250925092565b6000602082840312156107a157600080fd5b5035919050565b6000602082840312156107ba57600080fd5b61070682610737565b600080604083850312156107d657600080fd5b823591506107e660208401610737565b90509250929050565b60005b8381101561080a5781810151838201526020016107f2565b50506000910152565b7f416363657373436f6e74726f6c3a206163636f756e742000000000000000000081526000835161084b8160178501602088016107ef565b7001034b99036b4b9b9b4b733903937b6329607d1b601791840191820152835161087c8160288401602088016107ef565b01602801949350505050565b60208152600082518060208401526108a78160408501602087016107ef565b601f01601f19169190910160400192915050565b634e487b7160e01b600052601160045260246000fd5b80820281158282048414176101dc576101dc6108bb565b808201808211156101dc576101dc6108bb565b634e487b7160e01b600052604160045260246000fd5b634e487b7160e01b600052603260045260246000fd5b600081610936576109366108bb565b50600019019056fea49807205ce4d355092ef5a8a18f56e8913cf4a201fbe287825b095693c21775a2646970667358221220b189eb23ca38727dba4e5bffa939905c6427db78096a185249cf479ecdd8770264736f6c634300081900336080604052348015600f57600080fd5b5061011c8061001f6000396000f3fe6080604052348015600f57600080fd5b506004361060285760003560e01c8063e1c7392a14602d575b600080fd5b60e47fdab92b47c5ad1b8db72bf159fe8f1c5404b027a749c8120fa1db90a19db432506020527fb46b76674e207a68011f6dd4115a7d36585809e7100bf87f994f14761fc0bda38054600160ff1991821681179092557fd89dcb904de2ee5a64c455edf3aa8fa4accba0b29a38ebf28a59561a672287a880548216831790556348e2b09360e01b6000527fc2279572da5bef2fd6de7c5d89bb24597ca4c054256566f0be85b2409cffd2d080549091169091179055565b00fea2646970667358221220acb6feaa43ebb57767b9d7fed2bef95b20282e8febb4007e5cce5d88cba0162e64736f6c63430008190033608060405260405161106738038061106783398101604081905261002291610bfd565b610034816420a226a4a760d91b6102a0565b60408051600280825260608201909252600091816020015b6040805160608082018352600080835260208301529181019190915281526020019060019003908161004c5750506040805160018082528183019092529192506000919060208083019080368337019050509050631f931c1c60e01b816000815181106100bb576100bb610c51565b6001600160e01b031990921660209283029190910182015260408051606081019091526001600160a01b038816815290810160008152602001828152508260008151811061010b5761010b610c51565b602090810291909101015260408051600480825260a08201909252600091816020016020820280368337019050509050637a0ed62760e01b8160008151811061015657610156610c51565b6001600160e01b03199092166020928302919091019091015280516314bbdacb60e21b908290600190811061018d5761018d610c51565b6001600160e01b03199092166020928302919091019091015280516366ffd66360e11b90829060029081106101c4576101c4610c51565b6001600160e01b03199092166020928302919091019091015280516356fe50af60e11b90829060039081106101fb576101fb610c51565b6001600160e01b031990921660209283029190910182015260408051606081019091526001600160a01b038816815290810160008152602001828152508360018151811061024b5761024b610c51565b60209081029190910181019190915260408051600481526024810190915290810180516001600160e01b039081166370e39c9560e11b179091526102949185918891906102d516565b50505050505050610eca565b60006102aa61047f565b6001600160a01b03841660009081526020829052604090209091506102cf90836104e1565b50505050565b60005b83518110156104345760008482815181106102f5576102f5610c51565b6020026020010151604001519050600085838151811061031757610317610c51565b602002602001015160000151905081516000036103575760405163e767f91f60e01b81526001600160a01b03821660048201526024015b60405180910390fd5b600086848151811061036b5761036b610c51565b60200260200101516020015190506000600281111561038c5761038c610c67565b81600281111561039e5761039e610c67565b036103b2576103ad82846104f6565b610429565b60018160028111156103c6576103c6610c67565b036103d5576103ad82846106a2565b60028160028111156103e9576103e9610c67565b036103f8576103ad8284610825565b80600281111561040a5761040a610c67565b604051633ff4d20f60e11b815260ff909116600482015260240161034e565b5050506001016102d8565b507f8faa70878671ccd212d20771b795c50af8fd3ff6cf27f4bde57e5d4de0aeb67383838360405161046893929190610ccd565b60405180910390a161047a8282610aa4565b505050565b6000806040516020016104c3906020808252601e908201527f78797a2e656c66692e73746f726167652e416363657373436f6e74726f6c0000604082015260600190565b60408051601f19818403018152919052805160209091012092915050565b60006104ed8383610b6a565b90505b92915050565b6001600160a01b03821661051f57806040516302b8da0760e21b815260040161034e9190610dd0565b60008051602061101f8339815191525460408051606081019091526024808252600080516020610fb3833981519152929161056491869190610fd36020830139610bb9565b60005b835181101561069b57600084828151811061058457610584610c51565b6020908102919091018101516001600160e01b031981166000908152918690526040909120549091506001600160a01b031680156105e15760405163ebbf5d0760e01b81526001600160e01b03198316600482015260240161034e565b6040805180820182526001600160a01b03808a16825261ffff80881660208085019182526001600160e01b0319881660009081528b8252958620945185549251909316600160a01b026001600160b01b0319909216929093169190911717909155600180880180549182018155835291206008820401805460e085901c60046007909416939093026101000a92830263ffffffff90930219169190911790558361068a81610e34565b945050600190920191506105679050565b5050505050565b600080516020610fb38339815191526001600160a01b0383166106da578160405163cd98a96f60e01b815260040161034e9190610dd0565b6106fc8360405180606001604052806028815260200161103f60289139610bb9565b60005b82518110156102cf57600083828151811061071c5761071c610c51565b6020908102919091018101516001600160e01b031981166000908152918590526040909120549091506001600160a01b031630810361077a57604051632901806d60e11b81526001600160e01b03198316600482015260240161034e565b856001600160a01b0316816001600160a01b0316036107b857604051631ac6ce8d60e11b81526001600160e01b03198316600482015260240161034e565b6001600160a01b0381166107eb57604051637479f93960e01b81526001600160e01b03198316600482015260240161034e565b506001600160e01b031916600090815260208390526040902080546001600160a01b0319166001600160a01b0386161790556001016106ff565b60008051602061101f83398151915254600080516020610fb3833981519152906001600160a01b038416156108785760405163d091bc8160e01b81526001600160a01b038516600482015260240161034e565b60005b835181101561069b57600084828151811061089857610898610c51565b6020908102919091018101516001600160e01b0319811660009081528683526040908190208151808301909252546001600160a01b038116808352600160a01b90910461ffff16938201939093529092509061091357604051637a08a22d60e01b81526001600160e01b03198316600482015260240161034e565b8051306001600160a01b039091160361094b57604051630df5fd6160e31b81526001600160e01b03198316600482015260240161034e565b8361095581610e55565b94505083816020015161ffff1614610a3357600085600101858154811061097e5761097e610c51565b90600052602060002090600891828204019190066004029054906101000a900460e01b90508086600101836020015161ffff16815481106109c1576109c1610c51565b600091825260208083206008830401805463ffffffff60079094166004026101000a938402191660e09590951c92909202939093179055838201516001600160e01b03199390931681529087905260409020805461ffff60a01b1916600160a01b61ffff909316929092029190911790555b84600101805480610a4657610a46610e6c565b60008281526020808220600860001990940193840401805463ffffffff600460078716026101000a0219169055919092556001600160e01b0319909316815291859052506040902080546001600160b01b031916905560010161087b565b6001600160a01b038216610ab6575050565b610ad882604051806060016040528060288152602001610ff760289139610bb9565b600080836001600160a01b031683604051610af39190610e82565b600060405180830381855af49150503d8060008114610b2e576040519150601f19603f3d011682016040523d82523d6000602084013e610b33565b606091505b5091509150816102cf57805115610b4d5780518082602001fd5b838360405163192105d760e01b815260040161034e929190610e9e565b6000818152600183016020526040812054610bb1575081546001818101845560008481526020808220909301849055845484825282860190935260409020919091556104f0565b5060006104f0565b813b600081900361047a57828260405163919834b960e01b815260040161034e929190610e9e565b80516001600160a01b0381168114610bf857600080fd5b919050565b60008060008060808587031215610c1357600080fd5b610c1c85610be1565b9350610c2a60208601610be1565b9250610c3860408601610be1565b9150610c4660608601610be1565b905092959194509250565b634e487b7160e01b600052603260045260246000fd5b634e487b7160e01b600052602160045260246000fd5b60005b83811015610c98578181015183820152602001610c80565b50506000910152565b60008151808452610cb9816020860160208601610c7d565b601f01601f19169290920160200192915050565b60006060808301606084528087518083526080925060808601915060808160051b8701016020808b0160005b84811015610da057898403607f19018652815180516001600160a01b03168552838101518986019060038110610d3f57634e487b7160e01b600052602160045260246000fd5b868601526040918201519186018a905281519081905290840190600090898701905b80831015610d8b5783516001600160e01b0319168252928601926001929092019190860190610d61565b50978501979550505090820190600101610cf9565b50506001600160a01b038a16908801528681036040880152610dc28189610ca1565b9a9950505050505050505050565b6020808252825182820181905260009190848201906040850190845b81811015610e125783516001600160e01b03191683529284019291840191600101610dec565b50909695505050505050565b634e487b7160e01b600052601160045260246000fd5b600061ffff808316818103610e4b57610e4b610e1e565b6001019392505050565b600081610e6457610e64610e1e565b506000190190565b634e487b7160e01b600052603160045260246000fd5b60008251610e94818460208701610c7d565b9190910192915050565b6001600160a01b0383168152604060208201819052600090610ec290830184610ca1565b949350505050565b60db80610ed86000396000f3fe608060405236600a57005b60007fdab92b47c5ad1b8db72bf159fe8f1c5404b027a749c8120fa1db90a19db4324e600080356001600160e01b0319168152602082905260409020549091506001600160a01b031680608257604051630a82dd7360e31b81526001600160e01b031960003516600482015260240160405180910390fd5b3660008037600080366000845af43d6000803e80801560a0573d6000f35b3d6000fdfea2646970667358221220020e864faa78ef8638dd8569278bbfe5d794556ad27cdeb3e1d68d2ea386d69f64736f6c63430008190033dab92b47c5ad1b8db72bf159fe8f1c5404b027a749c8120fa1db90a19db4324e4c69624469616d6f6e644375743a2041646420666163657420686173206e6f20636f64654c69624469616d6f6e644375743a205f696e6974206164647265737320686173206e6f20636f6465dab92b47c5ad1b8db72bf159fe8f1c5404b027a749c8120fa1db90a19db4324f4c69624469616d6f6e644375743a205265706c61636520666163657420686173206e6f20636f64656080604052348015600f57600080fd5b50611d188061001f6000396000f3fe6080604052600436106100745760003560e01c806347e7ef241161004e57806347e7ef24146100e2578063750b5a19146100f55780637b510fe814610128578063abac56651461015557600080fd5b806302e9d19914610080578063115647f7146100a257806313874d37146100c257600080fd5b3661007b57005b600080fd5b34801561008c57600080fd5b506100a061009b3660046113bc565b610175565b005b3480156100ae57600080fd5b506100a06100bd366004611407565b61035d565b3480156100ce57600080fd5b506100a06100dd366004611441565b610445565b6100a06100f0366004611478565b610568565b34801561010157600080fd5b50610115610110366004611478565b61077e565b6040519081526020015b60405180910390f35b34801561013457600080fd5b506101486101433660046114a4565b610896565b60405161011f9190611588565b34801561016157600080fd5b5061014861017036600461165d565b610c5b565b6101876525a2a2a822a960d11b61122e565b604051634a83e9cd60e11b81526004810184905260009073__$83cf1728bd700ee00b2b1fab9d79aec544$__90639507d39a90602401606060405180830381865af41580156101da573d6000803e3d6000fd5b505050506040513d601f19601f820116820180604052508101906101fe9190611717565b80519091506001600160a01b0316610229576040516324d9d15b60e01b815260040160405180910390fd5b604051631d4cb62f60e21b815273__$bb4e55f00c0f45d2719800850b371b8ff8$__90637532d8bc9061026290869086906004016117ea565b60006040518083038186803b15801561027a57600080fd5b505af415801561028e573d6000803e3d6000fd5b5050604051632c7dadbd60e21b815273__$ea03dc6e7176064baf45a14dcf3b0b0296$__925063b1f6b6f491506102cb90879085906004016117fe565b60006040518083038186803b1580156102e357600080fd5b505af41580156102f7573d6000803e3d6000fd5b5050505073__$bb4e55f00c0f45d2719800850b371b8ff8$__63e52ed3656040518163ffffffff1660e01b815260040160006040518083038186803b15801561033f57600080fd5b505af4158015610353573d6000803e3d6000fd5b5050505050505050565b73__$6da87a77f33546d3f0e6244a8f7078a532$__637ff8770061038460208401846114a4565b6040516001600160e01b031960e084901b1681526001600160a01b03909116600482015260240160006040518083038186803b1580156103c357600080fd5b505af41580156103d7573d6000803e3d6000fd5b505060405163eec5b28760e01b815273__$ea03dc6e7176064baf45a14dcf3b0b0296$__925063eec5b287915061041290849060040161187c565b60006040518083038186803b15801561042a57600080fd5b505af415801561043e573d6000803e3d6000fd5b5050505050565b6104576525a2a2a822a960d11b61122e565b604051634a83e9cd60e11b81526004810183905260009073__$83cf1728bd700ee00b2b1fab9d79aec544$__90639507d39a90602401606060405180830381865af41580156104aa573d6000803e3d6000fd5b505050506040513d601f19601f820116820180604052508101906104ce9190611717565b80519091506001600160a01b03166104f9576040516324d9d15b60e01b815260040160405180910390fd5b60405162b5903160e31b815273__$ea03dc6e7176064baf45a14dcf3b0b0296$__906305ac8188906105339086908590879060040161193b565b60006040518083038186803b15801561054b57600080fd5b505af415801561055f573d6000803e3d6000fd5b50505050505050565b8060000361058957604051630b4fc37360e11b815260040160405180910390fd5b6001600160a01b038216158080156105a15750813414155b156105cd57604051630cca541d60e11b8152346004820152602481018390526044015b60405180910390fd5b80158015610656575060405163e981fddd60e01b81526001600160a01b038416600482015273__$74cab1088a768f44346aa8a34ab8d56734$__9063e981fddd9060240161012060405180830381865af415801561062f573d6000803e3d6000fd5b505050506040513d601f19601f82011682018060405250810190610653919061198f565b51155b156106745760405163219fc4b560e11b815260040160405180910390fd5b600033905073__$ea03dc6e7176064baf45a14dcf3b0b0296$__63996dd59e6040518060a00160405280846001600160a01b03168152602001856106b85787610728565b73__$bda6750164d46530feeed1122c24ac1a13$__63606c0c946040518163ffffffff1660e01b815260040161012060405180830381865af4158015610702573d6000803e3d6000fd5b505050506040513d601f19601f820116820180604052508101906107269190611a11565b515b6001600160a01b0316815260208101879052604001600081526020018515158152506040518263ffffffff1660e01b81526004016107669190611a35565b60006040518083038186803b15801561033f57600080fd5b604051627ff87760e81b81526001600160a01b038316600482015260009073__$6da87a77f33546d3f0e6244a8f7078a532$__90637ff877009060240160006040518083038186803b1580156107d357600080fd5b505af41580156107e7573d6000803e3d6000fd5b505050508160000361080c57604051630b4fc37360e11b815260040160405180910390fd5b60405163750b5a1960e01b81526001600160a01b03841660048201526024810183905273__$ea03dc6e7176064baf45a14dcf3b0b0296$__9063750b5a1990604401602060405180830381865af415801561086b573d6000803e3d6000fd5b505050506040513d601f19601f8201168201806040525081019061088f9190611a9c565b9392505050565b61089e61130e565b604051630bd039cd60e21b81526001600160a01b038316600482015260009073__$1dcbc4e76af7484d3342475f6e32ea9921$__90632f40e73490602401602060405180830381865af41580156108f9573d6000803e3d6000fd5b505050506040513d601f19601f8201168201806040525081019061091d9190611a9c565b905061092761130e565b604051637f80ceb160e01b81526004810183905273__$1dcbc4e76af7484d3342475f6e32ea9921$__90637f80ceb190602401602060405180830381865af4158015610977573d6000803e3d6000fd5b505050506040513d601f19601f8201168201806040525081019061099b9190611ab5565b6109a6579392505050565b60405163b2485df360e01b81526004810183905260009073__$1dcbc4e76af7484d3342475f6e32ea9921$__9063b2485df390602401600060405180830381865af41580156109f9573d6000803e3d6000fd5b505050506040513d6000823e601f3d908101601f19168201604052610a219190810190611af3565b9050600081516001600160401b03811115610a3e57610a3e611698565b604051908082528060200260200182016040528015610a9a57816020015b610a876040518060800160405280600081526020016000815260200160008152602001600081525090565b815260200190600190039081610a5c5790505b50905060005b8251811015610b75578473__$1dcbc4e76af7484d3342475f6e32ea9921$__63a68524569091858481518110610ad857610ad8611b91565b60200260200101516040518363ffffffff1660e01b8152600401610b0f9291909182526001600160a01b0316602082015260400190565b608060405180830381865af4158015610b2c573d6000803e3d6000fd5b505050506040513d601f19601f82011682018060405250810190610b509190611ba7565b828281518110610b6257610b62611b91565b6020908102919091010152600101610aa0565b506040516335cd115160e01b81526004810185905260009073__$1dcbc4e76af7484d3342475f6e32ea9921$__906335cd115190602401600060405180830381865af4158015610bc9573d6000803e3d6000fd5b505050506040513d6000823e601f3d908101601f19168201604052610bf19190810190611c0c565b60408051610160810182526001600160a01b0390991689526020890193909352918701929092526060860152505060006080840181905260a0840181905260c0840181905260019091015460e0840152610100830181905261012083018190526101408301525090565b610c6361130e565b604051630bd039cd60e21b81526001600160a01b038516600482015260009073__$1dcbc4e76af7484d3342475f6e32ea9921$__90632f40e73490602401602060405180830381865af4158015610cbe573d6000803e3d6000fd5b505050506040513d601f19601f82011682018060405250810190610ce29190611a9c565b9050610cec61130e565b604051637f80ceb160e01b81526004810183905273__$1dcbc4e76af7484d3342475f6e32ea9921$__90637f80ceb190602401602060405180830381865af4158015610d3c573d6000803e3d6000fd5b505050506040513d601f19601f82011682018060405250810190610d609190611ab5565b610d6d57915061088f9050565b60405163b2485df360e01b81526004810183905260009073__$1dcbc4e76af7484d3342475f6e32ea9921$__9063b2485df390602401600060405180830381865af4158015610dc0573d6000803e3d6000fd5b505050506040513d6000823e601f3d908101601f19168201604052610de89190810190611af3565b9050600081516001600160401b03811115610e0557610e05611698565b604051908082528060200260200182016040528015610e6157816020015b610e4e6040518060800160405280600081526020016000815260200160008152602001600081525090565b815260200190600190039081610e235790505b50905060005b8251811015610f3c578473__$1dcbc4e76af7484d3342475f6e32ea9921$__63a68524569091858481518110610e9f57610e9f611b91565b60200260200101516040518363ffffffff1660e01b8152600401610ed69291909182526001600160a01b0316602082015260400190565b608060405180830381865af4158015610ef3573d6000803e3d6000fd5b505050506040513d601f19601f82011682018060405250810190610f179190611ba7565b828281518110610f2957610f29611b91565b6020908102919091010152600101610e67565b5060405163c0a12cd760e01b81526000908190819073__$bda096e2a3df882a8dda445d5536da7776$__9063c0a12cd790610f7f908a908e908e90600401611c91565b606060405180830381865af4158015610f9c573d6000803e3d6000fd5b505050506040513d601f19601f82011682018060405250810190610fc09190611cb4565b604051633ca45c2f60e21b8152929550909350915060009073__$bda096e2a3df882a8dda445d5536da7776$__9063f29170bc90611006908b908f908f90600401611c91565b602060405180830381865af4158015611023573d6000803e3d6000fd5b505050506040513d601f19601f820116820180604052508101906110479190611a9c565b90506040518061016001604052808d6001600160a01b031681526020018681526020018781526020018973__$1dcbc4e76af7484d3342475f6e32ea9921$__6335cd115190916040518263ffffffff1660e01b81526004016110ab91815260200190565b600060405180830381865af41580156110c8573d6000803e3d6000fd5b505050506040513d6000823e601f3d908101601f191682016040526110f09190810190611c0c565b81526020018973__$bda096e2a3df882a8dda445d5536da7776$__639ab05b4a90918f8f6040518463ffffffff1660e01b815260040161113293929190611c91565b602060405180830381865af415801561114f573d6000803e3d6000fd5b505050506040513d601f19601f820116820180604052508101906111739190611a9c565b81526020018973__$bda096e2a3df882a8dda445d5536da7776$__633538b71090918f8f6040518463ffffffff1660e01b81526004016111b593929190611c91565b602060405180830381865af41580156111d2573d6000803e3d6000fd5b505050506040513d601f19601f820116820180604052508101906111f69190611a9c565b8152602081019290925260019098015460408201526060810193909352608083019190915260a0909101525091925050509392505050565b6112383382611261565b61125e57604051632d7d0e0d60e21b8152336004820152602481018290526044016105c4565b50565b60008061126c6112ac565b6001600160a01b03851660009081526020829052604090209091506112a490846000818152600183016020526040812054151561088f565b949350505050565b6000806040516020016112f0906020808252601e908201527f78797a2e656c66692e73746f726167652e416363657373436f6e74726f6c0000604082015260600190565b60408051601f19818403018152919052805160209091012092915050565b60405180610160016040528060006001600160a01b03168152602001606081526020016060815260200160608152602001600081526020016000815260200160008152602001600081526020016000815260200160008152602001600081525090565b60008083601f84011261138357600080fd5b5081356001600160401b0381111561139a57600080fd5b6020830191508360208260071b85010111156113b557600080fd5b9250929050565b6000806000604084860312156113d157600080fd5b8335925060208401356001600160401b038111156113ee57600080fd5b6113fa86828701611371565b9497909650939450505050565b60006020828403121561141957600080fd5b81356001600160401b0381111561142f57600080fd5b82016060818503121561088f57600080fd5b6000806040838503121561145457600080fd5b50508035926020909101359150565b6001600160a01b038116811461125e57600080fd5b6000806040838503121561148b57600080fd5b823561149681611463565b946020939093013593505050565b6000602082840312156114b657600080fd5b813561088f81611463565b60008151808452602080850194506020840160005b838110156115125781518051885283810151848901526040808201519089015260609081015190880152608090960195908201906001016114d6565b509495945050505050565b60008151808452602080850194506020840160005b838110156115125781516001600160a01b031687529582019590820190600101611532565b60008151808452602080850194506020840160005b838110156115125781518752958201959082019060010161156c565b602081526115a26020820183516001600160a01b03169052565b600060208301516101608060408501526115c06101808501836114c1565b91506040850151601f19808685030160608701526115de848361151d565b93506060870151915080868503016080870152506115fc8382611557565b925050608085015160a085015260a085015160c085015260c085015160e085015260e0850151610100818187015280870151915050610120818187015280870151915050610140818187015280870151838701525050508091505092915050565b60008060006040848603121561167257600080fd5b833561167d81611463565b925060208401356001600160401b038111156113ee57600080fd5b634e487b7160e01b600052604160045260246000fd5b60405161012081016001600160401b03811182821017156116d1576116d1611698565b60405290565b604051601f8201601f191681016001600160401b03811182821017156116ff576116ff611698565b604052919050565b805161171281611463565b919050565b60006060828403121561172957600080fd5b604051606081018181106001600160401b038211171561174b5761174b611698565b604052825161175981611463565b8152602083015161176981611463565b60208201526040928301519281019290925250919050565b8183526000602080850194508260005b858110156115125781356117a481611463565b6001600160a01b03908116885282840135906117bf82611463565b1687840152604082810135908801526060808301359088015260809687019690910190600101611791565b6020815260006112a4602083018486611781565b8281526080810161088f602083018480516001600160a01b03908116835260208083015190911690830152604090810151910152565b6000808335601e1984360301811261184b57600080fd5b83016020810192503590506001600160401b0381111561186a57600080fd5b8060051b36038213156113b557600080fd5b6000602080835260808301843561189281611463565b6001600160a01b03818116868501526118ad87850188611834565b6060604089015293849052929150600060a087015b838210156118eb5784356118d581611463565b83168152938501936001919091019085016118c2565b6118f860408a018a611834565b898303601f190160608b01528083529550935085019150600090505b8381101561193057823582529184019190840190600101611914565b509695505050505050565b83815260a08101611971602083018580516001600160a01b03908116835260208083015190911690830152604090810151910152565b826080830152949350505050565b8051801515811461171257600080fd5b600061012082840312156119a257600080fd5b6119aa6116ae565b6119b38361197f565b81526020830151602082015260408301516040820152606083015160608201526080830151608082015260a083015160a082015260c083015160c082015260e083015160e08201526101008084015181830152508091505092915050565b60006101208284031215611a2457600080fd5b611a2c6116ae565b6119b383611707565b81516001600160a01b0390811682526020808401519091169082015260408083015190820152606082015160a082019060048110611a8357634e487b7160e01b600052602160045260246000fd5b8060608401525060808301511515608083015292915050565b600060208284031215611aae57600080fd5b5051919050565b600060208284031215611ac757600080fd5b61088f8261197f565b60006001600160401b03821115611ae957611ae9611698565b5060051b60200190565b60006020808385031215611b0657600080fd5b82516001600160401b03811115611b1c57600080fd5b8301601f81018513611b2d57600080fd5b8051611b40611b3b82611ad0565b6116d7565b81815260059190911b82018301908381019087831115611b5f57600080fd5b928401925b82841015611b86578351611b7781611463565b82529284019290840190611b64565b979650505050505050565b634e487b7160e01b600052603260045260246000fd5b600060808284031215611bb957600080fd5b604051608081018181106001600160401b0382111715611bdb57611bdb611698565b8060405250825181526020830151602082015260408301516040820152606083015160608201528091505092915050565b60006020808385031215611c1f57600080fd5b82516001600160401b03811115611c3557600080fd5b8301601f81018513611c4657600080fd5b8051611c54611b3b82611ad0565b81815260059190911b82018301908381019087831115611c7357600080fd5b928401925b82841015611b8657835182529284019290840190611c78565b838152604060208201526000611cab604083018486611781565b95945050505050565b600080600060608486031215611cc957600080fd5b835192506020840151915060408401519050925092509256fea26469706673582212204682c01e1d41bde0848f3bd77182a249bb0591124dc12c13e2246d17249f0cca64736f6c634300081900336080604052348015600f57600080fd5b50610ffc8061001f6000396000f3fe608060405234801561001057600080fd5b506004361061002b5760003560e01c80631f931c1c14610030575b600080fd5b61004361003e366004610a42565b610045565b005b6100566420a226a4a760d91b6100a7565b6100a06100638587610b88565b8484848080601f0160208091040260200160405190810160405280939291908181526020018383808284376000920191909152506100df92505050565b5050505050565b6100b13382610284565b6100dc57604051632d7d0e0d60e21b8152336004820152602481018290526044015b60405180910390fd5b50565b60005b83518110156102395760008482815181106100ff576100ff610ccc565b6020026020010151604001519050600085838151811061012157610121610ccc565b6020026020010151600001519050815160000361015c5760405163e767f91f60e01b81526001600160a01b03821660048201526024016100d3565b600086848151811061017057610170610ccc565b60200260200101516020015190506000600281111561019157610191610ce2565b8160028111156101a3576101a3610ce2565b036101b7576101b282846102c2565b61022e565b60018160028111156101cb576101cb610ce2565b036101da576101b28284610481565b60028160028111156101ee576101ee610ce2565b036101fd576101b282846105fe565b80600281111561020f5761020f610ce2565b604051633ff4d20f60e11b815260ff90911660048201526024016100d3565b5050506001016100e2565b507f8faa70878671ccd212d20771b795c50af8fd3ff6cf27f4bde57e5d4de0aeb67383838360405161026d93929190610d48565b60405180910390a161027f828261088d565b505050565b60008061028f610953565b6001600160a01b03851660009081526020828152604080832087845260010190915290205490915015155b949350505050565b6001600160a01b0382166102eb57806040516302b8da0760e21b81526004016100d39190610e4b565b7fdab92b47c5ad1b8db72bf159fe8f1c5404b027a749c8120fa1db90a19db4324f54604080516060810190915260248082527fdab92b47c5ad1b8db72bf159fe8f1c5404b027a749c8120fa1db90a19db4324e929161035491869190610f5360208301396109b5565b60005b83518110156100a057600084828151811061037457610374610ccc565b6020908102919091018101516001600160e01b031981166000908152918690526040909120549091506001600160a01b031680156103c7578160405163ebbf5d0760e01b81526004016100d39190610e99565b6040805180820182526001600160a01b03808a16825261ffff80881660208085019182526001600160e01b0319881660009081528b8252958620945185549251909316600160a01b026001600160b01b0319909216929093169190911717909155600180880180549182018155835291206008820401805460e085901c60046007909416939093026101000a92830263ffffffff90930219169190911790558361047081610ec4565b945050600190920191506103579050565b7fdab92b47c5ad1b8db72bf159fe8f1c5404b027a749c8120fa1db90a19db4324e6001600160a01b0383166104cb578160405163cd98a96f60e01b81526004016100d39190610e4b565b6104ed83604051806060016040528060288152602001610f9f602891396109b5565b60005b82518110156105f857600083828151811061050d5761050d610ccc565b6020908102919091018101516001600160e01b031981166000908152918590526040909120549091506001600160a01b03163081036105615781604051632901806d60e11b81526004016100d39190610e99565b856001600160a01b0316816001600160a01b0316036105955781604051631ac6ce8d60e11b81526004016100d39190610e99565b6001600160a01b0381166105be5781604051637479f93960e01b81526004016100d39190610e99565b506001600160e01b031916600090815260208390526040902080546001600160a01b0319166001600160a01b0386161790556001016104f0565b50505050565b7fdab92b47c5ad1b8db72bf159fe8f1c5404b027a749c8120fa1db90a19db4324f547fdab92b47c5ad1b8db72bf159fe8f1c5404b027a749c8120fa1db90a19db4324e906001600160a01b038416156106755760405163d091bc8160e01b81526001600160a01b03851660048201526024016100d3565b60005b83518110156100a057600084828151811061069557610695610ccc565b6020908102919091018101516001600160e01b0319811660009081528683526040908190208151808301909252546001600160a01b038116808352600160a01b90910461ffff1693820193909352909250906107065781604051637a08a22d60e01b81526004016100d39190610e99565b8051306001600160a01b03909116036107345781604051630df5fd6160e31b81526004016100d39190610e99565b8361073e81610ee5565b94505083816020015161ffff161461081c57600085600101858154811061076757610767610ccc565b90600052602060002090600891828204019190066004029054906101000a900460e01b90508086600101836020015161ffff16815481106107aa576107aa610ccc565b600091825260208083206008830401805463ffffffff60079094166004026101000a938402191660e09590951c92909202939093179055838201516001600160e01b03199390931681529087905260409020805461ffff60a01b1916600160a01b61ffff909316929092029190911790555b8460010180548061082f5761082f610efc565b60008281526020808220600860001990940193840401805463ffffffff600460078716026101000a0219169055919092556001600160e01b0319909316815291859052506040902080546001600160b01b0319169055600101610678565b6001600160a01b03821661089f575050565b6108c182604051806060016040528060288152602001610f77602891396109b5565b600080836001600160a01b0316836040516108dc9190610f12565b600060405180830381855af49150503d8060008114610917576040519150601f19603f3d011682016040523d82523d6000602084013e61091c565b606091505b5091509150816105f8578051156109365780518082602001fd5b838360405163192105d760e01b81526004016100d3929190610f2e565b600080604051602001610997906020808252601e908201527f78797a2e656c66692e73746f726167652e416363657373436f6e74726f6c0000604082015260600190565b60408051601f19818403018152919052805160209091012092915050565b813b600081900361027f57828260405163919834b960e01b81526004016100d3929190610f2e565b80356001600160a01b03811681146109f457600080fd5b919050565b60008083601f840112610a0b57600080fd5b50813567ffffffffffffffff811115610a2357600080fd5b602083019150836020828501011115610a3b57600080fd5b9250929050565b600080600080600060608688031215610a5a57600080fd5b853567ffffffffffffffff80821115610a7257600080fd5b818801915088601f830112610a8657600080fd5b813581811115610a9557600080fd5b8960208260051b8501011115610aaa57600080fd5b60208301975080965050610ac0602089016109dd565b94506040880135915080821115610ad657600080fd5b50610ae3888289016109f9565b969995985093965092949392505050565b634e487b7160e01b600052604160045260246000fd5b6040516060810167ffffffffffffffff81118282101715610b2d57610b2d610af4565b60405290565b604051601f8201601f1916810167ffffffffffffffff81118282101715610b5c57610b5c610af4565b604052919050565b600067ffffffffffffffff821115610b7e57610b7e610af4565b5060051b60200190565b6000610b9b610b9684610b64565b610b33565b83815260208082019190600586811b860136811115610bb957600080fd5b865b81811015610cbf57803567ffffffffffffffff80821115610bdc5760008081fd5b818a01915060608236031215610bf25760008081fd5b610bfa610b0a565b610c03836109dd565b81528683013560038110610c175760008081fd5b8188015260408381013583811115610c2f5760008081fd5b939093019236601f850112610c4657600092508283fd5b83359250610c56610b9684610b64565b83815292871b84018801928881019036851115610c735760008081fd5b948901945b84861015610ca85785356001600160e01b031981168114610c995760008081fd5b82529489019490890190610c78565b918301919091525088525050948301948301610bbb565b5092979650505050505050565b634e487b7160e01b600052603260045260246000fd5b634e487b7160e01b600052602160045260246000fd5b60005b83811015610d13578181015183820152602001610cfb565b50506000910152565b60008151808452610d34816020860160208601610cf8565b601f01601f19169290920160200192915050565b60006060808301606084528087518083526080925060808601915060808160051b8701016020808b0160005b84811015610e1b57898403607f19018652815180516001600160a01b03168552838101518986019060038110610dba57634e487b7160e01b600052602160045260246000fd5b868601526040918201519186018a905281519081905290840190600090898701905b80831015610e065783516001600160e01b0319168252928601926001929092019190860190610ddc565b50978501979550505090820190600101610d74565b50506001600160a01b038a16908801528681036040880152610e3d8189610d1c565b9a9950505050505050505050565b6020808252825182820181905260009190848201906040850190845b81811015610e8d5783516001600160e01b03191683529284019291840191600101610e67565b50909695505050505050565b6001600160e01b031991909116815260200190565b634e487b7160e01b600052601160045260246000fd5b600061ffff808316818103610edb57610edb610eae565b6001019392505050565b600081610ef457610ef4610eae565b506000190190565b634e487b7160e01b600052603160045260246000fd5b60008251610f24818460208701610cf8565b9190910192915050565b6001600160a01b03831681526040602082018190526000906102ba90830184610d1c56fe4c69624469616d6f6e644375743a2041646420666163657420686173206e6f20636f64654c69624469616d6f6e644375743a205f696e6974206164647265737320686173206e6f20636f64654c69624469616d6f6e644375743a205265706c61636520666163657420686173206e6f20636f6465a2646970667358221220105cbec9cd98fcbbbae7f89035416a9976881490f53af6f1a17d2a728594a63064736f6c634300081900336080604052348015600f57600080fd5b50610a498061001f6000396000f3fe608060405234801561001057600080fd5b50600436106100575760003560e01c806301ffc9a71461005c57806352ef6b2c146100bd5780637a0ed627146100d2578063adfca15e146100e7578063cdffacc614610107575b600080fd5b6100a861006a3660046107f8565b6001600160e01b03191660009081527fdab92b47c5ad1b8db72bf159fe8f1c5404b027a749c8120fa1db90a19db43250602052604090205460ff1690565b60405190151581526020015b60405180910390f35b6100c561015f565b6040516100b49190610829565b6100da6102ec565b6040516100b491906108bc565b6100fa6100f536600461093b565b6106ba565b6040516100b49190610964565b6101476101153660046107f8565b6001600160e01b03191660009081526000805160206109f483398151915260205260409020546001600160a01b031690565b6040516001600160a01b0390911681526020016100b4565b7fdab92b47c5ad1b8db72bf159fe8f1c5404b027a749c8120fa1db90a19db4324f546060906000805160206109f4833981519152908067ffffffffffffffff8111156101ad576101ad610977565b6040519080825280602002602001820160405280156101d6578160200160208202803683370190505b5092506000805b828110156102e25760008460010182815481106101fc576101fc61098d565b6000918252602080832060088304015460079092166004026101000a90910460e01b6001600160e01b0319811683529087905260408220549092506001600160a01b031690805b8581101561028e5788818151811061025d5761025d61098d565b60200260200101516001600160a01b0316836001600160a01b031603610286576001915061028e565b600101610243565b50801561029e57506102da915050565b818886815181106102b1576102b161098d565b6001600160a01b0390921660209283029190910190910152846102d3816109b9565b9550505050505b6001016101dd565b5080845250505090565b7fdab92b47c5ad1b8db72bf159fe8f1c5404b027a749c8120fa1db90a19db4324f546060906000805160206109f4833981519152908067ffffffffffffffff81111561033a5761033a610977565b60405190808252806020026020018201604052801561038057816020015b6040805180820190915260008152606060208201528152602001906001900390816103585790505b50925060008167ffffffffffffffff81111561039e5761039e610977565b6040519080825280602002602001820160405280156103c7578160200160208202803683370190505b5090506000805b838110156106525760008560010182815481106103ed576103ed61098d565b6000918252602080832060088304015460079092166004026101000a90910460e01b6001600160e01b0319811683529088905260408220549092506001600160a01b031690805b8581101561052057826001600160a01b03168a82815181106104585761045861098d565b6020026020010151600001516001600160a01b03160361051857838a82815181106104855761048561098d565b6020026020010151602001518883815181106104a3576104a361098d565b602002602001015161ffff16815181106104bf576104bf61098d565b60200260200101906001600160e01b03191690816001600160e01b031916815250508681815181106104f3576104f361098d565b602002602001018051809190610508906109d2565b61ffff1690525060019150610520565b600101610434565b508015610530575061064a915050565b818986815181106105435761054361098d565b60209081029190910101516001600160a01b0390911690528667ffffffffffffffff81111561057457610574610977565b60405190808252806020026020018201604052801561059d578160200160208202803683370190505b508986815181106105b0576105b061098d565b602002602001015160200181905250828986815181106105d2576105d261098d565b6020026020010151602001516000815181106105f0576105f061098d565b60200260200101906001600160e01b03191690816001600160e01b0319168152505060018686815181106106265761062661098d565b61ffff9092166020928302919091019091015284610643816109b9565b9550505050505b6001016103ce565b5060005b818110156106af5760008382815181106106725761067261098d565b602002602001015161ffff16905060008783815181106106945761069461098d565b60209081029190910181015101519190915250600101610656565b508085525050505090565b7fdab92b47c5ad1b8db72bf159fe8f1c5404b027a749c8120fa1db90a19db4324f546060906000805160206109f48339815191529060008167ffffffffffffffff81111561070a5761070a610977565b604051908082528060200260200182016040528015610733578160200160208202803683370190505b50935060005b828110156107ed5760008460010182815481106107585761075861098d565b6000918252602080832060088304015460079092166004026101000a90910460e01b6001600160e01b031981168352908790526040909120549091506001600160a01b039081169088168190036107e357818785815181106107bc576107bc61098d565b6001600160e01b031990921660209283029190910190910152836107df816109b9565b9450505b5050600101610739565b508352509092915050565b60006020828403121561080a57600080fd5b81356001600160e01b03198116811461082257600080fd5b9392505050565b6020808252825182820181905260009190848201906040850190845b8181101561086a5783516001600160a01b031683529284019291840191600101610845565b50909695505050505050565b60008151808452602080850194506020840160005b838110156108b15781516001600160e01b0319168752958201959082019060010161088b565b509495945050505050565b600060208083018184528085518083526040925060408601915060408160051b87010184880160005b8381101561092d57888303603f19018552815180516001600160a01b0316845287015187840187905261091a87850182610876565b95880195935050908601906001016108e5565b509098975050505050505050565b60006020828403121561094d57600080fd5b81356001600160a01b038116811461082257600080fd5b6020815260006108226020830184610876565b634e487b7160e01b600052604160045260246000fd5b634e487b7160e01b600052603260045260246000fd5b634e487b7160e01b600052601160045260246000fd5b6000600182016109cb576109cb6109a3565b5060010190565b600061ffff8083168181036109e9576109e96109a3565b600101939250505056fedab92b47c5ad1b8db72bf159fe8f1c5404b027a749c8120fa1db90a19db4324ea264697066735822122043e71b8fa4cc404a75203a926486c6d8bd1f51b9ecd0c7baee691a94a97e903464736f6c634300081900336080604052348015600f57600080fd5b506001600055612543806100246000396000f3fe60806040526004361061004e5760003560e01c806322dabfa51461005a5780634b05360a1461007c57806389e74c0a146100a257806395083527146100c2578063b68fb020146100ef57600080fd5b3661005557005b600080fd5b34801561006657600080fd5b5061007a610075366004611c8c565b61010f565b005b61008f61008a366004611d0b565b610614565b6040519081526020015b60405180910390f35b6100b56100b0366004611d1e565b6108c5565b6040516100999190611d94565b3480156100ce57600080fd5b506100e26100dd366004611df8565b610dad565b6040516100999190611f50565b3480156100fb57600080fd5b5061007a61010a366004611f9e565b61129d565b60005a90506101266525a2a2a822a960d11b611914565b604051634a83e9cd60e11b81526004810185905260009073__$6f943ad19ffd2cc09153ac61e6a5ce1aaf$__90639507d39a90602401602060405180830381865af4158015610179573d6000803e3d6000fd5b505050506040513d601f19601f8201168201806040525081019061019d9190611fc0565b604080516102208101825282546001600160a01b031681526001830154602082015260028084015491939284019160ff16908111156101de576101de611e15565b60028111156101ef576101ef611e15565b81526020016002820160019054906101000a900460ff16600281111561021757610217611e15565b600281111561022857610228611e15565b81526020016002820160029054906101000a900460ff16600381111561025057610250611e15565b600381111561026157610261611e15565b81526020016002820160039054906101000a900460ff16600281111561028957610289611e15565b600281111561029a5761029a611e15565b8152600282015460ff640100000000820481161515602084015265010000000000820416151560408301526001600160a01b03600160301b9091048116606083015260038301546080830152600483015460a0830152600583015460c0830152600683015460e0830152600783015461010083015260088301546101208301526009830154610140830152600a909201546101609091015281519192501661035d57604051636f23541360e01b8152600481018690526024015b60405180910390fd5b604051631d4cb62f60e21b815273__$bb4e55f00c0f45d2719800850b371b8ff8$__90637532d8bc906103969087908790600401611fd9565b60006040518083038186803b1580156103ae57600080fd5b505af41580156103c2573d6000803e3d6000fd5b505060405163e51f1db160e01b815273__$a1f1c663214543c64300a4f7e7440726cc$__925063e51f1db191506103ff9088908590600401612053565b60006040518083038186803b15801561041757600080fd5b505af415801561042b573d6000803e3d6000fd5b5050505073__$bb4e55f00c0f45d2719800850b371b8ff8$__63e52ed3656040518163ffffffff1660e01b815260040160006040518083038186803b15801561047357600080fd5b505af4158015610487573d6000803e3d6000fd5b5050505073__$e6ad93c07d6cc44a1daca561617df2deac$__634d4d56726040518060a001604052808460e0015161052057306001600160a01b0316631f7592ea6040518163ffffffff1660e01b8152600401602060405180830381865afa1580156104f7573d6000803e3d6000fd5b505050506040513d601f19601f8201168201806040525081019061051b9190612073565b610582565b306001600160a01b03166397e7b7f26040518163ffffffff1660e01b8152600401602060405180830381865afa15801561055e573d6000803e3d6000fd5b505050506040513d601f19601f820116820180604052508101906105829190612073565b6001600160a01b03168152602001846101e001518152602001858152602001336001600160a01b0316815260200184600001516001600160a01b03168152506040518263ffffffff1660e01b81526004016105dd9190612090565b60006040518083038186803b1580156105f557600080fd5b505af4158015610609573d6000803e3d6000fd5b505050505050505050565b600061061e611947565b33600161063160a08501608086016120eb565b600281111561064257610642611e15565b14801561065c575061065a6040840160208501612121565b155b156107b3576106716060840160408501612121565b1580610681575082610120013534145b6106d85760405162461bcd60e51b815260206004820152602260248201527f4465706f736974206e617469766520746f6b656e20616d6f756e74206572726f604482015261722160f01b6064820152608401610354565b73__$ea03dc6e7176064baf45a14dcf3b0b0296$__63ef59a9d16040518060a00160405280846001600160a01b031681526020018660e001602081019061071f9190611df8565b6001600160a01b0316815261012087013560208201526040016001815260200161074f6060880160408901612121565b15158152506040518263ffffffff1660e01b8152600401610770919061213e565b602060405180830381865af415801561078d573d6000803e3d6000fd5b505050506040513d601f19601f820116820180604052508101906107b19190612073565b505b60405163090788b560e31b81526001600160a01b038216600482015260009073__$1dcbc4e76af7484d3342475f6e32ea9921$__9063483c45a890602401602060405180830381865af415801561080e573d6000803e3d6000fd5b505050506040513d601f19601f820116820180604052508101906108329190611fc0565b60405163207f6c9360e01b815290915073__$a1f1c663214543c64300a4f7e7440726cc$__9063207f6c9390610871908490889060019060040161219f565b602060405180830381865af415801561088e573d6000803e3d6000fd5b505050506040513d601f19601f820116820180604052508101906108b29190611fc0565b925050506108c06001600055565b919050565b60606108cf611947565b60405163090788b560e31b815233600482018190529060009073__$1dcbc4e76af7484d3342475f6e32ea9921$__9063483c45a890602401602060405180830381865af4158015610924573d6000803e3d6000fd5b505050506040513d601f19601f820116820180604052508101906109489190611fc0565b905060008073__$bda6750164d46530feeed1122c24ac1a13$__63606c0c946040518163ffffffff1660e01b815260040161012060405180830381865af4158015610997573d6000803e3d6000fd5b505050506040513d601f19601f820116820180604052508101906109bb919061233e565b90506000878760008181106109d2576109d26123c0565b90506101e0020160200160208101906109eb9190612121565b90508667ffffffffffffffff811115610a0657610a066122cd565b604051908082528060200260200182016040528015610a2f578160200160208202803683370190505b50955060005b87811015610c60576001898983818110610a5157610a516123c0565b90506101e002016080016020810190610a6a91906120eb565b6002811115610a7b57610a7b611e15565b03610a9957604051630af64c0b60e01b815260040160405180910390fd5b888882818110610aab57610aab6123c0565b90506101e002016020016020810190610ac49190612121565b151582151514610ae757604051632a61948760e01b815260040160405180910390fd5b73__$e6ad93c07d6cc44a1daca561617df2deac$__634b7bc6818a8a84818110610b1357610b136123c0565b90506101e002016101a0013585608001516040518363ffffffff1660e01b8152600401610b4a929190918252602082015260400190565b60006040518083038186803b158015610b6257600080fd5b505af4158015610b76573d6000803e3d6000fd5b5050505073__$a1f1c663214543c64300a4f7e7440726cc$__63207f6c93868b8b85818110610ba757610ba76123c0565b90506101e0020160006040518463ffffffff1660e01b8152600401610bce9392919061219f565b602060405180830381865af4158015610beb573d6000803e3d6000fd5b505050506040513d601f19601f82011682018060405250810190610c0f9190611fc0565b878281518110610c2157610c216123c0565b602002602001018181525050888882818110610c3f57610c3f6123c0565b90506101e002016101a0013584610c5691906123d6565b9350600101610a35565b50823414610cc45760405162461bcd60e51b815260206004820152602b60248201527f426174636820706c616365206f72646572207769746820657865637574696f6e60448201526a20666565206572726f722160a81b6064820152608401610354565b6040805160a08101825285546001600160a01b039081168252845116602082015290810184905273__$ea03dc6e7176064baf45a14dcf3b0b0296$__9063ef59a9d1906060810184610d17576001610d1a565b60005b6003811115610d2b57610d2b611e15565b815260016020909101526040516001600160e01b031960e084901b168152610d56919060040161213e565b602060405180830381865af4158015610d73573d6000803e3d6000fd5b505050506040513d601f19601f82011682018060405250810190610d979190612073565b505050505050610da76001600055565b92915050565b604051630bd039cd60e21b81526001600160a01b038216600482015260609060009073__$1dcbc4e76af7484d3342475f6e32ea9921$__90632f40e73490602401602060405180830381865af4158015610e0b573d6000803e3d6000fd5b505050506040513d601f19601f82011682018060405250810190610e2f9190611fc0565b604051637f80ceb160e01b81526004810182905290915073__$1dcbc4e76af7484d3342475f6e32ea9921$__90637f80ceb190602401602060405180830381865af4158015610e82573d6000803e3d6000fd5b505050506040513d601f19601f82011682018060405250810190610ea691906123f7565b156112975760405163f075410d60e01b81526004810182905260009073__$1dcbc4e76af7484d3342475f6e32ea9921$__9063f075410d90602401600060405180830381865af4158015610efe573d6000803e3d6000fd5b505050506040513d6000823e601f3d908101601f19168201604052610f269190810190612414565b9050805167ffffffffffffffff811115610f4257610f426122cd565b604051908082528060200260200182016040528015610f7b57816020015b610f68611be1565b815260200190600190039081610f605790505b509250600073__$6f943ad19ffd2cc09153ac61e6a5ce1aaf$__6386d5c4be6040518163ffffffff1660e01b8152600401602060405180830381865af4158015610fc9573d6000803e3d6000fd5b505050506040513d601f19601f82011682018060405250810190610fed9190611fc0565b905060005b82518110156112935782818151811061100d5761100d6123c0565b6020026020010151858281518110611027576110276123c0565b602002602001015160000181815250508173__$6f943ad19ffd2cc09153ac61e6a5ce1aaf$__63c000c8ee9091858481518110611066576110666123c0565b60200260200101516040518363ffffffff1660e01b8152600401611094929190918252602082015260400190565b602060405180830381865af41580156110b1573d6000803e3d6000fd5b505050506040513d601f19601f820116820180604052508101906110d59190611fc0565b604080516102208101825282546001600160a01b031681526001830154602082015260028084015491939284019160ff169081111561111657611116611e15565b600281111561112757611127611e15565b81526020016002820160019054906101000a900460ff16600281111561114f5761114f611e15565b600281111561116057611160611e15565b81526020016002820160029054906101000a900460ff16600381111561118857611188611e15565b600381111561119957611199611e15565b81526020016002820160039054906101000a900460ff1660028111156111c1576111c1611e15565b60028111156111d2576111d2611e15565b8152600282015460ff640100000000820481161515602084015265010000000000820416151560408301526001600160a01b03600160301b90910416606082015260038201546080820152600482015460a0820152600582015460c0820152600682015460e0820152600782015461010082015260088201546101208201526009820154610140820152600a9091015461016090910152855186908390811061127d5761127d6123c0565b6020908102919091018101510152600101610ff2565b5050505b50919050565b60005a604051634a83e9cd60e11b81526004810185905290915060009073__$6f943ad19ffd2cc09153ac61e6a5ce1aaf$__90639507d39a90602401602060405180830381865af41580156112f6573d6000803e3d6000fd5b505050506040513d601f19601f8201168201806040525081019061131a9190611fc0565b604080516102208101825282546001600160a01b031681526001830154602082015260028084015491939284019160ff169081111561135b5761135b611e15565b600281111561136c5761136c611e15565b81526020016002820160019054906101000a900460ff16600281111561139457611394611e15565b60028111156113a5576113a5611e15565b81526020016002820160029054906101000a900460ff1660038111156113cd576113cd611e15565b60038111156113de576113de611e15565b81526020016002820160039054906101000a900460ff16600281111561140657611406611e15565b600281111561141757611417611e15565b8152600282015460ff640100000000820481161515602084015265010000000000820416151560408301526001600160a01b03600160301b9091048116606083015260038301546080830152600483015460a0830152600583015460c0830152600683015460e0830152600783015461010083015260088301546101208301526009830154610140830152600a90920154610160909101528151919250166114d557604051636f23541360e01b815260048101859052602401610354565b60006114e96525a2a2a822a960d11b6119a0565b905080158015611503575081516001600160a01b03163314155b1561152457604051636f23541360e01b815260048101869052602401610354565b60405163d7ffe5cf60e01b815273__$347f3da4ee9c6d555bb4c0194083f8df3e$__9063d7ffe5cf9061155f908890869089906004016124ba565b60006040518083038186803b15801561157757600080fd5b505af415801561158b573d6000803e3d6000fd5b50505050801561171c5773__$e6ad93c07d6cc44a1daca561617df2deac$__634d4d56726040518060a001604052808560e0015161162a57306001600160a01b0316631f7592ea6040518163ffffffff1660e01b8152600401602060405180830381865afa158015611601573d6000803e3d6000fd5b505050506040513d601f19601f820116820180604052508101906116259190612073565b61168c565b306001600160a01b03166397e7b7f26040518163ffffffff1660e01b8152600401602060405180830381865afa158015611668573d6000803e3d6000fd5b505050506040513d601f19601f8201168201806040525081019061168c9190612073565b6001600160a01b03168152602001856101e001518152602001868152602001336001600160a01b0316815260200185600001516001600160a01b03168152506040518263ffffffff1660e01b81526004016116e79190612090565b60006040518083038186803b1580156116ff57600080fd5b505af4158015611713573d6000803e3d6000fd5b5050505061190d565b73__$eda0f617f16c95263174d8d25961933b8d$__6385e2b8808360e001516117a657306001600160a01b0316631f7592ea6040518163ffffffff1660e01b8152600401602060405180830381865afa15801561177d573d6000803e3d6000fd5b505050506040513d601f19601f820116820180604052508101906117a19190612073565b611808565b306001600160a01b03166397e7b7f26040518163ffffffff1660e01b8152600401602060405180830381865afa1580156117e4573d6000803e3d6000fd5b505050506040513d601f19601f820116820180604052508101906118089190612073565b73__$bda6750164d46530feeed1122c24ac1a13$__63606c0c946040518163ffffffff1660e01b815260040161012060405180830381865af4158015611852573d6000803e3d6000fd5b505050506040513d601f19601f82011682018060405250810190611876919061233e565b516101e086015160405160e085901b6001600160e01b03191681526001600160a01b0393841660048201529290911660248301523060448301526064820152608401602060405180830381865af41580156118d5573d6000803e3d6000fd5b505050506040513d601f19601f820116820180604052508101906118f991906123f7565b5061190d8260000151836101e001516119ac565b5050505050565b61191e3382611a89565b61194457604051632d7d0e0d60e21b815233600482015260248101829052604401610354565b50565b6002600054036119995760405162461bcd60e51b815260206004820152601f60248201527f5265656e7472616e637947756172643a207265656e7472616e742063616c6c006044820152606401610354565b6002600055565b6000610da73383611a89565b600073__$bda6750164d46530feeed1122c24ac1a13$__63606c0c946040518163ffffffff1660e01b815260040161012060405180830381865af41580156119f8573d6000803e3d6000fd5b505050506040513d601f19601f82011682018060405250810190611a1c919061233e565b51604051632e1a7d4d60e01b8152600481018490529091506001600160a01b03821690632e1a7d4d90602401600060405180830381600087803b158015611a6257600080fd5b505af1158015611a76573d6000803e3d6000fd5b50505050611a848383611ac1565b505050565b600080611a94611b64565b6001600160a01b0385166000908152602082905260409020909150611ab99084611bc6565b949350505050565b604080516000808252602082019092526001600160a01b038416908390604051611aeb91906124de565b60006040518083038185875af1925050503d8060008114611b28576040519150601f19603f3d011682016040523d82523d6000602084013e611b2d565b606091505b5050905080611a845760405162461bcd60e51b815260206004820152600360248201526253544560e81b6044820152606401610354565b600080604051602001611ba8906020808252601e908201527f78797a2e656c66692e73746f726167652e416363657373436f6e74726f6c0000604082015260600190565b60408051601f19818403018152919052805160209091012092915050565b600081815260018301602052604081205415155b9392505050565b604051806040016040528060008152602001611c8760408051610220810182526000808252602082018190529091820190815260200160008152602001600081526020016000815260200160001515815260200160001515815260200160006001600160a01b0316815260200160008152602001600081526020016000815260200160008152602001600081526020016000815260200160008152602001600081525090565b905290565b600080600060408486031215611ca157600080fd5b83359250602084013567ffffffffffffffff80821115611cc057600080fd5b818601915086601f830112611cd457600080fd5b813581811115611ce357600080fd5b8760208260071b8501011115611cf857600080fd5b6020830194508093505050509250925092565b60006101e0828403121561129757600080fd5b60008060208385031215611d3157600080fd5b823567ffffffffffffffff80821115611d4957600080fd5b818501915085601f830112611d5d57600080fd5b813581811115611d6c57600080fd5b8660206101e083028501011115611d8257600080fd5b60209290920196919550909350505050565b6020808252825182820181905260009190848201906040850190845b81811015611dcc57835183529284019291840191600101611db0565b50909695505050505050565b6001600160a01b038116811461194457600080fd5b80356108c081611dd8565b600060208284031215611e0a57600080fd5b8135611bda81611dd8565b634e487b7160e01b600052602160045260246000fd5b60038110611e3b57611e3b611e15565b9052565b6004811061194457611944611e15565b611e3b81611e3f565b80516001600160a01b03168252602081015160208301526040810151611e816040840182611e2b565b506060810151611e946060840182611e2b565b506080810151611ea76080840182611e4f565b5060a0810151611eba60a0840182611e2b565b5060c0810151611ece60c084018215159052565b5060e0810151611ee260e084018215159052565b50610100818101516001600160a01b03169083015261012080820151908301526101408082015190830152610160808201519083015261018080820151908301526101a080820151908301526101c080820151908301526101e0808201519083015261020090810151910152565b6020808252825182820181905260009190848201906040850190845b81811015611dcc57835180518452850151611f8986850182611e58565b50928401926102409290920191600101611f6c565b60008060408385031215611fb157600080fd5b50508035926020909101359150565b600060208284031215611fd257600080fd5b5051919050565b6020808252818101839052600090604080840186845b8781101561204657813561200281611dd8565b6001600160a01b039081168452828601359061201d82611dd8565b168386015281840135848401526060808301359084015260809283019290910190600101611fef565b5090979650505050505050565b8281526102408101611bda6020830184611e58565b80516108c081611dd8565b60006020828403121561208557600080fd5b8151611bda81611dd8565b81516001600160a01b0390811682526020808401519083015260408084015190830152606080840151821690830152608092830151169181019190915260a00190565b6003811061194457600080fd5b80356108c0816120d3565b6000602082840312156120fd57600080fd5b8135611bda816120d3565b801515811461194457600080fd5b80356108c081612108565b60006020828403121561213357600080fd5b8135611bda81612108565b81516001600160a01b0390811682526020808401519091169082015260408083015190820152606082015160a082019061217781611e3f565b8060608401525060808301511515608083015292915050565b8035600481106108c057600080fd5b600061022082019050848252833560208301526121be60208501612116565b8015156040840152506121d360408501612116565b8015156060840152506121e8606085016120e0565b6121f56080840182611e2b565b50612202608085016120e0565b61220f60a0840182611e2b565b5061221c60a08501612190565b61222960c0840182611e4f565b5061223660c085016120e0565b61224360e0840182611e2b565b5061225060e08501611ded565b610100612267818501836001600160a01b03169052565b61012091508086013582850152506101408186013581850152610160915080860135828501525061018081860135818501526101a091508086013582850152506101c08186013581850152808601356101e08501525050611ab961020083018415159052565b634e487b7160e01b600052604160045260246000fd5b604051610120810167ffffffffffffffff81118282101715612307576123076122cd565b60405290565b604051601f8201601f1916810167ffffffffffffffff81118282101715612336576123366122cd565b604052919050565b6000610120828403121561235157600080fd5b6123596122e3565b61236283612068565b81526020830151602082015260408301516040820152606083015160608201526080830151608082015260a083015160a082015260c083015160c082015260e083015160e08201526101008084015181830152508091505092915050565b634e487b7160e01b600052603260045260246000fd5b80820180821115610da757634e487b7160e01b600052601160045260246000fd5b60006020828403121561240957600080fd5b8151611bda81612108565b6000602080838503121561242757600080fd5b825167ffffffffffffffff8082111561243f57600080fd5b818501915085601f83011261245357600080fd5b815181811115612465576124656122cd565b8060051b915061247684830161230d565b818152918301840191848101908884111561249057600080fd5b938501935b838510156124ae57845182529385019390850190612495565b98975050505050505050565b83815261026081016124cf6020830185611e58565b82610240830152949350505050565b6000825160005b818110156124ff57602081860181015185830152016124e5565b50600092019182525091905056fea2646970667358221220dfac973c0f8d653a9e4ae29f9e487037f3a5bc401099ba783ed98f21d156517d64736f6c634300081900336080604052348015600f57600080fd5b506001600055613464806100246000396000f3fe6080604052600436106100865760003560e01c806374315647116100595780637431564714610123578063cb5c8d8114610144578063e606789b14610164578063fb11e96914610184578063fe1b7245146101b157600080fd5b806309fb7aac1461008b578063311be5f4146100ad57806341065c62146100cd57806359086dc914610103575b600080fd5b34801561009757600080fd5b506100ab6100a636600461281a565b6101c4565b005b3480156100b957600080fd5b506100ab6100c836600461288f565b610586565b3480156100d957600080fd5b506100ed6100e836600461294c565b6108f6565b6040516100fa9190612add565b60405180910390f35b34801561010f57600080fd5b506100ab61011e366004612aec565b610ad5565b610136610131366004612b0e565b610d4c565b6040519081526020016100fa565b34801561015057600080fd5b506100ab61015f36600461288f565b6112e8565b34801561017057600080fd5b506100ab61017f366004612aec565b611622565b34801561019057600080fd5b506101a461019f366004612b27565b611898565b6040516100fa9190612b44565b6101366101bf366004612ba9565b611d14565b60005a90506101db6525a2a2a822a960d11b61216e565b604051631026392960e11b81527f8116fe254c434350c8a963d750885fee6b2213d5416ba4444044ed0bb91a725d600482015260009073__$6ebb2450d5e04bda18965cfdba2d8f11f4$__9063204c725290602401602060405180830381865af415801561024d573d6000803e3d6000fd5b505050506040513d601f19601f820116820180604052508101906102719190612bbb565b905060005b8381101561051b57600073__$d6b170e28cdd9080cfdbe47025803469bd$__63f03507998787858181106102ac576102ac612bd4565b905060200201356040518263ffffffff1660e01b81526004016102d191815260200190565b602060405180830381865af41580156102ee573d6000803e3d6000fd5b505050506040513d601f19601f820116820180604052508101906103129190612bbb565b60405163a51dafc760e01b81526004810182905290915073__$d6b170e28cdd9080cfdbe47025803469bd$__9063a51dafc79060240160006040518083038186803b15801561036057600080fd5b505af4158015610374573d6000803e3d6000fd5b50506040805160e08101825286815260018501546020820152600081830152600285015460ff610100820481161515606084015260038701546001600160a01b039081166080850152600588015460a08501526004808901549551631a0994f560e01b81529590911690850152161515602483015273__$8fb5de803360e49e9972eec3a61ded82fb$__9350635b9a574e9250849160c082019073__$bb4e55f00c0f45d2719800850b371b8ff8$__90631a0994f590604401602060405180830381865af415801561044a573d6000803e3d6000fd5b505050506040513d601f19601f8201168201806040525081019061046e9190612bbb565b9052604080516001600160e01b031960e086901b168152600481019390935281516024840152602082015160448401528101511515606483015260608101511515608483015260808101516001600160a01b031660a483015260a081015160c483015260c0015160e48201526101040160006040518083038186803b1580156104f657600080fd5b505af415801561050a573d6000803e3d6000fd5b505060019093019250610276915050565b506040516307c43b6960e21b81526004810183905273__$e6ad93c07d6cc44a1daca561617df2deac$__90631f10eda4906024015b60006040518083038186803b15801561056857600080fd5b505af415801561057c573d6000803e3d6000fd5b5050505050505050565b60005a905061059d6525a2a2a822a960d11b61216e565b604051634a83e9cd60e11b81526004810185905260009073__$92d09698b02b86f60e573c24f774403d94$__90639507d39a9060240161010060405180830381865af41580156105f1573d6000803e3d6000fd5b505050506040513d601f19601f820116820180604052508101906106159190612cb9565b80519091506001600160a01b03166106405760405163fd0b752360e01b815260040160405180910390fd5b604051631d4cb62f60e21b815273__$bb4e55f00c0f45d2719800850b371b8ff8$__90637532d8bc906106799087908790600401612d4a565b60006040518083038186803b15801561069157600080fd5b505af41580156106a5573d6000803e3d6000fd5b505060405163ca7b4ab960e01b815273__$dc802fc1d3dd8347e08cf7a91e97b416c7$__925063ca7b4ab991506106e29088908590600401612e22565b60006040518083038186803b1580156106fa57600080fd5b505af415801561070e573d6000803e3d6000fd5b5050505073__$bb4e55f00c0f45d2719800850b371b8ff8$__63e52ed3656040518163ffffffff1660e01b815260040160006040518083038186803b15801561075657600080fd5b505af415801561076a573d6000803e3d6000fd5b5050505073__$e6ad93c07d6cc44a1daca561617df2deac$__634d4d56726040518060a001604052808460c0015161080357306001600160a01b0316631f7592ea6040518163ffffffff1660e01b8152600401602060405180830381865afa1580156107da573d6000803e3d6000fd5b505050506040513d601f19601f820116820180604052508101906107fe9190612e37565b610865565b306001600160a01b03166397e7b7f26040518163ffffffff1660e01b8152600401602060405180830381865afa158015610841573d6000803e3d6000fd5b505050506040513d601f19601f820116820180604052508101906108659190612e37565b6001600160a01b0316815260200184608001518152602001858152602001336001600160a01b0316815260200184600001516001600160a01b03168152506040518263ffffffff1660e01b81526004016108bf9190612e54565b60006040518083038186803b1580156108d757600080fd5b505af41580156108eb573d6000803e3d6000fd5b505050505050505050565b6108fe612720565b60405163359c683b60e11b81526001600160a01b0380871660048301526024820186905284166044820152821515606482015273__$d6b170e28cdd9080cfdbe47025803469bd$__90636b38d07690608401602060405180830381865af415801561096d573d6000803e3d6000fd5b505050506040513d601f19601f820116820180604052508101906109919190612bbb565b6040805161022081018252825481526001830154602080830191909152600284015460ff80821615158486015261010080830490911615156060808601919091526001600160a01b036201000090930483166080808701919091526003880154841660a080880191909152600489015490941660c080880191909152600589015460e08089019190915260068a015494880194909452600789015461012088015260088901546101408801526009890154610160880152600a890154610180880152600b8901546101a088015287519384018852600c8901548452600d89015495840195909552600e88015496830196909652600f870154908201526010860154948101949094526011850154908401526012840154908301526101c081019190915260138201546101e08201526014909101546102008201529050949350505050565b60005a9050610aec6525a2a2a822a960d11b61216e565b604051634a83e9cd60e11b81526004810184905260009073__$e7b259f5f25536180660cb13f6599e15f1$__90639507d39a9060240161014060405180830381865af4158015610b40573d6000803e3d6000fd5b505050506040513d601f19601f82011682018060405250810190610b649190612e97565b80519091506001600160a01b0316610b8f5760405163093d047f60e21b815260040160405180910390fd5b60405163621467b360e11b815273__$dc802fc1d3dd8347e08cf7a91e97b416c7$__9063c428cf6690610bca90879085908890600401612fd7565b60006040518083038186803b158015610be257600080fd5b505af4158015610bf6573d6000803e3d6000fd5b5050505073__$e6ad93c07d6cc44a1daca561617df2deac$__634d4d56726040518060a001604052808460600151610c8f57306001600160a01b0316631f7592ea6040518163ffffffff1660e01b8152600401602060405180830381865afa158015610c66573d6000803e3d6000fd5b505050506040513d601f19601f82011682018060405250810190610c8a9190612e37565b610cf1565b306001600160a01b03166397e7b7f26040518163ffffffff1660e01b8152600401602060405180830381865afa158015610ccd573d6000803e3d6000fd5b505050506040513d601f19601f82011682018060405250810190610cf19190612e37565b6001600160a01b031681526020018461010001518152602001858152602001336001600160a01b0316815260200184600001516001600160a01b03168152506040518263ffffffff1660e01b81526004016105509190612e54565b60405163e1be37bd60e01b815281356004820152600090819073__$acce7506676b87ccbb54b9fc6afc582415$__9063e1be37bd9060240161010060405180830381865af4158015610da2573d6000803e3d6000fd5b505050506040513d601f19601f82011682018060405250810190610dc69190612ffb565b60405163f035079960e01b81528435600482015290915060009073__$772a6c28cc3d4776ea886febacbb24816f$__9063f035079990602401602060405180830381865af4158015610e1c573d6000803e3d6000fd5b505050506040513d601f19601f82011682018060405250810190610e409190612bbb565b6040805160c08101909152815481526001820154909190602083019060ff166003811115610e7057610e7061306a565b6003811115610e8157610e8161306a565b815260018201546001600160a01b03610100909104811660208301526002830154811660408301526003830154166060820152600482018054608090920191610ec990613080565b80601f0160208091040260200160405190810160405280929190818152602001828054610ef590613080565b8015610f425780601f10610f1757610100808354040283529160200191610f42565b820191906000526020600020905b815481529060010190602001808311610f2557829003601f168201915b5050509190925250919250610f55915050565b600081602001516003811115610f6d57610f6d61306a565b14610f93576040516303035c6f60e61b8152843560048201526024015b60405180910390fd5b815160808501351180610fb65750610faf620186a060016130ca565b8460800135105b15610fe157604051635c93c83760e01b81528435600482015260808501356024820152604401610f8a565b604051630bd039cd60e21b815233600482018190529060009073__$1dcbc4e76af7484d3342475f6e32ea9921$__90632f40e73490602401602060405180830381865af4158015611036573d6000803e3d6000fd5b505050506040513d601f19601f8201168201806040525081019061105a9190612bbb565b905060008660c0013511801561107d575061107b60808701606088016130e1565b155b1561124c5761109260608701604088016130e1565b15806110a157508560c0013534145b6110e95760405162461bcd60e51b81526020600482015260196024820152784465706f7369742065746820616d6f756e74206572726f722160381b6044820152606401610f8a565b73__$ea03dc6e7176064baf45a14dcf3b0b0296$__63ef59a9d16040518060a00160405280856001600160a01b0316815260200189604001602081019061113091906130e1565b6111495761114460c08b0160a08c01612b27565b6111b9565b73__$bda6750164d46530feeed1122c24ac1a13$__63606c0c946040518163ffffffff1660e01b815260040161012060405180830381865af4158015611193573d6000803e3d6000fd5b505050506040513d601f19601f820116820180604052508101906111b791906130fe565b515b6001600160a01b0316815260c08a01356020820152604001600181526020016111e860608b0160408c016130e1565b15158152506040518263ffffffff1660e01b81526004016112099190613180565b602060405180830381865af4158015611226573d6000803e3d6000fd5b505050506040513d601f19601f8201168201806040525081019061124a9190612e37565b505b60008061125983896121a1565b604051637f4c94bd60e01b8152919350915073__$dc802fc1d3dd8347e08cf7a91e97b416c7$__90637f4c94bd9061129b9087908c90879087906004016131e7565b602060405180830381865af41580156112b8573d6000803e3d6000fd5b505050506040513d601f19601f820116820180604052508101906112dc9190612bbb565b98975050505050505050565b60005a90506112ff6525a2a2a822a960d11b61216e565b604051634a83e9cd60e11b81526004810185905260009073__$e7b259f5f25536180660cb13f6599e15f1$__90639507d39a9060240161014060405180830381865af4158015611353573d6000803e3d6000fd5b505050506040513d601f19601f820116820180604052508101906113779190612e97565b80519091506001600160a01b03166113a25760405163093d047f60e21b815260040160405180910390fd5b604051631d4cb62f60e21b815273__$bb4e55f00c0f45d2719800850b371b8ff8$__90637532d8bc906113db9087908790600401612d4a565b60006040518083038186803b1580156113f357600080fd5b505af4158015611407573d6000803e3d6000fd5b5050604051633fb2d04d60e21b815273__$dc802fc1d3dd8347e08cf7a91e97b416c7$__925063fecb41349150611444908890859060040161329f565b60006040518083038186803b15801561145c57600080fd5b505af4158015611470573d6000803e3d6000fd5b5050505073__$bb4e55f00c0f45d2719800850b371b8ff8$__63e52ed3656040518163ffffffff1660e01b815260040160006040518083038186803b1580156114b857600080fd5b505af41580156114cc573d6000803e3d6000fd5b5050505073__$e6ad93c07d6cc44a1daca561617df2deac$__634d4d56726040518060a00160405280846060015161156557306001600160a01b0316631f7592ea6040518163ffffffff1660e01b8152600401602060405180830381865afa15801561153c573d6000803e3d6000fd5b505050506040513d601f19601f820116820180604052508101906115609190612e37565b6115c7565b306001600160a01b03166397e7b7f26040518163ffffffff1660e01b8152600401602060405180830381865afa1580156115a3573d6000803e3d6000fd5b505050506040513d601f19601f820116820180604052508101906115c79190612e37565b6001600160a01b031681526020018461010001518152602001858152602001336001600160a01b0316815260200184600001516001600160a01b03168152506040518263ffffffff1660e01b81526004016108bf9190612e54565b60005a90506116396525a2a2a822a960d11b61216e565b604051634a83e9cd60e11b81526004810184905260009073__$92d09698b02b86f60e573c24f774403d94$__90639507d39a9060240161010060405180830381865af415801561168d573d6000803e3d6000fd5b505050506040513d601f19601f820116820180604052508101906116b19190612cb9565b80519091506001600160a01b03166116dc5760405163fd0b752360e01b815260040160405180910390fd5b60405163b34f305f60e01b815273__$dc802fc1d3dd8347e08cf7a91e97b416c7$__9063b34f305f90611717908790859088906004016132b4565b60006040518083038186803b15801561172f57600080fd5b505af4158015611743573d6000803e3d6000fd5b5050505073__$e6ad93c07d6cc44a1daca561617df2deac$__634d4d56726040518060a001604052808460c001516117dc57306001600160a01b0316631f7592ea6040518163ffffffff1660e01b8152600401602060405180830381865afa1580156117b3573d6000803e3d6000fd5b505050506040513d601f19601f820116820180604052508101906117d79190612e37565b61183e565b306001600160a01b03166397e7b7f26040518163ffffffff1660e01b8152600401602060405180830381865afa15801561181a573d6000803e3d6000fd5b505050506040513d601f19601f8201168201806040525081019061183e9190612e37565b6001600160a01b0316815260200184608001518152602001858152602001336001600160a01b0316815260200184600001516001600160a01b03168152506040518263ffffffff1660e01b81526004016105509190612e54565b604051630bd039cd60e21b81526001600160a01b038216600482015260609060009073__$1dcbc4e76af7484d3342475f6e32ea9921$__90632f40e73490602401602060405180830381865af41580156118f6573d6000803e3d6000fd5b505050506040513d601f19601f8201168201806040525081019061191a9190612bbb565b604051637f80ceb160e01b81526004810182905290915073__$1dcbc4e76af7484d3342475f6e32ea9921$__90637f80ceb190602401602060405180830381865af415801561196d573d6000803e3d6000fd5b505050506040513d601f19601f8201168201806040525081019061199191906132d8565b61199e5750606092915050565b6040516335cd115160e01b81526004810182905260009073__$1dcbc4e76af7484d3342475f6e32ea9921$__906335cd115190602401600060405180830381865af41580156119f1573d6000803e3d6000fd5b505050506040513d6000823e601f3d908101601f19168201604052611a1991908101906132f5565b90506000815167ffffffffffffffff811115611a3757611a37612bea565b604051908082528060200260200182016040528015611a7057816020015b611a5d612807565b815260200190600190039081611a555790505b50905060005b8251811015611d0b57600073__$d6b170e28cdd9080cfdbe47025803469bd$__63f0350799858481518110611aad57611aad612bd4565b60200260200101516040518263ffffffff1660e01b8152600401611ad391815260200190565b602060405180830381865af4158015611af0573d6000803e3d6000fd5b505050506040513d601f19601f82011682018060405250810190611b149190612bbb565b6040805161022081018252825481526001830154602080830191909152600284015460ff80821615158486015261010080830490911615156060808601919091526001600160a01b036201000090930483166080808701919091526003880154841660a080880191909152600489015490941660c080880191909152600589015460e08089019190915260068a015494880194909452600789015461012088015260088901546101408801526009890154610160880152600a890154610180880152600b8901546101a088015287519384018852600c8901548452600d89015495840195909552600e88015496830196909652600f870154908201526010860154948101949094526011850154908401526012840154908301526101c081019190915260138201546101e08201526014820154610200820152845191925090849084908110611c6557611c65612bd4565b60200260200101516000018190525073__$27841a34e195c5bdb1981cd870ebbdf8d8$__631e2ff94f6040518163ffffffff1660e01b8152600401602060405180830381865af4158015611cbd573d6000803e3d6000fd5b505050506040513d601f19601f82011682018060405250810190611ce19190612bbb565b838381518110611cf357611cf3612bd4565b60209081029190910101516040015250600101611a76565b50949350505050565b60008160800135600003611d3b57604051630b4fc37360e11b815260040160405180910390fd5b604051630bd039cd60e21b815233600482018190529060009073__$1dcbc4e76af7484d3342475f6e32ea9921$__90632f40e73490602401602060405180830381865af4158015611d90573d6000803e3d6000fd5b505050506040513d601f19601f82011682018060405250810190611db49190612bbb565b60405163cb7ccd9360e01b8152600481018290528535602482015290915073__$1dcbc4e76af7484d3342475f6e32ea9921$__9063cb7ccd9390604401602060405180830381865af4158015611e0e573d6000803e3d6000fd5b505050506040513d601f19601f82011682018060405250810190611e3291906132d8565b611e4f57604051634a32858f60e01b815260040160405180910390fd5b60405163f035079960e01b81528435600482015260009073__$d6b170e28cdd9080cfdbe47025803469bd$__9063f035079990602401602060405180830381865af4158015611ea2573d6000803e3d6000fd5b505050506040513d601f19601f82011682018060405250810190611ec69190612bbb565b6002810154909150610100900460ff1615611ef457604051633046114760e01b815260040160405180910390fd5b611f0460408601602087016130e1565b156120d357611f1960608601604087016130e1565b1580611f285750846080013534145b611f705760405162461bcd60e51b81526020600482015260196024820152784465706f7369742065746820616d6f756e74206572726f722160381b6044820152606401610f8a565b73__$ea03dc6e7176064baf45a14dcf3b0b0296$__63ef59a9d16040518060a00160405280866001600160a01b03168152602001886040016020810190611fb791906130e1565b611fd057611fcb60808a0160608b01612b27565b612040565b73__$bda6750164d46530feeed1122c24ac1a13$__63606c0c946040518163ffffffff1660e01b815260040161012060405180830381865af415801561201a573d6000803e3d6000fd5b505050506040513d601f19601f8201168201806040525081019061203e91906130fe565b515b6001600160a01b03168152608089013560208201526040016001815260200161206f60608a0160408b016130e1565b15158152506040518263ffffffff1660e01b81526004016120909190613180565b602060405180830381865af41580156120ad573d6000803e3d6000fd5b505050506040513d601f19601f820116820180604052508101906120d19190612e37565b505b6000806120e08488612411565b60405163af5c2a6b60e01b8152919350915073__$dc802fc1d3dd8347e08cf7a91e97b416c7$__9063af5c2a6b906121229088908b908790879060040161338f565b602060405180830381865af415801561213f573d6000803e3d6000fd5b505050506040513d601f19601f820116820180604052508101906121639190612bbb565b979650505050505050565b6121783382612669565b61219e57604051632d7d0e0d60e21b815233600482015260248101829052604401610f8a565b50565b600080600073__$bda6750164d46530feeed1122c24ac1a13$__63606c0c946040518163ffffffff1660e01b815260040161012060405180830381865af41580156121f0573d6000803e3d6000fd5b505050506040513d601f19601f8201168201806040525081019061221491906130fe565b60c0810151604051634b7bc68160e01b815260e08701356004820152602481019190915290915073__$e6ad93c07d6cc44a1daca561617df2deac$__90634b7bc6819060440160006040518083038186803b15801561227257600080fd5b505af4158015612286573d6000803e3d6000fd5b5061229b9250505060608501604086016130e1565b80156122af57508360e001358460c0013510155b80156122c857506122c660808501606086016130e1565b155b156122eb576122df60e085013560c086013561341b565b6001925092505061240a565b8360e0013534146123505760405162461bcd60e51b815260206004820152602960248201527f757064617465206c65766572616765207769746820657865637574696f6e20666044820152686565206572726f722160b81b6064820152608401610f8a565b6040805160a08101825286546001600160a01b039081168252835116602082015260e0860135818301526000606082015260016080820152905163ef59a9d160e01b815273__$ea03dc6e7176064baf45a14dcf3b0b0296$__9163ef59a9d1916123bd9190600401613180565b602060405180830381865af41580156123da573d6000803e3d6000fd5b505050506040513d601f19601f820116820180604052508101906123fe9190612e37565b5050505060c081013560005b9250929050565b600080600073__$bda6750164d46530feeed1122c24ac1a13$__63606c0c946040518163ffffffff1660e01b815260040161012060405180830381865af4158015612460573d6000803e3d6000fd5b505050506040513d601f19601f8201168201806040525081019061248491906130fe565b60a081810151604051634b7bc68160e01b8152918701356004830152602482015290915073__$e6ad93c07d6cc44a1daca561617df2deac$__90634b7bc6819060440160006040518083038186803b1580156124df57600080fd5b505af41580156124f3573d6000803e3d6000fd5b506125089250505060608501604086016130e1565b801561251f575061251f60408501602086016130e1565b801561253357508360a00135846080013510155b1561254a576122df60a0850135608086013561341b565b8360a0013534146125ad5760405162461bcd60e51b815260206004820152602760248201527f757064617465206d617267696e207769746820657865637574696f6e20666565604482015266206572726f722160c81b6064820152608401610f8a565b6040805160a0808201835287546001600160a01b0390811683528451166020830152860135818301526000606082015260016080820152905163ef59a9d160e01b815273__$ea03dc6e7176064baf45a14dcf3b0b0296$__9163ef59a9d1916126199190600401613180565b602060405180830381865af4158015612636573d6000803e3d6000fd5b505050506040513d601f19601f8201168201806040525081019061265a9190612e37565b50505050608001359160009150565b6000806126746126a3565b6001600160a01b03851660009081526020829052604090209091506126999084612705565b9150505b92915050565b6000806040516020016126e7906020808252601e908201527f78797a2e656c66692e73746f726167652e416363657373436f6e74726f6c0000604082015260600190565b60408051601f19818403018152919052805160209091012092915050565b600081815260018301602052604081205415155b9392505050565b604051806102200160405280600080191681526020016000801916815260200160001515815260200160001515815260200160006001600160a01b0316815260200160006001600160a01b0316815260200160006001600160a01b03168152602001600081526020016000815260200160008152602001600081526020016000815260200160008152602001600081526020016127f36040518060e00160405280600081526020016000815260200160008152602001600081526020016000815260200160008152602001600081525090565b815260200160008152602001600081525090565b60405180606001604052806127f3612720565b6000806020838503121561282d57600080fd5b823567ffffffffffffffff8082111561284557600080fd5b818501915085601f83011261285957600080fd5b81358181111561286857600080fd5b8660208260051b850101111561287d57600080fd5b60209290920196919550909350505050565b6000806000604084860312156128a457600080fd5b83359250602084013567ffffffffffffffff808211156128c357600080fd5b818601915086601f8301126128d757600080fd5b8135818111156128e657600080fd5b8760208260071b85010111156128fb57600080fd5b6020830194508093505050509250925092565b6001600160a01b038116811461219e57600080fd5b803561292e8161290e565b919050565b801515811461219e57600080fd5b803561292e81612933565b6000806000806080858703121561296257600080fd5b843561296d8161290e565b93506020850135925060408501356129848161290e565b9150606085013561299481612933565b939692955090935050565b805182526020810151602083015260408101516129c0604084018215159052565b5060608101516129d4606084018215159052565b5060808101516129ef60808401826001600160a01b03169052565b5060a0810151612a0a60a08401826001600160a01b03169052565b5060c0810151612a2560c08401826001600160a01b03169052565b5060e08181015190830152610100808201519083015261012080820151908301526101408082015190830152610160808201519083015261018080820151908301526101a080820151908301526101c08082015180518285015260208101516101e085015260408101516102008501526060810151610220850152608081015161024085015260a081015161026085015260c081015161028085015250506101e08101516102a083015261020001516102c090910152565b6102e0810161269d828461299f565b60008060408385031215612aff57600080fd5b50508035926020909101359150565b60006101008284031215612b2157600080fd5b50919050565b600060208284031215612b3957600080fd5b81356127198161290e565b602080825282518282018190526000919060409081850190868401855b82811015612b9c578151612b7685825161299f565b808701516102e08601528501516103008501526103209093019290850190600101612b61565b5091979650505050505050565b600060c08284031215612b2157600080fd5b600060208284031215612bcd57600080fd5b5051919050565b634e487b7160e01b600052603260045260246000fd5b634e487b7160e01b600052604160045260246000fd5b604051610100810167ffffffffffffffff81118282101715612c2457612c24612bea565b60405290565b604051610140810167ffffffffffffffff81118282101715612c2457612c24612bea565b604051610120810167ffffffffffffffff81118282101715612c2457612c24612bea565b604051601f8201601f1916810167ffffffffffffffff81118282101715612c9b57612c9b612bea565b604052919050565b805161292e8161290e565b805161292e81612933565b60006101008284031215612ccc57600080fd5b612cd4612c00565b8251612cdf8161290e565b8152602083810151908201526040830151612cf98161290e565b806040830152506060830151606082015260808301516080820152612d2060a08401612cae565b60a0820152612d3160c08401612cae565b60c082015260e083015160e08201528091505092915050565b6020808252818101839052600090604080840186845b87811015612db7578135612d738161290e565b6001600160a01b0390811684528286013590612d8e8261290e565b168386015281840135848401526060808301359084015260809283019290910190600101612d60565b5090979650505050505050565b60018060a01b038082511683526020820151602084015280604083015116604084015250606081015160608301526080810151608083015260a0810151151560a083015260c0810151151560c083015260e081015160e08301525050565b82815261012081016127196020830184612dc4565b600060208284031215612e4957600080fd5b81516127198161290e565b81516001600160a01b0390811682526020808401519083015260408084015190830152606080840151821690830152608092830151169181019190915260a00190565b60006101408284031215612eaa57600080fd5b612eb2612c2a565b612ebb83612ca3565b815260208301516020820152612ed360408401612cae565b6040820152612ee460608401612cae565b6060820152612ef560808401612cae565b608082015260a083015160a0820152612f1060c08401612ca3565b60c082015260e083810151908201526101008084015190820152610120928301519281019290925250919050565b80516001600160a01b03168252602081015160208301526040810151612f68604084018215159052565b506060810151612f7c606084018215159052565b506080810151612f90608084018215159052565b5060a081015160a083015260c0810151612fb560c08401826001600160a01b03169052565b5060e08181015190830152610100808201519083015261012090810151910152565b8381526101808101612fec6020830185612f3e565b82610160830152949350505050565b6000610100828403121561300e57600080fd5b613016612c00565b825181526020830151602082015260408301516040820152606083015160608201526080830151608082015260a083015160a082015260c083015160c082015260e083015160e08201528091505092915050565b634e487b7160e01b600052602160045260246000fd5b600181811c9082168061309457607f821691505b602082108103612b2157634e487b7160e01b600052602260045260246000fd5b634e487b7160e01b600052601160045260246000fd5b808202811582820484141761269d5761269d6130b4565b6000602082840312156130f357600080fd5b813561271981612933565b6000610120828403121561311157600080fd5b613119612c4e565b61312283612ca3565b81526020830151602082015260408301516040820152606083015160608201526080830151608082015260a083015160a082015260c083015160c082015260e083015160e08201526101008084015181830152508091505092915050565b81516001600160a01b0390811682526020808401519091169082015260408083015190820152606082015160a0820190600481106131ce57634e487b7160e01b600052602160045260246000fd5b8060608401525060808301511515608083015292915050565b6001600160a01b0385168152833560208083019190915261016082019085013561321081612933565b801515604084015250604085013561322781612933565b80151560608401525061323c60608601612941565b801515608084015250608085013560a083015261325b60a08601612923565b6001600160a01b03811660c08401525060c085013560e083015260e08501356101008301528361012083015261329661014083018415159052565b95945050505050565b82815261016081016127196020830184612f3e565b83815261014081016132c96020830185612dc4565b82610120830152949350505050565b6000602082840312156132ea57600080fd5b815161271981612933565b6000602080838503121561330857600080fd5b825167ffffffffffffffff8082111561332057600080fd5b818501915085601f83011261333457600080fd5b81518181111561334657613346612bea565b8060051b9150613357848301612c72565b818152918301840191848101908884111561337157600080fd5b938501935b838510156112dc57845182529385019390850190613376565b6001600160a01b0385811682528435602080840191909152610120830191908601356133ba81612933565b80151560408501525060408601356133d181612933565b80151560608501525060608601356133e88161290e565b81811660808501525050608085013560a083015260a085013560c08301528360e083015261329661010083018415159052565b8181038181111561269d5761269d6130b456fea2646970667358221220e685eecd84850dac387d0bf2330753769f50dfbbac074cefc82eb829740f537564736f6c634300081900336080604052348015600f57600080fd5b506105958061001f6000396000f3fe608060405234801561001057600080fd5b506004361061004c5760003560e01c8063208dd1ff14610051578063ab2742dc14610066578063ac4ab3fb14610079578063cb337348146100a0575b600080fd5b61006461005f3660046104cd565b6100b3565b005b6100646100743660046104cd565b610105565b61008c6100873660046104cd565b61014e565b604051901515815260200160405180910390f35b6100646100ae3660046104f7565b610163565b6100c5336420a226a4a760d91b6101ae565b6100f757604051632d7d0e0d60e21b81523360048201526420a226a4a760d91b60248201526044015b60405180910390fd5b61010182826101e6565b5050565b610117336420a226a4a760d91b6101ae565b61014457604051632d7d0e0d60e21b81523360048201526420a226a4a760d91b60248201526044016100ee565b6101018282610243565b600061015a83836101ae565b90505b92915050565b610175336420a226a4a760d91b6101ae565b6101a257604051632d7d0e0d60e21b81523360048201526420a226a4a760d91b60248201526044016100ee565b6101ab81610272565b50565b6000806101b96102ab565b6001600160a01b03851660009081526020829052604090209091506101de908461030d565b949350505050565b60006101f06102ab565b6001600160a01b0384166000908152602082905260409020909150610215908361030d565b1561023e576001600160a01b038316600090815260208290526040902061023c9083610325565b505b505050565b600061024d6102ab565b6001600160a01b038416600090815260208290526040902090915061023c9083610331565b600061027c6102ab565b6001600160a01b038316600090815260208290526040812091925081816102a3828261047f565b505050505050565b6000806040516020016102ef906020808252601e908201527f78797a2e656c66692e73746f726167652e416363657373436f6e74726f6c0000604082015260600190565b60408051601f19818403018152919052805160209091012092915050565b6000818152600183016020526040812054151561015a565b600061015a838361033d565b600061015a8383610430565b60008181526001830160205260408120548015610426576000610361600183610512565b855490915060009061037590600190610512565b90508181146103da57600086600001828154811061039557610395610533565b90600052602060002001549050808760000184815481106103b8576103b8610533565b6000918252602080832090910192909255918252600188019052604090208390555b85548690806103eb576103eb610549565b60019003818190600052602060002001600090559055856001016000868152602001908152602001600020600090556001935050505061015d565b600091505061015d565b60008181526001830160205260408120546104775750815460018181018455600084815260208082209093018490558454848252828601909352604090209190915561015d565b50600061015d565b50805460008255906000526020600020908101906101ab91905b808211156104ad5760008155600101610499565b5090565b80356001600160a01b03811681146104c857600080fd5b919050565b600080604083850312156104e057600080fd5b6104e9836104b1565b946020939093013593505050565b60006020828403121561050957600080fd5b61015a826104b1565b8181038181111561015d57634e487b7160e01b600052601160045260246000fd5b634e487b7160e01b600052603260045260246000fd5b634e487b7160e01b600052603160045260246000fdfea26469706673582212203c7c48ce293b27978ab6b7c87bd81c2c885f35d0ab4a4b47ce115eb14d3e4a5664736f6c634300081900336080604052348015600f57600080fd5b506001600055611fc9806100246000396000f3fe6080604052600436106100555760003560e01c8063182250891461005a5780633b6f91441461007c5780636990d2451461009c5780639d437bd8146100bc578063a7cb6602146100dc578063a8b6d8aa14610101575b600080fd5b34801561006657600080fd5b5061007a61007536600461186d565b610114565b005b34801561008857600080fd5b5061007a6100973660046118ec565b6104a9565b3480156100a857600080fd5b5061007a6100b736600461186d565b610756565b3480156100c857600080fd5b5061007a6100d73660046118ec565b6109ab565b6100ef6100ea36600461190e565b610b35565b60405190815260200160405180910390f35b6100ef61010f366004611927565b61116d565b61011c61172c565b60005a90506101336525a2a2a822a960d11b611785565b604051634a83e9cd60e11b81526004810185905260009073__$988abcb60335749f19ec6e6d81793be917$__90639507d39a9060240161012060405180830381865af4158015610187573d6000803e3d6000fd5b505050506040513d601f19601f820116820180604052508101906101ab91906119aa565b80519091506001600160a01b03166101d657604051630f1bc76960e01b815260040160405180910390fd5b604051631d4cb62f60e21b815273__$bb4e55f00c0f45d2719800850b371b8ff8$__90637532d8bc9061020f9087908790600401611a44565b60006040518083038186803b15801561022757600080fd5b505af415801561023b573d6000803e3d6000fd5b505060405163c9ae3f5760e01b815273__$317369ce5f87122bd799bfe01bc62bd30d$__925063c9ae3f5791506102789088908590600401611b2e565b602060405180830381865af4158015610295573d6000803e3d6000fd5b505050506040513d601f19601f820116820180604052508101906102b99190611b43565b5073__$bb4e55f00c0f45d2719800850b371b8ff8$__63e52ed3656040518163ffffffff1660e01b815260040160006040518083038186803b1580156102fe57600080fd5b505af4158015610312573d6000803e3d6000fd5b5050505073__$e6ad93c07d6cc44a1daca561617df2deac$__634d4d56726040518060a001604052808461010001516103ac57306001600160a01b0316631f7592ea6040518163ffffffff1660e01b8152600401602060405180830381865afa158015610383573d6000803e3d6000fd5b505050506040513d601f19601f820116820180604052508101906103a79190611b5c565b61040e565b306001600160a01b03166308ba026f6040518163ffffffff1660e01b8152600401602060405180830381865afa1580156103ea573d6000803e3d6000fd5b505050506040513d601f19601f8201168201806040525081019061040e9190611b5c565b6001600160a01b031681526020018460c001518152602001858152602001336001600160a01b0316815260200184600001516001600160a01b03168152506040518263ffffffff1660e01b81526004016104689190611b79565b60006040518083038186803b15801561048057600080fd5b505af4158015610494573d6000803e3d6000fd5b5050505050506104a46001600055565b505050565b60005a90506104c06525a2a2a822a960d11b611785565b604051634a83e9cd60e11b81526004810184905260009073__$988abcb60335749f19ec6e6d81793be917$__90639507d39a9060240161012060405180830381865af4158015610514573d6000803e3d6000fd5b505050506040513d601f19601f8201168201806040525081019061053891906119aa565b80519091506001600160a01b031661056357604051630f1bc76960e01b815260040160405180910390fd5b6040516374ecebb160e11b815273__$317369ce5f87122bd799bfe01bc62bd30d$__9063e9d9d7629061059e90879085908890600401611bbc565b60006040518083038186803b1580156105b657600080fd5b505af41580156105ca573d6000803e3d6000fd5b5050505073__$e6ad93c07d6cc44a1daca561617df2deac$__634d4d56726040518060a0016040528084610100015161066457306001600160a01b0316631f7592ea6040518163ffffffff1660e01b8152600401602060405180830381865afa15801561063b573d6000803e3d6000fd5b505050506040513d601f19601f8201168201806040525081019061065f9190611b5c565b6106c6565b306001600160a01b03166308ba026f6040518163ffffffff1660e01b8152600401602060405180830381865afa1580156106a2573d6000803e3d6000fd5b505050506040513d601f19601f820116820180604052508101906106c69190611b5c565b6001600160a01b031681526020018460c001518152602001858152602001336001600160a01b0316815260200184600001516001600160a01b03168152506040518263ffffffff1660e01b81526004016107209190611b79565b60006040518083038186803b15801561073857600080fd5b505af415801561074c573d6000803e3d6000fd5b5050505050505050565b61075e61172c565b60005a90506107756525a2a2a822a960d11b611785565b604051631d4cb62f60e21b815273__$bb4e55f00c0f45d2719800850b371b8ff8$__90637532d8bc906107ae9086908690600401611a44565b60006040518083038186803b1580156107c657600080fd5b505af41580156107da573d6000803e3d6000fd5b5050604051634a83e9cd60e11b8152600481018790526000925073__$112492f1c5afaf3f538f3ccf4c11509573$__9150639507d39a9060240160e060405180830381865af4158015610831573d6000803e3d6000fd5b505050506040513d601f19601f820116820180604052508101906108559190611be0565b60208101519091506001600160a01b031661088357604051630a24c01d60e31b815260040160405180910390fd5b604051635b86b58d60e01b815273__$8bc6b0bc08b50b3cdb2560c802737e16f1$__90635b86b58d906108bc9088908590600401611cea565b60006040518083038186803b1580156108d457600080fd5b505af41580156108e8573d6000803e3d6000fd5b5050505073__$bb4e55f00c0f45d2719800850b371b8ff8$__63e52ed3656040518163ffffffff1660e01b815260040160006040518083038186803b15801561093057600080fd5b505af4158015610944573d6000803e3d6000fd5b5050505073__$e6ad93c07d6cc44a1daca561617df2deac$__634d4d56726040518060a00160405280306001600160a01b0316631f7592ea6040518163ffffffff1660e01b8152600401602060405180830381865afa1580156103ea573d6000803e3d6000fd5b60005a90506109c26525a2a2a822a960d11b611785565b604051634a83e9cd60e11b81526004810184905260009073__$112492f1c5afaf3f538f3ccf4c11509573$__90639507d39a9060240160e060405180830381865af4158015610a15573d6000803e3d6000fd5b505050506040513d601f19601f82011682018060405250810190610a399190611be0565b60208101519091506001600160a01b0316610a6757604051630a24c01d60e31b815260040160405180910390fd5b604051631189a61f60e01b815273__$8bc6b0bc08b50b3cdb2560c802737e16f1$__90631189a61f90610aa290879085908890600401611cff565b60006040518083038186803b158015610aba57600080fd5b505af4158015610ace573d6000803e3d6000fd5b5050505073__$e6ad93c07d6cc44a1daca561617df2deac$__634d4d56726040518060a00160405280306001600160a01b0316631f7592ea6040518163ffffffff1660e01b8152600401602060405180830381865afa1580156106a2573d6000803e3d6000fd5b6000610b3f61172c565b8160400135600003610b6457604051637e278d5760e11b815260040160405180910390fd5b6000610b736020840184611d23565b6001600160a01b031603610b9a5760405163801c452360e01b815260040160405180910390fd5b336000610bad6040850160208601611d23565b9050610bbc6020850185611d23565b6001600160a01b031673__$743db1863e6a0ee1ad13b47ec8f30557c4$__63f141859a6040518163ffffffff1660e01b8152600401602060405180830381865af4158015610c0e573d6000803e3d6000fd5b505050506040513d601f19601f82011682018060405250810190610c329190611b5c565b6001600160a01b031603610d04576040516339374da160e21b81526001600160a01b038216600482015273__$2ca09eef01f3e987781766047ffc2a4e22$__9063e4dd368490602401602060405180830381865af4158015610c98573d6000803e3d6000fd5b505050506040513d601f19601f82011682018060405250810190610cbc9190611d40565b610cff57610ccd6020850185611d23565b6040516364f3d63f60e01b81526001600160a01b03918216600482015290821660248201526044015b60405180910390fd5b610eb5565b73__$743db1863e6a0ee1ad13b47ec8f30557c4$__634f52e5b6610d2b6020870187611d23565b6040516001600160e01b031960e084901b1681526001600160a01b039091166004820152602401602060405180830381865af4158015610d6f573d6000803e3d6000fd5b505050506040513d601f19601f82011682018060405250810190610d939190611d40565b15610e8357600073__$7b3f0eea015ed8194e857e3ec238e14f04$__632f40e734610dc16020880188611d23565b6040516001600160e01b031960e084901b1681526001600160a01b039091166004820152602401602060405180830381865af4158015610e05573d6000803e3d6000fd5b505050506040513d601f19601f82011682018060405250810190610e299190611b43565b60028101549091506001600160a01b03838116911614610e7d57610e506020860186611d23565b6040516364f3d63f60e01b81526001600160a01b0391821660048201529083166024820152604401610cf6565b50610eb5565b610e906020850185611d23565b60405163f31dadd760e01b81526001600160a01b039091166004820152602401610cf6565b60608401351561103357610ed0610100850160e08601611d5d565b1580610edf5750836060013534145b610f2b5760405162461bcd60e51b815260206004820152601960248201527f4465706f7369742065746820616d6f756e74206572726f7221000000000000006044820152606401610cf6565b73__$ea03dc6e7176064baf45a14dcf3b0b0296$__63ef59a9d16040518060a00160405280856001600160a01b03168152602001876020016020810190610f729190611d23565b6001600160a01b0316815260608801356020820152604001610f9a60e0890160c08a01611d5d565b610fa5576002610fa8565b60035b6003811115610fb957610fb9611d7a565b8152602001610fcf610100890160e08a01611d5d565b15158152506040518263ffffffff1660e01b8152600401610ff09190611d90565b602060405180830381865af415801561100d573d6000803e3d6000fd5b505050506040513d601f19601f820116820180604052508101906110319190611b5c565b505b60008073__$317369ce5f87122bd799bfe01bc62bd30d$__637c853ff385886040518363ffffffff1660e01b815260040161106f929190611e80565b6040805180830381865af415801561108b573d6000803e3d6000fd5b505050506040513d601f19601f820116820180604052508101906110af9190611e9e565b9150915081866040013510156110d85760405163801c452360e01b815260040160405180910390fd5b60405163a405d30760e01b815273__$317369ce5f87122bd799bfe01bc62bd30d$__9063a405d307906111179089908890889088908890600401611ece565b602060405180830381865af4158015611134573d6000803e3d6000fd5b505050506040513d601f19601f820116820180604052508101906111589190611b43565b9450505050506111686001600055565b919050565b600061117761172c565b60008260600135116111c05760405162461bcd60e51b81526020600482015260126024820152710756e5374616b65416d6f756e74203d3d20360741b6044820152606401610cf6565b73__$6da87a77f33546d3f0e6244a8f7078a532$__637ff877006111e76020850185611d23565b6040516001600160e01b031960e084901b1681526001600160a01b03909116600482015260240160006040518083038186803b15801561122657600080fd5b505af415801561123a573d6000803e3d6000fd5b503392506000915061125490506040850160208601611d23565b6040516370a0823160e01b81526001600160a01b03848116600483015291909116906370a0823190602401602060405180830381865afa15801561129c573d6000803e3d6000fd5b505050506040513d601f19601f820116820180604052508101906112c09190611b43565b90508060000361130757816112db6040860160208701611d23565b60405163f8b251f760e01b81526001600160a01b03928316600482015291166024820152604401610cf6565b836060013581101561132457816112db6040860160208701611d23565b6113346040850160208601611d23565b6001600160a01b031673__$743db1863e6a0ee1ad13b47ec8f30557c4$__63f141859a6040518163ffffffff1660e01b8152600401602060405180830381865af4158015611386573d6000803e3d6000fd5b505050506040513d601f19601f820116820180604052508101906113aa9190611b5c565b6001600160a01b03160361149f5773__$2ca09eef01f3e987781766047ffc2a4e22$__63e4dd36846113e26060870160408801611d23565b6040516001600160e01b031960e084901b1681526001600160a01b039091166004820152602401602060405180830381865af4158015611426573d6000803e3d6000fd5b505050506040513d601f19601f8201168201806040525081019061144a9190611d40565b61149a5761145e6040850160208601611d23565b61146e6060860160408701611d23565b60405163fdeabc1960e01b81526001600160a01b03928316600482015291166024820152604401610cf6565b611629565b73__$743db1863e6a0ee1ad13b47ec8f30557c4$__634f52e5b66114c96040870160208801611d23565b6040516001600160e01b031960e084901b1681526001600160a01b039091166004820152602401602060405180830381865af415801561150d573d6000803e3d6000fd5b505050506040513d601f19601f820116820180604052508101906115319190611d40565b1561161957600073__$7b3f0eea015ed8194e857e3ec238e14f04$__632f40e7346115626040880160208901611d23565b6040516001600160e01b031960e084901b1681526001600160a01b039091166004820152602401602060405180830381865af41580156115a6573d6000803e3d6000fd5b505050506040513d601f19601f820116820180604052508101906115ca9190611b43565b90506115dc6060860160408701611d23565b60028201546001600160a01b03908116911614611613576116036040860160208701611d23565b61146e6060870160408801611d23565b50611629565b610e906040850160208601611d23565b604051633d39be3760e21b81526001600160a01b038316600482015260a0850135602482015273__$8bc6b0bc08b50b3cdb2560c802737e16f1$__9063f4e6f8dc9060440160006040518083038186803b15801561168657600080fd5b505af415801561169a573d6000803e3d6000fd5b50506040516305c00cf160e01b815273__$8bc6b0bc08b50b3cdb2560c802737e16f1$__92506305c00cf191506116dd9087908690606083013590600401611f12565b602060405180830381865af41580156116fa573d6000803e3d6000fd5b505050506040513d601f19601f8201168201806040525081019061171e9190611b43565b925050506111686001600055565b60026000540361177e5760405162461bcd60e51b815260206004820152601f60248201527f5265656e7472616e637947756172643a207265656e7472616e742063616c6c006044820152606401610cf6565b6002600055565b61178f33826117b8565b6117b557604051632d7d0e0d60e21b815233600482015260248101829052604401610cf6565b50565b6000806117c36117f0565b6001600160a01b03851660009081526020829052604090209091506117e89084611852565b949350505050565b600080604051602001611834906020808252601e908201527f78797a2e656c66692e73746f726167652e416363657373436f6e74726f6c0000604082015260600190565b60408051601f19818403018152919052805160209091012092915050565b600081815260018301602052604081205415155b9392505050565b60008060006040848603121561188257600080fd5b83359250602084013567ffffffffffffffff808211156118a157600080fd5b818601915086601f8301126118b557600080fd5b8135818111156118c457600080fd5b8760208260071b85010111156118d957600080fd5b6020830194508093505050509250925092565b600080604083850312156118ff57600080fd5b50508035926020909101359150565b6000610100828403121561192157600080fd5b50919050565b600060c0828403121561192157600080fd5b604051610120810167ffffffffffffffff8111828210171561196b57634e487b7160e01b600052604160045260246000fd5b60405290565b6001600160a01b03811681146117b557600080fd5b805161116881611971565b80151581146117b557600080fd5b805161116881611991565b600061012082840312156119bd57600080fd5b6119c5611939565b6119ce83611986565b81526119dc60208401611986565b60208201526119ed60408401611986565b6040820152606083015160608201526080830151608082015260a083015160a082015260c083015160c0820152611a2660e0840161199f565b60e0820152610100611a3981850161199f565b908201529392505050565b6020808252818101839052600090604080840186845b87811015611ab1578135611a6d81611971565b6001600160a01b0390811684528286013590611a8882611971565b168386015281840135848401526060808301359084015260809283019290910190600101611a5a565b5090979650505050505050565b60018060a01b0380825116835280602083015116602084015280604083015116604084015250606081015160608301526080810151608083015260a081015160a083015260c081015160c083015260e0810151611b1f60e084018215159052565b50610100908101511515910152565b82815261014081016118666020830184611abe565b600060208284031215611b5557600080fd5b5051919050565b600060208284031215611b6e57600080fd5b815161186681611971565b81516001600160a01b0390811682526020808401519083015260408084015190830152606080840151821690830152608092830151169181019190915260a00190565b8381526101608101611bd16020830185611abe565b82610140830152949350505050565b600060e08284031215611bf257600080fd5b60405160e0810181811067ffffffffffffffff82111715611c2357634e487b7160e01b600052604160045260246000fd5b6040528251611c3181611971565b81526020830151611c4181611971565b60208201526040830151611c5481611971565b60408201526060830151611c6781611971565b806060830152506080830151608082015260a083015160a082015260c083015160c08201528091505092915050565b60018060a01b03808251168352806020830151166020840152806040830151166040840152806060830151166060840152506080810151608083015260a081015160a083015260c081015160c08301525050565b82815261010081016118666020830184611c96565b8381526101208101611d146020830185611c96565b82610100830152949350505050565b600060208284031215611d3557600080fd5b813561186681611971565b600060208284031215611d5257600080fd5b815161186681611991565b600060208284031215611d6f57600080fd5b813561186681611991565b634e487b7160e01b600052602160045260246000fd5b81516001600160a01b0390811682526020808401519091169082015260408083015190820152606082015160a082019060048110611dde57634e487b7160e01b600052602160045260246000fd5b8060608401525060808301511515608083015292915050565b8035611e0281611971565b6001600160a01b039081168352602082013590611e1e82611971565b8082166020850152505060408101356040830152606081013560608301526080810135608083015260a081013560a083015260c0810135611e5e81611991565b151560c083015260e0810135611e7381611991565b80151560e0840152505050565b6001600160a01b038316815261012081016118666020830184611df7565b60008060408385031215611eb157600080fd5b825191506020830151611ec381611991565b809150509250929050565b6101808101611edd8288611df7565b6001600160a01b0395861661010083015293909416610120850152610140840191909152151561016090920191909152919050565b61010081018435611f2281611971565b6001600160a01b039081168352602086013590611f3e82611971565b9081166020840152604086013590611f5582611971565b8082166040850152606087013560608501526080870135608085015260a087013560a085015280861660c085015250508260e083015294935050505056fea26469706673582212200243abb00276550b070f51282be617c01e0475c121e312a044468651e7d6465d64736f6c634300081900336080604052348015600f57600080fd5b506103028061001f6000396000f3fe608060405234801561001057600080fd5b50600436106100365760003560e01c8063180e24bb1461003b5780631d3c97b714610060575b600080fd5b61004e61004936600461018c565b610075565b60405190815260200160405180910390f35b61007361006e3660046101c8565b610103565b005b60405163180e24bb60e01b81526001600160a01b0383166004820152811515602482015260009073__$bb4e55f00c0f45d2719800850b371b8ff8$__9063180e24bb90604401602060405180830381865af41580156100d8573d6000803e3d6000fd5b505050506040513d601f19601f820116820180604052508101906100fc919061023d565b9392505050565b604051631d4cb62f60e21b815273__$bb4e55f00c0f45d2719800850b371b8ff8$__90637532d8bc9061013c9085908590600401610256565b60006040518083038186803b15801561015457600080fd5b505af4158015610168573d6000803e3d6000fd5b505050505050565b80356001600160a01b038116811461018757600080fd5b919050565b6000806040838503121561019f57600080fd5b6101a883610170565b9150602083013580151581146101bd57600080fd5b809150509250929050565b600080602083850312156101db57600080fd5b823567ffffffffffffffff808211156101f357600080fd5b818501915085601f83011261020757600080fd5b81358181111561021657600080fd5b8660208260071b850101111561022b57600080fd5b60209290920196919550909350505050565b60006020828403121561024f57600080fd5b5051919050565b6020808252818101839052600090604080840186845b878110156102bf576001600160a01b038061028684610170565b16845280610295878501610170565b1684870152508184013584840152606080830135908401526080928301929091019060010161026c565b509097965050505050505056fea26469706673582212205fbaa8df3b01cd0211b8eea482921f671bc15fa23aff36b990e197587f79fa7764736f6c634300081900336080604052348015600f57600080fd5b5061089d8061001f6000396000f3fe608060405234801561001057600080fd5b50600436106100415760003560e01c80638e941347146100465780639fe30b031461006c578063c93c5b401461007f575b600080fd5b61005961005436600461056d565b61009f565b6040519081526020015b60405180910390f35b61005961007a3660046105b8565b6101b2565b61009261008d3660046105dc565b61023b565b6040516100639190610651565b604051630bd039cd60e21b81526001600160a01b038416600482015260009073__$191a6263ecbfae700711f035c52cfbd3c9$__90632f40e73490602401602060405180830381865af41580156100fa573d6000803e3d6000fd5b505050506040513d601f19601f8201168201806040525081019061011e91906106f0565b60405163f077a96b60e01b815260048101919091526001600160a01b0380851660248301528316604482015273__$191a6263ecbfae700711f035c52cfbd3c9$__9063f077a96b906064016040805180830381865af4158015610185573d6000803e3d6000fd5b505050506040513d601f19601f820116820180604052508101906101a99190610750565b51949350505050565b604051630bd039cd60e21b81526001600160a01b038216600482015260009073__$191a6263ecbfae700711f035c52cfbd3c9$__90632f40e73490602401602060405180830381865af415801561020d573d6000803e3d6000fd5b505050506040513d601f19601f8201168201806040525081019061023191906106f0565b6005015492915050565b6102666040518060800160405280600081526020016060815260200160608152602001606081525090565b604051630bd039cd60e21b81526001600160a01b038416600482015260009073__$191a6263ecbfae700711f035c52cfbd3c9$__90632f40e73490602401602060405180830381865af41580156102c1573d6000803e3d6000fd5b505050506040513d601f19601f820116820180604052508101906102e591906106f0565b60405163b4396a5b60e01b8152600481018290526001600160a01b038516602482015290915060009073__$191a6263ecbfae700711f035c52cfbd3c9$__9063b4396a5b90604401600060405180830381865af415801561034a573d6000803e3d6000fd5b505050506040513d6000823e601f3d908101601f19168201604052610372919081019061079f565b90506000815167ffffffffffffffff81111561039057610390610709565b6040519080825280602002602001820160405280156103b9578160200160208202803683370190505b5090506000825167ffffffffffffffff8111156103d8576103d8610709565b604051908082528060200260200182016040528015610401578160200160208202803683370190505b50905060005b83518110156105125760008573__$191a6263ecbfae700711f035c52cfbd3c9$__63f077a96b90918a88868151811061044257610442610851565b60200260200101516040518463ffffffff1660e01b8152600401610482939291909283526001600160a01b03918216602084015216604082015260600190565b6040805180830381865af415801561049e573d6000803e3d6000fd5b505050506040513d601f19601f820116820180604052508101906104c29190610750565b905080600001518483815181106104db576104db610851565b60200260200101818152505080602001518383815181106104fe576104fe610851565b602090810291909101015250600101610407565b50604080516080810182526001600160a01b0388166000908152600390960160209081529582902054815294850193909352918301526060820152905092915050565b6001600160a01b038116811461056a57600080fd5b50565b60008060006060848603121561058257600080fd5b833561058d81610555565b9250602084013561059d81610555565b915060408401356105ad81610555565b809150509250925092565b6000602082840312156105ca57600080fd5b81356105d581610555565b9392505050565b600080604083850312156105ef57600080fd5b82356105fa81610555565b9150602083013561060a81610555565b809150509250929050565b60008151808452602080850194506020840160005b838110156106465781518752958201959082019060010161062a565b509495945050505050565b60208082528251828201528281015160806040840152805160a0840181905260009291820190839060c08601905b808310156106a85783516001600160a01b0316825292840192600192909201919084019061067f565b5060408701519350601f199250828682030160608701526106c98185610615565b935050506060850151818584030160808601526106e68382610615565b9695505050505050565b60006020828403121561070257600080fd5b5051919050565b634e487b7160e01b600052604160045260246000fd5b604051601f8201601f1916810167ffffffffffffffff8111828210171561074857610748610709565b604052919050565b60006040828403121561076257600080fd5b6040516040810181811067ffffffffffffffff8211171561078557610785610709565b604052825181526020928301519281019290925250919050565b600060208083850312156107b257600080fd5b825167ffffffffffffffff808211156107ca57600080fd5b818501915085601f8301126107de57600080fd5b8151818111156107f0576107f0610709565b8060051b915061080184830161071f565b818152918301840191848101908884111561081b57600080fd5b938501935b83851015610845578451925061083583610555565b8282529385019390850190610820565b98975050505050505050565b634e487b7160e01b600052603260045260246000fdfea26469706673582212201fb8a758f652e633a27b5ae9c417dca70e9d882a81b4d170313fde2bd4e937a964736f6c634300081900336080604052348015600f57600080fd5b5060016000556113ab806100246000396000f3fe608060405234801561001057600080fd5b50600436106100575760003560e01c80631559a2431461005c5780633e4fb7c21461008557806375d037d0146100a55780639e9e78f4146100ad578063bbe4f6db146100cd575b600080fd5b61006f61006a366004610507565b6100e0565b60405161007c9190610661565b60405180910390f35b610098610093366004610507565b61016d565b60405161007c919061095b565b61006f6101ee565b6100c06100bb3660046109d7565b61026c565b60405161007c9190610a2b565b6100c06100db366004610a3e565b6102fc565b6100e8610385565b6040516351a2d1d960e11b815273__$25f434b046b3be09ee6eb7fd6d1ece0e36$__9063a345a3b2906101219086908690600401610ac4565b600060405180830381865af415801561013e573d6000803e3d6000fd5b505050506040513d6000823e601f3d908101601f191682016040526101669190810190610e0c565b9392505050565b60405163c77b227f60e01b815260609073__$25f434b046b3be09ee6eb7fd6d1ece0e36$__9063c77b227f906101a99086908690600401610ac4565b600060405180830381865af41580156101c6573d6000803e3d6000fd5b505050506040513d6000823e601f3d908101601f1916820160405261016691908101906111f1565b6101f6610385565b73__$25f434b046b3be09ee6eb7fd6d1ece0e36$__6375d037d06040518163ffffffff1660e01b8152600401600060405180830381865af415801561023f573d6000803e3d6000fd5b505050506040513d6000823e601f3d908101601f191682016040526102679190810190610e0c565b905090565b6102746103d1565b604051630c39392160e31b815273__$25f434b046b3be09ee6eb7fd6d1ece0e36$__906361c9c908906102af908790879087906004016112a1565b600060405180830381865af41580156102cc573d6000803e3d6000fd5b505050506040513d6000823e601f3d908101601f191682016040526102f491908101906112c6565b949350505050565b6103046103d1565b604051630c39392160e31b815260609073__$25f434b046b3be09ee6eb7fd6d1ece0e36$__906361c9c9089061034090869085906004016112fa565b600060405180830381865af415801561035d573d6000803e3d6000fd5b505050506040513d6000823e601f3d908101601f1916820160405261016691908101906112c6565b6040518061012001604052806060815260200160608152602001606081526020016000815260200160008152602001606081526020016060815260200160008152602001600081525090565b604051806101c0016040528060006001600160a01b031681526020016060815260200160006001600160a01b031681526020016000801916815260200161044e6040518060e00160405280600081526020016000815260200160008152602001600081526020016000815260200160608152602001606081525090565b81526020016060815260200160608152602001600081526020016000815260200160008152602001600081526020016104a86040518060800160405280600081526020016000815260200160008152602001600081525090565b815260200160008152602001600081525090565b60008083601f8401126104ce57600080fd5b5081356001600160401b038111156104e557600080fd5b6020830191508360208260071b850101111561050057600080fd5b9250929050565b6000806020838503121561051a57600080fd5b82356001600160401b0381111561053057600080fd5b61053c858286016104bc565b90969095509350505050565b60008151808452602080850194506020840160005b838110156105825781516001600160a01b03168752958201959082019060010161055d565b509495945050505050565b60008151808452602080850194506020840160005b8381101561058257815180518852838101518489015260409081015190880152606090960195908201906001016105a2565b60008151808452602080850194506020840160005b83811015610582578151875295820195908201906001016105e9565b60008151808452602080850194506020840160005b838110156105825761064e878351805182526020810151602083015260408101516040830152606081015160608301525050565b608096909601959082019060010161061a565b6020815260008251610120806020850152610680610140850183610548565b91506020850151601f198086850301604087015261069e848361058d565b935060408701519150808685030160608701526106bb84836105d4565b935060608701516080870152608087015160a087015260a08701519150808685030160c08701526106ec84836105d4565b935060c08701519150808685030160e08701525061070a8382610605565b60e087015161010087810191909152909601519190940152509192915050565b60005b8381101561074557818101518382015260200161072d565b50506000910152565b6000815180845261076681602086016020860161072a565b601f01601f19169290920160200192915050565b8051825260208101516020830152604081015160408301526060810151606083015260808101516080830152600060a082015160e060a08501526107c160e0850182610548565b905060c083015184820360c08601526107da82826105d4565b95945050505050565b60008282518085526020808601955060208260051b8401016020860160005b8481101561083057601f1986840301895261081e83835161077a565b98840198925090830190600101610802565b5090979650505050505050565b80516001600160a01b03168252600061022060208301518160208601526108668286018261074e565b915050604083015161088360408601826001600160a01b03169052565b5060608301516060850152608083015184820360808601526108a5828261077a565b91505060a083015184820360a08601526108bf8282610548565b91505060c083015184820360c08601526108d982826107e3565b60e0858101519087015261010080860151908701526101208086015190870152610140808601519087015261016080860151805182890152602081015161018089015260408101516101a089015260608101516101c0890152919350915050506101808301516101e08501526101a08301516102008501528091505092915050565b600060208083016020845280855180835260408601915060408160051b87010192506020870160005b828110156109b257603f198886030184526109a085835161083d565b94509285019290850190600101610984565b5092979650505050505050565b6001600160a01b03811681146109d457600080fd5b50565b6000806000604084860312156109ec57600080fd5b83356109f7816109bf565b925060208401356001600160401b03811115610a1257600080fd5b610a1e868287016104bc565b9497909650939450505050565b602081526000610166602083018461083d565b600060208284031215610a5057600080fd5b8135610166816109bf565b8183526000602080850194508260005b85811015610582578135610a7e816109bf565b6001600160a01b0390811688528284013590610a99826109bf565b1687840152604082810135908801526060808301359088015260809687019690910190600101610a6b565b6020815260006102f4602083018486610a5b565b634e487b7160e01b600052604160045260246000fd5b604051606081016001600160401b0381118282101715610b1057610b10610ad8565b60405290565b60405161012081016001600160401b0381118282101715610b1057610b10610ad8565b60405160e081016001600160401b0381118282101715610b1057610b10610ad8565b6040516101c081016001600160401b0381118282101715610b1057610b10610ad8565b604051601f8201601f191681016001600160401b0381118282101715610ba657610ba6610ad8565b604052919050565b60006001600160401b03821115610bc757610bc7610ad8565b5060051b60200190565b8051610bdc816109bf565b919050565b600082601f830112610bf257600080fd5b81516020610c07610c0283610bae565b610b7e565b8083825260208201915060208460051b870101935086841115610c2957600080fd5b602086015b84811015610c4e578051610c41816109bf565b8352918301918301610c2e565b509695505050505050565b600082601f830112610c6a57600080fd5b81516020610c7a610c0283610bae565b82815260609283028501820192828201919087851115610c9957600080fd5b8387015b858110156108305781818a031215610cb55760008081fd5b610cbd610aee565b815181528582015186820152604080830151908201528452928401928101610c9d565b600082601f830112610cf157600080fd5b81516020610d01610c0283610bae565b8083825260208201915060208460051b870101935086841115610d2357600080fd5b602086015b84811015610c4e5780518352918301918301610d28565b600060808284031215610d5157600080fd5b604051608081018181106001600160401b0382111715610d7357610d73610ad8565b8060405250809150825181526020830151602082015260408301516040820152606083015160608201525092915050565b600082601f830112610db557600080fd5b81516020610dc5610c0283610bae565b8083825260208201915060208460071b870101935086841115610de757600080fd5b602086015b84811015610c4e57610dfe8882610d3f565b835291830191608001610dec565b600060208284031215610e1e57600080fd5b81516001600160401b0380821115610e3557600080fd5b908301906101208286031215610e4a57600080fd5b610e52610b16565b825182811115610e6157600080fd5b610e6d87828601610be1565b825250602083015182811115610e8257600080fd5b610e8e87828601610c59565b602083015250604083015182811115610ea657600080fd5b610eb287828601610ce0565b604083015250606083015160608201526080830151608082015260a083015182811115610ede57600080fd5b610eea87828601610ce0565b60a08301525060c083015182811115610f0257600080fd5b610f0e87828601610da4565b60c08301525060e083810151908201526101009283015192810192909252509392505050565b600082601f830112610f4557600080fd5b81516001600160401b03811115610f5e57610f5e610ad8565b610f71601f8201601f1916602001610b7e565b818152846020838601011115610f8657600080fd5b6102f482602083016020870161072a565b600060e08284031215610fa957600080fd5b610fb1610b39565b9050815181526020820151602082015260408201516040820152606082015160608201526080820151608082015260a08201516001600160401b0380821115610ff957600080fd5b61100585838601610be1565b60a084015260c084015191508082111561101e57600080fd5b5061102b84828501610ce0565b60c08301525092915050565b600082601f83011261104857600080fd5b81516020611058610c0283610bae565b82815260059290921b8401810191818101908684111561107757600080fd5b8286015b84811015610c4e5780516001600160401b0381111561109a5760008081fd5b6110a88986838b0101610f97565b84525091830191830161107b565b600061022082840312156110c957600080fd5b6110d1610b5b565b90506110dc82610bd1565b815260208201516001600160401b03808211156110f857600080fd5b61110485838601610f34565b602084015261111560408501610bd1565b604084015260608401516060840152608084015191508082111561113857600080fd5b61114485838601610f97565b608084015260a084015191508082111561115d57600080fd5b61116985838601610be1565b60a084015260c084015191508082111561118257600080fd5b5061118f84828501611037565b60c08301525060e082810151908201526101008083015190820152610120808301519082015261014080830151908201526101606111cf84828501610d3f565b908201526101e0820151610180820152610200909101516101a0820152919050565b6000602080838503121561120457600080fd5b82516001600160401b038082111561121b57600080fd5b818501915085601f83011261122f57600080fd5b815161123d610c0282610bae565b81815260059190911b8301840190848101908883111561125c57600080fd5b8585015b83811015611294578051858111156112785760008081fd5b6112868b89838a01016110b6565b845250918601918601611260565b5098975050505050505050565b6001600160a01b03841681526040602082018190526000906107da9083018486610a5b565b6000602082840312156112d857600080fd5b81516001600160401b038111156112ee57600080fd5b6102f4848285016110b6565b6001600160a01b038381168252604060208084018290528451848301819052600093606092909183870190888301875b82811015611365578151805187168552858101518716868601528881015189860152870151878501526080909301929084019060010161132a565b50919a995050505050505050505056fea26469706673582212204c85ace11c772486305c684fffa8a3a848151fd4aea9952b817781610752eb0e64736f6c634300081900336080604052348015600f57600080fd5b506103f78061001f6000396000f3fe608060405234801561001057600080fd5b506004361061002b5760003560e01c8063d3e4af2814610030575b600080fd5b61004361003e3660046102ba565b610045565b005b6100576525a2a2a822a960d11b6101e6565b60005a604051631d4cb62f60e21b815290915073__$bb4e55f00c0f45d2719800850b371b8ff8$__90637532d8bc90610096908690869060040161034b565b60006040518083038186803b1580156100ae57600080fd5b505af41580156100c2573d6000803e3d6000fd5b5050505073__$aa586609104187a69096da7747e4c95580$__637a6efd476040518163ffffffff1660e01b815260040160006040518083038186803b15801561010a57600080fd5b505af415801561011e573d6000803e3d6000fd5b5050505073__$bb4e55f00c0f45d2719800850b371b8ff8$__63e52ed3656040518163ffffffff1660e01b815260040160006040518083038186803b15801561016657600080fd5b505af415801561017a573d6000803e3d6000fd5b50506040516307c43b6960e21b81526004810184905273__$e6ad93c07d6cc44a1daca561617df2deac$__9250631f10eda4915060240160006040518083038186803b1580156101c957600080fd5b505af41580156101dd573d6000803e3d6000fd5b50505050505050565b6101f0338261021d565b61021a57604051632d7d0e0d60e21b81523360048201526024810182905260440160405180910390fd5b50565b600080610228610258565b6001600160a01b039490941660009081526020948552604080822094825260019094019094525050902054151590565b60008060405160200161029c906020808252601e908201527f78797a2e656c66692e73746f726167652e416363657373436f6e74726f6c0000604082015260600190565b60408051601f19818403018152919052805160209091012092915050565b600080602083850312156102cd57600080fd5b823567ffffffffffffffff808211156102e557600080fd5b818501915085601f8301126102f957600080fd5b81358181111561030857600080fd5b8660208260071b850101111561031d57600080fd5b60209290920196919550909350505050565b80356001600160a01b038116811461034657600080fd5b919050565b6020808252818101839052600090604080840186845b878110156103b4576001600160a01b038061037b8461032f565b1684528061038a87850161032f565b16848701525081840135848401526060808301359084015260809283019290910190600101610361565b509097965050505050505056fea26469706673582212209aee74c4d309342043f08fbb0311bad48e9814b2f4f469128f6393071ca2144864736f6c634300081900336080604052348015600f57600080fd5b506116818061001f6000396000f3fe6080604052600436106100a75760003560e01c8063943144b711610064578063943144b71461019b578063ada56365146101ae578063b9ee8073146101db578063bc8f47c5146101fb578063e9e6741f1461021b578063ed3bb1471461023b57600080fd5b806351ebcaad146100ac57806355be18cb146100df5780635b9e52be146100ff5780635c99abaa1461012c5780637ad18303146101595780639084692c14610179575b600080fd5b3480156100b857600080fd5b506100cc6100c7366004610f20565b61025b565b6040519081526020015b60405180910390f35b3480156100eb57600080fd5b506100cc6100fa366004610f20565b6102ec565b34801561010b57600080fd5b5061011f61011a366004610f59565b610337565b6040516100d691906110a1565b34801561013857600080fd5b5061014c610147366004611105565b6104a1565b6040516100d69190611150565b34801561016557600080fd5b506100cc610174366004611105565b610536565b34801561018557600080fd5b5061019961019436600461115e565b6105b5565b005b6101996101a93660046111dd565b6108b4565b3480156101ba57600080fd5b506101ce6101c9366004611105565b610930565b6040516100d69190611209565b3480156101e757600080fd5b506100cc6101f6366004610f20565b6109e4565b34801561020757600080fd5b506100cc61021636600461121c565b610a2f565b34801561022757600080fd5b5061019961023636600461115e565b610a79565b34801561024757600080fd5b50610199610256366004611241565b610c22565b60405163194a973560e21b81526001600160a01b0380841660048301528216602482015260009073__$67cfe04febc0c6a196ad44311ad3cbf110$__9063652a5cd4906044015b602060405180830381865af41580156102bf573d6000803e3d6000fd5b505050506040513d601f19601f820116820180604052508101906102e39190611263565b90505b92915050565b6040516355be18cb60e01b81526001600160a01b0380841660048301528216602482015260009073__$67cfe04febc0c6a196ad44311ad3cbf110$__906355be18cb906044016102a2565b606060008267ffffffffffffffff8111156103545761035461127c565b6040519080825280602002602001820160405280156103b957816020015b6103a6604051806080016040528060006001600160a01b031681526020016060815260200160608152602001606081525090565b8152602001906001900390816103725790505b50905060005b838110156104995773__$67cfe04febc0c6a196ad44311ad3cbf110$__63ada563658686848181106103f3576103f3611292565b90506020020160208101906104089190611105565b6040516001600160e01b031960e084901b1681526001600160a01b039091166004820152602401600060405180830381865af415801561044c573d6000803e3d6000fd5b505050506040513d6000823e601f3d908101601f191682016040526104749190810190611393565b82828151811061048657610486611292565b60209081029190910101526001016103bf565b509392505050565b60408051606081018252600080825260208201819052818301529051632e4cd5d560e11b81526001600160a01b038316600482015273__$67cfe04febc0c6a196ad44311ad3cbf110$__90635c99abaa90602401606060405180830381865af4158015610512573d6000803e3d6000fd5b505050506040513d601f19601f820116820180604052508101906102e6919061151f565b604051637ad1830360e01b81526001600160a01b038216600482015260009073__$67cfe04febc0c6a196ad44311ad3cbf110$__90637ad1830390602401602060405180830381865af4158015610591573d6000803e3d6000fd5b505050506040513d601f19601f820116820180604052508101906102e69190611263565b60005a90506105cc6525a2a2a822a960d11b610e27565b604051634a83e9cd60e11b81526004810185905260009073__$e643e6cf3917af9dcfb872331bc66323b0$__90639507d39a90602401606060405180830381865af415801561061f573d6000803e3d6000fd5b505050506040513d601f19601f82011682018060405250810190610643919061151f565b80519091506001600160a01b031661066e57604051630749e2d560e11b815260040160405180910390fd5b604051631d4cb62f60e21b815273__$bb4e55f00c0f45d2719800850b371b8ff8$__90637532d8bc906106a7908790879060040161153b565b60006040518083038186803b1580156106bf57600080fd5b505af41580156106d3573d6000803e3d6000fd5b5050604051633802c05360e01b815273__$0c429270477c585c18b26856120157750b$__9250633802c053915061071090889085906004016115b5565b60006040518083038186803b15801561072857600080fd5b505af415801561073c573d6000803e3d6000fd5b5050505073__$bb4e55f00c0f45d2719800850b371b8ff8$__63e52ed3656040518163ffffffff1660e01b815260040160006040518083038186803b15801561078457600080fd5b505af4158015610798573d6000803e3d6000fd5b5050505073__$e6ad93c07d6cc44a1daca561617df2deac$__634d4d56726040518060a00160405280306001600160a01b0316631f7592ea6040518163ffffffff1660e01b8152600401602060405180830381865afa1580156107ff573d6000803e3d6000fd5b505050506040513d601f19601f8201168201806040525081019061082391906115c9565b6001600160a01b0316815260200184604001518152602001858152602001336001600160a01b0316815260200184600001516001600160a01b03168152506040518263ffffffff1660e01b815260040161087d91906115e6565b60006040518083038186803b15801561089557600080fd5b505af41580156108a9573d6000803e3d6000fd5b505050505050505050565b6040516369479be960e01b81523360048201526001600160a01b03831660248201526044810182905273__$0c429270477c585c18b26856120157750b$__906369479be99060640160006040518083038186803b15801561091457600080fd5b505af4158015610928573d6000803e3d6000fd5b505050505050565b610964604051806080016040528060006001600160a01b031681526020016060815260200160608152602001606081525090565b60405163ada5636560e01b81526001600160a01b038316600482015273__$67cfe04febc0c6a196ad44311ad3cbf110$__9063ada5636590602401600060405180830381865af41580156109bc573d6000803e3d6000fd5b505050506040513d6000823e601f3d908101601f191682016040526102e69190810190611393565b60405163b9ee807360e01b81526001600160a01b0380841660048301528216602482015260009073__$67cfe04febc0c6a196ad44311ad3cbf110$__9063b9ee8073906044016102a2565b60405163840ad0f160e01b8152600481018390526001600160a01b038216602482015260009073__$67cfe04febc0c6a196ad44311ad3cbf110$__9063840ad0f1906044016102a2565b60005a9050610a906525a2a2a822a960d11b610e27565b604051631d4cb62f60e21b815273__$bb4e55f00c0f45d2719800850b371b8ff8$__90637532d8bc90610ac9908690869060040161153b565b60006040518083038186803b158015610ae157600080fd5b505af4158015610af5573d6000803e3d6000fd5b505060405163971b55b160e01b81526004810187905273__$847d921db394f33b9463483a8c1aff7906$__925063971b55b1915060240160006040518083038186803b158015610b4457600080fd5b505af4158015610b58573d6000803e3d6000fd5b5050505073__$bb4e55f00c0f45d2719800850b371b8ff8$__63e52ed3656040518163ffffffff1660e01b815260040160006040518083038186803b158015610ba057600080fd5b505af4158015610bb4573d6000803e3d6000fd5b50506040516307c43b6960e21b81526004810184905273__$e6ad93c07d6cc44a1daca561617df2deac$__9250631f10eda491506024015b60006040518083038186803b158015610c0457600080fd5b505af4158015610c18573d6000803e3d6000fd5b5050505050505050565b60005a9050610c396525a2a2a822a960d11b610e27565b604051634a83e9cd60e11b81526004810184905260009073__$e643e6cf3917af9dcfb872331bc66323b0$__90639507d39a90602401606060405180830381865af4158015610c8c573d6000803e3d6000fd5b505050506040513d601f19601f82011682018060405250810190610cb0919061151f565b80519091506001600160a01b0316610cdb57604051630749e2d560e11b815260040160405180910390fd5b60405163291cf96960e21b815273__$0c429270477c585c18b26856120157750b$__9063a473e5a490610d1690879085908890600401611629565b60006040518083038186803b158015610d2e57600080fd5b505af4158015610d42573d6000803e3d6000fd5b5050505073__$e6ad93c07d6cc44a1daca561617df2deac$__634d4d56726040518060a00160405280306001600160a01b0316631f7592ea6040518163ffffffff1660e01b8152600401602060405180830381865afa158015610da9573d6000803e3d6000fd5b505050506040513d601f19601f82011682018060405250810190610dcd91906115c9565b6001600160a01b0316815260200184604001518152602001858152602001336001600160a01b0316815260200184600001516001600160a01b03168152506040518263ffffffff1660e01b8152600401610bec91906115e6565b610e313382610e5e565b610e5b57604051632d7d0e0d60e21b81523360048201526024810182905260440160405180910390fd5b50565b600080610e69610ea9565b6001600160a01b0385166000908152602082905260409020909150610ea19084600081815260018301602052604081205415156102e3565b949350505050565b600080604051602001610eed906020808252601e908201527f78797a2e656c66692e73746f726167652e416363657373436f6e74726f6c0000604082015260600190565b60408051601f19818403018152919052805160209091012092915050565b6001600160a01b0381168114610e5b57600080fd5b60008060408385031215610f3357600080fd5b8235610f3e81610f0b565b91506020830135610f4e81610f0b565b809150509250929050565b60008060208385031215610f6c57600080fd5b823567ffffffffffffffff80821115610f8457600080fd5b818501915085601f830112610f9857600080fd5b813581811115610fa757600080fd5b8660208260051b8501011115610fbc57600080fd5b60209290920196919550909350505050565b60008151808452602080850194506020840160005b838110156110085781516001600160a01b031687529582019590820190600101610fe3565b509495945050505050565b60018060a01b038151168252600060208083015160808286015261103a6080860182610fce565b9050604084015185820360408701526110538282610fce565b606086810151888303918901919091528051808352908501935060009250908401905b808310156110965783518252928401926001929092019190840190611076565b509695505050505050565b600060208083016020845280855180835260408601915060408160051b87010192506020870160005b828110156110f857603f198886030184526110e6858351611013565b945092850192908501906001016110ca565b5092979650505050505050565b60006020828403121561111757600080fd5b813561112281610f0b565b9392505050565b80516001600160a01b03908116835260208083015190911690830152604090810151910152565b606081016102e68284611129565b60008060006040848603121561117357600080fd5b83359250602084013567ffffffffffffffff8082111561119257600080fd5b818601915086601f8301126111a657600080fd5b8135818111156111b557600080fd5b8760208260071b85010111156111ca57600080fd5b6020830194508093505050509250925092565b600080604083850312156111f057600080fd5b82356111fb81610f0b565b946020939093013593505050565b6020815260006102e36020830184611013565b6000806040838503121561122f57600080fd5b823591506020830135610f4e81610f0b565b6000806040838503121561125457600080fd5b50508035926020909101359150565b60006020828403121561127557600080fd5b5051919050565b634e487b7160e01b600052604160045260246000fd5b634e487b7160e01b600052603260045260246000fd5b6040516080810167ffffffffffffffff811182821017156112cb576112cb61127c565b60405290565b604051601f8201601f1916810167ffffffffffffffff811182821017156112fa576112fa61127c565b604052919050565b600067ffffffffffffffff82111561131c5761131c61127c565b5060051b60200190565b600082601f83011261133757600080fd5b8151602061134c61134783611302565b6112d1565b8083825260208201915060208460051b87010193508684111561136e57600080fd5b602086015b8481101561109657805161138681610f0b565b8352918301918301611373565b600060208083850312156113a657600080fd5b825167ffffffffffffffff808211156113be57600080fd5b90840190608082870312156113d257600080fd5b6113da6112a8565b82516113e581610f0b565b815282840151828111156113f857600080fd5b61140488828601611326565b858301525060408301518281111561141b57600080fd5b61142788828601611326565b60408301525060608301518281111561143f57600080fd5b80840193505086601f84011261145457600080fd5b8251915061146461134783611302565b82815260059290921b8301840191848101908884111561148357600080fd5b938501935b838510156114a157845182529385019390850190611488565b6060830152509695505050505050565b6000606082840312156114c357600080fd5b6040516060810181811067ffffffffffffffff821117156114e6576114e661127c565b806040525080915082516114f981610f0b565b8152602083015161150981610f0b565b6020820152604092830151920191909152919050565b60006060828403121561153157600080fd5b6102e383836114b1565b6020808252818101839052600090604080840186845b878110156115a857813561156481610f0b565b6001600160a01b039081168452828601359061157f82610f0b565b168386015281840135848401526060808301359084015260809283019290910190600101611551565b5090979650505050505050565b828152608081016111226020830184611129565b6000602082840312156115db57600080fd5b815161112281610f0b565b81516001600160a01b0390811682526020808401519083015260408084015190830152606080840151821690830152608092830151169181019190915260a00190565b83815260a0810161163d6020830185611129565b82608083015294935050505056fea2646970667358221220aa9853c631737df27e8c87c175ece17bfea10b3dacb3319b678f22fdfcdb3caf64736f6c634300081900336080604052348015600f57600080fd5b506103b98061001f6000396000f3fe60806040526004361061001e5760003560e01c8063ff88370414610023575b600080fd5b6100366100313660046102b8565b610038565b005b61004a6525a2a2a822a960d11b6101cc565b60005b61005a60208301836102f3565b90508110156101405761007060208301836102f3565b8281811061008057610080610344565b9050602002016020810190610095919061035a565b6001600160a01b03166340c10f196100b0602085018561035a565b6100bd60408601866102f3565b858181106100cd576100cd610344565b6040516001600160e01b031960e087901b1681526001600160a01b0390941660048501526020029190910135602483015250604401600060405180830381600087803b15801561011c57600080fd5b505af1158015610130573d6000803e3d6000fd5b50506001909201915061004d9050565b5073__$eda0f617f16c95263174d8d25961933b8d$__637c4368c1610168602084018461035a565b6040516001600160e01b031960e084901b1681526001600160a01b0390911660048201526060840135602482015260440160006040518083038186803b1580156101b157600080fd5b505af41580156101c5573d6000803e3d6000fd5b5050505050565b6101d63382610203565b61020057604051632d7d0e0d60e21b81523360048201526024810182905260440160405180910390fd5b50565b60008061020e61023b565b6001600160a01b0385166000908152602082905260409020909150610233908461029d565b949350505050565b60008060405160200161027f906020808252601e908201527f78797a2e656c66692e73746f726167652e416363657373436f6e74726f6c0000604082015260600190565b60408051601f19818403018152919052805160209091012092915050565b600081815260018301602052604081205415155b9392505050565b6000602082840312156102ca57600080fd5b813567ffffffffffffffff8111156102e157600080fd5b8201608081850312156102b157600080fd5b6000808335601e1984360301811261030a57600080fd5b83018035915067ffffffffffffffff82111561032557600080fd5b6020019150600581901b360382131561033d57600080fd5b9250929050565b634e487b7160e01b600052603260045260246000fd5b60006020828403121561036c57600080fd5b81356001600160a01b03811681146102b157600080fdfea2646970667358221220b31c3135026be2cf86026cb9174deb74f1539fd2d0e2a57774f4618defba6fcc64736f6c634300081900336080604052348015600f57600080fd5b506001600055610809806100246000396000f3fe608060405234801561001057600080fd5b50600436106100365760003560e01c80634777232f1461003b578063ea26e5f21461006a575b600080fd5b61004e61004936600461055a565b61007d565b6040516001600160a01b03909116815260200160405180910390f35b61004e610078366004610595565b610304565b6000610087610417565b61009965434f4e46494760d01b610475565b604051631861063560e31b81528235600482015273__$1a578a93a81f7683136677deb9a71eef42$__9063c30831a89060240160006040518083038186803b1580156100e457600080fd5b505af41580156100f8573d6000803e3d6000fd5b5050505073__$1a578a93a81f7683136677deb9a71eef42$__6303e234a4838060200190610126919061061e565b6040518363ffffffff1660e01b8152600401610143929190610695565b60006040518083038186803b15801561015b57600080fd5b505af415801561016f573d6000803e3d6000fd5b5050505073__$6da87a77f33546d3f0e6244a8f7078a532$__637ff877008360400160208101906101a091906106c9565b6040516001600160e01b031960e084901b1681526001600160a01b03909116600482015260240160006040518083038186803b1580156101df57600080fd5b505af41580156101f3573d6000803e3d6000fd5b5050505073__$6da87a77f33546d3f0e6244a8f7078a532$__637ff8770083606001602081019061022491906106c9565b6040516001600160e01b031960e084901b1681526001600160a01b03909116600482015260240160006040518083038186803b15801561026357600080fd5b505af4158015610277573d6000803e3d6000fd5b505060405163f65b312760e01b815273__$fd083341c1ac6a6c266950739f88ea92ec$__925063f65b312791506102b29085906004016106e6565b602060405180830381865af41580156102cf573d6000803e3d6000fd5b505050506040513d601f19601f820116820180604052508101906102f3919061078f565b90506102ff6001600055565b919050565b600061030e610417565b61032065434f4e46494760d01b610475565b60405162f88d2960e21b815273__$1a578a93a81f7683136677deb9a71eef42$__906303e234a4906103589087908790600401610695565b60006040518083038186803b15801561037057600080fd5b505af4158015610384573d6000803e3d6000fd5b505060405163751372f960e11b815273__$fd083341c1ac6a6c266950739f88ea92ec$__925063ea26e5f291506103c3908790879087906004016107ac565b602060405180830381865af41580156103e0573d6000803e3d6000fd5b505050506040513d601f19601f82011682018060405250810190610404919061078f565b90506104106001600055565b9392505050565b60026000540361046e5760405162461bcd60e51b815260206004820152601f60248201527f5265656e7472616e637947756172643a207265656e7472616e742063616c6c0060448201526064015b60405180910390fd5b6002600055565b61047f33826104a8565b6104a557604051632d7d0e0d60e21b815233600482015260248101829052604401610465565b50565b6000806104b36104e0565b6001600160a01b03851660009081526020829052604090209091506104d89084610542565b949350505050565b600080604051602001610524906020808252601e908201527f78797a2e656c66692e73746f726167652e416363657373436f6e74726f6c0000604082015260600190565b60408051601f19818403018152919052805160209091012092915050565b60008181526001830160205260408120541515610410565b60006020828403121561056c57600080fd5b813567ffffffffffffffff81111561058357600080fd5b82016080818503121561041057600080fd5b6000806000604084860312156105aa57600080fd5b833567ffffffffffffffff808211156105c257600080fd5b818601915086601f8301126105d657600080fd5b8135818111156105e557600080fd5b8760208285010111156105f757600080fd5b6020928301955093505084013560ff8116811461061357600080fd5b809150509250925092565b6000808335601e1984360301811261063557600080fd5b83018035915067ffffffffffffffff82111561065057600080fd5b60200191503681900382131561066557600080fd5b9250929050565b81835281816020850137506000828201602090810191909152601f909101601f19169091010190565b6020815260006104d860208301848661066c565b6001600160a01b03811681146104a557600080fd5b80356102ff816106a9565b6000602082840312156106db57600080fd5b8135610410816106a9565b602081528135602082015260006020830135601e1984360301811261070a57600080fd5b830160208101903567ffffffffffffffff81111561072757600080fd5b80360382131561073657600080fd5b6080604085015261074b60a08501828461066c565b915050604084013561075c816106a9565b6001600160a01b038116606085015250610778606085016106be565b6001600160a01b0381166080850152509392505050565b6000602082840312156107a157600080fd5b8151610410816106a9565b6040815260006107c060408301858761066c565b905060ff8316602083015294935050505056fea264697066735822122066fa6a02a0dd61ac572a92450415cffbd1738d794f1736a4f1466988ecf48e5364736f6c634300081900336080604052348015600f57600080fd5b5061020b8061001f6000396000f3fe608060405234801561001057600080fd5b50600436106100625760003560e01c806308ba026f14610067578063131d5c8a1461008b5780631f7592ea1461009357806397e7b7f21461008b578063da57c7f814610067578063f413e81a14610093575b600080fd5b61006f61009b565b6040516001600160a01b03909116815260200160405180910390f35b61006f61010f565b61006f61015a565b600073__$29df653331a3e9d3b471959b8240e5de4a$__63da57c7f86040518163ffffffff1660e01b8152600401602060405180830381865af41580156100e6573d6000803e3d6000fd5b505050506040513d601f19601f8201168201806040525081019061010a91906101a5565b905090565b600073__$29df653331a3e9d3b471959b8240e5de4a$__63131d5c8a6040518163ffffffff1660e01b8152600401602060405180830381865af41580156100e6573d6000803e3d6000fd5b600073__$29df653331a3e9d3b471959b8240e5de4a$__63f413e81a6040518163ffffffff1660e01b8152600401602060405180830381865af41580156100e6573d6000803e3d6000fd5b6000602082840312156101b757600080fd5b81516001600160a01b03811681146101ce57600080fd5b939250505056fea2646970667358221220dffaeeced6297dc659ee81ae8dee132657af6cc94cc4a4a055afb41f9fdbddca64736f6c634300081900336080604052348015600f57600080fd5b506113458061001f6000396000f3fe608060405234801561001057600080fd5b50600436106100625760003560e01c80632358072c146100675780635a536f8f1461008557806367180d0c1461009a578063ac9deaa4146100bb578063c0828713146100ce578063d96faa28146100e1575b600080fd5b61006f6100f4565b60405161007c9190610adc565b60405180910390f35b610098610093366004610c1c565b61016c565b005b6100ad6100a8366004610c71565b61031e565b60405190815260200161007c565b6100986100c9366004610caa565b610428565b6100986100dc366004610ce5565b61050e565b6100986100ef366004610d18565b6105c7565b606073__$4ad18bb3a553995d10fa18119b6296da0f$__63b45cb6b26040518163ffffffff1660e01b8152600401600060405180830381865af415801561013f573d6000803e3d6000fd5b505050506040513d6000823e601f3d908101601f191682016040526101679190810190610f80565b905090565b61017e6525a2a2a822a960d11b610986565b60005a604051631d4cb62f60e21b815290915073__$bb4e55f00c0f45d2719800850b371b8ff8$__90637532d8bc906101bd9086908690600401611031565b60006040518083038186803b1580156101d557600080fd5b505af41580156101e9573d6000803e3d6000fd5b50506040516336f9339360e01b81526001600160a01b038716600482015273__$90167e3aaa688da58f091fb45f9a9a1bfc$__92506336f9339391506024015b60006040518083038186803b15801561024157600080fd5b505af4158015610255573d6000803e3d6000fd5b5050505073__$bb4e55f00c0f45d2719800850b371b8ff8$__63e52ed3656040518163ffffffff1660e01b815260040160006040518083038186803b15801561029d57600080fd5b505af41580156102b1573d6000803e3d6000fd5b50506040516307c43b6960e21b81526004810184905273__$e6ad93c07d6cc44a1daca561617df2deac$__9250631f10eda4915060240160006040518083038186803b15801561030057600080fd5b505af4158015610314573d6000803e3d6000fd5b5050505050505050565b604051630bd039cd60e21b81526001600160a01b038316600482015260009073__$f6ab9fd2984f98cb13067c23c2bbf55b09$__90632f40e73490602401602060405180830381865af4158015610379573d6000803e3d6000fd5b505050506040513d601f19601f8201168201806040525081019061039d91906110ab565b60405163831fb95760e01b815260048101919091526001600160a01b038316602482015273__$f6ab9fd2984f98cb13067c23c2bbf55b09$__9063831fb95790604401602060405180830381865af41580156103fd573d6000803e3d6000fd5b505050506040513d601f19601f8201168201806040525081019061042191906110ab565b9392505050565b61043a6525a2a2a822a960d11b610986565b60005a60405163112572d960e31b815290915073__$90167e3aaa688da58f091fb45f9a9a1bfc$__9063892b96c89061047790859060040161113f565b60006040518083038186803b15801561048f57600080fd5b505af41580156104a3573d6000803e3d6000fd5b50506040516307c43b6960e21b81526004810184905273__$e6ad93c07d6cc44a1daca561617df2deac$__9250631f10eda4915060240160006040518083038186803b1580156104f257600080fd5b505af4158015610506573d6000803e3d6000fd5b505050505050565b6105206525a2a2a822a960d11b610986565b60005a604051631d4cb62f60e21b815290915073__$bb4e55f00c0f45d2719800850b371b8ff8$__90637532d8bc9061055f9086908690600401611031565b60006040518083038186803b15801561057757600080fd5b505af415801561058b573d6000803e3d6000fd5b505060405163a9ccf5f760e01b81526004810187905273__$90167e3aaa688da58f091fb45f9a9a1bfc$__925063a9ccf5f79150602401610229565b60405163310a0e4160e01b81526004810182905260009073__$4ad18bb3a553995d10fa18119b6296da0f$__9063310a0e4190602401600060405180830381865af415801561061a573d6000803e3d6000fd5b505050506040513d6000823e601f3d908101601f191682016040526106429190810190611208565b80519091506001600160a01b03166106755760405163527de13160e01b8152600481018390526024015b60405180910390fd5b60005b8160400151518110156107905773__$ea03dc6e7176064baf45a14dcf3b0b0296$__63ef59a9d16040518060a00160405280336001600160a01b03168152602001856040015185815181106106cf576106cf61123d565b60200260200101516001600160a01b03168152602001856060015185815181106106fb576106fb61123d565b602002602001015181526020016000600381111561071b5761071b611253565b815260006020909101526040516001600160e01b031960e084901b1681526107469190600401611269565b602060405180830381865af4158015610763573d6000803e3d6000fd5b505050506040513d601f19601f8201168201806040525081019061078791906112d0565b50600101610678565b5060005b8160800151518110156108e55773__$eda0f617f16c95263174d8d25961933b8d$__6385e2b880306001600160a01b0316631f7592ea6040518163ffffffff1660e01b8152600401602060405180830381865afa1580156107f9573d6000803e3d6000fd5b505050506040513d601f19601f8201168201806040525081019061081d91906112d0565b846080015184815181106108335761083361123d565b6020026020010151338660a0015186815181106108525761085261123d565b60209081029190910101516040516001600160e01b031960e087901b1681526001600160a01b0394851660048201529284166024840152921660448201526064810191909152608401602060405180830381865af41580156108b8573d6000803e3d6000fd5b505050506040513d601f19601f820116820180604052508101906108dc91906112ed565b50600101610794565b5060405163fc3d7d9960e01b81526004810183905273__$4ad18bb3a553995d10fa18119b6296da0f$__9063fc3d7d999060240160006040518083038186803b15801561093157600080fd5b505af4158015610945573d6000803e3d6000fd5b505050507f9658b573a066e713f2cff0b7a9e1d3b1c6395ce9379f271c4c3fa96552b9904f8260405161097a91815260200190565b60405180910390a15050565b61099033826109b9565b6109b657604051632d7d0e0d60e21b81523360048201526024810182905260440161066c565b50565b6000806109c4610a04565b6001600160a01b03851660009081526020829052604090209091506109fc908460008181526001830160205260408120541515610421565b949350505050565b600080604051602001610a48906020808252601e908201527f78797a2e656c66692e73746f726167652e416363657373436f6e74726f6c0000604082015260600190565b60408051601f19818403018152919052805160209091012092915050565b60008151808452602080850194506020840160005b83811015610aa05781516001600160a01b031687529582019590820190600101610a7b565b509495945050505050565b60008151808452602080850194506020840160005b83811015610aa057815187529582019590820190600101610ac0565b600060208083018184528085518083526040925060408601915060408160051b87010184880160005b83811015610bad57888303603f19018552815180516001600160a01b0316845287810151888501528681015160c088860181905290610b4682870182610a66565b91505060608083015186830382880152610b608382610aab565b9250505060808083015186830382880152610b7b8382610a66565b9250505060a08083015192508582038187015250610b998183610aab565b968901969450505090860190600101610b05565b509098975050505050505050565b6001600160a01b03811681146109b657600080fd5b60008083601f840112610be257600080fd5b50813567ffffffffffffffff811115610bfa57600080fd5b6020830191508360208260071b8501011115610c1557600080fd5b9250929050565b600080600060408486031215610c3157600080fd5b8335610c3c81610bbb565b9250602084013567ffffffffffffffff811115610c5857600080fd5b610c6486828701610bd0565b9497909650939450505050565b60008060408385031215610c8457600080fd5b8235610c8f81610bbb565b91506020830135610c9f81610bbb565b809150509250929050565b600060208284031215610cbc57600080fd5b813567ffffffffffffffff811115610cd357600080fd5b820160a0818503121561042157600080fd5b600080600060408486031215610cfa57600080fd5b83359250602084013567ffffffffffffffff811115610c5857600080fd5b600060208284031215610d2a57600080fd5b5035919050565b634e487b7160e01b600052604160045260246000fd5b60405160c0810167ffffffffffffffff81118282101715610d6a57610d6a610d31565b60405290565b604051601f8201601f1916810167ffffffffffffffff81118282101715610d9957610d99610d31565b604052919050565b600067ffffffffffffffff821115610dbb57610dbb610d31565b5060051b60200190565b8051610dd081610bbb565b919050565b600082601f830112610de657600080fd5b81516020610dfb610df683610da1565b610d70565b8083825260208201915060208460051b870101935086841115610e1d57600080fd5b602086015b84811015610e42578051610e3581610bbb565b8352918301918301610e22565b509695505050505050565b600082601f830112610e5e57600080fd5b81516020610e6e610df683610da1565b8083825260208201915060208460051b870101935086841115610e9057600080fd5b602086015b84811015610e425780518352918301918301610e95565b600060c08284031215610ebe57600080fd5b610ec6610d47565b9050610ed182610dc5565b815260208201516020820152604082015167ffffffffffffffff80821115610ef857600080fd5b610f0485838601610dd5565b60408401526060840151915080821115610f1d57600080fd5b610f2985838601610e4d565b60608401526080840151915080821115610f4257600080fd5b610f4e85838601610dd5565b608084015260a0840151915080821115610f6757600080fd5b50610f7484828501610e4d565b60a08301525092915050565b60006020808385031215610f9357600080fd5b825167ffffffffffffffff80821115610fab57600080fd5b818501915085601f830112610fbf57600080fd5b8151610fcd610df682610da1565b81815260059190911b83018401908481019088831115610fec57600080fd5b8585015b83811015611024578051858111156110085760008081fd5b6110168b89838a0101610eac565b845250918601918601610ff0565b5098975050505050505050565b6020808252818101839052600090604080840186845b8781101561109e57813561105a81610bbb565b6001600160a01b039081168452828601359061107582610bbb565b168386015281840135848401526060808301359084015260809283019290910190600101611047565b5090979650505050505050565b6000602082840312156110bd57600080fd5b5051919050565b6000808335601e198436030181126110db57600080fd5b830160208101925035905067ffffffffffffffff8111156110fb57600080fd5b8060051b3603821315610c1557600080fd5b81835260006001600160fb1b0383111561112657600080fd5b8260051b80836020870137939093016020019392505050565b6000602080835260c08301843561115581610bbb565b6001600160a01b039081166020868101919091528601359061117682610bbb565b80821660408701526040870135606087015261119560608801886110c4565b60a0608089015293849052929150600060e087015b838210156111d35784356111bd81610bbb565b83168152938501936001919091019085016111aa565b6111e060808a018a6110c4565b898303601f190160a08b0152965094506111fb81878761110d565b9998505050505050505050565b60006020828403121561121a57600080fd5b815167ffffffffffffffff81111561123157600080fd5b6109fc84828501610eac565b634e487b7160e01b600052603260045260246000fd5b634e487b7160e01b600052602160045260246000fd5b81516001600160a01b0390811682526020808401519091169082015260408083015190820152606082015160a0820190600481106112b757634e487b7160e01b600052602160045260246000fd5b8060608401525060808301511515608083015292915050565b6000602082840312156112e257600080fd5b815161042181610bbb565b6000602082840312156112ff57600080fd5b8151801515811461042157600080fdfea2646970667358221220565b909cdbf74efdc7eb7492c8f3c10697fa1b8004f0423a63c7b034f56a8ac564736f6c634300081900336080604052348015600f57600080fd5b506118a78061001f6000396000f3fe608060405234801561001057600080fd5b506004361061002b5760003560e01c80637bdb02cb14610030575b600080fd5b61004361003e366004610f52565b610045565b005b6100576525a2a2a822a960d11b6102d6565b604051631d4cb62f60e21b815273__$bb4e55f00c0f45d2719800850b371b8ff8$__90637532d8bc90610090908590859060040161102f565b60006040518083038186803b1580156100a857600080fd5b505af41580156100bc573d6000803e3d6000fd5b5050505060005b8581101561027157600073__$1dcbc4e76af7484d3342475f6e32ea9921$__632f40e7348989858181106100f9576100f96110a9565b905060200201602081019061010e91906110bf565b6040516001600160e01b031960e084901b1681526001600160a01b039091166004820152602401602060405180830381865af4158015610152573d6000803e3d6000fd5b505050506040513d601f19601f8201168201806040525081019061017691906110dc565b60405163fa98a2b960e01b81526004810182905290915073__$1dcbc4e76af7484d3342475f6e32ea9921$__9063fa98a2b99060240160006040518083038186803b1580156101c457600080fd5b505af41580156101d8573d6000803e3d6000fd5b5050505060005b8686848181106101f1576101f16110a9565b905060200281019061020391906110f5565b90508110156102675761025e82888886818110610222576102226110a9565b905060200281019061023491906110f5565b84818110610244576102446110a9565b905060200201602081019061025991906110bf565b61030e565b506001016101df565b50506001016100c3565b5073__$bb4e55f00c0f45d2719800850b371b8ff8$__63e52ed3656040518163ffffffff1660e01b815260040160006040518083038186803b1580156102b657600080fd5b505af41580156102ca573d6000803e3d6000fd5b50505050505050505050565b6102e03382610aad565b61030b57604051632d7d0e0d60e21b8152336004820152602481018290526044015b60405180910390fd5b50565b610316610ecf565b604051635342922b60e11b8152600481018490526001600160a01b038316602482015260009073__$1dcbc4e76af7484d3342475f6e32ea9921$__9063a685245690604401608060405180830381865af4158015610378573d6000803e3d6000fd5b505050506040513d601f19601f8201168201806040525081019061039c91906111f2565b606001519050600081116103c357604051633d41f51760e11b815260040160405180910390fd5b604051633087e7f760e11b81526004810185905260009073__$1dcbc4e76af7484d3342475f6e32ea9921$__9063610fcfee90602401600060405180830381865af4158015610416573d6000803e3d6000fd5b505050506040513d6000823e601f3d908101601f1916820160405261043e9190810190611302565b9050600081516001600160401b0381111561045b5761045b61113e565b604051908082528060200260200182016040528015610484578160200160208202803683370190505b509050600082516001600160401b038111156104a2576104a261113e565b6040519080825280602002602001820160405280156104cb578160200160208202803683370190505b50905060005b83518110156109e6578773__$1dcbc4e76af7484d3342475f6e32ea9921$__63c28348879091868481518110610509576105096110a9565b60200260200101516040518363ffffffff1660e01b81526004016105409291909182526001600160a01b0316602082015260400190565b602060405180830381865af415801561055d573d6000803e3d6000fd5b505050506040513d601f19601f8201168201806040525081019061058191906110dc565b838281518110610593576105936110a9565b6020026020010181815250508281815181106105b1576105b16110a9565b6020026020010151600003156109de57600073__$54cfd135a3b5f05a8488b7e4b687d6e5b3$__63f8739d7c8584815181106105ef576105ef6110a9565b602002602001015173__$27ae1b494209daa89c188ba5c7f8a7693b$__63d449a832898781518110610623576106236110a9565b60200260200101516040518263ffffffff1660e01b815260040161065691906001600160a01b0391909116815260200190565b602060405180830381865af4158015610673573d6000803e3d6000fd5b505050506040513d601f19601f820116820180604052508101906106979190611336565b604051636a24d41960e11b81526001600160a01b038d16600482015273__$27ae1b494209daa89c188ba5c7f8a7693b$__9063d449a83290602401602060405180830381865af41580156106ef573d6000803e3d6000fd5b505050506040513d601f19601f820116820180604052508101906107139190611336565b73__$bb4e55f00c0f45d2719800850b371b8ff8$__631a0994f58b898151811061073f5761073f6110a9565b60209081029190910101516040516001600160e01b031960e084901b1681526001600160a01b03909116600482015260016024820152604401602060405180830381865af4158015610795573d6000803e3d6000fd5b505050506040513d601f19601f820116820180604052508101906107b991906110dc565b604051631a0994f560e01b81526001600160a01b038f1660048201526000602482015273__$bb4e55f00c0f45d2719800850b371b8ff8$__90631a0994f590604401602060405180830381865af4158015610818573d6000803e3d6000fd5b505050506040513d601f19601f8201168201806040525081019061083c91906110dc565b6040516001600160e01b031960e088901b168152600481019590955260ff93841660248601529290911660448401526064830152608482015260a401602060405180830381865af4158015610895573d6000803e3d6000fd5b505050506040513d601f19601f820116820180604052508101906108b991906110dc565b905073__$54cfd135a3b5f05a8488b7e4b687d6e5b3$__63ee7fc5a38273__$b56fc33e0f834396fbc214489bd80c2dfc$__63b45849886040518163ffffffff1660e01b8152600401600060405180830381865af415801561091f573d6000803e3d6000fd5b505050506040513d6000823e601f3d908101601f191682016040526109479190810190611435565b6101e001516040516001600160e01b031960e085901b16815260048101929092526024820152604401602060405180830381865af415801561098d573d6000803e3d6000fd5b505050506040513d601f19601f820116820180604052508101906109b191906110dc565b6109bb9082611572565b9050808383815181106109d0576109d06110a9565b602002602001018181525050505b6001016104d1565b506000306001600160a01b0316631f7592ea6040518163ffffffff1660e01b8152600401602060405180830381865afa158015610a27573d6000803e3d6000fd5b505050506040513d601f19601f82011682018060405250810190610a4b9190611585565b88546040805160e0810182526001600160a01b03808516808352602083018a9052928201889052606082018790528b8116608083015260a082019290925260c08101899052929350610a9f92911690610ae5565b955050505050505b92915050565b600080610ab8610de4565b6001600160a01b0385166000908152602082905260409020909150610add9084610e46565b949350505050565b610aed610ecf565b6040516322f76fdf60e01b815260009073__$ca262b080372458bd5db04e5e671d7444d$__906322f76fdf90610b27908690600401611618565b600060405180830381865af4158015610b44573d6000803e3d6000fd5b505050506040513d6000823e601f3d908101601f19168201604052610b6c91908101906116c4565b9050610b9b604051806060016040528060006001600160a01b0316815260200160608152602001606081525090565b6001600160a01b0385168152815151610bb59060016117d0565b6001600160401b03811115610bcc57610bcc61113e565b604051908082528060200260200182016040528015610bf5578160200160208202803683370190505b506020820152815151610c099060016117d0565b6001600160401b03811115610c2057610c2061113e565b604051908082528060200260200182016040528015610c49578160200160208202803683370190505b50604082015260005b825151811015610d06578251805182908110610c7057610c706110a9565b602002602001015182602001518281518110610c8e57610c8e6110a9565b60200260200101906001600160a01b031690816001600160a01b031681525050610cd483602001518281518110610cc757610cc76110a9565b6020026020010151610e61565b610cdd906117e3565b82604001518281518110610cf357610cf36110a9565b6020908102919091010152600101610c52565b506040820151602082015183515181518110610d2457610d246110a9565b60200260200101906001600160a01b031690816001600160a01b031681525050610d518260600151610e61565b604082015183515181518110610d6957610d696110a9565b602090810291909101015260405163eec5b28760e01b815273__$ea03dc6e7176064baf45a14dcf3b0b0296$__9063eec5b28790610dab9084906004016117ff565b60006040518083038186803b158015610dc357600080fd5b505af4158015610dd7573d6000803e3d6000fd5b5093979650505050505050565b600080604051602001610e28906020808252601e908201527f78797a2e656c66692e73746f726167652e416363657373436f6e74726f6c0000604082015260600190565b60408051601f19818403018152919052805160209091012092915050565b600081815260018301602052604081205415155b9392505050565b60006001600160ff1b03821115610ecb5760405162461bcd60e51b815260206004820152602860248201527f53616665436173743a2076616c756520646f65736e27742066697420696e2061604482015267371034b73a191a9b60c11b6064820152608401610302565b5090565b6040518060a00160405280606081526020016060815260200160006001600160a01b0316815260200160008152602001600081525090565b60008083601f840112610f1957600080fd5b5081356001600160401b03811115610f3057600080fd5b6020830191508360208260051b8501011115610f4b57600080fd5b9250929050565b60008060008060008060608789031215610f6b57600080fd5b86356001600160401b0380821115610f8257600080fd5b610f8e8a838b01610f07565b90985096506020890135915080821115610fa757600080fd5b610fb38a838b01610f07565b90965094506040890135915080821115610fcc57600080fd5b818901915089601f830112610fe057600080fd5b813581811115610fef57600080fd5b8a60208260071b850101111561100457600080fd5b6020830194508093505050509295509295509295565b6001600160a01b038116811461030b57600080fd5b6020808252818101839052600090604080840186845b8781101561109c5781356110588161101a565b6001600160a01b03908116845282860135906110738261101a565b168386015281840135848401526060808301359084015260809283019290910190600101611045565b5090979650505050505050565b634e487b7160e01b600052603260045260246000fd5b6000602082840312156110d157600080fd5b8135610e5a8161101a565b6000602082840312156110ee57600080fd5b5051919050565b6000808335601e1984360301811261110c57600080fd5b8301803591506001600160401b0382111561112657600080fd5b6020019150600581901b3603821315610f4b57600080fd5b634e487b7160e01b600052604160045260246000fd5b60405161012081016001600160401b03811182821017156111775761117761113e565b60405290565b60405161020081016001600160401b03811182821017156111775761117761113e565b60405160a081016001600160401b03811182821017156111775761117761113e565b604051601f8201601f191681016001600160401b03811182821017156111ea576111ea61113e565b604052919050565b60006080828403121561120457600080fd5b604051608081018181106001600160401b03821117156112265761122661113e565b8060405250825181526020830151602082015260408301516040820152606083015160608201528091505092915050565b60006001600160401b038211156112705761127061113e565b5060051b60200190565b80516112858161101a565b919050565b600082601f83011261129b57600080fd5b815160206112b06112ab83611257565b6111c2565b8083825260208201915060208460051b8701019350868411156112d257600080fd5b602086015b848110156112f75780516112ea8161101a565b83529183019183016112d7565b509695505050505050565b60006020828403121561131457600080fd5b81516001600160401b0381111561132a57600080fd5b610add8482850161128a565b60006020828403121561134857600080fd5b815160ff81168114610e5a57600080fd5b8051801515811461128557600080fd5b600082601f83011261137a57600080fd5b8151602061138a6112ab83611257565b82815261012092830285018201928282019190878511156113aa57600080fd5b8387015b8581101561109c5781818a0312156113c65760008081fd5b6113ce611154565b6113d782611359565b8152818601518682015260408083015190820152606080830151908201526080808301519082015260a0808301519082015260c0808301519082015260e08083015190820152610100808301519082015284529284019281016113ae565b60006020828403121561144757600080fd5b81516001600160401b038082111561145e57600080fd5b90830190610200828603121561147357600080fd5b61147b61117d565b82518281111561148a57600080fd5b6114968782860161128a565b8252506020830151828111156114ab57600080fd5b6114b787828601611369565b60208301525060408381015190820152606080840151908201526080808401519082015260a0808401519082015260c0808401519082015260e08084015190820152610100808401519082015261012080840151908201526101408084015190820152610160808401519082015261018080840151908201526101a080840151908201526101c080840151908201526101e09283015192810192909252509392505050565b634e487b7160e01b600052601160045260246000fd5b81810381811115610aa757610aa761155c565b60006020828403121561159757600080fd5b8151610e5a8161101a565b60008151808452602080850194506020840160005b838110156115dc5781516001600160a01b0316875295820195908201906001016115b7565b509495945050505050565b60008151808452602080850194506020840160005b838110156115dc578151875295820195908201906001016115fc565b60208152600060018060a01b03808451166020840152602084015160e060408501526116486101008501826115a2565b90506040850151601f198086840301606087015261166683836115e7565b925060608701519150808684030160808701525061168482826115e7565b9150508160808601511660a085015260a085015191506116af60c08501836001600160a01b03169052565b60c085015160e0850152809250505092915050565b600060208083850312156116d757600080fd5b82516001600160401b03808211156116ee57600080fd5b9084019060a0828703121561170257600080fd5b61170a6111a0565b82518281111561171957600080fd5b6117258882860161128a565b825250838301518281111561173957600080fd5b83019150601f8201871361174c57600080fd5b815161175a6112ab82611257565b81815260059190911b8301850190858101908983111561177957600080fd5b938601935b828510156117975784518252938601939086019061177e565b83870152506117aa90506040840161127a565b604082015260608301516060820152608083015160808201528094505050505092915050565b80820180821115610aa757610aa761155c565b6000600160ff1b82016117f8576117f861155c565b5060000390565b602080825282516001600160a01b03168282015282810151606060408401526000919061182f60808501826115a2565b6040860151858203601f19016060870152805180835290840192506000918401905b808310156112f7578351825292840192600192909201919084019061185156fea26469706673582212208eec84d84891f6978ebefb7b6168398ddf28d33828bbede43c50d09943eb616364736f6c634300081900336080604052348015600f57600080fd5b5061029e8061001f6000396000f3fe608060405234801561001057600080fd5b50600436106100365760003560e01c80636ecc79e41461003b578063e8af7f0814610063575b600080fd5b61004e6100493660046101e4565b6100a1565b60405190151581526020015b60405180910390f35b6100766100713660046101fd565b61011e565b6040805182516001600160a01b0316815260208084015190820152918101519082015260600161005a565b604051631bb31e7960e21b81526004810182905260009073__$6aab829e329ce22790341f86426b81ad2f$__90636ecc79e490602401602060405180830381865af41580156100f4573d6000803e3d6000fd5b505050506040513d601f19601f82011682018060405250810190610118919061022d565b92915050565b60408051606081018252600080825260208201819052818301529051630bd039cd60e21b81526001600160a01b038316600482015273__$6aab829e329ce22790341f86426b81ad2f$__90632f40e73490602401602060405180830381865af415801561018f573d6000803e3d6000fd5b505050506040513d601f19601f820116820180604052508101906101b3919061024f565b6040805160608101825282546001600160a01b03168152600183015460208201526002909201549082015292915050565b6000602082840312156101f657600080fd5b5035919050565b60006020828403121561020f57600080fd5b81356001600160a01b038116811461022657600080fd5b9392505050565b60006020828403121561023f57600080fd5b8151801515811461022657600080fd5b60006020828403121561026157600080fd5b505191905056fea2646970667358221220e6ee458bf31be1c6b61e7fccc27348cd0933c9e6572d46a167b7936c48b80a1564736f6c634300081900336080604052348015600f57600080fd5b506111038061001f6000396000f3fe608060405234801561001057600080fd5b50600436106100625760003560e01c806351d1a5af146100675780635cfac837146100905780637aa6aea4146100b0578063a7b039d9146100c5578063cd0743c9146100e5578063f141859a14610106575b600080fd5b61007a610075366004610735565b610126565b6040516100879190610860565b60405180910390f35b6100a361009e366004610999565b6101b6565b6040516100879190610a53565b6100b86101cd565b6040516100879190610a62565b6100d86100d3366004610ac9565b6102f6565b6040516100879190610aed565b6100f86100f3366004610999565b610383565b604051908152602001610087565b61010e6103fa565b6040516001600160a01b039091168152602001610087565b61012e6105f6565b60405163aece5ffd60e01b815273__$7e3e375a043b2e0c3e1b8de6f9ee6f1a85$__9063aece5ffd9061016990879087908790600401610b04565b600060405180830381865af4158015610186573d6000803e3d6000fd5b505050506040513d6000823e601f3d908101601f191682016040526101ae9190810190610e78565b949350505050565b6101be6106a3565b6101c78261046e565b92915050565b6060600073__$743db1863e6a0ee1ad13b47ec8f30557c4$__637aa6aea46040518163ffffffff1660e01b8152600401600060405180830381865af415801561021a573d6000803e3d6000fd5b505050506040513d6000823e601f3d908101601f191682016040526102429190810190610f44565b90506000815167ffffffffffffffff81111561026057610260610b88565b60405190808252806020026020018201604052801561029957816020015b6102866106a3565b81526020019060019003908161027e5790505b50905060005b82518110156102ef576102ca8382815181106102bd576102bd610fd5565b602002602001015161046e565b8282815181106102dc576102dc610fd5565b602090810291909101015260010161029f565b5092915050565b60408051808201825260008082526020820152905163a7b039d960e01b81526001600160a01b038316600482015273__$7e3e375a043b2e0c3e1b8de6f9ee6f1a85$__9063a7b039d9906024016040805180830381865af415801561035f573d6000803e3d6000fd5b505050506040513d601f19601f820116820180604052508101906101c79190610feb565b60405163e556977360e01b81526004810182905260009073__$6ebb2450d5e04bda18965cfdba2d8f11f4$__9063e556977390602401602060405180830381865af41580156103d6573d6000803e3d6000fd5b505050506040513d601f19601f820116820180604052508101906101c79190611007565b600073__$743db1863e6a0ee1ad13b47ec8f30557c4$__63f141859a6040518163ffffffff1660e01b8152600401602060405180830381865af4158015610445573d6000803e3d6000fd5b505050506040513d601f19601f820116820180604052508101906104699190611020565b905090565b6104766106a3565b60405163f035079960e01b81526004810183905260009073__$772a6c28cc3d4776ea886febacbb24816f$__9063f035079990602401602060405180830381865af41580156104c9573d6000803e3d6000fd5b505050506040513d601f19601f820116820180604052508101906104ed9190611007565b600181015490915061010090046001600160a01b0316156105f057805482526001810154602083019060ff16600381111561052a5761052a6107b4565b9081600381111561053d5761053d6107b4565b905250600181015461010090046001600160a01b03908116604084810191909152600283015482166060850152600383015490911660808401525163e1be37bd60e01b81526004810184905273__$acce7506676b87ccbb54b9fc6afc582415$__9063e1be37bd9060240161010060405180830381865af41580156105c6573d6000803e3d6000fd5b505050506040513d601f19601f820116820180604052508101906105ea919061103d565b60a08301525b50919050565b604080516101a08101909152600060e08201818152610100830182905261012083018290526101408301829052610160830191909152606061018083015281908152602001600081526020016000815260200160008152602001606081526020016000815260200161069e6040518060e00160405280600081526020016000815260200160008152602001600081526020016000815260200160008152602001600081525090565b905290565b6040805160c0810190915260008082526020820190815260200160006001600160a01b0316815260200160006001600160a01b0316815260200160006001600160a01b0316815260200161069e60405180610100016040528060008152602001600081526020016000815260200160008152602001600081526020016000815260200160008152602001600081525090565b60008060006040848603121561074a57600080fd5b83359250602084013567ffffffffffffffff8082111561076957600080fd5b818601915086601f83011261077d57600080fd5b81358181111561078c57600080fd5b8760208260071b85010111156107a157600080fd5b6020830194508093505050509250925092565b634e487b7160e01b600052602160045260246000fd5b600481106107e857634e487b7160e01b600052602160045260246000fd5b9052565b60005b838110156108075781810151838201526020016107ef565b50506000910152565b60008151808452602080850194506020840160005b838110156108555761084287835180518252602090810151910152565b6040969096019590820190600101610825565b509495945050505050565b60208152600082516101a0602084015261028081516101c0850152602082015161088e6101e08601826107ca565b5060408201516001600160a01b039081166102008601526060830151811661022086015260808301511661024085015260a09091015160c061026085015280518285018190529091906102a06108ea82828801602087016107ec565b601f19601f8301168601935060208701516040870152604087015160608701526060870151608087015260808701519150828685030160a087015261093181850183610810565b935050505060a084015160c084015260c084015161099160e0850182805182526020810151602083015260408101516040830152606081015160608301526080810151608083015260a081015160a083015260c081015160c08301525050565b509392505050565b6000602082840312156109ab57600080fd5b5035919050565b8051825260208101516109c860208401826107ca565b50604081015160018060a01b038082166040850152806060840151166060850152806080840151166080850152505060a0810151805160a0840152602081015160c0840152604081015160e08401526060810151610100840152608081015161012084015260a081015161014084015260c081015161016084015260e0810151610180840152505050565b6101a081016101c782846109b2565b6020808252825182820181905260009190848201906040850190845b81811015610aa557610a918385516109b2565b928401926101a09290920191600101610a7e565b50909695505050505050565b6001600160a01b0381168114610ac657600080fd5b50565b600060208284031215610adb57600080fd5b8135610ae681610ab1565b9392505050565b8151815260208083015190820152604081016101c7565b838152604060208083018290528282018490526000919060609081850187855b88811015610b79578135610b3781610ab1565b6001600160a01b0390811684528285013590610b5282610ab1565b16838501528186013586840152848201358584015260809283019290910190600101610b24565b50909998505050505050505050565b634e487b7160e01b600052604160045260246000fd5b60405160c0810167ffffffffffffffff81118282101715610bc157610bc1610b88565b60405290565b60405160e0810167ffffffffffffffff81118282101715610bc157610bc1610b88565b604051601f8201601f1916810167ffffffffffffffff81118282101715610c1357610c13610b88565b604052919050565b8051610c2681610ab1565b919050565b600082601f830112610c3c57600080fd5b815167ffffffffffffffff811115610c5657610c56610b88565b610c69601f8201601f1916602001610bea565b818152846020838601011115610c7e57600080fd5b6101ae8260208301602087016107ec565b600060c08284031215610ca157600080fd5b610ca9610b9e565b905081518152602082015160048110610cc157600080fd5b6020820152610cd260408301610c1b565b6040820152610ce360608301610c1b565b6060820152610cf460808301610c1b565b608082015260a082015167ffffffffffffffff811115610d1357600080fd5b610d1f84828501610c2b565b60a08301525092915050565b600067ffffffffffffffff821115610d4557610d45610b88565b5060051b60200190565b600060408284031215610d6157600080fd5b6040516040810181811067ffffffffffffffff82111715610d8457610d84610b88565b604052825181526020928301519281019290925250919050565b600082601f830112610daf57600080fd5b81516020610dc4610dbf83610d2b565b610bea565b8083825260208201915060208460061b870101935086841115610de657600080fd5b602086015b84811015610e0b57610dfd8882610d4f565b835291830191604001610deb565b509695505050505050565b600060e08284031215610e2857600080fd5b610e30610bc7565b9050815181526020820151602082015260408201516040820152606082015160608201526080820151608082015260a082015160a082015260c082015160c082015292915050565b600060208284031215610e8a57600080fd5b815167ffffffffffffffff80821115610ea257600080fd5b908301906101a08286031215610eb757600080fd5b610ebf610bc7565b825182811115610ece57600080fd5b610eda87828601610c8f565b825250602083015160208201526040830151604082015260608301516060820152608083015182811115610f0d57600080fd5b610f1987828601610d9e565b60808301525060a083015160a0820152610f368660c08501610e16565b60c082015295945050505050565b60006020808385031215610f5757600080fd5b825167ffffffffffffffff811115610f6e57600080fd5b8301601f81018513610f7f57600080fd5b8051610f8d610dbf82610d2b565b81815260059190911b82018301908381019087831115610fac57600080fd5b928401925b82841015610fca57835182529284019290840190610fb1565b979650505050505050565b634e487b7160e01b600052603260045260246000fd5b600060408284031215610ffd57600080fd5b610ae68383610d4f565b60006020828403121561101957600080fd5b5051919050565b60006020828403121561103257600080fd5b8151610ae681610ab1565b600061010080838503121561105157600080fd5b6040519081019067ffffffffffffffff8211818310171561107457611074610b88565b81604052835181526020840151602082015260408401516040820152606084015160608201526080840151608082015260a084015160a082015260c084015160c082015260e084015160e082015280925050509291505056fea2646970667358221220dfa8b72706d06c0f27ad43b8404add69883dd083fcbb7a0b64a9a775c508a37564736f6c634300081900336080604052348015600f57600080fd5b50611b628061001f6000396000f3fe608060405234801561001057600080fd5b506004361061009e5760003560e01c806368b5f86b1161006657806368b5f86b1461010f578063bea9849e14610122578063c3f909d414610135578063e1be37bd1461014a578063f29486a1146101be57600080fd5b80632544cc2d146100a35780633b9d78fc146100b85780634ee37b1c146100cb5780634f42ce05146100de578063659d67bb146100fc575b600080fd5b6100b66100b1366004610921565b6101de565b005b6100b66100c636600461095c565b61025a565b6100b66100d9366004610975565b6102f7565b6100e6610340565b6040516100f391906109f4565b60405180910390f35b6100b661010a366004610a84565b6103ef565b6100b661011d366004610a96565b610438565b6100b6610130366004610af5565b610481565b61013d6104d3565b6040516100f39190610c69565b61015d610158366004610d87565b61054c565b6040516100f39190600061010082019050825182526020830151602083015260408301516040830152606083015160608301526080830151608083015260a083015160a083015260c083015160c083015260e083015160e083015292915050565b6101d16101cc366004610af5565b61060f565b6040516100f39190610da0565b6101f065434f4e46494760d01b6106e5565b604051638e34bdc160e01b815273__$acce7506676b87ccbb54b9fc6afc582415$__90638e34bdc190610227908490600401611094565b60006040518083038186803b15801561023f57600080fd5b505af4158015610253573d6000803e3d6000fd5b5050505050565b61026c65434f4e46494760d01b6106e5565b60408051635a19ab0760e01b81528235600482015260208301356024820152908201356044820152606082013560648201526080820135608482015260a082013560a482015260c082013560c482015260e082013560e482015261010082013561010482015273__$acce7506676b87ccbb54b9fc6afc582415$__90635a19ab079061012401610227565b61030965434f4e46494760d01b6106e5565b604051635a6c9f1960e11b815273__$acce7506676b87ccbb54b9fc6afc582415$__9063b4d93e32906102279084906004016111c1565b6103796040518060c001604052806000815260200160008152602001600081526020016000815260200160608152602001606081525090565b73__$acce7506676b87ccbb54b9fc6afc582415$__634f42ce056040518163ffffffff1660e01b8152600401600060405180830381865af41580156103c2573d6000803e3d6000fd5b505050506040513d6000823e601f3d908101601f191682016040526103ea919081019061146a565b905090565b61040165434f4e46494760d01b6106e5565b60405163a9f3f09160e01b815273__$acce7506676b87ccbb54b9fc6afc582415$__9063a9f3f09190610227908490600401611522565b61044a65434f4e46494760d01b6106e5565b6040516347da0aa760e01b815273__$acce7506676b87ccbb54b9fc6afc582415$__906347da0aa790610227908490600401611574565b61049365434f4e46494760d01b6106e5565b604051635f54c24f60e11b81526001600160a01b038216600482015273__$acce7506676b87ccbb54b9fc6afc582415$__9063bea9849e90602401610227565b6104db6107d1565b73__$acce7506676b87ccbb54b9fc6afc582415$__63c3f909d46040518163ffffffff1660e01b8152600401600060405180830381865af4158015610524573d6000803e3d6000fd5b505050506040513d6000823e601f3d908101601f191682016040526103ea91908101906118bb565b61059460405180610100016040528060008152602001600081526020016000815260200160008152602001600081526020016000815260200160008152602001600081525090565b60405163e1be37bd60e01b81526004810183905273__$acce7506676b87ccbb54b9fc6afc582415$__9063e1be37bd9060240161010060405180830381865af41580156105e5573d6000803e3d6000fd5b505050506040513d601f19601f8201168201806040525081019061060991906119d0565b92915050565b610665604051806101400160405280600081526020016000815260200160008152602001600081526020016000815260200160008152602001600081526020016000815260200160008152602001606081525090565b60405163f29486a160e01b81526001600160a01b038316600482015273__$acce7506676b87ccbb54b9fc6afc582415$__9063f29486a190602401600060405180830381865af41580156106bd573d6000803e3d6000fd5b505050506040513d6000823e601f3d908101601f191682016040526106099190810190611a5f565b6106ef338261071c565b61071957604051632d7d0e0d60e21b81523360048201526024810182905260440160405180910390fd5b50565b600080610727610754565b6001600160a01b038516600090815260208290526040902090915061074c90846107b6565b949350505050565b600080604051602001610798906020808252601e908201527f78797a2e656c66692e73746f726167652e416363657373436f6e74726f6c0000604082015260600190565b60408051601f19818403018152919052805160209091012092915050565b600081815260018301602052604081205415155b9392505050565b604051806080016040528061083460405180610120016040528060006001600160a01b0316815260200160008152602001600081526020016000815260200160008152602001600081526020016000815260200160008152602001600081525090565b81526020016108b9604051806102000160405280606081526020016060815260200160008152602001600081526020016000815260200160008152602001600081526020016000815260200160008152602001600081526020016000815260200160008152602001600081526020016000815260200160008152602001600081525090565b8152602001610914604051806101400160405280600081526020016000815260200160008152602001600081526020016000815260200160008152602001600081526020016000815260200160008152602001600081525090565b8152600060209091015290565b60006020828403121561093357600080fd5b81356001600160401b0381111561094957600080fd5b82016102a081850312156107ca57600080fd5b6000610120828403121561096f57600080fd5b50919050565b60006020828403121561098757600080fd5b81356001600160401b0381111561099d57600080fd5b8201602081850312156107ca57600080fd5b60008151808452602080850194506020840160005b838110156109e95781516001600160a01b0316875295820195908201906001016109c4565b509495945050505050565b600060208083528351818401528084015160408401526040840151606084015260608401516080840152608084015160c060a0850152610a3760e08501826109af565b60a0860151858203601f190160c0870152805180835290840192506000918401905b80831015610a795783518252928401926001929092019190840190610a59565b509695505050505050565b60006060828403121561096f57600080fd5b600060208284031215610aa857600080fd5b81356001600160401b03811115610abe57600080fd5b8201604081850312156107ca57600080fd5b6001600160a01b038116811461071957600080fd5b8035610af081610ad0565b919050565b600060208284031215610b0757600080fd5b81356107ca81610ad0565b60008151808452602080850194506020840160005b838110156109e9578151805115158852838101518489015260408082015190890152606080820151908901526080808201519089015260a0808201519089015260c0808201519089015260e0808201519089015261010090810151908801526101209096019590820190600101610b27565b60006102008251818552610baf828601826109af565b91505060208301518482036020860152610bc98282610b12565b60408581015190870152606080860151908701526080808601519087015260a0808601519087015260c0808601519087015260e08086015190870152610100808601519087015261012080860151908701526101408086015190870152610160808601519087015261018080860151908701526101a080860151908701526101c080860151908701526101e0948501519490950193909352509192915050565b602081526000825160018060a01b038151166020840152602081015160408401526040810151606084015260608101516080840152608081015160a084015260a081015160c084015260c081015160e084015260e081015161010081818601528083015161012086015250505060208301516102a080610140850152610cf36102c0850183610b99565b60408681015180516101608801526020810151610180880152908101516101a087015260608101516101c087015260808101516101e087015260a081015161020087015260c081015161022087015260e08101516102408701526101008101516102608701526101208101516102808701529092505060608501516001600160a01b038116858301525b5090949350505050565b600060208284031215610d9957600080fd5b5035919050565b6020815281516020820152602082015160408201526040820151606082015260608201516080820152608082015160a082015260a082015160c082015260c082015160e0820152600060e083015161010081818501528085015191505061012081818501528085015191505061014080818501525061074c6101608401826109af565b600082356101fe19833603018112610e3a57600080fd5b90910192915050565b6000808335601e19843603018112610e5a57600080fd5b83016020810192503590506001600160401b03811115610e7957600080fd5b8060051b3603821315610e8b57600080fd5b9250929050565b8183526000602080850194508260005b858110156109e9578135610eb581610ad0565b6001600160a01b031687529582019590820190600101610ea2565b6000808335601e19843603018112610ee757600080fd5b83016020810192503590506001600160401b03811115610f0657600080fd5b61012081023603821315610e8b57600080fd5b801515811461071957600080fd5b8183526000602080850194508260005b858110156109e9578135610f4a81610f19565b15158752818301358388015260408083013590880152606080830135908801526080808301359088015260a0808301359088015260c0808301359088015260e0808301359088015261010080830135908801526101209687019690910190600101610f37565b6000610200610fbf8384610e43565b828652610fcf8387018284610e92565b92505050610fe06020840184610ed0565b8583036020870152610ff3838284610f27565b60408681013590880152606080870135908801526080808701359088015260a0808701359088015260c0808701359088015260e08087013590880152610100808701359088015261012080870135908801526101408087013590880152610160808701359088015261018080870135908801526101a080870135908801526101c080870135908801526101e095860135959096019490945250929392505050565b60208152600082356110a581610ad0565b60018060a01b038116602084015250602083013560408301526040830135606083015260608301356080830152608083013560a083015260a083013560c083015260c083013560e083015261010060e084013581840152610120818501358185015261111381860186610e23565b9150506102a0610140818186015261112f6102c0860184610fb0565b8682018035610160880152602081013561018088015260408101356101a088015260608101356101c088015260808101356101e088015260a081013561020088015260c081013561022088015260e081013561024088015261010081013561026088015261012001356102808701529250506111ae6102808601610ae5565b6001600160a01b03811685830152610d7d565b60006020808352833560be198536030181126111dc57600080fd5b848101905081828501528035604085015281810135606085015260408101356080850152606081013560a08501526112176080820182610e43565b60c08087015261122c61010087018284610e92565b91505061123c60a0830183610e43565b868303603f190160e088015280835292506001600160fb1b0383111561126157600080fd5b8260051b92508281858401375001019392505050565b634e487b7160e01b600052604160045260246000fd5b60405160c081016001600160401b03811182821017156112af576112af611277565b60405290565b60405161012081016001600160401b03811182821017156112af576112af611277565b60405161020081016001600160401b03811182821017156112af576112af611277565b60405161014081016001600160401b03811182821017156112af576112af611277565b604051608081016001600160401b03811182821017156112af576112af611277565b604051601f8201601f191681016001600160401b038111828210171561136857611368611277565b604052919050565b60006001600160401b0382111561138957611389611277565b5060051b60200190565b8051610af081610ad0565b600082601f8301126113af57600080fd5b815160206113c46113bf83611370565b611340565b8083825260208201915060208460051b8701019350868411156113e657600080fd5b602086015b84811015610a795780516113fe81610ad0565b83529183019183016113eb565b600082601f83011261141c57600080fd5b8151602061142c6113bf83611370565b8083825260208201915060208460051b87010193508684111561144e57600080fd5b602086015b84811015610a795780518352918301918301611453565b60006020828403121561147c57600080fd5b81516001600160401b038082111561149357600080fd5b9083019060c082860312156114a757600080fd5b6114af61128d565b825181526020830151602082015260408301516040820152606083015160608201526080830151828111156114e357600080fd5b6114ef8782860161139e565b60808301525060a08301518281111561150757600080fd5b6115138782860161140b565b60a08301525095945050505050565b60608101823561153181610ad0565b6001600160a01b03908116835260208401359061154d82610ad0565b908116602084015260408401359061156482610ad0565b8082166040850152505092915050565b602081526000823561158581610ad0565b6001600160a01b03166020838101919091528301353684900361013e190181126115ae57600080fd5b83810190506040808401528035606084015260208101356080840152604081013560a0840152606081013560c0840152608081013560e084015261010060a08201358185015261012060c08301358186015261014060e0840135818701528284013561016087015261162282850185610e43565b9450925080610180870152505061163e6101a085018383610e92565b95945050505050565b8051610af081610f19565b600082601f83011261166357600080fd5b815160206116736113bf83611370565b828152610120928302850182019282820191908785111561169357600080fd5b8387015b8581101561171e5781818a0312156116af5760008081fd5b6116b76112b5565b6116c082611647565b8152818601518682015260408083015190820152606080830151908201526080808301519082015260a0808301519082015260c0808301519082015260e0808301519082015261010080830151908201528452928401928101611697565b5090979650505050505050565b6000610200828403121561173e57600080fd5b6117466112d8565b905081516001600160401b038082111561175f57600080fd5b61176b8583860161139e565b8352602084015191508082111561178157600080fd5b5061178e84828501611652565b60208301525060408201516040820152606082015160608201526080820151608082015260a082015160a082015260c082015160c082015260e082015160e08201526101008083015181830152506101208083015181830152506101408083015181830152506101608083015181830152506101808083015181830152506101a08083015181830152506101c08083015181830152506101e080830151818301525092915050565b6000610140828403121561184957600080fd5b6118516112fb565b9050815181526020820151602082015260408201516040820152606082015160608201526080820151608082015260a082015160a082015260c082015160c082015260e082015160e082015261010080830151818301525061012080830151818301525092915050565b6000602082840312156118cd57600080fd5b81516001600160401b03808211156118e457600080fd5b908301908185036102a08112156118fa57600080fd5b61190261131e565b6101208083121561191257600080fd5b61191a6112b5565b925061192585611393565b83526020850151602084015260408501516040840152606085015160608401526080850151608084015260a085015160a084015260c085015160c084015260e085015160e0840152610100808601518185015250828252808501519250508282111561199057600080fd5b61199c8783860161172b565b60208201526119af876101408601611836565b60408201526119c16102808501611393565b60608201529695505050505050565b60006101008083850312156119e457600080fd5b604051908101906001600160401b0382118183101715611a0657611a06611277565b81604052835181526020840151602082015260408401516040820152606084015160608201526080840151608082015260a084015160a082015260c084015160c082015260e084015160e0820152809250505092915050565b600060208284031215611a7157600080fd5b81516001600160401b0380821115611a8857600080fd5b908301906101408286031215611a9d57600080fd5b611aa56112fb565b825181526020830151602082015260408301516040820152606083015160608201526080830151608082015260a083015160a082015260c083015160c082015260e083015160e08201526101008084015181830152506101208084015183811115611b0f57600080fd5b611b1b8882870161139e565b91830191909152509594505050505056fea2646970667358221220023251a7a107b788ac1a1077da42ddf85b81c14fef1b84458be08ecdb5c45f0f64736f6c63430008190033","linkReferences":{"src/process/AccountProcess.sol":{"AccountProcess":[{"start":94667,"length":20},{"start":94802,"length":20},{"start":95088,"length":20},{"start":95219,"length":20}]},"src/process/AssetsProcess.sol":{"AssetsProcess":[{"start":91415,"length":20},{"start":91744,"length":20},{"start":92031,"length":20},{"start":92403,"length":20},{"start":92841,"length":20},{"start":106769,"length":20},{"start":108324,"length":20},{"start":118921,"length":20},{"start":122640,"length":20},{"start":123700,"length":20},{"start":124304,"length":20},{"start":133383,"length":20},{"start":157914,"length":20},{"start":164666,"length":20}]},"src/process/CancelOrderProcess.sol":{"CancelOrderProcess":[{"start":110442,"length":20}]},"src/process/ClaimRewardsProcess.sol":{"ClaimRewardsProcess":[{"start":148584,"length":20},{"start":149091,"length":20},{"start":150126,"length":20}]},"src/process/ConfigProcess.sol":{"ConfigProcess":[{"start":118021,"length":20},{"start":169669,"length":20},{"start":173147,"length":20},{"start":173360,"length":20},{"start":173428,"length":20},{"start":173527,"length":20},{"start":173676,"length":20},{"start":173749,"length":20},{"start":173837,"length":20},{"start":173881,"length":20},{"start":174086,"length":20},{"start":174303,"length":20}]},"src/process/DecreasePositionProcess.sol":{"DecreasePositionProcess":[{"start":115593,"length":20}]},"src/process/FeeQueryProcess.sol":{"FeeQueryProcess":[{"start":147464,"length":20},{"start":147609,"length":20},{"start":147789,"length":20},{"start":148060,"length":20},{"start":148187,"length":20},{"start":149254,"length":20},{"start":149393,"length":20},{"start":149467,"length":20}]},"src/process/FeeRewardsProcess.sol":{"FeeRewardsProcess":[{"start":149649,"length":20}]},"src/process/GasProcess.sol":{"GasProcess":[{"start":106180,"length":20},{"start":107808,"length":20},{"start":110542,"length":20},{"start":115920,"length":20},{"start":116494,"length":20},{"start":117658,"length":20},{"start":119920,"length":20},{"start":120551,"length":20},{"start":123355,"length":20},{"start":123976,"length":20},{"start":130290,"length":20},{"start":130986,"length":20},{"start":131876,"length":20},{"start":132270,"length":20},{"start":146176,"length":20},{"start":148770,"length":20},{"start":149840,"length":20},{"start":150220,"length":20},{"start":156956,"length":20},{"start":157454,"length":20}]},"src/process/LiquidationProcess.sol":{"LiquidationProcess":[{"start":156764,"length":20},{"start":157346,"length":20},{"start":157686,"length":20}]},"src/process/LpPoolQueryProcess.sol":{"LpPoolQueryProcess":[{"start":140955,"length":20},{"start":141091,"length":20},{"start":141212,"length":20},{"start":141351,"length":20},{"start":141498,"length":20}]},"src/process/MarketFactoryProcess.sol":{"MarketFactoryProcess":[{"start":154249,"length":20},{"start":154518,"length":20}]},"src/process/MarketQueryProcess.sol":{"MarketQueryProcess":[{"start":168567,"length":20},{"start":169056,"length":20}]},"src/process/MintProcess.sol":{"MintProcess":[{"start":130086,"length":20},{"start":130892,"length":20},{"start":133650,"length":20},{"start":133825,"length":20}]},"src/process/OracleProcess.sol":{"OracleProcess":[{"start":91312,"length":20},{"start":91509,"length":20},{"start":105891,"length":20},{"start":106088,"length":20},{"start":115630,"length":20},{"start":116205,"length":20},{"start":116402,"length":20},{"start":119631,"length":20},{"start":119828,"length":20},{"start":129983,"length":20},{"start":130198,"length":20},{"start":131422,"length":20},{"start":131784,"length":20},{"start":137824,"length":20},{"start":137940,"length":20},{"start":145882,"length":20},{"start":146066,"length":20},{"start":148481,"length":20},{"start":148678,"length":20},{"start":149539,"length":20},{"start":149730,"length":20},{"start":156646,"length":20},{"start":156846,"length":20},{"start":157576,"length":20},{"start":161309,"length":20},{"start":161835,"length":20},{"start":163020,"length":20},{"start":163221,"length":20}]},"src/process/OrderProcess.sol":{"OrderProcess":[{"start":105994,"length":20},{"start":107131,"length":20},{"start":107955,"length":20}]},"src/process/PositionMarginProcess.sol":{"PositionMarginProcess":[{"start":116308,"length":20},{"start":117564,"length":20},{"start":119307,"length":20},{"start":119734,"length":20},{"start":120457,"length":20},{"start":123026,"length":20}]},"src/process/RebalanceProcess.sol":{"RebalanceProcess":[{"start":145974,"length":20}]},"src/process/RedeemProcess.sol":{"RedeemProcess":[{"start":131692,"length":20},{"start":132176,"length":20},{"start":135211,"length":20},{"start":135301,"length":20}]},"src/process/SwapProcess.sol":{"SwapProcess":[{"start":164022,"length":20}]},"src/process/VaultProcess.sol":{"VaultProcess":[{"start":110933,"length":20},{"start":152935,"length":20},{"start":158198,"length":20}]},"src/storage/Account.sol":{"Account":[{"start":92983,"length":20},{"start":93109,"length":20},{"start":93239,"length":20},{"start":93476,"length":20},{"start":93703,"length":20},{"start":93948,"length":20},{"start":94074,"length":20},{"start":94206,"length":20},{"start":94443,"length":20},{"start":94955,"length":20},{"start":107019,"length":20},{"start":107297,"length":20},{"start":108552,"length":20},{"start":108671,"length":20},{"start":108795,"length":20},{"start":118682,"length":20},{"start":120922,"length":20},{"start":121041,"length":20},{"start":121173,"length":20},{"start":122100,"length":20},{"start":122226,"length":20},{"start":161414,"length":20},{"start":161606,"length":20},{"start":162037,"length":20},{"start":162195,"length":20},{"start":162452,"length":20}]},"src/storage/AppConfig.sol":{"AppConfig":[{"start":92466,"length":20},{"start":107398,"length":20},{"start":111169,"length":20},{"start":111591,"length":20},{"start":119017,"length":20},{"start":122736,"length":20},{"start":123206,"length":20},{"start":123830,"length":20}]},"src/storage/AppTradeConfig.sol":{"AppTradeConfig":[{"start":163471,"length":20}]},"src/storage/AppTradeTokenConfig.sol":{"AppTradeTokenConfig":[{"start":92268,"length":20}]},"src/storage/AppVaultConfig.sol":{"AppVaultConfig":[{"start":155848,"length":20},{"start":155964,"length":20},{"start":156039,"length":20}]},"src/storage/ClaimRewards.sol":{"ClaimRewards":[{"start":148329,"length":20},{"start":149974,"length":20}]},"src/storage/CommonData.sol":{"CommonData":[{"start":132513,"length":20},{"start":132832,"length":20},{"start":134425,"length":20},{"start":134779,"length":20},{"start":168717,"length":20},{"start":169272,"length":20}]},"src/storage/InsuranceFund.sol":{"InsuranceFund":[{"start":157074,"length":20},{"start":157206,"length":20}]},"src/storage/LiabilityClean.sol":{"LiabilityClean":[{"start":156491,"length":20},{"start":157747,"length":20},{"start":158543,"length":20}]},"src/storage/LpPool.sol":{"LpPool":[{"start":132982,"length":20},{"start":134932,"length":20}]},"src/storage/Mint.sol":{"Mint":[{"start":129830,"length":20},{"start":130739,"length":20}]},"src/storage/Order.sol":{"Order":[{"start":105334,"length":20},{"start":108985,"length":20},{"start":109169,"length":20},{"start":109811,"length":20}]},"src/storage/Position.sol":{"Position":[{"start":115232,"length":20},{"start":115401,"length":20},{"start":116945,"length":20},{"start":121377,"length":20},{"start":122374,"length":20}]},"src/storage/Redeem.sol":{"Redeem":[{"start":131536,"length":20},{"start":132021,"length":20}]},"src/storage/Referral.sol":{"Referral":[{"start":167735,"length":20},{"start":167890,"length":20}]},"src/storage/StakingAccount.sol":{"StakingAccount":[{"start":138659,"length":20},{"start":138799,"length":20},{"start":138934,"length":20},{"start":139114,"length":20},{"start":139251,"length":20},{"start":139512,"length":20}]},"src/storage/Symbol.sol":{"Symbol":[{"start":118144,"length":20},{"start":169417,"length":20}]},"src/storage/UpdateLeverage.sol":{"UpdateLeverage":[{"start":117411,"length":20},{"start":119478,"length":20}]},"src/storage/UpdatePositionMargin.sol":{"UpdatePositionMargin":[{"start":116052,"length":20},{"start":120304,"length":20}]},"src/storage/UsdPool.sol":{"UsdPool":[{"start":132664,"length":20},{"start":134548,"length":20}]},"src/storage/UuidCreator.sol":{"UuidCreator":[{"start":115121,"length":20},{"start":169174,"length":20}]},"src/storage/Withdraw.sol":{"Withdraw":[{"start":91160,"length":20},{"start":91880,"length":20}]},"src/utils/AddressUtils.sol":{"AddressUtils":[{"start":91607,"length":20},{"start":92694,"length":20},{"start":134044,"length":20},{"start":153974,"length":20},{"start":154106,"length":20}]},"src/utils/CalUtils.sol":{"CalUtils":[{"start":162684,"length":20},{"start":163444,"length":20}]},"src/utils/ChainUtils.sol":{"ChainUtils":[{"start":121876,"length":20}]},"src/utils/TokenUtils.sol":{"TokenUtils":[{"start":162736,"length":20},{"start":162924,"length":20}]},"src/utils/TransferUtils.sol":{"TransferUtils":[{"start":78813,"length":20},{"start":81584,"length":20},{"start":84355,"length":20}]},"src/utils/TypeUtils.sol":{"TypeUtils":[{"start":153776,"length":20},{"start":153855,"length":20},{"start":154415,"length":20}]}}},"methodIdentifiers":{"accountFacet_cancelWithdraw(uint8,uint16)":"f93e954b","accountFacet_createWithdrawRequest(uint8,uint96,uint16)":"c6705df1","accountFacet_deposit(uint8,uint96,bool,bool,uint96,uint16)":"0b267147","accountFacet_executeWithdraw(uint16)":"67f6fd70","btcFeed()":"c23d2a4a","btcFeedDecimals()":"47439c54","dealUsers()":"09228a03","executeOrder(uint16)":"b0bcf4bd","orderFacet_batchCreateOrderRequest(uint16,uint8,bool,uint8,uint8,uint8,uint8,uint96,uint64)":"cc5f182a","orderFacet_cancelOrder(uint8,uint16)":"59b3e1ab","orderFacet_createOrderRequest(uint16,bool,bool,uint8,uint8,uint8,uint8,uint8,uint96,uint96,uint96,uint64)":"6ecd6c01","positionFacet_autoReducePositions(uint16)":"73b8bfcc","positionFacet_cancelUpdateLeverageRequest(uint8,uint16)":"c1a95df2","positionFacet_cancelUpdatePositionMarginRequest(uint8,uint16)":"89d72870","positionFacet_createUpdateLeverageRequest(uint16,bool,bool,uint8,uint96,uint96)":"3af68583","positionFacet_createUpdatePositionMarginRequest(uint16,bool,bool,uint8,uint96)":"463539a4","positionFacet_executeUpdateLeverageRequest(uint16)":"3f086ce7","positionFacet_executeUpdatePositionMarginRequest(uint16)":"b412399c","stakeFacet_cancelMintStakeToken(uint8,uint16)":"683b9727","stakeFacet_cancelRedeemStakeToken(uint8,uint16)":"5039f6ca","stakeFacet_createMintStakeTokenRequest(uint16,uint8,uint8,uint256,uint96,uint96,bool,bool)":"37112506","stakeFacet_createRedeemStakeTokenRequest(uint16,uint8,uint8,uint256,uint96,uint96)":"8e4b6ae7","stakeFacet_executeMintStakeToken(uint16)":"4a74bc9b","stakeFacet_executeRedeemStakeToken(uint16)":"bd9e750e","usdcFeed()":"a4e7d977","usdcFeedDecimals()":"ceb78eb5","wethFeed()":"dd47dacf","wethFeedDecimals()":"8022b6fd"},"id":175}