{"abi":[{"type":"constructor","inputs":[],"stateMutability":"payable"},{"type":"function","name":"accountFacet_cancelWithdraw","inputs":[{"name":"_requestIndex","type":"uint8","internalType":"uint8"},{"name":"_answer","type":"uint16","internalType":"uint16"}],"outputs":[],"stateMutability":"nonpayable"},{"type":"function","name":"accountFacet_createWithdrawRequest","inputs":[{"name":"_tokenIndex","type":"uint8","internalType":"uint8"},{"name":"_amount","type":"uint96","internalType":"uint96"},{"name":"_answer","type":"uint16","internalType":"uint16"}],"outputs":[],"stateMutability":"nonpayable"},{"type":"function","name":"accountFacet_deposit","inputs":[{"name":"_tokenIndex","type":"uint8","internalType":"uint8"},{"name":"_amount","type":"uint96","internalType":"uint96"},{"name":"_sendEth","type":"bool","internalType":"bool"},{"name":"_onlyEth","type":"bool","internalType":"bool"},{"name":"_ethValue","type":"uint96","internalType":"uint96"},{"name":"_answer","type":"uint16","internalType":"uint16"}],"outputs":[],"stateMutability":"nonpayable"},{"type":"function","name":"accountFacet_executeWithdraw","inputs":[{"name":"_answer","type":"uint16","internalType":"uint16"}],"outputs":[],"stateMutability":"nonpayable"},{"type":"function","name":"btcFeed","inputs":[],"outputs":[{"name":"","type":"address","internalType":"contract MockAggregatorV3"}],"stateMutability":"view"},{"type":"function","name":"btcFeedDecimals","inputs":[],"outputs":[{"name":"","type":"uint8","internalType":"uint8"}],"stateMutability":"view"},{"type":"function","name":"dealUsers","inputs":[],"outputs":[],"stateMutability":"nonpayable"},{"type":"function","name":"executeOrder","inputs":[{"name":"_answer","type":"uint16","internalType":"uint16"}],"outputs":[],"stateMutability":"nonpayable"},{"type":"function","name":"orderFacet_batchCreateOrderRequest","inputs":[{"name":"_answer","type":"uint16","internalType":"uint16"},{"name":"_numOrders","type":"uint8","internalType":"uint8"},{"name":"_isCrossMargin","type":"bool","internalType":"bool"},{"name":"_orderSide","type":"uint8","internalType":"uint8"},{"name":"_orderType","type":"uint8","internalType":"uint8"},{"name":"_stopType","type":"uint8","internalType":"uint8"},{"name":"_marginTokenIndex","type":"uint8","internalType":"uint8"},{"name":"_orderMargin","type":"uint96","internalType":"uint96"},{"name":"_triggerPrice","type":"uint64","internalType":"uint64"}],"outputs":[],"stateMutability":"nonpayable"},{"type":"function","name":"orderFacet_cancelOrder","inputs":[{"name":"_requestIndex","type":"uint8","internalType":"uint8"},{"name":"_answer","type":"uint16","internalType":"uint16"}],"outputs":[],"stateMutability":"nonpayable"},{"type":"function","name":"orderFacet_createOrderRequest","inputs":[{"name":"_answer","type":"uint16","internalType":"uint16"},{"name":"_isCrossMargin","type":"bool","internalType":"bool"},{"name":"_isNativeToken","type":"bool","internalType":"bool"},{"name":"_orderSide","type":"uint8","internalType":"uint8"},{"name":"_positionSide","type":"uint8","internalType":"uint8"},{"name":"_orderType","type":"uint8","internalType":"uint8"},{"name":"_stopType","type":"uint8","internalType":"uint8"},{"name":"_marginTokenIndex","type":"uint8","internalType":"uint8"},{"name":"_qty","type":"uint96","internalType":"uint96"},{"name":"_orderMargin","type":"uint96","internalType":"uint96"},{"name":"_leverage","type":"uint96","internalType":"uint96"},{"name":"_triggerPrice","type":"uint64","internalType":"uint64"}],"outputs":[],"stateMutability":"nonpayable"},{"type":"function","name":"positionFacet_autoReducePositions","inputs":[{"name":"_answer","type":"uint16","internalType":"uint16"}],"outputs":[],"stateMutability":"nonpayable"},{"type":"function","name":"positionFacet_cancelUpdateLeverageRequest","inputs":[{"name":"_requestIndex","type":"uint8","internalType":"uint8"},{"name":"_answer","type":"uint16","internalType":"uint16"}],"outputs":[],"stateMutability":"nonpayable"},{"type":"function","name":"positionFacet_cancelUpdatePositionMarginRequest","inputs":[{"name":"_requestIndex","type":"uint8","internalType":"uint8"},{"name":"_answer","type":"uint16","internalType":"uint16"}],"outputs":[],"stateMutability":"nonpayable"},{"type":"function","name":"positionFacet_createUpdateLeverageRequest","inputs":[{"name":"_answer","type":"uint16","internalType":"uint16"},{"name":"_isLong","type":"bool","internalType":"bool"},{"name":"_isNativeToken","type":"bool","internalType":"bool"},{"name":"_tokenIndex","type":"uint8","internalType":"uint8"},{"name":"_addMarginAmount","type":"uint96","internalType":"uint96"},{"name":"_leverage","type":"uint96","internalType":"uint96"}],"outputs":[],"stateMutability":"nonpayable"},{"type":"function","name":"positionFacet_createUpdatePositionMarginRequest","inputs":[{"name":"_answer","type":"uint16","internalType":"uint16"},{"name":"_isAdd","type":"bool","internalType":"bool"},{"name":"_isNativeToken","type":"bool","internalType":"bool"},{"name":"_tokenIndex","type":"uint8","internalType":"uint8"},{"name":"_updateMarginAmount","type":"uint96","internalType":"uint96"}],"outputs":[],"stateMutability":"nonpayable"},{"type":"function","name":"positionFacet_executeUpdateLeverageRequest","inputs":[{"name":"_answer","type":"uint16","internalType":"uint16"}],"outputs":[],"stateMutability":"nonpayable"},{"type":"function","name":"positionFacet_executeUpdatePositionMarginRequest","inputs":[{"name":"_answer","type":"uint16","internalType":"uint16"}],"outputs":[],"stateMutability":"nonpayable"},{"type":"function","name":"stakeFacet_cancelMintStakeToken","inputs":[{"name":"_requestIndex","type":"uint8","internalType":"uint8"},{"name":"_answer","type":"uint16","internalType":"uint16"}],"outputs":[],"stateMutability":"nonpayable"},{"type":"function","name":"stakeFacet_cancelRedeemStakeToken","inputs":[{"name":"_requestIndex","type":"uint8","internalType":"uint8"},{"name":"_answer","type":"uint16","internalType":"uint16"}],"outputs":[],"stateMutability":"nonpayable"},{"type":"function","name":"stakeFacet_createMintStakeTokenRequest","inputs":[{"name":"_answer","type":"uint16","internalType":"uint16"},{"name":"_stakeTokenIndex","type":"uint8","internalType":"uint8"},{"name":"_requestTokenIndex","type":"uint8","internalType":"uint8"},{"name":"_requestTokenAmount","type":"uint256","internalType":"uint256"},{"name":"_walletRequestTokenAmount","type":"uint96","internalType":"uint96"},{"name":"_minStakeAmount","type":"uint96","internalType":"uint96"},{"name":"_isCollateral","type":"bool","internalType":"bool"},{"name":"_isNativeToken","type":"bool","internalType":"bool"}],"outputs":[],"stateMutability":"nonpayable"},{"type":"function","name":"stakeFacet_createRedeemStakeTokenRequest","inputs":[{"name":"_answer","type":"uint16","internalType":"uint16"},{"name":"_stakeTokenIndex","type":"uint8","internalType":"uint8"},{"name":"_redeemTokenIndex","type":"uint8","internalType":"uint8"},{"name":"_requestTokenAmount","type":"uint256","internalType":"uint256"},{"name":"_unStakeAmount","type":"uint96","internalType":"uint96"},{"name":"_minRedeemAmount","type":"uint96","internalType":"uint96"}],"outputs":[],"stateMutability":"nonpayable"},{"type":"function","name":"stakeFacet_executeMintStakeToken","inputs":[{"name":"_answer","type":"uint16","internalType":"uint16"}],"outputs":[],"stateMutability":"nonpayable"},{"type":"function","name":"stakeFacet_executeRedeemStakeToken","inputs":[{"name":"_answer","type":"uint16","internalType":"uint16"}],"outputs":[],"stateMutability":"nonpayable"},{"type":"function","name":"usdcFeed","inputs":[],"outputs":[{"name":"","type":"address","internalType":"contract MockAggregatorV3"}],"stateMutability":"view"},{"type":"function","name":"usdcFeedDecimals","inputs":[],"outputs":[{"name":"","type":"uint8","internalType":"uint8"}],"stateMutability":"view"},{"type":"function","name":"wethFeed","inputs":[],"outputs":[{"name":"","type":"address","internalType":"contract MockAggregatorV3"}],"stateMutability":"view"},{"type":"function","name":"wethFeedDecimals","inputs":[],"outputs":[{"name":"","type":"uint8","internalType":"uint8"}],"stateMutability":"view"},{"type":"event","name":"Log","inputs":[{"name":"","type":"string","indexed":false,"internalType":"string"}],"anonymous":false}],"bytecode":{"object":"0x60008054737109709ecfa91a80626ff3989d68f67f5b1dd12d6001600160a01b031991821617909155600c805462ffffff60a01b19166201010160a31b179055603b8054309083168117909155603c80549092161790556420a226a4a760d91b603d55665550475241444560c81b603e5565434f4e46494760d01b603f556525a2a2a822a960d11b604090815567574554485553444360c01b60415567574254435553444360c01b60425560c0905260046080908152630f08aa8960e31b60a0526043906100cd9082615a4c565b506040805180820190915260048152637842544360e01b60208201526044906100f69082615a4c565b506040805180820190915260048152631e1554d160e21b602082015260459061011f9082615a4c565b50640174876e8060465562013880604755607860485560966049556000604a556000604b556000604c556000604d556000604e5567574554485553444360c01b604f5567574254435553444360c01b605055621e8480605155620f4240605255606e6053556096605455608260555560aa6056556a084595161401484a0000006057556a084595161401484a00000060585561c35060595569152d02c7e14af6800000605a55600a605b55600a605c556000605d556216e360605e556216e360605f556216e3606060556216e3606061556216e3606062556216e3606063556216e3606064556216e3606065556101f4606655611388606755600b60685561697860695561f618606a55616978606b5561f618606c556000606d55614e20606e55621e8480606f556001607060006101000a81548160ff0219169083151502179055506002607155620182b8607255642e90edd00060735565b5e620f4800060745564012a05f20060755564e8d4a51000607655600a6077556113886078556001607960006101000a81548160ff0219169083151502179055506006607a55620182b8607b5568056bc75e2d63100000607c5569152d02c7e14af6800000607d55670de0b6b3a7640000607e556802b5e3af16b1880000607f55600a6080556113886081556001608260006101000a81548160ff0219169083151502179055506006608355620182b8608455678ac7230489e8000060855569021e19e0c9bab240000060865567016345785d8a0000608755674563918244f40000608855600a608955611388608a55678ac7230489e80000608b556201d4c0608c556201d4c0608d556103e8608e556404a817c800608f55642e90edd00060905561697860915561f61860925561271060935561697860945561f6186095556000609655600060975561138860985568056bc75e2d63100000609d55620186a0609e556064609f55600a60a0556103f46103f960201b60201c565b616324565b60405161040590615550565b604051809103906000f080158015610421573d6000803e3d6000fd5b50600180546001600160a01b0319166001600160a01b03929092169190911790556040516012906104519061555e565b6040808252600490820152635553444360e01b606082015260ff9091166020820152608001604051809103906000f080158015610492573d6000803e3d6000fd5b50600380546001600160a01b0319166001600160a01b03929092169190911790556040516008906104c29061555e565b6040808252600490820152635742544360e01b606082015260ff9091166020820152608001604051809103906000f080158015610503573d6000803e3d6000fd5b50600280546001600160a01b0319166001600160a01b039283161790556000546040516001625e79b760e01b03198152670122333444455555600482015291169063ffa18649906024016020604051808303816000875af115801561056c573d6000803e3d6000fd5b505050506040513d601f19601f820116820180604052508101906105909190615b0b565b600480546001600160a01b0319166001600160a01b0392909216919091179055604080516003808252608082019092529060208201606080368337505081516105e092600592506020019061556c565b50600154600580546001600160a01b039092169160009061060357610603615b3b565b600091825260209091200180546001600160a01b0319166001600160a01b0392831617905560035460058054919092169190600190811061064657610646615b3b565b600091825260209091200180546001600160a01b0319166001600160a01b03928316179055600280546005805491909316929190811061068857610688615b3b565b9060005260206000200160006101000a8154816001600160a01b0302191690836001600160a01b03160217905550306040516106c3906155d1565b6001600160a01b039091168152602001604051809103906000f0801580156106ef573d6000803e3d6000fd5b50603a80546001600160a01b0319166001600160a01b0392909216919091179055604051309061071e906155df565b6001600160a01b039091168152602001604051809103906000f08015801561074a573d6000803e3d6000fd5b50603880546001600160a01b0319166001600160a01b03929092169190911790556040513090610779906155ed565b6001600160a01b039091168152602001604051809103906000f0801580156107a5573d6000803e3d6000fd5b50603980546001600160a01b0319166001600160a01b03929092169190911790556107ce610cb9565b6040516107da906155fb565b604051809103906000f0801580156107f6573d6000803e3d6000fd5b50603580546001600160a01b0319166001600160a01b03928316908117909155600e54600f5460405191841693169190309061083190615609565b6001600160a01b039485168152928416602084015290831660408301529091166060820152608001604051809103906000f080158015610875573d6000803e3d6000fd5b50603680546001600160a01b03929092166001600160a01b03199283168117909155603780548316821790556021805483168217905560228054831682179055602380548316821790556024805483168217905560258054831682179055602680548316821790556027805483168217905560288054831682179055602a8054831682179055602b8054831682179055602c8054831682179055602d8054831682179055602e8054831682179055602f805483168217905560308054831682179055603180548316821790556032805483168217905560338054831682179055603480548316821790556029805490921617905561097161126f565b610979612f56565b61098161307c565b602654603d5460405163ac4ab3fb60e01b815230600482015260248101919091526001600160a01b039091169063ac4ab3fb90604401602060405180830381865afa1580156109d4573d6000803e3d6000fd5b505050506040513d601f19601f820116820180604052508101906109f89190615b51565b610a0457610a04615b73565b602654603e5460405163ac4ab3fb60e01b815230600482015260248101919091526001600160a01b039091169063ac4ab3fb90604401602060405180830381865afa158015610a57573d6000803e3d6000fd5b505050506040513d601f19601f82011682018060405250810190610a7b9190615b51565b610a8757610a87615b73565b602654603f5460405163ac4ab3fb60e01b815230600482015260248101919091526001600160a01b039091169063ac4ab3fb90604401602060405180830381865afa158015610ada573d6000803e3d6000fd5b505050506040513d601f19601f82011682018060405250810190610afe9190615b51565b610b0a57610b0a615b73565b60265460408054905163ac4ab3fb60e01b815230600482015260248101919091526001600160a01b039091169063ac4ab3fb90604401602060405180830381865afa158015610b5d573d6000803e3d6000fd5b505050506040513d601f19601f82011682018060405250810190610b819190615b51565b610b8d57610b8d615b73565b610b95613187565b610b9d61320b565b610ba5613585565b610bad613d1f565b60408051600380825260808201909252906020820160608036833750508151610bdd92600992506020019061556c565b50600654600980546001600160a01b0390921691600090610c0057610c00615b3b565b600091825260209091200180546001600160a01b0319166001600160a01b03928316179055600754600980549190921691906001908110610c4357610c43615b3b565b600091825260209091200180546001600160a01b0319166001600160a01b03928316179055600854600980549190921691906002908110610c8657610c86615b3b565b600091825260209091200180546001600160a01b0319166001600160a01b0392909216919091179055610cb76142d2565b565b604051610cc590615617565b604051809103906000f080158015610ce1573d6000803e3d6000fd5b50600d80546001600160a01b0319166001600160a01b0392909216919091179055604051610d0e90615625565b604051809103906000f080158015610d2a573d6000803e3d6000fd5b50600e80546001600160a01b0319166001600160a01b0392909216919091179055604051610d5790615633565b604051809103906000f080158015610d73573d6000803e3d6000fd5b50600f80546001600160a01b0319166001600160a01b0392909216919091179055604051610da090615641565b604051809103906000f080158015610dbc573d6000803e3d6000fd5b50601080546001600160a01b0319166001600160a01b0392909216919091179055604051610de99061564f565b604051809103906000f080158015610e05573d6000803e3d6000fd5b50601180546001600160a01b0319166001600160a01b0392909216919091179055604051610e329061565d565b604051809103906000f080158015610e4e573d6000803e3d6000fd5b50601280546001600160a01b0319166001600160a01b0392909216919091179055604051610e7b9061566b565b604051809103906000f080158015610e97573d6000803e3d6000fd5b50601380546001600160a01b0319166001600160a01b0392909216919091179055604051610ec490615679565b604051809103906000f080158015610ee0573d6000803e3d6000fd5b50601480546001600160a01b0319166001600160a01b0392909216919091179055604051610f0d90615687565b604051809103906000f080158015610f29573d6000803e3d6000fd5b50601580546001600160a01b0319166001600160a01b0392909216919091179055604051610f5690615695565b604051809103906000f080158015610f72573d6000803e3d6000fd5b50601680546001600160a01b0319166001600160a01b0392909216919091179055604051610f9f906156a3565b604051809103906000f080158015610fbb573d6000803e3d6000fd5b50601780546001600160a01b0319166001600160a01b0392909216919091179055604051610fe8906156b1565b604051809103906000f080158015611004573d6000803e3d6000fd5b50601880546001600160a01b0319166001600160a01b0392909216919091179055604051611031906156bf565b604051809103906000f08015801561104d573d6000803e3d6000fd5b50601980546001600160a01b0319166001600160a01b039290921691909117905560405161107a906156cd565b604051809103906000f080158015611096573d6000803e3d6000fd5b50601a80546001600160a01b0319166001600160a01b03929092169190911790556040516110c3906156db565b604051809103906000f0801580156110df573d6000803e3d6000fd5b50601b80546001600160a01b0319166001600160a01b039290921691909117905560405161110c906156e9565b604051809103906000f080158015611128573d6000803e3d6000fd5b50601c80546001600160a01b0319166001600160a01b0392909216919091179055604051611155906156f7565b604051809103906000f080158015611171573d6000803e3d6000fd5b50601d80546001600160a01b0319166001600160a01b039290921691909117905560405161119e90615705565b604051809103906000f0801580156111ba573d6000803e3d6000fd5b50601e80546001600160a01b0319166001600160a01b03929092169190911790556040516111e790615713565b604051809103906000f080158015611203573d6000803e3d6000fd5b50601f80546001600160a01b0319166001600160a01b039290921691909117905560405161123090615721565b604051809103906000f08015801561124c573d6000803e3d6000fd5b50602080546001600160a01b0319166001600160a01b0392909216919091179055565b611304604051806102600160405280606081526020016060815260200160608152602001606081526020016060815260200160608152602001606081526020016060815260200160608152602001606081526020016060815260200160608152602001606081526020016060815260200160608152602001606081526020016060815260200160608152602001606081525090565b604080516012808252610260820190925290816020015b6040805160608082018352600080835260208301529181019190915281526020019060019003908161131b57505081526040805160078082526101008201909252906020820160e0803683375050506020820181905280516311f9fbc960e21b919060009061138c5761138c615b3b565b6001600160e01b0319909216602092830291909101820152810151805163750b5a1960e01b919060019081106113c4576113c4615b3b565b6001600160e01b031990921660209283029190910182015281015180516302e9d19960e01b919060029081106113fc576113fc615b3b565b6001600160e01b031990921660209283029190910182015281015180516313874d3760e01b9190600390811061143457611434615b3b565b6001600160e01b0319909216602092830291909101820152810151805163115647f760e01b9190600490811061146c5761146c615b3b565b6001600160e01b03199092166020928302919091018201528101518051630f6a21fd60e31b919060059081106114a4576114a4615b3b565b6001600160e01b0319909216602092830291909101820152810151805163abac566560e01b919060069081106114dc576114dc615b3b565b6001600160e01b03199092166020928302919091018201526040805160608101909152600d546001600160a01b03168152908101600081526020838101519101528151805160009061153057611530615b3b565b602090810291909101015260408051600a808252610160820190925290816020016020820280368337505050604082018190528051632544cc2d60e01b919060009061157e5761157e615b3b565b6001600160e01b03199092166020928302919091019091015260408101518051635f54c24f60e11b919060019081106115b9576115b9615b3b565b6001600160e01b031990921660209283029190910190910152604081015180516368b5f86b60e01b919060029081106115f4576115f4615b3b565b6001600160e01b031990921660209283029190910190910152604081015180516313b8dec760e21b9190600390811061162f5761162f615b3b565b6001600160e01b03199092166020928302919091019091015260408101518051630ee75e3f60e21b9190600490811061166a5761166a615b3b565b6001600160e01b0319909216602092830291909101909101526040810151805163659d67bb60e01b919060059081106116a5576116a5615b3b565b6001600160e01b031990921660209283029190910190910152604081015180516330fe427560e21b919060069081106116e0576116e0615b3b565b6001600160e01b0319909216602092830291909101909101526040810151805163f29486a160e01b9190600790811061171b5761171b615b3b565b6001600160e01b03199092166020928302919091019091015260408101518051634f42ce0560e01b9190600890811061175657611756615b3b565b6001600160e01b0319909216602092830291909101909101526040810151805163e1be37bd60e01b9190600990811061179157611791615b3b565b6001600160e01b0319909216602092830291909101820152604080516060810190915281546001600160a01b031681529081016000815260408301516020909101528151805160019081106117e8576117e8615b3b565b6020908102919091010152604080516001808252818301909252908160200160208202803683375050506060820181905280516001621df23f60e21b0319919060009061183757611837615b3b565b6001600160e01b031990921660209283029190910182015260408051606081019091526019546001600160a01b0316815290810160008152606083015160209091015281518051600290811061188f5761188f615b3b565b602090810291909101015260408051600b80825261018082019092529081602001602082028036833750505060808201819052805163e9e6741f60e01b91906000906118dd576118dd615b3b565b6001600160e01b0319909216602092830291909101909101526080810151805163943144b760e01b9190600190811061191857611918615b3b565b6001600160e01b031990921660209283029190910190910152608081015180516324211a4b60e21b9190600290811061195357611953615b3b565b6001600160e01b031990921660209283029190910190910152608081015180516351ebcaad60e01b9190600390811061198e5761198e615b3b565b6001600160e01b03199092166020928302919091019091015260808101518051637ad1830360e01b919060049081106119c9576119c9615b3b565b6001600160e01b0319909216602092830291909101909101526080810151805163bc8f47c560e01b91906005908110611a0457611a04615b3b565b6001600160e01b031990921660209283029190910190910152608081015180516355be18cb60e01b91906006908110611a3f57611a3f615b3b565b6001600160e01b0319909216602092830291909101909101526080810151805163b9ee807360e01b91906007908110611a7a57611a7a615b3b565b6001600160e01b0319909216602092830291909101909101526080810151805163ada5636560e01b91906008908110611ab557611ab5615b3b565b6001600160e01b03199092166020928302919091019091015260808101518051632e4cd5d560e11b91906009908110611af057611af0615b3b565b6001600160e01b03199092166020928302919091019091015260808101518051632dcf295f60e11b9190600a908110611b2b57611b2b615b3b565b6001600160e01b031990921660209283029190910182015260408051606081019091526018546001600160a01b03168152908101600081526080830151602090910152815180516003908110611b8357611b83615b3b565b602090810291909101015260408051600680825260e082019092529081602001602082028036833750505060a08201819052805163c082871360e01b9190600090611bd057611bd0615b3b565b6001600160e01b03199092166020928302919091019091015260a08101518051635a536f8f60e01b91906001908110611c0b57611c0b615b3b565b6001600160e01b03199092166020928302919091019091015260a08101518051632b277aa960e21b91906002908110611c4657611c46615b3b565b6001600160e01b03199092166020928302919091019091015260a08101518051631b2df54560e31b91906003908110611c8157611c81615b3b565b6001600160e01b03199092166020928302919091019091015260a081015180516319c6034360e21b91906004908110611cbc57611cbc615b3b565b6001600160e01b03199092166020928302919091019091015260a081015180516308d601cb60e21b91906005908110611cf757611cf7615b3b565b6001600160e01b03199092166020928302919091018201526040805160608101909152601c546001600160a01b031681529081016000815260a0830151602090910152815180516004908110611d4f57611d4f615b3b565b602090810291909101015260408051600680825260e082019092529081602001602082028036833750505060c082018190528051631ea9aba960e21b9190600090611d9c57611d9c615b3b565b6001600160e01b03199092166020928302919091019091015260c08101518051635cfac83760e01b91906001908110611dd757611dd7615b3b565b6001600160e01b03199092166020928302919091019091015260c081015180516378a0c2cd60e11b91906002908110611e1257611e12615b3b565b6001600160e01b03199092166020928302919091019091015260c0810151805163a7b039d960e01b91906003908110611e4d57611e4d615b3b565b6001600160e01b03199092166020928302919091019091015260c081015180516351d1a5af60e01b91906004908110611e8857611e88615b3b565b6001600160e01b03199092166020928302919091019091015260c0810151805163cd0743c960e01b91906005908110611ec357611ec3615b3b565b6001600160e01b03199092166020928302919091018201526040805160608101909152601f546001600160a01b031681529081016000815260c0830151602090910152815180516005908110611f1b57611f1b615b3b565b6020908102919091010152604080516002808252606082019092529081602001602082028036833750505060e082018190528051634777232f60e01b9190600090611f6857611f68615b3b565b6001600160e01b03199092166020928302919091019091015260e0810151805163751372f960e11b91906001908110611fa357611fa3615b3b565b6001600160e01b03199092166020928302919091018201526040805160608101909152601a546001600160a01b031681529081016000815260e0830151602090910152815180516006908110611ffb57611ffb615b3b565b602090810291909101015260408051600280825260608201909252908160200160208202803683375050506101008201819052805163180e24bb60e01b919060009061204957612049615b3b565b6001600160e01b0319909216602092830291909101909101526101008101518051631d3c97b760e01b9190600190811061208557612085615b3b565b6001600160e01b031990921660209283029190910182015260408051606081019091526014546001600160a01b03168152908101600081526101008301516020909101528151805160079081106120de576120de615b3b565b602090810291909101015260408051600580825260c0820190925290816020016020820280368337505050610120820181905280516325829b0560e11b919060009061212c5761212c615b3b565b6001600160e01b03199092166020928302919091019091015261012081015180516344f3a60560e11b9190600190811061216857612168615b3b565b6001600160e01b03199092166020928302919091019091015261012081015180516322dabfa560e01b919060029081106121a4576121a4615b3b565b6001600160e01b03199092166020928302919091019091015261012081015180516305b47d8160e51b919060039081106121e0576121e0615b3b565b6001600160e01b0319909216602092830291909101909101526101208101518051639508352760e01b9190600490811061221c5761221c615b3b565b6001600160e01b031990921660209283029190910182015260408051606081019091526010546001600160a01b031681529081016000815261012083015160209091015281518051600890811061227557612275615b3b565b602090810291909101015260408051600580825260c08201909252908160200160208202803683375050506101408201819052805163bbe4f6db60e01b91906000906122c3576122c3615b3b565b6001600160e01b031990921660209283029190910190910152610140810151805163075d037d60e41b919060019081106122ff576122ff615b3b565b6001600160e01b03199092166020928302919091019091015261014081015180516327a79e3d60e21b9190600290811061233b5761233b615b3b565b6001600160e01b0319909216602092830291909101909101526101408101518051631559a24360e01b9190600390811061237757612377615b3b565b6001600160e01b0319909216602092830291909101909101526101408101518051631f27dbe160e11b919060049081106123b3576123b3615b3b565b6001600160e01b031990921660209283029190910182015260408051606081019091526016546001600160a01b031681529081016000815261014083015160209091015281518051600990811061240c5761240c615b3b565b60209081029190910101526040805160098082526101408201909252908160200160208202803683375050506101608201819052805163fe1b724560e01b919060009061245b5761245b615b3b565b6001600160e01b0319909216602092830291909101909101526101608101518051630c46f97d60e21b9190600190811061249757612497615b3b565b6001600160e01b031990921660209283029190910190910152610160810151805163e606789b60e01b919060029081106124d3576124d3615b3b565b6001600160e01b0319909216602092830291909101909101526101608101518051637431564760e01b9190600390811061250f5761250f615b3b565b6001600160e01b031990921660209283029190910190910152610160810151805163cb5c8d8160e01b9190600490811061254b5761254b615b3b565b6001600160e01b03199092166020928302919091019091015261016081015180516359086dc960e01b9190600590811061258757612587615b3b565b6001600160e01b031990921660209283029190910190910152610160810151805163027edeab60e21b919060069081106125c3576125c3615b3b565b6001600160e01b031990921660209283029190910190910152610160810151805163fb11e96960e01b919060079081106125ff576125ff615b3b565b6001600160e01b03199092166020928302919091019091015261016081015180516320832e3160e11b9190600890811061263b5761263b615b3b565b6001600160e01b031990921660209283029190910182015260408051606081019091526011546001600160a01b031681529081016000815261016083015160209091015281518051600a90811061269457612694615b3b565b60209081029190910101526040805160018082528183019092529081602001602082028036833750505061018082018190528051631a7c95e560e31b91906000906126e1576126e1615b3b565b6001600160e01b031990921660209283029190910182015260408051606081019091526017546001600160a01b031681529081016000815261018083015160209091015281518051600b90811061273a5761273a615b3b565b602090810291909101015260408051600280825260608201909252908160200160208202803683375050506101a082018190528051631bb31e7960e21b919060009061278857612788615b3b565b6001600160e01b0319909216602092830291909101909101526101a08101518051631d15efe160e31b919060019081106127c4576127c4615b3b565b6001600160e01b03199092166020928302919091018201526040805160608101909152601e546001600160a01b03168152908101600081526101a083015160209091015281518051600c90811061281d5761281d615b3b565b602090810291909101015260408051600480825260a08201909252908160200160208202803683375050506101c082018190528051632ac9d0b760e21b919060009061286b5761286b615b3b565b6001600160e01b0319909216602092830291909101909101526101c0810151805163208dd1ff60e01b919060019081106128a7576128a7615b3b565b6001600160e01b0319909216602092830291909101909101526101c081015180516319666e6960e31b919060029081106128e3576128e3615b3b565b6001600160e01b0319909216602092830291909101909101526101c0810151805163ac4ab3fb60e01b9190600390811061291f5761291f615b3b565b6001600160e01b031990921660209283029190910182015260408051606081019091526012546001600160a01b03168152908101600081526101c083015160209091015281518051600d90811061297857612978615b3b565b602090810291909101015260408051600680825260e08201909252908160200160208202803683375050506101e0820181905280516353e5b30160e11b91906000906129c6576129c6615b3b565b6001600160e01b0319909216602092830291909101909101526101e08101518051631822508960e01b91906001908110612a0257612a02615b3b565b6001600160e01b0319909216602092830291909101909101526101e08101518051630edbe45160e21b91906002908110612a3e57612a3e615b3b565b6001600160e01b0319909216602092830291909101909101526101e0810151805163545b6c5560e11b91906003908110612a7a57612a7a615b3b565b6001600160e01b0319909216602092830291909101909101526101e08101518051636990d24560e01b91906004908110612ab657612ab6615b3b565b6001600160e01b0319909216602092830291909101909101526101e081015180516313a86f7b60e31b91906005908110612af257612af2615b3b565b6001600160e01b031990921660209283029190910182015260408051606081019091526013546001600160a01b03168152908101600081526101e083015160209091015281518051600e908110612b4b57612b4b615b3b565b6020908102919091010152604080516003808252608082019092529081602001602082028036833750505061020082018190528051630324f16d60e61b9190600090612b9957612b99615b3b565b6001600160e01b0319909216602092830291909101909101526102008101518051638e94134760e01b91906001908110612bd557612bd5615b3b565b6001600160e01b0319909216602092830291909101909101526102008101518051639fe30b0360e01b91906002908110612c1157612c11615b3b565b6001600160e01b031990921660209283029190910182015260408051606081019091526015546001600160a01b031681529081016000815261020083015160209091015281518051600f908110612c6a57612c6a615b3b565b60209081029190910101526040805160018082528183019092529081602001602082028036833750505061022082018190528051637bdb02cb60e01b9190600090612cb757612cb7615b3b565b6001600160e01b03199092166020928302919091018201526040805160608101909152601d546001600160a01b0316815290810160008152610220830151602090910152815180516010908110612d1057612d10615b3b565b602090810291909101015260408051600680825260e08201909252908160200160208202803683375050506102408201819052805163098eae4560e11b9190600090612d5e57612d5e615b3b565b6001600160e01b0319909216602092830291909101909101526102408101518051631b4af8ff60e31b91906001908110612d9a57612d9a615b3b565b6001600160e01b0319909216602092830291909101909101526102408101518051637a09f40d60e11b91906002908110612dd657612dd6615b3b565b6001600160e01b0319909216602092830291909101909101526102408101518051634bf3dbf960e11b91906003908110612e1257612e12615b3b565b6001600160e01b03199092166020928302919091019091015261024081015180516308ba026f60e01b91906004908110612e4e57612e4e615b3b565b6001600160e01b0319909216602092830291909101909101526102408101518051630fbac97560e11b91906005908110612e8a57612e8a615b3b565b6001600160e01b03199092166020928302919091018201526040805160608101909152601b546001600160a01b0316815290810160008152610240830151602090910152815180516011908110612ee357612ee3615b3b565b602090810291909101015260225481516040516307e4c70760e21b81526001600160a01b0390921691631f931c1c91612f2191600090600401615b89565b600060405180830381600087803b158015612f3b57600080fd5b505af1158015612f4f573d6000803e3d6000fd5b5050505050565b603854603754604051631add9f0b60e11b81526001600160a01b0391821660048201529116906335bb3e1690602401600060405180830381600087803b158015612f9f57600080fd5b505af1158015612fb3573d6000803e3d6000fd5b5050603954603754604051631add9f0b60e11b81526001600160a01b039182166004820152911692506335bb3e169150602401600060405180830381600087803b15801561300057600080fd5b505af1158015613014573d6000803e3d6000fd5b5050603a54603754604051631add9f0b60e11b81526001600160a01b039182166004820152911692506335bb3e1691506024015b600060405180830381600087803b15801561306257600080fd5b505af1158015613076573d6000803e3d6000fd5b50505050565b602654603e54604051632ac9d0b760e21b815230600482015260248101919091526001600160a01b039091169063ab2742dc90604401600060405180830381600087803b1580156130cc57600080fd5b505af11580156130e0573d6000803e3d6000fd5b5050602654603f54604051632ac9d0b760e21b815230600482015260248101919091526001600160a01b03909116925063ab2742dc9150604401600060405180830381600087803b15801561313457600080fd5b505af1158015613148573d6000803e3d6000fd5b5050602654604080549051632ac9d0b760e21b815230600482015260248101919091526001600160a01b03909116925063ab2742dc9150604401613048565b60408051606080820183526000808352602080840182905292840152825190810183526038546001600160a01b039081168252603a5481169282019283526039548116828501908152602954945163659d67bb60e01b815283518316600482015293518216602485015251811660448401529092169063659d67bb90606401612f21565b60408051608081018252600080825260606020830181905292820181905291810191909152604080516080810182526000808252606060208301819052928201819052918101919091526040518060800160405280604154815260200160438054613275906159c1565b80601f01602080910402602001604051908101604052809291908181526020018280546132a1906159c1565b80156132ee5780601f106132c3576101008083540402835291602001916132ee565b820191906000526020600020905b8154815290600101906020018083116132d157829003601f168201915b50505091835250506001546001600160a01b0316602080830182905260409283019190915281516080810190925260425482526044805493955091929083019190613338906159c1565b80601f0160208091040260200160405190810160405280929190818152602001828054613364906159c1565b80156133b15780601f10613386576101008083540402835291602001916133b1565b820191906000526020600020905b81548152906001019060200180831161339457829003601f168201915b50505091835250506002546001600160a01b0390811660208301819052604092830152602f549151634777232f60e01b8152929350600092911690634777232f90613400908690600401615c8a565b6020604051808303816000875af115801561341f573d6000803e3d6000fd5b505050506040513d601f19601f820116820180604052508101906134439190615b0b565b602f54604051634777232f60e01b81529192506000916001600160a01b0390911690634777232f90613479908690600401615c8a565b6020604051808303816000875af1158015613498573d6000803e3d6000fd5b505050506040513d601f19601f820116820180604052508101906134bc9190615b0b565b600680546001600160a01b038086166001600160a01b031992831617909255600780548385169216919091179055602f5460405163751372f960e11b815292935060009291169063ea26e5f29061351b90604590601290600401615d17565b6020604051808303816000875af115801561353a573d6000803e3d6000fd5b505050506040513d601f19601f8201168201806040525081019061355e9190615b0b565b600880546001600160a01b0319166001600160a01b03929092169190911790555050505050565b60408051600180825281830190925260009160208083019080368337505060015482519293506001600160a01b0316918391506000906135c7576135c7615b3b565b60200260200101906001600160a01b031690816001600160a01b03168152505061363d604051806101400160405280600081526020016000815260200160008152602001600081526020016000815260200160008152602001600081526020016000815260200160008152602001606081525090565b6040518061014001604052806046548152602001604754815260200160485481526020016049548152602001604a548152602001604b548152602001604c548152602001604d548152602001604e54815260200183815250905061369f61572f565b506040805180820182526006546001600160a01b0390811682526020820184905260295492516368b5f86b60e01b8152919216906368b5f86b906136e7908490600401615df3565b600060405180830381600087803b15801561370157600080fd5b505af1158015613715573d6000803e3d6000fd5b5060009250600191506137259050565b60405190808252806020026020018201604052801561374e578160200160208202803683370190505b5060025481519192506001600160a01b031690829060009061377257613772615b3b565b60200260200101906001600160a01b031690816001600160a01b0316815250506137e8604051806101400160405280600081526020016000815260200160008152602001600081526020016000815260200160008152602001600081526020016000815260200160008152602001606081525090565b6040518061014001604052806046548152602001604754815260200160485481526020016049548152602001604a548152602001604b548152602001604c548152602001604d548152602001604e54815260200183815250935061384a61572f565b506040805180820182526007546001600160a01b0390811682526020820184905260295492516368b5f86b60e01b8152919216906368b5f86b90613892908490600401615df3565b600060405180830381600087803b1580156138ac57600080fd5b505af11580156138c0573d6000803e3d6000fd5b5050505061390c60405180610100016040528060008152602001600081526020016000815260200160008152602001600081526020016000815260200160008152602001600081525090565b6040518061010001604052806051548152602001605254815260200160535481526020016055548152602001605754815260200160585481526020016059548152602001605a5481525090506139606157a5565b50604080518082018252604f54815260208082018481526029548451630ee75e3f60e21b81528451600482015291518051602484015292830151604483015293820151606482015260608201516084820152608082015160a482015260a082015160c482015260c082015160e482015260e09091015161010482015290916001600160a01b031690633b9d78fc9061012401600060405180830381600087803b158015613a0c57600080fd5b505af1158015613a20573d6000803e3d6000fd5b50505050613a6c60405180610100016040528060008152602001600081526020016000815260200160008152602001600081526020016000815260200160008152602001600081525090565b6040518061010001604052806051548152602001605254815260200160545481526020016056548152602001605754815260200160585481526020016059548152602001605a548152509050613ac06157a5565b50604080518082018252605054815260208082018481526029548451630ee75e3f60e21b81528451600482015291518051602484015292830151604483015293820151606482015260608201516084820152608082015160a482015260a082015160c482015260c082015160e482015260e09091015161010482015290916001600160a01b031690633b9d78fc9061012401600060405180830381600087803b158015613b6c57600080fd5b505af1158015613b80573d6000803e3d6000fd5b50505050613b8c615802565b60408051600180825281830190925260009160208083019080368337505060035482519293506001600160a01b031691839150600090613bce57613bce615b3b565b6001600160a01b039290921660209283029190910190910152604080516001808252818301909252600091816020016020820280368337019050509050632540be4081600081518110613c2357613c23615b3b565b602002602001018181525050613c686040518060c001604052806000815260200160008152602001600081526020016000815260200160608152602001606081525090565b506040805160c0810182526047548152605b54602080830191909152605c5482840152605d5460608301526080820185905260a082018490528251908101835281815260295492516313b8dec760e21b815290955090916001600160a01b031690634ee37b1c90613cdd908790600401615e9e565b600060405180830381600087803b158015613cf757600080fd5b505af1158015613d0b573d6000803e3d6000fd5b505050505050505050505050505050505050565b613d7760405180610120016040528060006001600160a01b0316815260200160008152602001600081526020016000815260200160008152602001600081526020016000815260200160008152602001600081525090565b5060408051610120810182526001546001600160a01b03168152605e546020820152605f5481830152606080549082015260615460808083019190915260625460a083015260635460c083015260645460e0830152606554610100830152825160038082529181019093529091600091816020016020820280368337505060035482519293506001600160a01b031691839150600090613e1957613e19615b3b565b6001600160a01b0392831660209182029290920101526001805483519216918391908110613e4957613e49615b3b565b6001600160a01b0392831660209182029290920101526002805483519216918391908110613e7957613e79615b3b565b6001600160a01b03929092166020928302919091019091015260408051600380825260808201909252600091816020015b613efb60405180610120016040528060001515815260200160008152602001600081526020016000815260200160008152602001600081526020016000815260200160008152602001600081525090565b815260200190600190039081613eaa575050604080516101208101825260705460ff16151581526071546020820152607254918101919091526073546060820152607454608082015260755460a082015260765460c082015260775460e08201526078546101008201528151919250908290600090613f7c57613f7c615b3b565b6020026020010181905250604051806101200160405280607960009054906101000a900460ff1615158152602001607a548152602001607b548152602001607c548152602001607d548152602001607e548152602001607f548152602001608054815260200160815481525081600181518110613ffb57613ffb615b3b565b6020026020010181905250604051806101200160405280608260009054906101000a900460ff16151581526020016083548152602001608454815260200160855481526020016086548152602001608754815260200160885481526020016089548152602001608a548152508160028151811061407a5761407a615b3b565b6020026020010181905250614105604051806102000160405280606081526020016060815260200160008152602001600081526020016000815260200160008152602001600081526020016000815260200160008152602001600081526020016000815260200160008152602001600081526020016000815260200160008152602001600081525090565b604051806102000160405280848152602001838152602001608b548152602001608c548152602001608d548152602001608e548152602001608f5481526020016090548152602001609154815260200160925481526020016093548152602001609454815260200160955481526020016096548152602001609754815260200160985481525090506141e3604051806101400160405280600081526020016000815260200160008152602001600081526020016000815260200160008152602001600081526020016000815260200160008152602001600081525090565b6040518061014001604052806066548152602001606754815260200160685481526020016069548152602001606a548152602001606b548152602001606c548152602001606d548152602001606e548152602001606f548152509050614247615846565b506040805160808101825286815260208101849052808201839052600060608201526029549151632544cc2d60e01b815290916001600160a01b031690632544cc2d9061429890849060040161608f565b600060405180830381600087803b1580156142b257600080fd5b505af11580156142c6573d6000803e3d6000fd5b50505050505050505050565b6000546040516001625e79b760e01b03198152600160048201526001600160a01b039091169063ffa18649906024016020604051808303816000875af1158015614320573d6000803e3d6000fd5b505050506040513d601f19601f820116820180604052508101906143449190615b0b565b609980546001600160a01b0319166001600160a01b039283161790556000546040516001625e79b760e01b031981526002600482015291169063ffa18649906024016020604051808303816000875af11580156143a5573d6000803e3d6000fd5b505050506040513d601f19601f820116820180604052508101906143c99190615b0b565b609a80546001600160a01b0319166001600160a01b039283161790556000546040516001625e79b760e01b031981526003600482015291169063ffa18649906024016020604051808303816000875af115801561442a573d6000803e3d6000fd5b505050506040513d601f19601f8201168201806040525081019061444e9190615b0b565b609b80546001600160a01b0319166001600160a01b03928316179055600054609954604080516318caf8e360e31b81529184166004830152602482015260036044820152622137b160e91b606482015291169063c657c71890608401600060405180830381600087803b1580156144c457600080fd5b505af11580156144d8573d6000803e3d6000fd5b5050600054609a54604080516318caf8e360e31b81526001600160a01b03928316600482015260248101919091526005604482015264416c69636560d81b60648201529116925063c657c7189150608401600060405180830381600087803b15801561454357600080fd5b505af1158015614557573d6000803e3d6000fd5b5050600054609b54604080516318caf8e360e31b81526001600160a01b0392831660048083019190915260248201929092526044810191909152634a616b6560e01b60648201529116925063c657c7189150608401600060405180830381600087803b1580156145c657600080fd5b505af11580156145da573d6000803e3d6000fd5b50600392506145e7915050565b604051908082528060200260200182016040528015614610578160200160208202803683370190505b50805161462591609c9160209091019061556c565b50609954609c80546001600160a01b039092169160009061464857614648615b3b565b600091825260209091200180546001600160a01b0319166001600160a01b03928316179055609a54609c8054919092169190600190811061468b5761468b615b3b565b600091825260209091200180546001600160a01b0319166001600160a01b03928316179055609b54609c805491909216919060029081106146ce576146ce615b3b565b6000918252602082200180546001600160a01b0319166001600160a01b0393909316929092179091555b609c5460ff82161015614b8c576000609c8260ff168154811061471d5761471d615b3b565b60009182526020822001549054609d5460405163c88a5e6d60e01b81526001600160a01b0393841660048201819052602482019290925290935091169063c88a5e6d90604401600060405180830381600087803b15801561477d57600080fd5b505af1158015614791573d6000803e3d6000fd5b50506003546040805163313ce56760e01b815290516001600160a01b0390921693506340c10f1992508491849163313ce5679160048083019260209291908290030181865afa1580156147e8573d6000803e3d6000fd5b505050506040513d601f19601f8201168201806040525081019061480c91906161a7565b61481790600a6162c6565b609e5461482491906162d5565b6040516001600160e01b031960e085901b1681526001600160a01b0390921660048301526024820152604401600060405180830381600087803b15801561486a57600080fd5b505af115801561487e573d6000803e3d6000fd5b50506001546040805163313ce56760e01b815290516001600160a01b0390921693506340c10f1992508491849163313ce5679160048083019260209291908290030181865afa1580156148d5573d6000803e3d6000fd5b505050506040513d601f19601f820116820180604052508101906148f991906161a7565b61490490600a6162c6565b609f5461491191906162d5565b6040516001600160e01b031960e085901b1681526001600160a01b0390921660048301526024820152604401600060405180830381600087803b15801561495757600080fd5b505af115801561496b573d6000803e3d6000fd5b50506002546040805163313ce56760e01b815290516001600160a01b0390921693506340c10f1992508491849163313ce5679160048083019260209291908290030181865afa1580156149c2573d6000803e3d6000fd5b505050506040513d601f19601f820116820180604052508101906149e691906161a7565b6149f190600a6162c6565b60a0546149fe91906162d5565b6040516001600160e01b031960e085901b1681526001600160a01b0390921660048301526024820152604401600060405180830381600087803b158015614a4457600080fd5b505af1158015614a58573d6000803e3d6000fd5b5050505060005b60055460ff82161015614b775760005460405163ca669fa760e01b81526001600160a01b0384811660048301529091169063ca669fa790602401600060405180830381600087803b158015614ab357600080fd5b505af1158015614ac7573d6000803e3d6000fd5b5050505060058160ff1681548110614ae157614ae1615b3b565b60009182526020909120015460375460405163095ea7b360e01b81526001600160a01b039182166004820152600019602482015291169063095ea7b3906044016020604051808303816000875af1158015614b40573d6000803e3d6000fd5b505050506040513d601f19601f82011682018060405250810190614b649190615b51565b5080614b6f816162ec565b915050614a5f565b50508080614b84906162ec565b9150506146f8565b50600360009054906101000a90046001600160a01b03166001600160a01b031663313ce5676040518163ffffffff1660e01b8152600401602060405180830381865afa158015614be0573d6000803e3d6000fd5b505050506040513d601f19601f82011682018060405250810190614c0491906161a7565b614c0f90600a6162c6565b609e54614c1c91906162d5565b6003546099546040516370a0823160e01b81526001600160a01b0391821660048201529116906370a0823190602401602060405180830381865afa158015614c68573d6000803e3d6000fd5b505050506040513d601f19601f82011682018060405250810190614c8c919061630b565b14614c9957614c99615b73565b600360009054906101000a90046001600160a01b03166001600160a01b031663313ce5676040518163ffffffff1660e01b8152600401602060405180830381865afa158015614cec573d6000803e3d6000fd5b505050506040513d601f19601f82011682018060405250810190614d1091906161a7565b614d1b90600a6162c6565b609e54614d2891906162d5565b600354609a546040516370a0823160e01b81526001600160a01b0391821660048201529116906370a0823190602401602060405180830381865afa158015614d74573d6000803e3d6000fd5b505050506040513d601f19601f82011682018060405250810190614d98919061630b565b14614da557614da5615b73565b600360009054906101000a90046001600160a01b03166001600160a01b031663313ce5676040518163ffffffff1660e01b8152600401602060405180830381865afa158015614df8573d6000803e3d6000fd5b505050506040513d601f19601f82011682018060405250810190614e1c91906161a7565b614e2790600a6162c6565b609e54614e3491906162d5565b600354609b546040516370a0823160e01b81526001600160a01b0391821660048201529116906370a0823190602401602060405180830381865afa158015614e80573d6000803e3d6000fd5b505050506040513d601f19601f82011682018060405250810190614ea4919061630b565b14614eb157614eb1615b73565b600160009054906101000a90046001600160a01b03166001600160a01b031663313ce5676040518163ffffffff1660e01b8152600401602060405180830381865afa158015614f04573d6000803e3d6000fd5b505050506040513d601f19601f82011682018060405250810190614f2891906161a7565b614f3390600a6162c6565b609f54614f4091906162d5565b6001546099546040516370a0823160e01b81526001600160a01b0391821660048201529116906370a0823190602401602060405180830381865afa158015614f8c573d6000803e3d6000fd5b505050506040513d601f19601f82011682018060405250810190614fb0919061630b565b14614fbd57614fbd615b73565b600160009054906101000a90046001600160a01b03166001600160a01b031663313ce5676040518163ffffffff1660e01b8152600401602060405180830381865afa158015615010573d6000803e3d6000fd5b505050506040513d601f19601f8201168201806040525081019061503491906161a7565b61503f90600a6162c6565b609f5461504c91906162d5565b600154609a546040516370a0823160e01b81526001600160a01b0391821660048201529116906370a0823190602401602060405180830381865afa158015615098573d6000803e3d6000fd5b505050506040513d601f19601f820116820180604052508101906150bc919061630b565b146150c9576150c9615b73565b600160009054906101000a90046001600160a01b03166001600160a01b031663313ce5676040518163ffffffff1660e01b8152600401602060405180830381865afa15801561511c573d6000803e3d6000fd5b505050506040513d601f19601f8201168201806040525081019061514091906161a7565b61514b90600a6162c6565b609f5461515891906162d5565b600154609b546040516370a0823160e01b81526001600160a01b0391821660048201529116906370a0823190602401602060405180830381865afa1580156151a4573d6000803e3d6000fd5b505050506040513d601f19601f820116820180604052508101906151c8919061630b565b146151d5576151d5615b73565b600260009054906101000a90046001600160a01b03166001600160a01b031663313ce5676040518163ffffffff1660e01b8152600401602060405180830381865afa158015615228573d6000803e3d6000fd5b505050506040513d601f19601f8201168201806040525081019061524c91906161a7565b61525790600a6162c6565b60a05461526491906162d5565b6002546099546040516370a0823160e01b81526001600160a01b0391821660048201529116906370a0823190602401602060405180830381865afa1580156152b0573d6000803e3d6000fd5b505050506040513d601f19601f820116820180604052508101906152d4919061630b565b146152e1576152e1615b73565b600260009054906101000a90046001600160a01b03166001600160a01b031663313ce5676040518163ffffffff1660e01b8152600401602060405180830381865afa158015615334573d6000803e3d6000fd5b505050506040513d601f19601f8201168201806040525081019061535891906161a7565b61536390600a6162c6565b60a05461537091906162d5565b600254609a546040516370a0823160e01b81526001600160a01b0391821660048201529116906370a0823190602401602060405180830381865afa1580156153bc573d6000803e3d6000fd5b505050506040513d601f19601f820116820180604052508101906153e0919061630b565b146153ed576153ed615b73565b600260009054906101000a90046001600160a01b03166001600160a01b031663313ce5676040518163ffffffff1660e01b8152600401602060405180830381865afa158015615440573d6000803e3d6000fd5b505050506040513d601f19601f8201168201806040525081019061546491906161a7565b61546f90600a6162c6565b60a05461547c91906162d5565b600254609b546040516370a0823160e01b81526001600160a01b0391821660048201529116906370a0823190602401602060405180830381865afa1580156154c8573d6000803e3d6000fd5b505050506040513d601f19601f820116820180604052508101906154ec919061630b565b146154f9576154f9615b73565b609d546099546001600160a01b0316311461551657615516615b73565b609d54609a546001600160a01b0316311461553357615533615b73565b609d54609b546001600160a01b03163114610cb757610cb7615b73565b610e428062011a4c83390190565b610e37806201288e83390190565b8280548282559060005260206000209081019282156155c1579160200282015b828111156155c157825182546001600160a01b0319166001600160a01b0390911617825560209092019160019091019061558c565b506155cd929150615996565b5090565b610bf680620136c583390190565b610bf680620142bb83390190565b610bf68062014eb183390190565b61013b8062015aa783390190565b6110678062015be283390190565b61637c8062016c4983390190565b61101b806201cfc583390190565b610a68806201dfe083390190565b61da4f806201ea4883390190565b61c833806202c49783390190565b6105b48062038cca83390190565b61922f806203927e83390190565b6106b080620424ad83390190565b6105e08062042b5d83390190565b6131e4806204313d83390190565b613b3d806204632183390190565b6171708062049e5e83390190565b61043f8062050fce83390190565b612753806205140d83390190565b6102c28062053b6083390190565b61c1468062053e2283390190565b613323806205ff6883390190565b61031b806206328b83390190565b61207080620635a683390190565b6154ae806206561683390190565b604051806040016040528060006001600160a01b031681526020016157a0604051806101400160405280600081526020016000815260200160008152602001600081526020016000815260200160008152602001600081526020016000815260200160008152602001606081525090565b905290565b6040518060400160405280600080191681526020016157a060405180610100016040528060008152602001600081526020016000815260200160008152602001600081526020016000815260200160008152602001600081525090565b60405180602001604052806157a06040518060c001604052806000815260200160008152602001600081526020016000815260200160608152602001606081525090565b60405180608001604052806158a960405180610120016040528060006001600160a01b0316815260200160008152602001600081526020016000815260200160008152602001600081526020016000815260200160008152602001600081525090565b815260200161592e604051806102000160405280606081526020016060815260200160008152602001600081526020016000815260200160008152602001600081526020016000815260200160008152602001600081526020016000815260200160008152602001600081526020016000815260200160008152602001600081525090565b8152602001615989604051806101400160405280600081526020016000815260200160008152602001600081526020016000815260200160008152602001600081526020016000815260200160008152602001600081525090565b8152600060209091015290565b5b808211156155cd5760008155600101615997565b634e487b7160e01b600052604160045260246000fd5b600181811c908216806159d557607f821691505b6020821081036159f557634e487b7160e01b600052602260045260246000fd5b50919050565b601f821115615a47576000816000526020600020601f850160051c81016020861015615a245750805b601f850160051c820191505b81811015615a4357828155600101615a30565b5050505b505050565b81516001600160401b03811115615a6557615a656159ab565b615a7981615a7384546159c1565b846159fb565b602080601f831160018114615aae5760008415615a965750858301515b600019600386901b1c1916600185901b178555615a43565b600085815260208120601f198616915b82811015615add57888601518255948401946001909101908401615abe565b5085821015615afb5787850151600019600388901b60f8161c191681555b5050505050600190811b01905550565b600060208284031215615b1d57600080fd5b81516001600160a01b0381168114615b3457600080fd5b9392505050565b634e487b7160e01b600052603260045260246000fd5b600060208284031215615b6357600080fd5b81518015158114615b3457600080fd5b634e487b7160e01b600052600160045260246000fd5b60006060808301606084528086518083526080925060808601915060808160051b8701016020808a0160005b84811015615c5c57898403607f19018652815180516001600160a01b03168552838101518986019060038110615bfb57634e487b7160e01b600052602160045260246000fd5b868601526040918201519186018a905281519081905290840190600090898701905b80831015615c475783516001600160e01b0319168252928601926001929092019190860190615c1d565b50978501979550505090820190600101615bb5565b50506001600160a01b0389168882015250868103604088015260008152602081019998505050505050505050565b600060208083528351602084015260208401516080604085015280518060a086015260005b81811015615ccb5782810184015186820160c001528301615caf565b50600085820160c0015260408601516001600160a01b0381166060870152925060608601516001600160a01b03811660808701529250601f01601f19169390930160c001949350505050565b604081526000808454615d29816159c1565b8060408601526060600180841660008114615d4b5760018114615d6757615d99565b60ff1985166060890152606084151560051b8901019550615d99565b8960005260208060002060005b86811015615d8f5781548b8201870152908401908201615d74565b8a01606001975050505b5050505060ff85166020850152509050615b34565b60008151808452602080850194506020840160005b83811015615de85781516001600160a01b031687529582019590820190600101615dc3565b509495945050505050565b6020815260018060a01b038251166020820152600060208301516040808401528051606084015260208101516080840152604081015160a0840152606081015160c0840152608081015160e084015260a0810151610100818186015260c08301519150610120828187015260e084015192506101408381880152828501516101608801528185015194508061018088015250505050615e966101a0840182615dae565b949350505050565b60006020808352835181828501528051604085015281810151606085015260408101516080850152606081015160a0850152608081015160c080860152615ee9610100860182615dae565b60a09290920151858303603f190160e0870152805180845290840192600092508401905b80831015615f2d5783518252928401926001929092019190840190615f0d565b509695505050505050565b60008151808452602080850194506020840160005b83811015615de8578151805115158852838101518489015260408082015190890152606080820151908901526080808201519089015260a0808201519089015260c0808201519089015260e0808201519089015261010090810151908801526101209096019590820190600101615f4d565b60006102008251818552615fd582860182615dae565b91505060208301518482036020860152615fef8282615f38565b60408581015190870152606080860151908701526080808601519087015260a0808601519087015260c0808601519087015260e08086015190870152610100808601519087015261012080860151908701526101408086015190870152610160808601519087015261018080860151908701526101a080860151908701526101c080860151908701526101e0948501519490950193909352509192915050565b602081526000825160018060a01b038151166020840152602081015160408401526040810151606084015260608101516080840152608081015160a084015260a081015160c084015260c081015160e084015260e081015161010081818601528083015161012086015250505060208301516102a0806101408501526161196102c0850183615fbf565b60408681015180516101608801526020810151610180880152908101516101a08701526060808201516101c088015260808201516101e088015260a082015161020088015260c082015161022088015260e082015161024088015261010082015161026088015261012090910151610280870152909501516001600160a01b03169301929092525090919050565b6000602082840312156161b957600080fd5b815160ff81168114615b3457600080fd5b634e487b7160e01b600052601160045260246000fd5b600181815b8085111561621b578160001904821115616201576162016161ca565b8085161561620e57918102915b93841c93908002906161e5565b509250929050565b600082616232575060016162c0565b8161623f575060006162c0565b8160018114616255576002811461625f5761627b565b60019150506162c0565b60ff841115616270576162706161ca565b50506001821b6162c0565b5060208310610133831016604e8410600b841016171561629e575081810a6162c0565b6162a883836161e0565b80600019048211156162bc576162bc6161ca565b0290505b92915050565b6000615b3460ff841683616223565b80820281158282048414176162c0576162c06161ca565b600060ff821660ff8103616302576163026161ca565b60010192915050565b60006020828403121561631d57600080fd5b5051919050565b61b71880620063346000396000f3fe608060405234801561001057600080fd5b50600436106101c45760003560e01c80638022b6fd116100f9578063c1a95df211610097578063cc5f182a11610071578063cc5f182a146103b9578063ceb78eb5146103cc578063dd47dacf146103e0578063f93e954b146103f357600080fd5b8063c1a95df214610380578063c23d2a4a14610393578063c6705df1146103a657600080fd5b8063a4e7d977116100d3578063a4e7d9771461031c578063b0bcf4bd14610347578063b412399c1461035a578063bd9e750e1461036d57600080fd5b80638022b6fd146102e257806389d72870146102f65780638e4b6ae71461030957600080fd5b80634a74bc9b1161016657806367f6fd701161014057806367f6fd7014610296578063683b9727146102a95780636ecd6c01146102bc57806373b8bfcc146102cf57600080fd5b80634a74bc9b1461025d5780635039f6ca1461027057806359b3e1ab1461028357600080fd5b80633af68583116101a25780633af68583146101f95780633f086ce71461020c578063463539a41461021f57806347439c541461023257600080fd5b806309228a03146101c95780630b267147146101d357806337112506146101e6575b600080fd5b6101d1610406565b005b6101d16101e136600461a567565b61083d565b6101d16101f436600461a5df565b610a65565b6101d161020736600461a675565b610f4c565b6101d161021a36600461a6e1565b611456565b6101d161022d36600461a6fc565b6118db565b600c5461024690600160b01b900460ff1681565b60405160ff90911681526020015b60405180910390f35b6101d161026b36600461a6e1565b611cec565b6101d161027e36600461a765565b612171565b6101d161029136600461a765565b6126d3565b6101d16102a436600461a6e1565b612be0565b6101d16102b736600461a765565b612fda565b6101d16102ca36600461a7af565b61356e565b6101d16102dd36600461a6e1565b613bd1565b600c5461024690600160a01b900460ff1681565b6101d161030436600461a765565b613e09565b6101d161031736600461a88f565b61433d565b600b5461032f906001600160a01b031681565b6040516001600160a01b039091168152602001610254565b6101d161035536600461a6e1565b61474d565b6101d161036836600461a6e1565b614b41565b6101d161037b36600461a6e1565b614f3d565b6101d161038e36600461a765565b615329565b600c5461032f906001600160a01b031681565b6101d16103b436600461a8e2565b615927565b6101d16103c736600461a925565b615bbf565b600c5461024690600160a81b900460ff1681565b600a5461032f906001600160a01b031681565b6101d161040136600461a765565b615f00565b610145546104169060329061a9e5565b6000036108255760005b609c548110156108235760405163ca669fa760e01b815230600482015260008051602061b6a28339815191529063ca669fa790602401600060405180830381600087803b15801561047057600080fd5b505af1158015610484573d6000803e3d6000fd5b5050505060008051602061b6a28339815191526001600160a01b031663c88a5e6d609c83815481106104b8576104b861a9f9565b60009182526020909120015460405160e083901b6001600160e01b03191681526001600160a01b03909116600482015268056bc75e2d631000006024820152604401600060405180830381600087803b15801561051457600080fd5b505af1158015610528573d6000803e3d6000fd5b505060405163ca669fa760e01b815230600482015260008051602061b6a2833981519152925063ca669fa79150602401600060405180830381600087803b15801561057257600080fd5b505af1158015610586573d6000803e3d6000fd5b5050600154609c80546001600160a01b0390921693506340c10f19925090849081106105b4576105b461a9f9565b60009182526020909120015460405160e083901b6001600160e01b03191681526001600160a01b03909116600482015268056bc75e2d631000006024820152604401600060405180830381600087803b15801561061057600080fd5b505af1158015610624573d6000803e3d6000fd5b505060405163ca669fa760e01b815230600482015260008051602061b6a2833981519152925063ca669fa79150602401600060405180830381600087803b15801561066e57600080fd5b505af1158015610682573d6000803e3d6000fd5b5050600254609c80546001600160a01b0390921693506340c10f19925090849081106106b0576106b061a9f9565b60009182526020909120015460405160e083901b6001600160e01b03191681526001600160a01b039091166004820152633b9aca006024820152604401600060405180830381600087803b15801561070757600080fd5b505af115801561071b573d6000803e3d6000fd5b505060405163ca669fa760e01b815230600482015260008051602061b6a2833981519152925063ca669fa79150602401600060405180830381600087803b15801561076557600080fd5b505af1158015610779573d6000803e3d6000fd5b5050600354609c80546001600160a01b0390921693506340c10f19925090849081106107a7576107a761a9f9565b60009182526020909120015460405160e083901b6001600160e01b03191681526001600160a01b0390911660048201526402540be4006024820152604401600060405180830381600087803b1580156107ff57600080fd5b505af1158015610813573d6000803e3d6000fd5b5050600190920191506104209050565b505b61014580549060006108368361aa25565b9190505550565b6000610848826163aa565b90506108543382616643565b60006108768860ff1660006001600580549050610871919061aa3e565b6180bd565b905060006005828154811061088d5761088d61a9f9565b60009182526020822001546040516370a0823160e01b81523360048201526001600160a01b039091169250610916906001600160601b038b1690839085906370a08231906024015b602060405180830381865afa1580156108f2573d6000803e3d6000fd5b505050506040513d601f19601f82011682018060405250810190610871919061aa57565b90506000881561094b576109366001600160601b038816600033316180bd565b9050809150871561094657600092505b61094f565b5060005b6021546040516311f9fbc960e21b81526001600160a01b03858116600483015260248201859052909116906347e7ef249083906044016000604051808303818588803b15801561099e57600080fd5b505af1935050505080156109b0575060015b15610a58576109bf338661810f565b336000908152610152602090815260408083206001600160a01b0387168452909152812080548492906109f390849061aa70565b9091555050336000908152610152602090815260408083206004546001600160a01b0316845290915281208054839290610a2e90849061aa70565b92505081905550610a58600160405180606001604052806021815260200161b6c260219139619bc7565b5050505050505050505050565b6000610a70896163aa565b9050610a7c3382616643565b610a8461a17a565b6040805161010081018252600080825260208201819052918101829052606081018290526080810182905260a0810182905260c0810182905260e0810191909152610ae08a60ff1660006001600980549050610871919061aa3e565b60208301819052600980549091908110610afc57610afc61a9f9565b60009182526020822001546001600160a01b0316606084018190528252600554610b319160ff8c16916108719060019061aa3e565b808352600580549091908110610b4957610b4961a9f9565b6000918252602080832091909101546001600160a01b03166080850181905290830181905260408084018b9052516370a0823160e01b8152336004820152610ba6926001600160601b038b169290916370a08231906024016108d5565b60c0830181905260608201526001600160601b0386166080820152605e54610bcf903a9061aa83565b610bdb9061271061aa70565b60a0820181905260e08084019190915285151560c08301528415801591830191909152610c1c57610c0f88600033316180bd565b60e0830181905260608201525b60275460e083810151604080516353e5b30160e11b815285516001600160a01b039081166004830152602087015181166024830152918601516044820152606086015160648201526080860151608482015260a086015160a482015260c0860151151560c482015292850151151560e48401529092169163a7cb6602916101040160206040518083038185885af193505050508015610cd8575060408051601f3d908101601f19168201909252610cd59181019061aa57565b60015b15610a5857610ce7338561810f565b6040805161016081018252338152602080820193845284516001600160a01b0390811683850190815291860151811660608085019182529487015160808086019182529588015160a08087019182529689015160c0808801918252978a015160e0808901918252988b01511515610100808a01918252998c015115156101208a0190815260006101408b0181815261014e805460018101825592529a5160099091027ff6b9841f3a4f9d14154818b957758d32cf64b7f1e8475d91fc07cf53e8da945a81018054928b166001600160a01b03199384161790559c517ff6b9841f3a4f9d14154818b957758d32cf64b7f1e8475d91fc07cf53e8da945b8e015598517ff6b9841f3a4f9d14154818b957758d32cf64b7f1e8475d91fc07cf53e8da945c8d018054918a16918b1691909117905595517ff6b9841f3a4f9d14154818b957758d32cf64b7f1e8475d91fc07cf53e8da945d8c0180549190981698169790971790955591517ff6b9841f3a4f9d14154818b957758d32cf64b7f1e8475d91fc07cf53e8da945e890155517ff6b9841f3a4f9d14154818b957758d32cf64b7f1e8475d91fc07cf53e8da945f880155517ff6b9841f3a4f9d14154818b957758d32cf64b7f1e8475d91fc07cf53e8da946087015590517ff6b9841f3a4f9d14154818b957758d32cf64b7f1e8475d91fc07cf53e8da946186015590517ff6b9841f3a4f9d14154818b957758d32cf64b7f1e8475d91fc07cf53e8da94629094018054915192511515620100000262ff00001993151590940261ff00199515159590951661ffff199092169190911793909317161790555050505050505050505050565b6000610f57876163aa565b9050610f633382616643565b610f6b61a1da565b6040805161010081018252600080825260208201819052918101829052606081018290526080810182905260a0810182905260c0810182905260e081019190915260d154610fc79060ff8816906000906108719060019061aa3e565b60e0830181905260d180549091908110610fe357610fe361a9f9565b600091825260208083209091015460c085018190528352891515908301528715156040830152605154611026916001600160601b0387169161087190606461aa70565b6101008301819052608082015260055461104e9060ff8816906000906108719060019061aa3e565b8083526005805490919081106110665761106661a9f9565b6000918252602080832091909101546001600160a01b0390811691850182815260a085019290925290516040516370a0823160e01b81523360048201526110c4936001600160601b038a1693909216906370a08231906024016108d5565b60a0830181905260c08201526063546110de903a9061aa83565b6110ea9061271061aa70565b60e082018190526060830152861561111f576111126001600160601b038616600033316180bd565b60c0820181905260608301525b60255460608381015160408051637431564760e01b815285516004820152602086015115156024820152908501511515604482015291840151151560648301526080840151608483015260a08401516001600160a01b0390811660a484015260c085015160c484015260e085015160e4840152909216916374315647916101040160206040518083038185885af1935050505080156111db575060408051601f3d908101601f191682019092526111d89181019061aa57565b60015b1561144b576111ea338561810f565b6040805161016081018252338152602080820193845284518284019081529085015115156060808401918252938601511515608080850191825294870151151560a08086019182529588015160c0808701918252968901516001600160a01b0390811660e0808901918252988b0151610100808a01918252998c01516101208a0190815260006101408b0181815261014b805460018101825592529a5160099091027f4dac0a3a1161310c041f6d439a045c9d48edc45fe1a47f95d65e60701a922bcf810180549287166001600160a01b03199384161790559c517f4dac0a3a1161310c041f6d439a045c9d48edc45fe1a47f95d65e60701a922bd08e015598517f4dac0a3a1161310c041f6d439a045c9d48edc45fe1a47f95d65e60701a922bd18d015596517f4dac0a3a1161310c041f6d439a045c9d48edc45fe1a47f95d65e60701a922bd28c018054975196511515620100000262ff000019971515909c0261ff00199215159290921661ffff1990981697909717179490941698909817909355517f4dac0a3a1161310c041f6d439a045c9d48edc45fe1a47f95d65e60701a922bd388015594517f4dac0a3a1161310c041f6d439a045c9d48edc45fe1a47f95d65e60701a922bd4870180549190921693169290921790915591517f4dac0a3a1161310c041f6d439a045c9d48edc45fe1a47f95d65e60701a922bd584015590517f4dac0a3a1161310c041f6d439a045c9d48edc45fe1a47f95d65e60701a922bd6830155517f4dac0a3a1161310c041f6d439a045c9d48edc45fe1a47f95d65e60701a922bd7909101805491151560ff19929092169190911790555b505050505050505050565b6000611461826163aa565b905061146b61a232565b60008060005b61014b548110156116b55761014b8054829081106114915761149161a9f9565b60009182526020918290206040805161016081018252600990930290910180546001600160a01b039081168085526001830154958501869052600283015493850193909352600382015460ff80821615156060870152610100808304821615156080880152620100009092048116151560a0870152600484015460c0870152600584015490921660e08601526006830154908501526007820154610120850152600890910154161515610140830152909550935091506115518386616643565b8361014001516116ad57603b5460405163ca669fa760e01b81526001600160a01b03909116600482015260008051602061b6a28339815191529063ca669fa790602401600060405180830381600087803b1580156115ae57600080fd5b505af11580156115c2573d6000803e3d6000fd5b505060255460405163cb5c8d8160e01b81526001600160a01b03909116925063cb5c8d8191506115f8908590899060040161ab02565b600060405180830381600087803b15801561161257600080fd5b505af1925050508015611623575060015b61166757600161014660050182815481106116405761164061a9f9565b60009182526020909120600990910201600801805460ff19169115159190911790556116ad565b611671838661810f565b6001610146600501828154811061168a5761168a61a9f9565b60009182526020909120600990910201600801805460ff19169115159190911790555b600101611471565b5060005b61014b548110156118d35761014b8054829081106116d9576116d961a9f9565b600091825260209091206008600990920201015460ff16156118c15761014b80546117069060019061aa3e565b815481106117165761171661a9f9565b9060005260206000209060090201610146600501828154811061173b5761173b61a9f9565b60009182526020909120825460099092020180546001600160a01b03199081166001600160a01b03938416178255600180850154908301556002808501549083015560038085018054918401805460ff938416151560ff1980831682178455845461010090819004871615150261ff001990921661ffff19909316929092171780835592546201000090819004851615150262ff00001990931692909217905560048087015490850155600580870154908501805490941695169490941790915560068085015490830155600780850154908301556008938401549390910180549390911615159290911691909117905561014b80548061183e5761183e61ab23565b60008281526020812060096000199093019283020180546001600160a01b03199081168255600182018390556002820183905560038201805462ffffff19169055600482018390556005820180549091169055600681018290556007810191909155600801805460ff19169055905580156118c157806118bd8161ab39565b9150505b806118cb8161aa25565b9150506116b9565b505050505050565b60006118e6866163aa565b90506118f23382616643565b6118fa61a1da565b6040805160c081018252600080825260208201819052918101829052606081018290526080810182905260a081019190915260d0546119479060ff8716906000906108719060019061aa3e565b6080830181905260d0805490919081106119635761196361a9f9565b6000918252602080832090910154835288151590830152861515604083015260055461199a9160ff8816916108719060019061aa3e565b8083526005805490919081106119b2576119b261a9f9565b6000918252602080832091909101546001600160a01b03908116918501828152606085019290925290516040516370a0823160e01b8152336004820152611a10936001600160601b03891693909216906370a08231906024016108d5565b604083018190526080820152606254611a2a903a9061aa83565b611a369061271061aa70565b60a0820181905260608301528515611a6b57611a5e6001600160601b038516600033316180bd565b6080820181905260608301525b6025546060838101516040805163fe1b724560e01b8152855160048201526020860151151560248201529085015115156044820152918401516001600160a01b0390811660648401526080850151608484015260a085015160a48401529092169163fe1b72459160c40160206040518083038185885af193505050508015611b10575060408051601f3d908101601f19168201909252611b0d9181019061aa57565b60015b15611ce257611b1f338561810f565b6040805161010080820183523382526020808301948552608087810151848601908152918701511515606085019081529487015115158185019081529087015160a080860191825288015160c08601908152600060e0870181815261014a8054600181018255925296517f2ba9afe0c31d8566f9bcc0fe430c62a86995c53c391311d53a1bcae862cae495600790920291820180546001600160a01b0319166001600160a01b0390921691909117905597517f2ba9afe0c31d8566f9bcc0fe430c62a86995c53c391311d53a1bcae862cae49689015592517f2ba9afe0c31d8566f9bcc0fe430c62a86995c53c391311d53a1bcae862cae49788015594517f2ba9afe0c31d8566f9bcc0fe430c62a86995c53c391311d53a1bcae862cae49887018054925161ffff1990931691151561ff001916919091179115159093021790915591517f2ba9afe0c31d8566f9bcc0fe430c62a86995c53c391311d53a1bcae862cae49984015590517f2ba9afe0c31d8566f9bcc0fe430c62a86995c53c391311d53a1bcae862cae49a830155517f2ba9afe0c31d8566f9bcc0fe430c62a86995c53c391311d53a1bcae862cae49b909101805460ff19169115159190911790555b5050505050505050565b6000611cf7826163aa565b9050611d0161a232565b60008060005b61014e54811015611f535761014e805482908110611d2757611d2761a9f9565b60009182526020918290206040805161016081018252600990930290910180546001600160a01b0390811680855260018301549585018690526002830154821693850193909352600382015416606084015260048101546080840152600581015460a0840152600681015460c0840152600781015460e08401526008015460ff8082161515610100808601919091528204811615156101208501526201000090910416151561014083015290955093509150611de38386616643565b836101400151611f4b57603b5460405163ca669fa760e01b81526001600160a01b03909116600482015260008051602061b6a28339815191529063ca669fa790602401600060405180830381600087803b158015611e4057600080fd5b505af1158015611e54573d6000803e3d6000fd5b5050602754604051631822508960e01b81526001600160a01b03909116925063182250899150611e8a908590899060040161ab02565b600060405180830381600087803b158015611ea457600080fd5b505af1925050508015611eb5575060015b611eff5760016101466008018281548110611ed257611ed261a9f9565b906000526020600020906009020160080160026101000a81548160ff021916908315150217905550611f4b565b611f09838661810f565b60016101466008018281548110611f2257611f2261a9f9565b906000526020600020906009020160080160026101000a81548160ff0219169083151502179055505b600101611d07565b5060005b61014e548110156118d35761014e805482908110611f7757611f7761a9f9565b906000526020600020906009020160080160029054906101000a900460ff161561215f5761014e8054611fac9060019061aa3e565b81548110611fbc57611fbc61a9f9565b90600052602060002090600902016101466008018281548110611fe157611fe161a9f9565b60009182526020909120825460099092020180546001600160a01b03199081166001600160a01b0393841617825560018085015490830155600280850154908301805483169185169190911790556003808501549083018054909216931692909217909155600480830154908201556005808301549082015560068083015490820155600780830154908201556008918201805492909101805460ff938416151560ff19821681178355835461010090819004861615150261ff001990911661ffff19909216919091171780825591546201000090819004909316151590920262ff00001990911617905561014e8054806120de576120de61ab23565b60008281526020812060096000199093019283020180546001600160a01b03199081168255600182018390556002820180548216905560038201805490911690556004810182905560058101829055600681018290556007810191909155600801805462ffffff191690559055801561215f578061215b8161ab39565b9150505b806121698161aa25565b915050611f57565b600061217c826163aa565b90506121883382616643565b6101505460009081805b828110156121e0576101508054829081106121af576121af61a9f9565b600091825260209091206007600890920201015460ff166121d857816121d48161aa25565b9250505b600101612192565b506000816001600160401b038111156121fb576121fb61ab50565b60405190808252806020026020018201604052801561223457816020015b61222161a28e565b8152602001906001900390816122195790505b5090506000805b84811015612340576101508054829081106122585761225861a9f9565b600091825260209091206007600890920201015460ff16612338576101508054829081106122885761228861a9f9565b60009182526020918290206040805161010081018252600890930290910180546001600160a01b03908116845260018201549484019490945260028101548416918301919091526003810154909216606082015260048201546080820152600582015460a0820152600682015460c082015260079091015460ff16151560e0820152835184908490811061231e5761231e61a9f9565b602002602001018190525081806123349061aa25565b9250505b60010161223b565b50600061235a8960ff16600060018651610871919061aa3e565b905060008382815181106123705761237061a9f9565b60209081029190910181015190810151603b5460405163ca669fa760e01b81526001600160a01b03909116600482015290985090915060008051602061b6a28339815191529063ca669fa790602401600060405180830381600087803b1580156123d957600080fd5b505af11580156123ed573d6000803e3d6000fd5b50506027546040516313a86f7b60e31b8152600481018b9052600060248201526001600160a01b039091169250639d437bd89150604401600060405180830381600087803b15801561243e57600080fd5b505af192505050801561244f575060015b156126c75761245e338961810f565b604080516101008101825282516001600160a01b039081168252602082018a8152848401518216938301938452606080860151831690840190815260808087015190850190815260a08088015190860190815260c080890151908701908152600060e088018181526101518054600181018255908352895160089091027f834e5f3e6ef6f80ec8f884a35f7b14614da215295403590ab61f6becb28533da81018054928b166001600160a01b031993841617905597517f834e5f3e6ef6f80ec8f884a35f7b14614da215295403590ab61f6becb28533db89015599517f834e5f3e6ef6f80ec8f884a35f7b14614da215295403590ab61f6becb28533dc88018054918a16918c1691909117905594517f834e5f3e6ef6f80ec8f884a35f7b14614da215295403590ab61f6becb28533dd870180549190981699169890981790955590517f834e5f3e6ef6f80ec8f884a35f7b14614da215295403590ab61f6becb28533de840155517f834e5f3e6ef6f80ec8f884a35f7b14614da215295403590ab61f6becb28533df83015591517f834e5f3e6ef6f80ec8f884a35f7b14614da215295403590ab61f6becb28533e082015590517f834e5f3e6ef6f80ec8f884a35f7b14614da215295403590ab61f6becb28533e1909101805491151560ff19909216919091179055905b878110156126c45788610146600a0182815481106126695761266961a9f9565b906000526020600020906008020160010154036126bc576001610146600a0182815481106126995761269961a9f9565b60009182526020909120600890910201600701805460ff19169115159190911790555b600101612649565b50505b50505050505050505050565b60006126de826163aa565b90506126ea3382616643565b6101485460009081805b82811015612742576101488054829081106127115761271161a9f9565b600091825260209091206005600690920201015460ff1661273a57816127368161aa25565b9250505b6001016126f4565b506000816001600160401b0381111561275d5761275d61ab50565b60405190808252806020026020018201604052801561279657816020015b61278361a2f0565b81526020019060019003908161277b5790505b5090506000805b8481101561289c576101488054829081106127ba576127ba61a9f9565b600091825260209091206005600690920201015460ff16612894576101488054829081106127ea576127ea61a9f9565b60009182526020918290206040805160e081018252600690930290910180546001600160a01b039081168452600182015494840194909452600281015460ff8082161515938501939093526101009004909316606083015260038301546080830152600483015460a0830152600590920154909116151560c0820152835184908490811061287a5761287a61a9f9565b602002602001018190525081806128909061aa25565b9250505b60010161279d565b5060006128b68960ff16600060018651610871919061aa3e565b905060008382815181106128cc576128cc61a9f9565b60209081029190910181015190810151603b5460405163ca669fa760e01b81526001600160a01b03909116600482015290985090915060008051602061b6a28339815191529063ca669fa790602401600060405180830381600087803b15801561293557600080fd5b505af1158015612949573d6000803e3d6000fd5b5050602480546040516305b47d8160e51b8152600481018c90526000928101929092526001600160a01b0316925063b68fb0209150604401600060405180830381600087803b15801561299b57600080fd5b505af19250505080156129ac575060015b156126c7576129bb338961810f565b6040805160e08101825282516001600160a01b039081168252602082018a8152848401511515938301938452606080860151831690840190815260808087015190850190815260a080880151908601908152600060c08701818152610149805460018101825590835288517fb4394d51a8fea873247ece8dc0aa68cd57a6580a5791e1066b471c3adcfad87c600690920291820180546001600160a01b031916918a1691909117905595517fb4394d51a8fea873247ece8dc0aa68cd57a6580a5791e1066b471c3adcfad87d87015597517fb4394d51a8fea873247ece8dc0aa68cd57a6580a5791e1066b471c3adcfad87e8601805495516001600160a81b0319909616911515610100600160a81b03191691909117610100959097169490940295909517909255517fb4394d51a8fea873247ece8dc0aa68cd57a6580a5791e1066b471c3adcfad87f830155517fb4394d51a8fea873247ece8dc0aa68cd57a6580a5791e1066b471c3adcfad88082015592517fb4394d51a8fea873247ece8dc0aa68cd57a6580a5791e1066b471c3adcfad881909301805460ff191693151593909317909255905b878110156126c457886101466002018281548110612b8557612b8561a9f9565b90600052602060002090600602016001015403612bd85760016101466002018281548110612bb557612bb561a9f9565b60009182526020909120600690910201600501805460ff19169115159190911790555b600101612b65565b6000612beb826163aa565b9050612c1e6040805160a08101825260008082526020820181905291810182905260608101829052608081019190915290565b60008060008060005b61014654811015612e5e57610146805482908110612c4757612c4761a9f9565b60009182526020918290206040805160a081018252600590930290910180546001600160a01b039081168085526001830154958501869052600283015490911692840183905260038201546060850181905260049092015460ff16151560808501529299509197509195509093509150612cc18588616643565b8560800151612e5657603b5460405163ca669fa760e01b81526001600160a01b03909116600482015260008051602061b6a28339815191529063ca669fa790602401600060405180830381600087803b158015612d1d57600080fd5b505af1158015612d31573d6000803e3d6000fd5b50506021546040516302e9d19960e01b81526001600160a01b0390911692506302e9d1999150612d679087908b9060040161ab02565b600060405180830381600087803b158015612d8157600080fd5b505af1925050508015612d92575060015b612dd65760016101466000018281548110612daf57612daf61a9f9565b60009182526020909120600590910201600401805460ff1916911515919091179055612e56565b612de0858861810f565b60016101466000018281548110612df957612df961a9f9565b60009182526020808320600592909202909101600401805460ff1916931515939093179092556001600160a01b03878116825261015383526040808320918716835292529081208054849290612e5090849061aa70565b90915550505b600101612c27565b5060005b61014654811015611ce257610146805482908110612e8257612e8261a9f9565b600091825260209091206004600590920201015460ff1615612fc8576101468054612eaf9060019061aa3e565b81548110612ebf57612ebf61a9f9565b90600052602060002090600502016101466000018281548110612ee457612ee461a9f9565b60009182526020909120825460059092020180546001600160a01b039283166001600160a01b031991821617825560018085015490830155600280850154908301805491909416911617909155600380830154908201556004918201549101805460ff191660ff9092161515919091179055610146805480612f6857612f6861ab23565b60008281526020812060056000199093019283020180546001600160a01b031990811682556001820183905560028201805490911690556003810191909155600401805460ff1916905590558015612fc85780612fc48161ab39565b9150505b80612fd28161aa25565b915050612e62565b6000612fe5826163aa565b9050612ff13382616643565b61014e5460009081805b828110156130515761014e8054829081106130185761301861a9f9565b906000526020600020906009020160080160029054906101000a900460ff1661304957816130458161aa25565b9250505b600101612ffb565b506000816001600160401b0381111561306c5761306c61ab50565b6040519080825280602002602001820160405280156130a557816020015b61309261a232565b81526020019060019003908161308a5790505b5090506000805b848110156131e65761014e8054829081106130c9576130c961a9f9565b906000526020600020906009020160080160029054906101000a900460ff166131de5761014e8054829081106131015761310161a9f9565b60009182526020918290206040805161016081018252600990930290910180546001600160a01b03908116845260018201549484019490945260028101548416918301919091526003810154909216606082015260048201546080820152600582015460a0820152600682015460c0820152600782015460e082015260089091015460ff8082161515610100808501919091528204811615156101208401526201000090910416151561014082015283518490849081106131c4576131c461a9f9565b602002602001018190525081806131da9061aa25565b9250505b6001016130ac565b5060006132008960ff16600060018651610871919061aa3e565b905060008382815181106132165761321661a9f9565b60209081029190910181015190810151603b5460405163ca669fa760e01b81526001600160a01b03909116600482015290985090915060008051602061b6a28339815191529063ca669fa790602401600060405180830381600087803b15801561327f57600080fd5b505af1158015613293573d6000803e3d6000fd5b5050602754604051630edbe45160e21b8152600481018b9052600060248201526001600160a01b039091169250633b6f91449150604401600060405180830381600087803b1580156132e457600080fd5b505af19250505080156132f5575060015b156126c757613304338961810f565b600060405180610160016040528083600001516001600160a01b0316815260200189815260200183604001516001600160a01b0316815260200183606001516001600160a01b03168152602001836080015181526020018360a0015181526020018360c0015181526020018360e001518152602001836101000151151581526020018361012001511515815260200160001515815250905061014660090181908060018154018082558091505060019003906000526020600020906009020160009091909190915060008201518160000160006101000a8154816001600160a01b0302191690836001600160a01b031602179055506020820151816001015560408201518160020160006101000a8154816001600160a01b0302191690836001600160a01b0316021790555060608201518160030160006101000a8154816001600160a01b0302191690836001600160a01b031602179055506080820151816004015560a0820151816005015560c0820151816006015560e082015181600701556101008201518160080160006101000a81548160ff0219169083151502179055506101208201518160080160016101000a81548160ff0219169083151502179055506101408201518160080160026101000a81548160ff021916908315150217905550505060005b878110156126c45788610146600801828154811061350d5761350d61a9f9565b90600052602060002090600902016001015403613566576001610146600801828154811061353d5761353d61a9f9565b906000526020600020906009020160080160026101000a81548160ff0219169083151502179055505b6001016134ed565b60006135798d6163aa565b90506135853382616643565b61358d61a32c565b61359561a38f565b8d151560208201528c151560408201526135b560ff8d16600060026180bd565b8083526000036135e1576060810160005b908160028111156135d9576135d961ab66565b9052506135fd565b81516001036135f5576060810160016135c6565b600260608201525b600061360f8c60ff16600060026180bd565b90508060000361363b576080820160005b908160028111156136335761363361ab66565b905250613656565b8060010361364e57608082016001613620565b600260808301525b6136668b60ff16600060036180bd565b602084018190526000036136965760a0820160005b9081600381111561368e5761368e61ab66565b9052506136cc565b82602001516001036136ad5760a08201600161367b565b82602001516002036136c45760a08201600261367b565b600360a08301525b6136dc8a60ff16600060026180bd565b6040840181905260000361370c5760c0820160005b908160028111156137045761370461ab66565b90525061372b565b82604001516001036137235760c0820160016136f1565b600260c08301525b61373b8960ff16600060026180bd565b606084018190526005805490919081106137575761375761a9f9565b6000918252602090912001546001600160a01b039081166080850181905260e08401819052600154909116900361379257604f5482526137bc565b60025460e08301516001600160a01b039182169116036137b65760505482526137bc565b604f5482525b60005b8451811015613872578260e001516001600160a01b03168582815181106137e8576137e861a9f9565b6020026020010151600001516001600160a01b03160361386a57613863866001600160401b031660058784815181106138235761382361a9f9565b602002602001015160600151613839919061ab7c565b87848151811061384b5761384b61a9f9565b602002602001015160600151600a610871919061aa83565b6101608401525b6001016137bf565b5061016082015161018083015260808301516040516370a0823160e01b81523360048201526138c1916001600160601b038a16916000916001600160a01b0316906370a08231906024016108d5565b60a08401526138dc6001600160601b038816600033316180bd565b60c084015260a083015161012083015260f15460ed5460e954613926926001600160601b038c1692600092613911919061aa70565b61391b919061aa70565b61087190606461aa83565b61010083015260515461394c906001600160601b0388169060009061087190600261aa83565b610140830152606054613960903a9061aa83565b61396c9061271061aa70565b6101a08301819052426101c084015260e084015260408201511561399d5760c083015160e084018190526101208301525b60245460e08401516040516325829b0560e11b81526001600160a01b0390921691634b05360a91906139d390869060040161ac95565b60206040518083038185885af193505050508015613a0e575060408051601f3d908101601f19168201909252613a0b9181019061aa57565b60015b15613bbf57613a1d338661810f565b6040805160e08082018352338252602082019384528583015115159282019283528501516001600160a01b0390811660608301908152610120870151608084019081526101a088015160a08501908152600060c086018181526101488054600181018255925295517f7a50c3d81288238285bbaadf84d728a4976c46bede194d92254f452d5b16bf6f600690920291820180546001600160a01b03191691871691909117905596517f7a50c3d81288238285bbaadf84d728a4976c46bede194d92254f452d5b16bf7088015594517f7a50c3d81288238285bbaadf84d728a4976c46bede194d92254f452d5b16bf718701805493516001600160a81b0319909416911515610100600160a81b03191691909117929093166101000291909117909155517f7a50c3d81288238285bbaadf84d728a4976c46bede194d92254f452d5b16bf7284015590517f7a50c3d81288238285bbaadf84d728a4976c46bede194d92254f452d5b16bf73830155517f7a50c3d81288238285bbaadf84d728a4976c46bede194d92254f452d5b16bf74909101805460ff19169115159190911790555b50505050505050505050505050505050565b6000613bdc826163aa565b905060005b609c54811015613c7157613c1c609c8281548110613c0157613c0161a9f9565b6000918252602090912001546001600160a01b031683616643565b60005b60d054811015613c685760d08054610154919083908110613c4257613c4261a9f9565b600091825260208083209091015483546001818101865594845291909220015501613c1f565b50600101613be1565b50610154546000906001600160401b03811115613c9057613c9061ab50565b604051908082528060200260200182016040528015613cb9578160200160208202803683370190505b50905060005b61015454811015613d0f57610154805482908110613cdf57613cdf61a9f9565b9060005260206000200154828281518110613cfc57613cfc61a9f9565b6020908102919091010152600101613cbf565b506040805160008152602081019182905251613d2e916101549161a40e565b50603b5460405163ca669fa760e01b81526001600160a01b03909116600482015260008051602061b6a28339815191529063ca669fa790602401600060405180830381600087803b158015613d8257600080fd5b505af1158015613d96573d6000803e3d6000fd5b505060255460405163027edeab60e21b81526001600160a01b0390911692506309fb7aac9150613dca90849060040161aca4565b600060405180830381600087803b158015613de457600080fd5b505af1925050508015613df5575060015b15613e0457613e04338361810f565b505050565b6000613e14826163aa565b9050613e203382616643565b61014a5460009081805b82811015613e785761014a805482908110613e4757613e4761a9f9565b600091825260209091206006600790920201015460ff16613e705781613e6c8161aa25565b9250505b600101613e2a565b506000816001600160401b03811115613e9357613e9361ab50565b604051908082528060200260200182016040528015613ecc57816020015b613eb961a459565b815260200190600190039081613eb15790505b5090506000805b84811015613fd65761014a805482908110613ef057613ef061a9f9565b600091825260209091206006600790920201015460ff16613fce5761014a805482908110613f2057613f2061a9f9565b6000918252602091829020604080516101008082018352600790940290920180546001600160a01b03168352600181015494830194909452600284015490820152600383015460ff80821615156060840152929004821615156080820152600483015460a0820152600583015460c082015260069092015416151560e08201528351849084908110613fb457613fb461a9f9565b60200260200101819052508180613fca9061aa25565b9250505b600101613ed3565b506000613ff08960ff16600060018651610871919061aa3e565b905060008382815181106140065761400661a9f9565b60209081029190910181015190810151603b5460405163ca669fa760e01b81526001600160a01b03909116600482015290985090915060008051602061b6a28339815191529063ca669fa790602401600060405180830381600087803b15801561406f57600080fd5b505af1158015614083573d6000803e3d6000fd5b505060255460405163e606789b60e01b8152600481018b9052600060248201526001600160a01b03909116925063e606789b9150604401600060405180830381600087803b1580156140d457600080fd5b505af19250505080156140e5575060015b156126c7576140f4338961810f565b60408051610100808201835283516001600160a01b039081168352602083018b8152858501519484019485526060808701511515908501908152608080880151151590860190815260a08089015190870190815260c0808a0151908801908152600060e0890181815261014c80546001810182559083528a517fe6e425e9aa7f02f99491bf67283fcebb2b88524dec94ae4dcc59e1b4a2bd7baf600790920291820180546001600160a01b03191691909a161790985595517fe6e425e9aa7f02f99491bf67283fcebb2b88524dec94ae4dcc59e1b4a2bd7bb088015598517fe6e425e9aa7f02f99491bf67283fcebb2b88524dec94ae4dcc59e1b4a2bd7bb187015592517fe6e425e9aa7f02f99491bf67283fcebb2b88524dec94ae4dcc59e1b4a2bd7bb286018054935161ffff1990941691151561ff001916919091179215159096029190911790945592517fe6e425e9aa7f02f99491bf67283fcebb2b88524dec94ae4dcc59e1b4a2bd7bb383015591517fe6e425e9aa7f02f99491bf67283fcebb2b88524dec94ae4dcc59e1b4a2bd7bb482015590517fe6e425e9aa7f02f99491bf67283fcebb2b88524dec94ae4dcc59e1b4a2bd7bb5909101805460ff1916911515919091179055905b878110156126c4578861014660040182815481106142e2576142e261a9f9565b9060005260206000209060070201600101540361433557600161014660040182815481106143125761431261a9f9565b60009182526020909120600790910201600601805460ff19169115159190911790555b6001016142c2565b6000614348876163aa565b90506143543382616643565b61435c61a17a565b6040805160c081018252600060208201819052918101829052606081018290526080810182905260a0810182905233815260095490916143a89160ff8b1691906108719060019061aa3e565b602083018190526009805490919081106143c4576143c461a9f9565b60009182526020808320909101546001600160a01b031660608501819052908301526005546143fe9160ff8a16916108719060019061aa3e565b6040830181905260058054909190811061441a5761441a61a9f9565b6000918252602080832091909101546001600160a01b0390811660a086018190526040858101919091529184015191516370a0823160e01b815233600482015261447b936001600160601b038a1693909216906370a08231906024016108d5565b60608201526001600160601b0384166080820152605f5461449d903a9061aa83565b6144a99061271061aa70565b60a0820181815260e084018290526027546040805163545b6c5560e11b815285516001600160a01b03908116600483015260208701518116602483015291860151821660448201526060860151606482015260808601516084820152925160a4840152169163a8b6d8aa9160c40160206040518083038185885af193505050508015614552575060408051601f3d908101601f1916820190925261454f9181019061aa57565b60015b1561144b57614561338561810f565b604080516101008101825233815260208082019384528401516001600160a01b039081168284019081529285015181166060808401918252860151608080850191825287015160a080860191825288015160c08601908152600060e0870181815261015080546001810182559252965160089091027f5054acd869d4bfa8dc037facdceb62e7aa6d5642cbde5030c9dd37e350721c46810180549288166001600160a01b031993841617905598517f5054acd869d4bfa8dc037facdceb62e7aa6d5642cbde5030c9dd37e350721c478a015596517f5054acd869d4bfa8dc037facdceb62e7aa6d5642cbde5030c9dd37e350721c488901805491871691891691909117905592517f5054acd869d4bfa8dc037facdceb62e7aa6d5642cbde5030c9dd37e350721c49880180549190951696169590951790925590517f5054acd869d4bfa8dc037facdceb62e7aa6d5642cbde5030c9dd37e350721c4a85015591517f5054acd869d4bfa8dc037facdceb62e7aa6d5642cbde5030c9dd37e350721c4b84015590517f5054acd869d4bfa8dc037facdceb62e7aa6d5642cbde5030c9dd37e350721c4c830155517f5054acd869d4bfa8dc037facdceb62e7aa6d5642cbde5030c9dd37e350721c4d909101805491151560ff19909216919091179055505050505050505050565b6000614758826163aa565b905061476261a2f0565b60008060005b61014854811015614978576101488054829081106147885761478861a9f9565b60009182526020918290206040805160e081018252600690930290910180546001600160a01b039081168085526001830154958501869052600283015460ff8082161515958701959095526101009004909116606085015260038201546080850152600482015460a0850152600590910154909116151560c0830152909550935091506148158386616643565b8360c0015161497057603b5460405163ca669fa760e01b81526001600160a01b03909116600482015260008051602061b6a28339815191529063ca669fa790602401600060405180830381600087803b15801561487157600080fd5b505af1158015614885573d6000803e3d6000fd5b50506024546040516322dabfa560e01b81526001600160a01b0390911692506322dabfa591506148bb908590899060040161ab02565b600060405180830381600087803b1580156148d557600080fd5b505af19250505080156148e6575060015b61492a57600161014660020182815481106149035761490361a9f9565b60009182526020909120600690910201600501805460ff1916911515919091179055614970565b614934838661810f565b6001610146600201828154811061494d5761494d61a9f9565b60009182526020909120600690910201600501805460ff19169115159190911790555b600101614768565b5060005b610148548110156118d35761014880548290811061499c5761499c61a9f9565b600091825260209091206005600690920201015460ff1615614b2f5761014880546149c99060019061aa3e565b815481106149d9576149d961a9f9565b906000526020600020906006020161014660020182815481106149fe576149fe61a9f9565b60009182526020909120825460069092020180546001600160a01b0319166001600160a01b039283161781556001808401549082015560028084018054918301805460ff938416151560ff1980831682178455935461010090819004909716909602610100600160a81b03199096166001600160a81b03199091161794909417909355600380850154908301556004808501549083015560059384015493909101805493909116151592909116919091179055610148805480614ac357614ac361ab23565b60008281526020812060066000199093019283020180546001600160a01b0319168155600181018290556002810180546001600160a81b0319169055600381018290556004810191909155600501805460ff1916905590558015614b2f5780614b2b8161ab39565b9150505b80614b398161aa25565b91505061497c565b6000614b4c826163aa565b9050614b5661a459565b60008060005b61014a54811015614d725761014a805482908110614b7c57614b7c61a9f9565b6000918252602091829020604080516101008082018352600790940290920180546001600160a01b03168084526001820154958401869052600282015492840192909252600381015460ff80821615156060860152949004841615156080840152600481015460a0840152600581015460c084015260060154909216151560e0820152955093509150614c0f8386616643565b8360e00151614d6a57603b5460405163ca669fa760e01b81526001600160a01b03909116600482015260008051602061b6a28339815191529063ca669fa790602401600060405180830381600087803b158015614c6b57600080fd5b505af1158015614c7f573d6000803e3d6000fd5b5050602554604051630c46f97d60e21b81526001600160a01b03909116925063311be5f49150614cb5908590899060040161ab02565b600060405180830381600087803b158015614ccf57600080fd5b505af1925050508015614ce0575060015b614d245760016101466004018281548110614cfd57614cfd61a9f9565b60009182526020909120600790910201600601805460ff1916911515919091179055614d6a565b614d2e838661810f565b60016101466004018281548110614d4757614d4761a9f9565b60009182526020909120600790910201600601805460ff19169115159190911790555b600101614b5c565b5060005b61014a548110156118d35761014a805482908110614d9657614d9661a9f9565b600091825260209091206006600790920201015460ff1615614f2b5761014a8054614dc39060019061aa3e565b81548110614dd357614dd361a9f9565b90600052602060002090600702016101466004018281548110614df857614df861a9f9565b60009182526020909120825460079092020180546001600160a01b0319166001600160a01b03909216919091178155600180830154908201556002808301549082015560038083018054918301805460ff938416151560ff1980831682178455935461010090819004861615150261ff001990911661ffff199092169190911717905560048085015490840155600580850154908401556006938401549390920180549390911615159290911691909117905561014a805480614ebd57614ebd61ab23565b60008281526020812060076000199093019283020180546001600160a01b0319168155600181018290556002810182905560038101805461ffff19169055600481018290556005810191909155600601805460ff1916905590558015614f2b5780614f278161ab39565b9150505b80614f358161aa25565b915050614d76565b6000614f48826163aa565b9050614f5261a28e565b60008060005b6101505481101561516a57610150805482908110614f7857614f7861a9f9565b60009182526020918290206040805161010081018252600890930290910180546001600160a01b0390811680855260018301549585018690526002830154821693850193909352600382015416606084015260048101546080840152600581015460a0840152600681015460c08401526007015460ff16151560e0830152909550935091506150078386616643565b8360e0015161516257603b5460405163ca669fa760e01b81526001600160a01b03909116600482015260008051602061b6a28339815191529063ca669fa790602401600060405180830381600087803b15801561506357600080fd5b505af1158015615077573d6000803e3d6000fd5b5050602754604051631822508960e01b81526001600160a01b039091169250631822508991506150ad908590899060040161ab02565b600060405180830381600087803b1580156150c757600080fd5b505af19250505080156150d8575060015b61511c576001610146600a0182815481106150f5576150f561a9f9565b60009182526020909120600890910201600701805460ff1916911515919091179055615162565b615126838661810f565b6001610146600a01828154811061513f5761513f61a9f9565b60009182526020909120600890910201600701805460ff19169115159190911790555b600101614f58565b5060005b610150548110156118d35761015080548290811061518e5761518e61a9f9565b600091825260209091206007600890920201015460ff16156153175761015080546151bb9060019061aa3e565b815481106151cb576151cb61a9f9565b9060005260206000209060080201610146600a0182815481106151f0576151f061a9f9565b60009182526020909120825460089092020180546001600160a01b039283166001600160a01b03199182161782556001808501549083015560028085015490830180549185169183169190911790556003808501549083018054919094169116179091556004808301549082015560058083015490820155600680830154908201556007918201549101805460ff191660ff909216151591909117905561015080548061529f5761529f61ab23565b60008281526020812060086000199093019283020180546001600160a01b031990811682556001820183905560028201805482169055600382018054909116905560048101829055600581018290556006810191909155600701805460ff191690559055801561531757806153138161ab39565b9150505b806153218161aa25565b91505061516e565b6000615334826163aa565b90506153403382616643565b61014b5460009081805b828110156153985761014b8054829081106153675761536761a9f9565b600091825260209091206008600990920201015460ff16615390578161538c8161aa25565b9250505b60010161534a565b506000816001600160401b038111156153b3576153b361ab50565b6040519080825280602002602001820160405280156153ec57816020015b6153d961a232565b8152602001906001900390816153d15790505b5090506000805b848110156155255761014b8054829081106154105761541061a9f9565b600091825260209091206008600990920201015460ff1661551d5761014b8054829081106154405761544061a9f9565b60009182526020918290206040805161016081018252600990930290910180546001600160a01b039081168452600182015494840194909452600281015491830191909152600381015460ff80821615156060850152610100808304821615156080860152620100009092048116151560a0850152600483015460c0850152600583015490941660e0840152600682015490830152600781015461012083015260080154909116151561014082015283518490849081106155035761550361a9f9565b602002602001018190525081806155199061aa25565b9250505b6001016153f3565b50600061553f8960ff16600060018651610871919061aa3e565b905060008382815181106155555761555561a9f9565b60209081029190910181015190810151603b5460405163ca669fa760e01b81526001600160a01b03909116600482015290985090915060008051602061b6a28339815191529063ca669fa790602401600060405180830381600087803b1580156155be57600080fd5b505af11580156155d2573d6000803e3d6000fd5b50506025546040516359086dc960e01b8152600481018b9052600060248201526001600160a01b0390911692506359086dc99150604401600060405180830381600087803b15801561562357600080fd5b505af1925050508015615634575060015b156126c757615643338961810f565b604080516101608101825282516001600160a01b039081168252602082018a8152848401519383019384526060808601511515908401908152608080870151151590850190815260a080880151151590860190815260c08089015190870190815260e0808a01518716908801908152610100808b0151818a01908152610120808d0151908b0190815260006101408c0181815261014d80546001810182559083528d5160099091027fa565547f53e984e546736ad7ce3cb5577d162743258295919b944a77a226e45b81018054928f166001600160a01b03199384161790559b517fa565547f53e984e546736ad7ce3cb5577d162743258295919b944a77a226e45c8d01559d517fa565547f53e984e546736ad7ce3cb5577d162743258295919b944a77a226e45d8c015598517fa565547f53e984e546736ad7ce3cb5577d162743258295919b944a77a226e45e8b018054995198511515620100000262ff00001999151590960261ff00199215159290921661ffff19909a169990991717969096169290921790955591517fa565547f53e984e546736ad7ce3cb5577d162743258295919b944a77a226e45f870155517fa565547f53e984e546736ad7ce3cb5577d162743258295919b944a77a226e4608601805491909716981697909717909455517fa565547f53e984e546736ad7ce3cb5577d162743258295919b944a77a226e46183015593517fa565547f53e984e546736ad7ce3cb5577d162743258295919b944a77a226e46282015592517fa565547f53e984e546736ad7ce3cb5577d162743258295919b944a77a226e463909301805493151560ff199490941693909317909255905b878110156126c4578861014660040182815481106158cc576158cc61a9f9565b9060005260206000209060070201600101540361591f57600161014660040182815481106158fc576158fc61a9f9565b60009182526020909120600790910201600601805460ff19169115159190911790555b6001016158ac565b6000615932826163aa565b905061593e3382616643565b600061595b8560ff1660006001600580549050610871919061aa3e565b90506000600582815481106159725761597261a9f9565b60009182526020822001546003546001600160a01b0391821693501682036159b5576159ae866001600160601b0316600060a1604801546180bd565b9050615a02565b6001546001600160a01b03908116908316036159e5576159ae866001600160601b0316600060a1604701546180bd565b6159ff866001600160601b0316600060a1604901546180bd565b90505b60215460405163750b5a1960e01b81526001600160a01b038481166004830152602482018490529091169063750b5a19906044016020604051808303816000875af1925050508015615a71575060408051601f3d908101601f19168201909252615a6e9181019061aa57565b60015b15615bb657615a80338661810f565b6040805160a081018252338152602081019283526001600160a01b038581169282019283526060820185815260006080840181815261014680546001810182559252935160059091027ff865fb3f06685bbcb5a1c6d69424d51a154206a5b27ad97bd5fbd9c0b2a0878a810180549285166001600160a01b031993841617905595517ff865fb3f06685bbcb5a1c6d69424d51a154206a5b27ad97bd5fbd9c0b2a0878b87015593517ff865fb3f06685bbcb5a1c6d69424d51a154206a5b27ad97bd5fbd9c0b2a0878c8601805491909316941693909317905590517ff865fb3f06685bbcb5a1c6d69424d51a154206a5b27ad97bd5fbd9c0b2a0878d830155517ff865fb3f06685bbcb5a1c6d69424d51a154206a5b27ad97bd5fbd9c0b2a0878e909101805491151560ff199092169190911790555b50505050505050565b6000615bca8a6163aa565b9050615bd63382616643565b6060615be061a32c565b615bf08b60ff16600160026180bd565b6101208201819052615c0990848c8c8c8c8c8c8c619c0f565b60e083018190526024546040516344f3a60560e11b81529294506001600160a01b0316916389e74c0a9190615c4290869060040161ace8565b60006040518083038185885af193505050508015615c8257506040513d6000823e601f3d908101601f19168201604052615c7f919081019061ae30565b60015b156126c457615c91338561810f565b615c9961a2f0565b60005b8251811015615eef576040518060e00160405280336001600160a01b03168152602001848381518110615cd157615cd161a9f9565b60200260200101518152602001868381518110615cf057615cf061a9f9565b60200260200101516040015115158152602001868381518110615d1557615d1561a9f9565b602002602001015160e001516001600160a01b03168152602001868381518110615d4157615d4161a9f9565b602002602001015161012001518152602001868381518110615d6557615d6561a9f9565b6020908102919091018101516101a001518252600091810182905261014880546001818101835591909352835160069093027f7a50c3d81288238285bbaadf84d728a4976c46bede194d92254f452d5b16bf6f810180546001600160a01b039586166001600160a01b0319909116179055918401517f7a50c3d81288238285bbaadf84d728a4976c46bede194d92254f452d5b16bf7083015560408401517f7a50c3d81288238285bbaadf84d728a4976c46bede194d92254f452d5b16bf7183018054606087015190951661010002610100600160a81b0319921515929092166001600160a81b0319909516949094171790925560808301517f7a50c3d81288238285bbaadf84d728a4976c46bede194d92254f452d5b16bf7282015560a08301517f7a50c3d81288238285bbaadf84d728a4976c46bede194d92254f452d5b16bf7382015560c08301517f7a50c3d81288238285bbaadf84d728a4976c46bede194d92254f452d5b16bf74909101805491151560ff199290921691909117905590925001615c9c565b505050505050505050505050505050565b6000615f0b826163aa565b9050615f173382616643565b6101465460009081805b82811015615f6f57610146805482908110615f3e57615f3e61a9f9565b600091825260209091206004600590920201015460ff16615f675781615f638161aa25565b9250505b600101615f21565b506000816001600160401b03811115615f8a57615f8a61ab50565b604051908082528060200260200182016040528015615fe357816020015b6040805160a081018252600080825260208083018290529282018190526060820181905260808201528252600019909201910181615fa85790505b5090506000805b848110156160cb576101468054829081106160075761600761a9f9565b600091825260209091206004600590920201015460ff166160c3576101468054829081106160375761603761a9f9565b60009182526020918290206040805160a081018252600590930290910180546001600160a01b0390811684526001820154948401949094526002810154909316908201526003820154606082015260049091015460ff161515608082015283518490849081106160a9576160a961a9f9565b602002602001018190525081806160bf9061aa25565b9250505b600101615fea565b5060006160e58960ff16600060018651610871919061aa3e565b905060008382815181106160fb576160fb61a9f9565b60209081029190910181015190810151603b5460405163ca669fa760e01b81526001600160a01b03909116600482015290985090915060008051602061b6a28339815191529063ca669fa790602401600060405180830381600087803b15801561616457600080fd5b505af1158015616178573d6000803e3d6000fd5b50506021546040516313874d3760e01b8152600481018b9052600060248201526001600160a01b0390911692506313874d379150604401600060405180830381600087803b1580156161c957600080fd5b505af19250505080156161da575060015b156126c7576161e9338961810f565b6040805160a08101825282516001600160a01b039081168252602082018a81528484015182169383019384526060808601519084019081526000608085018181526101478054600181018255908352865160059091027fbb86a7ed506e81a9d1256976cc219100dcdccee3e205f568f1691c23060fd0cd810180549288166001600160a01b031993841617905594517fbb86a7ed506e81a9d1256976cc219100dcdccee3e205f568f1691c23060fd0ce86015596517fbb86a7ed506e81a9d1256976cc219100dcdccee3e205f568f1691c23060fd0cf8501805491909616971696909617909355517fbb86a7ed506e81a9d1256976cc219100dcdccee3e205f568f1691c23060fd0d082015592517fbb86a7ed506e81a9d1256976cc219100dcdccee3e205f568f1691c23060fd0d1909301805493151560ff1990941693909317909255905b878110156126c45788610146600001828154811061634f5761634f61a9f9565b906000526020600020906005020160010154036163a2576001610146600001828154811061637f5761637f61a9f9565b60009182526020909120600590910201600401805460ff19169115159190911790555b60010161632f565b60608060006163bb6113888561aec5565b6163c79061038461aee6565b6163d99061ffff166305f5e10061af08565b63ffffffff16905060006163ef619c408661aec5565b6163fb90614e2061aee6565b61640d9061ffff166305f5e10061af08565b60055463ffffffff9190911691506305f5e100906001600160401b038111156164385761643861ab50565b60405190808252806020026020018201604052801561648a57816020015b6040805160808101825260008082526020808301829052928201819052606082015282526000199092019101816164565790505b50935060005b845181101561663857600581815481106164ac576164ac61a9f9565b9060005260206000200160009054906101000a90046001600160a01b03168582815181106164dc576164dc61a9f9565b60209081029190910101516001600160a01b03918216905260015460058054919092169190839081106165115761651161a9f9565b6000918252602090912001546001600160a01b031603616576578385828151811061653e5761653e61a9f9565b60200260200101516040018181525050838582815181106165615761656161a9f9565b60200260200101516060018181525050616630565b600254600580546001600160a01b0390921691839081106165995761659961a9f9565b6000918252602090912001546001600160a01b0316036165e957828582815181106165c6576165c661a9f9565b60200260200101516040018181525050828582815181106165615761656161a9f9565b818582815181106165fc576165fc61a9f9565b602002602001015160400181815250508185828151811061661f5761661f61a9f9565b602002602001015160600181815250505b600101616490565b509295945050505050565b602154604051630f6a21fd60e31b81526001600160a01b0384811660048301526000921690637b510fe890602401600060405180830381865afa15801561668e573d6000803e3d6000fd5b505050506040513d6000823e601f3d908101601f191682016040526166b6919081019061b0aa565b805160a180546001600160a01b0319166001600160a01b03909216919091179055905060005b8160200151518110156167f25760a1600a01826020015182815181106167045761670461a9f9565b60209081029190910181015151825460018101845560009384529282902090920191909155820151805160ac9190839081106167425761674261a9f9565b602090810291909101810151810151825460018101845560009384529282902090920191909155820151805160ad9190839081106167825761678261a9f9565b60209081029190910181015160400151825460018101845560009384529282902090920191909155820151805160ae9190839081106167c3576167c361a9f9565b6020908102919091018101516060015182546001818101855560009485529290932090920191909155016166dc565b506040810151805161680c9160a29160209091019061a4ad565b50606081015180516168269160a39160209091019061a40e565b50608081015160a45560a081015160a55560c081015160a65560e081015160a75561010081015160a85561012081015160a95561014081015160aa5560215460405163abac566560e01b81526000916001600160a01b03169063abac566590616895908790879060040161b1bb565b600060405180830381865afa1580156168b2573d6000803e3d6000fd5b505050506040513d6000823e601f3d908101601f191682016040526168da919081019061b0aa565b805160af80546001600160a01b0319166001600160a01b03909216919091179055905060005b826020015151811015616a165760a1601801836020015182815181106169285761692861a9f9565b60209081029190910181015151825460018101845560009384529282902090920191909155830151805160ba9190839081106169665761696661a9f9565b602090810291909101810151810151825460018101845560009384529282902090920191909155830151805160bb9190839081106169a6576169a661a9f9565b60209081029190910181015160400151825460018101845560009384529282902090920191909155830151805160bc9190839081106169e7576169e761a9f9565b602090810291909101810151606001518254600181810185556000948552929093209092019190915501616900565b5060408101518051616a309160b09160209091019061a4ad565b5060608101518051616a4a9160b19160209091019061a40e565b50608081015160b25560a081015160b35560c081015160b45560e081015160b55561010081015160b65561012081015160b75561014081015160b85560248054604051639508352760e01b81526001600160a01b03878116600483015260009392169163950835279101600060405180830381865afa158015616ad1573d6000803e3d6000fd5b505050506040513d6000823e601f3d908101601f19168201604052616af9919081019061b208565b905060005b81518110156170465760a1601c01828281518110616b1e57616b1e61a9f9565b6020908102919091018101515182546001810184556000938452919092200155815160be90839083908110616b5557616b5561a9f9565b60209081029190910181015181015181015182546001810184556000938452919092200155815160bf90839083908110616b9157616b9161a9f9565b60209081029190910181015181015160400151825460018101845560009384529282902091830490910180549192909160ff601f9092166101000a918202191690836002811115616be457616be461ab66565b021790555060a1601f01828281518110616c0057616c0061a9f9565b60209081029190910181015181015160600151825460018101845560009384529282902091830490910180549192909160ff601f9092166101000a918202191690836002811115616c5357616c5361ab66565b021790555060a1602001828281518110616c6f57616c6f61a9f9565b60209081029190910181015181015160800151825460018101845560009384529282902091830490910180549192909160ff601f9092166101000a918202191690836003811115616cc257616cc261ab66565b021790555060a1602101828281518110616cde57616cde61a9f9565b60209081029190910181015181015160a00151825460018101845560009384529282902091830490910180549192909160ff601f9092166101000a918202191690836002811115616d3157616d3161ab66565b021790555060a1602201828281518110616d4d57616d4d61a9f9565b60209081029190910181015181015160c001518254600181018455600093845292829020918304909101805460ff601f9094166101000a938402191691151592909202179055815160c490839083908110616daa57616daa61a9f9565b60209081029190910181015181015160e001518254600181018455600093845292829020918304909101805460ff601f9094166101000a938402191691151592909202179055815160c590839083908110616e0757616e0761a9f9565b602090810291909101810151810151610100015182546001810184556000938452919092200180546001600160a01b0319166001600160a01b03909216919091179055815160c690839083908110616e6157616e6161a9f9565b602090810291909101810151810151610120015182546001810184556000938452919092200155815160c790839083908110616e9f57616e9f61a9f9565b602090810291909101810151810151610140015182546001810184556000938452919092200155815160c890839083908110616edd57616edd61a9f9565b602090810291909101810151810151610160015182546001810184556000938452919092200155815160c990839083908110616f1b57616f1b61a9f9565b602090810291909101810151810151610180015182546001810184556000938452919092200155815160ca90839083908110616f5957616f5961a9f9565b6020908102919091018101518101516101a0015182546001810184556000938452919092200155815160cb90839083908110616f9757616f9761a9f9565b6020908102919091018101518101516101c0015182546001810184556000938452919092200155815160cc90839083908110616fd557616fd561a9f9565b6020908102919091018101518101516101e0015182546001810184556000938452919092200155815160cd908390839081106170135761701361a9f9565b60209081029190910181015181015161020001518254600181810185556000948552929093209092019190915501616afe565b5060255460405163fb11e96960e01b81526001600160a01b038781166004830152600092169063fb11e96990602401600060405180830381865afa158015617092573d6000803e3d6000fd5b505050506040513d6000823e601f3d908101601f191682016040526170ba919081019061b45a565b905060005b815181101561774b5760a1602d018282815181106170df576170df61a9f9565b60209081029190910181015181015182546001810184556000938452919092200155815160cf908390839081106171185761711861a9f9565b6020908102919091018101516040015182546001810184556000938452919092200155815160d0908390839081106171525761715261a9f9565b602090810291909101810151515182546001810184556000938452919092200155815160d19083908390811061718a5761718a61a9f9565b6020908102919091018101515181015182546001810184556000938452919092200155815160d2908390839081106171c4576171c461a9f9565b60209081029190910181015151604001518254600181018455600093845292829020918304909101805460ff601f9094166101000a938402191691151592909202179055815160d39083908390811061721f5761721f61a9f9565b60209081029190910181015151606001518254600181018455600093845292829020918304909101805460ff601f9094166101000a938402191691151592909202179055815160d49083908390811061727a5761727a61a9f9565b602090810291909101810151516080015182546001810184556000938452919092200180546001600160a01b0319166001600160a01b03909216919091179055815160d5908390839081106172d1576172d161a9f9565b6020908102919091018101515160a0015182546001810184556000938452919092200180546001600160a01b0319166001600160a01b03909216919091179055815160d6908390839081106173285761732861a9f9565b6020908102919091018101515160c0015182546001810184556000938452919092200180546001600160a01b0319166001600160a01b03909216919091179055815160d79083908390811061737f5761737f61a9f9565b6020908102919091018101515160e0015182546001810184556000938452919092200155815160d8908390839081106173ba576173ba61a9f9565b60209081029190910181015151610100015182546001810184556000938452919092200155815160d9908390839081106173f6576173f661a9f9565b60209081029190910181015151610120015182546001810184556000938452919092200155815160da908390839081106174325761743261a9f9565b60209081029190910181015151610140015182546001810184556000938452919092200155815160db9083908390811061746e5761746e61a9f9565b60209081029190910181015151610160015182546001810184556000938452919092200155815160dc908390839081106174aa576174aa61a9f9565b60209081029190910181015151610180015182546001810184556000938452919092200155815160dd908390839081106174e6576174e661a9f9565b602090810291909101810151516101a0015182546001810184556000938452919092200155815160de908390839081106175225761752261a9f9565b602090810291909101810151516101e0015182546001810184556000938452919092200155815160df9083908390811061755e5761755e61a9f9565b60209081029190910181015151610200015182546001810184556000938452919092200155815160e09083908390811061759a5761759a61a9f9565b602090810291909101810151516101c001515182546001810184556000938452919092200155815160e1908390839081106175d7576175d761a9f9565b602090810291909101810151516101c0015181015182546001810184556000938452919092200155815160e2908390839081106176165761761661a9f9565b602090810291909101810151516101c001516040015182546001810184556000938452919092200155815160e3908390839081106176565761765661a9f9565b602090810291909101810151516101c001516060015182546001810184556000938452919092200155815160e4908390839081106176965761769661a9f9565b602090810291909101810151516101c001516080015182546001810184556000938452919092200155815160e5908390839081106176d6576176d661a9f9565b602090810291909101810151516101c0015160a0015182546001810184556000938452919092200155815160e6908390839081106177165761771661a9f9565b602090810291909101810151516101c0015160c0015182546001818101855560009485529290932090920191909155016170bf565b50603060009054906101000a90046001600160a01b03166001600160a01b0316631f7592ea6040518163ffffffff1660e01b8152600401602060405180830381865afa15801561779f573d6000803e3d6000fd5b505050506040513d601f19601f820116820180604052508101906177c3919061b601565b6001600160a01b039081163160e75560015460305460408051630fbac97560e11b81529051928416936370a0823193921691631f7592ea916004808201926020929091908290030181865afa158015617820573d6000803e3d6000fd5b505050506040513d601f19601f82011682018060405250810190617844919061b601565b6040516001600160e01b031960e084901b1681526001600160a01b039091166004820152602401602060405180830381865afa158015617888573d6000803e3d6000fd5b505050506040513d601f19601f820116820180604052508101906178ac919061aa57565b60e85560035460305460408051630fbac97560e11b815290516001600160a01b03938416936370a08231931691631f7592ea9160048083019260209291908290030181865afa158015617903573d6000803e3d6000fd5b505050506040513d601f19601f82011682018060405250810190617927919061b601565b6040516001600160e01b031960e084901b1681526001600160a01b039091166004820152602401602060405180830381865afa15801561796b573d6000803e3d6000fd5b505050506040513d601f19601f8201168201806040525081019061798f919061aa57565b60e95560025460305460408051630fbac97560e11b815290516001600160a01b03938416936370a08231931691631f7592ea9160048083019260209291908290030181865afa1580156179e6573d6000803e3d6000fd5b505050506040513d601f19601f82011682018060405250810190617a0a919061b601565b6040516001600160e01b031960e084901b1681526001600160a01b039091166004820152602401602060405180830381865afa158015617a4e573d6000803e3d6000fd5b505050506040513d601f19601f82011682018060405250810190617a72919061aa57565b60ea5560305460408051634bf3dbf960e11b815290516001600160a01b03909216916397e7b7f2916004808201926020929091908290030181865afa158015617abf573d6000803e3d6000fd5b505050506040513d601f19601f82011682018060405250810190617ae3919061b601565b6001600160a01b039081163160eb5560015460305460408051634bf3dbf960e11b81529051928416936370a08231939216916397e7b7f2916004808201926020929091908290030181865afa158015617b40573d6000803e3d6000fd5b505050506040513d601f19601f82011682018060405250810190617b64919061b601565b6040516001600160e01b031960e084901b1681526001600160a01b039091166004820152602401602060405180830381865afa158015617ba8573d6000803e3d6000fd5b505050506040513d601f19601f82011682018060405250810190617bcc919061aa57565b60ec5560035460305460408051634bf3dbf960e11b815290516001600160a01b03938416936370a082319316916397e7b7f29160048083019260209291908290030181865afa158015617c23573d6000803e3d6000fd5b505050506040513d601f19601f82011682018060405250810190617c47919061b601565b6040516001600160e01b031960e084901b1681526001600160a01b039091166004820152602401602060405180830381865afa158015617c8b573d6000803e3d6000fd5b505050506040513d601f19601f82011682018060405250810190617caf919061aa57565b60ed5560025460305460408051634bf3dbf960e11b815290516001600160a01b03938416936370a082319316916397e7b7f29160048083019260209291908290030181865afa158015617d06573d6000803e3d6000fd5b505050506040513d601f19601f82011682018060405250810190617d2a919061b601565b6040516001600160e01b031960e084901b1681526001600160a01b039091166004820152602401602060405180830381865afa158015617d6e573d6000803e3d6000fd5b505050506040513d601f19601f82011682018060405250810190617d92919061aa57565b60ee55603054604080516308ba026f60e01b815290516001600160a01b03909216916308ba026f916004808201926020929091908290030181865afa158015617ddf573d6000803e3d6000fd5b505050506040513d601f19601f82011682018060405250810190617e03919061b601565b6001600160a01b039081163160ef55600154603054604080516308ba026f60e01b81529051928416936370a08231939216916308ba026f916004808201926020929091908290030181865afa158015617e60573d6000803e3d6000fd5b505050506040513d601f19601f82011682018060405250810190617e84919061b601565b6040516001600160e01b031960e084901b1681526001600160a01b039091166004820152602401602060405180830381865afa158015617ec8573d6000803e3d6000fd5b505050506040513d601f19601f82011682018060405250810190617eec919061aa57565b60f055600354603054604080516308ba026f60e01b815290516001600160a01b03938416936370a082319316916308ba026f9160048083019260209291908290030181865afa158015617f43573d6000803e3d6000fd5b505050506040513d601f19601f82011682018060405250810190617f67919061b601565b6040516001600160e01b031960e084901b1681526001600160a01b039091166004820152602401602060405180830381865afa158015617fab573d6000803e3d6000fd5b505050506040513d601f19601f82011682018060405250810190617fcf919061aa57565b60f155600254603054604080516308ba026f60e01b815290516001600160a01b03938416936370a082319316916308ba026f9160048083019260209291908290030181865afa158015618026573d6000803e3d6000fd5b505050506040513d601f19601f8201168201806040525081019061804a919061b601565b6040516001600160e01b031960e084901b1681526001600160a01b039091166004820152602401602060405180830381865afa15801561808e573d6000803e3d6000fd5b505050506040513d601f19601f820116820180604052508101906180b2919061aa57565b60f255505050505050565b6000828410806180cc57508184115b156181055760006180dd848461aa3e565b6180e890600161aa70565b6180f2908661a9e5565b6180fc908561aa70565b91506181089050565b50825b9392505050565b602154604051630f6a21fd60e31b81526001600160a01b0384811660048301526000921690637b510fe890602401600060405180830381865afa15801561815a573d6000803e3d6000fd5b505050506040513d6000823e601f3d908101601f19168201604052618182919081019061b0aa565b805160f380546001600160a01b0319166001600160a01b03909216919091179055905060005b8160200151518110156182bf5760f3600a01826020015182815181106181d0576181d061a9f9565b60209081029190910181015151825460018101845560009384529282902090920191909155820151805160fe91908390811061820e5761820e61a9f9565b602090810291909101810151810151825460018101845560009384529282902090920191909155820151805160ff91908390811061824e5761824e61a9f9565b6020908102919091018101516040015182546001810184556000938452928290209092019190915582015180516101009190839081106182905761829061a9f9565b6020908102919091018101516060015182546001818101855560009485529290932090920191909155016181a8565b50604081015180516182d99160f49160209091019061a4ad565b50606081015180516182f39160f59160209091019061a40e565b50608081015160f65560a081015160f75560c081015160f85560e081015160f95561010081015160fa5561012081015160fb5561014081015160fc5560215460405163abac566560e01b81526000916001600160a01b03169063abac566590618362908790879060040161b1bb565b600060405180830381865afa15801561837f573d6000803e3d6000fd5b505050506040513d6000823e601f3d908101601f191682016040526183a7919081019061b0aa565b805161010180546001600160a01b0319166001600160a01b03909216919091179055905060005b8260200151518110156184e75760f3601801836020015182815181106183f6576183f661a9f9565b60209081029190910181015151825460018101845560009384529282902090920191909155830151805161010c9190839081106184355761843561a9f9565b602090810291909101810151810151825460018101845560009384529282902090920191909155830151805161010d9190839081106184765761847661a9f9565b60209081029190910181015160400151825460018101845560009384529282902090920191909155830151805161010e9190839081106184b8576184b861a9f9565b6020908102919091018101516060015182546001818101855560009485529290932090920191909155016183ce565b5060408101518051618502916101029160209091019061a4ad565b506060810151805161851d916101039160209091019061a40e565b5060808101516101045560a08101516101055560c08101516101065560e081015161010755610100810151610108556101208101516101095561014081015161010a5560248054604051639508352760e01b81526001600160a01b03878116600483015260009392169163950835279101600060405180830381865afa1580156185ab573d6000803e3d6000fd5b505050506040513d6000823e601f3d908101601f191682016040526185d3919081019061b208565b905060005b8151811015618b2c5760f3601c018282815181106185f8576185f861a9f9565b60209081029190910181015151825460018101845560009384529190922001558151610110908390839081106186305761863061a9f9565b6020908102919091018101518101518101518254600181018455600093845291909220015581516101119083908390811061866d5761866d61a9f9565b60209081029190910181015181015160400151825460018101845560009384529282902091830490910180549192909160ff601f9092166101000a9182021916908360028111156186c0576186c061ab66565b021790555060f3601f018282815181106186dc576186dc61a9f9565b60209081029190910181015181015160600151825460018101845560009384529282902091830490910180549192909160ff601f9092166101000a91820219169083600281111561872f5761872f61ab66565b021790555060f360200182828151811061874b5761874b61a9f9565b60209081029190910181015181015160800151825460018101845560009384529282902091830490910180549192909160ff601f9092166101000a91820219169083600381111561879e5761879e61ab66565b021790555060f36021018282815181106187ba576187ba61a9f9565b60209081029190910181015181015160a00151825460018101845560009384529282902091830490910180549192909160ff601f9092166101000a91820219169083600281111561880d5761880d61ab66565b021790555060f36022018282815181106188295761882961a9f9565b60209081029190910181015181015160c001518254600181018455600093845292829020918304909101805460ff601f9094166101000a9384021916911515929092021790558151610116908390839081106188875761888761a9f9565b60209081029190910181015181015160e001518254600181018455600093845292829020918304909101805460ff601f9094166101000a9384021916911515929092021790558151610117908390839081106188e5576188e561a9f9565b602090810291909101810151810151610100015182546001810184556000938452919092200180546001600160a01b0319166001600160a01b039092169190911790558151610118908390839081106189405761894061a9f9565b60209081029190910181015181015161012001518254600181018455600093845291909220015581516101199083908390811061897f5761897f61a9f9565b602090810291909101810151810151610140015182546001810184556000938452919092200155815161011a908390839081106189be576189be61a9f9565b602090810291909101810151810151610160015182546001810184556000938452919092200155815161011b908390839081106189fd576189fd61a9f9565b602090810291909101810151810151610180015182546001810184556000938452919092200155815161011c90839083908110618a3c57618a3c61a9f9565b6020908102919091018101518101516101a0015182546001810184556000938452919092200155815161011d90839083908110618a7b57618a7b61a9f9565b6020908102919091018101518101516101c0015182546001810184556000938452919092200155815161011e90839083908110618aba57618aba61a9f9565b6020908102919091018101518101516101e0015182546001810184556000938452919092200155815161011f90839083908110618af957618af961a9f9565b602090810291909101810151810151610200015182546001818101855560009485529290932090920191909155016185d8565b5060255460405163fb11e96960e01b81526001600160a01b038781166004830152600092169063fb11e96990602401600060405180830381865afa158015618b78573d6000803e3d6000fd5b505050506040513d6000823e601f3d908101601f19168201604052618ba0919081019061b45a565b905060005b81518110156192495760f3602d01828281518110618bc557618bc561a9f9565b60209081029190910181015181015182546001810184556000938452919092200155815161012190839083908110618bff57618bff61a9f9565b6020908102919091018101516040015182546001810184556000938452919092200155815161012290839083908110618c3a57618c3a61a9f9565b602090810291909101810151515182546001810184556000938452919092200155815161012390839083908110618c7357618c7361a9f9565b6020908102919091018101515181015182546001810184556000938452919092200155815161012490839083908110618cae57618cae61a9f9565b60209081029190910181015151604001518254600181018455600093845292829020918304909101805460ff601f9094166101000a938402191691151592909202179055815161012590839083908110618d0a57618d0a61a9f9565b60209081029190910181015151606001518254600181018455600093845292829020918304909101805460ff601f9094166101000a938402191691151592909202179055815161012690839083908110618d6657618d6661a9f9565b602090810291909101810151516080015182546001810184556000938452919092200180546001600160a01b0319166001600160a01b03909216919091179055815161012790839083908110618dbe57618dbe61a9f9565b6020908102919091018101515160a0015182546001810184556000938452919092200180546001600160a01b0319166001600160a01b03909216919091179055815161012890839083908110618e1657618e1661a9f9565b6020908102919091018101515160c0015182546001810184556000938452919092200180546001600160a01b0319166001600160a01b03909216919091179055815161012990839083908110618e6e57618e6e61a9f9565b6020908102919091018101515160e0015182546001810184556000938452919092200155815161012a90839083908110618eaa57618eaa61a9f9565b60209081029190910181015151610100015182546001810184556000938452919092200155815161012b90839083908110618ee757618ee761a9f9565b60209081029190910181015151610120015182546001810184556000938452919092200155815161012c90839083908110618f2457618f2461a9f9565b60209081029190910181015151610140015182546001810184556000938452919092200155815161012d90839083908110618f6157618f6161a9f9565b60209081029190910181015151610160015182546001810184556000938452919092200155815161012e90839083908110618f9e57618f9e61a9f9565b60209081029190910181015151610180015182546001810184556000938452919092200155815161012f90839083908110618fdb57618fdb61a9f9565b602090810291909101810151516101a00151825460018101845560009384529190922001558151610130908390839081106190185761901861a9f9565b602090810291909101810151516101e00151825460018101845560009384529190922001558151610131908390839081106190555761905561a9f9565b602090810291909101810151516102000151825460018101845560009384529190922001558151610132908390839081106190925761909261a9f9565b602090810291909101810151516101c0015151825460018101845560009384529190922001558151610133908390839081106190d0576190d061a9f9565b602090810291909101810151516101c00151810151825460018101845560009384529190922001558151610134908390839081106191105761911061a9f9565b602090810291909101810151516101c0015160400151825460018101845560009384529190922001558151610135908390839081106191515761915161a9f9565b602090810291909101810151516101c0015160600151825460018101845560009384529190922001558151610136908390839081106191925761919261a9f9565b602090810291909101810151516101c0015160800151825460018101845560009384529190922001558151610137908390839081106191d3576191d361a9f9565b602090810291909101810151516101c0015160a00151825460018101845560009384529190922001558151610138908390839081106192145761921461a9f9565b602090810291909101810151516101c0015160c001518254600181810185556000948552929093209092019190915501618ba5565b50603060009054906101000a90046001600160a01b03166001600160a01b0316631f7592ea6040518163ffffffff1660e01b8152600401602060405180830381865afa15801561929d573d6000803e3d6000fd5b505050506040513d601f19601f820116820180604052508101906192c1919061b601565b6001600160a01b03908116316101395560015460305460408051630fbac97560e11b81529051928416936370a0823193921691631f7592ea916004808201926020929091908290030181865afa15801561931f573d6000803e3d6000fd5b505050506040513d601f19601f82011682018060405250810190619343919061b601565b6040516001600160e01b031960e084901b1681526001600160a01b039091166004820152602401602060405180830381865afa158015619387573d6000803e3d6000fd5b505050506040513d601f19601f820116820180604052508101906193ab919061aa57565b61013a5560035460305460408051630fbac97560e11b815290516001600160a01b03938416936370a08231931691631f7592ea9160048083019260209291908290030181865afa158015619403573d6000803e3d6000fd5b505050506040513d601f19601f82011682018060405250810190619427919061b601565b6040516001600160e01b031960e084901b1681526001600160a01b039091166004820152602401602060405180830381865afa15801561946b573d6000803e3d6000fd5b505050506040513d601f19601f8201168201806040525081019061948f919061aa57565b61013b5560025460305460408051630fbac97560e11b815290516001600160a01b03938416936370a08231931691631f7592ea9160048083019260209291908290030181865afa1580156194e7573d6000803e3d6000fd5b505050506040513d601f19601f8201168201806040525081019061950b919061b601565b6040516001600160e01b031960e084901b1681526001600160a01b039091166004820152602401602060405180830381865afa15801561954f573d6000803e3d6000fd5b505050506040513d601f19601f82011682018060405250810190619573919061aa57565b61013c5560305460408051634bf3dbf960e11b815290516001600160a01b03909216916397e7b7f2916004808201926020929091908290030181865afa1580156195c1573d6000803e3d6000fd5b505050506040513d601f19601f820116820180604052508101906195e5919061b601565b6001600160a01b039081163161013d5560015460305460408051634bf3dbf960e11b81529051928416936370a08231939216916397e7b7f2916004808201926020929091908290030181865afa158015619643573d6000803e3d6000fd5b505050506040513d601f19601f82011682018060405250810190619667919061b601565b6040516001600160e01b031960e084901b1681526001600160a01b039091166004820152602401602060405180830381865afa1580156196ab573d6000803e3d6000fd5b505050506040513d601f19601f820116820180604052508101906196cf919061aa57565b61013e5560035460305460408051634bf3dbf960e11b815290516001600160a01b03938416936370a082319316916397e7b7f29160048083019260209291908290030181865afa158015619727573d6000803e3d6000fd5b505050506040513d601f19601f8201168201806040525081019061974b919061b601565b6040516001600160e01b031960e084901b1681526001600160a01b039091166004820152602401602060405180830381865afa15801561978f573d6000803e3d6000fd5b505050506040513d601f19601f820116820180604052508101906197b3919061aa57565b61013f5560025460305460408051634bf3dbf960e11b815290516001600160a01b03938416936370a082319316916397e7b7f29160048083019260209291908290030181865afa15801561980b573d6000803e3d6000fd5b505050506040513d601f19601f8201168201806040525081019061982f919061b601565b6040516001600160e01b031960e084901b1681526001600160a01b039091166004820152602401602060405180830381865afa158015619873573d6000803e3d6000fd5b505050506040513d601f19601f82011682018060405250810190619897919061aa57565b61014055603054604080516308ba026f60e01b815290516001600160a01b03909216916308ba026f916004808201926020929091908290030181865afa1580156198e5573d6000803e3d6000fd5b505050506040513d601f19601f82011682018060405250810190619909919061b601565b6001600160a01b039081163161014155600154603054604080516308ba026f60e01b81529051928416936370a08231939216916308ba026f916004808201926020929091908290030181865afa158015619967573d6000803e3d6000fd5b505050506040513d601f19601f8201168201806040525081019061998b919061b601565b6040516001600160e01b031960e084901b1681526001600160a01b039091166004820152602401602060405180830381865afa1580156199cf573d6000803e3d6000fd5b505050506040513d601f19601f820116820180604052508101906199f3919061aa57565b61014255600354603054604080516308ba026f60e01b815290516001600160a01b03938416936370a082319316916308ba026f9160048083019260209291908290030181865afa158015619a4b573d6000803e3d6000fd5b505050506040513d601f19601f82011682018060405250810190619a6f919061b601565b6040516001600160e01b031960e084901b1681526001600160a01b039091166004820152602401602060405180830381865afa158015619ab3573d6000803e3d6000fd5b505050506040513d601f19601f82011682018060405250810190619ad7919061aa57565b61014355600254603054604080516308ba026f60e01b815290516001600160a01b03938416936370a082319316916308ba026f9160048083019260209291908290030181865afa158015619b2f573d6000803e3d6000fd5b505050506040513d601f19601f82011682018060405250810190619b53919061b601565b6040516001600160e01b031960e084901b1681526001600160a01b039091166004820152602401602060405180830381865afa158015619b97573d6000803e3d6000fd5b505050506040513d601f19601f82011682018060405250810190619bbb919061aa57565b61014455505050505050565b81619c0b577fcf34ef537ac33ee1ac626ca1587a0a7e8e51561e5514f8cb36afa1c5102b3bab81604051619bfb919061b61c565b60405180910390a1619c0b61b66b565b5050565b606060008a6001600160401b03811115619c2b57619c2b61ab50565b604051908082528060200260200182016040528015619c6457816020015b619c5161a38f565b815260200190600190039081619c495790505b509150619c6f61a32c565b619c7761a38f565b60005b8d81101561a169578b15156020830152619c9560028261a9e5565b15619ca1576000619ca4565b60015b15156040830152619cbb60ff8c16600060026180bd565b808452600003619ce7576060820160005b90816002811115619cdf57619cdf61ab66565b905250619d03565b8251600103619cfb57606082016001619ccc565b600260608301525b619d0e60028261a9e5565b15619d1a576000619d1d565b60025b82608001906002811115619d3357619d3361ab66565b90816002811115619d4657619d4661ab66565b905250619d5960ff8b16600060026180bd565b60208401819052600003619d895760a0820160015b90816003811115619d8157619d8161ab66565b905250619da8565b8260200151600103619da05760a082016003619d6e565b600260a08301525b619db88960ff16600060026180bd565b60408401819052600003619de85760c0820160005b90816002811115619de057619de061ab66565b905250619e07565b8260400151600103619dff5760c082016001619dcd565b600260c08301525b6040805160028082526060820183529091602083019080368337505050610100840181905260015481516001600160a01b039091169190600090619e4d57619e4d61a9f9565b6001600160a01b03928316602091820292909201015260025461010085015180519190921691906001908110619e8557619e8561a9f9565b60200260200101906001600160a01b031690816001600160a01b031681525050619eb58860ff16600060016180bd565b6060840181905261010084015180519091908110619ed557619ed561a9f9565b60209081029190910101516001600160a01b039081166080850181905260e084018190526001549091169003619f0f57604f548252619f15565b60505482525b60005b8d51811015619fc2578260e001516001600160a01b03168e8281518110619f4157619f4161a9f9565b6020026020010151600001516001600160a01b031603619fba578d8181518110619f6d57619f6d61a9f9565b60200260200101516060015184610140018181525050619fb3876001600160401b03166005866101400151619fa2919061ab7c565b61014087015161087190600a61aa83565b6101608401525b600101619f18565b5061016082015161018083015260808301516040516370a0823160e01b815233600482015261a05c916001600160601b038a16916000916002916001600160a01b03909116906370a0823190602401602060405180830381865afa15801561a02e573d6000803e3d6000fd5b505050506040513d601f19601f8201168201806040525081019061a052919061aa57565b610871919061ab7c565b60a084015261a0776001600160601b038816600033316180bd565b60c084015260a083015161012083015261a0b861a09588604261b681565b60f15460ed5460e9546001600160601b039390931692600092916139119161aa70565b61010083015261a0e661a0cc88604d61b681565b6001600160601b031660006051546002610871919061aa83565b61014083015260605461a0fa903a9061aa83565b61a1069061271061aa70565b6101a08301819052426101c084015260e084015260408201511561a1305760c08301516101208301525b8185828151811061a1435761a14361a9f9565b6020026020010181905250816101a001518461a15f919061aa70565b9350600101619c7a565b505050995099975050505050505050565b60405180610100016040528060008152602001600081526020016000815260200160006001600160a01b0316815260200160006001600160a01b0316815260200160006001600160a01b0316815260200160008152602001600081525090565b6040518061012001604052806000815260200160006001600160a01b03168152602001600081526020016000815260200160008152602001600081526020016000801916815260200160008152602001600081525090565b6040805161016081018252600080825260208201819052918101829052606081018290526080810182905260a0810182905260c0810182905260e081018290526101008101829052610120810182905261014081019190915290565b60405180610100016040528060006001600160a01b031681526020016000815260200160006001600160a01b0316815260200160006001600160a01b031681526020016000815260200160008152602001600081526020016000151581525090565b6040805160e081018252600080825260208201819052918101829052606081018290526080810182905260a0810182905260c081019190915290565b6040518061016001604052806000815260200160008152602001600081526020016000815260200160006001600160a01b031681526020016000815260200160008152602001600081526020016060815260200160008152602001600081525090565b604080516101e081018252600080825260208201819052918101829052906060820190815260200160008152602001600081526020016000815260200160006001600160a01b03168152602001600081526020016000815260200160008152602001600081526020016000815260200160008152602001600081525090565b82805482825590600052602060002090810192821561a449579160200282015b8281111561a44957825182559160200191906001019061a42e565b5061a45592915061a502565b5090565b60405180610100016040528060006001600160a01b03168152602001600081526020016000815260200160001515815260200160001515815260200160008152602001600081526020016000151581525090565b82805482825590600052602060002090810192821561a449579160200282015b8281111561a44957825182546001600160a01b0319166001600160a01b0390911617825560209092019160019091019061a4cd565b5b8082111561a455576000815560010161a503565b803560ff8116811461a52857600080fd5b919050565b80356001600160601b038116811461a52857600080fd5b801515811461a55257600080fd5b50565b803561ffff8116811461a52857600080fd5b60008060008060008060c0878903121561a58057600080fd5b61a5898761a517565b955061a5976020880161a52d565b9450604087013561a5a78161a544565b9350606087013561a5b78161a544565b925061a5c56080880161a52d565b915061a5d360a0880161a555565b90509295509295509295565b600080600080600080600080610100898b03121561a5fc57600080fd5b61a6058961a555565b975061a61360208a0161a517565b965061a62160408a0161a517565b95506060890135945061a63660808a0161a52d565b935061a64460a08a0161a52d565b925060c089013561a6548161a544565b915060e089013561a6648161a544565b809150509295985092959890939650565b60008060008060008060c0878903121561a68e57600080fd5b61a6978761a555565b9550602087013561a6a78161a544565b9450604087013561a6b78161a544565b935061a6c56060880161a517565b925061a6d36080880161a52d565b915061a5d360a0880161a52d565b60006020828403121561a6f357600080fd5b6181088261a555565b600080600080600060a0868803121561a71457600080fd5b61a71d8661a555565b9450602086013561a72d8161a544565b9350604086013561a73d8161a544565b925061a74b6060870161a517565b915061a7596080870161a52d565b90509295509295909350565b6000806040838503121561a77857600080fd5b61a7818361a517565b915061a78f6020840161a555565b90509250929050565b80356001600160401b038116811461a52857600080fd5b6000806000806000806000806000806000806101808d8f03121561a7d257600080fd5b61a7db8d61a555565b9b5060208d013561a7eb8161a544565b9a5060408d013561a7fb8161a544565b995061a80960608e0161a517565b985061a81760808e0161a517565b975061a82560a08e0161a517565b965061a83360c08e0161a517565b955061a84160e08e0161a517565b945061a8506101008e0161a52d565b935061a85f6101208e0161a52d565b925061a86e6101408e0161a52d565b915061a87d6101608e0161a798565b90509295989b509295989b509295989b565b60008060008060008060c0878903121561a8a857600080fd5b61a8b18761a555565b955061a8bf6020880161a517565b945061a8cd6040880161a517565b93506060870135925061a6d36080880161a52d565b60008060006060848603121561a8f757600080fd5b61a9008461a517565b925061a90e6020850161a52d565b915061a91c6040850161a555565b90509250925092565b60008060008060008060008060006101208a8c03121561a94457600080fd5b61a94d8a61a555565b985061a95b60208b0161a517565b975060408a013561a96b8161a544565b965061a97960608b0161a517565b955061a98760808b0161a517565b945061a99560a08b0161a517565b935061a9a360c08b0161a517565b925061a9b160e08b0161a52d565b915061a9c06101008b0161a798565b90509295985092959850929598565b634e487b7160e01b600052601260045260246000fd5b60008261a9f45761a9f461a9cf565b500690565b634e487b7160e01b600052603260045260246000fd5b634e487b7160e01b600052601160045260246000fd5b60006001820161aa375761aa3761aa0f565b5060010190565b8181038181111561aa515761aa5161aa0f565b92915050565b60006020828403121561aa6957600080fd5b5051919050565b8082018082111561aa515761aa5161aa0f565b808202811582820484141761aa515761aa5161aa0f565b60008151808452602080850194506020840160005b8381101561aaf757815180516001600160a01b03908116895284820151168489015260408082015190890152606090810151908801526080909601959082019060010161aaaf565b509495945050505050565b82815260406020820152600061ab1b604083018461aa9a565b949350505050565b634e487b7160e01b600052603160045260246000fd5b60008161ab485761ab4861aa0f565b506000190190565b634e487b7160e01b600052604160045260246000fd5b634e487b7160e01b600052602160045260246000fd5b60008261ab8b5761ab8b61a9cf565b500490565b6003811061aba05761aba061ab66565b9052565b6004811061aba05761aba061ab66565b80518252602081015161abcb602084018215159052565b50604081015161abdf604084018215159052565b50606081015161abf2606084018261ab90565b50608081015161ac05608084018261ab90565b5060a081015161ac1860a084018261aba4565b5060c081015161ac2b60c084018261ab90565b5060e081015161ac4660e08401826001600160a01b03169052565b50610100818101519083015261012080820151908301526101408082015190830152610160808201519083015261018080820151908301526101a080820151908301526101c090810151910152565b6101e0810161aa51828461abb4565b6020808252825182820181905260009190848201906040850190845b8181101561acdc5783518352928401929184019160010161acc0565b50909695505050505050565b6020808252825182820181905260009190848201906040850190845b8181101561acdc5761ad1783855161abb4565b928401926101e0929092019160010161ad04565b604051608081016001600160401b038111828210171561ad4d5761ad4d61ab50565b60405290565b60405161016081016001600160401b038111828210171561ad4d5761ad4d61ab50565b604080519081016001600160401b038111828210171561ad4d5761ad4d61ab50565b60405161022081016001600160401b038111828210171561ad4d5761ad4d61ab50565b604051606081016001600160401b038111828210171561ad4d5761ad4d61ab50565b604051601f8201601f191681016001600160401b038111828210171561ae055761ae0561ab50565b604052919050565b60006001600160401b0382111561ae265761ae2661ab50565b5060051b60200190565b6000602080838503121561ae4357600080fd5b82516001600160401b0381111561ae5957600080fd5b8301601f8101851361ae6a57600080fd5b805161ae7d61ae788261ae0d565b61addd565b81815260059190911b8201830190838101908783111561ae9c57600080fd5b928401925b8284101561aeba5783518252928401929084019061aea1565b979650505050505050565b600061ffff8084168061aeda5761aeda61a9cf565b92169190910692915050565b61ffff81811683821601908082111561af015761af0161aa0f565b5092915050565b63ffffffff81811683821602808216919082811461af285761af2861aa0f565b505092915050565b80516001600160a01b038116811461a52857600080fd5b600082601f83011261af5857600080fd5b8151602061af6861ae788361ae0d565b82815260079290921b8401810191818101908684111561af8757600080fd5b8286015b8481101561afda576080818903121561afa45760008081fd5b61afac61ad2b565b815181528482015185820152604080830151908201526060808301519082015283529183019160800161af8b565b509695505050505050565b600082601f83011261aff657600080fd5b8151602061b00661ae788361ae0d565b8083825260208201915060208460051b87010193508684111561b02857600080fd5b602086015b8481101561afda5761b03e8161af30565b835291830191830161b02d565b600082601f83011261b05c57600080fd5b8151602061b06c61ae788361ae0d565b8083825260208201915060208460051b87010193508684111561b08e57600080fd5b602086015b8481101561afda578051835291830191830161b093565b60006020828403121561b0bc57600080fd5b81516001600160401b038082111561b0d357600080fd5b90830190610160828603121561b0e857600080fd5b61b0f061ad53565b61b0f98361af30565b815260208301518281111561b10d57600080fd5b61b1198782860161af47565b60208301525060408301518281111561b13157600080fd5b61b13d8782860161afe5565b60408301525060608301518281111561b15557600080fd5b61b1618782860161b04b565b6060830152506080838101519082015260a0808401519082015260c0808401519082015260e08084015190820152610100808401519082015261012080840151908201526101409283015192810192909252509392505050565b6001600160a01b038316815260406020820181905260009061ab1b9083018461aa9a565b80516003811061a52857600080fd5b80516004811061a52857600080fd5b805161a5288161a544565b6000602080838503121561b21b57600080fd5b82516001600160401b0381111561b23157600080fd5b8301601f8101851361b24257600080fd5b805161b25061ae788261ae0d565b818152610240918202830184019184820191908884111561b27057600080fd5b938501935b8385101561b3cb578489038181121561b28e5760008081fd5b61b29661ad76565b8651815261022080601f198401121561b2af5760008081fd5b61b2b761ad98565b925061b2c489890161af30565b83526040808901518a850152606061b2dd818b0161b1df565b828601526080915061b2f0828b0161b1df565b9085015260a061b3018a820161b1ee565b8286015260c0915061b314828b0161b1df565b9085015260e061b3258a820161b1fd565b82860152610100915061b339828b0161b1fd565b9085015261012061b34b8a820161af30565b828601526101409150818a01518186015250610160808a0151828601526101809150818a015181860152506101a0808a0151828601526101c09150818a015181860152506101e0808a0151828601526102009150818a0151818601525081890151818501525050818882015280855250508583019250808501945061b275565b50979650505050505050565b600060e0828403121561b3e957600080fd5b60405160e081018181106001600160401b038211171561b40b5761b40b61ab50565b8060405250809150825181526020830151602082015260408301516040820152606083015160608201526080830151608082015260a083015160a082015260c083015160c08201525092915050565b6000602080838503121561b46d57600080fd5b82516001600160401b0381111561b48357600080fd5b8301601f8101851361b49457600080fd5b805161b4a261ae788261ae0d565b818152610320918202830184019184820191908884111561b4c257600080fd5b938501935b8385101561b3cb578489038181121561b4e05760008081fd5b61b4e861adbb565b6102e08083121561b4f95760008081fd5b61b50161ad98565b9250875183528888015189840152604061b51c818a0161b1fd565b81850152606061b52d818b0161b1fd565b90850152608061b53e8a820161af30565b9085015260a061b54f8a820161af30565b9085015260c061b5608a820161af30565b9085015260e08981015190850152610100808a015190850152610120808a015190850152610140808a015190850152610160808a015190850152610180808a0151908501526101a0808a0151908501526101c061b5bf8e828c0161b3d7565b908501526102a08901516101e08501526102c089015161020085015292825287015188820152610300870151918101919091528352938401939185019161b4c7565b60006020828403121561b61357600080fd5b6181088261af30565b60006020808352835180602085015260005b8181101561b64a5785810183015185820160400152820161b62e565b506000604082860101526040601f19601f8301168501019250505092915050565b634e487b7160e01b600052600160045260246000fd5b6001600160601b0381811683821601908082111561af015761af0161aa0f56fe0000000000000000000000007109709ecfa91a80626ff3989d68f67f5b1dd12d6163636f756e7446616365745f6465706f7369743a207465737420706173736564a26469706673582212206483e3ed478e7fb82649b267544c787d1f8f43cf5d0e30cce3588bf7f0946ee064736f6c6343000819003360806040526005805460ff1916601217905534801561001d57600080fd5b506040518060400160405280600d81526020016c09adec6d640ccdee440ae8aa89609b1b81525060126040518060400160405280600a81526020016926b7b1b5903a37b5b2b760b11b8152508281600390816100799190610146565b5060046100868282610146565b50506005805460ff191660ff9390931692909217909155506102059050565b634e487b7160e01b600052604160045260246000fd5b600181811c908216806100cf57607f821691505b6020821081036100ef57634e487b7160e01b600052602260045260246000fd5b50919050565b601f821115610141576000816000526020600020601f850160051c8101602086101561011e5750805b601f850160051c820191505b8181101561013d5782815560010161012a565b5050505b505050565b81516001600160401b0381111561015f5761015f6100a5565b6101738161016d84546100bb565b846100f5565b602080601f8311600181146101a857600084156101905750858301515b600019600386901b1c1916600185901b17855561013d565b600085815260208120601f198616915b828110156101d7578886015182559484019460019091019084016101b8565b50858210156101f55787850151600019600388901b60f8161c191681555b5050505050600190811b01905550565b610c2e806102146000396000f3fe6080604052600436106100e05760003560e01c806340c10f1911610084578063a457c2d711610056578063a457c2d714610270578063a9059cbb14610290578063d0e30db0146102b0578063dd62ed3e146102b857005b806340c10f19146101e557806370a082311461020557806395d89b411461023b5780639dc29fac1461025057005b806323b872dd116100bd57806323b872dd146101635780632e1a7d4d14610183578063313ce567146101a357806339509351146101c557005b806306fdde03146100e9578063095ea7b31461011457806318160ddd1461014457005b366100e757005b005b3480156100f557600080fd5b506100fe6102d8565b60405161010b9190610a5e565b60405180910390f35b34801561012057600080fd5b5061013461012f366004610ac9565b61036a565b604051901515815260200161010b565b34801561015057600080fd5b506002545b60405190815260200161010b565b34801561016f57600080fd5b5061013461017e366004610af3565b610384565b34801561018f57600080fd5b506100e761019e366004610b2f565b6103a8565b3480156101af57600080fd5b5060055460405160ff909116815260200161010b565b3480156101d157600080fd5b506101346101e0366004610ac9565b61042d565b3480156101f157600080fd5b506100e7610200366004610ac9565b61044f565b34801561021157600080fd5b50610155610220366004610b48565b6001600160a01b031660009081526020819052604090205490565b34801561024757600080fd5b506100fe610459565b34801561025c57600080fd5b506100e761026b366004610ac9565b610468565b34801561027c57600080fd5b5061013461028b366004610ac9565b610472565b34801561029c57600080fd5b506101346102ab366004610ac9565b6104ed565b6100e76104fb565b3480156102c457600080fd5b506101556102d3366004610b6a565b610507565b6060600380546102e790610b9d565b80601f016020809104026020016040519081016040528092919081815260200182805461031390610b9d565b80156103605780601f1061033557610100808354040283529160200191610360565b820191906000526020600020905b81548152906001019060200180831161034357829003601f168201915b5050505050905090565b600033610378818585610532565b60019150505b92915050565b600033610392858285610657565b61039d8585856106d1565b506001949350505050565b6103b23382610875565b604051600090339083908381818185875af1925050503d80600081146103f4576040519150601f19603f3d011682016040523d82523d6000602084013e6103f9565b606091505b5050905080610429576040516351134c8960e11b8152336004820152602481018390526044015b60405180910390fd5b5050565b6000336103788185856104408383610507565b61044a9190610bd7565b610532565b610429828261099f565b6060600480546102e790610b9d565b6104298282610875565b600033816104808286610507565b9050838110156104e05760405162461bcd60e51b815260206004820152602560248201527f45524332303a2064656372656173656420616c6c6f77616e63652062656c6f77604482015264207a65726f60d81b6064820152608401610420565b61039d8286868403610532565b6000336103788185856106d1565b610505333461099f565b565b6001600160a01b03918216600090815260016020908152604080832093909416825291909152205490565b6001600160a01b0383166105945760405162461bcd60e51b8152602060048201526024808201527f45524332303a20617070726f76652066726f6d20746865207a65726f206164646044820152637265737360e01b6064820152608401610420565b6001600160a01b0382166105f55760405162461bcd60e51b815260206004820152602260248201527f45524332303a20617070726f766520746f20746865207a65726f206164647265604482015261737360f01b6064820152608401610420565b6001600160a01b0383811660008181526001602090815260408083209487168084529482529182902085905590518481527f8c5be1e5ebec7d5bd14f71427d1e84f3dd0314c0f7b2291e5b200ac8c7c3b92591015b60405180910390a3505050565b60006106638484610507565b905060001981146106cb57818110156106be5760405162461bcd60e51b815260206004820152601d60248201527f45524332303a20696e73756666696369656e7420616c6c6f77616e63650000006044820152606401610420565b6106cb8484848403610532565b50505050565b6001600160a01b0383166107355760405162461bcd60e51b815260206004820152602560248201527f45524332303a207472616e736665722066726f6d20746865207a65726f206164604482015264647265737360d81b6064820152608401610420565b6001600160a01b0382166107975760405162461bcd60e51b815260206004820152602360248201527f45524332303a207472616e7366657220746f20746865207a65726f206164647260448201526265737360e81b6064820152608401610420565b6001600160a01b0383166000908152602081905260409020548181101561080f5760405162461bcd60e51b815260206004820152602660248201527f45524332303a207472616e7366657220616d6f756e7420657863656564732062604482015265616c616e636560d01b6064820152608401610420565b6001600160a01b03848116600081815260208181526040808320878703905593871680835291849020805487019055925185815290927fddf252ad1be2c89b69c2b068fc378daa952ba7f163c4a11628f55a4df523b3ef910160405180910390a36106cb565b6001600160a01b0382166108d55760405162461bcd60e51b815260206004820152602160248201527f45524332303a206275726e2066726f6d20746865207a65726f206164647265736044820152607360f81b6064820152608401610420565b6001600160a01b038216600090815260208190526040902054818110156109495760405162461bcd60e51b815260206004820152602260248201527f45524332303a206275726e20616d6f756e7420657863656564732062616c616e604482015261636560f01b6064820152608401610420565b6001600160a01b0383166000818152602081815260408083208686039055600280548790039055518581529192917fddf252ad1be2c89b69c2b068fc378daa952ba7f163c4a11628f55a4df523b3ef910161064a565b6001600160a01b0382166109f55760405162461bcd60e51b815260206004820152601f60248201527f45524332303a206d696e7420746f20746865207a65726f2061646472657373006044820152606401610420565b8060026000828254610a079190610bd7565b90915550506001600160a01b038216600081815260208181526040808320805486019055518481527fddf252ad1be2c89b69c2b068fc378daa952ba7f163c4a11628f55a4df523b3ef910160405180910390a35050565b60006020808352835180602085015260005b81811015610a8c57858101830151858201604001528201610a70565b506000604082860101526040601f19601f8301168501019250505092915050565b80356001600160a01b0381168114610ac457600080fd5b919050565b60008060408385031215610adc57600080fd5b610ae583610aad565b946020939093013593505050565b600080600060608486031215610b0857600080fd5b610b1184610aad565b9250610b1f60208501610aad565b9150604084013590509250925092565b600060208284031215610b4157600080fd5b5035919050565b600060208284031215610b5a57600080fd5b610b6382610aad565b9392505050565b60008060408385031215610b7d57600080fd5b610b8683610aad565b9150610b9460208401610aad565b90509250929050565b600181811c90821680610bb157607f821691505b602082108103610bd157634e487b7160e01b600052602260045260246000fd5b50919050565b8082018082111561037e57634e487b7160e01b600052601160045260246000fdfea2646970667358221220694afab354f2c8b521845081a940d7e858e7cf34a316e61907f589bc909f0d2564736f6c6343000819003360806040526005805460ff1916601217905534801561001d57600080fd5b50604051610e37380380610e3783398101604081905261003c916100c2565b60408051808201909152600a81526926b7b1b5903a37b5b2b760b11b602082015282600361006a8382610227565b5060046100778282610227565b50506005805460ff191660ff9390931692909217909155506102e69050565b634e487b7160e01b600052604160045260246000fd5b805160ff811681146100bd57600080fd5b919050565b600080604083850312156100d557600080fd5b82516001600160401b03808211156100ec57600080fd5b818501915085601f83011261010057600080fd5b81518181111561011257610112610096565b604051601f8201601f19908116603f0116810190838211818310171561013a5761013a610096565b8160405282815260209350888484870101111561015657600080fd5b600091505b82821015610178578482018401518183018501529083019061015b565b60008484830101528096505050506101918186016100ac565b925050509250929050565b600181811c908216806101b057607f821691505b6020821081036101d057634e487b7160e01b600052602260045260246000fd5b50919050565b601f821115610222576000816000526020600020601f850160051c810160208610156101ff5750805b601f850160051c820191505b8181101561021e5782815560010161020b565b5050505b505050565b81516001600160401b0381111561024057610240610096565b6102548161024e845461019c565b846101d6565b602080601f83116001811461028957600084156102715750858301515b600019600386901b1c1916600185901b17855561021e565b600085815260208120601f198616915b828110156102b857888601518255948401946001909101908401610299565b50858210156102d65787850151600019600388901b60f8161c191681555b5050505050600190811b01905550565b610b42806102f56000396000f3fe6080604052600436106100bd5760003560e01c806340c10f19116100795780639dc29fac116100565780639dc29fac1461020d578063a457c2d71461022d578063a9059cbb1461024d578063dd62ed3e1461026d57005b806340c10f19146101a257806370a08231146101c257806395d89b41146101f857005b806306fdde03146100c6578063095ea7b3146100f157806318160ddd1461012157806323b872dd14610140578063313ce56714610160578063395093511461018257005b366100c457005b005b3480156100d257600080fd5b506100db61028d565b6040516100e8919061098b565b60405180910390f35b3480156100fd57600080fd5b5061011161010c3660046109f6565b61031f565b60405190151581526020016100e8565b34801561012d57600080fd5b506002545b6040519081526020016100e8565b34801561014c57600080fd5b5061011161015b366004610a20565b610339565b34801561016c57600080fd5b5060055460405160ff90911681526020016100e8565b34801561018e57600080fd5b5061011161019d3660046109f6565b61035d565b3480156101ae57600080fd5b506100c46101bd3660046109f6565b61037f565b3480156101ce57600080fd5b506101326101dd366004610a5c565b6001600160a01b031660009081526020819052604090205490565b34801561020457600080fd5b506100db61038d565b34801561021957600080fd5b506100c46102283660046109f6565b61039c565b34801561023957600080fd5b506101116102483660046109f6565b6103a6565b34801561025957600080fd5b506101116102683660046109f6565b610426565b34801561027957600080fd5b50610132610288366004610a7e565b610434565b60606003805461029c90610ab1565b80601f01602080910402602001604051908101604052809291908181526020018280546102c890610ab1565b80156103155780601f106102ea57610100808354040283529160200191610315565b820191906000526020600020905b8154815290600101906020018083116102f857829003601f168201915b5050505050905090565b60003361032d81858561045f565b60019150505b92915050565b600033610347858285610584565b6103528585856105fe565b506001949350505050565b60003361032d8185856103708383610434565b61037a9190610aeb565b61045f565b61038982826107a2565b5050565b60606004805461029c90610ab1565b6103898282610861565b600033816103b48286610434565b9050838110156104195760405162461bcd60e51b815260206004820152602560248201527f45524332303a2064656372656173656420616c6c6f77616e63652062656c6f77604482015264207a65726f60d81b60648201526084015b60405180910390fd5b610352828686840361045f565b60003361032d8185856105fe565b6001600160a01b03918216600090815260016020908152604080832093909416825291909152205490565b6001600160a01b0383166104c15760405162461bcd60e51b8152602060048201526024808201527f45524332303a20617070726f76652066726f6d20746865207a65726f206164646044820152637265737360e01b6064820152608401610410565b6001600160a01b0382166105225760405162461bcd60e51b815260206004820152602260248201527f45524332303a20617070726f766520746f20746865207a65726f206164647265604482015261737360f01b6064820152608401610410565b6001600160a01b0383811660008181526001602090815260408083209487168084529482529182902085905590518481527f8c5be1e5ebec7d5bd14f71427d1e84f3dd0314c0f7b2291e5b200ac8c7c3b92591015b60405180910390a3505050565b60006105908484610434565b905060001981146105f857818110156105eb5760405162461bcd60e51b815260206004820152601d60248201527f45524332303a20696e73756666696369656e7420616c6c6f77616e63650000006044820152606401610410565b6105f8848484840361045f565b50505050565b6001600160a01b0383166106625760405162461bcd60e51b815260206004820152602560248201527f45524332303a207472616e736665722066726f6d20746865207a65726f206164604482015264647265737360d81b6064820152608401610410565b6001600160a01b0382166106c45760405162461bcd60e51b815260206004820152602360248201527f45524332303a207472616e7366657220746f20746865207a65726f206164647260448201526265737360e81b6064820152608401610410565b6001600160a01b0383166000908152602081905260409020548181101561073c5760405162461bcd60e51b815260206004820152602660248201527f45524332303a207472616e7366657220616d6f756e7420657863656564732062604482015265616c616e636560d01b6064820152608401610410565b6001600160a01b03848116600081815260208181526040808320878703905593871680835291849020805487019055925185815290927fddf252ad1be2c89b69c2b068fc378daa952ba7f163c4a11628f55a4df523b3ef910160405180910390a36105f8565b6001600160a01b0382166107f85760405162461bcd60e51b815260206004820152601f60248201527f45524332303a206d696e7420746f20746865207a65726f2061646472657373006044820152606401610410565b806002600082825461080a9190610aeb565b90915550506001600160a01b038216600081815260208181526040808320805486019055518481527fddf252ad1be2c89b69c2b068fc378daa952ba7f163c4a11628f55a4df523b3ef910160405180910390a35050565b6001600160a01b0382166108c15760405162461bcd60e51b815260206004820152602160248201527f45524332303a206275726e2066726f6d20746865207a65726f206164647265736044820152607360f81b6064820152608401610410565b6001600160a01b038216600090815260208190526040902054818110156109355760405162461bcd60e51b815260206004820152602260248201527f45524332303a206275726e20616d6f756e7420657863656564732062616c616e604482015261636560f01b6064820152608401610410565b6001600160a01b0383166000818152602081815260408083208686039055600280548790039055518581529192917fddf252ad1be2c89b69c2b068fc378daa952ba7f163c4a11628f55a4df523b3ef9101610577565b60006020808352835180602085015260005b818110156109b95785810183015185820160400152820161099d565b506000604082860101526040601f19601f8301168501019250505092915050565b80356001600160a01b03811681146109f157600080fd5b919050565b60008060408385031215610a0957600080fd5b610a12836109da565b946020939093013593505050565b600080600060608486031215610a3557600080fd5b610a3e846109da565b9250610a4c602085016109da565b9150604084013590509250925092565b600060208284031215610a6e57600080fd5b610a77826109da565b9392505050565b60008060408385031215610a9157600080fd5b610a9a836109da565b9150610aa8602084016109da565b90509250929050565b600181811c90821680610ac557607f821691505b602082108103610ae557634e487b7160e01b600052602260045260246000fd5b50919050565b8082018082111561033357634e487b7160e01b600052601160045260246000fdfea2646970667358221220bbe19ff4b3b5b3a7367183bf7a7f05443384abe78b28d6482fb6d4322d39c6a664736f6c63430008190033608060405234801561001057600080fd5b50604051610bf6380380610bf683398101604081905261002f91610100565b8061005a7fa49807205ce4d355092ef5a8a18f56e8913cf4a201fbe287825b095693c2177582610061565b5050610130565b6000828152602081815260408083206001600160a01b038516845290915290205460ff166100fc576000828152602081815260408083206001600160a01b03851684529091529020805460ff191660011790556100bb3390565b6001600160a01b0316816001600160a01b0316837f2f8788117e7eff1d82e926ec794901d17c78024a50270940304540a733656f0d60405160405180910390a45b5050565b60006020828403121561011257600080fd5b81516001600160a01b038116811461012957600080fd5b9392505050565b610ab78061013f6000396000f3fe608060405234801561001057600080fd5b50600436106100a95760003560e01c806335bb3e161161007157806335bb3e161461014257806336568abe1461015557806375b238fc1461016857806391d148541461017d578063a217fddf14610190578063d547741f1461019857600080fd5b806301ffc9a7146100ae578063078d3b79146100d6578063248a9ca3146100eb5780632d3456701461011c5780632f2ff15d1461012f575b600080fd5b6100c16100bc3660046107f2565b6101ab565b60405190151581526020015b60405180910390f35b6100e96100e4366004610838565b6101e2565b005b61010e6100f9366004610874565b60009081526020819052604090206001015490565b6040519081526020016100cd565b6100e961012a36600461088d565b610244565b6100e961013d3660046108a8565b610278565b6100e961015036600461088d565b6102a2565b6100e96101633660046108a8565b6102d2565b61010e600080516020610a6283398151915281565b6100c161018b3660046108a8565b61034c565b61010e600081565b6100e96101a63660046108a8565b610375565b60006001600160e01b03198216637965db0b60e01b14806101dc57506301ffc9a760e01b6001600160e01b03198316145b92915050565b600080516020610a628339815191526101fa8161039a565b306001600160a01b0384160361023357604051638d6a597160e01b81526001600160a01b03841660048201526024015b60405180910390fd5b61023e8484846103a7565b50505050565b600080516020610a6283398151915261025c8161039a565b610274600080516020610a62833981519152836103ff565b5050565b6000828152602081905260409020600101546102938161039a565b61029d8383610464565b505050565b600080516020610a628339815191526102ba8161039a565b610274600080516020610a6283398151915283610464565b6001600160a01b03811633146103425760405162461bcd60e51b815260206004820152602f60248201527f416363657373436f6e74726f6c3a2063616e206f6e6c792072656e6f756e636560448201526e103937b632b9903337b91039b2b63360891b606482015260840161022a565b61027482826103ff565b6000918252602082815260408084206001600160a01b0393909316845291905290205460ff1690565b6000828152602081905260409020600101546103908161039a565b61029d83836103ff565b6103a481336104e8565b50565b806000036103b457505050565b60006103c584848462030d40610541565b90508061023e5760405163012f3b8f60e71b81526001600160a01b038086166004830152841660248201526044810183905260640161022a565b610409828261034c565b15610274576000828152602081815260408083206001600160a01b0385168085529252808320805460ff1916905551339285917ff6391f5c32d9c69d2a47ea670b442974b53935d1edc7fd64eb21e047a839171b9190a45050565b61046e828261034c565b610274576000828152602081815260408083206001600160a01b03851684529091529020805460ff191660011790556104a43390565b6001600160a01b0316816001600160a01b0316837f2f8788117e7eff1d82e926ec794901d17c78024a50270940304540a733656f0d60405160405180910390a45050565b6104f2828261034c565b610274576104ff8161063d565b61050a83602061064f565b60405160200161051b9291906108f8565b60408051601f198184030181529082905262461bcd60e51b825261022a9160040161096d565b604080516001600160a01b038581166024830152604480830186905283518084039091018152606490920183526020820180516001600160e01b031663a9059cbb60e01b17905291516000928391829189169086906105a19086906109a0565b60006040518083038160008787f1925050503d80600081146105df576040519150601f19603f3d011682016040523d82523d6000602084013e6105e4565b606091505b5091509150816105fa5760009350505050610635565b6000815111801561061c57508080602001905181019061061a91906109bc565b155b1561062d5760009350505050610635565b600193505050505b949350505050565b60606101dc6001600160a01b03831660145b6060600061065e8360026109f4565b610669906002610a0b565b67ffffffffffffffff81111561068157610681610a1e565b6040519080825280601f01601f1916602001820160405280156106ab576020820181803683370190505b509050600360fc1b816000815181106106c6576106c6610a34565b60200101906001600160f81b031916908160001a905350600f60fb1b816001815181106106f5576106f5610a34565b60200101906001600160f81b031916908160001a90535060006107198460026109f4565b610724906001610a0b565b90505b600181111561079c576f181899199a1a9b1b9c1cb0b131b232b360811b85600f166010811061075857610758610a34565b1a60f81b82828151811061076e5761076e610a34565b60200101906001600160f81b031916908160001a90535060049490941c9361079581610a4a565b9050610727565b5083156107eb5760405162461bcd60e51b815260206004820181905260248201527f537472696e67733a20686578206c656e67746820696e73756666696369656e74604482015260640161022a565b9392505050565b60006020828403121561080457600080fd5b81356001600160e01b0319811681146107eb57600080fd5b80356001600160a01b038116811461083357600080fd5b919050565b60008060006060848603121561084d57600080fd5b6108568461081c565b92506108646020850161081c565b9150604084013590509250925092565b60006020828403121561088657600080fd5b5035919050565b60006020828403121561089f57600080fd5b6107eb8261081c565b600080604083850312156108bb57600080fd5b823591506108cb6020840161081c565b90509250929050565b60005b838110156108ef5781810151838201526020016108d7565b50506000910152565b7f416363657373436f6e74726f6c3a206163636f756e74200000000000000000008152600083516109308160178501602088016108d4565b7001034b99036b4b9b9b4b733903937b6329607d1b60179184019182015283516109618160288401602088016108d4565b01602801949350505050565b602081526000825180602084015261098c8160408501602087016108d4565b601f01601f19169190910160400192915050565b600082516109b28184602087016108d4565b9190910192915050565b6000602082840312156109ce57600080fd5b815180151581146107eb57600080fd5b634e487b7160e01b600052601160045260246000fd5b80820281158282048414176101dc576101dc6109de565b808201808211156101dc576101dc6109de565b634e487b7160e01b600052604160045260246000fd5b634e487b7160e01b600052603260045260246000fd5b600081610a5957610a596109de565b50600019019056fea49807205ce4d355092ef5a8a18f56e8913cf4a201fbe287825b095693c21775a26469706673582212201595af41e34e22e801e78899b764c88cb16ba795ec41c427322a9ea30d529ba364736f6c63430008190033608060405234801561001057600080fd5b50604051610bf6380380610bf683398101604081905261002f91610100565b8061005a7fa49807205ce4d355092ef5a8a18f56e8913cf4a201fbe287825b095693c2177582610061565b5050610130565b6000828152602081815260408083206001600160a01b038516845290915290205460ff166100fc576000828152602081815260408083206001600160a01b03851684529091529020805460ff191660011790556100bb3390565b6001600160a01b0316816001600160a01b0316837f2f8788117e7eff1d82e926ec794901d17c78024a50270940304540a733656f0d60405160405180910390a45b5050565b60006020828403121561011257600080fd5b81516001600160a01b038116811461012957600080fd5b9392505050565b610ab78061013f6000396000f3fe608060405234801561001057600080fd5b50600436106100a95760003560e01c806335bb3e161161007157806335bb3e161461014257806336568abe1461015557806375b238fc1461016857806391d148541461017d578063a217fddf14610190578063d547741f1461019857600080fd5b806301ffc9a7146100ae578063078d3b79146100d6578063248a9ca3146100eb5780632d3456701461011c5780632f2ff15d1461012f575b600080fd5b6100c16100bc3660046107f2565b6101ab565b60405190151581526020015b60405180910390f35b6100e96100e4366004610838565b6101e2565b005b61010e6100f9366004610874565b60009081526020819052604090206001015490565b6040519081526020016100cd565b6100e961012a36600461088d565b610244565b6100e961013d3660046108a8565b610278565b6100e961015036600461088d565b6102a2565b6100e96101633660046108a8565b6102d2565b61010e600080516020610a6283398151915281565b6100c161018b3660046108a8565b61034c565b61010e600081565b6100e96101a63660046108a8565b610375565b60006001600160e01b03198216637965db0b60e01b14806101dc57506301ffc9a760e01b6001600160e01b03198316145b92915050565b600080516020610a628339815191526101fa8161039a565b306001600160a01b0384160361023357604051638d6a597160e01b81526001600160a01b03841660048201526024015b60405180910390fd5b61023e8484846103a7565b50505050565b600080516020610a6283398151915261025c8161039a565b610274600080516020610a62833981519152836103ff565b5050565b6000828152602081905260409020600101546102938161039a565b61029d8383610464565b505050565b600080516020610a628339815191526102ba8161039a565b610274600080516020610a6283398151915283610464565b6001600160a01b03811633146103425760405162461bcd60e51b815260206004820152602f60248201527f416363657373436f6e74726f6c3a2063616e206f6e6c792072656e6f756e636560448201526e103937b632b9903337b91039b2b63360891b606482015260840161022a565b61027482826103ff565b6000918252602082815260408084206001600160a01b0393909316845291905290205460ff1690565b6000828152602081905260409020600101546103908161039a565b61029d83836103ff565b6103a481336104e8565b50565b806000036103b457505050565b60006103c584848462030d40610541565b90508061023e5760405163012f3b8f60e71b81526001600160a01b038086166004830152841660248201526044810183905260640161022a565b610409828261034c565b15610274576000828152602081815260408083206001600160a01b0385168085529252808320805460ff1916905551339285917ff6391f5c32d9c69d2a47ea670b442974b53935d1edc7fd64eb21e047a839171b9190a45050565b61046e828261034c565b610274576000828152602081815260408083206001600160a01b03851684529091529020805460ff191660011790556104a43390565b6001600160a01b0316816001600160a01b0316837f2f8788117e7eff1d82e926ec794901d17c78024a50270940304540a733656f0d60405160405180910390a45050565b6104f2828261034c565b610274576104ff8161063d565b61050a83602061064f565b60405160200161051b9291906108f8565b60408051601f198184030181529082905262461bcd60e51b825261022a9160040161096d565b604080516001600160a01b038581166024830152604480830186905283518084039091018152606490920183526020820180516001600160e01b031663a9059cbb60e01b17905291516000928391829189169086906105a19086906109a0565b60006040518083038160008787f1925050503d80600081146105df576040519150601f19603f3d011682016040523d82523d6000602084013e6105e4565b606091505b5091509150816105fa5760009350505050610635565b6000815111801561061c57508080602001905181019061061a91906109bc565b155b1561062d5760009350505050610635565b600193505050505b949350505050565b60606101dc6001600160a01b03831660145b6060600061065e8360026109f4565b610669906002610a0b565b67ffffffffffffffff81111561068157610681610a1e565b6040519080825280601f01601f1916602001820160405280156106ab576020820181803683370190505b509050600360fc1b816000815181106106c6576106c6610a34565b60200101906001600160f81b031916908160001a905350600f60fb1b816001815181106106f5576106f5610a34565b60200101906001600160f81b031916908160001a90535060006107198460026109f4565b610724906001610a0b565b90505b600181111561079c576f181899199a1a9b1b9c1cb0b131b232b360811b85600f166010811061075857610758610a34565b1a60f81b82828151811061076e5761076e610a34565b60200101906001600160f81b031916908160001a90535060049490941c9361079581610a4a565b9050610727565b5083156107eb5760405162461bcd60e51b815260206004820181905260248201527f537472696e67733a20686578206c656e67746820696e73756666696369656e74604482015260640161022a565b9392505050565b60006020828403121561080457600080fd5b81356001600160e01b0319811681146107eb57600080fd5b80356001600160a01b038116811461083357600080fd5b919050565b60008060006060848603121561084d57600080fd5b6108568461081c565b92506108646020850161081c565b9150604084013590509250925092565b60006020828403121561088657600080fd5b5035919050565b60006020828403121561089f57600080fd5b6107eb8261081c565b600080604083850312156108bb57600080fd5b823591506108cb6020840161081c565b90509250929050565b60005b838110156108ef5781810151838201526020016108d7565b50506000910152565b7f416363657373436f6e74726f6c3a206163636f756e74200000000000000000008152600083516109308160178501602088016108d4565b7001034b99036b4b9b9b4b733903937b6329607d1b60179184019182015283516109618160288401602088016108d4565b01602801949350505050565b602081526000825180602084015261098c8160408501602087016108d4565b601f01601f19169190910160400192915050565b600082516109b28184602087016108d4565b9190910192915050565b6000602082840312156109ce57600080fd5b815180151581146107eb57600080fd5b634e487b7160e01b600052601160045260246000fd5b80820281158282048414176101dc576101dc6109de565b808201808211156101dc576101dc6109de565b634e487b7160e01b600052604160045260246000fd5b634e487b7160e01b600052603260045260246000fd5b600081610a5957610a596109de565b50600019019056fea49807205ce4d355092ef5a8a18f56e8913cf4a201fbe287825b095693c21775a2646970667358221220c834f878c1fe25241760188bf402ae40c1431e40550e42e1bf96243291fadfc064736f6c63430008190033608060405234801561001057600080fd5b50604051610bf6380380610bf683398101604081905261002f91610100565b8061005a7fa49807205ce4d355092ef5a8a18f56e8913cf4a201fbe287825b095693c2177582610061565b5050610130565b6000828152602081815260408083206001600160a01b038516845290915290205460ff166100fc576000828152602081815260408083206001600160a01b03851684529091529020805460ff191660011790556100bb3390565b6001600160a01b0316816001600160a01b0316837f2f8788117e7eff1d82e926ec794901d17c78024a50270940304540a733656f0d60405160405180910390a45b5050565b60006020828403121561011257600080fd5b81516001600160a01b038116811461012957600080fd5b9392505050565b610ab78061013f6000396000f3fe608060405234801561001057600080fd5b50600436106100a95760003560e01c806335bb3e161161007157806335bb3e161461014257806336568abe1461015557806375b238fc1461016857806391d148541461017d578063a217fddf14610190578063d547741f1461019857600080fd5b806301ffc9a7146100ae578063078d3b79146100d6578063248a9ca3146100eb5780632d3456701461011c5780632f2ff15d1461012f575b600080fd5b6100c16100bc3660046107f2565b6101ab565b60405190151581526020015b60405180910390f35b6100e96100e4366004610838565b6101e2565b005b61010e6100f9366004610874565b60009081526020819052604090206001015490565b6040519081526020016100cd565b6100e961012a36600461088d565b610244565b6100e961013d3660046108a8565b610278565b6100e961015036600461088d565b6102a2565b6100e96101633660046108a8565b6102d2565b61010e600080516020610a6283398151915281565b6100c161018b3660046108a8565b61034c565b61010e600081565b6100e96101a63660046108a8565b610375565b60006001600160e01b03198216637965db0b60e01b14806101dc57506301ffc9a760e01b6001600160e01b03198316145b92915050565b600080516020610a628339815191526101fa8161039a565b306001600160a01b0384160361023357604051638d6a597160e01b81526001600160a01b03841660048201526024015b60405180910390fd5b61023e8484846103a7565b50505050565b600080516020610a6283398151915261025c8161039a565b610274600080516020610a62833981519152836103ff565b5050565b6000828152602081905260409020600101546102938161039a565b61029d8383610464565b505050565b600080516020610a628339815191526102ba8161039a565b610274600080516020610a6283398151915283610464565b6001600160a01b03811633146103425760405162461bcd60e51b815260206004820152602f60248201527f416363657373436f6e74726f6c3a2063616e206f6e6c792072656e6f756e636560448201526e103937b632b9903337b91039b2b63360891b606482015260840161022a565b61027482826103ff565b6000918252602082815260408084206001600160a01b0393909316845291905290205460ff1690565b6000828152602081905260409020600101546103908161039a565b61029d83836103ff565b6103a481336104e8565b50565b806000036103b457505050565b60006103c584848462030d40610541565b90508061023e5760405163012f3b8f60e71b81526001600160a01b038086166004830152841660248201526044810183905260640161022a565b610409828261034c565b15610274576000828152602081815260408083206001600160a01b0385168085529252808320805460ff1916905551339285917ff6391f5c32d9c69d2a47ea670b442974b53935d1edc7fd64eb21e047a839171b9190a45050565b61046e828261034c565b610274576000828152602081815260408083206001600160a01b03851684529091529020805460ff191660011790556104a43390565b6001600160a01b0316816001600160a01b0316837f2f8788117e7eff1d82e926ec794901d17c78024a50270940304540a733656f0d60405160405180910390a45050565b6104f2828261034c565b610274576104ff8161063d565b61050a83602061064f565b60405160200161051b9291906108f8565b60408051601f198184030181529082905262461bcd60e51b825261022a9160040161096d565b604080516001600160a01b038581166024830152604480830186905283518084039091018152606490920183526020820180516001600160e01b031663a9059cbb60e01b17905291516000928391829189169086906105a19086906109a0565b60006040518083038160008787f1925050503d80600081146105df576040519150601f19603f3d011682016040523d82523d6000602084013e6105e4565b606091505b5091509150816105fa5760009350505050610635565b6000815111801561061c57508080602001905181019061061a91906109bc565b155b1561062d5760009350505050610635565b600193505050505b949350505050565b60606101dc6001600160a01b03831660145b6060600061065e8360026109f4565b610669906002610a0b565b67ffffffffffffffff81111561068157610681610a1e565b6040519080825280601f01601f1916602001820160405280156106ab576020820181803683370190505b509050600360fc1b816000815181106106c6576106c6610a34565b60200101906001600160f81b031916908160001a905350600f60fb1b816001815181106106f5576106f5610a34565b60200101906001600160f81b031916908160001a90535060006107198460026109f4565b610724906001610a0b565b90505b600181111561079c576f181899199a1a9b1b9c1cb0b131b232b360811b85600f166010811061075857610758610a34565b1a60f81b82828151811061076e5761076e610a34565b60200101906001600160f81b031916908160001a90535060049490941c9361079581610a4a565b9050610727565b5083156107eb5760405162461bcd60e51b815260206004820181905260248201527f537472696e67733a20686578206c656e67746820696e73756666696369656e74604482015260640161022a565b9392505050565b60006020828403121561080457600080fd5b81356001600160e01b0319811681146107eb57600080fd5b80356001600160a01b038116811461083357600080fd5b919050565b60008060006060848603121561084d57600080fd5b6108568461081c565b92506108646020850161081c565b9150604084013590509250925092565b60006020828403121561088657600080fd5b5035919050565b60006020828403121561089f57600080fd5b6107eb8261081c565b600080604083850312156108bb57600080fd5b823591506108cb6020840161081c565b90509250929050565b60005b838110156108ef5781810151838201526020016108d7565b50506000910152565b7f416363657373436f6e74726f6c3a206163636f756e74200000000000000000008152600083516109308160178501602088016108d4565b7001034b99036b4b9b9b4b733903937b6329607d1b60179184019182015283516109618160288401602088016108d4565b01602801949350505050565b602081526000825180602084015261098c8160408501602087016108d4565b601f01601f19169190910160400192915050565b600082516109b28184602087016108d4565b9190910192915050565b6000602082840312156109ce57600080fd5b815180151581146107eb57600080fd5b634e487b7160e01b600052601160045260246000fd5b80820281158282048414176101dc576101dc6109de565b808201808211156101dc576101dc6109de565b634e487b7160e01b600052604160045260246000fd5b634e487b7160e01b600052603260045260246000fd5b600081610a5957610a596109de565b50600019019056fea49807205ce4d355092ef5a8a18f56e8913cf4a201fbe287825b095693c21775a26469706673582212208c94cb58f9918f68ce7df9caa6c0e40a25e2f9410342393b9b5071a88d985d3764736f6c634300081900336080604052348015600f57600080fd5b5061011c8061001f6000396000f3fe6080604052348015600f57600080fd5b506004361060285760003560e01c8063e1c7392a14602d575b600080fd5b60e47fdab92b47c5ad1b8db72bf159fe8f1c5404b027a749c8120fa1db90a19db432506020527fb46b76674e207a68011f6dd4115a7d36585809e7100bf87f994f14761fc0bda38054600160ff1991821681179092557fd89dcb904de2ee5a64c455edf3aa8fa4accba0b29a38ebf28a59561a672287a880548216831790556348e2b09360e01b6000527fc2279572da5bef2fd6de7c5d89bb24597ca4c054256566f0be85b2409cffd2d080549091169091179055565b00fea2646970667358221220acb6feaa43ebb57767b9d7fed2bef95b20282e8febb4007e5cce5d88cba0162e64736f6c63430008190033608060405260405161106738038061106783398101604081905261002291610bfd565b610034816420a226a4a760d91b6102a0565b60408051600280825260608201909252600091816020015b6040805160608082018352600080835260208301529181019190915281526020019060019003908161004c5750506040805160018082528183019092529192506000919060208083019080368337019050509050631f931c1c60e01b816000815181106100bb576100bb610c51565b6001600160e01b031990921660209283029190910182015260408051606081019091526001600160a01b038816815290810160008152602001828152508260008151811061010b5761010b610c51565b602090810291909101015260408051600480825260a08201909252600091816020016020820280368337019050509050637a0ed62760e01b8160008151811061015657610156610c51565b6001600160e01b03199092166020928302919091019091015280516314bbdacb60e21b908290600190811061018d5761018d610c51565b6001600160e01b03199092166020928302919091019091015280516366ffd66360e11b90829060029081106101c4576101c4610c51565b6001600160e01b03199092166020928302919091019091015280516356fe50af60e11b90829060039081106101fb576101fb610c51565b6001600160e01b031990921660209283029190910182015260408051606081019091526001600160a01b038816815290810160008152602001828152508360018151811061024b5761024b610c51565b60209081029190910181019190915260408051600481526024810190915290810180516001600160e01b039081166370e39c9560e11b179091526102949185918891906102d516565b50505050505050610eca565b60006102aa61047f565b6001600160a01b03841660009081526020829052604090209091506102cf90836104e1565b50505050565b60005b83518110156104345760008482815181106102f5576102f5610c51565b6020026020010151604001519050600085838151811061031757610317610c51565b602002602001015160000151905081516000036103575760405163e767f91f60e01b81526001600160a01b03821660048201526024015b60405180910390fd5b600086848151811061036b5761036b610c51565b60200260200101516020015190506000600281111561038c5761038c610c67565b81600281111561039e5761039e610c67565b036103b2576103ad82846104f6565b610429565b60018160028111156103c6576103c6610c67565b036103d5576103ad82846106a2565b60028160028111156103e9576103e9610c67565b036103f8576103ad8284610825565b80600281111561040a5761040a610c67565b604051633ff4d20f60e11b815260ff909116600482015260240161034e565b5050506001016102d8565b507f8faa70878671ccd212d20771b795c50af8fd3ff6cf27f4bde57e5d4de0aeb67383838360405161046893929190610ccd565b60405180910390a161047a8282610aa4565b505050565b6000806040516020016104c3906020808252601e908201527f78797a2e656c66692e73746f726167652e416363657373436f6e74726f6c0000604082015260600190565b60408051601f19818403018152919052805160209091012092915050565b60006104ed8383610b6a565b90505b92915050565b6001600160a01b03821661051f57806040516302b8da0760e21b815260040161034e9190610dd0565b60008051602061101f8339815191525460408051606081019091526024808252600080516020610fb3833981519152929161056491869190610fd36020830139610bb9565b60005b835181101561069b57600084828151811061058457610584610c51565b6020908102919091018101516001600160e01b031981166000908152918690526040909120549091506001600160a01b031680156105e15760405163ebbf5d0760e01b81526001600160e01b03198316600482015260240161034e565b6040805180820182526001600160a01b03808a16825261ffff80881660208085019182526001600160e01b0319881660009081528b8252958620945185549251909316600160a01b026001600160b01b0319909216929093169190911717909155600180880180549182018155835291206008820401805460e085901c60046007909416939093026101000a92830263ffffffff90930219169190911790558361068a81610e34565b945050600190920191506105679050565b5050505050565b600080516020610fb38339815191526001600160a01b0383166106da578160405163cd98a96f60e01b815260040161034e9190610dd0565b6106fc8360405180606001604052806028815260200161103f60289139610bb9565b60005b82518110156102cf57600083828151811061071c5761071c610c51565b6020908102919091018101516001600160e01b031981166000908152918590526040909120549091506001600160a01b031630810361077a57604051632901806d60e11b81526001600160e01b03198316600482015260240161034e565b856001600160a01b0316816001600160a01b0316036107b857604051631ac6ce8d60e11b81526001600160e01b03198316600482015260240161034e565b6001600160a01b0381166107eb57604051637479f93960e01b81526001600160e01b03198316600482015260240161034e565b506001600160e01b031916600090815260208390526040902080546001600160a01b0319166001600160a01b0386161790556001016106ff565b60008051602061101f83398151915254600080516020610fb3833981519152906001600160a01b038416156108785760405163d091bc8160e01b81526001600160a01b038516600482015260240161034e565b60005b835181101561069b57600084828151811061089857610898610c51565b6020908102919091018101516001600160e01b0319811660009081528683526040908190208151808301909252546001600160a01b038116808352600160a01b90910461ffff16938201939093529092509061091357604051637a08a22d60e01b81526001600160e01b03198316600482015260240161034e565b8051306001600160a01b039091160361094b57604051630df5fd6160e31b81526001600160e01b03198316600482015260240161034e565b8361095581610e55565b94505083816020015161ffff1614610a3357600085600101858154811061097e5761097e610c51565b90600052602060002090600891828204019190066004029054906101000a900460e01b90508086600101836020015161ffff16815481106109c1576109c1610c51565b600091825260208083206008830401805463ffffffff60079094166004026101000a938402191660e09590951c92909202939093179055838201516001600160e01b03199390931681529087905260409020805461ffff60a01b1916600160a01b61ffff909316929092029190911790555b84600101805480610a4657610a46610e6c565b60008281526020808220600860001990940193840401805463ffffffff600460078716026101000a0219169055919092556001600160e01b0319909316815291859052506040902080546001600160b01b031916905560010161087b565b6001600160a01b038216610ab6575050565b610ad882604051806060016040528060288152602001610ff760289139610bb9565b600080836001600160a01b031683604051610af39190610e82565b600060405180830381855af49150503d8060008114610b2e576040519150601f19603f3d011682016040523d82523d6000602084013e610b33565b606091505b5091509150816102cf57805115610b4d5780518082602001fd5b838360405163192105d760e01b815260040161034e929190610e9e565b6000818152600183016020526040812054610bb1575081546001818101845560008481526020808220909301849055845484825282860190935260409020919091556104f0565b5060006104f0565b813b600081900361047a57828260405163919834b960e01b815260040161034e929190610e9e565b80516001600160a01b0381168114610bf857600080fd5b919050565b60008060008060808587031215610c1357600080fd5b610c1c85610be1565b9350610c2a60208601610be1565b9250610c3860408601610be1565b9150610c4660608601610be1565b905092959194509250565b634e487b7160e01b600052603260045260246000fd5b634e487b7160e01b600052602160045260246000fd5b60005b83811015610c98578181015183820152602001610c80565b50506000910152565b60008151808452610cb9816020860160208601610c7d565b601f01601f19169290920160200192915050565b60006060808301606084528087518083526080925060808601915060808160051b8701016020808b0160005b84811015610da057898403607f19018652815180516001600160a01b03168552838101518986019060038110610d3f57634e487b7160e01b600052602160045260246000fd5b868601526040918201519186018a905281519081905290840190600090898701905b80831015610d8b5783516001600160e01b0319168252928601926001929092019190860190610d61565b50978501979550505090820190600101610cf9565b50506001600160a01b038a16908801528681036040880152610dc28189610ca1565b9a9950505050505050505050565b6020808252825182820181905260009190848201906040850190845b81811015610e125783516001600160e01b03191683529284019291840191600101610dec565b50909695505050505050565b634e487b7160e01b600052601160045260246000fd5b600061ffff808316818103610e4b57610e4b610e1e565b6001019392505050565b600081610e6457610e64610e1e565b506000190190565b634e487b7160e01b600052603160045260246000fd5b60008251610e94818460208701610c7d565b9190910192915050565b6001600160a01b0383168152604060208201819052600090610ec290830184610ca1565b949350505050565b60db80610ed86000396000f3fe608060405236600a57005b60007fdab92b47c5ad1b8db72bf159fe8f1c5404b027a749c8120fa1db90a19db4324e600080356001600160e01b0319168152602082905260409020549091506001600160a01b031680608257604051630a82dd7360e31b81526001600160e01b031960003516600482015260240160405180910390fd5b3660008037600080366000845af43d6000803e80801560a0573d6000f35b3d6000fdfea2646970667358221220fe9bfb39b501cb833703362b44f4681e32db22884eee8f81bca15bf0c5347cd964736f6c63430008190033dab92b47c5ad1b8db72bf159fe8f1c5404b027a749c8120fa1db90a19db4324e4c69624469616d6f6e644375743a2041646420666163657420686173206e6f20636f64654c69624469616d6f6e644375743a205f696e6974206164647265737320686173206e6f20636f6465dab92b47c5ad1b8db72bf159fe8f1c5404b027a749c8120fa1db90a19db4324f4c69624469616d6f6e644375743a205265706c61636520666163657420686173206e6f20636f64656080604052348015600f57600080fd5b5061635d8061001f6000396000f3fe6080604052600436106100745760003560e01c806347e7ef241161004e57806347e7ef24146100e2578063750b5a19146100f55780637b510fe814610128578063abac56651461015557600080fd5b806302e9d19914610080578063115647f7146100a257806313874d37146100c257600080fd5b3661007b57005b600080fd5b34801561008c57600080fd5b506100a061009b36600461571e565b610175565b005b3480156100ae57600080fd5b506100a06100bd366004615769565b610230565b3480156100ce57600080fd5b506100a06100dd3660046157a3565b610259565b6100a06100f03660046157da565b6102b1565b34801561010157600080fd5b506101156101103660046157da565b61039d565b6040519081526020015b60405180910390f35b34801561013457600080fd5b50610148610143366004615806565b6103da565b60405161011f91906158f5565b34801561016157600080fd5b506101486101703660046159ca565b610567565b6101876525a2a2a822a960d11b61087f565b6000610192846108af565b80519091506001600160a01b03166101bd576040516324d9d15b60e01b815260040160405180910390fd5b6102188383808060200260200160405190810160405280939291908181526020016000905b8282101561020e576101ff60808302860136819003810190615a73565b815260200190600101906101e2565b505050505061091a565b6102228482610a95565b61022a610b2c565b50505050565b6102456102406020830183615806565b610b3e565b61025661025182615b79565b610b65565b50565b61026b6525a2a2a822a960d11b61087f565b6000610276836108af565b80519091506001600160a01b03166102a1576040516324d9d15b60e01b815260040160405180910390fd5b6102ac838284610cc0565b505050565b806000036102d257604051630b4fc37360e11b815260040160405180910390fd5b6001600160a01b038216158080156102ea5750813414155b1561031657604051630cca541d60e11b8152346004820152602481018390526044015b60405180910390fd5b8015801561032b575061032883610d2c565b51155b156103495760405163219fc4b560e11b815260040160405180910390fd5b6040805160a08101909152338082529061022a90602081018461036c5786610376565b6103746110ce565b515b6001600160a01b0316815260208101869052604001600081526020018415158152506114b9565b60006103a883610b3e565b816000036103c957604051630b4fc37360e11b815260040160405180910390fd5b6103d38383611710565b9392505050565b6103e26154fd565b60006103ed836117cb565b90506103f76154fd565b81546001600160a01b031661040d579392505050565b600061041883611841565b9050600081516001600160401b0381111561043557610435615a05565b60405190808252806020026020018201604052801561049157816020015b61047e6040518060800160405280600081526020016000815260200160008152602001600081525090565b8152602001906001900390816104535790505b50905060005b82518110156104f1576104cc8382815181106104b5576104b5615c6e565b60200260200101518661184f90919063ffffffff16565b8282815181106104de576104de615c6e565b6020908102919091010152600101610497565b5060006104fd856118cc565b60408051610160810182526001600160a01b0390991689526020890193909352918701929092526060860152505060006080840181905260a0840181905260c0840181905260019091015460e0840152610100830181905261012083018190526101408301525090565b61056f6154fd565b600061057a856117cb565b90506105846154fd565b81546001600160a01b031661059c5791506103d39050565b60006105a783611841565b9050600081516001600160401b038111156105c4576105c4615a05565b60405190808252806020026020018201604052801561062057816020015b61060d6040518060800160405280600081526020016000815260200160008152602001600081525090565b8152602001906001900390816105e25790505b50905060005b8251811015610669576106448382815181106104b5576104b5615c6e565b82828151811061065657610656615c6e565b6020908102919091010152600101610626565b5060008060006106d48a8a808060200260200160405190810160405280939291908181526020016000905b828210156106c0576106b160808302860136819003810190615a73565b81526020019060010190610694565b5050505050886118da90919063ffffffff16565b92509250925060006107418b8b808060200260200160405190810160405280939291908181526020016000905b8282101561072d5761071e60808302860136819003810190615a73565b81526020019060010190610701565b50505050508961198490919063ffffffff16565b90506040518061016001604052808d6001600160a01b031681526020018681526020018781526020016107738a6118cc565b81526020016107dd8d8d808060200260200160405190810160405280939291908181526020016000905b828210156107c9576107ba60808302860136819003810190615a73565b8152602001906001019061079d565b50505050508b611a2d90919063ffffffff16565b81526020016108478d8d808060200260200160405190810160405280939291908181526020016000905b828210156108335761082460808302860136819003810190615a73565b81526020019060010190610807565b50505050508b611b2c90919063ffffffff16565b8152602081019290925260019098015460408201526060810193909352608083019190915260a0909101525091925050509392505050565b6108893382611c16565b61025657604051632d7d0e0d60e21b81523360048201526024810182905260440161030d565b60408051606081018252600080825260208201819052918101829052906108d4611c4e565b60009384526020908152604093849020845160608101865281546001600160a01b0390811682526001830154169281019290925260020154938101939093525090919050565b6000610924611cb0565b905060005b82518110156102ac5760006001600160a01b031683828151811061094f5761094f615c6e565b6020026020010151602001516001600160a01b0316036109ee576109e983828151811061097e5761097e615c6e565b60200260200101516000015160405180604001604052808685815181106109a7576109a7615c6e565b60200260200101516040015181526020018685815181106109ca576109ca615c6e565b60200260200101516060015181525084611cf49092919063ffffffff16565b610a8d565b610a8d838281518110610a0357610a03615c6e565b602002602001015160000151848381518110610a2157610a21615c6e565b6020026020010151602001516040518060400160405280878681518110610a4a57610a4a615c6e565b6020026020010151604001518152602001878681518110610a6d57610a6d615c6e565b60200260200101516060015181525085611d3c909392919063ffffffff16565b600101610929565b610ae782604051806080016040528060006001600160a01b0316815260200184600001516001600160a01b0316815260200184602001516001600160a01b031681526020018460400151815250611db9565b610af082611f80565b817fc4e976a134dcf8b2c86c17fbc5948d41ccdeb38bb09ec5ea9da10fd037a5c69582604051610b209190615c84565b60405180910390a25050565b610b3c610b37611cb0565b611fb8565b565b6001600160a01b03811661025657604051639fabe1c160e01b815260040160405180910390fd5b6000610b7482600001516117cb565b9050610b7f816120af565b60005b8260200151518110156102ac5782604001518181518110610ba557610ba5615c6e565b602002602001015160000315610cb857600083604001518281518110610bcd57610bcd615c6e565b60200260200101511315610c6057610c2a83602001518281518110610bf457610bf4615c6e565b6020026020010151610c2285604001518481518110610c1557610c15615c6e565b60200260200101516120d7565b84919061212d565b610c5a83602001518281518110610c4357610c43615c6e565b60200260200101518361213a90919063ffffffff16565b50610cb8565b610cb883602001518281518110610c7957610c79615c6e565b6020026020010151610cb085604001518481518110610c9a57610c9a615c6e565b6020026020010151610cab90615cc9565b6120d7565b849190612148565b600101610b82565b610cc983611f80565b6040805183516001600160a01b03908116825260208086015190911690820152838201518183015260608101839052905184917f35ed67f16a690b1b045bc38672a55a66db3dfcfeb0f4a0136fd3a08f2d1982a6919081900360800190a2505050565b610d34615560565b610d3c615560565b600080604051602001610d759060208082526012908201527154524144455f544f4b454e5f434f4e46494760701b604082015260600190565b60408051601f1981840301815291905280516020909101209050610d9a828287612155565b610da75750909392505050565b610e4c8186604051602001610de5906020808252601590820152741254d7d4d5541413d49517d0d3d313105511549053605a1b604082015260600190565b60405160208183030381529060405280519060200120604051602001610e27939291909283526001600160a01b03919091166020830152604082015260600190565b604051602081830303815290604052805190602001208361216f90919063ffffffff16565b15158352604051610eec9082908790610e8590602001602080825260099082015268282922a1a4a9a4a7a760b91b604082015260600190565b60405160208183030381529060405280519060200120604051602001610ec7939291909283526001600160a01b03919091166020830152604082015260600190565b604051602081830303815290604052805190602001208361218890919063ffffffff16565b836020018181525050610f268186604051602001610e8590602080825260089082015267111254d0d3d5539560c21b604082015260600190565b836040018181525050610f6b8186604051602001610e85906020808252601390820152720434f4c4c41544552414c5f555345525f43415606c1b604082015260600190565b6060840152604051610fb09082908790610e85906020016020808252601490820152730434f4c4c41544552414c5f544f54414c5f4341560641b604082015260600190565b6080840152604051610ff39082908790610e859060200160208082526012908201527104c494142494c4954595f555345525f4341560741b604082015260600190565b60a08401526040516110379082908790610e859060200160208082526013908201527204c494142494c4954595f544f54414c5f43415606c1b604082015260600190565b60c084015260405161107c9082908790610e859060200160208082526014908201527324a72a22a922a9aa2fa920aa22afa320a1aa27a960611b604082015260600190565b60e08401526040516110bf9082908790610e85906020016020808252601290820152712624a8aaa4a220aa24a7a72fa320a1aa27a960711b604082015260600190565b61010084015250909392505050565b61112660405180610120016040528060006001600160a01b0316815260200160008152602001600081526020016000815260200160008152602001600081526020016000815260200160008152602001600081525090565b600080604051602001611159906020808252600c908201526b434841494e5f434f4e46494760a01b604082015260600190565b6040516020818303038152906040528051906020012090506111fb816040516020016111a6906020808252600d908201526c2ba920a82822a92faa27a5a2a760991b604082015260600190565b604051602081830303815290604052805190602001206040516020016111d6929190918252602082015260400190565b604051602081830303815290604052805190602001208361219b90919063ffffffff16565b6001600160a01b03168352604051611272908290611242906020016020808252601290820152711352539517d1d054d7d1915157d31253525560721b604082015260600190565b60405160208183030381529060405280519060200120604051602001610ec7929190918252602082015260400190565b8360200181815250506112b7816040516020016112429060208082526014908201527314915111515357d1d054d7d1915157d31253525560621b604082015260600190565b836040018181525050611310816040516020016112429060208082526022908201527f504c4143455f494e4352454153455f4f524445525f4741535f4645455f4c494d604082015261125560f21b606082015260800190565b60608401526040516113679082906112429060200160208082526022908201527f504c4143455f44454352454153455f4f524445525f4741535f4645455f4c494d604082015261125560f21b606082015260800190565b60808401526040516113c09082906112429060200160208082526024908201527f504f534954494f4e5f5550444154455f4d415247494e5f4741535f4645455f4c6040820152631253525560e21b606082015260800190565b60a084015260405161141b9082906112429060200160208082526026908201527f504f534954494f4e5f5550444154455f4c455645524147455f4741535f46454560408201526517d31253525560d21b606082015260800190565b60c08401526040516114609082906112429060200160208082526016908201527515d2551211149055d7d1d054d7d1915157d31253525560521b604082015260600190565b60e08401526040516114ac908290611242906020016020808252601b908201527f434c41494d5f524557415244535f4741535f4645455f4c494d49540000000000604082015260600190565b6101008401525090919050565b60006114c4826121ba565b905060006114d58360000151612455565b9050826060015160038111156114ed576114ed615c58565b6000036116035760006114ff83610d2c565b8051909150611521576040516357f7ff6360e11b815260040160405180910390fd5b600061152b612492565b6001600160a01b038516600090815260048201602052604081205491925050826080015186604001518261155f9190615ce5565b1115611596576080830151604051633bdc32ad60e21b81526001600160a01b0387166004820152602481019190915260440161030d565b60608301516001600160a01b038616600090815260048601602052604090205411156115ed576060830151604051630bedee1d60e41b81526001600160a01b0387166004820152602481019190915260440161030d565b60408601516115ff90839087906124f5565b5050505b80546001600160a01b031661162f57825181546001600160a01b0319166001600160a01b039091161781555b604083015161164390829084906001612529565b8260600151600381111561165957611659615c58565b6000036116d457600061166c828461213a565b905080846040015111156116d25760006116a57f0a71df90d32c96273f303e05979f37d082fed3a770e0495390df72b0c7014b4c612600565b90506116d0818660000151866116c9868a604001516116c49190615cf8565b612660565b60006126ca565b505b505b7fa32eafdee495ed40909e9bb83195b776d67b1b4cfe59fab752e4018337e10e2f836040516117039190615d0b565b60405180910390a1505050565b60008061173c7f89ef89e838fe357e10066d373fa76b37475e475e31d74264268a64d3a0e5cd83612600565b90506000611749826127a1565b80546001600160a01b03199081163390811783556001830180546001600160a01b038a169316831790556002830187905560408051918252602082019290925290810186905290915082907f2d980c7b226403b42cd637658fa45806fc099a0bdcd63807557d9b3ef4f4ab2e9060600160405180910390a25090505b92915050565b60008082604051602001611822919060408082526018908201527f78797a2e656c66692e73746f726167652e4163636f756e74000000000000000060608201526001600160a01b0391909116602082015260800190565b60408051601f1981840301815291905280516020909101209392505050565b60606117c5826002016127bd565b61187a6040518060800160405280600081526020016000815260200160008152602001600081525090565b506001600160a01b031660009081526004919091016020908152604091829020825160808101845281548152600182015492810192909252600281015492820192909252600390910154606082015290565b60606117c5826005016127bd565b6000806000806118ea8686611a2d565b905060006118f88787611b2c565b9050600061190688886127ca565b9050600061191a8285858c6001015461299d565b9050600082606001511161193f5760008183606001519650965096505050505061197d565b600081131561196a576119656116c4611957836120d7565b8460600151620186a06129eb565b61196d565b60005b6060909201519196509450925050505b9250925092565b6000806119918484611a2d565b90506000806119a086866129f8565b9150915060006119b087876127ca565b90506119c58282604001516116c49190615ce5565b8151600013156119d65781516119d9565b60005b6119e285612660565b611a048a600101548560200151896119fa9190615ce5565b6116c49190615ce5565b611a0e9190615d64565b611a189190615d84565b611a229190615d64565b979650505050505050565b6000806000611a3b85611841565b905060005b8151811015611b2257611a6b828281518110611a5e57611a5e615c6e565b6020026020010151610d2c565b5115611b1a576000866004016000848481518110611a8b57611a8b615c6e565b60200260200101516001600160a01b03166001600160a01b031681526020019081526020016000206040518060800160405290816000820154815260200160018201548152602001600282015481526020016003820154815250509050611b16611b0f848481518110611b0057611b00615c6e565b60200260200101518389612b2d565b8590612b91565b9350505b600101611a40565b5090949350505050565b6000806000611b3a85611841565b905060005b8151811015611bf1576000866004016000848481518110611b6257611b62615c6e565b60200260200101516001600160a01b03166001600160a01b031681526020019081526020016000206040518060800160405290816000820154815260200160018201548152602001600282015481526020016003820154815250509050611be6611b0f848481518110611bd757611bd7615c6e565b60200260200101518389612b9d565b935050600101611b3f565b50600185015415611c0e576001850154611c0b9083615ce5565b91505b509392505050565b600080611c21612c17565b6001600160a01b0385166000908152602082905260409020909150611c469084612c5b565b949350505050565b600080604051602001611c929060208082526019908201527f78797a2e656c66692e73746f726167652e576974686472617700000000000000604082015260600190565b60408051601f19818403018152919052805160209091012092915050565b600080604051602001611c92906020808252601c908201527f78797a2e656c66692e73746f726167652e4f7261636c65507269636500000000604082015260600190565b611cfe8383612c73565b611d0e57611d0c8383612c95565b505b6001600160a01b03909116600090815260029092016020908152604090922081518155910151600190910155565b604080516001600160a01b038581166020808401919091529085168284015282518083038401815260609092019092528051910120611d7e6004860182612c5b565b611d9157611d8f6004860182612caa565b505b6000908152600690940160209081526040909420815181559301516001909301929092555050565b8060600151600003611dde57604051630b4fc37360e11b815260040160405180910390fd5b611deb8160400151610d2c565b51611e095760405163219fc4b560e11b815260040160405180910390fd5b6000611e1882602001516117cb565b90508160600151611e368360400151836124d690919063ffffffff16565b1015611e5557604051634358e5dd60e11b815260040160405180910390fd5b6000611e6683604001516000612cb6565b90506000611e886116c48560600151611e828760400151612cdb565b85612d3f565b9050611e9383612d6e565b8015611ea6575080611ea484612e66565b125b15611ec457604051634358e5dd60e11b815260040160405180910390fd5b60408401516060850151611edb9185916002612e74565b611f54306001600160a01b0316631f7592ea6040518163ffffffff1660e01b8152600401602060405180830381865afa158015611f1c573d6000803e3d6000fd5b505050506040513d601f19601f82011682018060405250810190611f409190615dac565b856040015186602001518760600151612fed565b50611f798585602001518660400151611f708860600151612660565b6116c990615cc9565b5050505050565b6000611f8a611c4e565b6000928352602052506040812080546001600160a01b03199081168255600182018054909116905560020155565b6000611fc3826127bd565b905060005b81518110156102ac57826002016000838381518110611fe957611fe9615c6e565b60200260200101516001600160a01b03166001600160a01b031681526020019081526020016000206000808201600090556001820160009055505082600301600083838151811061203c5761203c615c6e565b60200260200101516001600160a01b03166001600160a01b03168152602001908152602001600020600080820160009055600182016000905550506120a682828151811061208c5761208c615c6e565b602002602001015184600001612ffd90919063ffffffff16565b50600101611fc8565b80546001600160a01b031661025657604051633902b86b60e11b815260040160405180910390fd5b6000808212156121295760405162461bcd60e51b815260206004820181905260248201527f53616665436173743a2076616c7565206d75737420626520706f736974697665604482015260640161030d565b5090565b6102ac8383836000612529565b60006103d383836000613012565b6102ac8383836000613145565b6000828152600c840160205260408120611c469083612c73565b6000908152600391909101602052604090205460ff1690565b6000908152602091909152604090205490565b600090815260029190910160205260409020546001600160a01b031690565b6000803090506000836060015160038111156121d8576121d8615c58565b15806121f95750836060015160038111156121f5576121f5615c58565b6003145b1561226757816001600160a01b0316631f7592ea6040518163ffffffff1660e01b8152600401602060405180830381865afa15801561223c573d6000803e3d6000fd5b505050506040513d601f19601f820116820180604052508101906122609190615dac565b9050612344565b8360600151600381111561227d5761227d615c58565b6001036122c257816001600160a01b03166397e7b7f26040518163ffffffff1660e01b8152600401602060405180830381865afa15801561223c573d6000803e3d6000fd5b836060015160038111156122d8576122d8615c58565b60020361234457816001600160a01b03166308ba026f6040518163ffffffff1660e01b8152600401602060405180830381865afa15801561231d573d6000803e3d6000fd5b505050506040513d601f19601f820116820180604052508101906123419190615dac565b90505b602084015160808501511561243857600061235d6110ce565b60000151905085602001516001600160a01b0316816001600160a01b0316146123c85760405162461bcd60e51b815260206004820152601960248201527f4465706f736974207769746820746f6b656e206572726f722100000000000000604482015260640161030d565b806001600160a01b031663d0e30db087604001516040518263ffffffff1660e01b81526004016000604051808303818588803b15801561240757600080fd5b505af115801561241b573d6000803e3d6000fd5b50505050508091506124328284886040015161329e565b50611c46565b84516040860151611c46916001600160a01b0384169185906132f6565b600080612461836117cb565b80549091506001600160a01b03166117c55780546001600160a01b0319166001600160a01b03841617815592915050565b600080604051602001611c92906020808252601b908201527f78797a2e656c66692e73746f726167652e436f6d6d6f6e446174610000000000604082015260600190565b6001600160a01b03166000908152600491909101602052604090205490565b6001600160a01b03821660009081526004840160205260408120805483929061251f908490615ce5565b9091555050505050565b6125366002850184612c73565b612549576125476002850184612c95565b505b6001600160a01b038316600090815260048501602090815260408083208151608081018352815480825260018301549482019490945260028201549281019290925260038101546060830152929091859184916125a7908490615ce5565b909155505085546040517f1d59acd5f3bb87326c498fe747e339bda33b5370b6f8df63a48f232d73efb748916125f0916001600160a01b03909116908890859087908990615ddd565b60405180910390a1505050505050565b60008061260b613350565b60008481526020829052604090205490915061045781101561263b576126346104576001615ce5565b9050612649565b8061264581615e63565b9150505b600093845260209190915260409092208290555090565b60006001600160ff1b038211156121295760405162461bcd60e51b815260206004820152602860248201527f53616665436173743a2076616c756520646f65736e27742066697420696e2061604482015267371034b73a191a9b60c11b606482015260840161030d565b8115611f795760006126e36126de866117cb565b6118cc565b90508260005b825181101561279757600061271484838151811061270957612709615c6e565b602002602001015190565b60038101549091506001600160a01b03888116911614801561273f57506002810154610100900460ff165b1561278e5760006127586116c483845489148d8b613394565b9050600087136127715761276c8185615d84565b61277b565b61277b8185615d64565b93508360000361278c575050612797565b505b506001016126e9565b5050505050505050565b6000806127ac611c4e565b600093845260205250506040902090565b606060006103d3836134d9565b6128036040518060c001604052806000815260200160008152602001600081526020016000815260200160008152602001600081525090565b61280c836120af565b6000612819846001613535565b90506000612825613752565b60a00151905060005b825181101561299457600083828151811061284b5761284b615c6e565b60200260200101519050600061286a878360c001518460400151613d7f565b9050600061287b8360200151613e23565b9050600061288c848a8560006140f8565b905060008113156128cb576128c46128bc826128b76128ae8860a00151610d2c565b60400151612660565b614121565b895190614142565b88526128f7565b6128f46128bc826128b76128e28860a00151610d2c565b61010001516116c490620186a0615ce5565b88525b61291861290d8560e0015184600001518961414e565b60608a015190612b91565b6060890152610160840151602089015161293191612b91565b6020890152610180840151604089015161294a91612b91565b604089015260e084015160a089015161296291612b91565b60a089015261297f612974858b614171565b60808a015190614142565b608089015250506001909201915061282e9050565b50505092915050565b600084608001516129ad84612660565b865160208801516129c49086906119fa908a615ce5565b6129ce9190615d84565b6129d89190615d64565b6129e29190615d64565b95945050505050565b6000611c46848385614470565b6000806000806000612a0987611841565b905060005b8151811015612af0576000886004016000848481518110612a3157612a31615c6e565b60200260200101516001600160a01b03166001600160a01b031681526020019081526020016000206040518060800160405290816000820154815260200160018201548152602001600282015481526020016003820154815250509050612abc612ab5848481518110612aa657612aa6615c6e565b6020026020010151838b612b9d565b8690612b91565b9450612ae5611b0f848481518110612ad657612ad6615c6e565b6020026020010151838b61455a565b935050600101612a0e565b50600187015415612b1f576001870154612b0a9084615ce5565b9250866001015482612b1c9190615ce5565b91505b5090925090505b9250929050565b60008260200151836000015111612b46575060006103d3565b6000612b7984602001518560000151612b5f9190615cf8565b612b6887612cdb565b612b74868960016145b5565b612d3f565b90506129e281612b8887610d2c565b60400151614617565b60006103d38284615ce5565b60008260000151836020015111612bb6575060006103d3565b6000612bcf84600001518560200151612b5f9190615cf8565b90506000612bdc86610d2c565b61010001511115612c1057612bfe81612bf487610d2c565b6101000151614617565b612c089082615ce5565b9150506103d3565b90506103d3565b600080604051602001611c92906020808252601e908201527f78797a2e656c66692e73746f726167652e416363657373436f6e74726f6c0000604082015260600190565b600081815260018301602052604081205415156103d3565b6001600160a01b038116600090815260018301602052604081205415156103d3565b60006103d3836001600160a01b038416614627565b60006103d38383614627565b600080612cc284614676565b905082612cd3578060200151611c46565b519392505050565b6000816001600160a01b031663313ce5676040518163ffffffff1660e01b8152600401602060405180830381865afa158015612d1b573d6000803e3d6000fd5b505050506040513d601f19601f820116820180604052508101906117c59190615e7c565b6000611c46612d4f84600a615f83565b612d686402540be400612d628887614709565b90614709565b90614715565b6000612d7982614721565b15612d8657506001919050565b6000612d91836147a6565b90506000612d9d6147b4565b905060005b8251811015612dfe57612dd7838281518110612dc057612dc0615c6e565b6020026020010151836147f190919063ffffffff16565b60020154640100000000900460ff1615612df657506001949350505050565b600101612da2565b506000612e0a856118cc565b905060005b8151811015612e5a576000612e2f83838151811061270957612709615c6e565b6002810154909150610100900460ff1615612e51575060019695505050505050565b50600101612e0f565b50600095945050505050565b600060606103d38382611984565b612e816002850184612c73565b612ec15760405162461bcd60e51b8152602060048201526011602482015270746f6b656e206e6f74206578697374732160781b604482015260640161030d565b6001600160a01b0383166000908152600485016020526040902054821115612f265760405162461bcd60e51b8152602060048201526018602482015277746f6b656e20616d6f756e74206e6f7420656e6f7567682160401b604482015260640161030d565b6001600160a01b03831660008181526004860160208181526040808420815160808101835281548082526001830154828601526002830154938201939093526003820154606082015295855292909152859290612f84908490615cf8565b909155505084546001600160a01b0385811660009081526004880160205260409081902090517f1d59acd5f3bb87326c498fe747e339bda33b5370b6f8df63a48f232d73efb74893612fde93169188918691908890615ddd565b60405180910390a15050505050565b60006129e2858585856000614803565b60006103d3836001600160a01b03841661494d565b6001600160a01b0382166000908152600484016020526040812060038101541580159061303f5750805415155b15611c0e57604080516080810182528254808252600184015460208301526002840154928201929092526003830154606082018190529091101561308457815461308a565b81600301545b9250828260000160008282546130a09190615cf8565b92505081905550828260030160008282546130bb9190615cf8565b92505081905550828260010160008282546130d69190615cf8565b909155506130f0905085846130e9612492565b9190614a47565b85546040517f1d59acd5f3bb87326c498fe747e339bda33b5370b6f8df63a48f232d73efb74891613134916001600160a01b03909116908890859087908a90615ddd565b60405180910390a150509392505050565b6131526002850184612c73565b6131925760405162461bcd60e51b8152602060048201526011602482015270746f6b656e206e6f74206578697374732160781b604482015260640161030d565b6001600160a01b03831660009081526004850160205260409020548211156131f75760405162461bcd60e51b8152602060048201526018602482015277746f6b656e20616d6f756e74206e6f7420656e6f7567682160401b604482015260640161030d565b6001600160a01b0383166000908152600485016020526040902060010154613220908390615ce5565b6001600160a01b03841660009081526004860160205260409020541015612f265760405162461bcd60e51b815260206004820152602c60248201527f746f6b656e20616d6f756e74206578636c756465207573656420616d6f756e7460448201526b206e6f7420656e6f7567682160a01b606482015260840161030d565b806000036132ab57505050565b60006132bc84848462030d40614ae9565b90508061022a5760405163012f3b8f60e71b81526001600160a01b038086166004830152841660248201526044810183905260640161030d565b604080516001600160a01b0385811660248301528416604482015260648082018490528251808303909101815260849091019091526020810180516001600160e01b03166323b872dd60e01b17905261022a908590614be3565b600080604051602001611c92906020808252601c908201527f78797a2e656c66692e73746f726167652e5575696443726561746f7200000000604082015260600190565b600084600a0154856009015414806133aa575081155b156133b757506000611c46565b600082131561343b5760006133e68660090154612d68886008015489600a01548a60090154612d629190615cf8565b90506133fb816133f5856120d7565b90614cb8565b915061341c8660080154612d6888600901548561470990919063ffffffff16565b86600a01600082825461342f9190615ce5565b909155506134b9915050565b600061345a8660080154612d688860090154612d6287610cab90615cc9565b90508086600a01541161348e576000600a87018190556009870154600888015461348792612d6891614709565b91506134b7565b8086600a0160008282546134a29190615cf8565b909155506134b49050610cab84615cc9565b91505b505b8380156134c65750600081115b15611c4657611c46858460086000614cce565b60608160000180548060200260200160405190810160405280929190818152602001828054801561352957602002820191906000526020600020905b815481526020019060010190808311613515575b50505050509050919050565b60606000613542846118cc565b905060006135508285614e10565b6001600160401b0381111561356757613567615a05565b6040519080825280602002602001820160405280156135a057816020015b61358d6155ae565b8152602001906001900390816135855790505b5090506000805b83518110156137475760006135c785838151811061270957612709615c6e565b6040805161022081018252825481526001830154602080830191909152600284015460ff808216151584860152610100808304909116151560608086019182526001600160a01b036201000090940484166080808801919091526003890154851660a08089019190915260048a015490951660c08089019190915260058a015460e0808a019190915260068b01549589019590955260078a015461012089015260088a015461014089015260098a0154610160890152600a8a0154610180890152600b8a01546101a089015288519485018952600c8a01548552600d8a015496850196909652600e89015497840197909752600f880154908301526010870154958201959095526011860154918101919091526012850154918101919091526101c082015260138301546101e0820152601490920154610200830152519091508715159015150361373e578084848151811061372557613725615c6e565b602090810291909101015261373b600184615ce5565b92505b506001016135a7565b509095945050505050565b6137d2604051806102000160405280606081526020016060815260200160008152602001600081526020016000815260200160008152602001600081526020016000815260200160008152602001600081526020016000815260200160008152602001600081526020016000815260200160008152602001600081525090565b600080604051602001613805906020808252600c908201526b54524144455f434f4e46494760a01b604082015260600190565b6040516020818303038152906040528051906020012090506138a681604051602001613851906020808252600c908201526b54524144455f544f4b454e5360a01b604082015260600190565b60405160208183030381529060405280519060200120604051602001613881929190918252602082015260400190565b6040516020818303038152906040528051906020012083614f9d90919063ffffffff16565b808452516001600160401b038111156138c1576138c1615a05565b6040519080825280602002602001820160405280156138fa57816020015b6138e7615560565b8152602001906001900390816138df5790505b50602084015260005b83515181101561394f5761392684600001518281518110611a5e57611a5e615c6e565b8460200151828151811061393c5761393c615c6e565b6020908102919091010152600101613903565b5061398c816040516020016112429060208082526014908201527313525397d3d491115497d3505491d25397d554d160621b604082015260600190565b8360400181815250506139da81604051602001611242906020808252601a908201527f415641494c41424c455f434f4c4c41544552414c5f524154494f000000000000604082015260600190565b6060840152604051613a18908290611242906020016020808252600f908201526e10d493d4d4d7d3151597d312535255608a1b604082015260600190565b6080840152604051613a64908290611242906020016020808252601b908201527f4d41585f4d41494e54454e414e43455f4d415247494e5f524154450000000000604082015260600190565b60a0840152604051613aa89082906112429060200160208082526015908201527446554e44494e475f4645455f424153455f5241544560581b604082015260600190565b60c0840152604051613aec908290611242906020016020808252601590820152744d41585f46554e44494e475f424153455f5241544560581b604082015260600190565b60e0840152604051613b429082906112429060200160208082526021908201527f54524144494e475f4645455f5354414b494e475f524557415244535f524154496040820152604f60f81b606082015260800190565b610100840152604051613b8f908290611242906020016020808252601e908201527f54524144494e475f4645455f504f4f4c5f524557415244535f524154494f0000604082015260600190565b610120840152604051613be79082906112429060200160208082526022908201527f54524144494e475f4645455f5553445f504f4f4c5f524557415244535f524154604082015261494f60f01b606082015260800190565b610140840152604051613c409082906112429060200160208082526023908201527f424f52524f57494e475f4645455f5354414b494e475f524557415244535f524160408201526254494f60e81b606082015260800190565b610160840152604051613c8b908290611242906020016020808252818101527f424f52524f57494e475f4645455f504f4f4c5f524557415244535f524154494f604082015260600190565b610180840152604051613cd89082906112429060200160208082526019908201527f4155544f5f5245445543455f50524f4649545f464143544f5200000000000000604082015260600190565b6101a0840152604051613d25908290611242906020016020808252601c908201527f4155544f5f5245445543455f4c49515549444954595f464143544f5200000000604082015260600190565b6101c0840152604051613d729082906112429060200160208082526019908201527f535741505f534c49505045525f544f4b454e5f464143544f5200000000000000604082015260600190565b6101e08401525090919050565b6000805b8451811015613e1857836001600160a01b0316858281518110613da857613da8615c6e565b6020026020010151600001516001600160a01b031603613e105782613dea57848181518110613dd957613dd9615c6e565b602002602001015160600151612c08565b848181518110613dfc57613dfc615c6e565b6020026020010151604001519150506103d3565b600101613d83565b50611c468383612cb6565b613e2b615695565b613e33615695565b600080604051602001613e67906020808252600d908201526c53594d424f4c5f434f4e46494760981b604082015260600190565b60408051601f1981840301815291905280516020909101209050613e8c82828761500c565b613e995750909392505050565b613f038186604051602001613ece906020808252600c908201526b4d41585f4c4556455241474560a01b604082015260600190565b60408051601f198184030181528282528051602091820120908301949094528101919091526060810191909152608001610ec7565b8352604051613f3a9082908790613ece906020016020808252600990820152685449434b5f53495a4560b81b604082015260600190565b836020018181525050613f798186604051602001613ece906020808252600d908201526c4f50454e5f4645455f5241544560981b604082015260600190565b836040018181525050613fb98186604051602001613ece906020808252600e908201526d434c4f53455f4645455f5241544560901b604082015260600190565b60608401526040516140079082908790613ece906020016020808252601a908201527f4d41585f4c4f4e475f4f50454e5f494e5445524553545f434150000000000000604082015260600190565b60808401526040516140559082908790613ece906020016020808252601b908201527f4d41585f53484f52545f4f50454e5f494e5445524553545f4341500000000000604082015260600190565b60a084015260405161409c9082908790613ece906020016020808252601690820152751313d391d7d4d213d49517d490551253d7d31253525560521b604082015260600190565b60c08401526040516140ea9082908790613ece906020016020808252601a908201527f4c4f4e475f53484f52545f4f495f424f54544f4d5f4c494d4954000000000000604082015260600190565b60e084015250909392505050565b6000806000614108878787615026565b91509150836141175780611a22565b5095945050505050565b60006103d3614132620186a0612660565b61413c8585615117565b90615123565b60006103d38284615d84565b6000611c4661415d8584614617565b6133f58661416c876002614709565b61512f565b60006141b66040518060e001604052806000815260200160008152602001600060ff168152602001600081526020016000815260200160008152602001600081525090565b6141c88460200151856040015161513f565b606082015260e08401516141fd906141df90612660565b856101c001516080015183606001516141f89190615d64565b615167565b608082015260a084015161421090612cdb565b60ff16604080830191909152840151156142645761424981608001518260400151614244868860a001518960400151613d7f565b61517d565b846101c0015160c0015161425d9190615d84565b8152614280565b8060800151846101c0015160c0015161427d9190615d84565b81525b600061428f85602001516151ab565b6040805160c08101909152815481526001820154909190602083019060ff1660038111156142bf576142bf615c58565b60038111156142d0576142d0615c58565b815260018201546001600160a01b0361010090910481166020830152600283015481166040830152600383015416606082015260048201805460809092019161431890615f92565b80601f016020809104026020016040519081016040528092919081815260200182805461434490615f92565b80156143915780601f1061436657610100808354040283529160200191614391565b820191906000526020600020905b81548152906001019060200180831161437457829003601f168201915b50505050508152505090506143b3816040015186604001518760a001516151f6565b60a08301526101408501516101208601516143fd916143df916143da90620186a090615cf8565b614617565b866101c00151602001518460a001516143f89190615cf8565b615249565b8260c00181815250506144268260c001518360400151612b74878960a001518a604001516145b5565b856101c001516060015161443a9190615ce5565b6020830181905261444a90612660565b82516101c08701515161445c90612660565b6144669190615d84565b6129e29190615d84565b60008080600019858709858702925082811083820303915050806000036144aa578382816144a0576144a0615fcc565b04925050506103d3565b8084116144f15760405162461bcd60e51b81526020600482015260156024820152744d6174683a206d756c446976206f766572666c6f7760581b604482015260640161030d565b60008486880960026001871981018816978890046003810283188082028403028082028403028082028403028082028403028082028403029081029092039091026000889003889004909101858311909403939093029303949094049190911702949350505050565b8151606083015160208401516000929161457391615cf8565b11614580575060006103d3565b825160608401516020850151611c46929161459a91615cf8565b6145a49190615cf8565b6145ad86612cdb565b612b74858860015b6000805b8451811015613e1857836001600160a01b03168582815181106145de576145de615c6e565b6020026020010151600001516001600160a01b03160361460f5782613dea57848181518110613dd957613dd9615c6e565b6001016145b9565b60006103d38383620186a0614470565b600081815260018301602052604081205461466e575081546001818101845560008481526020808220909301849055845484825282860190935260409020919091556117c5565b5060006117c5565b60408051808201909152600080825260208201526000614694611cb0565b604080518082018252600080825260209182018190526001600160a01b038716815260028401825282902082518084019093528054808452600190910154918301919091529192509015806146eb57506020810151155b156103d35760405163907adecd60e01b815260040160405180910390fd5b60006103d38284615fe2565b60006103d38284615ff9565b600080614730836002016127bd565b905060005b815181101561479c57600084600401600084848151811061475857614758615c6e565b60200260200101516001600160a01b03166001600160a01b03168152602001908152602001600020600301541115614794575060019392505050565b600101614735565b5060009392505050565b60606117c5826007016127bd565b600080604051602001611c92906020808252601690820152753c3cbd1732b633349739ba37b930b3b29727b93232b960511b604082015260600190565b60009081526020919091526040902090565b600082600003614815575060006129e2565b6040516370a0823160e01b81526001600160a01b038781166004830152600091908716906370a0823190602401602060405180830381865afa15801561485f573d6000803e3d6000fd5b505050506040513d601f19601f82011682018060405250810190614883919061600d565b90508381106149005760405163078d3b7960e01b81526001600160a01b03878116600483015286811660248301526044820186905288169063078d3b7990606401600060405180830381600087803b1580156148de57600080fd5b505af11580156148f2573d6000803e3d6000fd5b5050505060019150506129e2565b8261494057604051635ac09ed760e11b81526001600160a01b0380891660048301528088166024830152861660448201526064810185905260840161030d565b5060009695505050505050565b60008181526001830160205260408120548015614a36576000614971600183615cf8565b855490915060009061498590600190615cf8565b90508181146149ea5760008660000182815481106149a5576149a5615c6e565b90600052602060002001549050808760000184815481106149c8576149c8615c6e565b6000918252602080832090910192909255918252600188019052604090208390555b85548690806149fb576149fb616026565b6001900381819060005260206000200160009055905585600101600086815260200190815260200160002060009055600193505050506117c5565b60009150506117c5565b5092915050565b6001600160a01b0382166000908152600684016020526040902054811115614abf5760405162461bcd60e51b815260206004820152602560248201527f737562546f6b656e4c696162696c697479206c657373207468616e206c696162604482015264696c69747960d81b606482015260840161030d565b6001600160a01b03821660009081526006840160205260408120805483929061251f908490615cf8565b604080516001600160a01b038581166024830152604480830186905283518084039091018152606490920183526020820180516001600160e01b031663a9059cbb60e01b1790529151600092839182918916908690614b49908690616060565b60006040518083038160008787f1925050503d8060008114614b87576040519150601f19603f3d011682016040523d82523d6000602084013e614b8c565b606091505b509150915081614ba25760009350505050611c46565b60008151118015614bc4575080806020019051810190614bc2919061607c565b155b15614bd55760009350505050611c46565b506001979650505050505050565b6000614c38826040518060400160405280602081526020017f5361666545524332303a206c6f772d6c6576656c2063616c6c206661696c6564815250856001600160a01b031661525e9092919063ffffffff16565b9050805160001480614c59575080806020019051810190614c59919061607c565b6102ac5760405162461bcd60e51b815260206004820152602a60248201527f5361666545524332303a204552433230206f7065726174696f6e20646964206e6044820152691bdd081cdd58d8d9595960b21b606482015260840161030d565b6000818310614cc757816103d3565b5090919050565b6002840154600185015460038601546040805160a06020808301829052601960c08401527f78797a2e656c66692e73746f726167652e506f736974696f6e0000000000000060e0808501919091526201000088046001600160a01b039081168587015260608501979097529590941660808301526101009586900460ff161515908201528151808203909401845290930190925280519101207fee2b9c77532fd89e66e2f431c2001e4bcc30fb5bc62ee9cdac252f89540067ae9084908487604051806101a0016040528087815260200160008152602001600081526020016000815260200160008152602001600081526020016000815260200160008152602001600081526020016000815260200160008152602001600081526020016000815250604051614e0295949392919061609e565b60405180910390a150505050565b600080614e1b6155ae565b60005b8551811015611b2257614e3c86828151811061270957612709615c6e565b6040805161022081018252825481526001830154602080830191909152600284015460ff808216151584860152610100808304909116151560608086019182526001600160a01b036201000090940484166080808801919091526003890154851660a08089019190915260048a015490951660c08089019190915260058a015460e0808a019190915260068b01549589019590955260078a015461012089015260088a015461014089015260098a0154610160890152600a8a0154610180890152600b8a01546101a089015288519485018952600c8a01548552600d8a015496850196909652600e89015497840197909752600f880154908301526010870154958201959095526011860154918101919091526012850154918101919091526101c082015260138301546101e08201526014909201546102008301525190925085151590151503614f9557614f92600184615ce5565b92505b600101614e1e565b6000818152600883016020908152604091829020805483518184028101840190945280845260609392830182828015614fff57602002820191906000526020600020905b81546001600160a01b03168152600190910190602001808311614fe1575b5050505050905092915050565b6000828152600d840160205260408120611c469083612c5b565b6000808460e001516000036150405750600090508061510f565b8460400151156150ad57600061508b61505d876101000151612660565b61413c6150786150718a6101000151612660565b889061526d565b6150858a60e00151612660565b90615117565b90506150a48161509e8860a00151612cdb565b86615279565b9250905061510f565b60006150db6150c0876101000151612660565b61413c615078876150d58b6101000151612660565b9061526d565b905060006150ef868860a001516000613d7f565b9050615108826151028960a00151612cdb565b83615279565b9350909150505b935093915050565b60006103d38284616296565b60006103d382846162c6565b60006103d383620186a084614470565b60008061514b846152ae565b90508261515c576008810154611c46565b600701549392505050565b60006103d3614132670de0b6b3a7640000612660565b6000611c466151906116c485600a615f83565b61413c6151a16402540be400612660565b6150858887615117565b6040805160208101829052601760608201527f78797a2e656c66692e73746f726167652e53796d626f6c0000000000000000006080820152908101829052600090819060a001611822565b60008215615216576000615209856152f9565b6012015491506103d39050565b6000615220615350565b6001600160a01b03841660009081526003820160205260409020909150600201549150506103d3565b60006103d38383670de0b6b3a7640000614470565b6060611c468484600085615394565b60006103d38284615d64565b6000611c4661529661528f6402540be400612660565b8490615117565b61413c6152a76116c487600a615f83565b8790615117565b6040805160208101829052601760608201527f78797a2e656c66692e73746f726167652e4d61726b65740000000000000000006080820152908101829052600090819060a001611822565b60008082604051602001611822919060408082526017908201527f78797a2e656c66692e73746f726167652e4c70506f6f6c00000000000000000060608201526001600160a01b0391909116602082015260800190565b600080604051602001611c929060208082526018908201527f78797a2e656c66692e73746f726167652e557364506f6f6c0000000000000000604082015260600190565b6060824710156153f55760405162461bcd60e51b815260206004820152602660248201527f416464726573733a20696e73756666696369656e742062616c616e636520666f6044820152651c8818d85b1b60d21b606482015260840161030d565b600080866001600160a01b031685876040516154119190616060565b60006040518083038185875af1925050503d806000811461544e576040519150601f19603f3d011682016040523d82523d6000602084013e615453565b606091505b5091509150611a2287838387606083156154ce5782516000036154c7576001600160a01b0385163b6154c75760405162461bcd60e51b815260206004820152601d60248201527f416464726573733a2063616c6c20746f206e6f6e2d636f6e7472616374000000604482015260640161030d565b5081611c46565b611c4683838151156154e35781518083602001fd5b8060405162461bcd60e51b815260040161030d91906162f4565b60405180610160016040528060006001600160a01b03168152602001606081526020016060815260200160608152602001600081526020016000815260200160008152602001600081526020016000815260200160008152602001600081525090565b60405180610120016040528060001515815260200160008152602001600081526020016000815260200160008152602001600081526020016000815260200160008152602001600081525090565b604051806102200160405280600080191681526020016000801916815260200160001515815260200160001515815260200160006001600160a01b0316815260200160006001600160a01b0316815260200160006001600160a01b03168152602001600081526020016000815260200160008152602001600081526020016000815260200160008152602001600081526020016156816040518060e00160405280600081526020016000815260200160008152602001600081526020016000815260200160008152602001600081525090565b815260200160008152602001600081525090565b60405180610100016040528060008152602001600081526020016000815260200160008152602001600081526020016000815260200160008152602001600081525090565b60008083601f8401126156ec57600080fd5b5081356001600160401b0381111561570357600080fd5b6020830191508360208260071b8501011115612b2657600080fd5b60008060006040848603121561573357600080fd5b8335925060208401356001600160401b0381111561575057600080fd5b61575c868287016156da565b9497909650939450505050565b60006020828403121561577b57600080fd5b81356001600160401b0381111561579157600080fd5b8201606081850312156103d357600080fd5b600080604083850312156157b657600080fd5b50508035926020909101359150565b6001600160a01b038116811461025657600080fd5b600080604083850312156157ed57600080fd5b82356157f8816157c5565b946020939093013593505050565b60006020828403121561581857600080fd5b81356103d3816157c5565b60008151808452602080850194506020840160005b8381101561587f5761586c878351805182526020810151602083015260408101516040830152606081015160608301525050565b6080969096019590820190600101615838565b509495945050505050565b60008151808452602080850194506020840160005b8381101561587f5781516001600160a01b03168752958201959082019060010161589f565b60008151808452602080850194506020840160005b8381101561587f578151875295820195908201906001016158d9565b6020815261590f6020820183516001600160a01b03169052565b6000602083015161016080604085015261592d610180850183615823565b91506040850151601f198086850301606087015261594b848361588a565b935060608701519150808685030160808701525061596983826158c4565b925050608085015160a085015260a085015160c085015260c085015160e085015260e0850151610100818187015280870151915050610120818187015280870151915050610140818187015280870151838701525050508091505092915050565b6000806000604084860312156159df57600080fd5b83356159ea816157c5565b925060208401356001600160401b0381111561575057600080fd5b634e487b7160e01b600052604160045260246000fd5b604051606081016001600160401b0381118282101715615a3d57615a3d615a05565b60405290565b604051601f8201601f191681016001600160401b0381118282101715615a6b57615a6b615a05565b604052919050565b600060808284031215615a8557600080fd5b604051608081018181106001600160401b0382111715615aa757615aa7615a05565b6040528235615ab5816157c5565b81526020830135615ac5816157c5565b6020820152604083810135908201526060928301359281019290925250919050565b60006001600160401b03821115615b0057615b00615a05565b5060051b60200190565b600082601f830112615b1b57600080fd5b81356020615b30615b2b83615ae7565b615a43565b8083825260208201915060208460051b870101935086841115615b5257600080fd5b602086015b84811015615b6e5780358352918301918301615b57565b509695505050505050565b600060608236031215615b8b57600080fd5b615b93615a1b565b8235615b9e816157c5565b81526020838101356001600160401b0380821115615bbb57600080fd5b9085019036601f830112615bce57600080fd5b8135615bdc615b2b82615ae7565b81815260059190911b83018401908481019036831115615bfb57600080fd5b938501935b82851015615c22578435615c13816157c5565b82529385019390850190615c00565b80868801525050506040860135925080831115615c3e57600080fd5b5050615c4c36828601615b0a565b60408301525092915050565b634e487b7160e01b600052602160045260246000fd5b634e487b7160e01b600052603260045260246000fd5b81516001600160a01b0390811682526020808401519091169082015260408083015190820152606081016117c5565b634e487b7160e01b600052601160045260246000fd5b6000600160ff1b8201615cde57615cde615cb3565b5060000390565b808201808211156117c5576117c5615cb3565b818103818111156117c5576117c5615cb3565b81516001600160a01b0390811682526020808401519091169082015260408083015190820152606082015160a082019060048110615d4b57615d4b615c58565b8060608401525060808301511515608083015292915050565b8181036000831280158383131683831282161715614a4057614a40615cb3565b8082018281126000831280158216821582161715615da457615da4615cb3565b505092915050565b600060208284031215615dbe57600080fd5b81516103d3816157c5565b600f8110615dd957615dd9615c58565b9052565b6001600160a01b038681168252851660208201526101608101615e246040830186805182526020810151602083015260408101516040830152606081015160608301525050565b835460c0830152600184015460e083015260028401546101008301526003840154610120830152615e59610140830184615dc9565b9695505050505050565b600060018201615e7557615e75615cb3565b5060010190565b600060208284031215615e8e57600080fd5b815160ff811681146103d357600080fd5b600181815b80851115615eda578160001904821115615ec057615ec0615cb3565b80851615615ecd57918102915b93841c9390800290615ea4565b509250929050565b600082615ef1575060016117c5565b81615efe575060006117c5565b8160018114615f145760028114615f1e57615f3a565b60019150506117c5565b60ff841115615f2f57615f2f615cb3565b50506001821b6117c5565b5060208310610133831016604e8410600b8410161715615f5d575081810a6117c5565b615f678383615e9f565b8060001904821115615f7b57615f7b615cb3565b029392505050565b60006103d360ff841683615ee2565b600181811c90821680615fa657607f821691505b602082108103615fc657634e487b7160e01b600052602260045260246000fd5b50919050565b634e487b7160e01b600052601260045260246000fd5b80820281158282048414176117c5576117c5615cb3565b60008261600857616008615fcc565b500490565b60006020828403121561601f57600080fd5b5051919050565b634e487b7160e01b600052603160045260246000fd5b60005b8381101561605757818101518382015260200161603f565b50506000910152565b6000825161607281846020870161603c565b9190910192915050565b60006020828403121561608e57600080fd5b815180151581146103d357600080fd5b858152602081018590526104e08101600985106160bd576160bd615c58565b846040830152835460608301526001840154608083015260028401546160ea60a0840160ff831615159052565b6160fe60c0840160ff8360081c1615159052565b6001600160a01b03601082901c1660e08401525060038401546001600160a01b03166001600160a01b0381166101008401525060048401546001600160a01b03166001600160a01b0381166101208401525060058401546101408301526006840154610160830152600784015461018083015260088401546101a083015260098401546101c0830152600a8401546101e0830152600b840154610200830152600c840154610220830152600d840154610240830152600e840154610260830152600f84015461028083015260108401546102a083015260118401546102c083015260128401546102e08301526013840154610300830152601484015461032083015282516103408301526020830151610360830152604083015161038083015260608301516103a083015260808301516103c083015260a08301516103e083015260c083015161040083015260e08301516104208301526101008301516104408301526101208301516104608301526101408301516104808301526101608301516104a08301526101808301516104c0830152615e59565b80820260008212600160ff1b841416156162b2576162b2615cb3565b81810583148215176117c5576117c5615cb3565b6000826162d5576162d5615fcc565b600160ff1b8214600019841416156162ef576162ef615cb3565b500590565b602081526000825180602084015261631381604085016020870161603c565b601f01601f1916919091016040019291505056fea264697066735822122055483a83e43c152bb3febc6db0e0df18cccb5d49cbafb13f23597d15f6d3266564736f6c634300081900336080604052348015600f57600080fd5b50610ffc8061001f6000396000f3fe608060405234801561001057600080fd5b506004361061002b5760003560e01c80631f931c1c14610030575b600080fd5b61004361003e366004610a42565b610045565b005b6100566420a226a4a760d91b6100a7565b6100a06100638587610b88565b8484848080601f0160208091040260200160405190810160405280939291908181526020018383808284376000920191909152506100df92505050565b5050505050565b6100b13382610284565b6100dc57604051632d7d0e0d60e21b8152336004820152602481018290526044015b60405180910390fd5b50565b60005b83518110156102395760008482815181106100ff576100ff610ccc565b6020026020010151604001519050600085838151811061012157610121610ccc565b6020026020010151600001519050815160000361015c5760405163e767f91f60e01b81526001600160a01b03821660048201526024016100d3565b600086848151811061017057610170610ccc565b60200260200101516020015190506000600281111561019157610191610ce2565b8160028111156101a3576101a3610ce2565b036101b7576101b282846102c2565b61022e565b60018160028111156101cb576101cb610ce2565b036101da576101b28284610481565b60028160028111156101ee576101ee610ce2565b036101fd576101b282846105fe565b80600281111561020f5761020f610ce2565b604051633ff4d20f60e11b815260ff90911660048201526024016100d3565b5050506001016100e2565b507f8faa70878671ccd212d20771b795c50af8fd3ff6cf27f4bde57e5d4de0aeb67383838360405161026d93929190610d48565b60405180910390a161027f828261088d565b505050565b60008061028f610953565b6001600160a01b03851660009081526020828152604080832087845260010190915290205490915015155b949350505050565b6001600160a01b0382166102eb57806040516302b8da0760e21b81526004016100d39190610e4b565b7fdab92b47c5ad1b8db72bf159fe8f1c5404b027a749c8120fa1db90a19db4324f54604080516060810190915260248082527fdab92b47c5ad1b8db72bf159fe8f1c5404b027a749c8120fa1db90a19db4324e929161035491869190610f5360208301396109b5565b60005b83518110156100a057600084828151811061037457610374610ccc565b6020908102919091018101516001600160e01b031981166000908152918690526040909120549091506001600160a01b031680156103c7578160405163ebbf5d0760e01b81526004016100d39190610e99565b6040805180820182526001600160a01b03808a16825261ffff80881660208085019182526001600160e01b0319881660009081528b8252958620945185549251909316600160a01b026001600160b01b0319909216929093169190911717909155600180880180549182018155835291206008820401805460e085901c60046007909416939093026101000a92830263ffffffff90930219169190911790558361047081610ec4565b945050600190920191506103579050565b7fdab92b47c5ad1b8db72bf159fe8f1c5404b027a749c8120fa1db90a19db4324e6001600160a01b0383166104cb578160405163cd98a96f60e01b81526004016100d39190610e4b565b6104ed83604051806060016040528060288152602001610f9f602891396109b5565b60005b82518110156105f857600083828151811061050d5761050d610ccc565b6020908102919091018101516001600160e01b031981166000908152918590526040909120549091506001600160a01b03163081036105615781604051632901806d60e11b81526004016100d39190610e99565b856001600160a01b0316816001600160a01b0316036105955781604051631ac6ce8d60e11b81526004016100d39190610e99565b6001600160a01b0381166105be5781604051637479f93960e01b81526004016100d39190610e99565b506001600160e01b031916600090815260208390526040902080546001600160a01b0319166001600160a01b0386161790556001016104f0565b50505050565b7fdab92b47c5ad1b8db72bf159fe8f1c5404b027a749c8120fa1db90a19db4324f547fdab92b47c5ad1b8db72bf159fe8f1c5404b027a749c8120fa1db90a19db4324e906001600160a01b038416156106755760405163d091bc8160e01b81526001600160a01b03851660048201526024016100d3565b60005b83518110156100a057600084828151811061069557610695610ccc565b6020908102919091018101516001600160e01b0319811660009081528683526040908190208151808301909252546001600160a01b038116808352600160a01b90910461ffff1693820193909352909250906107065781604051637a08a22d60e01b81526004016100d39190610e99565b8051306001600160a01b03909116036107345781604051630df5fd6160e31b81526004016100d39190610e99565b8361073e81610ee5565b94505083816020015161ffff161461081c57600085600101858154811061076757610767610ccc565b90600052602060002090600891828204019190066004029054906101000a900460e01b90508086600101836020015161ffff16815481106107aa576107aa610ccc565b600091825260208083206008830401805463ffffffff60079094166004026101000a938402191660e09590951c92909202939093179055838201516001600160e01b03199390931681529087905260409020805461ffff60a01b1916600160a01b61ffff909316929092029190911790555b8460010180548061082f5761082f610efc565b60008281526020808220600860001990940193840401805463ffffffff600460078716026101000a0219169055919092556001600160e01b0319909316815291859052506040902080546001600160b01b0319169055600101610678565b6001600160a01b03821661089f575050565b6108c182604051806060016040528060288152602001610f77602891396109b5565b600080836001600160a01b0316836040516108dc9190610f12565b600060405180830381855af49150503d8060008114610917576040519150601f19603f3d011682016040523d82523d6000602084013e61091c565b606091505b5091509150816105f8578051156109365780518082602001fd5b838360405163192105d760e01b81526004016100d3929190610f2e565b600080604051602001610997906020808252601e908201527f78797a2e656c66692e73746f726167652e416363657373436f6e74726f6c0000604082015260600190565b60408051601f19818403018152919052805160209091012092915050565b813b600081900361027f57828260405163919834b960e01b81526004016100d3929190610f2e565b80356001600160a01b03811681146109f457600080fd5b919050565b60008083601f840112610a0b57600080fd5b50813567ffffffffffffffff811115610a2357600080fd5b602083019150836020828501011115610a3b57600080fd5b9250929050565b600080600080600060608688031215610a5a57600080fd5b853567ffffffffffffffff80821115610a7257600080fd5b818801915088601f830112610a8657600080fd5b813581811115610a9557600080fd5b8960208260051b8501011115610aaa57600080fd5b60208301975080965050610ac0602089016109dd565b94506040880135915080821115610ad657600080fd5b50610ae3888289016109f9565b969995985093965092949392505050565b634e487b7160e01b600052604160045260246000fd5b6040516060810167ffffffffffffffff81118282101715610b2d57610b2d610af4565b60405290565b604051601f8201601f1916810167ffffffffffffffff81118282101715610b5c57610b5c610af4565b604052919050565b600067ffffffffffffffff821115610b7e57610b7e610af4565b5060051b60200190565b6000610b9b610b9684610b64565b610b33565b83815260208082019190600586811b860136811115610bb957600080fd5b865b81811015610cbf57803567ffffffffffffffff80821115610bdc5760008081fd5b818a01915060608236031215610bf25760008081fd5b610bfa610b0a565b610c03836109dd565b81528683013560038110610c175760008081fd5b8188015260408381013583811115610c2f5760008081fd5b939093019236601f850112610c4657600092508283fd5b83359250610c56610b9684610b64565b83815292871b84018801928881019036851115610c735760008081fd5b948901945b84861015610ca85785356001600160e01b031981168114610c995760008081fd5b82529489019490890190610c78565b918301919091525088525050948301948301610bbb565b5092979650505050505050565b634e487b7160e01b600052603260045260246000fd5b634e487b7160e01b600052602160045260246000fd5b60005b83811015610d13578181015183820152602001610cfb565b50506000910152565b60008151808452610d34816020860160208601610cf8565b601f01601f19169290920160200192915050565b60006060808301606084528087518083526080925060808601915060808160051b8701016020808b0160005b84811015610e1b57898403607f19018652815180516001600160a01b03168552838101518986019060038110610dba57634e487b7160e01b600052602160045260246000fd5b868601526040918201519186018a905281519081905290840190600090898701905b80831015610e065783516001600160e01b0319168252928601926001929092019190860190610ddc565b50978501979550505090820190600101610d74565b50506001600160a01b038a16908801528681036040880152610e3d8189610d1c565b9a9950505050505050505050565b6020808252825182820181905260009190848201906040850190845b81811015610e8d5783516001600160e01b03191683529284019291840191600101610e67565b50909695505050505050565b6001600160e01b031991909116815260200190565b634e487b7160e01b600052601160045260246000fd5b600061ffff808316818103610edb57610edb610eae565b6001019392505050565b600081610ef457610ef4610eae565b506000190190565b634e487b7160e01b600052603160045260246000fd5b60008251610f24818460208701610cf8565b9190910192915050565b6001600160a01b03831681526040602082018190526000906102ba90830184610d1c56fe4c69624469616d6f6e644375743a2041646420666163657420686173206e6f20636f64654c69624469616d6f6e644375743a205f696e6974206164647265737320686173206e6f20636f64654c69624469616d6f6e644375743a205265706c61636520666163657420686173206e6f20636f6465a26469706673582212206992cacaf3e17b14e83720998106ebccbb9e11577a2ce3f41d9ee27f3a921f2164736f6c634300081900336080604052348015600f57600080fd5b50610a498061001f6000396000f3fe608060405234801561001057600080fd5b50600436106100575760003560e01c806301ffc9a71461005c57806352ef6b2c146100bd5780637a0ed627146100d2578063adfca15e146100e7578063cdffacc614610107575b600080fd5b6100a861006a3660046107f8565b6001600160e01b03191660009081527fdab92b47c5ad1b8db72bf159fe8f1c5404b027a749c8120fa1db90a19db43250602052604090205460ff1690565b60405190151581526020015b60405180910390f35b6100c561015f565b6040516100b49190610829565b6100da6102ec565b6040516100b491906108bc565b6100fa6100f536600461093b565b6106ba565b6040516100b49190610964565b6101476101153660046107f8565b6001600160e01b03191660009081526000805160206109f483398151915260205260409020546001600160a01b031690565b6040516001600160a01b0390911681526020016100b4565b7fdab92b47c5ad1b8db72bf159fe8f1c5404b027a749c8120fa1db90a19db4324f546060906000805160206109f4833981519152908067ffffffffffffffff8111156101ad576101ad610977565b6040519080825280602002602001820160405280156101d6578160200160208202803683370190505b5092506000805b828110156102e25760008460010182815481106101fc576101fc61098d565b6000918252602080832060088304015460079092166004026101000a90910460e01b6001600160e01b0319811683529087905260408220549092506001600160a01b031690805b8581101561028e5788818151811061025d5761025d61098d565b60200260200101516001600160a01b0316836001600160a01b031603610286576001915061028e565b600101610243565b50801561029e57506102da915050565b818886815181106102b1576102b161098d565b6001600160a01b0390921660209283029190910190910152846102d3816109b9565b9550505050505b6001016101dd565b5080845250505090565b7fdab92b47c5ad1b8db72bf159fe8f1c5404b027a749c8120fa1db90a19db4324f546060906000805160206109f4833981519152908067ffffffffffffffff81111561033a5761033a610977565b60405190808252806020026020018201604052801561038057816020015b6040805180820190915260008152606060208201528152602001906001900390816103585790505b50925060008167ffffffffffffffff81111561039e5761039e610977565b6040519080825280602002602001820160405280156103c7578160200160208202803683370190505b5090506000805b838110156106525760008560010182815481106103ed576103ed61098d565b6000918252602080832060088304015460079092166004026101000a90910460e01b6001600160e01b0319811683529088905260408220549092506001600160a01b031690805b8581101561052057826001600160a01b03168a82815181106104585761045861098d565b6020026020010151600001516001600160a01b03160361051857838a82815181106104855761048561098d565b6020026020010151602001518883815181106104a3576104a361098d565b602002602001015161ffff16815181106104bf576104bf61098d565b60200260200101906001600160e01b03191690816001600160e01b031916815250508681815181106104f3576104f361098d565b602002602001018051809190610508906109d2565b61ffff1690525060019150610520565b600101610434565b508015610530575061064a915050565b818986815181106105435761054361098d565b60209081029190910101516001600160a01b0390911690528667ffffffffffffffff81111561057457610574610977565b60405190808252806020026020018201604052801561059d578160200160208202803683370190505b508986815181106105b0576105b061098d565b602002602001015160200181905250828986815181106105d2576105d261098d565b6020026020010151602001516000815181106105f0576105f061098d565b60200260200101906001600160e01b03191690816001600160e01b0319168152505060018686815181106106265761062661098d565b61ffff9092166020928302919091019091015284610643816109b9565b9550505050505b6001016103ce565b5060005b818110156106af5760008382815181106106725761067261098d565b602002602001015161ffff16905060008783815181106106945761069461098d565b60209081029190910181015101519190915250600101610656565b508085525050505090565b7fdab92b47c5ad1b8db72bf159fe8f1c5404b027a749c8120fa1db90a19db4324f546060906000805160206109f48339815191529060008167ffffffffffffffff81111561070a5761070a610977565b604051908082528060200260200182016040528015610733578160200160208202803683370190505b50935060005b828110156107ed5760008460010182815481106107585761075861098d565b6000918252602080832060088304015460079092166004026101000a90910460e01b6001600160e01b031981168352908790526040909120549091506001600160a01b039081169088168190036107e357818785815181106107bc576107bc61098d565b6001600160e01b031990921660209283029190910190910152836107df816109b9565b9450505b5050600101610739565b508352509092915050565b60006020828403121561080a57600080fd5b81356001600160e01b03198116811461082257600080fd5b9392505050565b6020808252825182820181905260009190848201906040850190845b8181101561086a5783516001600160a01b031683529284019291840191600101610845565b50909695505050505050565b60008151808452602080850194506020840160005b838110156108b15781516001600160e01b0319168752958201959082019060010161088b565b509495945050505050565b600060208083018184528085518083526040925060408601915060408160051b87010184880160005b8381101561092d57888303603f19018552815180516001600160a01b0316845287015187840187905261091a87850182610876565b95880195935050908601906001016108e5565b509098975050505050505050565b60006020828403121561094d57600080fd5b81356001600160a01b038116811461082257600080fd5b6020815260006108226020830184610876565b634e487b7160e01b600052604160045260246000fd5b634e487b7160e01b600052603260045260246000fd5b634e487b7160e01b600052601160045260246000fd5b6000600182016109cb576109cb6109a3565b5060010190565b600061ffff8083168181036109e9576109e96109a3565b600101939250505056fedab92b47c5ad1b8db72bf159fe8f1c5404b027a749c8120fa1db90a19db4324ea264697066735822122043e71b8fa4cc404a75203a926486c6d8bd1f51b9ecd0c7baee691a94a97e903464736f6c634300081900336080604052348015600f57600080fd5b50600160005561da2b806100246000396000f3fe60806040526004361061004e5760003560e01c806322dabfa51461005a5780634b05360a1461007c57806389e74c0a146100a257806395083527146100c2578063b68fb020146100ef57600080fd5b3661005557005b600080fd5b34801561006657600080fd5b5061007a61007536600461cbe2565b61010f565b005b61008f61008a36600461cc61565b610475565b6040519081526020015b60405180910390f35b6100b56100b036600461cc74565b6105de565b604051610099919061ccea565b3480156100ce57600080fd5b506100e26100dd36600461cd4e565b6108b5565b604051610099919061ce9d565b3480156100fb57600080fd5b5061007a61010a36600461ceeb565b610b84565b60005a90506101266525a2a2a822a960d11b610fc3565b600061013185610ff6565b604080516102208101825282546001600160a01b031681526001830154602082015260028084015491939284019160ff16908111156101725761017261cd6b565b60028111156101835761018361cd6b565b81526020016002820160019054906101000a900460ff1660028111156101ab576101ab61cd6b565b60028111156101bc576101bc61cd6b565b81526020016002820160029054906101000a900460ff1660038111156101e4576101e461cd6b565b60038111156101f5576101f561cd6b565b81526020016002820160039054906101000a900460ff16600281111561021d5761021d61cd6b565b600281111561022e5761022e61cd6b565b8152600282015460ff600160201b8204811615156020840152600160281b820416151560408301526001600160a01b03600160301b9091048116606083015260038301546080830152600483015460a0830152600583015460c0830152600683015460e0830152600783015461010083015260088301546101208301526009830154610140830152600a90920154610160909101528151919250166102ee57604051636f23541360e01b8152600481018690526024015b60405180910390fd5b6103498484808060200260200160405190810160405280939291908181526020016000905b8282101561033f576103306080830286013681900381019061cf5b565b81526020019060010190610313565b5050505050611012565b6103538582611192565b61035b611316565b61046e6040518060a001604052808360e001516103d957306001600160a01b0316631f7592ea6040518163ffffffff1660e01b8152600401602060405180830381865afa1580156103b0573d6000803e3d6000fd5b505050506040513d601f19601f820116820180604052508101906103d4919061cfde565b61043b565b306001600160a01b03166397e7b7f26040518163ffffffff1660e01b8152600401602060405180830381865afa158015610417573d6000803e3d6000fd5b505050506040513d601f19601f8201168201806040525081019061043b919061cfde565b6001600160a01b0390811682526101e0850151602083015260408201869052336060830152845116608090910152611328565b5050505050565b600061047f6113d1565b33600161049260a085016080860161d013565b60028111156104a3576104a361cd6b565b1480156104bd57506104bb604084016020850161d049565b155b156105a4576104d2606084016040850161d049565b15806104e2575082610120013534145b6105395760405162461bcd60e51b815260206004820152602260248201527f4465706f736974206e617469766520746f6b656e20616d6f756e74206572726f604482015261722160f01b60648201526084016102e5565b6105a26040518060a00160405280836001600160a01b031681526020018560e0016020810190610569919061cd4e565b6001600160a01b03168152610120860135602082015260400160018152602001610599606087016040880161d049565b1515905261142a565b505b60006105af826116cd565b90506105cb816105c43687900387018761d075565b600161170a565b925050506105d96001600055565b919050565b60606105e86113d1565b3360006105f4826116cd565b9050600080610601611a64565b90506000878760008181106106185761061861d161565b90506101e002016020016020810190610631919061d049565b90508667ffffffffffffffff81111561064c5761064c61cf0d565b604051908082528060200260200182016040528015610675578160200160208202803683370190505b50955060005b878110156107dd5760018989838181106106975761069761d161565b90506101e0020160800160208101906106b0919061d013565b60028111156106c1576106c161cd6b565b036106df57604051630af64c0b60e01b815260040160405180910390fd5b8888828181106106f1576106f161d161565b90506101e00201602001602081019061070a919061d049565b15158215151461072d57604051632a61948760e01b815260040160405180910390fd5b6107588989838181106107425761074261d161565b90506101e002016101a001358460800151611e74565b61078c858a8a8481811061076e5761076e61d161565b90506101e00201803603810190610785919061d075565b600061170a565b87828151811061079e5761079e61d161565b6020026020010181815250508888828181106107bc576107bc61d161565b90506101e002016101a00135846107d3919061d18d565b935060010161067b565b508234146108415760405162461bcd60e51b815260206004820152602b60248201527f426174636820706c616365206f72646572207769746820657865637574696f6e60448201526a20666565206572726f722160a81b60648201526084016102e5565b6040805160a08101825285546001600160a01b039081168252845116602082015290810184905261089f90606081018361087c57600161087f565b60005b60038111156108905761089061cd6b565b8152600160209091015261142a565b5050505050506108af6001600055565b92915050565b606060006108c283611ea2565b90506108d781546001600160a01b0316151590565b15610b7e5760006108e782611f18565b9050805167ffffffffffffffff8111156109035761090361cf0d565b60405190808252806020026020018201604052801561093c57816020015b61092961c817565b8152602001906001900390816109215790505b5092506000610949611f26565b905060005b8251811015610b7a578281815181106109695761096961d161565b60200260200101518582815181106109835761098361d161565b602002602001015160000181815250506109bf8382815181106109a8576109a861d161565b602002602001015183611f8190919063ffffffff16565b604080516102208101825282546001600160a01b031681526001830154602082015260028084015491939284019160ff1690811115610a0057610a0061cd6b565b6002811115610a1157610a1161cd6b565b81526020016002820160019054906101000a900460ff166002811115610a3957610a3961cd6b565b6002811115610a4a57610a4a61cd6b565b81526020016002820160029054906101000a900460ff166003811115610a7257610a7261cd6b565b6003811115610a8357610a8361cd6b565b81526020016002820160039054906101000a900460ff166002811115610aab57610aab61cd6b565b6002811115610abc57610abc61cd6b565b8152600282015460ff600160201b8204811615156020840152600160281b820416151560408301526001600160a01b03600160301b90910416606082015260038201546080820152600482015460a0820152600582015460c0820152600682015460e0820152600782015461010082015260088201546101208201526009820154610140820152600a90910154610160909101528551869083908110610b6457610b6461d161565b602090810291909101810151015260010161094e565b5050505b50919050565b60005a90506000610b9484610ff6565b604080516102208101825282546001600160a01b031681526001830154602082015260028084015491939284019160ff1690811115610bd557610bd561cd6b565b6002811115610be657610be661cd6b565b81526020016002820160019054906101000a900460ff166002811115610c0e57610c0e61cd6b565b6002811115610c1f57610c1f61cd6b565b81526020016002820160029054906101000a900460ff166003811115610c4757610c4761cd6b565b6003811115610c5857610c5861cd6b565b81526020016002820160039054906101000a900460ff166002811115610c8057610c8061cd6b565b6002811115610c9157610c9161cd6b565b8152600282015460ff600160201b8204811615156020840152600160281b820416151560408301526001600160a01b03600160301b9091048116606083015260038301546080830152600483015460a0830152600583015460c0830152600683015460e0830152600783015461010083015260088301546101208301526009830154610140830152600a9092015461016090910152815191925016610d4c57604051636f23541360e01b8152600481018590526024016102e5565b6000610d606525a2a2a822a960d11b611f93565b905080158015610d7a575081516001600160a01b03163314155b15610d9b57604051636f23541360e01b8152600481018690526024016102e5565b610da6858386611f9f565b8015610ec457610ebf6040518060a001604052808460e00151610e2a57306001600160a01b0316631f7592ea6040518163ffffffff1660e01b8152600401602060405180830381865afa158015610e01573d6000803e3d6000fd5b505050506040513d601f19601f82011682018060405250810190610e25919061cfde565b610e8c565b306001600160a01b03166397e7b7f26040518163ffffffff1660e01b8152600401602060405180830381865afa158015610e68573d6000803e3d6000fd5b505050506040513d601f19601f82011682018060405250810190610e8c919061cfde565b6001600160a01b0390811682526101e0860151602083015260408201879052336060830152855116608090910152611328565b61046e565b610faf8260e00151610f3757306001600160a01b0316631f7592ea6040518163ffffffff1660e01b8152600401602060405180830381865afa158015610f0e573d6000803e3d6000fd5b505050506040513d601f19601f82011682018060405250810190610f32919061cfde565b610f99565b306001600160a01b03166397e7b7f26040518163ffffffff1660e01b8152600401602060405180830381865afa158015610f75573d6000803e3d6000fd5b505050506040513d601f19601f82011682018060405250810190610f99919061cfde565b610fa1611a64565b516101e085015130906120ea565b5061046e8260000151836101e00151612103565b610fcd3382612175565b610ff357604051632d7d0e0d60e21b8152336004820152602481018290526044016102e5565b50565b600080611001611f26565b600093845260205250506040902090565b600061101c6121a5565b905060005b825181101561118d5760006001600160a01b03168382815181106110475761104761d161565b6020026020010151602001516001600160a01b0316036110e6576110e18382815181106110765761107661d161565b602002602001015160000151604051806040016040528086858151811061109f5761109f61d161565b60200260200101516040015181526020018685815181106110c2576110c261d161565b602002602001015160600151815250846121e99092919063ffffffff16565b611185565b6111858382815181106110fb576110fb61d161565b6020026020010151600001518483815181106111195761111961d161565b60200260200101516020015160405180604001604052808786815181106111425761114261d161565b60200260200101516040015181526020018786815181106111655761116561d161565b60200260200101516060015181525085612231909392919063ffffffff16565b600101611021565b505050565b60006111a182602001516122ae565b6040805160c08101909152815481526001820154909190602083019060ff1660038111156111d1576111d161cd6b565b60038111156111e2576111e261cd6b565b815260018201546001600160a01b0361010090910481166020830152600283015481166040830152600383015416606082015260048201805460809092019161122a9061d1a0565b80601f01602080910402602001604051908101604052809291908181526020018280546112569061d1a0565b80156112a35780601f10611278576101008083540402835291602001916112a3565b820191906000526020600020905b81548152906001019060200180831161128657829003601f168201915b50505050508152505090506112b882826122f9565b816060015160028111156112ce576112ce61cd6b565b6001036112e5576112e08383836124b4565b61130d565b816060015160028111156112fb576112fb61cd6b565b60020361130d5761130d8383836129ba565b61118d83612b43565b6113266113216121a5565b612bb8565b565b60005a826040015161133a919061d1d4565b905060006113483a8361d1e7565b90506000808460200151831115611371576020850151925061136a838061d1d4565b9050611384565b828560200151611381919061d1d4565b91505b845161139f90611392611a64565b51602088015130906120ea565b506113ae856060015184612103565b81156113c2576113c2856080015183612103565b801561046e5761046e81612caf565b6002600054036114235760405162461bcd60e51b815260206004820152601f60248201527f5265656e7472616e637947756172643a207265656e7472616e742063616c6c0060448201526064016102e5565b6002600055565b6000803090506000836060015160038111156114485761144861cd6b565b15806114695750836060015160038111156114655761146561cd6b565b6003145b156114d757816001600160a01b0316631f7592ea6040518163ffffffff1660e01b8152600401602060405180830381865afa1580156114ac573d6000803e3d6000fd5b505050506040513d601f19601f820116820180604052508101906114d0919061cfde565b90506115b4565b836060015160038111156114ed576114ed61cd6b565b60010361153257816001600160a01b03166397e7b7f26040518163ffffffff1660e01b8152600401602060405180830381865afa1580156114ac573d6000803e3d6000fd5b836060015160038111156115485761154861cd6b565b6002036115b457816001600160a01b03166308ba026f6040518163ffffffff1660e01b8152600401602060405180830381865afa15801561158d573d6000803e3d6000fd5b505050506040513d601f19601f820116820180604052508101906115b1919061cfde565b90505b60208401516080850151156116a85760006115cd611a64565b60000151905085602001516001600160a01b0316816001600160a01b0316146116385760405162461bcd60e51b815260206004820152601960248201527f4465706f736974207769746820746f6b656e206572726f72210000000000000060448201526064016102e5565b806001600160a01b031663d0e30db087604001516040518263ffffffff1660e01b81526004016000604051808303818588803b15801561167757600080fd5b505af115801561168b573d6000803e3d6000fd5b50505050508091506116a282848860400151612d28565b506116c5565b845160408601516116c5916001600160a01b038416918590612d86565b949350505050565b6000806116d983611ea2565b80549091506001600160a01b03166108af5780546001600160a01b0319166001600160a01b03841617815592915050565b600061171583612de0565b60018360800151600281111561172d5761172d61cd6b565b14801561174f575060028360600151600281111561174d5761174d61cd6b565b145b801561179c57508354835160e08501516020860151611779936001600160a01b031692919061313c565b8061179c575061179c61178b85611f18565b845160e086015160208701516131df565b156117c0578251604051635741f0f360e11b815260048101919091526024016102e5565b600080836117d9578461012001518560200151156117e3565b6117e386866132d7565b9150915060006118127f79e09cdc552bc78c88e5ab90ccaf8e7890a579e25dab448d63f13eb7484e65b4613460565b9050600061181f82610ff6565b885481546001600160a01b0319166001600160a01b0390911617815587516001808301919091556060890151600280840180549495509193919260ff19909216919084908111156118725761187261cd6b565b021790555086608001518160020160016101000a81548160ff021916908360028111156118a1576118a161cd6b565b021790555060a087015160028201805462ff00001916620100008360038111156118cd576118cd61cd6b565b021790555060e0870151600280830180546001600160a01b03909316600160301b026601000000000000600160d01b0319841681178255600585018890556101008b015160038601556101608b015160068601556101808b0151600786015560c08b015193919263ff0000001990911665ffff01000000600160d01b03199092169190911790630100000090849081111561196a5761196a61cd6b565b0217905550602087015160028201805465ffff000000001916600160201b9215159290920265ff0000000000191691909117600160281b851515021790556101a0870151600982015561014087015160048201556101c087015160088201556119d16134c0565b600a820155608087015160028111156119ec576119ec61cd6b565b6001148015611a0657506002810154600160201b900460ff165b15611a1557611a158885613546565b611a1f88836135b5565b817fc61695483179d2285a7b30354e7a5c972bae45021aa266a8e7939b30c770534d82604051611a4f919061d1fe565b60405180910390a250925050505b9392505050565b611abc60405180610120016040528060006001600160a01b0316815260200160008152602001600081526020016000815260200160008152602001600081526020016000815260200160008152602001600081525090565b600080604051602001611aef906020808252600c908201526b434841494e5f434f4e46494760a01b604082015260600190565b604051602081830303815290604052805190602001209050611b9181604051602001611b3c906020808252600d908201526c2ba920a82822a92faa27a5a2a760991b604082015260600190565b60405160208183030381529060405280519060200120604051602001611b6c929190918252602082015260400190565b60405160208183030381529060405280519060200120836135d390919063ffffffff16565b6001600160a01b03168352604051611c2d908290611bd8906020016020808252601290820152711352539517d1d054d7d1915157d31253525560721b604082015260600190565b60405160208183030381529060405280519060200120604051602001611c08929190918252602082015260400190565b60405160208183030381529060405280519060200120836135f290919063ffffffff16565b836020018181525050611c7281604051602001611bd89060208082526014908201527314915111515357d1d054d7d1915157d31253525560621b604082015260600190565b836040018181525050611ccb81604051602001611bd89060208082526022908201527f504c4143455f494e4352454153455f4f524445525f4741535f4645455f4c494d604082015261125560f21b606082015260800190565b6060840152604051611d22908290611bd89060200160208082526022908201527f504c4143455f44454352454153455f4f524445525f4741535f4645455f4c494d604082015261125560f21b606082015260800190565b6080840152604051611d7b908290611bd89060200160208082526024908201527f504f534954494f4e5f5550444154455f4d415247494e5f4741535f4645455f4c6040820152631253525560e21b606082015260800190565b60a0840152604051611dd6908290611bd89060200160208082526026908201527f504f534954494f4e5f5550444154455f4c455645524147455f4741535f46454560408201526517d31253525560d21b606082015260800190565b60c0840152604051611e1b908290611bd89060200160208082526016908201527515d2551211149055d7d1d054d7d1915157d31253525560521b604082015260600190565b60e0840152604051611e67908290611bd8906020016020808252601b908201527f434c41494d5f524557415244535f4741535f4645455f4c494d49540000000000604082015260600190565b6101008401525090919050565b611e7e3a8261d1e7565b821015611e9e576040516369343e3760e11b815260040160405180910390fd5b5050565b60008082604051602001611ef9919060408082526018908201527f78797a2e656c66692e73746f726167652e4163636f756e74000000000000000060608201526001600160a01b0391909116602082015260800190565b60408051601f1981840301815291905280516020909101209392505050565b60606108af82600701613605565b600080604051602001611f63906020808252601690820152753c3cbd1732b633349739ba37b930b3b29727b93232b960511b604082015260600190565b60408051601f19818403018152919052805160209091012092915050565b60009081526020919091526040902090565b60006108af3383612175565b6000611fae8360000151611ea2565b9050611fba8185613612565b611fc384612b43565b82606001516002811115611fd957611fd961cd6b565b6001148015611fe957508260c001515b1561200457610160830151611fff90829061361f565b6120aa565b8260600151600281111561201a5761201a61cd6b565b600114801561202b57508260c00151155b156120aa576120a8306001600160a01b03166397e7b7f26040518163ffffffff1660e01b8152600401602060405180830381865afa158015612071573d6000803e3d6000fd5b505050506040513d601f19601f82011682018060405250810190612095919061cfde565b61010085015185516101608701516120ea565b505b837fa2bce5ff82d63e38ec31c6270a397e7cae4d5ed319bd73e318d4916d4ff6866884846040516120dc92919061d2fc565b60405180910390a250505050565b60006120fa858585856000613699565b95945050505050565b600061210d611a64565b51604051632e1a7d4d60e01b8152600481018490529091506001600160a01b03821690632e1a7d4d90602401600060405180830381600087803b15801561215357600080fd5b505af1158015612167573d6000803e3d6000fd5b5050505061118d83836137d6565b600080612180613879565b6001600160a01b03851660009081526020829052604090209091506116c590846138bd565b600080604051602001611f63906020808252601c908201527f78797a2e656c66692e73746f726167652e4f7261636c65507269636500000000604082015260600190565b6121f383836138d5565b6122035761220183836138f7565b505b6001600160a01b03909116600090815260029092016020908152604090922081518155910151600190910155565b604080516001600160a01b03858116602080840191909152908516828401528251808303840181526060909201909252805191012061227360048601826138bd565b61228657612284600486018261390c565b505b6000908152600690940160209081526040909420815181559301516001909301929092555050565b6040805160208101829052601760608201527f78797a2e656c66692e73746f726167652e53796d626f6c0000000000000000006080820152908101829052600090819060a001611ef9565b60006123088260000151613918565b90506000836060015160028111156123225761232261cd6b565b600114905060008460400151600281111561233f5761233f61cd6b565b60011490506123518560800151613bed565b801561235a5750815b801561237a5750836020015160038111156123775761237761cd6b565b15155b156123a05784602001516040516303035c6f60e61b81526004016102e591815260200190565b811561245d578080156123ce575083608001516001600160a01b03168561010001516001600160a01b031614155b1561240957602085015161010086015160405163a301bf4360e01b815260048101929092526001600160a01b031660248201526044016102e5565b801580156124225750612420856101000151613c42565b155b1561245d57602085015161010086015160405163a301bf4360e01b815260048101929092526001600160a01b031660248201526044016102e5565b82516101408601511180612482575061247a620186a0600161d1e7565b856101400151105b1561046e576020850151610140860151604051635c93c83760e01b8152600481019290925260248201526044016102e5565b6001826060015160028111156124cc576124cc61cd6b565b1480156124ee57506002826040015160028111156124ec576124ec61cd6b565b145b80156125125750612512826000015183602001518461010001518560c0015161313c565b15612538578160200151604051635741f0f360e11b81526004016102e591815260200190565b60006125478360000151611ea2565b905061258d6040518060c0016040528060008152602001600081526020016000815260200160006001600160a01b03168152602001600081526020016000151581525090565b836040015160028111156125a3576125a361cd6b565b60011460a082015282516125b690613c59565b6125ce83604001518260a00151866101000151613d3b565b6125dc848460600151613e14565b815261010084015160608401516001600160a01b039182169116036126075780516080820152612621565b61261b8461010001518260a001511561405f565b60808201525b61263084838360800151614084565b6040830152602082015260c08401516126bf576126bd306001600160a01b03166397e7b7f26040518163ffffffff1660e01b8152600401602060405180830381865afa158015612684573d6000803e3d6000fd5b505050506040513d601f19601f820116820180604052508101906126a8919061cfde565b856101000151856040015184602001516120ea565b505b60006126de856000015185600001518761010001518860c001516141d9565b90508060050154600003612870576126f683876141ed565b801561272057506101408501518451604087015160c088015161271d928792909185614248565b14155b156127a557845184516040870151600281111561273f5761273f61cd6b565b6001146127608688600001518a604001518b60c001518c6101400151614248565b61014089015160405163376842d360e11b81526001600160a01b039095166004860152602485019390935290151560448401526064830152608482015260a4016102e5565b60006127c4866000015186600001518861010001518960c001516144cd565b808355865160028401805460608901516004870180546001600160a01b03199081166001600160a01b03938416179091558a516001890155610100808d015160038a018054909316908416179091556101408c0151600789015560a089015160c08d015161ff01600160b01b031990941662010000939096169290920260ff1916949094179015151761ff001916901515909202919091179055905061286a848261454f565b506128e5565b8461014001518160070154146128e557845184516040870151600281111561289a5761289a61cd6b565b600160078501546101408a015160405163376842d360e11b81526001600160a01b0390961660048701526024860194909452911460448401526064830152608482015260a4016102e5565b612968846040518061012001604052808981526020018861010001516001600160a01b031681526020018560200151815260200185604001518152602001856080015181526020018560000151815260200188610140015181526020018560a00151151581526020018860c0015115158152508361456d9092919063ffffffff16565b6129728387613612565b857fef10673dbd364fccce6e85c35092a05d565adefbd902bef60aea760452983e9b864285600001516040516129aa9392919061d319565b60405180910390a2505050505050565b8151604083015160009060028111156129d5576129d561cd6b565b600114905060006129f58386602001518761010001518860c001516141d9565b9050612a0081614b56565b600281015482151560ff909116151503612a2d57604051630e8d180360e11b815260040160405180910390fd5b84610120015181600501541015612a4a5760058101546101208601525b8351612a5590613c59565b60408401516002820154610100870151612a73929160ff1690613d3b565b6000612a83868660600151613e14565b9050612ae76040518060e00160405280898152602001886020015181526020016000151581526020016000151581526020018861010001516001600160a01b0316815260200188610120015181526020018381525083614b7b90919063ffffffff16565b612afe87612af88860000151611ea2565b90613612565b867fef10673dbd364fccce6e85c35092a05d565adefbd902bef60aea760452983e9b874284604051612b329392919061d319565b60405180910390a250505050505050565b6000612b4d611f26565b6000928352602052506040812080546001600160a01b0319168155600181018290556002810180546001600160d01b031916905560038101829055600481018290556005810182905560068101829055600781018290556008810182905560098101829055600a0155565b6000612bc382613605565b905060005b815181101561118d57826002016000838381518110612be957612be961d161565b60200260200101516001600160a01b03166001600160a01b0316815260200190815260200160002060008082016000905560018201600090555050826003016000838381518110612c3c57612c3c61d161565b60200260200101516001600160a01b03166001600160a01b0316815260200190815260200160002060008082016000905560018201600090555050612ca6828281518110612c8c57612c8c61d161565b60200260200101518460000161553190919063ffffffff16565b50600101612bc8565b6000612cb9615546565b905081816007016000828254612ccf919061d18d565b909155505060078101547f5425704060c90c62f0083d9ff73df530b982ea5c64c0dab3c7d5da4761a4511990612d0690849061d1d4565b6007830154604080519283526020830191909152015b60405180910390a15050565b80600003612d3557505050565b6000612d4684848462030d4061558a565b905080612d805760405163012f3b8f60e71b81526001600160a01b03808616600483015284166024820152604481018390526064016102e5565b50505050565b604080516001600160a01b0385811660248301528416604482015260648082018490528251808303909101815260849091019091526020810180516001600160e01b03166323b872dd60e01b179052612d80908590615684565b8060a001516003811115612df657612df661cd6b565b600114158015612e1c57508060a001516003811115612e1757612e1761cd6b565b600214155b8015612e3e57508060a001516003811115612e3957612e3961cd6b565b600314155b15612e5c5760405163e1fb318b60e01b815260040160405180910390fd5b80608001516002811115612e7257612e7261cd6b565b6002148015612e845750610100810151155b15612ea25760405163e1fb318b60e01b815260040160405180910390fd5b80606001516002811115612eb857612eb861cd6b565b600003612ed85760405163e1fb318b60e01b815260040160405180910390fd5b8060a001516003811115612eee57612eee61cd6b565b6002148015612f005750610160810151155b15612f1e5760405163e1fb318b60e01b815260040160405180910390fd5b8060a001516003811115612f3457612f3461cd6b565b6002148015612f58575080608001516002811115612f5457612f5461cd6b565b6002145b15612f765760405163e1fb318b60e01b815260040160405180910390fd5b8060a001516003811115612f8c57612f8c61cd6b565b6003148015612fbb57508060c001516002811115612fac57612fac61cd6b565b1580612fbb5750610160810151155b15612fd95760405163e1fb318b60e01b815260040160405180910390fd5b80608001516002811115612fef57612fef61cd6b565b600103610ff35780610120015160000361301c5760405163e1fb318b60e01b815260040160405180910390fd5b600061302b82600001516122ae565b905061303681615759565b6130595781516040516303035c6f60e61b815260048101919091526024016102e5565b8160600151600281111561306f5761306f61cd6b565b60011480156130935750600381015460e08301516001600160a01b03908116911614155b156130b15760405163e1fb318b60e01b815260040160405180910390fd5b816060015160028111156130c7576130c761cd6b565b60021480156130e057506130de8260e00151613c42565b155b156130fe5760405163e1fb318b60e01b815260040160405180910390fd5b8160200151801561311e5750613112615775565b60400151826101200151105b15611e9e5760405163e1fb318b60e01b815260040160405180910390fd5b600080613147615db0565b905060005b81518110156131d257846001600160a01b03168282815181106131715761317161d161565b60200260200101516001600160a01b031603156131ca5760006131af88888585815181106131a1576131a161d161565b6020026020010151886141d9565b6005810154909150156131c857600193505050506116c5565b505b60010161314c565b5060009695505050505050565b6000806131ea611f26565b905060005b86518110156131d25760008260000160008984815181106132125761321261d161565b602002602001015181526020019081526020016000209050868160010154148015613254575060028101546001600160a01b03878116600160301b9092041614155b80156132725750600281015460ff600160201b909104161515851515145b801561329b57506001600282810154610100900460ff16908111156132995761329961cd6b565b145b80156132bd575060028181015460ff16818111156132bb576132bb61cd6b565b145b156132ce57600193505050506116c5565b506001016131ef565b60008060006132e4611a64565b90506000846080015160028111156132fe576132fe61cd6b565b60011461330f578160800151613315565b81606001515b9050613326856101a0015182611e74565b8460400151801561334c575060018560800151600281111561334a5761334a61cd6b565b145b801561335a57508460200151155b80156133705750846101a0015185610120015110155b1561339857846101a0015185610120015161338b919061d1d4565b6001935093505050613459565b846101a0015134146133fa5760405162461bcd60e51b815260206004820152602560248201527f706c616365206f72646572207769746820657865637574696f6e20666565206560448201526472726f722160d81b60648201526084016102e5565b6040805160a08101825287546001600160a01b0390811682528451166020808301919091526101a088015192820192909252908601516134459190606082019061087c57600161087f565b508461012001518560200151159350935050505b9250929050565b60008061346b615dcd565b60008481526020829052604090205490915061045781101561349b57613494610457600161d18d565b90506134a9565b806134a58161d33b565b9150505b600093845260209190915260409092208290555090565b600061a4b14614806134d4575062066eee46145b156135415760646001600160a01b031663a3b1b31d6040518163ffffffff1660e01b8152600401602060405180830381865afa158015613518573d6000803e3d6000fd5b505050506040513d601f19601f8201168201806040525081019061353c919061d354565b905090565b504390565b600182018054908290600061355b838561d18d565b909155505082546001840154604080516001600160a01b039093168352602083018490528201527f2fecad931c93369a4c0c3aac4f460de814ed19416a258e434e0d67940f0a8cbd906060015b60405180910390a1505050565b6135c260078301826138bd565b611e9e5761118d600783018261390c565b600090815260029190910160205260409020546001600160a01b031690565b6000908152602091909152604090205490565b60606000611a5d83615e11565b61118d6007830182615e6d565b80826001015410156136845760405162461bcd60e51b815260206004820152602860248201527f6f72646572486f6c64496e55736420697320736d616c6c6572207468616e20686044820152671bdb19125b955cd960c21b60648201526084016102e5565b600182018054908290600061355b838561d1d4565b6000826000036136ab575060006120fa565b6040516370a0823160e01b81526001600160a01b038781166004830152600091908716906370a0823190602401602060405180830381865afa1580156136f5573d6000803e3d6000fd5b505050506040513d601f19601f82011682018060405250810190613719919061d354565b90508381106137965760405163078d3b7960e01b81526001600160a01b03878116600483015286811660248301526044820186905288169063078d3b7990606401600060405180830381600087803b15801561377457600080fd5b505af1158015613788573d6000803e3d6000fd5b5050505060019150506120fa565b826131d257604051635ac09ed760e11b81526001600160a01b038089166004830152808816602483015286166044820152606481018590526084016102e5565b604080516000808252602082019092526001600160a01b038416908390604051613800919061d391565b60006040518083038185875af1925050503d806000811461383d576040519150601f19603f3d011682016040523d82523d6000602084013e613842565b606091505b505090508061118d5760405162461bcd60e51b815260206004820152600360248201526253544560e81b60448201526064016102e5565b600080604051602001611f63906020808252601e908201527f78797a2e656c66692e73746f726167652e416363657373436f6e74726f6c0000604082015260600190565b60008181526001830160205260408120541515611a5d565b6001600160a01b03811660009081526001830160205260408120541515611a5d565b6000611a5d836001600160a01b038416615e79565b6000611a5d8383615e79565b61392061c8c2565b61392861c8c2565b60008060405160200161395c906020808252600d908201526c53594d424f4c5f434f4e46494760981b604082015260600190565b60408051601f1981840301815291905280516020909101209050613981828287615ec8565b61398e5750909392505050565b6139f881866040516020016139c3906020808252600c908201526b4d41585f4c4556455241474560a01b604082015260600190565b60408051601f198184030181528282528051602091820120908301949094528101919091526060810191909152608001611c08565b8352604051613a2f90829087906139c3906020016020808252600990820152685449434b5f53495a4560b81b604082015260600190565b836020018181525050613a6e81866040516020016139c3906020808252600d908201526c4f50454e5f4645455f5241544560981b604082015260600190565b836040018181525050613aae81866040516020016139c3906020808252600e908201526d434c4f53455f4645455f5241544560901b604082015260600190565b6060840152604051613afc90829087906139c3906020016020808252601a908201527f4d41585f4c4f4e475f4f50454e5f494e5445524553545f434150000000000000604082015260600190565b6080840152604051613b4a90829087906139c3906020016020808252601b908201527f4d41585f53484f52545f4f50454e5f494e5445524553545f4341500000000000604082015260600190565b60a0840152604051613b9190829087906139c3906020016020808252601690820152751313d391d7d4d213d49517d490551253d7d31253525560521b604082015260600190565b60c0840152604051613bdf90829087906139c3906020016020808252601a908201527f4c4f4e475f53484f52545f4f495f424f54544f4d5f4c494d4954000000000000604082015260600190565b60e084015250909392505050565b6000816003811115613c0157613c0161cd6b565b60021480613c205750816003811115613c1c57613c1c61cd6b565b6001145b806108af5750816003811115613c3857613c3861cd6b565b60035b1492915050565b600080613c4d615ee2565b9050611a5d81846138d5565b600080613c6583615f26565b915091506000613c748461613e565b90508215613c8c57425b600d820155612d8081616189565b613cbd6509184e72a000613cb7613ca68560400151616209565b60e0860151613cb790610e10616277565b90616283565b600b8201556040820151613cf2906509184e72a00090613cb790613ce090616209565b610100860151613cb790610e10616277565b600c82015560e0820151600782018054600090613d1090849061d3ad565b9091555050610100820151600882018054600090613d2f90849061d3ad565b90915550429050613c7e565b8115613d9d576000613d4c8461628f565b90506000613d6082601001600301546162e6565b9050613d7581613d6f84616305565b906163a4565b601283018054600090613d8990849061d18d565b909155505042601383015561046e826163b0565b6000613da7615ee2565b6001600160a01b03831660009081526003820160205260408120919250506000613dd482600301546162e6565b9050613de481613d6f85876163f1565b826002016000828254613df7919061d18d565b9091555050426003830155613e0c838561646d565b505050505050565b60008083606001516002811115613e2d57613e2d61cd6b565b600103613e545783604001516002811115613e4a57613e4a61cd6b565b6002149050613e70565b83604001516002811115613e6a57613e6a61cd6b565b60011490505b83608001516003811115613e8657613e8661cd6b565b600103613f0d576000613e99848361405f565b9050818015613ead57506000856101a00151115b8015613ebd5750846101a0015181105b80613ee6575081158015613ed657506000856101a00151115b8015613ee65750846101a0015181115b15613f0457604051637d92407560e11b815260040160405180910390fd5b91506108af9050565b6000613f19848361405f565b9050600085604001516002811115613f3357613f3361cd6b565b600114905085608001516003811115613f4e57613f4e61cd6b565b60021480613f91575085608001516003811115613f6d57613f6d61cd6b565b6003148015613f9157508560a001516002811115613f8d57613f8d61cd6b565b6002145b15613fe957808015613fa857508186610180015110155b80613fc1575080158015613fc157508186610180015111155b15613fd0575091506108af9050565b604051637d92407560e11b815260040160405180910390fd5b85608001516003811115613fff57613fff61cd6b565b600314801561402357508560a00151600281111561401f5761401f61cd6b565b6001145b15613fd05780801561403a57508186610180015111155b80613fc1575080158015613fc157508186610180015110613fd0575091506108af9050565b60008061406b846164b6565b90508261407c5780602001516116c5565b519392505050565b610100830151825460c0850151600092839290916001600160a01b03909116901561417a5760006140b487616549565b12156141395760006140c587616549565b6140d3896101600151616209565b6140dd919061d3ad565b9050600081136141135760405163316ce6db60e01b81526001600160a01b038084166004830152841660248201526044016102e5565b61016088015161412490889061361f565b61412d81616557565b6101608901525061414a565b61016087015161414a90879061361f565b61416287610160015161415c846165a9565b8761660d565b935061417386838660006006616632565b92506141cf565b600061419488610160015161418e856165a9565b886167ee565b905061419e615775565b604001518110156141c2576040516316b2cc2b60e21b815260040160405180910390fd5b5061016087015193508392505b5050935093915050565b60006120fa6141ea868686866144cd565b90565b6000806141fc84600701613605565b905060005b815181101561423d578382828151811061421d5761421d61d161565b602002602001015114614235576001925050506108af565b600101614201565b506000949350505050565b60008061425487611f18565b90506000614260611f26565b905060005b82518110156144c057600061429c8483815181106142855761428561d161565b602002602001015184611f8190919063ffffffff16565b604080516102208101825282546001600160a01b031681526001830154602082015260028084015491939284019160ff16908111156142dd576142dd61cd6b565b60028111156142ee576142ee61cd6b565b81526020016002820160019054906101000a900460ff1660028111156143165761431661cd6b565b60028111156143275761432761cd6b565b81526020016002820160029054906101000a900460ff16600381111561434f5761434f61cd6b565b60038111156143605761436061cd6b565b81526020016002820160039054906101000a900460ff1660028111156143885761438861cd6b565b60028111156143995761439961cd6b565b81526002820154600160201b810460ff9081161515602080850191909152600160281b830490911615156040840152600160301b9091046001600160a01b0316606083015260038301546080830152600483015460a0830152600583015460c0830152600683015460e0830152600783015461010083015260088301546101208301526009830154610140830152600a90920154610160909101528101519091508914801561446d57508760028111156144555761445561cd6b565b8160400151600281111561446b5761446b61cd6b565b145b801561448f575060028160600151600281111561448c5761448c61cd6b565b14155b80156144a257508615158160c001511515145b156144b757610140015193506120fa92505050565b50600101614265565b5092979650505050505050565b6040805160a06020808301829052601960c08401527f78797a2e656c66692e73746f726167652e506f736974696f6e0000000000000060e0808501919091526001600160a01b03988916848601526060840197909752949096166080820152911515948201949094528351808203909301835261010001909252805191012090565b61455c60058301826138bd565b611e9e5761118d600583018261390c565b600061458682604001518360c001518560000151616817565b905061477e8184600001516040516020016145c6906020808252601190820152702322a2afa7a822a72fa827a9a4aa24a7a760791b604082015260600190565b604051602081830303815290604052805190602001208560200151886040518061022001604052908160008201548152602001600182015481526020016002820160009054906101000a900460ff161515151581526020016002820160019054906101000a900460ff161515151581526020016002820160029054906101000a90046001600160a01b03166001600160a01b03166001600160a01b031681526020016003820160009054906101000a90046001600160a01b03166001600160a01b03166001600160a01b031681526020016004820160009054906101000a90046001600160a01b03166001600160a01b03166001600160a01b031681526020016005820154815260200160068201548152602001600782015481526020016008820154815260200160098201548152602001600a8201548152602001600b8201548152602001600c82016040518060e001604052908160008201548152602001600182015481526020016002820154815260200160038201548152602001600482015481526020016005820154815260200160068201548152505081526020016013820154815260200160148201548152505061684b565b816101000151156147d55760028401546000906147a9906201000090046001600160a01b0316611ea2565b60208401519091506147bf908290846009616a3a565b60208301516147d2908290846009616b9e565b50505b60008183604001516147e7919061d1d4565b90506000828460600151116147fd57600061480d565b82846060015161480d919061d1d4565b9050600061481e85602001516165a9565b9050600061483e614833858860c00151616cf6565b8388608001516167ee565b9050600061484f8860000151613918565b9050886005015460000361494b57602087015160038a0180546001600160a01b0319166001600160a01b0390921691909117905560a087015160068a01556008890185905560808701516148a690869085906167ee565b89600901819055506148bd848489608001516167ee565b600a8a015560608101516148d2908390616cf6565b600c8a01556005890182905560c087015160078a01556080870151614903906148fe90889086906167ee565b616209565b61490c9061d3d5565b896013018190555061492b88604001518860e001518960200151616d06565b600d8a0155875160e08801516149419190616d59565b60108a0155614a71565b614959898960400151616d81565b61496289616e81565b61498489600501548a60060154848a60a0015185602001518c60e00151617011565b8960060181905550848960080160008282546149a0919061d18d565b925050819055506149b6858489608001516167ee565b8960090160008282546149c9919061d18d565b925050819055506149df848489608001516167ee565b89600a0160008282546149f2919061d18d565b92505081905550614a07828260600151616cf6565b600c8a018054600090614a1b90849061d18d565b9250508190555081896005016000828254614a36919061d18d565b92505081905550614a4f6148fe87858a608001516167ee565b614a589061d3d5565b896013016000828254614a6b919061d3ad565b90915550505b4260148a01556000614a9f86614a8b620186a0600161d1e7565b8a60c00151614a9a919061d1d4565b616cf6565b9050808a600b016000828254614ab5919061d18d565b92505081905550614b0f6040518060c001604052806001151581526020018b6000015181526020018a602001516001600160a01b031681526020018581526020018a60a0015181526020018a60e001511515815250617057565b604089015160038b015460e08a0151614b3492916001600160a01b0316908490617260565b875160a0890151614b4a918c916001908b617367565b50505050505050505050565b8060050154600003610ff357604051634a32858f60e01b815260040160405180910390fd5b6040805161022081018252835481526001840154602080830191909152600285015460ff80821615158486015261010080830490911615156060808601919091526001600160a01b036201000090930483166080808701919091526003890154841660a08088019190915260048a015490941660c08088019190915260058a015460e08089019190915260068b01549488019490945260078a015461012088015260088a015461014088015260098a0154610160880152600a8a0154610180880152600b8a01546101a088015287519384018852600c8a01548452600d8a015495840195909552600e89015496830196909652600f880154908201526010870154948101949094526011860154908401526012850154838201526101c082019290925260138401546101e0820152601484015461020082015290820151600091614ccf91614cc890616209565b6000617436565b90506000614ce083602001516122ae565b6040805160c08101909152815481526001820154909190602083019060ff166003811115614d1057614d1061cd6b565b6003811115614d2157614d2161cd6b565b815260018201546001600160a01b03610100909104811660208301526002830154811660408301526003830154166060820152600482018054608090920191614d699061d1a0565b80601f0160208091040260200160405190810160405280929190818152602001828054614d959061d1a0565b8015614de25780601f10614db757610100808354040283529160200191614de2565b820191906000526020600020905b815481529060010190602001808311614dc557829003601f168201915b50505050508152505090506000614dfc8460200151613918565b9050614e0c858360400151616d81565b614e1585616e81565b6000614e42868660a0015186614e2e8960c00151616209565b86606001518a604001518b60600151617446565b905060008160a00151128015614e5b5750806102a00151155b8015614e7157506002860154610100900460ff16155b15614e8e57604051627b2f7360e51b815260040160405180910390fd5b6040808401516001600160a01b0390811683529086015115156102a08301526002870154600091614ec59162010000900416611ea2565b905086600501548660a0015103614f8657600287015460018801546003890154614f1892614f11926001600160a01b03620100008304811693919291169060ff610100909104166144cd565b8290617eb8565b60006005880181905560068801819055600788018190556008880181905560098801819055600a8801819055600b8801819055600c880181905560138801819055600d8801819055600e8801819055600f8801819055601088018190556011880181905560128801556150df565b8560a00151876005016000828254614f9e919061d1d4565b909155505060c0820151600888018054600090614fbc90849061d1d4565b9091555050610120820151600988018054600090614fdb90849061d1d4565b9091555050610140820151600a88018054600090614ffa90849061d1d4565b9091555050610200820151600b8801805460009061501990849061d1d4565b909155505061026082015160138801805460009061503890849061d3ad565b9091555050610160820151600e8801805460009061505790849061d1d4565b9091555050610180820151600f8801805460009061507690849061d1d4565b90915550506101a082015160118801805460009061509590849061d3f1565b90915550506101c08201516012880180546000906150b490849061d3f1565b9091555050610240820151600c880180546000906150d390849061d1d4565b90915550504260148801555b6151a28261022001518560000151846102a001516151485760405160200161512d906020808252601290820152712322a2afa1a627a9a2afa827a9a4aa24a7a760711b604082015260600190565b60405160208183030381529060405280519060200120615192565b60405160200161517b906020808252600f908201526e2322a2afa624a8aaa4a220aa24a7a760891b604082015260600190565b604051602081830303815290604052805190602001205b602086015160a08101519061684b565b60028701546101608301516040860151602085015160a001516102a086015161526594610100810460ff1694939291620100009091046001600160a01b03169061523257604051602001615217906020808252600d908201526c4645455f424f52524f57494e4760981b604082015260600190565b60405160208183030381529060405280519060200120617ec5565b604051602001615217906020808252600f908201526e2322a2afa624a8aaa4a220aa24a7a760891b604082015260600190565b816020015160600151156152cc5760006152858760000151838a86618080565b90506152a2836020015160a001518361831190919063ffffffff16565b506152c68560400151846020015160a001518561020001518661028001518561831f565b506152fa565b6152d681836184b8565b6152fa8460400151836020015160a00151846102000151856102800151600061831f565b61533e8460400151836020015160400151846020015160a00151615322866101600151616209565b615330876101600151616209565b6153399061d3d5565b61857f565b61537b8460000151836101a001516153559061d3d5565b6020850151604081015160028c015460a0909201519091610100900460ff1615906186db565b6153d76040518060c0016040528060001515815260200186600001518152602001846020015160a001516001600160a01b031681526020018860a001518152602001600081526020018460200151604001511515815250617057565b6020808301516080810151865160a0830151606090930151604051615455959394929361543691016020808252601a908201527f43414e43454c5f574954485f504f534954494f4e5f434c4f5345000000000000604082015260600190565b60405160208183030381529060405261544e9061d411565b8b5161878d565b816102a00151156154695761546982618ab8565b6155288660000151836102a00151615482576002615485565b60075b604051806101a001604052808a60c00151815260200160008152602001866040015181526020018660a00151815260200186610160015181526020018661018001518152602001866101a001518152602001866101c00151815260200186610200015181526020018661022001518152602001866102400151815260200186610260015181526020018661028001518152508a618bbe909392919063ffffffff16565b50505050505050565b6000611a5d836001600160a01b038416618c39565b600080604051602001611f63906020808252601b908201527f78797a2e656c66692e73746f726167652e436f6d6d6f6e446174610000000000604082015260600190565b604080516001600160a01b038581166024830152604480830186905283518084039091018152606490920183526020820180516001600160e01b031663a9059cbb60e01b17905291516000928391829189169086906155ea90869061d391565b60006040518083038160008787f1925050503d8060008114615628576040519150601f19603f3d011682016040523d82523d6000602084013e61562d565b606091505b50915091508161564357600093505050506116c5565b60008151118015615665575080806020019051810190615663919061d435565b155b1561567657600093505050506116c5565b506001979650505050505050565b60006156d9826040518060400160405280602081526020017f5361666545524332303a206c6f772d6c6576656c2063616c6c206661696c6564815250856001600160a01b0316618d339092919063ffffffff16565b90508051600014806156fa5750808060200190518101906156fa919061d435565b61118d5760405162461bcd60e51b815260206004820152602a60248201527f5361666545524332303a204552433230206f7065726174696f6e20646964206e6044820152691bdd081cdd58d8d9595960b21b60648201526084016102e5565b600080600183015460ff166003811115613c3b57613c3b61cd6b565b6157f5604051806102000160405280606081526020016060815260200160008152602001600081526020016000815260200160008152602001600081526020016000815260200160008152602001600081526020016000815260200160008152602001600081526020016000815260200160008152602001600081525090565b600080604051602001615828906020808252600c908201526b54524144455f434f4e46494760a01b604082015260600190565b6040516020818303038152906040528051906020012090506158c981604051602001615874906020808252600c908201526b54524144455f544f4b454e5360a01b604082015260600190565b604051602081830303815290604052805190602001206040516020016158a4929190918252602082015260400190565b6040516020818303038152906040528051906020012083618d4290919063ffffffff16565b8084525167ffffffffffffffff8111156158e5576158e561cf0d565b60405190808252806020026020018201604052801561591e57816020015b61590b61c907565b8152602001906001900390816159035790505b50602084015260005b835151811015615980576159578460000151828151811061594a5761594a61d161565b6020026020010151618db1565b8460200151828151811061596d5761596d61d161565b6020908102919091010152600101615927565b506159bd81604051602001611bd89060208082526014908201527313525397d3d491115497d3505491d25397d554d160621b604082015260600190565b836040018181525050615a0b81604051602001611bd8906020808252601a908201527f415641494c41424c455f434f4c4c41544552414c5f524154494f000000000000604082015260600190565b6060840152604051615a49908290611bd8906020016020808252600f908201526e10d493d4d4d7d3151597d312535255608a1b604082015260600190565b6080840152604051615a95908290611bd8906020016020808252601b908201527f4d41585f4d41494e54454e414e43455f4d415247494e5f524154450000000000604082015260600190565b60a0840152604051615ad9908290611bd89060200160208082526015908201527446554e44494e475f4645455f424153455f5241544560581b604082015260600190565b60c0840152604051615b1d908290611bd8906020016020808252601590820152744d41585f46554e44494e475f424153455f5241544560581b604082015260600190565b60e0840152604051615b73908290611bd89060200160208082526021908201527f54524144494e475f4645455f5354414b494e475f524557415244535f524154496040820152604f60f81b606082015260800190565b610100840152604051615bc0908290611bd8906020016020808252601e908201527f54524144494e475f4645455f504f4f4c5f524557415244535f524154494f0000604082015260600190565b610120840152604051615c18908290611bd89060200160208082526022908201527f54524144494e475f4645455f5553445f504f4f4c5f524557415244535f524154604082015261494f60f01b606082015260800190565b610140840152604051615c71908290611bd89060200160208082526023908201527f424f52524f57494e475f4645455f5354414b494e475f524557415244535f524160408201526254494f60e81b606082015260800190565b610160840152604051615cbc908290611bd8906020016020808252818101527f424f52524f57494e475f4645455f504f4f4c5f524557415244535f524154494f604082015260600190565b610180840152604051615d09908290611bd89060200160208082526019908201527f4155544f5f5245445543455f50524f4649545f464143544f5200000000000000604082015260600190565b6101a0840152604051615d56908290611bd8906020016020808252601c908201527f4155544f5f5245445543455f4c49515549444954595f464143544f5200000000604082015260600190565b6101c0840152604051615da3908290611bd89060200160208082526019908201527f535741505f534c49505045525f544f4b454e5f464143544f5200000000000000604082015260600190565b6101e08401525090919050565b60606000615dbc615ee2565b9050615dc781613605565b91505090565b600080604051602001611f63906020808252601c908201527f78797a2e656c66692e73746f726167652e5575696443726561746f7200000000604082015260600190565b606081600001805480602002602001604051908101604052809291908181526020018280548015615e6157602002820191906000526020600020905b815481526020019060010190808311615e4d575b50505050509050919050565b6000611a5d8383618c39565b6000818152600183016020526040812054615ec0575081546001818101845560008481526020808220909301849055845484825282860190935260409020919091556108af565b5060006108af565b6000828152600d8401602052604081206116c590836138bd565b600080604051602001611f639060208082526018908201527f78797a2e656c66692e73746f726167652e557364506f6f6c0000000000000000604082015260600190565b6000615f3061c955565b615f3861c955565b6000615f438561613e565b90506000615f50866122ae565b9050615f5d826002015490565b8352615f68826190fa565b60208401528251158015615f7e57506020830151155b80615f8d575060208301518351145b15615fa057506001959194509092505050565b615fa982619179565b60408401819052600003615fc557506001959194509092505050565b6020830151835111610120840152615fdc8261919a565b606084018190526040840151845160208601516160029392613d6f9290918391906191fc565b60808401528251156160be5782610120015161603c57825160808401516160379161602d9190619212565b846040015161921e565b61604c565b8251608084015161604c91619212565b60a084018190526003820154616090916148fe91616072906001600160a01b03166165a9565b600385015461608b906001600160a01b0316600161405f565b61660d565b60e08401526101208301516160b2578260e001516160ad9061d3d5565b6160b8565b8260e001515b60e08401525b602083015115616130578261012001516160f5576160f06148fe8460200151856080015161921290919063ffffffff16565b616129565b6161206148fe6161168560200151866080015161921290919063ffffffff16565b856040015161921e565b6161299061d3d5565b6101008401525b506000959194509092505050565b6040805160208101829052601760608201527f78797a2e656c66692e73746f726167652e4d61726b65740000000000000000006080820152908101829052600090819060a001611ef9565b8054604080519182526007830154602083015260088301549082015260098201546060820152600a8201546080820152600b82015460a0820152600c82015460c0820152600d82015460e08201527f5a51d9147354371a353006fe6ea5741b6fdddd5d868eb25f5361cecc080dfa1590610100015b60405180910390a150565b60006001600160ff1b038211156162735760405162461bcd60e51b815260206004820152602860248201527f53616665436173743a2076616c756520646f65736e27742066697420696e2061604482015267371034b73a191a9b60c11b60648201526084016102e5565b5090565b6000611a5d828461d452565b6000611a5d828461d498565b60008082604051602001611ef9919060408082526017908201527f78797a2e656c66692e73746f726167652e4c70506f6f6c00000000000000000060608201526001600160a01b0391909116602082015260800190565b6000816000036162f857506000919050565b81425b6108af919061d1d4565b600481015460009015801561631c57506007820154155b1561632957506000919050565b600782015460048301546000919061634090616209565b61634a919061d3ad565b90506000811361635d5750600092915050565b6000616381846004016002015461637384616557565b670de0b6b3a7640000619240565b84549091506116c590829061639e906001600160a01b031661924d565b516195bc565b6000611a5d828461d1e7565b80546040517ff23a1644a253a05158a5664e7dcdb9169fcae91f76675245abc54ab5f98a01bb916161fe916001600160a01b0390911690601085019061d4c6565b60006163fd83836195d1565b51158015616416575061641083836195d1565b60400151155b15616423575060006108af565b600061645961643285856195d1565b6020015161644086866195d1565b6040015161644e87876195d1565b51616373919061d18d565b90506116c58161646885619637565b6195bc565b6001600160a01b03811660009081526003830160205260409081902090517f1ce920cb88be503ae9377cd07aae1e28e7ca6c64e897ad6ff9b74c2d329d7d8391612d1c9161d500565b604080518082019091526000808252602082015260006164d46121a5565b604080518082018252600080825260209182018190526001600160a01b0387168152600284018252829020825180840190935280548084526001909101549183019190915291925090158061652b57506020810151155b15611a5d5760405163907adecd60e01b815260040160405180910390fd5b60006060611a5d83826196e3565b6000808212156162735760405162461bcd60e51b815260206004820181905260248201527f53616665436173743a2076616c7565206d75737420626520706f73697469766560448201526064016102e5565b6000816001600160a01b031663313ce5676040518163ffffffff1660e01b8152600401602060405180830381865afa1580156165e9573d6000803e3d6000fd5b505050506040513d601f19601f820116820180604052508101906108af919061d52b565b60006116c58461661e85600a61d62a565b61662d856402540be4006163a4565b61978c565b600061664160028701866138d5565b6166545761665260028701866138f7565b505b6001600160a01b0385166000908152600487016020526040902083158061668b5750848160010154616686919061d18d565b815410155b6166e75760405162461bcd60e51b815260206004820152602760248201527f75736520746f6b656e206661696c6564207769746820616d6f756e74206e6f74604482015266040cadcdeeaced60cb1b60648201526084016102e5565b6040805160808101825282548152600183015460208201819052600284015492820192909252600383015460608201529061672390879061d18d565b82541061674c578582600101600082825461673e919061d18d565b909155508693506167a99050565b60018201548254111561678b576001820154825461676a919061d1d4565b925085826001016000828254616780919061d18d565b909155506167a99050565b8582600101600082825461679f919061d18d565b9091555060009350505b875460405160008051602061d9d6833981519152916167db916001600160a01b03909116908a90859087908a9061d649565b60405180910390a1505095945050505050565b60006116c56167fe84600a61d62a565b6168116402540be400613d6f88876163a4565b90619212565b60008061682383613918565b905060006168318686616cf6565b9050616841818360400151616cf6565b9695505050505050565b60008481527fb31b5831e77ebf4a20e050d886d24b00d24f44760e3342d08fb455df41d4aaf8602052604081207fb31b5831e77ebf4a20e050d886d24b00d24f44760e3342d08fb455df41d4aafa917fb31b5831e77ebf4a20e050d886d24b00d24f44760e3342d08fb455df41d4ab01906168c4615775565b90506168ce61c9aa565b6168d7896122ae565b600101546001600160a01b03610100918290041660c08301528201516168fe908b90616cf6565b6040820152610120820151616914908b90616cf6565b6060820181905260408201516169369190616930908d90619876565b90619876565b60a0820152606081015161694d9085908990619882565b60c081015160408201516169649187918a906198e3565b60c081015160a082015161697b9185918a906198e3565b8560600151156169c55760608101516169979085908990619942565b60c081015160408201516169ae9187918a906199a3565b60c081015160a08201516169c59185918a906199a3565b6080868101518751604080518d81526001600160a01b03938416602082015280820192909252606082018c9052918a169281019290925260a082018c9052517f2ae7718f4105fe717c24426c57b47946a517e684f5458c2069ef013a7b85faf19181900360c00190a150505050505050505050565b616a4760028501846138d5565b616a875760405162461bcd60e51b8152602060048201526011602482015270746f6b656e206e6f74206578697374732160781b60448201526064016102e5565b6001600160a01b0383166000908152600485016020526040902060010154821115616ae65760405162461bcd60e51b815260206004820152600f60248201526e756e557365206f766572666c6f772160881b60448201526064016102e5565b6001600160a01b03831660008181526004860160208181526040808420815160808101835281548152600182018054828601819052600284015494830194909452600390920154606082015295855292909152859290616b4790849061d1d4565b909155505084546001600160a01b03858116600090815260048801602052604090819020905160008051602061d9d683398151915293616b8f9316918891869190889061d649565b60405180910390a15050505050565b6001600160a01b038316600090815260048501602090815260408083208151608081018352815480825260018301549482019490945260028201549281019290925260038101546060830152918511616c145784826000016000828254616c05919061d1d4565b9091555060009350616c9e9050565b815415616c66578154616c27908661d1d4565b925082826003016000828254616c3d919061d18d565b9250508190555082826001016000828254616c58919061d18d565b909155505060008255616c9e565b84826003016000828254616c7a919061d18d565b9250508190555084826001016000828254616c95919061d18d565b90915550859350505b616cb28684616cab615546565b9190619a02565b865460405160008051602061d9d683398151915291616ce4916001600160a01b03909116908990859087908a9061d649565b60405180910390a15050949350505050565b6000611a5d8383620186a061978c565b60008215616d26576000616d198561628f565b601201549150611a5d9050565b6000616d30615ee2565b6001600160a01b0384166000908152600382016020526040902090915060020154915050611a5d565b600080616d658461613e565b905082616d765760088101546116c5565b600701549392505050565b60028201546003830154600091616da691849160ff16906001600160a01b0316616d06565b90506000616dd7616dc88560080154620186a08760070154614a9a919061d1d4565b600d860154616468908561d1d4565b90508084600c016002016000828254616df0919061d18d565b90915550506003840154616e37908290616e12906001600160a01b03166165a9565b60038701546002880154616e32916001600160a01b03169060ff1661405f565b6167ee565b600f85018054600090616e4b90849061d18d565b9091555050600d840182905560028401546003850154612d8091859160ff909116906001600160a01b0316600061533986616209565b60018101546002820154600091616e9a9160ff16616d59565b60108301549091508103616eac575050565b6000616ed2616ebe8460050154616209565b6010850154616ecd908561d3f1565b619a36565b600284015490915060009060ff1615616f65578190508184600c016005016000828254616eff919061d3ad565b90915550506003840154616f46908390616f21906001600160a01b03166165a9565b60038701546002880154616f41916001600160a01b03169060ff1661405f565b619a56565b601285018054600090616f5a90849061d3ad565b90915550616fe29050565b6003840154616fa7908390616f82906001600160a01b03166165a9565b60038701546002880154616fa2916001600160a01b03169060ff1661405f565b619a84565b90508084600c016005016000828254616fc0919061d3ad565b9091555050601284018054839190600090616fdc90849061d3ad565b90915550505b6010840183905560018085015460028601546003870154612d8093859260ff16916001600160a01b03166186db565b60008061703e617021878a61d18d565b61681161702e89896163a4565b6170388c8c6163a4565b90619ab9565b905061704b818585619ac5565b98975050505050505050565b6000617066826020015161613e565b905060006170778360200151613918565b8351909150801561708957508260a001515b156170a5576170a082600201848360200151619b10565b617141565b825180156170b557508260a00151155b156171035760408301516170ca908390619bd4565b6170a082600601600085604001516001600160a01b03166001600160a01b03168152602001908152602001600020848360200151619b10565b8251617141576171418360a00151617136576040808501516001600160a01b03166000908152600685016020522061713b565b826002015b84619bf2565b82511561118d576000617155836002015490565b90506000617162846190fa565b90508460a0015180156171785750826080015182115b156171ab57602085015160a0860151604051633ea6fa5360e11b81526004810192909252151560248201526044016102e5565b8460a001511580156171c057508260a0015181115b156171f357602085015160a0860151604051633ea6fa5360e11b81526004810192909252151560248201526044016102e5565b60006171ff8383619c8d565b90508360e0015181101561721557505050505050565b61722c617222838561d18d565b8560c00151616cf6565b8161723785856191fc565b617241919061d1d4565b1115613e0c576040516387fd15d760e01b815260040160405180910390fd5b80156172bf5760006172718561628f565b90508261727d82619c9c565b10156172af5760405163c5fa5f3d60e01b81526001600160a01b038087166004830152851660248201526044016102e5565b6172b98184619caa565b50612d80565b60006172c9615ee2565b905061732c816002016000866001600160a01b03166001600160a01b031681526020019081526020016000206040518060600160405290816000820154815260200160018201548152602001600282015481525050617326619d32565b85619d42565b61735c5760405163c5fa5f3d60e01b81526001600160a01b038087166004830152851660248201526044016102e5565b61046e818585619d9a565b6002850154600186015460038701547fee2b9c77532fd89e66e2f431c2001e4bcc30fb5bc62ee9cdac252f89540067ae9287926173c0926001600160a01b0362010000840481169391169060ff610100909104166144cd565b8588604051806101a00160405280888152602001878152602001600081526020016000815260200160008152602001600081526020016000815260200160008152602001600081526020016000815260200160008152602001600081526020016000815250604051616b8f95949392919061d6c5565b600060606120fa85828686619e9f565b61744e61c9f0565b876040518061022001604052908160008201548152602001600182015481526020016002820160009054906101000a900460ff161515151581526020016002820160019054906101000a900460ff161515151581526020016002820160029054906101000a90046001600160a01b03166001600160a01b03166001600160a01b031681526020016003820160009054906101000a90046001600160a01b03166001600160a01b03166001600160a01b031681526020016004820160009054906101000a90046001600160a01b03166001600160a01b03166001600160a01b031681526020016005820154815260200160068201548152602001600782015481526020016008820154815260200160098201548152602001600a8201548152602001600b8201548152602001600c82016040518060e0016040529081600082015481526020016001820154815260200160028201548152602001600382015481526020016004820154815260200160058201548152602001600682015481525050815260200160138201548152602001601482015481525050816020018190525084816060018181525050600061761c8960030160009054906101000a90046001600160a01b0316600061405f565b905061762781616557565b60408301526003890154600090617646906001600160a01b03166165a9565b9050888a6005015403617a4f57826020015161014001518360c0018181525050826020015161016001518361012001818152505082602001516101a001518361020001818152505061782f898b6040518061022001604052908160008201548152602001600182015481526020016002820160009054906101000a900460ff161515151581526020016002820160019054906101000a900460ff161515151581526020016002820160029054906101000a90046001600160a01b03166001600160a01b03166001600160a01b031681526020016003820160009054906101000a90046001600160a01b03166001600160a01b03166001600160a01b031681526020016004820160009054906101000a90046001600160a01b03166001600160a01b03166001600160a01b031681526020016005820154815260200160068201548152602001600782015481526020016008820154815260200160098201548152602001600a8201548152602001600b8201548152602001600c82016040518060e0016040529081600082015481526020016001820154815260200160028201548152602001600382015481526020016004820154815260200160058201548152602001600682015481525050815260200160138201548152602001601482015481525050619ec8565b61018085015261016084015260208301516101c0908101805160a001516101a0860152805160c00151918501919091525151610240840181905261787d90829061787885616557565b619f41565b610220840181905261788e90616209565b836101a001516178a2856101600151616209565b6178ac919061d3ad565b6178b6919061d3ad565b6101e0840152841561799e57836178ce576000617932565b6179326178e16148fe8560200151619f4e565b896178eb86619f83565b6178fd87602001516101600151616209565b617907919061d3f1565b617911919061d3ad565b61791b919061d3f1565b61792c856020015160a001516165a9565b84619a84565b60a084015260c083015161794590616209565b8360a00151617954919061d3f1565b60808401526020830151610160015161797c90899061797290616209565b61791b919061d3ad565b6179898460c00151616209565b617993919061d3f1565b610280840152617a25565b6179c7886179ab85619f83565b6179bd86602001516101600151616209565b617972919061d3f1565b60a084015260c08301516179da90616209565b8360a001516179e9919061d3f1565b608084015260208301516101600151617a0790899061797290616209565b617a148460c00151616209565b617a1e919061d3f1565b6102808401525b617a448360800151617a3e856020015160a001516165a9565b84619a56565b610260840152617e5b565b602083015160e081015161014090910151617a6f9190616811908c6163a4565b60c0840152602083015160e08101516101a090910151617a949190616811908c6163a4565b610200840152617aa48987616cf6565b83610240018181525050617c4f898b6040518061022001604052908160008201548152602001600182015481526020016002820160009054906101000a900460ff161515151581526020016002820160019054906101000a900460ff161515151581526020016002820160029054906101000a90046001600160a01b03166001600160a01b03166001600160a01b031681526020016003820160009054906101000a90046001600160a01b03166001600160a01b03166001600160a01b031681526020016004820160009054906101000a90046001600160a01b03166001600160a01b03166001600160a01b031681526020016005820154815260200160068201548152602001600782015481526020016008820154815260200160098201548152602001600a8201548152602001600b8201548152602001600c82016040518060e0016040529081600082015481526020016001820154815260200160028201548152602001600382015481526020016004820154815260200160058201548152602001600682015481525050815260200160138201548152602001601482015481525050619ec8565b610180850152610160840152617c6489616209565b8360e0018181525050617c7e836020015160e00151616209565b610100840181905260e084015160208501516101c0015160a00151617ca89291613cb79190616277565b6101a084015261010083015160e084015160208501516101c0015160c00151617cd69291613cb79190616277565b6101c08085019190915260208401510151516102408401511115617d065760208301516101c00151516102408401525b617d198184610240015161787885616557565b6102208401819052617d2a90616209565b836101a00151617d3e856101600151616209565b617d48919061d3ad565b617d52919061d3ad565b6101e084015261010083015160e0840151617da59161791b91613cb7908c617d7989619f83565b617d8b8a602001516101600151616209565b617d95919061d3f1565b617d9f919061d3ad565b90616277565b60a084015260c0830151617db890616209565b8360a00151617dc7919061d3f1565b836080018181525050617df761791b846101000151613cb78660e001518c617d9589602001516101600151616209565b617e048460c00151616209565b617e0e919061d3f1565b61028084015260058a015460208401516101600151617e329190616811908c6163a4565b6101208401526080830151602084015160a00151617e549190617a3e906165a9565b6102608401525b89600901548a600a0154846101200151617e75919061d18d565b11617e81576000617ea5565b89600901548a600a0154846101200151617e9b919061d18d565b617ea5919061d1d4565b6101408401525050979650505050505050565b61118d6005830182615e6d565b6001600160a01b03841660009081527fb31b5831e77ebf4a20e050d886d24b00d24f44760e3342d08fb455df41d4aaf9602052604081207fb31b5831e77ebf4a20e050d886d24b00d24f44760e3342d08fb455df41d4aafa917fb31b5831e77ebf4a20e050d886d24b00d24f44760e3342d08fb455df41d4ab0190617f48615775565b9050617f5261c9aa565b617f618a836101600151616cf6565b6040820152610180820151617f77908b90616cf6565b608082018190526040820151617f939190616930908d90619876565b60a08201526040810151617fac9086908b908b906198e3565b6080810151617fbe9085908a90619882565b60a0810151617fd29084908b908b906198e3565b8a15618012576040810151617fec9086908b908b906199a3565b6080810151617ffe9085908a90619942565b60a08101516180129084908b908b906199a3565b604080518c151581526001600160a01b038b811660208301528a811682840152891660608201526080810188905260a081018c905290517fc6808235a634ed03a8e9b566f817b485bebc047ac6d8ddda1f07e5173f0a18f59181900360c00190a15050505050505050505050565b600080826101e0015113156180b9576180b3826020015160a001516180a9846101e00151616557565b8691906003616b9e565b506180e6565b6180e6826020015160a001516180dc846101e001516180d79061d3d5565b616557565b8691906003619fbb565b602082015160a0015160c08301516181019186916005616a3a565b6000306001600160a01b0316631f7592ea6040518163ffffffff1660e01b8152600401602060405180830381865afa158015618141573d6000803e3d6000fd5b505050506040513d601f19601f82011682018060405250810190618165919061cfde565b90506000836080015112618217576181a1836020015160a00151618197856101e0015186608001516180d7919061d3ad565b8791906004619fbb565b6181df8360200151604001516181be576181b961a080565b6181c1565b83515b846020015160a00151836181d88760800151616557565b6001613699565b50826020015160400151618212576182106181f861a080565b602085015160a0015185516102208701516001613699565b505b61827b565b60008360800151121561827b57618249836020015160a0015161824185608001516180d79061d3d5565b87919061a09b565b915061827981846020015160a0015185600001518561826f88608001516180d79061d3d5565b6181d8919061d1d4565b505b826102a001516183085760006182948460c00151616209565b8460a001516182ca6148fe87602001516101600151616811896020015161014001518a61014001516163a490919063ffffffff16565b6182d4919061d3ad565b6182de919061d3f1565b8654602086015160a001518754929350618306928a926001600160a01b03169190859061a0aa565b505b50949350505050565b6000611a5d8383600061a177565b600061832a8661628f565b60028101549091506001600160a01b038087169116036183e25761834e818561a298565b60008312156183725761836d6183666180d78561d3d5565b829061a325565b613e0c565b8160000361838d5761836d61838684616557565b829061a331565b600061839884616557565b90506183bc8382116183ab5760006183b5565b6183b5848361d1d4565b839061a331565b6183dc8382116183cc57846183d5565b6183d584616209565b839061a33d565b50613e0c565b60006183ec615ee2565b90506183f981878761a393565b60008412156184395760006184106180d78661d3d5565b905061841d83888361a453565b61842882888361a4cd565b61843382888361a5b1565b50615528565b8260000361845b576184568661844e86616557565b84919061a638565b615528565b600061846685616557565b905061848c8785831161847a576000618484565b618484868461d1d4565b85919061a638565b6184ae8785831161849d57866184a6565b6184a686616209565b85919061a702565b5050505050505050565b806102a00151156184c7575050565b6000816080015112806184ef575060008160800151121580156184ef57508060200151604001515b1561851f578051602082015160a09081015184549184015161118d93926001600160a01b0316906181d890616557565b61855361852a61a080565b602083015160a001518351610220850151608086015161854990616557565b6181d8919061d18d565b508051602082015160a09081015184549184015161118d93926001600160a01b0316906181d890616557565b831561862b5760006185908661628f565b9050600083136185ba576185a66180d78461d3d5565b60108201546185b5919061d1d4565b6185d2565b6185c383616557565b60108201546185d2919061d18d565b6010820155600082136185ff576185eb6180d78361d3d5565b60118201546185fa919061d1d4565b618617565b61860882616557565b6011820154618617919061d18d565b6011820155618625816163b0565b5061046e565b6000618635615ee2565b6001600160a01b038516600090815260038201602052604081209192508413618675576186646180d78561d3d5565b8154618670919061d1d4565b61868a565b61867e84616557565b815461868a919061d18d565b8155600083136186b4576186a06180d78461d3d5565b81600101546186af919061d1d4565b6186cc565b6186bd83616557565b81600101546186cc919061d18d565b6001820155615528828661646d565b60006186e68661613e565b905083156187105784816007016002016000828254618705919061d3ad565b9091555061872d9050565b84816007016003016000828254618727919061d3ad565b90915550505b61873681616189565b8215613e0c576000618747876122ae565b9050600061876b8260010160019054906101000a90046001600160a01b031661628f565b905085156187825761877d818861a33d565b6184ae565b6184ae81858961a702565b600061879887611ea2565b905060006187a582611f18565b905080516000036187b7575050613e0c565b60006187c1611f26565b905060005b8251811015614b4a57848382815181106187e2576187e261d161565b60200260200101510315618ab05760006188078483815181106142855761428561d161565b604080516102208101825282546001600160a01b031681526001830154602082015260028084015491939284019160ff16908111156188485761884861cd6b565b60028111156188595761885961cd6b565b81526020016002820160019054906101000a900460ff1660028111156188815761888161cd6b565b60028111156188925761889261cd6b565b81526020016002820160029054906101000a900460ff1660038111156188ba576188ba61cd6b565b60038111156188cb576188cb61cd6b565b81526020016002820160039054906101000a900460ff1660028111156188f3576188f361cd6b565b60028111156189045761890461cd6b565b81526002820154600160201b810460ff9081161515602080850191909152600160281b830490911615156040840152600160301b9091046001600160a01b0316606083015260038301546080830152600483015460a0830152600583015460c0830152600683015460e0830152600783015461010083015260088301546101208301526009830154610140830152600a90920154610160909101528101519091508a1480156189c95750886001600160a01b03168161010001516001600160a01b0316145b80156189ea5750806080015160038111156189e6576189e661cd6b565b6003145b80156189fd57508715158160c001511515145b15618aae57618a2e848381518110618a1757618a1761d161565b60200260200101518661361290919063ffffffff16565b618a5a848381518110618a4357618a4361d161565b60200260200101518461a7b290919063ffffffff16565b838281518110618a6c57618a6c61d161565b60200260200101517fa2bce5ff82d63e38ec31c6270a397e7cae4d5ed319bd73e318d4916d4ff686688289604051618aa592919061d2fc565b60405180910390a25b505b6001016187c6565b80602001516060015115618b04578051602082015160a0810151610ff39291618aff90618ae490619f4e565b618af5866020015160a001516165a9565b866040015161660d565b61a81f565b600080826101e0015112618b6b57618b2b826102800151836101e001516180d7919061d3ad565b8260c0015111618b3c576000618b64565b618b55826102800151836101e001516180d7919061d3ad565b8260c00151618b64919061d1d4565b9050618ba7565b618b79826102800151616557565b618b8b836101e001516180d79061d3d5565b8360c00151618b9a919061d18d565b618ba4919061d1d4565b90505b611e9e8260000151836020015160a001518361a81f565b6002840154600185015460038601547fee2b9c77532fd89e66e2f431c2001e4bcc30fb5bc62ee9cdac252f89540067ae928692618c17926001600160a01b0362010000840481169391169060ff610100909104166144cd565b848785604051618c2b95949392919061d6c5565b60405180910390a150505050565b60008181526001830160205260408120548015618d22576000618c5d60018361d1d4565b8554909150600090618c719060019061d1d4565b9050818114618cd6576000866000018281548110618c9157618c9161d161565b9060005260206000200154905080876000018481548110618cb457618cb461d161565b6000918252602080832090910192909255918252600188019052604090208390555b8554869080618ce757618ce761d8bd565b6001900381819060005260206000200160009055905585600101600086815260200190815260200160002060009055600193505050506108af565b60009150506108af565b5092915050565b60606116c5848460008561a919565b6000818152600883016020908152604091829020805483518184028101840190945280845260609392830182828015618da457602002820191906000526020600020905b81546001600160a01b03168152600190910190602001808311618d86575b5050505050905092915050565b618db961c907565b618dc161c907565b600080604051602001618dfa9060208082526012908201527154524144455f544f4b454e5f434f4e46494760701b604082015260600190565b60408051601f1981840301815291905280516020909101209050618e1f82828761a9e9565b618e2c5750909392505050565b618eb78186604051602001618e6a906020808252601590820152741254d7d4d5541413d49517d0d3d313105511549053605a1b604082015260600190565b60405160208183030381529060405280519060200120604051602001618e929392919061d8d3565b604051602081830303815290604052805190602001208361aa0390919063ffffffff16565b15158352604051618f189082908790618ef090602001602080825260099082015268282922a1a4a9a4a7a760b91b604082015260600190565b60405160208183030381529060405280519060200120604051602001611c089392919061d8d3565b836020018181525050618f528186604051602001618ef090602080825260089082015267111254d0d3d5539560c21b604082015260600190565b836040018181525050618f978186604051602001618ef0906020808252601390820152720434f4c4c41544552414c5f555345525f43415606c1b604082015260600190565b6060840152604051618fdc9082908790618ef0906020016020808252601490820152730434f4c4c41544552414c5f544f54414c5f4341560641b604082015260600190565b608084015260405161901f9082908790618ef09060200160208082526012908201527104c494142494c4954595f555345525f4341560741b604082015260600190565b60a08401526040516190639082908790618ef09060200160208082526013908201527204c494142494c4954595f544f54414c5f43415606c1b604082015260600190565b60c08401526040516190a89082908790618ef09060200160208082526014908201527324a72a22a922a9aa2fa920aa22afa320a1aa27a960611b604082015260600190565b60e08401526040516190eb9082908790618ef0906020016020808252601290820152712624a8aaa4a220aa24a7a72fa320a1aa27a960711b604082015260600190565b61010084015250909392505050565b60008061910983600401613605565b90506000805b8251811015619171578460060160008483815181106191305761913061d161565b60200260200101516001600160a01b03166001600160a01b031681526020019081526020016000206000015482619167919061d18d565b915060010161910f565b509392505050565b600d810154600090810361918f57506000919050565b600d820154426162fb565b6002810154600090816191ac846190fa565b905060006191ba838361aa1c565b905060006191c8838561d18d565b90508115806191d5575080155b156191e65750600095945050505050565b616841826191f2615775565b60c001518361978c565b600081831161920b5781611a5d565b5090919050565b6000611a5d828461d8f2565b6000611a5d8361923a84619230615775565b60e00151906163a4565b90619c8d565b60006116c584838561978c565b61925561caa8565b61925d61caa8565b600080604051602001619292906020808252600e908201526d4c505f504f4f4c5f434f4e46494760901b604082015260600190565b60408051601f19818403018152919052805160209091012090506192b782828761a9e9565b6192c45750909392505050565b6192ff8186604051602001618ef090602080825260129082015271424153455f494e5445524553545f5241544560701b604082015260600190565b83526040516193419082908790618ef0906020016020808252601490820152731413d3d317d3125455525112551657d31253525560621b604082015260600190565b8360200181815250506193808186604051602001618ef0906020808252600d908201526c4d494e545f4645455f5241544560981b604082015260600190565b8360400181815250506193c18186604051602001618ef0906020808252600f908201526e52454445454d5f4645455f5241544560881b604082015260600190565b60608401526040516194069082908790618ef0906020016020808252601490820152731413d3d317d4139317d490551253d7d31253525560621b604082015260600190565b60808401526040516194529082908790618ef0906020016020808252818101527f554e534554544c45445f424153455f544f4b454e5f524154494f5f4c494d4954604082015260600190565b60a08401526040516194ab9082908790618ef09060200160208082526022908201527f554e534554544c45445f535441424c455f544f4b454e5f524154494f5f4c494d604082015261125560f21b606082015260800190565b60c08401526040516194f99082908790618ef0906020016020808252601d908201527f504f4f4c5f535441424c455f544f4b454e5f524154494f5f4c494d4954000000604082015260600190565b60e08401526040516195479082908790618ef0906020016020808252601c908201527f504f4f4c5f535441424c455f544f4b454e5f4c4f53535f4c494d495400000000604082015260600190565b6101008401526040516195ad9082908790619585906020016020808252600c908201526b41535345545f544f4b454e5360a01b604082015260600190565b604051602081830303815290604052805190602001206040516020016158a49392919061d8d3565b61012084015250909392505050565b6000611a5d8383670de0b6b3a764000061978c565b6195f560405180606001604052806000815260200160008152602001600081525090565b506001600160a01b0316600090815260029182016020908152604091829020825160608101845281548152600182015492810192909252909201549082015290565b600080611a5d604051602001619670906020808252600f908201526e5553445f504f4f4c5f434f4e46494760881b604082015260600190565b60405160208183030381529060405280519060200120846040516020016196969061d906565b604051602081830303815290604052805190602001206040516020016196be9392919061d8d3565b60405160208183030381529060405280519060200120826135f290919063ffffffff16565b6000806196f0848461aa3e565b90506000806196ff868661ab30565b91509150600061970f878761ac63565b90506197248282604001516148fe919061d18d565b815160001315619735578151619738565b60005b61974185616209565b6197638a60010154856020015189619759919061d18d565b6148fe919061d18d565b61976d919061d3f1565b619777919061d3ad565b619781919061d3f1565b979650505050505050565b60008080600019858709858702925082811083820303915050806000036197c6578382816197bc576197bc61d482565b0492505050611a5d565b80841161980d5760405162461bcd60e51b81526020600482015260156024820152744d6174683a206d756c446976206f766572666c6f7760581b60448201526064016102e5565b60008486880960026001871981018816978890046003810283188082028403028082028403028082028403028082028403028082028403029081029092039091026000889003889004909101858311909403939093029303949094049190911702949350505050565b6000611a5d828461d1d4565b61988c83836138d5565b61989c5761989a83836138f7565b505b6001600160a01b03821660009081526002840160205260409020546198c290829061d18d565b6001600160a01b039092166000908152600290930160205250604090912055565b6198ed84836138d5565b6198fd576198fb84836138f7565b505b6000619909848461ae36565b600081815260028701602052604090205490915061992890839061d18d565b600091825260029095016020526040902093909355505050565b61994c83836138d5565b61995c5761995a83836138f7565b505b6001600160a01b038216600090815260038401602052604090205461998290829061d18d565b6001600160a01b039092166000908152600390930160205250604090912055565b6199ad84836138d5565b6199bd576199bb84836138f7565b505b60006199c9848461ae36565b60008181526003870160205260409020549091506199e890839061d18d565b600091825260039095016020526040902093909355505050565b6001600160a01b038216600090815260068401602052604081208054839290619a2c90849061d18d565b9091555050505050565b6000611a5d619a4c670de0b6b3a7640000616209565b613cb78585616277565b60006116c5619a696148fe85600a61d62a565b613cb7619a7a6402540be400616209565b617d9f8887616277565b60006116c5619aa1619a9a6402540be400616209565b8490616277565b613cb7619ab26148fe87600a61d62a565b8790616277565b6000611a5d828461d18d565b600080619ad2848661d94b565b905080600003619ae55784915050611a5d565b619b0884613d6f85619af8576000619afb565b60015b60ff166170388989619212565b915050611a5d565b8254600003619b2f576080820151600184015560608201518355619b73565b619b518360000154846001015484606001518560800151858760a00151617011565b6001840155606082015183548490600090619b6d90849061d18d565b90915550505b7fe1ca63f31f0b04174a12bc0e5a08103c6403d0d7c3980afb3ae8444a47476ef582602001518360a0015184606001518660000154619bb2919061d1d4565b86546040805194855292151560208501529183015260608201526080016135a8565b619be160048301826138d5565b611e9e5761118d60048301826138f7565b6060810151825411619c0e576000600183018190558255619c2c565b8060600151826000016000828254619c26919061d1d4565b90915550505b7fe1ca63f31f0b04174a12bc0e5a08103c6403d0d7c3980afb3ae8444a47476ef581602001518260a0015183606001518560000154619c6b919061d18d565b8554604080519485529215156020850152918301526060820152608001612d1c565b600081831061920b5781611a5d565b60006060611a5d838261aec3565b619cc082600401619cba8461b0e5565b8361b106565b619cdc5760405162461bcd60e51b81526004016102e59061d95f565b81546002830154600091619d00916001600160a01b0391821691166004860161b191565b905081836004016002016000828254619d19919061d18d565b9091555050600683015461012082015261118d8161b293565b6000619d3c61b379565b51919050565b600082600003619d7757602084015160408501518551849291619d649161d18d565b619d6e919061d1d4565b10159050611a5d565b818460200151619d6486604001518760000151619d94919061d18d565b86616cf6565b619dfb836002016000846001600160a01b03166001600160a01b031681526020019081526020016000206040518060600160405290816000820154815260200160018201548152602001600282015481525050619df5619d32565b83619d42565b619e175760405162461bcd60e51b81526004016102e59061d95f565b6001600160a01b03821660009081526002840160205260408120619e3c90849061b3ba565b6001600160a01b0384166000908152600286016020526040812060010180549293508492909190619e6e90849061d18d565b90915550506001600160a01b038316600090815260028501602052604090206001015460a0820152612d808161b45d565b6000806000619eaf87878761b4e5565b9150915083619ebe5780619781565b5095945050505050565b6000808260e001518403619eee5750506101c08101516040810151606090910151613459565b619f128360e0015161681186866101c00151604001516163a490919063ffffffff16565b619f368460e0015161681187876101c00151606001516163a490919063ffffffff16565b915091509250929050565b60006116c583858461660d565b600080619f5e8360200151613918565b90506000619f6a615775565b60a0015190506116c58460e0015183600001518361b5d0565b6000816101c00151619f99836101800151616209565b619fa7846102400151616209565b619fb1919061d3ad565b6108af919061d3ad565b619fc860028501846138d5565b619fdb57619fd960028501846138f7565b505b6001600160a01b0383166000908152600485016020908152604080832081516080810183528154808252600183015494820194909452600282015492810192909252600381015460608301529290918591849161a03990849061d18d565b9091555050855460405160008051602061d9d68339815191529161a070916001600160a01b0390911690889085908790899061d649565b60405180910390a1505050505050565b60008061a08b615546565b546001600160a01b031692915050565b60006116c58484846000616b9e565b811561046e57600061a0c361a0be86611ea2565b61b5f3565b90508260005b82518110156184ae57600061a0f484838151811061a0e95761a0e961d161565b602002602001015190565b60038101549091506001600160a01b03888116911614801561a11f57506002810154610100900460ff165b1561a16e57600061a1386148fe83845489148d8b61b601565b90506000871361a1515761a14c818561d3ad565b61a15b565b61a15b818561d3f1565b93508360000361a16c5750506184ae565b505b5060010161a0c9565b6001600160a01b0382166000908152600484016020526040812060038101541580159061a1a45750805415155b1561917157604080516080810182528254808252600184015460208301526002840154928201929092526003830154606082018190529091101561a1e957815461a1ef565b81600301545b92508282600001600082825461a205919061d1d4565b925050819055508282600301600082825461a220919061d1d4565b925050819055508282600101600082825461a23b919061d1d4565b9091555061a2559050858461a24e615546565b919061b740565b855460405160008051602061d9d68339815191529161a287916001600160a01b03909116908890859087908a9061d649565b60405180910390a150509392505050565b600682015481111561a2e85760405162461bcd60e51b81526020600482015260196024820152781cdd58881a1bdb1908189a59d9d95c881d1a185b881a1bdb19603a1b60448201526064016102e5565b8154600283015460009161a30c916001600160a01b0391821691166004860161b191565b905081836004016002016000828254619d19919061d1d4565b611e9e8282600161b7e2565b611e9e8282600161b8b8565b8154600283015460009161a361916001600160a01b0391821691166004860161b191565b90508183600401600301600082825461a37a919061d3ad565b9091555050600783015461014082015261118d8161b293565b6001600160a01b038216600090815260028401602052604090206001015481111561a3fc5760405162461bcd60e51b81526020600482015260196024820152781cdd58881a1bdb1908189a59d9d95c881d1a185b881a1bdb19603a1b60448201526064016102e5565b6001600160a01b0382166000908152600284016020526040812061a42190849061b3ba565b6001600160a01b0384166000908152600286016020526040812060010180549293508492909190619e6e90849061d1d4565b61a460600c8401836138d5565b61a4735761a471600c8401836138f7565b505b6001600160a01b038083166000908152600e8501602052604081208554909261a49e9116858461b191565b90508282600401600082825461a4b4919061d18d565b9091555050600482015461016082015261046e8161b293565b61a4d883838361b912565b61a52f5760405162461bcd60e51b815260206004820152602260248201527f737562206661696c656420776974682062616c616e6365206e6f7420656e6f756044820152610ced60f31b60648201526084016102e5565b6001600160a01b0382166000908152600284016020526040812061a55490849061b3ba565b6001600160a01b038416600090815260028601602052604081208054929350849290919061a58390849061d1d4565b90915550506001600160a01b03831660009081526002850160205260409020546080820152612d808161b45d565b6001600160a01b0382166000908152600284016020526040812061a5d690849061b3ba565b6001600160a01b0384166000908152600280870160205260408220018054929350849290919061a60790849061d18d565b90915550506001600160a01b038316600090815260028086016020526040909120015460c0820152612d808161b45d565b82546001600160a01b038381166000908152600e860160205260408120909261a664921690859061b191565b905061a673600c8501846138d5565b1561a6ad576001600160a01b0383166000908152600e850160205260408120805484929061a6a290849061d18d565b9091555061a6d99050565b61a6ba600c8501846138f7565b506001600160a01b0383166000908152600e8501602052604090208290555b6001600160a01b0383166000908152600e8501602052604090205460e0820152612d808161b293565b61a70f600c8401836138d5565b61a7225761a720600c8401836138f7565b505b82546001600160a01b038381166000908152600e860160205260408120909261a74e921690859061b191565b6001600160a01b0384166000908152600e8601602052604081206003018054929350849290919061a78090849061d3ad565b90915550506001600160a01b0383166000908152600e85016020526040902060030154610140820152612d808161b293565b60009081526020919091526040812080546001600160a01b0319168155600181018290556002810180546001600160d01b031916905560038101829055600481018290556005810182905560068101829055600781018290556008810182905560098101829055600a0155565b600061a82a8461b98c565b905060008061a839838661b9e3565b91509150811561a8bb5761a8598561a851868461d18d565b85919061ba08565b507ff19b578fc2b5cd359b489ade8c3e89c78f14417b5c22c020c2ef6918f818f9d286868361a888888261d18d565b604080516001600160a01b03958616815294909316602085015291830152606082015260800160405180910390a1613e0c565b61a8c683868661ba08565b50604080516001600160a01b03808916825287166020820152600091810191909152606081018590527ff19b578fc2b5cd359b489ade8c3e89c78f14417b5c22c020c2ef6918f818f9d29060800161a070565b60608247101561a97a5760405162461bcd60e51b815260206004820152602660248201527f416464726573733a20696e73756666696369656e742062616c616e636520666f6044820152651c8818d85b1b60d21b60648201526084016102e5565b600080866001600160a01b0316858760405161a996919061d391565b60006040518083038185875af1925050503d806000811461a9d3576040519150601f19603f3d011682016040523d82523d6000602084013e61a9d8565b606091505b50915091506197818783838761ba1e565b6000828152600c8401602052604081206116c590836138d5565b6000908152600391909101602052604090205460ff1690565b600081831161aa345761aa2f838361d1d4565b611a5d565b611a5d828461d1d4565b600080600061aa4c8561ba97565b905060005b815181101561ab265761aa6f82828151811061594a5761594a61d161565b511561ab1e57600086600401600084848151811061aa8f5761aa8f61d161565b60200260200101516001600160a01b03166001600160a01b03168152602001908152602001600020604051806080016040529081600082015481526020016001820154815260200160028201548152602001600382015481525050905061ab1a61ab1384848151811061ab045761ab0461d161565b6020026020010151838961baa5565b8590619ab9565b9350505b60010161aa51565b5090949350505050565b600080600080600061ab418761ba97565b905060005b815181101561ac2857600088600401600084848151811061ab695761ab6961d161565b60200260200101516001600160a01b03166001600160a01b03168152602001908152602001600020604051806080016040529081600082015481526020016001820154815260200160028201548152602001600382015481525050905061abf461abed84848151811061abde5761abde61d161565b6020026020010151838b61bb04565b8690619ab9565b945061ac1d61ab1384848151811061ac0e5761ac0e61d161565b6020026020010151838b61bb76565b93505060010161ab46565b5060018701541561ac5757600187015461ac42908461d18d565b925086600101548261ac54919061d18d565b91505b50909590945092505050565b61ac9c6040518060c001604052806000815260200160008152602001600081526020016000815260200160008152602001600081525090565b61aca58361bbd5565b600061acb284600161bbfd565b9050600061acbe615775565b60a00151905060005b825181101561ae2d57600083828151811061ace45761ace461d161565b60200260200101519050600061ad03878360c00151846040015161be1b565b9050600061ad148360200151613918565b9050600061ad25848a856000619e9f565b9050600081131561ad645761ad5d61ad558261ad5061ad478860a00151618db1565b60400151616209565b61bebf565b89519061bed0565b885261ad90565b61ad8d61ad558261ad5061ad7b8860a00151618db1565b61010001516148fe90620186a061d18d565b88525b61adb161ada68560e0015184600001518961b5d0565b60608a015190619ab9565b6060890152610160840151602089015161adca91619ab9565b6020890152610180840151604089015161ade391619ab9565b604089015260e084015160a089015161adfb91619ab9565b60a089015261ae1861ae0d858b61bedc565b60808a01519061bed0565b608089015250506001909201915061acc79050565b50505092915050565b600060405160200161ae6d9060208082526011908201527008c8a8abe829a9eaa9ca8bea0a48a8c92b607b1b604082015260600190565b60408051601f198184030181528282528051602091820120908301526001600160a01b03808616918301919091528316606082015260800160405160208183030381529060405280519060200120905092915050565b60078201546004830154600091829161aedb90616209565b61aee5919061d3ad565b9050600081121561aefa5760009150506108af565b600061af058561c1c7565b80519091501561b09757600285015460009061af29906001600160a01b03166165a9565b600287015490915060009061af4a9087906001600160a01b0316600161be1b565b905060005b835181101561b09357600088600e01600086848151811061af725761af7261d161565b60200260200101516001600160a01b03166001600160a01b0316815260200190815260200160002090506000816004015411801561afd4575061afb88160040154616209565b6003820154825461afc890616209565b61afd2919061d3ad565b125b1561b08a57600061b058826003015461aff08460000154616209565b61affd8560040154616209565b61b007919061d3f1565b61b011919061d3f1565b61b03388868151811061b0265761b02661d161565b60200260200101516165a9565b616f418c8a888151811061b0495761b04961d161565b6020026020010151600161be1b565b9050600061b067828787619a84565b90508088131561b0825761b07b818961d3f1565b975061b087565b600097505b50505b5060010161af4f565b5050505b600061b0a98361ad506148fe8961b0e5565b905061b0bb8660040160020154616209565b811361b0c8576000616841565b61684161b0db8760040160020154616209565b6180d7908361d3f1565b805460009061b0fc906001600160a01b031661924d565b6020015192915050565b60008260000361b1535761b11982616209565b61b1268560020154616209565b6003860154865461b13690616209565b61b140919061d3ad565b61b14a919061d3f1565b12159050611a5d565b61b15c82616209565b61b1698560020154616209565b61b140866003015461b17e8860000154616209565b61b188919061d3ad565b61ad5087616209565b61b20e604051806101a0016040528060006001600160a01b0316815260200160006001600160a01b0316815260200160008152602001600081526020016000815260200160008152602001600081526020016000815260200160008152602001600081526020016000815260200160008152602001600081525090565b6001600160a01b03808516825283166020820152815460408201819052600183015460608301819052600284015460808401819052600385015460a08501819052600486015460c0860181905260e086019490945261010085019290925261012084015261014083015261016082015261b2866134c0565b6101808201529392505050565b7f3c20d1ba6bcc5e5bd62d967908bf1ce684e6b52dbaab9f84ebfbf1b184b46bf8816000015182602001518360400151846060015185608001518660a001518760c001518860e001518961010001518a61012001518b61014001518c61016001518d61018001516040516161fe9d9c9b9a999897969594939291906001600160a01b039d8e1681529b909c1660208c015260408b019990995260608a0197909752608089019590955260a088019390935260c087019190915260e08601526101008501526101208401526101408301526101608201526101808101919091526101a00190565b61b3b26040518060c001604052806000815260200160008152602001600081526020016000815260200160608152602001606081525090565b61353c61c1d5565b61b40b60405180610100016040528060006001600160a01b03168152602001600081526020016000815260200160008152602001600081526020016000815260200160008152602001600081525090565b6001600160a01b0383168152815460208201819052600183015460408301819052600284015460608401819052608084019290925260a083015260c082015261b4526134c0565b60e082015292915050565b805160208083015160408085015160608087015160808089015160a0808b015160c0808d015160e0808f01518b516001600160a01b03909f168f529c8e019b909b52988c0197909752948a0193909352908801528601528401528201527f217ba1d63771ad2228865ab2d862a89115d536eabbe8315c584eafe090d7f42290610100016161fe565b6000808460e0015160000361b4ff5750600090508061b5c8565b84604001511561b56657600061b54461b51c876101000151616209565b613cb761b53761b5308a6101000151616209565b889061c4a7565b617d9f8a60e00151616209565b905061b55d8161b5578860a001516165a9565b86619a84565b9250905061b5c8565b600061b59461b579876101000151616209565b613cb761b5378761b58e8b6101000151616209565b9061c4a7565b9050600061b5a8868860a00151600061be1b565b905061b5c18261b5bb8960a001516165a9565b83619a84565b9350909150505b935093915050565b60006116c561b5df8584616cf6565b61923a8661b5ee8760026163a4565b61c4b3565b60606108af82600501613605565b600084600a01548560090154148061b617575081155b1561b624575060006116c5565b600082131561b6a257600061b6538660090154616811886008015489600a01548a60090154613d6f919061d1d4565b905061b6628161923a85616557565b915061b68386600801546168118860090154856163a490919063ffffffff16565b86600a01600082825461b696919061d18d565b9091555061b720915050565b600061b6c186600801546168118860090154613d6f876180d79061d3d5565b90508086600a01541161b6f5576000600a87018190556009870154600888015461b6ee92616811916163a4565b915061b71e565b8086600a01600082825461b709919061d1d4565b9091555061b71b90506180d78461d3d5565b91505b505b83801561b72d5750600081115b156116c5576116c585846008600061c4c3565b6001600160a01b038216600090815260068401602052604090205481111561b7b85760405162461bcd60e51b815260206004820152602560248201527f737562546f6b656e4c696162696c697479206c657373207468616e206c696162604482015264696c69747960d81b60648201526084016102e5565b6001600160a01b038216600090815260068401602052604081208054839290619a2c90849061d1d4565b600483015482111561b8465760405162461bcd60e51b815260206004820152602760248201527f6261736520746f6b656e20616d6f756e74206c657373207468616e2073756220604482015266616d6f756e742160c81b60648201526084016102e5565b801561b8a1578254600284015460009161b870916001600160a01b0391821691166004870161b191565b90508284600401600001600082825461b889919061d1d4565b9091555050600484015460e0820152612d808161b293565b81836004016000016000828254619a2c919061d1d4565b801561b8fb578254600284015460009161b8e2916001600160a01b0391821691166004870161b191565b90508284600401600001600082825461b889919061d18d565b81836004016000016000828254619a2c919061d18d565b6001600160a01b03821660009081526002840160205260408120805483111561b93f576000915050611a5d565b600061b949619d32565b90508060000361b9705760018201548254859161b9659161d1d4565b101592505050611a5d565b6001820154825461b9659061b98690879061d1d4565b83616cf6565b60008082604051602001611ef991906040808252601e908201527f78797a2e656c66692e73746f726167652e496e737572616e636546756e64000060608201526001600160a01b0391909116602082015260800190565b600080808061b9fb866001600160a01b03871661c593565b9097909650945050505050565b60006116c5846001600160a01b0385168461c5d5565b6060831561ba8d57825160000361ba86576001600160a01b0385163b61ba865760405162461bcd60e51b815260206004820152601d60248201527f416464726573733a2063616c6c20746f206e6f6e2d636f6e747261637400000060448201526064016102e5565b50816116c5565b6116c5838361c5f2565b60606108af82600201613605565b6000826020015183600001511161babe57506000611a5d565b600061baec8460200151856000015161bad7919061d1d4565b61bae0876165a9565b616e328689600161c61c565b90506120fa8161bafb87618db1565b60400151616cf6565b6000826000015183602001511161bb1d57506000611a5d565b600061bb368460000151856020015161bad7919061d1d4565b9050600061bb4386618db1565b6101000151111561bb6f5761bb658161bb5b87618db1565b6101000151616cf6565b619b08908261d18d565b9050611a5d565b8151606083015160208401516000929161bb8f9161d1d4565b1161bb9c57506000611a5d565b8251606084015160208501516116c5929161bbb69161d1d4565b61bbc0919061d1d4565b61bbc9866165a9565b616e328588600161c61c565b80546001600160a01b0316610ff357604051633902b86b60e11b815260040160405180910390fd5b6060600061bc0a8461b5f3565b9050600061bc18828561c67e565b67ffffffffffffffff81111561bc305761bc3061cf0d565b60405190808252806020026020018201604052801561bc6957816020015b61bc5661cafb565b81526020019060019003908161bc4e5790505b5090506000805b835181101561be1057600061bc9085838151811061a0e95761a0e961d161565b6040805161022081018252825481526001830154602080830191909152600284015460ff808216151584860152610100808304909116151560608086019182526001600160a01b036201000090940484166080808801919091526003890154851660a08089019190915260048a015490951660c08089019190915260058a015460e0808a019190915260068b01549589019590955260078a015461012089015260088a015461014089015260098a0154610160890152600a8a0154610180890152600b8a01546101a089015288519485018952600c8a01548552600d8a015496850196909652600e89015497840197909752600f880154908301526010870154958201959095526011860154918101919091526012850154918101919091526101c082015260138301546101e0820152601490920154610200830152519091508715159015150361be07578084848151811061bdee5761bdee61d161565b602090810291909101015261be0460018461d18d565b92505b5060010161bc70565b509095945050505050565b6000805b845181101561beb457836001600160a01b031685828151811061be445761be4461d161565b6020026020010151600001516001600160a01b03160361beac578261be865784818151811061be755761be7561d161565b602002602001015160600151619b08565b84818151811061be985761be9861d161565b602002602001015160400151915050611a5d565b60010161be1f565b506116c5838361405f565b6000611a5d619a4c620186a0616209565b6000611a5d828461d3ad565b600061bf216040518060e001604052806000815260200160008152602001600060ff168152602001600081526020016000815260200160008152602001600081525090565b61bf3384602001518560400151616d59565b606082015260e084015161bf639061bf4a90616209565b856101c00151608001518360600151616ecd919061d3f1565b608082015260a084015161bf76906165a9565b60ff166040808301919091528401511561bfc55761bfaa81608001518260400151616f41868860a00151896040015161be1b565b846101c0015160c0015161bfbe919061d3ad565b815261bfe1565b8060800151846101c0015160c0015161bfde919061d3ad565b81525b600061bff085602001516122ae565b6040805160c08101909152815481526001820154909190602083019060ff16600381111561c0205761c02061cd6b565b600381111561c0315761c03161cd6b565b815260018201546001600160a01b0361010090910481166020830152600283015481166040830152600383015416606082015260048201805460809092019161c0799061d1a0565b80601f016020809104026020016040519081016040528092919081815260200182805461c0a59061d1a0565b801561c0f25780601f1061c0c75761010080835404028352916020019161c0f2565b820191906000526020600020905b81548152906001019060200180831161c0d557829003601f168201915b505050505081525050905061c114816040015186604001518760a00151616d06565b60a083015261014085015161012086015161c1549161c13b91614a9a90620186a09061d1d4565b866101c00151602001518460a00151616468919061d1d4565b8260c001818152505061c17d8260c001518360400151616e32878960a001518a6040015161c61c565b856101c001516060015161c191919061d18d565b6020830181905261c1a190616209565b82516101c08701515161c1b390616209565b61c1bd919061d3ad565b6120fa919061d3ad565b60606108af82600c01613605565b61c20e6040518060c001604052806000815260200160008152602001600081526020016000815260200160608152602001606081525090565b60008060405160200161c244906020808252600f908201526e5553445f504f4f4c5f434f4e46494760881b604082015260600190565b60405160208183030381529060405280519060200120905061c29881604051602001611bd8906020808252601490820152731413d3d317d3125455525112551657d31253525560621b604082015260600190565b835260405161c2d1908290611bd8906020016020808252600d908201526c4d494e545f4645455f5241544560981b604082015260600190565b83602001818152505061c31181604051602001611bd8906020808252600f908201526e52454445454d5f4645455f5241544560881b604082015260600190565b83604001818152505061c35781604051602001611bd890602080825260159082015274155394d1551513115117d490551253d7d312535255605a1b604082015260600190565b606084015260405161c39b90829061587490602001602080825260159082015274535550504f52545f535441424c455f544f4b454e5360581b604082015260600190565b608084018190525167ffffffffffffffff81111561c3bb5761c3bb61cf0d565b60405190808252806020026020018201604052801561c3e4578160200160208202803683370190505b5060a084015260005b83608001515181101561c4a15761c478828560800151838151811061c4145761c41461d161565b602002602001015160405160200161c42b9061d906565b6040516020818303038152906040528051906020012060405160200161c4539392919061d8d3565b60405160208183030381529060405280519060200120846135f290919063ffffffff16565b8460a00151828151811061c48e5761c48e61d161565b602090810291909101015260010161c3ed565b50505090565b6000611a5d828461d3f1565b6000611a5d83620186a08461978c565b6002840154600185015460038601547fee2b9c77532fd89e66e2f431c2001e4bcc30fb5bc62ee9cdac252f89540067ae92869261c51c926001600160a01b0362010000840481169391169060ff610100909104166144cd565b8487604051806101a0016040528087815260200160008152602001600081526020016000815260200160008152602001600081526020016000815260200160008152602001600081526020016000815260200160008152602001600081526020016000815250604051618c2b95949392919061d6c5565b600081815260028301602052604081205481908061c5c25761c5b5858561c80b565b9250600091506134599050565b600192509050613459565b509250929050565b600082815260028401602052604081208290556116c5848461390c565b81511561c6025781518083602001fd5b8060405162461bcd60e51b81526004016102e5919061d9a2565b6000805b845181101561beb457836001600160a01b031685828151811061c6455761c64561d161565b6020026020010151600001516001600160a01b03160361c676578261be865784818151811061be755761be7561d161565b60010161c620565b60008061c68961cafb565b60005b855181101561ab265761c6aa86828151811061a0e95761a0e961d161565b6040805161022081018252825481526001830154602080830191909152600284015460ff808216151584860152610100808304909116151560608086019182526001600160a01b036201000090940484166080808801919091526003890154851660a08089019190915260048a015490951660c08089019190915260058a015460e0808a019190915260068b01549589019590955260078a015461012089015260088a015461014089015260098a0154610160890152600a8a0154610180890152600b8a01546101a089015288519485018952600c8a01548552600d8a015496850196909652600e89015497840197909752600f880154908301526010870154958201959095526011860154918101919091526012850154918101919091526101c082015260138301546101e0820152601490920154610200830152519092508515159015150361c8035761c80060018461d18d565b92505b60010161c68c565b6000611a5d83836138bd565b60405180604001604052806000815260200161c8bd60408051610220810182526000808252602082018190529091820190815260200160008152602001600081526020016000815260200160001515815260200160001515815260200160006001600160a01b0316815260200160008152602001600081526020016000815260200160008152602001600081526020016000815260200160008152602001600081525090565b905290565b60405180610100016040528060008152602001600081526020016000815260200160008152602001600081526020016000815260200160008152602001600081525090565b60405180610120016040528060001515815260200160008152602001600081526020016000815260200160008152602001600081526020016000815260200160008152602001600081525090565b6040518061014001604052806000815260200160008152602001600081526020016000815260200160008152602001600081526020016000815260200160008152602001600081526020016000151581525090565b6040518060e0016040528060008152602001600081526020016000815260200160008152602001600081526020016000815260200160006001600160a01b031681525090565b604051806102c0016040528060006001600160a01b0316815260200161ca1461cafb565b8152602001600081526020016000815260200160008152602001600081526020016000815260200160008152602001600081526020016000815260200160008152602001600081526020016000815260200160008152602001600081526020016000815260200160008152602001600081526020016000815260200160008152602001600081526020016000151581525090565b604051806101400160405280600081526020016000815260200160008152602001600081526020016000815260200160008152602001600081526020016000815260200160008152602001606081525090565b604051806102200160405280600080191681526020016000801916815260200160001515815260200160001515815260200160006001600160a01b0316815260200160006001600160a01b0316815260200160006001600160a01b031681526020016000815260200160008152602001600081526020016000815260200160008152602001600081526020016000815260200161cbce6040518060e00160405280600081526020016000815260200160008152602001600081526020016000815260200160008152602001600081525090565b815260200160008152602001600081525090565b60008060006040848603121561cbf757600080fd5b83359250602084013567ffffffffffffffff8082111561cc1657600080fd5b818601915086601f83011261cc2a57600080fd5b81358181111561cc3957600080fd5b8760208260071b850101111561cc4e57600080fd5b6020830194508093505050509250925092565b60006101e08284031215610b7e57600080fd5b6000806020838503121561cc8757600080fd5b823567ffffffffffffffff8082111561cc9f57600080fd5b818501915085601f83011261ccb357600080fd5b81358181111561ccc257600080fd5b8660206101e08302850101111561ccd857600080fd5b60209290920196919550909350505050565b6020808252825182820181905260009190848201906040850190845b8181101561cd225783518352928401929184019160010161cd06565b50909695505050505050565b6001600160a01b0381168114610ff357600080fd5b80356105d98161cd2e565b60006020828403121561cd6057600080fd5b8135611a5d8161cd2e565b634e487b7160e01b600052602160045260246000fd5b6003811061cd915761cd9161cd6b565b9052565b6004811061cd915761cd9161cd6b565b80516001600160a01b0316825260208101516020830152604081015161cdce604084018261cd81565b50606081015161cde1606084018261cd81565b50608081015161cdf4608084018261cd95565b5060a081015161ce0760a084018261cd81565b5060c081015161ce1b60c084018215159052565b5060e081015161ce2f60e084018215159052565b50610100818101516001600160a01b03169083015261012080820151908301526101408082015190830152610160808201519083015261018080820151908301526101a080820151908301526101c080820151908301526101e0808201519083015261020090810151910152565b6020808252825182820181905260009190848201906040850190845b8181101561cd225783518051845285015161ced68685018261cda5565b5092840192610240929092019160010161ceb9565b6000806040838503121561cefe57600080fd5b50508035926020909101359150565b634e487b7160e01b600052604160045260246000fd5b6040516101e0810167ffffffffffffffff8111828210171561cf5557634e487b7160e01b600052604160045260246000fd5b60405290565b60006080828403121561cf6d57600080fd5b6040516080810181811067ffffffffffffffff8211171561cf9e57634e487b7160e01b600052604160045260246000fd5b604052823561cfac8161cd2e565b8152602083013561cfbc8161cd2e565b6020820152604083810135908201526060928301359281019290925250919050565b60006020828403121561cff057600080fd5b8151611a5d8161cd2e565b60038110610ff357600080fd5b80356105d98161cffb565b60006020828403121561d02557600080fd5b8135611a5d8161cffb565b8015158114610ff357600080fd5b80356105d98161d030565b60006020828403121561d05b57600080fd5b8135611a5d8161d030565b8035600481106105d957600080fd5b60006101e0828403121561d08857600080fd5b61d09061cf23565b8235815261d0a06020840161d03e565b602082015261d0b16040840161d03e565b604082015261d0c26060840161d008565b606082015261d0d36080840161d008565b608082015261d0e460a0840161d066565b60a082015261d0f560c0840161d008565b60c082015261d10660e0840161cd43565b60e0820152610100838101359082015261012080840135908201526101408084013590820152610160808401359082015261018080840135908201526101a080840135908201526101c0928301359281019290925250919050565b634e487b7160e01b600052603260045260246000fd5b634e487b7160e01b600052601160045260246000fd5b808201808211156108af576108af61d177565b600181811c9082168061d1b457607f821691505b602082108103610b7e57634e487b7160e01b600052602260045260246000fd5b818103818111156108af576108af61d177565b80820281158282048414176108af576108af61d177565b81546001600160a01b03168152610220810160018301546020830152600283015460ff61d2306040850182841661cd81565b61d24260608501828460081c1661cd81565b61d25460808501828460101c1661cd95565b61d26660a08501828460181c1661cd81565b61d27960c08501828460201c1615159052565b61d28c60e08501828460281c1615159052565b5060301c6001600160a01b0316610100830152600383015461012083015260048301546101408301526005830154610160830152600683015461018083015260078301546101a083015260088301546101c083015260098301546101e0830152600a909201546102009091015290565b610240810161d30b828561cda5565b826102208301529392505050565b610260810161d328828661cda5565b6102208201939093526102400152919050565b60006001820161d34d5761d34d61d177565b5060010190565b60006020828403121561d36657600080fd5b5051919050565b60005b8381101561d38857818101518382015260200161d370565b50506000910152565b6000825161d3a381846020870161d36d565b9190910192915050565b808201828112600083128015821682158216171561d3cd5761d3cd61d177565b505092915050565b6000600160ff1b820161d3ea5761d3ea61d177565b5060000390565b8181036000831280158383131683831282161715618d2c57618d2c61d177565b80516020808301519190811015610b7e5760001960209190910360031b1b16919050565b60006020828403121561d44757600080fd5b8151611a5d8161d030565b80820260008212600160ff1b8414161561d46e5761d46e61d177565b81810583148215176108af576108af61d177565b634e487b7160e01b600052601260045260246000fd5b60008261d4a75761d4a761d482565b600160ff1b82146000198414161561d4c15761d4c161d177565b500590565b6001600160a01b03831681528154602082015260018201546040820152600282015460608201526003820154608082015260a08101611a5d565b81548152600182015460208201526002820154604082015260038201546060820152608081016108af565b60006020828403121561d53d57600080fd5b815160ff81168114611a5d57600080fd5b600181815b8085111561c5cd57816000190482111561d56f5761d56f61d177565b8085161561d57c57918102915b93841c939080029061d553565b60008261d598575060016108af565b8161d5a5575060006108af565b816001811461d5bb576002811461d5c55761d5e1565b60019150506108af565b60ff84111561d5d65761d5d661d177565b50506001821b6108af565b5060208310610133831016604e8410600b841016171561d604575081810a6108af565b61d60e838361d54e565b806000190482111561d6225761d62261d177565b029392505050565b6000611a5d60ff84168361d589565b600f811061cd915761cd9161cd6b565b6001600160a01b03868116825285166020820152610160810161d6906040830186805182526020810151602083015260408101516040830152606081015160608301525050565b835460c0830152600184015460e08301526002840154610100830152600384015461012083015261684161014083018461d639565b858152602081018590526104e081016009851061d6e45761d6e461cd6b565b8460408301528354606083015260018401546080830152600284015461d71160a0840160ff831615159052565b61d72560c0840160ff8360081c1615159052565b6001600160a01b03601082901c1660e08401525060038401546001600160a01b03166001600160a01b0381166101008401525060048401546001600160a01b03166001600160a01b0381166101208401525060058401546101408301526006840154610160830152600784015461018083015260088401546101a083015260098401546101c0830152600a8401546101e0830152600b840154610200830152600c840154610220830152600d840154610240830152600e840154610260830152600f84015461028083015260108401546102a083015260118401546102c083015260128401546102e08301526013840154610300830152601484015461032083015282516103408301526020830151610360830152604083015161038083015260608301516103a083015260808301516103c083015260a08301516103e083015260c083015161040083015260e08301516104208301526101008301516104408301526101208301516104608301526101408301516104808301526101608301516104a08301526101808301516104c0830152616841565b634e487b7160e01b600052603160045260246000fd5b9283526001600160a01b03919091166020830152604082015260600190565b60008261d9015761d90161d482565b500490565b60208082526025908201527f535441424c455f544f4b454e535f424f52524f57494e475f494e5445524553546040820152645f5241544560d81b606082015260800190565b60008261d95a5761d95a61d482565b500690565b60208082526023908201527f686f6c64206661696c656420776974682062616c616e6365206e6f7420656e6f6040820152620eaced60eb1b606082015260800190565b602081526000825180602084015261d9c181604085016020870161d36d565b601f01601f1916919091016040019291505056fe1d59acd5f3bb87326c498fe747e339bda33b5370b6f8df63a48f232d73efb748a2646970667358221220b1936bfcc41c5e3f0507d3a1b0971215ab121931dff614a150308a8fc3d929b564736f6c634300081900336080604052348015600f57600080fd5b50600160005561c80f806100246000396000f3fe6080604052600436106100865760003560e01c806374315647116100595780637431564714610123578063cb5c8d8114610144578063e606789b14610164578063fb11e96914610184578063fe1b7245146101b157600080fd5b806309fb7aac1461008b578063311be5f4146100ad57806341065c62146100cd57806359086dc914610103575b600080fd5b34801561009757600080fd5b506100ab6100a636600461b75e565b6101c4565b005b3480156100b957600080fd5b506100ab6100c836600461b7d3565b6102d3565b3480156100d957600080fd5b506100ed6100e836600461b890565b6104a6565b6040516100fa919061ba21565b60405180910390f35b34801561010f57600080fd5b506100ab61011e36600461ba30565b6105ff565b61013661013136600461ba52565b61076a565b6040519081526020016100fa565b34801561015057600080fd5b506100ab61015f36600461b7d3565b610a86565b34801561017057600080fd5b506100ab61017f36600461ba30565b610b8b565b34801561019057600080fd5b506101a461019f36600461ba6b565b610c38565b6040516100fa919061ba88565b6101366101bf36600461baed565b610e8b565b60005a90506101db6525a2a2a822a960d11b61104c565b60006102067f8116fe254c434350c8a963d750885fee6b2213d5416ba4444044ed0bb91a725d61107f565b905060005b838110156102c357600061023486868481811061022a5761022a61baff565b9050602002013590565b905061023f816110df565b6040805160e08101825284815260018301546020820152600091810191909152600282015460ff610100820481161515606084015260038401546001600160a01b039081166080850152600585015460a085015260048501546102ba949360c08501936102b193929092169116611104565b9052829061112e565b5060010161020b565b506102cd82611ae4565b50505050565b60005a90506102ea6525a2a2a822a960d11b61104c565b60006102f585611b15565b80519091506001600160a01b03166103205760405163fd0b752360e01b815260040160405180910390fd5b61037b8484808060200260200160405190810160405280939291908181526020016000905b82821015610371576103626080830286013681900381019061bb2b565b81526020019060010190610345565b5050505050611be4565b6103858582611d5f565b61038d6120d3565b61049f6040518060a001604052808360c0015161040b57306001600160a01b0316631f7592ea6040518163ffffffff1660e01b8152600401602060405180830381865afa1580156103e2573d6000803e3d6000fd5b505050506040513d601f19601f82011682018060405250810190610406919061bbae565b61046d565b306001600160a01b03166397e7b7f26040518163ffffffff1660e01b8152600401602060405180830381865afa158015610449573d6000803e3d6000fd5b505050506040513d601f19601f8201168201806040525081019061046d919061bbae565b6001600160a01b03908116825260808086015160208401526040830187905233606084015285519091169101526120e5565b5050505050565b6104ae61b43c565b6104ba8585858561218e565b6040805161022081018252825481526001830154602080830191909152600284015460ff80821615158486015261010080830490911615156060808601919091526001600160a01b036201000090930483166080808701919091526003880154841660a080880191909152600489015490941660c080880191909152600589015460e08089019190915260068a015494880194909452600789015461012088015260088901546101408801526009890154610160880152600a890154610180880152600b8901546101a088015287519384018852600c8901548452600d89015495840195909552600e88015496830196909652600f870154908201526010860154948101949094526011850154908401526012840154908301526101c081019190915260138201546101e082015260149091015461020082015290505b949350505050565b60005a90506106166525a2a2a822a960d11b61104c565b6000610621846121ab565b80519091506001600160a01b031661064c5760405163093d047f60e21b815260040160405180910390fd5b6106578482856122ab565b6102cd6040518060a0016040528083606001516106d557306001600160a01b0316631f7592ea6040518163ffffffff1660e01b8152600401602060405180830381865afa1580156106ac573d6000803e3d6000fd5b505050506040513d601f19601f820116820180604052508101906106d0919061bbae565b610737565b306001600160a01b03166397e7b7f26040518163ffffffff1660e01b8152600401602060405180830381865afa158015610713573d6000803e3d6000fd5b505050506040513d601f19601f82011682018060405250810190610737919061bbae565b6001600160a01b0390811682526101008501516020830152604082018690523360608301528451166080909101526120e5565b60008061077783356123a3565b9050600061078584356123b4565b6040805160c08101909152815481526001820154909190602083019060ff1660038111156107b5576107b561bbcb565b60038111156107c6576107c661bbcb565b815260018201546001600160a01b0361010090910481166020830152600283015481166040830152600383015416606082015260048201805460809092019161080e9061bbe1565b80601f016020809104026020016040519081016040528092919081815260200182805461083a9061bbe1565b80156108875780601f1061085c57610100808354040283529160200191610887565b820191906000526020600020905b81548152906001019060200180831161086a57829003601f168201915b505050919092525091925061089a915050565b6000816020015160038111156108b2576108b261bbcb565b146108d8576040516303035c6f60e61b8152843560048201526024015b60405180910390fd5b8151608085013511806108fb57506108f4620186a0600161bc2b565b8460800135105b1561092657604051635c93c83760e01b815284356004820152608085013560248201526044016108cf565b3360006109328261241a565b905060008660c001351180156109555750610953608087016060880161bc42565b155b15610a4e5761096a606087016040880161bc42565b158061097957508560c0013534145b6109c15760405162461bcd60e51b81526020600482015260196024820152784465706f7369742065746820616d6f756e74206572726f722160381b60448201526064016108cf565b610a4c6040518060a00160405280846001600160a01b031681526020018860400160208101906109f1919061bc42565b610a0a57610a0560c08a0160a08b0161ba6b565b610a14565b610a12612471565b515b6001600160a01b0316815260c0890135602082015260400160018152602001610a4360608a0160408b0161bc42565b15159052612881565b505b600080610a5b8389612b1c565b9092509050610a7a84610a73368b90038b018b61bc5f565b8484612c5c565b98975050505050505050565b60005a9050610a9d6525a2a2a822a960d11b61104c565b6000610aa8856121ab565b80519091506001600160a01b0316610ad35760405163093d047f60e21b815260040160405180910390fd5b610b248484808060200260200160405190810160405280939291908181526020016000905b8282101561037157610b156080830286013681900381019061bb2b565b81526020019060010190610af8565b610b2e8582612d83565b610b366120d3565b61049f6040518060a0016040528083606001516106d557306001600160a01b0316631f7592ea6040518163ffffffff1660e01b8152600401602060405180830381865afa1580156106ac573d6000803e3d6000fd5b60005a9050610ba26525a2a2a822a960d11b61104c565b6000610bad84611b15565b80519091506001600160a01b0316610bd85760405163fd0b752360e01b815260040160405180910390fd5b610be3848285613266565b6102cd6040518060a001604052808360c0015161040b57306001600160a01b0316631f7592ea6040518163ffffffff1660e01b8152600401602060405180830381865afa1580156103e2573d6000803e3d6000fd5b60606000610c458361241a565b9050610c5a81546001600160a01b0316151590565b610c675750606092915050565b6000610c7282613330565b90506000815167ffffffffffffffff811115610c9057610c9061bb15565b604051908082528060200260200182016040528015610cc957816020015b610cb661b523565b815260200190600190039081610cae5790505b50905060005b8251811015610e82576000610cfa848381518110610cef57610cef61baff565b602002602001015190565b6040805161022081018252825481526001830154602080830191909152600284015460ff80821615158486015261010080830490911615156060808601919091526001600160a01b036201000090930483166080808701919091526003880154841660a080880191909152600489015490941660c080880191909152600589015460e08089019190915260068a015494880194909452600789015461012088015260088901546101408801526009890154610160880152600a890154610180880152600b8901546101a088015287519384018852600c8901548452600d89015495840195909552600e88015496830196909652600f870154908201526010860154948101949094526011850154908401526012840154908301526101c081019190915260138201546101e08201526014820154610200820152845191925090849084908110610e4b57610e4b61baff565b60209081029190910101515242838381518110610e6a57610e6a61baff565b60209081029190910101516040015250600101610ccf565b50949350505050565b60008160800135600003610eb257604051630b4fc37360e11b815260040160405180910390fd5b336000610ebe8261241a565b9050610ecb81853561333e565b610ee857604051634a32858f60e01b815260040160405180910390fd5b83356002810154610100900460ff1615610f1557604051633046114760e01b815260040160405180910390fd5b610f25604086016020870161bc42565b1561101557610f3a606086016040870161bc42565b1580610f495750846080013534145b610f915760405162461bcd60e51b81526020600482015260196024820152784465706f7369742065746820616d6f756e74206572726f722160381b60448201526064016108cf565b6110136040518060a00160405280856001600160a01b03168152602001876040016020810190610fc1919061bc42565b610fda57610fd56080890160608a0161ba6b565b610fe4565b610fe2612471565b515b6001600160a01b031681526080880135602082015260400160018152602001610a436060890160408a0161bc42565b505b6000806110228488613354565b90925090506110418561103a368a90038a018a61bd1e565b8484613474565b979650505050505050565b611056338261355e565b61107c57604051632d7d0e0d60e21b8152336004820152602481018290526044016108cf565b50565b60008061108a61358e565b6000848152602082905260409020549091506104578110156110ba576110b3610457600161bdbe565b90506110c8565b806110c48161bdd1565b9150505b600093845260209190915260409092208290555090565b806005015460000361107c57604051634a32858f60e01b815260040160405180910390fd5b600080611110846135f0565b905082611121578060200151611124565b80515b9150505b92915050565b6040805161022081018252835481526001840154602080830191909152600285015460ff80821615158486015261010080830490911615156060808601919091526001600160a01b036201000090930483166080808701919091526003890154841660a08088019190915260048a015490941660c08088019190915260058a015460e08089019190915260068b01549488019490945260078a015461012088015260088a015461014088015260098a0154610160880152600a8a0154610180880152600b8a01546101a088015287519384018852600c8a01548452600d8a015495840195909552600e89015496830196909652600f880154908201526010870154948101949094526011860154908401526012850154838201526101c082019290925260138401546101e08201526014840154610200820152908201516000916112829161127b90613683565b60006136f1565b9050600061129383602001516123b4565b6040805160c08101909152815481526001820154909190602083019060ff1660038111156112c3576112c361bbcb565b60038111156112d4576112d461bbcb565b815260018201546001600160a01b0361010090910481166020830152600283015481166040830152600383015416606082015260048201805460809092019161131c9061bbe1565b80601f01602080910402602001604051908101604052809291908181526020018280546113489061bbe1565b80156113955780601f1061136a57610100808354040283529160200191611395565b820191906000526020600020905b81548152906001019060200180831161137857829003601f168201915b505050505081525050905060006113af8460200151613701565b90506113bf8583604001516139d6565b6113c885613ae0565b60006113f5868660a00151866113e18960c00151613683565b86606001518a604001518b60600151613c70565b905060008160a0015112801561140e5750806102a00151155b801561142457506002860154610100900460ff16155b1561144157604051627b2f7360e51b815260040160405180910390fd5b6040808401516001600160a01b0390811683529086015115156102a08301526002870154600091611478916201000090041661241a565b905086600501548660a0015103611539576002870154600188015460038901546114cb926114c4926001600160a01b03620100008304811693919291169060ff610100909104166146f3565b8290614775565b60006005880181905560068801819055600788018190556008880181905560098801819055600a8801819055600b8801819055600c880181905560138801819055600d8801819055600e8801819055600f880181905560108801819055601188018190556012880155611692565b8560a00151876005016000828254611551919061bdea565b909155505060c082015160088801805460009061156f90849061bdea565b909155505061012082015160098801805460009061158e90849061bdea565b9091555050610140820151600a880180546000906115ad90849061bdea565b9091555050610200820151600b880180546000906115cc90849061bdea565b90915550506102608201516013880180546000906115eb90849061bdfd565b9091555050610160820151600e8801805460009061160a90849061bdea565b9091555050610180820151600f8801805460009061162990849061bdea565b90915550506101a082015160118801805460009061164890849061be25565b90915550506101c082015160128801805460009061166790849061be25565b9091555050610240820151600c8801805460009061168690849061bdea565b90915550504260148801555b6117558261022001518560000151846102a001516116fb576040516020016116e0906020808252601290820152712322a2afa1a627a9a2afa827a9a4aa24a7a760711b604082015260600190565b60405160208183030381529060405280519060200120611745565b60405160200161172e906020808252600f908201526e2322a2afa624a8aaa4a220aa24a7a760891b604082015260600190565b604051602081830303815290604052805190602001205b602086015160a081015190614782565b60028701546101608301516040860151602085015160a001516102a086015161181894610100810460ff1694939291620100009091046001600160a01b0316906117e5576040516020016117ca906020808252600d908201526c4645455f424f52524f57494e4760981b604082015260600190565b60405160208183030381529060405280519060200120614971565b6040516020016117ca906020808252600f908201526e2322a2afa624a8aaa4a220aa24a7a760891b604082015260600190565b8160200151606001511561187f5760006118388760000151838a86614b2c565b9050611855836020015160a0015183614dbc90919063ffffffff16565b506118798560400151846020015160a0015185610200015186610280015185614dca565b506118ad565b6118898183614f64565b6118ad8460400151836020015160a001518461020001518561028001516000614dca565b6118f18460400151836020015160400151846020015160a001516118d5866101600151613683565b6118e3876101600151613683565b6118ec9061be45565b61502f565b61192e8460000151836101a001516119089061be45565b6020850151604081015160028c015460a0909201519091610100900460ff16159061518b565b61198a6040518060c0016040528060001515815260200186600001518152602001846020015160a001516001600160a01b031681526020018860a00151815260200160008152602001846020015160400151151581525061523d565b6020808301516080810151865160a0830151606090930151604051611a0895939492936119e991016020808252601a908201527f43414e43454c5f574954485f504f534954494f4e5f434c4f5345000000000000604082015260600190565b604051602081830303815290604052611a019061be61565b8b51615446565b816102a0015115611a1c57611a1c8261579a565b611adb8660000151836102a00151611a35576002611a38565b60075b604051806101a001604052808a60c00151815260200160008152602001866040015181526020018660a00151815260200186610160015181526020018661018001518152602001866101a001518152602001866101c00151815260200186610200015181526020018661022001518152602001866102400151815260200186610260015181526020018661028001518152508a6158a0909392919063ffffffff16565b50505050505050565b60005a611af1908361bdea565b90506000611aff3a8361bc2b565b90508015611b1057611b108161591b565b505050565b6040805161010081018252600080825260208201819052918101829052606081018290526080810182905260a0810182905260c0810182905260e0810182905290611b5e615994565b600093845260209081526040938490208451610100808201875282546001600160a01b0390811683526001840154948301949094526002830154909316958101959095526003810154606086015260048101546080860152600581015460ff808216151560a0880152929004909116151560c08501526006015460e08401525090919050565b6000611bee6159e6565b905060005b8251811015611b105760006001600160a01b0316838281518110611c1957611c1961baff565b6020026020010151602001516001600160a01b031603611cb857611cb3838281518110611c4857611c4861baff565b6020026020010151600001516040518060400160405280868581518110611c7157611c7161baff565b6020026020010151604001518152602001868581518110611c9457611c9461baff565b60200260200101516060015181525084615a2a9092919063ffffffff16565b611d57565b611d57838281518110611ccd57611ccd61baff565b602002602001015160000151848381518110611ceb57611ceb61baff565b6020026020010151602001516040518060400160405280878681518110611d1457611d1461baff565b6020026020010151604001518152602001878681518110611d3757611d3761baff565b60200260200101516060015181525085615a72909392919063ffffffff16565b600101611bf3565b6000611d6c826020015190565b9050611d77816110df565b6002810154610100900460ff1615611da257604051633046114760e01b815260040160405180910390fd5b600381015460408301516001600160a01b03908116911614611dd7576040516348ca0fc360e11b815260040160405180910390fd5b6000611de682600101546123b4565b6040805160c08101909152815481526001820154909190602083019060ff166003811115611e1657611e1661bbcb565b6003811115611e2757611e2761bbcb565b815260018201546001600160a01b03610100909104811660208301526002830154811660408301526003830154166060820152600482018054608090920191611e6f9061bbe1565b80601f0160208091040260200160405190810160405280929190818152602001828054611e9b9061bbe1565b8015611ee85780601f10611ebd57610100808354040283529160200191611ee8565b820191906000526020600020905b815481529060010190602001808311611ecb57829003601f168201915b50505050508152505090506000611f02846000015161241a565b90508360a001511561201057611f1661b536565b60408301516001600160a01b039081168252606086015160208301526003850154611f419116615aef565b60ff908116606083015260038501546002860154611f6c926001600160a01b03909216911615611104565b604082015260006080820152611f828482615b53565b611ffb306001600160a01b03166397e7b7f26040518163ffffffff1660e01b8152600401602060405180830381865afa158015611fc3573d6000803e3d6000fd5b505050506040513d601f19601f82011682018060405250810190611fe7919061bbae565b866040015185604001518460200151615ca8565b5061200a848760036000615cb8565b5061204e565b6000612023848487606001516001615d88565b905061203d83604001518660400151876000015184615ca8565b5061204c848760046000615cb8565b505b61208b61205a82615f70565b60018501546003860154600787015460028801546001600160a01b039092169160ff80821691610100900416615f7e565b612094856160c9565b847fa97cd7c80b84202b26de1f602c4083994ba2aa2f86ed2b36aa362c3ad1ffb9db856040516120c4919061bee3565b60405180910390a25050505050565b6120e36120de6159e6565b616123565b565b60005a82604001516120f7919061bdea565b905060006121053a8361bc2b565b9050600080846020015183111561212e5760208501519250612127838061bdea565b9050612141565b82856020015161213e919061bdea565b91505b845161215c9061214f612471565b5160208801513090615ca8565b5061216b85606001518461621a565b811561217f5761217f85608001518361621a565b801561049f5761049f8161591b565b60006121a261219f868686866146f3565b90565b95945050505050565b6040805161014081018252600080825260208201819052918101829052606081018290526080810182905260a0810182905260c0810182905260e08101829052610100810182905261012081018290529061220461628c565b6000938452602090815260409384902084516101408101865281546001600160a01b039081168252600183015493820193909352600282015460ff8082161515978301979097526101008082048816151560608401526201000090910490961615156080820152600382015460a0820152600482015490921660c0830152600581015460e08301526006810154948201949094526007909301546101208401525090919050565b60006122c9836000015184602001518560c0015186608001516146f3565b60e08401519091508190158015906122eb57506002810154610100900460ff16155b1561236857612366306001600160a01b03166397e7b7f26040518163ffffffff1660e01b8152600401602060405180830381865afa158015612331573d6000803e3d6000fd5b505050506040513d601f19601f82011682018060405250810190612355919061bbae565b60c0860151865160e0880151615ca8565b505b612371856162d0565b847fd6cb966e94927ebaa6e425a8b1fa6dff12fc5a3aec79ff87e1e2b37cf12fcb7785856040516120c492919061bf8b565b6123ab61b57a565b61112882613701565b6040805160208101829052601760608201527f78797a2e656c66692e73746f726167652e53796d626f6c0000000000000000006080820152908101829052600090819060a0015b60408051601f1981840301815291905280516020909101209392505050565b600080826040516020016123fb919060408082526018908201527f78797a2e656c66692e73746f726167652e4163636f756e74000000000000000060608201526001600160a01b0391909116602082015260800190565b6124c960405180610120016040528060006001600160a01b0316815260200160008152602001600081526020016000815260200160008152602001600081526020016000815260200160008152602001600081525090565b6000806040516020016124fc906020808252600c908201526b434841494e5f434f4e46494760a01b604082015260600190565b60405160208183030381529060405280519060200120905061259e81604051602001612549906020808252600d908201526c2ba920a82822a92faa27a5a2a760991b604082015260600190565b60405160208183030381529060405280519060200120604051602001612579929190918252602082015260400190565b604051602081830303815290604052805190602001208361633290919063ffffffff16565b6001600160a01b0316835260405161263a9082906125e5906020016020808252601290820152711352539517d1d054d7d1915157d31253525560721b604082015260600190565b60405160208183030381529060405280519060200120604051602001612615929190918252602082015260400190565b604051602081830303815290604052805190602001208361635190919063ffffffff16565b83602001818152505061267f816040516020016125e59060208082526014908201527314915111515357d1d054d7d1915157d31253525560621b604082015260600190565b8360400181815250506126d8816040516020016125e59060208082526022908201527f504c4143455f494e4352454153455f4f524445525f4741535f4645455f4c494d604082015261125560f21b606082015260800190565b606084015260405161272f9082906125e59060200160208082526022908201527f504c4143455f44454352454153455f4f524445525f4741535f4645455f4c494d604082015261125560f21b606082015260800190565b60808401526040516127889082906125e59060200160208082526024908201527f504f534954494f4e5f5550444154455f4d415247494e5f4741535f4645455f4c6040820152631253525560e21b606082015260800190565b60a08401526040516127e39082906125e59060200160208082526026908201527f504f534954494f4e5f5550444154455f4c455645524147455f4741535f46454560408201526517d31253525560d21b606082015260800190565b60c08401526040516128289082906125e59060200160208082526016908201527515d2551211149055d7d1d054d7d1915157d31253525560521b604082015260600190565b60e08401526040516128749082906125e5906020016020808252601b908201527f434c41494d5f524557415244535f4741535f4645455f4c494d49540000000000604082015260600190565b6101008401525090919050565b60008030905060008360600151600381111561289f5761289f61bbcb565b15806128c05750836060015160038111156128bc576128bc61bbcb565b6003145b1561292e57816001600160a01b0316631f7592ea6040518163ffffffff1660e01b8152600401602060405180830381865afa158015612903573d6000803e3d6000fd5b505050506040513d601f19601f82011682018060405250810190612927919061bbae565b9050612a0b565b836060015160038111156129445761294461bbcb565b60010361298957816001600160a01b03166397e7b7f26040518163ffffffff1660e01b8152600401602060405180830381865afa158015612903573d6000803e3d6000fd5b8360600151600381111561299f5761299f61bbcb565b600203612a0b57816001600160a01b03166308ba026f6040518163ffffffff1660e01b8152600401602060405180830381865afa1580156129e4573d6000803e3d6000fd5b505050506040513d601f19601f82011682018060405250810190612a08919061bbae565b90505b6020840151608085015115612aff576000612a24612471565b60000151905085602001516001600160a01b0316816001600160a01b031614612a8f5760405162461bcd60e51b815260206004820152601960248201527f4465706f736974207769746820746f6b656e206572726f72210000000000000060448201526064016108cf565b806001600160a01b031663d0e30db087604001516040518263ffffffff1660e01b81526004016000604051808303818588803b158015612ace57600080fd5b505af1158015612ae2573d6000803e3d6000fd5b5050505050809150612af982848860400151616364565b506105f7565b845160408601516105f7916001600160a01b0384169185906163bc565b6000806000612b29612471565b9050612b3d8460e001358260c00151616416565b612b4d606085016040860161bc42565b8015612b6157508360e001358460c0013510155b8015612b7a5750612b78608085016060860161bc42565b155b15612b9d57612b9160e085013560c086013561bdea565b60019250925050612c55565b8360e001353414612c025760405162461bcd60e51b815260206004820152602960248201527f757064617465206c65766572616765207769746820657865637574696f6e20666044820152686565206572726f722160b81b60648201526084016108cf565b6040805160a08101825286546001600160a01b039081168252835116602082015260e086013591810191909152612c49906060810160005b81526001602090910152612881565b5050505060c081013560005b9250929050565b600080612c887f2989329a2d7c83abb9c1604d5f2fc27c0c475023f6c7e61d2c9764d957001df161107f565b90506000612c9582616440565b80546001600160a01b03199081166001600160a01b038a81169190911783558851600184015560a089015160048401805490931691161790556005810186905560808701516003820155602087015160028201805461ffff191691151561ff001916919091176101008715150217905560e087015160068201559050612d1961645c565b60078201556060860151600282018054911515620100000262ff00001990921691909117905560405182907ff10a875b95835782d2b181df1940a2bbbd0579a19b5b07cc338405dca8ce10a090612d7190849061bfa8565b60405180910390a25095945050505050565b6000612da1826000015183602001518460c0015185608001516146f3565b60a08301516007820154919250829103612dce5760405163fe2af79760e01b815260040160405180910390fd5b6000612ddd84602001516123b4565b6040805160c08101909152815481526001820154909190602083019060ff166003811115612e0d57612e0d61bbcb565b6003811115612e1e57612e1e61bbcb565b815260018201546001600160a01b03610100909104811660208301526002830154811660408301526003830154166060820152600482018054608090920191612e669061bbe1565b80601f0160208091040260200160405190810160405280929190818152602001828054612e929061bbe1565b8015612edf5780601f10612eb457610100808354040283529160200191612edf565b820191906000526020600020905b815481529060010190602001808311612ec257829003601f168201915b50505050508152505090506000612ef9856000015161241a565b905082600501546000146131f3578460a001518360070154111561315457612f1f61b536565b60408301516001600160a01b0316815260c0860151612f3d90615aef565b60ff908116606083015260038501546002860154612f68926001600160a01b03909216911615611104565b60408201526002840154610100900460ff16158015608083015261309b5760a0860151600785018190556005850154600091612fa491906164e2565b9050600085600901548211612fba576000612fc9565b6009860154612fc9908361bdea565b9050612fd4846164f2565b612fdd82613683565b1315613016578751600387015460405163316ce6db60e01b81526001600160a01b039283166004820152911660248201526044016108cf565b6130298184606001518560400151616500565b602084015260038601546130699061305a9061304f9087906001600160a01b0316616525565b602086015190616587565b8460600151856040015161659d565b60a0840152600386015460208401516130939186916001600160a01b0390911690600060076165c6565b5050506130a6565b60e086015160208201525b6130b08482615b53565b80608001516131405761313e306001600160a01b03166397e7b7f26040518163ffffffff1660e01b8152600401602060405180830381865afa1580156130fa573d6000803e3d6000fd5b505050506040513d601f19601f8201168201806040525081019061311e919061bbae565b6003860154604086015160208501516001600160a01b0390921691615ca8565b505b61314e848860066000615cb8565b506131f3565b60a085015160078401819055600584015460009161317291906164e2565b8460090154613181919061bdea565b905060006131928585846000615d88565b6002860154909150610100900460ff16156131c85760038501546131c39084906001600160a01b0316836008616782565b6131e2565b6131e084604001518860c00151896000015184615ca8565b505b6131f0858960056000615cb8565b50505b61321d6131ff82615f70565b86602001518760c001518860a0015189604001518a60800151615f7e565b613226866162d0565b857f1b0f0226eeebc76b15f2866a980cac8789fc897af5375efa3fade568a6ace35186604051613256919061c052565b60405180910390a2505050505050565b8160a00151156132e8576132e6306001600160a01b03166397e7b7f26040518163ffffffff1660e01b8152600401602060405180830381865afa1580156132b1573d6000803e3d6000fd5b505050506040513d601f19601f820116820180604052508101906132d5919061bbae565b604084015184516060860151615ca8565b505b6132f1836160c9565b827f8df4e5e333d6a48dc92c2e3bd375a167cea86324ae8ca7871df6299d85e32b42838360405161332392919061c061565b60405180910390a2505050565b6060611128826005016168e6565b600061334d60058401836168f3565b9392505050565b6000806000613361612471565b90506133758460a001358260a00151616416565b613385606085016040860161bc42565b801561339c575061339c604085016020860161bc42565b80156133b057508360a00135846080013510155b156133c757612b9160a0850135608086013561bdea565b8360a00135341461342a5760405162461bcd60e51b815260206004820152602760248201527f757064617465206d617267696e207769746820657865637574696f6e20666565604482015266206572726f722160c81b60648201526084016108cf565b6040805160a0808201835287546001600160a01b03908116835284511660208301528601359181019190915261346590606081016000612c3a565b50505050608001359160009150565b6000806134a07f29cee3f58fb5df949c95637dceabef3ba830c183deea122831b1959067d8669661107f565b905060006134ad8261690b565b80546001600160a01b03199081166001600160a01b038a8116919091178355885160018401556060890151600284018054909316911617905560038101869055602087015160058201805461ffff191691151561ff001916919091176101008715150217905560a08701516004820155905061352761645c565b600682015560405182907facd822eb0f09c844a32e8110598657bc37b23612a65161605a239defa5815ffe90612d7190849061c07e565b600080613569616916565b6001600160a01b038516600090815260208290526040902090915061112490846168f3565b6000806040516020016135d2906020808252601c908201527f78797a2e656c66692e73746f726167652e5575696443726561746f7200000000604082015260600190565b60408051601f19818403018152919052805160209091012092915050565b6040805180820190915260008082526020820152600061360e6159e6565b604080518082018252600080825260209182018190526001600160a01b0387168152600284018252829020825180840190935280548084526001909101549183019190915291925090158061366557506020810151155b1561334d5760405163907adecd60e01b815260040160405180910390fd5b60006001600160ff1b038211156136ed5760405162461bcd60e51b815260206004820152602860248201527f53616665436173743a2076616c756520646f65736e27742066697420696e2061604482015267371034b73a191a9b60c11b60648201526084016108cf565b5090565b600060606121a28582868661695a565b61370961b57a565b61371161b57a565b600080604051602001613745906020808252600d908201526c53594d424f4c5f434f4e46494760981b604082015260600190565b60408051601f198184030181529190528051602090910120905061376a828287616983565b6137775750909392505050565b6137e181866040516020016137ac906020808252600c908201526b4d41585f4c4556455241474560a01b604082015260600190565b60408051601f198184030181528282528051602091820120908301949094528101919091526060810191909152608001612615565b835260405161381890829087906137ac906020016020808252600990820152685449434b5f53495a4560b81b604082015260600190565b83602001818152505061385781866040516020016137ac906020808252600d908201526c4f50454e5f4645455f5241544560981b604082015260600190565b83604001818152505061389781866040516020016137ac906020808252600e908201526d434c4f53455f4645455f5241544560901b604082015260600190565b60608401526040516138e590829087906137ac906020016020808252601a908201527f4d41585f4c4f4e475f4f50454e5f494e5445524553545f434150000000000000604082015260600190565b608084015260405161393390829087906137ac906020016020808252601b908201527f4d41585f53484f52545f4f50454e5f494e5445524553545f4341500000000000604082015260600190565b60a084015260405161397a90829087906137ac906020016020808252601690820152751313d391d7d4d213d49517d490551253d7d31253525560521b604082015260600190565b60c08401526040516139c890829087906137ac906020016020808252601a908201527f4c4f4e475f53484f52545f4f495f424f54544f4d5f4c494d4954000000000000604082015260600190565b60e084015250909392505050565b600282015460038301546000916139fb91849160ff16906001600160a01b031661699d565b90506000613a36613a228560080154620186a08760070154613a1d919061bdea565b6169f0565b600d860154613a31908561bdea565b616a00565b90508084600c016002016000828254613a4f919061bdbe565b90915550506003840154613a96908290613a71906001600160a01b0316615aef565b60038701546002880154613a91916001600160a01b03169060ff16611104565b61659d565b600f85018054600090613aaa90849061bdbe565b9091555050600d8401829055600284015460038501546102cd91859160ff909116906001600160a01b031660006118ec86613683565b60018101546002820154600091613af99160ff16616a15565b60108301549091508103613b0b575050565b6000613b31613b1d8460050154613683565b6010850154613b2c908561be25565b616a3d565b600284015490915060009060ff1615613bc4578190508184600c016005016000828254613b5e919061bdfd565b90915550506003840154613ba5908390613b80906001600160a01b0316615aef565b60038701546002880154613ba0916001600160a01b03169060ff16611104565b616a5d565b601285018054600090613bb990849061bdfd565b90915550613c419050565b6003840154613c06908390613be1906001600160a01b0316615aef565b60038701546002880154613c01916001600160a01b03169060ff16611104565b616a8b565b90508084600c016005016000828254613c1f919061bdfd565b9091555050601284018054839190600090613c3b90849061bdfd565b90915550505b60108401839055600180850154600286015460038701546102cd93859260ff16916001600160a01b031661518b565b613c7861b5bf565b876040518061022001604052908160008201548152602001600182015481526020016002820160009054906101000a900460ff161515151581526020016002820160019054906101000a900460ff161515151581526020016002820160029054906101000a90046001600160a01b03166001600160a01b03166001600160a01b031681526020016003820160009054906101000a90046001600160a01b03166001600160a01b03166001600160a01b031681526020016004820160009054906101000a90046001600160a01b03166001600160a01b03166001600160a01b031681526020016005820154815260200160068201548152602001600782015481526020016008820154815260200160098201548152602001600a8201548152602001600b8201548152602001600c82016040518060e00160405290816000820154815260200160018201548152602001600282015481526020016003820154815260200160048201548152602001600582015481526020016006820154815250508152602001601382015481526020016014820154815250508160200181905250848160600181815250506000613e468960030160009054906101000a90046001600160a01b03166000611104565b9050613e5181616ac0565b60408301526003890154600090613e70906001600160a01b0316615aef565b9050888a600501540361427e57826020015161014001518360c0018181525050826020015161016001518361012001818152505082602001516101a0015183610200018181525050614059898b6040518061022001604052908160008201548152602001600182015481526020016002820160009054906101000a900460ff161515151581526020016002820160019054906101000a900460ff161515151581526020016002820160029054906101000a90046001600160a01b03166001600160a01b03166001600160a01b031681526020016003820160009054906101000a90046001600160a01b03166001600160a01b03166001600160a01b031681526020016004820160009054906101000a90046001600160a01b03166001600160a01b03166001600160a01b031681526020016005820154815260200160068201548152602001600782015481526020016008820154815260200160098201548152602001600a8201548152602001600b8201548152602001600c82016040518060e0016040529081600082015481526020016001820154815260200160028201548152602001600382015481526020016004820154815260200160058201548152602001600682015481525050815260200160138201548152602001601482015481525050616b12565b61018085015261016084015260208301516101c0908101805160a001516101a0860152805160c0015191850191909152515161024084018190526140a79082906140a285616ac0565b616b8b565b61022084018190526140b890613683565b836101a001516140cc856101600151613683565b6140d6919061bdfd565b6140e0919061bdfd565b6101e084015284156141cd57836140f8576000614161565b61416161411061410b8560200151616b98565b613683565b8961411a86616bcd565b61412c87602001516101600151613683565b614136919061be25565b614140919061bdfd565b61414a919061be25565b61415b856020015160a00151615aef565b84616a8b565b60a084015260c083015161417490613683565b8360a00151614183919061be25565b6080840152602083015161016001516141ab9089906141a190613683565b61414a919061bdfd565b6141b88460c00151613683565b6141c2919061be25565b610280840152614254565b6141f6886141da85616bcd565b6141ec86602001516101600151613683565b6141a1919061be25565b60a084015260c083015161420990613683565b8360a00151614218919061be25565b6080840152602083015161016001516142369089906141a190613683565b6142438460c00151613683565b61424d919061be25565b6102808401525b614273836080015161426d856020015160a00151615aef565b84616a5d565b610260840152614696565b602083015160e0810151610140909101516142a4919061429e908c616c05565b90616c11565b60c0840152602083015160e08101516101a0909101516142c9919061429e908c616c05565b6102008401526142d989876169f0565b83610240018181525050614484898b6040518061022001604052908160008201548152602001600182015481526020016002820160009054906101000a900460ff161515151581526020016002820160019054906101000a900460ff161515151581526020016002820160029054906101000a90046001600160a01b03166001600160a01b03166001600160a01b031681526020016003820160009054906101000a90046001600160a01b03166001600160a01b03166001600160a01b031681526020016004820160009054906101000a90046001600160a01b03166001600160a01b03166001600160a01b031681526020016005820154815260200160068201548152602001600782015481526020016008820154815260200160098201548152602001600a8201548152602001600b8201548152602001600c82016040518060e0016040529081600082015481526020016001820154815260200160028201548152602001600382015481526020016004820154815260200160058201548152602001600682015481525050815260200160138201548152602001601482015481525050616b12565b61018085015261016084015261449989613683565b8360e00181815250506144b3836020015160e00151613683565b610100840181905260e084015160208501516101c0015160a001516144e392916144dd9190616c1d565b90616c29565b6101a084015261010083015160e084015160208501516101c0015160c0015161451192916144dd9190616c1d565b6101c080850191909152602084015101515161024084015111156145415760208301516101c00151516102408401525b614554818461024001516140a285616ac0565b610220840181905261456590613683565b836101a00151614579856101600151613683565b614583919061bdfd565b61458d919061bdfd565b6101e084015261010083015160e08401516145e09161414a916144dd908c6145b489616bcd565b6145c68a602001516101600151613683565b6145d0919061be25565b6145da919061bdfd565b90616c1d565b60a084015260c08301516145f390613683565b8360a00151614602919061be25565b83608001818152505061463261414a8461010001516144dd8660e001518c6145d089602001516101600151613683565b61463f8460c00151613683565b614649919061be25565b61028084015260058a01546020840151610160015161466d919061429e908c616c05565b6101208401526080830151602084015160a0015161468f919061426d90615aef565b6102608401525b89600901548a600a01548461012001516146b0919061bdbe565b116146bc5760006146e0565b89600901548a600a01548461012001516146d6919061bdbe565b6146e0919061bdea565b6101408401525050979650505050505050565b6040805160a06020808301829052601960c08401527f78797a2e656c66692e73746f726167652e506f736974696f6e0000000000000060e0808501919091526001600160a01b03988916848601526060840197909752949096166080820152911515948201949094528351808203909301835261010001909252805191012090565b611b106005830182616c35565b60008481527fb31b5831e77ebf4a20e050d886d24b00d24f44760e3342d08fb455df41d4aaf8602052604081207fb31b5831e77ebf4a20e050d886d24b00d24f44760e3342d08fb455df41d4aafa917fb31b5831e77ebf4a20e050d886d24b00d24f44760e3342d08fb455df41d4ab01906147fb616c41565b905061480561b677565b61480e896123b4565b600101546001600160a01b03610100918290041660c0830152820151614835908b906169f0565b604082015261012082015161484b908b906169f0565b60608201819052604082015161486d9190614867908d9061727c565b9061727c565b60a082015260608101516148849085908990617288565b60c0810151604082015161489b9187918a906172e9565b60c081015160a08201516148b29185918a906172e9565b8560600151156148fc5760608101516148ce9085908990617348565b60c081015160408201516148e59187918a906173a9565b60c081015160a08201516148fc9185918a906173a9565b6080868101518751604080518d81526001600160a01b03938416602082015280820192909252606082018c9052918a169281019290925260a082018c9052517f2ae7718f4105fe717c24426c57b47946a517e684f5458c2069ef013a7b85faf19181900360c00190a150505050505050505050565b6001600160a01b03841660009081527fb31b5831e77ebf4a20e050d886d24b00d24f44760e3342d08fb455df41d4aaf9602052604081207fb31b5831e77ebf4a20e050d886d24b00d24f44760e3342d08fb455df41d4aafa917fb31b5831e77ebf4a20e050d886d24b00d24f44760e3342d08fb455df41d4ab01906149f4616c41565b90506149fe61b677565b614a0d8a8361016001516169f0565b6040820152610180820151614a23908b906169f0565b608082018190526040820151614a3f9190614867908d9061727c565b60a08201526040810151614a589086908b908b906172e9565b6080810151614a6a9085908a90617288565b60a0810151614a7e9084908b908b906172e9565b8a15614abe576040810151614a989086908b908b906173a9565b6080810151614aaa9085908a90617348565b60a0810151614abe9084908b908b906173a9565b604080518c151581526001600160a01b038b811660208301528a811682840152891660608201526080810188905260a081018c905290517fc6808235a634ed03a8e9b566f817b485bebc047ac6d8ddda1f07e5173f0a18f59181900360c00190a15050505050505050505050565b600080826101e001511315614b6557614b5f826020015160a00151614b55846101e00151616ac0565b8691906003617408565b50614b92565b614b92826020015160a00151614b88846101e00151614b839061be45565b616ac0565b8691906003617560565b602082015160a0015160c0830151614bad9186916005616782565b6000306001600160a01b0316631f7592ea6040518163ffffffff1660e01b8152600401602060405180830381865afa158015614bed573d6000803e3d6000fd5b505050506040513d601f19601f82011682018060405250810190614c11919061bbae565b90506000836080015112614cc357614c4d836020015160a00151614c43856101e001518660800151614b83919061bdfd565b8791906004617560565b614c8b836020015160400151614c6a57614c65617625565b614c6d565b83515b846020015160a0015183614c848760800151616ac0565b6001617640565b50826020015160400151614cbe57614cbc614ca4617625565b602085015160a0015185516102208701516001617640565b505b614d27565b600083608001511215614d2757614cf5836020015160a00151614ced8560800151614b839061be45565b87919061778a565b9150614d2581846020015160a00151856000015185614d1b8860800151614b839061be45565b614c84919061bdea565b505b826102a00151610e82576000614d408460c00151613683565b8460a00151614d7661410b8760200151610160015161429e896020015161014001518a6101400151616c0590919063ffffffff16565b614d80919061bdfd565b614d8a919061be25565b8654602086015160a001518754929350614db2928a926001600160a01b031691908590617799565b5050949350505050565b600061334d8383600061785b565b6000614dd58661797d565b60028101549091506001600160a01b03808716911603614e8d57614df981856179d4565b6000831215614e1d57614e18614e11614b838561be45565b8290617a7a565b614f5c565b81600003614e3857614e18614e3184616ac0565b8290617a86565b6000614e4384616ac0565b9050614e67838211614e56576000614e60565b614e60848361bdea565b8390617a86565b614e87838211614e775784614e80565b614e8084613683565b8390617a92565b50614f5c565b6000614e97617ae8565b9050614ea4818787617b2c565b6000841215614ee4576000614ebb614b838661be45565b9050614ec8838883617c1d565b614ed3828883617c97565b614ede828883617d7b565b50611adb565b82600003614f0657614f0186614ef986616ac0565b849190617e02565b611adb565b6000614f1185616ac0565b9050614f3787858311614f25576000614f2f565b614f2f868461bdea565b859190617e02565b614f5987858311614f485786614f51565b614f5186613683565b859190617ecc565b50505b505050505050565b806102a0015115614f73575050565b600081608001511280614f9b57506000816080015112158015614f9b57508060200151604001515b15614fcb578051602082015160a090810151845491840151611b1093926001600160a01b031690614c8490616ac0565b614fff614fd6617625565b602083015160a0015183516102208501516080860151614ff590616ac0565b614c84919061bdbe565b508051602082015160a090810151845491840151611b1093926001600160a01b031690614c8490616ac0565b5050565b83156150db5760006150408661797d565b90506000831361506a57615056614b838461be45565b6010820154615065919061bdea565b615082565b61507383616ac0565b6010820154615082919061bdbe565b6010820155600082136150af5761509b614b838361be45565b60118201546150aa919061bdea565b6150c7565b6150b882616ac0565b60118201546150c7919061bdbe565b60118201556150d581617f7c565b5061049f565b60006150e5617ae8565b6001600160a01b03851660009081526003820160205260408120919250841361512557615114614b838561be45565b8154615120919061bdea565b61513a565b61512e84616ac0565b815461513a919061bdbe565b81556000831361516457615150614b838461be45565b816001015461515f919061bdea565b61517c565b61516d83616ac0565b816001015461517c919061bdbe565b6001820155611adb8286617fc8565b600061519686618011565b905083156151c057848160070160020160008282546151b5919061bdfd565b909155506151dd9050565b848160070160030160008282546151d7919061bdfd565b90915550505b6151e68161805c565b8215614f5c5760006151f7876123b4565b9050600061521b8260010160019054906101000a90046001600160a01b031661797d565b905085156152325761522d8188617a92565b614f59565b614f59818589617ecc565b600061524c8260200151618011565b9050600061525d8360200151613701565b8351909150801561526f57508260a001515b1561528b57615286826002018483602001516180d5565b615327565b8251801561529b57508260a00151155b156152e95760408301516152b09083906181a1565b61528682600601600085604001516001600160a01b03166001600160a01b031681526020019081526020016000208483602001516180d5565b8251615327576153278360a0015161531c576040808501516001600160a01b031660009081526006850160205220615321565b826002015b846181bf565b825115611b1057600061533b836002015490565b905060006153488461825a565b90508460a00151801561535e5750826080015182115b1561539157602085015160a0860151604051633ea6fa5360e11b81526004810192909252151560248201526044016108cf565b8460a001511580156153a657508260a0015181115b156153d957602085015160a0860151604051633ea6fa5360e11b81526004810192909252151560248201526044016108cf565b60006153e58383616587565b90508360e001518110156153fb57505050505050565b615412615408838561bdbe565b8560c001516169f0565b8161541d85856182d1565b615427919061bdea565b1115614f5c576040516387fd15d760e01b815260040160405180910390fd5b60006154518761241a565b9050600061545e82615f70565b90508051600003615470575050614f5c565b600061547a6182e0565b905060005b825181101561578e578483828151811061549b5761549b61baff565b602002602001015103156157865760006154d78483815181106154c0576154c061baff565b60200260200101518461831d90919063ffffffff16565b604080516102208101825282546001600160a01b031681526001830154602082015260028084015491939284019160ff16908111156155185761551861bbcb565b60028111156155295761552961bbcb565b81526020016002820160019054906101000a900460ff1660028111156155515761555161bbcb565b60028111156155625761556261bbcb565b81526020016002820160029054906101000a900460ff16600381111561558a5761558a61bbcb565b600381111561559b5761559b61bbcb565b81526020016002820160039054906101000a900460ff1660028111156155c3576155c361bbcb565b60028111156155d4576155d461bbcb565b81526002820154640100000000810460ff90811615156020808501919091526501000000000083049091161515604084015266010000000000009091046001600160a01b0316606083015260038301546080830152600483015460a0830152600583015460c0830152600683015460e0830152600783015461010083015260088301546101208301526009830154610140830152600a90920154610160909101528101519091508a14801561569f5750886001600160a01b03168161010001516001600160a01b0316145b80156156c05750806080015160038111156156bc576156bc61bbcb565b6003145b80156156d357508715158160c001511515145b15615784576157048483815181106156ed576156ed61baff565b60200260200101518661832f90919063ffffffff16565b6157308483815181106157195761571961baff565b60200260200101518461833c90919063ffffffff16565b8382815181106157425761574261baff565b60200260200101517fa2bce5ff82d63e38ec31c6270a397e7cae4d5ed319bd73e318d4916d4ff68668828960405161577b92919061c11d565b60405180910390a25b505b60010161547f565b50505050505050505050565b806020015160600151156157e6578051602082015160a081015161107c92916157e1906157c690616b98565b6157d7866020015160a00151615aef565b8660400151616500565b6183a9565b600080826101e001511261584d5761580d826102800151836101e00151614b83919061bdfd565b8260c001511161581e576000615846565b615837826102800151836101e00151614b83919061bdfd565b8260c00151615846919061bdea565b9050615889565b61585b826102800151616ac0565b61586d836101e00151614b839061be45565b8360c0015161587c919061bdbe565b615886919061bdea565b90505b61502b8260000151836020015160a00151836183a9565b6002840154600185015460038601547fee2b9c77532fd89e66e2f431c2001e4bcc30fb5bc62ee9cdac252f89540067ae9286926158f9926001600160a01b0362010000840481169391169060ff610100909104166146f3565b84878560405161590d95949392919061c224565b60405180910390a150505050565b60006159256184a3565b90508181600701600082825461593b919061bdbe565b909155505060078101547f5425704060c90c62f0083d9ff73df530b982ea5c64c0dab3c7d5da4761a451199061597290849061bdea565b6007830154604080519283526020830191909152015b60405180910390a15050565b6000806040516020016135d29060208082526025908201527f78797a2e656c66692e73746f726167652e557064617465506f736974696f6e4d60408201526430b933b4b760d91b606082015260800190565b6000806040516020016135d2906020808252601c908201527f78797a2e656c66692e73746f726167652e4f7261636c65507269636500000000604082015260600190565b615a3483836184e7565b615a4457615a428383618509565b505b6001600160a01b03909116600090815260029092016020908152604090922081518155910151600190910155565b604080516001600160a01b038581166020808401919091529085168284015282518083038401815260609092019092528051910120615ab460048601826168f3565b615ac757615ac5600486018261851e565b505b6000908152600690940160209081526040909420815181559301516001909301929092555050565b6000816001600160a01b031663313ce5676040518163ffffffff1660e01b8152600401602060405180830381865afa158015615b2f573d6000803e3d6000fd5b505050506040513d601f19601f82011682018060405250810190611128919061c41c565b615b7982600901548360050154615b6a919061bdea565b82606001518360400151616500565b81602001511115615b9d57604051630a1e565960e41b815260040160405180910390fd5b8060200151826008016000828254615bb5919061bdbe565b9091555050608081015115615bff57615bd6826005015483600701546164e2565b600983015560a0810151600a83018054600090615bf490849061bdbe565b90915550615c529050565b615c1681602001518260600151836040015161659d565b826009016000828254615c29919061bdbe565b92505081905550615c42826005015483600901546164e2565b60078301556009820154600a8301555b6000615c6f83600b0154836020015161658790919063ffffffff16565b90508083600b016000828254615c85919061bdea565b909155505081516003840154611b1091906001600160a01b031683600080614dca565b60006121a2858585856000617640565b6002840154600185015460038601547fee2b9c77532fd89e66e2f431c2001e4bcc30fb5bc62ee9cdac252f89540067ae928692615d11926001600160a01b0362010000840481169391169060ff610100909104166146f3565b8487604051806101a001604052808781526020016000815260200160008152602001600081526020016000815260200160008152602001600081526020016000815260200160008152602001600081526020016000815260200160008152602001600081525060405161590d95949392919061c224565b600080615d988560000151613701565b90506000615dc3615da7616c41565b60400151615dbd896005015485600001516164e2565b906182d1565b8760090154615dd2919061bdea565b905080851115615df557604051637bee2c0d60e01b815260040160405180910390fd5b6003870154600090615e0f906001600160a01b0316615aef565b600389015460028a0154919250600091615e36916001600160a01b03169060ff1615611104565b90506000615e45888484616500565b60028b0154909150610100900460ff168015615e735750878a600a01548b60090154615e71919061bdea565b105b15615eb457615e9b60008b600a01548c60090154615e91919061bdea565b615dbd908b61bdea565b8a600a016000828254615eae919061bdea565b90915550505b808a6008016000828254615ec8919061bdea565b92505081905550878a6009016000828254615ee3919061bdea565b90915550508615615f0657615f008a600501548b600901546164e2565b60078b01555b60028a0154610100900460ff16615f225760098a0154600a8b01555b808a600b016000828254615f36919061bdbe565b9091555050604089015160038b015460028c0154615f6392916001600160a01b031690849060ff1661852a565b9998505050505050505050565b6060611128826007016168e6565b6000615f886182e0565b905060005b8751811015614f595760008260000160008a8481518110615fb057615fb061baff565b602002602001015181526020019081526020016000209050600060016002811115615fdd57615fdd61bbcb565b60028084015460ff1690811115615ff657615ff661bbcb565b60028401549114915060ff6401000000009091041615158515151480156160205750888260010154145b8015616045575060028201546001600160a01b03898116660100000000000090920416145b80156160b2575085151581151514801561607c57506001600283810154610100900460ff169081111561607a5761607a61bbcb565b145b806160b25750851515811515141580156160b2575060028083810154610100900460ff16908111156160b0576160b061bbcb565b145b156160bf57600482018790555b5050600101615f8d565b60006160d3615994565b6000928352602052506040812080546001600160a01b03199081168255600182018390556002820180549091169055600381018290556004810182905560058101805461ffff1916905560060155565b600061612e826168e6565b905060005b8151811015611b10578260020160008383815181106161545761615461baff565b60200260200101516001600160a01b03166001600160a01b03168152602001908152602001600020600080820160009055600182016000905550508260030160008383815181106161a7576161a761baff565b60200260200101516001600160a01b03166001600160a01b03168152602001908152602001600020600080820160009055600182016000905550506162118282815181106161f7576161f761baff565b60200260200101518460000161863190919063ffffffff16565b50600101616133565b6000616224612471565b51604051632e1a7d4d60e01b8152600481018490529091506001600160a01b03821690632e1a7d4d90602401600060405180830381600087803b15801561626a57600080fd5b505af115801561627e573d6000803e3d6000fd5b50505050611b108383618646565b6000806040516020016135d2906020808252601f908201527f78797a2e656c66692e73746f726167652e5570646174654c6576657261676500604082015260600190565b60006162da61628c565b6000928352602052506040812080546001600160a01b031990811682556001820183905560028201805462ffffff19169055600382018390556004820180549091169055600581018290556006810182905560070155565b600090815260029190910160205260409020546001600160a01b031690565b6000908152602091909152604090205490565b8060000361637157505050565b600061638284848462030d406186e9565b9050806102cd5760405163012f3b8f60e71b81526001600160a01b03808616600483015284166024820152604481018390526064016108cf565b604080516001600160a01b0385811660248301528416604482015260648082018490528251808303909101815260849091019091526020810180516001600160e01b03166323b872dd60e01b1790526102cd9085906187e3565b6164203a8261bc2b565b82101561502b576040516369343e3760e11b815260040160405180910390fd5b60008061644b61628c565b600093845260205250506040902090565b600061a4b1461480616470575062066eee46145b156164dd5760646001600160a01b031663a3b1b31d6040518163ffffffff1660e01b8152600401602060405180830381865afa1580156164b4573d6000803e3d6000fd5b505050506040513d601f19601f820116820180604052508101906164d8919061c43f565b905090565b504390565b600061334d83620186a0846188b8565b6000606061334d83826189a2565b60006105f78461651185600a61c534565b616520856402540be400616c05565b6188b8565b6001600160a01b0381166000908152600483016020526040812060018101549054111561657e576001600160a01b0382166000908152600484016020526040902060018101549054616577919061bdea565b9050611128565b50600092915050565b6000818310616596578161334d565b5090919050565b60006105f76165ad84600a61c534565b61429e6402540be4006165c08887616c05565b90616c05565b60006165d560028701866184e7565b6165e8576165e66002870186618509565b505b6001600160a01b0385166000908152600487016020526040902083158061661f575084816001015461661a919061bdbe565b815410155b61667b5760405162461bcd60e51b815260206004820152602760248201527f75736520746f6b656e206661696c6564207769746820616d6f756e74206e6f74604482015266040cadcdeeaced60cb1b60648201526084016108cf565b604080516080810182528254815260018301546020820181905260028401549282019290925260038301546060820152906166b790879061bdbe565b8254106166e057858260010160008282546166d2919061bdbe565b9091555086935061673d9050565b60018201548254111561671f57600182015482546166fe919061bdea565b925085826001016000828254616714919061bdbe565b9091555061673d9050565b85826001016000828254616733919061bdbe565b9091555060009350505b875460405160008051602061c7ba8339815191529161676f916001600160a01b03909116908a90859087908a9061c553565b60405180910390a1505095945050505050565b61678f60028501846184e7565b6167cf5760405162461bcd60e51b8152602060048201526011602482015270746f6b656e206e6f74206578697374732160781b60448201526064016108cf565b6001600160a01b038316600090815260048501602052604090206001015482111561682e5760405162461bcd60e51b815260206004820152600f60248201526e756e557365206f766572666c6f772160881b60448201526064016108cf565b6001600160a01b0383166000818152600486016020818152604080842081516080810183528154815260018201805482860181905260028401549483019490945260039092015460608201529585529290915285929061688f90849061bdea565b909155505084546001600160a01b03858116600090815260048801602052604090819020905160008051602061c7ba833981519152936168d79316918891869190889061c553565b60405180910390a15050505050565b6060600061334d83618a40565b6000818152600183016020526040812054151561334d565b60008061644b615994565b6000806040516020016135d2906020808252601e908201527f78797a2e656c66692e73746f726167652e416363657373436f6e74726f6c0000604082015260600190565b600080600061696a878787618a9c565b91509150836169795780611041565b5095945050505050565b6000828152600d8401602052604081206105f790836168f3565b600082156169bd5760006169b08561797d565b60120154915061334d9050565b60006169c7617ae8565b6001600160a01b038416600090815260038201602052604090209091506002015491505061334d565b600061334d8383620186a06188b8565b600061334d8383670de0b6b3a76400006188b8565b600080616a2184618011565b905082616a32576008810154611124565b600701549392505050565b600061334d616a53670de0b6b3a7640000613683565b6144dd8585616c1d565b60006105f7616a7061410b85600a61c534565b6144dd616a816402540be400613683565b6145da8887616c1d565b60006105f7616aa8616aa16402540be400613683565b8490616c1d565b6144dd616ab961410b87600a61c534565b8790616c1d565b6000808212156136ed5760405162461bcd60e51b815260206004820181905260248201527f53616665436173743a2076616c7565206d75737420626520706f73697469766560448201526064016108cf565b6000808260e001518403616b385750506101c08101516040810151606090910151612c55565b616b5c8360e0015161429e86866101c0015160400151616c0590919063ffffffff16565b616b808460e0015161429e87876101c0015160600151616c0590919063ffffffff16565b915091509250929050565b60006105f7838584616500565b600080616ba88360200151613701565b90506000616bb4616c41565b60a0015190506105f78460e00151836000015183618b87565b6000816101c00151616be3836101800151613683565b616bf1846102400151613683565b616bfb919061bdfd565b611128919061bdfd565b600061334d828461bc2b565b600061334d828461c5e5565b600061334d828461c5f9565b600061334d828461c629565b600061334d8383618bb0565b616cc1604051806102000160405280606081526020016060815260200160008152602001600081526020016000815260200160008152602001600081526020016000815260200160008152602001600081526020016000815260200160008152602001600081526020016000815260200160008152602001600081525090565b600080604051602001616cf4906020808252600c908201526b54524144455f434f4e46494760a01b604082015260600190565b604051602081830303815290604052805190602001209050616d9581604051602001616d40906020808252600c908201526b54524144455f544f4b454e5360a01b604082015260600190565b60405160208183030381529060405280519060200120604051602001616d70929190918252602082015260400190565b6040516020818303038152906040528051906020012083618caa90919063ffffffff16565b8084525167ffffffffffffffff811115616db157616db161bb15565b604051908082528060200260200182016040528015616dea57816020015b616dd761b6bd565b815260200190600190039081616dcf5790505b50602084015260005b835151811015616e4c57616e2384600001518281518110616e1657616e1661baff565b6020026020010151618d19565b84602001518281518110616e3957616e3961baff565b6020908102919091010152600101616df3565b50616e89816040516020016125e59060208082526014908201527313525397d3d491115497d3505491d25397d554d160621b604082015260600190565b836040018181525050616ed7816040516020016125e5906020808252601a908201527f415641494c41424c455f434f4c4c41544552414c5f524154494f000000000000604082015260600190565b6060840152604051616f159082906125e5906020016020808252600f908201526e10d493d4d4d7d3151597d312535255608a1b604082015260600190565b6080840152604051616f619082906125e5906020016020808252601b908201527f4d41585f4d41494e54454e414e43455f4d415247494e5f524154450000000000604082015260600190565b60a0840152604051616fa59082906125e59060200160208082526015908201527446554e44494e475f4645455f424153455f5241544560581b604082015260600190565b60c0840152604051616fe99082906125e5906020016020808252601590820152744d41585f46554e44494e475f424153455f5241544560581b604082015260600190565b60e084015260405161703f9082906125e59060200160208082526021908201527f54524144494e475f4645455f5354414b494e475f524557415244535f524154496040820152604f60f81b606082015260800190565b61010084015260405161708c9082906125e5906020016020808252601e908201527f54524144494e475f4645455f504f4f4c5f524557415244535f524154494f0000604082015260600190565b6101208401526040516170e49082906125e59060200160208082526022908201527f54524144494e475f4645455f5553445f504f4f4c5f524557415244535f524154604082015261494f60f01b606082015260800190565b61014084015260405161713d9082906125e59060200160208082526023908201527f424f52524f57494e475f4645455f5354414b494e475f524557415244535f524160408201526254494f60e81b606082015260800190565b6101608401526040516171889082906125e5906020016020808252818101527f424f52524f57494e475f4645455f504f4f4c5f524557415244535f524154494f604082015260600190565b6101808401526040516171d59082906125e59060200160208082526019908201527f4155544f5f5245445543455f50524f4649545f464143544f5200000000000000604082015260600190565b6101a08401526040516172229082906125e5906020016020808252601c908201527f4155544f5f5245445543455f4c49515549444954595f464143544f5200000000604082015260600190565b6101c084015260405161726f9082906125e59060200160208082526019908201527f535741505f534c49505045525f544f4b454e5f464143544f5200000000000000604082015260600190565b6101e08401525090919050565b600061334d828461bdea565b61729283836184e7565b6172a2576172a08383618509565b505b6001600160a01b03821660009081526002840160205260409020546172c890829061bdbe565b6001600160a01b039092166000908152600290930160205250604090912055565b6172f384836184e7565b617303576173018483618509565b505b600061730f8484619096565b600081815260028701602052604090205490915061732e90839061bdbe565b600091825260029095016020526040902093909355505050565b61735283836184e7565b617362576173608383618509565b505b6001600160a01b038216600090815260038401602052604090205461738890829061bdbe565b6001600160a01b039092166000908152600390930160205250604090912055565b6173b384836184e7565b6173c3576173c18483618509565b505b60006173cf8484619096565b60008181526003870160205260409020549091506173ee90839061bdbe565b600091825260039095016020526040902093909355505050565b6001600160a01b03831660009081526004850160209081526040808320815160808101835281548082526001830154948201949094526002820154928101929092526003810154606083015291851161747e578482600001600082825461746f919061bdea565b90915550600093506175089050565b8154156174d0578154617491908661bdea565b9250828260030160008282546174a7919061bdbe565b92505081905550828260010160008282546174c2919061bdbe565b909155505060008255617508565b848260030160008282546174e4919061bdbe565b92505081905550848260010160008282546174ff919061bdbe565b90915550859350505b61751c86846175156184a3565b9190619123565b865460405160008051602061c7ba8339815191529161754e916001600160a01b03909116908990859087908a9061c553565b60405180910390a15050949350505050565b61756d60028501846184e7565b6175805761757e6002850184618509565b505b6001600160a01b038316600090815260048501602090815260408083208151608081018352815480825260018301549482019490945260028201549281019290925260038101546060830152929091859184916175de90849061bdbe565b9091555050855460405160008051602061c7ba83398151915291617615916001600160a01b0390911690889085908790899061c553565b60405180910390a1505050505050565b6000806176306184a3565b546001600160a01b031692915050565b600082600003617652575060006121a2565b6040516370a0823160e01b81526001600160a01b038781166004830152600091908716906370a0823190602401602060405180830381865afa15801561769c573d6000803e3d6000fd5b505050506040513d601f19601f820116820180604052508101906176c0919061c43f565b905083811061773d5760405163078d3b7960e01b81526001600160a01b03878116600483015286811660248301526044820186905288169063078d3b7990606401600060405180830381600087803b15801561771b57600080fd5b505af115801561772f573d6000803e3d6000fd5b5050505060019150506121a2565b8261777d57604051635ac09ed760e11b81526001600160a01b038089166004830152808816602483015286166044820152606481018590526084016108cf565b5060009695505050505050565b60006105f78484846000617408565b811561049f5760006177b26177ad8661241a565b613330565b90508260005b8251811015614f595760006177d8848381518110610cef57610cef61baff565b60038101549091506001600160a01b03888116911614801561780357506002810154610100900460ff165b1561785257600061781c61410b83845489148d8b619157565b90506000871361783557617830818561bdfd565b61783f565b61783f818561be25565b935083600003617850575050614f59565b505b506001016177b8565b6001600160a01b038216600090815260048401602052604081206003810154158015906178885750805415155b156179755760408051608081018252825480825260018401546020830152600284015492820192909252600383015460608201819052909110156178cd5781546178d3565b81600301545b9250828260000160008282546178e9919061bdea565b9250508190555082826003016000828254617904919061bdea565b925050819055508282600101600082825461791f919061bdea565b90915550617939905085846179326184a3565b9190619296565b855460405160008051602061c7ba8339815191529161796b916001600160a01b03909116908890859087908a9061c553565b60405180910390a1505b509392505050565b600080826040516020016123fb919060408082526017908201527f78797a2e656c66692e73746f726167652e4c70506f6f6c00000000000000000060608201526001600160a01b0391909116602082015260800190565b6006820154811115617a245760405162461bcd60e51b81526020600482015260196024820152781cdd58881a1bdb1908189a59d9d95c881d1a185b881a1bdb19603a1b60448201526064016108cf565b81546002830154600091617a48916001600160a01b03918216911660048601619338565b905081836004016002016000828254617a61919061bdea565b90915550506006830154610120820152611b108161943a565b61502b82826001619520565b61502b828260016195f6565b81546002830154600091617ab6916001600160a01b03918216911660048601619338565b905081836004016003016000828254617acf919061bdfd565b90915550506007830154610140820152611b108161943a565b6000806040516020016135d29060208082526018908201527f78797a2e656c66692e73746f726167652e557364506f6f6c0000000000000000604082015260600190565b6001600160a01b0382166000908152600284016020526040902060010154811115617b955760405162461bcd60e51b81526020600482015260196024820152781cdd58881a1bdb1908189a59d9d95c881d1a185b881a1bdb19603a1b60448201526064016108cf565b6001600160a01b03821660009081526002840160205260408120617bba908490619650565b6001600160a01b0384166000908152600286016020526040812060010180549293508492909190617bec90849061bdea565b90915550506001600160a01b038316600090815260028501602052604090206001015460a08201526102cd816196f3565b617c2a600c8401836184e7565b617c3d57617c3b600c840183618509565b505b6001600160a01b038083166000908152600e85016020526040812085549092617c6891168584619338565b905082826004016000828254617c7e919061bdbe565b9091555050600482015461016082015261049f8161943a565b617ca283838361977b565b617cf95760405162461bcd60e51b815260206004820152602260248201527f737562206661696c656420776974682062616c616e6365206e6f7420656e6f756044820152610ced60f31b60648201526084016108cf565b6001600160a01b03821660009081526002840160205260408120617d1e908490619650565b6001600160a01b0384166000908152600286016020526040812080549293508492909190617d4d90849061bdea565b90915550506001600160a01b038316600090815260028501602052604090205460808201526102cd816196f3565b6001600160a01b03821660009081526002840160205260408120617da0908490619650565b6001600160a01b03841660009081526002808701602052604082200180549293508492909190617dd190849061bdbe565b90915550506001600160a01b038316600090815260028086016020526040909120015460c08201526102cd816196f3565b82546001600160a01b038381166000908152600e8601602052604081209092617e2e9216908590619338565b9050617e3d600c8501846184e7565b15617e77576001600160a01b0383166000908152600e8501602052604081208054849290617e6c90849061bdbe565b90915550617ea39050565b617e84600c850184618509565b506001600160a01b0383166000908152600e8501602052604090208290555b6001600160a01b0383166000908152600e8501602052604090205460e08201526102cd8161943a565b617ed9600c8401836184e7565b617eec57617eea600c840183618509565b505b82546001600160a01b038381166000908152600e8601602052604081209092617f189216908590619338565b6001600160a01b0384166000908152600e86016020526040812060030180549293508492909190617f4a90849061bdfd565b90915550506001600160a01b0383166000908152600e850160205260409020600301546101408201526102cd8161943a565b80546040517ff23a1644a253a05158a5664e7dcdb9169fcae91f76675245abc54ab5f98a01bb91617fbd916001600160a01b0390911690601085019061c657565b60405180910390a150565b6001600160a01b03811660009081526003830160205260409081902090517f1ce920cb88be503ae9377cd07aae1e28e7ca6c64e897ad6ff9b74c2d329d7d83916159889161c691565b6040805160208101829052601760608201527f78797a2e656c66692e73746f726167652e4d61726b65740000000000000000006080820152908101829052600090819060a0016123fb565b8054604080519182526007830154602083015260088301549082015260098201546060820152600a8201546080820152600b82015460a0820152600c82015460c0820152600d82015460e08201527f5a51d9147354371a353006fe6ea5741b6fdddd5d868eb25f5361cecc080dfa159061010001617fbd565b82546000036180f4576080820151600184015560608201518355618138565b6181168360000154846001015484606001518560800151858760a001516197f5565b600184015560608201518354849060009061813290849061bdbe565b90915550505b7fe1ca63f31f0b04174a12bc0e5a08103c6403d0d7c3980afb3ae8444a47476ef582602001518360a0015184606001518660000154618177919061bdea565b865460408051948552921515602085015291830152606082015260800160405180910390a1505050565b6181ae60048301826184e7565b61502b57611b106004830182618509565b60608101518254116181db5760006001830181905582556181f9565b80606001518260000160008282546181f3919061bdea565b90915550505b7fe1ca63f31f0b04174a12bc0e5a08103c6403d0d7c3980afb3ae8444a47476ef581602001518260a0015183606001518560000154618238919061bdbe565b8554604080519485529215156020850152918301526060820152608001615988565b600080618269836004016168e6565b90506000805b8251811015617975578460060160008483815181106182905761829061baff565b60200260200101516001600160a01b03166001600160a01b0316815260200190815260200160002060000154826182c7919061bdbe565b915060010161826f565b6000818311616596578161334d565b6000806040516020016135d2906020808252601690820152753c3cbd1732b633349739ba37b930b3b29727b93232b960511b604082015260600190565b60009081526020919091526040902090565b611b106007830182616c35565b60009081526020919091526040812080546001600160a01b0319168155600181018290556002810180546001600160d01b031916905560038101829055600481018290556005810182905560068101829055600781018290556008810182905560098101829055600a0155565b60006183b48461983d565b90506000806183c38386619894565b915091508115618445576183e3856183db868461bdbe565b8591906198b9565b507ff19b578fc2b5cd359b489ade8c3e89c78f14417b5c22c020c2ef6918f818f9d2868683618412888261bdbe565b604080516001600160a01b03958616815294909316602085015291830152606082015260800160405180910390a1614f5c565b6184508386866198b9565b50604080516001600160a01b03808916825287166020820152600091810191909152606081018590527ff19b578fc2b5cd359b489ade8c3e89c78f14417b5c22c020c2ef6918f818f9d290608001617615565b6000806040516020016135d2906020808252601b908201527f78797a2e656c66692e73746f726167652e436f6d6d6f6e446174610000000000604082015260600190565b6001600160a01b0381166000908152600183016020526040812054151561334d565b600061334d836001600160a01b0384166198cf565b600061334d83836198cf565b801561858957600061853b8561797d565b9050826185478261991e565b10156185795760405163c5fa5f3d60e01b81526001600160a01b038087166004830152851660248201526044016108cf565b618583818461992c565b506102cd565b6000618593617ae8565b90506185f6816002016000866001600160a01b03166001600160a01b0316815260200190815260200160002060405180606001604052908160008201548152602001600182015481526020016002820154815250506185f061999b565b856199ab565b6186265760405163c5fa5f3d60e01b81526001600160a01b038087166004830152851660248201526044016108cf565b61049f818585619a03565b600061334d836001600160a01b038416618bb0565b604080516000808252602082019092526001600160a01b038416908390604051618670919061c6e0565b60006040518083038185875af1925050503d80600081146186ad576040519150601f19603f3d011682016040523d82523d6000602084013e6186b2565b606091505b5050905080611b105760405162461bcd60e51b815260206004820152600360248201526253544560e81b60448201526064016108cf565b604080516001600160a01b038581166024830152604480830186905283518084039091018152606490920183526020820180516001600160e01b031663a9059cbb60e01b179052915160009283918291891690869061874990869061c6e0565b60006040518083038160008787f1925050503d8060008114618787576040519150601f19603f3d011682016040523d82523d6000602084013e61878c565b606091505b5091509150816187a257600093505050506105f7565b600081511180156187c45750808060200190518101906187c2919061c6fc565b155b156187d557600093505050506105f7565b506001979650505050505050565b6000618838826040518060400160405280602081526020017f5361666545524332303a206c6f772d6c6576656c2063616c6c206661696c6564815250856001600160a01b0316619ad79092919063ffffffff16565b9050805160001480618859575080806020019051810190618859919061c6fc565b611b105760405162461bcd60e51b815260206004820152602a60248201527f5361666545524332303a204552433230206f7065726174696f6e20646964206e6044820152691bdd081cdd58d8d9595960b21b60648201526084016108cf565b60008080600019858709858702925082811083820303915050806000036188f2578382816188e8576188e861c5cf565b049250505061334d565b8084116189395760405162461bcd60e51b81526020600482015260156024820152744d6174683a206d756c446976206f766572666c6f7760581b60448201526064016108cf565b60008486880960026001871981018816978890046003810283188082028403028082028403028082028403028082028403028082028403029081029092039091026000889003889004909101858311909403939093029303949094049190911702949350505050565b6000806189af8484619ae6565b90506000806189be8686619bd8565b9150915060006189ce8787619d0b565b90506189e382826040015161410b919061bdbe565b8151600013156189f45781516189f7565b60005b618a0085613683565b618a228a60010154856020015189618a18919061bdbe565b61410b919061bdbe565b618a2c919061be25565b618a36919061bdfd565b611041919061be25565b606081600001805480602002602001604051908101604052809291908181526020018280548015618a9057602002820191906000526020600020905b815481526020019060010190808311618a7c575b50505050509050919050565b6000808460e00151600003618ab657506000905080618b7f565b846040015115618b1d576000618afb618ad3876101000151613683565b6144dd618aee618ae78a6101000151613683565b8890619ede565b6145da8a60e00151613683565b9050618b1481618b0e8860a00151615aef565b86616a8b565b92509050618b7f565b6000618b4b618b30876101000151613683565b6144dd618aee87618b458b6101000151613683565b90619ede565b90506000618b5f868860a001516000619eea565b9050618b7882618b728960a00151615aef565b83616a8b565b9350909150505b935093915050565b60006105f7618b9685846169f0565b618baa86618ba5876002616c05565b6164e2565b90616587565b60008181526001830160205260408120548015618c99576000618bd460018361bdea565b8554909150600090618be89060019061bdea565b9050818114618c4d576000866000018281548110618c0857618c0861baff565b9060005260206000200154905080876000018481548110618c2b57618c2b61baff565b6000918252602080832090910192909255918252600188019052604090208390555b8554869080618c5e57618c5e61c719565b600190038181906000526020600020016000905590558560010160008681526020019081526020016000206000905560019350505050611128565b6000915050611128565b5092915050565b6000818152600883016020908152604091829020805483518184028101840190945280845260609392830182828015618d0c57602002820191906000526020600020905b81546001600160a01b03168152600190910190602001808311618cee575b5050505050905092915050565b618d2161b6bd565b618d2961b6bd565b600080604051602001618d629060208082526012908201527154524144455f544f4b454e5f434f4e46494760701b604082015260600190565b60408051601f1981840301815291905280516020909101209050618d87828287619f8f565b618d945750909392505050565b618e398186604051602001618dd2906020808252601590820152741254d7d4d5541413d49517d0d3d313105511549053605a1b604082015260600190565b60405160208183030381529060405280519060200120604051602001618e14939291909283526001600160a01b03919091166020830152604082015260600190565b6040516020818303038152906040528051906020012083619fa990919063ffffffff16565b15158352604051618eb49082908790618e7290602001602080825260099082015268282922a1a4a9a4a7a760b91b604082015260600190565b60405160208183030381529060405280519060200120604051602001612615939291909283526001600160a01b03919091166020830152604082015260600190565b836020018181525050618eee8186604051602001618e7290602080825260089082015267111254d0d3d5539560c21b604082015260600190565b836040018181525050618f338186604051602001618e72906020808252601390820152720434f4c4c41544552414c5f555345525f43415606c1b604082015260600190565b6060840152604051618f789082908790618e72906020016020808252601490820152730434f4c4c41544552414c5f544f54414c5f4341560641b604082015260600190565b6080840152604051618fbb9082908790618e729060200160208082526012908201527104c494142494c4954595f555345525f4341560741b604082015260600190565b60a0840152604051618fff9082908790618e729060200160208082526013908201527204c494142494c4954595f544f54414c5f43415606c1b604082015260600190565b60c08401526040516190449082908790618e729060200160208082526014908201527324a72a22a922a9aa2fa920aa22afa320a1aa27a960611b604082015260600190565b60e08401526040516190879082908790618e72906020016020808252601290820152712624a8aaa4a220aa24a7a72fa320a1aa27a960711b604082015260600190565b61010084015250909392505050565b60006040516020016190cd9060208082526011908201527008c8a8abe829a9eaa9ca8bea0a48a8c92b607b1b604082015260600190565b60408051601f198184030181528282528051602091820120908301526001600160a01b03808616918301919091528316606082015260800160405160208183030381529060405280519060200120905092915050565b6001600160a01b03821660009081526006840160205260408120805483929061914d90849061bdbe565b9091555050505050565b600084600a01548560090154148061916d575081155b1561917a575060006105f7565b60008213156191f85760006191a9866009015461429e886008015489600a01548a600901546165c0919061bdea565b90506191b881618baa85616ac0565b91506191d9866008015461429e886009015485616c0590919063ffffffff16565b86600a0160008282546191ec919061bdbe565b90915550619276915050565b6000619217866008015461429e88600901546165c087614b839061be45565b90508086600a01541161924b576000600a8701819055600987015460088801546192449261429e91616c05565b9150619274565b8086600a01600082825461925f919061bdea565b909155506192719050614b838461be45565b91505b505b8380156192835750600081115b156105f7576105f7858460086000615cb8565b6001600160a01b038216600090815260068401602052604090205481111561930e5760405162461bcd60e51b815260206004820152602560248201527f737562546f6b656e4c696162696c697479206c657373207468616e206c696162604482015264696c69747960d81b60648201526084016108cf565b6001600160a01b03821660009081526006840160205260408120805483929061914d90849061bdea565b6193b5604051806101a0016040528060006001600160a01b0316815260200160006001600160a01b0316815260200160008152602001600081526020016000815260200160008152602001600081526020016000815260200160008152602001600081526020016000815260200160008152602001600081525090565b6001600160a01b03808516825283166020820152815460408201819052600183015460608301819052600284015460808401819052600385015460a08501819052600486015460c0860181905260e086019490945261010085019290925261012084015261014083015261016082015261942d61645c565b6101808201529392505050565b7f3c20d1ba6bcc5e5bd62d967908bf1ce684e6b52dbaab9f84ebfbf1b184b46bf8816000015182602001518360400151846060015185608001518660a001518760c001518860e001518961010001518a61012001518b61014001518c61016001518d6101800151604051617fbd9d9c9b9a999897969594939291906001600160a01b039d8e1681529b909c1660208c015260408b019990995260608a0197909752608089019590955260a088019390935260c087019190915260e08601526101008501526101208401526101408301526101608201526101808101919091526101a00190565b60048301548211156195845760405162461bcd60e51b815260206004820152602760248201527f6261736520746f6b656e20616d6f756e74206c657373207468616e2073756220604482015266616d6f756e742160c81b60648201526084016108cf565b80156195df57825460028401546000916195ae916001600160a01b03918216911660048701619338565b9050828460040160000160008282546195c7919061bdea565b9091555050600484015460e08201526102cd8161943a565b8183600401600001600082825461914d919061bdea565b80156196395782546002840154600091619620916001600160a01b03918216911660048701619338565b9050828460040160000160008282546195c7919061bdbe565b8183600401600001600082825461914d919061bdbe565b6196a160405180610100016040528060006001600160a01b03168152602001600081526020016000815260200160008152602001600081526020016000815260200160008152602001600081525090565b6001600160a01b0383168152815460208201819052600183015460408301819052600284015460608401819052608084019290925260a083015260c08201526196e861645c565b60e082015292915050565b805160208083015160408085015160608087015160808089015160a0808b015160c0808d015160e0808f01518b516001600160a01b03909f168f529c8e019b909b52988c0197909752948a0193909352908801528601528401528201527f217ba1d63771ad2228865ab2d862a89115d536eabbe8315c584eafe090d7f4229061010001617fbd565b6001600160a01b0382166000908152600284016020526040812080548311156197a857600091505061334d565b60006197b261999b565b9050806000036197d9576001820154825485916197ce9161bdea565b10159250505061334d565b600182015482546197ce906197ef90879061bdea565b836169f0565b600080619822619805878a61bdbe565b61429e6198128989616c05565b61981c8c8c616c05565b90619fc2565b905061982f818585619fce565b9150505b9695505050505050565b600080826040516020016123fb91906040808252601e908201527f78797a2e656c66692e73746f726167652e496e737572616e636546756e64000060608201526001600160a01b0391909116602082015260800190565b60008080806198ac866001600160a01b03871661a011565b9097909650945050505050565b60006105f7846001600160a01b0385168461a053565b600081815260018301602052604081205461991657508154600181810184556000848152602080822090930184905584548482528286019093526040902091909155611128565b506000611128565b6000606061334d838261a070565b6199428260040161993c8461a292565b8361a2b3565b61995e5760405162461bcd60e51b81526004016108cf9061c72f565b81546002830154600091619982916001600160a01b03918216911660048601619338565b905081836004016002016000828254617a61919061bdbe565b60006199a561a33e565b51919050565b6000826000036199e0576020840151604085015185518492916199cd9161bdbe565b6199d7919061bdea565b1015905061334d565b8184602001516199cd866040015187600001516199fd919061bdbe565b866169f0565b619a64836002016000846001600160a01b03166001600160a01b031681526020019081526020016000206040518060600160405290816000820154815260200160018201548152602001600282015481525050619a5e61999b565b836199ab565b619a805760405162461bcd60e51b81526004016108cf9061c72f565b6001600160a01b03821660009081526002840160205260408120619aa5908490619650565b6001600160a01b0384166000908152600286016020526040812060010180549293508492909190617bec90849061bdbe565b60606105f7848460008561a37f565b6000806000619af48561a44f565b905060005b8151811015619bce57619b17828281518110616e1657616e1661baff565b5115619bc6576000866004016000848481518110619b3757619b3761baff565b60200260200101516001600160a01b03166001600160a01b031681526020019081526020016000206040518060800160405290816000820154815260200160018201548152602001600282015481526020016003820154815250509050619bc2619bbb848481518110619bac57619bac61baff565b6020026020010151838961a45d565b8590619fc2565b9350505b600101619af9565b5090949350505050565b6000806000806000619be98761a44f565b905060005b8151811015619cd0576000886004016000848481518110619c1157619c1161baff565b60200260200101516001600160a01b03166001600160a01b031681526020019081526020016000206040518060800160405290816000820154815260200160018201548152602001600282015481526020016003820154815250509050619c9c619c95848481518110619c8657619c8661baff565b6020026020010151838b61a4bc565b8690619fc2565b9450619cc5619bbb848481518110619cb657619cb661baff565b6020026020010151838b61a52e565b935050600101619bee565b50600187015415619cff576001870154619cea908461bdbe565b9250866001015482619cfc919061bdbe565b91505b50909590945092505050565b619d446040518060c001604052806000815260200160008152602001600081526020016000815260200160008152602001600081525090565b619d4d8361a58d565b6000619d5a84600161a5b5565b90506000619d66616c41565b60a00151905060005b8251811015619ed5576000838281518110619d8c57619d8c61baff565b602002602001015190506000619dab878360c001518460400151619eea565b90506000619dbc8360200151613701565b90506000619dcd848a85600061695a565b90506000811315619e0c57619e05619dfd82619df8619def8860a00151618d19565b60400151613683565b61a7d3565b89519061a7e4565b8852619e38565b619e35619dfd82619df8619e238860a00151618d19565b610100015161410b90620186a061bdbe565b88525b619e59619e4e8560e00151846000015189618b87565b60608a015190619fc2565b60608901526101608401516020890151619e7291619fc2565b60208901526101808401516040890151619e8b91619fc2565b604089015260e084015160a0890151619ea391619fc2565b60a0890152619ec0619eb5858b61a7f0565b60808a01519061a7e4565b6080890152505060019092019150619d6f9050565b50505092915050565b600061334d828461be25565b6000805b8451811015619f8457836001600160a01b0316858281518110619f1357619f1361baff565b6020026020010151600001516001600160a01b031603619f7c5782619f5557848181518110619f4457619f4461baff565b602002602001015160600151619f74565b848181518110619f6757619f6761baff565b6020026020010151604001515b91505061334d565b600101619eee565b506105f78383611104565b6000828152600c8401602052604081206105f790836184e7565b6000908152600391909101602052604090205460ff1690565b600061334d828461bdbe565b600080619fdb848661c772565b905080600003619fee578491505061334d565b619f74846165c08561a00157600061a004565b60015b60ff1661981c8989616c11565b600081815260028301602052604081205481908061a0405761a033858561aadb565b925060009150612c559050565b600192509050612c55565b509250929050565b600082815260028401602052604081208290556105f7848461851e565b60078201546004830154600091829161a08890613683565b61a092919061bdfd565b9050600081121561a0a7576000915050611128565b600061a0b28561aae7565b80519091501561a24457600285015460009061a0d6906001600160a01b0316615aef565b600287015490915060009061a0f79087906001600160a01b03166001619eea565b905060005b835181101561a24057600088600e01600086848151811061a11f5761a11f61baff565b60200260200101516001600160a01b03166001600160a01b0316815260200190815260200160002090506000816004015411801561a181575061a1658160040154613683565b6003820154825461a17590613683565b61a17f919061bdfd565b125b1561a23757600061a205826003015461a19d8460000154613683565b61a1aa8560040154613683565b61a1b4919061be25565b61a1be919061be25565b61a1e088868151811061a1d35761a1d361baff565b6020026020010151615aef565b613ba08c8a888151811061a1f65761a1f661baff565b60200260200101516001619eea565b9050600061a214828787616a8b565b90508088131561a22f5761a228818961be25565b975061a234565b600097505b50505b5060010161a0fc565b5050505b600061a25683619df861410b8961a292565b905061a2688660040160020154613683565b811361a275576000619833565b61983361a2888760040160020154613683565b614b83908361be25565b805460009061a2a9906001600160a01b031661aaf5565b6020015192915050565b60008260000361a3005761a2c682613683565b61a2d38560020154613683565b6003860154865461a2e390613683565b61a2ed919061bdfd565b61a2f7919061be25565b1215905061334d565b61a30982613683565b61a3168560020154613683565b61a2ed866003015461a32b8860000154613683565b61a335919061bdfd565b619df887613683565b61a3776040518060c001604052806000815260200160008152602001600081526020016000815260200160608152602001606081525090565b6164d861ae7e565b60608247101561a3e05760405162461bcd60e51b815260206004820152602660248201527f416464726573733a20696e73756666696369656e742062616c616e636520666f6044820152651c8818d85b1b60d21b60648201526084016108cf565b600080866001600160a01b0316858760405161a3fc919061c6e0565b60006040518083038185875af1925050503d806000811461a439576040519150601f19603f3d011682016040523d82523d6000602084013e61a43e565b606091505b50915091506110418783838761b1aa565b6060611128826002016168e6565b6000826020015183600001511161a4765750600061334d565b600061a4a48460200151856000015161a48f919061bdea565b61a49887615aef565b613a918689600161b223565b90506121a28161a4b387618d19565b604001516169f0565b6000826000015183602001511161a4d55750600061334d565b600061a4ee8460000151856020015161a48f919061bdea565b9050600061a4fb86618d19565b6101000151111561a5275761a51d8161a51387618d19565b61010001516169f0565b619f74908261bdbe565b905061334d565b8151606083015160208401516000929161a5479161bdea565b1161a5545750600061334d565b8251606084015160208501516105f7929161a56e9161bdea565b61a578919061bdea565b61a58186615aef565b613a918588600161b223565b80546001600160a01b031661107c57604051633902b86b60e11b815260040160405180910390fd5b6060600061a5c284613330565b9050600061a5d0828561b285565b67ffffffffffffffff81111561a5e85761a5e861bb15565b60405190808252806020026020018201604052801561a62157816020015b61a60e61b43c565b81526020019060019003908161a6065790505b5090506000805b835181101561a7c857600061a648858381518110610cef57610cef61baff565b6040805161022081018252825481526001830154602080830191909152600284015460ff808216151584860152610100808304909116151560608086019182526001600160a01b036201000090940484166080808801919091526003890154851660a08089019190915260048a015490951660c08089019190915260058a015460e0808a019190915260068b01549589019590955260078a015461012089015260088a015461014089015260098a0154610160890152600a8a0154610180890152600b8a01546101a089015288519485018952600c8a01548552600d8a015496850196909652600e89015497840197909752600f880154908301526010870154958201959095526011860154918101919091526012850154918101919091526101c082015260138301546101e0820152601490920154610200830152519091508715159015150361a7bf578084848151811061a7a65761a7a661baff565b602090810291909101015261a7bc60018461bdbe565b92505b5060010161a628565b509095945050505050565b600061334d616a53620186a0613683565b600061334d828461bdfd565b600061a8356040518060e001604052806000815260200160008152602001600060ff168152602001600081526020016000815260200160008152602001600081525090565b61a84784602001518560400151616a15565b606082015260e084015161a8779061a85e90613683565b856101c00151608001518360600151613b2c919061be25565b608082015260a084015161a88a90615aef565b60ff166040808301919091528401511561a8d95761a8be81608001518260400151613ba0868860a001518960400151619eea565b846101c0015160c0015161a8d2919061bdfd565b815261a8f5565b8060800151846101c0015160c0015161a8f2919061bdfd565b81525b600061a90485602001516123b4565b6040805160c08101909152815481526001820154909190602083019060ff16600381111561a9345761a93461bbcb565b600381111561a9455761a94561bbcb565b815260018201546001600160a01b0361010090910481166020830152600283015481166040830152600383015416606082015260048201805460809092019161a98d9061bbe1565b80601f016020809104026020016040519081016040528092919081815260200182805461a9b99061bbe1565b801561aa065780601f1061a9db5761010080835404028352916020019161aa06565b820191906000526020600020905b81548152906001019060200180831161a9e957829003601f168201915b505050505081525050905061aa28816040015186604001518760a0015161699d565b60a083015261014085015161012086015161aa689161aa4f91613a1d90620186a09061bdea565b866101c00151602001518460a00151613a31919061bdea565b8260c001818152505061aa918260c001518360400151613a91878960a001518a6040015161b223565b856101c001516060015161aaa5919061bdbe565b6020830181905261aab590613683565b82516101c08701515161aac790613683565b61aad1919061bdfd565b6121a2919061bdfd565b600061334d83836168f3565b606061112882600c016168e6565b61aafd61b70b565b61ab0561b70b565b60008060405160200161ab3a906020808252600e908201526d4c505f504f4f4c5f434f4e46494760901b604082015260600190565b60408051601f198184030181529190528051602090910120905061ab5f828287619f8f565b61ab6c5750909392505050565b61aba78186604051602001618e7290602080825260129082015271424153455f494e5445524553545f5241544560701b604082015260600190565b835260405161abe99082908790618e72906020016020808252601490820152731413d3d317d3125455525112551657d31253525560621b604082015260600190565b83602001818152505061ac288186604051602001618e72906020808252600d908201526c4d494e545f4645455f5241544560981b604082015260600190565b83604001818152505061ac698186604051602001618e72906020808252600f908201526e52454445454d5f4645455f5241544560881b604082015260600190565b606084015260405161acae9082908790618e72906020016020808252601490820152731413d3d317d4139317d490551253d7d31253525560621b604082015260600190565b608084015260405161acfa9082908790618e72906020016020808252818101527f554e534554544c45445f424153455f544f4b454e5f524154494f5f4c494d4954604082015260600190565b60a084015260405161ad539082908790618e729060200160208082526022908201527f554e534554544c45445f535441424c455f544f4b454e5f524154494f5f4c494d604082015261125560f21b606082015260800190565b60c084015260405161ada19082908790618e72906020016020808252601d908201527f504f4f4c5f535441424c455f544f4b454e5f524154494f5f4c494d4954000000604082015260600190565b60e084015260405161adef9082908790618e72906020016020808252601c908201527f504f4f4c5f535441424c455f544f4b454e5f4c4f53535f4c494d495400000000604082015260600190565b61010084015260405161ae6f908290879061ae2d906020016020808252600c908201526b41535345545f544f4b454e5360a01b604082015260600190565b60405160208183030381529060405280519060200120604051602001616d70939291909283526001600160a01b03919091166020830152604082015260600190565b61012084015250909392505050565b61aeb76040518060c001604052806000815260200160008152602001600081526020016000815260200160608152602001606081525090565b60008060405160200161aeed906020808252600f908201526e5553445f504f4f4c5f434f4e46494760881b604082015260600190565b60405160208183030381529060405280519060200120905061af41816040516020016125e5906020808252601490820152731413d3d317d3125455525112551657d31253525560621b604082015260600190565b835260405161af7a9082906125e5906020016020808252600d908201526c4d494e545f4645455f5241544560981b604082015260600190565b83602001818152505061afba816040516020016125e5906020808252600f908201526e52454445454d5f4645455f5241544560881b604082015260600190565b83604001818152505061b000816040516020016125e590602080825260159082015274155394d1551513115117d490551253d7d312535255605a1b604082015260600190565b606084015260405161b044908290616d4090602001602080825260159082015274535550504f52545f535441424c455f544f4b454e5360581b604082015260600190565b608084018190525167ffffffffffffffff81111561b0645761b06461bb15565b60405190808252806020026020018201604052801561b08d578160200160208202803683370190505b5060a084015260005b83608001515181101561b1a45761b17b828560800151838151811061b0bd5761b0bd61baff565b602002602001015160405160200161b1149060208082526025908201527f535441424c455f544f4b454e535f424f52524f57494e475f494e5445524553546040820152645f5241544560d81b606082015260800190565b6040516020818303038152906040528051906020012060405160200161b156939291909283526001600160a01b03919091166020830152604082015260600190565b604051602081830303815290604052805190602001208461635190919063ffffffff16565b8460a00151828151811061b1915761b19161baff565b602090810291909101015260010161b096565b50505090565b6060831561b21957825160000361b212576001600160a01b0385163b61b2125760405162461bcd60e51b815260206004820152601d60248201527f416464726573733a2063616c6c20746f206e6f6e2d636f6e747261637400000060448201526064016108cf565b50816105f7565b6105f7838361b412565b6000805b8451811015619f8457836001600160a01b031685828151811061b24c5761b24c61baff565b6020026020010151600001516001600160a01b03160361b27d5782619f5557848181518110619f4457619f4461baff565b60010161b227565b60008061b29061b43c565b60005b8551811015619bce5761b2b1868281518110610cef57610cef61baff565b6040805161022081018252825481526001830154602080830191909152600284015460ff808216151584860152610100808304909116151560608086019182526001600160a01b036201000090940484166080808801919091526003890154851660a08089019190915260048a015490951660c08089019190915260058a015460e0808a019190915260068b01549589019590955260078a015461012089015260088a015461014089015260098a0154610160890152600a8a0154610180890152600b8a01546101a089015288519485018952600c8a01548552600d8a015496850196909652600e89015497840197909752600f880154908301526010870154958201959095526011860154918101919091526012850154918101919091526101c082015260138301546101e0820152601490920154610200830152519092508515159015150361b40a5761b40760018461bdbe565b92505b60010161b293565b81511561b4225781518083602001fd5b8060405162461bcd60e51b81526004016108cf919061c786565b604051806102200160405280600080191681526020016000801916815260200160001515815260200160001515815260200160006001600160a01b0316815260200160006001600160a01b0316815260200160006001600160a01b031681526020016000815260200160008152602001600081526020016000815260200160008152602001600081526020016000815260200161b50f6040518060e00160405280600081526020016000815260200160008152602001600081526020016000815260200160008152602001600081525090565b815260200160008152602001600081525090565b604051806060016040528061b50f61b43c565b6040518060c0016040528060006001600160a01b031681526020016000815260200160008152602001600060ff168152602001600015158152602001600081525090565b60405180610100016040528060008152602001600081526020016000815260200160008152602001600081526020016000815260200160008152602001600081525090565b604051806102c0016040528060006001600160a01b0316815260200161b5e361b43c565b8152602001600081526020016000815260200160008152602001600081526020016000815260200160008152602001600081526020016000815260200160008152602001600081526020016000815260200160008152602001600081526020016000815260200160008152602001600081526020016000815260200160008152602001600081526020016000151581525090565b6040518060e0016040528060008152602001600081526020016000815260200160008152602001600081526020016000815260200160006001600160a01b031681525090565b60405180610120016040528060001515815260200160008152602001600081526020016000815260200160008152602001600081526020016000815260200160008152602001600081525090565b604051806101400160405280600081526020016000815260200160008152602001600081526020016000815260200160008152602001600081526020016000815260200160008152602001606081525090565b6000806020838503121561b77157600080fd5b823567ffffffffffffffff8082111561b78957600080fd5b818501915085601f83011261b79d57600080fd5b81358181111561b7ac57600080fd5b8660208260051b850101111561b7c157600080fd5b60209290920196919550909350505050565b60008060006040848603121561b7e857600080fd5b83359250602084013567ffffffffffffffff8082111561b80757600080fd5b818601915086601f83011261b81b57600080fd5b81358181111561b82a57600080fd5b8760208260071b850101111561b83f57600080fd5b6020830194508093505050509250925092565b6001600160a01b038116811461107c57600080fd5b803561b8728161b852565b919050565b801515811461107c57600080fd5b803561b8728161b877565b6000806000806080858703121561b8a657600080fd5b843561b8b18161b852565b935060208501359250604085013561b8c88161b852565b9150606085013561b8d88161b877565b939692955090935050565b8051825260208101516020830152604081015161b904604084018215159052565b50606081015161b918606084018215159052565b50608081015161b93360808401826001600160a01b03169052565b5060a081015161b94e60a08401826001600160a01b03169052565b5060c081015161b96960c08401826001600160a01b03169052565b5060e08181015190830152610100808201519083015261012080820151908301526101408082015190830152610160808201519083015261018080820151908301526101a080820151908301526101c08082015180518285015260208101516101e085015260408101516102008501526060810151610220850152608081015161024085015260a081015161026085015260c081015161028085015250506101e08101516102a083015261020001516102c090910152565b6102e08101611128828461b8e3565b6000806040838503121561ba4357600080fd5b50508035926020909101359150565b6000610100828403121561ba6557600080fd5b50919050565b60006020828403121561ba7d57600080fd5b813561334d8161b852565b602080825282518282018190526000919060409081850190868401855b8281101561bae057815161baba85825161b8e3565b808701516102e0860152850151610300850152610320909301929085019060010161baa5565b5091979650505050505050565b600060c0828403121561ba6557600080fd5b634e487b7160e01b600052603260045260246000fd5b634e487b7160e01b600052604160045260246000fd5b60006080828403121561bb3d57600080fd5b6040516080810181811067ffffffffffffffff8211171561bb6e57634e487b7160e01b600052604160045260246000fd5b604052823561bb7c8161b852565b8152602083013561bb8c8161b852565b6020820152604083810135908201526060928301359281019290925250919050565b60006020828403121561bbc057600080fd5b815161334d8161b852565b634e487b7160e01b600052602160045260246000fd5b600181811c9082168061bbf557607f821691505b60208210810361ba6557634e487b7160e01b600052602260045260246000fd5b634e487b7160e01b600052601160045260246000fd5b80820281158282048414176111285761112861bc15565b60006020828403121561bc5457600080fd5b813561334d8161b877565b600061010080838503121561bc7357600080fd5b6040519081019067ffffffffffffffff8211818310171561bca457634e487b7160e01b600052604160045260246000fd5b81604052833581526020840135915061bcbc8261b877565b81602082015261bcce6040850161b885565b604082015261bcdf6060850161b885565b60608201526080840135608082015261bcfa60a0850161b867565b60a082015260c084013560c082015260e084013560e0820152809250505092915050565b600060c0828403121561bd3057600080fd5b60405160c0810181811067ffffffffffffffff8211171561bd6157634e487b7160e01b600052604160045260246000fd5b60405282358152602083013561bd768161b877565b6020820152604083013561bd898161b877565b6040820152606083013561bd9c8161b852565b60608201526080838101359082015260a0928301359281019290925250919050565b808201808211156111285761112861bc15565b60006001820161bde35761bde361bc15565b5060010190565b818103818111156111285761112861bc15565b808201828112600083128015821682158216171561be1d5761be1d61bc15565b505092915050565b8181036000831280158383131683831282161715618ca357618ca361bc15565b6000600160ff1b820161be5a5761be5a61bc15565b5060000390565b8051602080830151919081101561ba655760001960209190910360031b1b16919050565b60018060a01b038082511683526020820151602084015280604083015116604084015250606081015160608301526080810151608083015260a0810151151560a083015260c0810151151560c083015260e081015160e08301525050565b6101008101611128828461be85565b80516001600160a01b0316825260208101516020830152604081015161bf1c604084018215159052565b50606081015161bf30606084018215159052565b50608081015161bf44608084018215159052565b5060a081015160a083015260c081015161bf6960c08401826001600160a01b03169052565b5060e08181015190830152610100808201519083015261012090810151910152565b610160810161bf9a828561bef2565b826101408301529392505050565b815461014082019061bfcd9083906001600160a01b03165b6001600160a01b03169052565b60018301546020830152600283015460ff81161515604084015261bffb6060840160ff8360081c1615159052565b61c00f6080840160ff8360101c1615159052565b50600383015460a083015260048301546001600160a01b031660c0830152600583015460e083015260068301546101008301526007909201546101209091015290565b6101408101611128828461bef2565b610120810161c070828561be85565b826101008301529392505050565b815461010082019061c09a9083906001600160a01b031661bfc0565b6001830154602083015260028301546001600160a01b031660408301526003830154606083015260048301546080830152600583015460ff808216151560a085015260089190911c16151560c083015260069092015460e09091015290565b6003811061c1095761c10961bbcb565b9052565b6004811061c1095761c10961bbcb565b82516001600160a01b03168152610240810160208401516020830152604084015161c14b604084018261c0f9565b50606084015161c15e606084018261c0f9565b50608084015161c171608084018261c10d565b5060a084015161c18460a084018261c0f9565b5060c084015161c19860c084018215159052565b5060e084015161c1ac60e084018215159052565b50610100848101516001600160a01b03169083015261012080850151908301526101408085015190830152610160808501519083015261018080850151908301526101a080850151908301526101c080850151908301526101e080850151908301526102009384015193820193909352610220015290565b858152602081018590526104e081016009851061c2435761c24361bbcb565b8460408301528354606083015260018401546080830152600284015461c27060a0840160ff831615159052565b61c28460c0840160ff8360081c1615159052565b6001600160a01b03601082901c1660e08401525060038401546001600160a01b03166001600160a01b0381166101008401525060048401546001600160a01b03166001600160a01b0381166101208401525060058401546101408301526006840154610160830152600784015461018083015260088401546101a083015260098401546101c0830152600a8401546101e0830152600b840154610200830152600c840154610220830152600d840154610240830152600e840154610260830152600f84015461028083015260108401546102a083015260118401546102c083015260128401546102e08301526013840154610300830152601484015461032083015282516103408301526020830151610360830152604083015161038083015260608301516103a083015260808301516103c083015260a08301516103e083015260c083015161040083015260e08301516104208301526101008301516104408301526101208301516104608301526101408301516104808301526101608301516104a08301526101808301516104c0830152619833565b60006020828403121561c42e57600080fd5b815160ff8116811461334d57600080fd5b60006020828403121561c45157600080fd5b5051919050565b600181815b8085111561a04b57816000190482111561c4795761c47961bc15565b8085161561c48657918102915b93841c939080029061c45d565b60008261c4a257506001611128565b8161c4af57506000611128565b816001811461c4c5576002811461c4cf5761c4eb565b6001915050611128565b60ff84111561c4e05761c4e061bc15565b50506001821b611128565b5060208310610133831016604e8410600b841016171561c50e575081810a611128565b61c518838361c458565b806000190482111561c52c5761c52c61bc15565b029392505050565b600061334d60ff84168361c493565b600f811061c1095761c10961bbcb565b6001600160a01b03868116825285166020820152610160810161c59a6040830186805182526020810151602083015260408101516040830152606081015160608301525050565b835460c0830152600184015460e08301526002840154610100830152600384015461012083015261983361014083018461c543565b634e487b7160e01b600052601260045260246000fd5b60008261c5f45761c5f461c5cf565b500490565b80820260008212600160ff1b8414161561c6155761c61561bc15565b81810583148215176111285761112861bc15565b60008261c6385761c63861c5cf565b600160ff1b82146000198414161561c6525761c65261bc15565b500590565b6001600160a01b03831681528154602082015260018201546040820152600282015460608201526003820154608082015260a0810161334d565b8154815260018201546020820152600282015460408201526003820154606082015260808101611128565b60005b8381101561c6d757818101518382015260200161c6bf565b50506000910152565b6000825161c6f281846020870161c6bc565b9190910192915050565b60006020828403121561c70e57600080fd5b815161334d8161b877565b634e487b7160e01b600052603160045260246000fd5b60208082526023908201527f686f6c64206661696c656420776974682062616c616e6365206e6f7420656e6f6040820152620eaced60eb1b606082015260800190565b60008261c7815761c78161c5cf565b500690565b602081526000825180602084015261c7a581604085016020870161c6bc565b601f01601f1916919091016040019291505056fe1d59acd5f3bb87326c498fe747e339bda33b5370b6f8df63a48f232d73efb748a264697066735822122008bc1da0fcc18366c20d4c322a62281fc0dce85826cb1c2b3601d0ee5b08e11b64736f6c634300081900336080604052348015600f57600080fd5b506105958061001f6000396000f3fe608060405234801561001057600080fd5b506004361061004c5760003560e01c8063208dd1ff14610051578063ab2742dc14610066578063ac4ab3fb14610079578063cb337348146100a0575b600080fd5b61006461005f3660046104cd565b6100b3565b005b6100646100743660046104cd565b610105565b61008c6100873660046104cd565b61014e565b604051901515815260200160405180910390f35b6100646100ae3660046104f7565b610163565b6100c5336420a226a4a760d91b6101ae565b6100f757604051632d7d0e0d60e21b81523360048201526420a226a4a760d91b60248201526044015b60405180910390fd5b61010182826101e6565b5050565b610117336420a226a4a760d91b6101ae565b61014457604051632d7d0e0d60e21b81523360048201526420a226a4a760d91b60248201526044016100ee565b6101018282610243565b600061015a83836101ae565b90505b92915050565b610175336420a226a4a760d91b6101ae565b6101a257604051632d7d0e0d60e21b81523360048201526420a226a4a760d91b60248201526044016100ee565b6101ab81610272565b50565b6000806101b96102ab565b6001600160a01b03851660009081526020829052604090209091506101de908461030d565b949350505050565b60006101f06102ab565b6001600160a01b0384166000908152602082905260409020909150610215908361030d565b1561023e576001600160a01b038316600090815260208290526040902061023c9083610325565b505b505050565b600061024d6102ab565b6001600160a01b038416600090815260208290526040902090915061023c9083610331565b600061027c6102ab565b6001600160a01b038316600090815260208290526040812091925081816102a3828261047f565b505050505050565b6000806040516020016102ef906020808252601e908201527f78797a2e656c66692e73746f726167652e416363657373436f6e74726f6c0000604082015260600190565b60408051601f19818403018152919052805160209091012092915050565b6000818152600183016020526040812054151561015a565b600061015a838361033d565b600061015a8383610430565b60008181526001830160205260408120548015610426576000610361600183610512565b855490915060009061037590600190610512565b90508181146103da57600086600001828154811061039557610395610533565b90600052602060002001549050808760000184815481106103b8576103b8610533565b6000918252602080832090910192909255918252600188019052604090208390555b85548690806103eb576103eb610549565b60019003818190600052602060002001600090559055856001016000868152602001908152602001600020600090556001935050505061015d565b600091505061015d565b60008181526001830160205260408120546104775750815460018181018455600084815260208082209093018490558454848252828601909352604090209190915561015d565b50600061015d565b50805460008255906000526020600020908101906101ab91905b808211156104ad5760008155600101610499565b5090565b80356001600160a01b03811681146104c857600080fd5b919050565b600080604083850312156104e057600080fd5b6104e9836104b1565b946020939093013593505050565b60006020828403121561050957600080fd5b61015a826104b1565b8181038181111561015d57634e487b7160e01b600052601160045260246000fd5b634e487b7160e01b600052603260045260246000fd5b634e487b7160e01b600052603160045260246000fdfea264697066735822122043282e4295126a3c38ad221864c22b30140b0435a83b4e5fb6f8b6009bbceac664736f6c634300081900336080604052348015600f57600080fd5b50600160005561920b806100246000396000f3fe6080604052600436106100555760003560e01c8063182250891461005a5780633b6f91441461007c5780636990d2451461009c5780639d437bd8146100bc578063a7cb6602146100dc578063a8b6d8aa14610101575b600080fd5b34801561006657600080fd5b5061007a6100753660046187e6565b610114565b005b34801561008857600080fd5b5061007a610097366004618865565b6102fb565b3480156100a857600080fd5b5061007a6100b73660046187e6565b6103af565b3480156100c857600080fd5b5061007a6100d7366004618865565b6104b6565b6100ef6100ea366004618887565b61055d565b60405190815260200160405180910390f35b6100ef61010f36600461889a565b610875565b61011c610aff565b60005a90506101336525a2a2a822a960d11b610b58565b600061013e85610b8b565b80519091506001600160a01b031661016957604051630f1bc76960e01b815260040160405180910390fd5b6101c48484808060200260200160405190810160405280939291908181526020016000905b828210156101ba576101ab608083028601368190038101906188e2565b8152602001906001019061018e565b5050505050610c70565b6101ce8582610deb565b506101d7610fac565b6102ea6040518060a0016040528083610100015161025657306001600160a01b0316631f7592ea6040518163ffffffff1660e01b8152600401602060405180830381865afa15801561022d573d6000803e3d6000fd5b505050506040513d601f19601f820116820180604052508101906102519190618965565b6102b8565b306001600160a01b03166308ba026f6040518163ffffffff1660e01b8152600401602060405180830381865afa158015610294573d6000803e3d6000fd5b505050506040513d601f19601f820116820180604052508101906102b89190618965565b6001600160a01b03908116825260c0850151602083015260408201869052336060830152845116608090910152610fbe565b50506102f66001600055565b505050565b60005a90506103126525a2a2a822a960d11b610b58565b600061031d84610b8b565b80519091506001600160a01b031661034857604051630f1bc76960e01b815260040160405180910390fd5b61035384828561106e565b6103a96040518060a0016040528083610100015161025657306001600160a01b0316631f7592ea6040518163ffffffff1660e01b8152600401602060405180830381865afa15801561022d573d6000803e3d6000fd5b50505050565b6103b7610aff565b60005a90506103ce6525a2a2a822a960d11b610b58565b61041f8383808060200260200160405190810160405280939291908181526020016000905b828210156101ba57610410608083028601368190038101906188e2565b815260200190600101906103f3565b600061042a856111a8565b60208101519091506001600160a01b031661045857604051630a24c01d60e31b815260040160405180910390fd5b610462858261125d565b61046a610fac565b6102ea6040518060a00160405280306001600160a01b0316631f7592ea6040518163ffffffff1660e01b8152600401602060405180830381865afa158015610294573d6000803e3d6000fd5b60005a90506104cd6525a2a2a822a960d11b610b58565b60006104d8846111a8565b60208101519091506001600160a01b031661050657604051630a24c01d60e31b815260040160405180910390fd5b610511848285611325565b6103a96040518060a00160405280306001600160a01b0316631f7592ea6040518163ffffffff1660e01b8152600401602060405180830381865afa158015610294573d6000803e3d6000fd5b6000610567610aff565b816040013560000361058c57604051637e278d5760e11b815260040160405180910390fd5b600061059b6020840184618982565b6001600160a01b0316036105c25760405163801c452360e01b815260040160405180910390fd5b3360006105d56040850160208601618982565b90506105e46020850185618982565b6001600160a01b03166105f5611360565b6001600160a01b0316036106475761060c8161137b565b6106425761061d6020850185618982565b816040516364f3d63f60e01b815260040161063992919061899f565b60405180910390fd5b6106f3565b61065c6106576020860186618982565b611399565b156106c15760006106786106736020870187618982565b6113b3565b60028101549091506001600160a01b038381169116146106bb5761069f6020860186618982565b826040516364f3d63f60e01b815260040161063992919061899f565b506106f3565b6106ce6020850185618982565b60405163f31dadd760e01b81526001600160a01b039091166004820152602401610639565b6060840135156108015761070e610100850160e086016189d2565b158061071d5750836060013534145b6107695760405162461bcd60e51b815260206004820152601960248201527f4465706f7369742065746820616d6f756e74206572726f7221000000000000006044820152606401610639565b6107ff6040518060a00160405280846001600160a01b031681526020018660200160208101906107999190618982565b6001600160a01b03168152606087013560208201526040016107c160e0880160c089016189d2565b6107cc5760026107cf565b60035b60038111156107e0576107e06189ef565b81526020016107f6610100880160e089016189d2565b15159052611429565b505b60008061081c8461081736899003890189618a05565b6116cc565b9150915081866040013510156108455760405163801c452360e01b815260040160405180910390fd5b61086061085736889003880188618a05565b858585856117d5565b9450505050506108706001600055565b919050565b600061087f610aff565b60008260600135116108c85760405162461bcd60e51b81526020600482015260126024820152710756e5374616b65416d6f756e74203d3d20360741b6044820152606401610639565b6108dd6108d86020840184618982565b6118e3565b3360006108f06040850160208601618982565b6040516370a0823160e01b81526001600160a01b03848116600483015291909116906370a0823190602401602060405180830381865afa158015610938573d6000803e3d6000fd5b505050506040513d601f19601f8201168201806040525081019061095c9190618ac1565b90508060000361099257816109776040860160208701618982565b60405163f8b251f760e01b815260040161063992919061899f565b83606001358110156109af57816109776040860160208701618982565b6109bf6040850160208601618982565b6001600160a01b03166109d0611360565b6001600160a01b031603610a3a576109f66109f16060860160408701618982565b61137b565b610a3557610a0a6040850160208601618982565b610a1a6060860160408701618982565b60405163fdeabc1960e01b815260040161063992919061899f565b610ac6565b610a4d6106576040860160208701618982565b15610ab6576000610a676106736040870160208801618982565b9050610a796060860160408701618982565b60028201546001600160a01b03908116911614610ab057610aa06040860160208701618982565b610a1a6060870160408801618982565b50610ac6565b6106ce6040850160208601618982565b610ad4828560a0013561190a565b610af1610ae636869003860186618ada565b8386606001356119a7565b925050506108706001600055565b600260005403610b515760405162461bcd60e51b815260206004820152601f60248201527f5265656e7472616e637947756172643a207265656e7472616e742063616c6c006044820152606401610639565b6002600055565b610b623382611af0565b610b8857604051632d7d0e0d60e21b815233600482015260248101829052604401610639565b50565b6040805161012081018252600080825260208201819052918101829052606081018290526080810182905260a0810182905260c0810182905260e08101829052610100810182905290610bdc611b2a565b6000938452602090815260409384902084516101208101865281546001600160a01b03908116825260018301548116938201939093526002820154909216948201949094526003840154606082015260048401546080820152600584015460a0820152600684015460c082015260079093015460ff808216151560e086015261010091829004161515908401525090919050565b6000610c7a611b84565b905060005b82518110156102f65760006001600160a01b0316838281518110610ca557610ca5618b7d565b6020026020010151602001516001600160a01b031603610d4457610d3f838281518110610cd457610cd4618b7d565b6020026020010151600001516040518060400160405280868581518110610cfd57610cfd618b7d565b6020026020010151604001518152602001868581518110610d2057610d20618b7d565b60200260200101516060015181525084611bc89092919063ffffffff16565b610de3565b610de3838281518110610d5957610d59618b7d565b602002602001015160000151848381518110610d7757610d77618b7d565b6020026020010151602001516040518060400160405280878681518110610da057610da0618b7d565b6020026020010151604001518152602001878681518110610dc357610dc3618b7d565b60200260200101516060015181525085611c10909392919063ffffffff16565b600101610c7f565b6000610dff82600001518360200151611c87565b81602001516001600160a01b0316610e15611360565b6001600160a01b031603610e3357610e2c82611e15565b9050610e78565b610e408260200151611399565b15610e4e57610e2c82611fcb565b602082015160405163f31dadd760e01b81526001600160a01b039091166004820152602401610639565b8160e00151158015610e8e575060008260800151115b15610f6357306001600160a01b031663da57c7f86040518163ffffffff1660e01b8152600401602060405180830381865afa158015610ed1573d6000803e3d6000fd5b505050506040513d601f19601f82011682018060405250810190610ef59190618965565b6001600160a01b031663078d3b798360400151846020015185608001516040518463ffffffff1660e01b8152600401610f3093929190618b93565b600060405180830381600087803b158015610f4a57600080fd5b505af1158015610f5e573d6000803e3d6000fd5b505050505b610f6c836121c7565b827f8a80f55ce3b49486350f9315527bfbcf32618bcc8ea340a87812793f0bd5848a8284604051610f9e929190618c2c565b60405180910390a292915050565b610fbc610fb7611b84565b61222e565b565b60005a8260400151610fd09190618c57565b90506000610fde3a83618c6a565b9050600080846020015183111561100757602085015192506110008380618c57565b905061101a565b8285602001516110179190618c57565b91505b845161103590611028612325565b5160208801513090612735565b50611044856060015184612745565b811561105857611058856080015183612745565b801561106757611067816127b7565b5050505050565b6080820151156111605761115e8260e001516110eb57306001600160a01b03166308ba026f6040518163ffffffff1660e01b8152600401602060405180830381865afa1580156110c2573d6000803e3d6000fd5b505050506040513d601f19601f820116820180604052508101906110e69190618965565b61114d565b306001600160a01b0316631f7592ea6040518163ffffffff1660e01b8152600401602060405180830381865afa158015611129573d6000803e3d6000fd5b505050506040513d601f19601f8201168201806040525081019061114d9190618965565b604084015184516080860151612735565b505b611169836121c7565b827f87a5dfa5d03ec783309e94762b09020fb3f521691da6822b0e474968d00c9069838360405161119b929190618c81565b60405180910390a2505050565b6040805160e081018252600080825260208201819052918101829052606081018290526080810182905260a0810182905260c08101829052906111e9612830565b60009384526020908152604093849020845160e08101865281546001600160a01b039081168252600183015481169382019390935260028201548316958101959095526003810154909116606085015260048101546080850152600581015460a08501526006015460c08401525090919050565b600081604001516001600160a01b0316611275611360565b6001600160a01b0316036112935761128c82612874565b90506112d8565b6112a08260400151611399565b156112ae5761128c8261296e565b604080830151905163f31dadd760e01b81526001600160a01b039091166004820152602401610639565b6112ea82600001518360400151611c87565b6112f3836129d1565b827fd9c7373d68a1c72286e9e5cd0396717b394acf0b2c9e94f947037d75189521bb828460405161119b929190618cf2565b61132e836129d1565b827fef75392635c285f9b4b5b8614b053edf576df9b0c14f2cec0877b9479e123b31838360405161119b929190618d07565b60008061136b612a2b565b546001600160a01b031692915050565b600080611386612a6f565b90506113928184612ab3565b9392505050565b6000806113a4612a2b565b90506113926002820184612ab3565b6000808260405160200161140a919060408082526017908201527f78797a2e656c66692e73746f726167652e4c70506f6f6c00000000000000000060608201526001600160a01b0391909116602082015260800190565b60408051601f1981840301815291905280516020909101209392505050565b600080309050600083606001516003811115611447576114476189ef565b1580611468575083606001516003811115611464576114646189ef565b6003145b156114d657816001600160a01b0316631f7592ea6040518163ffffffff1660e01b8152600401602060405180830381865afa1580156114ab573d6000803e3d6000fd5b505050506040513d601f19601f820116820180604052508101906114cf9190618965565b90506115b3565b836060015160038111156114ec576114ec6189ef565b60010361153157816001600160a01b03166397e7b7f26040518163ffffffff1660e01b8152600401602060405180830381865afa1580156114ab573d6000803e3d6000fd5b83606001516003811115611547576115476189ef565b6002036115b357816001600160a01b03166308ba026f6040518163ffffffff1660e01b8152600401602060405180830381865afa15801561158c573d6000803e3d6000fd5b505050506040513d601f19601f820116820180604052508101906115b09190618965565b90505b60208401516080850151156116a75760006115cc612325565b60000151905085602001516001600160a01b0316816001600160a01b0316146116375760405162461bcd60e51b815260206004820152601960248201527f4465706f736974207769746820746f6b656e206572726f7221000000000000006044820152606401610639565b806001600160a01b031663d0e30db087604001516040518263ffffffff1660e01b81526004016000604051808303818588803b15801561167657600080fd5b505af115801561168a573d6000803e3d6000fd5b50505050508091506116a182848860400151612ad5565b506116c4565b845160408601516116c4916001600160a01b038416918590612b19565b949350505050565b60008060006116d9612325565b90506116ed8460a001518260200151612b71565b8360e00151801561170657508360a00151846060015110155b1561172b578360a00151846060015161171f9190618c57565b600192509250506117ce565b8360a00151341461177e5760405162461bcd60e51b815260206004820152601e60248201527f6d696e74207769746820657865637574696f6e20666565206572726f722100006044820152606401610639565b6040805160a080820183526001600160a01b0380891683528451166020830152860151918101919091526117c2906060810160005b81526001602090910152611429565b50505050606081015160005b9250929050565b6000806118017f459475c12259fe72148865d9fe01f9668b683131314e14a2174d1735fa9be01a612b9f565b9050600061180e82612bff565b80546001600160a01b03199081166001600160a01b038a81169190911783558a516001840180548416918316919091179055600283018054909216908916179055608089015160058201556040808a015160038301556004820187905560a08a0151600683015560c08a015160078301805461ffff191691151561ff00191691909117610100881515021790555190915082907feb4ce043d789d36d4d520264b531b595d64659f7bd34b5804d6c5b7de8782ea9906118ce908490618d23565b60405180910390a25090505b95945050505050565b6001600160a01b038116610b8857604051639fabe1c160e01b815260040160405180910390fd5b6000611914612325565b9050611924828260400151612b71565b8134146119735760405162461bcd60e51b815260206004820181905260248201527f72656465656d207769746820657865637574696f6e20666565206572726f72216044820152606401610639565b6040805160a0810182526001600160a01b03808616825283511660208201529081018390526103a9906060810160006117b3565b6000806119d37f66e74d3d85bfddc0018272d955e86b6c8998e367fbe4932f2780e7f41f1e8518612b9f565b905060006119e082612c1b565b80546001600160a01b038088166001600160a01b0319928316178355885160018401805491831691841691909117905560208901516002840180549183169184169190911790556040808a0151600385018054919093169316929092179055600482018690556080880151600583015560a088015160068301555190915082907f5c3a7b87afa472ecf385ce68265aa6663da414919935249155b8d24ee878db0c90611adf90849081546001600160a01b039081168252600183015481166020830152600283015481166040830152600383015416606082015260048201546080820152600582015460a082015260069091015460c082015260e00190565b60405180910390a250949350505050565b600080611afb612c26565b6001600160a01b0385166000908152602082905260409020909150611b209084612c6a565b9150505b92915050565b600080604051602001611b66906020808252601590820152741e1e5e8b995b199a4b9cdd1bdc9859d94b935a5b9d605a1b604082015260600190565b60408051601f19818403018152919052805160209091012092915050565b600080604051602001611b66906020808252601c908201527f78797a2e656c66692e73746f726167652e4f7261636c65507269636500000000604082015260600190565b611bd28383612ab3565b611be257611be08383612c82565b505b6001600160a01b03909116600090815260029092016020908152604090922081518155910151600190910155565b60008383604051602001611c2592919061899f565b60408051601f1981840301815291905280516020909101209050611c4c6004860182612c6a565b611c5f57611c5d6004860182612c97565b505b6000908152600690940160209081526040909420815181559301516001909301929092555050565b6000611c9283612ca3565b6001600160a01b03831660009081526004820160205260408120919250611cb884612cb7565b9050611cc5816007015490565b826001015403611cd6575050505050565b6040516370a0823160e01b81526001600160a01b038681166004830152600091908616906370a0823190602401602060405180830381865afa158015611d20573d6000803e3d6000fd5b505050506040513d601f19601f82011682018060405250810190611d449190618ac1565b9050600081118015611d705750611d5a82612cf0565b60018401546007840154611d6e9190618c57565b115b15611df957611d7d611360565b6001600160a01b0316856001600160a01b031614611dbd57611db88360010154611da8846007015490565b611db29190618c57565b82612d3b565b611de0565b611de08360010154611dd0846007015490565b611dda9190618c57565b82612d50565b836000016000828254611df39190618da1565b90915550505b60078201546001840155611e0d8486612d5c565b505050505050565b6000611e24826040015161137b565b611e4d57816020015182604001516040516364f3d63f60e01b815260040161063992919061899f565b6000611e5c8360400151612dc9565b90506000611e9e611e708560400151612e2d565b60200151611e819060ff8516618c57565b611e8c90600a618e98565b611e946131aa565b604001519061350a565b90508084606001511015611ed557606084015160405163044c152560e11b8152610639918391600401918252602082015260400190565b836060015184608001511015611f0b57611f0b8460000151856040015186608001518760600151611f069190618c57565b613516565b6000611f268560600151611f1d6135a3565b60200151613924565b9050611f6781866020015187604001518860000151604051602001611f4a90618ea4565b604051602081830303815290604052805190602001206000613930565b6000818660600151611f799190618c57565b90506000611f85612a6f565b9050611f92878284613bd3565b95506000611fa38860000151613d95565b9050611faf8188613df7565b6040880151611fc090839085613e13565b505050505050919050565b6000816080015182606001511115611ffe57611ffe8260000151836040015184608001518560600151611f069190618c57565b600061200d8360000151613d95565b9050600061201e84602001516113b3565b905061202981613eeb565b60006120388560200151613f16565b90506120786040518060a0016040528060006001600160a01b0316815260200160008152602001600060ff16815260200160008152602001600081525090565b60408601516001600160a01b039081168083526002850154909116146120bd57856020015186604001516040516364f3d63f60e01b815260040161063992919061899f565b80516120c890612dc9565b60ff16604082015280516000906120f8906120e290612e2d565b60200151836040015160ff16611e819190618c57565b9050808760600151101561212f57606087015160405163044c152560e11b8152610639918391600401918252602082015260400190565b61214187606001518460400151613924565b6020808401829052888101516040808b01518b5191516121699594919291611f4a9101618ea4565b8160200151876060015161217d9190618c57565b60608301819052612191908890869061429f565b6080830181905260208801516121a991879190614365565b60608201516121b99085906143ed565b506080015195945050505050565b60006121d1611b2a565b6000928352602052506040812080546001600160a01b031990811682556001820180548216905560028201805490911690556003810182905560048101829055600581018290556006810191909155600701805461ffff19169055565b6000612239826143f9565b905060005b81518110156102f65782600201600083838151811061225f5761225f618b7d565b60200260200101516001600160a01b03166001600160a01b03168152602001908152602001600020600080820160009055600182016000905550508260030160008383815181106122b2576122b2618b7d565b60200260200101516001600160a01b03166001600160a01b031681526020019081526020016000206000808201600090556001820160009055505061231c82828151811061230257612302618b7d565b60200260200101518460000161440690919063ffffffff16565b5060010161223e565b61237d60405180610120016040528060006001600160a01b0316815260200160008152602001600081526020016000815260200160008152602001600081526020016000815260200160008152602001600081525090565b6000806040516020016123b0906020808252600c908201526b434841494e5f434f4e46494760a01b604082015260600190565b604051602081830303815290604052805190602001209050612452816040516020016123fd906020808252600d908201526c2ba920a82822a92faa27a5a2a760991b604082015260600190565b6040516020818303038152906040528051906020012060405160200161242d929190918252602082015260400190565b604051602081830303815290604052805190602001208361441b90919063ffffffff16565b6001600160a01b031683526040516124ee908290612499906020016020808252601290820152711352539517d1d054d7d1915157d31253525560721b604082015260600190565b604051602081830303815290604052805190602001206040516020016124c9929190918252602082015260400190565b604051602081830303815290604052805190602001208361443a90919063ffffffff16565b836020018181525050612533816040516020016124999060208082526014908201527314915111515357d1d054d7d1915157d31253525560621b604082015260600190565b83604001818152505061258c816040516020016124999060208082526022908201527f504c4143455f494e4352454153455f4f524445525f4741535f4645455f4c494d604082015261125560f21b606082015260800190565b60608401526040516125e39082906124999060200160208082526022908201527f504c4143455f44454352454153455f4f524445525f4741535f4645455f4c494d604082015261125560f21b606082015260800190565b608084015260405161263c9082906124999060200160208082526024908201527f504f534954494f4e5f5550444154455f4d415247494e5f4741535f4645455f4c6040820152631253525560e21b606082015260800190565b60a08401526040516126979082906124999060200160208082526026908201527f504f534954494f4e5f5550444154455f4c455645524147455f4741535f46454560408201526517d31253525560d21b606082015260800190565b60c08401526040516126dc9082906124999060200160208082526016908201527515d2551211149055d7d1d054d7d1915157d31253525560521b604082015260600190565b60e0840152604051612728908290612499906020016020808252601b908201527f434c41494d5f524557415244535f4741535f4645455f4c494d49540000000000604082015260600190565b6101008401525090919050565b60006118da85858585600061444d565b600061274f612325565b51604051632e1a7d4d60e01b8152600481018490529091506001600160a01b03821690632e1a7d4d90602401600060405180830381600087803b15801561279557600080fd5b505af11580156127a9573d6000803e3d6000fd5b505050506102f6838361458f565b60006127c1612a2b565b9050818160070160008282546127d79190618da1565b909155505060078101547f5425704060c90c62f0083d9ff73df530b982ea5c64c0dab3c7d5da4761a451199061280e908490618c57565b6007830154604080519283526020830191909152015b60405180910390a15050565b600080604051602001611b669060208082526017908201527f78797a2e656c66692e73746f726167652e52656465656d000000000000000000604082015260600190565b604081810151825191516370a0823160e01b81526001600160a01b0380841660048301526000939184918416906370a0823190602401602060405180830381865afa1580156128c7573d6000803e3d6000fd5b505050506040513d601f19601f820116820180604052508101906128eb9190618ac1565b9050846080015181101561291657818360405163f8b251f760e01b815260040161063992919061899f565b6000612920612a6f565b905061292d818588614632565b9450600061293a84612ca3565b905061295387608001518261487090919063ffffffff16565b6060870151612964908390886148d4565b5050505050919050565b60008061297e83604001516113b3565b606084015160028201549192506001600160a01b039182169116146129c2578260400151836060015160405163fdeabc1960e01b815260040161063992919061899f565b6113928184856060015161498a565b60006129db612830565b6000928352602052506040812080546001600160a01b0319908116825560018201805482169055600282018054821690556003820180549091169055600481018290556005810182905560060155565b600080604051602001611b66906020808252601b908201527f78797a2e656c66692e73746f726167652e436f6d6d6f6e446174610000000000604082015260600190565b600080604051602001611b669060208082526018908201527f78797a2e656c66692e73746f726167652e557364506f6f6c0000000000000000604082015260600190565b6001600160a01b03811660009081526001830160205260408120541515611392565b80600003612ae257505050565b6000612af384848462030d40614c22565b9050806103a95783838360405163012f3b8f60e71b815260040161063993929190618b93565b6103a9846323b872dd60e01b858585604051602401612b3a93929190618b93565b60408051601f198184030181529190526020810180516001600160e01b03166001600160e01b031990931692909217909152614d1c565b612b7b3a82618c6a565b821015612b9b576040516369343e3760e11b815260040160405180910390fd5b5050565b600080612baa614df1565b600084815260208290526040902054909150610457811015612bda57612bd36104576001618da1565b9050612be8565b80612be481618ec6565b9150505b600093845260209190915260409092208290555090565b600080612c0a611b2a565b600093845260205250506040902090565b600080612c0a612830565b600080604051602001611b66906020808252601e908201527f78797a2e656c66692e73746f726167652e416363657373436f6e74726f6c0000604082015260600190565b60008181526001830160205260408120541515611392565b6000611392836001600160a01b038416614e35565b60006113928383614e35565b6000808260405160200161140a9190618edf565b6001600160a01b031660009081527fb31b5831e77ebf4a20e050d886d24b00d24f44760e3342d08fb455df41d4aaf96020526040902090565b6000805b6008830154811015612d3557826008018181548110612d1557612d15618b7d565b906000526020600020015482612d2b9190618da1565b9150600101612cf4565b50919050565b60006113928383670de0b6b3a7640000614e84565b6000611392838361350a565b81546001600160a01b038281166000818152600486016020908152604091829020805460019091015483519590961685529084019290925282015260608101919091527f6c91b1f647ea3a524740e83eb44a468110c48521ee1961bb3bf2f0872a04dd6c90608001612824565b6000816001600160a01b031663313ce5676040518163ffffffff1660e01b8152600401602060405180830381865afa158015612e09573d6000803e3d6000fd5b505050506040513d601f19601f82011682018060405250810190611b249190618f27565b612e356185e6565b612e3d6185e6565b600080604051602001612e769060208082526012908201527154524144455f544f4b454e5f434f4e46494760701b604082015260600190565b60408051601f1981840301815291905280516020909101209050612e9b828287614f6e565b612ea85750909392505050565b612f4d8186604051602001612ee6906020808252601590820152741254d7d4d5541413d49517d0d3d313105511549053605a1b604082015260600190565b60405160208183030381529060405280519060200120604051602001612f28939291909283526001600160a01b03919091166020830152604082015260600190565b6040516020818303038152906040528051906020012083614f8890919063ffffffff16565b15158352604051612fc89082908790612f8690602001602080825260099082015268282922a1a4a9a4a7a760b91b604082015260600190565b604051602081830303815290604052805190602001206040516020016124c9939291909283526001600160a01b03919091166020830152604082015260600190565b8360200181815250506130028186604051602001612f8690602080825260089082015267111254d0d3d5539560c21b604082015260600190565b8360400181815250506130478186604051602001612f86906020808252601390820152720434f4c4c41544552414c5f555345525f43415606c1b604082015260600190565b606084015260405161308c9082908790612f86906020016020808252601490820152730434f4c4c41544552414c5f544f54414c5f4341560641b604082015260600190565b60808401526040516130cf9082908790612f869060200160208082526012908201527104c494142494c4954595f555345525f4341560741b604082015260600190565b60a08401526040516131139082908790612f869060200160208082526013908201527204c494142494c4954595f544f54414c5f43415606c1b604082015260600190565b60c08401526040516131589082908790612f869060200160208082526014908201527324a72a22a922a9aa2fa920aa22afa320a1aa27a960611b604082015260600190565b60e084015260405161319b9082908790612f86906020016020808252601290820152712624a8aaa4a220aa24a7a72fa320a1aa27a960711b604082015260600190565b61010084015250909392505050565b613200604051806101400160405280600081526020016000815260200160008152602001600081526020016000815260200160008152602001600081526020016000815260200160008152602001600081525090565b600080604051602001613233906020808252600c908201526b5354414b455f434f4e46494760a01b604082015260600190565b604051602081830303815290604052805190602001209050613290816040516020016124999060208082526019908201527f434f4c4c41544552414c5f50524f544543545f464143544f5200000000000000604082015260600190565b83526040516132cd9082906124999060200160208082526011908201527021a7a62620aa22a920a62fa320a1aa27a960791b604082015260600190565b83602001818152505061331481604051602001612499906020808252601690820152754d494e5f505245434953494f4e5f4d554c5449504c4560501b604082015260600190565b83604001818152505061336281604051602001612499906020808252601e908201527f4d494e545f4645455f5354414b494e475f524557415244535f524154494f0000604082015260600190565b60608401526040516133ae908290612499906020016020808252601b908201527f4d494e545f4645455f504f4f4c5f524557415244535f524154494f0000000000604082015260600190565b60808401526040516133f8908290612499906020016020808252818101527f52454445454d5f4645455f5354414b494e475f524557415244535f524154494f604082015260600190565b60a0840152604051613444908290612499906020016020808252601d908201527f52454445454d5f4645455f504f4f4c5f524557415244535f524154494f000000604082015260600190565b60c0840152604051613490908290612499906020016020808252601b908201527f504f4f4c5f524557415244535f494e54455256414c5f4c494d49540000000000604082015260600190565b60e08401526040516134c69082906124999060200160208082526007908201526626a4a72fa0a82960c91b604082015260600190565b6101008401526040516134fd9082906124999060200160208082526007908201526626a0ac2fa0a82960c91b604082015260600190565b6101208401525090919050565b60006113928284618c6a565b600061352184614fa1565b6001600160a01b03841660009081526004820160205260409020549091508211156135635783836040516338d5f1dd60e01b815260040161063992919061899f565b613570818484600b614ff8565b600061357b82615176565b905060008112156110675784846040516338d5f1dd60e01b815260040161063992919061899f565b6135dc6040518060c001604052806000815260200160008152602001600081526020016000815260200160608152602001606081525090565b600080604051602001613612906020808252600f908201526e5553445f504f4f4c5f434f4e46494760881b604082015260600190565b60405160208183030381529060405280519060200120905061366681604051602001612499906020808252601490820152731413d3d317d3125455525112551657d31253525560621b604082015260600190565b835260405161369f908290612499906020016020808252600d908201526c4d494e545f4645455f5241544560981b604082015260600190565b8360200181815250506136df81604051602001612499906020808252600f908201526e52454445454d5f4645455f5241544560881b604082015260600190565b8360400181815250506137258160405160200161249990602080825260159082015274155394d1551513115117d490551253d7d312535255605a1b604082015260600190565b60608401526040516137be90829061376990602001602080825260159082015274535550504f52545f535441424c455f544f4b454e5360581b604082015260600190565b60405160208183030381529060405280519060200120604051602001613799929190918252602082015260400190565b604051602081830303815290604052805190602001208361518490919063ffffffff16565b608084018190525167ffffffffffffffff8111156137de576137de6188ac565b604051908082528060200260200182016040528015613807578160200160208202803683370190505b5060a084015260005b83608001515181101561391e576138f5828560800151838151811061383757613837618b7d565b602002602001015160405160200161388e9060208082526025908201527f535441424c455f544f4b454e535f424f52524f57494e475f494e5445524553546040820152645f5241544560d81b606082015260800190565b604051602081830303815290604052805190602001206040516020016138d0939291909283526001600160a01b03919091166020830152604082015260600190565b604051602081830303815290604052805190602001208461443a90919063ffffffff16565b8460a00151828151811061390b5761390b618b7d565b6020908102919091010152600101613810565b50505090565b600061139283836151f3565b6139796040518060e0016040528060008152602001600081526020016000815260200160008152602001600081526020016000815260200160006001600160a01b031681525090565b60006139836131aa565b905060405160200161399490618ea4565b6040516020818303038152906040528051906020012084036139c6576060810151825260808101516020830152613a03565b6040516020016139d590618f4a565b604051602081830303815290604052805190602001208403613a035760a0810151825260c081015160208301525b613a118883600001516151f3565b60408301526020820151613a269089906151f3565b608083018190526040830151613a489190613a42908b90615203565b90615203565b60a08301527fb31b5831e77ebf4a20e050d886d24b00d24f44760e3342d08fb455df41d4aafa6000613a7989612cb7565b90507fb31b5831e77ebf4a20e050d886d24b00d24f44760e3342d08fb455df41d4ab018515613ae1576040850151613ab69084908c908c9061520f565b6080850151613ac89083908b90615274565b60a0850151613adc9082908c908c9061520f565b613b1b565b6040850151613af59084908c908c906152db565b6080850151613b079083908b9061533a565b60a0850151613b1b9082908c908c906152db565b6040805160a0810182526001600160a01b03808d1682528b811660208301528a168183015260608101899052608081018d905290517f9a37589f1078970477df9d898a565f6f1c38acef28e97a1302cfa722e41ad94290613bbd90839081516001600160a01b03908116825260208084015182169083015260408084015190911690820152606080830151908201526080918201519181019190915260a00190565b60405180910390a1505050505050505050505050565b600080846040015190506000613bec866020015161539b565b90506000613bf983612dc9565b90506000613c0a8860200151612dc9565b90506000613c17886153ff565b9050600084158015613c27575081155b15613c3e57613c3788858561540d565b9050613cd9565b84158015613c4c5750600082115b15613c87576000613c688386613c638a600161542e565b615453565b613c72908a618da1565b9050613c7f81868661540d565b915050613cd9565b81600003613ca8576040516338aa994560e11b815260040160405180910390fd5b6000613cbf8986613cba8a600161542e565b615473565b9050613cd583613ccf888461350a565b9061549c565b9150505b60008a60a00151118015613cf057508960a0015181105b15613d1e5760a08a015160405163044c152560e11b8152600481019190915260248101829052604401610639565b60208a01518a516040516340c10f1960e01b81526001600160a01b039182166004820152602481018490529116906340c10f1990604401600060405180830381600087803b158015613d6f57600080fd5b505af1158015613d83573d6000803e3d6000fd5b50929c9b505050505050505050505050565b60008082604051602001613da99190618edf565b60408051601f19818403018152919052805160209091012080549092508291506001600160a01b0316612d355781546001600160a01b0384166001600160a01b031990911617825550919050565b808260050154613e079190618da1565b82600501819055505050565b613e1d8383612ab3565b613e695760405162461bcd60e51b815260206004820152601b60248201527f737461626c6520746f6b656e206e6f7420737570706f727465642100000000006044820152606401610639565b6001600160a01b03821660009081526002840160205260408120613e8e9084906154a8565b6001600160a01b0384166000908152600286016020526040812080549293508492909190613ebd908490618da1565b90915550506001600160a01b038316600090815260028501602052604090205460808201526103a98161554b565b60028101546001600160a01b0316610b88576040516302ea63c760e21b815260040160405180910390fd5b613f1e618634565b613f26618634565b600080604051602001613f5b906020808252600e908201526d4c505f504f4f4c5f434f4e46494760901b604082015260600190565b60408051601f1981840301815291905280516020909101209050613f80828287614f6e565b613f8d5750909392505050565b613fc88186604051602001612f8690602080825260129082015271424153455f494e5445524553545f5241544560701b604082015260600190565b835260405161400a9082908790612f86906020016020808252601490820152731413d3d317d3125455525112551657d31253525560621b604082015260600190565b8360200181815250506140498186604051602001612f86906020808252600d908201526c4d494e545f4645455f5241544560981b604082015260600190565b83604001818152505061408a8186604051602001612f86906020808252600f908201526e52454445454d5f4645455f5241544560881b604082015260600190565b60608401526040516140cf9082908790612f86906020016020808252601490820152731413d3d317d4139317d490551253d7d31253525560621b604082015260600190565b608084015260405161411b9082908790612f86906020016020808252818101527f554e534554544c45445f424153455f544f4b454e5f524154494f5f4c494d4954604082015260600190565b60a08401526040516141749082908790612f869060200160208082526022908201527f554e534554544c45445f535441424c455f544f4b454e5f524154494f5f4c494d604082015261125560f21b606082015260800190565b60c08401526040516141c29082908790612f86906020016020808252601d908201527f504f4f4c5f535441424c455f544f4b454e5f524154494f5f4c494d4954000000604082015260600190565b60e08401526040516142109082908790612f86906020016020808252601c908201527f504f4f4c5f535441424c455f544f4b454e5f4c4f53535f4c494d495400000000604082015260600190565b610100840152604051614290908290879061424e906020016020808252600c908201526b41535345545f544f4b454e5360a01b604082015260600190565b60405160208183030381529060405280519060200120604051602001613799939291909283526001600160a01b03919091166020830152604082015260600190565b61012084015250909392505050565b6000806142ac84846155da565b905060008560a001511180156142c557508460a0015181105b156142f35760a085015160405163044c152560e11b8152600481019190915260248101829052604401610639565b602085015185516040516340c10f1960e01b81526001600160a01b039182166004820152602481018490529116906340c10f1990604401600060405180830381600087803b15801561434457600080fd5b505af1158015614358573d6000803e3d6000fd5b5092979650505050505050565b6143726001840183612ab3565b156143bd576001600160a01b038216600090815260038401602052604090205461439d908290618da1565b6001600160a01b0383166000908152600385016020526040902055505050565b6143ca6001840183612c82565b506001600160a01b03821660009081526003840160205260409020819055505050565b612b9b828260016156e1565b606060006113928361575d565b6000611392836001600160a01b0384166157b9565b600090815260029190910160205260409020546001600160a01b031690565b6000908152602091909152604090205490565b60008260000361445f575060006118da565b6040516370a0823160e01b81526001600160a01b038781166004830152600091908716906370a0823190602401602060405180830381865afa1580156144a9573d6000803e3d6000fd5b505050506040513d601f19601f820116820180604052508101906144cd9190618ac1565b90508381106145425760405163078d3b7960e01b81526001600160a01b0388169063078d3b799061450690899089908990600401618b93565b600060405180830381600087803b15801561452057600080fd5b505af1158015614534573d6000803e3d6000fd5b5050505060019150506118da565b8261458257604051635ac09ed760e11b81526001600160a01b03808916600483015280881660248301528616604482015260648101859052608401610639565b5060009695505050505050565b604080516000808252602082019092526001600160a01b0384169083906040516145b99190618f92565b60006040518083038185875af1925050503d80600081146145f6576040519150601f19603f3d011682016040523d82523d6000602084013e6145fb565b606091505b50509050806102f65760405162461bcd60e51b815260206004820152600360248201526253544560e81b6044820152606401610639565b805160009081614641866153ff565b9050600061464e8661539b565b905081158061465b575080155b1561468057606085015160405163f8b251f760e01b815261063991859160040161899f565b600061468f8660600151612dc9565b905060006146ae83613ccf868a6080015161350a90919063ffffffff16565b905060006146c68284613c638b60600151600061542e565b905060008860a001511180156146df57508760a0015181105b156147005760405163020876bb60e51b815260048101829052602401610639565b8061471889606001518c6158b390919063ffffffff16565b1015614740578751606089015160405163f8b251f760e01b815261063992919060040161899f565b60006147578261474e6135a3565b60400151613924565b905061477b818a604001518b606001518c60000151604051602001611f4a90618f4a565b6040808a015160808b01519151632770a7eb60e21b81526001600160a01b038a811660048301526024820193909352911690639dc29fac90604401600060405180830381600087803b1580156147d057600080fd5b505af11580156147e4573d6000803e3d6000fd5b5050505088604001516001600160a01b031663078d3b798a606001518b6020015184866148119190618c57565b6040518463ffffffff1660e01b815260040161482f93929190618b93565b600060405180830381600087803b15801561484957600080fd5b505af115801561485d573d6000803e3d6000fd5b50939d9c50505050505050505050505050565b80826005015410156148c45760405162461bcd60e51b815260206004820152601b60248201527f75736420746f6b656e20616d6f756e74206e6f7420656e6f75676800000000006044820152606401610639565b808260050154613e079190618c57565b6148df83838361593d565b6149365760405162461bcd60e51b815260206004820152602260248201527f737562206661696c656420776974682062616c616e6365206e6f7420656e6f756044820152610ced60f31b6064820152608401610639565b6001600160a01b0382166000908152600284016020526040812061495b9084906154a8565b6001600160a01b0384166000908152600286016020526040812080549293508492909190613ebd908490618c57565b60006149c86040518060c001604052806000815260200160008152602001600060ff1681526020016000815260200160008152602001600081525090565b6149d1856159b7565b815284546149e7906001600160a01b031661539b565b60208201526149f583612dc9565b60ff16604082015280511580614a0d57506020810151155b15614a3057835160405163f8b251f760e01b81526106399190859060040161899f565b602081015181516080860151614a4b9291613ccf919061350a565b606082018190526040820151614a679190613c6386600061542e565b60808201819052614a77866159e5565b1015614a9f578351606085015160405163f8b251f760e01b815261063992919060040161899f565b60008460a00151118015614aba57508360a001518160800151105b15614ae057806080015160405163020876bb60e51b815260040161063991815260200190565b6000614aef8560000151612ca3565b8654909150600090614b09906001600160a01b0316613f16565b90506000614b1f84608001518360600151613924565b9050614b4381886040015189606001518a60000151604051602001611f4a90618f4a565b614b6e8760400151886060015189602001518760a001518860800151614b699190618c57565b612735565b5060028801546080850151614b90918a916001600160a01b03909116906159f3565b604087810151885160808a01519251632770a7eb60e21b81526001600160a01b03918216600482015260248101939093521690639dc29fac90604401600060405180830381600087803b158015614be657600080fd5b505af1158015614bfa573d6000803e3d6000fd5b5050505060408701516080880151614c13918591615a63565b50505060800151949350505050565b604080516001600160a01b038581166024830152604480830186905283518084039091018152606490920183526020820180516001600160e01b031663a9059cbb60e01b1790529151600092839182918916908690614c82908690618f92565b60006040518083038160008787f1925050503d8060008114614cc0576040519150601f19603f3d011682016040523d82523d6000602084013e614cc5565b606091505b509150915081614cdb57600093505050506116c4565b60008151118015614cfd575080806020019051810190614cfb9190618fae565b155b15614d0e57600093505050506116c4565b506001979650505050505050565b6000614d71826040518060400160405280602081526020017f5361666545524332303a206c6f772d6c6576656c2063616c6c206661696c6564815250856001600160a01b0316615b149092919063ffffffff16565b9050805160001480614d92575080806020019051810190614d929190618fae565b6102f65760405162461bcd60e51b815260206004820152602a60248201527f5361666545524332303a204552433230206f7065726174696f6e20646964206e6044820152691bdd081cdd58d8d9595960b21b6064820152608401610639565b600080604051602001611b66906020808252601c908201527f78797a2e656c66692e73746f726167652e5575696443726561746f7200000000604082015260600190565b6000818152600183016020526040812054614e7c57508154600181810184556000848152602080822090930184905584548482528286019093526040902091909155611b24565b506000611b24565b6000808060001985870985870292508281108382030391505080600003614ebe57838281614eb457614eb4618fcb565b0492505050611392565b808411614f055760405162461bcd60e51b81526020600482015260156024820152744d6174683a206d756c446976206f766572666c6f7760581b6044820152606401610639565b60008486880960026001871981018816978890046003810283188082028403028082028403028082028403028082028403028082028403029081029092039091026000889003889004909101858311909403939093029303949094049190911702949350505050565b6000828152600c8401602052604081206116c49083612ab3565b6000908152600391909101602052604090205460ff1690565b6000808260405160200161140a919060408082526018908201527f78797a2e656c66692e73746f726167652e4163636f756e74000000000000000060608201526001600160a01b0391909116602082015260800190565b6150056002850184612ab3565b6150455760405162461bcd60e51b8152602060048201526011602482015270746f6b656e206e6f74206578697374732160781b6044820152606401610639565b6001600160a01b03831660009081526004850160205260409020548211156150af5760405162461bcd60e51b815260206004820152601860248201527f746f6b656e20616d6f756e74206e6f7420656e6f7567682100000000000000006044820152606401610639565b6001600160a01b0383166000818152600486016020818152604080842081516080810183528154808252600183015482860152600283015493820193909352600382015460608201529585529290915285929061510d908490618c57565b909155505084546001600160a01b0385811660009081526004880160205260409081902090517f1d59acd5f3bb87326c498fe747e339bda33b5370b6f8df63a48f232d73efb7489361516793169188918691908890619003565b60405180910390a15050505050565b600060606113928382615b23565b60008181526008830160209081526040918290208054835181840281018401909452808452606093928301828280156151e657602002820191906000526020600020905b81546001600160a01b031681526001909101906020018083116151c8575b5050505050905092915050565b60006113928383620186a0614e84565b60006113928284618c57565b61521c6004850183612ab3565b61522f5761522d6004850183612c82565b505b600061523b8484615bd1565b600081815260068701602052604090205490915061525a908390618da1565b600091825260069095016020526040902093909355505050565b6152816004840183612ab3565b615294576152926004840183612c82565b505b6001600160a01b03821660009081526006840160205260409020546152ba908290618da1565b6001600160a01b039092166000908152600690930160205250604090912055565b6152e58483612ab3565b6152f5576152f38483612c82565b505b60006153018484615bd1565b6000818152600287016020526040902054909150615320908390618da1565b600091825260029095016020526040902093909355505050565b6153448383612ab3565b615354576153528383612c82565b505b6001600160a01b038216600090815260028401602052604090205461537a908290618da1565b6001600160a01b039092166000908152600290930160205250604090912055565b6000816001600160a01b03166318160ddd6040518163ffffffff1660e01b8152600401602060405180830381865afa1580156153db573d6000803e3d6000fd5b505050506040513d601f19601f82011682018060405250810190611b249190618ac1565b600060606113928382615c5e565b60006116c48461541e84600a61907b565b61542986600a61907b565b614e84565b60008061543a84615c8e565b90508261544b578060200151611b20565b519392505050565b60006116c48461546485600a61907b565b615429856402540be40061350a565b60006116c461548384600a61907b565b613ccf6402540be400615496888761350a565b9061350a565b6000611392828461908a565b6154f960405180610100016040528060006001600160a01b03168152602001600081526020016000815260200160008152602001600081526020016000815260200160008152602001600081525090565b6001600160a01b0383168152815460208201819052600183015460408301819052600284015460608401819052608084019290925260a083015260c0820152615540615d21565b60e082015292915050565b805160208083015160408085015160608087015160808089015160a0808b015160c0808d015160e0808f01518b516001600160a01b03909f168f529c8e019b909b52988c0197909752948a0193909352908801528601528401528201527f217ba1d63771ad2228865ab2d862a89115d536eabbe8315c584eafe090d7f42290610100015b60405180910390a150565b815460009081906155f3906001600160a01b031661539b565b6002850154909150600090615610906001600160a01b0316612dc9565b9050600061561d866159b7565b905060008315801561562d575081155b156156395750846156d7565b831580156156475750600082115b1561567e57600287015461566d9083908590613c63906001600160a01b0316600161542e565b6156779087618da1565b90506156d7565b8160000361569f576040516338aa994560e11b815260040160405180910390fd5b60028701546000906156c39088908690613cba906001600160a01b0316600161542e565b90506156d383613ccf878461350a565b9150505b9695505050505050565b801561573c578254600284015460009161570b916001600160a01b03918216911660048701615da7565b9050828460040160000160008282546157249190618da1565b9091555050600484015460e08201526103a981615ea9565b818360040160000160008282546157539190618da1565b9091555050505050565b6060816000018054806020026020016040519081016040528092919081815260200182805480156157ad57602002820191906000526020600020905b815481526020019060010190808311615799575b50505050509050919050565b600081815260018301602052604081205480156158a25760006157dd600183618c57565b85549091506000906157f190600190618c57565b905081811461585657600086600001828154811061581157615811618b7d565b906000526020600020015490508087600001848154811061583457615834618b7d565b6000918252602080832090910192909255918252600188019052604090208390555b85548690806158675761586761909e565b600190038181906000526020600020016000905590558560010160008681526020019081526020016000206000905560019350505050611b24565b6000915050611b24565b5092915050565b6001600160a01b03811660009081526002830160205260408120816158d6615f8f565b9050806000036158fa57600182015482546158f19190618c57565b92505050611b24565b600061590a836001015483615f9f565b90508083600001541161591e57600061592b565b825461592b908290618c57565b9350505050611b24565b505092915050565b6001600160a01b03821660009081526002840160205260408120805483111561596a576000915050611392565b6000615974615f8f565b90508060000361599b5760018201548254859161599091618c57565b101592505050611392565b60018201548254615990906159b1908790618c57565b836151f3565b6000806159c383615faf565b905060008113156159dc576159d781615fbd565b611392565b60009392505050565b600060606113928382616013565b6159fe838383616244565b615a2957825460405163c5fa5f3d60e01b8152610639916001600160a01b031690849060040161899f565b60028301546001600160a01b03808416911603615a4f57615a4a838261633c565b615a5a565b615a5a838383616348565b6102f683616446565b6001600160a01b0382166000908152600384016020526040902054811115615acd5760405162461bcd60e51b815260206004820152601760248201527f746f6b656e20616d6f756e74206e6f7420656e6f7567680000000000000000006044820152606401610639565b6001600160a01b0382166000908152600384016020526040902054615af3908290618c57565b6001600160a01b039092166000908152600390930160205250604090912055565b60606116c48484600085616470565b600080615b308484616540565b9050600080615b3f868661663f565b915091506000615b4f8787616772565b9050615b69828260400151615b649190618da1565b616940565b815160001315615b7a578151615b7d565b60005b615b8685616940565b615ba88a60010154856020015189615b9e9190618da1565b615b649190618da1565b615bb291906190b4565b615bbc91906190d4565b615bc691906190b4565b979650505050505050565b6000604051602001615c089060208082526011908201527008c8a8abe829a9eaa9ca8bea0a48a8c92b607b1b604082015260600190565b60408051601f198184030181528282528051602091820120908301526001600160a01b03808616918301919091528316606082015260800160405160208183030381529060405280519060200120905092915050565b600080615c6b84846169aa565b90506000811315615c8457615c7f81615fbd565b611b20565b5060009392505050565b60408051808201909152600080825260208201526000615cac611b84565b604080518082018252600080825260209182018190526001600160a01b03871681526002840182528290208251808401909352805480845260019091015491830191909152919250901580615d0357506020810151155b156113925760405163907adecd60e01b815260040160405180910390fd5b600061a4b1461480615d35575062066eee46145b15615da25760646001600160a01b031663a3b1b31d6040518163ffffffff1660e01b8152600401602060405180830381865afa158015615d79573d6000803e3d6000fd5b505050506040513d601f19601f82011682018060405250810190615d9d9190618ac1565b905090565b504390565b615e24604051806101a0016040528060006001600160a01b0316815260200160006001600160a01b0316815260200160008152602001600081526020016000815260200160008152602001600081526020016000815260200160008152602001600081526020016000815260200160008152602001600081525090565b6001600160a01b03808516825283166020820152815460408201819052600183015460608301819052600284015460808401819052600385015460a08501819052600486015460c0860181905260e0860194909452610100850192909252610120840152610140830152610160820152615e9c615d21565b6101808201529392505050565b7f3c20d1ba6bcc5e5bd62d967908bf1ce684e6b52dbaab9f84ebfbf1b184b46bf8816000015182602001518360400151846060015185608001518660a001518760c001518860e001518961010001518a61012001518b61014001518c61016001518d61018001516040516155cf9d9c9b9a999897969594939291906001600160a01b039d8e1681529b909c1660208c015260408b019990995260608a0197909752608089019590955260a088019390935260c087019190915260e08601526101008501526101208401526101408301526101608201526101808101919091526101a00190565b6000615f99616a9b565b51919050565b600061139283620186a084614e84565b600060606113928382616adc565b60008082121561600f5760405162461bcd60e51b815260206004820181905260248201527f53616665436173743a2076616c7565206d75737420626520706f7369746976656044820152606401610639565b5090565b60078201546004830154600091829161602b90616940565b61603591906190d4565b9050600081121561604a576000915050611b24565b600061605585616cc8565b8051909150156161ec576002850154600090616079906001600160a01b0316612dc9565b600287015490915060009061609a9087906001600160a01b03166001616cd6565b905060005b83518110156161e857600088600e0160008684815181106160c2576160c2618b7d565b60200260200101516001600160a01b03166001600160a01b0316815260200190815260200160002090506000816004015411801561612457506161088160040154616940565b6003820154825461611890616940565b61612291906190d4565b125b156161df5760006161ad82600301546161408460000154616940565b61614d8560040154616940565b61615791906190b4565b61616191906190b4565b61618388868151811061617657616176618b7d565b6020026020010151612dc9565b6161a88c8a888151811061619957616199618b7d565b60200260200101516001616cd6565b616d7b565b905060006161bc828787616db5565b9050808813156161d7576161d081896190b4565b97506161dc565b600097505b50505b5060010161609f565b5050505b6000616203836161fe615b6489616dea565b616e0b565b90506162158660040160020154616940565b81136162225760006156d7565b6156d76162358760040160020154616940565b61623f90836190b4565b615fbd565b600283015460009081906001600160a01b0385811691161461627f576001600160a01b0384166000908152600e860160205260409020616284565b846004015b9050828160000154101561629c576000915050611392565b60006162a786616dea565b9050806000036162f6576162ba84616940565b6162c78360020154616940565b600384015484546162d790616940565b6162e191906190d4565b6162eb91906190b4565b121592505050611392565b6163038260020154616940565b6162eb836003015461631487616940565b855461631f90616940565b61632991906190b4565b61633391906190d4565b6161fe84616940565b612b9b82826001616e26565b82546001600160a01b038381166000908152600e86016020526040812090926163749216908590615da7565b6001600160a01b0384166000908152600e860160205260408120805492935084929091906163a3908490618c57565b90915550506001600160a01b0383166000818152600e86016020818152604083205460e08601819052938352520361643d576163e2600c850184614406565b506001600160a01b0383166000908152600e850160205260408120818155600181018290556002810182905560038101829055600481018290559060058201818181818181816164328282618687565b505050505050505050505b6103a981615ea9565b600061645182615faf565b1215610b885760405163abe7824160e01b815260040160405180910390fd5b6060824710156164d15760405162461bcd60e51b815260206004820152602660248201527f416464726573733a20696e73756666696369656e742062616c616e636520666f6044820152651c8818d85b1b60d21b6064820152608401610639565b600080866001600160a01b031685876040516164ed9190618f92565b60006040518083038185875af1925050503d806000811461652a576040519150601f19603f3d011682016040523d82523d6000602084013e61652f565b606091505b5091509150615bc687838387616ee4565b600080600061654e85616f5d565b905060005b81518110156166355761657e82828151811061657157616571618b7d565b6020026020010151612e2d565b511561662d57600086600401600084848151811061659e5761659e618b7d565b60200260200101516001600160a01b03166001600160a01b03168152602001908152602001600020604051806080016040529081600082015481526020016001820154815260200160028201548152602001600382015481525050905061662961662284848151811061661357616613618b7d565b60200260200101518389616f6b565b8590616fca565b9350505b600101616553565b5090949350505050565b600080600080600061665087616f5d565b905060005b815181101561673757600088600401600084848151811061667857616678618b7d565b60200260200101516001600160a01b03166001600160a01b0316815260200190815260200160002060405180608001604052908160008201548152602001600182015481526020016002820154815260200160038201548152505090506167036166fc8484815181106166ed576166ed618b7d565b6020026020010151838b616fd6565b8690616fca565b945061672c61662284848151811061671d5761671d618b7d565b6020026020010151838b617048565b935050600101616655565b506001870154156167665760018701546167519084618da1565b92508660010154826167639190618da1565b91505b50909590945092505050565b6167ab6040518060c001604052806000815260200160008152602001600081526020016000815260200160008152602001600081525090565b6167b4836170a7565b60006167c18460016170cf565b905060006167cd6172f8565b60a00151905060005b82518110156169375760008382815181106167f3576167f3618b7d565b602002602001015190506000616812878360c001518460400151616cd6565b9050600061682383602001516178d1565b90506000616834848a856000617ba6565b9050600081131561686e5761686761685f826161fe6168568860a00151612e2d565b60400151616940565b895190617bcf565b885261689a565b61689761685f826161fe6168858860a00151612e2d565b6101000151615b6490620186a0618da1565b88525b6168bb6168b08560e00151846000015189617bdb565b60608a015190616fca565b606089015261016084015160208901516168d491616fca565b602089015261018084015160408901516168ed91616fca565b604089015260e084015160a089015161690591616fca565b60a0890152616922616917858b617c04565b60808a015190617bcf565b60808901525050600190920191506167d69050565b50505092915050565b60006001600160ff1b0382111561600f5760405162461bcd60e51b815260206004820152602860248201527f53616665436173743a2076616c756520646f65736e27742066697420696e2061604482015267371034b73a191a9b60c11b6064820152608401610639565b600080806169b785617efe565b805190915015616a935760005b81518110156166355760008660020160008484815181106169e7576169e7618b7d565b60200260200101516001600160a01b03166001600160a01b031681526020019081526020016000209050600081600001541180616a28575060008160020154115b15616a8a57616a87616a80616a408360020154616940565b8354616a4b90616940565b616a5591906190d4565b616a6a86868151811061617657616176618b7d565b6161a88a88888151811061619957616199618b7d565b8590617bcf565b93505b506001016169c4565b509392505050565b616ad46040518060c001604052806000815260200160008152602001600081526020016000815260200160608152602001606081525090565b615d9d6135a3565b60048201546000908190151580616af7575060078401546000125b15616b965760038401546002850154600091616b219186906001906001600160a01b031681617f09565b6002860154909150600090616b429086906001600160a01b03166001616cd6565b9050616b91828760040160030154616b608960040160000154616940565b616b6a91906190d4565b616b7491906190d4565b6002880154616b8b906001600160a01b0316612dc9565b83616d7b565b925050505b6000616ba185616cc8565b805190915015616a935760005b815181101561663557600086600e016000848481518110616bd157616bd1618b7d565b60200260200101516001600160a01b03166001600160a01b031681526020019081526020016000209050600081600001541180616c12575060008160030154135b15616cbf576000616c458860030154886000878781518110616c3657616c36618b7d565b60200260200101516001617f09565b9050616cbb616cb482616c5b8560040154616940565b60038601548654616c6b90616940565b616c7591906190d4565b616c7f91906190b4565b616c8991906190d4565b616c9e87878151811061617657616176618b7d565b6161a88b89898151811061619957616199618b7d565b8690617bcf565b9450505b50600101616bae565b6060611b2482600c016143f9565b6000805b8451811015616d7057836001600160a01b0316858281518110616cff57616cff618b7d565b6020026020010151600001516001600160a01b031603616d685782616d4157848181518110616d3057616d30618b7d565b602002602001015160600151616d60565b848181518110616d5357616d53618b7d565b6020026020010151604001515b915050611392565b600101616cda565b506116c4838361542e565b60006116c4616d8e615b6485600a61907b565b616daf616d9f6402540be400616940565b616da98887618165565b90618165565b90618171565b60006116c4616dd2616dcb6402540be400616940565b8490618165565b616daf616de3615b6487600a61907b565b8790618165565b8054600090616e01906001600160a01b0316613f16565b6020015192915050565b6000611392616e1c620186a0616940565b616daf8585618165565b6004830154821115616e8a5760405162461bcd60e51b815260206004820152602760248201527f6261736520746f6b656e20616d6f756e74206c657373207468616e2073756220604482015266616d6f756e742160c81b6064820152608401610639565b8015616ecd5782546002840154600091616eb4916001600160a01b03918216911660048701615da7565b9050828460040160000160008282546157249190618c57565b818360040160000160008282546157539190618c57565b60608315616f53578251600003616f4c576001600160a01b0385163b616f4c5760405162461bcd60e51b815260206004820152601d60248201527f416464726573733a2063616c6c20746f206e6f6e2d636f6e74726163740000006044820152606401610639565b50816116c4565b6116c4838361817d565b6060611b24826002016143f9565b60008260200151836000015111616f8457506000611392565b6000616fb284602001518560000151616f9d9190618c57565b616fa687612dc9565b613cba868960016181a7565b90506118da81616fc187612e2d565b604001516151f3565b60006113928284618da1565b60008260000151836020015111616fef57506000611392565b600061700884600001518560200151616f9d9190618c57565b9050600061701586612e2d565b61010001511115617041576170378161702d87612e2d565b61010001516151f3565b616d609082618da1565b9050611392565b8151606083015160208401516000929161706191618c57565b1161706e57506000611392565b8251606084015160208501516116c4929161708891618c57565b6170929190618c57565b61709b86612dc9565b613cba858860016181a7565b80546001600160a01b0316610b8857604051633902b86b60e11b815260040160405180910390fd5b606060006170dc84618209565b905060006170ea8285618217565b67ffffffffffffffff811115617102576171026188ac565b60405190808252806020026020018201604052801561713b57816020015b6171286186a5565b8152602001906001900390816171205790505b5090506000805b83518110156172ed57600061716d85838151811061716257617162618b7d565b602002602001015190565b6040805161022081018252825481526001830154602080830191909152600284015460ff808216151584860152610100808304909116151560608086019182526001600160a01b036201000090940484166080808801919091526003890154851660a08089019190915260048a015490951660c08089019190915260058a015460e0808a019190915260068b01549589019590955260078a015461012089015260088a015461014089015260098a0154610160890152600a8a0154610180890152600b8a01546101a089015288519485018952600c8a01548552600d8a015496850196909652600e89015497840197909752600f880154908301526010870154958201959095526011860154918101919091526012850154918101919091526101c082015260138301546101e082015260149092015461020083015251909150871515901515036172e457808484815181106172cb576172cb618b7d565b60209081029190910101526172e1600184618da1565b92505b50600101617142565b509095945050505050565b617378604051806102000160405280606081526020016060815260200160008152602001600081526020016000815260200160008152602001600081526020016000815260200160008152602001600081526020016000815260200160008152602001600081526020016000815260200160008152602001600081525090565b6000806040516020016173ab906020808252600c908201526b54524144455f434f4e46494760a01b604082015260600190565b6040516020818303038152906040528051906020012090506173f781604051602001613769906020808252600c908201526b54524144455f544f4b454e5360a01b604082015260600190565b8084525167ffffffffffffffff811115617413576174136188ac565b60405190808252806020026020018201604052801561744c57816020015b6174396185e6565b8152602001906001900390816174315790505b50602084015260005b8351518110156174a1576174788460000151828151811061657157616571618b7d565b8460200151828151811061748e5761748e618b7d565b6020908102919091010152600101617455565b506174de816040516020016124999060208082526014908201527313525397d3d491115497d3505491d25397d554d160621b604082015260600190565b83604001818152505061752c81604051602001612499906020808252601a908201527f415641494c41424c455f434f4c4c41544552414c5f524154494f000000000000604082015260600190565b606084015260405161756a908290612499906020016020808252600f908201526e10d493d4d4d7d3151597d312535255608a1b604082015260600190565b60808401526040516175b6908290612499906020016020808252601b908201527f4d41585f4d41494e54454e414e43455f4d415247494e5f524154450000000000604082015260600190565b60a08401526040516175fa9082906124999060200160208082526015908201527446554e44494e475f4645455f424153455f5241544560581b604082015260600190565b60c084015260405161763e908290612499906020016020808252601590820152744d41585f46554e44494e475f424153455f5241544560581b604082015260600190565b60e08401526040516176949082906124999060200160208082526021908201527f54524144494e475f4645455f5354414b494e475f524557415244535f524154496040820152604f60f81b606082015260800190565b6101008401526040516176e1908290612499906020016020808252601e908201527f54524144494e475f4645455f504f4f4c5f524557415244535f524154494f0000604082015260600190565b6101208401526040516177399082906124999060200160208082526022908201527f54524144494e475f4645455f5553445f504f4f4c5f524557415244535f524154604082015261494f60f01b606082015260800190565b6101408401526040516177929082906124999060200160208082526023908201527f424f52524f57494e475f4645455f5354414b494e475f524557415244535f524160408201526254494f60e81b606082015260800190565b6101608401526040516177dd908290612499906020016020808252818101527f424f52524f57494e475f4645455f504f4f4c5f524557415244535f524154494f604082015260600190565b61018084015260405161782a9082906124999060200160208082526019908201527f4155544f5f5245445543455f50524f4649545f464143544f5200000000000000604082015260600190565b6101a0840152604051617877908290612499906020016020808252601c908201527f4155544f5f5245445543455f4c49515549444954595f464143544f5200000000604082015260600190565b6101c08401526040516178c49082906124999060200160208082526019908201527f535741505f534c49505045525f544f4b454e5f464143544f5200000000000000604082015260600190565b6101e08401525090919050565b6178d961878c565b6178e161878c565b600080604051602001617915906020808252600d908201526c53594d424f4c5f434f4e46494760981b604082015260600190565b60408051601f198184030181529190528051602090910120905061793a8282876183a4565b6179475750909392505050565b6179b1818660405160200161797c906020808252600c908201526b4d41585f4c4556455241474560a01b604082015260600190565b60408051601f1981840301815282825280516020918201209083019490945281019190915260608101919091526080016124c9565b83526040516179e8908290879061797c906020016020808252600990820152685449434b5f53495a4560b81b604082015260600190565b836020018181525050617a27818660405160200161797c906020808252600d908201526c4f50454e5f4645455f5241544560981b604082015260600190565b836040018181525050617a67818660405160200161797c906020808252600e908201526d434c4f53455f4645455f5241544560901b604082015260600190565b6060840152604051617ab5908290879061797c906020016020808252601a908201527f4d41585f4c4f4e475f4f50454e5f494e5445524553545f434150000000000000604082015260600190565b6080840152604051617b03908290879061797c906020016020808252601b908201527f4d41585f53484f52545f4f50454e5f494e5445524553545f4341500000000000604082015260600190565b60a0840152604051617b4a908290879061797c906020016020808252601690820152751313d391d7d4d213d49517d490551253d7d31253525560521b604082015260600190565b60c0840152604051617b98908290879061797c906020016020808252601a908201527f4c4f4e475f53484f52545f4f495f424f54544f4d5f4c494d4954000000000000604082015260600190565b60e084015250909392505050565b6000806000617bb68787876183be565b9150915083617bc55780615bc6565b5095945050505050565b600061139282846190d4565b60006116c4617bea85846151f3565b617bfe86617bf987600261350a565b615f9f565b9061849d565b6000617c496040518060e001604052806000815260200160008152602001600060ff168152602001600081526020016000815260200160008152602001600081525090565b617c5b846020015185604001516184b3565b606082015260e0840151617c9090617c7290616940565b856101c00151608001518360600151617c8b91906190b4565b6184db565b608082015260a0840151617ca390612dc9565b60ff1660408083019190915284015115617cf257617cd7816080015182604001516161a8868860a001518960400151616cd6565b846101c0015160c00151617ceb91906190d4565b8152617d0e565b8060800151846101c0015160c00151617d0b91906190d4565b81525b6000617d1d85602001516184f1565b6040805160c08101909152815481526001820154909190602083019060ff166003811115617d4d57617d4d6189ef565b6003811115617d5e57617d5e6189ef565b815260018201546001600160a01b03610100909104811660208301526002830154811660408301526003830154166060820152600482018054608090920191617da6906190f4565b80601f0160208091040260200160405190810160405280929190818152602001828054617dd2906190f4565b8015617e1f5780601f10617df457610100808354040283529160200191617e1f565b820191906000526020600020905b815481529060010190602001808311617e0257829003601f168201915b5050505050815250509050617e41816040015186604001518760a0015161853c565b60a0830152610140850151610120860151617e8b91617e6d91617e6890620186a090618c57565b6151f3565b866101c00151602001518460a00151617e869190618c57565b612d3b565b8260c0018181525050617eb48260c001518360400151613cba878960a001518a604001516181a7565b856101c0015160600151617ec89190618da1565b60208301819052617ed890616940565b82516101c087015151617eea90616940565b617ef491906190d4565b6118da91906190d4565b6060611b24826143f9565b600080617f158761858f565b90506000617f22886184f1565b6040805160c08101909152815481526001820154909190602083019060ff166003811115617f5257617f526189ef565b6003811115617f6357617f636189ef565b815260018201546001600160a01b03610100909104811660208301526002830154811660408301526003830154166060820152600482018054608090920191617fab906190f4565b80601f0160208091040260200160405190810160405280929190818152602001828054617fd7906190f4565b80156180245780601f10617ff957610100808354040283529160200191618024565b820191906000526020600020905b81548152906001019060200180831161800757829003601f168201915b5050505050815250509050600086618055576001600160a01b0386166000908152600684016020526040902061805a565b826002015b805490915060000361807257600093505050506118da565b60006180848984606001516001616cd6565b905061808f81615fbd565b8260010154036180a65760009450505050506118da565b87156181395760006180e36180be8460010154616940565b616daf6180d86180d18760010154616940565b86906185da565b8654616da990616940565b905086156181245760006180f98b8a6000616cd6565b905061810e826181088b612dc9565b83616db5565b61811790619128565b96505050505050506118da565b61812d81619128565b955050505050506118da565b60006180e361814b8460010154616940565b616daf6180d88561815f8860010154616940565b906185da565b60006113928284619144565b60006113928284619174565b81511561818d5781518083602001fd5b8060405162461bcd60e51b815260040161063991906191a2565b6000805b8451811015616d7057836001600160a01b03168582815181106181d0576181d0618b7d565b6020026020010151600001516001600160a01b0316036182015782616d4157848181518110616d3057616d30618b7d565b6001016181ab565b6060611b24826005016143f9565b6000806182226186a5565b60005b85518110156166355761824386828151811061716257617162618b7d565b6040805161022081018252825481526001830154602080830191909152600284015460ff808216151584860152610100808304909116151560608086019182526001600160a01b036201000090940484166080808801919091526003890154851660a08089019190915260048a015490951660c08089019190915260058a015460e0808a019190915260068b01549589019590955260078a015461012089015260088a015461014089015260098a0154610160890152600a8a0154610180890152600b8a01546101a089015288519485018952600c8a01548552600d8a015496850196909652600e89015497840197909752600f880154908301526010870154958201959095526011860154918101919091526012850154918101919091526101c082015260138301546101e0820152601490920154610200830152519092508515159015150361839c57618399600184618da1565b92505b600101618225565b6000828152600d8401602052604081206116c49083612c6a565b6000808460e001516000036183d857506000905080618495565b84604001511561843f57600061841d6183f5876101000151616940565b616daf6184106184098a6101000151616940565b88906185da565b616da98a60e00151616940565b9050618436816184308860a00151612dc9565b86616db5565b92509050618495565b6000618467618452876101000151616940565b616daf6184108761815f8b6101000151616940565b9050600061847b868860a001516000616cd6565b905061848e826181088960a00151612dc9565b9350909150505b935093915050565b60008183106184ac5781611392565b5090919050565b6000806184bf8461858f565b9050826184d0576008810154611b20565b600701549392505050565b6000611392616e1c670de0b6b3a7640000616940565b6040805160208101829052601760608201527f78797a2e656c66692e73746f726167652e53796d626f6c0000000000000000006080820152908101829052600090819060a00161140a565b6000821561855c57600061854f856113b3565b6012015491506113929050565b6000618566612a6f565b6001600160a01b0384166000908152600382016020526040902090915060020154915050611392565b6040805160208101829052601760608201527f78797a2e656c66692e73746f726167652e4d61726b65740000000000000000006080820152908101829052600090819060a00161140a565b600061139282846190b4565b60405180610120016040528060001515815260200160008152602001600081526020016000815260200160008152602001600081526020016000815260200160008152602001600081525090565b604051806101400160405280600081526020016000815260200160008152602001600081526020016000815260200160008152602001600081526020016000815260200160008152602001606081525090565b5080546000825590600052602060002090810190610b8891906187d1565b604051806102200160405280600080191681526020016000801916815260200160001515815260200160001515815260200160006001600160a01b0316815260200160006001600160a01b0316815260200160006001600160a01b03168152602001600081526020016000815260200160008152602001600081526020016000815260200160008152602001600081526020016187786040518060e00160405280600081526020016000815260200160008152602001600081526020016000815260200160008152602001600081525090565b815260200160008152602001600081525090565b60405180610100016040528060008152602001600081526020016000815260200160008152602001600081526020016000815260200160008152602001600081525090565b5b8082111561600f57600081556001016187d2565b6000806000604084860312156187fb57600080fd5b83359250602084013567ffffffffffffffff8082111561881a57600080fd5b818601915086601f83011261882e57600080fd5b81358181111561883d57600080fd5b8760208260071b850101111561885257600080fd5b6020830194508093505050509250925092565b6000806040838503121561887857600080fd5b50508035926020909101359150565b60006101008284031215612d3557600080fd5b600060c08284031215612d3557600080fd5b634e487b7160e01b600052604160045260246000fd5b6001600160a01b0381168114610b8857600080fd5b8035610870816188c2565b6000608082840312156188f457600080fd5b6040516080810181811067ffffffffffffffff8211171561892557634e487b7160e01b600052604160045260246000fd5b6040528235618933816188c2565b81526020830135618943816188c2565b6020820152604083810135908201526060928301359281019290925250919050565b60006020828403121561897757600080fd5b8151611392816188c2565b60006020828403121561899457600080fd5b8135611392816188c2565b6001600160a01b0392831681529116602082015260400190565b8015158114610b8857600080fd5b8035610870816189b9565b6000602082840312156189e457600080fd5b8135611392816189b9565b634e487b7160e01b600052602160045260246000fd5b6000610100808385031215618a1957600080fd5b6040519081019067ffffffffffffffff82118183101715618a4a57634e487b7160e01b600052604160045260246000fd5b8160405283359150618a5b826188c2565b818152618a6a602085016188d7565b602082015260408401356040820152606084013560608201526080840135608082015260a084013560a0820152618aa360c085016189c7565b60c0820152618ab460e085016189c7565b60e0820152949350505050565b600060208284031215618ad357600080fd5b5051919050565b600060c08284031215618aec57600080fd5b60405160c0810181811067ffffffffffffffff82111715618b1d57634e487b7160e01b600052604160045260246000fd5b6040528235618b2b816188c2565b81526020830135618b3b816188c2565b60208201526040830135618b4e816188c2565b80604083015250606083013560608201526080830135608082015260a083013560a08201528091505092915050565b634e487b7160e01b600052603260045260246000fd5b6001600160a01b039384168152919092166020820152604081019190915260600190565b60018060a01b0380825116835280602083015116602084015280604083015116604084015250606081015160608301526080810151608083015260a081015160a083015260c081015160c083015260e0810151618c1860e084018215159052565b5061010081810151801515848301526103a9565b82815261014081016113926020830184618bb7565b634e487b7160e01b600052601160045260246000fd5b81810381811115611b2457611b24618c41565b8082028115828204841417611b2457611b24618c41565b6101408101618c908285618bb7565b826101208301529392505050565b60018060a01b03808251168352806020830151166020840152806040830151166040840152806060830151166060840152506080810151608083015260a081015160a083015260c081015160c08301525050565b82815261010081016113926020830184618c9e565b6101008101618d168285618c9e565b8260e08301529392505050565b81546001600160a01b03168152610120810160018301546001600160a01b03908116602084015260028401541660408301526003830154606083015260048301546080830152600583015460a0830152600683015460c0830152600783015460ff808216151560e0850152600882901c1615156101008401526158ac565b80820180821115611b2457611b24618c41565b600181815b80851115618def578160001904821115618dd557618dd5618c41565b80851615618de257918102915b93841c9390800290618db9565b509250929050565b600082618e0657506001611b24565b81618e1357506000611b24565b8160018114618e295760028114618e3357618e4f565b6001915050611b24565b60ff841115618e4457618e44618c41565b50506001821b611b24565b5060208310610133831016604e8410600b8410161715618e72575081810a611b24565b618e7c8383618db4565b8060001904821115618e9057618e90618c41565b029392505050565b60006113928383618df7565b60208082526008908201526711915157d352539560c21b604082015260600190565b600060018201618ed857618ed8618c41565b5060010190565b6040808252601f908201527f78797a2e656c66692e73746f726167652e5374616b696e674163636f756e740060608201526001600160a01b0391909116602082015260800190565b600060208284031215618f3957600080fd5b815160ff8116811461139257600080fd5b6020808252600a90820152694645455f52454445454d60b01b604082015260600190565b60005b83811015618f89578181015183820152602001618f71565b50506000910152565b60008251618fa4818460208701618f6e565b9190910192915050565b600060208284031215618fc057600080fd5b8151611392816189b9565b634e487b7160e01b600052601260045260246000fd5b600f8110618fff57634e487b7160e01b600052602160045260246000fd5b9052565b60006101608201905060018060a01b038088168352808716602084015250845160408301526020850151606083015260408501516080830152606085015160a0830152835460c0830152600184015460e0830152600284015461010083015260038401546101208301526156d7610140830184618fe1565b600061139260ff841683618df7565b60008261909957619099618fcb565b500490565b634e487b7160e01b600052603160045260246000fd5b81810360008312801583831316838312821617156158ac576158ac618c41565b808201828112600083128015821682158216171561593557615935618c41565b600181811c9082168061910857607f821691505b602082108103612d3557634e487b7160e01b600052602260045260246000fd5b6000600160ff1b820161913d5761913d618c41565b5060000390565b80820260008212600160ff1b8414161561916057619160618c41565b8181058314821517611b2457611b24618c41565b60008261918357619183618fcb565b600160ff1b82146000198414161561919d5761919d618c41565b500590565b60208152600082518060208401526191c1816040850160208701618f6e565b601f01601f1916919091016040019291505056fea2646970667358221220311150a899b7d20e469fb42a662d465e5648f794254a20542a3f6a7426e5378664736f6c634300081900336080604052348015600f57600080fd5b506106918061001f6000396000f3fe608060405234801561001057600080fd5b50600436106100365760003560e01c8063180e24bb1461003b5780631d3c97b714610060575b600080fd5b61004e610049366004610514565b610075565b60405190815260200160405180910390f35b61007361006e366004610550565b61008a565b005b600061008183836100e9565b90505b92915050565b6100e58282808060200260200160405190810160405280939291908181526020016000905b828210156100db576100cc608083028601368190038101906105c5565b815260200190600101906100af565b5050505050610111565b5050565b6000806100f584610291565b905082610106578060200151610109565b80515b949350505050565b600061011b61032b565b905060005b825181101561028c5760006001600160a01b031683828151811061014657610146610645565b6020026020010151602001516001600160a01b0316036101e5576101e083828151811061017557610175610645565b602002602001015160000151604051806040016040528086858151811061019e5761019e610645565b60200260200101516040015181526020018685815181106101c1576101c1610645565b6020026020010151606001518152508461038d9092919063ffffffff16565b610284565b6102848382815181106101fa576101fa610645565b60200260200101516000015184838151811061021857610218610645565b602002602001015160200151604051806040016040528087868151811061024157610241610645565b602002602001015160400151815260200187868151811061026457610264610645565b602002602001015160600151815250856103d5909392919063ffffffff16565b600101610120565b505050565b604080518082019091526000808252602082015260006102af61032b565b604080518082018252600080825260209182018190526001600160a01b0387168152600284018252829020825180840190935280548084526001909101549183019190915291925090158061030657506020810151155b156103245760405163907adecd60e01b815260040160405180910390fd5b9392505050565b60008060405160200161036f906020808252601c908201527f78797a2e656c66692e73746f726167652e4f7261636c65507269636500000000604082015260600190565b60408051601f19818403018152919052805160209091012092915050565b6103978383610452565b6103a7576103a58383610474565b505b6001600160a01b03909116600090815260029092016020908152604090922081518155910151600190910155565b604080516001600160a01b0385811660208084019190915290851682840152825180830384018152606090920190925280519101206104176004860182610489565b61042a5761042860048601826104a1565b505b6000908152600690940160209081526040909420815181559301516001909301929092555050565b6001600160a01b03811660009081526001830160205260408120541515610081565b6000610081836001600160a01b0384166104a9565b60008181526001830160205260408120541515610081565b600061008183835b60008181526001830160205260408120546104f057508154600181810184556000848152602080822090930184905584548482528286019093526040902091909155610084565b506000610084565b80356001600160a01b038116811461050f57600080fd5b919050565b6000806040838503121561052757600080fd5b610530836104f8565b91506020830135801515811461054557600080fd5b809150509250929050565b6000806020838503121561056357600080fd5b823567ffffffffffffffff8082111561057b57600080fd5b818501915085601f83011261058f57600080fd5b81358181111561059e57600080fd5b8660208260071b85010111156105b357600080fd5b60209290920196919550909350505050565b6000608082840312156105d757600080fd5b6040516080810181811067ffffffffffffffff8211171561060857634e487b7160e01b600052604160045260246000fd5b604052610614836104f8565b8152610622602084016104f8565b602082015260408301356040820152606083013560608201528091505092915050565b634e487b7160e01b600052603260045260246000fdfea2646970667358221220e8e4c7fe1d5172d0f53f52af1be2c99fa5443fdda302d75fea95019abe96e3bf64736f6c634300081900336080604052348015600f57600080fd5b506105c18061001f6000396000f3fe608060405234801561001057600080fd5b50600436106100415760003560e01c80638e941347146100465780639fe30b031461006c578063c93c5b401461007f575b600080fd5b6100596100543660046103f3565b61009f565b6040519081526020015b60405180910390f35b61005961007a366004610436565b6100bf565b61009261008d366004610451565b6100d4565b60405161006391906104c0565b60006100b683836100af87610279565b91906102ef565b51949350505050565b60006100ca82610279565b6005015492915050565b6100ff6040518060800160405280600081526020016060815260200160608152602001606081525090565b600061010a84610279565b905060006101188285610343565b90506000815167ffffffffffffffff8111156101365761013661055f565b60405190808252806020026020018201604052801561015f578160200160208202803683370190505b5090506000825167ffffffffffffffff81111561017e5761017e61055f565b6040519080825280602002602001820160405280156101a7578160200160208202803683370190505b50905060005b83518110156102365760006101e6888684815181106101ce576101ce610575565b6020026020010151886102ef9092919063ffffffff16565b905080600001518483815181106101ff576101ff610575565b602002602001018181525050806020015183838151811061022257610222610575565b6020908102919091010152506001016101ad565b50604080516080810182526001600160a01b0388166000908152600390960160209081529582902054815294850193909352918301526060820152905092915050565b600080826040516020016102d091906040808252601f908201527f78797a2e656c66692e73746f726167652e5374616b696e674163636f756e740060608201526001600160a01b0391909116602082015260800190565b60408051601f1981840301815291905280516020909101209392505050565b604080518082018252600080825260209182018190526001600160a01b0394851681526003958601825282812093909416845291909301815290829020825180840190935280548352600101549082015290565b6001600160a01b0381166000908152600383016020526040902060609061036c90600101610373565b9392505050565b6060600061036c836060816000018054806020026020016040519081016040528092919081815260200182805480156103cb57602002820191906000526020600020905b8154815260200190600101908083116103b7575b50505050509050919050565b80356001600160a01b03811681146103ee57600080fd5b919050565b60008060006060848603121561040857600080fd5b610411846103d7565b925061041f602085016103d7565b915061042d604085016103d7565b90509250925092565b60006020828403121561044857600080fd5b61036c826103d7565b6000806040838503121561046457600080fd5b61046d836103d7565b915061047b602084016103d7565b90509250929050565b60008151808452602080850194506020840160005b838110156104b557815187529582019590820190600101610499565b509495945050505050565b60208082528251828201528281015160806040840152805160a0840181905260009291820190839060c08601905b808310156105175783516001600160a01b031682529284019260019290920191908401906104ee565b5060408701519350601f199250828682030160608701526105388185610484565b935050506060850151818584030160808601526105558382610484565b9695505050505050565b634e487b7160e01b600052604160045260246000fd5b634e487b7160e01b600052603260045260246000fdfea264697066735822122098139057f66039d874b5a86e0aed5a388928ccbcc550bf79702c3ba1a3d6ba9364736f6c634300081900336080604052348015600f57600080fd5b5060016000556131c0806100246000396000f3fe608060405234801561001057600080fd5b50600436106100575760003560e01c80631559a2431461005c5780633e4fb7c21461008557806375d037d0146100a55780639e9e78f4146100ad578063bbe4f6db146100cd575b600080fd5b61006f61006a3660046128fe565b6100e0565b60405161007c9190612a58565b60405180910390f35b6100986100933660046128fe565b61014c565b60405161007c9190612d3f565b61006f6101a9565b6100c06100bb366004612dbf565b6101be565b60405161007c9190612e11565b6100c06100db366004612e24565b61022c565b6100e8612724565b6101438383808060200260200160405190810160405280939291908181526020016000905b828210156101395761012a60808302860136819003810190612e55565b8152602001906001019061010d565b5050505050610240565b90505b92915050565b60606101438383808060200260200160405190810160405280939291908181526020016000905b8282101561019f5761019060808302860136819003810190612e55565b81526020019060010190610173565b505050505061040d565b6101b1612724565b6101b96104ce565b905090565b6101c6612770565b610222848484808060200260200160405190810160405280939291908181526020016000905b828210156102185761020960808302860136819003810190612e55565b815260200190600101906101ec565b5050505050610674565b90505b9392505050565b610234612770565b60606102258382610674565b610248612724565b60006102526108bb565b905061025d8161091d565b5160000361026d57610225612724565b6000610277610928565b90506000816001600160a01b03166318160ddd6040518163ffffffff1660e01b8152600401602060405180830381865afa1580156102b9573d6000803e3d6000fd5b505050506040513d601f19601f820116820180604052508101906102dd9190612ed4565b905060006102ea8461091d565b9050600081516001600160401b0381111561030757610307612e3f565b604051908082528060200260200182016040528015610330578160200160208202803683370190505b50905060005b8251811015610387576103628684838151811061035557610355612eed565b6020026020010151610943565b82828151811061037457610374612eed565b6020908102919091010152600101610336565b506040518061012001604052808381526020016103a3876109aa565b81526020016103b187610ac6565b815260200160008951116103c65760006103d0565b6103d0878a610b70565b81526020018481526020018281526020016103ea87610ba1565b815260200186600401548152602001866005015481525095505050505050919050565b60606000610419610cce565b9050600081516001600160401b0381111561043657610436612e3f565b60405190808252806020026020018201604052801561046f57816020015b61045c612770565b8152602001906001900390816104545790505b50905060005b82518110156104c6576104a183828151811061049357610493612eed565b602002602001015186610674565b8282815181106104b3576104b3612eed565b6020908102919091010152600101610475565b509392505050565b6104d6612724565b60006104e06108bb565b90506104eb8161091d565b516000036104fb57610146612724565b6000610505610928565b90506000816001600160a01b03166318160ddd6040518163ffffffff1660e01b8152600401602060405180830381865afa158015610547573d6000803e3d6000fd5b505050506040513d601f19601f8201168201806040525081019061056b9190612ed4565b905060006105788461091d565b9050600081516001600160401b0381111561059557610595612e3f565b6040519080825280602002602001820160405280156105be578160200160208202803683370190505b50905060005b8251811015610608576105e38684838151811061035557610355612eed565b8282815181106105f5576105f5612eed565b60209081029190910101526001016105c4565b50604051806101200160405280838152602001610624876109aa565b815260200161063287610ac6565b81526020016000815260200184815260200182815260200161065387610ba1565b81526020018660040154815260200186600501548152509550505050505090565b61067c612770565b600061068784610cee565b9050610691612770565b60028201546001600160a01b03166106ac5791506101469050565b60006106b783610d64565b90506000866001600160a01b03166318160ddd6040518163ffffffff1660e01b8152600401602060405180830381865afa1580156106f9573d6000803e3d6000fd5b505050506040513d601f19601f8201168201806040525081019061071d9190612ed4565b9050604051806101c00160405280886001600160a01b0316815260200185600101805461074990612f03565b80601f016020809104026020016040519081016040528092919081815260200182805461077590612f03565b80156107c25780601f10610797576101008083540402835291602001916107c2565b820191906000526020600020905b8154815290600101906020018083116107a557829003601f168201915b505050918352505060028601546001600160a01b03166020820152600386015460408201526060016107f660048701610d72565b815260200183815260200161080e8487600e01610dd7565b8152602001600088511161082357600061082d565b61082d8689610ea6565b8152602001600088511161084257600061084c565b61084c8689610eb3565b81526020016000815260200182815260200185601001604051806080016040529081600082015481526020016001820154815260200160028201548152602001600382015481525050815260200185601401548152602001856015015481525092508294505050505092915050565b6000806040516020016108ff9060208082526018908201527f78797a2e656c66692e73746f726167652e557364506f6f6c0000000000000000604082015260600190565b60408051601f19818403018152919052805160209091012092915050565b6060610146826110e9565b6000806109336110f6565b546001600160a01b031692915050565b600080610950848461113a565b90506000816040015182600001516109689190612f53565b9050600061097d826109786111a0565b6111b0565b9050826020015181116109915760006109a0565b60208301516109a09082612f66565b9695505050505050565b606060006109b7836110e9565b9050600081516001600160401b038111156109d4576109d4612e3f565b604051908082528060200260200182016040528015610a2957816020015b610a1660405180606001604052806000815260200160008152602001600081525090565b8152602001906001900390816109f25790505b50905060005b82518110156104c657846002016000848381518110610a5057610a50612eed565b60200260200101516001600160a01b03166001600160a01b031681526020019081526020016000206040518060600160405290816000820154815260200160018201548152602001600282015481525050828281518110610ab357610ab3612eed565b6020908102919091010152600101610a2f565b60606000610ad3836110e9565b9050600081516001600160401b03811115610af057610af0612e3f565b604051908082528060200260200182016040528015610b19578160200160208202803683370190505b50905060005b82518110156104c657610b4b85848381518110610b3e57610b3e612eed565b60200260200101516111c0565b828281518110610b5d57610b5d612eed565b6020908102919091010152600101610b1f565b600080610b7d848461124a565b90506000811315610b9657610b918161133c565b610b99565b60005b949350505050565b60606000610bae836110e9565b9050600081516001600160401b03811115610bcb57610bcb612e3f565b604051908082528060200260200182016040528015610c2757816020015b610c146040518060800160405280600081526020016000815260200160008152602001600081525090565b815260200190600190039081610be95790505b50905060005b82518110156104c657846003016000848381518110610c4e57610c4e612eed565b60200260200101516001600160a01b03166001600160a01b03168152602001908152602001600020604051806080016040529081600082015481526020016001820154815260200160028201548152602001600382015481525050828281518110610cbb57610cbb612eed565b6020908102919091010152600101610c2d565b60606000610cda6110f6565b9050610ce8816002016110e9565b91505090565b60008082604051602001610d45919060408082526017908201527f78797a2e656c66692e73746f726167652e4c70506f6f6c00000000000000000060608201526001600160a01b0391909116602082015260800190565b60408051601f1981840301815291905280516020909101209392505050565b606061014682600c016110e9565b610d7a612823565b600080610d8984600501611397565b6040805160e081018252875481526001880154602082015260028801549181019190915260038701546060820152600490960154608087015260a086019190915260c0850152509192915050565b6060600083516001600160401b03811115610df457610df4612e3f565b604051908082528060200260200182016040528015610e2d57816020015b610e1a612823565b815260200190600190039081610e125790505b50905060005b84518110156104c657610e81846000878481518110610e5457610e54612eed565b60200260200101516001600160a01b03166001600160a01b03168152602001908152602001600020610d72565b828281518110610e9357610e93612eed565b6020908102919091010152600101610e33565b600080610b7d848461144d565b600782015460048301546000918291610ecb90611639565b610ed59190612f79565b90506000811215610eea576000915050610146565b6000610ef585610d64565b80519091501561108c576002850154600090610f19906001600160a01b03166116a3565b6002870154909150600090610f3a9087906001600160a01b03166001611707565b905060005b835181101561108857600088600e016000868481518110610f6257610f62612eed565b60200260200101516001600160a01b03166001600160a01b03168152602001908152602001600020905060008160040154118015610fc45750610fa88160040154611639565b60038201548254610fb890611639565b610fc29190612f79565b125b1561107f57600061104d8260030154610fe08460000154611639565b610fed8560040154611639565b610ff79190612f99565b6110019190612f99565b61102388868151811061101657611016612eed565b60200260200101516116a3565b6110488c8a888151811061103957611039612eed565b60200260200101516001611707565b6117ac565b9050600061105c8287876117e6565b905080881315611077576110708189612f99565b975061107c565b600097505b50505b50600101610f3f565b5050505b60006110a8836110a361109e8961181b565b611639565b61183c565b90506110ba8660040160020154611639565b81136110c75760006109a0565b6109a06110da8760040160020154611639565b6110e49083612f99565b61133c565b6060600061022583611857565b6000806040516020016108ff906020808252601b908201527f78797a2e656c66692e73746f726167652e436f6d6d6f6e446174610000000000604082015260600190565b61115e60405180606001604052806000815260200160008152602001600081525090565b506001600160a01b0316600090815260029182016020908152604091829020825160608101845281548152600182015492810192909252909201549082015290565b60006111aa6118b3565b51919050565b60006101438383620186a06118f4565b6001600160a01b03811660009081526002830160205260408120816111e36111a0565b90508060000361120757600182015482546111fe9190612f66565b92505050610146565b60006112178360010154836119de565b90508083600001541161122b576000611238565b8254611238908290612f66565b9350505050610146565b505092915050565b600080806112578561091d565b8051909150156104c65760005b815181101561133357600086600201600084848151811061128757611287612eed565b60200260200101516001600160a01b03166001600160a01b0316815260200190815260200160002090506000816000015411806112c8575060008160020154115b1561132a576113276113206112e08360020154611639565b83546112eb90611639565b6112f59190612f79565b61130a86868151811061101657611016612eed565b6110488a88888151811061103957611039612eed565b85906119ee565b93505b50600101611264565b50509392505050565b6000808212156113935760405162461bcd60e51b815260206004820181905260248201527f53616665436173743a2076616c7565206d75737420626520706f73697469766560448201526064015b60405180910390fd5b5090565b6060806113a3836119fa565b915081516001600160401b038111156113be576113be612e3f565b6040519080825280602002602001820160405280156113e7578160200160208202803683370190505b50905060005b82518110156114475761142283828151811061140b5761140b612eed565b602002602001015185611a0790919063ffffffff16565b82828151811061143457611434612eed565b60209081029190910101526001016113ed565b50915091565b60048201546000908190151580611468575060078401546000125b1561150757600384015460028501546000916114929186906001906001600160a01b031681611a1c565b60028601549091506000906114b39086906001600160a01b03166001611707565b90506115028287600401600301546114d18960040160000154611639565b6114db9190612f79565b6114e59190612f79565b60028801546114fc906001600160a01b03166116a3565b836117ac565b925050505b600061151285610d64565b8051909150156104c65760005b815181101561133357600086600e01600084848151811061154257611542612eed565b60200260200101516001600160a01b03166001600160a01b031681526020019081526020016000209050600081600001541180611583575060008160030154135b156116305760006115b688600301548860008787815181106115a7576115a7612eed565b60200260200101516001611a1c565b905061162c611625826115cc8560040154611639565b600386015486546115dc90611639565b6115e69190612f79565b6115f09190612f99565b6115fa9190612f79565b61160f87878151811061101657611016612eed565b6110488b89898151811061103957611039612eed565b86906119ee565b9450505b5060010161151f565b60006001600160ff1b038211156113935760405162461bcd60e51b815260206004820152602860248201527f53616665436173743a2076616c756520646f65736e27742066697420696e2061604482015267371034b73a191a9b60c11b606482015260840161138a565b6000816001600160a01b031663313ce5676040518163ffffffff1660e01b8152600401602060405180830381865afa1580156116e3573d6000803e3d6000fd5b505050506040513d601f19601f820116820180604052508101906101469190612fc0565b6000805b84518110156117a157836001600160a01b031685828151811061173057611730612eed565b6020026020010151600001516001600160a01b03160361179957826117725784818151811061176157611761612eed565b602002602001015160600151611791565b84818151811061178457611784612eed565b6020026020010151604001515b915050610225565b60010161170b565b506102228383611c81565b60006102226117bf61109e85600a6130c7565b6117e06117d06402540be400611639565b6117da8887611ca6565b90611ca6565b90611cb2565b60006102226118036117fc6402540be400611639565b8490611ca6565b6117e061181461109e87600a6130c7565b8790611ca6565b8054600090611832906001600160a01b0316611cbe565b6020015192915050565b600061014361184d620186a0611639565b6117e08585611ca6565b6060816000018054806020026020016040519081016040528092919081815260200182805480156118a757602002820191906000526020600020905b815481526020019060010190808311611893575b50505050509050919050565b6118ec6040518060c001604052806000815260200160008152602001600081526020016000815260200160608152602001606081525090565b6101b96120d3565b600080806000198587098587029250828110838203039150508060000361192e57838281611924576119246130d6565b0492505050610225565b8084116119755760405162461bcd60e51b81526020600482015260156024820152744d6174683a206d756c446976206f766572666c6f7760581b604482015260640161138a565b60008486880960026001871981018816978890046003810283188082028403028082028403028082028403028082028403028082028403029081029092039091026000889003889004909101858311909403939093029303949094049190911702949350505050565b600061014383620186a0846118f4565b60006101438284612f79565b606060006102258361091d565b6000610143836001600160a01b03841661245e565b600080611a28876124ce565b90506000611a3588612519565b6040805160c08101909152815481526001820154909190602083019060ff166003811115611a6557611a656130ec565b6003811115611a7657611a766130ec565b815260018201546001600160a01b03610100909104811660208301526002830154811660408301526003830154166060820152600482018054608090920191611abe90612f03565b80601f0160208091040260200160405190810160405280929190818152602001828054611aea90612f03565b8015611b375780601f10611b0c57610100808354040283529160200191611b37565b820191906000526020600020905b815481529060010190602001808311611b1a57829003601f168201915b5050505050815250509050600086611b68576001600160a01b03861660009081526006840160205260409020611b6d565b826002015b8054909150600003611b855760009350505050611c78565b6000611b978984606001516001611707565b9050611ba28161133c565b826001015403611bb9576000945050505050611c78565b8715611c4c576000611bf6611bd18460010154611639565b6117e0611beb611be48760010154611639565b8690612564565b86546117da90611639565b90508615611c37576000611c0c8b8a6000611707565b9050611c2182611c1b8b6116a3565b836117e6565b611c2a90613102565b9650505050505050611c78565b611c4081613102565b95505050505050611c78565b6000611bf6611c5e8460010154611639565b6117e0611beb85611c728860010154611639565b90612564565b95945050505050565b600080611c8d84612570565b905082611c9e578060200151610b99565b519392505050565b6000610143828461311e565b6000610143828461314e565b611cc6612860565b611cce612860565b600080604051602001611d03906020808252600e908201526d4c505f504f4f4c5f434f4e46494760901b604082015260600190565b60408051601f1981840301815291905280516020909101209050611d28828287612603565b611d355750909392505050565b611dd78186604051602001611d7090602080825260129082015271424153455f494e5445524553545f5241544560701b604082015260600190565b60405160208183030381529060405280519060200120604051602001611db2939291909283526001600160a01b03919091166020830152604082015260600190565b604051602081830303815290604052805190602001208361261d90919063ffffffff16565b8352604051611e199082908790611d70906020016020808252601490820152731413d3d317d3125455525112551657d31253525560621b604082015260600190565b836020018181525050611e588186604051602001611d70906020808252600d908201526c4d494e545f4645455f5241544560981b604082015260600190565b836040018181525050611e998186604051602001611d70906020808252600f908201526e52454445454d5f4645455f5241544560881b604082015260600190565b6060840152604051611ede9082908790611d70906020016020808252601490820152731413d3d317d4139317d490551253d7d31253525560621b604082015260600190565b6080840152604051611f2a9082908790611d70906020016020808252818101527f554e534554544c45445f424153455f544f4b454e5f524154494f5f4c494d4954604082015260600190565b60a0840152604051611f839082908790611d709060200160208082526022908201527f554e534554544c45445f535441424c455f544f4b454e5f524154494f5f4c494d604082015261125560f21b606082015260800190565b60c0840152604051611fd19082908790611d70906020016020808252601d908201527f504f4f4c5f535441424c455f544f4b454e5f524154494f5f4c494d4954000000604082015260600190565b60e084015260405161201f9082908790611d70906020016020808252601c908201527f504f4f4c5f535441424c455f544f4b454e5f4c4f53535f4c494d495400000000604082015260600190565b6101008401526040516120c4908290879061205d906020016020808252600c908201526b41535345545f544f4b454e5360a01b604082015260600190565b6040516020818303038152906040528051906020012060405160200161209f939291909283526001600160a01b03919091166020830152604082015260600190565b604051602081830303815290604052805190602001208361263090919063ffffffff16565b61012084015250909392505050565b61210c6040518060c001604052806000815260200160008152602001600081526020016000815260200160608152602001606081525090565b600080604051602001612142906020808252600f908201526e5553445f504f4f4c5f434f4e46494760881b604082015260600190565b6040516020818303038152906040528051906020012090506121c681604051602001612196906020808252601490820152731413d3d317d3125455525112551657d31253525560621b604082015260600190565b60405160208183030381529060405280519060200120604051602001611db2929190918252602082015260400190565b83526040516121ff908290612196906020016020808252600d908201526c4d494e545f4645455f5241544560981b604082015260600190565b83602001818152505061223f81604051602001612196906020808252600f908201526e52454445454d5f4645455f5241544560881b604082015260600190565b8360400181815250506122858160405160200161219690602080825260159082015274155394d1551513115117d490551253d7d312535255605a1b604082015260600190565b60608401526040516122f99082906122c990602001602080825260159082015274535550504f52545f535441424c455f544f4b454e5360581b604082015260600190565b6040516020818303038152906040528051906020012060405160200161209f929190918252602082015260400190565b60808401819052516001600160401b0381111561231857612318612e3f565b604051908082528060200260200182016040528015612341578160200160208202803683370190505b5060a084015260005b8360800151518110156124585761242f828560800151838151811061237157612371612eed565b60200260200101516040516020016123c89060208082526025908201527f535441424c455f544f4b454e535f424f52524f57494e475f494e5445524553546040820152645f5241544560d81b606082015260800190565b6040516020818303038152906040528051906020012060405160200161240a939291909283526001600160a01b03919091166020830152604082015260600190565b604051602081830303815290604052805190602001208461261d90919063ffffffff16565b8460a00151828151811061244557612445612eed565b602090810291909101015260010161234a565b50505090565b6000818152600283016020526040812054801515806124825750612482848461269f565b6101435760405162461bcd60e51b815260206004820152601e60248201527f456e756d657261626c654d61703a206e6f6e6578697374656e74206b65790000604482015260640161138a565b6040805160208101829052601760608201527f78797a2e656c66692e73746f726167652e4d61726b65740000000000000000006080820152908101829052600090819060a001610d45565b6040805160208101829052601760608201527f78797a2e656c66692e73746f726167652e53796d626f6c0000000000000000006080820152908101829052600090819060a001610d45565b60006101438284612f99565b6040805180820190915260008082526020820152600061258e6126be565b604080518082018252600080825260209182018190526001600160a01b038716815260028401825282902082518084019093528054808452600190910154918301919091529192509015806125e557506020810151155b156102255760405163907adecd60e01b815260040160405180910390fd5b6000828152600c8401602052604081206102229083612702565b6000908152602091909152604090205490565b600081815260088301602090815260409182902080548351818402810184019094528084526060939283018282801561269257602002820191906000526020600020905b81546001600160a01b03168152600190910190602001808311612674575b5050505050905092915050565b6000610143838360008181526001830160205260408120541515610143565b6000806040516020016108ff906020808252601c908201527f78797a2e656c66692e73746f726167652e4f7261636c65507269636500000000604082015260600190565b6001600160a01b03811660009081526001830160205260408120541515610143565b6040518061012001604052806060815260200160608152602001606081526020016000815260200160008152602001606081526020016060815260200160008152602001600081525090565b604051806101c0016040528060006001600160a01b031681526020016060815260200160006001600160a01b03168152602001600080191681526020016127b5612823565b815260200160608152602001606081526020016000815260200160008152602001600081526020016000815260200161280f6040518060800160405280600081526020016000815260200160008152602001600081525090565b815260200160008152602001600081525090565b6040518060e00160405280600081526020016000815260200160008152602001600081526020016000815260200160608152602001606081525090565b604051806101400160405280600081526020016000815260200160008152602001600081526020016000815260200160008152602001600081526020016000815260200160008152602001606081525090565b60008083601f8401126128c557600080fd5b5081356001600160401b038111156128dc57600080fd5b6020830191508360208260071b85010111156128f757600080fd5b9250929050565b6000806020838503121561291157600080fd5b82356001600160401b0381111561292757600080fd5b612933858286016128b3565b90969095509350505050565b60008151808452602080850194506020840160005b838110156129795781516001600160a01b031687529582019590820190600101612954565b509495945050505050565b60008151808452602080850194506020840160005b838110156129795781518051885283810151848901526040908101519088015260609096019590820190600101612999565b60008151808452602080850194506020840160005b83811015612979578151875295820195908201906001016129e0565b60008151808452602080850194506020840160005b8381101561297957612a45878351805182526020810151602083015260408101516040830152606081015160608301525050565b6080969096019590820190600101612a11565b6020815260008251610120806020850152612a7761014085018361293f565b91506020850151601f1980868503016040870152612a958483612984565b93506040870151915080868503016060870152612ab284836129cb565b935060608701516080870152608087015160a087015260a08701519150808685030160c0870152612ae384836129cb565b935060c08701519150808685030160e087015250612b0183826129fc565b60e087015161010087810191909152909601519190940152509192915050565b6000815180845260005b81811015612b4757602081850181015186830182015201612b2b565b506000602082860101526020601f19601f83011685010191505092915050565b8051825260208101516020830152604081015160408301526060810151606083015260808101516080830152600060a082015160e060a0850152612bae60e085018261293f565b905060c083015184820360c0860152611c7882826129cb565b60008282518085526020808601955060208260051b8401016020860160005b84811015612c1457601f19868403018952612c02838351612b67565b98840198925090830190600101612be6565b5090979650505050505050565b80516001600160a01b0316825260006102206020830151816020860152612c4a82860182612b21565b9150506040830151612c6760408601826001600160a01b03169052565b506060830151606085015260808301518482036080860152612c898282612b67565b91505060a083015184820360a0860152612ca3828261293f565b91505060c083015184820360c0860152612cbd8282612bc7565b60e0858101519087015261010080860151908701526101208086015190870152610140808601519087015261016080860151805182890152602081015161018089015260408101516101a089015260608101516101c0890152919350915050506101808301516101e08501526101a08301516102008501528091505092915050565b600060208083016020845280855180835260408601915060408160051b87010192506020870160005b82811015612d9657603f19888603018452612d84858351612c21565b94509285019290850190600101612d68565b5092979650505050505050565b80356001600160a01b0381168114612dba57600080fd5b919050565b600080600060408486031215612dd457600080fd5b612ddd84612da3565b925060208401356001600160401b03811115612df857600080fd5b612e04868287016128b3565b9497909650939450505050565b6020815260006101436020830184612c21565b600060208284031215612e3657600080fd5b61014382612da3565b634e487b7160e01b600052604160045260246000fd5b600060808284031215612e6757600080fd5b604051608081018181106001600160401b0382111715612e9757634e487b7160e01b600052604160045260246000fd5b604052612ea383612da3565b8152612eb160208401612da3565b602082015260408301356040820152606083013560608201528091505092915050565b600060208284031215612ee657600080fd5b5051919050565b634e487b7160e01b600052603260045260246000fd5b600181811c90821680612f1757607f821691505b602082108103612f3757634e487b7160e01b600052602260045260246000fd5b50919050565b634e487b7160e01b600052601160045260246000fd5b8082018082111561014657610146612f3d565b8181038181111561014657610146612f3d565b808201828112600083128015821682158216171561124257611242612f3d565b8181036000831280158383131683831282161715612fb957612fb9612f3d565b5092915050565b600060208284031215612fd257600080fd5b815160ff8116811461014357600080fd5b600181815b8085111561301e57816000190482111561300457613004612f3d565b8085161561301157918102915b93841c9390800290612fe8565b509250929050565b60008261303557506001610146565b8161304257506000610146565b816001811461305857600281146130625761307e565b6001915050610146565b60ff84111561307357613073612f3d565b50506001821b610146565b5060208310610133831016604e8410600b84101617156130a1575081810a610146565b6130ab8383612fe3565b80600019048211156130bf576130bf612f3d565b029392505050565b600061014360ff841683613026565b634e487b7160e01b600052601260045260246000fd5b634e487b7160e01b600052602160045260246000fd5b6000600160ff1b820161311757613117612f3d565b5060000390565b80820260008212600160ff1b8414161561313a5761313a612f3d565b818105831482151761014657610146612f3d565b60008261316b57634e487b7160e01b600052601260045260246000fd5b600160ff1b82146000198414161561318557613185612f3d565b50059056fea264697066735822122011e28946f6309f7e42ba4e223c096a0aafdae08e67645602a6524ae309db941264736f6c634300081900336080604052348015600f57600080fd5b50613b1e8061001f6000396000f3fe608060405234801561001057600080fd5b506004361061002b5760003560e01c8063d3e4af2814610030575b600080fd5b61004361003e3660046136f4565b610045565b005b6100576525a2a2a822a960d11b6100d5565b60005a90506100b78383808060200260200160405190810160405280939291908181526020016000905b828210156100ad5761009e60808302860136819003810190613794565b81526020019060010190610081565b505050505061010d565b6100bf610288565b6100c7610367565b6100d081610379565b505050565b6100df33826103a5565b61010a57604051632d7d0e0d60e21b8152336004820152602481018290526044015b60405180910390fd5b50565b60006101176103df565b905060005b82518110156100d05760006001600160a01b031683828151811061014257610142613817565b6020026020010151602001516001600160a01b0316036101e1576101dc83828151811061017157610171613817565b602002602001015160000151604051806040016040528086858151811061019a5761019a613817565b60200260200101516040015181526020018685815181106101bd576101bd613817565b602002602001015160600151815250846104419092919063ffffffff16565b610280565b6102808382815181106101f6576101f6613817565b60200260200101516000015184838151811061021457610214613817565b602002602001015160200151604051806040016040528087868151811061023d5761023d613817565b602002602001015160400151815260200187868151811061026057610260613817565b60200260200101516060015181525085610489909392919063ffffffff16565b60010161011c565b6000610292610506565b905060005b81518110156102ea5760006102c48383815181106102b7576102b7613817565b6020026020010151610526565b60028101549091506102e1906001600160a01b031660008561059c565b50600101610297565b5060006102f5610a7f565b905060005b81518110156103305761032882828151811061031857610318613817565b602002602001015160018561059c565b6001016102fa565b5060005b82518110156100d05761035f83828151811061035257610352613817565b6020026020010151610a96565b600101610334565b6103776103726103df565b611291565b565b60005a6103869083613843565b905060006103943a83613856565b905080156100d0576100d081611388565b6000806103b0611400565b6001600160a01b03851660009081526020829052604090209091506103d59084611444565b9150505b92915050565b600080604051602001610423906020808252601c908201527f78797a2e656c66692e73746f726167652e4f7261636c65507269636500000000604082015260600190565b60408051601f19818403018152919052805160209091012092915050565b61044b838361145f565b61045b576104598383611481565b505b6001600160a01b03909116600090815260029092016020908152604090922081518155910151600190910155565b604080516001600160a01b0385811660208084019190915290851682840152825180830384018152606090920190925280519101206104cb6004860182611444565b6104de576104dc6004860182611496565b505b6000908152600690940160209081526040909420815181559301516001909301929092555050565b606060006105126114a2565b9050610520816002016114e6565b91505090565b6000808260405160200161057d919060408082526017908201527f78797a2e656c66692e73746f726167652e4c70506f6f6c00000000000000000060608201526001600160a01b0391909116602082015260800190565b60408051601f1981840301815291905280516020909101209392505050565b8180156105af57506105ad836114f3565b155b806105c75750811580156105c757506105c7836114f3565b156105d157505050565b6106036040518060a0016040528060608152602001600081526020016060815260200160008152602001600081525090565b815167ffffffffffffffff81111561061d5761061d613769565b604051908082528060200260200182016040528015610646578160200160208202803683370190505b50815260005b825181101561076157600061066c8483815181106102b7576102b7613817565b905084156106b7576001600160a01b0386166000908152600e8201602052604090206003015483518051849081106106a6576106a6613817565b6020026020010181815250506106fc565b60028101546001600160a01b038781169116146106d55760006106db565b60078101545b83518051849081106106ef576106ef613817565b6020026020010181815250505b60008360000151838151811061071457610714613817565b6020026020010151136107275750610759565b825180518390811061073b5761073b613817565b602002602001015183602001818151610754919061386d565b905250505b60010161064c565b5060008160200151136107745750505050565b815167ffffffffffffffff81111561078e5761078e613769565b6040519080825280602002602001820160405280156107b7578160200160208202803683370190505b5060408201526107f16107ec856107cc6114a2565b906001600160a01b03166000908152600691909101602052604090205490565b611528565b6060820181905260208201511315610a795760006108128260600151611596565b61081f8360200151611596565b6108299190613843565b9050808260800181815250506000306001600160a01b0316631f7592ea6040518163ffffffff1660e01b8152600401602060405180830381865afa158015610875573d6000803e3d6000fd5b505050506040513d601f19601f820116820180604052508101906108999190613895565b905060005b8451811015610a755783518051829081106108bb576108bb613817565b602002602001015160000315610a6d5760006108e28683815181106102b7576102b7613817565b9050600186516108f29190613843565b820361092a5784608001518560400151838151811061091357610913613817565b6020908102919091010152600060808601526109bb565b610966846109548760000151858151811061094757610947613817565b6020026020010151611596565b6109618860200151611596565b6115e8565b8560400151838151811061097c5761097c613817565b6020026020010181815250508460400151828151811061099e5761099e613817565b6020026020010151856080018181516109b79190613843565b9052505b86156109f8576109f388866040015184815181106109db576109db613817565b6020026020010151836115fd9092919063ffffffff16565b610a28565b610a2885604001518381518110610a1157610a11613817565b60200260200101518261170a90919063ffffffff16565b610a6a8389888581518110610a3f57610a3f613817565b602002602001015188604001518681518110610a5d57610a5d613817565b60200260200101516117ea565b50505b60010161089e565b5050505b50505050565b60606000610a8b611803565b9050610520816114e6565b6000610aa182610526565b90506000610aae82611847565b90506000815167ffffffffffffffff811115610acc57610acc613769565b604051908082528060200260200182016040528015610af5578160200160208202803683370190505b50905060005b8251811015610ba0576000610b32848381518110610b1b57610b1b613817565b60200260200101518661150a90919063ffffffff16565b9050806004015481600001541015610b665780546004820154610b58916107ec91613843565b610b61906138b2565b610b7a565b60048101548154610b7a916107ec91613843565b838381518110610b8c57610b8c613817565b602090810291909101015250600101610afb565b5060005b8151811015610e2d57818181518110610bbf57610bbf613817565b602002602001015160000315610e25576000828281518110610be357610be3613817565b60200260200101511215610e25576000610c1e838381518110610c0857610c08613817565b6020026020010151610c19906138b2565b611596565b905060005b8351811015610e22576000848281518110610c4057610c40613817565b60200260200101511315610e1a576000610c6585838151811061094757610947613817565b90506000610cf182610c8f898681518110610c8257610c82613817565b6020026020010151611855565b610ca48a8981518110610c8257610c82613817565b610cc88b8881518110610cb957610cb9613817565b602002602001015160016118b9565b610cec8c8b81518110610cdd57610cdd613817565b602002602001015160006118b9565b6118de565b905083811115610d5957839050610d5684610d17898881518110610c8257610c82613817565b610d2c8a8781518110610c8257610c82613817565b610d418b8a81518110610cdd57610cdd613817565b610cec8c8981518110610cb957610cb9613817565b91505b610d6281611528565b868681518110610d7457610d74613817565b6020026020010151610d86919061386d565b868681518110610d9857610d98613817565b602002602001018181525050610dad82611528565b868481518110610dbf57610dbf613817565b6020026020010151610dd191906138ce565b868481518110610de357610de3613817565b6020026020010181815250506000868681518110610e0357610e03613817565b602002602001015112610e17575050610e22565b50505b600101610c23565b50505b600101610ba4565b506000610e38611803565b90506000610e4461194a565b905060005b8351811015610a75576000610e80868381518110610e6957610e69613817565b60200260200101518861150a90919063ffffffff16565b9050848281518110610e9457610e94613817565b6020026020010151600003610f5d57610ed8868381518110610eb857610eb8613817565b60200260200101518260040154600187611965909392919063ffffffff16565b610f24868381518110610eed57610eed613817565b60200260200101518260040154836000015411610f0b576000610f1c565b60048301548354610f1c9190613843565b869190611a5a565b610f4d88878481518110610f3a57610f3a613817565b60200260200101518584600001546117ea565b5060008082556004820155611288565b6000858381518110610f7157610f71613817565b6020026020010151131561113b57610f94868381518110610eb857610eb8613817565b611013868381518110610fa957610fa9613817565b60200260200101518260040154610fcb88868151811061094757610947613817565b8454610fd79190613843565b11610fe3576000610f1c565b8260040154610ffd88868151811061094757610947613817565b84546110099190613843565b610f1c9190613843565b61107b8887848151811061102957611029613817565b60200260200101518561104789878151811061094757610947613817565b8554116110555760006117ea565b61106a89878151811061094757610947613817565b85546110769190613843565b6117ea565b5060006110c48988858151811061109457611094613817565b60200260200101516110b189878151811061094757610947613817565b60028c01546001600160a01b0316611b32565b90506110f88784815181106110db576110db613817565b602002602001015182602001518a611bef9092919063ffffffff16565b6060810151611108908990611ced565b806020015161112287858151811061094757610947613817565b61112c9190613843565b82555060006004820155611288565b60028701548651600091611189918b916001600160a01b0316908a908790811061116757611167613817565b60200260200101516111848a8881518110610c0857610c08613817565b611cfd565b90506111a2816020015189611da690919063ffffffff16565b6111d48784815181106111b7576111b7613817565b602002602001015182606001518a611db29092919063ffffffff16565b6112098784815181106111e9576111e9613817565b60200260200101518360040154600188611965909392919063ffffffff16565b6112588988858151811061121f5761121f613817565b60200260200101518661123d8a8881518110610c0857610c08613817565b6060860151875461124e9190613843565b61107691906138ee565b5061126e868481518110610c0857610c08613817565b816060015161127d9190613843565b825550600060048201555b50600101610e49565b600061129c826114e6565b905060005b81518110156100d0578260020160008383815181106112c2576112c2613817565b60200260200101516001600160a01b03166001600160a01b031681526020019081526020016000206000808201600090556001820160009055505082600301600083838151811061131557611315613817565b60200260200101516001600160a01b03166001600160a01b031681526020019081526020016000206000808201600090556001820160009055505061137f82828151811061136557611365613817565b602002602001015184600001611e7c90919063ffffffff16565b506001016112a1565b60006113926114a2565b9050818160070160008282546113a891906138ee565b909155505060078101547f5425704060c90c62f0083d9ff73df530b982ea5c64c0dab3c7d5da4761a45119906113df908490613843565b60078301546040805192835260208301919091520160405180910390a15050565b600080604051602001610423906020808252601e908201527f78797a2e656c66692e73746f726167652e416363657373436f6e74726f6c0000604082015260600190565b600081815260018301602052604081205415155b9392505050565b6001600160a01b03811660009081526001830160205260408120541515611458565b6000611458836001600160a01b038416611e91565b60006114588383611e91565b600080604051602001610423906020808252601b908201527f78797a2e656c66692e73746f726167652e436f6d6d6f6e446174610000000000604082015260600190565b6060600061145883611ee0565b6000806114fe611803565b9050611458818461145f565b6001600160a01b03166000908152600e919091016020526040902090565b60006001600160ff1b038211156115925760405162461bcd60e51b815260206004820152602860248201527f53616665436173743a2076616c756520646f65736e27742066697420696e2061604482015267371034b73a191a9b60c11b6064820152608401610101565b5090565b6000808212156115925760405162461bcd60e51b815260206004820181905260248201527f53616665436173743a2076616c7565206d75737420626520706f7369746976656044820152606401610101565b60006115f5848484611f3c565b949350505050565b61160a600c84018361145f565b61161d5761161b600c840183611481565b505b600061162882611528565b6001600160a01b0384166000908152600e86016020526040902060038101549192509082131561169a5760405162461bcd60e51b815260206004820152601d60248201527f736574746c6520737461626c6520746f6b656e206f766572666c6f77210000006044820152606401610101565b84546000906116b3906001600160a01b03168684612026565b9050828260030160008282546116c991906138ce565b90915550508154849083906000906116e29084906138ee565b90915550506003820154610140820152815460e082015261170281612128565b505050505050565b600061171582611528565b9050808360040160030154121561176e5760405162461bcd60e51b815260206004820152601b60248201527f736574746c65206261736520746f6b656e206f766572666c6f772100000000006044820152606401610101565b82546002840154600091611792916001600160a01b03918216911660048701612026565b9050818460040160030160008282546117ab91906138ce565b90915550506004840180548491906000906117c79084906138ee565b90915550506007840154610140820152600484015460e0820152610a7981612128565b60006117fa858585856000612219565b95945050505050565b6000806040516020016104239060208082526018908201527f78797a2e656c66692e73746f726167652e557364506f6f6c0000000000000000604082015260600190565b60606103d982600c016114e6565b6000816001600160a01b031663313ce5676040518163ffffffff1660e01b8152600401602060405180830381865afa158015611895573d6000803e3d6000fd5b505050506040513d601f19601f820116820180604052508101906103d99190613901565b6000806118c584612363565b9050826118d65780602001516103d5565b519392505050565b60008460ff168460ff16106119265761191f826119196118fe8888613924565b61190990600a613a21565b6119138a886123f6565b906123f6565b90612402565b90506117fa565b61191f6119338587613924565b61193e90600a613a21565b61191984818a886123f6565b6000806119556114a2565b546001600160a01b031692915050565b61196f848461145f565b61197f5761197d8484611481565b505b6001600160a01b038316600090815260028086016020526040909120908101548311156119f95760405162461bcd60e51b815260206004820152602260248201527f7855736420736574746c6520737461626c6520746f6b656e206f766572666c6f604482015261772160f01b6064820152608401610101565b6000611a05858361240e565b905083826002016000828254611a1b9190613843565b9091555050600282015460c08201528215611a515783826000016000828254611a4491906138ee565b9091555050815460808201525b611702816124b1565b611a64838361145f565b611ab05760405162461bcd60e51b815260206004820152601b60248201527f737461626c6520746f6b656e206e6f7420737570706f727465642100000000006044820152606401610101565b6001600160a01b03821660009081526002840160205260408120611ad590849061240e565b6001600160a01b0384166000908152600286016020526040812080549293508492909190611b049084906138ee565b90915550506001600160a01b03831660009081526002850160205260409020546080820152610a79816124b1565b611b3a613639565b6000611b6884611b4987611855565b611b5286611855565b611b5d8960016118b9565b610cec8860006118b9565b9050611b8081611b76612539565b6101e00151612bc9565b611b8a9082613843565b9050611be56040518060c00160405280886001600160a01b03168152602001876001600160a01b03168152602001868152602001838152602001856001600160a01b03168152602001886001600160a01b0316815250612bd9565b9695505050505050565b82546001600160a01b038381166000908152600e8601602052604081209092611c1b9216908590612026565b6001600160a01b0384166000908152600e86016020526040812080549293508492909190611c4a908490613843565b90915550506001600160a01b0383166000818152600e86016020818152604083205460e086018190529383525203611ce457611c89600c850184611e7c565b506001600160a01b0383166000908152600e85016020526040812081815560018101829055600281018290556003810182905560048101829055906005820181818181818181611cd98282613673565b505050505050505050505b610a7981612128565b611cf982826001612d5a565b5050565b611d05613639565b6000611d3383611d1486611855565b611d1d88611855565b611d288860016118b9565b610cec8a60006118b9565b9050611d4181611b76612539565b611d4b90826138ee565b9050611be56040518060c00160405280886001600160a01b03168152602001876001600160a01b03168152602001838152602001858152602001866001600160a01b03168152602001886001600160a01b0316815250612bd9565b611cf982826001612dd6565b82546001600160a01b038381166000908152600e8601602052604081209092611dde9216908590612026565b9050611ded600c85018461145f565b15611e27576001600160a01b0383166000908152600e8501602052604081208054849290611e1c9084906138ee565b90915550611e539050565b611e34600c850184611481565b506001600160a01b0383166000908152600e8501602052604090208290555b6001600160a01b0383166000908152600e8501602052604090205460e0820152610a7981612128565b6000611458836001600160a01b038416612e94565b6000818152600183016020526040812054611ed8575081546001818101845560008481526020808220909301849055845484825282860190935260409020919091556103d9565b5060006103d9565b606081600001805480602002602001604051908101604052809291908181526020018280548015611f3057602002820191906000526020600020905b815481526020019060010190808311611f1c575b50505050509050919050565b6000808060001985870985870292508281108382030391505080600003611f7657838281611f6c57611f6c613a30565b0492505050611458565b808411611fbd5760405162461bcd60e51b81526020600482015260156024820152744d6174683a206d756c446976206f766572666c6f7760581b6044820152606401610101565b60008486880960026001871981018816978890046003810283188082028403028082028403028082028403028082028403028082028403029081029092039091026000889003889004909101858311909403939093029303949094049190911702949350505050565b6120a3604051806101a0016040528060006001600160a01b0316815260200160006001600160a01b0316815260200160008152602001600081526020016000815260200160008152602001600081526020016000815260200160008152602001600081526020016000815260200160008152602001600081525090565b6001600160a01b03808516825283166020820152815460408201819052600183015460608301819052600284015460808401819052600385015460a08501819052600486015460c0860181905260e086019490945261010085019290925261012084015261014083015261016082015261211b612f8e565b6101808201529392505050565b7f3c20d1ba6bcc5e5bd62d967908bf1ce684e6b52dbaab9f84ebfbf1b184b46bf8816000015182602001518360400151846060015185608001518660a001518760c001518860e001518961010001518a61012001518b61014001518c61016001518d610180015160405161220e9d9c9b9a999897969594939291906001600160a01b039d8e1681529b909c1660208c015260408b019990995260608a0197909752608089019590955260a088019390935260c087019190915260e08601526101008501526101208401526101408301526101608201526101808101919091526101a00190565b60405180910390a150565b60008260000361222b575060006117fa565b6040516370a0823160e01b81526001600160a01b038781166004830152600091908716906370a0823190602401602060405180830381865afa158015612275573d6000803e3d6000fd5b505050506040513d601f19601f820116820180604052508101906122999190613a46565b90508381106123165760405163078d3b7960e01b81526001600160a01b03878116600483015286811660248301526044820186905288169063078d3b7990606401600060405180830381600087803b1580156122f457600080fd5b505af1158015612308573d6000803e3d6000fd5b5050505060019150506117fa565b8261235657604051635ac09ed760e11b81526001600160a01b03808916600483015280881660248301528616604482015260648101859052608401610101565b5060009695505050505050565b604080518082019091526000808252602082015260006123816103df565b604080518082018252600080825260209182018190526001600160a01b038716815260028401825282902082518084019093528054808452600190910154918301919091529192509015806123d857506020810151155b156114585760405163907adecd60e01b815260040160405180910390fd5b60006114588284613856565b60006114588284613a5f565b61245f60405180610100016040528060006001600160a01b03168152602001600081526020016000815260200160008152602001600081526020016000815260200160008152602001600081525090565b6001600160a01b0383168152815460208201819052600183015460408301819052600284015460608401819052608084019290925260a083015260c08201526124a6612f8e565b60e082015292915050565b805160208083015160408085015160608087015160808089015160a0808b015160c0808d015160e0808f01518b516001600160a01b03909f168f529c8e019b909b52988c0197909752948a0193909352908801528601528401528201527f217ba1d63771ad2228865ab2d862a89115d536eabbe8315c584eafe090d7f422906101000161220e565b6125b9604051806102000160405280606081526020016060815260200160008152602001600081526020016000815260200160008152602001600081526020016000815260200160008152602001600081526020016000815260200160008152602001600081526020016000815260200160008152602001600081525090565b6000806040516020016125ec906020808252600c908201526b54524144455f434f4e46494760a01b604082015260600190565b60405160208183030381529060405280519060200120905061268d81604051602001612638906020808252600c908201526b54524144455f544f4b454e5360a01b604082015260600190565b60405160208183030381529060405280519060200120604051602001612668929190918252602082015260400190565b604051602081830303815290604052805190602001208361301490919063ffffffff16565b8084525167ffffffffffffffff8111156126a9576126a9613769565b6040519080825280602002602001820160405280156126e257816020015b6126cf613691565b8152602001906001900390816126c75790505b50602084015260005b8351518110156127445761271b8460000151828151811061270e5761270e613817565b6020026020010151613083565b8460200151828151811061273157612731613817565b60209081029190910101526001016126eb565b506127d6816040516020016127819060208082526014908201527313525397d3d491115497d3505491d25397d554d160621b604082015260600190565b604051602081830303815290604052805190602001206040516020016127b1929190918252602082015260400190565b604051602081830303815290604052805190602001208361340090919063ffffffff16565b83604001818152505061282481604051602001612781906020808252601a908201527f415641494c41424c455f434f4c4c41544552414c5f524154494f000000000000604082015260600190565b6060840152604051612862908290612781906020016020808252600f908201526e10d493d4d4d7d3151597d312535255608a1b604082015260600190565b60808401526040516128ae908290612781906020016020808252601b908201527f4d41585f4d41494e54454e414e43455f4d415247494e5f524154450000000000604082015260600190565b60a08401526040516128f29082906127819060200160208082526015908201527446554e44494e475f4645455f424153455f5241544560581b604082015260600190565b60c0840152604051612936908290612781906020016020808252601590820152744d41585f46554e44494e475f424153455f5241544560581b604082015260600190565b60e084015260405161298c9082906127819060200160208082526021908201527f54524144494e475f4645455f5354414b494e475f524557415244535f524154496040820152604f60f81b606082015260800190565b6101008401526040516129d9908290612781906020016020808252601e908201527f54524144494e475f4645455f504f4f4c5f524557415244535f524154494f0000604082015260600190565b610120840152604051612a319082906127819060200160208082526022908201527f54524144494e475f4645455f5553445f504f4f4c5f524557415244535f524154604082015261494f60f01b606082015260800190565b610140840152604051612a8a9082906127819060200160208082526023908201527f424f52524f57494e475f4645455f5354414b494e475f524557415244535f524160408201526254494f60e81b606082015260800190565b610160840152604051612ad5908290612781906020016020808252818101527f424f52524f57494e475f4645455f504f4f4c5f524557415244535f524154494f604082015260600190565b610180840152604051612b229082906127819060200160208082526019908201527f4155544f5f5245445543455f50524f4649545f464143544f5200000000000000604082015260600190565b6101a0840152604051612b6f908290612781906020016020808252601c908201527f4155544f5f5245445543455f4c49515549444954595f464143544f5200000000604082015260600190565b6101c0840152604051612bbc9082906127819060200160208082526019908201527f535741505f534c49505045525f544f4b454e5f464143544f5200000000000000604082015260600190565b6101e08401525090919050565b60006114588383620186a0611f3c565b612be1613639565b60208201516001600160a01b03908116825260808301511660408201526000612c08613413565b9050612c24836000015184602001513086604001516000612219565b50612c3883602001518285604001516134e7565b60408051610100810182526020808601516001600160a01b0390811683526080808801518216928401928352610bb884860190815260a0808a015184166060808801918252429488019485528b8901519288019283528b015160c08801908152600060e08901818152995163414bf38960e01b8152895188166004820152975187166024890152935162ffffff166044880152905185166064870152925160848601525160a4850152905160c48401529351811660e483015291929184169063414bf38990610104016020604051808303816000875af1158015612d20573d6000803e3d6000fd5b505050506040513d601f19601f82011682018060405250810190612d449190613a46565b6060850152505050604090910151602082015290565b8015612db55782546002840154600091612d84916001600160a01b03918216911660048701612026565b905082846004016000016000828254612d9d91906138ee565b9091555050600484015460e0820152610a7981612128565b81836004016000016000828254612dcc91906138ee565b9091555050505050565b6004830154821115612e3a5760405162461bcd60e51b815260206004820152602760248201527f6261736520746f6b656e20616d6f756e74206c657373207468616e2073756220604482015266616d6f756e742160c81b6064820152608401610101565b8015612e7d5782546002840154600091612e64916001600160a01b03918216911660048701612026565b905082846004016000016000828254612d9d9190613843565b81836004016000016000828254612dcc9190613843565b60008181526001830160205260408120548015612f7d576000612eb8600183613843565b8554909150600090612ecc90600190613843565b9050818114612f31576000866000018281548110612eec57612eec613817565b9060005260206000200154905080876000018481548110612f0f57612f0f613817565b6000918252602080832090910192909255918252600188019052604090208390555b8554869080612f4257612f42613a81565b6001900381819060005260206000200160009055905585600101600086815260200190815260200160002060009055600193505050506103d9565b60009150506103d9565b5092915050565b600061a4b1461480612fa2575062066eee46145b1561300f5760646001600160a01b031663a3b1b31d6040518163ffffffff1660e01b8152600401602060405180830381865afa158015612fe6573d6000803e3d6000fd5b505050506040513d601f19601f8201168201806040525081019061300a9190613a46565b905090565b504390565b600081815260088301602090815260409182902080548351818402810184019094528084526060939283018282801561307657602002820191906000526020600020905b81546001600160a01b03168152600190910190602001808311613058575b5050505050905092915050565b61308b613691565b613093613691565b6000806040516020016130cc9060208082526012908201527154524144455f544f4b454e5f434f4e46494760701b604082015260600190565b60408051601f19818403018152919052805160209091012090506130f18282876135e7565b6130fe5750909392505050565b6131a3818660405160200161313c906020808252601590820152741254d7d4d5541413d49517d0d3d313105511549053605a1b604082015260600190565b6040516020818303038152906040528051906020012060405160200161317e939291909283526001600160a01b03919091166020830152604082015260600190565b604051602081830303815290604052805190602001208361360190919063ffffffff16565b1515835260405161321e90829087906131dc90602001602080825260099082015268282922a1a4a9a4a7a760b91b604082015260600190565b604051602081830303815290604052805190602001206040516020016127b1939291909283526001600160a01b03919091166020830152604082015260600190565b83602001818152505061325881866040516020016131dc90602080825260089082015267111254d0d3d5539560c21b604082015260600190565b83604001818152505061329d81866040516020016131dc906020808252601390820152720434f4c4c41544552414c5f555345525f43415606c1b604082015260600190565b60608401526040516132e290829087906131dc906020016020808252601490820152730434f4c4c41544552414c5f544f54414c5f4341560641b604082015260600190565b608084015260405161332590829087906131dc9060200160208082526012908201527104c494142494c4954595f555345525f4341560741b604082015260600190565b60a084015260405161336990829087906131dc9060200160208082526013908201527204c494142494c4954595f544f54414c5f43415606c1b604082015260600190565b60c08401526040516133ae90829087906131dc9060200160208082526014908201527324a72a22a922a9aa2fa920aa22afa320a1aa27a960611b604082015260600190565b60e08401526040516133f190829087906131dc906020016020808252601290820152712624a8aaa4a220aa24a7a72fa320a1aa27a960711b604082015260600190565b61010084015250909392505050565b6000908152602091909152604090205490565b60008061052060405160200161344a906020808252600d908201526c434f4d4d4f4e5f434f4e46494760981b604082015260600190565b60405160208183030381529060405280519060200120604051602001613492906020808252600e908201526d2aa724a9aba0a82fa927aaaa22a960911b604082015260600190565b604051602081830303815290604052805190602001206040516020016134c2929190918252602082015260400190565b604051602081830303815290604052805190602001208261361a90919063ffffffff16565b604080516001600160a01b038481166024830152604480830185905283518084039091018152606490920183526020820180516001600160e01b031663095ea7b360e01b17905291516000928392908716916135439190613a97565b6000604051808303816000865af19150503d8060008114613580576040519150601f19603f3d011682016040523d82523d6000602084013e613585565b606091505b50915091508180156135af5750805115806135af5750808060200190518101906135af9190613ac6565b6135e05760405162461bcd60e51b8152602060048201526002602482015261534160f01b6044820152606401610101565b5050505050565b6000828152600c8401602052604081206115f5908361145f565b6000908152600391909101602052604090205460ff1690565b600090815260029190910160205260409020546001600160a01b031690565b604051806080016040528060006001600160a01b031681526020016000815260200160006001600160a01b03168152602001600081525090565b508054600082559060005260206000209081019061010a91906136df565b60405180610120016040528060001515815260200160008152602001600081526020016000815260200160008152602001600081526020016000815260200160008152602001600081525090565b5b8082111561159257600081556001016136e0565b6000806020838503121561370757600080fd5b823567ffffffffffffffff8082111561371f57600080fd5b818501915085601f83011261373357600080fd5b81358181111561374257600080fd5b8660208260071b850101111561375757600080fd5b60209290920196919550909350505050565b634e487b7160e01b600052604160045260246000fd5b6001600160a01b038116811461010a57600080fd5b6000608082840312156137a657600080fd5b6040516080810181811067ffffffffffffffff821117156137d757634e487b7160e01b600052604160045260246000fd5b60405282356137e58161377f565b815260208301356137f58161377f565b6020820152604083810135908201526060928301359281019290925250919050565b634e487b7160e01b600052603260045260246000fd5b634e487b7160e01b600052601160045260246000fd5b818103818111156103d9576103d961382d565b80820281158282048414176103d9576103d961382d565b808201828112600083128015821682158216171561388d5761388d61382d565b505092915050565b6000602082840312156138a757600080fd5b81516114588161377f565b6000600160ff1b82016138c7576138c761382d565b5060000390565b8181036000831280158383131683831282161715612f8757612f8761382d565b808201808211156103d9576103d961382d565b60006020828403121561391357600080fd5b815160ff8116811461145857600080fd5b60ff82811682821603908111156103d9576103d961382d565b600181815b8085111561397857816000190482111561395e5761395e61382d565b8085161561396b57918102915b93841c9390800290613942565b509250929050565b60008261398f575060016103d9565b8161399c575060006103d9565b81600181146139b257600281146139bc576139d8565b60019150506103d9565b60ff8411156139cd576139cd61382d565b50506001821b6103d9565b5060208310610133831016604e8410600b84101617156139fb575081810a6103d9565b613a05838361393d565b8060001904821115613a1957613a1961382d565b029392505050565b600061145860ff841683613980565b634e487b7160e01b600052601260045260246000fd5b600060208284031215613a5857600080fd5b5051919050565b600082613a7c57634e487b7160e01b600052601260045260246000fd5b500490565b634e487b7160e01b600052603160045260246000fd5b6000825160005b81811015613ab85760208186018101518583015201613a9e565b506000920191825250919050565b600060208284031215613ad857600080fd5b8151801515811461145857600080fdfea2646970667358221220896420d37fe2a0cf44e1c527b267dfa636dfda52a5227407234f71e1c7effa2664736f6c634300081900336080604052348015600f57600080fd5b506171518061001f6000396000f3fe6080604052600436106100a75760003560e01c8063943144b711610064578063943144b71461019b578063ada56365146101ae578063b9ee8073146101db578063bc8f47c5146101fb578063e9e6741f1461021b578063ed3bb1471461023b57600080fd5b806351ebcaad146100ac57806355be18cb146100df5780635b9e52be146100ff5780635c99abaa1461012c5780637ad18303146101595780639084692c14610179575b600080fd5b3480156100b857600080fd5b506100cc6100c736600461686f565b61025b565b6040519081526020015b60405180910390f35b3480156100eb57600080fd5b506100cc6100fa36600461686f565b610270565b34801561010b57600080fd5b5061011f61011a3660046168a8565b61027c565b6040516100d691906169f0565b34801561013857600080fd5b5061014c610147366004616a54565b61033c565b6040516100d69190616a98565b34801561016557600080fd5b506100cc610174366004616a54565b610362565b34801561018557600080fd5b50610199610194366004616aa6565b61036d565b005b6101996101a9366004616b25565b6104cf565b3480156101ba57600080fd5b506101ce6101c9366004616a54565b6104de565b6040516100d69190616b51565b3480156101e757600080fd5b506100cc6101f636600461686f565b6104ef565b34801561020757600080fd5b506100cc610216366004616b64565b6104fb565b34801561022757600080fd5b50610199610236366004616aa6565b610507565b34801561024757600080fd5b50610199610256366004616b89565b61058f565b60006102678383610633565b90505b92915050565b60006102678383610653565b606060008267ffffffffffffffff81111561029957610299616bab565b6040519080825280602002602001820160405280156102d257816020015b6102bf6167db565b8152602001906001900390816102b75790505b50905060005b838110156103345761030f8585838181106102f5576102f5616bc1565b905060200201602081019061030a9190616a54565b610685565b82828151811061032157610321616bc1565b60209081029190910101526001016102d8565b509392505050565b604080516060810182526000808252602082018190529181019190915261026a826109bb565b600061026a82610b1a565b60005a90506103846525a2a2a822a960d11b610b3a565b600061038f85610b72565b80519091506001600160a01b03166103ba57604051630749e2d560e11b815260040160405180910390fd5b6104158484808060200260200160405190810160405280939291908181526020016000905b8282101561040b576103fc60808302860136819003810190616bd7565b815260200190600101906103df565b5050505050610bdd565b61041f8582610d5d565b6104276110b7565b6104c86040518060a00160405280306001600160a01b0316631f7592ea6040518163ffffffff1660e01b8152600401602060405180830381865afa158015610473573d6000803e3d6000fd5b505050506040513d601f19601f820116820180604052508101906104979190616c5a565b6001600160a01b039081168252604080860151602084015282018690523360608301528451166080909101526110c9565b5050505050565b6104da338383611172565b5050565b6104e66167db565b61026a82610685565b6000610267838361130b565b60006102678383611334565b60005a905061051e6525a2a2a822a960d11b610b3a565b61056f8383808060200260200160405190810160405280939291908181526020016000905b8282101561040b5761056060808302860136819003810190616bd7565b81526020019060010190610543565b61057884611368565b6105806110b7565b6105898161171e565b50505050565b60005a90506105a66525a2a2a822a960d11b610b3a565b60006105b184610b72565b80519091506001600160a01b03166105dc57604051630749e2d560e11b815260040160405180910390fd5b6105e784828561174a565b6105896040518060a00160405280306001600160a01b0316631f7592ea6040518163ffffffff1660e01b8152600401602060405180830381865afa158015610473573d6000803e3d6000fd5b60008061063f84611792565b905061064b81846117cb565b949350505050565b6000807fb31b5831e77ebf4a20e050d886d24b00d24f44760e3342d08fb455df41d4aafa5b905061064b8185856117ea565b61068d6167db565b600061069883611812565b905060006106a582611888565b90506106af6167db565b6001600160a01b038516815260208101829052815167ffffffffffffffff8111156106dc576106dc616bab565b604051908082528060200260200182016040528015610705578160200160208202803683370190505b506040820152815167ffffffffffffffff81111561072557610725616bab565b60405190808252806020026020018201604052801561074e578160200160208202803683370190505b50606082015260005b82518110156109b257600061078484838151811061077757610777616bc1565b6020026020010151611792565b905060006107b485848151811061079d5761079d616bc1565b60200260200101518761189690919063ffffffff16565b905060008584815181106107ca576107ca616bc1565b60209081029190910101516040516370a0823160e01b81526001600160a01b038b81166004830152909116906370a0823190602401602060405180830381865afa15801561081c573d6000803e3d6000fd5b505050506040513d601f19601f820116820180604052508101906108409190616c77565b905085848151811061085457610854616bc1565b60200260200101516001600160a01b031661086d6118b4565b6001600160a01b03161480610880575080155b1561088d575050506109aa565b60006108b18786815181106108a4576108a4616bc1565b60200260200101516118cf565b6002810154604088015180519293506001600160a01b0390911691879081106108dc576108dc616bc1565b60200260200101906001600160a01b031690816001600160a01b0316815250506000836001015411801561092a575061091484611926565b600184015460078601546109289190616ca6565b115b15610975576109528360010154610942866007015490565b61094c9190616ca6565b83611971565b8660600151868151811061096857610968616bc1565b6020026020010181815250505b8254606087015180518790811061098e5761098e616bc1565b602002602001018181516109a29190616cb9565b905250505050505b600101610757565b50949350505050565b60408051606081018252600080825260208201819052918101829052906109e183611812565b905060006109ed6118b4565b905060006109fb8383611896565b90506000610a0883611792565b6040516370a0823160e01b81526001600160a01b0388811660048301529192506000918516906370a0823190602401602060405180830381865afa158015610a54573d6000803e3d6000fd5b505050506040513d601f19601f82011682018060405250810190610a789190616c77565b835460018501549192509015801590610aab5750610a9583611926565b60018501546007850154610aa99190616ca6565b115b15610ae057610ad38460010154610ac3856007015490565b610acd9190616ca6565b83611986565b610add9082616cb9565b90505b6040518060600160405280896001600160a01b03168152602001866001600160a01b03168152602001828152509650505050505050919050565b600080610b2683611792565b9050610b33816007015490565b9392505050565b610b443382611992565b610b6f57604051632d7d0e0d60e21b8152336004820152602481018290526044015b60405180910390fd5b50565b6040805160608101825260008082526020820181905291810182905290610b976119c2565b60009384526020908152604093849020845160608101865281546001600160a01b0390811682526001830154169281019290925260020154938101939093525090919050565b6000610be7611a24565b905060005b8251811015610d585760006001600160a01b0316838281518110610c1257610c12616bc1565b6020026020010151602001516001600160a01b031603610cb157610cac838281518110610c4157610c41616bc1565b6020026020010151600001516040518060400160405280868581518110610c6a57610c6a616bc1565b6020026020010151604001518152602001868581518110610c8d57610c8d616bc1565b60200260200101516060015181525084611a689092919063ffffffff16565b610d50565b610d50838281518110610cc657610cc6616bc1565b602002602001015160000151848381518110610ce457610ce4616bc1565b6020026020010151602001516040518060400160405280878681518110610d0d57610d0d616bc1565b6020026020010151604001518152602001878681518110610d3057610d30616bc1565b60200260200101516060015181525085611ab0909392919063ffffffff16565b600101610bec565b505050565b80516000610d69611b2d565b90506000610d7683611812565b905060008083516001610d899190616cb9565b67ffffffffffffffff811115610da157610da1616bab565b604051908082528060200260200182016040528015610dca578160200160208202803683370190505b509050600084516001610ddd9190616cb9565b67ffffffffffffffff811115610df557610df5616bab565b604051908082528060200260200182016040528015610e1e578160200160208202803683370190505b50905060005b8551811015610f4a576000868281518110610e4157610e41616bc1565b6020026020010151905080848381518110610e5e57610e5e616bc1565b60200260200101906001600160a01b031690816001600160a01b0316815250506000610e8982611792565b9050610e958983611b4d565b610e9f8783611896565b8054909650600003610eb2575050610f42565b6000610ebd836118cf565b905060008760000154905080868681518110610edb57610edb616bc1565b6020908102919091010152610ef08282611cd0565b80826015016000828254610f049190616cb9565b90915550506002820154610f249085906001600160a01b03168d84611cdc565b506000885560078301546001890155610f3d8985611cf5565b505050505b600101610e24565b50610f5c86610f576118b4565b611b4d565b610f6e610f676118b4565b8590611896565b92506000610f9b8460000154610f878a60200151611d6a565b610f968b602001516000611dce565b611df3565b9050610fa56118b4565b8360018551610fb49190616ca6565b81518110610fc457610fc4616bc1565b60200260200101906001600160a01b031690816001600160a01b031681525050808260018451610ff49190616ca6565b8151811061100457611004616bc1565b602002602001018181525050600061101a611e18565b60208a015190915061102e90829084611e5c565b8454600582018054600090611044908490616cb9565b9091555061106190506110556118b4565b8a602001518a85611cdc565b506000855561106f8a611f40565b897f1381421ebd7b09002a5190c7991c752f85090332455b3788c74243749ff0839c8a86866040516110a393929190616ccc565b60405180910390a250505050505050505050565b6110c76110c2611a24565b611f78565b565b60005a82604001516110db9190616ca6565b905060006110e93a83616d30565b90506000808460200151831115611112576020850151925061110b8380616ca6565b9050611125565b8285602001516111229190616ca6565b91505b84516111409061113361206f565b5160208801513090611cdc565b5061114f85606001518461247f565b81156111635761116385608001518361247f565b80156104c8576104c8816124f1565b61117b82612562565b61119857604051630e3acbdd60e11b815260040160405180910390fd5b60006111a261206f565b90506111b382826101000151612579565b8134146112125760405162461bcd60e51b815260206004820152602760248201527f636c61696d2072657761726473207769746820657865637574696f6e20666565604482015266206572726f722160c81b6064820152608401610b66565b6040805160a0810182526001600160a01b0386811682528351166020820152908101839052600060608201526001608082015261124e906125a3565b50600061127a7f70a4fe736d969a4f05689bca1d0942cf6c61e8aa014001ecac1eaaef91288fbf61283e565b905060006112878261289e565b80546001600160a01b038881166001600160a01b031992831681178455600184018054928a1692909316821790925560028301879055604080519283526020830191909152810186905290915082907fbad2f8e942f778318f75b73346979a17cb63f605bd65b56c472edb8f7d9508409060600160405180910390a2505050505050565b6000807fb31b5831e77ebf4a20e050d886d24b00d24f44760e3342d08fb455df41d4ab01610678565b60008281527fb31b5831e77ebf4a20e050d886d24b00d24f44760e3342d08fb455df41d4aaf860205260408120819061063f565b60006113726128ba565b90506000815160016113849190616cb9565b67ffffffffffffffff81111561139c5761139c616bab565b6040519080825280602002602001820160405280156113c5578160200160208202803683370190505b5090506113d061291c565b60005b8251811015611552576113fe8382815181106113f1576113f1616bc1565b6020026020010151612a2a565b60010160019054906101000a90046001600160a01b031682828151811061142757611427616bc1565b60200260200101906001600160a01b031690816001600160a01b0316815250506114b661149784838151811061145f5761145f616bc1565b602002602001015160009081527fb31b5831e77ebf4a20e050d886d24b00d24f44760e3342d08fb455df41d4aaf86020526040902090565b8383815181106114a9576114a9616bc1565b6020026020010151612a75565b6114ce61149783838151811061077757610777616bc1565b6114eb6114e68383815181106108a4576108a4616bc1565b612b95565b61152783828151811061150057611500616bc1565b602002602001015183838151811061151a5761151a616bc1565b6020026020010151612c1f565b61154a82828151811061153c5761153c616bc1565b602002602001015185612fd2565b6001016113d3565b5061155b6118b4565b816001835161156a9190616ca6565b8151811061157a5761157a616bc1565b60200260200101906001600160a01b031690816001600160a01b0316815250506115de6115bf82600184516115af9190616ca6565b8151811061077757610777616bc1565b82600184516115ce9190616ca6565b815181106114a9576114a9616bc1565b61160e81600183516115f09190616ca6565b8151811061160057611600616bc1565b602002602001015184612fd2565b6000815167ffffffffffffffff81111561162a5761162a616bab565b60405190808252806020026020018201604052801561167f57816020015b61166c60405180606001604052806000815260200160008152602001600081525090565b8152602001906001900390816116485790505b50905060005b600183516116939190616ca6565b8110156116e1576116bc8382815181106116af576116af616bc1565b602002602001015161311a565b8282815181106116ce576116ce616bc1565b6020908102919091010152600101611685565b506116ea61323d565b81600184516116f99190616ca6565b8151811061170957611709616bc1565b6020026020010181905250610589828261339d565b60005a61172b9083616ca6565b905060006117393a83616d30565b90508015610d5857610d58816124f1565b61175383611f40565b827f3a2ec715986e6d399c73e79ec1979502be4b77464b993f1a1bdaafbac8bc35058383604051611785929190616d5d565b60405180910390a2505050565b6001600160a01b031660009081527fb31b5831e77ebf4a20e050d886d24b00d24f44760e3342d08fb455df41d4aaf96020526040902090565b6001600160a01b03166000908152600291909101602052604090205490565b6000806117f784846133ce565b60009081526002860160205260409020549150509392505050565b6000808260405160200161186991906040808252601f908201527f78797a2e656c66692e73746f726167652e5374616b696e674163636f756e740060608201526001600160a01b0391909116602082015260800190565b60408051601f1981840301815291905280516020909101209392505050565b606061026a8260010161345b565b6001600160a01b031660009081526004919091016020526040902090565b6000806118bf613468565b546001600160a01b031692915050565b60008082604051602001611869919060408082526017908201527f78797a2e656c66692e73746f726167652e4c70506f6f6c00000000000000000060608201526001600160a01b0391909116602082015260800190565b6000805b600883015481101561196b5782600801818154811061194b5761194b616bc1565b9060005260206000200154826119619190616cb9565b915060010161192a565b50919050565b60006102678383670de0b6b3a76400006134ac565b60006102678383613596565b60008061199d6135a2565b6001600160a01b038516600090815260208290526040902090915061064b90846135e6565b600080604051602001611a06906020808252601d908201527f78797a2e656c66692e73746f726167652e436c61696d52657761726473000000604082015260600190565b60408051601f19818403018152919052805160209091012092915050565b600080604051602001611a06906020808252601c908201527f78797a2e656c66692e73746f726167652e4f7261636c65507269636500000000604082015260600190565b611a7283836135fe565b611a8257611a808383613620565b505b6001600160a01b03909116600090815260029092016020908152604090922081518155910151600190910155565b604080516001600160a01b038581166020808401919091529085168284015282518083038401815260609092019092528051910120611af260048601826135e6565b611b0557611b036004860182613635565b505b6000908152600690940160209081526040909420815181559301516001909301929092555050565b60606000611b39613468565b9050611b478160020161345b565b91505090565b6000611b5883611812565b90506000611b668284611896565b90506000611b7384611792565b9050611b80816007015490565b826001015403611b91575050505050565b6040516370a0823160e01b81526001600160a01b038681166004830152600091908616906370a0823190602401602060405180830381865afa158015611bdb573d6000803e3d6000fd5b505050506040513d601f19601f82011682018060405250810190611bff9190616c77565b9050600081118015611c2b5750611c1582611926565b60018401546007840154611c299190616ca6565b115b15611cb457611c386118b4565b6001600160a01b0316856001600160a01b031614611c7857611c738360010154611c63846007015490565b611c6d9190616ca6565b82611971565b611c9b565b611c9b8360010154611c8b846007015490565b611c959190616ca6565b82611986565b836000016000828254611cae9190616cb9565b90915550505b60078201546001840155611cc88486611cf5565b505050505050565b6104da82826001613641565b6000611cec858585856000613721565b95945050505050565b81546001600160a01b038281166000818152600486016020908152604091829020805460019091015483519590961685529084019290925282015260608101919091527f6c91b1f647ea3a524740e83eb44a468110c48521ee1961bb3bf2f0872a04dd6c906080015b60405180910390a15050565b6000816001600160a01b031663313ce5676040518163ffffffff1660e01b8152600401602060405180830381865afa158015611daa573d6000803e3d6000fd5b505050506040513d601f19601f8201168201806040525081019061026a9190616d78565b600080611dda84613863565b905082611deb57806020015161064b565b519392505050565b600061064b84611e0485600a616e7f565b611e13856402540be400613596565b6134ac565b600080604051602001611a069060208082526018908201527f78797a2e656c66692e73746f726167652e557364506f6f6c0000000000000000604082015260600190565b611e678383836138f6565b611ebe5760405162461bcd60e51b815260206004820152602260248201527f737562206661696c656420776974682062616c616e6365206e6f7420656e6f756044820152610ced60f31b6064820152608401610b66565b6001600160a01b03821660009081526002840160205260408120611ee3908490613970565b6001600160a01b0384166000908152600286016020526040812080549293508492909190611f12908490616ca6565b90915550506001600160a01b0383166000908152600285016020526040902054608082015261058981613a13565b6000611f4a6119c2565b6000928352602052506040812080546001600160a01b03199081168255600182018054909116905560020155565b6000611f838261345b565b905060005b8151811015610d5857826002016000838381518110611fa957611fa9616bc1565b60200260200101516001600160a01b03166001600160a01b0316815260200190815260200160002060008082016000905560018201600090555050826003016000838381518110611ffc57611ffc616bc1565b60200260200101516001600160a01b03166001600160a01b031681526020019081526020016000206000808201600090556001820160009055505061206682828151811061204c5761204c616bc1565b602002602001015184600001613aa290919063ffffffff16565b50600101611f88565b6120c760405180610120016040528060006001600160a01b0316815260200160008152602001600081526020016000815260200160008152602001600081526020016000815260200160008152602001600081525090565b6000806040516020016120fa906020808252600c908201526b434841494e5f434f4e46494760a01b604082015260600190565b60405160208183030381529060405280519060200120905061219c81604051602001612147906020808252600d908201526c2ba920a82822a92faa27a5a2a760991b604082015260600190565b60405160208183030381529060405280519060200120604051602001612177929190918252602082015260400190565b6040516020818303038152906040528051906020012083613ab790919063ffffffff16565b6001600160a01b031683526040516122389082906121e3906020016020808252601290820152711352539517d1d054d7d1915157d31253525560721b604082015260600190565b60405160208183030381529060405280519060200120604051602001612213929190918252602082015260400190565b6040516020818303038152906040528051906020012083613ad690919063ffffffff16565b83602001818152505061227d816040516020016121e39060208082526014908201527314915111515357d1d054d7d1915157d31253525560621b604082015260600190565b8360400181815250506122d6816040516020016121e39060208082526022908201527f504c4143455f494e4352454153455f4f524445525f4741535f4645455f4c494d604082015261125560f21b606082015260800190565b606084015260405161232d9082906121e39060200160208082526022908201527f504c4143455f44454352454153455f4f524445525f4741535f4645455f4c494d604082015261125560f21b606082015260800190565b60808401526040516123869082906121e39060200160208082526024908201527f504f534954494f4e5f5550444154455f4d415247494e5f4741535f4645455f4c6040820152631253525560e21b606082015260800190565b60a08401526040516123e19082906121e39060200160208082526026908201527f504f534954494f4e5f5550444154455f4c455645524147455f4741535f46454560408201526517d31253525560d21b606082015260800190565b60c08401526040516124269082906121e39060200160208082526016908201527515d2551211149055d7d1d054d7d1915157d31253525560521b604082015260600190565b60e08401526040516124729082906121e3906020016020808252601b908201527f434c41494d5f524557415244535f4741535f4645455f4c494d49540000000000604082015260600190565b6101008401525090919050565b600061248961206f565b51604051632e1a7d4d60e01b8152600481018490529091506001600160a01b03821690632e1a7d4d90602401600060405180830381600087803b1580156124cf57600080fd5b505af11580156124e3573d6000803e3d6000fd5b50505050610d588383613ae9565b60006124fb613468565b9050818160070160008282546125119190616cb9565b909155505060078101547f5425704060c90c62f0083d9ff73df530b982ea5c64c0dab3c7d5da4761a4511990612548908490616ca6565b600783015460408051928352602083019190915201611d5e565b60008061256d611e18565b9050610b3381846135fe565b6125833a82616d30565b8210156104da576040516369343e3760e11b815260040160405180910390fd5b6000803090506000836060015160038111156125c1576125c1616d47565b15806125e25750836060015160038111156125de576125de616d47565b6003145b1561265057816001600160a01b0316631f7592ea6040518163ffffffff1660e01b8152600401602060405180830381865afa158015612625573d6000803e3d6000fd5b505050506040513d601f19601f820116820180604052508101906126499190616c5a565b905061272d565b8360600151600381111561266657612666616d47565b6001036126ab57816001600160a01b03166397e7b7f26040518163ffffffff1660e01b8152600401602060405180830381865afa158015612625573d6000803e3d6000fd5b836060015160038111156126c1576126c1616d47565b60020361272d57816001600160a01b03166308ba026f6040518163ffffffff1660e01b8152600401602060405180830381865afa158015612706573d6000803e3d6000fd5b505050506040513d601f19601f8201168201806040525081019061272a9190616c5a565b90505b602084015160808501511561282157600061274661206f565b60000151905085602001516001600160a01b0316816001600160a01b0316146127b15760405162461bcd60e51b815260206004820152601960248201527f4465706f736974207769746820746f6b656e206572726f7221000000000000006044820152606401610b66565b806001600160a01b031663d0e30db087604001516040518263ffffffff1660e01b81526004016000604051808303818588803b1580156127f057600080fd5b505af1158015612804573d6000803e3d6000fd5b505050505080915061281b82848860400151613b8c565b5061064b565b8451604086015161064b916001600160a01b038416918590613bd0565b600080612849613c28565b600084815260208290526040902054909150610457811015612879576128726104576001616cb9565b9050612887565b8061288381616e8e565b9150505b600093845260209190915260409092208290555090565b6000806128a96119c2565b600093845260205250506040902090565b606060006128c6613468565b6001810180546040805160208084028201810190925282815293945083018282801561291157602002820191906000526020600020905b8154815260200190600101908083116128fd575b505050505091505090565b6000612926611e18565b9050600061293a6129356118b4565b611792565b9050600061294783613c6c565b905060005b815181101561058957600061298383838151811061296c5761296c616bc1565b602002602001015185613c7790919063ffffffff16565b905080156129b9576129b98383815181106129a0576129a0616bc1565b60200260200101518287613c969092919063ffffffff16565b60006129e78484815181106129d0576129d0616bc1565b6020026020010151866117cb90919063ffffffff16565b90508015612a2057612a20848481518110612a0457612a04616bc1565b60200260200101518383612a189190616ca6565b889190613d1d565b505060010161294c565b6040805160208101829052601760608201527f78797a2e656c66692e73746f726167652e53796d626f6c0000000000000000006080820152908101829052600090819060a001611869565b6000612a8083613c6c565b905060005b8151811015610589576000612abc838381518110612aa557612aa5616bc1565b602002602001015186613c7790919063ffffffff16565b905080600003612acc5750612b8d565b6000612b54306001600160a01b0316631f7592ea6040518163ffffffff1660e01b8152600401602060405180830381865afa158015612b0f573d6000803e3d6000fd5b505050506040513d601f19601f82011682018060405250810190612b339190616c5a565b858581518110612b4557612b45616bc1565b60200260200101518785613dc7565b90508015612b8a57612b8a848481518110612b7157612b71616bc1565b60200260200101518288613f389092919063ffffffff16565b50505b600101612a85565b8054600090612bac906001600160a01b0316611792565b60028301546001600160a01b031660009081526003820160205260409020549091508015612be757612be7612be082613f7f565b8490613fed565b6002830154600090612c039084906001600160a01b03166117cb565b9050801561058957610589612c188383616ca6565b8590614043565b60008281527fb31b5831e77ebf4a20e050d886d24b00d24f44760e3342d08fb455df41d4aaf8602052604081209050612c896040518060a00160405280600081526020016000815260200160006001600160a01b0316815260200160008152602001600081525090565b612c928261404f565b808252600003612ca25750505050565b8051612cba90612cb06140cf565b610140015161470a565b60208201526000612cc9611e18565b90506000612cd682613c6c565b90506000612ce56129356118b4565b905060005b8251811015612e8a576000612d21848381518110612d0a57612d0a616bc1565b6020026020010151886117cb90919063ffffffff16565b905080600003612d315750612e82565b6000612d818760200151612d5d878681518110612d5057612d50616bc1565b6020026020010151611d6a565b610f96888781518110612d7257612d72616bc1565b60200260200101516001611dce565b905080821015612dd757612dbe82612da4878681518110612d5057612d50616bc1565b612db9888781518110612d7257612d72616bc1565b61471a565b87602001818151612dcf9190616ca6565b905250612de2565b600060208801529050805b612e10858481518110612df757612df7616bc1565b60200260200101518388613d1d9092919063ffffffff16565b612e3e858481518110612e2557612e25616bc1565b602002602001015183866147439092919063ffffffff16565b612e6c858481518110612e5357612e53616bc1565b6020026020010151838a6147a49092919063ffffffff16565b8660200151600003612e7f575050612e8a565b50505b600101612cea565b506000612e96876118cf565b602086015190915015612fbd57612eac846147ca565b6001600160a01b0316604086018190526020860151612edd91612ece90611d6a565b610f9688604001516000611dce565b606086015260208501516002820154612f1c9190612f03906001600160a01b0316611d6a565b6002840154610f96906001600160a01b03166001611dce565b60808601819052612f3990612f2f6140cf565b6101e0015161470a565b85608001818151612f4a9190616cb9565b90525060408501516060860151612f62918691613c96565b60408501516060860151612f77918391614884565b6080850151612f87908290614043565b60028101546080860151612fa89188916001600160a01b03909116906147a4565b60408501516060860151612fbd918491614743565b612fc88682856148fe565b5050505050505050565b612fda6118b4565b6001600160a01b0316826001600160a01b031603613069576000612ffc611e18565b9050600061300982614ac3565b9050806000036130195750505050565b600061302485611792565b9050600061303182614ad1565b905061305985613053858161304c620186a062080520616d30565b8690613596565b90614b1e565b8460040181905550505050505050565b6000613074836118cf565b9050600061308182614b2a565b9050806000036130915750505050565b600061309c85611792565b60028401549091506000906130ef906130bf9084906001600160a01b03166117cb565b60028601546130d6906001600160a01b0316611d6a565b6002870154612db9906001600160a01b03166000611dce565b905061310a85613053858161304c620186a062080520616d30565b8460140181905550505050505050565b61313e60405180606001604052806000815260200160008152602001600081525090565b600061314983611792565b90506000613156846118cf565b60028101549091506000906131759084906001600160a01b03166117cb565b9050600061318286614b58565b905081158061318f575080155b156131b9576040805160608101825260079095015485526020850192909252908301525092915050565b60006131c58383614bbc565b9050808560070160008282546131db9190616cb9565b90915550506002848101546001600160a01b0316600090815290860160205260408120556132178161320b614bee565b60e00151879190614f4e565b506040805160608101825260079095015485526020850192909252908301525092915050565b61326160405180606001604052806000815260200160008152602001600081525090565b600061326b6118b4565b9050600061327882611792565b9050600061328582613c6c565b9050600061329284614b58565b90508151600014806132a2575080155b156132ca57604080516060810182526007909401548452600060208501528301525092915050565b60006132d584614ad1565b9050806000036133035750604080516060810182526007909401548452600060208501528301525092915050565b600061330f8284614fa4565b9050808560070160008282546133259190616cb9565b9091555061333790508161320b614bee565b60005b84518110156133775761336f85828151811061335857613358616bc1565b602002602001015187614bd190919063ffffffff16565b60010161333a565b505060408051606081018252600790950154855260208501919091528301525092915050565b7f5fa32404a8727511906f2f2d5c0c0d52c7c8b8816344948303168809a43af2188282604051611d5e929190616ea7565b60006040516020016134059060208082526011908201527008c8a8abe829a9eaa9ca8bea0a48a8c92b607b1b604082015260600190565b60408051601f198184030181528282528051602091820120908301526001600160a01b03808616918301919091528316606082015260800160405160208183030381529060405280519060200120905092915050565b60606000610b3383614fb0565b600080604051602001611a06906020808252601b908201527f78797a2e656c66692e73746f726167652e436f6d6d6f6e446174610000000000604082015260600190565b60008080600019858709858702925082811083820303915050806000036134e6578382816134dc576134dc616f13565b0492505050610b33565b80841161352d5760405162461bcd60e51b81526020600482015260156024820152744d6174683a206d756c446976206f766572666c6f7760581b6044820152606401610b66565b60008486880960026001871981018816978890046003810283188082028403028082028403028082028403028082028403028082028403029081029092039091026000889003889004909101858311909403939093029303949094049190911702949350505050565b60006102678284616d30565b600080604051602001611a06906020808252601e908201527f78797a2e656c66692e73746f726167652e416363657373436f6e74726f6c0000604082015260600190565b60008181526001830160205260408120541515610267565b6001600160a01b03811660009081526001830160205260408120541515610267565b6000610267836001600160a01b03841661500c565b6000610267838361500c565b60048301548211156136a55760405162461bcd60e51b815260206004820152602760248201527f6261736520746f6b656e20616d6f756e74206c657373207468616e2073756220604482015266616d6f756e742160c81b6064820152608401610b66565b801561370057825460028401546000916136cf916001600160a01b0391821691166004870161505b565b9050828460040160000160008282546136e89190616ca6565b9091555050600484015460e08201526105898161515d565b818360040160000160008282546137179190616ca6565b9091555050505050565b60008260000361373357506000611cec565b6040516370a0823160e01b81526001600160a01b038781166004830152600091908716906370a0823190602401602060405180830381865afa15801561377d573d6000803e3d6000fd5b505050506040513d601f19601f820116820180604052508101906137a19190616c77565b90508381106138165760405163078d3b7960e01b81526001600160a01b0388169063078d3b79906137da90899089908990600401616f29565b600060405180830381600087803b1580156137f457600080fd5b505af1158015613808573d6000803e3d6000fd5b505050506001915050611cec565b8261385657604051635ac09ed760e11b81526001600160a01b03808916600483015280881660248301528616604482015260648101859052608401610b66565b5060009695505050505050565b60408051808201909152600080825260208201526000613881611a24565b604080518082018252600080825260209182018190526001600160a01b038716815260028401825282902082518084019093528054808452600190910154918301919091529192509015806138d857506020810151155b15610b335760405163907adecd60e01b815260040160405180910390fd5b6001600160a01b038216600090815260028401602052604081208054831115613923576000915050610b33565b600061392d615243565b9050806000036139545760018201548254859161394991616ca6565b101592505050610b33565b600182015482546139499061396a908790616ca6565b8361470a565b6139c160405180610100016040528060006001600160a01b03168152602001600081526020016000815260200160008152602001600081526020016000815260200160008152602001600081525090565b6001600160a01b0383168152815460208201819052600183015460408301819052600284015460608401819052608084019290925260a083015260c0820152613a08615253565b60e082015292915050565b805160208083015160408085015160608087015160808089015160a0808b015160c0808d015160e0808f01518b516001600160a01b03909f168f529c8e019b909b52988c0197909752948a0193909352908801528601528401528201527f217ba1d63771ad2228865ab2d862a89115d536eabbe8315c584eafe090d7f42290610100015b60405180910390a150565b6000610267836001600160a01b0384166152d9565b600090815260029190910160205260409020546001600160a01b031690565b6000908152602091909152604090205490565b604080516000808252602082019092526001600160a01b038416908390604051613b139190616f71565b60006040518083038185875af1925050503d8060008114613b50576040519150601f19603f3d011682016040523d82523d6000602084013e613b55565b606091505b5050905080610d585760405162461bcd60e51b815260206004820152600360248201526253544560e81b6044820152606401610b66565b80600003613b9957505050565b6000613baa84848462030d406153d3565b9050806105895783838360405163012f3b8f60e71b8152600401610b6693929190616f29565b610589846323b872dd60e01b858585604051602401613bf193929190616f29565b60408051601f198184030181529190526020810180516001600160e01b03166001600160e01b0319909316929092179091526154cd565b600080604051602001611a06906020808252601c908201527f78797a2e656c66692e73746f726167652e5575696443726561746f7200000000604082015260600190565b606061026a8261345b565b6001600160a01b03166000908152600391909101602052604090205490565b6001600160a01b03821660009081526002840160205260408120613cbb908490613970565b6001600160a01b03841660009081526002808701602052604082200180549293508492909190613cec908490616cb9565b90915550506001600160a01b038316600090815260028086016020526040909120015460c082015261058981613a13565b613d2783836135fe565b613d735760405162461bcd60e51b815260206004820152601b60248201527f737461626c6520746f6b656e206e6f7420737570706f727465642100000000006044820152606401610b66565b6001600160a01b03821660009081526002840160205260408120613d98908490613970565b6001600160a01b0384166000908152600286016020526040812080549293508492909190611f12908490616cb9565b600081600003613dd95750600061064b565b6040516370a0823160e01b81526001600160a01b038681166004830152600091908616906370a0823190602401602060405180830381865afa158015613e23573d6000803e3d6000fd5b505050506040513d601f19601f82011682018060405250810190613e479190616c77565b905080600003613e5b57600091505061064b565b828110613ecd5760405163078d3b7960e01b81526001600160a01b0387169063078d3b7990613e9290889088908890600401616f29565b600060405180830381600087803b158015613eac57600080fd5b505af1158015613ec0573d6000803e3d6000fd5b505050508291505061064b565b60405163078d3b7960e01b81526001600160a01b0387169063078d3b7990613efd90889088908690600401616f29565b600060405180830381600087803b158015613f1757600080fd5b505af1158015613f2b573d6000803e3d6000fd5b505050508091505061064b565b6001600160a01b0382166000908152600384016020526040902054613f5e908290616ca6565b6001600160a01b039092166000908152600390930160205250604090912055565b60006001600160ff1b03821115613fe95760405162461bcd60e51b815260206004820152602860248201527f53616665436173743a2076616c756520646f65736e27742066697420696e2061604482015267371034b73a191a9b60c11b6064820152608401610b66565b5090565b81546002830154600091614011916001600160a01b0391821691166004860161505b565b90508183600401600301600082825461402a9190616f8d565b90915550506007830154610140820152610d588161515d565b6104da828260016155a2565b600080600061405d84613c6c565b905060005b81518110156140c65760006140af614085848481518110612d0a57612d0a616bc1565b61409a858581518110612d5057612d50616bc1565b612db9868681518110612d7257612d72616bc1565b90506140bb8185616cb9565b935050600101614062565b50909392505050565b61414f604051806102000160405280606081526020016060815260200160008152602001600081526020016000815260200160008152602001600081526020016000815260200160008152602001600081526020016000815260200160008152602001600081526020016000815260200160008152602001600081525090565b600080604051602001614182906020808252600c908201526b54524144455f434f4e46494760a01b604082015260600190565b604051602081830303815290604052805190602001209050614223816040516020016141ce906020808252600c908201526b54524144455f544f4b454e5360a01b604082015260600190565b604051602081830303815290604052805190602001206040516020016141fe929190918252602082015260400190565b60405160208183030381529060405280519060200120836155fc90919063ffffffff16565b8084525167ffffffffffffffff81111561423f5761423f616bab565b60405190808252806020026020018201604052801561427857816020015b61426561680c565b81526020019060019003908161425d5790505b50602084015260005b8351518110156142da576142b1846000015182815181106142a4576142a4616bc1565b602002602001015161566b565b846020015182815181106142c7576142c7616bc1565b6020908102919091010152600101614281565b50614317816040516020016121e39060208082526014908201527313525397d3d491115497d3505491d25397d554d160621b604082015260600190565b836040018181525050614365816040516020016121e3906020808252601a908201527f415641494c41424c455f434f4c4c41544552414c5f524154494f000000000000604082015260600190565b60608401526040516143a39082906121e3906020016020808252600f908201526e10d493d4d4d7d3151597d312535255608a1b604082015260600190565b60808401526040516143ef9082906121e3906020016020808252601b908201527f4d41585f4d41494e54454e414e43455f4d415247494e5f524154450000000000604082015260600190565b60a08401526040516144339082906121e39060200160208082526015908201527446554e44494e475f4645455f424153455f5241544560581b604082015260600190565b60c08401526040516144779082906121e3906020016020808252601590820152744d41585f46554e44494e475f424153455f5241544560581b604082015260600190565b60e08401526040516144cd9082906121e39060200160208082526021908201527f54524144494e475f4645455f5354414b494e475f524557415244535f524154496040820152604f60f81b606082015260800190565b61010084015260405161451a9082906121e3906020016020808252601e908201527f54524144494e475f4645455f504f4f4c5f524557415244535f524154494f0000604082015260600190565b6101208401526040516145729082906121e39060200160208082526022908201527f54524144494e475f4645455f5553445f504f4f4c5f524557415244535f524154604082015261494f60f01b606082015260800190565b6101408401526040516145cb9082906121e39060200160208082526023908201527f424f52524f57494e475f4645455f5354414b494e475f524557415244535f524160408201526254494f60e81b606082015260800190565b6101608401526040516146169082906121e3906020016020808252818101527f424f52524f57494e475f4645455f504f4f4c5f524557415244535f524154494f604082015260600190565b6101808401526040516146639082906121e39060200160208082526019908201527f4155544f5f5245445543455f50524f4649545f464143544f5200000000000000604082015260600190565b6101a08401526040516146b09082906121e3906020016020808252601c908201527f4155544f5f5245445543455f4c49515549444954595f464143544f5200000000604082015260600190565b6101c08401526040516146fd9082906121e39060200160208082526019908201527f535741505f534c49505045525f544f4b454e5f464143544f5200000000000000604082015260600190565b6101e08401525090919050565b60006102678383620186a06134ac565b600061064b61472a84600a616e7f565b6130536402540be40061473d8887613596565b90613596565b61474d83836135fe565b61475d5761475b8383613620565b505b6001600160a01b0382166000908152600284016020526040902054614783908290616cb9565b6001600160a01b039092166000908152600290930160205250604090912055565b6001600160a01b0382166000908152600284016020526040902054614783908290616ca6565b6000806147d68361345b565b90506000805b825181101561487c57600061484a86600201600086858151811061480257614802616bc1565b60200260200101516001600160a01b03166001600160a01b0316815260200190815260200160002060000154614843868581518110612d5057612d50616bc1565b60126159e8565b90508281106148735780925083828151811061486857614868616bc1565b602002602001015194505b506001016147dc565b505050919050565b614891600c8401836135fe565b6148a4576148a2600c840183613620565b505b6001600160a01b038083166000908152600e850160205260408120855490926148cf9116858461505b565b9050828260040160008282546148e59190616cb9565b909155505060048201546101608201526104c88161515d565b8154600090614915906001600160a01b0316611792565b60028401549091506000906149349086906001600160a01b03166117cb565b9050801561497a576149468482614043565b60028401546149609083906001600160a01b031683614743565b600284015461497a9086906001600160a01b0316836147a4565b6002840154600090614994906001600160a01b0316611d6a565b60028601549091506000906149b2906001600160a01b031682611dce565b905060005b8551811015612fc8576149ec8682815181106149d5576149d5616bc1565b6020026020010151896117cb90919063ffffffff16565b93508315614abb576000614a2b85614a0f898581518110612d5057612d50616bc1565b86614a258b8781518110612d7257612d72616bc1565b87615a04565b9050614a3981612f2f6140cf565b614a439082616ca6565b9050614a73878381518110614a5a57614a5a616bc1565b6020026020010151868a615a649092919063ffffffff16565b614a9f878381518110614a8857614a88616bc1565b60200260200101518a614bd190919063ffffffff16565b6002880154614ab99087906001600160a01b031683614743565b505b6001016149b7565b60006060610b338382615b2e565b6000806000614adf84613c6c565b905060005b81518110156140c6576000614b07614085848481518110612d0a57612d0a616bc1565b9050614b138185616cb9565b935050600101614ae4565b60006102678284616fb5565b600080614b3683615b5e565b90506000811315614b4f57614b4a81615b6c565b610b33565b60009392505050565b6000816001600160a01b03166318160ddd6040518163ffffffff1660e01b8152600401602060405180830381865afa158015614b98573d6000803e3d6000fd5b505050506040513d601f19601f8201168201806040525081019061026a9190616c77565b600061026783670de0b6b3a7640000846134ac565b6001600160a01b0316600090815260029091016020526040812055565b614c44604051806101400160405280600081526020016000815260200160008152602001600081526020016000815260200160008152602001600081526020016000815260200160008152602001600081525090565b600080604051602001614c77906020808252600c908201526b5354414b455f434f4e46494760a01b604082015260600190565b604051602081830303815290604052805190602001209050614cd4816040516020016121e39060208082526019908201527f434f4c4c41544552414c5f50524f544543545f464143544f5200000000000000604082015260600190565b8352604051614d119082906121e39060200160208082526011908201527021a7a62620aa22a920a62fa320a1aa27a960791b604082015260600190565b836020018181525050614d58816040516020016121e3906020808252601690820152754d494e5f505245434953494f4e5f4d554c5449504c4560501b604082015260600190565b836040018181525050614da6816040516020016121e3906020808252601e908201527f4d494e545f4645455f5354414b494e475f524557415244535f524154494f0000604082015260600190565b6060840152604051614df29082906121e3906020016020808252601b908201527f4d494e545f4645455f504f4f4c5f524557415244535f524154494f0000000000604082015260600190565b6080840152604051614e3c9082906121e3906020016020808252818101527f52454445454d5f4645455f5354414b494e475f524557415244535f524154494f604082015260600190565b60a0840152604051614e889082906121e3906020016020808252601d908201527f52454445454d5f4645455f504f4f4c5f524557415244535f524154494f000000604082015260600190565b60c0840152604051614ed49082906121e3906020016020808252601b908201527f504f4f4c5f524557415244535f494e54455256414c5f4c494d49540000000000604082015260600190565b60e0840152604051614f0a9082906121e39060200160208082526007908201526626a4a72fa0a82960c91b604082015260600190565b610100840152604051614f419082906121e39060200160208082526007908201526626a0ac2fa0a82960c91b604082015260600190565b6101208401525090919050565b80600003614f5b57505050565b60088301548111614f885782600801600081548110614f7c57614f7c616bc1565b60009182526020822001555b5060089091018054600181018255600091825260209091200155565b60006102678383614b1e565b60608160000180548060200260200160405190810160405280929190818152602001828054801561500057602002820191906000526020600020905b815481526020019060010190808311614fec575b50505050509050919050565b60008181526001830160205260408120546150535750815460018181018455600084815260208082209093018490558454848252828601909352604090209190915561026a565b50600061026a565b6150d8604051806101a0016040528060006001600160a01b0316815260200160006001600160a01b0316815260200160008152602001600081526020016000815260200160008152602001600081526020016000815260200160008152602001600081526020016000815260200160008152602001600081525090565b6001600160a01b03808516825283166020820152815460408201819052600183015460608301819052600284015460808401819052600385015460a08501819052600486015460c0860181905260e0860194909452610100850192909252610120840152610140830152610160820152615150615253565b6101808201529392505050565b7f3c20d1ba6bcc5e5bd62d967908bf1ce684e6b52dbaab9f84ebfbf1b184b46bf8816000015182602001518360400151846060015185608001518660a001518760c001518860e001518961010001518a61012001518b61014001518c61016001518d6101800151604051613a979d9c9b9a999897969594939291906001600160a01b039d8e1681529b909c1660208c015260408b019990995260608a0197909752608089019590955260a088019390935260c087019190915260e08601526101008501526101208401526101408301526101608201526101808101919091526101a00190565b600061524d615bbe565b51919050565b600061a4b1461480615267575062066eee46145b156152d45760646001600160a01b031663a3b1b31d6040518163ffffffff1660e01b8152600401602060405180830381865afa1580156152ab573d6000803e3d6000fd5b505050506040513d601f19601f820116820180604052508101906152cf9190616c77565b905090565b504390565b600081815260018301602052604081205480156153c25760006152fd600183616ca6565b855490915060009061531190600190616ca6565b905081811461537657600086600001828154811061533157615331616bc1565b906000526020600020015490508087600001848154811061535457615354616bc1565b6000918252602080832090910192909255918252600188019052604090208390555b855486908061538757615387616fc9565b60019003818190600052602060002001600090559055856001016000868152602001908152602001600020600090556001935050505061026a565b600091505061026a565b5092915050565b604080516001600160a01b038581166024830152604480830186905283518084039091018152606490920183526020820180516001600160e01b031663a9059cbb60e01b1790529151600092839182918916908690615433908690616f71565b60006040518083038160008787f1925050503d8060008114615471576040519150601f19603f3d011682016040523d82523d6000602084013e615476565b606091505b50915091508161548c576000935050505061064b565b600081511180156154ae5750808060200190518101906154ac9190616fdf565b155b156154bf576000935050505061064b565b506001979650505050505050565b6000615522826040518060400160405280602081526020017f5361666545524332303a206c6f772d6c6576656c2063616c6c206661696c6564815250856001600160a01b0316615bff9092919063ffffffff16565b90508051600014806155435750808060200190518101906155439190616fdf565b610d585760405162461bcd60e51b815260206004820152602a60248201527f5361666545524332303a204552433230206f7065726174696f6e20646964206e6044820152691bdd081cdd58d8d9595960b21b6064820152608401610b66565b80156155e557825460028401546000916155cc916001600160a01b0391821691166004870161505b565b9050828460040160000160008282546136e89190616cb9565b818360040160000160008282546137179190616cb9565b600081815260088301602090815260409182902080548351818402810184019094528084526060939283018282801561565e57602002820191906000526020600020905b81546001600160a01b03168152600190910190602001808311615640575b5050505050905092915050565b61567361680c565b61567b61680c565b6000806040516020016156b49060208082526012908201527154524144455f544f4b454e5f434f4e46494760701b604082015260600190565b60408051601f19818403018152919052805160209091012090506156d9828287615c0e565b6156e65750909392505050565b61578b8186604051602001615724906020808252601590820152741254d7d4d5541413d49517d0d3d313105511549053605a1b604082015260600190565b60405160208183030381529060405280519060200120604051602001615766939291909283526001600160a01b03919091166020830152604082015260600190565b6040516020818303038152906040528051906020012083615c2890919063ffffffff16565b1515835260405161580690829087906157c490602001602080825260099082015268282922a1a4a9a4a7a760b91b604082015260600190565b60405160208183030381529060405280519060200120604051602001612213939291909283526001600160a01b03919091166020830152604082015260600190565b83602001818152505061584081866040516020016157c490602080825260089082015267111254d0d3d5539560c21b604082015260600190565b83604001818152505061588581866040516020016157c4906020808252601390820152720434f4c4c41544552414c5f555345525f43415606c1b604082015260600190565b60608401526040516158ca90829087906157c4906020016020808252601490820152730434f4c4c41544552414c5f544f54414c5f4341560641b604082015260600190565b608084015260405161590d90829087906157c49060200160208082526012908201527104c494142494c4954595f555345525f4341560741b604082015260600190565b60a084015260405161595190829087906157c49060200160208082526013908201527204c494142494c4954595f544f54414c5f43415606c1b604082015260600190565b60c084015260405161599690829087906157c49060200160208082526014908201527324a72a22a922a9aa2fa920aa22afa320a1aa27a960611b604082015260600190565b60e08401526040516159d990829087906157c4906020016020808252601290820152712624a8aaa4a220aa24a7a72fa320a1aa27a960711b604082015260600190565b61010084015250909392505050565b600061064b846159f984600a616e7f565b611e1386600a616e7f565b60008460ff168460ff1610615a4057615a3982613053615a248888617001565b615a2f90600a616e7f565b61473d8a88613596565b9050611cec565b615a39615a4d8587617001565b615a5890600a616e7f565b61305384818a88613596565b82546001600160a01b038381166000908152600e8601602052604081209092615a90921690859061505b565b9050615a9f600c8501846135fe565b15615ad9576001600160a01b0383166000908152600e8501602052604081208054849290615ace908490616cb9565b90915550615b059050565b615ae6600c850184613620565b506001600160a01b0383166000908152600e8501602052604090208290555b6001600160a01b0383166000908152600e8501602052604090205460e08201526105898161515d565b600080615b3b8484615c41565b90506000811315615b5457615b4f81615b6c565b61064b565b5060009392505050565b60006060610b338382615d47565b600080821215613fe95760405162461bcd60e51b815260206004820181905260248201527f53616665436173743a2076616c7565206d75737420626520706f7369746976656044820152606401610b66565b615bf76040518060c001604052806000815260200160008152602001600081526020016000815260200160608152602001606081525090565b6152cf615f33565b606061064b848460008561625f565b6000828152600c84016020526040812061064b90836135fe565b6000908152600391909101602052604090205460ff1690565b60008080615c4e85613c6c565b8051909150156103345760005b8151811015615d3e576000866002016000848481518110615c7e57615c7e616bc1565b60200260200101516001600160a01b03166001600160a01b031681526020019081526020016000209050600081600001541180615cbf575060008160020154115b15615d3557615d32615d2b615cd78360020154613f7f565b8354615ce290613f7f565b615cec9190616f8d565b615d01868681518110612d5057612d50616bc1565b615d268a888881518110615d1757615d17616bc1565b6020026020010151600161633a565b6163df565b859061641e565b93505b50600101615c5b565b50509392505050565b60048201546000908190151580615d62575060078401546000125b15615e015760038401546002850154600091615d8c9186906001906001600160a01b03168161642a565b6002860154909150600090615dad9086906001600160a01b0316600161633a565b9050615dfc828760040160030154615dcb8960040160000154613f7f565b615dd59190616f8d565b615ddf9190616f8d565b6002880154615df6906001600160a01b0316611d6a565b836163df565b925050505b6000615e0c85616686565b8051909150156103345760005b8151811015615d3e57600086600e016000848481518110615e3c57615e3c616bc1565b60200260200101516001600160a01b03166001600160a01b031681526020019081526020016000209050600081600001541180615e7d575060008160030154135b15615f2a576000615eb08860030154886000878781518110615ea157615ea1616bc1565b6020026020010151600161642a565b9050615f26615f1f82615ec68560040154613f7f565b60038601548654615ed690613f7f565b615ee09190616f8d565b615eea919061701a565b615ef49190616f8d565b615f09878781518110612d5057612d50616bc1565b615d268b898981518110615d1757615d17616bc1565b869061641e565b9450505b50600101615e19565b615f6c6040518060c001604052806000815260200160008152602001600081526020016000815260200160608152602001606081525090565b600080604051602001615fa2906020808252600f908201526e5553445f504f4f4c5f434f4e46494760881b604082015260600190565b604051602081830303815290604052805190602001209050615ff6816040516020016121e3906020808252601490820152731413d3d317d3125455525112551657d31253525560621b604082015260600190565b835260405161602f9082906121e3906020016020808252600d908201526c4d494e545f4645455f5241544560981b604082015260600190565b83602001818152505061606f816040516020016121e3906020808252600f908201526e52454445454d5f4645455f5241544560881b604082015260600190565b8360400181815250506160b5816040516020016121e390602080825260159082015274155394d1551513115117d490551253d7d312535255605a1b604082015260600190565b60608401526040516160f99082906141ce90602001602080825260159082015274535550504f52545f535441424c455f544f4b454e5360581b604082015260600190565b608084018190525167ffffffffffffffff81111561611957616119616bab565b604051908082528060200260200182016040528015616142578160200160208202803683370190505b5060a084015260005b83608001515181101561625957616230828560800151838151811061617257616172616bc1565b60200260200101516040516020016161c99060208082526025908201527f535441424c455f544f4b454e535f424f52524f57494e475f494e5445524553546040820152645f5241544560d81b606082015260800190565b6040516020818303038152906040528051906020012060405160200161620b939291909283526001600160a01b03919091166020830152604082015260600190565b6040516020818303038152906040528051906020012084613ad690919063ffffffff16565b8460a00151828151811061624657616246616bc1565b602090810291909101015260010161614b565b50505090565b6060824710156162c05760405162461bcd60e51b815260206004820152602660248201527f416464726573733a20696e73756666696369656e742062616c616e636520666f6044820152651c8818d85b1b60d21b6064820152608401610b66565b600080866001600160a01b031685876040516162dc9190616f71565b60006040518083038185875af1925050503d8060008114616319576040519150601f19603f3d011682016040523d82523d6000602084013e61631e565b606091505b509150915061632f87838387616694565b979650505050505050565b6000805b84518110156163d457836001600160a01b031685828151811061636357616363616bc1565b6020026020010151600001516001600160a01b0316036163cc57826163a55784818151811061639457616394616bc1565b6020026020010151606001516163c4565b8481815181106163b7576163b7616bc1565b6020026020010151604001515b915050610b33565b60010161633e565b5061064b8383611dce565b600061064b6163f76163f285600a616e7f565b613f7f565b6164186164086402540be400613f7f565b616412888761670d565b9061670d565b90616719565b60006102678284616f8d565b60008061643687616725565b9050600061644388612a2a565b6040805160c08101909152815481526001820154909190602083019060ff16600381111561647357616473616d47565b600381111561648457616484616d47565b815260018201546001600160a01b036101009091048116602083015260028301548116604083015260038301541660608201526004820180546080909201916164cc9061703a565b80601f01602080910402602001604051908101604052809291908181526020018280546164f89061703a565b80156165455780601f1061651a57610100808354040283529160200191616545565b820191906000526020600020905b81548152906001019060200180831161652857829003601f168201915b5050505050815250509050600086616576576001600160a01b0386166000908152600684016020526040902061657b565b826002015b80549091506000036165935760009350505050611cec565b60006165a5898460600151600161633a565b90506165b081615b6c565b8260010154036165c7576000945050505050611cec565b871561665a5760006166046165df8460010154613f7f565b6164186165f96165f28760010154613f7f565b8690616770565b865461641290613f7f565b9050861561664557600061661a8b8a600061633a565b905061662f826166298b611d6a565b8361677c565b6166389061706e565b9650505050505050611cec565b61664e8161706e565b95505050505050611cec565b600061660461666c8460010154613f7f565b6164186165f9856166808860010154613f7f565b90616770565b606061026a82600c0161345b565b606083156167035782516000036166fc576001600160a01b0385163b6166fc5760405162461bcd60e51b815260206004820152601d60248201527f416464726573733a2063616c6c20746f206e6f6e2d636f6e74726163740000006044820152606401610b66565b508161064b565b61064b83836167b1565b6000610267828461708a565b600061026782846170ba565b6040805160208101829052601760608201527f78797a2e656c66692e73746f726167652e4d61726b65740000000000000000006080820152908101829052600090819060a001611869565b6000610267828461701a565b600061064b6167996167926402540be400613f7f565b849061670d565b6164186167aa6163f287600a616e7f565b879061670d565b8151156167c15781518083602001fd5b8060405162461bcd60e51b8152600401610b6691906170e8565b604051806080016040528060006001600160a01b031681526020016060815260200160608152602001606081525090565b60405180610120016040528060001515815260200160008152602001600081526020016000815260200160008152602001600081526020016000815260200160008152602001600081525090565b6001600160a01b0381168114610b6f57600080fd5b6000806040838503121561688257600080fd5b823561688d8161685a565b9150602083013561689d8161685a565b809150509250929050565b600080602083850312156168bb57600080fd5b823567ffffffffffffffff808211156168d357600080fd5b818501915085601f8301126168e757600080fd5b8135818111156168f657600080fd5b8660208260051b850101111561690b57600080fd5b60209290920196919550909350505050565b60008151808452602080850194506020840160005b838110156169575781516001600160a01b031687529582019590820190600101616932565b509495945050505050565b60018060a01b0381511682526000602080830151608082860152616989608086018261691d565b9050604084015185820360408701526169a2828261691d565b606086810151888303918901919091528051808352908501935060009250908401905b808310156169e557835182529284019260019290920191908401906169c5565b509695505050505050565b600060208083016020845280855180835260408601915060408160051b87010192506020870160005b82811015616a4757603f19888603018452616a35858351616962565b94509285019290850190600101616a19565b5092979650505050505050565b600060208284031215616a6657600080fd5b8135610b338161685a565b80516001600160a01b03908116835260208083015190911690830152604090810151910152565b6060810161026a8284616a71565b600080600060408486031215616abb57600080fd5b83359250602084013567ffffffffffffffff80821115616ada57600080fd5b818601915086601f830112616aee57600080fd5b813581811115616afd57600080fd5b8760208260071b8501011115616b1257600080fd5b6020830194508093505050509250925092565b60008060408385031215616b3857600080fd5b8235616b438161685a565b946020939093013593505050565b6020815260006102676020830184616962565b60008060408385031215616b7757600080fd5b82359150602083013561689d8161685a565b60008060408385031215616b9c57600080fd5b50508035926020909101359150565b634e487b7160e01b600052604160045260246000fd5b634e487b7160e01b600052603260045260246000fd5b600060808284031215616be957600080fd5b6040516080810181811067ffffffffffffffff82111715616c1a57634e487b7160e01b600052604160045260246000fd5b6040528235616c288161685a565b81526020830135616c388161685a565b6020820152604083810135908201526060928301359281019290925250919050565b600060208284031215616c6c57600080fd5b8151610b338161685a565b600060208284031215616c8957600080fd5b5051919050565b634e487b7160e01b600052601160045260246000fd5b8181038181111561026a5761026a616c90565b8082018082111561026a5761026a616c90565b616cd68185616a71565b60a060608201526000616cec60a083018561691d565b828103608084015283518082526020808601928101919060005b82811015616d2257845184529381019392810192600101616d06565b509198975050505050505050565b808202811582820484141761026a5761026a616c90565b634e487b7160e01b600052602160045260246000fd5b60808101616d6b8285616a71565b8260608301529392505050565b600060208284031215616d8a57600080fd5b815160ff81168114610b3357600080fd5b600181815b80851115616dd6578160001904821115616dbc57616dbc616c90565b80851615616dc957918102915b93841c9390800290616da0565b509250929050565b600082616ded5750600161026a565b81616dfa5750600061026a565b8160018114616e105760028114616e1a57616e36565b600191505061026a565b60ff841115616e2b57616e2b616c90565b50506001821b61026a565b5060208310610133831016604e8410600b8410161715616e59575081810a61026a565b616e638383616d9b565b8060001904821115616e7757616e77616c90565b029392505050565b600061026760ff841683616dde565b600060018201616ea057616ea0616c90565b5060010190565b60006040808352616ebb604084018661691d565b83810360208581019190915285518083528682019282019060005b81811015616f055784518051845284810151858501528601518684015293830193606090920191600101616ed6565b509098975050505050505050565b634e487b7160e01b600052601260045260246000fd5b6001600160a01b039384168152919092166020820152604081019190915260600190565b60005b83811015616f68578181015183820152602001616f50565b50506000910152565b60008251616f83818460208701616f4d565b9190910192915050565b8082018281126000831280158216821582161715616fad57616fad616c90565b505092915050565b600082616fc457616fc4616f13565b500490565b634e487b7160e01b600052603160045260246000fd5b600060208284031215616ff157600080fd5b81518015158114610b3357600080fd5b60ff828116828216039081111561026a5761026a616c90565b81810360008312801583831316838312821617156153cc576153cc616c90565b600181811c9082168061704e57607f821691505b60208210810361196b57634e487b7160e01b600052602260045260246000fd5b6000600160ff1b820161708357617083616c90565b5060000390565b80820260008212600160ff1b841416156170a6576170a6616c90565b818105831482151761026a5761026a616c90565b6000826170c9576170c9616f13565b600160ff1b8214600019841416156170e3576170e3616c90565b500590565b6020815260008251806020840152617107816040850160208701616f4d565b601f01601f1916919091016040019291505056fea26469706673582212202496e2747b6086a3475e1cd9ee3b943fa624603516d4037ed414f610d2c6cb6a64736f6c634300081900336080604052348015600f57600080fd5b506104208061001f6000396000f3fe60806040526004361061001e5760003560e01c8063ff88370414610023575b600080fd5b6100366100313660046102f0565b610038565b005b61004a6525a2a2a822a960d11b61015e565b60005b61005a602083018361032b565b905081101561014057610070602083018361032b565b828181106100805761008061037c565b90506020020160208101906100959190610392565b6001600160a01b03166340c10f196100b06020850185610392565b6100bd604086018661032b565b858181106100cd576100cd61037c565b6040516001600160e01b031960e087901b1681526001600160a01b0390941660048501526020029190910135602483015250604401600060405180830381600087803b15801561011c57600080fd5b505af1158015610130573d6000803e3d6000fd5b50506001909201915061004d9050565b5061015b6101516020830183610392565b8260600135610193565b50565b610168338261023b565b61015b57604051632d7d0e0d60e21b8152336004820152602481018290526044015b60405180910390fd5b604080516000808252602082019092526001600160a01b0384169083906040516101bd91906103bb565b60006040518083038185875af1925050503d80600081146101fa576040519150601f19603f3d011682016040523d82523d6000602084013e6101ff565b606091505b50509050806102365760405162461bcd60e51b815260206004820152600360248201526253544560e81b604482015260640161018a565b505050565b600080610246610273565b6001600160a01b038516600090815260208290526040902090915061026b90846102d5565b949350505050565b6000806040516020016102b7906020808252601e908201527f78797a2e656c66692e73746f726167652e416363657373436f6e74726f6c0000604082015260600190565b60408051601f19818403018152919052805160209091012092915050565b600081815260018301602052604081205415155b9392505050565b60006020828403121561030257600080fd5b813567ffffffffffffffff81111561031957600080fd5b8201608081850312156102e957600080fd5b6000808335601e1984360301811261034257600080fd5b83018035915067ffffffffffffffff82111561035d57600080fd5b6020019150600581901b360382131561037557600080fd5b9250929050565b634e487b7160e01b600052603260045260246000fd5b6000602082840312156103a457600080fd5b81356001600160a01b03811681146102e957600080fd5b6000825160005b818110156103dc57602081860181015185830152016103c2565b50600092019182525091905056fea26469706673582212203c8dff421b4643abb974ec1e379750907a933d6c3d3b2b9c2989526193be969564736f6c634300081900336080604052348015600f57600080fd5b50600160005561272f806100246000396000f3fe608060405234801561001057600080fd5b50600436106100365760003560e01c80634777232f1461003b578063ea26e5f21461006a575b600080fd5b61004e6100493660046109b0565b61007d565b6040516001600160a01b03909116815260200160405180910390f35b61004e6100783660046109fa565b610130565b60006100876101df565b61009965434f4e46494760d01b61023d565b6100e36100a96020840184610a7d565b8080601f01602080910402602001604051908101604052809392919081815260200183838082843760009201919091525061027092505050565b6100fb6100f66060840160408501610ae2565b610292565b61010e6100f66080840160608501610ae2565b61011f61011a83610b6d565b6102b9565b905061012b6001600055565b919050565b600061013a6101df565b61014c65434f4e46494760d01b61023d565b61018b84848080601f01602080910402602001604051908101604052809392919081815260200183838082843760009201919091525061027092505050565b6101cc84848080601f01602080910402602001604051908101604052809392919081815260200183838082843760009201919091525086925061057c915050565b90506101d86001600055565b9392505050565b6002600054036102365760405162461bcd60e51b815260206004820152601f60248201527f5265656e7472616e637947756172643a207265656e7472616e742063616c6c0060448201526064015b60405180910390fd5b6002600055565b61024733826106a2565b61026d57604051632d7d0e0d60e21b81523360048201526024810182905260440161022d565b50565b805160000361026d57604051639fac066960e01b815260040160405180910390fd5b6001600160a01b03811661026d57604051639fabe1c160e01b815260040160405180910390fd5b6000806102c983600001516106dc565b60028101549091506001600160a01b0316156102fe578251604051632141f25960e11b8152600481019190915260240161022d565b6040838101516002830180546001600160a01b03199081166001600160a01b0393841617909155606086015160038501805490921692811692909217905560018301805460ff191690556020808601519251919260009261035f9201610c7a565b6040516020818303038152906040528051906020012090506000818660200151846001600160a01b031663313ce5676040518163ffffffff1660e01b8152600401602060405180830381865afa1580156103bd573d6000803e3d6000fd5b505050506040513d601f19601f820116820180604052508101906103e19190610caf565b306040516103ee906109a3565b6103fa93929190610ccc565b8190604051809103906000f590508015801561041a573d6000803e3d6000fd5b50600185018054610100600160a81b0319166101006001600160a01b038416021790559450849050600061044d826106ee565b80549091506001600160a01b0316156104845760405163a6330c2d60e01b81526001600160a01b038716600482015260240161022d565b80546001600160a01b0319166001600160a01b038716178155602087015160018201906104b19082610d8c565b5060608701516002820180546001600160a01b0319166001600160a01b039092169190911790558651600382018190556104ea90610764565b6104f38661078b565b600061050288600001516107a9565b88518082556001820180546001600160a01b0319166001600160a01b038b1617905560208a01516040808c015160608d015191519495507fd109a1a49e2cbbbfdda2ff250815577b0c9cbda3af97dbf749f9c4a49c771c9b94610569949392908d90610e4c565b60405180910390a1505050505050919050565b6000806105876107f4565b6001600160a01b0316146105c25761059d6107f4565b60405163a6330c2d60e01b81526001600160a01b03909116600482015260240161022d565b6000836040516020016105d59190610e8f565b6040516020818303038152906040528051906020012090506000818585306040516105ff906109a3565b61060b93929190610ccc565b8190604051809103906000f590508015801561062b573d6000803e3d6000fd5b509050809250600061063c846106ee565b80546001600160a01b0319166001600160a01b03861617815590506106608461080f565b7fbaac1d377f7c2e2a167c81423f0456e71e6d48ee308b381c5d4666a6bd5242a88685604051610691929190610ec8565b60405180910390a150505092915050565b6000806106ad61083b565b6001600160a01b03851660009081526020829052604090209091506106d2908461089d565b9150505b92915050565b60006106e7826108b5565b9182555090565b60008082604051602001610745919060408082526017908201527f78797a2e656c66692e73746f726167652e4c70506f6f6c00000000000000000060608201526001600160a01b0391909116602082015260800190565b60408051601f1981840301815291905280516020909101209392505050565b600061076e610900565b600190810180549182018155600090815260209020019190915550565b6000610795610900565b90506107a46002820183610944565b505050565b6040805160208101829052601760608201527f78797a2e656c66692e73746f726167652e4d61726b65740000000000000000006080820152908101829052600090819060a001610745565b6000806107ff610900565b546001600160a01b031692915050565b6000610819610900565b80546001600160a01b0319166001600160a01b03939093169290921790915550565b60008060405160200161087f906020808252601e908201527f78797a2e656c66692e73746f726167652e416363657373436f6e74726f6c0000604082015260600190565b60408051601f19818403018152919052805160209091012092915050565b600081815260018301602052604081205415156101d8565b6040805160208101829052601760608201527f78797a2e656c66692e73746f726167652e53796d626f6c0000000000000000006080820152908101829052600090819060a001610745565b60008060405160200161087f906020808252601b908201527f78797a2e656c66692e73746f726167652e436f6d6d6f6e446174610000000000604082015260600190565b60006101d8836001600160a01b038416600081815260018301602052604081205461099b575081546001818101845560008481526020808220909301849055845484825282860190935260409020919091556106d6565b5060006106d6565b61180780610ef383390190565b6000602082840312156109c257600080fd5b813567ffffffffffffffff8111156109d957600080fd5b8201608081850312156101d857600080fd5b60ff8116811461026d57600080fd5b600080600060408486031215610a0f57600080fd5b833567ffffffffffffffff80821115610a2757600080fd5b818601915086601f830112610a3b57600080fd5b813581811115610a4a57600080fd5b876020828501011115610a5c57600080fd5b60209283019550935050840135610a72816109eb565b809150509250925092565b6000808335601e19843603018112610a9457600080fd5b83018035915067ffffffffffffffff821115610aaf57600080fd5b602001915036819003821315610ac457600080fd5b9250929050565b80356001600160a01b038116811461012b57600080fd5b600060208284031215610af457600080fd5b6101d882610acb565b634e487b7160e01b600052604160045260246000fd5b6040516080810167ffffffffffffffff81118282101715610b3657610b36610afd565b60405290565b604051601f8201601f1916810167ffffffffffffffff81118282101715610b6557610b65610afd565b604052919050565b600060808236031215610b7f57600080fd5b610b87610b13565b8235815260208084013567ffffffffffffffff80821115610ba757600080fd5b9085019036601f830112610bba57600080fd5b813581811115610bcc57610bcc610afd565b610bde601f8201601f19168501610b3c565b91508082523684828501011115610bf457600080fd5b808484018584013760009082018401529183019190915250610c1860408401610acb565b6040820152610c2960608401610acb565b606082015292915050565b6000815180845260005b81811015610c5a57602081850181015186830182015201610c3e565b506000602082860101526020601f19601f83011685010191505092915050565b60408152600b60408201526a29aa20a5a2afaa27a5a2a760a91b60608201526080602082015260006101d86080830184610c34565b600060208284031215610cc157600080fd5b81516101d8816109eb565b606081526000610cdf6060830186610c34565b60ff949094166020830152506001600160a01b0391909116604090910152919050565b600181811c90821680610d1657607f821691505b602082108103610d3657634e487b7160e01b600052602260045260246000fd5b50919050565b601f8211156107a4576000816000526020600020601f850160051c81016020861015610d655750805b601f850160051c820191505b81811015610d8457828155600101610d71565b505050505050565b815167ffffffffffffffff811115610da657610da6610afd565b610dba81610db48454610d02565b84610d3c565b602080601f831160018114610def5760008415610dd75750858301515b600019600386901b1c1916600185901b178555610d84565b600085815260208120601f198616915b82811015610e1e57888601518255948401946001909101908401610dff565b5085821015610e3c5787850151600019600388901b60f8161c191681555b5050505050600190811b01905550565b85815260a060208201526000610e6560a0830187610c34565b6001600160a01b039586166040840152938516606083015250921660809092019190915292915050565b60408152600f60408201526e29aa20a5a2afaaa9a22faa27a5a2a760891b60608201526080602082015260006101d86080830184610c34565b604081526000610edb6040830185610c34565b905060018060a01b0383166020830152939250505056fe60806040526006805460ff1916601217905534801561001d57600080fd5b5060405161180738038061180783398101604081905261003c916101af565b60408051808201909152600b81526a29ba30b5b2903a37b5b2b760a91b6020820152819084600361006d8382610324565b50600461007a8282610324565b5050506100ad7fa49807205ce4d355092ef5a8a18f56e8913cf4a201fbe287825b095693c21775826100c960201b60201c565b50506006805460ff191660ff92909216919091179055506103e3565b60008281526005602090815260408083206001600160a01b038516845290915290205460ff166101685760008281526005602090815260408083206001600160a01b03851684529091529020805460ff191660011790556101273390565b6001600160a01b0316816001600160a01b0316837f2f8788117e7eff1d82e926ec794901d17c78024a50270940304540a733656f0d60405160405180910390a45b5050565b634e487b7160e01b600052604160045260246000fd5b805160ff8116811461019357600080fd5b919050565b80516001600160a01b038116811461019357600080fd5b6000806000606084860312156101c457600080fd5b83516001600160401b03808211156101db57600080fd5b818601915086601f8301126101ef57600080fd5b8151818111156102015761020161016c565b604051601f8201601f19908116603f011681019083821181831017156102295761022961016c565b8160405282815260209350898484870101111561024557600080fd5b600091505b82821015610267578482018401518183018501529083019061024a565b6000848483010152809750505050610280818701610182565b9350505061029060408501610198565b90509250925092565b600181811c908216806102ad57607f821691505b6020821081036102cd57634e487b7160e01b600052602260045260246000fd5b50919050565b601f82111561031f576000816000526020600020601f850160051c810160208610156102fc5750805b601f850160051c820191505b8181101561031b57828155600101610308565b5050505b505050565b81516001600160401b0381111561033d5761033d61016c565b6103518161034b8454610299565b846102d3565b602080601f831160018114610386576000841561036e5750858301515b600019600386901b1c1916600185901b17855561031b565b600085815260208120601f198616915b828110156103b557888601518255948401946001909101908401610396565b50858210156103d35787850151600019600388901b60f8161c191681555b5050505050600190811b01905550565b611415806103f26000396000f3fe608060405234801561001057600080fd5b50600436106101585760003560e01c806339509351116100c35780639dc29fac1161007c5780639dc29fac146102ea578063a217fddf146102fd578063a457c2d714610305578063a9059cbb14610318578063d547741f1461032b578063dd62ed3e1461033e57600080fd5b8063395093511461026b57806340c10f191461027e57806370a082311461029157806375b238fc146102ba57806391d14854146102cf57806395d89b41146102e257600080fd5b8063248a9ca311610115578063248a9ca3146101e75780632d3456701461020a5780632f2ff15d1461021d578063313ce5671461023057806335bb3e161461024557806336568abe1461025857600080fd5b806301ffc9a71461015d57806306fdde0314610185578063078d3b791461019a578063095ea7b3146101af57806318160ddd146101c257806323b872dd146101d4575b600080fd5b61017061016b3660046110c2565b610351565b60405190151581526020015b60405180910390f35b61018d610388565b60405161017c9190611110565b6101ad6101a836600461115f565b61041a565b005b6101706101bd36600461119b565b61047c565b6002545b60405190815260200161017c565b6101706101e236600461115f565b610494565b6101c66101f53660046111c5565b60009081526005602052604090206001015490565b6101ad6102183660046111de565b6104b8565b6101ad61022b3660046111f9565b6104ec565b60065460405160ff909116815260200161017c565b6101ad6102533660046111de565b610516565b6101ad6102663660046111f9565b610546565b61017061027936600461119b565b6105c0565b6101ad61028c36600461119b565b6105e2565b6101c661029f3660046111de565b6001600160a01b031660009081526020819052604090205490565b6101c66000805160206113c083398151915281565b6101706102dd3660046111f9565b610604565b61018d61062f565b6101ad6102f836600461119b565b61063e565b6101c6600081565b61017061031336600461119b565b610660565b61017061032636600461119b565b6106db565b6101ad6103393660046111f9565b6106e9565b6101c661034c366004611225565b61070e565b60006001600160e01b03198216637965db0b60e01b148061038257506301ffc9a760e01b6001600160e01b03198316145b92915050565b6060600380546103979061124f565b80601f01602080910402602001604051908101604052809291908181526020018280546103c39061124f565b80156104105780601f106103e557610100808354040283529160200191610410565b820191906000526020600020905b8154815290600101906020018083116103f357829003601f168201915b5050505050905090565b6000805160206113c083398151915261043281610739565b306001600160a01b0384160361046b57604051638d6a597160e01b81526001600160a01b03841660048201526024015b60405180910390fd5b610476848484610746565b50505050565b60003361048a81858561079e565b5060019392505050565b6000336104a28582856108c2565b6104ad858585610936565b506001949350505050565b6000805160206113c08339815191526104d081610739565b6104e86000805160206113c083398151915283610ada565b5050565b60008281526005602052604090206001015461050781610739565b6105118383610b41565b505050565b6000805160206113c083398151915261052e81610739565b6104e86000805160206113c083398151915283610b41565b6001600160a01b03811633146105b65760405162461bcd60e51b815260206004820152602f60248201527f416363657373436f6e74726f6c3a2063616e206f6e6c792072656e6f756e636560448201526e103937b632b9903337b91039b2b63360891b6064820152608401610462565b6104e88282610ada565b60003361048a8185856105d3838361070e565b6105dd919061129f565b61079e565b6000805160206113c08339815191526105fa81610739565b6105118383610bc7565b60009182526005602090815260408084206001600160a01b0393909316845291905290205460ff1690565b6060600480546103979061124f565b6000805160206113c083398151915261065681610739565b6105118383610c86565b6000338161066e828661070e565b9050838110156106ce5760405162461bcd60e51b815260206004820152602560248201527f45524332303a2064656372656173656420616c6c6f77616e63652062656c6f77604482015264207a65726f60d81b6064820152608401610462565b6104ad828686840361079e565b60003361048a818585610936565b60008281526005602052604090206001015461070481610739565b6105118383610ada565b6001600160a01b03918216600090815260016020908152604080832093909416825291909152205490565b6107438133610db8565b50565b8060000361075357505050565b600061076484848462030d40610e11565b9050806104765760405163012f3b8f60e71b81526001600160a01b0380861660048301528416602482015260448101839052606401610462565b6001600160a01b0383166108005760405162461bcd60e51b8152602060048201526024808201527f45524332303a20617070726f76652066726f6d20746865207a65726f206164646044820152637265737360e01b6064820152608401610462565b6001600160a01b0382166108615760405162461bcd60e51b815260206004820152602260248201527f45524332303a20617070726f766520746f20746865207a65726f206164647265604482015261737360f01b6064820152608401610462565b6001600160a01b0383811660008181526001602090815260408083209487168084529482529182902085905590518481527f8c5be1e5ebec7d5bd14f71427d1e84f3dd0314c0f7b2291e5b200ac8c7c3b925910160405180910390a3505050565b60006108ce848461070e565b9050600019811461047657818110156109295760405162461bcd60e51b815260206004820152601d60248201527f45524332303a20696e73756666696369656e7420616c6c6f77616e63650000006044820152606401610462565b610476848484840361079e565b6001600160a01b03831661099a5760405162461bcd60e51b815260206004820152602560248201527f45524332303a207472616e736665722066726f6d20746865207a65726f206164604482015264647265737360d81b6064820152608401610462565b6001600160a01b0382166109fc5760405162461bcd60e51b815260206004820152602360248201527f45524332303a207472616e7366657220746f20746865207a65726f206164647260448201526265737360e81b6064820152608401610462565b6001600160a01b03831660009081526020819052604090205481811015610a745760405162461bcd60e51b815260206004820152602660248201527f45524332303a207472616e7366657220616d6f756e7420657863656564732062604482015265616c616e636560d01b6064820152608401610462565b6001600160a01b03848116600081815260208181526040808320878703905593871680835291849020805487019055925185815290927fddf252ad1be2c89b69c2b068fc378daa952ba7f163c4a11628f55a4df523b3ef910160405180910390a3610476565b610ae48282610604565b156104e85760008281526005602090815260408083206001600160a01b0385168085529252808320805460ff1916905551339285917ff6391f5c32d9c69d2a47ea670b442974b53935d1edc7fd64eb21e047a839171b9190a45050565b610b4b8282610604565b6104e85760008281526005602090815260408083206001600160a01b03851684529091529020805460ff19166001179055610b833390565b6001600160a01b0316816001600160a01b0316837f2f8788117e7eff1d82e926ec794901d17c78024a50270940304540a733656f0d60405160405180910390a45050565b6001600160a01b038216610c1d5760405162461bcd60e51b815260206004820152601f60248201527f45524332303a206d696e7420746f20746865207a65726f2061646472657373006044820152606401610462565b8060026000828254610c2f919061129f565b90915550506001600160a01b038216600081815260208181526040808320805486019055518481527fddf252ad1be2c89b69c2b068fc378daa952ba7f163c4a11628f55a4df523b3ef910160405180910390a35050565b6001600160a01b038216610ce65760405162461bcd60e51b815260206004820152602160248201527f45524332303a206275726e2066726f6d20746865207a65726f206164647265736044820152607360f81b6064820152608401610462565b6001600160a01b03821660009081526020819052604090205481811015610d5a5760405162461bcd60e51b815260206004820152602260248201527f45524332303a206275726e20616d6f756e7420657863656564732062616c616e604482015261636560f01b6064820152608401610462565b6001600160a01b0383166000818152602081815260408083208686039055600280548790039055518581529192917fddf252ad1be2c89b69c2b068fc378daa952ba7f163c4a11628f55a4df523b3ef910160405180910390a3505050565b610dc28282610604565b6104e857610dcf81610f0d565b610dda836020610f1f565b604051602001610deb9291906112b2565b60408051601f198184030181529082905262461bcd60e51b825261046291600401611110565b604080516001600160a01b038581166024830152604480830186905283518084039091018152606490920183526020820180516001600160e01b031663a9059cbb60e01b1790529151600092839182918916908690610e71908690611327565b60006040518083038160008787f1925050503d8060008114610eaf576040519150601f19603f3d011682016040523d82523d6000602084013e610eb4565b606091505b509150915081610eca5760009350505050610f05565b60008151118015610eec575080806020019051810190610eea9190611343565b155b15610efd5760009350505050610f05565b600193505050505b949350505050565b60606103826001600160a01b03831660145b60606000610f2e836002611365565b610f3990600261129f565b67ffffffffffffffff811115610f5157610f5161137c565b6040519080825280601f01601f191660200182016040528015610f7b576020820181803683370190505b509050600360fc1b81600081518110610f9657610f96611392565b60200101906001600160f81b031916908160001a905350600f60fb1b81600181518110610fc557610fc5611392565b60200101906001600160f81b031916908160001a9053506000610fe9846002611365565b610ff490600161129f565b90505b600181111561106c576f181899199a1a9b1b9c1cb0b131b232b360811b85600f166010811061102857611028611392565b1a60f81b82828151811061103e5761103e611392565b60200101906001600160f81b031916908160001a90535060049490941c93611065816113a8565b9050610ff7565b5083156110bb5760405162461bcd60e51b815260206004820181905260248201527f537472696e67733a20686578206c656e67746820696e73756666696369656e746044820152606401610462565b9392505050565b6000602082840312156110d457600080fd5b81356001600160e01b0319811681146110bb57600080fd5b60005b838110156111075781810151838201526020016110ef565b50506000910152565b602081526000825180602084015261112f8160408501602087016110ec565b601f01601f19169190910160400192915050565b80356001600160a01b038116811461115a57600080fd5b919050565b60008060006060848603121561117457600080fd5b61117d84611143565b925061118b60208501611143565b9150604084013590509250925092565b600080604083850312156111ae57600080fd5b6111b783611143565b946020939093013593505050565b6000602082840312156111d757600080fd5b5035919050565b6000602082840312156111f057600080fd5b6110bb82611143565b6000806040838503121561120c57600080fd5b8235915061121c60208401611143565b90509250929050565b6000806040838503121561123857600080fd5b61124183611143565b915061121c60208401611143565b600181811c9082168061126357607f821691505b60208210810361128357634e487b7160e01b600052602260045260246000fd5b50919050565b634e487b7160e01b600052601160045260246000fd5b8082018082111561038257610382611289565b7f416363657373436f6e74726f6c3a206163636f756e74200000000000000000008152600083516112ea8160178501602088016110ec565b7001034b99036b4b9b9b4b733903937b6329607d1b601791840191820152835161131b8160288401602088016110ec565b01602801949350505050565b600082516113398184602087016110ec565b9190910192915050565b60006020828403121561135557600080fd5b815180151581146110bb57600080fd5b808202811582820484141761038257610382611289565b634e487b7160e01b600052604160045260246000fd5b634e487b7160e01b600052603260045260246000fd5b6000816113b7576113b7611289565b50600019019056fea49807205ce4d355092ef5a8a18f56e8913cf4a201fbe287825b095693c21775a2646970667358221220792a843a97db07b05d52d1dbbf4ff22dd4bc641c2b0f9d759ddb9cd07fb4e3c364736f6c63430008190033a26469706673582212202a8c7f7ab6e3ed65ef9945f273f48d9b773ef1e66f8563766d76162e5582544364736f6c634300081900336080604052348015600f57600080fd5b506102a38061001f6000396000f3fe608060405234801561001057600080fd5b50600436106100625760003560e01c806308ba026f14610067578063131d5c8a1461008b5780631f7592ea1461009357806397e7b7f21461008b578063da57c7f814610067578063f413e81a14610093575b600080fd5b61006f61009b565b6040516001600160a01b03909116815260200160405180910390f35b61006f6100aa565b61006f6100b4565b60006100a56100be565b905090565b60006100a5610170565b60006100a56101ca565b60008061016a6040516020016100d390610247565b6040516020818303038152906040528051906020012060405160200161011590602080825260089082015267131417d59055531560c21b604082015260600190565b60405160208183030381529060405280519060200120604051602001610145929190918252602082015260400190565b604051602081830303815290604052805190602001208261022890919063ffffffff16565b91505090565b60008061016a60405160200161018590610247565b60405160208183030381529060405280519060200120604051602001610115906020808252600b908201526a151490511157d59055531560aa1b604082015260600190565b60008061016a6040516020016101df90610247565b60405160208183030381529060405280519060200120604051602001610115906020808252600f908201526e1413d4951193d31253d7d590555315608a1b604082015260600190565b600090815260029190910160205260409020546001600160a01b031690565b6020808252600c908201526b5641554c545f434f4e46494760a01b60408201526060019056fea26469706673582212205b7b2c38a1bb02df617efba2356e8456386cc045c37f071dadb56dc73d9437ce64736f6c634300081900336080604052348015600f57600080fd5b5061c1278061001f6000396000f3fe608060405234801561001057600080fd5b50600436106100625760003560e01c80632358072c146100675780635a536f8f1461008557806367180d0c1461009a578063ac9deaa4146100bb578063c0828713146100ce578063d96faa28146100e1575b600080fd5b61006f6100f4565b60405161007c919061b2b6565b60405180910390f35b61009861009336600461b3ef565b610103565b005b6100ad6100a836600461b444565b610195565b60405190815260200161007c565b6100986100c936600461b47d565b6101b3565b6100986100dc36600461b4b8565b6101e8565b6100986100ef36600461b4eb565b610259565b60606100fe610441565b905090565b6101156525a2a2a822a960d11b6106af565b60005a90506101758383808060200260200160405190810160405280939291908181526020016000905b8282101561016b5761015c6080830286013681900381019061b54b565b8152602001906001019061013f565b50505050506106e2565b61017e84610862565b610186610e47565b61018f81610e59565b50505050565b60006101aa826101a485610e85565b90610efb565b90505b92915050565b6101c56525a2a2a822a960d11b6106af565b60005a90506101db6101d68361b6bb565b610f24565b6101e481610e59565b5050565b6101fa6525a2a2a822a960d11b6106af565b60005a90506102508383808060200260200160405190810160405280939291908181526020016000905b8282101561016b576102416080830286013681900381019061b54b565b81526020019060010190610224565b61017e84611218565b600061026482611437565b80519091506001600160a01b03166102975760405163527de13160e01b8152600481018390526024015b60405180910390fd5b60005b81604001515181101561033e576103356040518060a00160405280336001600160a01b03168152602001846040015184815181106102da576102da61b776565b60200260200101516001600160a01b03168152602001846060015184815181106103065761030661b776565b60200260200101518152602001600060038111156103265761032661b78c565b815260006020909101526115fa565b5060010161029a565b5060005b8160800151518110156103ff576103f6306001600160a01b0316631f7592ea6040518163ffffffff1660e01b8152600401602060405180830381865afa158015610390573d6000803e3d6000fd5b505050506040513d601f19601f820116820180604052508101906103b4919061b7a2565b836080015183815181106103ca576103ca61b776565b6020026020010151338560a0015185815181106103e9576103e961b776565b602002602001015161189d565b50600101610342565b50610409826118ad565b6040518281527f9658b573a066e713f2cff0b7a9e1d3b1c6395ce9379f271c4c3fa96552b9904f906020015b60405180910390a15050565b6060600061044d611922565b9050600061045a82611984565b90506000815167ffffffffffffffff8111156104785761047861b504565b6040519080825280602002602001820160405280156104b157816020015b61049e61aeae565b8152602001906001900390816104965790505b50905060005b82518110156106a7578360020160008483815181106104d8576104d861b776565b6020908102919091018101518252818101929092526040908101600020815160c08101835281546001600160a01b0316815260018201548185015260028201805484518187028101870186528181529295939486019383018282801561056757602002820191906000526020600020905b81546001600160a01b03168152600190910190602001808311610549575b50505050508152602001600382018054806020026020016040519081016040528092919081815260200182805480156105bf57602002820191906000526020600020905b8154815260200190600101908083116105ab575b505050505081526020016004820180548060200260200160405190810160405280929190818152602001828054801561062157602002820191906000526020600020905b81546001600160a01b03168152600190910190602001808311610603575b505050505081526020016005820180548060200260200160405190810160405280929190818152602001828054801561067957602002820191906000526020600020905b815481526020019060010190808311610665575b5050505050815250508282815181106106945761069461b776565b60209081029190910101526001016104b7565b509392505050565b6106b93382611998565b6106df57604051632d7d0e0d60e21b81523360048201526024810182905260440161028e565b50565b60006106ec6119c8565b905060005b825181101561085d5760006001600160a01b03168382815181106107175761071761b776565b6020026020010151602001516001600160a01b0316036107b6576107b18382815181106107465761074661b776565b602002602001015160000151604051806040016040528086858151811061076f5761076f61b776565b60200260200101516040015181526020018685815181106107925761079261b776565b60200260200101516060015181525084611a0c9092919063ffffffff16565b610855565b6108558382815181106107cb576107cb61b776565b6020026020010151600001518483815181106107e9576107e961b776565b60200260200101516020015160405180604001604052808786815181106108125761081261b776565b60200260200101516040015181526020018786815181106108355761083561b776565b60200260200101516060015181525085611a54909392919063ffffffff16565b6001016106f1565b505050565b600061086d82611ad1565b9050600061087c826001611b28565b905080516000036108a05760405163c47a9fb360e01b815260040160405180910390fd5b6108fc836040516020016108df9060208082526017908201527621a0a721a2a62faba4aa242fa624a8aaa4a220aa24a7a760491b604082015260600190565b6040516020818303038152906040526108f79061b7bf565b611d51565b60005b8151811015610ab557600061093083838151811061091f5761091f61b776565b60200260200101516020015161204e565b6040805160c08101909152815481526001820154909190602083019060ff1660038111156109605761096061b78c565b60038111156109715761097161b78c565b815260018201546001600160a01b036101009091048116602083015260028301548116604083015260038301541660608201526004820180546080909201916109b99061b7e6565b80601f01602080910402602001604051908101604052809291908181526020018280546109e59061b7e6565b8015610a325780601f10610a0757610100808354040283529160200191610a32565b820191906000526020600020905b815481529060010190602001808311610a1557829003601f168201915b5050505050815250509050610a63838381518110610a5257610a5261b776565b602002602001015160200151612099565b610aac8160400151848481518110610a7d57610a7d61b776565b602002602001015160400151858581518110610a9b57610a9b61b776565b602002602001015160a0015161217b565b506001016108ff565b50610abf8261224c565b610b05576040516001600160a01b03841681527fa3f59a272f1dfdb8ee3c526423aef3002127290cafba42a61fb2e9b0e82d4de4906020015b60405180910390a1505050565b600080610b1184612282565b915091506000610b328383610b2d670de0b6b3a76400006122d5565b612343565b90506000610b5f7fc98816e2f18da65e72304fdfbb48d50dfc787c8bb19f32d98f371da2a271c4ce612353565b905060005b8551811015610e34576000868281518110610b8157610b8161b776565b602002602001015190506000610b9a826020015161204e565b6040805160c08101909152815481526001820154909190602083019060ff166003811115610bca57610bca61b78c565b6003811115610bdb57610bdb61b78c565b815260018201546001600160a01b03610100909104811660208301526002830154811660408301526003830154166060820152600482018054608090920191610c239061b7e6565b80601f0160208091040260200160405190810160405280929190818152602001828054610c4f9061b7e6565b8015610c9c5780601f10610c7157610100808354040283529160200191610c9c565b820191906000526020600020905b815481529060010190602001808311610c7f57829003601f168201915b50505050508152505090506000610cbb8360c0015184604001516123b3565b90506000610ccc83600001516123d8565b90506000610d338560400151610cfc57610cf784610cf2670de0b6b3a76400008c6126ce565b612708565b610d24565b610d2484610cf28b610d15670de0b6b3a76400006122d5565b610d1f919061b830565b61271d565b8360200151876040015161276f565b905080600003610d635784516040516398525e6b60e01b815260048101919091526024810189905260440161028e565b6000610dbe8660400151610d9557610d9083610d7e896127c0565b610d8b90620186a061b850565b6127fd565b610daf565b610daf83610da2896127c0565b610d8b90620186a061b863565b8460200151886040015161276f565b9050610e226040518060e001604052808a8152602001886020015181526020016001151581526020016001151581526020018860a001516001600160a01b031681526020018860e00151815260200183815250610e1c886000015190565b9061280d565b505060019094019350610b6492505050565b50610e3e866131ba565b50505050505050565b610e57610e526119c8565b613438565b565b60005a610e66908361b863565b90506000610e743a8361b876565b9050801561085d5761085d8161352f565b60008082604051602001610edc91906040808252601e908201527f78797a2e656c66692e73746f726167652e496e737572616e636546756e64000060608201526001600160a01b0391909116602082015260800190565b60408051601f1981840301815291905280516020909101209392505050565b60008080610f0985856135a0565b9150915081610f19576000610f1b565b805b95945050505050565b6000610f338260000151611ad1565b9050610f3e816135c7565b6000610f697fedad16eb9aadcadf5a1593333748bdf916c682c15eb6462b5be78bf7faf64851612353565b90506000610f76826135ef565b845181546001600160a01b0319166001600160a01b0390911617815590504260018201556020840151600090610fad90859061361a565b9050806060015160001480610fca57508460400151816060015114155b15610ff657845160405163ac13338d60e01b81526001600160a01b03909116600482015260240161028e565b6020858101805160028501805460018082018355600092835285832090910180546001600160a01b0319166001600160a01b0390941693909317909255606085015160038701805493840181558252939020019190915551611059908590613697565b60005b85606001515181101561120657600061109b876060015183815181106110845761108461b776565b60200260200101518761361a90919063ffffffff16565b9050866080015182815181106110b3576110b361b776565b60200260200101518160000151101561111757865160608801518051849081106110df576110df61b776565b602002602001015160405163316ce6db60e01b815260040161028e9291906001600160a01b0392831681529116602082015260400190565b83600401876060015183815181106111315761113161b776565b60209081029190910181015182546001810184556000938452919092200180546001600160a01b0319166001600160a01b0390921691909117905560808701518051600586019190849081106111895761118961b776565b60209081029190910181015182546001810184556000938452919092200155606087015180516111fd9190849081106111c4576111c461b776565b6020026020010151886080015184815181106111e2576111e261b776565b6020026020010151600d896136a3909392919063ffffffff16565b5060010161105c565b5061121183836138b6565b5050505050565b80611222816138e7565b6002810154610100900460ff161561124d57604051633046114760e01b815260040160405180910390fd5b61125a8160010154612099565b61129561126a826001015461204e565b60010154600283015460038401546001600160a01b0361010090930483169260ff909216911661217b565b600481015460028201546000916112ba916001600160a01b039091169060ff166123b3565b905060006112c78361390c565b90508015806112e45750600283015460ff1680156112e457508082115b806112fe5750600283015460ff161580156112fe57508082105b1561133d576040518481527f7040bbddb3fa88f2e5a3573d4449af1d6b555e7bc48f984accd3539d24402f7b906020015b60405180910390a150505050565b6002830154600184015460038501546040516113bd936001600160a01b03620100009091048116939216906113a09060200160208082526017908201527621a0a721a2a62faba4aa242fa624a8aaa4a220aa24a7a760491b604082015260600190565b6040516020818303038152906040526113b89061b7bf565b613b5b565b61018f6040518060e001604052806113f47fc98816e2f18da65e72304fdfbb48d50dfc787c8bb19f32d98f371da2a271c4ce612353565b8152600180870154602083015260408201526000606082015260038601546001600160a01b03166080820152600586015460a082015260c001839052849061280d565b61143f61aeae565b6000611449611922565b600084815260028083016020908152604092839020835160c08101855281546001600160a01b03168152600182015481840152928101805485518185028101850187528181529697509395919486019391929091908301828280156114d757602002820191906000526020600020905b81546001600160a01b031681526001909101906020018083116114b9575b505050505081526020016003820180548060200260200160405190810160405280929190818152602001828054801561152f57602002820191906000526020600020905b81548152602001906001019080831161151b575b505050505081526020016004820180548060200260200160405190810160405280929190818152602001828054801561159157602002820191906000526020600020905b81546001600160a01b03168152600190910190602001808311611573575b50505050508152602001600582018054806020026020016040519081016040528092919081815260200182805480156115e957602002820191906000526020600020905b8154815260200190600101908083116115d5575b505050505081525050915050919050565b6000803090506000836060015160038111156116185761161861b78c565b15806116395750836060015160038111156116355761163561b78c565b6003145b156116a757816001600160a01b0316631f7592ea6040518163ffffffff1660e01b8152600401602060405180830381865afa15801561167c573d6000803e3d6000fd5b505050506040513d601f19601f820116820180604052508101906116a0919061b7a2565b9050611784565b836060015160038111156116bd576116bd61b78c565b60010361170257816001600160a01b03166397e7b7f26040518163ffffffff1660e01b8152600401602060405180830381865afa15801561167c573d6000803e3d6000fd5b836060015160038111156117185761171861b78c565b60020361178457816001600160a01b03166308ba026f6040518163ffffffff1660e01b8152600401602060405180830381865afa15801561175d573d6000803e3d6000fd5b505050506040513d601f19601f82011682018060405250810190611781919061b7a2565b90505b602084015160808501511561187857600061179d613eb4565b60000151905085602001516001600160a01b0316816001600160a01b0316146118085760405162461bcd60e51b815260206004820152601960248201527f4465706f736974207769746820746f6b656e206572726f722100000000000000604482015260640161028e565b806001600160a01b031663d0e30db087604001516040518263ffffffff1660e01b81526004016000604051808303818588803b15801561184757600080fd5b505af115801561185b573d6000803e3d6000fd5b50505050508091506118728284886040015161429f565b50611895565b84516040860151611895916001600160a01b0384169185906142f7565b949350505050565b6000610f1b858585856000614351565b60006118b7611922565b90506118c3818361449b565b50600082815260028083016020526040822080546001600160a01b03191681556001810183905591906118f89083018261aeed565b61190660038301600061aeed565b61191460048301600061aeed565b61018f60058301600061aeed565b600080604051602001611966906020808252601f908201527f78797a2e656c66692e73746f726167652e4c696162696c697479436c65616e00604082015260600190565b60408051601f19818403018152919052805160209091012092915050565b60606000611991836144a7565b9392505050565b6000806119a3614503565b6001600160a01b03851660009081526020829052604090209091506118959084614547565b600080604051602001611966906020808252601c908201527f78797a2e656c66692e73746f726167652e4f7261636c65507269636500000000604082015260600190565b611a16838361455f565b611a2657611a248383614581565b505b6001600160a01b03909116600090815260029092016020908152604090922081518155910151600190910155565b604080516001600160a01b038581166020808401919091529085168284015282518083038401815260609092019092528051910120611a966004860182614547565b611aa957611aa76004860182614596565b505b6000908152600690940160209081526040909420815181559301516001909301929092555050565b60008082604051602001610edc919060408082526018908201527f78797a2e656c66692e73746f726167652e4163636f756e74000000000000000060608201526001600160a01b0391909116602082015260800190565b60606000611b35846145a2565b90506000611b4382856145b0565b67ffffffffffffffff811115611b5b57611b5b61b504565b604051908082528060200260200182016040528015611b9457816020015b611b8161af0b565b815260200190600190039081611b795790505b5090506000805b8351811015611d46576000611bc6858381518110611bbb57611bbb61b776565b602002602001015190565b6040805161022081018252825481526001830154602080830191909152600284015460ff808216151584860152610100808304909116151560608086019182526001600160a01b036201000090940484166080808801919091526003890154851660a08089019190915260048a015490951660c08089019190915260058a015460e0808a019190915260068b01549589019590955260078a015461012089015260088a015461014089015260098a0154610160890152600a8a0154610180890152600b8a01546101a089015288519485018952600c8a01548552600d8a015496850196909652600e89015497840197909752600f880154908301526010870154958201959095526011860154918101919091526012850154918101919091526101c082015260138301546101e08201526014909201546102008301525190915087151590151503611d3d5780848481518110611d2457611d2461b776565b6020908102919091010152611d3a60018461b850565b92505b50600101611b9b565b509095945050505050565b6000611d5c83611ad1565b90506000611d6982614747565b90508051600003611d7a5750505050565b6000611d84614755565b905060005b8251811015612046576000611dc0848381518110611da957611da961b776565b60200260200101518461479290919063ffffffff16565b604080516102208101825282546001600160a01b031681526001830154602082015260028084015491939284019160ff1690811115611e0157611e0161b78c565b6002811115611e1257611e1261b78c565b81526020016002820160019054906101000a900460ff166002811115611e3a57611e3a61b78c565b6002811115611e4b57611e4b61b78c565b81526020016002820160029054906101000a900460ff166003811115611e7357611e7361b78c565b6003811115611e8457611e8461b78c565b81526020016002820160039054906101000a900460ff166002811115611eac57611eac61b78c565b6002811115611ebd57611ebd61b78c565b8152600282015460ff640100000000820481161515602084015265010000000000820416151560408301526001600160a01b03600160301b90910416606082015260038201546080820152600482015460a0820152600582015460c080830191909152600683015460e0830152600783015461010083015260088301546101208301526009830154610140830152600a90920154610160909101528101519091501561203d57611f8f848381518110611f7857611f7861b776565b6020026020010151846147a490919063ffffffff16565b611fbb848381518110611fa457611fa461b776565b60200260200101518661481190919063ffffffff16565b80606001516002811115611fd157611fd161b78c565b600103611fe957610160810151611fe990869061481e565b838281518110611ffb57611ffb61b776565b60200260200101517fa2bce5ff82d63e38ec31c6270a397e7cae4d5ed319bd73e318d4916d4ff68668828860405161203492919061b8b1565b60405180910390a25b50600101611d89565b505050505050565b6040805160208101829052601760608201527f78797a2e656c66692e73746f726167652e53796d626f6c0000000000000000006080820152908101829052600090819060a001610edc565b6000806120a5836148e9565b9150915060006120b484614b01565b905082156120cc57425b600d82015561018f81614b4c565b6120fd6509184e72a0006120f76120e685604001516122d5565b60e08601516120f790610e10614bcc565b90614bd8565b600b8201556040820151612132906509184e72a000906120f790612120906122d5565b6101008601516120f790610e10614bcc565b600c82015560e082015160078201805460009061215090849061b9b8565b909155505061010082015160088201805460009061216f90849061b9b8565b909155504290506120be565b81156121dd57600061218c84614be4565b905060006121a08260100160030154614c3b565b90506121b5816121af84614c5a565b90614cf9565b6012830180546000906121c990849061b850565b909155505042601383015561121182614d05565b60006121e7614d46565b6001600160a01b038316600090815260038201602052604081209192505060006122148260030154614c3b565b9050612224816121af8587614d8a565b826002016000828254612237919061b850565b90915550504260038301556120468385614e01565b6000606060008061225d8584614e4a565b9250925050600082131580610f1b5750806122778361271d565b111595945050505050565b600080600061229084614ef4565b9050600061229d85614f02565b905060006122aa86614f10565b90506122bc8184848960010154614f55565b94506122cb8160a001516122d5565b9350505050915091565b60006001600160ff1b0382111561233f5760405162461bcd60e51b815260206004820152602860248201527f53616665436173743a2076616c756520646f65736e27742066697420696e2061604482015267371034b73a191a9b60c11b606482015260840161028e565b5090565b6000611895836120f78685614bcc565b60008061235e614f9a565b60008481526020829052604090205490915061045781101561238e57612387610457600161b850565b905061239c565b806123988161b9e0565b9150505b600093845260209190915260409092208290555090565b6000806123bf84614fde565b9050826123d0578060200151611895565b519392505050565b6123e061aff2565b6123e861aff2565b60008060405160200161241c906020808252600d908201526c53594d424f4c5f434f4e46494760981b604082015260600190565b60408051601f1981840301815291905280516020909101209050612441828287615071565b61244e5750909392505050565b6124d98186604051602001612483906020808252600c908201526b4d41585f4c4556455241474560a01b604082015260600190565b60408051601f1981840301815282825280516020918201209083019490945281019190915260608101919091526080015b604051602081830303815290604052805190602001208361508b90919063ffffffff16565b83526040516125109082908790612483906020016020808252600990820152685449434b5f53495a4560b81b604082015260600190565b83602001818152505061254f8186604051602001612483906020808252600d908201526c4f50454e5f4645455f5241544560981b604082015260600190565b83604001818152505061258f8186604051602001612483906020808252600e908201526d434c4f53455f4645455f5241544560901b604082015260600190565b60608401526040516125dd9082908790612483906020016020808252601a908201527f4d41585f4c4f4e475f4f50454e5f494e5445524553545f434150000000000000604082015260600190565b608084015260405161262b9082908790612483906020016020808252601b908201527f4d41585f53484f52545f4f50454e5f494e5445524553545f4341500000000000604082015260600190565b60a08401526040516126729082908790612483906020016020808252601690820152751313d391d7d4d213d49517d490551253d7d31253525560521b604082015260600190565b60c08401526040516126c09082908790612483906020016020808252601a908201527f4c4f4e475f53484f52545f4f495f424f54544f4d5f4c494d4954000000000000604082015260600190565b60e084015250909392505050565b600080826126db856122d5565b6126e5919061b9b8565b905060008113156126fe576126f98161271d565b611895565b5060009392505050565b60006101aa8383670de0b6b3a764000061509e565b60008082121561233f5760405162461bcd60e51b815260206004820181905260248201527f53616665436173743a2076616c7565206d75737420626520706f736974697665604482015260640161028e565b60008061277c848661ba0f565b90508060000361278f5784915050611991565b6127b8846121af856127a25760006127a5565b60015b60ff166127b28989615188565b90615194565b915050611991565b6000806127d083602001516123d8565b90506119916127dd6151a0565b60a0015182516127f790620186a090610d8b906002614cf9565b906157db565b60006101aa83620186a08461509e565b6040805161022081018252835481526001840154602080830191909152600285015460ff80821615158486015261010080830490911615156060808601919091526001600160a01b036201000090930483166080808701919091526003890154841660a08088019190915260048a015490941660c08088019190915260058a015460e08089019190915260068b01549488019490945260078a015461012088015260088a015461014088015260098a0154610160880152600a8a0154610180880152600b8a01546101a088015287519384018852600c8a01548452600d8a015495840195909552600e89015496830196909652600f880154908201526010870154948101949094526011860154908401526012850154838201526101c082019290925260138401546101e08201526014840154610200820152908201516000916129619161295a906122d5565b60006157f1565b90506000612972836020015161204e565b6040805160c08101909152815481526001820154909190602083019060ff1660038111156129a2576129a261b78c565b60038111156129b3576129b361b78c565b815260018201546001600160a01b036101009091048116602083015260028301548116604083015260038301541660608201526004820180546080909201916129fb9061b7e6565b80601f0160208091040260200160405190810160405280929190818152602001828054612a279061b7e6565b8015612a745780601f10612a4957610100808354040283529160200191612a74565b820191906000526020600020905b815481529060010190602001808311612a5757829003601f168201915b50505050508152505090506000612a8e84602001516123d8565b9050612a9e858360400151615801565b612aa785615906565b6000612ad4868660a0015186612ac08960c001516122d5565b86606001518a604001518b60600151615a96565b905060008160a00151128015612aed5750806102a00151155b8015612b0357506002860154610100900460ff16155b15612b2057604051627b2f7360e51b815260040160405180910390fd5b6040808401516001600160a01b0390811683529086015115156102a08301526002870154600091612b579162010000900416611ad1565b905086600501548660a0015103612c1857600287015460018801546003890154612baa92612ba3926001600160a01b03620100008304811693919291169060ff61010090910416616508565b829061658a565b60006005880181905560068801819055600788018190556008880181905560098801819055600a8801819055600b8801819055600c880181905560138801819055600d8801819055600e8801819055600f880181905560108801819055601188018190556012880155612d71565b8560a00151876005016000828254612c30919061b863565b909155505060c0820151600888018054600090612c4e90849061b863565b9091555050610120820151600988018054600090612c6d90849061b863565b9091555050610140820151600a88018054600090612c8c90849061b863565b9091555050610200820151600b88018054600090612cab90849061b863565b9091555050610260820151601388018054600090612cca90849061b9b8565b9091555050610160820151600e88018054600090612ce990849061b863565b9091555050610180820151600f88018054600090612d0890849061b863565b90915550506101a0820151601188018054600090612d2790849061b830565b90915550506101c0820151601288018054600090612d4690849061b830565b9091555050610240820151600c88018054600090612d6590849061b863565b90915550504260148801555b612e348261022001518560000151846102a00151612dda57604051602001612dbf906020808252601290820152712322a2afa1a627a9a2afa827a9a4aa24a7a760711b604082015260600190565b60405160208183030381529060405280519060200120612e24565b604051602001612e0d906020808252600f908201526e2322a2afa624a8aaa4a220aa24a7a760891b604082015260600190565b604051602081830303815290604052805190602001205b602086015160a081015190616597565b60028701546101608301516040860151602085015160a001516102a0860151612ef794610100810460ff1694939291620100009091046001600160a01b031690612ec457604051602001612ea9906020808252600d908201526c4645455f424f52524f57494e4760981b604082015260600190565b60405160208183030381529060405280519060200120616786565b604051602001612ea9906020808252600f908201526e2322a2afa624a8aaa4a220aa24a7a760891b604082015260600190565b81602001516060015115612f5e576000612f178760000151838a86616941565b9050612f34836020015160a0015183616bcd90919063ffffffff16565b50612f588560400151846020015160a0015185610200015186610280015185616bdb565b50612f8c565b612f688183616d6a565b612f8c8460400151836020015160a001518461020001518561028001516000616bdb565b612fd08460400151836020015160400151846020015160a00151612fb48661016001516122d5565b612fc28761016001516122d5565b612fcb9061ba23565b616e31565b61300d8460000151836101a00151612fe79061ba23565b6020850151604081015160028c015460a0909201519091610100900460ff161590616f8d565b6130696040518060c0016040528060001515815260200186600001518152602001846020015160a001516001600160a01b031681526020018860a00151815260200160008152602001846020015160400151151581525061703f565b6020808301516080810151865160a08301516060909301516040516130e795939492936130c891016020808252601a908201527f43414e43454c5f574954485f504f534954494f4e5f434c4f5345000000000000604082015260600190565b6040516020818303038152906040526130e09061b7bf565b8b51617248565b816102a00151156130fb576130fb82617554565b610e3e8660000151836102a00151613114576002613117565b60075b604051806101a001604052808a60c00151815260200160008152602001866040015181526020018660a00151815260200186610160015181526020018661018001518152602001866101a001518152602001866101c00151815260200186610200015181526020018661022001518152602001866102400151815260200186610260015181526020018661028001518152508a61765a909392919063ffffffff16565b60006131e57fedad16eb9aadcadf5a1593333748bdf916c682c15eb6462b5be78bf7faf64851612353565b905060006131f2826135ef565b835481546001600160a01b0319166001600160a01b0390911617815590506132174290565b6001820155600080613228856176c7565b905060005b815181101561338f57600061326483838151811061324d5761324d61b776565b60200260200101518861361a90919063ffffffff16565b8051909150156132da57846004018383815181106132845761328461b776565b602090810291909101810151825460018082018555600094855283852090910180546001600160a01b0319166001600160a01b039093169290921790915583516005890180549283018155845291909220909101555b60608101511561338657846002018383815181106132fa576132fa61b776565b602090810291909101810151825460018082018555600094855283852090910180546001600160a01b0319166001600160a01b0390931692909217909155606084015160038901805492830181558452919092209091015582516133819084908490811061336a5761336a61b776565b60200260200101518861369790919063ffffffff16565b600193505b5060010161322d565b5060005b81518110156134275760006133b383838151811061324d5761324d61b776565b80519091506000036133c5575061341f565b6133f18383815181106133da576133da61b776565b60209081029190910101518251899190600e6136a3565b8361341d5761341d83838151811061340b5761340b61b776565b602002602001015182600001516176d5565b505b600101613393565b5081156112115761121184846138b6565b600061344382611984565b905060005b815181101561085d578260020160008383815181106134695761346961b776565b60200260200101516001600160a01b03166001600160a01b03168152602001908152602001600020600080820160009055600182016000905550508260030160008383815181106134bc576134bc61b776565b60200260200101516001600160a01b03166001600160a01b031681526020019081526020016000206000808201600090556001820160009055505061352682828151811061350c5761350c61b776565b60200260200101518460000161777c90919063ffffffff16565b50600101613448565b6000613539617791565b90508181600701600082825461354f919061b850565b909155505060078101547f5425704060c90c62f0083d9ff73df530b982ea5c64c0dab3c7d5da4761a451199061358690849061b863565b600783015460408051928352602083019190915201610435565b60008080806135b8866001600160a01b0387166177d5565b909450925050505b9250929050565b80546001600160a01b03166106df57604051633902b86b60e11b815260040160405180910390fd5b6000806135fa611922565b90506136068184614596565b506000928352600201602052506040902090565b6136456040518060800160405280600081526020016000815260200160008152602001600081525090565b506001600160a01b031660009081526004919091016020908152604091829020825160808101845281548152600182015492810192909252600281015492820192909252600390910154606082015290565b6101e482826000617817565b6136b0600285018461455f565b6136f05760405162461bcd60e51b8152602060048201526011602482015270746f6b656e206e6f74206578697374732160781b604482015260640161028e565b6001600160a01b038316600090815260048501602052604090205482111561375a5760405162461bcd60e51b815260206004820152601860248201527f746f6b656e20616d6f756e74206e6f7420656e6f756768210000000000000000604482015260640161028e565b6001600160a01b038316600090815260048501602052604090206001015461378390839061b850565b6001600160a01b038416600090815260048601602052604090205410156138015760405162461bcd60e51b815260206004820152602c60248201527f746f6b656e20616d6f756e74206578636c756465207573656420616d6f756e7460448201526b206e6f7420656e6f7567682160a01b606482015260840161028e565b6001600160a01b0383166000818152600486016020818152604080842081516080810183528154808252600183015482860152600283015493820193909352600382015460608201529585529290915285929061385f90849061b863565b909155505084546001600160a01b03858116600090815260048801602052604090819020905160008051602061c0d2833981519152936138a79316918891869190889061ba4f565b60405180910390a15050505050565b7fa4a7288441eb2f92f5024e814924f8c53e12c3f5981bd9d2a2146dd24f72a605828260405161043592919061bb40565b80600501546000036106df57604051634a32858f60e01b815260040160405180910390fd5b60008061391c83600101546123d8565b9050600061393e846005015483600001516139356151a0565b60a001516178d0565b6040805161022081018252865481526001870154602080830191909152600288015460ff80821615158486015261010080830490911615156060808601919091526001600160a01b0362010000909304831660808087019190915260038c0154841660a08088019190915260048d015490941660c08088019190915260058d015460e08089019190915260068e01549488019490945260078d015461012088015260088d015461014088015260098d0154610160880152600a8d0154610180880152600b8d01546101a088015287519384018852600c8d01548452600d8d015495840195909552600e8c015496830196909652600f8b01549082015260108a0154948101949094526011890154908401526012880154908301526101c081019190915260138601546101e08201526014860154610200820152909150600090613a86906178ee565b600286015490915060009060ff16613acf5781613ac08488600901548960050154613ab1919061b850565b613abb919061b863565b6122d5565b613aca919061b830565b613afc565b81613af28488600901548960050154613ae8919061b863565b613abb919061b850565b613afc919061b9b8565b90506000811215613b135750600095945050505050565b6000613b348760050154613b2e89600601546121af8661271d565b90615188565b60208601516002890154919250613b509183919060ff1661276f565b979650505050505050565b6000613b6685611ad1565b90506000613b7382614747565b90508051600003613b8557505061018f565b6000613b8f614755565b905060005b8251811015613eaa576000613bb4848381518110611da957611da961b776565b604080516102208101825282546001600160a01b031681526001830154602082015260028084015491939284019160ff1690811115613bf557613bf561b78c565b6002811115613c0657613c0661b78c565b81526020016002820160019054906101000a900460ff166002811115613c2e57613c2e61b78c565b6002811115613c3f57613c3f61b78c565b81526020016002820160029054906101000a900460ff166003811115613c6757613c6761b78c565b6003811115613c7857613c7861b78c565b81526020016002820160039054906101000a900460ff166002811115613ca057613ca061b78c565b6002811115613cb157613cb161b78c565b81526002820154640100000000810460ff908116151560208085019190915265010000000000830490911615156040840152600160301b9091046001600160a01b0316606083015260038301546080830152600483015460a0830152600583015460c0830152600683015460e0830152600783015461010083015260088301546101208301526009830154610140830152600a909201546101609091015281015190915088148015613d795750866001600160a01b03168161010001516001600160a01b0316145b8015613d87575060c0810151155b15613ea157613da1848381518110611f7857611f7861b776565b613db6848381518110611fa457611fa461b776565b80606001516002811115613dcc57613dcc61b78c565b600103613e4d57613e4b306001600160a01b03166397e7b7f26040518163ffffffff1660e01b8152600401602060405180830381865afa158015613e14573d6000803e3d6000fd5b505050506040513d601f19601f82011682018060405250810190613e38919061b7a2565b610100830151835161016085015161189d565b505b838281518110613e5f57613e5f61b776565b60200260200101517fa2bce5ff82d63e38ec31c6270a397e7cae4d5ed319bd73e318d4916d4ff686688288604051613e9892919061b8b1565b60405180910390a25b50600101613b94565b5050505050505050565b613f0c60405180610120016040528060006001600160a01b0316815260200160008152602001600081526020016000815260200160008152602001600081526020016000815260200160008152602001600081525090565b600080604051602001613f3f906020808252600c908201526b434841494e5f434f4e46494760a01b604082015260600190565b604051602081830303815290604052805190602001209050613fe181604051602001613f8c906020808252600d908201526c2ba920a82822a92faa27a5a2a760991b604082015260600190565b60405160208183030381529060405280519060200120604051602001613fbc929190918252602082015260400190565b60405160208183030381529060405280519060200120836178fc90919063ffffffff16565b6001600160a01b03168352604051614058908290614028906020016020808252601290820152711352539517d1d054d7d1915157d31253525560721b604082015260600190565b604051602081830303815290604052805190602001206040516020016124b4929190918252602082015260400190565b83602001818152505061409d816040516020016140289060208082526014908201527314915111515357d1d054d7d1915157d31253525560621b604082015260600190565b8360400181815250506140f6816040516020016140289060208082526022908201527f504c4143455f494e4352454153455f4f524445525f4741535f4645455f4c494d604082015261125560f21b606082015260800190565b606084015260405161414d9082906140289060200160208082526022908201527f504c4143455f44454352454153455f4f524445525f4741535f4645455f4c494d604082015261125560f21b606082015260800190565b60808401526040516141a69082906140289060200160208082526024908201527f504f534954494f4e5f5550444154455f4d415247494e5f4741535f4645455f4c6040820152631253525560e21b606082015260800190565b60a08401526040516142019082906140289060200160208082526026908201527f504f534954494f4e5f5550444154455f4c455645524147455f4741535f46454560408201526517d31253525560d21b606082015260800190565b60c08401526040516142469082906140289060200160208082526016908201527515d2551211149055d7d1d054d7d1915157d31253525560521b604082015260600190565b60e0840152604051614292908290614028906020016020808252601b908201527f434c41494d5f524557415244535f4741535f4645455f4c494d49540000000000604082015260600190565b6101008401525090919050565b806000036142ac57505050565b60006142bd84848462030d4061791b565b90508061018f5760405163012f3b8f60e71b81526001600160a01b038086166004830152841660248201526044810183905260640161028e565b604080516001600160a01b0385811660248301528416604482015260648082018490528251808303909101815260849091019091526020810180516001600160e01b03166323b872dd60e01b17905261018f908590617a15565b60008260000361436357506000610f1b565b6040516370a0823160e01b81526001600160a01b038781166004830152600091908716906370a0823190602401602060405180830381865afa1580156143ad573d6000803e3d6000fd5b505050506040513d601f19601f820116820180604052508101906143d1919061bbcc565b905083811061444e5760405163078d3b7960e01b81526001600160a01b03878116600483015286811660248301526044820186905288169063078d3b7990606401600060405180830381600087803b15801561442c57600080fd5b505af1158015614440573d6000803e3d6000fd5b505050506001915050610f1b565b8261448e57604051635ac09ed760e11b81526001600160a01b0380891660048301528088166024830152861660448201526064810185905260840161028e565b5060009695505050505050565b60006101aa8383617aea565b6060816000018054806020026020016040519081016040528092919081815260200182805480156144f757602002820191906000526020600020905b8154815260200190600101908083116144e3575b50505050509050919050565b600080604051602001611966906020808252601e908201527f78797a2e656c66692e73746f726167652e416363657373436f6e74726f6c0000604082015260600190565b600081815260018301602052604081205415156101aa565b6001600160a01b038116600090815260018301602052604081205415156101aa565b60006101aa836001600160a01b038416617be4565b60006101aa8383617be4565b60606101ad82600501611984565b6000806145bb61af0b565b60005b855181101561473d576145dc868281518110611bbb57611bbb61b776565b6040805161022081018252825481526001830154602080830191909152600284015460ff808216151584860152610100808304909116151560608086019182526001600160a01b036201000090940484166080808801919091526003890154851660a08089019190915260048a015490951660c08089019190915260058a015460e0808a019190915260068b01549589019590955260078a015461012089015260088a015461014089015260098a0154610160890152600a8a0154610180890152600b8a01546101a089015288519485018952600c8a01548552600d8a015496850196909652600e89015497840197909752600f880154908301526010870154958201959095526011860154918101919091526012850154918101919091526101c082015260138301546101e082015260149092015461020083015251909250851515901515036147355761473260018461b850565b92505b6001016145be565b5090949350505050565b60606101ad82600701611984565b600080604051602001611966906020808252601690820152753c3cbd1732b633349739ba37b930b3b29727b93232b960511b604082015260600190565b60009081526020919091526040902090565b60009081526020919091526040812080546001600160a01b0319168155600181018290556002810180546001600160d01b031916905560038101829055600481018290556005810182905560068101829055600781018290556008810182905560098101829055600a0155565b61085d600783018261449b565b80826001015410156148835760405162461bcd60e51b815260206004820152602860248201527f6f72646572486f6c64496e55736420697320736d616c6c6572207468616e20686044820152671bdb19125b955cd960c21b606482015260840161028e565b6001820180549082906000614898838561b863565b909155505082546001840154604080516001600160a01b039093168352602083018490528201527f2fecad931c93369a4c0c3aac4f460de814ed19416a258e434e0d67940f0a8cbd90606001610af8565b60006148f361b037565b6148fb61b037565b600061490685614b01565b905060006149138661204e565b9050614920826002015490565b835261492b82617c33565b6020840152825115801561494157506020830151155b80614950575060208301518351145b1561496357506001959194509092505050565b61496c82617caa565b6040840181905260000361498857506001959194509092505050565b602083015183511161012084015261499f82617ccb565b606084018190526040840151845160208601516149c593926121af929091839190617d37565b6080840152825115614a81578261012001516149ff57825160808401516149fa916149f09190615188565b8460400151617d46565b614a0f565b82516080840151614a0f91615188565b60a084018190526003820154614a5391613abb91614a35906001600160a01b0316617d62565b6003850154614a4e906001600160a01b031660016123b3565b617dc6565b60e0840152610120830151614a75578260e00151614a709061ba23565b614a7b565b8260e001515b60e08401525b602083015115614af357826101200151614ab857614ab3613abb8460200151856080015161518890919063ffffffff16565b614aec565b614ae3613abb614ad98560200151866080015161518890919063ffffffff16565b8560400151617d46565b614aec9061ba23565b6101008401525b506000959194509092505050565b6040805160208101829052601760608201527f78797a2e656c66692e73746f726167652e4d61726b65740000000000000000006080820152908101829052600090819060a001610edc565b8054604080519182526007830154602083015260088301549082015260098201546060820152600a8201546080820152600b82015460a0820152600c82015460c0820152600d82015460e08201527f5a51d9147354371a353006fe6ea5741b6fdddd5d868eb25f5361cecc080dfa1590610100015b60405180910390a150565b60006101aa828461bbe5565b60006101aa828461bc15565b60008082604051602001610edc919060408082526017908201527f78797a2e656c66692e73746f726167652e4c70506f6f6c00000000000000000060608201526001600160a01b0391909116602082015260800190565b600081600003614c4d57506000919050565b81425b6101ad919061b863565b6004810154600090158015614c7157506007820154155b15614c7e57506000919050565b6007820154600483015460009190614c95906122d5565b614c9f919061b9b8565b905060008113614cb25750600092915050565b6000614cd68460040160020154614cc88461271d565b670de0b6b3a7640000617deb565b8454909150611895908290614cf3906001600160a01b0316617df8565b51612708565b60006101aa828461b876565b80546040517ff23a1644a253a05158a5664e7dcdb9169fcae91f76675245abc54ab5f98a01bb91614bc1916001600160a01b0390911690601085019061bc43565b6000806040516020016119669060208082526018908201527f78797a2e656c66692e73746f726167652e557364506f6f6c0000000000000000604082015260600190565b6000614d96838361818f565b51158015614daf5750614da9838361818f565b60400151155b15614dbc575060006101ad565b6000614df2614dcb858561818f565b60200151614dd9868661818f565b60400151614de7878761818f565b51614cc8919061b850565b905061189581610cf2856181f5565b6001600160a01b03811660009081526003830160205260409081902090517f1ce920cb88be503ae9377cd07aae1e28e7ca6c64e897ad6ff9b74c2d329d7d83916104359161bc7d565b600080600080614e5a86866182a1565b90506000614e688787618389565b90506000614e768888618468565b90506000614e8a8285858c60010154614f55565b90506000826060015111614eaf57600081836060015196509650965050505050614eed565b6000811315614eda57614ed5613abb614ec78361271d565b8460600151620186a0617deb565b614edd565b60005b6060909201519196509450925050505b9250925092565b6000606061199183826182a1565b600060606119918382618389565b614f496040518060c001604052806000815260200160008152602001600081526020016000815260200160008152602001600081525090565b60606119918382618468565b60008460800151614f65846122d5565b86516020880151614f7c908690613ae8908a61b850565b614f86919061b9b8565b614f90919061b830565b610f1b919061b830565b600080604051602001611966906020808252601c908201527f78797a2e656c66692e73746f726167652e5575696443726561746f7200000000604082015260600190565b60408051808201909152600080825260208201526000614ffc6119c8565b604080518082018252600080825260209182018190526001600160a01b0387168152600284018252829020825180840190935280548084526001909101549183019190915291925090158061505357506020810151155b156119915760405163907adecd60e01b815260040160405180910390fd5b6000828152600d8401602052604081206118959083614547565b6000908152602091909152604090205490565b60008080600019858709858702925082811083820303915050806000036150d8578382816150ce576150ce61b9f9565b0492505050611991565b80841161511f5760405162461bcd60e51b81526020600482015260156024820152744d6174683a206d756c446976206f766572666c6f7760581b604482015260640161028e565b60008486880960026001871981018816978890046003810283188082028403028082028403028082028403028082028403028082028403029081029092039091026000889003889004909101858311909403939093029303949094049190911702949350505050565b60006101aa828461bca8565b60006101aa828461b850565b615220604051806102000160405280606081526020016060815260200160008152602001600081526020016000815260200160008152602001600081526020016000815260200160008152602001600081526020016000815260200160008152602001600081526020016000815260200160008152602001600081525090565b600080604051602001615253906020808252600c908201526b54524144455f434f4e46494760a01b604082015260600190565b6040516020818303038152906040528051906020012090506152f48160405160200161529f906020808252600c908201526b54524144455f544f4b454e5360a01b604082015260600190565b604051602081830303815290604052805190602001206040516020016152cf929190918252602082015260400190565b604051602081830303815290604052805190602001208361863b90919063ffffffff16565b8084525167ffffffffffffffff8111156153105761531061b504565b60405190808252806020026020018201604052801561534957816020015b61533661b08c565b81526020019060019003908161532e5790505b50602084015260005b8351518110156153ab57615382846000015182815181106153755761537561b776565b60200260200101516186aa565b846020015182815181106153985761539861b776565b6020908102919091010152600101615352565b506153e8816040516020016140289060208082526014908201527313525397d3d491115497d3505491d25397d554d160621b604082015260600190565b83604001818152505061543681604051602001614028906020808252601a908201527f415641494c41424c455f434f4c4c41544552414c5f524154494f000000000000604082015260600190565b6060840152604051615474908290614028906020016020808252600f908201526e10d493d4d4d7d3151597d312535255608a1b604082015260600190565b60808401526040516154c0908290614028906020016020808252601b908201527f4d41585f4d41494e54454e414e43455f4d415247494e5f524154450000000000604082015260600190565b60a08401526040516155049082906140289060200160208082526015908201527446554e44494e475f4645455f424153455f5241544560581b604082015260600190565b60c0840152604051615548908290614028906020016020808252601590820152744d41585f46554e44494e475f424153455f5241544560581b604082015260600190565b60e084015260405161559e9082906140289060200160208082526021908201527f54524144494e475f4645455f5354414b494e475f524557415244535f524154496040820152604f60f81b606082015260800190565b6101008401526040516155eb908290614028906020016020808252601e908201527f54524144494e475f4645455f504f4f4c5f524557415244535f524154494f0000604082015260600190565b6101208401526040516156439082906140289060200160208082526022908201527f54524144494e475f4645455f5553445f504f4f4c5f524557415244535f524154604082015261494f60f01b606082015260800190565b61014084015260405161569c9082906140289060200160208082526023908201527f424f52524f57494e475f4645455f5354414b494e475f524557415244535f524160408201526254494f60e81b606082015260800190565b6101608401526040516156e7908290614028906020016020808252818101527f424f52524f57494e475f4645455f504f4f4c5f524557415244535f524154494f604082015260600190565b6101808401526040516157349082906140289060200160208082526019908201527f4155544f5f5245445543455f50524f4649545f464143544f5200000000000000604082015260600190565b6101a0840152604051615781908290614028906020016020808252601c908201527f4155544f5f5245445543455f4c49515549444954595f464143544f5200000000604082015260600190565b6101c08401526040516157ce9082906140289060200160208082526019908201527f535741505f534c49505045525f544f4b454e5f464143544f5200000000000000604082015260600190565b6101e08401525090919050565b60008183106157ea57816101aa565b5090919050565b60006060610f1b858286866189cb565b6002820154600383015460009161582691849160ff16906001600160a01b03166189f4565b9050600061585c61584d8560080154620186a08760070154615848919061b863565b618a47565b600d860154610cf2908561b863565b90508084600c016002016000828254615875919061b850565b909155505060038401546158bc908290615897906001600160a01b0316617d62565b600387015460028801546158b7916001600160a01b03169060ff166123b3565b618a57565b600f850180546000906158d090849061b850565b9091555050600d84018290556002840154600385015461018f91859160ff909116906001600160a01b03166000612fcb866122d5565b6001810154600282015460009161591f9160ff16618a7a565b60108301549091508103615931575050565b600061595761594384600501546122d5565b6010850154615952908561b830565b618aa2565b600284015490915060009060ff16156159ea578190508184600c016005016000828254615984919061b9b8565b909155505060038401546159cb9083906159a6906001600160a01b0316617d62565b600387015460028801546159c6916001600160a01b03169060ff166123b3565b618ac2565b6012850180546000906159df90849061b9b8565b90915550615a679050565b6003840154615a2c908390615a07906001600160a01b0316617d62565b60038701546002880154615a27916001600160a01b03169060ff166123b3565b618af0565b90508084600c016005016000828254615a45919061b9b8565b9091555050601284018054839190600090615a6190849061b9b8565b90915550505b601084018390556001808501546002860154600387015461018f93859260ff16916001600160a01b0316616f8d565b615a9e61b0da565b876040518061022001604052908160008201548152602001600182015481526020016002820160009054906101000a900460ff161515151581526020016002820160019054906101000a900460ff161515151581526020016002820160029054906101000a90046001600160a01b03166001600160a01b03166001600160a01b031681526020016003820160009054906101000a90046001600160a01b03166001600160a01b03166001600160a01b031681526020016004820160009054906101000a90046001600160a01b03166001600160a01b03166001600160a01b031681526020016005820154815260200160068201548152602001600782015481526020016008820154815260200160098201548152602001600a8201548152602001600b8201548152602001600c82016040518060e00160405290816000820154815260200160018201548152602001600282015481526020016003820154815260200160048201548152602001600582015481526020016006820154815250508152602001601382015481526020016014820154815250508160200181905250848160600181815250506000615c6c8960030160009054906101000a90046001600160a01b031660006123b3565b9050615c778161271d565b60408301526003890154600090615c96906001600160a01b0316617d62565b9050888a600501540361609f57826020015161014001518360c0018181525050826020015161016001518361012001818152505082602001516101a0015183610200018181525050615e7f898b6040518061022001604052908160008201548152602001600182015481526020016002820160009054906101000a900460ff161515151581526020016002820160019054906101000a900460ff161515151581526020016002820160029054906101000a90046001600160a01b03166001600160a01b03166001600160a01b031681526020016003820160009054906101000a90046001600160a01b03166001600160a01b03166001600160a01b031681526020016004820160009054906101000a90046001600160a01b03166001600160a01b03166001600160a01b031681526020016005820154815260200160068201548152602001600782015481526020016008820154815260200160098201548152602001600a8201548152602001600b8201548152602001600c82016040518060e0016040529081600082015481526020016001820154815260200160028201548152602001600382015481526020016004820154815260200160058201548152602001600682015481525050815260200160138201548152602001601482015481525050618b25565b61018085015261016084015260208301516101c0908101805160a001516101a0860152805160c001519185019190915251516102408401819052615ecd908290615ec88561271d565b618b9e565b6102208401819052615ede906122d5565b836101a00151615ef28561016001516122d5565b615efc919061b9b8565b615f06919061b9b8565b6101e08401528415615fee5783615f1e576000615f82565b615f82615f31613abb8560200151618bab565b89615f3b86618be0565b615f4d876020015161016001516122d5565b615f57919061b830565b615f61919061b9b8565b615f6b919061b830565b615f7c856020015160a00151617d62565b84618af0565b60a084015260c0830151615f95906122d5565b8360a00151615fa4919061b830565b608084015260208301516101600151615fcc908990615fc2906122d5565b615f6b919061b9b8565b615fd98460c001516122d5565b615fe3919061b830565b610280840152616075565b61601788615ffb85618be0565b61600d866020015161016001516122d5565b615fc2919061b830565b60a084015260c083015161602a906122d5565b8360a00151616039919061b830565b608084015260208301516101600151616057908990615fc2906122d5565b6160648460c001516122d5565b61606e919061b830565b6102808401525b616094836080015161608e856020015160a00151617d62565b84618ac2565b6102608401526164ab565b602083015160e0810151610140909101516160bf9190613b2e908c614cf9565b60c0840152602083015160e08101516101a0909101516160e49190613b2e908c614cf9565b6102008401526160f48987618a47565b8361024001818152505061629f898b6040518061022001604052908160008201548152602001600182015481526020016002820160009054906101000a900460ff161515151581526020016002820160019054906101000a900460ff161515151581526020016002820160029054906101000a90046001600160a01b03166001600160a01b03166001600160a01b031681526020016003820160009054906101000a90046001600160a01b03166001600160a01b03166001600160a01b031681526020016004820160009054906101000a90046001600160a01b03166001600160a01b03166001600160a01b031681526020016005820154815260200160068201548152602001600782015481526020016008820154815260200160098201548152602001600a8201548152602001600b8201548152602001600c82016040518060e0016040529081600082015481526020016001820154815260200160028201548152602001600382015481526020016004820154815260200160058201548152602001600682015481525050815260200160138201548152602001601482015481525050618b25565b6101808501526101608401526162b4896122d5565b8360e00181815250506162ce836020015160e001516122d5565b610100840181905260e084015160208501516101c0015160a001516162f892916120f79190614bcc565b6101a084015261010083015160e084015160208501516101c0015160c0015161632692916120f79190614bcc565b6101c080850191909152602084015101515161024084015111156163565760208301516101c00151516102408401525b61636981846102400151615ec88561271d565b610220840181905261637a906122d5565b836101a0015161638e8561016001516122d5565b616398919061b9b8565b6163a2919061b9b8565b6101e084015261010083015160e08401516163f591615f6b916120f7908c6163c989618be0565b6163db8a6020015161016001516122d5565b6163e5919061b830565b6163ef919061b9b8565b90614bcc565b60a084015260c0830151616408906122d5565b8360a00151616417919061b830565b836080018181525050616447615f6b8461010001516120f78660e001518c6163e5896020015161016001516122d5565b6164548460c001516122d5565b61645e919061b830565b61028084015260058a0154602084015161016001516164829190613b2e908c614cf9565b6101208401526080830151602084015160a001516164a4919061608e90617d62565b6102608401525b89600901548a600a01548461012001516164c5919061b850565b116164d15760006164f5565b89600901548a600a01548461012001516164eb919061b850565b6164f5919061b863565b6101408401525050979650505050505050565b6040805160a06020808301829052601960c08401527f78797a2e656c66692e73746f726167652e506f736974696f6e0000000000000060e0808501919091526001600160a01b03988916848601526060840197909752949096166080820152911515948201949094528351808203909301835261010001909252805191012090565b61085d600583018261449b565b60008481527fb31b5831e77ebf4a20e050d886d24b00d24f44760e3342d08fb455df41d4aaf8602052604081207fb31b5831e77ebf4a20e050d886d24b00d24f44760e3342d08fb455df41d4aafa917fb31b5831e77ebf4a20e050d886d24b00d24f44760e3342d08fb455df41d4ab01906166106151a0565b905061661a61b192565b6166238961204e565b600101546001600160a01b03610100918290041660c083015282015161664a908b90618a47565b6040820152610120820151616660908b90618a47565b606082018190526040820151616682919061667c908d90618c18565b90618c18565b60a082015260608101516166999085908990618c24565b60c081015160408201516166b09187918a90618c85565b60c081015160a08201516166c79185918a90618c85565b8560600151156167115760608101516166e39085908990618ce4565b60c081015160408201516166fa9187918a90618d45565b60c081015160a08201516167119185918a90618d45565b6080868101518751604080518d81526001600160a01b03938416602082015280820192909252606082018c9052918a169281019290925260a082018c9052517f2ae7718f4105fe717c24426c57b47946a517e684f5458c2069ef013a7b85faf19181900360c00190a150505050505050505050565b6001600160a01b03841660009081527fb31b5831e77ebf4a20e050d886d24b00d24f44760e3342d08fb455df41d4aaf9602052604081207fb31b5831e77ebf4a20e050d886d24b00d24f44760e3342d08fb455df41d4aafa917fb31b5831e77ebf4a20e050d886d24b00d24f44760e3342d08fb455df41d4ab01906168096151a0565b905061681361b192565b6168228a836101600151618a47565b6040820152610180820151616838908b90618a47565b608082018190526040820151616854919061667c908d90618c18565b60a0820152604081015161686d9086908b908b90618c85565b608081015161687f9085908a90618c24565b60a08101516168939084908b908b90618c85565b8a156168d35760408101516168ad9086908b908b90618d45565b60808101516168bf9085908a90618ce4565b60a08101516168d39084908b908b90618d45565b604080518c151581526001600160a01b038b811660208301528a811682840152891660608201526080810188905260a081018c905290517fc6808235a634ed03a8e9b566f817b485bebc047ac6d8ddda1f07e5173f0a18f59181900360c00190a15050505050505050505050565b600080826101e00151131561697a57616974826020015160a0015161696a846101e0015161271d565b8691906003618da4565b506169a2565b6169a2826020015160a00151616998846101e00151610d1f9061ba23565b8691906003618efc565b602082015160a0015160c08301516169bd9186916005618fc1565b6000306001600160a01b0316631f7592ea6040518163ffffffff1660e01b8152600401602060405180830381865afa1580156169fd573d6000803e3d6000fd5b505050506040513d601f19601f82011682018060405250810190616a21919061b7a2565b90506000836080015112616ad357616a5d836020015160a00151616a53856101e001518660800151610d1f919061b9b8565b8791906004618efc565b616a9b836020015160400151616a7a57616a756190ce565b616a7d565b83515b846020015160a0015183616a94876080015161271d565b6001614351565b50826020015160400151616ace57616acc616ab46190ce565b602085015160a0015185516102208701516001614351565b505b616b37565b600083608001511215616b3757616b05836020015160a00151616afd8560800151610d1f9061ba23565b8791906190e9565b9150616b3581846020015160a00151856000015185616b2b8860800151610d1f9061ba23565b616a94919061b863565b505b826102a00151616bc4576000616b508460c001516122d5565b8460a00151616b86613abb87602001516101600151613b2e896020015161014001518a6101400151614cf990919063ffffffff16565b616b90919061b9b8565b616b9a919061b830565b8654602086015160a001518754929350616bc2928a926001600160a01b0316919085906190f8565b505b50949350505050565b60006101aa838360006191ba565b6000616be686614be4565b60028101549091506001600160a01b03808716911603616c9e57616c0a81856192d4565b6000831215616c2e57616c29616c22610d1f8561ba23565b829061937a565b612046565b81600003616c4957616c29616c428461271d565b8290619386565b6000616c548461271d565b9050616c78838211616c67576000616c71565b616c71848361b863565b8390619386565b616c98838211616c885784616c91565b616c91846122d5565b8390619392565b50612046565b6000616ca8614d46565b9050616cb58187876193e8565b6000841215616cf5576000616ccc610d1f8661ba23565b9050616cd98388836194d9565b616ce4828883619553565b616cef828883619637565b50610e3e565b82600003616d1757616d1286616d0a8661271d565b8491906196be565b610e3e565b6000616d228561271d565b9050616d4887858311616d36576000616d40565b616d40868461b863565b8591906196be565b613eaa87858311616d595786616d62565b616d62866122d5565b859190619788565b806102a0015115616d79575050565b600081608001511280616da157506000816080015112158015616da157508060200151604001515b15616dd1578051602082015160a09081015184549184015161085d93926001600160a01b031690616a949061271d565b616e05616ddc6190ce565b602083015160a0015183516102208501516080860151616dfb9061271d565b616a94919061b850565b508051602082015160a09081015184549184015161085d93926001600160a01b031690616a949061271d565b8315616edd576000616e4286614be4565b905060008313616e6c57616e58610d1f8461ba23565b6010820154616e67919061b863565b616e84565b616e758361271d565b6010820154616e84919061b850565b601082015560008213616eb157616e9d610d1f8361ba23565b6011820154616eac919061b863565b616ec9565b616eba8261271d565b6011820154616ec9919061b850565b6011820155616ed781614d05565b50611211565b6000616ee7614d46565b6001600160a01b038516600090815260038201602052604081209192508413616f2757616f16610d1f8561ba23565b8154616f22919061b863565b616f3c565b616f308461271d565b8154616f3c919061b850565b815560008313616f6657616f52610d1f8461ba23565b8160010154616f61919061b863565b616f7e565b616f6f8361271d565b8160010154616f7e919061b850565b6001820155610e3e8286614e01565b6000616f9886614b01565b90508315616fc25784816007016002016000828254616fb7919061b9b8565b90915550616fdf9050565b84816007016003016000828254616fd9919061b9b8565b90915550505b616fe881614b4c565b8215612046576000616ff98761204e565b9050600061701d8260010160019054906101000a90046001600160a01b0316614be4565b905085156170345761702f8188619392565b613eaa565b613eaa818589619788565b600061704e8260200151614b01565b9050600061705f83602001516123d8565b8351909150801561707157508260a001515b1561708d5761708882600201848360200151619838565b617129565b8251801561709d57508260a00151155b156170eb5760408301516170b29083906198fc565b61708882600601600085604001516001600160a01b03166001600160a01b03168152602001908152602001600020848360200151619838565b8251617129576171298360a0015161711e576040808501516001600160a01b031660009081526006850160205220617123565b826002015b8461991a565b82511561085d57600061713d836002015490565b9050600061714a84617c33565b90508460a0015180156171605750826080015182115b1561719357602085015160a0860151604051633ea6fa5360e11b815260048101929092521515602482015260440161028e565b8460a001511580156171a857508260a0015181115b156171db57602085015160a0860151604051633ea6fa5360e11b815260048101929092521515602482015260440161028e565b60006171e783836157db565b90508360e001518110156171fd57505050505050565b61721461720a838561b850565b8560c00151618a47565b8161721f8585617d37565b617229919061b863565b1115612046576040516387fd15d760e01b815260040160405180910390fd5b600061725387611ad1565b9050600061726082614747565b90508051600003617272575050612046565b600061727c614755565b905060005b8251811015617548578483828151811061729d5761729d61b776565b602002602001015103156175405760006172c2848381518110611da957611da961b776565b604080516102208101825282546001600160a01b031681526001830154602082015260028084015491939284019160ff16908111156173035761730361b78c565b60028111156173145761731461b78c565b81526020016002820160019054906101000a900460ff16600281111561733c5761733c61b78c565b600281111561734d5761734d61b78c565b81526020016002820160029054906101000a900460ff1660038111156173755761737561b78c565b60038111156173865761738661b78c565b81526020016002820160039054906101000a900460ff1660028111156173ae576173ae61b78c565b60028111156173bf576173bf61b78c565b81526002820154640100000000810460ff908116151560208085019190915265010000000000830490911615156040840152600160301b9091046001600160a01b0316606083015260038301546080830152600483015460a0830152600583015460c0830152600683015460e0830152600783015461010083015260088301546101208301526009830154610140830152600a90920154610160909101528101519091508a1480156174875750886001600160a01b03168161010001516001600160a01b0316145b80156174a85750806080015160038111156174a4576174a461b78c565b6003145b80156174bb57508715158160c001511515145b1561753e576174d5848381518110611fa457611fa461b776565b6174ea848381518110611f7857611f7861b776565b8382815181106174fc576174fc61b776565b60200260200101517fa2bce5ff82d63e38ec31c6270a397e7cae4d5ed319bd73e318d4916d4ff68668828960405161753592919061b8b1565b60405180910390a25b505b600101617281565b50505050505050505050565b806020015160600151156175a0578051602082015160a08101516106df929161759b9061758090618bab565b617591866020015160a00151617d62565b8660400151617dc6565b6199b5565b600080826101e0015112617607576175c7826102800151836101e00151610d1f919061b9b8565b8260c00151116175d8576000617600565b6175f1826102800151836101e00151610d1f919061b9b8565b8260c00151617600919061b863565b9050617643565b61761582610280015161271d565b617627836101e00151610d1f9061ba23565b8360c00151617636919061b850565b617640919061b863565b90505b6101e48260000151836020015160a00151836199b5565b6002840154600185015460038601547fee2b9c77532fd89e66e2f431c2001e4bcc30fb5bc62ee9cdac252f89540067ae9286926176b3926001600160a01b0362010000840481169391169060ff61010090910416616508565b84878560405161132f95949392919061bcbc565b60606101ad82600201611984565b60006176df617791565b90506000806176f160088401866135a0565b91509150811561771a5761771485617709868461b850565b600886019190619aaf565b5061772a565b617728600884018686619aaf565b505b7f9b4697523df9dad7380bc9824c0a740b381d50dece736d24a7f48ee23bc97fc38582617757878261b850565b604080516001600160a01b0390941684526020840192909252908201526060016138a7565b60006101aa836001600160a01b038416617aea565b600080604051602001611966906020808252601b908201527f78797a2e656c66692e73746f726167652e436f6d6d6f6e446174610000000000604082015260600190565b6000818152600283016020526040812054819080617804576177f78585619ac5565b9250600091506135c09050565b6001925090506135c0565b509250929050565b6001600160a01b038216600090815260048401602090815260409182902082516080810184528154815260018201549281019290925260028101549282019290925260038201546060820181905261787a908590617873617791565b9190619ad1565b8160030154826001016000828254617892919061b863565b909155505060006003830155845460405160008051602061c0d2833981519152916138a7916001600160a01b0390911690879085908790899061ba4f565b60006118956178df8584618a47565b6127f786610d8b876002614cf9565b600060606119918382619b7d565b600090815260029190910160205260409020546001600160a01b031690565b604080516001600160a01b038581166024830152604480830186905283518084039091018152606490920183526020820180516001600160e01b031663a9059cbb60e01b179052915160009283918291891690869061797b90869061bed8565b60006040518083038160008787f1925050503d80600081146179b9576040519150601f19603f3d011682016040523d82523d6000602084013e6179be565b606091505b5091509150816179d45760009350505050611895565b600081511180156179f65750808060200190518101906179f4919061bef4565b155b15617a075760009350505050611895565b506001979650505050505050565b6000617a6a826040518060400160405280602081526020017f5361666545524332303a206c6f772d6c6576656c2063616c6c206661696c6564815250856001600160a01b0316619e689092919063ffffffff16565b9050805160001480617a8b575080806020019051810190617a8b919061bef4565b61085d5760405162461bcd60e51b815260206004820152602a60248201527f5361666545524332303a204552433230206f7065726174696f6e20646964206e6044820152691bdd081cdd58d8d9595960b21b606482015260840161028e565b60008181526001830160205260408120548015617bd3576000617b0e60018361b863565b8554909150600090617b229060019061b863565b9050818114617b87576000866000018281548110617b4257617b4261b776565b9060005260206000200154905080876000018481548110617b6557617b6561b776565b6000918252602080832090910192909255918252600188019052604090208390555b8554869080617b9857617b9861bf16565b6001900381819060005260206000200160009055905585600101600086815260200190815260200160002060009055600193505050506101ad565b60009150506101ad565b5092915050565b6000818152600183016020526040812054617c2b575081546001818101845560008481526020808220909301849055845484825282860190935260409020919091556101ad565b5060006101ad565b600080617c4283600401611984565b90506000805b82518110156106a757846006016000848381518110617c6957617c6961b776565b60200260200101516001600160a01b03166001600160a01b031681526020019081526020016000206000015482617ca0919061b850565b9150600101617c48565b600d8101546000908103617cc057506000919050565b600d82015442614c50565b600281015460009081617cdd84617c33565b90506000617ceb8383619e77565b90506000617cf9838561b850565b9050811580617d06575080155b15617d175750600095945050505050565b617d2d82617d236151a0565b60c001518361509e565b9695505050505050565b60008183116157ea57816101aa565b60006101aa836127f784617d586151a0565b60e0015190614cf9565b6000816001600160a01b031663313ce5676040518163ffffffff1660e01b8152600401602060405180830381865afa158015617da2573d6000803e3d6000fd5b505050506040513d601f19601f820116820180604052508101906101ad919061bf2c565b600061189584617dd785600a61c02b565b617de6856402540be400614cf9565b61509e565b600061189584838561509e565b617e0061b1d8565b617e0861b1d8565b600080604051602001617e3d906020808252600e908201526d4c505f504f4f4c5f434f4e46494760901b604082015260600190565b60408051601f1981840301815291905280516020909101209050617e62828287619e99565b617e6f5750909392505050565b617ed28186604051602001617eaa90602080825260129082015271424153455f494e5445524553545f5241544560701b604082015260600190565b604051602081830303815290604052805190602001206040516020016124b49392919061c03a565b8352604051617f149082908790617eaa906020016020808252601490820152731413d3d317d3125455525112551657d31253525560621b604082015260600190565b836020018181525050617f538186604051602001617eaa906020808252600d908201526c4d494e545f4645455f5241544560981b604082015260600190565b836040018181525050617f948186604051602001617eaa906020808252600f908201526e52454445454d5f4645455f5241544560881b604082015260600190565b6060840152604051617fd99082908790617eaa906020016020808252601490820152731413d3d317d4139317d490551253d7d31253525560621b604082015260600190565b60808401526040516180259082908790617eaa906020016020808252818101527f554e534554544c45445f424153455f544f4b454e5f524154494f5f4c494d4954604082015260600190565b60a084015260405161807e9082908790617eaa9060200160208082526022908201527f554e534554544c45445f535441424c455f544f4b454e5f524154494f5f4c494d604082015261125560f21b606082015260800190565b60c08401526040516180cc9082908790617eaa906020016020808252601d908201527f504f4f4c5f535441424c455f544f4b454e5f524154494f5f4c494d4954000000604082015260600190565b60e084015260405161811a9082908790617eaa906020016020808252601c908201527f504f4f4c5f535441424c455f544f4b454e5f4c4f53535f4c494d495400000000604082015260600190565b6101008401526040516181809082908790618158906020016020808252600c908201526b41535345545f544f4b454e5360a01b604082015260600190565b604051602081830303815290604052805190602001206040516020016152cf9392919061c03a565b61012084015250909392505050565b6181b360405180606001604052806000815260200160008152602001600081525090565b506001600160a01b0316600090815260029182016020908152604091829020825160608101845281548152600182015492810192909252909201549082015290565b60008061199160405160200161822e906020808252600f908201526e5553445f504f4f4c5f434f4e46494760881b604082015260600190565b60405160208183030381529060405280519060200120846040516020016182549061c059565b6040516020818303038152906040528051906020012060405160200161827c9392919061c03a565b604051602081830303815290604052805190602001208261508b90919063ffffffff16565b60008060006182af856176c7565b905060005b815181101561473d576182d28282815181106153755761537561b776565b51156183815760008660040160008484815181106182f2576182f261b776565b60200260200101516001600160a01b03166001600160a01b03168152602001908152602001600020604051806080016040529081600082015481526020016001820154815260200160028201548152602001600382015481525050905061837d6183768484815181106183675761836761b776565b60200260200101518389619eb3565b8590615194565b9350505b6001016182b4565b6000806000618397856176c7565b905060005b815181101561844e5760008660040160008484815181106183bf576183bf61b776565b60200260200101516001600160a01b03166001600160a01b0316815260200190815260200160002060405180608001604052908160008201548152602001600182015481526020016002820154815260200160038201548152505090506184436183768484815181106184345761843461b776565b60200260200101518389619f12565b93505060010161839c565b506001850154156106a7576001850154610f1b908361b850565b6184a16040518060c001604052806000815260200160008152602001600081526020016000815260200160008152602001600081525090565b6184aa836135c7565b60006184b7846001611b28565b905060006184c36151a0565b60a00151905060005b82518110156186325760008382815181106184e9576184e961b776565b602002602001015190506000618508878360c001518460400151619f84565b9050600061851983602001516123d8565b9050600061852a848a8560006189cb565b905060008113156185695761856261855a8261855561854c8860a001516186aa565b604001516122d5565b61a028565b89519061a039565b8852618595565b61859261855a826185556185808860a001516186aa565b6101000151613abb90620186a061b850565b88525b6185b66185ab8560e001518460000151896178d0565b60608a015190615194565b606089015261016084015160208901516185cf91615194565b602089015261018084015160408901516185e891615194565b604089015260e084015160a089015161860091615194565b60a089015261861d618612858b619b7d565b60808a01519061a039565b60808901525050600190920191506184cc9050565b50505092915050565b600081815260088301602090815260409182902080548351818402810184019094528084526060939283018282801561869d57602002820191906000526020600020905b81546001600160a01b0316815260019091019060200180831161867f575b5050505050905092915050565b6186b261b08c565b6186ba61b08c565b6000806040516020016186f39060208082526012908201527154524144455f544f4b454e5f434f4e46494760701b604082015260600190565b60408051601f1981840301815291905280516020909101209050618718828287619e99565b6187255750909392505050565b6187b08186604051602001618763906020808252601590820152741254d7d4d5541413d49517d0d3d313105511549053605a1b604082015260600190565b6040516020818303038152906040528051906020012060405160200161878b9392919061c03a565b604051602081830303815290604052805190602001208361a04590919063ffffffff16565b151583526040516187e99082908790617eaa90602001602080825260099082015268282922a1a4a9a4a7a760b91b604082015260600190565b8360200181815250506188238186604051602001617eaa90602080825260089082015267111254d0d3d5539560c21b604082015260600190565b8360400181815250506188688186604051602001617eaa906020808252601390820152720434f4c4c41544552414c5f555345525f43415606c1b604082015260600190565b60608401526040516188ad9082908790617eaa906020016020808252601490820152730434f4c4c41544552414c5f544f54414c5f4341560641b604082015260600190565b60808401526040516188f09082908790617eaa9060200160208082526012908201527104c494142494c4954595f555345525f4341560741b604082015260600190565b60a08401526040516189349082908790617eaa9060200160208082526013908201527204c494142494c4954595f544f54414c5f43415606c1b604082015260600190565b60c08401526040516189799082908790617eaa9060200160208082526014908201527324a72a22a922a9aa2fa920aa22afa320a1aa27a960611b604082015260600190565b60e08401526040516189bc9082908790617eaa906020016020808252601290820152712624a8aaa4a220aa24a7a72fa320a1aa27a960711b604082015260600190565b61010084015250909392505050565b60008060006189db87878761a05e565b91509150836189ea5780613b50565b5095945050505050565b60008215618a14576000618a0785614be4565b6012015491506119919050565b6000618a1e614d46565b6001600160a01b0384166000908152600382016020526040902090915060020154915050611991565b60006101aa8383620186a061509e565b6000611895618a6784600a61c02b565b613b2e6402540be4006121af8887614cf9565b600080618a8684614b01565b905082618a97576008810154611895565b600701549392505050565b60006101aa618ab8670de0b6b3a76400006122d5565b6120f78585614bcc565b6000611895618ad5613abb85600a61c02b565b6120f7618ae66402540be4006122d5565b6163ef8887614bcc565b6000611895618b0d618b066402540be4006122d5565b8490614bcc565b6120f7618b1e613abb87600a61c02b565b8790614bcc565b6000808260e001518403618b4b5750506101c081015160408101516060909101516135c0565b618b6f8360e00151613b2e86866101c0015160400151614cf990919063ffffffff16565b618b938460e00151613b2e87876101c0015160600151614cf990919063ffffffff16565b915091509250929050565b6000611895838584617dc6565b600080618bbb83602001516123d8565b90506000618bc76151a0565b60a0015190506118958460e001518360000151836178d0565b6000816101c00151618bf68361018001516122d5565b618c048461024001516122d5565b618c0e919061b9b8565b6101ad919061b9b8565b60006101aa828461b863565b618c2e838361455f565b618c3e57618c3c8383614581565b505b6001600160a01b0382166000908152600284016020526040902054618c6490829061b850565b6001600160a01b039092166000908152600290930160205250604090912055565b618c8f848361455f565b618c9f57618c9d8483614581565b505b6000618cab848461a149565b6000818152600287016020526040902054909150618cca90839061b850565b600091825260029095016020526040902093909355505050565b618cee838361455f565b618cfe57618cfc8383614581565b505b6001600160a01b0382166000908152600384016020526040902054618d2490829061b850565b6001600160a01b039092166000908152600390930160205250604090912055565b618d4f848361455f565b618d5f57618d5d8483614581565b505b6000618d6b848461a149565b6000818152600387016020526040902054909150618d8a90839061b850565b600091825260039095016020526040902093909355505050565b6001600160a01b038316600090815260048501602090815260408083208151608081018352815480825260018301549482019490945260028201549281019290925260038101546060830152918511618e1a5784826000016000828254618e0b919061b863565b9091555060009350618ea49050565b815415618e6c578154618e2d908661b863565b925082826003016000828254618e43919061b850565b9250508190555082826001016000828254618e5e919061b850565b909155505060008255618ea4565b84826003016000828254618e80919061b850565b9250508190555084826001016000828254618e9b919061b850565b90915550859350505b618eb88684618eb1617791565b919061a1d6565b865460405160008051602061c0d283398151915291618eea916001600160a01b03909116908990859087908a9061ba4f565b60405180910390a15050949350505050565b618f09600285018461455f565b618f1c57618f1a6002850184614581565b505b6001600160a01b03831660009081526004850160209081526040808320815160808101835281548082526001830154948201949094526002820154928101929092526003810154606083015292909185918491618f7a90849061b850565b9091555050855460405160008051602061c0d283398151915291618fb1916001600160a01b0390911690889085908790899061ba4f565b60405180910390a1505050505050565b618fce600285018461455f565b61900e5760405162461bcd60e51b8152602060048201526011602482015270746f6b656e206e6f74206578697374732160781b604482015260640161028e565b6001600160a01b038316600090815260048501602052604090206001015482111561906d5760405162461bcd60e51b815260206004820152600f60248201526e756e557365206f766572666c6f772160881b604482015260640161028e565b6001600160a01b0383166000818152600486016020818152604080842081516080810183528154815260018201805482860181905260028401549483019490945260039092015460608201529585529290915285929061385f90849061b863565b6000806190d9617791565b546001600160a01b031692915050565b60006118958484846000618da4565b811561121157600061911161910c86611ad1565b6145a2565b90508260005b8251811015613eaa576000619137848381518110611bbb57611bbb61b776565b60038101549091506001600160a01b03888116911614801561916257506002810154610100900460ff165b156191b157600061917b613abb83845489148d8b61a200565b9050600087136191945761918f818561b9b8565b61919e565b61919e818561b830565b9350836000036191af575050613eaa565b505b50600101619117565b6001600160a01b038216600090815260048401602052604081206003810154158015906191e75750805415155b156106a757604080516080810182528254808252600184015460208301526002840154928201929092526003830154606082018190529091101561922c578154619232565b81600301545b925082826000016000828254619248919061b863565b9250508190555082826003016000828254619263919061b863565b925050819055508282600101600082825461927e919061b863565b9091555061929190508584617873617791565b855460405160008051602061c0d2833981519152916192c3916001600160a01b03909116908890859087908a9061ba4f565b60405180910390a150509392505050565b60068201548111156193245760405162461bcd60e51b81526020600482015260196024820152781cdd58881a1bdb1908189a59d9d95c881d1a185b881a1bdb19603a1b604482015260640161028e565b81546002830154600091619348916001600160a01b0391821691166004860161a33f565b905081836004016002016000828254619361919061b863565b9091555050600683015461012082015261085d8161a441565b6101e48282600161a527565b6101e48282600161a5fd565b815460028301546000916193b6916001600160a01b0391821691166004860161a33f565b9050818360040160030160008282546193cf919061b9b8565b9091555050600783015461014082015261085d8161a441565b6001600160a01b03821660009081526002840160205260409020600101548111156194515760405162461bcd60e51b81526020600482015260196024820152781cdd58881a1bdb1908189a59d9d95c881d1a185b881a1bdb19603a1b604482015260640161028e565b6001600160a01b0382166000908152600284016020526040812061947690849061a657565b6001600160a01b03841660009081526002860160205260408120600101805492935084929091906194a890849061b863565b90915550506001600160a01b038316600090815260028501602052604090206001015460a082015261018f8161a6fa565b6194e6600c84018361455f565b6194f9576194f7600c840183614581565b505b6001600160a01b038083166000908152600e850160205260408120855490926195249116858461a33f565b90508282600401600082825461953a919061b850565b909155505060048201546101608201526112118161a441565b61955e83838361a782565b6195b55760405162461bcd60e51b815260206004820152602260248201527f737562206661696c656420776974682062616c616e6365206e6f7420656e6f756044820152610ced60f31b606482015260840161028e565b6001600160a01b038216600090815260028401602052604081206195da90849061a657565b6001600160a01b038416600090815260028601602052604081208054929350849290919061960990849061b863565b90915550506001600160a01b0383166000908152600285016020526040902054608082015261018f8161a6fa565b6001600160a01b0382166000908152600284016020526040812061965c90849061a657565b6001600160a01b0384166000908152600280870160205260408220018054929350849290919061968d90849061b850565b90915550506001600160a01b038316600090815260028086016020526040909120015460c082015261018f8161a6fa565b82546001600160a01b038381166000908152600e86016020526040812090926196ea921690859061a33f565b90506196f9600c85018461455f565b15619733576001600160a01b0383166000908152600e850160205260408120805484929061972890849061b850565b9091555061975f9050565b619740600c850184614581565b506001600160a01b0383166000908152600e8501602052604090208290555b6001600160a01b0383166000908152600e8501602052604090205460e082015261018f8161a441565b619795600c84018361455f565b6197a8576197a6600c840183614581565b505b82546001600160a01b038381166000908152600e86016020526040812090926197d4921690859061a33f565b6001600160a01b0384166000908152600e8601602052604081206003018054929350849290919061980690849061b9b8565b90915550506001600160a01b0383166000908152600e8501602052604090206003015461014082015261018f8161a441565b825460000361985757608082015160018401556060820151835561989b565b6198798360000154846001015484606001518560800151858760a0015161a7fc565b600184015560608201518354849060009061989590849061b850565b90915550505b7fe1ca63f31f0b04174a12bc0e5a08103c6403d0d7c3980afb3ae8444a47476ef582602001518360a00151846060015186600001546198da919061b863565b8654604080519485529215156020850152918301526060820152608001610af8565b619909600483018261455f565b6101e45761085d6004830182614581565b6060810151825411619936576000600183018190558255619954565b806060015182600001600082825461994e919061b863565b90915550505b7fe1ca63f31f0b04174a12bc0e5a08103c6403d0d7c3980afb3ae8444a47476ef581602001518260a0015183606001518560000154619993919061b850565b8554604080519485529215156020850152918301526060820152608001610435565b60006199c084610e85565b90506000806199cf83866135a0565b915091508115619a51576199ef856199e7868461b850565b859190619aaf565b507ff19b578fc2b5cd359b489ade8c3e89c78f14417b5c22c020c2ef6918f818f9d2868683619a1e888261b850565b604080516001600160a01b03958616815294909316602085015291830152606082015260800160405180910390a1612046565b619a5c838686619aaf565b50604080516001600160a01b03808916825287166020820152600091810191909152606081018590527ff19b578fc2b5cd359b489ade8c3e89c78f14417b5c22c020c2ef6918f818f9d290608001618fb1565b6000611895846001600160a01b0385168461a83c565b60006101aa8383614547565b6001600160a01b0382166000908152600684016020526040902054811115619b495760405162461bcd60e51b815260206004820152602560248201527f737562546f6b656e4c696162696c697479206c657373207468616e206c696162604482015264696c69747960d81b606482015260840161028e565b6001600160a01b038216600090815260068401602052604081208054839290619b7390849061b863565b9091555050505050565b6000619bc26040518060e001604052806000815260200160008152602001600060ff168152602001600081526020016000815260200160008152602001600081525090565b619bd484602001518560400151618a7a565b606082015260e0840151619c0490619beb906122d5565b856101c00151608001518360600151615952919061b830565b608082015260a0840151619c1790617d62565b60ff1660408083019190915284015115619c6657619c4b816080015182604001516159c6868860a001518960400151619f84565b846101c0015160c00151619c5f919061b9b8565b8152619c82565b8060800151846101c0015160c00151619c7f919061b9b8565b81525b6000619c91856020015161204e565b6040805160c08101909152815481526001820154909190602083019060ff166003811115619cc157619cc161b78c565b6003811115619cd257619cd261b78c565b815260018201546001600160a01b03610100909104811660208301526002830154811660408301526003830154166060820152600482018054608090920191619d1a9061b7e6565b80601f0160208091040260200160405190810160405280929190818152602001828054619d469061b7e6565b8015619d935780601f10619d6857610100808354040283529160200191619d93565b820191906000526020600020905b815481529060010190602001808311619d7657829003601f168201915b5050505050815250509050619db5816040015186604001518760a001516189f4565b60a0830152610140850151610120860151619df591619ddc9161584890620186a09061b863565b866101c00151602001518460a00151610cf2919061b863565b8260c0018181525050619e1e8260c0015183604001516158b7878960a001518a6040015161a859565b856101c0015160600151619e32919061b850565b60208301819052619e42906122d5565b82516101c087015151619e54906122d5565b619e5e919061b9b8565b610f1b919061b9b8565b6060611895848460008561a8bb565b6000818311619e8f57619e8a838361b863565b6101aa565b6101aa828461b863565b6000828152600c840160205260408120611895908361455f565b60008260200151836000015111619ecc57506000611991565b6000619efa84602001518560000151619ee5919061b863565b619eee87617d62565b6158b78689600161a859565b9050610f1b81619f09876186aa565b60400151618a47565b60008260000151836020015111619f2b57506000611991565b6000619f4484600001518560200151619ee5919061b863565b90506000619f51866186aa565b61010001511115619f7d57619f7381619f69876186aa565b6101000151618a47565b6127b8908261b850565b9050611991565b6000805b845181101561a01d57836001600160a01b0316858281518110619fad57619fad61b776565b6020026020010151600001516001600160a01b03160361a0155782619fef57848181518110619fde57619fde61b776565b6020026020010151606001516127b8565b84818151811061a0015761a00161b776565b602002602001015160400151915050611991565b600101619f88565b5061189583836123b3565b60006101aa618ab8620186a06122d5565b60006101aa828461b9b8565b6000908152600391909101602052604090205460ff1690565b6000808460e0015160000361a0785750600090508061a141565b84604001511561a0df57600061a0bd61a0958761010001516122d5565b6120f761a0b061a0a98a61010001516122d5565b889061a98b565b6163ef8a60e001516122d5565b905061a0d68161a0d08860a00151617d62565b86618af0565b9250905061a141565b600061a10d61a0f28761010001516122d5565b6120f761a0b08761a1078b61010001516122d5565b9061a98b565b9050600061a121868860a001516000619f84565b905061a13a8261a1348960a00151617d62565b83618af0565b9350909150505b935093915050565b600060405160200161a1809060208082526011908201527008c8a8abe829a9eaa9ca8bea0a48a8c92b607b1b604082015260600190565b60408051601f198184030181528282528051602091820120908301526001600160a01b03808616918301919091528316606082015260800160405160208183030381529060405280519060200120905092915050565b6001600160a01b038216600090815260068401602052604081208054839290619b7390849061b850565b600084600a01548560090154148061a216575081155b1561a22357506000611895565b600082131561a2a157600061a2528660090154613b2e886008015489600a01548a600901546121af919061b863565b905061a261816127f78561271d565b915061a2828660080154613b2e886009015485614cf990919063ffffffff16565b86600a01600082825461a295919061b850565b9091555061a31f915050565b600061a2c08660080154613b2e88600901546121af87610d1f9061ba23565b90508086600a01541161a2f4576000600a87018190556009870154600888015461a2ed92613b2e91614cf9565b915061a31d565b8086600a01600082825461a308919061b863565b9091555061a31a9050610d1f8461ba23565b91505b505b83801561a32c5750600081115b156118955761189585846008600061a997565b61a3bc604051806101a0016040528060006001600160a01b0316815260200160006001600160a01b0316815260200160008152602001600081526020016000815260200160008152602001600081526020016000815260200160008152602001600081526020016000815260200160008152602001600081525090565b6001600160a01b03808516825283166020820152815460408201819052600183015460608301819052600284015460808401819052600385015460a08501819052600486015460c0860181905260e086019490945261010085019290925261012084015261014083015261016082015261a43461aa67565b6101808201529392505050565b7f3c20d1ba6bcc5e5bd62d967908bf1ce684e6b52dbaab9f84ebfbf1b184b46bf8816000015182602001518360400151846060015185608001518660a001518760c001518860e001518961010001518a61012001518b61014001518c61016001518d6101800151604051614bc19d9c9b9a999897969594939291906001600160a01b039d8e1681529b909c1660208c015260408b019990995260608a0197909752608089019590955260a088019390935260c087019190915260e08601526101008501526101208401526101408301526101608201526101808101919091526101a00190565b600483015482111561a58b5760405162461bcd60e51b815260206004820152602760248201527f6261736520746f6b656e20616d6f756e74206c657373207468616e2073756220604482015266616d6f756e742160c81b606482015260840161028e565b801561a5e6578254600284015460009161a5b5916001600160a01b0391821691166004870161a33f565b90508284600401600001600082825461a5ce919061b863565b9091555050600484015460e082015261018f8161a441565b81836004016000016000828254619b73919061b863565b801561a640578254600284015460009161a627916001600160a01b0391821691166004870161a33f565b90508284600401600001600082825461a5ce919061b850565b81836004016000016000828254619b73919061b850565b61a6a860405180610100016040528060006001600160a01b03168152602001600081526020016000815260200160008152602001600081526020016000815260200160008152602001600081525090565b6001600160a01b0383168152815460208201819052600183015460408301819052600284015460608401819052608084019290925260a083015260c082015261a6ef61aa67565b60e082015292915050565b805160208083015160408085015160608087015160808089015160a0808b015160c0808d015160e0808f01518b516001600160a01b03909f168f529c8e019b909b52988c0197909752948a0193909352908801528601528401528201527f217ba1d63771ad2228865ab2d862a89115d536eabbe8315c584eafe090d7f4229061010001614bc1565b6001600160a01b03821660009081526002840160205260408120805483111561a7af576000915050611991565b600061a7b961aae8565b90508060000361a7e05760018201548254859161a7d59161b863565b101592505050611991565b6001820154825461a7d59061a7f690879061b863565b83618a47565b60008061a82361a80c878a61b850565b613b2e61a8198989614cf9565b6127b28c8c614cf9565b905061a83081858561276f565b98975050505050505050565b600082815260028401602052604081208290556118958484614596565b6000805b845181101561a01d57836001600160a01b031685828151811061a8825761a88261b776565b6020026020010151600001516001600160a01b03160361a8b35782619fef57848181518110619fde57619fde61b776565b60010161a85d565b60608247101561a91c5760405162461bcd60e51b815260206004820152602660248201527f416464726573733a20696e73756666696369656e742062616c616e636520666f6044820152651c8818d85b1b60d21b606482015260840161028e565b600080866001600160a01b0316858760405161a938919061bed8565b60006040518083038185875af1925050503d806000811461a975576040519150601f19603f3d011682016040523d82523d6000602084013e61a97a565b606091505b5091509150613b508783838761aaf8565b60006101aa828461b830565b6002840154600185015460038601547fee2b9c77532fd89e66e2f431c2001e4bcc30fb5bc62ee9cdac252f89540067ae92869261a9f0926001600160a01b0362010000840481169391169060ff61010090910416616508565b8487604051806101a001604052808781526020016000815260200160008152602001600081526020016000815260200160008152602001600081526020016000815260200160008152602001600081526020016000815260200160008152602001600081525060405161132f95949392919061bcbc565b600061a4b146148061aa7b575062066eee46145b1561aae35760646001600160a01b031663a3b1b31d6040518163ffffffff1660e01b8152600401602060405180830381865afa15801561aabf573d6000803e3d6000fd5b505050506040513d601f19601f820116820180604052508101906100fe919061bbcc565b504390565b600061aaf261ab71565b51919050565b6060831561ab6757825160000361ab60576001600160a01b0385163b61ab605760405162461bcd60e51b815260206004820152601d60248201527f416464726573733a2063616c6c20746f206e6f6e2d636f6e7472616374000000604482015260640161028e565b5081611895565b611895838361abb2565b61abaa6040518060c001604052806000815260200160008152602001600081526020016000815260200160608152602001606081525090565b6100fe61abdc565b81511561abc25781518083602001fd5b8060405162461bcd60e51b815260040161028e919061c09e565b61ac156040518060c001604052806000815260200160008152602001600081526020016000815260200160608152602001606081525090565b60008060405160200161ac4b906020808252600f908201526e5553445f504f4f4c5f434f4e46494760881b604082015260600190565b60405160208183030381529060405280519060200120905061ac9f81604051602001614028906020808252601490820152731413d3d317d3125455525112551657d31253525560621b604082015260600190565b835260405161acd8908290614028906020016020808252600d908201526c4d494e545f4645455f5241544560981b604082015260600190565b83602001818152505061ad1881604051602001614028906020808252600f908201526e52454445454d5f4645455f5241544560881b604082015260600190565b83604001818152505061ad5e8160405160200161402890602080825260159082015274155394d1551513115117d490551253d7d312535255605a1b604082015260600190565b606084015260405161ada290829061529f90602001602080825260159082015274535550504f52545f535441424c455f544f4b454e5360581b604082015260600190565b608084018190525167ffffffffffffffff81111561adc25761adc261b504565b60405190808252806020026020018201604052801561adeb578160200160208202803683370190505b5060a084015260005b83608001515181101561aea85761ae7f828560800151838151811061ae1b5761ae1b61b776565b602002602001015160405160200161ae329061c059565b6040516020818303038152906040528051906020012060405160200161ae5a9392919061c03a565b604051602081830303815290604052805190602001208461508b90919063ffffffff16565b8460a00151828151811061ae955761ae9561b776565b602090810291909101015260010161adf4565b50505090565b6040518060c0016040528060006001600160a01b0316815260200160008152602001606081526020016060815260200160608152602001606081525090565b50805460008255906000526020600020908101906106df919061b22b565b604051806102200160405280600080191681526020016000801916815260200160001515815260200160001515815260200160006001600160a01b0316815260200160006001600160a01b0316815260200160006001600160a01b031681526020016000815260200160008152602001600081526020016000815260200160008152602001600081526020016000815260200161afde6040518060e00160405280600081526020016000815260200160008152602001600081526020016000815260200160008152602001600081525090565b815260200160008152602001600081525090565b60405180610100016040528060008152602001600081526020016000815260200160008152602001600081526020016000815260200160008152602001600081525090565b6040518061014001604052806000815260200160008152602001600081526020016000815260200160008152602001600081526020016000815260200160008152602001600081526020016000151581525090565b60405180610120016040528060001515815260200160008152602001600081526020016000815260200160008152602001600081526020016000815260200160008152602001600081525090565b604051806102c0016040528060006001600160a01b0316815260200161b0fe61af0b565b8152602001600081526020016000815260200160008152602001600081526020016000815260200160008152602001600081526020016000815260200160008152602001600081526020016000815260200160008152602001600081526020016000815260200160008152602001600081526020016000815260200160008152602001600081526020016000151581525090565b6040518060e0016040528060008152602001600081526020016000815260200160008152602001600081526020016000815260200160006001600160a01b031681525090565b604051806101400160405280600081526020016000815260200160008152602001600081526020016000815260200160008152602001600081526020016000815260200160008152602001606081525090565b5b8082111561233f576000815560010161b22c565b60008151808452602080850194506020840160005b8381101561b27a5781516001600160a01b03168752958201959082019060010161b255565b509495945050505050565b60008151808452602080850194506020840160005b8381101561b27a5781518752958201959082019060010161b29a565b600060208083018184528085518083526040925060408601915060408160051b87010184880160005b8381101561b38757888303603f19018552815180516001600160a01b0316845287810151888501528681015160c08886018190529061b3208287018261b240565b9150506060808301518683038288015261b33a838261b285565b925050506080808301518683038288015261b355838261b240565b9250505060a0808301519250858203818701525061b373818361b285565b96890196945050509086019060010161b2df565b509098975050505050505050565b6001600160a01b03811681146106df57600080fd5b60008083601f84011261b3bc57600080fd5b50813567ffffffffffffffff81111561b3d457600080fd5b6020830191508360208260071b85010111156135c057600080fd5b60008060006040848603121561b40457600080fd5b833561b40f8161b395565b9250602084013567ffffffffffffffff81111561b42b57600080fd5b61b4378682870161b3aa565b9497909650939450505050565b6000806040838503121561b45757600080fd5b823561b4628161b395565b9150602083013561b4728161b395565b809150509250929050565b60006020828403121561b48f57600080fd5b813567ffffffffffffffff81111561b4a657600080fd5b820160a0818503121561199157600080fd5b60008060006040848603121561b4cd57600080fd5b83359250602084013567ffffffffffffffff81111561b42b57600080fd5b60006020828403121561b4fd57600080fd5b5035919050565b634e487b7160e01b600052604160045260246000fd5b604051601f8201601f1916810167ffffffffffffffff8111828210171561b5435761b54361b504565b604052919050565b60006080828403121561b55d57600080fd5b6040516080810181811067ffffffffffffffff8211171561b5805761b58061b504565b604052823561b58e8161b395565b8152602083013561b59e8161b395565b6020820152604083810135908201526060928301359281019290925250919050565b600067ffffffffffffffff82111561b5da5761b5da61b504565b5060051b60200190565b600082601f83011261b5f557600080fd5b8135602061b60a61b6058361b5c0565b61b51a565b8083825260208201915060208460051b87010193508684111561b62c57600080fd5b602086015b8481101561b65157803561b6448161b395565b835291830191830161b631565b509695505050505050565b600082601f83011261b66d57600080fd5b8135602061b67d61b6058361b5c0565b8083825260208201915060208460051b87010193508684111561b69f57600080fd5b602086015b8481101561b651578035835291830191830161b6a4565b600060a0823603121561b6cd57600080fd5b60405160a0810167ffffffffffffffff828210818311171561b6f15761b6f161b504565b816040528435915061b7028261b395565b90825260208401359061b7148261b395565b81602084015260408501356040840152606085013591508082111561b73857600080fd5b61b7443683870161b5e4565b6060840152608085013591508082111561b75d57600080fd5b5061b76a3682860161b65c565b60808301525092915050565b634e487b7160e01b600052603260045260246000fd5b634e487b7160e01b600052602160045260246000fd5b60006020828403121561b7b457600080fd5b81516119918161b395565b8051602080830151919081101561b7e0576000198160200360031b1b821691505b50919050565b600181811c9082168061b7fa57607f821691505b60208210810361b7e057634e487b7160e01b600052602260045260246000fd5b634e487b7160e01b600052601160045260246000fd5b8181036000831280158383131683831282161715617bdd57617bdd61b81a565b808201808211156101ad576101ad61b81a565b818103818111156101ad576101ad61b81a565b80820281158282048414176101ad576101ad61b81a565b6003811061b89d5761b89d61b78c565b9052565b6004811061b89d5761b89d61b78c565b82516001600160a01b03168152610240810160208401516020830152604084015161b8df604084018261b88d565b50606084015161b8f2606084018261b88d565b50608084015161b905608084018261b8a1565b5060a084015161b91860a084018261b88d565b5060c084015161b92c60c084018215159052565b5060e084015161b94060e084018215159052565b50610100848101516001600160a01b03169083015261012080850151908301526101408085015190830152610160808501519083015261018080850151908301526101a080850151908301526101c080850151908301526101e080850151908301526102009384015193820193909352610220015290565b808201828112600083128015821682158216171561b9d85761b9d861b81a565b505092915050565b60006001820161b9f25761b9f261b81a565b5060010190565b634e487b7160e01b600052601260045260246000fd5b60008261ba1e5761ba1e61b9f9565b500690565b6000600160ff1b820161ba385761ba3861b81a565b5060000390565b600f811061b89d5761b89d61b78c565b6001600160a01b03868116825285166020820152610160810161ba966040830186805182526020810151602083015260408101516040830152606081015160608301525050565b835460c0830152600184015460e083015260028401546101008301526003840154610120830152617d2d61014083018461ba3f565b600081548084526020808501945083600052602060002060005b8381101561b27a5781546001600160a01b03168752958201956001918201910161bae5565b600081548084526020808501945083600052602060002060005b8381101561b27a5781548752958201956001918201910161bb24565b82815260406020820181905282546001600160a01b0316908201526001820154606082015260c06080820152600061bb7f61010083016002850161bacb565b603f19808483030160a085015261bb99826003870161bb0a565b9150808483030160c085015261bbb2826004870161bacb565b9150808483030160e085015250610f1b816005860161bb0a565b60006020828403121561bbde57600080fd5b5051919050565b80820260008212600160ff1b8414161561bc015761bc0161b81a565b81810583148215176101ad576101ad61b81a565b60008261bc245761bc2461b9f9565b600160ff1b82146000198414161561bc3e5761bc3e61b81a565b500590565b6001600160a01b03831681528154602082015260018201546040820152600282015460608201526003820154608082015260a08101611991565b81548152600182015460208201526002820154604082015260038201546060820152608081016101ad565b60008261bcb75761bcb761b9f9565b500490565b858152602081018590526104e081016009851061bcdb5761bcdb61b78c565b8460408301528354606083015260018401546080830152600284015461bd0860a0840160ff831615159052565b61bd1c60c0840160ff8360081c1615159052565b6001600160a01b03601082901c1660e08401525060038401546001600160a01b03166001600160a01b0381166101008401525060048401546001600160a01b03166001600160a01b0381166101208401525060058401546101408301526006840154610160830152600784015461018083015260088401546101a083015260098401546101c0830152600a8401546101e0830152600b840154610200830152600c840154610220830152600d840154610240830152600e840154610260830152600f84015461028083015260108401546102a083015260118401546102c083015260128401546102e08301526013840154610300830152601484015461032083015282516103408301526020830151610360830152604083015161038083015260608301516103a083015260808301516103c083015260a08301516103e083015260c083015161040083015260e08301516104208301526101008301516104408301526101208301516104608301526101408301516104808301526101608301516104a08301526101808301516104c0830152617d2d565b60005b8381101561becf57818101518382015260200161beb7565b50506000910152565b6000825161beea81846020870161beb4565b9190910192915050565b60006020828403121561bf0657600080fd5b8151801515811461199157600080fd5b634e487b7160e01b600052603160045260246000fd5b60006020828403121561bf3e57600080fd5b815160ff8116811461199157600080fd5b600181815b8085111561780f57816000190482111561bf705761bf7061b81a565b8085161561bf7d57918102915b93841c939080029061bf54565b60008261bf99575060016101ad565b8161bfa6575060006101ad565b816001811461bfbc576002811461bfc65761bfe2565b60019150506101ad565b60ff84111561bfd75761bfd761b81a565b50506001821b6101ad565b5060208310610133831016604e8410600b841016171561c005575081810a6101ad565b61c00f838361bf4f565b806000190482111561c0235761c02361b81a565b029392505050565b60006101aa60ff84168361bf8a565b9283526001600160a01b03919091166020830152604082015260600190565b60208082526025908201527f535441424c455f544f4b454e535f424f52524f57494e475f494e5445524553546040820152645f5241544560d81b606082015260800190565b602081526000825180602084015261c0bd81604085016020870161beb4565b601f01601f1916919091016040019291505056fe1d59acd5f3bb87326c498fe747e339bda33b5370b6f8df63a48f232d73efb748a2646970667358221220fcba205e66896244afa8433e4ce43f6dc5130cf67f2f5ddac5c4db756f319d3e64736f6c634300081900336080604052348015600f57600080fd5b506133048061001f6000396000f3fe608060405234801561001057600080fd5b506004361061002b5760003560e01c80637bdb02cb14610030575b600080fd5b61004361003e366004612da8565b610045565b005b6100576525a2a2a822a960d11b61019f565b6100b28282808060200260200160405190810160405280939291908181526020016000905b828210156100a85761009960808302860136819003810190612e9c565b8152602001906001019061007c565b50505050506101d7565b60005b8581101561018e5760006100ee8888848181106100d4576100d4612f1f565b90506020020160208101906100e99190612f35565b610357565b90506100f9816103cd565b60005b86868481811061010e5761010e612f1f565b90506020028101906101209190612f52565b90508110156101845761017b8288888681811061013f5761013f612f1f565b90506020028101906101519190612f52565b8481811061016157610161612f1f565b90506020020160208101906101769190612f35565b6103f5565b506001016100fc565b50506001016100b5565b506101976106d7565b505050505050565b6101a933826106e9565b6101d457604051632d7d0e0d60e21b8152336004820152602481018290526044015b60405180910390fd5b50565b60006101e1610721565b905060005b82518110156103525760006001600160a01b031683828151811061020c5761020c612f1f565b6020026020010151602001516001600160a01b0316036102ab576102a683828151811061023b5761023b612f1f565b602002602001015160000151604051806040016040528086858151811061026457610264612f1f565b602002602001015160400151815260200186858151811061028757610287612f1f565b602002602001015160600151815250846107839092919063ffffffff16565b61034a565b61034a8382815181106102c0576102c0612f1f565b6020026020010151600001518483815181106102de576102de612f1f565b602002602001015160200151604051806040016040528087868151811061030757610307612f1f565b602002602001015160400151815260200187868151811061032a5761032a612f1f565b602002602001015160600151815250856107cb909392919063ffffffff16565b6001016101e6565b505050565b600080826040516020016103ae919060408082526018908201527f78797a2e656c66692e73746f726167652e4163636f756e74000000000000000060608201526001600160a01b0391909116602082015260800190565b60408051601f1981840301815291905280516020909101209392505050565b80546001600160a01b03166101d457604051633902b86b60e11b815260040160405180910390fd5b6103fd612cd6565b60006104098484610848565b6060015190506000811161043057604051633d41f51760e11b815260040160405180910390fd5b600061043b856108c5565b90506000815167ffffffffffffffff81111561045957610459612e71565b604051908082528060200260200182016040528015610482578160200160208202803683370190505b5090506000825167ffffffffffffffff8111156104a1576104a1612e71565b6040519080825280602002602001820160405280156104ca578160200160208202803683370190505b50905060005b8351811015610610576105058482815181106104ee576104ee612f1f565b602002602001015189610b1090919063ffffffff16565b83828151811061051757610517612f1f565b60200260200101818152505082818151811061053557610535612f1f565b6020026020010151600003156106085760006105c384838151811061055c5761055c612f1f565b602002602001015161058687858151811061057957610579612f1f565b6020026020010151610b72565b61058f8b610b72565b6105b38987815181106105a4576105a4612f1f565b60200260200101516001610bd6565b6105be8d6000610bd6565b610bfb565b90506105db816105d1610c70565b6101e001516112f3565b6105e59082612fb2565b9050808383815181106105fa576105fa612f1f565b602002602001018181525050505b6001016104d0565b506000306001600160a01b0316631f7592ea6040518163ffffffff1660e01b8152600401602060405180830381865afa158015610651573d6000803e3d6000fd5b505050506040513d601f19601f820116820180604052508101906106759190612fc5565b88546040805160e0810182526001600160a01b03808516808352602083018a9052928201889052606082018790528b8116608083015260a082019290925260c081018990529293506106c99291169061130a565b955050505050505b92915050565b6106e76106e2610721565b611539565b565b6000806106f4611630565b6001600160a01b03851660009081526020829052604090209091506107199084611674565b949350505050565b600080604051602001610765906020808252601c908201527f78797a2e656c66692e73746f726167652e4f7261636c65507269636500000000604082015260600190565b60408051601f19818403018152919052805160209091012092915050565b61078d838361168c565b61079d5761079b83836116ae565b505b6001600160a01b03909116600090815260029092016020908152604090922081518155910151600190910155565b604080516001600160a01b03858116602080840191909152908516828401528251808303840181526060909201909252805191012061080d6004860182611674565b6108205761081e60048601826116c3565b505b6000908152600690940160209081526040909420815181559301516001909301929092555050565b6108736040518060800160405280600081526020016000815260200160008152602001600081525090565b506001600160a01b031660009081526004919091016020908152604091829020825160808101845281548152600182015492810192909252600281015492820192909252600390910154606082015290565b606060006108d5836002016116cf565b90506000815167ffffffffffffffff8111156108f3576108f3612e71565b60405190808252806020026020018201604052801561092c57816020015b610919612d0e565b8152602001906001900390816109115790505b50905060005b82518110156109825761095d83828151811061095057610950612f1f565b60200260200101516116dc565b82828151811061096f5761096f612f1f565b6020908102919091010152600101610932565b5060015b8151811015610b075760008282815181106109a3576109a3612f1f565b6020026020010151905060008483815181106109c1576109c1612f1f565b6020026020010151905060008390505b60018110158015610a0c5750846109e9600183612fb2565b815181106109f9576109f9612f1f565b6020026020010151604001518360400151105b15610ab25784610a1d600183612fb2565b81518110610a2d57610a2d612f1f565b6020026020010151858281518110610a4757610a47612f1f565b602090810291909101015285610a5e600183612fb2565b81518110610a6e57610a6e612f1f565b6020026020010151868281518110610a8857610a88612f1f565b6001600160a01b039092166020928302919091019091015280610aaa81612fe2565b9150506109d1565b82858281518110610ac557610ac5612f1f565b602002602001018190525081868281518110610ae357610ae3612f1f565b6001600160a01b039290921660209283029190910190910152505050600101610986565b50909392505050565b6001600160a01b03811660009081526004830160205260408120600181015490541115610b69576001600160a01b0382166000908152600484016020526040902060018101549054610b629190612fb2565b90506106d1565b50600092915050565b6000816001600160a01b031663313ce5676040518163ffffffff1660e01b8152600401602060405180830381865afa158015610bb2573d6000803e3d6000fd5b505050506040513d601f19601f820116820180604052508101906106d19190612ff9565b600080610be284611a59565b905082610bf3578060200151610719565b519392505050565b60008460ff168460ff1610610c4357610c3c82610c36610c1b888861301c565b610c2690600a613119565b610c308a88611aec565b90611aec565b90611af8565b9050610c67565b610c3c610c50858761301c565b610c5b90600a613119565b610c3684818a88611aec565b95945050505050565b610cf0604051806102000160405280606081526020016060815260200160008152602001600081526020016000815260200160008152602001600081526020016000815260200160008152602001600081526020016000815260200160008152602001600081526020016000815260200160008152602001600081525090565b600080604051602001610d23906020808252600c908201526b54524144455f434f4e46494760a01b604082015260600190565b604051602081830303815290604052805190602001209050610dc481604051602001610d6f906020808252600c908201526b54524144455f544f4b454e5360a01b604082015260600190565b60405160208183030381529060405280519060200120604051602001610d9f929190918252602082015260400190565b6040516020818303038152906040528051906020012083611b0490919063ffffffff16565b8084525167ffffffffffffffff811115610de057610de0612e71565b604051908082528060200260200182016040528015610e1957816020015b610e06612d0e565b815260200190600190039081610dfe5790505b50602084015260005b835151811015610e6e57610e458460000151828151811061095057610950612f1f565b84602001518281518110610e5b57610e5b612f1f565b6020908102919091010152600101610e22565b50610f0081604051602001610eab9060208082526014908201527313525397d3d491115497d3505491d25397d554d160621b604082015260600190565b60405160208183030381529060405280519060200120604051602001610edb929190918252602082015260400190565b6040516020818303038152906040528051906020012083611b7390919063ffffffff16565b836040018181525050610f4e81604051602001610eab906020808252601a908201527f415641494c41424c455f434f4c4c41544552414c5f524154494f000000000000604082015260600190565b6060840152604051610f8c908290610eab906020016020808252600f908201526e10d493d4d4d7d3151597d312535255608a1b604082015260600190565b6080840152604051610fd8908290610eab906020016020808252601b908201527f4d41585f4d41494e54454e414e43455f4d415247494e5f524154450000000000604082015260600190565b60a084015260405161101c908290610eab9060200160208082526015908201527446554e44494e475f4645455f424153455f5241544560581b604082015260600190565b60c0840152604051611060908290610eab906020016020808252601590820152744d41585f46554e44494e475f424153455f5241544560581b604082015260600190565b60e08401526040516110b6908290610eab9060200160208082526021908201527f54524144494e475f4645455f5354414b494e475f524557415244535f524154496040820152604f60f81b606082015260800190565b610100840152604051611103908290610eab906020016020808252601e908201527f54524144494e475f4645455f504f4f4c5f524557415244535f524154494f0000604082015260600190565b61012084015260405161115b908290610eab9060200160208082526022908201527f54524144494e475f4645455f5553445f504f4f4c5f524557415244535f524154604082015261494f60f01b606082015260800190565b6101408401526040516111b4908290610eab9060200160208082526023908201527f424f52524f57494e475f4645455f5354414b494e475f524557415244535f524160408201526254494f60e81b606082015260800190565b6101608401526040516111ff908290610eab906020016020808252818101527f424f52524f57494e475f4645455f504f4f4c5f524557415244535f524154494f604082015260600190565b61018084015260405161124c908290610eab9060200160208082526019908201527f4155544f5f5245445543455f50524f4649545f464143544f5200000000000000604082015260600190565b6101a0840152604051611299908290610eab906020016020808252601c908201527f4155544f5f5245445543455f4c49515549444954595f464143544f5200000000604082015260600190565b6101c08401526040516112e6908290610eab9060200160208082526019908201527f535741505f534c49505045525f544f4b454e5f464143544f5200000000000000604082015260600190565b6101e08401525090919050565b60006113038383620186a0611b86565b9392505050565b611312612cd6565b600061131d83611c6f565b905061134c604051806060016040528060006001600160a01b0316815260200160608152602001606081525090565b6001600160a01b0385168152815151611366906001613128565b67ffffffffffffffff81111561137e5761137e612e71565b6040519080825280602002602001820160405280156113a7578160200160208202803683370190505b5060208201528151516113bb906001613128565b67ffffffffffffffff8111156113d3576113d3612e71565b6040519080825280602002602001820160405280156113fc578160200160208202803683370190505b50604082015260005b8251518110156114b957825180518290811061142357611423612f1f565b60200260200101518260200151828151811061144157611441612f1f565b60200260200101906001600160a01b031690816001600160a01b0316815250506114878360200151828151811061147a5761147a612f1f565b602002602001015161204b565b6114909061313b565b826040015182815181106114a6576114a6612f1f565b6020908102919091010152600101611405565b5060408201516020820151835151815181106114d7576114d7612f1f565b60200260200101906001600160a01b031690816001600160a01b031681525050611504826060015161204b565b60408201518351518151811061151c5761151c612f1f565b602002602001018181525050611531816120b9565b509392505050565b6000611544826116cf565b905060005b81518110156103525782600201600083838151811061156a5761156a612f1f565b60200260200101516001600160a01b03166001600160a01b03168152602001908152602001600020600080820160009055600182016000905550508260030160008383815181106115bd576115bd612f1f565b60200260200101516001600160a01b03166001600160a01b031681526020019081526020016000206000808201600090556001820160009055505061162782828151811061160d5761160d612f1f565b60200260200101518460000161221490919063ffffffff16565b50600101611549565b600080604051602001610765906020808252601e908201527f78797a2e656c66692e73746f726167652e416363657373436f6e74726f6c0000604082015260600190565b60008181526001830160205260408120541515611303565b6001600160a01b03811660009081526001830160205260408120541515611303565b6000611303836001600160a01b038416612229565b60006113038383612229565b6060600061130383612278565b6116e4612d0e565b6116ec612d0e565b6000806040516020016117259060208082526012908201527154524144455f544f4b454e5f434f4e46494760701b604082015260600190565b60408051601f198184030181529190528051602090910120905061174a8282876122d4565b6117575750909392505050565b6117fc8186604051602001611795906020808252601590820152741254d7d4d5541413d49517d0d3d313105511549053605a1b604082015260600190565b604051602081830303815290604052805190602001206040516020016117d7939291909283526001600160a01b03919091166020830152604082015260600190565b60405160208183030381529060405280519060200120836122ee90919063ffffffff16565b15158352604051611877908290879061183590602001602080825260099082015268282922a1a4a9a4a7a760b91b604082015260600190565b60405160208183030381529060405280519060200120604051602001610edb939291909283526001600160a01b03919091166020830152604082015260600190565b8360200181815250506118b1818660405160200161183590602080825260089082015267111254d0d3d5539560c21b604082015260600190565b8360400181815250506118f68186604051602001611835906020808252601390820152720434f4c4c41544552414c5f555345525f43415606c1b604082015260600190565b606084015260405161193b9082908790611835906020016020808252601490820152730434f4c4c41544552414c5f544f54414c5f4341560641b604082015260600190565b608084015260405161197e90829087906118359060200160208082526012908201527104c494142494c4954595f555345525f4341560741b604082015260600190565b60a08401526040516119c290829087906118359060200160208082526013908201527204c494142494c4954595f544f54414c5f43415606c1b604082015260600190565b60c0840152604051611a0790829087906118359060200160208082526014908201527324a72a22a922a9aa2fa920aa22afa320a1aa27a960611b604082015260600190565b60e0840152604051611a4a9082908790611835906020016020808252601290820152712624a8aaa4a220aa24a7a72fa320a1aa27a960711b604082015260600190565b61010084015250909392505050565b60408051808201909152600080825260208201526000611a77610721565b604080518082018252600080825260209182018190526001600160a01b03871681526002840182528290208251808401909352805480845260019091015491830191909152919250901580611ace57506020810151155b156113035760405163907adecd60e01b815260040160405180910390fd5b60006113038284613157565b60006113038284613184565b6000818152600883016020908152604091829020805483518184028101840190945280845260609392830182828015611b6657602002820191906000526020600020905b81546001600160a01b03168152600190910190602001808311611b48575b5050505050905092915050565b6000908152602091909152604090205490565b6000808060001985870985870292508281108382030391505080600003611bc057838281611bb657611bb661316e565b0492505050611303565b808411611c075760405162461bcd60e51b81526020600482015260156024820152744d6174683a206d756c446976206f766572666c6f7760581b60448201526064016101cb565b600084868809600260036001881981018916988990049182028318808302840302808302840302808302840302808302840302808302840302918202909203026000889003889004909101858311909403939093029303949094049190911702949350505050565b611c77612cd6565b60208201805182526080808401516001600160a01b0316604084015260c084015190830152515167ffffffffffffffff811115611cb657611cb6612e71565b604051908082528060200260200182016040528015611cdf578160200160208202803683370190505b5060208201526000611cef612307565b905060005b83602001515181101561204457600084604001518281518110611d1957611d19612f1f565b60200260200101519050600085606001518381518110611d3b57611d3b612f1f565b6020026020010151905084606001518660c00151611d599190612fb2565b811115611e1657611dfd611d8286606001518860c00151611d7a9190612fb2565b6105d1610c70565b86606001518860c00151611d969190612fb2565b611da09190613128565b611dad8860800151610b72565b611dc68960200151878151811061057957610579612f1f565b611dd58a608001516001610bd6565b6105be8b602001518981518110611dee57611dee612f1f565b60200260200101516000610bd6565b915084606001518660c00151611e139190612fb2565b90505b81600003611e2557505061203c565b611e54866000015187602001518581518110611e4357611e43612f1f565b6020026020010151308560006123e1565b50611e7d86602001518481518110611e6e57611e6e612f1f565b6020026020010151858461252b565b600060405180610100016040528088602001518681518110611ea157611ea1612f1f565b60200260200101516001600160a01b0316815260200188608001516001600160a01b03168152602001610bb862ffffff1681526020018860a001516001600160a01b031681526020014281526020018481526020016000815260200160006001600160a01b031681525090506000856001600160a01b031663414bf389836040518263ffffffff1660e01b8152600401611f9f919081516001600160a01b03908116825260208084015182169083015260408084015162ffffff16908301526060808401518216908301526080808401519083015260a0838101519083015260c0808401519083015260e09283015116918101919091526101000190565b6020604051808303816000875af1158015611fbe573d6000803e3d6000fd5b505050506040513d601f19601f82011682018060405250810190611fe291906131a6565b90508087606001818151611ff69190613128565b905250602087015180518591908790811061201357612013612f1f565b6020026020010181815250508760c001518760600151106120375750505050612044565b505050505b600101611cf4565b5050919050565b60006001600160ff1b038211156120b55760405162461bcd60e51b815260206004820152602860248201527f53616665436173743a2076616c756520646f65736e27742066697420696e2061604482015267371034b73a191a9b60c11b60648201526084016101cb565b5090565b60006120c88260000151610357565b90506120d3816103cd565b60005b82602001515181101561035257826040015181815181106120f9576120f9612f1f565b60200260200101516000031561220c5760008360400151828151811061212157612121612f1f565b602002602001015113156121b45761217e8360200151828151811061214857612148612f1f565b60200260200101516121768560400151848151811061216957612169612f1f565b602002602001015161262b565b84919061267d565b6121ae8360200151828151811061219757612197612f1f565b60200260200101518361268a90919063ffffffff16565b5061220c565b61220c836020015182815181106121cd576121cd612f1f565b6020026020010151612204856040015184815181106121ee576121ee612f1f565b60200260200101516121ff9061313b565b61262b565b849190612698565b6001016120d6565b6000611303836001600160a01b0384166126a5565b6000818152600183016020526040812054612270575081546001818101845560008481526020808220909301849055845484825282860190935260409020919091556106d1565b5060006106d1565b6060816000018054806020026020016040519081016040528092919081815260200182805480156122c857602002820191906000526020600020905b8154815260200190600101908083116122b4575b50505050509050919050565b6000828152600c840160205260408120610719908361168c565b6000908152600391909101602052604090205460ff1690565b6000806123db60405160200161233e906020808252600d908201526c434f4d4d4f4e5f434f4e46494760981b604082015260600190565b60405160208183030381529060405280519060200120604051602001612386906020808252600e908201526d2aa724a9aba0a82fa927aaaa22a960911b604082015260600190565b604051602081830303815290604052805190602001206040516020016123b6929190918252602082015260400190565b604051602081830303815290604052805190602001208261279890919063ffffffff16565b91505090565b6000826000036123f357506000610c67565b6040516370a0823160e01b81526001600160a01b038781166004830152600091908716906370a0823190602401602060405180830381865afa15801561243d573d6000803e3d6000fd5b505050506040513d601f19601f8201168201806040525081019061246191906131a6565b90508381106124de5760405163078d3b7960e01b81526001600160a01b03878116600483015286811660248301526044820186905288169063078d3b7990606401600060405180830381600087803b1580156124bc57600080fd5b505af11580156124d0573d6000803e3d6000fd5b505050506001915050610c67565b8261251e57604051635ac09ed760e11b81526001600160a01b038089166004830152808816602483015286166044820152606481018590526084016101cb565b5060009695505050505050565b604080516001600160a01b038481166024830152604480830185905283518084039091018152606490920183526020820180516001600160e01b031663095ea7b360e01b179052915160009283929087169161258791906131bf565b6000604051808303816000865af19150503d80600081146125c4576040519150601f19603f3d011682016040523d82523d6000602084013e6125c9565b606091505b50915091508180156125f35750805115806125f35750808060200190518101906125f391906131ee565b6126245760405162461bcd60e51b8152602060048201526002602482015261534160f01b60448201526064016101cb565b5050505050565b6000808212156120b55760405162461bcd60e51b815260206004820181905260248201527f53616665436173743a2076616c7565206d75737420626520706f73697469766560448201526064016101cb565b61035283838360006127b7565b60006113038383600061288e565b61035283838360006129c1565b6000818152600183016020526040812054801561278e5760006126c9600183612fb2565b85549091506000906126dd90600190612fb2565b90508181146127425760008660000182815481106126fd576126fd612f1f565b906000526020600020015490508087600001848154811061272057612720612f1f565b6000918252602080832090910192909255918252600188019052604090208390555b855486908061275357612753613210565b6001900381819060005260206000200160009055905585600101600086815260200190815260200160002060009055600193505050506106d1565b60009150506106d1565b600090815260029190910160205260409020546001600160a01b031690565b6127c4600285018461168c565b6127d7576127d560028501846116ae565b505b6001600160a01b03831660009081526004850160209081526040808320815160808101835281548082526001830154948201949094526002820154928101929092526003810154606083015292909185918491612835908490613128565b909155505085546040517f1d59acd5f3bb87326c498fe747e339bda33b5370b6f8df63a48f232d73efb7489161287e916001600160a01b03909116908890859087908990613248565b60405180910390a1505050505050565b6001600160a01b038216600090815260048401602052604081206003810154158015906128bb5750805415155b15611531576040805160808101825282548082526001840154602083015260028401549282019290925260038301546060820181905290911015612900578154612906565b81600301545b92508282600001600082825461291c9190612fb2565b92505081905550828260030160008282546129379190612fb2565b92505081905550828260010160008282546129529190612fb2565b9091555061296c90508584612965612be6565b9190612c2a565b85546040517f1d59acd5f3bb87326c498fe747e339bda33b5370b6f8df63a48f232d73efb748916129b0916001600160a01b03909116908890859087908a90613248565b60405180910390a150509392505050565b6129ce600285018461168c565b612a0e5760405162461bcd60e51b8152602060048201526011602482015270746f6b656e206e6f74206578697374732160781b60448201526064016101cb565b6001600160a01b0383166000908152600485016020526040902054821115612a785760405162461bcd60e51b815260206004820152601860248201527f746f6b656e20616d6f756e74206e6f7420656e6f75676821000000000000000060448201526064016101cb565b6001600160a01b0383166000908152600485016020526040902060010154612aa1908390613128565b6001600160a01b03841660009081526004860160205260409020541015612b1f5760405162461bcd60e51b815260206004820152602c60248201527f746f6b656e20616d6f756e74206578636c756465207573656420616d6f756e7460448201526b206e6f7420656e6f7567682160a01b60648201526084016101cb565b6001600160a01b03831660008181526004860160208181526040808420815160808101835281548082526001830154828601526002830154938201939093526003820154606082015295855292909152859290612b7d908490612fb2565b909155505084546001600160a01b0385811660009081526004880160205260409081902090517f1d59acd5f3bb87326c498fe747e339bda33b5370b6f8df63a48f232d73efb74893612bd793169188918691908890613248565b60405180910390a15050505050565b600080604051602001610765906020808252601b908201527f78797a2e656c66692e73746f726167652e436f6d6d6f6e446174610000000000604082015260600190565b6001600160a01b0382166000908152600684016020526040902054811115612ca25760405162461bcd60e51b815260206004820152602560248201527f737562546f6b656e4c696162696c697479206c657373207468616e206c696162604482015264696c69747960d81b60648201526084016101cb565b6001600160a01b038216600090815260068401602052604081208054839290612ccc908490612fb2565b9091555050505050565b6040518060a00160405280606081526020016060815260200160006001600160a01b0316815260200160008152602001600081525090565b60405180610120016040528060001515815260200160008152602001600081526020016000815260200160008152602001600081526020016000815260200160008152602001600081525090565b60008083601f840112612d6e57600080fd5b50813567ffffffffffffffff811115612d8657600080fd5b6020830191508360208260051b8501011115612da157600080fd5b9250929050565b60008060008060008060608789031215612dc157600080fd5b863567ffffffffffffffff80821115612dd957600080fd5b612de58a838b01612d5c565b90985096506020890135915080821115612dfe57600080fd5b612e0a8a838b01612d5c565b90965094506040890135915080821115612e2357600080fd5b818901915089601f830112612e3757600080fd5b813581811115612e4657600080fd5b8a60208260071b8501011115612e5b57600080fd5b6020830194508093505050509295509295509295565b634e487b7160e01b600052604160045260246000fd5b6001600160a01b03811681146101d457600080fd5b600060808284031215612eae57600080fd5b6040516080810181811067ffffffffffffffff82111715612edf57634e487b7160e01b600052604160045260246000fd5b6040528235612eed81612e87565b81526020830135612efd81612e87565b6020820152604083810135908201526060928301359281019290925250919050565b634e487b7160e01b600052603260045260246000fd5b600060208284031215612f4757600080fd5b813561130381612e87565b6000808335601e19843603018112612f6957600080fd5b83018035915067ffffffffffffffff821115612f8457600080fd5b6020019150600581901b3603821315612da157600080fd5b634e487b7160e01b600052601160045260246000fd5b818103818111156106d1576106d1612f9c565b600060208284031215612fd757600080fd5b815161130381612e87565b600081612ff157612ff1612f9c565b506000190190565b60006020828403121561300b57600080fd5b815160ff8116811461130357600080fd5b60ff82811682821603908111156106d1576106d1612f9c565b600181815b8085111561307057816000190482111561305657613056612f9c565b8085161561306357918102915b93841c939080029061303a565b509250929050565b600082613087575060016106d1565b81613094575060006106d1565b81600181146130aa57600281146130b4576130d0565b60019150506106d1565b60ff8411156130c5576130c5612f9c565b50506001821b6106d1565b5060208310610133831016604e8410600b84101617156130f3575081810a6106d1565b6130fd8383613035565b806000190482111561311157613111612f9c565b029392505050565b600061130360ff841683613078565b808201808211156106d1576106d1612f9c565b6000600160ff1b820161315057613150612f9c565b5060000390565b80820281158282048414176106d1576106d1612f9c565b634e487b7160e01b600052601260045260246000fd5b6000826131a157634e487b7160e01b600052601260045260246000fd5b500490565b6000602082840312156131b857600080fd5b5051919050565b6000825160005b818110156131e057602081860181015185830152016131c6565b506000920191825250919050565b60006020828403121561320057600080fd5b8151801515811461130357600080fd5b634e487b7160e01b600052603160045260246000fd5b600f811061324457634e487b7160e01b600052602160045260246000fd5b9052565b6001600160a01b03868116825285166020820152610160810161328f6040830186805182526020810151602083015260408101516040830152606081015160608301525050565b835460c0830152600184015460e0830152600284015461010083015260038401546101208301526132c4610140830184613226565b969550505050505056fea26469706673582212202a7b111ba44bc7fda24d86871bbffb2a4ad846846c9f7af81911c90bd8b0110a64736f6c634300081900336080604052348015600f57600080fd5b506102fc8061001f6000396000f3fe608060405234801561001057600080fd5b50600436106100365760003560e01c80636ecc79e41461003b578063e8af7f0814610063575b600080fd5b61004e610049366004610284565b6100a1565b60405190151581526020015b60405180910390f35b61007661007136600461029d565b6100b2565b6040805182516001600160a01b0316815260208084015190820152918101519082015260600161005a565b60006100ac82610109565b92915050565b60408051606081018252600080825260208201819052918101919091526100d8826101de565b6040805160608101825282546001600160a01b03168152600183015460208201526002909201549082015292915050565b600080600060405160200161013a90602080825260089082015267149151915494905360c21b604082015260600190565b60405160208183030381529060405280519060200120604051602001610181906020808252600d908201526c524546455252414c5f434f444560981b604082015260600190565b604051602081830303815290604052805190602001206040516020016101b1929190918252602082015260400190565b60408051601f19818403018152919052805160209091012090506101d6828286610254565b949350505050565b60008082604051602001610235919060408082526019908201527f78797a2e656c66692e73746f726167652e526566657272616c0000000000000060608201526001600160a01b0391909116602082015260800190565b60408051601f1981840301815291905280516020909101209392505050565b6000828152600d8401602052604081206101d69083600081815260018301602052604081205415155b9392505050565b60006020828403121561029657600080fd5b5035919050565b6000602082840312156102af57600080fd5b81356001600160a01b038116811461027d57600080fdfea26469706673582212203850110810ce2b0136ff18bc60bfb4b4cba211b92c686cd6cb215bdd1008d46f64736f6c634300081900336080604052348015600f57600080fd5b506120518061001f6000396000f3fe608060405234801561001057600080fd5b50600436106100625760003560e01c806351d1a5af146100675780635cfac837146100905780637aa6aea4146100b0578063a7b039d9146100c5578063cd0743c9146100e5578063f141859a14610106575b600080fd5b61007a610075366004611991565b610126565b6040516100879190611a98565b60405180910390f35b6100a361009e366004611be2565b610194565b6040516100879190611c9c565b6100b86101ab565b6040516100879190611cab565b6100d86100d3366004611d16565b61026b565b6040516100879190611d31565b6100f86100f3366004611be2565b610288565b604051908152602001610087565b61010e610293565b6040516001600160a01b039091168152602001610087565b61012e611819565b61018a848484808060200260200160405190810160405280939291908181526020016000905b828210156101805761017160808302860136819003810190611d5e565b81526020019060010190610154565b50505050506102a2565b90505b9392505050565b61019c6118c6565b6101a5826104e5565b92915050565b606060006101b7610591565b90506000815167ffffffffffffffff8111156101d5576101d5611d48565b60405190808252806020026020018201604052801561020e57816020015b6101fb6118c6565b8152602001906001900390816101f35790505b50905060005b82518110156102645761023f83828151811061023257610232611dde565b60200260200101516104e5565b82828151811061025157610251611dde565b6020908102919091010152600101610214565b5092915050565b60408051808201909152600080825260208201526101a5826105f3565b60006101a582610666565b600061029d610683565b905090565b6102aa611819565b60006102b58461069e565b90506102d2816001015461010090046001600160a01b0316151590565b6102e7576102de611819565b91506101a59050565b60018101546000906103069061010090046001600160a01b0316610704565b90506000610314828661075b565b905060006103218761099b565b60028101549091506000610334836109e6565b604080516101a08101909152875460e0820190815260018901549293509091829190899061010084019060ff16600381111561037257610372611a10565b600381111561038357610383611a10565b815260018201546001600160a01b036101009091048116602083015260028301548116604083015260038301541660608201526004820180546080909201916103cb90611df4565b80601f01602080910402602001604051908101604052809291908181526020018280546103f790611df4565b80156104445780601f1061041957610100808354040283529160200191610444565b820191906000526020600020905b81548152906001019060200180831161042757829003601f168201915b50505050508152505081526020018381526020018460020160010154815260200182815260200161047485610a65565b8152602001858152602001846007016040518060e0016040529081600082015481526020016001820154815260200160028201548152602001600382015481526020016004820154815260200160058201548152602001600682015481525050815250965050505050505092915050565b6104ed6118c6565b60006104f88361069e565b600181015490915061010090046001600160a01b03161561058b57805482526001810154602083019060ff16600381111561053557610535611a10565b9081600381111561054857610548611a10565b90525060018101546001600160a01b0361010090910481166040840152600282015481166060840152600382015416608083015261058583610b6b565b60a08301525b50919050565b6060600061059d610b7c565b600181018054604080516020808402820181019092528281529394508301828280156105e857602002820191906000526020600020905b8154815260200190600101908083116105d4575b505050505091505090565b60408051808201909152600080825260208201526000610611610b7c565b905060405180604001604052806106318584610bde90919063ffffffff16565b815260200161065d83866001600160a01b03166000908152600491909101602052604090206001015490565b90529392505050565b600080610671610bfd565b60009384526020525050604090205490565b60008061068e610b7c565b546001600160a01b031692915050565b6040805160208101829052601760608201527f78797a2e656c66692e73746f726167652e53796d626f6c0000000000000000006080820152908101829052600090819060a0015b60408051601f1981840301815291905280516020909101209392505050565b600080826040516020016106e5919060408082526017908201527f78797a2e656c66692e73746f726167652e4c70506f6f6c00000000000000000060608201526001600160a01b0391909116602082015260800190565b60078201546004830154600091829161077390610c41565b61077d9190611e3e565b905060008112156107925760009150506101a5565b600061079d85610cb4565b8051909150156109345760028501546000906107c1906001600160a01b0316610cc2565b60028701549091506000906107e29087906001600160a01b03166001610d26565b905060005b835181101561093057600088600e01600086848151811061080a5761080a611dde565b60200260200101516001600160a01b03166001600160a01b0316815260200190815260200160002090506000816004015411801561086c57506108508160040154610c41565b6003820154825461086090610c41565b61086a9190611e3e565b125b156109275760006108f582600301546108888460000154610c41565b6108958560040154610c41565b61089f9190611e66565b6108a99190611e66565b6108cb8886815181106108be576108be611dde565b6020026020010151610cc2565b6108f08c8a88815181106108e1576108e1611dde565b60200260200101516001610d26565b610dcb565b90506000610904828787610e05565b90508088131561091f576109188189611e66565b9750610924565b600097505b50505b506001016107e7565b5050505b60006109508361094b61094689610e3a565b610c41565b610e5b565b90506109628660040160020154610c41565b811361096f576000610991565b6109916109828760040160020154610c41565b61098c9083611e66565b610e76565b9695505050505050565b6040805160208101829052601760608201527f78797a2e656c66692e73746f726167652e4d61726b65740000000000000000006080820152908101829052600090819060a0016106e5565b6000806109f583600401610ec8565b90506000805b8251811015610a5d57846006016000848381518110610a1c57610a1c611dde565b60200260200101516001600160a01b03166001600160a01b031681526020019081526020016000206000015482610a539190611e86565b91506001016109fb565b509392505050565b60606000610a7583600401610ec8565b90506000815167ffffffffffffffff811115610a9357610a93611d48565b604051908082528060200260200182016040528015610ad857816020015b6040805180820190915260008082526020820152815260200190600190039081610ab15790505b50905060005b8251811015610a5d57846006016000848381518110610aff57610aff611dde565b60200260200101516001600160a01b03166001600160a01b0316815260200190815260200160002060405180604001604052908160008201548152602001600182015481525050828281518110610b5857610b58611dde565b6020908102919091010152600101610ade565b610b736118f9565b6101a582610ed5565b600080604051602001610bc0906020808252601b908201527f78797a2e656c66692e73746f726167652e436f6d6d6f6e446174610000000000604082015260600190565b60408051601f19818403018152919052805160209091012092915050565b6001600160a01b03166000908152600491909101602052604090205490565b600080604051602001610bc0906020808252601c908201527f78797a2e656c66692e73746f726167652e5575696443726561746f7200000000604082015260600190565b60006001600160ff1b03821115610cb05760405162461bcd60e51b815260206004820152602860248201527f53616665436173743a2076616c756520646f65736e27742066697420696e2061604482015267371034b73a191a9b60c11b60648201526084015b60405180910390fd5b5090565b60606101a582600c01610ec8565b6000816001600160a01b031663313ce5676040518163ffffffff1660e01b8152600401602060405180830381865afa158015610d02573d6000803e3d6000fd5b505050506040513d601f19601f820116820180604052508101906101a59190611e99565b6000805b8451811015610dc057836001600160a01b0316858281518110610d4f57610d4f611dde565b6020026020010151600001516001600160a01b031603610db85782610d9157848181518110610d8057610d80611dde565b602002602001015160600151610db0565b848181518110610da357610da3611dde565b6020026020010151604001515b91505061018d565b600101610d2a565b5061018a83836111cb565b600061018a610dde61094685600a611fa0565b610dff610def6402540be400610c41565b610df988876111f3565b906111f3565b906111ff565b600061018a610e22610e1b6402540be400610c41565b84906111f3565b610dff610e3361094687600a611fa0565b87906111f3565b8054600090610e51906001600160a01b031661120b565b6020015192915050565b600061018d610e6c620186a0610c41565b610dff85856111f3565b600080821215610cb05760405162461bcd60e51b815260206004820181905260248201527f53616665436173743a2076616c7565206d75737420626520706f7369746976656044820152606401610ca7565b6060600061018d836115fb565b610edd6118f9565b610ee56118f9565b600080604051602001610f19906020808252600d908201526c53594d424f4c5f434f4e46494760981b604082015260600190565b60408051601f1981840301815291905280516020909101209050610f3e828287611657565b610f4b5750909392505050565b610fd68186604051602001610f80906020808252600c908201526b4d41585f4c4556455241474560a01b604082015260600190565b60408051601f1981840301815282825280516020918201209083019490945281019190915260608101919091526080015b604051602081830303815290604052805190602001208361167190919063ffffffff16565b835260405161100d9082908790610f80906020016020808252600990820152685449434b5f53495a4560b81b604082015260600190565b83602001818152505061104c8186604051602001610f80906020808252600d908201526c4f50454e5f4645455f5241544560981b604082015260600190565b83604001818152505061108c8186604051602001610f80906020808252600e908201526d434c4f53455f4645455f5241544560901b604082015260600190565b60608401526040516110da9082908790610f80906020016020808252601a908201527f4d41585f4c4f4e475f4f50454e5f494e5445524553545f434150000000000000604082015260600190565b60808401526040516111289082908790610f80906020016020808252601b908201527f4d41585f53484f52545f4f50454e5f494e5445524553545f4341500000000000604082015260600190565b60a084015260405161116f9082908790610f80906020016020808252601690820152751313d391d7d4d213d49517d490551253d7d31253525560521b604082015260600190565b60c08401526040516111bd9082908790610f80906020016020808252601a908201527f4c4f4e475f53484f52545f4f495f424f54544f4d5f4c494d4954000000000000604082015260600190565b60e084015250909392505050565b6000806111d784611684565b9050826111e85780602001516111eb565b80515b949350505050565b600061018d8284611faf565b600061018d8284611fdf565b61121361193e565b61121b61193e565b600080604051602001611250906020808252600e908201526d4c505f504f4f4c5f434f4e46494760901b604082015260600190565b60408051601f1981840301815291905280516020909101209050611275828287611717565b6112825750909392505050565b6112ff81866040516020016112bd90602080825260129082015271424153455f494e5445524553545f5241544560701b604082015260600190565b60405160208183030381529060405280519060200120604051602001610fb1939291909283526001600160a01b03919091166020830152604082015260600190565b835260405161134190829087906112bd906020016020808252601490820152731413d3d317d3125455525112551657d31253525560621b604082015260600190565b83602001818152505061138081866040516020016112bd906020808252600d908201526c4d494e545f4645455f5241544560981b604082015260600190565b8360400181815250506113c181866040516020016112bd906020808252600f908201526e52454445454d5f4645455f5241544560881b604082015260600190565b606084015260405161140690829087906112bd906020016020808252601490820152731413d3d317d4139317d490551253d7d31253525560621b604082015260600190565b608084015260405161145290829087906112bd906020016020808252818101527f554e534554544c45445f424153455f544f4b454e5f524154494f5f4c494d4954604082015260600190565b60a08401526040516114ab90829087906112bd9060200160208082526022908201527f554e534554544c45445f535441424c455f544f4b454e5f524154494f5f4c494d604082015261125560f21b606082015260800190565b60c08401526040516114f990829087906112bd906020016020808252601d908201527f504f4f4c5f535441424c455f544f4b454e5f524154494f5f4c494d4954000000604082015260600190565b60e084015260405161154790829087906112bd906020016020808252601c908201527f504f4f4c5f535441424c455f544f4b454e5f4c4f53535f4c494d495400000000604082015260600190565b6101008401526040516115ec9082908790611585906020016020808252600c908201526b41535345545f544f4b454e5360a01b604082015260600190565b604051602081830303815290604052805190602001206040516020016115c7939291909283526001600160a01b03919091166020830152604082015260600190565b604051602081830303815290604052805190602001208361174e90919063ffffffff16565b61012084015250909392505050565b60608160000180548060200260200160405190810160405280929190818152602001828054801561164b57602002820191906000526020600020905b815481526020019060010190808311611637575b50505050509050919050565b6000828152600d84016020526040812061018a90836117bd565b6000908152602091909152604090205490565b604080518082019091526000808252602082015260006116a26117d5565b604080518082018252600080825260209182018190526001600160a01b038716815260028401825282902082518084019093528054808452600190910154918301919091529192509015806116f957506020810151155b1561018d5760405163907adecd60e01b815260040160405180910390fd5b6000828152600c84016020526040812061018a90836001600160a01b0381166000908152600183016020526040812054151561018d565b60008181526008830160209081526040918290208054835181840281018401909452808452606093928301828280156117b057602002820191906000526020600020905b81546001600160a01b03168152600190910190602001808311611792575b5050505050905092915050565b6000818152600183016020526040812054151561018d565b600080604051602001610bc0906020808252601c908201527f78797a2e656c66692e73746f726167652e4f7261636c65507269636500000000604082015260600190565b604080516101a08101909152600060e0820181815261010083018290526101208301829052610140830182905261016083019190915260606101808301528190815260200160008152602001600081526020016000815260200160608152602001600081526020016118c16040518060e00160405280600081526020016000815260200160008152602001600081526020016000815260200160008152602001600081525090565b905290565b6040805160c081019091526000808252602082019081526000602082018190526040820181905260608201526080016118c15b60405180610100016040528060008152602001600081526020016000815260200160008152602001600081526020016000815260200160008152602001600081525090565b604051806101400160405280600081526020016000815260200160008152602001600081526020016000815260200160008152602001600081526020016000815260200160008152602001606081525090565b6000806000604084860312156119a657600080fd5b83359250602084013567ffffffffffffffff808211156119c557600080fd5b818601915086601f8301126119d957600080fd5b8135818111156119e857600080fd5b8760208260071b85010111156119fd57600080fd5b6020830194508093505050509250925092565b634e487b7160e01b600052602160045260246000fd5b60048110611a4457634e487b7160e01b600052602160045260246000fd5b9052565b60008151808452602080850194506020840160005b83811015611a8d57611a7a87835180518252602090810151910152565b6040969096019590820190600101611a5d565b509495945050505050565b6000602080835283516101a08285015261028081516101c086015282820151611ac56101e0870182611a26565b5060408201516001600160a01b039081166102008701526060830151811661022087015260808301511661024086015260a09091015160c0610260860152805182860181905290919060005b81811015611b2e578381018501518782016102a001528401611b11565b506102a092506000838288010152601f19601f82011686019050838701516040870152604087015160608701526060870151608087015260808701519350818682030160a0870152611b8283820185611a48565b935050505060a084015160c084015260c0840151610a5d60e0850182805182526020810151602083015260408101516040830152606081015160608301526080810151608083015260a081015160a083015260c081015160c08301525050565b600060208284031215611bf457600080fd5b5035919050565b805182526020810151611c116020840182611a26565b50604081015160018060a01b038082166040850152806060840151166060850152806080840151166080850152505060a0810151805160a0840152602081015160c0840152604081015160e08401526060810151610100840152608081015161012084015260a081015161014084015260c081015161016084015260e0810151610180840152505050565b6101a081016101a58284611bfb565b6020808252825182820181905260009190848201906040850190845b81811015611cee57611cda838551611bfb565b928401926101a09290920191600101611cc7565b50909695505050505050565b80356001600160a01b0381168114611d1157600080fd5b919050565b600060208284031215611d2857600080fd5b61018d82611cfa565b8151815260208083015190820152604081016101a5565b634e487b7160e01b600052604160045260246000fd5b600060808284031215611d7057600080fd5b6040516080810181811067ffffffffffffffff82111715611da157634e487b7160e01b600052604160045260246000fd5b604052611dad83611cfa565b8152611dbb60208401611cfa565b602082015260408301356040820152606083013560608201528091505092915050565b634e487b7160e01b600052603260045260246000fd5b600181811c90821680611e0857607f821691505b60208210810361058b57634e487b7160e01b600052602260045260246000fd5b634e487b7160e01b600052601160045260246000fd5b8082018281126000831280158216821582161715611e5e57611e5e611e28565b505092915050565b818103600083128015838313168383128216171561026457610264611e28565b808201808211156101a5576101a5611e28565b600060208284031215611eab57600080fd5b815160ff8116811461018d57600080fd5b600181815b80851115611ef7578160001904821115611edd57611edd611e28565b80851615611eea57918102915b93841c9390800290611ec1565b509250929050565b600082611f0e575060016101a5565b81611f1b575060006101a5565b8160018114611f315760028114611f3b57611f57565b60019150506101a5565b60ff841115611f4c57611f4c611e28565b50506001821b6101a5565b5060208310610133831016604e8410600b8410161715611f7a575081810a6101a5565b611f848383611ebc565b8060001904821115611f9857611f98611e28565b029392505050565b600061018d60ff841683611eff565b80820260008212600160ff1b84141615611fcb57611fcb611e28565b81810583148215176101a5576101a5611e28565b600082611ffc57634e487b7160e01b600052601260045260246000fd5b600160ff1b82146000198414161561201657612016611e28565b50059056fea2646970667358221220b5c32c83f023e36893cd24cf02cfdd3240d71adf0c6328ef9c054a2da4a8a8ca64736f6c634300081900336080604052348015600f57600080fd5b5061548f8061001f6000396000f3fe608060405234801561001057600080fd5b506004361061009e5760003560e01c806368b5f86b1161006657806368b5f86b1461010f578063bea9849e14610122578063c3f909d414610135578063e1be37bd1461014a578063f29486a1146101be57600080fd5b80632544cc2d146100a35780633b9d78fc146100b85780634ee37b1c146100cb5780634f42ce05146100de578063659d67bb146100fc575b600080fd5b6100b66100b13660046141c2565b6101de565b005b6100b66100c63660046141fd565b610204565b6100b66100d9366004614216565b61022d565b6100e6610250565b6040516100f39190614295565b60405180910390f35b6100b661010a366004614325565b610265565b6100b661011d366004614337565b61028e565b6100b661013036600461438d565b6102b1565b61013d6102cc565b6040516100f391906144ff565b61015d610158366004614617565b6102dc565b6040516100f39190600061010082019050825182526020830151602083015260408301516040830152606083015160608301526080830151608083015260a083015160a083015260c083015160c083015260e083015160e083015292915050565b6101d16101cc36600461438d565b6102f3565b6040516100f39190614630565b6101f065434f4e46494760d01b610304565b6102016101fc82614b1a565b610338565b50565b61021665434f4e46494760d01b610304565b61020161022836839003830183614c08565b61036a565b61023f65434f4e46494760d01b610304565b61020161024b82614d03565b61037c565b610258613ecd565b6102606103a9565b905090565b61027765434f4e46494760d01b610304565b61020161028936839003830183614dc6565b6103b9565b6102a065434f4e46494760d01b610304565b6102016102ac82614e31565b6103de565b6102c365434f4e46494760d01b610304565b610201816103f0565b6102d4613f03565b6102606103f9565b6102e4613f3d565b6102ed8261043e565b92915050565b6102fb613f82565b6102ed8261044f565b61030e3382610460565b61020157604051632d7d0e0d60e21b81523360048201526024810182905260440160405180910390fd5b805161034390610498565b610350816020015161098d565b61035d8160400151611341565b61020181606001516116ac565b6102018160000151826020015161177a565b805161038790611b60565b6000610391611d71565b8251608001519091506103a5908290611dd3565b5050565b6103b1613ecd565b610260611e17565b80516103c4906120f2565b6103d18160200151612148565b61020181604001516121a1565b610201816000015182602001516121fe565b610201816116ac565b610401613f03565b6104096125e1565b8152610413612852565b6020820152610420612cdf565b604082015261042d612fed565b6001600160a01b0316606082015290565b610446613f3d565b6102ed826130c7565b610457613f82565b6102ed8261339c565b60008061046b613687565b6001600160a01b038516600090815260208290526040902090915061049090846136cb565b949350505050565b6000806040516020016104cb906020808252600c908201526b434841494e5f434f4e46494760a01b604082015260600190565b60405160208183030381529060405280519060200120905061056a81604051602001610518906020808252600d908201526c2ba920a82822a92faa27a5a2a760991b604082015260600190565b60405160208183030381529060405280519060200120604051602001610548929190918252602082015260400190565b60408051601f19818403018152919052805160209091012084518491906136e6565b6105ff816040516020016105a4906020808252601290820152711352539517d1d054d7d1915157d31253525560721b604082015260600190565b604051602081830303815290604052805190602001206040516020016105d4929190918252602082015260400190565b604051602081830303815290604052805190602001208460200151846137179092919063ffffffff16565b6106968160405160200161063b9060208082526014908201527314915111515357d1d054d7d1915157d31253525560621b604082015260600190565b6040516020818303038152906040528051906020012060405160200161066b929190918252602082015260400190565b604051602081830303815290604052805190602001208460400151846137179092919063ffffffff16565b610704816040516020016106a990614f1a565b604051602081830303815290604052805190602001206040516020016106d9929190918252602082015260400190565b604051602081830303815290604052805190602001208460600151846137179092919063ffffffff16565b6107728160405160200161071790614f5c565b60405160208183030381529060405280519060200120604051602001610747929190918252602082015260400190565b604051602081830303815290604052805190602001208460800151846137179092919063ffffffff16565b6107e08160405160200161078590614f9e565b604051602081830303815290604052805190602001206040516020016107b5929190918252602082015260400190565b604051602081830303815290604052805190602001208460a00151846137179092919063ffffffff16565b61084e816040516020016107f390614fe2565b60405160208183030381529060405280519060200120604051602001610823929190918252602082015260400190565b604051602081830303815290604052805190602001208460c00151846137179092919063ffffffff16565b6108e78160405160200161088c9060208082526016908201527515d2551211149055d7d1d054d7d1915157d31253525560521b604082015260600190565b604051602081830303815290604052805190602001206040516020016108bc929190918252602082015260400190565b604051602081830303815290604052805190602001208460e00151846137179092919063ffffffff16565b6109888160405160200161092c906020808252601b908201527f434c41494d5f524557415244535f4741535f4645455f4c494d49540000000000604082015260600190565b6040516020818303038152906040528051906020012060405160200161095c929190918252602082015260400190565b60405160208183030381529060405280519060200120846101000151846137179092919063ffffffff16565b505050565b6000806040516020016109c0906020808252600c908201526b54524144455f434f4e46494760a01b604082015260600190565b6040516020818303038152906040528051906020012090506000610a42826040516020016109ed90615028565b60405160208183030381529060405280519060200120604051602001610a1d929190918252602082015260400190565b604051602081830303815290604052805190602001208461372990919063ffffffff16565b905060005b8151811015610a7a57610a72828281518110610a6557610a6561504e565b6020026020010151613798565b600101610a47565b50610ae082604051602001610a8e90615028565b60405160208183030381529060405280519060200120604051602001610abe929190918252602082015260400190565b60408051601f1981840301815291905280516020909101208551859190613931565b60005b845151811015610b3957610b3185600001518281518110610b0657610b0661504e565b602002602001015186602001518381518110610b2457610b2461504e565b6020026020010151613952565b600101610ae3565b50610bd182604051602001610b769060208082526014908201527313525397d3d491115497d3505491d25397d554d160621b604082015260600190565b60405160208183030381529060405280519060200120604051602001610ba6929190918252602082015260400190565b604051602081830303815290604052805190602001208560400151856137179092919063ffffffff16565b610c7182604051602001610c16906020808252601a908201527f415641494c41424c455f434f4c4c41544552414c5f524154494f000000000000604082015260600190565b60405160208183030381529060405280519060200120604051602001610c46929190918252602082015260400190565b604051602081830303815290604052805190602001208560600151856137179092919063ffffffff16565b610d0382604051602001610ca8906020808252600f908201526e10d493d4d4d7d3151597d312535255608a1b604082015260600190565b60405160208183030381529060405280519060200120604051602001610cd8929190918252602082015260400190565b604051602081830303815290604052805190602001208560800151856137179092919063ffffffff16565b610da382604051602001610d48906020808252601b908201527f4d41585f4d41494e54454e414e43455f4d415247494e5f524154450000000000604082015260600190565b60405160208183030381529060405280519060200120604051602001610d78929190918252602082015260400190565b604051602081830303815290604052805190602001208560a00151856137179092919063ffffffff16565b610e3b82604051602001610de09060208082526015908201527446554e44494e475f4645455f424153455f5241544560581b604082015260600190565b60405160208183030381529060405280519060200120604051602001610e10929190918252602082015260400190565b604051602081830303815290604052805190602001208560c00151856137179092919063ffffffff16565b610ed382604051602001610e78906020808252601590820152744d41585f46554e44494e475f424153455f5241544560581b604082015260600190565b60405160208183030381529060405280519060200120604051602001610ea8929190918252602082015260400190565b604051602081830303815290604052805190602001208560e00151856137179092919063ffffffff16565b610f4282604051602001610ee690615064565b60405160208183030381529060405280519060200120604051602001610f16929190918252602082015260400190565b60405160208183030381529060405280519060200120856101000151856137179092919063ffffffff16565b610fe382604051602001610f87906020808252601e908201527f54524144494e475f4645455f504f4f4c5f524557415244535f524154494f0000604082015260600190565b60405160208183030381529060405280519060200120604051602001610fb7929190918252602082015260400190565b60405160208183030381529060405280519060200120856101200151856137179092919063ffffffff16565b61105282604051602001610ff6906150a5565b60405160208183030381529060405280519060200120604051602001611026929190918252602082015260400190565b60405160208183030381529060405280519060200120856101400151856137179092919063ffffffff16565b6110c182604051602001611065906150e7565b60405160208183030381529060405280519060200120604051602001611095929190918252602082015260400190565b60405160208183030381529060405280519060200120856101600151856137179092919063ffffffff16565b61116082604051602001611104906020808252818101527f424f52524f57494e475f4645455f504f4f4c5f524557415244535f524154494f604082015260600190565b60405160208183030381529060405280519060200120604051602001611134929190918252602082015260400190565b60405160208183030381529060405280519060200120856101800151856137179092919063ffffffff16565b6111fd826040516020016111a19060208082526019908201527820aaaa27afa922a22aa1a2afa82927a324aa2fa320a1aa27a960391b604082015260600190565b604051602081830303815290604052805190602001206040516020016111d1929190918252602082015260400190565b60405160208183030381529060405280519060200120856101a00151856137179092919063ffffffff16565b61129e82604051602001611242906020808252601c908201527f4155544f5f5245445543455f4c49515549444954595f464143544f5200000000604082015260600190565b60405160208183030381529060405280519060200120604051602001611272929190918252602082015260400190565b60405160208183030381529060405280519060200120856101c00151856137179092919063ffffffff16565b61133b826040516020016112df9060208082526019908201527829aba0a82fa9a624a82822a92faa27a5a2a72fa320a1aa27a960391b604082015260600190565b6040516020818303038152906040528051906020012060405160200161130f929190918252602082015260400190565b60405160208183030381529060405280519060200120856101e00151856137179092919063ffffffff16565b50505050565b600080604051602001611374906020808252600c908201526b5354414b455f434f4e46494760a01b604082015260600190565b604051602081830303815290604052805190602001209050611424816040516020016113cd9060208082526019908201527821a7a62620aa22a920a62fa82927aa22a1aa2fa320a1aa27a960391b604082015260600190565b604051602081830303815290604052805190602001206040516020016113fd929190918252602082015260400190565b60408051808303601f19018152918152815160209283012086516000918252928690522055565b61145d816040516020016105a49060208082526011908201527021a7a62620aa22a920a62fa320a1aa27a960791b604082015260600190565b61149b8160405160200161063b906020808252601690820152754d494e5f505245434953494f4e5f4d554c5449504c4560501b604082015260600190565b6114e0816040516020016106a9906020808252601e908201527f4d494e545f4645455f5354414b494e475f524557415244535f524154494f0000604082015260600190565b61152581604051602001610717906020808252601b908201527f4d494e545f4645455f504f4f4c5f524557415244535f524154494f0000000000604082015260600190565b61156881604051602001610785906020808252818101527f52454445454d5f4645455f5354414b494e475f524557415244535f524154494f604082015260600190565b6115ad816040516020016107f3906020808252601d908201527f52454445454d5f4645455f504f4f4c5f524557415244535f524154494f000000604082015260600190565b6115f28160405160200161088c906020808252601b908201527f504f4f4c5f524557415244535f494e54455256414c5f4c494d49540000000000604082015260600190565b6116218160405160200161092c9060208082526007908201526626a4a72fa0a82960c91b604082015260600190565b610988816040516020016116509060208082526007908201526626a0ac2fa0a82960c91b604082015260600190565b60405160208183030381529060405280519060200120604051602001611680929190918252602082015260400190565b60405160208183030381529060405280519060200120846101200151846137179092919063ffffffff16565b60006103a56040516020016116e2906020808252600d908201526c434f4d4d4f4e5f434f4e46494760981b604082015260600190565b6040516020818303038152906040528051906020012060405160200161172a906020808252600e908201526d2aa724a9aba0a82fa927aaaa22a960911b604082015260600190565b6040516020818303038152906040528051906020012060405160200161175a929190918252602082015260400190565b60408051601f1981840301815291905280516020909101208290846136e6565b6000806040516020016117ae906020808252600d908201526c53594d424f4c5f434f4e46494760981b604082015260600190565b60408051601f19818403018152919052805160209091012090506117d3828286613a9d565b61183d8185604051602001611808906020808252600c908201526b4d41585f4c4556455241474560a01b604082015260600190565b60408051601f1981840301815282825280516020918201209083019490945281019190915260608101919091526080016113fd565b6118a4818560405160200161186f906020808252600990820152685449434b5f53495a4560b81b604082015260600190565b60408051601f1981840301815282825280516020918201209083019490945281019190915260608101919091526080016105d4565b61190f81856040516020016118da906020808252600d908201526c4f50454e5f4645455f5241544560981b604082015260600190565b60408051601f19818403018152828252805160209182012090830194909452810191909152606081019190915260800161066b565b61197b8185604051602001611946906020808252600e908201526d434c4f53455f4645455f5241544560901b604082015260600190565b60408051601f1981840301815282825280516020918201209083019490945281019190915260608101919091526080016106d9565b6119f681856040516020016119c1906020808252601a908201527f4d41585f4c4f4e475f4f50454e5f494e5445524553545f434150000000000000604082015260600190565b60408051601f198184030181528282528051602091820120908301949094528101919091526060810191909152608001610747565b611a718185604051602001611a3c906020808252601b908201527f4d41585f53484f52545f4f50454e5f494e5445524553545f4341500000000000604082015260600190565b60408051601f1981840301815282825280516020918201209083019490945281019190915260608101919091526080016107b5565b611ae58185604051602001611ab0906020808252601690820152751313d391d7d4d213d49517d490551253d7d31253525560521b604082015260600190565b60408051601f198184030181528282528051602091820120908301949094528101919091526060810191909152608001610823565b61133b8185604051602001611b2b906020808252601a908201527f4c4f4e475f53484f52545f4f495f424f54544f4d5f4c494d4954000000000000604082015260600190565b60408051601f1981840301815282825280516020918201209083019490945281019190915260608101919091526080016108bc565b600080604051602001611b96906020808252600f908201526e5553445f504f4f4c5f434f4e46494760881b604082015260600190565b604051602081830303815290604052805190602001209050611bc1816040516020016113cd9061512a565b611bd4816040516020016105a490615158565b611be78160405160200161063b9061517f565b611c24816040516020016106a990602080825260159082015274155394d1551513115117d490551253d7d312535255605a1b604082015260600190565b611cbc81604051602001611c6190602080825260159082015274535550504f52545f535441424c455f544f4b454e5360581b604082015260600190565b60405160208183030381529060405280519060200120604051602001611c91929190918252602082015260400190565b604051602081830303815290604052805190602001208460800151846139319092919063ffffffff16565b60005b83608001515181101561133b57611d698285608001518381518110611ce657611ce661504e565b6020026020010151604051602001611cfd906151a8565b60405160208183030381529060405280519060200120604051602001611d25939291906151ed565b604051602081830303815290604052805190602001208560a001518381518110611d5157611d5161504e565b6020026020010151856137179092919063ffffffff16565b600101611cbf565b600080604051602001611db59060208082526018908201527f78797a2e656c66692e73746f726167652e557364506f6f6c0000000000000000604082015260600190565b60408051601f19818403018152919052805160209091012092915050565b60005b815181101561098857611e0e828281518110611df457611df461504e565b602002602001015184600001613ab790919063ffffffff16565b50600101611dd6565b611e1f613ecd565b600080604051602001611e55906020808252600f908201526e5553445f504f4f4c5f434f4e46494760881b604082015260600190565b604051602081830303815290604052805190602001209050611ed581604051602001611e809061512a565b60405160208183030381529060405280519060200120604051602001611eb0929190918252602082015260400190565b6040516020818303038152906040528051906020012083613acc90919063ffffffff16565b8352604051611eec908290611e8090602001615158565b836020018181525050611f0881604051602001611e809061517f565b836040018181525050611f4e81604051602001611e8090602080825260159082015274155394d1551513115117d490551253d7d312535255605a1b604082015260600190565b6060840152604051611fe7908290611f9290602001602080825260159082015274535550504f52545f535441424c455f544f4b454e5360581b604082015260600190565b60405160208183030381529060405280519060200120604051602001611fc2929190918252602082015260400190565b604051602081830303815290604052805190602001208361372990919063ffffffff16565b60808401819052516001600160401b03811115612006576120066146b3565b60405190808252806020026020018201604052801561202f578160200160208202803683370190505b5060a084015260005b8360800151518110156120ec576120c3828560800151838151811061205f5761205f61504e565b6020026020010151604051602001612076906151a8565b6040516020818303038152906040528051906020012060405160200161209e939291906151ed565b6040516020818303038152906040528051906020012084613acc90919063ffffffff16565b8460a0015182815181106120d9576120d961504e565b6020908102919091010152600101612038565b50505090565b60006103a56040516020016121069061520c565b6040516020818303038152906040528051906020012060405160200161172a90602080825260089082015267131417d59055531560c21b604082015260600190565b60006103a560405160200161215c9061520c565b6040516020818303038152906040528051906020012060405160200161172a906020808252600b908201526a151490511157d59055531560aa1b604082015260600190565b60006103a56040516020016121b59061520c565b6040516020818303038152906040528051906020012060405160200161172a906020808252600f908201526e1413d4951193d31253d7d590555315608a1b604082015260600190565b600080604051602001612233906020808252600e908201526d4c505f504f4f4c5f434f4e46494760901b604082015260600190565b60408051601f1981840301815291905280516020909101209050612258828286613adf565b6122bb818560405160200161229390602080825260129082015271424153455f494e5445524553545f5241544560701b604082015260600190565b604051602081830303815290604052805190602001206040516020016113fd939291906151ed565b6122f781856040516020016122cf9061512a565b604051602081830303815290604052805190602001206040516020016105d4939291906151ed565b612333818560405160200161230b90615158565b6040516020818303038152906040528051906020012060405160200161066b939291906151ed565b61236f81856040516020016123479061517f565b604051602081830303815290604052805190602001206040516020016106d9939291906151ed565b6123d481856040516020016123ac906020808252601490820152731413d3d317d4139317d490551253d7d31253525560621b604082015260600190565b60405160208183030381529060405280519060200120604051602001610747939291906151ed565b6124408185604051602001612418906020808252818101527f554e534554544c45445f424153455f544f4b454e5f524154494f5f4c494d4954604082015260600190565b604051602081830303815290604052805190602001206040516020016107b5939291906151ed565b61247c818560405160200161245490615232565b60405160208183030381529060405280519060200120604051602001610823939291906151ed565b6124ea81856040516020016124c2906020808252601d908201527f504f4f4c5f535441424c455f544f4b454e5f524154494f5f4c494d4954000000604082015260600190565b604051602081830303815290604052805190602001206040516020016108bc939291906151ed565b6125588185604051602001612530906020808252601c908201527f504f4f4c5f535441424c455f544f4b454e5f4c4f53535f4c494d495400000000604082015260600190565b6040516020818303038152906040528051906020012060405160200161095c939291906151ed565b61133b818560405160200161258d906020808252600c908201526b41535345545f544f4b454e5360a01b604082015260600190565b604051602081830303815290604052805190602001206040516020016125b5939291906151ed565b60405160208183030381529060405280519060200120846101200151846139319092919063ffffffff16565b6125e9613fd5565b60008060405160200161261c906020808252600c908201526b434841494e5f434f4e46494760a01b604082015260600190565b6040516020818303038152906040528051906020012090506126be81604051602001612669906020808252600d908201526c2ba920a82822a92faa27a5a2a760991b604082015260600190565b60405160208183030381529060405280519060200120604051602001612699929190918252602082015260400190565b6040516020818303038152906040528051906020012083613af990919063ffffffff16565b6001600160a01b03168352604051612705908290611e80906020016020808252601290820152711352539517d1d054d7d1915157d31253525560721b604082015260600190565b83602001818152505061274a81604051602001611e809060208082526014908201527314915111515357d1d054d7d1915157d31253525560621b604082015260600190565b83604001818152505061276681604051602001611e8090614f1a565b6060840152604051612780908290611e8090602001614f5c565b608084015260405161279a908290611e8090602001614f9e565b60a08401526040516127b4908290611e8090602001614fe2565b60c08401526040516127f9908290611e809060200160208082526016908201527515d2551211149055d7d1d054d7d1915157d31253525560521b604082015260600190565b60e0840152604051612845908290611e80906020016020808252601b908201527f434c41494d5f524557415244535f4741535f4645455f4c494d49540000000000604082015260600190565b6101008401525090919050565b61285a61402a565b60008060405160200161288d906020808252600c908201526b54524144455f434f4e46494760a01b604082015260600190565b6040516020818303038152906040528051906020012090506128b881604051602001611f9290615028565b808452516001600160401b038111156128d3576128d36146b3565b60405190808252806020026020018201604052801561290c57816020015b6128f96140a7565b8152602001906001900390816128f15790505b50602084015260005b83515181101561296e57612945846000015182815181106129385761293861504e565b6020026020010151613b18565b8460200151828151811061295b5761295b61504e565b6020908102919091010152600101612915565b506129ab81604051602001611e809060208082526014908201527313525397d3d491115497d3505491d25397d554d160621b604082015260600190565b8360400181815250506129f981604051602001611e80906020808252601a908201527f415641494c41424c455f434f4c4c41544552414c5f524154494f000000000000604082015260600190565b6060840152604051612a37908290611e80906020016020808252600f908201526e10d493d4d4d7d3151597d312535255608a1b604082015260600190565b6080840152604051612a83908290611e80906020016020808252601b908201527f4d41585f4d41494e54454e414e43455f4d415247494e5f524154450000000000604082015260600190565b60a0840152604051612ac7908290611e809060200160208082526015908201527446554e44494e475f4645455f424153455f5241544560581b604082015260600190565b60c0840152604051612b0b908290611e80906020016020808252601590820152744d41585f46554e44494e475f424153455f5241544560581b604082015260600190565b60e0840152604051612b25908290611e8090602001615064565b610100840152604051612b72908290611e80906020016020808252601e908201527f54524144494e475f4645455f504f4f4c5f524557415244535f524154494f0000604082015260600190565b610120840152604051612b8d908290611e80906020016150a5565b610140840152604051612ba8908290611e80906020016150e7565b610160840152604051612bf3908290611e80906020016020808252818101527f424f52524f57494e475f4645455f504f4f4c5f524557415244535f524154494f604082015260600190565b610180840152604051612c3c908290611e809060200160208082526019908201527820aaaa27afa922a22aa1a2afa82927a324aa2fa320a1aa27a960391b604082015260600190565b6101a0840152604051612c89908290611e80906020016020808252601c908201527f4155544f5f5245445543455f4c49515549444954595f464143544f5200000000604082015260600190565b6101c0840152604051612cd2908290611e809060200160208082526019908201527829aba0a82fa9a624a82822a92faa27a5a2a72fa320a1aa27a960391b604082015260600190565b6101e08401525090919050565b612ce76140f5565b600080604051602001612d1a906020808252600c908201526b5354414b455f434f4e46494760a01b604082015260600190565b604051602081830303815290604052805190602001209050612d7381604051602001611e809060208082526019908201527821a7a62620aa22a920a62fa82927aa22a1aa2fa320a1aa27a960391b604082015260600190565b8352604051612db0908290611e809060200160208082526011908201527021a7a62620aa22a920a62fa320a1aa27a960791b604082015260600190565b836020018181525050612df781604051602001611e80906020808252601690820152754d494e5f505245434953494f4e5f4d554c5449504c4560501b604082015260600190565b836040018181525050612e4581604051602001611e80906020808252601e908201527f4d494e545f4645455f5354414b494e475f524557415244535f524154494f0000604082015260600190565b6060840152604051612e91908290611e80906020016020808252601b908201527f4d494e545f4645455f504f4f4c5f524557415244535f524154494f0000000000604082015260600190565b6080840152604051612edb908290611e80906020016020808252818101527f52454445454d5f4645455f5354414b494e475f524557415244535f524154494f604082015260600190565b60a0840152604051612f27908290611e80906020016020808252601d908201527f52454445454d5f4645455f504f4f4c5f524557415244535f524154494f000000604082015260600190565b60c0840152604051612f73908290611e80906020016020808252601b908201527f504f4f4c5f524557415244535f494e54455256414c5f4c494d49540000000000604082015260600190565b60e0840152604051612fa9908290611e809060200160208082526007908201526626a4a72fa0a82960c91b604082015260600190565b610100840152604051612fe0908290611e809060200160208082526007908201526626a0ac2fa0a82960c91b604082015260600190565b6101208401525090919050565b6000806130c1604051602001613024906020808252600d908201526c434f4d4d4f4e5f434f4e46494760981b604082015260600190565b6040516020818303038152906040528051906020012060405160200161306c906020808252600e908201526d2aa724a9aba0a82fa927aaaa22a960911b604082015260600190565b6040516020818303038152906040528051906020012060405160200161309c929190918252602082015260400190565b6040516020818303038152906040528051906020012082613af990919063ffffffff16565b91505090565b6130cf613f3d565b6130d7613f3d565b60008060405160200161310b906020808252600d908201526c53594d424f4c5f434f4e46494760981b604082015260600190565b60408051601f1981840301815291905280516020909101209050613130828287613cbd565b61313d5750909392505050565b6131a78186604051602001613172906020808252600c908201526b4d41585f4c4556455241474560a01b604082015260600190565b60408051601f198184030181528282528051602091820120908301949094528101919091526060810191909152608001611eb0565b83526040516131de9082908790613172906020016020808252600990820152685449434b5f53495a4560b81b604082015260600190565b83602001818152505061321d8186604051602001613172906020808252600d908201526c4f50454e5f4645455f5241544560981b604082015260600190565b83604001818152505061325d8186604051602001613172906020808252600e908201526d434c4f53455f4645455f5241544560901b604082015260600190565b60608401526040516132ab9082908790613172906020016020808252601a908201527f4d41585f4c4f4e475f4f50454e5f494e5445524553545f434150000000000000604082015260600190565b60808401526040516132f99082908790613172906020016020808252601b908201527f4d41585f53484f52545f4f50454e5f494e5445524553545f4341500000000000604082015260600190565b60a08401526040516133409082908790613172906020016020808252601690820152751313d391d7d4d213d49517d490551253d7d31253525560521b604082015260600190565b60c084015260405161338e9082908790613172906020016020808252601a908201527f4c4f4e475f53484f52545f4f495f424f54544f4d5f4c494d4954000000000000604082015260600190565b60e084015250909392505050565b6133a4613f82565b6133ac613f82565b6000806040516020016133e1906020808252600e908201526d4c505f504f4f4c5f434f4e46494760901b604082015260600190565b60408051601f1981840301815291905280516020909101209050613406828287613cd7565b6134135750909392505050565b613476818660405160200161344e90602080825260129082015271424153455f494e5445524553545f5241544560701b604082015260600190565b60405160208183030381529060405280519060200120604051602001611eb0939291906151ed565b835260405161348f908290879061344e9060200161512a565b8360200181815250506134ac818660405160200161344e90615158565b8360400181815250506134c9818660405160200161344e9061517f565b606084015260405161350e908290879061344e906020016020808252601490820152731413d3d317d4139317d490551253d7d31253525560621b604082015260600190565b608084015260405161355a908290879061344e906020016020808252818101527f554e534554544c45445f424153455f544f4b454e5f524154494f5f4c494d4954604082015260600190565b60a0840152604051613576908290879061344e90602001615232565b60c08401526040516135c4908290879061344e906020016020808252601d908201527f504f4f4c5f535441424c455f544f4b454e5f524154494f5f4c494d4954000000604082015260600190565b60e0840152604051613612908290879061344e906020016020808252601c908201527f504f4f4c5f535441424c455f544f4b454e5f4c4f53535f4c494d495400000000604082015260600190565b6101008401526040516136789082908790613650906020016020808252600c908201526b41535345545f544f4b454e5360a01b604082015260600190565b60405160208183030381529060405280519060200120604051602001611fc2939291906151ed565b61012084015250909392505050565b600080604051602001611db5906020808252601e908201527f78797a2e656c66692e73746f726167652e416363657373436f6e74726f6c0000604082015260600190565b600081815260018301602052604081205415155b9392505050565b60009182526002929092016020526040902080546001600160a01b0319166001600160a01b03909216919091179055565b60009182526020929092526040902055565b600081815260088301602090815260409182902080548351818402810184019094528084526060939283018282801561378b57602002820191906000526020600020905b81546001600160a01b0316815260019091019060200180831161376d575b5050505050905092915050565b6000806040516020016137aa90615274565b60408051601f19818403018152919052805160209091012090506137cf828285613cd7565b6137d857505050565b6137e3828285613cf1565b61384481846040516020016137f7906152a0565b6040516020818303038152906040528051906020012060405160200161381f939291906151ed565b6040516020818303038152906040528051906020012083613d0b90919063ffffffff16565b6138a58184604051602001613858906152cf565b60405160208183030381529060405280519060200120604051602001613880939291906151ed565b6040516020818303038152906040528051906020012083613d2690919063ffffffff16565b6138b98184604051602001613858906152f2565b6138cd818460405160200161385890615314565b6138e1818460405160200161385890615341565b6138f581846040516020016138589061536f565b61390981846040516020016138589061539b565b61391d8184604051602001613858906153c8565b6109888184604051602001613858906153f6565b60008281526008840160209081526040909120825161133b92840190614148565b60008060405160200161396490615274565b60408051601f1981840301815291905280516020909101209050613989828286613adf565b6139fd818560405160200161399d906152a0565b604051602081830303815290604052805190602001206040516020016139c5939291906151ed565b60408051601f198184030181529181528151602092830120865160009182526003870190935220805460ff1916911515919091179055565b613a1181856040516020016122cf906152cf565b613a25818560405160200161230b906152f2565b613a39818560405160200161234790615314565b613a4d81856040516020016123ac90615341565b613a6181856040516020016124189061536f565b613a7581856040516020016124549061539b565b613a8981856040516020016124c2906153c8565b61133b8185604051602001612530906153f6565b6000828152600d84016020526040902061133b9082613d38565b60006136df836001600160a01b038416613d40565b6000908152602091909152604090205490565b6000828152600c84016020526040902061133b9082613ab7565b600090815260029190910160205260409020546001600160a01b031690565b613b206140a7565b613b286140a7565b600080604051602001613b3a90615274565b60408051601f1981840301815291905280516020909101209050613b5f828287613cd7565b613b6c5750909392505050565b613bcd8186604051602001613b80906152a0565b60405160208183030381529060405280519060200120604051602001613ba8939291906151ed565b6040516020818303038152906040528051906020012083613d8f90919063ffffffff16565b15158352604051613be8908290879061344e906020016152cf565b836020018181525050613c05818660405160200161344e906152f2565b836040018181525050613c22818660405160200161344e90615314565b6060840152604051613c3e908290879061344e90602001615341565b6080840152604051613c5a908290879061344e9060200161536f565b60a0840152604051613c76908290879061344e9060200161539b565b60c0840152604051613c92908290879061344e906020016153c8565b60e0840152604051613cae908290879061344e906020016153f6565b61010084015250909392505050565b6000828152600d84016020526040812061049090836136cb565b6000828152600c8401602052604081206104909083613da8565b6000828152600c84016020526040902061133b9082613dca565b6000908152600390910160205260409020805460ff19169055565b60009081526020919091526040812055565b60006136df83835b6000818152600183016020526040812054613d87575081546001818101845560008481526020808220909301849055845484825282860190935260409020919091556102ed565b5060006102ed565b6000908152600391909101602052604090205460ff1690565b6001600160a01b038116600090815260018301602052604081205415156136df565b60006136df836001600160a01b03841660008181526001830160205260408120548015613ec3576000613dfe600183615422565b8554909150600090613e1290600190615422565b9050818114613e77576000866000018281548110613e3257613e3261504e565b9060005260206000200154905080876000018481548110613e5557613e5561504e565b6000918252602080832090910192909255918252600188019052604090208390555b8554869080613e8857613e88615443565b6001900381819060005260206000200160009055905585600101600086815260200190815260200160002060009055600193505050506102ed565b60009150506102ed565b6040518060c001604052806000815260200160008152602001600081526020016000815260200160608152602001606081525090565b6040518060800160405280613f16613fd5565b8152602001613f2361402a565b8152602001613f306140f5565b8152600060209091015290565b60405180610100016040528060008152602001600081526020016000815260200160008152602001600081526020016000815260200160008152602001600081525090565b604051806101400160405280600081526020016000815260200160008152602001600081526020016000815260200160008152602001600081526020016000815260200160008152602001606081525090565b60405180610120016040528060006001600160a01b0316815260200160008152602001600081526020016000815260200160008152602001600081526020016000815260200160008152602001600081525090565b604051806102000160405280606081526020016060815260200160008152602001600081526020016000815260200160008152602001600081526020016000815260200160008152602001600081526020016000815260200160008152602001600081526020016000815260200160008152602001600081525090565b60405180610120016040528060001515815260200160008152602001600081526020016000815260200160008152602001600081526020016000815260200160008152602001600081525090565b604051806101400160405280600081526020016000815260200160008152602001600081526020016000815260200160008152602001600081526020016000815260200160008152602001600081525090565b82805482825590600052602060002090810192821561419d579160200282015b8281111561419d57825182546001600160a01b0319166001600160a01b03909116178255602090920191600190910190614168565b506141a99291506141ad565b5090565b5b808211156141a957600081556001016141ae565b6000602082840312156141d457600080fd5b81356001600160401b038111156141ea57600080fd5b82016102a081850312156136df57600080fd5b6000610120828403121561421057600080fd5b50919050565b60006020828403121561422857600080fd5b81356001600160401b0381111561423e57600080fd5b8201602081850312156136df57600080fd5b60008151808452602080850194506020840160005b8381101561428a5781516001600160a01b031687529582019590820190600101614265565b509495945050505050565b600060208083528351818401528084015160408401526040840151606084015260608401516080840152608084015160c060a08501526142d860e0850182614250565b60a0860151858203601f190160c0870152805180835290840192506000918401905b8083101561431a57835182529284019260019290920191908401906142fa565b509695505050505050565b60006060828403121561421057600080fd5b60006020828403121561434957600080fd5b81356001600160401b0381111561435f57600080fd5b8201604081850312156136df57600080fd5b80356001600160a01b038116811461438857600080fd5b919050565b60006020828403121561439f57600080fd5b6136df82614371565b60008151808452602080850194506020840160005b8381101561428a578151805115158852838101518489015260408082015190890152606080820151908901526080808201519089015260a0808201519089015260c0808201519089015260e08082015190890152610100908101519088015261012090960195908201906001016143bd565b6000610200825181855261444582860182614250565b9150506020830151848203602086015261445f82826143a8565b60408581015190870152606080860151908701526080808601519087015260a0808601519087015260c0808601519087015260e08086015190870152610100808601519087015261012080860151908701526101408086015190870152610160808601519087015261018080860151908701526101a080860151908701526101c080860151908701526101e0948501519490950193909352509192915050565b602081526000825160018060a01b038151166020840152602081015160408401526040810151606084015260608101516080840152608081015160a084015260a081015160c084015260c081015160e084015260e081015161010081818601528083015161012086015250505060208301516102a0806101408501526145896102c085018361442f565b60408681015180516101608801526020810151610180880152908101516101a08701526060808201516101c088015260808201516101e088015260a082015161020088015260c082015161022088015260e082015161024088015261010082015161026088015261012090910151610280870152909501516001600160a01b03169301929092525090919050565b60006020828403121561462957600080fd5b5035919050565b6020815281516020820152602082015160408201526040820151606082015260608201516080820152608082015160a082015260a082015160c082015260c082015160e0820152600060e0830151610100818185015280850151915050610120818185015280850151915050610140808185015250610490610160840182614250565b634e487b7160e01b600052604160045260246000fd5b60405161012081016001600160401b03811182821017156146ec576146ec6146b3565b60405290565b60405161020081016001600160401b03811182821017156146ec576146ec6146b3565b60405161014081016001600160401b03811182821017156146ec576146ec6146b3565b604051608081016001600160401b03811182821017156146ec576146ec6146b3565b604080519081016001600160401b03811182821017156146ec576146ec6146b3565b60405161010081016001600160401b03811182821017156146ec576146ec6146b3565b604051602081016001600160401b03811182821017156146ec576146ec6146b3565b60405160c081016001600160401b03811182821017156146ec576146ec6146b3565b604051601f8201601f191681016001600160401b038111828210171561480b5761480b6146b3565b604052919050565b60006001600160401b0382111561482c5761482c6146b3565b5060051b60200190565b600082601f83011261484757600080fd5b8135602061485c61485783614813565b6147e3565b8083825260208201915060208460051b87010193508684111561487e57600080fd5b602086015b8481101561431a5761489481614371565b8352918301918301614883565b8035801515811461438857600080fd5b600082601f8301126148c257600080fd5b813560206148d261485783614813565b82815261012092830285018201928282019190878511156148f257600080fd5b8387015b8581101561497d5781818a03121561490e5760008081fd5b6149166146c9565b61491f826148a1565b8152818601358682015260408083013590820152606080830135908201526080808301359082015260a0808301359082015260c0808301359082015260e08083013590820152610100808301359082015284529284019281016148f6565b5090979650505050505050565b6000610200828403121561499d57600080fd5b6149a56146f2565b905081356001600160401b03808211156149be57600080fd5b6149ca85838601614836565b835260208401359150808211156149e057600080fd5b506149ed848285016148b1565b60208301525060408201356040820152606082013560608201526080820135608082015260a082013560a082015260c082013560c082015260e082013560e08201526101008083013581830152506101208083013581830152506101408083013581830152506101608083013581830152506101808083013581830152506101a08083013581830152506101c08083013581830152506101e080830135818301525092915050565b60006101408284031215614aa857600080fd5b614ab0614715565b9050813581526020820135602082015260408201356040820152606082013560608201526080820135608082015260a082013560a082015260c082013560c082015260e082013560e082015261010080830135818301525061012080830135818301525092915050565b60008136036102a0811215614b2e57600080fd5b614b36614738565b61012080831215614b4657600080fd5b614b4e6146c9565b9250614b5985614371565b83526020850135602084015260408501356040840152606085013560608401526080850135608084015260a085013560a084015260c085013560c084015260e085013560e0840152610100808601358185015250828252808501359250506001600160401b03821115614bcb57600080fd5b614bd73683860161498a565b6020820152614bea366101408601614a95565b6040820152614bfc6102808501614371565b60608201529392505050565b6000818303610120811215614c1c57600080fd5b614c2461475a565b8335815261010080601f1984011215614c3c57600080fd5b614c4461477c565b92506020850135835260408501356020840152606085013560408401526080850135606084015260a0850135608084015260c085013560a084015260e085013560c08401528085013560e084015250816020820152809250505092915050565b600082601f830112614cb557600080fd5b81356020614cc561485783614813565b8083825260208201915060208460051b870101935086841115614ce757600080fd5b602086015b8481101561431a5780358352918301918301614cec565b600060208236031215614d1557600080fd5b614d1d61479f565b82356001600160401b0380821115614d3457600080fd5b818501915060c08236031215614d4957600080fd5b614d516147c1565b82358152602083013560208201526040830135604082015260608301356060820152608083013582811115614d8557600080fd5b614d9136828601614836565b60808301525060a083013582811115614da957600080fd5b614db536828601614ca4565b60a083015250835250909392505050565b600060608284031215614dd857600080fd5b604051606081018181106001600160401b0382111715614dfa57614dfa6146b3565b604052614e0683614371565b8152614e1460208401614371565b6020820152614e2560408401614371565b60408201529392505050565b600060408236031215614e4357600080fd5b614e4b61475a565b614e5483614371565b815260208301356001600160401b0380821115614e7057600080fd5b81850191506101408236031215614e8657600080fd5b614e8e614715565b823581526020830135602082015260408301356040820152606083013560608201526080830135608082015260a083013560a082015260c083013560c082015260e083013560e08201526101008084013581830152506101208084013583811115614ef857600080fd5b614f0436828701614836565b9183019190915250602084015250909392505050565b60208082526022908201527f504c4143455f494e4352454153455f4f524445525f4741535f4645455f4c494d604082015261125560f21b606082015260800190565b60208082526022908201527f504c4143455f44454352454153455f4f524445525f4741535f4645455f4c494d604082015261125560f21b606082015260800190565b60208082526024908201527f504f534954494f4e5f5550444154455f4d415247494e5f4741535f4645455f4c6040820152631253525560e21b606082015260800190565b60208082526026908201527f504f534954494f4e5f5550444154455f4c455645524147455f4741535f46454560408201526517d31253525560d21b606082015260800190565b6020808252600c908201526b54524144455f544f4b454e5360a01b604082015260600190565b634e487b7160e01b600052603260045260246000fd5b60208082526021908201527f54524144494e475f4645455f5354414b494e475f524557415244535f524154496040820152604f60f81b606082015260800190565b60208082526022908201527f54524144494e475f4645455f5553445f504f4f4c5f524557415244535f524154604082015261494f60f01b606082015260800190565b60208082526023908201527f424f52524f57494e475f4645455f5354414b494e475f524557415244535f524160408201526254494f60e81b606082015260800190565b6020808252601490820152731413d3d317d3125455525112551657d31253525560621b604082015260600190565b6020808252600d908201526c4d494e545f4645455f5241544560981b604082015260600190565b6020808252600f908201526e52454445454d5f4645455f5241544560881b604082015260600190565b60208082526025908201527f535441424c455f544f4b454e535f424f52524f57494e475f494e5445524553546040820152645f5241544560d81b606082015260800190565b9283526001600160a01b03919091166020830152604082015260600190565b6020808252600c908201526b5641554c545f434f4e46494760a01b604082015260600190565b60208082526022908201527f554e534554544c45445f535441424c455f544f4b454e5f524154494f5f4c494d604082015261125560f21b606082015260800190565b60208082526012908201527154524144455f544f4b454e5f434f4e46494760701b604082015260600190565b6020808252601590820152741254d7d4d5541413d49517d0d3d313105511549053605a1b604082015260600190565b602080825260099082015268282922a1a4a9a4a7a760b91b604082015260600190565b602080825260089082015267111254d0d3d5539560c21b604082015260600190565b6020808252601390820152720434f4c4c41544552414c5f555345525f43415606c1b604082015260600190565b6020808252601490820152730434f4c4c41544552414c5f544f54414c5f4341560641b604082015260600190565b60208082526012908201527104c494142494c4954595f555345525f4341560741b604082015260600190565b60208082526013908201527204c494142494c4954595f544f54414c5f43415606c1b604082015260600190565b60208082526014908201527324a72a22a922a9aa2fa920aa22afa320a1aa27a960611b604082015260600190565b6020808252601290820152712624a8aaa4a220aa24a7a72fa320a1aa27a960711b604082015260600190565b818103818111156102ed57634e487b7160e01b600052601160045260246000fd5b634e487b7160e01b600052603160045260246000fdfea264697066735822122045bd40c5c39cc00ade9943d955ec32c73e9f31aa995dc82ae3ad3a2929c38c5d64736f6c63430008190033","linkReferences":{}},"methodIdentifiers":{"accountFacet_cancelWithdraw(uint8,uint16)":"f93e954b","accountFacet_createWithdrawRequest(uint8,uint96,uint16)":"c6705df1","accountFacet_deposit(uint8,uint96,bool,bool,uint96,uint16)":"0b267147","accountFacet_executeWithdraw(uint16)":"67f6fd70","btcFeed()":"c23d2a4a","btcFeedDecimals()":"47439c54","dealUsers()":"09228a03","executeOrder(uint16)":"b0bcf4bd","orderFacet_batchCreateOrderRequest(uint16,uint8,bool,uint8,uint8,uint8,uint8,uint96,uint64)":"cc5f182a","orderFacet_cancelOrder(uint8,uint16)":"59b3e1ab","orderFacet_createOrderRequest(uint16,bool,bool,uint8,uint8,uint8,uint8,uint8,uint96,uint96,uint96,uint64)":"6ecd6c01","positionFacet_autoReducePositions(uint16)":"73b8bfcc","positionFacet_cancelUpdateLeverageRequest(uint8,uint16)":"c1a95df2","positionFacet_cancelUpdatePositionMarginRequest(uint8,uint16)":"89d72870","positionFacet_createUpdateLeverageRequest(uint16,bool,bool,uint8,uint96,uint96)":"3af68583","positionFacet_createUpdatePositionMarginRequest(uint16,bool,bool,uint8,uint96)":"463539a4","positionFacet_executeUpdateLeverageRequest(uint16)":"3f086ce7","positionFacet_executeUpdatePositionMarginRequest(uint16)":"b412399c","stakeFacet_cancelMintStakeToken(uint8,uint16)":"683b9727","stakeFacet_cancelRedeemStakeToken(uint8,uint16)":"5039f6ca","stakeFacet_createMintStakeTokenRequest(uint16,uint8,uint8,uint256,uint96,uint96,bool,bool)":"37112506","stakeFacet_createRedeemStakeTokenRequest(uint16,uint8,uint8,uint256,uint96,uint96)":"8e4b6ae7","stakeFacet_executeMintStakeToken(uint16)":"4a74bc9b","stakeFacet_executeRedeemStakeToken(uint16)":"bd9e750e","usdcFeed()":"a4e7d977","usdcFeedDecimals()":"ceb78eb5","wethFeed()":"dd47dacf","wethFeedDecimals()":"8022b6fd"},"id":175}