{"abi":[{"type":"function","name":"getAllPools","inputs":[{"name":"oracles","type":"tuple[]","internalType":"struct OracleProcess.OracleParam[]","components":[{"name":"token","type":"address","internalType":"address"},{"name":"targetToken","type":"address","internalType":"address"},{"name":"minPrice","type":"int256","internalType":"int256"},{"name":"maxPrice","type":"int256","internalType":"int256"}]}],"outputs":[{"name":"","type":"tuple[]","internalType":"struct IPool.PoolInfo[]","components":[{"name":"stakeToken","type":"address","internalType":"address"},{"name":"stakeTokenName","type":"string","internalType":"string"},{"name":"baseToken","type":"address","internalType":"address"},{"name":"symbol","type":"bytes32","internalType":"bytes32"},{"name":"baseTokenBalance","type":"tuple","internalType":"struct IPool.MintTokenBalance","components":[{"name":"amount","type":"uint256","internalType":"uint256"},{"name":"liability","type":"uint256","internalType":"uint256"},{"name":"holdAmount","type":"uint256","internalType":"uint256"},{"name":"unsettledAmount","type":"int256","internalType":"int256"},{"name":"lossAmount","type":"uint256","internalType":"uint256"},{"name":"collateralTokens","type":"address[]","internalType":"address[]"},{"name":"collateralAmounts","type":"uint256[]","internalType":"uint256[]"}]},{"name":"stableTokens","type":"address[]","internalType":"address[]"},{"name":"stableTokenBalances","type":"tuple[]","internalType":"struct IPool.MintTokenBalance[]","components":[{"name":"amount","type":"uint256","internalType":"uint256"},{"name":"liability","type":"uint256","internalType":"uint256"},{"name":"holdAmount","type":"uint256","internalType":"uint256"},{"name":"unsettledAmount","type":"int256","internalType":"int256"},{"name":"lossAmount","type":"uint256","internalType":"uint256"},{"name":"collateralTokens","type":"address[]","internalType":"address[]"},{"name":"collateralAmounts","type":"uint256[]","internalType":"uint256[]"}]},{"name":"poolValue","type":"uint256","internalType":"uint256"},{"name":"availableLiquidity","type":"uint256","internalType":"uint256"},{"name":"poolPnl","type":"int256","internalType":"int256"},{"name":"totalSupply","type":"uint256","internalType":"uint256"},{"name":"borrowingFee","type":"tuple","internalType":"struct LpPool.BorrowingFee","components":[{"name":"totalBorrowingFee","type":"uint256","internalType":"uint256"},{"name":"totalRealizedBorrowingFee","type":"uint256","internalType":"uint256"},{"name":"cumulativeBorrowingFeePerToken","type":"uint256","internalType":"uint256"},{"name":"lastUpdateTime","type":"uint256","internalType":"uint256"}]},{"name":"apr","type":"uint256","internalType":"uint256"},{"name":"totalClaimedRewards","type":"uint256","internalType":"uint256"}]}],"stateMutability":"view"},{"type":"function","name":"getMarketUnPnl","inputs":[{"name":"symbol","type":"bytes32","internalType":"bytes32"},{"name":"oracles","type":"tuple[]","internalType":"struct OracleProcess.OracleParam[]","components":[{"name":"token","type":"address","internalType":"address"},{"name":"targetToken","type":"address","internalType":"address"},{"name":"minPrice","type":"int256","internalType":"int256"},{"name":"maxPrice","type":"int256","internalType":"int256"}]},{"name":"isLong","type":"bool","internalType":"bool"},{"name":"marginToken","type":"address","internalType":"address"},{"name":"pnlToken","type":"bool","internalType":"bool"}],"outputs":[{"name":"","type":"int256","internalType":"int256"}],"stateMutability":"view"},{"type":"function","name":"getPool","inputs":[{"name":"stakeToken","type":"address","internalType":"address"},{"name":"oracles","type":"tuple[]","internalType":"struct OracleProcess.OracleParam[]","components":[{"name":"token","type":"address","internalType":"address"},{"name":"targetToken","type":"address","internalType":"address"},{"name":"minPrice","type":"int256","internalType":"int256"},{"name":"maxPrice","type":"int256","internalType":"int256"}]}],"outputs":[{"name":"","type":"tuple","internalType":"struct IPool.PoolInfo","components":[{"name":"stakeToken","type":"address","internalType":"address"},{"name":"stakeTokenName","type":"string","internalType":"string"},{"name":"baseToken","type":"address","internalType":"address"},{"name":"symbol","type":"bytes32","internalType":"bytes32"},{"name":"baseTokenBalance","type":"tuple","internalType":"struct IPool.MintTokenBalance","components":[{"name":"amount","type":"uint256","internalType":"uint256"},{"name":"liability","type":"uint256","internalType":"uint256"},{"name":"holdAmount","type":"uint256","internalType":"uint256"},{"name":"unsettledAmount","type":"int256","internalType":"int256"},{"name":"lossAmount","type":"uint256","internalType":"uint256"},{"name":"collateralTokens","type":"address[]","internalType":"address[]"},{"name":"collateralAmounts","type":"uint256[]","internalType":"uint256[]"}]},{"name":"stableTokens","type":"address[]","internalType":"address[]"},{"name":"stableTokenBalances","type":"tuple[]","internalType":"struct IPool.MintTokenBalance[]","components":[{"name":"amount","type":"uint256","internalType":"uint256"},{"name":"liability","type":"uint256","internalType":"uint256"},{"name":"holdAmount","type":"uint256","internalType":"uint256"},{"name":"unsettledAmount","type":"int256","internalType":"int256"},{"name":"lossAmount","type":"uint256","internalType":"uint256"},{"name":"collateralTokens","type":"address[]","internalType":"address[]"},{"name":"collateralAmounts","type":"uint256[]","internalType":"uint256[]"}]},{"name":"poolValue","type":"uint256","internalType":"uint256"},{"name":"availableLiquidity","type":"uint256","internalType":"uint256"},{"name":"poolPnl","type":"int256","internalType":"int256"},{"name":"totalSupply","type":"uint256","internalType":"uint256"},{"name":"borrowingFee","type":"tuple","internalType":"struct LpPool.BorrowingFee","components":[{"name":"totalBorrowingFee","type":"uint256","internalType":"uint256"},{"name":"totalRealizedBorrowingFee","type":"uint256","internalType":"uint256"},{"name":"cumulativeBorrowingFeePerToken","type":"uint256","internalType":"uint256"},{"name":"lastUpdateTime","type":"uint256","internalType":"uint256"}]},{"name":"apr","type":"uint256","internalType":"uint256"},{"name":"totalClaimedRewards","type":"uint256","internalType":"uint256"}]}],"stateMutability":"view"},{"type":"function","name":"getUsdPool","inputs":[],"outputs":[{"name":"","type":"tuple","internalType":"struct IPool.UsdPoolInfo","components":[{"name":"stableTokens","type":"address[]","internalType":"address[]"},{"name":"stableTokenBalances","type":"tuple[]","internalType":"struct UsdPool.TokenBalance[]","components":[{"name":"amount","type":"uint256","internalType":"uint256"},{"name":"holdAmount","type":"uint256","internalType":"uint256"},{"name":"unsettledAmount","type":"uint256","internalType":"uint256"}]},{"name":"stableTokenMaxWithdraws","type":"uint256[]","internalType":"uint256[]"},{"name":"poolValue","type":"uint256","internalType":"uint256"},{"name":"totalSupply","type":"uint256","internalType":"uint256"},{"name":"tokensAvailableLiquidity","type":"uint256[]","internalType":"uint256[]"},{"name":"borrowingFees","type":"tuple[]","internalType":"struct UsdPool.BorrowingFee[]","components":[{"name":"totalBorrowingFee","type":"uint256","internalType":"uint256"},{"name":"totalRealizedBorrowingFee","type":"uint256","internalType":"uint256"},{"name":"cumulativeBorrowingFeePerToken","type":"uint256","internalType":"uint256"},{"name":"lastUpdateTime","type":"uint256","internalType":"uint256"}]},{"name":"apr","type":"uint256","internalType":"uint256"},{"name":"totalClaimedRewards","type":"uint256","internalType":"uint256"}]}],"stateMutability":"view"},{"type":"function","name":"getUsdPoolWithOracle","inputs":[{"name":"oracles","type":"tuple[]","internalType":"struct OracleProcess.OracleParam[]","components":[{"name":"token","type":"address","internalType":"address"},{"name":"targetToken","type":"address","internalType":"address"},{"name":"minPrice","type":"int256","internalType":"int256"},{"name":"maxPrice","type":"int256","internalType":"int256"}]}],"outputs":[{"name":"","type":"tuple","internalType":"struct IPool.UsdPoolInfo","components":[{"name":"stableTokens","type":"address[]","internalType":"address[]"},{"name":"stableTokenBalances","type":"tuple[]","internalType":"struct UsdPool.TokenBalance[]","components":[{"name":"amount","type":"uint256","internalType":"uint256"},{"name":"holdAmount","type":"uint256","internalType":"uint256"},{"name":"unsettledAmount","type":"uint256","internalType":"uint256"}]},{"name":"stableTokenMaxWithdraws","type":"uint256[]","internalType":"uint256[]"},{"name":"poolValue","type":"uint256","internalType":"uint256"},{"name":"totalSupply","type":"uint256","internalType":"uint256"},{"name":"tokensAvailableLiquidity","type":"uint256[]","internalType":"uint256[]"},{"name":"borrowingFees","type":"tuple[]","internalType":"struct UsdPool.BorrowingFee[]","components":[{"name":"totalBorrowingFee","type":"uint256","internalType":"uint256"},{"name":"totalRealizedBorrowingFee","type":"uint256","internalType":"uint256"},{"name":"cumulativeBorrowingFeePerToken","type":"uint256","internalType":"uint256"},{"name":"lastUpdateTime","type":"uint256","internalType":"uint256"}]},{"name":"apr","type":"uint256","internalType":"uint256"},{"name":"totalClaimedRewards","type":"uint256","internalType":"uint256"}]}],"stateMutability":"view"}],"bytecode":{"object":"0x61393a610039600b82828239805160001a607314602c57634e487b7160e01b600052600060045260246000fd5b30600052607381538281f3fe730000000000000000000000000000000000000000301460806040526004361061010a5760003560e01c80636c423e7e116100a1578063a345a3b211610070578063a345a3b214610215578063c77b227f14610228578063ce6e72db14610248578063f93446b11461025b57600080fd5b80636c423e7e146101c757806375d037d0146101da578063846cd1ae146101ef578063856b69ea1461020257600080fd5b80634cbf1831116100dd5780634cbf18311461016e5780635e9466661461018157806361c9c90814610194578063629a5892146101b457600080fd5b8063087edcb01461010f5780630f5cb1a814610135578063216de24a146101485780632d08a78c1461015b575b600080fd5b61012261011d366004612b48565b61026e565b6040519081526020015b60405180910390f35b610122610143366004612cda565b610283565b610122610156366004612b48565b6102b6565b610122610169366004612cda565b6102c4565b61012261017c366004612cda565b610817565b61012261018f366004612b48565b610e78565b6101a76101a2366004612d20565b610e86565b60405161012c9190612fed565b6101226101c2366004612b48565b611217565b6101226101d5366004612cda565b611245565b6101e2611252565b60405161012c91906130a3565b6101226101fd36600461316c565b611708565b6101226102103660046131aa565b6118bc565b6101e261022336600461322a565b611de1565b61023b61023636600461322a565b6122fc565b60405161012c919061329e565b610122610256366004612cda565b612479565b610122610269366004612b48565b612765565b6000606061027c8382610817565b9392505050565b6000806102908484612479565b905060008113156102a9576102a481612773565b6102ac565b60005b9150505b92915050565b6000606061027c8382610283565b600482015460009081901515806102df575060078401546000125b156104da57600384015460028501546000916103099186906001906001600160a01b0316816118bc565b600286015460405163f85cce2d60e01b815291925060009173__$bb4e55f00c0f45d2719800850b371b8ff8$__9163f85cce2d9161035a9189916001600160a01b0390911690600190600401613302565b602060405180830381865af4158015610377573d6000803e3d6000fd5b505050506040513d601f19601f8201168201806040525081019061039b9190613391565b905073__$54cfd135a3b5f05a8488b7e4b687d6e5b3$__6375608c3d8388600401600301546103d08a600401600001546127ce565b6103da91906133c0565b6103e491906133c0565b6002890154604051636a24d41960e11b81526001600160a01b03909116600482015273__$27ae1b494209daa89c188ba5c7f8a7693b$__9063d449a83290602401602060405180830381865af4158015610442573d6000803e3d6000fd5b505050506040513d601f19601f8201168201806040525081019061046691906133e8565b6040516001600160e01b031960e085901b168152600481019290925260ff16602482015260448101849052606401602060405180830381865af41580156104b1573d6000803e3d6000fd5b505050506040513d601f19601f820116820180604052508101906104d59190613391565b925050505b60405163270e49e960e21b81526004810185905260009073__$7b3f0eea015ed8194e857e3ec238e14f04$__90639c3927a490602401600060405180830381865af415801561052d573d6000803e3d6000fd5b505050506040513d6000823e601f3d908101601f191682016040526105559190810190613473565b80519091501561080f5760005b815181101561080d57600086600e016000848481518110610585576105856134a7565b60200260200101516001600160a01b03166001600160a01b0316815260200190815260200160002090506000816000015411806105c6575060008160030154135b156108045760006105f988600301548860008787815181106105ea576105ea6134a7565b602002602001015160016118bc565b905061080073__$54cfd135a3b5f05a8488b7e4b687d6e5b3$__6375608c3d8361062686600401546127ce565b60038701548754610636906127ce565b61064091906133c0565b61064a91906134bd565b61065491906133c0565b73__$27ae1b494209daa89c188ba5c7f8a7693b$__63d449a832898981518110610680576106806134a7565b60200260200101516040518263ffffffff1660e01b81526004016106b391906001600160a01b0391909116815260200190565b602060405180830381865af41580156106d0573d6000803e3d6000fd5b505050506040513d601f19601f820116820180604052508101906106f491906133e8565b73__$bb4e55f00c0f45d2719800850b371b8ff8$__63f85cce2d8d8b8b81518110610721576107216134a7565b602002602001015160016040518463ffffffff1660e01b815260040161074993929190613302565b602060405180830381865af4158015610766573d6000803e3d6000fd5b505050506040513d601f19601f8201168201806040525081019061078a9190613391565b6040516001600160e01b031960e086901b168152600481019390935260ff90911660248301526044820152606401602060405180830381865af41580156107d5573d6000803e3d6000fd5b505050506040513d601f19601f820116820180604052508101906107f99190613391565b8690612838565b9450505b50600101610562565b505b509392505050565b60078201546004830154600091829161082f906127ce565b61083991906133c0565b9050600081121561084e5760009150506102b0565b60405163270e49e960e21b81526004810185905260009073__$7b3f0eea015ed8194e857e3ec238e14f04$__90639c3927a490602401600060405180830381865af41580156108a1573d6000803e3d6000fd5b505050506040513d6000823e601f3d908101601f191682016040526108c99190810190613473565b805190915015610d27576002850154604051636a24d41960e11b81526001600160a01b03909116600482015260009073__$27ae1b494209daa89c188ba5c7f8a7693b$__9063d449a83290602401602060405180830381865af4158015610934573d6000803e3d6000fd5b505050506040513d601f19601f8201168201806040525081019061095891906133e8565b600287015460405163f85cce2d60e01b815291925060009173__$bb4e55f00c0f45d2719800850b371b8ff8$__9163f85cce2d916109a9918a916001600160a01b0390911690600190600401613302565b602060405180830381865af41580156109c6573d6000803e3d6000fd5b505050506040513d601f19601f820116820180604052508101906109ea9190613391565b905060005b8351811015610d2357600088600e016000868481518110610a1257610a126134a7565b60200260200101516001600160a01b03166001600160a01b03168152602001908152602001600020905060008160040154118015610a745750610a5881600401546127ce565b60038201548254610a68906127ce565b610a7291906133c0565b125b15610d1a57600073__$54cfd135a3b5f05a8488b7e4b687d6e5b3$__6375608c3d8360030154610aa785600001546127ce565b610ab486600401546127ce565b610abe91906134bd565b610ac891906134bd565b73__$27ae1b494209daa89c188ba5c7f8a7693b$__63d449a8328a8881518110610af457610af46134a7565b60200260200101516040518263ffffffff1660e01b8152600401610b2791906001600160a01b0391909116815260200190565b602060405180830381865af4158015610b44573d6000803e3d6000fd5b505050506040513d601f19601f82011682018060405250810190610b6891906133e8565b73__$bb4e55f00c0f45d2719800850b371b8ff8$__63f85cce2d8e8c8a81518110610b9557610b956134a7565b602002602001015160016040518463ffffffff1660e01b8152600401610bbd93929190613302565b602060405180830381865af4158015610bda573d6000803e3d6000fd5b505050506040513d601f19601f82011682018060405250810190610bfe9190613391565b6040516001600160e01b031960e086901b168152600481019390935260ff90911660248301526044820152606401602060405180830381865af4158015610c49573d6000803e3d6000fd5b505050506040513d601f19601f82011682018060405250810190610c6d9190613391565b604051630d65ea2960e01b81526004810182905260ff871660248201526044810186905290915060009073__$54cfd135a3b5f05a8488b7e4b687d6e5b3$__90630d65ea2990606401602060405180830381865af4158015610cd3573d6000803e3d6000fd5b505050506040513d601f19601f82011682018060405250810190610cf79190613391565b905080881315610d1257610d0b81896134bd565b9750610d17565b600097505b50505b506001016109ef565b5050505b600073__$54cfd135a3b5f05a8488b7e4b687d6e5b3$__63aca95d5484610dc88973__$7b3f0eea015ed8194e857e3ec238e14f04$__63e61fccc590916040518263ffffffff1660e01b8152600401610d8291815260200190565b602060405180830381865af4158015610d9f573d6000803e3d6000fd5b505050506040513d601f19601f82011682018060405250810190610dc39190613391565b6127ce565b6040516001600160e01b031960e085901b16815260048101929092526024820152604401602060405180830381865af4158015610e09573d6000803e3d6000fd5b505050506040513d601f19601f82011682018060405250810190610e2d9190613391565b9050610e3f86600401600201546127ce565b8113610e4c576000610e6e565b610e6e610e5f87600401600201546127ce565b610e6990836134bd565b612773565b9695505050505050565b6000606061027c83826102c4565b610e8e612a0c565b604051630bd039cd60e21b81526001600160a01b038416600482015260009073__$7b3f0eea015ed8194e857e3ec238e14f04$__90632f40e73490602401602060405180830381865af4158015610ee9573d6000803e3d6000fd5b505050506040513d601f19601f82011682018060405250810190610f0d9190613391565b9050610f17612a0c565b604051637479b52b60e11b81526004810183905273__$7b3f0eea015ed8194e857e3ec238e14f04$__9063e8f36a5690602401602060405180830381865af4158015610f67573d6000803e3d6000fd5b505050506040513d601f19601f82011682018060405250810190610f8b91906134e4565b610f985791506102b09050565b60405163270e49e960e21b81526004810183905260009073__$7b3f0eea015ed8194e857e3ec238e14f04$__90639c3927a490602401600060405180830381865af4158015610feb573d6000803e3d6000fd5b505050506040513d6000823e601f3d908101601f191682016040526110139190810190613473565b90506000866001600160a01b03166318160ddd6040518163ffffffff1660e01b8152600401602060405180830381865afa158015611055573d6000803e3d6000fd5b505050506040513d601f19601f820116820180604052508101906110799190613391565b9050604051806101c00160405280886001600160a01b031681526020018560010180546110a590613501565b80601f01602080910402602001604051908101604052809291908181526020018280546110d190613501565b801561111e5780601f106110f35761010080835404028352916020019161111e565b820191906000526020600020905b81548152906001019060200180831161110157829003601f168201915b505050918352505060028601546001600160a01b031660208201526003860154604082015260600161115260048701612844565b815260200183815260200161116a8487600e01612919565b8152602001600088511161117f576000611189565b6111898689611245565b8152602001600088511161119e5760006111a8565b6111a88689610817565b81526020016000815260200182815260200185601001604051806080016040529081600082015481526020016001820154815260200160028201548152602001600382015481525050815260200185601401548152602001856015015481525092508294505050505092915050565b60008061122383610e78565b9050600081131561123c5761123781612773565b61027c565b60009392505050565b60008061029084846102c4565b61125a612abf565b600073__$2ca09eef01f3e987781766047ffc2a4e22$__6386d5c4be6040518163ffffffff1660e01b8152600401602060405180830381865af41580156112a5573d6000803e3d6000fd5b505050506040513d601f19601f820116820180604052508101906112c99190613391565b604051636a10e40560e11b81526004810182905290915073__$2ca09eef01f3e987781766047ffc2a4e22$__9063d421c80a90602401600060405180830381865af415801561131c573d6000803e3d6000fd5b505050506040513d6000823e601f3d908101601f191682016040526113449190810190613473565b51600003611354576102b0612abf565b600073__$743db1863e6a0ee1ad13b47ec8f30557c4$__63f141859a6040518163ffffffff1660e01b8152600401602060405180830381865af415801561139f573d6000803e3d6000fd5b505050506040513d601f19601f820116820180604052508101906113c3919061353b565b90506000816001600160a01b03166318160ddd6040518163ffffffff1660e01b8152600401602060405180830381865afa158015611405573d6000803e3d6000fd5b505050506040513d601f19601f820116820180604052508101906114299190613391565b604051636a10e40560e11b81526004810185905290915060009073__$2ca09eef01f3e987781766047ffc2a4e22$__9063d421c80a90602401600060405180830381865af415801561147f573d6000803e3d6000fd5b505050506040513d6000823e601f3d908101601f191682016040526114a79190810190613473565b9050600081516001600160401b038111156114c4576114c4612b61565b6040519080825280602002602001820160405280156114ed578160200160208202803683370190505b50905060005b82518110156115445761151f86848381518110611512576115126134a7565b6020026020010151611708565b828281518110611531576115316134a7565b60209081029190910101526001016114f3565b50604080516101208101825283815290516301ccd90d60e51b815260048101879052602082019073__$2ca09eef01f3e987781766047ffc2a4e22$__9063399b21a090602401600060405180830381865af41580156115a7573d6000803e3d6000fd5b505050506040513d6000823e601f3d908101601f191682016040526115cf91908101906135b3565b815260405163deaa0a3760e01b81526004810188905260209091019073__$2ca09eef01f3e987781766047ffc2a4e22$__9063deaa0a3790602401600060405180830381865af4158015611627573d6000803e3d6000fd5b505050506040513d6000823e601f3d908101601f1916820160405261164f91908101906136b2565b8152602001600081526020018481526020018281526020018673__$2ca09eef01f3e987781766047ffc2a4e22$__63ffabfaeb90916040518263ffffffff1660e01b81526004016116a291815260200190565b600060405180830381865af41580156116bf573d6000803e3d6000fd5b505050506040513d6000823e601f3d908101601f191682016040526116e791908101906136e6565b81526020018660040154815260200186600501548152509550505050505090565b6040516336dd0ce360e01b8152600481018390526001600160a01b0382166024820152600090819073__$2ca09eef01f3e987781766047ffc2a4e22$__906336dd0ce390604401606060405180830381865af415801561176c573d6000803e3d6000fd5b505050506040513d601f19601f8201168201806040525081019061179091906137af565b90506000816040015182600001516117a891906137cb565b9050600073__$54cfd135a3b5f05a8488b7e4b687d6e5b3$__63ee7fc5a38373__$2ca09eef01f3e987781766047ffc2a4e22$__630b4fff736040518163ffffffff1660e01b8152600401602060405180830381865af4158015611810573d6000803e3d6000fd5b505050506040513d601f19601f820116820180604052508101906118349190613391565b6040516001600160e01b031960e085901b16815260048101929092526024820152604401602060405180830381865af4158015611875573d6000803e3d6000fd5b505050506040513d601f19601f820116820180604052508101906118999190613391565b9050826020015181116118ad576000610e6e565b6020830151610e6e90826137de565b60405163f035079960e01b815260048101869052600090819073__$c8e6546537cf333e8a85b2d4d22f035259$__9063f035079990602401602060405180830381865af4158015611911573d6000803e3d6000fd5b505050506040513d601f19601f820116820180604052508101906119359190613391565b60405163f035079960e01b81526004810189905290915060009073__$772a6c28cc3d4776ea886febacbb24816f$__9063f035079990602401602060405180830381865af415801561198b573d6000803e3d6000fd5b505050506040513d601f19601f820116820180604052508101906119af9190613391565b6040805160c08101909152815481526001820154909190602083019060ff1660038111156119df576119df6137f1565b60038111156119f0576119f06137f1565b815260018201546001600160a01b03610100909104811660208301526002830154811660408301526003830154166060820152600482018054608090920191611a3890613501565b80601f0160208091040260200160405190810160405280929190818152602001828054611a6490613501565b8015611ab15780601f10611a8657610100808354040283529160200191611ab1565b820191906000526020600020905b815481529060010190602001808311611a9457829003601f168201915b5050505050815250509050600086611ae2576001600160a01b03861660009081526006840160205260409020611ae7565b826002015b8054909150600003611aff5760009350505050611dd8565b606082015160405163f85cce2d60e01b815260009173__$bb4e55f00c0f45d2719800850b371b8ff8$__9163f85cce2d91611b42918d9190600190600401613302565b602060405180830381865af4158015611b5f573d6000803e3d6000fd5b505050506040513d601f19601f82011682018060405250810190611b839190613391565b9050611b8e81612773565b826001015403611ba5576000945050505050611dd8565b8715611dac576000611bee611bbd84600101546127ce565b611be8611bd7611bd087600101546127ce565b86906129e8565b8654611be2906127ce565b906129f4565b90612a00565b90508615611d975760405163f85cce2d60e01b815260009073__$bb4e55f00c0f45d2719800850b371b8ff8$__9063f85cce2d90611c34908e908d908690600401613302565b602060405180830381865af4158015611c51573d6000803e3d6000fd5b505050506040513d601f19601f82011682018060405250810190611c759190613391565b604051636a24d41960e11b81526001600160a01b038b16600482015290915073__$54cfd135a3b5f05a8488b7e4b687d6e5b3$__90630d65ea2990849073__$27ae1b494209daa89c188ba5c7f8a7693b$__9063d449a83290602401602060405180830381865af4158015611cee573d6000803e3d6000fd5b505050506040513d601f19601f82011682018060405250810190611d1291906133e8565b6040516001600160e01b031960e085901b168152600481019290925260ff16602482015260448101849052606401602060405180830381865af4158015611d5d573d6000803e3d6000fd5b505050506040513d601f19601f82011682018060405250810190611d819190613391565b611d8a90613807565b9650505050505050611dd8565b611da081613807565b95505050505050611dd8565b6000611bee611dbe84600101546127ce565b611be8611bd785611dd288600101546127ce565b906129e8565b95945050505050565b611de9612abf565b600073__$2ca09eef01f3e987781766047ffc2a4e22$__6386d5c4be6040518163ffffffff1660e01b8152600401602060405180830381865af4158015611e34573d6000803e3d6000fd5b505050506040513d601f19601f82011682018060405250810190611e589190613391565b604051636a10e40560e11b81526004810182905290915073__$2ca09eef01f3e987781766047ffc2a4e22$__9063d421c80a90602401600060405180830381865af4158015611eab573d6000803e3d6000fd5b505050506040513d6000823e601f3d908101601f19168201604052611ed39190810190613473565b51600003611eec57611ee3612abf565b91506102b09050565b600073__$743db1863e6a0ee1ad13b47ec8f30557c4$__63f141859a6040518163ffffffff1660e01b8152600401602060405180830381865af4158015611f37573d6000803e3d6000fd5b505050506040513d601f19601f82011682018060405250810190611f5b919061353b565b90506000816001600160a01b03166318160ddd6040518163ffffffff1660e01b8152600401602060405180830381865afa158015611f9d573d6000803e3d6000fd5b505050506040513d601f19601f82011682018060405250810190611fc19190613391565b604051636a10e40560e11b81526004810185905290915060009073__$2ca09eef01f3e987781766047ffc2a4e22$__9063d421c80a90602401600060405180830381865af4158015612017573d6000803e3d6000fd5b505050506040513d6000823e601f3d908101601f1916820160405261203f9190810190613473565b9050600081516001600160401b0381111561205c5761205c612b61565b604051908082528060200260200182016040528015612085578160200160208202803683370190505b50905060005b82518110156120cf576120aa86848381518110611512576115126134a7565b8282815181106120bc576120bc6134a7565b602090810291909101015260010161208b565b50604080516101208101825283815290516301ccd90d60e51b815260048101879052602082019073__$2ca09eef01f3e987781766047ffc2a4e22$__9063399b21a090602401600060405180830381865af4158015612132573d6000803e3d6000fd5b505050506040513d6000823e601f3d908101601f1916820160405261215a91908101906135b3565b815260405163deaa0a3760e01b81526004810188905260209091019073__$2ca09eef01f3e987781766047ffc2a4e22$__9063deaa0a3790602401600060405180830381865af41580156121b2573d6000803e3d6000fd5b505050506040513d6000823e601f3d908101601f191682016040526121da91908101906136b2565b8152602001886121eb576000612247565b612247878b8b808060200260200160405190810160405280939291908181526020016000905b8282101561223d5761222e60808302860136819003810190613823565b81526020019060010190612211565b5050505050610283565b81526020018481526020018281526020018673__$2ca09eef01f3e987781766047ffc2a4e22$__63ffabfaeb90916040518263ffffffff1660e01b815260040161229391815260200190565b600060405180830381865af41580156122b0573d6000803e3d6000fd5b505050506040513d6000823e601f3d908101601f191682016040526122d891908101906136e6565b81526020018660040154815260200186600501548152509550505050505092915050565b6060600073__$743db1863e6a0ee1ad13b47ec8f30557c4$__632dbc16506040518163ffffffff1660e01b8152600401600060405180830381865af4158015612349573d6000803e3d6000fd5b505050506040513d6000823e601f3d908101601f191682016040526123719190810190613473565b9050600081516001600160401b0381111561238e5761238e612b61565b6040519080825280602002602001820160405280156123c757816020015b6123b4612a0c565b8152602001906001900390816123ac5790505b50905060005b82518110156124705761244b8382815181106123eb576123eb6134a7565b60200260200101518787808060200260200160405190810160405280939291908181526020016000905b828210156124415761243260808302860136819003810190613823565b81526020019060010190612415565b5050505050610e86565b82828151811061245d5761245d6134a7565b60209081029190910101526001016123cd565b50949350505050565b604051636a10e40560e11b8152600481018390526000908190819073__$2ca09eef01f3e987781766047ffc2a4e22$__9063d421c80a90602401600060405180830381865af41580156124d0573d6000803e3d6000fd5b505050506040513d6000823e601f3d908101601f191682016040526124f89190810190613473565b80519091501561080f5760005b815181101561080d576000866002016000848481518110612528576125286134a7565b60200260200101516001600160a01b03166001600160a01b031681526020019081526020016000209050600081600001541180612569575060008160020154115b1561275c5761275973__$54cfd135a3b5f05a8488b7e4b687d6e5b3$__6375608c3d61259884600201546127ce565b84546125a3906127ce565b6125ad91906133c0565b73__$27ae1b494209daa89c188ba5c7f8a7693b$__63d449a8328888815181106125d9576125d96134a7565b60200260200101516040518263ffffffff1660e01b815260040161260c91906001600160a01b0391909116815260200190565b602060405180830381865af4158015612629573d6000803e3d6000fd5b505050506040513d601f19601f8201168201806040525081019061264d91906133e8565b73__$bb4e55f00c0f45d2719800850b371b8ff8$__63f85cce2d8c8a8a8151811061267a5761267a6134a7565b602002602001015160016040518463ffffffff1660e01b81526004016126a293929190613302565b602060405180830381865af41580156126bf573d6000803e3d6000fd5b505050506040513d601f19601f820116820180604052508101906126e39190613391565b6040516001600160e01b031960e086901b168152600481019390935260ff90911660248301526044820152606401602060405180830381865af415801561272e573d6000803e3d6000fd5b505050506040513d601f19601f820116820180604052508101906127529190613391565b8590612838565b93505b50600101612505565b6000606061027c8382612479565b6000808212156127ca5760405162461bcd60e51b815260206004820181905260248201527f53616665436173743a2076616c7565206d75737420626520706f73697469766560448201526064015b60405180910390fd5b5090565b60006001600160ff1b038211156127ca5760405162461bcd60e51b815260206004820152602860248201527f53616665436173743a2076616c756520646f65736e27742066697420696e2061604482015267371034b73a191a9b60c11b60648201526084016127c1565b600061027c82846133c0565b61284c612b0b565b60405163d33d4aa160e01b8152600583016004820152600090819073__$7b3f0eea015ed8194e857e3ec238e14f04$__9063d33d4aa190602401600060405180830381865af41580156128a3573d6000803e3d6000fd5b505050506040513d6000823e601f3d908101601f191682016040526128cb919081019061383f565b6040805160e081018252875481526001880154602082015260028801549181019190915260038701546060820152600490960154608087015260a086019190915260c0850152509192915050565b6060600083516001600160401b0381111561293657612936612b61565b60405190808252806020026020018201604052801561296f57816020015b61295c612b0b565b8152602001906001900390816129545790505b50905060005b845181101561080f576129c3846000878481518110612996576129966134a7565b60200260200101516001600160a01b03166001600160a01b03168152602001908152602001600020612844565b8282815181106129d5576129d56134a7565b6020908102919091010152600101612975565b600061027c82846134bd565b600061027c8284613898565b600061027c82846138c8565b604051806101c0016040528060006001600160a01b031681526020016060815260200160006001600160a01b0316815260200160008019168152602001612a51612b0b565b8152602001606081526020016060815260200160008152602001600081526020016000815260200160008152602001612aab6040518060800160405280600081526020016000815260200160008152602001600081525090565b815260200160008152602001600081525090565b6040518061012001604052806060815260200160608152602001606081526020016000815260200160008152602001606081526020016060815260200160008152602001600081525090565b6040518060e00160405280600081526020016000815260200160008152602001600081526020016000815260200160608152602001606081525090565b600060208284031215612b5a57600080fd5b5035919050565b634e487b7160e01b600052604160045260246000fd5b604051608081016001600160401b0381118282101715612b9957612b99612b61565b60405290565b604051601f8201601f191681016001600160401b0381118282101715612bc757612bc7612b61565b604052919050565b60006001600160401b03821115612be857612be8612b61565b5060051b60200190565b6001600160a01b0381168114612c0757600080fd5b50565b600060808284031215612c1c57600080fd5b612c24612b77565b90508135612c3181612bf2565b81526020820135612c4181612bf2565b80602083015250604082013560408201526060820135606082015292915050565b600082601f830112612c7357600080fd5b81356020612c88612c8383612bcf565b612b9f565b8083825260208201915060208460071b870101935086841115612caa57600080fd5b602086015b84811015612ccf57612cc18882612c0a565b835291830191608001612caf565b509695505050505050565b60008060408385031215612ced57600080fd5b8235915060208301356001600160401b03811115612d0a57600080fd5b612d1685828601612c62565b9150509250929050565b60008060408385031215612d3357600080fd5b8235612d3e81612bf2565b915060208301356001600160401b03811115612d0a57600080fd5b6000815180845260005b81811015612d7f57602081850181015186830182015201612d63565b506000602082860101526020601f19601f83011685010191505092915050565b60008151808452602080850194506020840160005b83811015612dd95781516001600160a01b031687529582019590820190600101612db4565b509495945050505050565b60008151808452602080850194506020840160005b83811015612dd957815187529582019590820190600101612df9565b8051825260208101516020830152604081015160408301526060810151606083015260808101516080830152600060a082015160e060a0850152612e5c60e0850182612d9f565b905060c083015184820360c0860152611dd88282612de4565b60008282518085526020808601955060208260051b8401016020860160005b84811015612ec257601f19868403018952612eb0838351612e15565b98840198925090830190600101612e94565b5090979650505050505050565b80516001600160a01b0316825260006102206020830151816020860152612ef882860182612d59565b9150506040830151612f1560408601826001600160a01b03169052565b506060830151606085015260808301518482036080860152612f378282612e15565b91505060a083015184820360a0860152612f518282612d9f565b91505060c083015184820360c0860152612f6b8282612e75565b60e0858101519087015261010080860151908701526101208086015190870152610140808601519087015261016080860151805182890152602081015161018089015260408101516101a089015260608101516101c0890152919350915050506101808301516101e08501526101a08301516102008501528091505092915050565b60208152600061027c6020830184612ecf565b60008151808452602080850194506020840160005b83811015612dd95781518051885283810151848901526040908101519088015260609096019590820190600101613015565b60008151808452602080850194506020840160005b83811015612dd957613090878351805182526020810151602083015260408101516040830152606081015160608301525050565b608096909601959082019060010161305c565b60208152600082516101208060208501526130c2610140850183612d9f565b91506020850151601f19808685030160408701526130e08483613000565b935060408701519150808685030160608701526130fd8483612de4565b935060608701516080870152608087015160a087015260a08701519150808685030160c087015261312e8483612de4565b935060c08701519150808685030160e08701525061314c8382613047565b60e087015161010087810191909152909601519190940152509192915050565b6000806040838503121561317f57600080fd5b82359150602083013561319181612bf2565b809150509250929050565b8015158114612c0757600080fd5b600080600080600060a086880312156131c257600080fd5b8535945060208601356001600160401b038111156131df57600080fd5b6131eb88828901612c62565b94505060408601356131fc8161319c565b9250606086013561320c81612bf2565b9150608086013561321c8161319c565b809150509295509295909350565b6000806020838503121561323d57600080fd5b82356001600160401b038082111561325457600080fd5b818501915085601f83011261326857600080fd5b81358181111561327757600080fd5b8660208260071b850101111561328c57600080fd5b60209290920196919550909350505050565b600060208083016020845280855180835260408601915060408160051b87010192506020870160005b828110156132f557603f198886030184526132e3858351612ecf565b945092850192908501906001016132c7565b5092979650505050505050565b6060808252845182820181905260009190608090818501906020808a01865b8381101561336457815180516001600160a01b03908116875284820151168487015260408082015190870152870151878601529385019390820190600101613321565b5050506001600160a01b0388166020870152509250613381915050565b8215156040830152949350505050565b6000602082840312156133a357600080fd5b5051919050565b634e487b7160e01b600052601160045260246000fd5b80820182811260008312801582168215821617156133e0576133e06133aa565b505092915050565b6000602082840312156133fa57600080fd5b815160ff8116811461027c57600080fd5b600082601f83011261341c57600080fd5b8151602061342c612c8383612bcf565b8083825260208201915060208460051b87010193508684111561344e57600080fd5b602086015b84811015612ccf57805161346681612bf2565b8352918301918301613453565b60006020828403121561348557600080fd5b81516001600160401b0381111561349b57600080fd5b6102ac8482850161340b565b634e487b7160e01b600052603260045260246000fd5b81810360008312801583831316838312821617156134dd576134dd6133aa565b5092915050565b6000602082840312156134f657600080fd5b815161027c8161319c565b600181811c9082168061351557607f821691505b60208210810361353557634e487b7160e01b600052602260045260246000fd5b50919050565b60006020828403121561354d57600080fd5b815161027c81612bf2565b60006060828403121561356a57600080fd5b604051606081018181106001600160401b038211171561358c5761358c612b61565b80604052508091508251815260208301516020820152604083015160408201525092915050565b600060208083850312156135c657600080fd5b82516001600160401b038111156135dc57600080fd5b8301601f810185136135ed57600080fd5b80516135fb612c8382612bcf565b80828252602082019150606060206060850286010193508884111561361f57600080fd5b6020850194505b83851015613647576136388986613558565b83529384019391850191613626565b50979650505050505050565b600082601f83011261366457600080fd5b81516020613674612c8383612bcf565b8083825260208201915060208460051b87010193508684111561369657600080fd5b602086015b84811015612ccf578051835291830191830161369b565b6000602082840312156136c457600080fd5b81516001600160401b038111156136da57600080fd5b6102ac84828501613653565b600060208083850312156136f957600080fd5b82516001600160401b0381111561370f57600080fd5b8301601f8101851361372057600080fd5b805161372e612c8382612bcf565b81815260079190911b8201830190838101908783111561374d57600080fd5b928401925b828410156137a4576080848903121561376b5760008081fd5b613773612b77565b8451815285850151868201526040808601519082015260608086015190820152825260809093019290840190613752565b979650505050505050565b6000606082840312156137c157600080fd5b61027c8383613558565b808201808211156102b0576102b06133aa565b818103818111156102b0576102b06133aa565b634e487b7160e01b600052602160045260246000fd5b6000600160ff1b820161381c5761381c6133aa565b5060000390565b60006080828403121561383557600080fd5b61027c8383612c0a565b6000806040838503121561385257600080fd5b82516001600160401b038082111561386957600080fd5b6138758683870161340b565b9350602085015191508082111561388b57600080fd5b50612d1685828601613653565b80820260008212600160ff1b841416156138b4576138b46133aa565b81810583148215176102b0576102b06133aa565b6000826138e557634e487b7160e01b600052601260045260246000fd5b600160ff1b8214600019841416156138ff576138ff6133aa565b50059056fea26469706673582212200dfdcbe24f2dc66da710e3d2a51bd7f04153da2dbfffda54b3b7d9b5eca20f0464736f6c63430008190033","linkReferences":{"src/process/OracleProcess.sol":{"OracleProcess":[{"start":860,"length":20},{"start":1839,"length":20},{"start":2475,"length":20},{"start":2979,"length":20},{"start":6991,"length":20},{"start":7233,"length":20},{"start":9864,"length":20}]},"src/storage/CommonData.sol":{"CommonData":[{"start":5009,"length":20},{"start":7977,"length":20},{"start":9019,"length":20}]},"src/storage/LpPool.sol":{"LpPool":[{"start":1324,"length":20},{"start":2208,"length":20},{"start":3459,"length":20},{"start":3816,"length":20},{"start":3942,"length":20},{"start":4074,"length":20},{"start":10402,"length":20}]},"src/storage/Market.sol":{"Market":[{"start":6416,"length":20}]},"src/storage/Symbol.sol":{"Symbol":[{"start":6538,"length":20}]},"src/storage/UsdPool.sol":{"UsdPool":[{"start":4759,"length":20},{"start":4891,"length":20},{"start":5246,"length":20},{"start":5542,"length":20},{"start":5670,"length":20},{"start":5795,"length":20},{"start":5995,"length":20},{"start":6146,"length":20},{"start":7718,"length":20},{"start":7850,"length":20},{"start":8214,"length":20},{"start":8497,"length":20},{"start":8625,"length":20},{"start":8852,"length":20},{"start":9423,"length":20}]},"src/utils/CalUtils.sol":{"CalUtils":[{"start":984,"length":20},{"start":1593,"length":20},{"start":2742,"length":20},{"start":3282,"length":20},{"start":3428,"length":20},{"start":6119,"length":20},{"start":7375,"length":20},{"start":9644,"length":20}]},"src/utils/TokenUtils.sol":{"TokenUtils":[{"start":1089,"length":20},{"start":1679,"length":20},{"start":2355,"length":20},{"start":2819,"length":20},{"start":7405,"length":20},{"start":9704,"length":20}]}}},"methodIdentifiers":{"getAllPools(OracleProcess.OracleParam[])":"c77b227f","getMarketUnPnl(bytes32,OracleProcess.OracleParam[],bool,address,bool)":"856b69ea","getPool(address,OracleProcess.OracleParam[])":"61c9c908","getPoolAvailableLiquidity(LpPool.Props storage)":"087edcb0","getPoolAvailableLiquidity(LpPool.Props storage,OracleProcess.OracleParam[])":"4cbf1831","getPoolIntValue(LpPool.Props storage)":"5e946666","getPoolIntValue(LpPool.Props storage,OracleProcess.OracleParam[])":"2d08a78c","getPoolValue(LpPool.Props storage)":"629a5892","getPoolValue(LpPool.Props storage,OracleProcess.OracleParam[])":"6c423e7e","getUsdPool()":"75d037d0","getUsdPoolAvailableLiquidity(UsdPool.Props storage,address)":"846cd1ae","getUsdPoolIntValue(UsdPool.Props storage)":"f93446b1","getUsdPoolIntValue(UsdPool.Props storage,OracleProcess.OracleParam[])":"ce6e72db","getUsdPoolValue(UsdPool.Props storage)":"216de24a","getUsdPoolValue(UsdPool.Props storage,OracleProcess.OracleParam[])":"0f5cb1a8","getUsdPoolWithOracle(OracleProcess.OracleParam[])":"a345a3b2"},"id":103}