{"abi":[{"type":"function","name":"ASSET_TOKENS","inputs":[],"outputs":[{"name":"","type":"bytes32","internalType":"bytes32"}],"stateMutability":"view"},{"type":"function","name":"BASE_INTEREST_RATE","inputs":[],"outputs":[{"name":"","type":"bytes32","internalType":"bytes32"}],"stateMutability":"view"},{"type":"function","name":"COLLATERAL_FACTOR","inputs":[],"outputs":[{"name":"","type":"bytes32","internalType":"bytes32"}],"stateMutability":"view"},{"type":"function","name":"COLLATERAL_PROTECT_FACTOR","inputs":[],"outputs":[{"name":"","type":"bytes32","internalType":"bytes32"}],"stateMutability":"view"},{"type":"function","name":"MAX_APR","inputs":[],"outputs":[{"name":"","type":"bytes32","internalType":"bytes32"}],"stateMutability":"view"},{"type":"function","name":"MINT_FEE_POOL_REWARDS_RATIO","inputs":[],"outputs":[{"name":"","type":"bytes32","internalType":"bytes32"}],"stateMutability":"view"},{"type":"function","name":"MINT_FEE_RATE","inputs":[],"outputs":[{"name":"","type":"bytes32","internalType":"bytes32"}],"stateMutability":"view"},{"type":"function","name":"MINT_FEE_STAKING_REWARDS_RATIO","inputs":[],"outputs":[{"name":"","type":"bytes32","internalType":"bytes32"}],"stateMutability":"view"},{"type":"function","name":"MIN_APR","inputs":[],"outputs":[{"name":"","type":"bytes32","internalType":"bytes32"}],"stateMutability":"view"},{"type":"function","name":"MIN_PRECISION_MULTIPLE","inputs":[],"outputs":[{"name":"","type":"bytes32","internalType":"bytes32"}],"stateMutability":"view"},{"type":"function","name":"POOL_LIQUIDITY_LIMIT","inputs":[],"outputs":[{"name":"","type":"bytes32","internalType":"bytes32"}],"stateMutability":"view"},{"type":"function","name":"POOL_PNL_RATIO_LIMIT","inputs":[],"outputs":[{"name":"","type":"bytes32","internalType":"bytes32"}],"stateMutability":"view"},{"type":"function","name":"POOL_REWARDS_INTERVAL_LIMIT","inputs":[],"outputs":[{"name":"","type":"bytes32","internalType":"bytes32"}],"stateMutability":"view"},{"type":"function","name":"POOL_STABLE_TOKEN_LOSS_LIMIT","inputs":[],"outputs":[{"name":"","type":"bytes32","internalType":"bytes32"}],"stateMutability":"view"},{"type":"function","name":"POOL_STABLE_TOKEN_RATIO_LIMIT","inputs":[],"outputs":[{"name":"","type":"bytes32","internalType":"bytes32"}],"stateMutability":"view"},{"type":"function","name":"REDEEM_FEE_POOL_REWARDS_RATIO","inputs":[],"outputs":[{"name":"","type":"bytes32","internalType":"bytes32"}],"stateMutability":"view"},{"type":"function","name":"REDEEM_FEE_RATE","inputs":[],"outputs":[{"name":"","type":"bytes32","internalType":"bytes32"}],"stateMutability":"view"},{"type":"function","name":"REDEEM_FEE_STAKING_REWARDS_RATIO","inputs":[],"outputs":[{"name":"","type":"bytes32","internalType":"bytes32"}],"stateMutability":"view"},{"type":"function","name":"STABLE_TOKENS_BORROWING_INTEREST_RATE","inputs":[],"outputs":[{"name":"","type":"bytes32","internalType":"bytes32"}],"stateMutability":"view"},{"type":"function","name":"SUPPORT_STABLE_TOKENS","inputs":[],"outputs":[{"name":"","type":"bytes32","internalType":"bytes32"}],"stateMutability":"view"},{"type":"function","name":"UNSETTLED_BASE_TOKEN_RATIO_LIMIT","inputs":[],"outputs":[{"name":"","type":"bytes32","internalType":"bytes32"}],"stateMutability":"view"},{"type":"function","name":"UNSETTLED_RATIO_LIMIT","inputs":[],"outputs":[{"name":"","type":"bytes32","internalType":"bytes32"}],"stateMutability":"view"},{"type":"function","name":"UNSETTLED_STABLE_TOKEN_RATIO_LIMIT","inputs":[],"outputs":[{"name":"","type":"bytes32","internalType":"bytes32"}],"stateMutability":"view"},{"type":"function","name":"getLpPoolConfig","inputs":[{"name":"stakeToken","type":"address","internalType":"address"}],"outputs":[{"name":"","type":"tuple","internalType":"struct AppPoolConfig.LpPoolConfig","components":[{"name":"baseInterestRate","type":"uint256","internalType":"uint256"},{"name":"poolLiquidityLimit","type":"uint256","internalType":"uint256"},{"name":"mintFeeRate","type":"uint256","internalType":"uint256"},{"name":"redeemFeeRate","type":"uint256","internalType":"uint256"},{"name":"poolPnlRatioLimit","type":"uint256","internalType":"uint256"},{"name":"unsettledBaseTokenRatioLimit","type":"uint256","internalType":"uint256"},{"name":"unsettledStableTokenRatioLimit","type":"uint256","internalType":"uint256"},{"name":"poolStableTokenRatioLimit","type":"uint256","internalType":"uint256"},{"name":"poolStableTokenLossLimit","type":"uint256","internalType":"uint256"},{"name":"assetTokens","type":"address[]","internalType":"address[]"}]}],"stateMutability":"view"},{"type":"function","name":"getStableTokenBorrowingInterestRate","inputs":[{"name":"stableToken","type":"address","internalType":"address"}],"outputs":[{"name":"","type":"uint256","internalType":"uint256"}],"stateMutability":"view"},{"type":"function","name":"getStakeConfig","inputs":[],"outputs":[{"name":"config","type":"tuple","internalType":"struct AppPoolConfig.StakeConfig","components":[{"name":"collateralProtectFactor","type":"uint256","internalType":"uint256"},{"name":"collateralFactor","type":"uint256","internalType":"uint256"},{"name":"minPrecisionMultiple","type":"uint256","internalType":"uint256"},{"name":"mintFeeStakingRewardsRatio","type":"uint256","internalType":"uint256"},{"name":"mintFeePoolRewardsRatio","type":"uint256","internalType":"uint256"},{"name":"redeemFeeStakingRewardsRatio","type":"uint256","internalType":"uint256"},{"name":"redeemFeePoolRewardsRatio","type":"uint256","internalType":"uint256"},{"name":"poolRewardsIntervalLimit","type":"uint256","internalType":"uint256"},{"name":"minApr","type":"uint256","internalType":"uint256"},{"name":"maxApr","type":"uint256","internalType":"uint256"}]}],"stateMutability":"view"},{"type":"function","name":"getUsdPoolConfig","inputs":[],"outputs":[{"name":"config","type":"tuple","internalType":"struct AppPoolConfig.UsdPoolConfig","components":[{"name":"poolLiquidityLimit","type":"uint256","internalType":"uint256"},{"name":"mintFeeRate","type":"uint256","internalType":"uint256"},{"name":"redeemFeeRate","type":"uint256","internalType":"uint256"},{"name":"unsettledRatioLimit","type":"uint256","internalType":"uint256"},{"name":"supportStableTokens","type":"address[]","internalType":"address[]"},{"name":"stableTokensBorrowingInterestRate","type":"uint256[]","internalType":"uint256[]"}]}],"stateMutability":"view"}],"bytecode":{"object":"0x61451e610039600b82828239805160001a607314602c57634e487b7160e01b600052600060045260246000fd5b30600052607381538281f3fe73000000000000000000000000000000000000000030146080604052600436106101e45760003560e01c80635c149b221161010e578063ad53cae0116100ac578063d3b052851161007b578063d3b052851461032e578063e1811c9114610336578063fe1d4ffc1461033e578063ff808751146103bf57600080fd5b8063ad53cae014610303578063aecf3a5f1461030b578063c0d0e4b914610313578063d24309ec1461032657600080fd5b80638777c9e5116100e85780638777c9e5146102cb5780638c4890d5146102d357806390c1ed0c146102db578063a2cc10b9146102fb57600080fd5b80635c149b22146102b357806373bb1b8e146102bb57806386d8f78d146102c357600080fd5b806338675d10116101865780634f42ce05116101555780634f42ce051461028657806355f3a4dc1461029b5780635ab0107f146102a35780635ac53c71146102ab57600080fd5b806338675d101461024e5780633daea25d1461025657806346f7863a1461027657806349e2919b1461027e57600080fd5b806324612c83116101c257806324612c831461021457806326519a941461021c578063357c489614610224578063378ea6331461024657600080fd5b8063028368a1146101e95780630d8cb2ff1461020457806317f49e051461020c575b600080fd5b6101f16103df565b6040519081526020015b60405180910390f35b6101f1610407565b6101f1610416565b6101f1610425565b6101f1610434565b81801561023057600080fd5b5061024461023f366004613a44565b610443565b005b6101f1610d4a565b6101f1610d59565b610269610264366004613ae3565b610d68565b6040516101fb9190613b45565b6101f1611765565b6101f1611774565b61028e611783565b6040516101fb9190613bd0565b6101f1611e37565b6101f1611e46565b6101f1611e55565b6101f1611e64565b6101f1611e73565b6101f1611e82565b6101f1611e91565b6101f1611ea0565b8180156102e757600080fd5b506102446102f6366004613cf1565b611eaf565b6101f16127de565b6101f16127ed565b6101f16127fc565b6101f1610321366004613ae3565b61280b565b6101f161297b565b6101f161298a565b6101f1612999565b6103466129a8565b6040516101fb9190600061014082019050825182526020830151602083015260408301516040830152606083015160608301526080830151608083015260a083015160a083015260c083015160c083015260e083015160e083015261010080840151818401525061012080840151818401525092915050565b8180156103cb57600080fd5b506102446103da366004613e31565b61338b565b6040516020016103ee90613eea565b6040516020818303038152906040528051906020012081565b6040516020016103ee90613f21565b6040516020016103ee90613f4d565b6040516020016103ee90613f78565b6040516020016103ee90613fa7565b600073__$819338afc672a9cefb034a8d5ff76e114d$__6386d5c4be6040518163ffffffff1660e01b8152600401602060405180830381865af415801561048e573d6000803e3d6000fd5b505050506040513d601f19601f820116820180604052508101906104b29190613fde565b905060006040516020016104e6906020808252600c908201526b5354414b455f434f4e46494760a01b604082015260600190565b6040516020818303038152906040528051906020012090508173__$819338afc672a9cefb034a8d5ff76e114d$__635e42ae1690918360405160200161052b90613ff7565b6040516020818303038152906040528051906020012060405160200161055b929190918252602082015260400190565b60408051808303601f19018152908290528051602090910120875160e085901b6001600160e01b031916835260048301939093526024820152604481019190915260640160006040518083038186803b1580156105b757600080fd5b505af41580156105cb573d6000803e3d6000fd5b505050508173__$819338afc672a9cefb034a8d5ff76e114d$__635e42ae169091836040516020016105fc90613f4d565b6040516020818303038152906040528051906020012060405160200161062c929190918252602082015260400190565b60408051601f19818403018152908290528051602091820120908801516001600160e01b031960e086901b16835260048301939093526024820152604481019190915260640160006040518083038186803b15801561068a57600080fd5b505af415801561069e573d6000803e3d6000fd5b505050508173__$819338afc672a9cefb034a8d5ff76e114d$__635e42ae169091836040516020016106cf9061402e565b604051602081830303815290604052805190602001206040516020016106ff929190918252602082015260400190565b60408051808303601f1901815282825280516020909101209088015160e085901b6001600160e01b031916835260048301939093526024820152604481019190915260640160006040518083038186803b15801561075c57600080fd5b505af4158015610770573d6000803e3d6000fd5b505050508173__$819338afc672a9cefb034a8d5ff76e114d$__635e42ae169091836040516020016107a19061405e565b604051602081830303815290604052805190602001206040516020016107d1929190918252602082015260400190565b60408051601f1981840301815290829052805160209091012060608801516001600160e01b031960e086901b16835260048301939093526024820152604481019190915260640160006040518083038186803b15801561083057600080fd5b505af4158015610844573d6000803e3d6000fd5b505050508173__$819338afc672a9cefb034a8d5ff76e114d$__635e42ae1690918360405160200161087590614095565b604051602081830303815290604052805190602001206040516020016108a5929190918252602082015260400190565b60408051601f1981840301815290829052805160209091012060808801516001600160e01b031960e086901b16835260048301939093526024820152604481019190915260640160006040518083038186803b15801561090457600080fd5b505af4158015610918573d6000803e3d6000fd5b505050508173__$819338afc672a9cefb034a8d5ff76e114d$__635e42ae16909183604051602001610949906140cc565b60405160208183030381529060405280519060200120604051602001610979929190918252602082015260400190565b60408051601f1981840301815290829052805160209091012060a08801516001600160e01b031960e086901b16835260048301939093526024820152604481019190915260640160006040518083038186803b1580156109d857600080fd5b505af41580156109ec573d6000803e3d6000fd5b505050508173__$819338afc672a9cefb034a8d5ff76e114d$__635e42ae16909183604051602001610a1d90613eea565b60405160208183030381529060405280519060200120604051602001610a4d929190918252602082015260400190565b60408051601f1981840301815290829052805160209091012060c08801516001600160e01b031960e086901b16835260048301939093526024820152604481019190915260640160006040518083038186803b158015610aac57600080fd5b505af4158015610ac0573d6000803e3d6000fd5b505050508173__$819338afc672a9cefb034a8d5ff76e114d$__635e42ae16909183604051602001610af190614101565b60405160208183030381529060405280519060200120604051602001610b21929190918252602082015260400190565b604051602081830303815290604052805190602001208660e001516040518463ffffffff1660e01b8152600401610b6b939291909283526020830191909152604082015260600190565b60006040518083038186803b158015610b8357600080fd5b505af4158015610b97573d6000803e3d6000fd5b505050508173__$819338afc672a9cefb034a8d5ff76e114d$__635e42ae16909183604051602001610bc890614138565b60405160208183030381529060405280519060200120604051602001610bf8929190918252602082015260400190565b60408051601f198184030181529082905280516020909101206101008801516001600160e01b031960e086901b16835260048301939093526024820152604481019190915260640160006040518083038186803b158015610c5857600080fd5b505af4158015610c6c573d6000803e3d6000fd5b505050508173__$819338afc672a9cefb034a8d5ff76e114d$__635e42ae16909183604051602001610c9d90614159565b60405160208183030381529060405280519060200120604051602001610ccd929190918252602082015260400190565b60408051601f198184030181529082905280516020909101206101208801516001600160e01b031960e086901b16835260048301939093526024820152604481019190915260640160006040518083038186803b158015610d2d57600080fd5b505af4158015610d41573d6000803e3d6000fd5b50505050505050565b6040516020016103ee9061417a565b6040516020016103ee906141a3565b610d7061395d565b610d7861395d565b600073__$819338afc672a9cefb034a8d5ff76e114d$__6386d5c4be6040518163ffffffff1660e01b8152600401602060405180830381865af4158015610dc3573d6000803e3d6000fd5b505050506040513d601f19601f82011682018060405250810190610de79190613fde565b90506000604051602001610e1d906020808252600e908201526d4c505f504f4f4c5f434f4e46494760901b604082015260600190565b60408051808303601f19018152908290528051602090910120632f6e7e7960e01b825260048201849052602482018190526001600160a01b0387166044830152915073__$819338afc672a9cefb034a8d5ff76e114d$__90632f6e7e7990606401602060405180830381865af4158015610e9b573d6000803e3d6000fd5b505050506040513d601f19601f82011682018060405250810190610ebf91906141e5565b610ecc5750909392505050565b8173__$819338afc672a9cefb034a8d5ff76e114d$__638b77644790918388604051602001610efa90613f21565b60405160208183030381529060405280519060200120604051602001610f2293929190614207565b604051602081830303815290604052805190602001206040518363ffffffff1660e01b8152600401610f5e929190918252602082015260400190565b602060405180830381865af4158015610f7b573d6000803e3d6000fd5b505050506040513d601f19601f82011682018060405250810190610f9f9190613fde565b835260405173__$819338afc672a9cefb034a8d5ff76e114d$__90638b77644790849084908990610fd290602001614226565b60405160208183030381529060405280519060200120604051602001610ffa93929190614207565b604051602081830303815290604052805190602001206040518363ffffffff1660e01b8152600401611036929190918252602082015260400190565b602060405180830381865af4158015611053573d6000803e3d6000fd5b505050506040513d601f19601f820116820180604052508101906110779190613fde565b8360200181815250508173__$819338afc672a9cefb034a8d5ff76e114d$__638b776447909183886040516020016110ae90614254565b604051602081830303815290604052805190602001206040516020016110d693929190614207565b604051602081830303815290604052805190602001206040518363ffffffff1660e01b8152600401611112929190918252602082015260400190565b602060405180830381865af415801561112f573d6000803e3d6000fd5b505050506040513d601f19601f820116820180604052508101906111539190613fde565b8360400181815250508173__$819338afc672a9cefb034a8d5ff76e114d$__638b7764479091838860405160200161118a9061417a565b604051602081830303815290604052805190602001206040516020016111b293929190614207565b604051602081830303815290604052805190602001206040518363ffffffff1660e01b81526004016111ee929190918252602082015260400190565b602060405180830381865af415801561120b573d6000803e3d6000fd5b505050506040513d601f19601f8201168201806040525081019061122f9190613fde565b606084015260405173__$819338afc672a9cefb034a8d5ff76e114d$__90638b776447908490849089906112659060200161427b565b6040516020818303038152906040528051906020012060405160200161128d93929190614207565b604051602081830303815290604052805190602001206040518363ffffffff1660e01b81526004016112c9929190918252602082015260400190565b602060405180830381865af41580156112e6573d6000803e3d6000fd5b505050506040513d601f19601f8201168201806040525081019061130a9190613fde565b608084015260405173__$819338afc672a9cefb034a8d5ff76e114d$__90638b77644790849084908990611340906020016142a9565b6040516020818303038152906040528051906020012060405160200161136893929190614207565b604051602081830303815290604052805190602001206040518363ffffffff1660e01b81526004016113a4929190918252602082015260400190565b602060405180830381865af41580156113c1573d6000803e3d6000fd5b505050506040513d601f19601f820116820180604052508101906113e59190613fde565b60a084015260405173__$819338afc672a9cefb034a8d5ff76e114d$__90638b7764479084908490899061141b906020016141a3565b6040516020818303038152906040528051906020012060405160200161144393929190614207565b604051602081830303815290604052805190602001206040518363ffffffff1660e01b815260040161147f929190918252602082015260400190565b602060405180830381865af415801561149c573d6000803e3d6000fd5b505050506040513d601f19601f820116820180604052508101906114c09190613fde565b60c084015260405173__$819338afc672a9cefb034a8d5ff76e114d$__90638b776447908490849089906114f690602001613fa7565b6040516020818303038152906040528051906020012060405160200161151e93929190614207565b604051602081830303815290604052805190602001206040518363ffffffff1660e01b815260040161155a929190918252602082015260400190565b602060405180830381865af4158015611577573d6000803e3d6000fd5b505050506040513d601f19601f8201168201806040525081019061159b9190613fde565b60e084015260405173__$819338afc672a9cefb034a8d5ff76e114d$__90638b776447908490849089906115d1906020016142de565b604051602081830303815290604052805190602001206040516020016115f993929190614207565b604051602081830303815290604052805190602001206040518363ffffffff1660e01b8152600401611635929190918252602082015260400190565b602060405180830381865af4158015611652573d6000803e3d6000fd5b505050506040513d601f19601f820116820180604052508101906116769190613fde565b61010084015260405173__$819338afc672a9cefb034a8d5ff76e114d$__9063f22e161d908490849089906116ad90602001614315565b604051602081830303815290604052805190602001206040516020016116d593929190614207565b604051602081830303815290604052805190602001206040518363ffffffff1660e01b8152600401611711929190918252602082015260400190565b600060405180830381865af415801561172e573d6000803e3d6000fd5b505050506040513d6000823e601f3d908101601f19168201604052611756919081019061433b565b61012084015250909392505050565b6040516020016103ee90614315565b6040516020016103ee906140cc565b6117bc6040518060c001604052806000815260200160008152602001600081526020016000815260200160608152602001606081525090565b600073__$819338afc672a9cefb034a8d5ff76e114d$__6386d5c4be6040518163ffffffff1660e01b8152600401602060405180830381865af4158015611807573d6000803e3d6000fd5b505050506040513d601f19601f8201168201806040525081019061182b9190613fde565b9050600060405160200161183e906143d5565b6040516020818303038152906040528051906020012090508173__$819338afc672a9cefb034a8d5ff76e114d$__638b77644790918360405160200161188390614226565b604051602081830303815290604052805190602001206040516020016118b3929190918252602082015260400190565b604051602081830303815290604052805190602001206040518363ffffffff1660e01b81526004016118ef929190918252602082015260400190565b602060405180830381865af415801561190c573d6000803e3d6000fd5b505050506040513d601f19601f820116820180604052508101906119309190613fde565b835260405173__$819338afc672a9cefb034a8d5ff76e114d$__90638b776447908490849061196190602001614254565b60405160208183030381529060405280519060200120604051602001611991929190918252602082015260400190565b604051602081830303815290604052805190602001206040518363ffffffff1660e01b81526004016119cd929190918252602082015260400190565b602060405180830381865af41580156119ea573d6000803e3d6000fd5b505050506040513d601f19601f82011682018060405250810190611a0e9190613fde565b8360200181815250508173__$819338afc672a9cefb034a8d5ff76e114d$__638b776447909183604051602001611a449061417a565b60405160208183030381529060405280519060200120604051602001611a74929190918252602082015260400190565b604051602081830303815290604052805190602001206040518363ffffffff1660e01b8152600401611ab0929190918252602082015260400190565b602060405180830381865af4158015611acd573d6000803e3d6000fd5b505050506040513d601f19601f82011682018060405250810190611af19190613fde565b8360400181815250508173__$819338afc672a9cefb034a8d5ff76e114d$__638b776447909183604051602001611b2790613f78565b60405160208183030381529060405280519060200120604051602001611b57929190918252602082015260400190565b604051602081830303815290604052805190602001206040518363ffffffff1660e01b8152600401611b93929190918252602082015260400190565b602060405180830381865af4158015611bb0573d6000803e3d6000fd5b505050506040513d601f19601f82011682018060405250810190611bd49190613fde565b606084015260405173__$819338afc672a9cefb034a8d5ff76e114d$__9063f22e161d9084908490611c08906020016143fe565b60405160208183030381529060405280519060200120604051602001611c38929190918252602082015260400190565b604051602081830303815290604052805190602001206040518363ffffffff1660e01b8152600401611c74929190918252602082015260400190565b600060405180830381865af4158015611c91573d6000803e3d6000fd5b505050506040513d6000823e601f3d908101601f19168201604052611cb9919081019061433b565b608084018190525167ffffffffffffffff811115611cd957611cd96139b0565b604051908082528060200260200182016040528015611d02578160200160208202803683370190505b5060a084015260005b836080015151811015611e31578273__$819338afc672a9cefb034a8d5ff76e114d$__638b77644790918487608001518581518110611d4c57611d4c61442d565b6020026020010151604051602001611d6390614443565b60405160208183030381529060405280519060200120604051602001611d8b93929190614207565b604051602081830303815290604052805190602001206040518363ffffffff1660e01b8152600401611dc7929190918252602082015260400190565b602060405180830381865af4158015611de4573d6000803e3d6000fd5b505050506040513d601f19601f82011682018060405250810190611e089190613fde565b8460a001518281518110611e1e57611e1e61442d565b6020908102919091010152600101611d0b565b50505090565b6040516020016103ee9061405e565b6040516020016103ee90614095565b6040516020016103ee906142a9565b6040516020016103ee90614226565b6040516020016103ee90614443565b6040516020016103ee90614159565b6040516020016103ee9061427b565b6040516020016103ee90614254565b600073__$819338afc672a9cefb034a8d5ff76e114d$__6386d5c4be6040518163ffffffff1660e01b8152600401602060405180830381865af4158015611efa573d6000803e3d6000fd5b505050506040513d601f19601f82011682018060405250810190611f1e9190613fde565b90506000604051602001611f54906020808252600e908201526d4c505f504f4f4c5f434f4e46494760901b604082015260600190565b60408051808303601f19018152908290528051602090910120636c75c7ef60e01b825260048201849052602482018190526001600160a01b0386166044830152915073__$819338afc672a9cefb034a8d5ff76e114d$__90636c75c7ef9060640160006040518083038186803b158015611fcd57600080fd5b505af4158015611fe1573d6000803e3d6000fd5b505050508173__$819338afc672a9cefb034a8d5ff76e114d$__635e42ae169091838760405160200161201390613f21565b6040516020818303038152906040528051906020012060405160200161203b93929190614207565b60408051808303601f19018152908290528051602090910120875160e085901b6001600160e01b031916835260048301939093526024820152604481019190915260640160006040518083038186803b15801561209757600080fd5b505af41580156120ab573d6000803e3d6000fd5b505050508173__$819338afc672a9cefb034a8d5ff76e114d$__635e42ae16909183876040516020016120dd90614226565b6040516020818303038152906040528051906020012060405160200161210593929190614207565b60408051601f19818403018152908290528051602091820120908801516001600160e01b031960e086901b16835260048301939093526024820152604481019190915260640160006040518083038186803b15801561216357600080fd5b505af4158015612177573d6000803e3d6000fd5b505050508173__$819338afc672a9cefb034a8d5ff76e114d$__635e42ae16909183876040516020016121a990614254565b604051602081830303815290604052805190602001206040516020016121d193929190614207565b60408051808303601f1901815282825280516020909101209088015160e085901b6001600160e01b031916835260048301939093526024820152604481019190915260640160006040518083038186803b15801561222e57600080fd5b505af4158015612242573d6000803e3d6000fd5b505050508173__$819338afc672a9cefb034a8d5ff76e114d$__635e42ae16909183876040516020016122749061417a565b6040516020818303038152906040528051906020012060405160200161229c93929190614207565b60408051601f1981840301815290829052805160209091012060608801516001600160e01b031960e086901b16835260048301939093526024820152604481019190915260640160006040518083038186803b1580156122fb57600080fd5b505af415801561230f573d6000803e3d6000fd5b505050508173__$819338afc672a9cefb034a8d5ff76e114d$__635e42ae16909183876040516020016123419061427b565b6040516020818303038152906040528051906020012060405160200161236993929190614207565b60408051601f1981840301815290829052805160209091012060808801516001600160e01b031960e086901b16835260048301939093526024820152604481019190915260640160006040518083038186803b1580156123c857600080fd5b505af41580156123dc573d6000803e3d6000fd5b505050508173__$819338afc672a9cefb034a8d5ff76e114d$__635e42ae169091838760405160200161240e906142a9565b6040516020818303038152906040528051906020012060405160200161243693929190614207565b60408051601f1981840301815290829052805160209091012060a08801516001600160e01b031960e086901b16835260048301939093526024820152604481019190915260640160006040518083038186803b15801561249557600080fd5b505af41580156124a9573d6000803e3d6000fd5b505050508173__$819338afc672a9cefb034a8d5ff76e114d$__635e42ae16909183876040516020016124db906141a3565b6040516020818303038152906040528051906020012060405160200161250393929190614207565b60408051601f1981840301815290829052805160209091012060c08801516001600160e01b031960e086901b16835260048301939093526024820152604481019190915260640160006040518083038186803b15801561256257600080fd5b505af4158015612576573d6000803e3d6000fd5b505050508173__$819338afc672a9cefb034a8d5ff76e114d$__635e42ae16909183876040516020016125a890613fa7565b604051602081830303815290604052805190602001206040516020016125d093929190614207565b604051602081830303815290604052805190602001208660e001516040518463ffffffff1660e01b815260040161261a939291909283526020830191909152604082015260600190565b60006040518083038186803b15801561263257600080fd5b505af4158015612646573d6000803e3d6000fd5b505050508173__$819338afc672a9cefb034a8d5ff76e114d$__635e42ae1690918387604051602001612678906142de565b604051602081830303815290604052805190602001206040516020016126a093929190614207565b60408051601f198184030181529082905280516020909101206101008801516001600160e01b031960e086901b16835260048301939093526024820152604481019190915260640160006040518083038186803b15801561270057600080fd5b505af4158015612714573d6000803e3d6000fd5b505050508173__$819338afc672a9cefb034a8d5ff76e114d$__6385df2a949091838760405160200161274690614315565b6040516020818303038152906040528051906020012060405160200161276e93929190614207565b604051602081830303815290604052805190602001208661012001516040518463ffffffff1660e01b81526004016127a893929190614488565b60006040518083038186803b1580156127c057600080fd5b505af41580156127d4573d6000803e3d6000fd5b5050505050505050565b6040516020016103ee90614101565b6040516020016103ee90614138565b6040516020016103ee90613ff7565b60008073__$819338afc672a9cefb034a8d5ff76e114d$__6386d5c4be6040518163ffffffff1660e01b8152600401602060405180830381865af4158015612857573d6000803e3d6000fd5b505050506040513d601f19601f8201168201806040525081019061287b9190613fde565b90508073__$819338afc672a9cefb034a8d5ff76e114d$__638b77644790916040516020016128a9906143d5565b60405160208183030381529060405280519060200120866040516020016128cf90614443565b604051602081830303815290604052805190602001206040516020016128f793929190614207565b604051602081830303815290604052805190602001206040518363ffffffff1660e01b8152600401612933929190918252602082015260400190565b602060405180830381865af4158015612950573d6000803e3d6000fd5b505050506040513d601f19601f820116820180604052508101906129749190613fde565b9392505050565b6040516020016103ee906143fe565b6040516020016103ee9061402e565b6040516020016103ee906142de565b6129fe604051806101400160405280600081526020016000815260200160008152602001600081526020016000815260200160008152602001600081526020016000815260200160008152602001600081525090565b600073__$819338afc672a9cefb034a8d5ff76e114d$__6386d5c4be6040518163ffffffff1660e01b8152600401602060405180830381865af4158015612a49573d6000803e3d6000fd5b505050506040513d601f19601f82011682018060405250810190612a6d9190613fde565b90506000604051602001612aa1906020808252600c908201526b5354414b455f434f4e46494760a01b604082015260600190565b6040516020818303038152906040528051906020012090508173__$819338afc672a9cefb034a8d5ff76e114d$__638b776447909183604051602001612ae690613ff7565b60405160208183030381529060405280519060200120604051602001612b16929190918252602082015260400190565b604051602081830303815290604052805190602001206040518363ffffffff1660e01b8152600401612b52929190918252602082015260400190565b602060405180830381865af4158015612b6f573d6000803e3d6000fd5b505050506040513d601f19601f82011682018060405250810190612b939190613fde565b835260405173__$819338afc672a9cefb034a8d5ff76e114d$__90638b7764479084908490612bc490602001613f4d565b60405160208183030381529060405280519060200120604051602001612bf4929190918252602082015260400190565b604051602081830303815290604052805190602001206040518363ffffffff1660e01b8152600401612c30929190918252602082015260400190565b602060405180830381865af4158015612c4d573d6000803e3d6000fd5b505050506040513d601f19601f82011682018060405250810190612c719190613fde565b8360200181815250508173__$819338afc672a9cefb034a8d5ff76e114d$__638b776447909183604051602001612ca79061402e565b60405160208183030381529060405280519060200120604051602001612cd7929190918252602082015260400190565b604051602081830303815290604052805190602001206040518363ffffffff1660e01b8152600401612d13929190918252602082015260400190565b602060405180830381865af4158015612d30573d6000803e3d6000fd5b505050506040513d601f19601f82011682018060405250810190612d549190613fde565b8360400181815250508173__$819338afc672a9cefb034a8d5ff76e114d$__638b776447909183604051602001612d8a9061405e565b60405160208183030381529060405280519060200120604051602001612dba929190918252602082015260400190565b604051602081830303815290604052805190602001206040518363ffffffff1660e01b8152600401612df6929190918252602082015260400190565b602060405180830381865af4158015612e13573d6000803e3d6000fd5b505050506040513d601f19601f82011682018060405250810190612e379190613fde565b606084015260405173__$819338afc672a9cefb034a8d5ff76e114d$__90638b7764479084908490612e6b90602001614095565b60405160208183030381529060405280519060200120604051602001612e9b929190918252602082015260400190565b604051602081830303815290604052805190602001206040518363ffffffff1660e01b8152600401612ed7929190918252602082015260400190565b602060405180830381865af4158015612ef4573d6000803e3d6000fd5b505050506040513d601f19601f82011682018060405250810190612f189190613fde565b608084015260405173__$819338afc672a9cefb034a8d5ff76e114d$__90638b7764479084908490612f4c906020016140cc565b60405160208183030381529060405280519060200120604051602001612f7c929190918252602082015260400190565b604051602081830303815290604052805190602001206040518363ffffffff1660e01b8152600401612fb8929190918252602082015260400190565b602060405180830381865af4158015612fd5573d6000803e3d6000fd5b505050506040513d601f19601f82011682018060405250810190612ff99190613fde565b60a084015260405173__$819338afc672a9cefb034a8d5ff76e114d$__90638b776447908490849061302d90602001613eea565b6040516020818303038152906040528051906020012060405160200161305d929190918252602082015260400190565b604051602081830303815290604052805190602001206040518363ffffffff1660e01b8152600401613099929190918252602082015260400190565b602060405180830381865af41580156130b6573d6000803e3d6000fd5b505050506040513d601f19601f820116820180604052508101906130da9190613fde565b60c084015260405173__$819338afc672a9cefb034a8d5ff76e114d$__90638b776447908490849061310e90602001614101565b6040516020818303038152906040528051906020012060405160200161313e929190918252602082015260400190565b604051602081830303815290604052805190602001206040518363ffffffff1660e01b815260040161317a929190918252602082015260400190565b602060405180830381865af4158015613197573d6000803e3d6000fd5b505050506040513d601f19601f820116820180604052508101906131bb9190613fde565b60e084015260405173__$819338afc672a9cefb034a8d5ff76e114d$__90638b77644790849084906131ef90602001614138565b6040516020818303038152906040528051906020012060405160200161321f929190918252602082015260400190565b604051602081830303815290604052805190602001206040518363ffffffff1660e01b815260040161325b929190918252602082015260400190565b602060405180830381865af4158015613278573d6000803e3d6000fd5b505050506040513d601f19601f8201168201806040525081019061329c9190613fde565b61010084015260405173__$819338afc672a9cefb034a8d5ff76e114d$__90638b77644790849084906132d190602001614159565b60405160208183030381529060405280519060200120604051602001613301929190918252602082015260400190565b604051602081830303815290604052805190602001206040518363ffffffff1660e01b815260040161333d929190918252602082015260400190565b602060405180830381865af415801561335a573d6000803e3d6000fd5b505050506040513d601f19601f8201168201806040525081019061337e9190613fde565b6101208401525090919050565b600073__$819338afc672a9cefb034a8d5ff76e114d$__6386d5c4be6040518163ffffffff1660e01b8152600401602060405180830381865af41580156133d6573d6000803e3d6000fd5b505050506040513d601f19601f820116820180604052508101906133fa9190613fde565b9050600060405160200161340d906143d5565b6040516020818303038152906040528051906020012090508173__$819338afc672a9cefb034a8d5ff76e114d$__635e42ae1690918360405160200161345290614226565b60405160208183030381529060405280519060200120604051602001613482929190918252602082015260400190565b60408051808303601f19018152908290528051602090910120875160e085901b6001600160e01b031916835260048301939093526024820152604481019190915260640160006040518083038186803b1580156134de57600080fd5b505af41580156134f2573d6000803e3d6000fd5b505050508173__$819338afc672a9cefb034a8d5ff76e114d$__635e42ae1690918360405160200161352390614254565b60405160208183030381529060405280519060200120604051602001613553929190918252602082015260400190565b60408051601f19818403018152908290528051602091820120908801516001600160e01b031960e086901b16835260048301939093526024820152604481019190915260640160006040518083038186803b1580156135b157600080fd5b505af41580156135c5573d6000803e3d6000fd5b505050508173__$819338afc672a9cefb034a8d5ff76e114d$__635e42ae169091836040516020016135f69061417a565b60405160208183030381529060405280519060200120604051602001613626929190918252602082015260400190565b60408051808303601f1901815282825280516020909101209088015160e085901b6001600160e01b031916835260048301939093526024820152604481019190915260640160006040518083038186803b15801561368357600080fd5b505af4158015613697573d6000803e3d6000fd5b505050508173__$819338afc672a9cefb034a8d5ff76e114d$__635e42ae169091836040516020016136c890613f78565b604051602081830303815290604052805190602001206040516020016136f8929190918252602082015260400190565b60408051601f1981840301815290829052805160209091012060608801516001600160e01b031960e086901b16835260048301939093526024820152604481019190915260640160006040518083038186803b15801561375757600080fd5b505af415801561376b573d6000803e3d6000fd5b505050508173__$819338afc672a9cefb034a8d5ff76e114d$__6385df2a9490918360405160200161379c906143fe565b604051602081830303815290604052805190602001206040516020016137cc929190918252602082015260400190565b6040516020818303038152906040528051906020012086608001516040518463ffffffff1660e01b815260040161380593929190614488565b60006040518083038186803b15801561381d57600080fd5b505af4158015613831573d6000803e3d6000fd5b5050505060005b836080015151811015613957578273__$819338afc672a9cefb034a8d5ff76e114d$__635e42ae16909184876080015185815181106138795761387961442d565b602002602001015160405160200161389090614443565b604051602081830303815290604052805190602001206040516020016138b893929190614207565b604051602081830303815290604052805190602001208760a0015185815181106138e4576138e461442d565b60200260200101516040518463ffffffff1660e01b815260040161391b939291909283526020830191909152604082015260600190565b60006040518083038186803b15801561393357600080fd5b505af4158015613947573d6000803e3d6000fd5b5050600190920191506138389050565b50505050565b604051806101400160405280600081526020016000815260200160008152602001600081526020016000815260200160008152602001600081526020016000815260200160008152602001606081525090565b634e487b7160e01b600052604160045260246000fd5b604051610140810167ffffffffffffffff811182821017156139ea576139ea6139b0565b60405290565b60405160c0810167ffffffffffffffff811182821017156139ea576139ea6139b0565b604051601f8201601f1916810167ffffffffffffffff81118282101715613a3c57613a3c6139b0565b604052919050565b60006101408284031215613a5757600080fd5b613a5f6139c6565b823581526020830135602082015260408301356040820152606083013560608201526080830135608082015260a083013560a082015260c083013560c082015260e083013560e08201526101008084013581830152506101208084013581830152508091505092915050565b6001600160a01b0381168114613ae057600080fd5b50565b600060208284031215613af557600080fd5b813561297481613acb565b60008151808452602080850194506020840160005b83811015613b3a5781516001600160a01b031687529582019590820190600101613b15565b509495945050505050565b6020815281516020820152602082015160408201526040820151606082015260608201516080820152608082015160a082015260a082015160c082015260c082015160e0820152600060e0830151610100818185015280850151915050610120818185015280850151915050610140808185015250613bc8610160840182613b00565b949350505050565b600060208083528351818401528084015160408401526040840151606084015260608401516080840152608084015160c060a0850152613c1360e0850182613b00565b60a0860151858203601f190160c0870152805180835290840192506000918401905b80831015613c555783518252928401926001929092019190840190613c35565b509695505050505050565b600067ffffffffffffffff821115613c7a57613c7a6139b0565b5060051b60200190565b600082601f830112613c9557600080fd5b81356020613caa613ca583613c60565b613a13565b8083825260208201915060208460051b870101935086841115613ccc57600080fd5b602086015b84811015613c55578035613ce481613acb565b8352918301918301613cd1565b60008060408385031215613d0457600080fd5b8235613d0f81613acb565b9150602083013567ffffffffffffffff80821115613d2c57600080fd5b908401906101408287031215613d4157600080fd5b613d496139c6565b823581526020830135602082015260408301356040820152606083013560608201526080830135608082015260a083013560a082015260c083013560c082015260e083013560e08201526101008084013581830152506101208084013583811115613db357600080fd5b613dbf89828701613c84565b8284015250508093505050509250929050565b600082601f830112613de357600080fd5b81356020613df3613ca583613c60565b8083825260208201915060208460051b870101935086841115613e1557600080fd5b602086015b84811015613c555780358352918301918301613e1a565b600060208284031215613e4357600080fd5b813567ffffffffffffffff80821115613e5b57600080fd5b9083019060c08286031215613e6f57600080fd5b613e776139f0565b82358152602083013560208201526040830135604082015260608301356060820152608083013582811115613eab57600080fd5b613eb787828601613c84565b60808301525060a083013582811115613ecf57600080fd5b613edb87828601613dd2565b60a08301525095945050505050565b6020808252601d908201527f52454445454d5f4645455f504f4f4c5f524557415244535f524154494f000000604082015260600190565b602080825260129082015271424153455f494e5445524553545f5241544560701b604082015260600190565b60208082526011908201527021a7a62620aa22a920a62fa320a1aa27a960791b604082015260600190565b602080825260159082015274155394d1551513115117d490551253d7d312535255605a1b604082015260600190565b6020808252601d908201527f504f4f4c5f535441424c455f544f4b454e5f524154494f5f4c494d4954000000604082015260600190565b600060208284031215613ff057600080fd5b5051919050565b60208082526019908201527f434f4c4c41544552414c5f50524f544543545f464143544f5200000000000000604082015260600190565b6020808252601690820152754d494e5f505245434953494f4e5f4d554c5449504c4560501b604082015260600190565b6020808252601e908201527f4d494e545f4645455f5354414b494e475f524557415244535f524154494f0000604082015260600190565b6020808252601b908201527f4d494e545f4645455f504f4f4c5f524557415244535f524154494f0000000000604082015260600190565b6020808252818101527f52454445454d5f4645455f5354414b494e475f524557415244535f524154494f604082015260600190565b6020808252601b908201527f504f4f4c5f524557415244535f494e54455256414c5f4c494d49540000000000604082015260600190565b60208082526007908201526626a4a72fa0a82960c91b604082015260600190565b60208082526007908201526626a0ac2fa0a82960c91b604082015260600190565b6020808252600f908201526e52454445454d5f4645455f5241544560881b604082015260600190565b60208082526022908201527f554e534554544c45445f535441424c455f544f4b454e5f524154494f5f4c494d604082015261125560f21b606082015260800190565b6000602082840312156141f757600080fd5b8151801515811461297457600080fd5b9283526001600160a01b03919091166020830152604082015260600190565b6020808252601490820152731413d3d317d3125455525112551657d31253525560621b604082015260600190565b6020808252600d908201526c4d494e545f4645455f5241544560981b604082015260600190565b6020808252601490820152731413d3d317d4139317d490551253d7d31253525560621b604082015260600190565b6020808252818101527f554e534554544c45445f424153455f544f4b454e5f524154494f5f4c494d4954604082015260600190565b6020808252601c908201527f504f4f4c5f535441424c455f544f4b454e5f4c4f53535f4c494d495400000000604082015260600190565b6020808252600c908201526b41535345545f544f4b454e5360a01b604082015260600190565b6000602080838503121561434e57600080fd5b825167ffffffffffffffff81111561436557600080fd5b8301601f8101851361437657600080fd5b8051614384613ca582613c60565b81815260059190911b820183019083810190878311156143a357600080fd5b928401925b828410156143ca5783516143bb81613acb565b825292840192908401906143a8565b979650505050505050565b6020808252600f908201526e5553445f504f4f4c5f434f4e46494760881b604082015260600190565b602080825260159082015274535550504f52545f535441424c455f544f4b454e5360581b604082015260600190565b634e487b7160e01b600052603260045260246000fd5b60208082526025908201527f535441424c455f544f4b454e535f424f52524f57494e475f494e5445524553546040820152645f5241544560d81b606082015260800190565b60006060820185835260208560208501526060604085015281855180845260808601915060208701935060005b818110156144da5784516001600160a01b0316835293830193918301916001016144b5565b50909897505050505050505056fea2646970667358221220b5c34b3d4f24e963915d38118b404d8b149d7ea7e26e59ca76feb0e40650b51864736f6c63430008190033","linkReferences":{"src/storage/AppStorage.sol":{"AppStorage":[{"start":1152,"length":20},{"start":1338,"length":20},{"start":1547,"length":20},{"start":1758,"length":20},{"start":1968,"length":20},{"start":2180,"length":20},{"start":2392,"length":20},{"start":2604,"length":20},{"start":2816,"length":20},{"start":3031,"length":20},{"start":3244,"length":20},{"start":3509,"length":20},{"start":3738,"length":20},{"start":3848,"length":20},{"start":4063,"length":20},{"start":4284,"length":20},{"start":4504,"length":20},{"start":4722,"length":20},{"start":4941,"length":20},{"start":5160,"length":20},{"start":5379,"length":20},{"start":5598,"length":20},{"start":5818,"length":20},{"start":6137,"length":20},{"start":6290,"length":20},{"start":6512,"length":20},{"start":6739,"length":20},{"start":6966,"length":20},{"start":7191,"length":20},{"start":7508,"length":20},{"start":7916,"length":20},{"start":8145,"length":20},{"start":8225,"length":20},{"start":8427,"length":20},{"start":8631,"length":20},{"start":8834,"length":20},{"start":9039,"length":20},{"start":9244,"length":20},{"start":9449,"length":20},{"start":9654,"length":20},{"start":9862,"length":20},{"start":10068,"length":20},{"start":10313,"length":20},{"start":10425,"length":20},{"start":10811,"length":20},{"start":10997,"length":20},{"start":11219,"length":20},{"start":11446,"length":20},{"start":11673,"length":20},{"start":11898,"length":20},{"start":12123,"length":20},{"start":12348,"length":20},{"start":12573,"length":20},{"start":12798,"length":20},{"start":13024,"length":20},{"start":13256,"length":20},{"start":13409,"length":20},{"start":13618,"length":20},{"start":13829,"length":20},{"start":14039,"length":20},{"start":14251,"length":20},{"start":14465,"length":20}]}}},"methodIdentifiers":{"ASSET_TOKENS()":"46f7863a","BASE_INTEREST_RATE()":"0d8cb2ff","COLLATERAL_FACTOR()":"17f49e05","COLLATERAL_PROTECT_FACTOR()":"aecf3a5f","MAX_APR()":"86d8f78d","MINT_FEE_POOL_REWARDS_RATIO()":"5ab0107f","MINT_FEE_RATE()":"8c4890d5","MINT_FEE_STAKING_REWARDS_RATIO()":"55f3a4dc","MIN_APR()":"ad53cae0","MIN_PRECISION_MULTIPLE()":"d3b05285","POOL_LIQUIDITY_LIMIT()":"5c149b22","POOL_PNL_RATIO_LIMIT()":"8777c9e5","POOL_REWARDS_INTERVAL_LIMIT()":"a2cc10b9","POOL_STABLE_TOKEN_LOSS_LIMIT()":"e1811c91","POOL_STABLE_TOKEN_RATIO_LIMIT()":"26519a94","REDEEM_FEE_POOL_REWARDS_RATIO()":"028368a1","REDEEM_FEE_RATE()":"378ea633","REDEEM_FEE_STAKING_REWARDS_RATIO()":"49e2919b","STABLE_TOKENS_BORROWING_INTEREST_RATE()":"73bb1b8e","SUPPORT_STABLE_TOKENS()":"d24309ec","UNSETTLED_BASE_TOKEN_RATIO_LIMIT()":"5ac53c71","UNSETTLED_RATIO_LIMIT()":"24612c83","UNSETTLED_STABLE_TOKEN_RATIO_LIMIT()":"38675d10","getLpPoolConfig(address)":"3daea25d","getStableTokenBorrowingInterestRate(address)":"c0d0e4b9","getStakeConfig()":"fe1d4ffc","getUsdPoolConfig()":"4f42ce05","setLpPoolConfig(address,AppPoolConfig.LpPoolConfig)":"90c1ed0c","setStakeConfig(AppPoolConfig.StakeConfig)":"357c4896","setUsdPoolConfig(AppPoolConfig.UsdPoolConfig)":"ff808751"},"id":121}