{"abi":[{"type":"function","name":"ASSET_TOKENS","inputs":[],"outputs":[{"name":"","type":"bytes32","internalType":"bytes32"}],"stateMutability":"view"},{"type":"function","name":"BASE_INTEREST_RATE","inputs":[],"outputs":[{"name":"","type":"bytes32","internalType":"bytes32"}],"stateMutability":"view"},{"type":"function","name":"COLLATERAL_FACTOR","inputs":[],"outputs":[{"name":"","type":"bytes32","internalType":"bytes32"}],"stateMutability":"view"},{"type":"function","name":"COLLATERAL_PROTECT_FACTOR","inputs":[],"outputs":[{"name":"","type":"bytes32","internalType":"bytes32"}],"stateMutability":"view"},{"type":"function","name":"MAX_APR","inputs":[],"outputs":[{"name":"","type":"bytes32","internalType":"bytes32"}],"stateMutability":"view"},{"type":"function","name":"MINT_FEE_POOL_REWARDS_RATIO","inputs":[],"outputs":[{"name":"","type":"bytes32","internalType":"bytes32"}],"stateMutability":"view"},{"type":"function","name":"MINT_FEE_RATE","inputs":[],"outputs":[{"name":"","type":"bytes32","internalType":"bytes32"}],"stateMutability":"view"},{"type":"function","name":"MINT_FEE_STAKING_REWARDS_RATIO","inputs":[],"outputs":[{"name":"","type":"bytes32","internalType":"bytes32"}],"stateMutability":"view"},{"type":"function","name":"MIN_APR","inputs":[],"outputs":[{"name":"","type":"bytes32","internalType":"bytes32"}],"stateMutability":"view"},{"type":"function","name":"MIN_PRECISION_MULTIPLE","inputs":[],"outputs":[{"name":"","type":"bytes32","internalType":"bytes32"}],"stateMutability":"view"},{"type":"function","name":"POOL_LIQUIDITY_LIMIT","inputs":[],"outputs":[{"name":"","type":"bytes32","internalType":"bytes32"}],"stateMutability":"view"},{"type":"function","name":"POOL_PNL_RATIO_LIMIT","inputs":[],"outputs":[{"name":"","type":"bytes32","internalType":"bytes32"}],"stateMutability":"view"},{"type":"function","name":"POOL_REWARDS_INTERVAL_LIMIT","inputs":[],"outputs":[{"name":"","type":"bytes32","internalType":"bytes32"}],"stateMutability":"view"},{"type":"function","name":"POOL_STABLE_TOKEN_LOSS_LIMIT","inputs":[],"outputs":[{"name":"","type":"bytes32","internalType":"bytes32"}],"stateMutability":"view"},{"type":"function","name":"POOL_STABLE_TOKEN_RATIO_LIMIT","inputs":[],"outputs":[{"name":"","type":"bytes32","internalType":"bytes32"}],"stateMutability":"view"},{"type":"function","name":"REDEEM_FEE_POOL_REWARDS_RATIO","inputs":[],"outputs":[{"name":"","type":"bytes32","internalType":"bytes32"}],"stateMutability":"view"},{"type":"function","name":"REDEEM_FEE_RATE","inputs":[],"outputs":[{"name":"","type":"bytes32","internalType":"bytes32"}],"stateMutability":"view"},{"type":"function","name":"REDEEM_FEE_STAKING_REWARDS_RATIO","inputs":[],"outputs":[{"name":"","type":"bytes32","internalType":"bytes32"}],"stateMutability":"view"},{"type":"function","name":"STABLE_TOKENS_BORROWING_INTEREST_RATE","inputs":[],"outputs":[{"name":"","type":"bytes32","internalType":"bytes32"}],"stateMutability":"view"},{"type":"function","name":"SUPPORT_STABLE_TOKENS","inputs":[],"outputs":[{"name":"","type":"bytes32","internalType":"bytes32"}],"stateMutability":"view"},{"type":"function","name":"UNSETTLED_BASE_TOKEN_RATIO_LIMIT","inputs":[],"outputs":[{"name":"","type":"bytes32","internalType":"bytes32"}],"stateMutability":"view"},{"type":"function","name":"UNSETTLED_RATIO_LIMIT","inputs":[],"outputs":[{"name":"","type":"bytes32","internalType":"bytes32"}],"stateMutability":"view"},{"type":"function","name":"UNSETTLED_STABLE_TOKEN_RATIO_LIMIT","inputs":[],"outputs":[{"name":"","type":"bytes32","internalType":"bytes32"}],"stateMutability":"view"}],"bytecode":{"object":"0x6107c6610039600b82828239805160001a607314602c57634e487b7160e01b600052600060045260246000fd5b30600052607381538281f3fe73000000000000000000000000000000000000000030146080604052600436106101575760003560e01c80635ac53c71116100cd578063a2cc10b911610086578063a2cc10b9146101f6578063ad53cae0146101fe578063aecf3a5f14610206578063d24309ec1461020e578063d3b0528514610216578063e1811c911461021e57600080fd5b80635ac53c71146101c65780635c149b22146101ce57806373bb1b8e146101d657806386d8f78d146101de5780638777c9e5146101e65780638c4890d5146101ee57600080fd5b8063378ea6331161011f578063378ea6331461019657806338675d101461019e57806346f7863a146101a657806349e2919b146101ae57806355f3a4dc146101b65780635ab0107f146101be57600080fd5b8063028368a11461015c5780630d8cb2ff1461017657806317f49e051461017e57806324612c831461018657806326519a941461018e575b600080fd5b610164610226565b60405190815260200160405180910390f35b610164610280565b6101646102b6565b6101646102eb565b610164610324565b610164610365565b610164610398565b6101646103e4565b610164610414565b610164610453565b610164610494565b6101646104d5565b610164610514565b61016461054c565b61016461059b565b6101646105c6565b6101646105fe565b61016461062f565b610164610670565b61016461069b565b6101646106dc565b610164610715565b61016461074f565b604051602001610267906020808252601d908201527f52454445454d5f4645455f504f4f4c5f524557415244535f524154494f000000604082015260600190565b6040516020818303038152906040528051906020012081565b60405160200161026790602080825260129082015271424153455f494e5445524553545f5241544560701b604082015260600190565b6040516020016102679060208082526011908201527021a7a62620aa22a920a62fa320a1aa27a960791b604082015260600190565b60405160200161026790602080825260159082015274155394d1551513115117d490551253d7d312535255605a1b604082015260600190565b604051602001610267906020808252601d908201527f504f4f4c5f535441424c455f544f4b454e5f524154494f5f4c494d4954000000604082015260600190565b604051602001610267906020808252600f908201526e52454445454d5f4645455f5241544560881b604082015260600190565b6040516020016102679060208082526022908201527f554e534554544c45445f535441424c455f544f4b454e5f524154494f5f4c494d604082015261125560f21b606082015260800190565b604051602001610267906020808252600c908201526b41535345545f544f4b454e5360a01b604082015260600190565b604051602001610267906020808252818101527f52454445454d5f4645455f5354414b494e475f524557415244535f524154494f604082015260600190565b604051602001610267906020808252601e908201527f4d494e545f4645455f5354414b494e475f524557415244535f524154494f0000604082015260600190565b604051602001610267906020808252601b908201527f4d494e545f4645455f504f4f4c5f524557415244535f524154494f0000000000604082015260600190565b604051602001610267906020808252818101527f554e534554544c45445f424153455f544f4b454e5f524154494f5f4c494d4954604082015260600190565b604051602001610267906020808252601490820152731413d3d317d3125455525112551657d31253525560621b604082015260600190565b6040516020016102679060208082526025908201527f535441424c455f544f4b454e535f424f52524f57494e475f494e5445524553546040820152645f5241544560d81b606082015260800190565b6040516020016102679060208082526007908201526626a0ac2fa0a82960c91b604082015260600190565b604051602001610267906020808252601490820152731413d3d317d4139317d490551253d7d31253525560621b604082015260600190565b604051602001610267906020808252600d908201526c4d494e545f4645455f5241544560981b604082015260600190565b604051602001610267906020808252601b908201527f504f4f4c5f524557415244535f494e54455256414c5f4c494d49540000000000604082015260600190565b6040516020016102679060208082526007908201526626a4a72fa0a82960c91b604082015260600190565b6040516020016102679060208082526019908201527f434f4c4c41544552414c5f50524f544543545f464143544f5200000000000000604082015260600190565b60405160200161026790602080825260159082015274535550504f52545f535441424c455f544f4b454e5360581b604082015260600190565b604051602001610267906020808252601690820152754d494e5f505245434953494f4e5f4d554c5449504c4560501b604082015260600190565b604051602001610267906020808252601c908201527f504f4f4c5f535441424c455f544f4b454e5f4c4f53535f4c494d49540000000060408201526060019056fea2646970667358221220062bd2e10a17871ee8eb02813c3060be2c832e4cc0f30303fc9c07157967ee3164736f6c63430008190033","linkReferences":{}},"methodIdentifiers":{"ASSET_TOKENS()":"46f7863a","BASE_INTEREST_RATE()":"0d8cb2ff","COLLATERAL_FACTOR()":"17f49e05","COLLATERAL_PROTECT_FACTOR()":"aecf3a5f","MAX_APR()":"86d8f78d","MINT_FEE_POOL_REWARDS_RATIO()":"5ab0107f","MINT_FEE_RATE()":"8c4890d5","MINT_FEE_STAKING_REWARDS_RATIO()":"55f3a4dc","MIN_APR()":"ad53cae0","MIN_PRECISION_MULTIPLE()":"d3b05285","POOL_LIQUIDITY_LIMIT()":"5c149b22","POOL_PNL_RATIO_LIMIT()":"8777c9e5","POOL_REWARDS_INTERVAL_LIMIT()":"a2cc10b9","POOL_STABLE_TOKEN_LOSS_LIMIT()":"e1811c91","POOL_STABLE_TOKEN_RATIO_LIMIT()":"26519a94","REDEEM_FEE_POOL_REWARDS_RATIO()":"028368a1","REDEEM_FEE_RATE()":"378ea633","REDEEM_FEE_STAKING_REWARDS_RATIO()":"49e2919b","STABLE_TOKENS_BORROWING_INTEREST_RATE()":"73bb1b8e","SUPPORT_STABLE_TOKENS()":"d24309ec","UNSETTLED_BASE_TOKEN_RATIO_LIMIT()":"5ac53c71","UNSETTLED_RATIO_LIMIT()":"24612c83","UNSETTLED_STABLE_TOKEN_RATIO_LIMIT()":"38675d10"},"id":131}