{"abi":[{"type":"function","name":"getAccountPoolBalance","inputs":[{"name":"account","type":"address","internalType":"address"},{"name":"stakeToken","type":"address","internalType":"address"}],"outputs":[{"name":"","type":"tuple","internalType":"struct IStakingAccount.TokenBalance","components":[{"name":"stakeAmount","type":"uint256","internalType":"uint256"},{"name":"collateralTokens","type":"address[]","internalType":"address[]"},{"name":"collateralAmounts","type":"uint256[]","internalType":"uint256[]"},{"name":"collateralStakeLiability","type":"uint256[]","internalType":"uint256[]"}]}],"stateMutability":"view"},{"type":"function","name":"getAccountPoolCollateralAmount","inputs":[{"name":"account","type":"address","internalType":"address"},{"name":"stakeToken","type":"address","internalType":"address"},{"name":"collateral","type":"address","internalType":"address"}],"outputs":[{"name":"","type":"uint256","internalType":"uint256"}],"stateMutability":"view"},{"type":"function","name":"getAccountUsdPoolAmount","inputs":[{"name":"account","type":"address","internalType":"address"}],"outputs":[{"name":"","type":"uint256","internalType":"uint256"}],"stateMutability":"view"}],"bytecode":{"object":"0x6080604052348015600f57600080fd5b506105c18061001f6000396000f3fe608060405234801561001057600080fd5b50600436106100415760003560e01c80638e941347146100465780639fe30b031461006c578063c93c5b401461007f575b600080fd5b6100596100543660046103f3565b61009f565b6040519081526020015b60405180910390f35b61005961007a366004610436565b6100bf565b61009261008d366004610451565b6100d4565b60405161006391906104c0565b60006100b683836100af87610279565b91906102ef565b51949350505050565b60006100ca82610279565b6005015492915050565b6100ff6040518060800160405280600081526020016060815260200160608152602001606081525090565b600061010a84610279565b905060006101188285610343565b90506000815167ffffffffffffffff8111156101365761013661055f565b60405190808252806020026020018201604052801561015f578160200160208202803683370190505b5090506000825167ffffffffffffffff81111561017e5761017e61055f565b6040519080825280602002602001820160405280156101a7578160200160208202803683370190505b50905060005b83518110156102365760006101e6888684815181106101ce576101ce610575565b6020026020010151886102ef9092919063ffffffff16565b905080600001518483815181106101ff576101ff610575565b602002602001018181525050806020015183838151811061022257610222610575565b6020908102919091010152506001016101ad565b50604080516080810182526001600160a01b0388166000908152600390960160209081529582902054815294850193909352918301526060820152905092915050565b600080826040516020016102d091906040808252601f908201527f78797a2e656c66692e73746f726167652e5374616b696e674163636f756e740060608201526001600160a01b0391909116602082015260800190565b60408051601f1981840301815291905280516020909101209392505050565b604080518082018252600080825260209182018190526001600160a01b0394851681526003958601825282812093909416845291909301815290829020825180840190935280548352600101549082015290565b6001600160a01b0381166000908152600383016020526040902060609061036c90600101610373565b9392505050565b6060600061036c836060816000018054806020026020016040519081016040528092919081815260200182805480156103cb57602002820191906000526020600020905b8154815260200190600101908083116103b7575b50505050509050919050565b80356001600160a01b03811681146103ee57600080fd5b919050565b60008060006060848603121561040857600080fd5b610411846103d7565b925061041f602085016103d7565b915061042d604085016103d7565b90509250925092565b60006020828403121561044857600080fd5b61036c826103d7565b6000806040838503121561046457600080fd5b61046d836103d7565b915061047b602084016103d7565b90509250929050565b60008151808452602080850194506020840160005b838110156104b557815187529582019590820190600101610499565b509495945050505050565b60208082528251828201528281015160806040840152805160a0840181905260009291820190839060c08601905b808310156105175783516001600160a01b031682529284019260019290920191908401906104ee565b5060408701519350601f199250828682030160608701526105388185610484565b935050506060850151818584030160808601526105558382610484565b9695505050505050565b634e487b7160e01b600052604160045260246000fd5b634e487b7160e01b600052603260045260246000fdfea264697066735822122098139057f66039d874b5a86e0aed5a388928ccbcc550bf79702c3ba1a3d6ba9364736f6c63430008190033","linkReferences":{}},"methodIdentifiers":{"getAccountPoolBalance(address,address)":"c93c5b40","getAccountPoolCollateralAmount(address,address,address)":"8e941347","getAccountUsdPoolAmount(address)":"9fe30b03"},"id":72}