{"abi":[{"type":"function","name":"getAccountPoolBalance","inputs":[{"name":"account","type":"address","internalType":"address"},{"name":"stakeToken","type":"address","internalType":"address"}],"outputs":[{"name":"","type":"tuple","internalType":"struct IStakingAccount.TokenBalance","components":[{"name":"stakeAmount","type":"uint256","internalType":"uint256"},{"name":"collateralTokens","type":"address[]","internalType":"address[]"},{"name":"collateralAmounts","type":"uint256[]","internalType":"uint256[]"},{"name":"collateralStakeLiability","type":"uint256[]","internalType":"uint256[]"}]}],"stateMutability":"view"},{"type":"function","name":"getAccountPoolCollateralAmount","inputs":[{"name":"account","type":"address","internalType":"address"},{"name":"stakeToken","type":"address","internalType":"address"},{"name":"collateral","type":"address","internalType":"address"}],"outputs":[{"name":"","type":"uint256","internalType":"uint256"}],"stateMutability":"view"},{"type":"function","name":"getAccountUsdPoolAmount","inputs":[{"name":"account","type":"address","internalType":"address"}],"outputs":[{"name":"","type":"uint256","internalType":"uint256"}],"stateMutability":"view"}],"bytecode":{"object":"0x6080604052348015600f57600080fd5b5061089d8061001f6000396000f3fe608060405234801561001057600080fd5b50600436106100415760003560e01c80638e941347146100465780639fe30b031461006c578063c93c5b401461007f575b600080fd5b61005961005436600461056d565b61009f565b6040519081526020015b60405180910390f35b61005961007a3660046105b8565b6101b2565b61009261008d3660046105dc565b61023b565b6040516100639190610651565b604051630bd039cd60e21b81526001600160a01b038416600482015260009073__$191a6263ecbfae700711f035c52cfbd3c9$__90632f40e73490602401602060405180830381865af41580156100fa573d6000803e3d6000fd5b505050506040513d601f19601f8201168201806040525081019061011e91906106f0565b60405163f077a96b60e01b815260048101919091526001600160a01b0380851660248301528316604482015273__$191a6263ecbfae700711f035c52cfbd3c9$__9063f077a96b906064016040805180830381865af4158015610185573d6000803e3d6000fd5b505050506040513d601f19601f820116820180604052508101906101a99190610750565b51949350505050565b604051630bd039cd60e21b81526001600160a01b038216600482015260009073__$191a6263ecbfae700711f035c52cfbd3c9$__90632f40e73490602401602060405180830381865af415801561020d573d6000803e3d6000fd5b505050506040513d601f19601f8201168201806040525081019061023191906106f0565b6005015492915050565b6102666040518060800160405280600081526020016060815260200160608152602001606081525090565b604051630bd039cd60e21b81526001600160a01b038416600482015260009073__$191a6263ecbfae700711f035c52cfbd3c9$__90632f40e73490602401602060405180830381865af41580156102c1573d6000803e3d6000fd5b505050506040513d601f19601f820116820180604052508101906102e591906106f0565b60405163b4396a5b60e01b8152600481018290526001600160a01b038516602482015290915060009073__$191a6263ecbfae700711f035c52cfbd3c9$__9063b4396a5b90604401600060405180830381865af415801561034a573d6000803e3d6000fd5b505050506040513d6000823e601f3d908101601f19168201604052610372919081019061079f565b90506000815167ffffffffffffffff81111561039057610390610709565b6040519080825280602002602001820160405280156103b9578160200160208202803683370190505b5090506000825167ffffffffffffffff8111156103d8576103d8610709565b604051908082528060200260200182016040528015610401578160200160208202803683370190505b50905060005b83518110156105125760008573__$191a6263ecbfae700711f035c52cfbd3c9$__63f077a96b90918a88868151811061044257610442610851565b60200260200101516040518463ffffffff1660e01b8152600401610482939291909283526001600160a01b03918216602084015216604082015260600190565b6040805180830381865af415801561049e573d6000803e3d6000fd5b505050506040513d601f19601f820116820180604052508101906104c29190610750565b905080600001518483815181106104db576104db610851565b60200260200101818152505080602001518383815181106104fe576104fe610851565b602090810291909101015250600101610407565b50604080516080810182526001600160a01b0388166000908152600390960160209081529582902054815294850193909352918301526060820152905092915050565b6001600160a01b038116811461056a57600080fd5b50565b60008060006060848603121561058257600080fd5b833561058d81610555565b9250602084013561059d81610555565b915060408401356105ad81610555565b809150509250925092565b6000602082840312156105ca57600080fd5b81356105d581610555565b9392505050565b600080604083850312156105ef57600080fd5b82356105fa81610555565b9150602083013561060a81610555565b809150509250929050565b60008151808452602080850194506020840160005b838110156106465781518752958201959082019060010161062a565b509495945050505050565b60208082528251828201528281015160806040840152805160a0840181905260009291820190839060c08601905b808310156106a85783516001600160a01b0316825292840192600192909201919084019061067f565b5060408701519350601f199250828682030160608701526106c98185610615565b935050506060850151818584030160808601526106e68382610615565b9695505050505050565b60006020828403121561070257600080fd5b5051919050565b634e487b7160e01b600052604160045260246000fd5b604051601f8201601f1916810167ffffffffffffffff8111828210171561074857610748610709565b604052919050565b60006040828403121561076257600080fd5b6040516040810181811067ffffffffffffffff8211171561078557610785610709565b604052825181526020928301519281019290925250919050565b600060208083850312156107b257600080fd5b825167ffffffffffffffff808211156107ca57600080fd5b818501915085601f8301126107de57600080fd5b8151818111156107f0576107f0610709565b8060051b915061080184830161071f565b818152918301840191848101908884111561081b57600080fd5b938501935b83851015610845578451925061083583610555565b8282529385019390850190610820565b98975050505050505050565b634e487b7160e01b600052603260045260246000fdfea26469706673582212201fb8a758f652e633a27b5ae9c417dca70e9d882a81b4d170313fde2bd4e937a964736f6c63430008190033","linkReferences":{"src/storage/StakingAccount.sol":{"StakingAccount":[{"start":223,"length":20},{"start":363,"length":20},{"start":498,"length":20},{"start":678,"length":20},{"start":815,"length":20},{"start":1076,"length":20}]}}},"methodIdentifiers":{"getAccountPoolBalance(address,address)":"c93c5b40","getAccountPoolCollateralAmount(address,address,address)":"8e941347","getAccountUsdPoolAmount(address)":"9fe30b03"},"id":72}