{"abi":[{"type":"constructor","inputs":[],"stateMutability":"nonpayable"},{"type":"function","name":"grantRole","inputs":[{"name":"account","type":"address","internalType":"address"},{"name":"role","type":"bytes32","internalType":"bytes32"}],"outputs":[],"stateMutability":"nonpayable"},{"type":"function","name":"hasRole","inputs":[{"name":"account","type":"address","internalType":"address"},{"name":"role","type":"bytes32","internalType":"bytes32"}],"outputs":[{"name":"","type":"bool","internalType":"bool"}],"stateMutability":"view"},{"type":"function","name":"revokeAllRole","inputs":[{"name":"account","type":"address","internalType":"address"}],"outputs":[],"stateMutability":"nonpayable"},{"type":"function","name":"revokeRole","inputs":[{"name":"account","type":"address","internalType":"address"},{"name":"role","type":"bytes32","internalType":"bytes32"}],"outputs":[],"stateMutability":"nonpayable"},{"type":"error","name":"InvalidRoleAccess","inputs":[{"name":"account","type":"address","internalType":"address"},{"name":"role","type":"bytes32","internalType":"bytes32"}]}],"bytecode":{"object":"0x6080604052348015600f57600080fd5b506105958061001f6000396000f3fe608060405234801561001057600080fd5b506004361061004c5760003560e01c8063208dd1ff14610051578063ab2742dc14610066578063ac4ab3fb14610079578063cb337348146100a0575b600080fd5b61006461005f3660046104cd565b6100b3565b005b6100646100743660046104cd565b610105565b61008c6100873660046104cd565b61014e565b604051901515815260200160405180910390f35b6100646100ae3660046104f7565b610163565b6100c5336420a226a4a760d91b6101ae565b6100f757604051632d7d0e0d60e21b81523360048201526420a226a4a760d91b60248201526044015b60405180910390fd5b61010182826101e6565b5050565b610117336420a226a4a760d91b6101ae565b61014457604051632d7d0e0d60e21b81523360048201526420a226a4a760d91b60248201526044016100ee565b6101018282610243565b600061015a83836101ae565b90505b92915050565b610175336420a226a4a760d91b6101ae565b6101a257604051632d7d0e0d60e21b81523360048201526420a226a4a760d91b60248201526044016100ee565b6101ab81610272565b50565b6000806101b96102ab565b6001600160a01b03851660009081526020829052604090209091506101de908461030d565b949350505050565b60006101f06102ab565b6001600160a01b0384166000908152602082905260409020909150610215908361030d565b1561023e576001600160a01b038316600090815260208290526040902061023c9083610325565b505b505050565b600061024d6102ab565b6001600160a01b038416600090815260208290526040902090915061023c9083610331565b600061027c6102ab565b6001600160a01b038316600090815260208290526040812091925081816102a3828261047f565b505050505050565b6000806040516020016102ef906020808252601e908201527f78797a2e656c66692e73746f726167652e416363657373436f6e74726f6c0000604082015260600190565b60408051601f19818403018152919052805160209091012092915050565b6000818152600183016020526040812054151561015a565b600061015a838361033d565b600061015a8383610430565b60008181526001830160205260408120548015610426576000610361600183610512565b855490915060009061037590600190610512565b90508181146103da57600086600001828154811061039557610395610533565b90600052602060002001549050808760000184815481106103b8576103b8610533565b6000918252602080832090910192909255918252600188019052604090208390555b85548690806103eb576103eb610549565b60019003818190600052602060002001600090559055856001016000868152602001908152602001600020600090556001935050505061015d565b600091505061015d565b60008181526001830160205260408120546104775750815460018181018455600084815260208082209093018490558454848252828601909352604090209190915561015d565b50600061015d565b50805460008255906000526020600020908101906101ab91905b808211156104ad5760008155600101610499565b5090565b80356001600160a01b03811681146104c857600080fd5b919050565b600080604083850312156104e057600080fd5b6104e9836104b1565b946020939093013593505050565b60006020828403121561050957600080fd5b61015a826104b1565b8181038181111561015d57634e487b7160e01b600052601160045260246000fd5b634e487b7160e01b600052603260045260246000fd5b634e487b7160e01b600052603160045260246000fdfea264697066735822122043282e4295126a3c38ad221864c22b30140b0435a83b4e5fb6f8b6009bbceac664736f6c63430008190033","linkReferences":{}},"methodIdentifiers":{"grantRole(address,bytes32)":"ab2742dc","hasRole(address,bytes32)":"ac4ab3fb","revokeAllRole(address)":"cb337348","revokeRole(address,bytes32)":"208dd1ff"},"id":70}