{"abi":[{"type":"function","name":"CHAIN_CONFIG","inputs":[],"outputs":[{"name":"","type":"bytes32","internalType":"bytes32"}],"stateMutability":"view"},{"type":"function","name":"COMMON_CONFIG","inputs":[],"outputs":[{"name":"","type":"bytes32","internalType":"bytes32"}],"stateMutability":"view"},{"type":"function","name":"LP_POOL_CONFIG","inputs":[],"outputs":[{"name":"","type":"bytes32","internalType":"bytes32"}],"stateMutability":"view"},{"type":"function","name":"REFERRAL","inputs":[],"outputs":[{"name":"","type":"bytes32","internalType":"bytes32"}],"stateMutability":"view"},{"type":"function","name":"STAKE_CONFIG","inputs":[],"outputs":[{"name":"","type":"bytes32","internalType":"bytes32"}],"stateMutability":"view"},{"type":"function","name":"SYMBOL_CONFIG","inputs":[],"outputs":[{"name":"","type":"bytes32","internalType":"bytes32"}],"stateMutability":"view"},{"type":"function","name":"TRADE_CONFIG","inputs":[],"outputs":[{"name":"","type":"bytes32","internalType":"bytes32"}],"stateMutability":"view"},{"type":"function","name":"TRADE_TOKEN_CONFIG","inputs":[],"outputs":[{"name":"","type":"bytes32","internalType":"bytes32"}],"stateMutability":"view"},{"type":"function","name":"USD_POOL_CONFIG","inputs":[],"outputs":[{"name":"","type":"bytes32","internalType":"bytes32"}],"stateMutability":"view"},{"type":"function","name":"VAULT_CONFIG","inputs":[],"outputs":[{"name":"","type":"bytes32","internalType":"bytes32"}],"stateMutability":"view"}],"bytecode":{"object":"0x610347610039600b82828239805160001a607314602c57634e487b7160e01b600052600060045260246000fd5b30600052607381538281f3fe73000000000000000000000000000000000000000030146080604052600436106100a85760003560e01c806393096f741161007057806393096f74146100e7578063b5f59be8146100ef578063c63568c7146100f7578063d5d18c4d146100ff578063d9f37f121461010757600080fd5b80630764fa54146100ad578063236d9f38146100c757806324e48a1c146100cf578063748c5eab146100d757806379699d85146100df575b600080fd5b6100b561010f565b60405190815260200160405180910390f35b6100b5610158565b6100b5610189565b6100b56101bb565b6100b56101f1565b6100b5610222565b6100b5610252565b6100b5610282565b6100b56102ae565b6100b56102e1565b60405160200161013f906020808252600c908201526b434841494e5f434f4e46494760a01b604082015260600190565b6040516020818303038152906040528051906020012081565b60405160200161013f906020808252600d908201526c434f4d4d4f4e5f434f4e46494760981b604082015260600190565b60405160200161013f906020808252600e908201526d4c505f504f4f4c5f434f4e46494760901b604082015260600190565b60405160200161013f9060208082526012908201527154524144455f544f4b454e5f434f4e46494760701b604082015260600190565b60405160200161013f906020808252600d908201526c53594d424f4c5f434f4e46494760981b604082015260600190565b60405160200161013f906020808252600c908201526b5641554c545f434f4e46494760a01b604082015260600190565b60405160200161013f906020808252600c908201526b5354414b455f434f4e46494760a01b604082015260600190565b60405160200161013f90602080825260089082015267149151915494905360c21b604082015260600190565b60405160200161013f906020808252600f908201526e5553445f504f4f4c5f434f4e46494760881b604082015260600190565b60405160200161013f906020808252600c908201526b54524144455f434f4e46494760a01b60408201526060019056fea2646970667358221220507d9b1a7aa4d4f52f1e30def78bf5a2772a7446477a7b44407ff1807c04bedc64736f6c63430008190033","linkReferences":{}},"methodIdentifiers":{"CHAIN_CONFIG()":"0764fa54","COMMON_CONFIG()":"236d9f38","LP_POOL_CONFIG()":"24e48a1c","REFERRAL()":"c63568c7","STAKE_CONFIG()":"b5f59be8","SYMBOL_CONFIG()":"79699d85","TRADE_CONFIG()":"d9f37f12","TRADE_TOKEN_CONFIG()":"748c5eab","USD_POOL_CONFIG()":"d5d18c4d","VAULT_CONFIG()":"93096f74"},"id":132}