{"abi":[{"type":"function","name":"CHAIN_CONFIG","inputs":[],"outputs":[{"name":"","type":"bytes32","internalType":"bytes32"}],"stateMutability":"view"},{"type":"function","name":"COMMON_CONFIG","inputs":[],"outputs":[{"name":"","type":"bytes32","internalType":"bytes32"}],"stateMutability":"view"},{"type":"function","name":"LP_POOL_CONFIG","inputs":[],"outputs":[{"name":"","type":"bytes32","internalType":"bytes32"}],"stateMutability":"view"},{"type":"function","name":"REFERRAL","inputs":[],"outputs":[{"name":"","type":"bytes32","internalType":"bytes32"}],"stateMutability":"view"},{"type":"function","name":"STAKE_CONFIG","inputs":[],"outputs":[{"name":"","type":"bytes32","internalType":"bytes32"}],"stateMutability":"view"},{"type":"function","name":"SYMBOL_CONFIG","inputs":[],"outputs":[{"name":"","type":"bytes32","internalType":"bytes32"}],"stateMutability":"view"},{"type":"function","name":"TRADE_CONFIG","inputs":[],"outputs":[{"name":"","type":"bytes32","internalType":"bytes32"}],"stateMutability":"view"},{"type":"function","name":"TRADE_TOKEN_CONFIG","inputs":[],"outputs":[{"name":"","type":"bytes32","internalType":"bytes32"}],"stateMutability":"view"},{"type":"function","name":"USD_POOL_CONFIG","inputs":[],"outputs":[{"name":"","type":"bytes32","internalType":"bytes32"}],"stateMutability":"view"},{"type":"function","name":"VAULT_CONFIG","inputs":[],"outputs":[{"name":"","type":"bytes32","internalType":"bytes32"}],"stateMutability":"view"}],"bytecode":{"object":"0x610dd6610039600b82828239805160001a607314602c57634e487b7160e01b600052600060045260246000fd5b30600052607381538281f3fe73000000000000000000000000000000000000000030146080604052600436106101ef5760003560e01c80637816afda116101195780639a71e710116100ac578063d5d18c4d1161007b578063d5d18c4d14610551578063d738518c14610559578063d9f37f1214610579578063f22e161d1461058157600080fd5b80639a71e710146104eb578063b5f59be81461050b578063c63568c714610513578063d43132651461051b57600080fd5b806385df2a94116100e857806385df2a941461049b57806386d5c4be146104bb5780638b776447146104c257806393096f74146104e357600080fd5b80637816afda146104355780637921d0b81461045957806379699d85146104805780637cc7c2c91461048857600080fd5b80632f6e7e79116101915780636c75c7ef116101605780636c75c7ef146103a4578063748c5eab146103c457806376ddcbf5146103cc57806376e43b4d1461040857600080fd5b80632f6e7e79146103095780633dd33a5e1461032c57806356c8caa91461034c5780635e42ae161461037757600080fd5b80630d7f07b9116101cd5780630d7f07b91461027e578063236d9f38146102ad57806324e48a1c146102b55780632aa33748146102bd57600080fd5b80630505c770146101f45780630764fa541461022557806307a735a814610240575b600080fd5b81801561020057600080fd5b5061022361020f366004610b39565b600090815260019091016020526040812055565b005b61022d6105a1565b6040519081526020015b60405180910390f35b81801561024c57600080fd5b5061022361025b366004610b5b565b600091825260039290920160205260409020805460ff1916911515919091179055565b81801561028a57600080fd5b50610223610299366004610b99565b600091825260019092016020526040902055565b61022d6105ea565b61022d61061b565b8180156102c957600080fd5b506102236102d8366004610be1565b60009182526002929092016020526040902080546001600160a01b0319166001600160a01b03909216919091179055565b61031c610317366004610be1565b61064d565b6040519015158152602001610237565b81801561033857600080fd5b50610223610347366004610b99565b61066f565b61035f61035a366004610b39565b61068f565b6040516001600160a01b039091168152602001610237565b81801561038357600080fd5b50610223610392366004610b99565b60009182526020929092526040902055565b8180156103b057600080fd5b506102236103bf366004610be1565b6106b0565b61022d6106ca565b8180156103d857600080fd5b506102236103e7366004610b39565b600090815260029091016020526040902080546001600160a01b0319169055565b81801561041457600080fd5b50610223610423366004610b39565b60009081526020919091526040812055565b61022d610443366004610b39565b6000908152600191909101602052604090205490565b61031c610467366004610b39565b6000908152600391909101602052604090205460ff1690565b61022d610700565b61031c610496366004610b99565b610731565b8180156104a757600080fd5b506102236104b6366004610c2c565b61074b565b600061022d565b61022d6104d0366004610b39565b6000908152602091909152604090205490565b61022d61076c565b8180156104f757600080fd5b50610223610506366004610b99565b61079c565b61022d6107b6565b61022d6107e6565b81801561052757600080fd5b50610223610536366004610b39565b6000908152600390910160205260409020805460ff19169055565b61022d610812565b81801561056557600080fd5b50610223610574366004610be1565b610845565b61022d61085f565b61059461058f366004610b39565b61088f565b6040516102379190610d06565b6040516020016105d1906020808252600c908201526b434841494e5f434f4e46494760a01b604082015260600190565b6040516020818303038152906040528051906020012081565b6040516020016105d1906020808252600d908201526c434f4d4d4f4e5f434f4e46494760981b604082015260600190565b6040516020016105d1906020808252600e908201526d4c505f504f4f4c5f434f4e46494760901b604082015260600190565b6000828152600c84016020526040812061066790836108fe565b949350505050565b6000828152600d8401602052604090206106899082610923565b50505050565b60008181526002830160205260409020546001600160a01b03165b92915050565b6000828152600c840160205260409020610689908261092f565b6040516020016105d19060208082526012908201527154524144455f544f4b454e5f434f4e46494760701b604082015260600190565b6040516020016105d1906020808252600d908201526c53594d424f4c5f434f4e46494760981b604082015260600190565b6000828152600d8401602052604081206106679083610944565b60008281526008840160209081526040909120825161068992840190610abf565b6040516020016105d1906020808252600c908201526b5641554c545f434f4e46494760a01b604082015260600190565b6000828152600d840160205260409020610689908261095c565b6040516020016105d1906020808252600c908201526b5354414b455f434f4e46494760a01b604082015260600190565b6040516020016105d190602080825260089082015267149151915494905360c21b604082015260600190565b6040516020016105d1906020808252600f908201526e5553445f504f4f4c5f434f4e46494760881b604082015260600190565b6000828152600c8401602052604090206106899082610968565b6040516020016105d1906020808252600c908201526b54524144455f434f4e46494760a01b604082015260600190565b60008181526008830160209081526040918290208054835181840281018401909452808452606093928301828280156108f157602002820191906000526020600020905b81546001600160a01b031681526001909101906020018083116108d3575b5050505050905092915050565b6001600160a01b038116600090815260018301602052604081205415155b9392505050565b600061091c838361097d565b600061091c836001600160a01b03841661097d565b6000818152600183016020526040812054151561091c565b600061091c83836109cc565b600061091c836001600160a01b0384166109cc565b60008181526001830160205260408120546109c4575081546001818101845560008481526020808220909301849055845484825282860190935260409020919091556106aa565b5060006106aa565b60008181526001830160205260408120548015610ab55760006109f0600183610d53565b8554909150600090610a0490600190610d53565b9050818114610a69576000866000018281548110610a2457610a24610d74565b9060005260206000200154905080876000018481548110610a4757610a47610d74565b6000918252602080832090910192909255918252600188019052604090208390555b8554869080610a7a57610a7a610d8a565b6001900381819060005260206000200160009055905585600101600086815260200190815260200160002060009055600193505050506106aa565b60009150506106aa565b828054828255906000526020600020908101928215610b14579160200282015b82811115610b1457825182546001600160a01b0319166001600160a01b03909116178255602090920191600190910190610adf565b50610b20929150610b24565b5090565b5b80821115610b205760008155600101610b25565b60008060408385031215610b4c57600080fd5b50508035926020909101359150565b600080600060608486031215610b7057600080fd5b833592506020840135915060408401358015158114610b8e57600080fd5b809150509250925092565b600080600060608486031215610bae57600080fd5b505081359360208301359350604090920135919050565b80356001600160a01b0381168114610bdc57600080fd5b919050565b600080600060608486031215610bf657600080fd5b8335925060208401359150610c0d60408501610bc5565b90509250925092565b634e487b7160e01b600052604160045260246000fd5b600080600060608486031215610c4157600080fd5b833592506020808501359250604085013567ffffffffffffffff80821115610c6857600080fd5b818701915087601f830112610c7c57600080fd5b813581811115610c8e57610c8e610c16565b8060051b604051601f19603f83011681018181108582111715610cb357610cb3610c16565b60405291825284820192508381018501918a831115610cd157600080fd5b938501935b82851015610cf657610ce785610bc5565b84529385019392850192610cd6565b8096505050505050509250925092565b6020808252825182820181905260009190848201906040850190845b81811015610d475783516001600160a01b031683529284019291840191600101610d22565b50909695505050505050565b818103818111156106aa57634e487b7160e01b600052601160045260246000fd5b634e487b7160e01b600052603260045260246000fd5b634e487b7160e01b600052603160045260246000fdfea2646970667358221220f03e44524243f7de08cf2e5fdb3a9cdb178d28dff95d12757de4b92b862fd96164736f6c63430008190033","linkReferences":{}},"methodIdentifiers":{"CHAIN_CONFIG()":"0764fa54","COMMON_CONFIG()":"236d9f38","LP_POOL_CONFIG()":"24e48a1c","REFERRAL()":"c63568c7","STAKE_CONFIG()":"b5f59be8","SYMBOL_CONFIG()":"79699d85","TRADE_CONFIG()":"d9f37f12","TRADE_TOKEN_CONFIG()":"748c5eab","USD_POOL_CONFIG()":"d5d18c4d","VAULT_CONFIG()":"93096f74","addAddress(AppStorage.Props storage,bytes32,address)":"6c75c7ef","addBytes32(AppStorage.Props storage,bytes32,bytes32)":"3dd33a5e","containsAddress(AppStorage.Props storage,bytes32,address)":"2f6e7e79","containsBytes32(AppStorage.Props storage,bytes32,bytes32)":"7cc7c2c9","deleteAddressValue(AppStorage.Props storage,bytes32)":"76ddcbf5","deleteBoolValue(AppStorage.Props storage,bytes32)":"d4313265","deleteIntValue(AppStorage.Props storage,bytes32)":"0505c770","deleteUintValue(AppStorage.Props storage,bytes32)":"76e43b4d","getAddressArrayValues(AppStorage.Props storage,bytes32)":"f22e161d","getAddressValue(AppStorage.Props storage,bytes32)":"56c8caa9","getBoolValue(AppStorage.Props storage,bytes32)":"7921d0b8","getIntValue(AppStorage.Props storage,bytes32)":"7816afda","getUintValue(AppStorage.Props storage,bytes32)":"8b776447","load()":"86d5c4be","removeAddress(AppStorage.Props storage,bytes32,address)":"d738518c","removeBytes32(AppStorage.Props storage,bytes32,bytes32)":"9a71e710","setAddressArrayValues(AppStorage.Props storage,bytes32,address[])":"85df2a94","setAddressValue(AppStorage.Props storage,bytes32,address)":"2aa33748","setBoolValue(AppStorage.Props storage,bytes32,bool)":"07a735a8","setIntValue(AppStorage.Props storage,bytes32,int256)":"0d7f07b9","setUintValue(AppStorage.Props storage,bytes32,uint256)":"5e42ae16"},"id":132}