{"abi":[{"type":"function","name":"getId","inputs":[{"name":"key","type":"bytes32","internalType":"bytes32"}],"outputs":[{"name":"","type":"uint256","internalType":"uint256"}],"stateMutability":"view"}],"bytecode":{"object":"0x610213610039600b82828239805160001a607314602c57634e487b7160e01b600052600060045260246000fd5b30600052607381538281f3fe730000000000000000000000000000000000000000301460806040526004361061004b5760003560e01c8063204c72521461005057806386d5c4be14610082578063e55697731461008a575b600080fd5b81801561005c57600080fd5b5061007061006b36600461017c565b61009d565b60405190815260200160405180910390f35b6100706100fd565b61007061009836600461017c565b61015f565b6000806100a86100fd565b6000848152602082905260409020549091506104578110156100d8576100d161045760016101ab565b90506100e6565b806100e2816101c4565b9150505b600093845260209190915260409092208290555090565b600080604051602001610141906020808252601c908201527f78797a2e656c66692e73746f726167652e5575696443726561746f7200000000604082015260600190565b60408051601f19818403018152919052805160209091012092915050565b60008061016a6100fd565b60009384526020525050604090205490565b60006020828403121561018e57600080fd5b5035919050565b634e487b7160e01b600052601160045260246000fd5b808201808211156101be576101be610195565b92915050565b6000600182016101d6576101d6610195565b506001019056fea26469706673582212207d95be3a59b76d67ad3e5dc64e5ae6f364c497c71375ee4fdc6d0b95e9b1fbab64736f6c63430008190033","linkReferences":{}},"methodIdentifiers":{"getId(bytes32)":"e5569773","load()":"86d5c4be","nextId(bytes32)":"204c7252"},"id":158}