{"abi":[{"type":"function","name":"hasOtherShortOrders","inputs":[{"name":"orders","type":"uint256[]","internalType":"uint256[]"},{"name":"symbol","type":"bytes32","internalType":"bytes32"},{"name":"marginToken","type":"address","internalType":"address"},{"name":"isCrossMargin","type":"bool","internalType":"bool"}],"outputs":[{"name":"","type":"bool","internalType":"bool"}],"stateMutability":"view"}],"bytecode":{"object":"0x610784610039600b82828239805160001a607314602c57634e487b7160e01b600052600060045260246000fd5b30600052607381538281f3fe73000000000000000000000000000000000000000030146080604052600436106100925760003560e01c806386d5c4be1161006557806386d5c4be146101875780639507d39a14610161578063c000c8ee1461018f578063cb7aac6a146101af57600080fd5b80634cc8221514610097578063540a61e2146100b957806358b7169a146100d9578063780900dc14610161575b600080fd5b8180156100a357600080fd5b506100b76100b236600461051e565b6101d2565b005b8180156100c557600080fd5b506100b76100d4366004610617565b610247565b8180156100e557600080fd5b506100b76100f4366004610698565b60009081526020919091526040812080546001600160a01b0319168155600181018290556002810180546001600160d01b031916905560038101829055600481018290556005810182905560068101829055600781018290556008810182905560098101829055600a0155565b61017461016f36600461051e565b61039c565b6040519081526020015b60405180910390f35b6101746103b8565b61017461019d366004610698565b60009081526020919091526040902090565b6101c26101bd3660046106ba565b610413565b604051901515815260200161017e565b60006101dc6103b8565b6000928352602052506040812080546001600160a01b0319168155600181018290556002810180546001600160d01b031916905560038101829055600481018290556005810182905560068101829055600781018290556008810182905560098101829055600a0155565b60006102516103b8565b905060005b87518110156103925760008260000160008a848151811061027957610279610722565b6020026020010151815260200190815260200160002090506000600160028111156102a6576102a6610738565b60028084015460ff16908111156102bf576102bf610738565b60028401549114915060ff6401000000009091041615158515151480156102e95750888260010154145b801561030e575060028201546001600160a01b03898116660100000000000090920416145b801561037b575085151581151514801561034557506001600283810154610100900460ff169081111561034357610343610738565b145b8061037b57508515158115151415801561037b575060028083810154610100900460ff169081111561037957610379610738565b145b1561038857600482018790555b5050600101610256565b5050505050505050565b6000806103a76103b8565b600093845260205250506040902090565b6000806040516020016103f5906020808252601690820152753c3cbd1732b633349739ba37b930b3b29727b93232b960511b604082015260600190565b60408051601f19818403018152919052805160209091012092915050565b60008061041e6103b8565b905060005b865181101561050f57600082600001600089848151811061044657610446610722565b60200260200101518152602001908152602001600020905086816001015414801561048b575060028101546001600160a01b0387811666010000000000009092041614155b80156104aa5750600281015460ff640100000000909104161515851515145b80156104d357506001600282810154610100900460ff16908111156104d1576104d1610738565b145b80156104f5575060028181015460ff16818111156104f3576104f3610738565b145b156105065760019350505050610516565b50600101610423565b5060009150505b949350505050565b60006020828403121561053057600080fd5b5035919050565b634e487b7160e01b600052604160045260246000fd5b600082601f83011261055e57600080fd5b8135602067ffffffffffffffff8083111561057b5761057b610537565b8260051b604051601f19603f830116810181811084821117156105a0576105a0610537565b60405293845260208187018101949081019250878511156105c057600080fd5b6020870191505b848210156105e0578135835291830191908301906105c7565b979650505050505050565b80356001600160a01b038116811461060257600080fd5b919050565b8035801515811461060257600080fd5b60008060008060008060c0878903121561063057600080fd5b863567ffffffffffffffff81111561064757600080fd5b61065389828a0161054d565b96505060208701359450610669604088016105eb565b93506060870135925061067e60808801610607565b915061068c60a08801610607565b90509295509295509295565b600080604083850312156106ab57600080fd5b50508035926020909101359150565b600080600080608085870312156106d057600080fd5b843567ffffffffffffffff8111156106e757600080fd5b6106f38782880161054d565b94505060208501359250610709604086016105eb565b915061071760608601610607565b905092959194509250565b634e487b7160e01b600052603260045260246000fd5b634e487b7160e01b600052602160045260246000fdfea2646970667358221220d4f8eaf825e53659a9d2719800373824e1bb67f92935b067c648e0a00d6017bd64736f6c63430008190033","linkReferences":{}},"methodIdentifiers":{"create(uint256)":"780900dc","get(Order.Props storage,uint256)":"c000c8ee","get(uint256)":"9507d39a","hasOtherShortOrders(uint256[],bytes32,address,bool)":"cb7aac6a","load()":"86d5c4be","remove(Order.Props storage,uint256)":"58b7169a","remove(uint256)":"4cc82215","updateAllOrderLeverage(uint256[],bytes32,address,uint256,bool,bool)":"540a61e2"},"id":147}