{"abi":[{"type":"function","name":"getConfig","inputs":[],"outputs":[{"name":"config","type":"tuple","internalType":"struct IConfig.CommonConfigParams","components":[{"name":"chainConfig","type":"tuple","internalType":"struct AppConfig.ChainConfig","components":[{"name":"wrapperToken","type":"address","internalType":"address"},{"name":"mintGasFeeLimit","type":"uint256","internalType":"uint256"},{"name":"redeemGasFeeLimit","type":"uint256","internalType":"uint256"},{"name":"placeIncreaseOrderGasFeeLimit","type":"uint256","internalType":"uint256"},{"name":"placeDecreaseOrderGasFeeLimit","type":"uint256","internalType":"uint256"},{"name":"positionUpdateMarginGasFeeLimit","type":"uint256","internalType":"uint256"},{"name":"positionUpdateLeverageGasFeeLimit","type":"uint256","internalType":"uint256"},{"name":"withdrawGasFeeLimit","type":"uint256","internalType":"uint256"},{"name":"claimRewardsGasFeeLimit","type":"uint256","internalType":"uint256"}]},{"name":"tradeConfig","type":"tuple","internalType":"struct AppTradeConfig.TradeConfig","components":[{"name":"tradeTokens","type":"address[]","internalType":"address[]"},{"name":"tradeTokenConfigs","type":"tuple[]","internalType":"struct AppTradeTokenConfig.TradeTokenConfig[]","components":[{"name":"isSupportCollateral","type":"bool","internalType":"bool"},{"name":"precision","type":"uint256","internalType":"uint256"},{"name":"discount","type":"uint256","internalType":"uint256"},{"name":"collateralUserCap","type":"uint256","internalType":"uint256"},{"name":"collateralTotalCap","type":"uint256","internalType":"uint256"},{"name":"liabilityUserCap","type":"uint256","internalType":"uint256"},{"name":"liabilityTotalCap","type":"uint256","internalType":"uint256"},{"name":"interestRateFactor","type":"uint256","internalType":"uint256"},{"name":"liquidationFactor","type":"uint256","internalType":"uint256"}]},{"name":"minOrderMarginUSD","type":"uint256","internalType":"uint256"},{"name":"availableCollateralRatio","type":"uint256","internalType":"uint256"},{"name":"crossLtvLimit","type":"uint256","internalType":"uint256"},{"name":"maxMaintenanceMarginRate","type":"uint256","internalType":"uint256"},{"name":"fundingFeeBaseRate","type":"uint256","internalType":"uint256"},{"name":"maxFundingBaseRate","type":"uint256","internalType":"uint256"},{"name":"tradingFeeStakingRewardsRatio","type":"uint256","internalType":"uint256"},{"name":"tradingFeePoolRewardsRatio","type":"uint256","internalType":"uint256"},{"name":"tradingFeeUsdPoolRewardsRatio","type":"uint256","internalType":"uint256"},{"name":"borrowingFeeStakingRewardsRatio","type":"uint256","internalType":"uint256"},{"name":"borrowingFeePoolRewardsRatio","type":"uint256","internalType":"uint256"},{"name":"autoReduceProfitFactor","type":"uint256","internalType":"uint256"},{"name":"autoReduceLiquidityFactor","type":"uint256","internalType":"uint256"},{"name":"swapSlipperTokenFactor","type":"uint256","internalType":"uint256"}]},{"name":"stakeConfig","type":"tuple","internalType":"struct AppPoolConfig.StakeConfig","components":[{"name":"collateralProtectFactor","type":"uint256","internalType":"uint256"},{"name":"collateralFactor","type":"uint256","internalType":"uint256"},{"name":"minPrecisionMultiple","type":"uint256","internalType":"uint256"},{"name":"mintFeeStakingRewardsRatio","type":"uint256","internalType":"uint256"},{"name":"mintFeePoolRewardsRatio","type":"uint256","internalType":"uint256"},{"name":"redeemFeeStakingRewardsRatio","type":"uint256","internalType":"uint256"},{"name":"redeemFeePoolRewardsRatio","type":"uint256","internalType":"uint256"},{"name":"poolRewardsIntervalLimit","type":"uint256","internalType":"uint256"},{"name":"minApr","type":"uint256","internalType":"uint256"},{"name":"maxApr","type":"uint256","internalType":"uint256"}]},{"name":"uniswapRouter","type":"address","internalType":"address"}]}],"stateMutability":"view"},{"type":"function","name":"getPoolConfig","inputs":[{"name":"stakeToken","type":"address","internalType":"address"}],"outputs":[{"name":"","type":"tuple","internalType":"struct AppPoolConfig.LpPoolConfig","components":[{"name":"baseInterestRate","type":"uint256","internalType":"uint256"},{"name":"poolLiquidityLimit","type":"uint256","internalType":"uint256"},{"name":"mintFeeRate","type":"uint256","internalType":"uint256"},{"name":"redeemFeeRate","type":"uint256","internalType":"uint256"},{"name":"poolPnlRatioLimit","type":"uint256","internalType":"uint256"},{"name":"unsettledBaseTokenRatioLimit","type":"uint256","internalType":"uint256"},{"name":"unsettledStableTokenRatioLimit","type":"uint256","internalType":"uint256"},{"name":"poolStableTokenRatioLimit","type":"uint256","internalType":"uint256"},{"name":"poolStableTokenLossLimit","type":"uint256","internalType":"uint256"},{"name":"assetTokens","type":"address[]","internalType":"address[]"}]}],"stateMutability":"view"},{"type":"function","name":"getSymbolConfig","inputs":[{"name":"code","type":"bytes32","internalType":"bytes32"}],"outputs":[{"name":"","type":"tuple","internalType":"struct AppConfig.SymbolConfig","components":[{"name":"maxLeverage","type":"uint256","internalType":"uint256"},{"name":"tickSize","type":"uint256","internalType":"uint256"},{"name":"openFeeRate","type":"uint256","internalType":"uint256"},{"name":"closeFeeRate","type":"uint256","internalType":"uint256"},{"name":"maxLongOpenInterestCap","type":"uint256","internalType":"uint256"},{"name":"maxShortOpenInterestCap","type":"uint256","internalType":"uint256"},{"name":"longShortRatioLimit","type":"uint256","internalType":"uint256"},{"name":"longShortOiBottomLimit","type":"uint256","internalType":"uint256"}]}],"stateMutability":"view"},{"type":"function","name":"getUsdPoolConfig","inputs":[],"outputs":[{"name":"","type":"tuple","internalType":"struct AppPoolConfig.UsdPoolConfig","components":[{"name":"poolLiquidityLimit","type":"uint256","internalType":"uint256"},{"name":"mintFeeRate","type":"uint256","internalType":"uint256"},{"name":"redeemFeeRate","type":"uint256","internalType":"uint256"},{"name":"unsettledRatioLimit","type":"uint256","internalType":"uint256"},{"name":"supportStableTokens","type":"address[]","internalType":"address[]"},{"name":"stableTokensBorrowingInterestRate","type":"uint256[]","internalType":"uint256[]"}]}],"stateMutability":"view"},{"type":"function","name":"setConfig","inputs":[{"name":"params","type":"tuple","internalType":"struct IConfig.CommonConfigParams","components":[{"name":"chainConfig","type":"tuple","internalType":"struct AppConfig.ChainConfig","components":[{"name":"wrapperToken","type":"address","internalType":"address"},{"name":"mintGasFeeLimit","type":"uint256","internalType":"uint256"},{"name":"redeemGasFeeLimit","type":"uint256","internalType":"uint256"},{"name":"placeIncreaseOrderGasFeeLimit","type":"uint256","internalType":"uint256"},{"name":"placeDecreaseOrderGasFeeLimit","type":"uint256","internalType":"uint256"},{"name":"positionUpdateMarginGasFeeLimit","type":"uint256","internalType":"uint256"},{"name":"positionUpdateLeverageGasFeeLimit","type":"uint256","internalType":"uint256"},{"name":"withdrawGasFeeLimit","type":"uint256","internalType":"uint256"},{"name":"claimRewardsGasFeeLimit","type":"uint256","internalType":"uint256"}]},{"name":"tradeConfig","type":"tuple","internalType":"struct AppTradeConfig.TradeConfig","components":[{"name":"tradeTokens","type":"address[]","internalType":"address[]"},{"name":"tradeTokenConfigs","type":"tuple[]","internalType":"struct AppTradeTokenConfig.TradeTokenConfig[]","components":[{"name":"isSupportCollateral","type":"bool","internalType":"bool"},{"name":"precision","type":"uint256","internalType":"uint256"},{"name":"discount","type":"uint256","internalType":"uint256"},{"name":"collateralUserCap","type":"uint256","internalType":"uint256"},{"name":"collateralTotalCap","type":"uint256","internalType":"uint256"},{"name":"liabilityUserCap","type":"uint256","internalType":"uint256"},{"name":"liabilityTotalCap","type":"uint256","internalType":"uint256"},{"name":"interestRateFactor","type":"uint256","internalType":"uint256"},{"name":"liquidationFactor","type":"uint256","internalType":"uint256"}]},{"name":"minOrderMarginUSD","type":"uint256","internalType":"uint256"},{"name":"availableCollateralRatio","type":"uint256","internalType":"uint256"},{"name":"crossLtvLimit","type":"uint256","internalType":"uint256"},{"name":"maxMaintenanceMarginRate","type":"uint256","internalType":"uint256"},{"name":"fundingFeeBaseRate","type":"uint256","internalType":"uint256"},{"name":"maxFundingBaseRate","type":"uint256","internalType":"uint256"},{"name":"tradingFeeStakingRewardsRatio","type":"uint256","internalType":"uint256"},{"name":"tradingFeePoolRewardsRatio","type":"uint256","internalType":"uint256"},{"name":"tradingFeeUsdPoolRewardsRatio","type":"uint256","internalType":"uint256"},{"name":"borrowingFeeStakingRewardsRatio","type":"uint256","internalType":"uint256"},{"name":"borrowingFeePoolRewardsRatio","type":"uint256","internalType":"uint256"},{"name":"autoReduceProfitFactor","type":"uint256","internalType":"uint256"},{"name":"autoReduceLiquidityFactor","type":"uint256","internalType":"uint256"},{"name":"swapSlipperTokenFactor","type":"uint256","internalType":"uint256"}]},{"name":"stakeConfig","type":"tuple","internalType":"struct AppPoolConfig.StakeConfig","components":[{"name":"collateralProtectFactor","type":"uint256","internalType":"uint256"},{"name":"collateralFactor","type":"uint256","internalType":"uint256"},{"name":"minPrecisionMultiple","type":"uint256","internalType":"uint256"},{"name":"mintFeeStakingRewardsRatio","type":"uint256","internalType":"uint256"},{"name":"mintFeePoolRewardsRatio","type":"uint256","internalType":"uint256"},{"name":"redeemFeeStakingRewardsRatio","type":"uint256","internalType":"uint256"},{"name":"redeemFeePoolRewardsRatio","type":"uint256","internalType":"uint256"},{"name":"poolRewardsIntervalLimit","type":"uint256","internalType":"uint256"},{"name":"minApr","type":"uint256","internalType":"uint256"},{"name":"maxApr","type":"uint256","internalType":"uint256"}]},{"name":"uniswapRouter","type":"address","internalType":"address"}]}],"outputs":[],"stateMutability":"nonpayable"},{"type":"function","name":"setPoolConfig","inputs":[{"name":"params","type":"tuple","internalType":"struct IConfig.LpPoolConfigParams","components":[{"name":"stakeToken","type":"address","internalType":"address"},{"name":"config","type":"tuple","internalType":"struct AppPoolConfig.LpPoolConfig","components":[{"name":"baseInterestRate","type":"uint256","internalType":"uint256"},{"name":"poolLiquidityLimit","type":"uint256","internalType":"uint256"},{"name":"mintFeeRate","type":"uint256","internalType":"uint256"},{"name":"redeemFeeRate","type":"uint256","internalType":"uint256"},{"name":"poolPnlRatioLimit","type":"uint256","internalType":"uint256"},{"name":"unsettledBaseTokenRatioLimit","type":"uint256","internalType":"uint256"},{"name":"unsettledStableTokenRatioLimit","type":"uint256","internalType":"uint256"},{"name":"poolStableTokenRatioLimit","type":"uint256","internalType":"uint256"},{"name":"poolStableTokenLossLimit","type":"uint256","internalType":"uint256"},{"name":"assetTokens","type":"address[]","internalType":"address[]"}]}]}],"outputs":[],"stateMutability":"nonpayable"},{"type":"function","name":"setSymbolConfig","inputs":[{"name":"params","type":"tuple","internalType":"struct IConfig.SymbolConfigParams","components":[{"name":"symbol","type":"bytes32","internalType":"bytes32"},{"name":"config","type":"tuple","internalType":"struct AppConfig.SymbolConfig","components":[{"name":"maxLeverage","type":"uint256","internalType":"uint256"},{"name":"tickSize","type":"uint256","internalType":"uint256"},{"name":"openFeeRate","type":"uint256","internalType":"uint256"},{"name":"closeFeeRate","type":"uint256","internalType":"uint256"},{"name":"maxLongOpenInterestCap","type":"uint256","internalType":"uint256"},{"name":"maxShortOpenInterestCap","type":"uint256","internalType":"uint256"},{"name":"longShortRatioLimit","type":"uint256","internalType":"uint256"},{"name":"longShortOiBottomLimit","type":"uint256","internalType":"uint256"}]}]}],"outputs":[],"stateMutability":"nonpayable"},{"type":"function","name":"setUniswapRouter","inputs":[{"name":"router","type":"address","internalType":"address"}],"outputs":[],"stateMutability":"nonpayable"},{"type":"function","name":"setUsdPoolConfig","inputs":[{"name":"params","type":"tuple","internalType":"struct IConfig.UsdPoolConfigParams","components":[{"name":"config","type":"tuple","internalType":"struct AppPoolConfig.UsdPoolConfig","components":[{"name":"poolLiquidityLimit","type":"uint256","internalType":"uint256"},{"name":"mintFeeRate","type":"uint256","internalType":"uint256"},{"name":"redeemFeeRate","type":"uint256","internalType":"uint256"},{"name":"unsettledRatioLimit","type":"uint256","internalType":"uint256"},{"name":"supportStableTokens","type":"address[]","internalType":"address[]"},{"name":"stableTokensBorrowingInterestRate","type":"uint256[]","internalType":"uint256[]"}]}]}],"outputs":[],"stateMutability":"nonpayable"},{"type":"function","name":"setVaultConfig","inputs":[{"name":"params","type":"tuple","internalType":"struct IConfig.VaultConfigParams","components":[{"name":"lpVault","type":"address","internalType":"address"},{"name":"tradeVault","type":"address","internalType":"address"},{"name":"portfolioVault","type":"address","internalType":"address"}]}],"outputs":[],"stateMutability":"nonpayable"},{"type":"error","name":"InvalidRoleAccess","inputs":[{"name":"account","type":"address","internalType":"address"},{"name":"role","type":"bytes32","internalType":"bytes32"}]}],"bytecode":{"object":"0x6080604052348015600f57600080fd5b5061548f8061001f6000396000f3fe608060405234801561001057600080fd5b506004361061009e5760003560e01c806368b5f86b1161006657806368b5f86b1461010f578063bea9849e14610122578063c3f909d414610135578063e1be37bd1461014a578063f29486a1146101be57600080fd5b80632544cc2d146100a35780633b9d78fc146100b85780634ee37b1c146100cb5780634f42ce05146100de578063659d67bb146100fc575b600080fd5b6100b66100b13660046141c2565b6101de565b005b6100b66100c63660046141fd565b610204565b6100b66100d9366004614216565b61022d565b6100e6610250565b6040516100f39190614295565b60405180910390f35b6100b661010a366004614325565b610265565b6100b661011d366004614337565b61028e565b6100b661013036600461438d565b6102b1565b61013d6102cc565b6040516100f391906144ff565b61015d610158366004614617565b6102dc565b6040516100f39190600061010082019050825182526020830151602083015260408301516040830152606083015160608301526080830151608083015260a083015160a083015260c083015160c083015260e083015160e083015292915050565b6101d16101cc36600461438d565b6102f3565b6040516100f39190614630565b6101f065434f4e46494760d01b610304565b6102016101fc82614b1a565b610338565b50565b61021665434f4e46494760d01b610304565b61020161022836839003830183614c08565b61036a565b61023f65434f4e46494760d01b610304565b61020161024b82614d03565b61037c565b610258613ecd565b6102606103a9565b905090565b61027765434f4e46494760d01b610304565b61020161028936839003830183614dc6565b6103b9565b6102a065434f4e46494760d01b610304565b6102016102ac82614e31565b6103de565b6102c365434f4e46494760d01b610304565b610201816103f0565b6102d4613f03565b6102606103f9565b6102e4613f3d565b6102ed8261043e565b92915050565b6102fb613f82565b6102ed8261044f565b61030e3382610460565b61020157604051632d7d0e0d60e21b81523360048201526024810182905260440160405180910390fd5b805161034390610498565b610350816020015161098d565b61035d8160400151611341565b61020181606001516116ac565b6102018160000151826020015161177a565b805161038790611b60565b6000610391611d71565b8251608001519091506103a5908290611dd3565b5050565b6103b1613ecd565b610260611e17565b80516103c4906120f2565b6103d18160200151612148565b61020181604001516121a1565b610201816000015182602001516121fe565b610201816116ac565b610401613f03565b6104096125e1565b8152610413612852565b6020820152610420612cdf565b604082015261042d612fed565b6001600160a01b0316606082015290565b610446613f3d565b6102ed826130c7565b610457613f82565b6102ed8261339c565b60008061046b613687565b6001600160a01b038516600090815260208290526040902090915061049090846136cb565b949350505050565b6000806040516020016104cb906020808252600c908201526b434841494e5f434f4e46494760a01b604082015260600190565b60405160208183030381529060405280519060200120905061056a81604051602001610518906020808252600d908201526c2ba920a82822a92faa27a5a2a760991b604082015260600190565b60405160208183030381529060405280519060200120604051602001610548929190918252602082015260400190565b60408051601f19818403018152919052805160209091012084518491906136e6565b6105ff816040516020016105a4906020808252601290820152711352539517d1d054d7d1915157d31253525560721b604082015260600190565b604051602081830303815290604052805190602001206040516020016105d4929190918252602082015260400190565b604051602081830303815290604052805190602001208460200151846137179092919063ffffffff16565b6106968160405160200161063b9060208082526014908201527314915111515357d1d054d7d1915157d31253525560621b604082015260600190565b6040516020818303038152906040528051906020012060405160200161066b929190918252602082015260400190565b604051602081830303815290604052805190602001208460400151846137179092919063ffffffff16565b610704816040516020016106a990614f1a565b604051602081830303815290604052805190602001206040516020016106d9929190918252602082015260400190565b604051602081830303815290604052805190602001208460600151846137179092919063ffffffff16565b6107728160405160200161071790614f5c565b60405160208183030381529060405280519060200120604051602001610747929190918252602082015260400190565b604051602081830303815290604052805190602001208460800151846137179092919063ffffffff16565b6107e08160405160200161078590614f9e565b604051602081830303815290604052805190602001206040516020016107b5929190918252602082015260400190565b604051602081830303815290604052805190602001208460a00151846137179092919063ffffffff16565b61084e816040516020016107f390614fe2565b60405160208183030381529060405280519060200120604051602001610823929190918252602082015260400190565b604051602081830303815290604052805190602001208460c00151846137179092919063ffffffff16565b6108e78160405160200161088c9060208082526016908201527515d2551211149055d7d1d054d7d1915157d31253525560521b604082015260600190565b604051602081830303815290604052805190602001206040516020016108bc929190918252602082015260400190565b604051602081830303815290604052805190602001208460e00151846137179092919063ffffffff16565b6109888160405160200161092c906020808252601b908201527f434c41494d5f524557415244535f4741535f4645455f4c494d49540000000000604082015260600190565b6040516020818303038152906040528051906020012060405160200161095c929190918252602082015260400190565b60405160208183030381529060405280519060200120846101000151846137179092919063ffffffff16565b505050565b6000806040516020016109c0906020808252600c908201526b54524144455f434f4e46494760a01b604082015260600190565b6040516020818303038152906040528051906020012090506000610a42826040516020016109ed90615028565b60405160208183030381529060405280519060200120604051602001610a1d929190918252602082015260400190565b604051602081830303815290604052805190602001208461372990919063ffffffff16565b905060005b8151811015610a7a57610a72828281518110610a6557610a6561504e565b6020026020010151613798565b600101610a47565b50610ae082604051602001610a8e90615028565b60405160208183030381529060405280519060200120604051602001610abe929190918252602082015260400190565b60408051601f1981840301815291905280516020909101208551859190613931565b60005b845151811015610b3957610b3185600001518281518110610b0657610b0661504e565b602002602001015186602001518381518110610b2457610b2461504e565b6020026020010151613952565b600101610ae3565b50610bd182604051602001610b769060208082526014908201527313525397d3d491115497d3505491d25397d554d160621b604082015260600190565b60405160208183030381529060405280519060200120604051602001610ba6929190918252602082015260400190565b604051602081830303815290604052805190602001208560400151856137179092919063ffffffff16565b610c7182604051602001610c16906020808252601a908201527f415641494c41424c455f434f4c4c41544552414c5f524154494f000000000000604082015260600190565b60405160208183030381529060405280519060200120604051602001610c46929190918252602082015260400190565b604051602081830303815290604052805190602001208560600151856137179092919063ffffffff16565b610d0382604051602001610ca8906020808252600f908201526e10d493d4d4d7d3151597d312535255608a1b604082015260600190565b60405160208183030381529060405280519060200120604051602001610cd8929190918252602082015260400190565b604051602081830303815290604052805190602001208560800151856137179092919063ffffffff16565b610da382604051602001610d48906020808252601b908201527f4d41585f4d41494e54454e414e43455f4d415247494e5f524154450000000000604082015260600190565b60405160208183030381529060405280519060200120604051602001610d78929190918252602082015260400190565b604051602081830303815290604052805190602001208560a00151856137179092919063ffffffff16565b610e3b82604051602001610de09060208082526015908201527446554e44494e475f4645455f424153455f5241544560581b604082015260600190565b60405160208183030381529060405280519060200120604051602001610e10929190918252602082015260400190565b604051602081830303815290604052805190602001208560c00151856137179092919063ffffffff16565b610ed382604051602001610e78906020808252601590820152744d41585f46554e44494e475f424153455f5241544560581b604082015260600190565b60405160208183030381529060405280519060200120604051602001610ea8929190918252602082015260400190565b604051602081830303815290604052805190602001208560e00151856137179092919063ffffffff16565b610f4282604051602001610ee690615064565b60405160208183030381529060405280519060200120604051602001610f16929190918252602082015260400190565b60405160208183030381529060405280519060200120856101000151856137179092919063ffffffff16565b610fe382604051602001610f87906020808252601e908201527f54524144494e475f4645455f504f4f4c5f524557415244535f524154494f0000604082015260600190565b60405160208183030381529060405280519060200120604051602001610fb7929190918252602082015260400190565b60405160208183030381529060405280519060200120856101200151856137179092919063ffffffff16565b61105282604051602001610ff6906150a5565b60405160208183030381529060405280519060200120604051602001611026929190918252602082015260400190565b60405160208183030381529060405280519060200120856101400151856137179092919063ffffffff16565b6110c182604051602001611065906150e7565b60405160208183030381529060405280519060200120604051602001611095929190918252602082015260400190565b60405160208183030381529060405280519060200120856101600151856137179092919063ffffffff16565b61116082604051602001611104906020808252818101527f424f52524f57494e475f4645455f504f4f4c5f524557415244535f524154494f604082015260600190565b60405160208183030381529060405280519060200120604051602001611134929190918252602082015260400190565b60405160208183030381529060405280519060200120856101800151856137179092919063ffffffff16565b6111fd826040516020016111a19060208082526019908201527820aaaa27afa922a22aa1a2afa82927a324aa2fa320a1aa27a960391b604082015260600190565b604051602081830303815290604052805190602001206040516020016111d1929190918252602082015260400190565b60405160208183030381529060405280519060200120856101a00151856137179092919063ffffffff16565b61129e82604051602001611242906020808252601c908201527f4155544f5f5245445543455f4c49515549444954595f464143544f5200000000604082015260600190565b60405160208183030381529060405280519060200120604051602001611272929190918252602082015260400190565b60405160208183030381529060405280519060200120856101c00151856137179092919063ffffffff16565b61133b826040516020016112df9060208082526019908201527829aba0a82fa9a624a82822a92faa27a5a2a72fa320a1aa27a960391b604082015260600190565b6040516020818303038152906040528051906020012060405160200161130f929190918252602082015260400190565b60405160208183030381529060405280519060200120856101e00151856137179092919063ffffffff16565b50505050565b600080604051602001611374906020808252600c908201526b5354414b455f434f4e46494760a01b604082015260600190565b604051602081830303815290604052805190602001209050611424816040516020016113cd9060208082526019908201527821a7a62620aa22a920a62fa82927aa22a1aa2fa320a1aa27a960391b604082015260600190565b604051602081830303815290604052805190602001206040516020016113fd929190918252602082015260400190565b60408051808303601f19018152918152815160209283012086516000918252928690522055565b61145d816040516020016105a49060208082526011908201527021a7a62620aa22a920a62fa320a1aa27a960791b604082015260600190565b61149b8160405160200161063b906020808252601690820152754d494e5f505245434953494f4e5f4d554c5449504c4560501b604082015260600190565b6114e0816040516020016106a9906020808252601e908201527f4d494e545f4645455f5354414b494e475f524557415244535f524154494f0000604082015260600190565b61152581604051602001610717906020808252601b908201527f4d494e545f4645455f504f4f4c5f524557415244535f524154494f0000000000604082015260600190565b61156881604051602001610785906020808252818101527f52454445454d5f4645455f5354414b494e475f524557415244535f524154494f604082015260600190565b6115ad816040516020016107f3906020808252601d908201527f52454445454d5f4645455f504f4f4c5f524557415244535f524154494f000000604082015260600190565b6115f28160405160200161088c906020808252601b908201527f504f4f4c5f524557415244535f494e54455256414c5f4c494d49540000000000604082015260600190565b6116218160405160200161092c9060208082526007908201526626a4a72fa0a82960c91b604082015260600190565b610988816040516020016116509060208082526007908201526626a0ac2fa0a82960c91b604082015260600190565b60405160208183030381529060405280519060200120604051602001611680929190918252602082015260400190565b60405160208183030381529060405280519060200120846101200151846137179092919063ffffffff16565b60006103a56040516020016116e2906020808252600d908201526c434f4d4d4f4e5f434f4e46494760981b604082015260600190565b6040516020818303038152906040528051906020012060405160200161172a906020808252600e908201526d2aa724a9aba0a82fa927aaaa22a960911b604082015260600190565b6040516020818303038152906040528051906020012060405160200161175a929190918252602082015260400190565b60408051601f1981840301815291905280516020909101208290846136e6565b6000806040516020016117ae906020808252600d908201526c53594d424f4c5f434f4e46494760981b604082015260600190565b60408051601f19818403018152919052805160209091012090506117d3828286613a9d565b61183d8185604051602001611808906020808252600c908201526b4d41585f4c4556455241474560a01b604082015260600190565b60408051601f1981840301815282825280516020918201209083019490945281019190915260608101919091526080016113fd565b6118a4818560405160200161186f906020808252600990820152685449434b5f53495a4560b81b604082015260600190565b60408051601f1981840301815282825280516020918201209083019490945281019190915260608101919091526080016105d4565b61190f81856040516020016118da906020808252600d908201526c4f50454e5f4645455f5241544560981b604082015260600190565b60408051601f19818403018152828252805160209182012090830194909452810191909152606081019190915260800161066b565b61197b8185604051602001611946906020808252600e908201526d434c4f53455f4645455f5241544560901b604082015260600190565b60408051601f1981840301815282825280516020918201209083019490945281019190915260608101919091526080016106d9565b6119f681856040516020016119c1906020808252601a908201527f4d41585f4c4f4e475f4f50454e5f494e5445524553545f434150000000000000604082015260600190565b60408051601f198184030181528282528051602091820120908301949094528101919091526060810191909152608001610747565b611a718185604051602001611a3c906020808252601b908201527f4d41585f53484f52545f4f50454e5f494e5445524553545f4341500000000000604082015260600190565b60408051601f1981840301815282825280516020918201209083019490945281019190915260608101919091526080016107b5565b611ae58185604051602001611ab0906020808252601690820152751313d391d7d4d213d49517d490551253d7d31253525560521b604082015260600190565b60408051601f198184030181528282528051602091820120908301949094528101919091526060810191909152608001610823565b61133b8185604051602001611b2b906020808252601a908201527f4c4f4e475f53484f52545f4f495f424f54544f4d5f4c494d4954000000000000604082015260600190565b60408051601f1981840301815282825280516020918201209083019490945281019190915260608101919091526080016108bc565b600080604051602001611b96906020808252600f908201526e5553445f504f4f4c5f434f4e46494760881b604082015260600190565b604051602081830303815290604052805190602001209050611bc1816040516020016113cd9061512a565b611bd4816040516020016105a490615158565b611be78160405160200161063b9061517f565b611c24816040516020016106a990602080825260159082015274155394d1551513115117d490551253d7d312535255605a1b604082015260600190565b611cbc81604051602001611c6190602080825260159082015274535550504f52545f535441424c455f544f4b454e5360581b604082015260600190565b60405160208183030381529060405280519060200120604051602001611c91929190918252602082015260400190565b604051602081830303815290604052805190602001208460800151846139319092919063ffffffff16565b60005b83608001515181101561133b57611d698285608001518381518110611ce657611ce661504e565b6020026020010151604051602001611cfd906151a8565b60405160208183030381529060405280519060200120604051602001611d25939291906151ed565b604051602081830303815290604052805190602001208560a001518381518110611d5157611d5161504e565b6020026020010151856137179092919063ffffffff16565b600101611cbf565b600080604051602001611db59060208082526018908201527f78797a2e656c66692e73746f726167652e557364506f6f6c0000000000000000604082015260600190565b60408051601f19818403018152919052805160209091012092915050565b60005b815181101561098857611e0e828281518110611df457611df461504e565b602002602001015184600001613ab790919063ffffffff16565b50600101611dd6565b611e1f613ecd565b600080604051602001611e55906020808252600f908201526e5553445f504f4f4c5f434f4e46494760881b604082015260600190565b604051602081830303815290604052805190602001209050611ed581604051602001611e809061512a565b60405160208183030381529060405280519060200120604051602001611eb0929190918252602082015260400190565b6040516020818303038152906040528051906020012083613acc90919063ffffffff16565b8352604051611eec908290611e8090602001615158565b836020018181525050611f0881604051602001611e809061517f565b836040018181525050611f4e81604051602001611e8090602080825260159082015274155394d1551513115117d490551253d7d312535255605a1b604082015260600190565b6060840152604051611fe7908290611f9290602001602080825260159082015274535550504f52545f535441424c455f544f4b454e5360581b604082015260600190565b60405160208183030381529060405280519060200120604051602001611fc2929190918252602082015260400190565b604051602081830303815290604052805190602001208361372990919063ffffffff16565b60808401819052516001600160401b03811115612006576120066146b3565b60405190808252806020026020018201604052801561202f578160200160208202803683370190505b5060a084015260005b8360800151518110156120ec576120c3828560800151838151811061205f5761205f61504e565b6020026020010151604051602001612076906151a8565b6040516020818303038152906040528051906020012060405160200161209e939291906151ed565b6040516020818303038152906040528051906020012084613acc90919063ffffffff16565b8460a0015182815181106120d9576120d961504e565b6020908102919091010152600101612038565b50505090565b60006103a56040516020016121069061520c565b6040516020818303038152906040528051906020012060405160200161172a90602080825260089082015267131417d59055531560c21b604082015260600190565b60006103a560405160200161215c9061520c565b6040516020818303038152906040528051906020012060405160200161172a906020808252600b908201526a151490511157d59055531560aa1b604082015260600190565b60006103a56040516020016121b59061520c565b6040516020818303038152906040528051906020012060405160200161172a906020808252600f908201526e1413d4951193d31253d7d590555315608a1b604082015260600190565b600080604051602001612233906020808252600e908201526d4c505f504f4f4c5f434f4e46494760901b604082015260600190565b60408051601f1981840301815291905280516020909101209050612258828286613adf565b6122bb818560405160200161229390602080825260129082015271424153455f494e5445524553545f5241544560701b604082015260600190565b604051602081830303815290604052805190602001206040516020016113fd939291906151ed565b6122f781856040516020016122cf9061512a565b604051602081830303815290604052805190602001206040516020016105d4939291906151ed565b612333818560405160200161230b90615158565b6040516020818303038152906040528051906020012060405160200161066b939291906151ed565b61236f81856040516020016123479061517f565b604051602081830303815290604052805190602001206040516020016106d9939291906151ed565b6123d481856040516020016123ac906020808252601490820152731413d3d317d4139317d490551253d7d31253525560621b604082015260600190565b60405160208183030381529060405280519060200120604051602001610747939291906151ed565b6124408185604051602001612418906020808252818101527f554e534554544c45445f424153455f544f4b454e5f524154494f5f4c494d4954604082015260600190565b604051602081830303815290604052805190602001206040516020016107b5939291906151ed565b61247c818560405160200161245490615232565b60405160208183030381529060405280519060200120604051602001610823939291906151ed565b6124ea81856040516020016124c2906020808252601d908201527f504f4f4c5f535441424c455f544f4b454e5f524154494f5f4c494d4954000000604082015260600190565b604051602081830303815290604052805190602001206040516020016108bc939291906151ed565b6125588185604051602001612530906020808252601c908201527f504f4f4c5f535441424c455f544f4b454e5f4c4f53535f4c494d495400000000604082015260600190565b6040516020818303038152906040528051906020012060405160200161095c939291906151ed565b61133b818560405160200161258d906020808252600c908201526b41535345545f544f4b454e5360a01b604082015260600190565b604051602081830303815290604052805190602001206040516020016125b5939291906151ed565b60405160208183030381529060405280519060200120846101200151846139319092919063ffffffff16565b6125e9613fd5565b60008060405160200161261c906020808252600c908201526b434841494e5f434f4e46494760a01b604082015260600190565b6040516020818303038152906040528051906020012090506126be81604051602001612669906020808252600d908201526c2ba920a82822a92faa27a5a2a760991b604082015260600190565b60405160208183030381529060405280519060200120604051602001612699929190918252602082015260400190565b6040516020818303038152906040528051906020012083613af990919063ffffffff16565b6001600160a01b03168352604051612705908290611e80906020016020808252601290820152711352539517d1d054d7d1915157d31253525560721b604082015260600190565b83602001818152505061274a81604051602001611e809060208082526014908201527314915111515357d1d054d7d1915157d31253525560621b604082015260600190565b83604001818152505061276681604051602001611e8090614f1a565b6060840152604051612780908290611e8090602001614f5c565b608084015260405161279a908290611e8090602001614f9e565b60a08401526040516127b4908290611e8090602001614fe2565b60c08401526040516127f9908290611e809060200160208082526016908201527515d2551211149055d7d1d054d7d1915157d31253525560521b604082015260600190565b60e0840152604051612845908290611e80906020016020808252601b908201527f434c41494d5f524557415244535f4741535f4645455f4c494d49540000000000604082015260600190565b6101008401525090919050565b61285a61402a565b60008060405160200161288d906020808252600c908201526b54524144455f434f4e46494760a01b604082015260600190565b6040516020818303038152906040528051906020012090506128b881604051602001611f9290615028565b808452516001600160401b038111156128d3576128d36146b3565b60405190808252806020026020018201604052801561290c57816020015b6128f96140a7565b8152602001906001900390816128f15790505b50602084015260005b83515181101561296e57612945846000015182815181106129385761293861504e565b6020026020010151613b18565b8460200151828151811061295b5761295b61504e565b6020908102919091010152600101612915565b506129ab81604051602001611e809060208082526014908201527313525397d3d491115497d3505491d25397d554d160621b604082015260600190565b8360400181815250506129f981604051602001611e80906020808252601a908201527f415641494c41424c455f434f4c4c41544552414c5f524154494f000000000000604082015260600190565b6060840152604051612a37908290611e80906020016020808252600f908201526e10d493d4d4d7d3151597d312535255608a1b604082015260600190565b6080840152604051612a83908290611e80906020016020808252601b908201527f4d41585f4d41494e54454e414e43455f4d415247494e5f524154450000000000604082015260600190565b60a0840152604051612ac7908290611e809060200160208082526015908201527446554e44494e475f4645455f424153455f5241544560581b604082015260600190565b60c0840152604051612b0b908290611e80906020016020808252601590820152744d41585f46554e44494e475f424153455f5241544560581b604082015260600190565b60e0840152604051612b25908290611e8090602001615064565b610100840152604051612b72908290611e80906020016020808252601e908201527f54524144494e475f4645455f504f4f4c5f524557415244535f524154494f0000604082015260600190565b610120840152604051612b8d908290611e80906020016150a5565b610140840152604051612ba8908290611e80906020016150e7565b610160840152604051612bf3908290611e80906020016020808252818101527f424f52524f57494e475f4645455f504f4f4c5f524557415244535f524154494f604082015260600190565b610180840152604051612c3c908290611e809060200160208082526019908201527820aaaa27afa922a22aa1a2afa82927a324aa2fa320a1aa27a960391b604082015260600190565b6101a0840152604051612c89908290611e80906020016020808252601c908201527f4155544f5f5245445543455f4c49515549444954595f464143544f5200000000604082015260600190565b6101c0840152604051612cd2908290611e809060200160208082526019908201527829aba0a82fa9a624a82822a92faa27a5a2a72fa320a1aa27a960391b604082015260600190565b6101e08401525090919050565b612ce76140f5565b600080604051602001612d1a906020808252600c908201526b5354414b455f434f4e46494760a01b604082015260600190565b604051602081830303815290604052805190602001209050612d7381604051602001611e809060208082526019908201527821a7a62620aa22a920a62fa82927aa22a1aa2fa320a1aa27a960391b604082015260600190565b8352604051612db0908290611e809060200160208082526011908201527021a7a62620aa22a920a62fa320a1aa27a960791b604082015260600190565b836020018181525050612df781604051602001611e80906020808252601690820152754d494e5f505245434953494f4e5f4d554c5449504c4560501b604082015260600190565b836040018181525050612e4581604051602001611e80906020808252601e908201527f4d494e545f4645455f5354414b494e475f524557415244535f524154494f0000604082015260600190565b6060840152604051612e91908290611e80906020016020808252601b908201527f4d494e545f4645455f504f4f4c5f524557415244535f524154494f0000000000604082015260600190565b6080840152604051612edb908290611e80906020016020808252818101527f52454445454d5f4645455f5354414b494e475f524557415244535f524154494f604082015260600190565b60a0840152604051612f27908290611e80906020016020808252601d908201527f52454445454d5f4645455f504f4f4c5f524557415244535f524154494f000000604082015260600190565b60c0840152604051612f73908290611e80906020016020808252601b908201527f504f4f4c5f524557415244535f494e54455256414c5f4c494d49540000000000604082015260600190565b60e0840152604051612fa9908290611e809060200160208082526007908201526626a4a72fa0a82960c91b604082015260600190565b610100840152604051612fe0908290611e809060200160208082526007908201526626a0ac2fa0a82960c91b604082015260600190565b6101208401525090919050565b6000806130c1604051602001613024906020808252600d908201526c434f4d4d4f4e5f434f4e46494760981b604082015260600190565b6040516020818303038152906040528051906020012060405160200161306c906020808252600e908201526d2aa724a9aba0a82fa927aaaa22a960911b604082015260600190565b6040516020818303038152906040528051906020012060405160200161309c929190918252602082015260400190565b6040516020818303038152906040528051906020012082613af990919063ffffffff16565b91505090565b6130cf613f3d565b6130d7613f3d565b60008060405160200161310b906020808252600d908201526c53594d424f4c5f434f4e46494760981b604082015260600190565b60408051601f1981840301815291905280516020909101209050613130828287613cbd565b61313d5750909392505050565b6131a78186604051602001613172906020808252600c908201526b4d41585f4c4556455241474560a01b604082015260600190565b60408051601f198184030181528282528051602091820120908301949094528101919091526060810191909152608001611eb0565b83526040516131de9082908790613172906020016020808252600990820152685449434b5f53495a4560b81b604082015260600190565b83602001818152505061321d8186604051602001613172906020808252600d908201526c4f50454e5f4645455f5241544560981b604082015260600190565b83604001818152505061325d8186604051602001613172906020808252600e908201526d434c4f53455f4645455f5241544560901b604082015260600190565b60608401526040516132ab9082908790613172906020016020808252601a908201527f4d41585f4c4f4e475f4f50454e5f494e5445524553545f434150000000000000604082015260600190565b60808401526040516132f99082908790613172906020016020808252601b908201527f4d41585f53484f52545f4f50454e5f494e5445524553545f4341500000000000604082015260600190565b60a08401526040516133409082908790613172906020016020808252601690820152751313d391d7d4d213d49517d490551253d7d31253525560521b604082015260600190565b60c084015260405161338e9082908790613172906020016020808252601a908201527f4c4f4e475f53484f52545f4f495f424f54544f4d5f4c494d4954000000000000604082015260600190565b60e084015250909392505050565b6133a4613f82565b6133ac613f82565b6000806040516020016133e1906020808252600e908201526d4c505f504f4f4c5f434f4e46494760901b604082015260600190565b60408051601f1981840301815291905280516020909101209050613406828287613cd7565b6134135750909392505050565b613476818660405160200161344e90602080825260129082015271424153455f494e5445524553545f5241544560701b604082015260600190565b60405160208183030381529060405280519060200120604051602001611eb0939291906151ed565b835260405161348f908290879061344e9060200161512a565b8360200181815250506134ac818660405160200161344e90615158565b8360400181815250506134c9818660405160200161344e9061517f565b606084015260405161350e908290879061344e906020016020808252601490820152731413d3d317d4139317d490551253d7d31253525560621b604082015260600190565b608084015260405161355a908290879061344e906020016020808252818101527f554e534554544c45445f424153455f544f4b454e5f524154494f5f4c494d4954604082015260600190565b60a0840152604051613576908290879061344e90602001615232565b60c08401526040516135c4908290879061344e906020016020808252601d908201527f504f4f4c5f535441424c455f544f4b454e5f524154494f5f4c494d4954000000604082015260600190565b60e0840152604051613612908290879061344e906020016020808252601c908201527f504f4f4c5f535441424c455f544f4b454e5f4c4f53535f4c494d495400000000604082015260600190565b6101008401526040516136789082908790613650906020016020808252600c908201526b41535345545f544f4b454e5360a01b604082015260600190565b60405160208183030381529060405280519060200120604051602001611fc2939291906151ed565b61012084015250909392505050565b600080604051602001611db5906020808252601e908201527f78797a2e656c66692e73746f726167652e416363657373436f6e74726f6c0000604082015260600190565b600081815260018301602052604081205415155b9392505050565b60009182526002929092016020526040902080546001600160a01b0319166001600160a01b03909216919091179055565b60009182526020929092526040902055565b600081815260088301602090815260409182902080548351818402810184019094528084526060939283018282801561378b57602002820191906000526020600020905b81546001600160a01b0316815260019091019060200180831161376d575b5050505050905092915050565b6000806040516020016137aa90615274565b60408051601f19818403018152919052805160209091012090506137cf828285613cd7565b6137d857505050565b6137e3828285613cf1565b61384481846040516020016137f7906152a0565b6040516020818303038152906040528051906020012060405160200161381f939291906151ed565b6040516020818303038152906040528051906020012083613d0b90919063ffffffff16565b6138a58184604051602001613858906152cf565b60405160208183030381529060405280519060200120604051602001613880939291906151ed565b6040516020818303038152906040528051906020012083613d2690919063ffffffff16565b6138b98184604051602001613858906152f2565b6138cd818460405160200161385890615314565b6138e1818460405160200161385890615341565b6138f581846040516020016138589061536f565b61390981846040516020016138589061539b565b61391d8184604051602001613858906153c8565b6109888184604051602001613858906153f6565b60008281526008840160209081526040909120825161133b92840190614148565b60008060405160200161396490615274565b60408051601f1981840301815291905280516020909101209050613989828286613adf565b6139fd818560405160200161399d906152a0565b604051602081830303815290604052805190602001206040516020016139c5939291906151ed565b60408051601f198184030181529181528151602092830120865160009182526003870190935220805460ff1916911515919091179055565b613a1181856040516020016122cf906152cf565b613a25818560405160200161230b906152f2565b613a39818560405160200161234790615314565b613a4d81856040516020016123ac90615341565b613a6181856040516020016124189061536f565b613a7581856040516020016124549061539b565b613a8981856040516020016124c2906153c8565b61133b8185604051602001612530906153f6565b6000828152600d84016020526040902061133b9082613d38565b60006136df836001600160a01b038416613d40565b6000908152602091909152604090205490565b6000828152600c84016020526040902061133b9082613ab7565b600090815260029190910160205260409020546001600160a01b031690565b613b206140a7565b613b286140a7565b600080604051602001613b3a90615274565b60408051601f1981840301815291905280516020909101209050613b5f828287613cd7565b613b6c5750909392505050565b613bcd8186604051602001613b80906152a0565b60405160208183030381529060405280519060200120604051602001613ba8939291906151ed565b6040516020818303038152906040528051906020012083613d8f90919063ffffffff16565b15158352604051613be8908290879061344e906020016152cf565b836020018181525050613c05818660405160200161344e906152f2565b836040018181525050613c22818660405160200161344e90615314565b6060840152604051613c3e908290879061344e90602001615341565b6080840152604051613c5a908290879061344e9060200161536f565b60a0840152604051613c76908290879061344e9060200161539b565b60c0840152604051613c92908290879061344e906020016153c8565b60e0840152604051613cae908290879061344e906020016153f6565b61010084015250909392505050565b6000828152600d84016020526040812061049090836136cb565b6000828152600c8401602052604081206104909083613da8565b6000828152600c84016020526040902061133b9082613dca565b6000908152600390910160205260409020805460ff19169055565b60009081526020919091526040812055565b60006136df83835b6000818152600183016020526040812054613d87575081546001818101845560008481526020808220909301849055845484825282860190935260409020919091556102ed565b5060006102ed565b6000908152600391909101602052604090205460ff1690565b6001600160a01b038116600090815260018301602052604081205415156136df565b60006136df836001600160a01b03841660008181526001830160205260408120548015613ec3576000613dfe600183615422565b8554909150600090613e1290600190615422565b9050818114613e77576000866000018281548110613e3257613e3261504e565b9060005260206000200154905080876000018481548110613e5557613e5561504e565b6000918252602080832090910192909255918252600188019052604090208390555b8554869080613e8857613e88615443565b6001900381819060005260206000200160009055905585600101600086815260200190815260200160002060009055600193505050506102ed565b60009150506102ed565b6040518060c001604052806000815260200160008152602001600081526020016000815260200160608152602001606081525090565b6040518060800160405280613f16613fd5565b8152602001613f2361402a565b8152602001613f306140f5565b8152600060209091015290565b60405180610100016040528060008152602001600081526020016000815260200160008152602001600081526020016000815260200160008152602001600081525090565b604051806101400160405280600081526020016000815260200160008152602001600081526020016000815260200160008152602001600081526020016000815260200160008152602001606081525090565b60405180610120016040528060006001600160a01b0316815260200160008152602001600081526020016000815260200160008152602001600081526020016000815260200160008152602001600081525090565b604051806102000160405280606081526020016060815260200160008152602001600081526020016000815260200160008152602001600081526020016000815260200160008152602001600081526020016000815260200160008152602001600081526020016000815260200160008152602001600081525090565b60405180610120016040528060001515815260200160008152602001600081526020016000815260200160008152602001600081526020016000815260200160008152602001600081525090565b604051806101400160405280600081526020016000815260200160008152602001600081526020016000815260200160008152602001600081526020016000815260200160008152602001600081525090565b82805482825590600052602060002090810192821561419d579160200282015b8281111561419d57825182546001600160a01b0319166001600160a01b03909116178255602090920191600190910190614168565b506141a99291506141ad565b5090565b5b808211156141a957600081556001016141ae565b6000602082840312156141d457600080fd5b81356001600160401b038111156141ea57600080fd5b82016102a081850312156136df57600080fd5b6000610120828403121561421057600080fd5b50919050565b60006020828403121561422857600080fd5b81356001600160401b0381111561423e57600080fd5b8201602081850312156136df57600080fd5b60008151808452602080850194506020840160005b8381101561428a5781516001600160a01b031687529582019590820190600101614265565b509495945050505050565b600060208083528351818401528084015160408401526040840151606084015260608401516080840152608084015160c060a08501526142d860e0850182614250565b60a0860151858203601f190160c0870152805180835290840192506000918401905b8083101561431a57835182529284019260019290920191908401906142fa565b509695505050505050565b60006060828403121561421057600080fd5b60006020828403121561434957600080fd5b81356001600160401b0381111561435f57600080fd5b8201604081850312156136df57600080fd5b80356001600160a01b038116811461438857600080fd5b919050565b60006020828403121561439f57600080fd5b6136df82614371565b60008151808452602080850194506020840160005b8381101561428a578151805115158852838101518489015260408082015190890152606080820151908901526080808201519089015260a0808201519089015260c0808201519089015260e08082015190890152610100908101519088015261012090960195908201906001016143bd565b6000610200825181855261444582860182614250565b9150506020830151848203602086015261445f82826143a8565b60408581015190870152606080860151908701526080808601519087015260a0808601519087015260c0808601519087015260e08086015190870152610100808601519087015261012080860151908701526101408086015190870152610160808601519087015261018080860151908701526101a080860151908701526101c080860151908701526101e0948501519490950193909352509192915050565b602081526000825160018060a01b038151166020840152602081015160408401526040810151606084015260608101516080840152608081015160a084015260a081015160c084015260c081015160e084015260e081015161010081818601528083015161012086015250505060208301516102a0806101408501526145896102c085018361442f565b60408681015180516101608801526020810151610180880152908101516101a08701526060808201516101c088015260808201516101e088015260a082015161020088015260c082015161022088015260e082015161024088015261010082015161026088015261012090910151610280870152909501516001600160a01b03169301929092525090919050565b60006020828403121561462957600080fd5b5035919050565b6020815281516020820152602082015160408201526040820151606082015260608201516080820152608082015160a082015260a082015160c082015260c082015160e0820152600060e0830151610100818185015280850151915050610120818185015280850151915050610140808185015250610490610160840182614250565b634e487b7160e01b600052604160045260246000fd5b60405161012081016001600160401b03811182821017156146ec576146ec6146b3565b60405290565b60405161020081016001600160401b03811182821017156146ec576146ec6146b3565b60405161014081016001600160401b03811182821017156146ec576146ec6146b3565b604051608081016001600160401b03811182821017156146ec576146ec6146b3565b604080519081016001600160401b03811182821017156146ec576146ec6146b3565b60405161010081016001600160401b03811182821017156146ec576146ec6146b3565b604051602081016001600160401b03811182821017156146ec576146ec6146b3565b60405160c081016001600160401b03811182821017156146ec576146ec6146b3565b604051601f8201601f191681016001600160401b038111828210171561480b5761480b6146b3565b604052919050565b60006001600160401b0382111561482c5761482c6146b3565b5060051b60200190565b600082601f83011261484757600080fd5b8135602061485c61485783614813565b6147e3565b8083825260208201915060208460051b87010193508684111561487e57600080fd5b602086015b8481101561431a5761489481614371565b8352918301918301614883565b8035801515811461438857600080fd5b600082601f8301126148c257600080fd5b813560206148d261485783614813565b82815261012092830285018201928282019190878511156148f257600080fd5b8387015b8581101561497d5781818a03121561490e5760008081fd5b6149166146c9565b61491f826148a1565b8152818601358682015260408083013590820152606080830135908201526080808301359082015260a0808301359082015260c0808301359082015260e08083013590820152610100808301359082015284529284019281016148f6565b5090979650505050505050565b6000610200828403121561499d57600080fd5b6149a56146f2565b905081356001600160401b03808211156149be57600080fd5b6149ca85838601614836565b835260208401359150808211156149e057600080fd5b506149ed848285016148b1565b60208301525060408201356040820152606082013560608201526080820135608082015260a082013560a082015260c082013560c082015260e082013560e08201526101008083013581830152506101208083013581830152506101408083013581830152506101608083013581830152506101808083013581830152506101a08083013581830152506101c08083013581830152506101e080830135818301525092915050565b60006101408284031215614aa857600080fd5b614ab0614715565b9050813581526020820135602082015260408201356040820152606082013560608201526080820135608082015260a082013560a082015260c082013560c082015260e082013560e082015261010080830135818301525061012080830135818301525092915050565b60008136036102a0811215614b2e57600080fd5b614b36614738565b61012080831215614b4657600080fd5b614b4e6146c9565b9250614b5985614371565b83526020850135602084015260408501356040840152606085013560608401526080850135608084015260a085013560a084015260c085013560c084015260e085013560e0840152610100808601358185015250828252808501359250506001600160401b03821115614bcb57600080fd5b614bd73683860161498a565b6020820152614bea366101408601614a95565b6040820152614bfc6102808501614371565b60608201529392505050565b6000818303610120811215614c1c57600080fd5b614c2461475a565b8335815261010080601f1984011215614c3c57600080fd5b614c4461477c565b92506020850135835260408501356020840152606085013560408401526080850135606084015260a0850135608084015260c085013560a084015260e085013560c08401528085013560e084015250816020820152809250505092915050565b600082601f830112614cb557600080fd5b81356020614cc561485783614813565b8083825260208201915060208460051b870101935086841115614ce757600080fd5b602086015b8481101561431a5780358352918301918301614cec565b600060208236031215614d1557600080fd5b614d1d61479f565b82356001600160401b0380821115614d3457600080fd5b818501915060c08236031215614d4957600080fd5b614d516147c1565b82358152602083013560208201526040830135604082015260608301356060820152608083013582811115614d8557600080fd5b614d9136828601614836565b60808301525060a083013582811115614da957600080fd5b614db536828601614ca4565b60a083015250835250909392505050565b600060608284031215614dd857600080fd5b604051606081018181106001600160401b0382111715614dfa57614dfa6146b3565b604052614e0683614371565b8152614e1460208401614371565b6020820152614e2560408401614371565b60408201529392505050565b600060408236031215614e4357600080fd5b614e4b61475a565b614e5483614371565b815260208301356001600160401b0380821115614e7057600080fd5b81850191506101408236031215614e8657600080fd5b614e8e614715565b823581526020830135602082015260408301356040820152606083013560608201526080830135608082015260a083013560a082015260c083013560c082015260e083013560e08201526101008084013581830152506101208084013583811115614ef857600080fd5b614f0436828701614836565b9183019190915250602084015250909392505050565b60208082526022908201527f504c4143455f494e4352454153455f4f524445525f4741535f4645455f4c494d604082015261125560f21b606082015260800190565b60208082526022908201527f504c4143455f44454352454153455f4f524445525f4741535f4645455f4c494d604082015261125560f21b606082015260800190565b60208082526024908201527f504f534954494f4e5f5550444154455f4d415247494e5f4741535f4645455f4c6040820152631253525560e21b606082015260800190565b60208082526026908201527f504f534954494f4e5f5550444154455f4c455645524147455f4741535f46454560408201526517d31253525560d21b606082015260800190565b6020808252600c908201526b54524144455f544f4b454e5360a01b604082015260600190565b634e487b7160e01b600052603260045260246000fd5b60208082526021908201527f54524144494e475f4645455f5354414b494e475f524557415244535f524154496040820152604f60f81b606082015260800190565b60208082526022908201527f54524144494e475f4645455f5553445f504f4f4c5f524557415244535f524154604082015261494f60f01b606082015260800190565b60208082526023908201527f424f52524f57494e475f4645455f5354414b494e475f524557415244535f524160408201526254494f60e81b606082015260800190565b6020808252601490820152731413d3d317d3125455525112551657d31253525560621b604082015260600190565b6020808252600d908201526c4d494e545f4645455f5241544560981b604082015260600190565b6020808252600f908201526e52454445454d5f4645455f5241544560881b604082015260600190565b60208082526025908201527f535441424c455f544f4b454e535f424f52524f57494e475f494e5445524553546040820152645f5241544560d81b606082015260800190565b9283526001600160a01b03919091166020830152604082015260600190565b6020808252600c908201526b5641554c545f434f4e46494760a01b604082015260600190565b60208082526022908201527f554e534554544c45445f535441424c455f544f4b454e5f524154494f5f4c494d604082015261125560f21b606082015260800190565b60208082526012908201527154524144455f544f4b454e5f434f4e46494760701b604082015260600190565b6020808252601590820152741254d7d4d5541413d49517d0d3d313105511549053605a1b604082015260600190565b602080825260099082015268282922a1a4a9a4a7a760b91b604082015260600190565b602080825260089082015267111254d0d3d5539560c21b604082015260600190565b6020808252601390820152720434f4c4c41544552414c5f555345525f43415606c1b604082015260600190565b6020808252601490820152730434f4c4c41544552414c5f544f54414c5f4341560641b604082015260600190565b60208082526012908201527104c494142494c4954595f555345525f4341560741b604082015260600190565b60208082526013908201527204c494142494c4954595f544f54414c5f43415606c1b604082015260600190565b60208082526014908201527324a72a22a922a9aa2fa920aa22afa320a1aa27a960611b604082015260600190565b6020808252601290820152712624a8aaa4a220aa24a7a72fa320a1aa27a960711b604082015260600190565b818103818111156102ed57634e487b7160e01b600052601160045260246000fd5b634e487b7160e01b600052603160045260246000fdfea264697066735822122045bd40c5c39cc00ade9943d955ec32c73e9f31aa995dc82ae3ad3a2929c38c5d64736f6c63430008190033","linkReferences":{}},"methodIdentifiers":{"getConfig()":"c3f909d4","getPoolConfig(address)":"f29486a1","getSymbolConfig(bytes32)":"e1be37bd","getUsdPoolConfig()":"4f42ce05","setConfig(((address,uint256,uint256,uint256,uint256,uint256,uint256,uint256,uint256),(address[],(bool,uint256,uint256,uint256,uint256,uint256,uint256,uint256,uint256)[],uint256,uint256,uint256,uint256,uint256,uint256,uint256,uint256,uint256,uint256,uint256,uint256,uint256,uint256),(uint256,uint256,uint256,uint256,uint256,uint256,uint256,uint256,uint256,uint256),address))":"2544cc2d","setPoolConfig((address,(uint256,uint256,uint256,uint256,uint256,uint256,uint256,uint256,uint256,address[])))":"68b5f86b","setSymbolConfig((bytes32,(uint256,uint256,uint256,uint256,uint256,uint256,uint256,uint256)))":"3b9d78fc","setUniswapRouter(address)":"bea9849e","setUsdPoolConfig(((uint256,uint256,uint256,uint256,address[],uint256[])))":"4ee37b1c","setVaultConfig((address,address,address))":"659d67bb"},"id":56}