{"abi":[{"type":"function","name":"getConfig","inputs":[],"outputs":[{"name":"config","type":"tuple","internalType":"struct IConfig.CommonConfigParams","components":[{"name":"chainConfig","type":"tuple","internalType":"struct AppConfig.ChainConfig","components":[{"name":"wrapperToken","type":"address","internalType":"address"},{"name":"mintGasFeeLimit","type":"uint256","internalType":"uint256"},{"name":"redeemGasFeeLimit","type":"uint256","internalType":"uint256"},{"name":"placeIncreaseOrderGasFeeLimit","type":"uint256","internalType":"uint256"},{"name":"placeDecreaseOrderGasFeeLimit","type":"uint256","internalType":"uint256"},{"name":"positionUpdateMarginGasFeeLimit","type":"uint256","internalType":"uint256"},{"name":"positionUpdateLeverageGasFeeLimit","type":"uint256","internalType":"uint256"},{"name":"withdrawGasFeeLimit","type":"uint256","internalType":"uint256"},{"name":"claimRewardsGasFeeLimit","type":"uint256","internalType":"uint256"}]},{"name":"tradeConfig","type":"tuple","internalType":"struct AppTradeConfig.TradeConfig","components":[{"name":"tradeTokens","type":"address[]","internalType":"address[]"},{"name":"tradeTokenConfigs","type":"tuple[]","internalType":"struct AppTradeTokenConfig.TradeTokenConfig[]","components":[{"name":"isSupportCollateral","type":"bool","internalType":"bool"},{"name":"precision","type":"uint256","internalType":"uint256"},{"name":"discount","type":"uint256","internalType":"uint256"},{"name":"collateralUserCap","type":"uint256","internalType":"uint256"},{"name":"collateralTotalCap","type":"uint256","internalType":"uint256"},{"name":"liabilityUserCap","type":"uint256","internalType":"uint256"},{"name":"liabilityTotalCap","type":"uint256","internalType":"uint256"},{"name":"interestRateFactor","type":"uint256","internalType":"uint256"},{"name":"liquidationFactor","type":"uint256","internalType":"uint256"}]},{"name":"minOrderMarginUSD","type":"uint256","internalType":"uint256"},{"name":"availableCollateralRatio","type":"uint256","internalType":"uint256"},{"name":"crossLtvLimit","type":"uint256","internalType":"uint256"},{"name":"maxMaintenanceMarginRate","type":"uint256","internalType":"uint256"},{"name":"fundingFeeBaseRate","type":"uint256","internalType":"uint256"},{"name":"maxFundingBaseRate","type":"uint256","internalType":"uint256"},{"name":"tradingFeeStakingRewardsRatio","type":"uint256","internalType":"uint256"},{"name":"tradingFeePoolRewardsRatio","type":"uint256","internalType":"uint256"},{"name":"tradingFeeUsdPoolRewardsRatio","type":"uint256","internalType":"uint256"},{"name":"borrowingFeeStakingRewardsRatio","type":"uint256","internalType":"uint256"},{"name":"borrowingFeePoolRewardsRatio","type":"uint256","internalType":"uint256"},{"name":"autoReduceProfitFactor","type":"uint256","internalType":"uint256"},{"name":"autoReduceLiquidityFactor","type":"uint256","internalType":"uint256"},{"name":"swapSlipperTokenFactor","type":"uint256","internalType":"uint256"}]},{"name":"stakeConfig","type":"tuple","internalType":"struct AppPoolConfig.StakeConfig","components":[{"name":"collateralProtectFactor","type":"uint256","internalType":"uint256"},{"name":"collateralFactor","type":"uint256","internalType":"uint256"},{"name":"minPrecisionMultiple","type":"uint256","internalType":"uint256"},{"name":"mintFeeStakingRewardsRatio","type":"uint256","internalType":"uint256"},{"name":"mintFeePoolRewardsRatio","type":"uint256","internalType":"uint256"},{"name":"redeemFeeStakingRewardsRatio","type":"uint256","internalType":"uint256"},{"name":"redeemFeePoolRewardsRatio","type":"uint256","internalType":"uint256"},{"name":"poolRewardsIntervalLimit","type":"uint256","internalType":"uint256"},{"name":"minApr","type":"uint256","internalType":"uint256"},{"name":"maxApr","type":"uint256","internalType":"uint256"}]},{"name":"uniswapRouter","type":"address","internalType":"address"}]}],"stateMutability":"view"},{"type":"function","name":"getPoolConfig","inputs":[{"name":"stakeToken","type":"address","internalType":"address"}],"outputs":[{"name":"","type":"tuple","internalType":"struct AppPoolConfig.LpPoolConfig","components":[{"name":"baseInterestRate","type":"uint256","internalType":"uint256"},{"name":"poolLiquidityLimit","type":"uint256","internalType":"uint256"},{"name":"mintFeeRate","type":"uint256","internalType":"uint256"},{"name":"redeemFeeRate","type":"uint256","internalType":"uint256"},{"name":"poolPnlRatioLimit","type":"uint256","internalType":"uint256"},{"name":"unsettledBaseTokenRatioLimit","type":"uint256","internalType":"uint256"},{"name":"unsettledStableTokenRatioLimit","type":"uint256","internalType":"uint256"},{"name":"poolStableTokenRatioLimit","type":"uint256","internalType":"uint256"},{"name":"poolStableTokenLossLimit","type":"uint256","internalType":"uint256"},{"name":"assetTokens","type":"address[]","internalType":"address[]"}]}],"stateMutability":"view"},{"type":"function","name":"getSymbolConfig","inputs":[{"name":"code","type":"bytes32","internalType":"bytes32"}],"outputs":[{"name":"","type":"tuple","internalType":"struct AppConfig.SymbolConfig","components":[{"name":"maxLeverage","type":"uint256","internalType":"uint256"},{"name":"tickSize","type":"uint256","internalType":"uint256"},{"name":"openFeeRate","type":"uint256","internalType":"uint256"},{"name":"closeFeeRate","type":"uint256","internalType":"uint256"},{"name":"maxLongOpenInterestCap","type":"uint256","internalType":"uint256"},{"name":"maxShortOpenInterestCap","type":"uint256","internalType":"uint256"},{"name":"longShortRatioLimit","type":"uint256","internalType":"uint256"},{"name":"longShortOiBottomLimit","type":"uint256","internalType":"uint256"}]}],"stateMutability":"view"},{"type":"function","name":"getUsdPoolConfig","inputs":[],"outputs":[{"name":"","type":"tuple","internalType":"struct AppPoolConfig.UsdPoolConfig","components":[{"name":"poolLiquidityLimit","type":"uint256","internalType":"uint256"},{"name":"mintFeeRate","type":"uint256","internalType":"uint256"},{"name":"redeemFeeRate","type":"uint256","internalType":"uint256"},{"name":"unsettledRatioLimit","type":"uint256","internalType":"uint256"},{"name":"supportStableTokens","type":"address[]","internalType":"address[]"},{"name":"stableTokensBorrowingInterestRate","type":"uint256[]","internalType":"uint256[]"}]}],"stateMutability":"view"},{"type":"function","name":"setConfig","inputs":[{"name":"params","type":"tuple","internalType":"struct IConfig.CommonConfigParams","components":[{"name":"chainConfig","type":"tuple","internalType":"struct AppConfig.ChainConfig","components":[{"name":"wrapperToken","type":"address","internalType":"address"},{"name":"mintGasFeeLimit","type":"uint256","internalType":"uint256"},{"name":"redeemGasFeeLimit","type":"uint256","internalType":"uint256"},{"name":"placeIncreaseOrderGasFeeLimit","type":"uint256","internalType":"uint256"},{"name":"placeDecreaseOrderGasFeeLimit","type":"uint256","internalType":"uint256"},{"name":"positionUpdateMarginGasFeeLimit","type":"uint256","internalType":"uint256"},{"name":"positionUpdateLeverageGasFeeLimit","type":"uint256","internalType":"uint256"},{"name":"withdrawGasFeeLimit","type":"uint256","internalType":"uint256"},{"name":"claimRewardsGasFeeLimit","type":"uint256","internalType":"uint256"}]},{"name":"tradeConfig","type":"tuple","internalType":"struct AppTradeConfig.TradeConfig","components":[{"name":"tradeTokens","type":"address[]","internalType":"address[]"},{"name":"tradeTokenConfigs","type":"tuple[]","internalType":"struct AppTradeTokenConfig.TradeTokenConfig[]","components":[{"name":"isSupportCollateral","type":"bool","internalType":"bool"},{"name":"precision","type":"uint256","internalType":"uint256"},{"name":"discount","type":"uint256","internalType":"uint256"},{"name":"collateralUserCap","type":"uint256","internalType":"uint256"},{"name":"collateralTotalCap","type":"uint256","internalType":"uint256"},{"name":"liabilityUserCap","type":"uint256","internalType":"uint256"},{"name":"liabilityTotalCap","type":"uint256","internalType":"uint256"},{"name":"interestRateFactor","type":"uint256","internalType":"uint256"},{"name":"liquidationFactor","type":"uint256","internalType":"uint256"}]},{"name":"minOrderMarginUSD","type":"uint256","internalType":"uint256"},{"name":"availableCollateralRatio","type":"uint256","internalType":"uint256"},{"name":"crossLtvLimit","type":"uint256","internalType":"uint256"},{"name":"maxMaintenanceMarginRate","type":"uint256","internalType":"uint256"},{"name":"fundingFeeBaseRate","type":"uint256","internalType":"uint256"},{"name":"maxFundingBaseRate","type":"uint256","internalType":"uint256"},{"name":"tradingFeeStakingRewardsRatio","type":"uint256","internalType":"uint256"},{"name":"tradingFeePoolRewardsRatio","type":"uint256","internalType":"uint256"},{"name":"tradingFeeUsdPoolRewardsRatio","type":"uint256","internalType":"uint256"},{"name":"borrowingFeeStakingRewardsRatio","type":"uint256","internalType":"uint256"},{"name":"borrowingFeePoolRewardsRatio","type":"uint256","internalType":"uint256"},{"name":"autoReduceProfitFactor","type":"uint256","internalType":"uint256"},{"name":"autoReduceLiquidityFactor","type":"uint256","internalType":"uint256"},{"name":"swapSlipperTokenFactor","type":"uint256","internalType":"uint256"}]},{"name":"stakeConfig","type":"tuple","internalType":"struct AppPoolConfig.StakeConfig","components":[{"name":"collateralProtectFactor","type":"uint256","internalType":"uint256"},{"name":"collateralFactor","type":"uint256","internalType":"uint256"},{"name":"minPrecisionMultiple","type":"uint256","internalType":"uint256"},{"name":"mintFeeStakingRewardsRatio","type":"uint256","internalType":"uint256"},{"name":"mintFeePoolRewardsRatio","type":"uint256","internalType":"uint256"},{"name":"redeemFeeStakingRewardsRatio","type":"uint256","internalType":"uint256"},{"name":"redeemFeePoolRewardsRatio","type":"uint256","internalType":"uint256"},{"name":"poolRewardsIntervalLimit","type":"uint256","internalType":"uint256"},{"name":"minApr","type":"uint256","internalType":"uint256"},{"name":"maxApr","type":"uint256","internalType":"uint256"}]},{"name":"uniswapRouter","type":"address","internalType":"address"}]}],"outputs":[],"stateMutability":"nonpayable"},{"type":"function","name":"setPoolConfig","inputs":[{"name":"params","type":"tuple","internalType":"struct IConfig.LpPoolConfigParams","components":[{"name":"stakeToken","type":"address","internalType":"address"},{"name":"config","type":"tuple","internalType":"struct AppPoolConfig.LpPoolConfig","components":[{"name":"baseInterestRate","type":"uint256","internalType":"uint256"},{"name":"poolLiquidityLimit","type":"uint256","internalType":"uint256"},{"name":"mintFeeRate","type":"uint256","internalType":"uint256"},{"name":"redeemFeeRate","type":"uint256","internalType":"uint256"},{"name":"poolPnlRatioLimit","type":"uint256","internalType":"uint256"},{"name":"unsettledBaseTokenRatioLimit","type":"uint256","internalType":"uint256"},{"name":"unsettledStableTokenRatioLimit","type":"uint256","internalType":"uint256"},{"name":"poolStableTokenRatioLimit","type":"uint256","internalType":"uint256"},{"name":"poolStableTokenLossLimit","type":"uint256","internalType":"uint256"},{"name":"assetTokens","type":"address[]","internalType":"address[]"}]}]}],"outputs":[],"stateMutability":"nonpayable"},{"type":"function","name":"setSymbolConfig","inputs":[{"name":"params","type":"tuple","internalType":"struct IConfig.SymbolConfigParams","components":[{"name":"symbol","type":"bytes32","internalType":"bytes32"},{"name":"config","type":"tuple","internalType":"struct AppConfig.SymbolConfig","components":[{"name":"maxLeverage","type":"uint256","internalType":"uint256"},{"name":"tickSize","type":"uint256","internalType":"uint256"},{"name":"openFeeRate","type":"uint256","internalType":"uint256"},{"name":"closeFeeRate","type":"uint256","internalType":"uint256"},{"name":"maxLongOpenInterestCap","type":"uint256","internalType":"uint256"},{"name":"maxShortOpenInterestCap","type":"uint256","internalType":"uint256"},{"name":"longShortRatioLimit","type":"uint256","internalType":"uint256"},{"name":"longShortOiBottomLimit","type":"uint256","internalType":"uint256"}]}]}],"outputs":[],"stateMutability":"nonpayable"},{"type":"function","name":"setUniswapRouter","inputs":[{"name":"router","type":"address","internalType":"address"}],"outputs":[],"stateMutability":"nonpayable"},{"type":"function","name":"setUsdPoolConfig","inputs":[{"name":"params","type":"tuple","internalType":"struct IConfig.UsdPoolConfigParams","components":[{"name":"config","type":"tuple","internalType":"struct AppPoolConfig.UsdPoolConfig","components":[{"name":"poolLiquidityLimit","type":"uint256","internalType":"uint256"},{"name":"mintFeeRate","type":"uint256","internalType":"uint256"},{"name":"redeemFeeRate","type":"uint256","internalType":"uint256"},{"name":"unsettledRatioLimit","type":"uint256","internalType":"uint256"},{"name":"supportStableTokens","type":"address[]","internalType":"address[]"},{"name":"stableTokensBorrowingInterestRate","type":"uint256[]","internalType":"uint256[]"}]}]}],"outputs":[],"stateMutability":"nonpayable"},{"type":"function","name":"setVaultConfig","inputs":[{"name":"params","type":"tuple","internalType":"struct IConfig.VaultConfigParams","components":[{"name":"lpVault","type":"address","internalType":"address"},{"name":"tradeVault","type":"address","internalType":"address"},{"name":"portfolioVault","type":"address","internalType":"address"}]}],"outputs":[],"stateMutability":"nonpayable"},{"type":"error","name":"InvalidRoleAccess","inputs":[{"name":"account","type":"address","internalType":"address"},{"name":"role","type":"bytes32","internalType":"bytes32"}]}],"bytecode":{"object":"0x6080604052348015600f57600080fd5b50611b628061001f6000396000f3fe608060405234801561001057600080fd5b506004361061009e5760003560e01c806368b5f86b1161006657806368b5f86b1461010f578063bea9849e14610122578063c3f909d414610135578063e1be37bd1461014a578063f29486a1146101be57600080fd5b80632544cc2d146100a35780633b9d78fc146100b85780634ee37b1c146100cb5780634f42ce05146100de578063659d67bb146100fc575b600080fd5b6100b66100b1366004610921565b6101de565b005b6100b66100c636600461095c565b61025a565b6100b66100d9366004610975565b6102f7565b6100e6610340565b6040516100f391906109f4565b60405180910390f35b6100b661010a366004610a84565b6103ef565b6100b661011d366004610a96565b610438565b6100b6610130366004610af5565b610481565b61013d6104d3565b6040516100f39190610c69565b61015d610158366004610d87565b61054c565b6040516100f39190600061010082019050825182526020830151602083015260408301516040830152606083015160608301526080830151608083015260a083015160a083015260c083015160c083015260e083015160e083015292915050565b6101d16101cc366004610af5565b61060f565b6040516100f39190610da0565b6101f065434f4e46494760d01b6106e5565b604051638e34bdc160e01b815273__$acce7506676b87ccbb54b9fc6afc582415$__90638e34bdc190610227908490600401611094565b60006040518083038186803b15801561023f57600080fd5b505af4158015610253573d6000803e3d6000fd5b5050505050565b61026c65434f4e46494760d01b6106e5565b60408051635a19ab0760e01b81528235600482015260208301356024820152908201356044820152606082013560648201526080820135608482015260a082013560a482015260c082013560c482015260e082013560e482015261010082013561010482015273__$acce7506676b87ccbb54b9fc6afc582415$__90635a19ab079061012401610227565b61030965434f4e46494760d01b6106e5565b604051635a6c9f1960e11b815273__$acce7506676b87ccbb54b9fc6afc582415$__9063b4d93e32906102279084906004016111c1565b6103796040518060c001604052806000815260200160008152602001600081526020016000815260200160608152602001606081525090565b73__$acce7506676b87ccbb54b9fc6afc582415$__634f42ce056040518163ffffffff1660e01b8152600401600060405180830381865af41580156103c2573d6000803e3d6000fd5b505050506040513d6000823e601f3d908101601f191682016040526103ea919081019061146a565b905090565b61040165434f4e46494760d01b6106e5565b60405163a9f3f09160e01b815273__$acce7506676b87ccbb54b9fc6afc582415$__9063a9f3f09190610227908490600401611522565b61044a65434f4e46494760d01b6106e5565b6040516347da0aa760e01b815273__$acce7506676b87ccbb54b9fc6afc582415$__906347da0aa790610227908490600401611574565b61049365434f4e46494760d01b6106e5565b604051635f54c24f60e11b81526001600160a01b038216600482015273__$acce7506676b87ccbb54b9fc6afc582415$__9063bea9849e90602401610227565b6104db6107d1565b73__$acce7506676b87ccbb54b9fc6afc582415$__63c3f909d46040518163ffffffff1660e01b8152600401600060405180830381865af4158015610524573d6000803e3d6000fd5b505050506040513d6000823e601f3d908101601f191682016040526103ea91908101906118bb565b61059460405180610100016040528060008152602001600081526020016000815260200160008152602001600081526020016000815260200160008152602001600081525090565b60405163e1be37bd60e01b81526004810183905273__$acce7506676b87ccbb54b9fc6afc582415$__9063e1be37bd9060240161010060405180830381865af41580156105e5573d6000803e3d6000fd5b505050506040513d601f19601f8201168201806040525081019061060991906119d0565b92915050565b610665604051806101400160405280600081526020016000815260200160008152602001600081526020016000815260200160008152602001600081526020016000815260200160008152602001606081525090565b60405163f29486a160e01b81526001600160a01b038316600482015273__$acce7506676b87ccbb54b9fc6afc582415$__9063f29486a190602401600060405180830381865af41580156106bd573d6000803e3d6000fd5b505050506040513d6000823e601f3d908101601f191682016040526106099190810190611a5f565b6106ef338261071c565b61071957604051632d7d0e0d60e21b81523360048201526024810182905260440160405180910390fd5b50565b600080610727610754565b6001600160a01b038516600090815260208290526040902090915061074c90846107b6565b949350505050565b600080604051602001610798906020808252601e908201527f78797a2e656c66692e73746f726167652e416363657373436f6e74726f6c0000604082015260600190565b60408051601f19818403018152919052805160209091012092915050565b600081815260018301602052604081205415155b9392505050565b604051806080016040528061083460405180610120016040528060006001600160a01b0316815260200160008152602001600081526020016000815260200160008152602001600081526020016000815260200160008152602001600081525090565b81526020016108b9604051806102000160405280606081526020016060815260200160008152602001600081526020016000815260200160008152602001600081526020016000815260200160008152602001600081526020016000815260200160008152602001600081526020016000815260200160008152602001600081525090565b8152602001610914604051806101400160405280600081526020016000815260200160008152602001600081526020016000815260200160008152602001600081526020016000815260200160008152602001600081525090565b8152600060209091015290565b60006020828403121561093357600080fd5b81356001600160401b0381111561094957600080fd5b82016102a081850312156107ca57600080fd5b6000610120828403121561096f57600080fd5b50919050565b60006020828403121561098757600080fd5b81356001600160401b0381111561099d57600080fd5b8201602081850312156107ca57600080fd5b60008151808452602080850194506020840160005b838110156109e95781516001600160a01b0316875295820195908201906001016109c4565b509495945050505050565b600060208083528351818401528084015160408401526040840151606084015260608401516080840152608084015160c060a0850152610a3760e08501826109af565b60a0860151858203601f190160c0870152805180835290840192506000918401905b80831015610a795783518252928401926001929092019190840190610a59565b509695505050505050565b60006060828403121561096f57600080fd5b600060208284031215610aa857600080fd5b81356001600160401b03811115610abe57600080fd5b8201604081850312156107ca57600080fd5b6001600160a01b038116811461071957600080fd5b8035610af081610ad0565b919050565b600060208284031215610b0757600080fd5b81356107ca81610ad0565b60008151808452602080850194506020840160005b838110156109e9578151805115158852838101518489015260408082015190890152606080820151908901526080808201519089015260a0808201519089015260c0808201519089015260e0808201519089015261010090810151908801526101209096019590820190600101610b27565b60006102008251818552610baf828601826109af565b91505060208301518482036020860152610bc98282610b12565b60408581015190870152606080860151908701526080808601519087015260a0808601519087015260c0808601519087015260e08086015190870152610100808601519087015261012080860151908701526101408086015190870152610160808601519087015261018080860151908701526101a080860151908701526101c080860151908701526101e0948501519490950193909352509192915050565b602081526000825160018060a01b038151166020840152602081015160408401526040810151606084015260608101516080840152608081015160a084015260a081015160c084015260c081015160e084015260e081015161010081818601528083015161012086015250505060208301516102a080610140850152610cf36102c0850183610b99565b60408681015180516101608801526020810151610180880152908101516101a087015260608101516101c087015260808101516101e087015260a081015161020087015260c081015161022087015260e08101516102408701526101008101516102608701526101208101516102808701529092505060608501516001600160a01b038116858301525b5090949350505050565b600060208284031215610d9957600080fd5b5035919050565b6020815281516020820152602082015160408201526040820151606082015260608201516080820152608082015160a082015260a082015160c082015260c082015160e0820152600060e083015161010081818501528085015191505061012081818501528085015191505061014080818501525061074c6101608401826109af565b600082356101fe19833603018112610e3a57600080fd5b90910192915050565b6000808335601e19843603018112610e5a57600080fd5b83016020810192503590506001600160401b03811115610e7957600080fd5b8060051b3603821315610e8b57600080fd5b9250929050565b8183526000602080850194508260005b858110156109e9578135610eb581610ad0565b6001600160a01b031687529582019590820190600101610ea2565b6000808335601e19843603018112610ee757600080fd5b83016020810192503590506001600160401b03811115610f0657600080fd5b61012081023603821315610e8b57600080fd5b801515811461071957600080fd5b8183526000602080850194508260005b858110156109e9578135610f4a81610f19565b15158752818301358388015260408083013590880152606080830135908801526080808301359088015260a0808301359088015260c0808301359088015260e0808301359088015261010080830135908801526101209687019690910190600101610f37565b6000610200610fbf8384610e43565b828652610fcf8387018284610e92565b92505050610fe06020840184610ed0565b8583036020870152610ff3838284610f27565b60408681013590880152606080870135908801526080808701359088015260a0808701359088015260c0808701359088015260e08087013590880152610100808701359088015261012080870135908801526101408087013590880152610160808701359088015261018080870135908801526101a080870135908801526101c080870135908801526101e095860135959096019490945250929392505050565b60208152600082356110a581610ad0565b60018060a01b038116602084015250602083013560408301526040830135606083015260608301356080830152608083013560a083015260a083013560c083015260c083013560e083015261010060e084013581840152610120818501358185015261111381860186610e23565b9150506102a0610140818186015261112f6102c0860184610fb0565b8682018035610160880152602081013561018088015260408101356101a088015260608101356101c088015260808101356101e088015260a081013561020088015260c081013561022088015260e081013561024088015261010081013561026088015261012001356102808701529250506111ae6102808601610ae5565b6001600160a01b03811685830152610d7d565b60006020808352833560be198536030181126111dc57600080fd5b848101905081828501528035604085015281810135606085015260408101356080850152606081013560a08501526112176080820182610e43565b60c08087015261122c61010087018284610e92565b91505061123c60a0830183610e43565b868303603f190160e088015280835292506001600160fb1b0383111561126157600080fd5b8260051b92508281858401375001019392505050565b634e487b7160e01b600052604160045260246000fd5b60405160c081016001600160401b03811182821017156112af576112af611277565b60405290565b60405161012081016001600160401b03811182821017156112af576112af611277565b60405161020081016001600160401b03811182821017156112af576112af611277565b60405161014081016001600160401b03811182821017156112af576112af611277565b604051608081016001600160401b03811182821017156112af576112af611277565b604051601f8201601f191681016001600160401b038111828210171561136857611368611277565b604052919050565b60006001600160401b0382111561138957611389611277565b5060051b60200190565b8051610af081610ad0565b600082601f8301126113af57600080fd5b815160206113c46113bf83611370565b611340565b8083825260208201915060208460051b8701019350868411156113e657600080fd5b602086015b84811015610a795780516113fe81610ad0565b83529183019183016113eb565b600082601f83011261141c57600080fd5b8151602061142c6113bf83611370565b8083825260208201915060208460051b87010193508684111561144e57600080fd5b602086015b84811015610a795780518352918301918301611453565b60006020828403121561147c57600080fd5b81516001600160401b038082111561149357600080fd5b9083019060c082860312156114a757600080fd5b6114af61128d565b825181526020830151602082015260408301516040820152606083015160608201526080830151828111156114e357600080fd5b6114ef8782860161139e565b60808301525060a08301518281111561150757600080fd5b6115138782860161140b565b60a08301525095945050505050565b60608101823561153181610ad0565b6001600160a01b03908116835260208401359061154d82610ad0565b908116602084015260408401359061156482610ad0565b8082166040850152505092915050565b602081526000823561158581610ad0565b6001600160a01b03166020838101919091528301353684900361013e190181126115ae57600080fd5b83810190506040808401528035606084015260208101356080840152604081013560a0840152606081013560c0840152608081013560e084015261010060a08201358185015261012060c08301358186015261014060e0840135818701528284013561016087015261162282850185610e43565b9450925080610180870152505061163e6101a085018383610e92565b95945050505050565b8051610af081610f19565b600082601f83011261166357600080fd5b815160206116736113bf83611370565b828152610120928302850182019282820191908785111561169357600080fd5b8387015b8581101561171e5781818a0312156116af5760008081fd5b6116b76112b5565b6116c082611647565b8152818601518682015260408083015190820152606080830151908201526080808301519082015260a0808301519082015260c0808301519082015260e0808301519082015261010080830151908201528452928401928101611697565b5090979650505050505050565b6000610200828403121561173e57600080fd5b6117466112d8565b905081516001600160401b038082111561175f57600080fd5b61176b8583860161139e565b8352602084015191508082111561178157600080fd5b5061178e84828501611652565b60208301525060408201516040820152606082015160608201526080820151608082015260a082015160a082015260c082015160c082015260e082015160e08201526101008083015181830152506101208083015181830152506101408083015181830152506101608083015181830152506101808083015181830152506101a08083015181830152506101c08083015181830152506101e080830151818301525092915050565b6000610140828403121561184957600080fd5b6118516112fb565b9050815181526020820151602082015260408201516040820152606082015160608201526080820151608082015260a082015160a082015260c082015160c082015260e082015160e082015261010080830151818301525061012080830151818301525092915050565b6000602082840312156118cd57600080fd5b81516001600160401b03808211156118e457600080fd5b908301908185036102a08112156118fa57600080fd5b61190261131e565b6101208083121561191257600080fd5b61191a6112b5565b925061192585611393565b83526020850151602084015260408501516040840152606085015160608401526080850151608084015260a085015160a084015260c085015160c084015260e085015160e0840152610100808601518185015250828252808501519250508282111561199057600080fd5b61199c8783860161172b565b60208201526119af876101408601611836565b60408201526119c16102808501611393565b60608201529695505050505050565b60006101008083850312156119e457600080fd5b604051908101906001600160401b0382118183101715611a0657611a06611277565b81604052835181526020840151602082015260408401516040820152606084015160608201526080840151608082015260a084015160a082015260c084015160c082015260e084015160e0820152809250505092915050565b600060208284031215611a7157600080fd5b81516001600160401b0380821115611a8857600080fd5b908301906101408286031215611a9d57600080fd5b611aa56112fb565b825181526020830151602082015260408301516040820152606083015160608201526080830151608082015260a083015160a082015260c083015160c082015260e083015160e08201526101008084015181830152506101208084015183811115611b0f57600080fd5b611b1b8882870161139e565b91830191909152509594505050505056fea2646970667358221220023251a7a107b788ac1a1077da42ddf85b81c14fef1b84458be08ecdb5c45f0f64736f6c63430008190033","linkReferences":{"src/process/ConfigProcess.sol":{"ConfigProcess":[{"start":542,"length":20},{"start":755,"length":20},{"start":823,"length":20},{"start":922,"length":20},{"start":1071,"length":20},{"start":1144,"length":20},{"start":1232,"length":20},{"start":1276,"length":20},{"start":1481,"length":20},{"start":1698,"length":20}]}}},"methodIdentifiers":{"getConfig()":"c3f909d4","getPoolConfig(address)":"f29486a1","getSymbolConfig(bytes32)":"e1be37bd","getUsdPoolConfig()":"4f42ce05","setConfig(((address,uint256,uint256,uint256,uint256,uint256,uint256,uint256,uint256),(address[],(bool,uint256,uint256,uint256,uint256,uint256,uint256,uint256,uint256)[],uint256,uint256,uint256,uint256,uint256,uint256,uint256,uint256,uint256,uint256,uint256,uint256,uint256,uint256),(uint256,uint256,uint256,uint256,uint256,uint256,uint256,uint256,uint256,uint256),address))":"2544cc2d","setPoolConfig((address,(uint256,uint256,uint256,uint256,uint256,uint256,uint256,uint256,uint256,address[])))":"68b5f86b","setSymbolConfig((bytes32,(uint256,uint256,uint256,uint256,uint256,uint256,uint256,uint256)))":"3b9d78fc","setUniswapRouter(address)":"bea9849e","setUsdPoolConfig(((uint256,uint256,uint256,uint256,address[],uint256[])))":"4ee37b1c","setVaultConfig((address,address,address))":"659d67bb"},"id":56}