{"abi":[{"type":"constructor","inputs":[{"name":"_admin","type":"address","internalType":"address"}],"stateMutability":"nonpayable"},{"type":"function","name":"ADMIN_ROLE","inputs":[],"outputs":[{"name":"","type":"bytes32","internalType":"bytes32"}],"stateMutability":"view"},{"type":"function","name":"DEFAULT_ADMIN_ROLE","inputs":[],"outputs":[{"name":"","type":"bytes32","internalType":"bytes32"}],"stateMutability":"view"},{"type":"function","name":"getRoleAdmin","inputs":[{"name":"role","type":"bytes32","internalType":"bytes32"}],"outputs":[{"name":"","type":"bytes32","internalType":"bytes32"}],"stateMutability":"view"},{"type":"function","name":"grantAdmin","inputs":[{"name":"newAdmin","type":"address","internalType":"address"}],"outputs":[],"stateMutability":"nonpayable"},{"type":"function","name":"grantRole","inputs":[{"name":"role","type":"bytes32","internalType":"bytes32"},{"name":"account","type":"address","internalType":"address"}],"outputs":[],"stateMutability":"nonpayable"},{"type":"function","name":"hasRole","inputs":[{"name":"role","type":"bytes32","internalType":"bytes32"},{"name":"account","type":"address","internalType":"address"}],"outputs":[{"name":"","type":"bool","internalType":"bool"}],"stateMutability":"view"},{"type":"function","name":"renounceRole","inputs":[{"name":"role","type":"bytes32","internalType":"bytes32"},{"name":"account","type":"address","internalType":"address"}],"outputs":[],"stateMutability":"nonpayable"},{"type":"function","name":"revokeAdmin","inputs":[{"name":"admin","type":"address","internalType":"address"}],"outputs":[],"stateMutability":"nonpayable"},{"type":"function","name":"revokeRole","inputs":[{"name":"role","type":"bytes32","internalType":"bytes32"},{"name":"account","type":"address","internalType":"address"}],"outputs":[],"stateMutability":"nonpayable"},{"type":"function","name":"supportsInterface","inputs":[{"name":"interfaceId","type":"bytes4","internalType":"bytes4"}],"outputs":[{"name":"","type":"bool","internalType":"bool"}],"stateMutability":"view"},{"type":"function","name":"transferOut","inputs":[{"name":"token","type":"address","internalType":"address"},{"name":"receiver","type":"address","internalType":"address"},{"name":"amount","type":"uint256","internalType":"uint256"}],"outputs":[],"stateMutability":"nonpayable"},{"type":"event","name":"RoleAdminChanged","inputs":[{"name":"role","type":"bytes32","indexed":true,"internalType":"bytes32"},{"name":"previousAdminRole","type":"bytes32","indexed":true,"internalType":"bytes32"},{"name":"newAdminRole","type":"bytes32","indexed":true,"internalType":"bytes32"}],"anonymous":false},{"type":"event","name":"RoleGranted","inputs":[{"name":"role","type":"bytes32","indexed":true,"internalType":"bytes32"},{"name":"account","type":"address","indexed":true,"internalType":"address"},{"name":"sender","type":"address","indexed":true,"internalType":"address"}],"anonymous":false},{"type":"event","name":"RoleRevoked","inputs":[{"name":"role","type":"bytes32","indexed":true,"internalType":"bytes32"},{"name":"account","type":"address","indexed":true,"internalType":"address"},{"name":"sender","type":"address","indexed":true,"internalType":"address"}],"anonymous":false},{"type":"error","name":"AddressSelfNotSupported","inputs":[{"name":"self","type":"address","internalType":"address"}]},{"type":"error","name":"TokenTransferError","inputs":[{"name":"token","type":"address","internalType":"address"},{"name":"receiver","type":"address","internalType":"address"},{"name":"amount","type":"uint256","internalType":"uint256"}]}],"bytecode":{"object":"0x608060405234801561001057600080fd5b50604051610bf6380380610bf683398101604081905261002f91610100565b8061005a7fa49807205ce4d355092ef5a8a18f56e8913cf4a201fbe287825b095693c2177582610061565b5050610130565b6000828152602081815260408083206001600160a01b038516845290915290205460ff166100fc576000828152602081815260408083206001600160a01b03851684529091529020805460ff191660011790556100bb3390565b6001600160a01b0316816001600160a01b0316837f2f8788117e7eff1d82e926ec794901d17c78024a50270940304540a733656f0d60405160405180910390a45b5050565b60006020828403121561011257600080fd5b81516001600160a01b038116811461012957600080fd5b9392505050565b610ab78061013f6000396000f3fe608060405234801561001057600080fd5b50600436106100a95760003560e01c806335bb3e161161007157806335bb3e161461014257806336568abe1461015557806375b238fc1461016857806391d148541461017d578063a217fddf14610190578063d547741f1461019857600080fd5b806301ffc9a7146100ae578063078d3b79146100d6578063248a9ca3146100eb5780632d3456701461011c5780632f2ff15d1461012f575b600080fd5b6100c16100bc3660046107f2565b6101ab565b60405190151581526020015b60405180910390f35b6100e96100e4366004610838565b6101e2565b005b61010e6100f9366004610874565b60009081526020819052604090206001015490565b6040519081526020016100cd565b6100e961012a36600461088d565b610244565b6100e961013d3660046108a8565b610278565b6100e961015036600461088d565b6102a2565b6100e96101633660046108a8565b6102d2565b61010e600080516020610a6283398151915281565b6100c161018b3660046108a8565b61034c565b61010e600081565b6100e96101a63660046108a8565b610375565b60006001600160e01b03198216637965db0b60e01b14806101dc57506301ffc9a760e01b6001600160e01b03198316145b92915050565b600080516020610a628339815191526101fa8161039a565b306001600160a01b0384160361023357604051638d6a597160e01b81526001600160a01b03841660048201526024015b60405180910390fd5b61023e8484846103a7565b50505050565b600080516020610a6283398151915261025c8161039a565b610274600080516020610a62833981519152836103ff565b5050565b6000828152602081905260409020600101546102938161039a565b61029d8383610464565b505050565b600080516020610a628339815191526102ba8161039a565b610274600080516020610a6283398151915283610464565b6001600160a01b03811633146103425760405162461bcd60e51b815260206004820152602f60248201527f416363657373436f6e74726f6c3a2063616e206f6e6c792072656e6f756e636560448201526e103937b632b9903337b91039b2b63360891b606482015260840161022a565b61027482826103ff565b6000918252602082815260408084206001600160a01b0393909316845291905290205460ff1690565b6000828152602081905260409020600101546103908161039a565b61029d83836103ff565b6103a481336104e8565b50565b806000036103b457505050565b60006103c584848462030d40610541565b90508061023e5760405163012f3b8f60e71b81526001600160a01b038086166004830152841660248201526044810183905260640161022a565b610409828261034c565b15610274576000828152602081815260408083206001600160a01b0385168085529252808320805460ff1916905551339285917ff6391f5c32d9c69d2a47ea670b442974b53935d1edc7fd64eb21e047a839171b9190a45050565b61046e828261034c565b610274576000828152602081815260408083206001600160a01b03851684529091529020805460ff191660011790556104a43390565b6001600160a01b0316816001600160a01b0316837f2f8788117e7eff1d82e926ec794901d17c78024a50270940304540a733656f0d60405160405180910390a45050565b6104f2828261034c565b610274576104ff8161063d565b61050a83602061064f565b60405160200161051b9291906108f8565b60408051601f198184030181529082905262461bcd60e51b825261022a9160040161096d565b604080516001600160a01b038581166024830152604480830186905283518084039091018152606490920183526020820180516001600160e01b031663a9059cbb60e01b17905291516000928391829189169086906105a19086906109a0565b60006040518083038160008787f1925050503d80600081146105df576040519150601f19603f3d011682016040523d82523d6000602084013e6105e4565b606091505b5091509150816105fa5760009350505050610635565b6000815111801561061c57508080602001905181019061061a91906109bc565b155b1561062d5760009350505050610635565b600193505050505b949350505050565b60606101dc6001600160a01b03831660145b6060600061065e8360026109f4565b610669906002610a0b565b67ffffffffffffffff81111561068157610681610a1e565b6040519080825280601f01601f1916602001820160405280156106ab576020820181803683370190505b509050600360fc1b816000815181106106c6576106c6610a34565b60200101906001600160f81b031916908160001a905350600f60fb1b816001815181106106f5576106f5610a34565b60200101906001600160f81b031916908160001a90535060006107198460026109f4565b610724906001610a0b565b90505b600181111561079c576f181899199a1a9b1b9c1cb0b131b232b360811b85600f166010811061075857610758610a34565b1a60f81b82828151811061076e5761076e610a34565b60200101906001600160f81b031916908160001a90535060049490941c9361079581610a4a565b9050610727565b5083156107eb5760405162461bcd60e51b815260206004820181905260248201527f537472696e67733a20686578206c656e67746820696e73756666696369656e74604482015260640161022a565b9392505050565b60006020828403121561080457600080fd5b81356001600160e01b0319811681146107eb57600080fd5b80356001600160a01b038116811461083357600080fd5b919050565b60008060006060848603121561084d57600080fd5b6108568461081c565b92506108646020850161081c565b9150604084013590509250925092565b60006020828403121561088657600080fd5b5035919050565b60006020828403121561089f57600080fd5b6107eb8261081c565b600080604083850312156108bb57600080fd5b823591506108cb6020840161081c565b90509250929050565b60005b838110156108ef5781810151838201526020016108d7565b50506000910152565b7f416363657373436f6e74726f6c3a206163636f756e74200000000000000000008152600083516109308160178501602088016108d4565b7001034b99036b4b9b9b4b733903937b6329607d1b60179184019182015283516109618160288401602088016108d4565b01602801949350505050565b602081526000825180602084015261098c8160408501602087016108d4565b601f01601f19169190910160400192915050565b600082516109b28184602087016108d4565b9190910192915050565b6000602082840312156109ce57600080fd5b815180151581146107eb57600080fd5b634e487b7160e01b600052601160045260246000fd5b80820281158282048414176101dc576101dc6109de565b808201808211156101dc576101dc6109de565b634e487b7160e01b600052604160045260246000fd5b634e487b7160e01b600052603260045260246000fd5b600081610a5957610a596109de565b50600019019056fea49807205ce4d355092ef5a8a18f56e8913cf4a201fbe287825b095693c21775a26469706673582212208c94cb58f9918f68ce7df9caa6c0e40a25e2f9410342393b9b5071a88d985d3764736f6c63430008190033","linkReferences":{}},"methodIdentifiers":{"ADMIN_ROLE()":"75b238fc","DEFAULT_ADMIN_ROLE()":"a217fddf","getRoleAdmin(bytes32)":"248a9ca3","grantAdmin(address)":"35bb3e16","grantRole(bytes32,address)":"2f2ff15d","hasRole(bytes32,address)":"91d14854","renounceRole(bytes32,address)":"36568abe","revokeAdmin(address)":"2d345670","revokeRole(bytes32,address)":"d547741f","supportsInterface(bytes4)":"01ffc9a7","transferOut(address,address,uint256)":"078d3b79"},"id":168}