{"abi":[{"type":"function","name":"validateExecutionFeeLimit","inputs":[{"name":"executionFee","type":"uint256","internalType":"uint256"},{"name":"gasLimit","type":"uint256","internalType":"uint256"}],"outputs":[],"stateMutability":"view"},{"type":"error","name":"ExecutionFeeNotEnough","inputs":[]}],"bytecode":{"object":"0x610761610039600b82828239805160001a607314602c57634e487b7160e01b600052600060045260246000fd5b30600052607381538281f3fe730000000000000000000000000000000000000000301460806040526004361061004b5760003560e01c80631f10eda4146100505780634b7bc681146100725780634d4d567214610085575b600080fd5b81801561005c57600080fd5b5061007061006b3660046104da565b6100a5565b005b6100706100803660046104f3565b610131565b81801561009157600080fd5b506100706100a0366004610565565b61015f565b60005a6100b29083610611565b905060006100c03a8361062a565b9050801561012c576040516307c43b6960e21b81526004810182905273__$743db1863e6a0ee1ad13b47ec8f30557c4$__90631f10eda49060240160006040518083038186803b15801561011357600080fd5b505af4158015610127573d6000803e3d6000fd5b505050505b505050565b61013b3a8261062a565b82101561015b576040516369343e3760e11b815260040160405180910390fd5b5050565b60005a82604001516101719190610611565b9050600061017f3a8361062a565b905060008084602001518311156101a857602085015192506101a18380610611565b90506101bb565b8285602001516101b89190610611565b91505b73__$eda0f617f16c95263174d8d25961933b8d$__6385e2b880866000015173__$bda6750164d46530feeed1122c24ac1a13$__63606c0c946040518163ffffffff1660e01b815260040161012060405180830381865af4158015610224573d6000803e3d6000fd5b505050506040513d601f19601f820116820180604052508101906102489190610651565b51602089015160405160e085901b6001600160e01b03191681526001600160a01b0393841660048201529290911660248301523060448301526064820152608401602060405180830381865af41580156102a6573d6000803e3d6000fd5b505050506040513d601f19601f820116820180604052508101906102ca91906106d3565b506102d985606001518461035e565b81156102ed576102ed85608001518361035e565b8015610357576040516307c43b6960e21b81526004810182905273__$743db1863e6a0ee1ad13b47ec8f30557c4$__90631f10eda49060240160006040518083038186803b15801561033e57600080fd5b505af4158015610352573d6000803e3d6000fd5b505050505b5050505050565b600073__$bda6750164d46530feeed1122c24ac1a13$__63606c0c946040518163ffffffff1660e01b815260040161012060405180830381865af41580156103aa573d6000803e3d6000fd5b505050506040513d601f19601f820116820180604052508101906103ce9190610651565b51604051632e1a7d4d60e01b8152600481018490529091506001600160a01b03821690632e1a7d4d90602401600060405180830381600087803b15801561041457600080fd5b505af1158015610428573d6000803e3d6000fd5b5050604080516000808252602082019283905261012c9450879350869290916001600160a01b03851691849161045d916106fc565b60006040518083038185875af1925050503d806000811461049a576040519150601f19603f3d011682016040523d82523d6000602084013e61049f565b606091505b505090508061012c5760405162461bcd60e51b815260206004820152600360248201526253544560e81b604482015260640160405180910390fd5b6000602082840312156104ec57600080fd5b5035919050565b6000806040838503121561050657600080fd5b50508035926020909101359150565b604051610120810167ffffffffffffffff8111828210171561054757634e487b7160e01b600052604160045260246000fd5b60405290565b6001600160a01b038116811461056257600080fd5b50565b600060a0828403121561057757600080fd5b60405160a0810181811067ffffffffffffffff821117156105a857634e487b7160e01b600052604160045260246000fd5b60405282356105b68161054d565b80825250602083013560208201526040830135604082015260608301356105dc8161054d565b606082015260808301356105ef8161054d565b60808201529392505050565b634e487b7160e01b600052601160045260246000fd5b81810381811115610624576106246105fb565b92915050565b8082028115828204841417610624576106246105fb565b805161064c8161054d565b919050565b6000610120828403121561066457600080fd5b61066c610515565b61067583610641565b81526020830151602082015260408301516040820152606083015160608201526080830151608082015260a083015160a082015260c083015160c082015260e083015160e08201526101008084015181830152508091505092915050565b6000602082840312156106e557600080fd5b815180151581146106f557600080fd5b9392505050565b6000825160005b8181101561071d5760208186018101518583015201610703565b50600092019182525091905056fea2646970667358221220a64ac1a6c5c07ed10f3da2fa8d961210a5a3b278ae7d48780522a89a8f8b7fab64736f6c63430008190033","linkReferences":{"src/process/VaultProcess.sol":{"VaultProcess":[{"start":502,"length":20}]},"src/storage/AppConfig.sol":{"AppConfig":[{"start":533,"length":20},{"start":923,"length":20}]},"src/storage/CommonData.sol":{"CommonData":[{"start":279,"length":20},{"start":834,"length":20}]}}},"methodIdentifiers":{"addLossExecutionFee(uint256)":"1f10eda4","processExecutionFee(GasProcess.PayExecutionFeeParams)":"4d4d5672","validateExecutionFeeLimit(uint256,uint256)":"4b7bc681"},"id":109}