{"abi":[{"type":"function","name":"getAllStakeTokens","inputs":[],"outputs":[{"name":"","type":"address[]","internalType":"address[]"}],"stateMutability":"view"},{"type":"function","name":"getAllSymbols","inputs":[],"outputs":[{"name":"","type":"bytes32[]","internalType":"bytes32[]"}],"stateMutability":"view"},{"type":"function","name":"getStakeUsdToken","inputs":[],"outputs":[{"name":"","type":"address","internalType":"address"}],"stateMutability":"view"},{"type":"function","name":"isStakeTokenSupport","inputs":[{"name":"stakeToken","type":"address","internalType":"address"}],"outputs":[{"name":"","type":"bool","internalType":"bool"}],"stateMutability":"view"},{"type":"event","name":"CleanFundsUpdateEvent","inputs":[{"name":"token","type":"address","indexed":false,"internalType":"address"},{"name":"preAmount","type":"uint256","indexed":false,"internalType":"uint256"},{"name":"amount","type":"uint256","indexed":false,"internalType":"uint256"}],"anonymous":false},{"type":"event","name":"LossExecutionFeeUpdateEvent","inputs":[{"name":"preAmount","type":"uint256","indexed":false,"internalType":"uint256"},{"name":"amount","type":"uint256","indexed":false,"internalType":"uint256"}],"anonymous":false}],"bytecode":{"object":"0x610e84610039600b82828239805160001a607314602c57634e487b7160e01b600052600060045260246000fd5b30600052607381538281f3fe73000000000000000000000000000000000000000030146080604052600436106101575760003560e01c806386d5c4be116100cd578063c2cfac4911610086578063c2cfac491461037a578063d850772f1461039a578063f10eb1f0146103ba578063f141859a146103da578063fbaf7c48146103fa578063fdc68cfe1461041a57600080fd5b806386d5c4be146102d2578063893a29ff146102da578063896dc0e4146102fa578063b14e54101461031a578063b1cee68d1461033a578063c0d1a0651461035a57600080fd5b80633290bbd31161011f5780633290bbd3146101fd578063376ff13a1461021d5780634f52e5b61461024a57806365b018751461026d5780637aa6aea41461029d578063845cf0d5146102b257600080fd5b80630f4409c91461015c5780631f10eda41461017e578063289e029b1461019e5780632dbc1650146101be5780632dbf7f40146101dc575b600080fd5b81801561016857600080fd5b5061017c610177366004610cce565b610447565b005b81801561018a57600080fd5b5061017c610199366004610ce9565b610473565b8180156101aa57600080fd5b5061017c6101b9366004610ce9565b6104eb565b6101c6610512565b6040516101d39190610d02565b60405180910390f35b6101ef6101ea366004610d4f565b610532565b6040519081526020016101d3565b81801561020957600080fd5b5061017c610218366004610d7b565b610554565b6101ef61022b366004610d4f565b6001600160a01b03166000908152600491909101602052604090205490565b61025d610258366004610cce565b610605565b60405190151581526020016101d3565b6101ef61027b366004610d4f565b6001600160a01b03166000908152600491909101602052604090206001015490565b6102a5610626565b6040516101d39190610da5565b8180156102be57600080fd5b5061017c6102cd366004610ddd565b610688565b6101ef610739565b8180156102e657600080fd5b5061017c6102f5366004610ddd565b61079b565b81801561030657600080fd5b5061017c610315366004610ddd565b610840565b81801561032657600080fd5b5061017c610335366004610ddd565b61086d565b81801561034657600080fd5b5061017c610355366004610ce9565b610897565b81801561036657600080fd5b5061017c610375366004610cce565b61091a565b81801561038657600080fd5b5061017c610395366004610ddd565b610938565b8180156103a657600080fd5b5061017c6103b5366004610ddd565b610962565b8180156103c657600080fd5b5061017c6103d5366004610ddd565b61098c565b6103e2610a32565b6040516001600160a01b0390911681526020016101d3565b81801561040657600080fd5b5061017c610415366004610ddd565b610a4d565b6101ef610428366004610d4f565b6001600160a01b03166000908152600591909101602052604090205490565b6000610451610739565b80546001600160a01b0319166001600160a01b03939093169290921790915550565b600061047d610739565b9050818160070160008282546104939190610e28565b909155505060078101547f5425704060c90c62f0083d9ff73df530b982ea5c64c0dab3c7d5da4761a45119906104ca908490610e3b565b60078301546040805192835260208301919091520160405180910390a15050565b60006104f5610739565b600190810180549182018155600090815260209020019190915550565b6060600061051e610739565b905061052c81600201610af7565b91505090565b6001600160a01b03811660009081526006830160205260409020545b92915050565b600061055e610739565b90506000806105706008840186610b04565b91509150811561059957610593856105888684610e28565b600886019190610b2b565b506105a9565b6105a7600884018686610b2b565b505b7f9b4697523df9dad7380bc9824c0a740b381d50dece736d24a7f48ee23bc97fc385826105d68782610e28565b604080516001600160a01b03909416845260208401929092529082015260600160405180910390a15050505050565b600080610610610739565b905061061f6002820184610b49565b9392505050565b60606000610632610739565b6001810180546040805160208084028201810190925282815293945083018282801561067d57602002820191906000526020600020905b815481526020019060010190808311610669575b505050505091505090565b6001600160a01b03821660009081526006840160205260409020548111156107055760405162461bcd60e51b815260206004820152602560248201527f737562546f6b656e4c696162696c697479206c657373207468616e206c696162604482015264696c69747960d81b60648201526084015b60405180910390fd5b6001600160a01b03821660009081526006840160205260408120805483929061072f908490610e3b565b9091555050505050565b60008060405160200161077d906020808252601b908201527f78797a2e656c66692e73746f726167652e436f6d6d6f6e446174610000000000604082015260600190565b60408051601f19818403018152919052805160209091012092915050565b6001600160a01b03821660009081526004840160205260409020548111156108165760405162461bcd60e51b815260206004820152602860248201527f7375625472616465546f6b656e436f6c6c61746572616c206c657373207468616044820152671b88185b5bdd5b9d60c21b60648201526084016106fc565b6001600160a01b03821660009081526004840160205260408120805483929061072f908490610e3b565b6001600160a01b03821660009081526004840160205260408120600101805483929061072f908490610e28565b6001600160a01b03821660009081526004840160205260408120805483929061072f908490610e28565b60006108a1610739565b60078101549091508281116108bc57600060078301556108d6565b828260070160008282546108d09190610e3b565b90915550505b60078201546040805183815260208101929092527f5425704060c90c62f0083d9ff73df530b982ea5c64c0dab3c7d5da4761a45119910160405180910390a1505050565b6000610924610739565b90506109336002820183610b6b565b505050565b6001600160a01b03821660009081526005840160205260408120805483929061072f908490610e28565b6001600160a01b03821660009081526006840160205260408120805483929061072f908490610e28565b6001600160a01b0382166000908152600584016020526040902054811115610a085760405162461bcd60e51b815260206004820152602960248201527f7375625374616b65436f6c6c61746572616c416d6f756e74206c657373207468604482015268185b88185b5bdd5b9d60ba1b60648201526084016106fc565b6001600160a01b03821660009081526005840160205260408120805483929061072f908490610e3b565b600080610a3d610739565b546001600160a01b031692915050565b6001600160a01b0382166000908152600484016020526040902060010154811115610aca5760405162461bcd60e51b815260206004820152602760248201527f7375625472616465546f6b656e4c696162696c697479206c657373207468616e60448201526608185b5bdd5b9d60ca1b60648201526084016106fc565b6001600160a01b03821660009081526004840160205260408120600101805483929061072f908490610e3b565b6060600061061f83610b80565b6000808080610b1c866001600160a01b038716610bdc565b909450925050505b9250929050565b6000610b41846001600160a01b03851684610c16565b949350505050565b6001600160a01b0381166000908152600183016020526040812054151561061f565b600061061f836001600160a01b038416610c33565b606081600001805480602002602001604051908101604052809291908181526020018280548015610bd057602002820191906000526020600020905b815481526020019060010190808311610bbc575b50505050509050919050565b6000818152600283016020526040812054819080610c0b57610bfe8585610c82565b925060009150610b249050565b600192509050610b24565b60008281526002840160205260408120829055610b418484610c8e565b6000818152600183016020526040812054610c7a5750815460018181018455600084815260208082209093018490558454848252828601909352604090209190915561054e565b50600061054e565b600061061f8383610c9a565b600061061f8383610c33565b6000818152600183016020526040812054151561061f565b80356001600160a01b0381168114610cc957600080fd5b919050565b600060208284031215610ce057600080fd5b61061f82610cb2565b600060208284031215610cfb57600080fd5b5035919050565b6020808252825182820181905260009190848201906040850190845b81811015610d435783516001600160a01b031683529284019291840191600101610d1e565b50909695505050505050565b60008060408385031215610d6257600080fd5b82359150610d7260208401610cb2565b90509250929050565b60008060408385031215610d8e57600080fd5b610d9783610cb2565b946020939093013593505050565b6020808252825182820181905260009190848201906040850190845b81811015610d4357835183529284019291840191600101610dc1565b600080600060608486031215610df257600080fd5b83359250610e0260208501610cb2565b9150604084013590509250925092565b634e487b7160e01b600052601160045260246000fd5b8082018082111561054e5761054e610e12565b8181038181111561054e5761054e610e1256fea26469706673582212202a47054c74f3d99d03a12644a37aef0be0bc61b03b983dc267edc170e312cda864736f6c63430008190033","linkReferences":{}},"methodIdentifiers":{"addCleanFunds(address,uint256)":"3290bbd3","addLossExecutionFee(uint256)":"1f10eda4","addStakeCollateralAmount(CommonData.Props storage,address,uint256)":"c2cfac49","addStakeTokens(address)":"c0d1a065","addSymbol(bytes32)":"289e029b","addTokenLiability(CommonData.Props storage,address,uint256)":"d850772f","addTradeTokenCollateral(CommonData.Props storage,address,uint256)":"b14e5410","addTradeTokenLiability(CommonData.Props storage,address,uint256)":"896dc0e4","getAllStakeTokens()":"2dbc1650","getAllSymbols()":"7aa6aea4","getStakeCollateralAmount(CommonData.Props storage,address)":"fdc68cfe","getStakeUsdToken()":"f141859a","getTokenLiability(CommonData.Props storage,address)":"2dbf7f40","getTradeTokenCollateral(CommonData.Props storage,address)":"376ff13a","getTradeTokenLiability(CommonData.Props storage,address)":"65b01875","isStakeTokenSupport(address)":"4f52e5b6","load()":"86d5c4be","setStakeUsdToken(address)":"0f4409c9","subLossExecutionFee(uint256)":"b1cee68d","subStakeCollateralAmount(CommonData.Props storage,address,uint256)":"f10eb1f0","subTokenLiability(CommonData.Props storage,address,uint256)":"845cf0d5","subTradeTokenCollateral(CommonData.Props storage,address,uint256)":"893a29ff","subTradeTokenLiability(CommonData.Props storage,address,uint256)":"fbaf7c48"},"id":137}