{"abi":[{"type":"constructor","inputs":[{"name":"symbol_","type":"string","internalType":"string"},{"name":"_decimals","type":"uint8","internalType":"uint8"},{"name":"_admin","type":"address","internalType":"address"}],"stateMutability":"nonpayable"},{"type":"function","name":"ADMIN_ROLE","inputs":[],"outputs":[{"name":"","type":"bytes32","internalType":"bytes32"}],"stateMutability":"view"},{"type":"function","name":"DEFAULT_ADMIN_ROLE","inputs":[],"outputs":[{"name":"","type":"bytes32","internalType":"bytes32"}],"stateMutability":"view"},{"type":"function","name":"allowance","inputs":[{"name":"owner","type":"address","internalType":"address"},{"name":"spender","type":"address","internalType":"address"}],"outputs":[{"name":"","type":"uint256","internalType":"uint256"}],"stateMutability":"view"},{"type":"function","name":"approve","inputs":[{"name":"spender","type":"address","internalType":"address"},{"name":"amount","type":"uint256","internalType":"uint256"}],"outputs":[{"name":"","type":"bool","internalType":"bool"}],"stateMutability":"nonpayable"},{"type":"function","name":"balanceOf","inputs":[{"name":"account","type":"address","internalType":"address"}],"outputs":[{"name":"","type":"uint256","internalType":"uint256"}],"stateMutability":"view"},{"type":"function","name":"burn","inputs":[{"name":"account","type":"address","internalType":"address"},{"name":"amount","type":"uint256","internalType":"uint256"}],"outputs":[],"stateMutability":"nonpayable"},{"type":"function","name":"decimals","inputs":[],"outputs":[{"name":"","type":"uint8","internalType":"uint8"}],"stateMutability":"view"},{"type":"function","name":"decreaseAllowance","inputs":[{"name":"spender","type":"address","internalType":"address"},{"name":"subtractedValue","type":"uint256","internalType":"uint256"}],"outputs":[{"name":"","type":"bool","internalType":"bool"}],"stateMutability":"nonpayable"},{"type":"function","name":"getRoleAdmin","inputs":[{"name":"role","type":"bytes32","internalType":"bytes32"}],"outputs":[{"name":"","type":"bytes32","internalType":"bytes32"}],"stateMutability":"view"},{"type":"function","name":"grantAdmin","inputs":[{"name":"newAdmin","type":"address","internalType":"address"}],"outputs":[],"stateMutability":"nonpayable"},{"type":"function","name":"grantRole","inputs":[{"name":"role","type":"bytes32","internalType":"bytes32"},{"name":"account","type":"address","internalType":"address"}],"outputs":[],"stateMutability":"nonpayable"},{"type":"function","name":"hasRole","inputs":[{"name":"role","type":"bytes32","internalType":"bytes32"},{"name":"account","type":"address","internalType":"address"}],"outputs":[{"name":"","type":"bool","internalType":"bool"}],"stateMutability":"view"},{"type":"function","name":"increaseAllowance","inputs":[{"name":"spender","type":"address","internalType":"address"},{"name":"addedValue","type":"uint256","internalType":"uint256"}],"outputs":[{"name":"","type":"bool","internalType":"bool"}],"stateMutability":"nonpayable"},{"type":"function","name":"mint","inputs":[{"name":"account","type":"address","internalType":"address"},{"name":"amount","type":"uint256","internalType":"uint256"}],"outputs":[],"stateMutability":"nonpayable"},{"type":"function","name":"name","inputs":[],"outputs":[{"name":"","type":"string","internalType":"string"}],"stateMutability":"view"},{"type":"function","name":"renounceRole","inputs":[{"name":"role","type":"bytes32","internalType":"bytes32"},{"name":"account","type":"address","internalType":"address"}],"outputs":[],"stateMutability":"nonpayable"},{"type":"function","name":"revokeAdmin","inputs":[{"name":"admin","type":"address","internalType":"address"}],"outputs":[],"stateMutability":"nonpayable"},{"type":"function","name":"revokeRole","inputs":[{"name":"role","type":"bytes32","internalType":"bytes32"},{"name":"account","type":"address","internalType":"address"}],"outputs":[],"stateMutability":"nonpayable"},{"type":"function","name":"supportsInterface","inputs":[{"name":"interfaceId","type":"bytes4","internalType":"bytes4"}],"outputs":[{"name":"","type":"bool","internalType":"bool"}],"stateMutability":"view"},{"type":"function","name":"symbol","inputs":[],"outputs":[{"name":"","type":"string","internalType":"string"}],"stateMutability":"view"},{"type":"function","name":"totalSupply","inputs":[],"outputs":[{"name":"","type":"uint256","internalType":"uint256"}],"stateMutability":"view"},{"type":"function","name":"transfer","inputs":[{"name":"to","type":"address","internalType":"address"},{"name":"amount","type":"uint256","internalType":"uint256"}],"outputs":[{"name":"","type":"bool","internalType":"bool"}],"stateMutability":"nonpayable"},{"type":"function","name":"transferFrom","inputs":[{"name":"from","type":"address","internalType":"address"},{"name":"to","type":"address","internalType":"address"},{"name":"amount","type":"uint256","internalType":"uint256"}],"outputs":[{"name":"","type":"bool","internalType":"bool"}],"stateMutability":"nonpayable"},{"type":"function","name":"transferOut","inputs":[{"name":"token","type":"address","internalType":"address"},{"name":"receiver","type":"address","internalType":"address"},{"name":"amount","type":"uint256","internalType":"uint256"}],"outputs":[],"stateMutability":"nonpayable"},{"type":"event","name":"Approval","inputs":[{"name":"owner","type":"address","indexed":true,"internalType":"address"},{"name":"spender","type":"address","indexed":true,"internalType":"address"},{"name":"value","type":"uint256","indexed":false,"internalType":"uint256"}],"anonymous":false},{"type":"event","name":"RoleAdminChanged","inputs":[{"name":"role","type":"bytes32","indexed":true,"internalType":"bytes32"},{"name":"previousAdminRole","type":"bytes32","indexed":true,"internalType":"bytes32"},{"name":"newAdminRole","type":"bytes32","indexed":true,"internalType":"bytes32"}],"anonymous":false},{"type":"event","name":"RoleGranted","inputs":[{"name":"role","type":"bytes32","indexed":true,"internalType":"bytes32"},{"name":"account","type":"address","indexed":true,"internalType":"address"},{"name":"sender","type":"address","indexed":true,"internalType":"address"}],"anonymous":false},{"type":"event","name":"RoleRevoked","inputs":[{"name":"role","type":"bytes32","indexed":true,"internalType":"bytes32"},{"name":"account","type":"address","indexed":true,"internalType":"address"},{"name":"sender","type":"address","indexed":true,"internalType":"address"}],"anonymous":false},{"type":"event","name":"Transfer","inputs":[{"name":"from","type":"address","indexed":true,"internalType":"address"},{"name":"to","type":"address","indexed":true,"internalType":"address"},{"name":"value","type":"uint256","indexed":false,"internalType":"uint256"}],"anonymous":false},{"type":"error","name":"AddressSelfNotSupported","inputs":[{"name":"self","type":"address","internalType":"address"}]}],"bytecode":{"object":"0x60806040526006805460ff1916601217905534801561001d57600080fd5b506040516116ea3803806116ea83398101604081905261003c916101af565b60408051808201909152600b81526a29ba30b5b2903a37b5b2b760a91b6020820152819084600361006d8382610324565b50600461007a8282610324565b5050506100ad7fa49807205ce4d355092ef5a8a18f56e8913cf4a201fbe287825b095693c21775826100c960201b60201c565b50506006805460ff191660ff92909216919091179055506103e3565b60008281526005602090815260408083206001600160a01b038516845290915290205460ff166101685760008281526005602090815260408083206001600160a01b03851684529091529020805460ff191660011790556101273390565b6001600160a01b0316816001600160a01b0316837f2f8788117e7eff1d82e926ec794901d17c78024a50270940304540a733656f0d60405160405180910390a45b5050565b634e487b7160e01b600052604160045260246000fd5b805160ff8116811461019357600080fd5b919050565b80516001600160a01b038116811461019357600080fd5b6000806000606084860312156101c457600080fd5b83516001600160401b03808211156101db57600080fd5b818601915086601f8301126101ef57600080fd5b8151818111156102015761020161016c565b604051601f8201601f19908116603f011681019083821181831017156102295761022961016c565b8160405282815260209350898484870101111561024557600080fd5b600091505b82821015610267578482018401518183018501529083019061024a565b6000848483010152809750505050610280818701610182565b9350505061029060408501610198565b90509250925092565b600181811c908216806102ad57607f821691505b6020821081036102cd57634e487b7160e01b600052602260045260246000fd5b50919050565b601f82111561031f576000816000526020600020601f850160051c810160208610156102fc5750805b601f850160051c820191505b8181101561031b57828155600101610308565b5050505b505050565b81516001600160401b0381111561033d5761033d61016c565b6103518161034b8454610299565b846102d3565b602080601f831160018114610386576000841561036e5750858301515b600019600386901b1c1916600185901b17855561031b565b600085815260208120601f198616915b828110156103b557888601518255948401946001909101908401610396565b50858210156103d35787850151600019600388901b60f8161c191681555b5050505050600190811b01905550565b6112f8806103f26000396000f3fe608060405234801561001057600080fd5b50600436106101585760003560e01c806339509351116100c35780639dc29fac1161007c5780639dc29fac146102ea578063a217fddf146102fd578063a457c2d714610305578063a9059cbb14610318578063d547741f1461032b578063dd62ed3e1461033e57600080fd5b8063395093511461026b57806340c10f191461027e57806370a082311461029157806375b238fc146102ba57806391d14854146102cf57806395d89b41146102e257600080fd5b8063248a9ca311610115578063248a9ca3146101e75780632d3456701461020a5780632f2ff15d1461021d578063313ce5671461023057806335bb3e161461024557806336568abe1461025857600080fd5b806301ffc9a71461015d57806306fdde0314610185578063078d3b791461019a578063095ea7b3146101af57806318160ddd146101c257806323b872dd146101d4575b600080fd5b61017061016b366004610fe3565b610351565b60405190151581526020015b60405180910390f35b61018d610388565b60405161017c9190611031565b6101ad6101a8366004611080565b61041a565b005b6101706101bd3660046110bc565b6104eb565b6002545b60405190815260200161017c565b6101706101e2366004611080565b610503565b6101c66101f53660046110e6565b60009081526005602052604090206001015490565b6101ad6102183660046110ff565b610527565b6101ad61022b36600461111a565b61055b565b60065460405160ff909116815260200161017c565b6101ad6102533660046110ff565b610585565b6101ad61026636600461111a565b6105b5565b6101706102793660046110bc565b61062f565b6101ad61028c3660046110bc565b610651565b6101c661029f3660046110ff565b6001600160a01b031660009081526020819052604090205490565b6101c66000805160206112a383398151915281565b6101706102dd36600461111a565b610673565b61018d61069e565b6101ad6102f83660046110bc565b6106ad565b6101c6600081565b6101706103133660046110bc565b6106cf565b6101706103263660046110bc565b61074a565b6101ad61033936600461111a565b610758565b6101c661034c366004611146565b61077d565b60006001600160e01b03198216637965db0b60e01b148061038257506301ffc9a760e01b6001600160e01b03198316145b92915050565b60606003805461039790611170565b80601f01602080910402602001604051908101604052809291908181526020018280546103c390611170565b80156104105780601f106103e557610100808354040283529160200191610410565b820191906000526020600020905b8154815290600101906020018083116103f357829003601f168201915b5050505050905090565b6000805160206112a3833981519152610432816107a8565b306001600160a01b0384160361046b57604051638d6a597160e01b81526001600160a01b03841660048201526024015b60405180910390fd5b6040516317d5759960e31b81526001600160a01b038086166004830152841660248201526044810183905273__$37ba7fa00e1775c4c1178ee9b1b75f62af$__9063beabacc89060640160006040518083038186803b1580156104cd57600080fd5b505af41580156104e1573d6000803e3d6000fd5b5050505050505050565b6000336104f98185856107b5565b5060019392505050565b6000336105118582856108d9565b61051c858585610953565b506001949350505050565b6000805160206112a383398151915261053f816107a8565b6105576000805160206112a383398151915283610af7565b5050565b600082815260056020526040902060010154610576816107a8565b6105808383610b5e565b505050565b6000805160206112a383398151915261059d816107a8565b6105576000805160206112a383398151915283610b5e565b6001600160a01b03811633146106255760405162461bcd60e51b815260206004820152602f60248201527f416363657373436f6e74726f6c3a2063616e206f6e6c792072656e6f756e636560448201526e103937b632b9903337b91039b2b63360891b6064820152608401610462565b6105578282610af7565b6000336104f9818585610642838361077d565b61064c91906111c0565b6107b5565b6000805160206112a3833981519152610669816107a8565b6105808383610be4565b60009182526005602090815260408084206001600160a01b0393909316845291905290205460ff1690565b60606004805461039790611170565b6000805160206112a38339815191526106c5816107a8565b6105808383610ca3565b600033816106dd828661077d565b90508381101561073d5760405162461bcd60e51b815260206004820152602560248201527f45524332303a2064656372656173656420616c6c6f77616e63652062656c6f77604482015264207a65726f60d81b6064820152608401610462565b61051c82868684036107b5565b6000336104f9818585610953565b600082815260056020526040902060010154610773816107a8565b6105808383610af7565b6001600160a01b03918216600090815260016020908152604080832093909416825291909152205490565b6107b28133610dd5565b50565b6001600160a01b0383166108175760405162461bcd60e51b8152602060048201526024808201527f45524332303a20617070726f76652066726f6d20746865207a65726f206164646044820152637265737360e01b6064820152608401610462565b6001600160a01b0382166108785760405162461bcd60e51b815260206004820152602260248201527f45524332303a20617070726f766520746f20746865207a65726f206164647265604482015261737360f01b6064820152608401610462565b6001600160a01b0383811660008181526001602090815260408083209487168084529482529182902085905590518481527f8c5be1e5ebec7d5bd14f71427d1e84f3dd0314c0f7b2291e5b200ac8c7c3b925910160405180910390a3505050565b60006108e5848461077d565b9050600019811461094d57818110156109405760405162461bcd60e51b815260206004820152601d60248201527f45524332303a20696e73756666696369656e7420616c6c6f77616e63650000006044820152606401610462565b61094d84848484036107b5565b50505050565b6001600160a01b0383166109b75760405162461bcd60e51b815260206004820152602560248201527f45524332303a207472616e736665722066726f6d20746865207a65726f206164604482015264647265737360d81b6064820152608401610462565b6001600160a01b038216610a195760405162461bcd60e51b815260206004820152602360248201527f45524332303a207472616e7366657220746f20746865207a65726f206164647260448201526265737360e81b6064820152608401610462565b6001600160a01b03831660009081526020819052604090205481811015610a915760405162461bcd60e51b815260206004820152602660248201527f45524332303a207472616e7366657220616d6f756e7420657863656564732062604482015265616c616e636560d01b6064820152608401610462565b6001600160a01b03848116600081815260208181526040808320878703905593871680835291849020805487019055925185815290927fddf252ad1be2c89b69c2b068fc378daa952ba7f163c4a11628f55a4df523b3ef910160405180910390a361094d565b610b018282610673565b156105575760008281526005602090815260408083206001600160a01b0385168085529252808320805460ff1916905551339285917ff6391f5c32d9c69d2a47ea670b442974b53935d1edc7fd64eb21e047a839171b9190a45050565b610b688282610673565b6105575760008281526005602090815260408083206001600160a01b03851684529091529020805460ff19166001179055610ba03390565b6001600160a01b0316816001600160a01b0316837f2f8788117e7eff1d82e926ec794901d17c78024a50270940304540a733656f0d60405160405180910390a45050565b6001600160a01b038216610c3a5760405162461bcd60e51b815260206004820152601f60248201527f45524332303a206d696e7420746f20746865207a65726f2061646472657373006044820152606401610462565b8060026000828254610c4c91906111c0565b90915550506001600160a01b038216600081815260208181526040808320805486019055518481527fddf252ad1be2c89b69c2b068fc378daa952ba7f163c4a11628f55a4df523b3ef910160405180910390a35050565b6001600160a01b038216610d035760405162461bcd60e51b815260206004820152602160248201527f45524332303a206275726e2066726f6d20746865207a65726f206164647265736044820152607360f81b6064820152608401610462565b6001600160a01b03821660009081526020819052604090205481811015610d775760405162461bcd60e51b815260206004820152602260248201527f45524332303a206275726e20616d6f756e7420657863656564732062616c616e604482015261636560f01b6064820152608401610462565b6001600160a01b0383166000818152602081815260408083208686039055600280548790039055518581529192917fddf252ad1be2c89b69c2b068fc378daa952ba7f163c4a11628f55a4df523b3ef910160405180910390a3505050565b610ddf8282610673565b61055757610dec81610e2e565b610df7836020610e40565b604051602001610e089291906111d3565b60408051601f198184030181529082905262461bcd60e51b825261046291600401611031565b60606103826001600160a01b03831660145b60606000610e4f836002611248565b610e5a9060026111c0565b67ffffffffffffffff811115610e7257610e7261125f565b6040519080825280601f01601f191660200182016040528015610e9c576020820181803683370190505b509050600360fc1b81600081518110610eb757610eb7611275565b60200101906001600160f81b031916908160001a905350600f60fb1b81600181518110610ee657610ee6611275565b60200101906001600160f81b031916908160001a9053506000610f0a846002611248565b610f159060016111c0565b90505b6001811115610f8d576f181899199a1a9b1b9c1cb0b131b232b360811b85600f1660108110610f4957610f49611275565b1a60f81b828281518110610f5f57610f5f611275565b60200101906001600160f81b031916908160001a90535060049490941c93610f868161128b565b9050610f18565b508315610fdc5760405162461bcd60e51b815260206004820181905260248201527f537472696e67733a20686578206c656e67746820696e73756666696369656e746044820152606401610462565b9392505050565b600060208284031215610ff557600080fd5b81356001600160e01b031981168114610fdc57600080fd5b60005b83811015611028578181015183820152602001611010565b50506000910152565b602081526000825180602084015261105081604085016020870161100d565b601f01601f19169190910160400192915050565b80356001600160a01b038116811461107b57600080fd5b919050565b60008060006060848603121561109557600080fd5b61109e84611064565b92506110ac60208501611064565b9150604084013590509250925092565b600080604083850312156110cf57600080fd5b6110d883611064565b946020939093013593505050565b6000602082840312156110f857600080fd5b5035919050565b60006020828403121561111157600080fd5b610fdc82611064565b6000806040838503121561112d57600080fd5b8235915061113d60208401611064565b90509250929050565b6000806040838503121561115957600080fd5b61116283611064565b915061113d60208401611064565b600181811c9082168061118457607f821691505b6020821081036111a457634e487b7160e01b600052602260045260246000fd5b50919050565b634e487b7160e01b600052601160045260246000fd5b80820180821115610382576103826111aa565b7f416363657373436f6e74726f6c3a206163636f756e742000000000000000000081526000835161120b81601785016020880161100d565b7001034b99036b4b9b9b4b733903937b6329607d1b601791840191820152835161123c81602884016020880161100d565b01602801949350505050565b8082028115828204841417610382576103826111aa565b634e487b7160e01b600052604160045260246000fd5b634e487b7160e01b600052603260045260246000fd5b60008161129a5761129a6111aa565b50600019019056fea49807205ce4d355092ef5a8a18f56e8913cf4a201fbe287825b095693c21775a264697066735822122051779bbe490c663ec62bfbc216cb43f3f3c9773a781937fb4b78be86fbabe42d64736f6c63430008190033","linkReferences":{"src/utils/TransferUtils.sol":{"TransferUtils":[{"start":2186,"length":20}]}}},"methodIdentifiers":{"ADMIN_ROLE()":"75b238fc","DEFAULT_ADMIN_ROLE()":"a217fddf","allowance(address,address)":"dd62ed3e","approve(address,uint256)":"095ea7b3","balanceOf(address)":"70a08231","burn(address,uint256)":"9dc29fac","decimals()":"313ce567","decreaseAllowance(address,uint256)":"a457c2d7","getRoleAdmin(bytes32)":"248a9ca3","grantAdmin(address)":"35bb3e16","grantRole(bytes32,address)":"2f2ff15d","hasRole(bytes32,address)":"91d14854","increaseAllowance(address,uint256)":"39509351","mint(address,uint256)":"40c10f19","name()":"06fdde03","renounceRole(bytes32,address)":"36568abe","revokeAdmin(address)":"2d345670","revokeRole(bytes32,address)":"d547741f","supportsInterface(bytes4)":"01ffc9a7","symbol()":"95d89b41","totalSupply()":"18160ddd","transfer(address,uint256)":"a9059cbb","transferFrom(address,address,uint256)":"23b872dd","transferOut(address,address,uint256)":"078d3b79"},"id":169}