{"abi":[{"type":"constructor","inputs":[{"name":"admin","type":"address","internalType":"address"}],"stateMutability":"nonpayable"},{"type":"function","name":"ADMIN_ROLE","inputs":[],"outputs":[{"name":"","type":"bytes32","internalType":"bytes32"}],"stateMutability":"view"},{"type":"function","name":"DEFAULT_ADMIN_ROLE","inputs":[],"outputs":[{"name":"","type":"bytes32","internalType":"bytes32"}],"stateMutability":"view"},{"type":"function","name":"getRoleAdmin","inputs":[{"name":"role","type":"bytes32","internalType":"bytes32"}],"outputs":[{"name":"","type":"bytes32","internalType":"bytes32"}],"stateMutability":"view"},{"type":"function","name":"grantAdmin","inputs":[{"name":"newAdmin","type":"address","internalType":"address"}],"outputs":[],"stateMutability":"nonpayable"},{"type":"function","name":"grantRole","inputs":[{"name":"role","type":"bytes32","internalType":"bytes32"},{"name":"account","type":"address","internalType":"address"}],"outputs":[],"stateMutability":"nonpayable"},{"type":"function","name":"hasRole","inputs":[{"name":"role","type":"bytes32","internalType":"bytes32"},{"name":"account","type":"address","internalType":"address"}],"outputs":[{"name":"","type":"bool","internalType":"bool"}],"stateMutability":"view"},{"type":"function","name":"renounceRole","inputs":[{"name":"role","type":"bytes32","internalType":"bytes32"},{"name":"account","type":"address","internalType":"address"}],"outputs":[],"stateMutability":"nonpayable"},{"type":"function","name":"revokeAdmin","inputs":[{"name":"admin","type":"address","internalType":"address"}],"outputs":[],"stateMutability":"nonpayable"},{"type":"function","name":"revokeRole","inputs":[{"name":"role","type":"bytes32","internalType":"bytes32"},{"name":"account","type":"address","internalType":"address"}],"outputs":[],"stateMutability":"nonpayable"},{"type":"function","name":"supportsInterface","inputs":[{"name":"interfaceId","type":"bytes4","internalType":"bytes4"}],"outputs":[{"name":"","type":"bool","internalType":"bool"}],"stateMutability":"view"},{"type":"function","name":"transferOut","inputs":[{"name":"token","type":"address","internalType":"address"},{"name":"receiver","type":"address","internalType":"address"},{"name":"amount","type":"uint256","internalType":"uint256"}],"outputs":[],"stateMutability":"nonpayable"},{"type":"event","name":"RoleAdminChanged","inputs":[{"name":"role","type":"bytes32","indexed":true,"internalType":"bytes32"},{"name":"previousAdminRole","type":"bytes32","indexed":true,"internalType":"bytes32"},{"name":"newAdminRole","type":"bytes32","indexed":true,"internalType":"bytes32"}],"anonymous":false},{"type":"event","name":"RoleGranted","inputs":[{"name":"role","type":"bytes32","indexed":true,"internalType":"bytes32"},{"name":"account","type":"address","indexed":true,"internalType":"address"},{"name":"sender","type":"address","indexed":true,"internalType":"address"}],"anonymous":false},{"type":"event","name":"RoleRevoked","inputs":[{"name":"role","type":"bytes32","indexed":true,"internalType":"bytes32"},{"name":"account","type":"address","indexed":true,"internalType":"address"},{"name":"sender","type":"address","indexed":true,"internalType":"address"}],"anonymous":false},{"type":"error","name":"AddressSelfNotSupported","inputs":[{"name":"self","type":"address","internalType":"address"}]}],"bytecode":{"object":"0x608060405234801561001057600080fd5b50604051610ad1380380610ad183398101604081905261002f916100fe565b6100597fa49807205ce4d355092ef5a8a18f56e8913cf4a201fbe287825b095693c217758261005f565b5061012e565b6000828152602081815260408083206001600160a01b038516845290915290205460ff166100fa576000828152602081815260408083206001600160a01b03851684529091529020805460ff191660011790556100b93390565b6001600160a01b0316816001600160a01b0316837f2f8788117e7eff1d82e926ec794901d17c78024a50270940304540a733656f0d60405160405180910390a45b5050565b60006020828403121561011057600080fd5b81516001600160a01b038116811461012757600080fd5b9392505050565b6109948061013d6000396000f3fe608060405234801561001057600080fd5b50600436106100a95760003560e01c806335bb3e161161007157806335bb3e161461014257806336568abe1461015557806375b238fc1461016857806391d148541461017d578063a217fddf14610190578063d547741f1461019857600080fd5b806301ffc9a7146100ae578063078d3b79146100d6578063248a9ca3146100eb5780632d3456701461011c5780632f2ff15d1461012f575b600080fd5b6100c16100bc36600461070d565b6101ab565b60405190151581526020015b60405180910390f35b6100e96100e4366004610753565b6101e2565b005b61010e6100f936600461078f565b60009081526020819052604090206001015490565b6040519081526020016100cd565b6100e961012a3660046107a8565b6102b3565b6100e961013d3660046107c3565b6102e7565b6100e96101503660046107a8565b610311565b6100e96101633660046107c3565b610341565b61010e60008051602061093f83398151915281565b6100c161018b3660046107c3565b6103bb565b61010e600081565b6100e96101a63660046107c3565b6103e4565b60006001600160e01b03198216637965db0b60e01b14806101dc57506301ffc9a760e01b6001600160e01b03198316145b92915050565b60008051602061093f8339815191526101fa81610409565b306001600160a01b0384160361023357604051638d6a597160e01b81526001600160a01b03841660048201526024015b60405180910390fd5b6040516317d5759960e31b81526001600160a01b038086166004830152841660248201526044810183905273__$37ba7fa00e1775c4c1178ee9b1b75f62af$__9063beabacc89060640160006040518083038186803b15801561029557600080fd5b505af41580156102a9573d6000803e3d6000fd5b5050505050505050565b60008051602061093f8339815191526102cb81610409565b6102e360008051602061093f83398151915283610416565b5050565b60008281526020819052604090206001015461030281610409565b61030c838361047b565b505050565b60008051602061093f83398151915261032981610409565b6102e360008051602061093f8339815191528361047b565b6001600160a01b03811633146103b15760405162461bcd60e51b815260206004820152602f60248201527f416363657373436f6e74726f6c3a2063616e206f6e6c792072656e6f756e636560448201526e103937b632b9903337b91039b2b63360891b606482015260840161022a565b6102e38282610416565b6000918252602082815260408084206001600160a01b0393909316845291905290205460ff1690565b6000828152602081905260409020600101546103ff81610409565b61030c8383610416565b61041381336104ff565b50565b61042082826103bb565b156102e3576000828152602081815260408083206001600160a01b0385168085529252808320805460ff1916905551339285917ff6391f5c32d9c69d2a47ea670b442974b53935d1edc7fd64eb21e047a839171b9190a45050565b61048582826103bb565b6102e3576000828152602081815260408083206001600160a01b03851684529091529020805460ff191660011790556104bb3390565b6001600160a01b0316816001600160a01b0316837f2f8788117e7eff1d82e926ec794901d17c78024a50270940304540a733656f0d60405160405180910390a45050565b61050982826103bb565b6102e35761051681610558565b61052183602061056a565b604051602001610532929190610813565b60408051601f198184030181529082905262461bcd60e51b825261022a91600401610888565b60606101dc6001600160a01b03831660145b606060006105798360026108d1565b6105849060026108e8565b67ffffffffffffffff81111561059c5761059c6108fb565b6040519080825280601f01601f1916602001820160405280156105c6576020820181803683370190505b509050600360fc1b816000815181106105e1576105e1610911565b60200101906001600160f81b031916908160001a905350600f60fb1b8160018151811061061057610610610911565b60200101906001600160f81b031916908160001a90535060006106348460026108d1565b61063f9060016108e8565b90505b60018111156106b7576f181899199a1a9b1b9c1cb0b131b232b360811b85600f166010811061067357610673610911565b1a60f81b82828151811061068957610689610911565b60200101906001600160f81b031916908160001a90535060049490941c936106b081610927565b9050610642565b5083156107065760405162461bcd60e51b815260206004820181905260248201527f537472696e67733a20686578206c656e67746820696e73756666696369656e74604482015260640161022a565b9392505050565b60006020828403121561071f57600080fd5b81356001600160e01b03198116811461070657600080fd5b80356001600160a01b038116811461074e57600080fd5b919050565b60008060006060848603121561076857600080fd5b61077184610737565b925061077f60208501610737565b9150604084013590509250925092565b6000602082840312156107a157600080fd5b5035919050565b6000602082840312156107ba57600080fd5b61070682610737565b600080604083850312156107d657600080fd5b823591506107e660208401610737565b90509250929050565b60005b8381101561080a5781810151838201526020016107f2565b50506000910152565b7f416363657373436f6e74726f6c3a206163636f756e742000000000000000000081526000835161084b8160178501602088016107ef565b7001034b99036b4b9b9b4b733903937b6329607d1b601791840191820152835161087c8160288401602088016107ef565b01602801949350505050565b60208152600082518060208401526108a78160408501602087016107ef565b601f01601f19169190910160400192915050565b634e487b7160e01b600052601160045260246000fd5b80820281158282048414176101dc576101dc6108bb565b808201808211156101dc576101dc6108bb565b634e487b7160e01b600052604160045260246000fd5b634e487b7160e01b600052603260045260246000fd5b600081610936576109366108bb565b50600019019056fea49807205ce4d355092ef5a8a18f56e8913cf4a201fbe287825b095693c21775a2646970667358221220cd63030ecdb0b53d64d2ad48de3b5354136230b00695ec9d02955c835107534264736f6c63430008190033","linkReferences":{"src/utils/TransferUtils.sol":{"TransferUtils":[{"start":925,"length":20}]}}},"methodIdentifiers":{"ADMIN_ROLE()":"75b238fc","DEFAULT_ADMIN_ROLE()":"a217fddf","getRoleAdmin(bytes32)":"248a9ca3","grantAdmin(address)":"35bb3e16","grantRole(bytes32,address)":"2f2ff15d","hasRole(bytes32,address)":"91d14854","renounceRole(bytes32,address)":"36568abe","revokeAdmin(address)":"2d345670","revokeRole(bytes32,address)":"d547741f","supportsInterface(bytes4)":"01ffc9a7","transferOut(address,address,uint256)":"078d3b79"},"id":161}