{"abi":[{"type":"function","name":"decimals","inputs":[{"name":"token","type":"address","internalType":"address"}],"outputs":[{"name":"","type":"uint8","internalType":"uint8"}],"stateMutability":"view"},{"type":"function","name":"totalSupply","inputs":[{"name":"token","type":"address","internalType":"address"}],"outputs":[{"name":"","type":"uint256","internalType":"uint256"}],"stateMutability":"view"}],"bytecode":{"object":"0x610200610039600b82828239805160001a607314602c57634e487b7160e01b600052600060045260246000fd5b30600052607381538281f3fe73000000000000000000000000000000000000000030146080604052600436106100405760003560e01c8063d449a83214610045578063e4dc2aa41461006f575b600080fd5b61005861005336600461015e565b610090565b60405160ff90911681526020015b60405180910390f35b61008261007d36600461015e565b6100fa565b604051908152602001610066565b6000816001600160a01b031663313ce5676040518163ffffffff1660e01b8152600401602060405180830381865afa1580156100d0573d6000803e3d6000fd5b505050506040513d601f19601f820116820180604052508101906100f4919061018e565b92915050565b6000816001600160a01b03166318160ddd6040518163ffffffff1660e01b8152600401602060405180830381865afa15801561013a573d6000803e3d6000fd5b505050506040513d601f19601f820116820180604052508101906100f491906101b1565b60006020828403121561017057600080fd5b81356001600160a01b038116811461018757600080fd5b9392505050565b6000602082840312156101a057600080fd5b815160ff8116811461018757600080fd5b6000602082840312156101c357600080fd5b505191905056fea2646970667358221220abd6165dbb98ec3008783d475267f5155243f5a3ec43c21c8e175c4d083c005b64736f6c63430008190033","linkReferences":{}},"methodIdentifiers":{"decimals(address)":"d449a832","totalSupply(address)":"e4dc2aa4"},"id":164}