{"abi":[{"type":"function","name":"getAllSymbols","inputs":[],"outputs":[{"name":"","type":"tuple[]","internalType":"struct IMarket.SymbolInfo[]","components":[{"name":"code","type":"bytes32","internalType":"bytes32"},{"name":"status","type":"uint8","internalType":"enum Symbol.Status"},{"name":"stakeToken","type":"address","internalType":"address"},{"name":"indexToken","type":"address","internalType":"address"},{"name":"baseToken","type":"address","internalType":"address"},{"name":"config","type":"tuple","internalType":"struct AppConfig.SymbolConfig","components":[{"name":"maxLeverage","type":"uint256","internalType":"uint256"},{"name":"tickSize","type":"uint256","internalType":"uint256"},{"name":"openFeeRate","type":"uint256","internalType":"uint256"},{"name":"closeFeeRate","type":"uint256","internalType":"uint256"},{"name":"maxLongOpenInterestCap","type":"uint256","internalType":"uint256"},{"name":"maxShortOpenInterestCap","type":"uint256","internalType":"uint256"},{"name":"longShortRatioLimit","type":"uint256","internalType":"uint256"},{"name":"longShortOiBottomLimit","type":"uint256","internalType":"uint256"}]}]}],"stateMutability":"view"},{"type":"function","name":"getLastUuid","inputs":[{"name":"key","type":"bytes32","internalType":"bytes32"}],"outputs":[{"name":"","type":"uint256","internalType":"uint256"}],"stateMutability":"view"},{"type":"function","name":"getMarketInfo","inputs":[{"name":"code","type":"bytes32","internalType":"bytes32"},{"name":"oracles","type":"tuple[]","internalType":"struct OracleProcess.OracleParam[]","components":[{"name":"token","type":"address","internalType":"address"},{"name":"targetToken","type":"address","internalType":"address"},{"name":"minPrice","type":"int256","internalType":"int256"},{"name":"maxPrice","type":"int256","internalType":"int256"}]}],"outputs":[{"name":"","type":"tuple","internalType":"struct IMarket.MarketInfo","components":[{"name":"symbolInfo","type":"tuple","internalType":"struct Symbol.Props","components":[{"name":"code","type":"bytes32","internalType":"bytes32"},{"name":"status","type":"uint8","internalType":"enum Symbol.Status"},{"name":"stakeToken","type":"address","internalType":"address"},{"name":"indexToken","type":"address","internalType":"address"},{"name":"baseToken","type":"address","internalType":"address"},{"name":"baseTokenName","type":"string","internalType":"string"}]},{"name":"longPositionInterest","type":"uint256","internalType":"uint256"},{"name":"longPositionEntryPrice","type":"uint256","internalType":"uint256"},{"name":"totalShortPositionInterest","type":"uint256","internalType":"uint256"},{"name":"shortPositions","type":"tuple[]","internalType":"struct Market.MarketPosition[]","components":[{"name":"openInterest","type":"uint256","internalType":"uint256"},{"name":"entryPrice","type":"uint256","internalType":"uint256"}]},{"name":"availableLiquidity","type":"uint256","internalType":"uint256"},{"name":"fundingFee","type":"tuple","internalType":"struct Market.FundingFee","components":[{"name":"longFundingFeePerQty","type":"int256","internalType":"int256"},{"name":"shortFundingFeePerQty","type":"int256","internalType":"int256"},{"name":"totalLongFundingFee","type":"int256","internalType":"int256"},{"name":"totalShortFundingFee","type":"int256","internalType":"int256"},{"name":"longFundingFeeRate","type":"int256","internalType":"int256"},{"name":"shortFundingFeeRate","type":"int256","internalType":"int256"},{"name":"lastUpdateTime","type":"uint256","internalType":"uint256"}]}]}],"stateMutability":"view"},{"type":"function","name":"getStakeUsdToken","inputs":[],"outputs":[{"name":"","type":"address","internalType":"address"}],"stateMutability":"view"},{"type":"function","name":"getSymbol","inputs":[{"name":"code","type":"bytes32","internalType":"bytes32"}],"outputs":[{"name":"params","type":"tuple","internalType":"struct IMarket.SymbolInfo","components":[{"name":"code","type":"bytes32","internalType":"bytes32"},{"name":"status","type":"uint8","internalType":"enum Symbol.Status"},{"name":"stakeToken","type":"address","internalType":"address"},{"name":"indexToken","type":"address","internalType":"address"},{"name":"baseToken","type":"address","internalType":"address"},{"name":"config","type":"tuple","internalType":"struct AppConfig.SymbolConfig","components":[{"name":"maxLeverage","type":"uint256","internalType":"uint256"},{"name":"tickSize","type":"uint256","internalType":"uint256"},{"name":"openFeeRate","type":"uint256","internalType":"uint256"},{"name":"closeFeeRate","type":"uint256","internalType":"uint256"},{"name":"maxLongOpenInterestCap","type":"uint256","internalType":"uint256"},{"name":"maxShortOpenInterestCap","type":"uint256","internalType":"uint256"},{"name":"longShortRatioLimit","type":"uint256","internalType":"uint256"},{"name":"longShortOiBottomLimit","type":"uint256","internalType":"uint256"}]}]}],"stateMutability":"view"},{"type":"function","name":"getTradeTokenInfo","inputs":[{"name":"token","type":"address","internalType":"address"}],"outputs":[{"name":"","type":"tuple","internalType":"struct IMarket.TradeTokenInfo","components":[{"name":"tradeTokenCollateral","type":"uint256","internalType":"uint256"},{"name":"tradeTokenLiability","type":"uint256","internalType":"uint256"}]}],"stateMutability":"view"}],"bytecode":{"object":"0x6080604052348015600f57600080fd5b506111038061001f6000396000f3fe608060405234801561001057600080fd5b50600436106100625760003560e01c806351d1a5af146100675780635cfac837146100905780637aa6aea4146100b0578063a7b039d9146100c5578063cd0743c9146100e5578063f141859a14610106575b600080fd5b61007a610075366004610735565b610126565b6040516100879190610860565b60405180910390f35b6100a361009e366004610999565b6101b6565b6040516100879190610a53565b6100b86101cd565b6040516100879190610a62565b6100d86100d3366004610ac9565b6102f6565b6040516100879190610aed565b6100f86100f3366004610999565b610383565b604051908152602001610087565b61010e6103fa565b6040516001600160a01b039091168152602001610087565b61012e6105f6565b60405163aece5ffd60e01b815273__$7e3e375a043b2e0c3e1b8de6f9ee6f1a85$__9063aece5ffd9061016990879087908790600401610b04565b600060405180830381865af4158015610186573d6000803e3d6000fd5b505050506040513d6000823e601f3d908101601f191682016040526101ae9190810190610e78565b949350505050565b6101be6106a3565b6101c78261046e565b92915050565b6060600073__$743db1863e6a0ee1ad13b47ec8f30557c4$__637aa6aea46040518163ffffffff1660e01b8152600401600060405180830381865af415801561021a573d6000803e3d6000fd5b505050506040513d6000823e601f3d908101601f191682016040526102429190810190610f44565b90506000815167ffffffffffffffff81111561026057610260610b88565b60405190808252806020026020018201604052801561029957816020015b6102866106a3565b81526020019060019003908161027e5790505b50905060005b82518110156102ef576102ca8382815181106102bd576102bd610fd5565b602002602001015161046e565b8282815181106102dc576102dc610fd5565b602090810291909101015260010161029f565b5092915050565b60408051808201825260008082526020820152905163a7b039d960e01b81526001600160a01b038316600482015273__$7e3e375a043b2e0c3e1b8de6f9ee6f1a85$__9063a7b039d9906024016040805180830381865af415801561035f573d6000803e3d6000fd5b505050506040513d601f19601f820116820180604052508101906101c79190610feb565b60405163e556977360e01b81526004810182905260009073__$6ebb2450d5e04bda18965cfdba2d8f11f4$__9063e556977390602401602060405180830381865af41580156103d6573d6000803e3d6000fd5b505050506040513d601f19601f820116820180604052508101906101c79190611007565b600073__$743db1863e6a0ee1ad13b47ec8f30557c4$__63f141859a6040518163ffffffff1660e01b8152600401602060405180830381865af4158015610445573d6000803e3d6000fd5b505050506040513d601f19601f820116820180604052508101906104699190611020565b905090565b6104766106a3565b60405163f035079960e01b81526004810183905260009073__$772a6c28cc3d4776ea886febacbb24816f$__9063f035079990602401602060405180830381865af41580156104c9573d6000803e3d6000fd5b505050506040513d601f19601f820116820180604052508101906104ed9190611007565b600181015490915061010090046001600160a01b0316156105f057805482526001810154602083019060ff16600381111561052a5761052a6107b4565b9081600381111561053d5761053d6107b4565b905250600181015461010090046001600160a01b03908116604084810191909152600283015482166060850152600383015490911660808401525163e1be37bd60e01b81526004810184905273__$acce7506676b87ccbb54b9fc6afc582415$__9063e1be37bd9060240161010060405180830381865af41580156105c6573d6000803e3d6000fd5b505050506040513d601f19601f820116820180604052508101906105ea919061103d565b60a08301525b50919050565b604080516101a08101909152600060e08201818152610100830182905261012083018290526101408301829052610160830191909152606061018083015281908152602001600081526020016000815260200160008152602001606081526020016000815260200161069e6040518060e00160405280600081526020016000815260200160008152602001600081526020016000815260200160008152602001600081525090565b905290565b6040805160c0810190915260008082526020820190815260200160006001600160a01b0316815260200160006001600160a01b0316815260200160006001600160a01b0316815260200161069e60405180610100016040528060008152602001600081526020016000815260200160008152602001600081526020016000815260200160008152602001600081525090565b60008060006040848603121561074a57600080fd5b83359250602084013567ffffffffffffffff8082111561076957600080fd5b818601915086601f83011261077d57600080fd5b81358181111561078c57600080fd5b8760208260071b85010111156107a157600080fd5b6020830194508093505050509250925092565b634e487b7160e01b600052602160045260246000fd5b600481106107e857634e487b7160e01b600052602160045260246000fd5b9052565b60005b838110156108075781810151838201526020016107ef565b50506000910152565b60008151808452602080850194506020840160005b838110156108555761084287835180518252602090810151910152565b6040969096019590820190600101610825565b509495945050505050565b60208152600082516101a0602084015261028081516101c0850152602082015161088e6101e08601826107ca565b5060408201516001600160a01b039081166102008601526060830151811661022086015260808301511661024085015260a09091015160c061026085015280518285018190529091906102a06108ea82828801602087016107ec565b601f19601f8301168601935060208701516040870152604087015160608701526060870151608087015260808701519150828685030160a087015261093181850183610810565b935050505060a084015160c084015260c084015161099160e0850182805182526020810151602083015260408101516040830152606081015160608301526080810151608083015260a081015160a083015260c081015160c08301525050565b509392505050565b6000602082840312156109ab57600080fd5b5035919050565b8051825260208101516109c860208401826107ca565b50604081015160018060a01b038082166040850152806060840151166060850152806080840151166080850152505060a0810151805160a0840152602081015160c0840152604081015160e08401526060810151610100840152608081015161012084015260a081015161014084015260c081015161016084015260e0810151610180840152505050565b6101a081016101c782846109b2565b6020808252825182820181905260009190848201906040850190845b81811015610aa557610a918385516109b2565b928401926101a09290920191600101610a7e565b50909695505050505050565b6001600160a01b0381168114610ac657600080fd5b50565b600060208284031215610adb57600080fd5b8135610ae681610ab1565b9392505050565b8151815260208083015190820152604081016101c7565b838152604060208083018290528282018490526000919060609081850187855b88811015610b79578135610b3781610ab1565b6001600160a01b0390811684528285013590610b5282610ab1565b16838501528186013586840152848201358584015260809283019290910190600101610b24565b50909998505050505050505050565b634e487b7160e01b600052604160045260246000fd5b60405160c0810167ffffffffffffffff81118282101715610bc157610bc1610b88565b60405290565b60405160e0810167ffffffffffffffff81118282101715610bc157610bc1610b88565b604051601f8201601f1916810167ffffffffffffffff81118282101715610c1357610c13610b88565b604052919050565b8051610c2681610ab1565b919050565b600082601f830112610c3c57600080fd5b815167ffffffffffffffff811115610c5657610c56610b88565b610c69601f8201601f1916602001610bea565b818152846020838601011115610c7e57600080fd5b6101ae8260208301602087016107ec565b600060c08284031215610ca157600080fd5b610ca9610b9e565b905081518152602082015160048110610cc157600080fd5b6020820152610cd260408301610c1b565b6040820152610ce360608301610c1b565b6060820152610cf460808301610c1b565b608082015260a082015167ffffffffffffffff811115610d1357600080fd5b610d1f84828501610c2b565b60a08301525092915050565b600067ffffffffffffffff821115610d4557610d45610b88565b5060051b60200190565b600060408284031215610d6157600080fd5b6040516040810181811067ffffffffffffffff82111715610d8457610d84610b88565b604052825181526020928301519281019290925250919050565b600082601f830112610daf57600080fd5b81516020610dc4610dbf83610d2b565b610bea565b8083825260208201915060208460061b870101935086841115610de657600080fd5b602086015b84811015610e0b57610dfd8882610d4f565b835291830191604001610deb565b509695505050505050565b600060e08284031215610e2857600080fd5b610e30610bc7565b9050815181526020820151602082015260408201516040820152606082015160608201526080820151608082015260a082015160a082015260c082015160c082015292915050565b600060208284031215610e8a57600080fd5b815167ffffffffffffffff80821115610ea257600080fd5b908301906101a08286031215610eb757600080fd5b610ebf610bc7565b825182811115610ece57600080fd5b610eda87828601610c8f565b825250602083015160208201526040830151604082015260608301516060820152608083015182811115610f0d57600080fd5b610f1987828601610d9e565b60808301525060a083015160a0820152610f368660c08501610e16565b60c082015295945050505050565b60006020808385031215610f5757600080fd5b825167ffffffffffffffff811115610f6e57600080fd5b8301601f81018513610f7f57600080fd5b8051610f8d610dbf82610d2b565b81815260059190911b82018301908381019087831115610fac57600080fd5b928401925b82841015610fca57835182529284019290840190610fb1565b979650505050505050565b634e487b7160e01b600052603260045260246000fd5b600060408284031215610ffd57600080fd5b610ae68383610d4f565b60006020828403121561101957600080fd5b5051919050565b60006020828403121561103257600080fd5b8151610ae681610ab1565b600061010080838503121561105157600080fd5b6040519081019067ffffffffffffffff8211818310171561107457611074610b88565b81604052835181526020840151602082015260408401516040820152606084015160608201526080840151608082015260a084015160a082015260c084015160c082015260e084015160e082015280925050509291505056fea2646970667358221220dfa8b72706d06c0f27ad43b8404add69883dd083fcbb7a0b64a9a775c508a37564736f6c63430008190033","linkReferences":{"src/process/ConfigProcess.sol":{"ConfigProcess":[{"start":1450,"length":20}]},"src/process/MarketQueryProcess.sol":{"MarketQueryProcess":[{"start":348,"length":20},{"start":837,"length":20}]},"src/storage/CommonData.sol":{"CommonData":[{"start":498,"length":20},{"start":1053,"length":20}]},"src/storage/Symbol.sol":{"Symbol":[{"start":1198,"length":20}]},"src/storage/UuidCreator.sol":{"UuidCreator":[{"start":955,"length":20}]}}},"methodIdentifiers":{"getAllSymbols()":"7aa6aea4","getLastUuid(bytes32)":"cd0743c9","getMarketInfo(bytes32,(address,address,int256,int256)[])":"51d1a5af","getStakeUsdToken()":"f141859a","getSymbol(bytes32)":"5cfac837","getTradeTokenInfo(address)":"a7b039d9"},"id":52}