{"abi":[{"type":"function","name":"getAllSymbols","inputs":[],"outputs":[{"name":"","type":"tuple[]","internalType":"struct IMarket.SymbolInfo[]","components":[{"name":"code","type":"bytes32","internalType":"bytes32"},{"name":"status","type":"uint8","internalType":"enum Symbol.Status"},{"name":"stakeToken","type":"address","internalType":"address"},{"name":"indexToken","type":"address","internalType":"address"},{"name":"baseToken","type":"address","internalType":"address"},{"name":"config","type":"tuple","internalType":"struct AppConfig.SymbolConfig","components":[{"name":"maxLeverage","type":"uint256","internalType":"uint256"},{"name":"tickSize","type":"uint256","internalType":"uint256"},{"name":"openFeeRate","type":"uint256","internalType":"uint256"},{"name":"closeFeeRate","type":"uint256","internalType":"uint256"},{"name":"maxLongOpenInterestCap","type":"uint256","internalType":"uint256"},{"name":"maxShortOpenInterestCap","type":"uint256","internalType":"uint256"},{"name":"longShortRatioLimit","type":"uint256","internalType":"uint256"},{"name":"longShortOiBottomLimit","type":"uint256","internalType":"uint256"}]}]}],"stateMutability":"view"},{"type":"function","name":"getLastUuid","inputs":[{"name":"key","type":"bytes32","internalType":"bytes32"}],"outputs":[{"name":"","type":"uint256","internalType":"uint256"}],"stateMutability":"view"},{"type":"function","name":"getMarketInfo","inputs":[{"name":"code","type":"bytes32","internalType":"bytes32"},{"name":"oracles","type":"tuple[]","internalType":"struct OracleProcess.OracleParam[]","components":[{"name":"token","type":"address","internalType":"address"},{"name":"targetToken","type":"address","internalType":"address"},{"name":"minPrice","type":"int256","internalType":"int256"},{"name":"maxPrice","type":"int256","internalType":"int256"}]}],"outputs":[{"name":"","type":"tuple","internalType":"struct IMarket.MarketInfo","components":[{"name":"symbolInfo","type":"tuple","internalType":"struct Symbol.Props","components":[{"name":"code","type":"bytes32","internalType":"bytes32"},{"name":"status","type":"uint8","internalType":"enum Symbol.Status"},{"name":"stakeToken","type":"address","internalType":"address"},{"name":"indexToken","type":"address","internalType":"address"},{"name":"baseToken","type":"address","internalType":"address"},{"name":"baseTokenName","type":"string","internalType":"string"}]},{"name":"longPositionInterest","type":"uint256","internalType":"uint256"},{"name":"longPositionEntryPrice","type":"uint256","internalType":"uint256"},{"name":"totalShortPositionInterest","type":"uint256","internalType":"uint256"},{"name":"shortPositions","type":"tuple[]","internalType":"struct Market.MarketPosition[]","components":[{"name":"openInterest","type":"uint256","internalType":"uint256"},{"name":"entryPrice","type":"uint256","internalType":"uint256"}]},{"name":"availableLiquidity","type":"uint256","internalType":"uint256"},{"name":"fundingFee","type":"tuple","internalType":"struct Market.FundingFee","components":[{"name":"longFundingFeePerQty","type":"int256","internalType":"int256"},{"name":"shortFundingFeePerQty","type":"int256","internalType":"int256"},{"name":"totalLongFundingFee","type":"int256","internalType":"int256"},{"name":"totalShortFundingFee","type":"int256","internalType":"int256"},{"name":"longFundingFeeRate","type":"int256","internalType":"int256"},{"name":"shortFundingFeeRate","type":"int256","internalType":"int256"},{"name":"lastUpdateTime","type":"uint256","internalType":"uint256"}]}]}],"stateMutability":"view"},{"type":"function","name":"getStakeUsdToken","inputs":[],"outputs":[{"name":"","type":"address","internalType":"address"}],"stateMutability":"view"},{"type":"function","name":"getSymbol","inputs":[{"name":"code","type":"bytes32","internalType":"bytes32"}],"outputs":[{"name":"params","type":"tuple","internalType":"struct IMarket.SymbolInfo","components":[{"name":"code","type":"bytes32","internalType":"bytes32"},{"name":"status","type":"uint8","internalType":"enum Symbol.Status"},{"name":"stakeToken","type":"address","internalType":"address"},{"name":"indexToken","type":"address","internalType":"address"},{"name":"baseToken","type":"address","internalType":"address"},{"name":"config","type":"tuple","internalType":"struct AppConfig.SymbolConfig","components":[{"name":"maxLeverage","type":"uint256","internalType":"uint256"},{"name":"tickSize","type":"uint256","internalType":"uint256"},{"name":"openFeeRate","type":"uint256","internalType":"uint256"},{"name":"closeFeeRate","type":"uint256","internalType":"uint256"},{"name":"maxLongOpenInterestCap","type":"uint256","internalType":"uint256"},{"name":"maxShortOpenInterestCap","type":"uint256","internalType":"uint256"},{"name":"longShortRatioLimit","type":"uint256","internalType":"uint256"},{"name":"longShortOiBottomLimit","type":"uint256","internalType":"uint256"}]}]}],"stateMutability":"view"},{"type":"function","name":"getTradeTokenInfo","inputs":[{"name":"token","type":"address","internalType":"address"}],"outputs":[{"name":"","type":"tuple","internalType":"struct IMarket.TradeTokenInfo","components":[{"name":"tradeTokenCollateral","type":"uint256","internalType":"uint256"},{"name":"tradeTokenLiability","type":"uint256","internalType":"uint256"}]}],"stateMutability":"view"},{"type":"error","name":"PriceIsZero","inputs":[]}],"bytecode":{"object":"0x6080604052348015600f57600080fd5b506120518061001f6000396000f3fe608060405234801561001057600080fd5b50600436106100625760003560e01c806351d1a5af146100675780635cfac837146100905780637aa6aea4146100b0578063a7b039d9146100c5578063cd0743c9146100e5578063f141859a14610106575b600080fd5b61007a610075366004611991565b610126565b6040516100879190611a98565b60405180910390f35b6100a361009e366004611be2565b610194565b6040516100879190611c9c565b6100b86101ab565b6040516100879190611cab565b6100d86100d3366004611d16565b61026b565b6040516100879190611d31565b6100f86100f3366004611be2565b610288565b604051908152602001610087565b61010e610293565b6040516001600160a01b039091168152602001610087565b61012e611819565b61018a848484808060200260200160405190810160405280939291908181526020016000905b828210156101805761017160808302860136819003810190611d5e565b81526020019060010190610154565b50505050506102a2565b90505b9392505050565b61019c6118c6565b6101a5826104e5565b92915050565b606060006101b7610591565b90506000815167ffffffffffffffff8111156101d5576101d5611d48565b60405190808252806020026020018201604052801561020e57816020015b6101fb6118c6565b8152602001906001900390816101f35790505b50905060005b82518110156102645761023f83828151811061023257610232611dde565b60200260200101516104e5565b82828151811061025157610251611dde565b6020908102919091010152600101610214565b5092915050565b60408051808201909152600080825260208201526101a5826105f3565b60006101a582610666565b600061029d610683565b905090565b6102aa611819565b60006102b58461069e565b90506102d2816001015461010090046001600160a01b0316151590565b6102e7576102de611819565b91506101a59050565b60018101546000906103069061010090046001600160a01b0316610704565b90506000610314828661075b565b905060006103218761099b565b60028101549091506000610334836109e6565b604080516101a08101909152875460e0820190815260018901549293509091829190899061010084019060ff16600381111561037257610372611a10565b600381111561038357610383611a10565b815260018201546001600160a01b036101009091048116602083015260028301548116604083015260038301541660608201526004820180546080909201916103cb90611df4565b80601f01602080910402602001604051908101604052809291908181526020018280546103f790611df4565b80156104445780601f1061041957610100808354040283529160200191610444565b820191906000526020600020905b81548152906001019060200180831161042757829003601f168201915b50505050508152505081526020018381526020018460020160010154815260200182815260200161047485610a65565b8152602001858152602001846007016040518060e0016040529081600082015481526020016001820154815260200160028201548152602001600382015481526020016004820154815260200160058201548152602001600682015481525050815250965050505050505092915050565b6104ed6118c6565b60006104f88361069e565b600181015490915061010090046001600160a01b03161561058b57805482526001810154602083019060ff16600381111561053557610535611a10565b9081600381111561054857610548611a10565b90525060018101546001600160a01b0361010090910481166040840152600282015481166060840152600382015416608083015261058583610b6b565b60a08301525b50919050565b6060600061059d610b7c565b600181018054604080516020808402820181019092528281529394508301828280156105e857602002820191906000526020600020905b8154815260200190600101908083116105d4575b505050505091505090565b60408051808201909152600080825260208201526000610611610b7c565b905060405180604001604052806106318584610bde90919063ffffffff16565b815260200161065d83866001600160a01b03166000908152600491909101602052604090206001015490565b90529392505050565b600080610671610bfd565b60009384526020525050604090205490565b60008061068e610b7c565b546001600160a01b031692915050565b6040805160208101829052601760608201527f78797a2e656c66692e73746f726167652e53796d626f6c0000000000000000006080820152908101829052600090819060a0015b60408051601f1981840301815291905280516020909101209392505050565b600080826040516020016106e5919060408082526017908201527f78797a2e656c66692e73746f726167652e4c70506f6f6c00000000000000000060608201526001600160a01b0391909116602082015260800190565b60078201546004830154600091829161077390610c41565b61077d9190611e3e565b905060008112156107925760009150506101a5565b600061079d85610cb4565b8051909150156109345760028501546000906107c1906001600160a01b0316610cc2565b60028701549091506000906107e29087906001600160a01b03166001610d26565b905060005b835181101561093057600088600e01600086848151811061080a5761080a611dde565b60200260200101516001600160a01b03166001600160a01b0316815260200190815260200160002090506000816004015411801561086c57506108508160040154610c41565b6003820154825461086090610c41565b61086a9190611e3e565b125b156109275760006108f582600301546108888460000154610c41565b6108958560040154610c41565b61089f9190611e66565b6108a99190611e66565b6108cb8886815181106108be576108be611dde565b6020026020010151610cc2565b6108f08c8a88815181106108e1576108e1611dde565b60200260200101516001610d26565b610dcb565b90506000610904828787610e05565b90508088131561091f576109188189611e66565b9750610924565b600097505b50505b506001016107e7565b5050505b60006109508361094b61094689610e3a565b610c41565b610e5b565b90506109628660040160020154610c41565b811361096f576000610991565b6109916109828760040160020154610c41565b61098c9083611e66565b610e76565b9695505050505050565b6040805160208101829052601760608201527f78797a2e656c66692e73746f726167652e4d61726b65740000000000000000006080820152908101829052600090819060a0016106e5565b6000806109f583600401610ec8565b90506000805b8251811015610a5d57846006016000848381518110610a1c57610a1c611dde565b60200260200101516001600160a01b03166001600160a01b031681526020019081526020016000206000015482610a539190611e86565b91506001016109fb565b509392505050565b60606000610a7583600401610ec8565b90506000815167ffffffffffffffff811115610a9357610a93611d48565b604051908082528060200260200182016040528015610ad857816020015b6040805180820190915260008082526020820152815260200190600190039081610ab15790505b50905060005b8251811015610a5d57846006016000848381518110610aff57610aff611dde565b60200260200101516001600160a01b03166001600160a01b0316815260200190815260200160002060405180604001604052908160008201548152602001600182015481525050828281518110610b5857610b58611dde565b6020908102919091010152600101610ade565b610b736118f9565b6101a582610ed5565b600080604051602001610bc0906020808252601b908201527f78797a2e656c66692e73746f726167652e436f6d6d6f6e446174610000000000604082015260600190565b60408051601f19818403018152919052805160209091012092915050565b6001600160a01b03166000908152600491909101602052604090205490565b600080604051602001610bc0906020808252601c908201527f78797a2e656c66692e73746f726167652e5575696443726561746f7200000000604082015260600190565b60006001600160ff1b03821115610cb05760405162461bcd60e51b815260206004820152602860248201527f53616665436173743a2076616c756520646f65736e27742066697420696e2061604482015267371034b73a191a9b60c11b60648201526084015b60405180910390fd5b5090565b60606101a582600c01610ec8565b6000816001600160a01b031663313ce5676040518163ffffffff1660e01b8152600401602060405180830381865afa158015610d02573d6000803e3d6000fd5b505050506040513d601f19601f820116820180604052508101906101a59190611e99565b6000805b8451811015610dc057836001600160a01b0316858281518110610d4f57610d4f611dde565b6020026020010151600001516001600160a01b031603610db85782610d9157848181518110610d8057610d80611dde565b602002602001015160600151610db0565b848181518110610da357610da3611dde565b6020026020010151604001515b91505061018d565b600101610d2a565b5061018a83836111cb565b600061018a610dde61094685600a611fa0565b610dff610def6402540be400610c41565b610df988876111f3565b906111f3565b906111ff565b600061018a610e22610e1b6402540be400610c41565b84906111f3565b610dff610e3361094687600a611fa0565b87906111f3565b8054600090610e51906001600160a01b031661120b565b6020015192915050565b600061018d610e6c620186a0610c41565b610dff85856111f3565b600080821215610cb05760405162461bcd60e51b815260206004820181905260248201527f53616665436173743a2076616c7565206d75737420626520706f7369746976656044820152606401610ca7565b6060600061018d836115fb565b610edd6118f9565b610ee56118f9565b600080604051602001610f19906020808252600d908201526c53594d424f4c5f434f4e46494760981b604082015260600190565b60408051601f1981840301815291905280516020909101209050610f3e828287611657565b610f4b5750909392505050565b610fd68186604051602001610f80906020808252600c908201526b4d41585f4c4556455241474560a01b604082015260600190565b60408051601f1981840301815282825280516020918201209083019490945281019190915260608101919091526080015b604051602081830303815290604052805190602001208361167190919063ffffffff16565b835260405161100d9082908790610f80906020016020808252600990820152685449434b5f53495a4560b81b604082015260600190565b83602001818152505061104c8186604051602001610f80906020808252600d908201526c4f50454e5f4645455f5241544560981b604082015260600190565b83604001818152505061108c8186604051602001610f80906020808252600e908201526d434c4f53455f4645455f5241544560901b604082015260600190565b60608401526040516110da9082908790610f80906020016020808252601a908201527f4d41585f4c4f4e475f4f50454e5f494e5445524553545f434150000000000000604082015260600190565b60808401526040516111289082908790610f80906020016020808252601b908201527f4d41585f53484f52545f4f50454e5f494e5445524553545f4341500000000000604082015260600190565b60a084015260405161116f9082908790610f80906020016020808252601690820152751313d391d7d4d213d49517d490551253d7d31253525560521b604082015260600190565b60c08401526040516111bd9082908790610f80906020016020808252601a908201527f4c4f4e475f53484f52545f4f495f424f54544f4d5f4c494d4954000000000000604082015260600190565b60e084015250909392505050565b6000806111d784611684565b9050826111e85780602001516111eb565b80515b949350505050565b600061018d8284611faf565b600061018d8284611fdf565b61121361193e565b61121b61193e565b600080604051602001611250906020808252600e908201526d4c505f504f4f4c5f434f4e46494760901b604082015260600190565b60408051601f1981840301815291905280516020909101209050611275828287611717565b6112825750909392505050565b6112ff81866040516020016112bd90602080825260129082015271424153455f494e5445524553545f5241544560701b604082015260600190565b60405160208183030381529060405280519060200120604051602001610fb1939291909283526001600160a01b03919091166020830152604082015260600190565b835260405161134190829087906112bd906020016020808252601490820152731413d3d317d3125455525112551657d31253525560621b604082015260600190565b83602001818152505061138081866040516020016112bd906020808252600d908201526c4d494e545f4645455f5241544560981b604082015260600190565b8360400181815250506113c181866040516020016112bd906020808252600f908201526e52454445454d5f4645455f5241544560881b604082015260600190565b606084015260405161140690829087906112bd906020016020808252601490820152731413d3d317d4139317d490551253d7d31253525560621b604082015260600190565b608084015260405161145290829087906112bd906020016020808252818101527f554e534554544c45445f424153455f544f4b454e5f524154494f5f4c494d4954604082015260600190565b60a08401526040516114ab90829087906112bd9060200160208082526022908201527f554e534554544c45445f535441424c455f544f4b454e5f524154494f5f4c494d604082015261125560f21b606082015260800190565b60c08401526040516114f990829087906112bd906020016020808252601d908201527f504f4f4c5f535441424c455f544f4b454e5f524154494f5f4c494d4954000000604082015260600190565b60e084015260405161154790829087906112bd906020016020808252601c908201527f504f4f4c5f535441424c455f544f4b454e5f4c4f53535f4c494d495400000000604082015260600190565b6101008401526040516115ec9082908790611585906020016020808252600c908201526b41535345545f544f4b454e5360a01b604082015260600190565b604051602081830303815290604052805190602001206040516020016115c7939291909283526001600160a01b03919091166020830152604082015260600190565b604051602081830303815290604052805190602001208361174e90919063ffffffff16565b61012084015250909392505050565b60608160000180548060200260200160405190810160405280929190818152602001828054801561164b57602002820191906000526020600020905b815481526020019060010190808311611637575b50505050509050919050565b6000828152600d84016020526040812061018a90836117bd565b6000908152602091909152604090205490565b604080518082019091526000808252602082015260006116a26117d5565b604080518082018252600080825260209182018190526001600160a01b038716815260028401825282902082518084019093528054808452600190910154918301919091529192509015806116f957506020810151155b1561018d5760405163907adecd60e01b815260040160405180910390fd5b6000828152600c84016020526040812061018a90836001600160a01b0381166000908152600183016020526040812054151561018d565b60008181526008830160209081526040918290208054835181840281018401909452808452606093928301828280156117b057602002820191906000526020600020905b81546001600160a01b03168152600190910190602001808311611792575b5050505050905092915050565b6000818152600183016020526040812054151561018d565b600080604051602001610bc0906020808252601c908201527f78797a2e656c66692e73746f726167652e4f7261636c65507269636500000000604082015260600190565b604080516101a08101909152600060e0820181815261010083018290526101208301829052610140830182905261016083019190915260606101808301528190815260200160008152602001600081526020016000815260200160608152602001600081526020016118c16040518060e00160405280600081526020016000815260200160008152602001600081526020016000815260200160008152602001600081525090565b905290565b6040805160c081019091526000808252602082019081526000602082018190526040820181905260608201526080016118c15b60405180610100016040528060008152602001600081526020016000815260200160008152602001600081526020016000815260200160008152602001600081525090565b604051806101400160405280600081526020016000815260200160008152602001600081526020016000815260200160008152602001600081526020016000815260200160008152602001606081525090565b6000806000604084860312156119a657600080fd5b83359250602084013567ffffffffffffffff808211156119c557600080fd5b818601915086601f8301126119d957600080fd5b8135818111156119e857600080fd5b8760208260071b85010111156119fd57600080fd5b6020830194508093505050509250925092565b634e487b7160e01b600052602160045260246000fd5b60048110611a4457634e487b7160e01b600052602160045260246000fd5b9052565b60008151808452602080850194506020840160005b83811015611a8d57611a7a87835180518252602090810151910152565b6040969096019590820190600101611a5d565b509495945050505050565b6000602080835283516101a08285015261028081516101c086015282820151611ac56101e0870182611a26565b5060408201516001600160a01b039081166102008701526060830151811661022087015260808301511661024086015260a09091015160c0610260860152805182860181905290919060005b81811015611b2e578381018501518782016102a001528401611b11565b506102a092506000838288010152601f19601f82011686019050838701516040870152604087015160608701526060870151608087015260808701519350818682030160a0870152611b8283820185611a48565b935050505060a084015160c084015260c0840151610a5d60e0850182805182526020810151602083015260408101516040830152606081015160608301526080810151608083015260a081015160a083015260c081015160c08301525050565b600060208284031215611bf457600080fd5b5035919050565b805182526020810151611c116020840182611a26565b50604081015160018060a01b038082166040850152806060840151166060850152806080840151166080850152505060a0810151805160a0840152602081015160c0840152604081015160e08401526060810151610100840152608081015161012084015260a081015161014084015260c081015161016084015260e0810151610180840152505050565b6101a081016101a58284611bfb565b6020808252825182820181905260009190848201906040850190845b81811015611cee57611cda838551611bfb565b928401926101a09290920191600101611cc7565b50909695505050505050565b80356001600160a01b0381168114611d1157600080fd5b919050565b600060208284031215611d2857600080fd5b61018d82611cfa565b8151815260208083015190820152604081016101a5565b634e487b7160e01b600052604160045260246000fd5b600060808284031215611d7057600080fd5b6040516080810181811067ffffffffffffffff82111715611da157634e487b7160e01b600052604160045260246000fd5b604052611dad83611cfa565b8152611dbb60208401611cfa565b602082015260408301356040820152606083013560608201528091505092915050565b634e487b7160e01b600052603260045260246000fd5b600181811c90821680611e0857607f821691505b60208210810361058b57634e487b7160e01b600052602260045260246000fd5b634e487b7160e01b600052601160045260246000fd5b8082018281126000831280158216821582161715611e5e57611e5e611e28565b505092915050565b818103600083128015838313168383128216171561026457610264611e28565b808201808211156101a5576101a5611e28565b600060208284031215611eab57600080fd5b815160ff8116811461018d57600080fd5b600181815b80851115611ef7578160001904821115611edd57611edd611e28565b80851615611eea57918102915b93841c9390800290611ec1565b509250929050565b600082611f0e575060016101a5565b81611f1b575060006101a5565b8160018114611f315760028114611f3b57611f57565b60019150506101a5565b60ff841115611f4c57611f4c611e28565b50506001821b6101a5565b5060208310610133831016604e8410600b8410161715611f7a575081810a6101a5565b611f848383611ebc565b8060001904821115611f9857611f98611e28565b029392505050565b600061018d60ff841683611eff565b80820260008212600160ff1b84141615611fcb57611fcb611e28565b81810583148215176101a5576101a5611e28565b600082611ffc57634e487b7160e01b600052601260045260246000fd5b600160ff1b82146000198414161561201657612016611e28565b50059056fea2646970667358221220b5c32c83f023e36893cd24cf02cfdd3240d71adf0c6328ef9c054a2da4a8a8ca64736f6c63430008190033","linkReferences":{}},"methodIdentifiers":{"getAllSymbols()":"7aa6aea4","getLastUuid(bytes32)":"cd0743c9","getMarketInfo(bytes32,(address,address,int256,int256)[])":"51d1a5af","getStakeUsdToken()":"f141859a","getSymbol(bytes32)":"5cfac837","getTradeTokenInfo(address)":"a7b039d9"},"id":62}