{"abi":[{"type":"function","name":"REFERRAL_CODE","inputs":[],"outputs":[{"name":"","type":"bytes32","internalType":"bytes32"}],"stateMutability":"view"},{"type":"event","name":"ReferralUpdateEvent","inputs":[{"name":"account","type":"address","indexed":false,"internalType":"address"},{"name":"code","type":"bytes32","indexed":false,"internalType":"bytes32"},{"name":"referralCode","type":"bytes32","indexed":false,"internalType":"bytes32"}],"anonymous":false}],"bytecode":{"object":"0x60cf610038600b82828239805160001a607314602b57634e487b7160e01b600052600060045260246000fd5b30600052607381538281f3fe730000000000000000000000000000000000000000301460806040526004361060335760003560e01c80633583849a146038575b600080fd5b603e6050565b60405190815260200160405180910390f35b6040516020016080906020808252600d908201526c524546455252414c5f434f444560981b604082015260600190565b604051602081830303815290604052805190602001208156fea2646970667358221220b083946b7287ecae852e5611eb448d831c85f547df6f4badf4e6c0b3f60a46ac64736f6c63430008190033","linkReferences":{}},"methodIdentifiers":{"REFERRAL_CODE()":"3583849a"},"id":151}