{"abi":[{"type":"function","name":"REFERRAL_CODE","inputs":[],"outputs":[{"name":"","type":"bytes32","internalType":"bytes32"}],"stateMutability":"view"},{"type":"function","name":"getCodeAccount","inputs":[{"name":"code","type":"bytes32","internalType":"bytes32"}],"outputs":[{"name":"","type":"address","internalType":"address"}],"stateMutability":"view"},{"type":"function","name":"isCodeExists","inputs":[{"name":"code","type":"bytes32","internalType":"bytes32"}],"outputs":[{"name":"","type":"bool","internalType":"bool"}],"stateMutability":"view"},{"type":"event","name":"ReferralUpdateEvent","inputs":[{"name":"account","type":"address","indexed":false,"internalType":"address"},{"name":"code","type":"bytes32","indexed":false,"internalType":"bytes32"},{"name":"referralCode","type":"bytes32","indexed":false,"internalType":"bytes32"}],"anonymous":false}],"bytecode":{"object":"0x610ba3610039600b82828239805160001a607314602c57634e487b7160e01b600052600060045260246000fd5b30600052607381538281f3fe73000000000000000000000000000000000000000030146080604052600436106100875760003560e01c80636ecc79e4116100655780636ecc79e4146100da57806371800fa1146100fd578063dd4a40771461011f578063ea5f83451461013f57600080fd5b80632f40e7341461008c5780633583849a146100b2578063483c45a8146100ba575b600080fd5b61009f61009a366004610a25565b61016a565b6040519081526020015b60405180910390f35b61009f61019d565b8180156100c657600080fd5b5061009f6100d5366004610a25565b6101c5565b6100ed6100e8366004610a49565b610226565b60405190151581526020016100a9565b81801561010957600080fd5b5061011d610118366004610a62565b6103a0565b005b81801561012b57600080fd5b5061011d61013a366004610a62565b610586565b61015261014d366004610a49565b61087c565b6040516001600160a01b0390911681526020016100a9565b6000808260405160200161017e9190610a84565b60408051601f1981840301815291905280516020909101209392505050565b6040516020016101ac90610acc565b6040516020818303038152906040528051906020012081565b600080826040516020016101d99190610a84565b60408051601f19818403018152919052805160209091012080549092508291506001600160a01b03166102205781546001600160a01b0319166001600160a01b0384161782555b50919050565b60008073__$819338afc672a9cefb034a8d5ff76e114d$__6386d5c4be6040518163ffffffff1660e01b8152600401602060405180830381865af4158015610272573d6000803e3d6000fd5b505050506040513d601f19601f820116820180604052508101906102969190610af3565b905060006040516020016102a990610b0c565b604051602081830303815290604052805190602001206040516020016102ce90610acc565b604051602081830303815290604052805190602001206040516020016102fe929190918252602082015260400190565b60408051808303601f19018152908290528051602090910120637cc7c2c960e01b8252600482018490526024820181905260448201869052915073__$819338afc672a9cefb034a8d5ff76e114d$__90637cc7c2c990606401602060405180830381865af4158015610374573d6000803e3d6000fd5b505050506040513d601f19601f820116820180604052508101906103989190610b2e565b949350505050565b600073__$819338afc672a9cefb034a8d5ff76e114d$__6386d5c4be6040518163ffffffff1660e01b8152600401602060405180830381865af41580156103eb573d6000803e3d6000fd5b505050506040513d601f19601f8201168201806040525081019061040f9190610af3565b9050600060405160200161042290610b0c565b6040516020818303038152906040528051906020012060405160200161044790610acc565b60405160208183030381529060405280519060200120604051602001610477929190918252602082015260400190565b60408051808303601f19018152908290528051602090910120637cc7c2c960e01b8252600482018490526024820181905260448201859052915073__$819338afc672a9cefb034a8d5ff76e114d$__90637cc7c2c990606401602060405180830381865af41580156104ed573d6000803e3d6000fd5b505050506040513d601f19601f820116820180604052508101906105119190610b2e565b1561051c5750505050565b6002840154610580576002840183905583546001850154604080516001600160a01b039093168352602083019190915281018490527f320610461e7dedc735faa17b75726640ee0351a21ef5da029895e68448b213c4906060015b60405180910390a15b50505050565b600073__$819338afc672a9cefb034a8d5ff76e114d$__6386d5c4be6040518163ffffffff1660e01b8152600401602060405180830381865af41580156105d1573d6000803e3d6000fd5b505050506040513d601f19601f820116820180604052508101906105f59190610af3565b9050600060405160200161060890610b0c565b6040516020818303038152906040528051906020012060405160200161062d90610acc565b6040516020818303038152906040528051906020012060405160200161065d929190918252602082015260400190565b60408051808303601f19018152908290528051602090910120637cc7c2c960e01b8252600482018490526024820181905260448201859052915073__$819338afc672a9cefb034a8d5ff76e114d$__90637cc7c2c990606401602060405180830381865af41580156106d3573d6000803e3d6000fd5b505050506040513d601f19601f820116820180604052508101906106f79190610b2e565b156107025750505050565b60018401546105805760018401839055604051631ee99d2f60e11b815260048101839052602481018290526044810184905273__$819338afc672a9cefb034a8d5ff76e114d$__90633dd33a5e9060640160006040518083038186803b15801561076b57600080fd5b505af415801561077f573d6000803e3d6000fd5b50506040805160208082018690528183018890528251808303840181526060830180855281519190920120895463055466e960e31b9092526064830188905260848301526001600160a01b031660a4820152905173__$819338afc672a9cefb034a8d5ff76e114d$__9350632aa33748925060c4808301926000929190829003018186803b15801561081057600080fd5b505af4158015610824573d6000803e3d6000fd5b5050855460018701546002880154604080516001600160a01b0390941684526020840192909252908201527f320610461e7dedc735faa17b75726640ee0351a21ef5da029895e68448b213c492506060019050610577565b60008073__$819338afc672a9cefb034a8d5ff76e114d$__6386d5c4be6040518163ffffffff1660e01b8152600401602060405180830381865af41580156108c8573d6000803e3d6000fd5b505050506040513d601f19601f820116820180604052508101906108ec9190610af3565b905060006040516020016108ff90610b0c565b6040516020818303038152906040528051906020012060405160200161092490610acc565b60405160208183030381529060405280519060200120604051602001610954929190918252602082015260400190565b60408051808303601f190181528282528051602091820120818401819052838301889052825180850384018152606085019384905280519201919091206356c8caa960e01b909252606483018590526084830191909152915073__$819338afc672a9cefb034a8d5ff76e114d$__906356c8caa99060a401602060405180830381865af41580156109e9573d6000803e3d6000fd5b505050506040513d601f19601f820116820180604052508101906103989190610b50565b6001600160a01b0381168114610a2257600080fd5b50565b600060208284031215610a3757600080fd5b8135610a4281610a0d565b9392505050565b600060208284031215610a5b57600080fd5b5035919050565b60008060408385031215610a7557600080fd5b50508035926020909101359150565b60408082526019908201527f78797a2e656c66692e73746f726167652e526566657272616c0000000000000060608201526001600160a01b0391909116602082015260800190565b6020808252600d908201526c524546455252414c5f434f444560981b604082015260600190565b600060208284031215610b0557600080fd5b5051919050565b602080825260089082015267149151915494905360c21b604082015260600190565b600060208284031215610b4057600080fd5b81518015158114610a4257600080fd5b600060208284031215610b6257600080fd5b8151610a4281610a0d56fea264697066735822122085a89980a931babd2e9741d4cc1de37894b43276e3b5f5c5a9312ce9b9608a1864736f6c63430008190033","linkReferences":{"src/storage/AppStorage.sol":{"AppStorage":[{"start":612,"length":20},{"start":883,"length":20},{"start":989,"length":20},{"start":1260,"length":20},{"start":1475,"length":20},{"start":1746,"length":20},{"start":1903,"length":20},{"start":2062,"length":20},{"start":2234,"length":20},{"start":2536,"length":20}]}}},"methodIdentifiers":{"REFERRAL_CODE()":"3583849a","bindReferralCodeIfNotExists(Referral.Props storage,bytes32)":"71800fa1","createCodeIfNotExists(Referral.Props storage,bytes32)":"dd4a4077","getCodeAccount(bytes32)":"ea5f8345","isCodeExists(bytes32)":"6ecc79e4","load(address)":"2f40e734","loadOrCreate(address)":"483c45a8"},"id":151}