{"abi":[{"type":"function","name":"getAllPools","inputs":[{"name":"oracles","type":"tuple[]","internalType":"struct OracleProcess.OracleParam[]","components":[{"name":"token","type":"address","internalType":"address"},{"name":"targetToken","type":"address","internalType":"address"},{"name":"minPrice","type":"int256","internalType":"int256"},{"name":"maxPrice","type":"int256","internalType":"int256"}]}],"outputs":[{"name":"","type":"tuple[]","internalType":"struct IPool.PoolInfo[]","components":[{"name":"stakeToken","type":"address","internalType":"address"},{"name":"stakeTokenName","type":"string","internalType":"string"},{"name":"baseToken","type":"address","internalType":"address"},{"name":"symbol","type":"bytes32","internalType":"bytes32"},{"name":"baseTokenBalance","type":"tuple","internalType":"struct IPool.MintTokenBalance","components":[{"name":"amount","type":"uint256","internalType":"uint256"},{"name":"liability","type":"uint256","internalType":"uint256"},{"name":"holdAmount","type":"uint256","internalType":"uint256"},{"name":"unsettledAmount","type":"int256","internalType":"int256"},{"name":"lossAmount","type":"uint256","internalType":"uint256"},{"name":"collateralTokens","type":"address[]","internalType":"address[]"},{"name":"collateralAmounts","type":"uint256[]","internalType":"uint256[]"}]},{"name":"stableTokens","type":"address[]","internalType":"address[]"},{"name":"stableTokenBalances","type":"tuple[]","internalType":"struct IPool.MintTokenBalance[]","components":[{"name":"amount","type":"uint256","internalType":"uint256"},{"name":"liability","type":"uint256","internalType":"uint256"},{"name":"holdAmount","type":"uint256","internalType":"uint256"},{"name":"unsettledAmount","type":"int256","internalType":"int256"},{"name":"lossAmount","type":"uint256","internalType":"uint256"},{"name":"collateralTokens","type":"address[]","internalType":"address[]"},{"name":"collateralAmounts","type":"uint256[]","internalType":"uint256[]"}]},{"name":"poolValue","type":"uint256","internalType":"uint256"},{"name":"availableLiquidity","type":"uint256","internalType":"uint256"},{"name":"poolPnl","type":"int256","internalType":"int256"},{"name":"totalSupply","type":"uint256","internalType":"uint256"},{"name":"borrowingFee","type":"tuple","internalType":"struct LpPool.BorrowingFee","components":[{"name":"totalBorrowingFee","type":"uint256","internalType":"uint256"},{"name":"totalRealizedBorrowingFee","type":"uint256","internalType":"uint256"},{"name":"cumulativeBorrowingFeePerToken","type":"uint256","internalType":"uint256"},{"name":"lastUpdateTime","type":"uint256","internalType":"uint256"}]},{"name":"apr","type":"uint256","internalType":"uint256"},{"name":"totalClaimedRewards","type":"uint256","internalType":"uint256"}]}],"stateMutability":"view"},{"type":"function","name":"getPool","inputs":[{"name":"stakeToken","type":"address","internalType":"address"}],"outputs":[{"name":"","type":"tuple","internalType":"struct IPool.PoolInfo","components":[{"name":"stakeToken","type":"address","internalType":"address"},{"name":"stakeTokenName","type":"string","internalType":"string"},{"name":"baseToken","type":"address","internalType":"address"},{"name":"symbol","type":"bytes32","internalType":"bytes32"},{"name":"baseTokenBalance","type":"tuple","internalType":"struct IPool.MintTokenBalance","components":[{"name":"amount","type":"uint256","internalType":"uint256"},{"name":"liability","type":"uint256","internalType":"uint256"},{"name":"holdAmount","type":"uint256","internalType":"uint256"},{"name":"unsettledAmount","type":"int256","internalType":"int256"},{"name":"lossAmount","type":"uint256","internalType":"uint256"},{"name":"collateralTokens","type":"address[]","internalType":"address[]"},{"name":"collateralAmounts","type":"uint256[]","internalType":"uint256[]"}]},{"name":"stableTokens","type":"address[]","internalType":"address[]"},{"name":"stableTokenBalances","type":"tuple[]","internalType":"struct IPool.MintTokenBalance[]","components":[{"name":"amount","type":"uint256","internalType":"uint256"},{"name":"liability","type":"uint256","internalType":"uint256"},{"name":"holdAmount","type":"uint256","internalType":"uint256"},{"name":"unsettledAmount","type":"int256","internalType":"int256"},{"name":"lossAmount","type":"uint256","internalType":"uint256"},{"name":"collateralTokens","type":"address[]","internalType":"address[]"},{"name":"collateralAmounts","type":"uint256[]","internalType":"uint256[]"}]},{"name":"poolValue","type":"uint256","internalType":"uint256"},{"name":"availableLiquidity","type":"uint256","internalType":"uint256"},{"name":"poolPnl","type":"int256","internalType":"int256"},{"name":"totalSupply","type":"uint256","internalType":"uint256"},{"name":"borrowingFee","type":"tuple","internalType":"struct LpPool.BorrowingFee","components":[{"name":"totalBorrowingFee","type":"uint256","internalType":"uint256"},{"name":"totalRealizedBorrowingFee","type":"uint256","internalType":"uint256"},{"name":"cumulativeBorrowingFeePerToken","type":"uint256","internalType":"uint256"},{"name":"lastUpdateTime","type":"uint256","internalType":"uint256"}]},{"name":"apr","type":"uint256","internalType":"uint256"},{"name":"totalClaimedRewards","type":"uint256","internalType":"uint256"}]}],"stateMutability":"view"},{"type":"function","name":"getPoolWithOracle","inputs":[{"name":"stakeToken","type":"address","internalType":"address"},{"name":"oracles","type":"tuple[]","internalType":"struct OracleProcess.OracleParam[]","components":[{"name":"token","type":"address","internalType":"address"},{"name":"targetToken","type":"address","internalType":"address"},{"name":"minPrice","type":"int256","internalType":"int256"},{"name":"maxPrice","type":"int256","internalType":"int256"}]}],"outputs":[{"name":"","type":"tuple","internalType":"struct IPool.PoolInfo","components":[{"name":"stakeToken","type":"address","internalType":"address"},{"name":"stakeTokenName","type":"string","internalType":"string"},{"name":"baseToken","type":"address","internalType":"address"},{"name":"symbol","type":"bytes32","internalType":"bytes32"},{"name":"baseTokenBalance","type":"tuple","internalType":"struct IPool.MintTokenBalance","components":[{"name":"amount","type":"uint256","internalType":"uint256"},{"name":"liability","type":"uint256","internalType":"uint256"},{"name":"holdAmount","type":"uint256","internalType":"uint256"},{"name":"unsettledAmount","type":"int256","internalType":"int256"},{"name":"lossAmount","type":"uint256","internalType":"uint256"},{"name":"collateralTokens","type":"address[]","internalType":"address[]"},{"name":"collateralAmounts","type":"uint256[]","internalType":"uint256[]"}]},{"name":"stableTokens","type":"address[]","internalType":"address[]"},{"name":"stableTokenBalances","type":"tuple[]","internalType":"struct IPool.MintTokenBalance[]","components":[{"name":"amount","type":"uint256","internalType":"uint256"},{"name":"liability","type":"uint256","internalType":"uint256"},{"name":"holdAmount","type":"uint256","internalType":"uint256"},{"name":"unsettledAmount","type":"int256","internalType":"int256"},{"name":"lossAmount","type":"uint256","internalType":"uint256"},{"name":"collateralTokens","type":"address[]","internalType":"address[]"},{"name":"collateralAmounts","type":"uint256[]","internalType":"uint256[]"}]},{"name":"poolValue","type":"uint256","internalType":"uint256"},{"name":"availableLiquidity","type":"uint256","internalType":"uint256"},{"name":"poolPnl","type":"int256","internalType":"int256"},{"name":"totalSupply","type":"uint256","internalType":"uint256"},{"name":"borrowingFee","type":"tuple","internalType":"struct LpPool.BorrowingFee","components":[{"name":"totalBorrowingFee","type":"uint256","internalType":"uint256"},{"name":"totalRealizedBorrowingFee","type":"uint256","internalType":"uint256"},{"name":"cumulativeBorrowingFeePerToken","type":"uint256","internalType":"uint256"},{"name":"lastUpdateTime","type":"uint256","internalType":"uint256"}]},{"name":"apr","type":"uint256","internalType":"uint256"},{"name":"totalClaimedRewards","type":"uint256","internalType":"uint256"}]}],"stateMutability":"view"},{"type":"function","name":"getUsdPool","inputs":[],"outputs":[{"name":"","type":"tuple","internalType":"struct IPool.UsdPoolInfo","components":[{"name":"stableTokens","type":"address[]","internalType":"address[]"},{"name":"stableTokenBalances","type":"tuple[]","internalType":"struct UsdPool.TokenBalance[]","components":[{"name":"amount","type":"uint256","internalType":"uint256"},{"name":"holdAmount","type":"uint256","internalType":"uint256"},{"name":"unsettledAmount","type":"uint256","internalType":"uint256"}]},{"name":"stableTokenMaxWithdraws","type":"uint256[]","internalType":"uint256[]"},{"name":"poolValue","type":"uint256","internalType":"uint256"},{"name":"totalSupply","type":"uint256","internalType":"uint256"},{"name":"tokensAvailableLiquidity","type":"uint256[]","internalType":"uint256[]"},{"name":"borrowingFees","type":"tuple[]","internalType":"struct UsdPool.BorrowingFee[]","components":[{"name":"totalBorrowingFee","type":"uint256","internalType":"uint256"},{"name":"totalRealizedBorrowingFee","type":"uint256","internalType":"uint256"},{"name":"cumulativeBorrowingFeePerToken","type":"uint256","internalType":"uint256"},{"name":"lastUpdateTime","type":"uint256","internalType":"uint256"}]},{"name":"apr","type":"uint256","internalType":"uint256"},{"name":"totalClaimedRewards","type":"uint256","internalType":"uint256"}]}],"stateMutability":"view"},{"type":"function","name":"getUsdPoolWithOracle","inputs":[{"name":"oracles","type":"tuple[]","internalType":"struct OracleProcess.OracleParam[]","components":[{"name":"token","type":"address","internalType":"address"},{"name":"targetToken","type":"address","internalType":"address"},{"name":"minPrice","type":"int256","internalType":"int256"},{"name":"maxPrice","type":"int256","internalType":"int256"}]}],"outputs":[{"name":"","type":"tuple","internalType":"struct IPool.UsdPoolInfo","components":[{"name":"stableTokens","type":"address[]","internalType":"address[]"},{"name":"stableTokenBalances","type":"tuple[]","internalType":"struct UsdPool.TokenBalance[]","components":[{"name":"amount","type":"uint256","internalType":"uint256"},{"name":"holdAmount","type":"uint256","internalType":"uint256"},{"name":"unsettledAmount","type":"uint256","internalType":"uint256"}]},{"name":"stableTokenMaxWithdraws","type":"uint256[]","internalType":"uint256[]"},{"name":"poolValue","type":"uint256","internalType":"uint256"},{"name":"totalSupply","type":"uint256","internalType":"uint256"},{"name":"tokensAvailableLiquidity","type":"uint256[]","internalType":"uint256[]"},{"name":"borrowingFees","type":"tuple[]","internalType":"struct UsdPool.BorrowingFee[]","components":[{"name":"totalBorrowingFee","type":"uint256","internalType":"uint256"},{"name":"totalRealizedBorrowingFee","type":"uint256","internalType":"uint256"},{"name":"cumulativeBorrowingFeePerToken","type":"uint256","internalType":"uint256"},{"name":"lastUpdateTime","type":"uint256","internalType":"uint256"}]},{"name":"apr","type":"uint256","internalType":"uint256"},{"name":"totalClaimedRewards","type":"uint256","internalType":"uint256"}]}],"stateMutability":"view"},{"type":"error","name":"PriceIsZero","inputs":[]}],"bytecode":{"object":"0x6080604052348015600f57600080fd5b5060016000556131c0806100246000396000f3fe608060405234801561001057600080fd5b50600436106100575760003560e01c80631559a2431461005c5780633e4fb7c21461008557806375d037d0146100a55780639e9e78f4146100ad578063bbe4f6db146100cd575b600080fd5b61006f61006a3660046128fe565b6100e0565b60405161007c9190612a58565b60405180910390f35b6100986100933660046128fe565b61014c565b60405161007c9190612d3f565b61006f6101a9565b6100c06100bb366004612dbf565b6101be565b60405161007c9190612e11565b6100c06100db366004612e24565b61022c565b6100e8612724565b6101438383808060200260200160405190810160405280939291908181526020016000905b828210156101395761012a60808302860136819003810190612e55565b8152602001906001019061010d565b5050505050610240565b90505b92915050565b60606101438383808060200260200160405190810160405280939291908181526020016000905b8282101561019f5761019060808302860136819003810190612e55565b81526020019060010190610173565b505050505061040d565b6101b1612724565b6101b96104ce565b905090565b6101c6612770565b610222848484808060200260200160405190810160405280939291908181526020016000905b828210156102185761020960808302860136819003810190612e55565b815260200190600101906101ec565b5050505050610674565b90505b9392505050565b610234612770565b60606102258382610674565b610248612724565b60006102526108bb565b905061025d8161091d565b5160000361026d57610225612724565b6000610277610928565b90506000816001600160a01b03166318160ddd6040518163ffffffff1660e01b8152600401602060405180830381865afa1580156102b9573d6000803e3d6000fd5b505050506040513d601f19601f820116820180604052508101906102dd9190612ed4565b905060006102ea8461091d565b9050600081516001600160401b0381111561030757610307612e3f565b604051908082528060200260200182016040528015610330578160200160208202803683370190505b50905060005b8251811015610387576103628684838151811061035557610355612eed565b6020026020010151610943565b82828151811061037457610374612eed565b6020908102919091010152600101610336565b506040518061012001604052808381526020016103a3876109aa565b81526020016103b187610ac6565b815260200160008951116103c65760006103d0565b6103d0878a610b70565b81526020018481526020018281526020016103ea87610ba1565b815260200186600401548152602001866005015481525095505050505050919050565b60606000610419610cce565b9050600081516001600160401b0381111561043657610436612e3f565b60405190808252806020026020018201604052801561046f57816020015b61045c612770565b8152602001906001900390816104545790505b50905060005b82518110156104c6576104a183828151811061049357610493612eed565b602002602001015186610674565b8282815181106104b3576104b3612eed565b6020908102919091010152600101610475565b509392505050565b6104d6612724565b60006104e06108bb565b90506104eb8161091d565b516000036104fb57610146612724565b6000610505610928565b90506000816001600160a01b03166318160ddd6040518163ffffffff1660e01b8152600401602060405180830381865afa158015610547573d6000803e3d6000fd5b505050506040513d601f19601f8201168201806040525081019061056b9190612ed4565b905060006105788461091d565b9050600081516001600160401b0381111561059557610595612e3f565b6040519080825280602002602001820160405280156105be578160200160208202803683370190505b50905060005b8251811015610608576105e38684838151811061035557610355612eed565b8282815181106105f5576105f5612eed565b60209081029190910101526001016105c4565b50604051806101200160405280838152602001610624876109aa565b815260200161063287610ac6565b81526020016000815260200184815260200182815260200161065387610ba1565b81526020018660040154815260200186600501548152509550505050505090565b61067c612770565b600061068784610cee565b9050610691612770565b60028201546001600160a01b03166106ac5791506101469050565b60006106b783610d64565b90506000866001600160a01b03166318160ddd6040518163ffffffff1660e01b8152600401602060405180830381865afa1580156106f9573d6000803e3d6000fd5b505050506040513d601f19601f8201168201806040525081019061071d9190612ed4565b9050604051806101c00160405280886001600160a01b0316815260200185600101805461074990612f03565b80601f016020809104026020016040519081016040528092919081815260200182805461077590612f03565b80156107c25780601f10610797576101008083540402835291602001916107c2565b820191906000526020600020905b8154815290600101906020018083116107a557829003601f168201915b505050918352505060028601546001600160a01b03166020820152600386015460408201526060016107f660048701610d72565b815260200183815260200161080e8487600e01610dd7565b8152602001600088511161082357600061082d565b61082d8689610ea6565b8152602001600088511161084257600061084c565b61084c8689610eb3565b81526020016000815260200182815260200185601001604051806080016040529081600082015481526020016001820154815260200160028201548152602001600382015481525050815260200185601401548152602001856015015481525092508294505050505092915050565b6000806040516020016108ff9060208082526018908201527f78797a2e656c66692e73746f726167652e557364506f6f6c0000000000000000604082015260600190565b60408051601f19818403018152919052805160209091012092915050565b6060610146826110e9565b6000806109336110f6565b546001600160a01b031692915050565b600080610950848461113a565b90506000816040015182600001516109689190612f53565b9050600061097d826109786111a0565b6111b0565b9050826020015181116109915760006109a0565b60208301516109a09082612f66565b9695505050505050565b606060006109b7836110e9565b9050600081516001600160401b038111156109d4576109d4612e3f565b604051908082528060200260200182016040528015610a2957816020015b610a1660405180606001604052806000815260200160008152602001600081525090565b8152602001906001900390816109f25790505b50905060005b82518110156104c657846002016000848381518110610a5057610a50612eed565b60200260200101516001600160a01b03166001600160a01b031681526020019081526020016000206040518060600160405290816000820154815260200160018201548152602001600282015481525050828281518110610ab357610ab3612eed565b6020908102919091010152600101610a2f565b60606000610ad3836110e9565b9050600081516001600160401b03811115610af057610af0612e3f565b604051908082528060200260200182016040528015610b19578160200160208202803683370190505b50905060005b82518110156104c657610b4b85848381518110610b3e57610b3e612eed565b60200260200101516111c0565b828281518110610b5d57610b5d612eed565b6020908102919091010152600101610b1f565b600080610b7d848461124a565b90506000811315610b9657610b918161133c565b610b99565b60005b949350505050565b60606000610bae836110e9565b9050600081516001600160401b03811115610bcb57610bcb612e3f565b604051908082528060200260200182016040528015610c2757816020015b610c146040518060800160405280600081526020016000815260200160008152602001600081525090565b815260200190600190039081610be95790505b50905060005b82518110156104c657846003016000848381518110610c4e57610c4e612eed565b60200260200101516001600160a01b03166001600160a01b03168152602001908152602001600020604051806080016040529081600082015481526020016001820154815260200160028201548152602001600382015481525050828281518110610cbb57610cbb612eed565b6020908102919091010152600101610c2d565b60606000610cda6110f6565b9050610ce8816002016110e9565b91505090565b60008082604051602001610d45919060408082526017908201527f78797a2e656c66692e73746f726167652e4c70506f6f6c00000000000000000060608201526001600160a01b0391909116602082015260800190565b60408051601f1981840301815291905280516020909101209392505050565b606061014682600c016110e9565b610d7a612823565b600080610d8984600501611397565b6040805160e081018252875481526001880154602082015260028801549181019190915260038701546060820152600490960154608087015260a086019190915260c0850152509192915050565b6060600083516001600160401b03811115610df457610df4612e3f565b604051908082528060200260200182016040528015610e2d57816020015b610e1a612823565b815260200190600190039081610e125790505b50905060005b84518110156104c657610e81846000878481518110610e5457610e54612eed565b60200260200101516001600160a01b03166001600160a01b03168152602001908152602001600020610d72565b828281518110610e9357610e93612eed565b6020908102919091010152600101610e33565b600080610b7d848461144d565b600782015460048301546000918291610ecb90611639565b610ed59190612f79565b90506000811215610eea576000915050610146565b6000610ef585610d64565b80519091501561108c576002850154600090610f19906001600160a01b03166116a3565b6002870154909150600090610f3a9087906001600160a01b03166001611707565b905060005b835181101561108857600088600e016000868481518110610f6257610f62612eed565b60200260200101516001600160a01b03166001600160a01b03168152602001908152602001600020905060008160040154118015610fc45750610fa88160040154611639565b60038201548254610fb890611639565b610fc29190612f79565b125b1561107f57600061104d8260030154610fe08460000154611639565b610fed8560040154611639565b610ff79190612f99565b6110019190612f99565b61102388868151811061101657611016612eed565b60200260200101516116a3565b6110488c8a888151811061103957611039612eed565b60200260200101516001611707565b6117ac565b9050600061105c8287876117e6565b905080881315611077576110708189612f99565b975061107c565b600097505b50505b50600101610f3f565b5050505b60006110a8836110a361109e8961181b565b611639565b61183c565b90506110ba8660040160020154611639565b81136110c75760006109a0565b6109a06110da8760040160020154611639565b6110e49083612f99565b61133c565b6060600061022583611857565b6000806040516020016108ff906020808252601b908201527f78797a2e656c66692e73746f726167652e436f6d6d6f6e446174610000000000604082015260600190565b61115e60405180606001604052806000815260200160008152602001600081525090565b506001600160a01b0316600090815260029182016020908152604091829020825160608101845281548152600182015492810192909252909201549082015290565b60006111aa6118b3565b51919050565b60006101438383620186a06118f4565b6001600160a01b03811660009081526002830160205260408120816111e36111a0565b90508060000361120757600182015482546111fe9190612f66565b92505050610146565b60006112178360010154836119de565b90508083600001541161122b576000611238565b8254611238908290612f66565b9350505050610146565b505092915050565b600080806112578561091d565b8051909150156104c65760005b815181101561133357600086600201600084848151811061128757611287612eed565b60200260200101516001600160a01b03166001600160a01b0316815260200190815260200160002090506000816000015411806112c8575060008160020154115b1561132a576113276113206112e08360020154611639565b83546112eb90611639565b6112f59190612f79565b61130a86868151811061101657611016612eed565b6110488a88888151811061103957611039612eed565b85906119ee565b93505b50600101611264565b50509392505050565b6000808212156113935760405162461bcd60e51b815260206004820181905260248201527f53616665436173743a2076616c7565206d75737420626520706f73697469766560448201526064015b60405180910390fd5b5090565b6060806113a3836119fa565b915081516001600160401b038111156113be576113be612e3f565b6040519080825280602002602001820160405280156113e7578160200160208202803683370190505b50905060005b82518110156114475761142283828151811061140b5761140b612eed565b602002602001015185611a0790919063ffffffff16565b82828151811061143457611434612eed565b60209081029190910101526001016113ed565b50915091565b60048201546000908190151580611468575060078401546000125b1561150757600384015460028501546000916114929186906001906001600160a01b031681611a1c565b60028601549091506000906114b39086906001600160a01b03166001611707565b90506115028287600401600301546114d18960040160000154611639565b6114db9190612f79565b6114e59190612f79565b60028801546114fc906001600160a01b03166116a3565b836117ac565b925050505b600061151285610d64565b8051909150156104c65760005b815181101561133357600086600e01600084848151811061154257611542612eed565b60200260200101516001600160a01b03166001600160a01b031681526020019081526020016000209050600081600001541180611583575060008160030154135b156116305760006115b688600301548860008787815181106115a7576115a7612eed565b60200260200101516001611a1c565b905061162c611625826115cc8560040154611639565b600386015486546115dc90611639565b6115e69190612f79565b6115f09190612f99565b6115fa9190612f79565b61160f87878151811061101657611016612eed565b6110488b89898151811061103957611039612eed565b86906119ee565b9450505b5060010161151f565b60006001600160ff1b038211156113935760405162461bcd60e51b815260206004820152602860248201527f53616665436173743a2076616c756520646f65736e27742066697420696e2061604482015267371034b73a191a9b60c11b606482015260840161138a565b6000816001600160a01b031663313ce5676040518163ffffffff1660e01b8152600401602060405180830381865afa1580156116e3573d6000803e3d6000fd5b505050506040513d601f19601f820116820180604052508101906101469190612fc0565b6000805b84518110156117a157836001600160a01b031685828151811061173057611730612eed565b6020026020010151600001516001600160a01b03160361179957826117725784818151811061176157611761612eed565b602002602001015160600151611791565b84818151811061178457611784612eed565b6020026020010151604001515b915050610225565b60010161170b565b506102228383611c81565b60006102226117bf61109e85600a6130c7565b6117e06117d06402540be400611639565b6117da8887611ca6565b90611ca6565b90611cb2565b60006102226118036117fc6402540be400611639565b8490611ca6565b6117e061181461109e87600a6130c7565b8790611ca6565b8054600090611832906001600160a01b0316611cbe565b6020015192915050565b600061014361184d620186a0611639565b6117e08585611ca6565b6060816000018054806020026020016040519081016040528092919081815260200182805480156118a757602002820191906000526020600020905b815481526020019060010190808311611893575b50505050509050919050565b6118ec6040518060c001604052806000815260200160008152602001600081526020016000815260200160608152602001606081525090565b6101b96120d3565b600080806000198587098587029250828110838203039150508060000361192e57838281611924576119246130d6565b0492505050610225565b8084116119755760405162461bcd60e51b81526020600482015260156024820152744d6174683a206d756c446976206f766572666c6f7760581b604482015260640161138a565b60008486880960026001871981018816978890046003810283188082028403028082028403028082028403028082028403028082028403029081029092039091026000889003889004909101858311909403939093029303949094049190911702949350505050565b600061014383620186a0846118f4565b60006101438284612f79565b606060006102258361091d565b6000610143836001600160a01b03841661245e565b600080611a28876124ce565b90506000611a3588612519565b6040805160c08101909152815481526001820154909190602083019060ff166003811115611a6557611a656130ec565b6003811115611a7657611a766130ec565b815260018201546001600160a01b03610100909104811660208301526002830154811660408301526003830154166060820152600482018054608090920191611abe90612f03565b80601f0160208091040260200160405190810160405280929190818152602001828054611aea90612f03565b8015611b375780601f10611b0c57610100808354040283529160200191611b37565b820191906000526020600020905b815481529060010190602001808311611b1a57829003601f168201915b5050505050815250509050600086611b68576001600160a01b03861660009081526006840160205260409020611b6d565b826002015b8054909150600003611b855760009350505050611c78565b6000611b978984606001516001611707565b9050611ba28161133c565b826001015403611bb9576000945050505050611c78565b8715611c4c576000611bf6611bd18460010154611639565b6117e0611beb611be48760010154611639565b8690612564565b86546117da90611639565b90508615611c37576000611c0c8b8a6000611707565b9050611c2182611c1b8b6116a3565b836117e6565b611c2a90613102565b9650505050505050611c78565b611c4081613102565b95505050505050611c78565b6000611bf6611c5e8460010154611639565b6117e0611beb85611c728860010154611639565b90612564565b95945050505050565b600080611c8d84612570565b905082611c9e578060200151610b99565b519392505050565b6000610143828461311e565b6000610143828461314e565b611cc6612860565b611cce612860565b600080604051602001611d03906020808252600e908201526d4c505f504f4f4c5f434f4e46494760901b604082015260600190565b60408051601f1981840301815291905280516020909101209050611d28828287612603565b611d355750909392505050565b611dd78186604051602001611d7090602080825260129082015271424153455f494e5445524553545f5241544560701b604082015260600190565b60405160208183030381529060405280519060200120604051602001611db2939291909283526001600160a01b03919091166020830152604082015260600190565b604051602081830303815290604052805190602001208361261d90919063ffffffff16565b8352604051611e199082908790611d70906020016020808252601490820152731413d3d317d3125455525112551657d31253525560621b604082015260600190565b836020018181525050611e588186604051602001611d70906020808252600d908201526c4d494e545f4645455f5241544560981b604082015260600190565b836040018181525050611e998186604051602001611d70906020808252600f908201526e52454445454d5f4645455f5241544560881b604082015260600190565b6060840152604051611ede9082908790611d70906020016020808252601490820152731413d3d317d4139317d490551253d7d31253525560621b604082015260600190565b6080840152604051611f2a9082908790611d70906020016020808252818101527f554e534554544c45445f424153455f544f4b454e5f524154494f5f4c494d4954604082015260600190565b60a0840152604051611f839082908790611d709060200160208082526022908201527f554e534554544c45445f535441424c455f544f4b454e5f524154494f5f4c494d604082015261125560f21b606082015260800190565b60c0840152604051611fd19082908790611d70906020016020808252601d908201527f504f4f4c5f535441424c455f544f4b454e5f524154494f5f4c494d4954000000604082015260600190565b60e084015260405161201f9082908790611d70906020016020808252601c908201527f504f4f4c5f535441424c455f544f4b454e5f4c4f53535f4c494d495400000000604082015260600190565b6101008401526040516120c4908290879061205d906020016020808252600c908201526b41535345545f544f4b454e5360a01b604082015260600190565b6040516020818303038152906040528051906020012060405160200161209f939291909283526001600160a01b03919091166020830152604082015260600190565b604051602081830303815290604052805190602001208361263090919063ffffffff16565b61012084015250909392505050565b61210c6040518060c001604052806000815260200160008152602001600081526020016000815260200160608152602001606081525090565b600080604051602001612142906020808252600f908201526e5553445f504f4f4c5f434f4e46494760881b604082015260600190565b6040516020818303038152906040528051906020012090506121c681604051602001612196906020808252601490820152731413d3d317d3125455525112551657d31253525560621b604082015260600190565b60405160208183030381529060405280519060200120604051602001611db2929190918252602082015260400190565b83526040516121ff908290612196906020016020808252600d908201526c4d494e545f4645455f5241544560981b604082015260600190565b83602001818152505061223f81604051602001612196906020808252600f908201526e52454445454d5f4645455f5241544560881b604082015260600190565b8360400181815250506122858160405160200161219690602080825260159082015274155394d1551513115117d490551253d7d312535255605a1b604082015260600190565b60608401526040516122f99082906122c990602001602080825260159082015274535550504f52545f535441424c455f544f4b454e5360581b604082015260600190565b6040516020818303038152906040528051906020012060405160200161209f929190918252602082015260400190565b60808401819052516001600160401b0381111561231857612318612e3f565b604051908082528060200260200182016040528015612341578160200160208202803683370190505b5060a084015260005b8360800151518110156124585761242f828560800151838151811061237157612371612eed565b60200260200101516040516020016123c89060208082526025908201527f535441424c455f544f4b454e535f424f52524f57494e475f494e5445524553546040820152645f5241544560d81b606082015260800190565b6040516020818303038152906040528051906020012060405160200161240a939291909283526001600160a01b03919091166020830152604082015260600190565b604051602081830303815290604052805190602001208461261d90919063ffffffff16565b8460a00151828151811061244557612445612eed565b602090810291909101015260010161234a565b50505090565b6000818152600283016020526040812054801515806124825750612482848461269f565b6101435760405162461bcd60e51b815260206004820152601e60248201527f456e756d657261626c654d61703a206e6f6e6578697374656e74206b65790000604482015260640161138a565b6040805160208101829052601760608201527f78797a2e656c66692e73746f726167652e4d61726b65740000000000000000006080820152908101829052600090819060a001610d45565b6040805160208101829052601760608201527f78797a2e656c66692e73746f726167652e53796d626f6c0000000000000000006080820152908101829052600090819060a001610d45565b60006101438284612f99565b6040805180820190915260008082526020820152600061258e6126be565b604080518082018252600080825260209182018190526001600160a01b038716815260028401825282902082518084019093528054808452600190910154918301919091529192509015806125e557506020810151155b156102255760405163907adecd60e01b815260040160405180910390fd5b6000828152600c8401602052604081206102229083612702565b6000908152602091909152604090205490565b600081815260088301602090815260409182902080548351818402810184019094528084526060939283018282801561269257602002820191906000526020600020905b81546001600160a01b03168152600190910190602001808311612674575b5050505050905092915050565b6000610143838360008181526001830160205260408120541515610143565b6000806040516020016108ff906020808252601c908201527f78797a2e656c66692e73746f726167652e4f7261636c65507269636500000000604082015260600190565b6001600160a01b03811660009081526001830160205260408120541515610143565b6040518061012001604052806060815260200160608152602001606081526020016000815260200160008152602001606081526020016060815260200160008152602001600081525090565b604051806101c0016040528060006001600160a01b031681526020016060815260200160006001600160a01b03168152602001600080191681526020016127b5612823565b815260200160608152602001606081526020016000815260200160008152602001600081526020016000815260200161280f6040518060800160405280600081526020016000815260200160008152602001600081525090565b815260200160008152602001600081525090565b6040518060e00160405280600081526020016000815260200160008152602001600081526020016000815260200160608152602001606081525090565b604051806101400160405280600081526020016000815260200160008152602001600081526020016000815260200160008152602001600081526020016000815260200160008152602001606081525090565b60008083601f8401126128c557600080fd5b5081356001600160401b038111156128dc57600080fd5b6020830191508360208260071b85010111156128f757600080fd5b9250929050565b6000806020838503121561291157600080fd5b82356001600160401b0381111561292757600080fd5b612933858286016128b3565b90969095509350505050565b60008151808452602080850194506020840160005b838110156129795781516001600160a01b031687529582019590820190600101612954565b509495945050505050565b60008151808452602080850194506020840160005b838110156129795781518051885283810151848901526040908101519088015260609096019590820190600101612999565b60008151808452602080850194506020840160005b83811015612979578151875295820195908201906001016129e0565b60008151808452602080850194506020840160005b8381101561297957612a45878351805182526020810151602083015260408101516040830152606081015160608301525050565b6080969096019590820190600101612a11565b6020815260008251610120806020850152612a7761014085018361293f565b91506020850151601f1980868503016040870152612a958483612984565b93506040870151915080868503016060870152612ab284836129cb565b935060608701516080870152608087015160a087015260a08701519150808685030160c0870152612ae384836129cb565b935060c08701519150808685030160e087015250612b0183826129fc565b60e087015161010087810191909152909601519190940152509192915050565b6000815180845260005b81811015612b4757602081850181015186830182015201612b2b565b506000602082860101526020601f19601f83011685010191505092915050565b8051825260208101516020830152604081015160408301526060810151606083015260808101516080830152600060a082015160e060a0850152612bae60e085018261293f565b905060c083015184820360c0860152611c7882826129cb565b60008282518085526020808601955060208260051b8401016020860160005b84811015612c1457601f19868403018952612c02838351612b67565b98840198925090830190600101612be6565b5090979650505050505050565b80516001600160a01b0316825260006102206020830151816020860152612c4a82860182612b21565b9150506040830151612c6760408601826001600160a01b03169052565b506060830151606085015260808301518482036080860152612c898282612b67565b91505060a083015184820360a0860152612ca3828261293f565b91505060c083015184820360c0860152612cbd8282612bc7565b60e0858101519087015261010080860151908701526101208086015190870152610140808601519087015261016080860151805182890152602081015161018089015260408101516101a089015260608101516101c0890152919350915050506101808301516101e08501526101a08301516102008501528091505092915050565b600060208083016020845280855180835260408601915060408160051b87010192506020870160005b82811015612d9657603f19888603018452612d84858351612c21565b94509285019290850190600101612d68565b5092979650505050505050565b80356001600160a01b0381168114612dba57600080fd5b919050565b600080600060408486031215612dd457600080fd5b612ddd84612da3565b925060208401356001600160401b03811115612df857600080fd5b612e04868287016128b3565b9497909650939450505050565b6020815260006101436020830184612c21565b600060208284031215612e3657600080fd5b61014382612da3565b634e487b7160e01b600052604160045260246000fd5b600060808284031215612e6757600080fd5b604051608081018181106001600160401b0382111715612e9757634e487b7160e01b600052604160045260246000fd5b604052612ea383612da3565b8152612eb160208401612da3565b602082015260408301356040820152606083013560608201528091505092915050565b600060208284031215612ee657600080fd5b5051919050565b634e487b7160e01b600052603260045260246000fd5b600181811c90821680612f1757607f821691505b602082108103612f3757634e487b7160e01b600052602260045260246000fd5b50919050565b634e487b7160e01b600052601160045260246000fd5b8082018082111561014657610146612f3d565b8181038181111561014657610146612f3d565b808201828112600083128015821682158216171561124257611242612f3d565b8181036000831280158383131683831282161715612fb957612fb9612f3d565b5092915050565b600060208284031215612fd257600080fd5b815160ff8116811461014357600080fd5b600181815b8085111561301e57816000190482111561300457613004612f3d565b8085161561301157918102915b93841c9390800290612fe8565b509250929050565b60008261303557506001610146565b8161304257506000610146565b816001811461305857600281146130625761307e565b6001915050610146565b60ff84111561307357613073612f3d565b50506001821b610146565b5060208310610133831016604e8410600b84101617156130a1575081810a610146565b6130ab8383612fe3565b80600019048211156130bf576130bf612f3d565b029392505050565b600061014360ff841683613026565b634e487b7160e01b600052601260045260246000fd5b634e487b7160e01b600052602160045260246000fd5b6000600160ff1b820161311757613117612f3d565b5060000390565b80820260008212600160ff1b8414161561313a5761313a612f3d565b818105831482151761014657610146612f3d565b60008261316b57634e487b7160e01b600052601260045260246000fd5b600160ff1b82146000198414161561318557613185612f3d565b50059056fea264697066735822122011e28946f6309f7e42ba4e223c096a0aafdae08e67645602a6524ae309db941264736f6c63430008190033","linkReferences":{}},"methodIdentifiers":{"getAllPools((address,address,int256,int256)[])":"3e4fb7c2","getPool(address)":"bbe4f6db","getPoolWithOracle(address,(address,address,int256,int256)[])":"9e9e78f4","getUsdPool()":"75d037d0","getUsdPoolWithOracle((address,address,int256,int256)[])":"1559a243"},"id":66}