{"abi":[{"type":"function","name":"bytes32Equals","inputs":[{"name":"a","type":"bytes32","internalType":"bytes32"},{"name":"b","type":"bytes32","internalType":"bytes32"}],"outputs":[{"name":"","type":"bool","internalType":"bool"}],"stateMutability":"pure"},{"type":"function","name":"isBytes32Empty","inputs":[{"name":"data","type":"bytes32","internalType":"bytes32"}],"outputs":[{"name":"","type":"bool","internalType":"bool"}],"stateMutability":"pure"},{"type":"function","name":"validBytes32Empty","inputs":[{"name":"data","type":"bytes32","internalType":"bytes32"}],"outputs":[],"stateMutability":"pure"},{"type":"function","name":"validNotZero","inputs":[{"name":"data","type":"uint256","internalType":"uint256"}],"outputs":[],"stateMutability":"pure"},{"type":"function","name":"validStringEmpty","inputs":[{"name":"data","type":"string","internalType":"string"}],"outputs":[],"stateMutability":"pure"},{"type":"error","name":"Bytes32Empty","inputs":[]},{"type":"error","name":"IntZero","inputs":[]},{"type":"error","name":"StringEmpty","inputs":[]}],"bytecode":{"object":"0x6102db610039600b82828239805160001a607314602c57634e487b7160e01b600052600060045260246000fd5b30600052607381538281f3fe73000000000000000000000000000000000000000030146080604052600436106100615760003560e01c806303e234a4146100665780633c2926d51461007b578063c1568d721461008e578063c30831a8146100b5578063dc389d31146100c6575b600080fd5b6100796100743660046101a3565b6100da565b005b610079610089366004610254565b6100fc565b6100a161009c36600461026d565b61011d565b604051901515815260200160405180910390f35b6100796100c3366004610254565b50565b6100a16100d4366004610254565b50600090565b80516000036100c357604051639fac066960e01b815260040160405180910390fd5b806000036100c357604051638451e1ed60e01b815260040160405180910390fd5b6000805b60208110156101815782816020811061013c5761013c61028f565b1a60f81b6001600160f81b03191684826020811061015c5761015c61028f565b1a60f81b6001600160f81b03191614610179576000915050610187565b600101610121565b50600190505b92915050565b634e487b7160e01b600052604160045260246000fd5b6000602082840312156101b557600080fd5b813567ffffffffffffffff808211156101cd57600080fd5b818401915084601f8301126101e157600080fd5b8135818111156101f3576101f361018d565b604051601f8201601f19908116603f0116810190838211818310171561021b5761021b61018d565b8160405282815287602084870101111561023457600080fd5b826020860160208301376000928101602001929092525095945050505050565b60006020828403121561026657600080fd5b5035919050565b6000806040838503121561028057600080fd5b50508035926020909101359150565b634e487b7160e01b600052603260045260246000fdfea2646970667358221220f5c9e73fa8f04c6e0267b124aa571de24e33f701dfd80280aee4a2d023a4a43b64736f6c63430008190033","linkReferences":{}},"methodIdentifiers":{"bytes32Equals(bytes32,bytes32)":"c1568d72","isBytes32Empty(bytes32)":"dc389d31","validBytes32Empty(bytes32)":"c30831a8","validNotZero(uint256)":"3c2926d5","validStringEmpty(string)":"03e234a4"},"id":166}