{"abi":[{"type":"function","name":"PRICE_PRECISION","inputs":[],"outputs":[{"name":"","type":"uint256","internalType":"uint256"}],"stateMutability":"view"},{"type":"function","name":"PRICE_TO_WEI","inputs":[],"outputs":[{"name":"","type":"uint256","internalType":"uint256"}],"stateMutability":"view"},{"type":"function","name":"RATE_PRECISION","inputs":[],"outputs":[{"name":"","type":"uint256","internalType":"uint256"}],"stateMutability":"view"},{"type":"function","name":"SMALL_RATE_PRECISION","inputs":[],"outputs":[{"name":"","type":"uint256","internalType":"uint256"}],"stateMutability":"view"},{"type":"function","name":"USD_PRECISION","inputs":[],"outputs":[{"name":"","type":"uint256","internalType":"uint256"}],"stateMutability":"view"}],"bytecode":{"object":"0x60d4610038600b82828239805160001a607314602b57634e487b7160e01b600052600060045260246000fd5b30600052607381538281f3fe7300000000000000000000000000000000000000003014608060405260043610605b5760003560e01c80632b3ba6811460605780634bfdfa6f14607b5780638975e68f14607b57806395082d25146089578063f6cb16f5146093575b600080fd5b6069620186a081565b60405190815260200160405180910390f35b6069670de0b6b3a764000081565b60696305f5e10081565b60696402540be4008156fea2646970667358221220f8c136f7cdccc3467a255af00b639dbe5571b9342422fb590fbad2dd5e36b19464736f6c63430008190033","linkReferences":{}},"methodIdentifiers":{"PRICE_PRECISION()":"95082d25","PRICE_TO_WEI()":"f6cb16f5","RATE_PRECISION()":"2b3ba681","SMALL_RATE_PRECISION()":"8975e68f","USD_PRECISION()":"4bfdfa6f"},"id":161}