{"abi":[{"type":"function","name":"PRICE_PRECISION","inputs":[],"outputs":[{"name":"","type":"uint256","internalType":"uint256"}],"stateMutability":"view"},{"type":"function","name":"PRICE_TO_WEI","inputs":[],"outputs":[{"name":"","type":"uint256","internalType":"uint256"}],"stateMutability":"view"},{"type":"function","name":"RATE_PRECISION","inputs":[],"outputs":[{"name":"","type":"uint256","internalType":"uint256"}],"stateMutability":"view"},{"type":"function","name":"SMALL_RATE_PRECISION","inputs":[],"outputs":[{"name":"","type":"uint256","internalType":"uint256"}],"stateMutability":"view"},{"type":"function","name":"USD_PRECISION","inputs":[],"outputs":[{"name":"","type":"uint256","internalType":"uint256"}],"stateMutability":"view"},{"type":"function","name":"computeAvgEntryPrice","inputs":[{"name":"qty","type":"uint256","internalType":"uint256"},{"name":"entryPrice","type":"uint256","internalType":"uint256"},{"name":"increaseQty","type":"uint256","internalType":"uint256"},{"name":"tokenPrice","type":"uint256","internalType":"uint256"},{"name":"tickSize","type":"uint256","internalType":"uint256"},{"name":"isUp","type":"bool","internalType":"bool"}],"outputs":[{"name":"","type":"uint256","internalType":"uint256"}],"stateMutability":"pure"},{"type":"function","name":"decimalsToDecimals","inputs":[{"name":"value","type":"uint256","internalType":"uint256"},{"name":"originDecimals","type":"uint8","internalType":"uint8"},{"name":"targetDecimals","type":"uint8","internalType":"uint8"}],"outputs":[{"name":"","type":"uint256","internalType":"uint256"}],"stateMutability":"pure"},{"type":"function","name":"diff","inputs":[{"name":"value1","type":"uint256","internalType":"uint256"},{"name":"value2","type":"uint256","internalType":"uint256"}],"outputs":[{"name":"","type":"uint256","internalType":"uint256"}],"stateMutability":"pure"},{"type":"function","name":"div","inputs":[{"name":"a","type":"uint256","internalType":"uint256"},{"name":"b","type":"uint256","internalType":"uint256"}],"outputs":[{"name":"","type":"uint256","internalType":"uint256"}],"stateMutability":"pure"},{"type":"function","name":"divRate","inputs":[{"name":"value","type":"uint256","internalType":"uint256"},{"name":"rate","type":"uint256","internalType":"uint256"}],"outputs":[{"name":"","type":"uint256","internalType":"uint256"}],"stateMutability":"pure"},{"type":"function","name":"divSmallRate","inputs":[{"name":"value","type":"uint256","internalType":"uint256"},{"name":"rate","type":"uint256","internalType":"uint256"}],"outputs":[{"name":"","type":"uint256","internalType":"uint256"}],"stateMutability":"pure"},{"type":"function","name":"divToIntPrecision","inputs":[{"name":"value1","type":"int256","internalType":"int256"},{"name":"value2","type":"int256","internalType":"int256"},{"name":"precision","type":"int256","internalType":"int256"}],"outputs":[{"name":"","type":"int256","internalType":"int256"}],"stateMutability":"pure"},{"type":"function","name":"divToPrecision","inputs":[{"name":"value1","type":"uint256","internalType":"uint256"},{"name":"value2","type":"uint256","internalType":"uint256"},{"name":"precision","type":"uint256","internalType":"uint256"}],"outputs":[{"name":"","type":"uint256","internalType":"uint256"}],"stateMutability":"pure"},{"type":"function","name":"formatToTickSize","inputs":[{"name":"value","type":"uint256","internalType":"uint256"},{"name":"tickSize","type":"uint256","internalType":"uint256"},{"name":"roundUp","type":"bool","internalType":"bool"}],"outputs":[{"name":"","type":"uint256","internalType":"uint256"}],"stateMutability":"pure"},{"type":"function","name":"mul","inputs":[{"name":"a","type":"uint256","internalType":"uint256"},{"name":"b","type":"uint256","internalType":"uint256"}],"outputs":[{"name":"","type":"uint256","internalType":"uint256"}],"stateMutability":"pure"},{"type":"function","name":"mulDiv","inputs":[{"name":"value1","type":"uint256","internalType":"uint256"},{"name":"value2","type":"uint256","internalType":"uint256"},{"name":"value3","type":"uint256","internalType":"uint256"}],"outputs":[{"name":"","type":"uint256","internalType":"uint256"}],"stateMutability":"pure"},{"type":"function","name":"mulIntSmallRate","inputs":[{"name":"value","type":"int256","internalType":"int256"},{"name":"rate","type":"int256","internalType":"int256"}],"outputs":[{"name":"","type":"int256","internalType":"int256"}],"stateMutability":"pure"},{"type":"function","name":"mulRate","inputs":[{"name":"value","type":"int256","internalType":"int256"},{"name":"rate","type":"int256","internalType":"int256"}],"outputs":[{"name":"","type":"int256","internalType":"int256"}],"stateMutability":"pure"},{"type":"function","name":"mulRate","inputs":[{"name":"value","type":"uint256","internalType":"uint256"},{"name":"rate","type":"uint256","internalType":"uint256"}],"outputs":[{"name":"","type":"uint256","internalType":"uint256"}],"stateMutability":"pure"},{"type":"function","name":"mulSmallRate","inputs":[{"name":"value","type":"uint256","internalType":"uint256"},{"name":"rate","type":"uint256","internalType":"uint256"}],"outputs":[{"name":"","type":"uint256","internalType":"uint256"}],"stateMutability":"pure"},{"type":"function","name":"quietAdd","inputs":[{"name":"value1","type":"uint256","internalType":"uint256"},{"name":"value2","type":"int256","internalType":"int256"}],"outputs":[{"name":"","type":"uint256","internalType":"uint256"}],"stateMutability":"pure"},{"type":"function","name":"tokenToToken","inputs":[{"name":"originTokenAmount","type":"uint256","internalType":"uint256"},{"name":"originTokenDecimals","type":"uint8","internalType":"uint8"},{"name":"targetTokenDecimals","type":"uint8","internalType":"uint8"},{"name":"tokenToTokenPrice","type":"uint256","internalType":"uint256"}],"outputs":[{"name":"","type":"uint256","internalType":"uint256"}],"stateMutability":"pure"},{"type":"function","name":"tokenToToken","inputs":[{"name":"originTokenAmount","type":"uint256","internalType":"uint256"},{"name":"originTokenDecimals","type":"uint8","internalType":"uint8"},{"name":"targetTokenDecimals","type":"uint8","internalType":"uint8"},{"name":"originTokenPrice","type":"uint256","internalType":"uint256"},{"name":"targetTokenPrice","type":"uint256","internalType":"uint256"}],"outputs":[{"name":"","type":"uint256","internalType":"uint256"}],"stateMutability":"pure"},{"type":"function","name":"tokenToUsd","inputs":[{"name":"tokenAmount","type":"uint256","internalType":"uint256"},{"name":"tokenDecimals","type":"uint8","internalType":"uint8"},{"name":"tokenPrice","type":"uint256","internalType":"uint256"}],"outputs":[{"name":"","type":"uint256","internalType":"uint256"}],"stateMutability":"pure"},{"type":"function","name":"tokenToUsdInt","inputs":[{"name":"tokenAmount","type":"int256","internalType":"int256"},{"name":"tokenDecimals","type":"uint8","internalType":"uint8"},{"name":"tokenPrice","type":"int256","internalType":"int256"}],"outputs":[{"name":"","type":"int256","internalType":"int256"}],"stateMutability":"pure"},{"type":"function","name":"usdToToken","inputs":[{"name":"tokenUsdAmount","type":"uint256","internalType":"uint256"},{"name":"tokenDecimals","type":"uint8","internalType":"uint8"},{"name":"tokenPrice","type":"uint256","internalType":"uint256"}],"outputs":[{"name":"","type":"uint256","internalType":"uint256"}],"stateMutability":"pure"},{"type":"function","name":"usdToTokenInt","inputs":[{"name":"tokenUsdAmount","type":"int256","internalType":"int256"},{"name":"tokenDecimals","type":"uint8","internalType":"uint8"},{"name":"tokenPrice","type":"int256","internalType":"int256"}],"outputs":[{"name":"","type":"int256","internalType":"int256"}],"stateMutability":"pure"}],"bytecode":{"object":"0x610d48610039600b82828239805160001a607314602c57634e487b7160e01b600052600060045260246000fd5b30600052607381538281f3fe73000000000000000000000000000000000000000030146080604052600436106101b35760003560e01c80639b9c45ca11610103578063d6052ce3116100a1578063f0a7df831161007b578063f0a7df8314610357578063f5873b971461036a578063f6cb16f51461037d578063f8739d7c1461038957600080fd5b8063d6052ce31461031e578063eda9aae414610331578063ee7fc5a31461034457600080fd5b8063aa9a0912116100dd578063aa9a0912146102d2578063aca95d54146102e5578063c30b259b146102f8578063c8a4ac9c1461030b57600080fd5b80639b9c45ca14610299578063a391c15b146102ac578063a520855f146102bf57600080fd5b80634bfdfa6f116101705780638975e68f1161014a5780638975e68f1461023357806389f35a6c146102685780638f5e514a1461027b57806395082d251461028e57600080fd5b80634bfdfa6f146102335780636f17c0af1461024257806375608c3d1461025557600080fd5b80630d65ea29146101b8578063107a60da146101dd578063228d17e0146101f05780632b3ba68114610203578063445b0a431461020d5780634619bf3914610220575b600080fd5b6101cb6101c6366004610911565b61039c565b60405190815260200160405180910390f35b6101cb6101eb366004610946565b6103e6565b6101cb6101fe366004610946565b610423565b6101cb620186a081565b6101cb61021b366004610946565b610438565b6101cb61022e366004610968565b610458565b6101cb670de0b6b3a764000081565b6101cb610250366004610911565b610468565b6101cb610263366004610911565b610497565b6101cb610276366004610994565b6104cb565b6101cb610289366004610946565b61053b565b6101cb6305f5e10081565b6101cb6102a73660046109e8565b61055d565b6101cb6102ba366004610946565b6105ae565b6101cb6102cd366004610968565b6105ba565b6101cb6102e0366004610968565b6105c7565b6101cb6102f3366004610946565b6105d4565b6101cb610306366004610946565b6105e5565b6101cb610319366004610946565b6105f5565b6101cb61032c366004610a1d565b610601565b6101cb61033f366004610946565b610622565b6101cb610352366004610946565b610637565b6101cb610365366004610a50565b610647565b6101cb610378366004610911565b610687565b6101cb6402540be40081565b6101cb610397366004610aa1565b6106a7565b60006103dc6103b96103b26402540be400610710565b8490610783565b6103d66103cf6103ca87600a610be9565b610710565b8790610783565b9061078f565b90505b9392505050565b600080826103f385610710565b6103fd9190610bf8565b90506000811315610416576104118161079b565b610419565b60005b9150505b92915050565b60006103df8383670de0b6b3a76400006107ed565b60006103df61044e670de0b6b3a7640000610710565b6103d68585610783565b60006103dc836103d68685610783565b60006103dc61047884600a610be9565b6104916402540be40061048b88876108d7565b906108d7565b906108e3565b60006103dc6104aa6103ca85600a610be9565b6103d66104bb6402540be400610710565b6104c58887610783565b90610783565b60008360ff168360ff161061050b576105046305f5e1006104916104ef8787610c20565b6104fa90600a610be9565b61048b89876108d7565b9050610533565b6105046105188486610c20565b61052390600a610be9565b6104916305f5e1008189876108d7565b949350505050565b60008183116105535761054e8383610c39565b6103df565b6103df8284610c39565b60008061056a8486610c62565b90508060000361057d57849150506103df565b6105a68461048b85610590576000610593565b60015b60ff166105a089896108e3565b906108ef565b9150506103df565b60006103df83836108e3565b60006103dc8483856107ed565b60006103dc8484846107ed565b60006103df61044e620186a0610710565b60006103df83620186a0846107ed565b60006103df83836108d7565b60006103dc8461061284600a610be9565b61061d86600a610be9565b6107ed565b60006103df83670de0b6b3a7640000846107ed565b60006103df8383620186a06107ed565b60008061066e610657878a610c76565b61049161066489896108d7565b6105a08c8c6108d7565b905061067b81858561055d565b98975050505050505050565b60006103dc8461069885600a610be9565b61061d856402540be4006108d7565b60008460ff168460ff16106106e3576106dc826104916106c78888610c20565b6106d290600a610be9565b61048b8a886108d7565b9050610707565b6106dc6106f08587610c20565b6106fb90600a610be9565b61049184818a886108d7565b95945050505050565b60006001600160ff1b0382111561077f5760405162461bcd60e51b815260206004820152602860248201527f53616665436173743a2076616c756520646f65736e27742066697420696e2061604482015267371034b73a191a9b60c11b60648201526084015b60405180910390fd5b5090565b60006103df8284610c89565b60006103df8284610cb9565b60008082121561077f5760405162461bcd60e51b815260206004820181905260248201527f53616665436173743a2076616c7565206d75737420626520706f7369746976656044820152606401610776565b60008080600019858709858702925082811083820303915050806000036108275783828161081d5761081d610c4c565b04925050506103df565b80841161086e5760405162461bcd60e51b81526020600482015260156024820152744d6174683a206d756c446976206f766572666c6f7760581b6044820152606401610776565b60008486880960026001871981018816978890046003810283188082028403028082028403028082028403028082028403028082028403029081029092039091026000889003889004909101858311909403939093029303949094049190911702949350505050565b60006103df8284610ce7565b60006103df8284610cfe565b60006103df8284610c76565b803560ff8116811461090c57600080fd5b919050565b60008060006060848603121561092657600080fd5b83359250610936602085016108fb565b9150604084013590509250925092565b6000806040838503121561095957600080fd5b50508035926020909101359150565b60008060006060848603121561097d57600080fd5b505081359360208301359350604090920135919050565b600080600080608085870312156109aa57600080fd5b843593506109ba602086016108fb565b92506109c8604086016108fb565b9396929550929360600135925050565b8035801515811461090c57600080fd5b6000806000606084860312156109fd57600080fd5b8335925060208401359150610a14604085016109d8565b90509250925092565b600080600060608486031215610a3257600080fd5b83359250610a42602085016108fb565b9150610a14604085016108fb565b60008060008060008060c08789031215610a6957600080fd5b8635955060208701359450604087013593506060870135925060808701359150610a9560a088016109d8565b90509295509295509295565b600080600080600060a08688031215610ab957600080fd5b85359450610ac9602087016108fb565b9350610ad7604087016108fb565b94979396509394606081013594506080013592915050565b634e487b7160e01b600052601160045260246000fd5b600181815b80851115610b40578160001904821115610b2657610b26610aef565b80851615610b3357918102915b93841c9390800290610b0a565b509250929050565b600082610b575750600161041d565b81610b645750600061041d565b8160018114610b7a5760028114610b8457610ba0565b600191505061041d565b60ff841115610b9557610b95610aef565b50506001821b61041d565b5060208310610133831016604e8410600b8410161715610bc3575081810a61041d565b610bcd8383610b05565b8060001904821115610be157610be1610aef565b029392505050565b60006103df60ff841683610b48565b8082018281126000831280158216821582161715610c1857610c18610aef565b505092915050565b60ff828116828216039081111561041d5761041d610aef565b8181038181111561041d5761041d610aef565b634e487b7160e01b600052601260045260246000fd5b600082610c7157610c71610c4c565b500690565b8082018082111561041d5761041d610aef565b80820260008212600160ff1b84141615610ca557610ca5610aef565b818105831482151761041d5761041d610aef565b600082610cc857610cc8610c4c565b600160ff1b821460001984141615610ce257610ce2610aef565b500590565b808202811582820484141761041d5761041d610aef565b600082610d0d57610d0d610c4c565b50049056fea26469706673582212206416f278f5f57aa3f278eacc44e8adf494808fa27f39e964867ae7fdf43d159864736f6c63430008190033","linkReferences":{}},"methodIdentifiers":{"PRICE_PRECISION()":"95082d25","PRICE_TO_WEI()":"f6cb16f5","RATE_PRECISION()":"2b3ba681","SMALL_RATE_PRECISION()":"8975e68f","USD_PRECISION()":"4bfdfa6f","computeAvgEntryPrice(uint256,uint256,uint256,uint256,uint256,bool)":"f0a7df83","decimalsToDecimals(uint256,uint8,uint8)":"d6052ce3","diff(uint256,uint256)":"8f5e514a","div(uint256,uint256)":"a391c15b","divRate(uint256,uint256)":"c30b259b","divSmallRate(uint256,uint256)":"eda9aae4","divToIntPrecision(int256,int256,int256)":"4619bf39","divToPrecision(uint256,uint256,uint256)":"a520855f","formatToTickSize(uint256,uint256,bool)":"9b9c45ca","mul(uint256,uint256)":"c8a4ac9c","mulDiv(uint256,uint256,uint256)":"aa9a0912","mulIntSmallRate(int256,int256)":"445b0a43","mulRate(int256,int256)":"aca95d54","mulRate(uint256,uint256)":"ee7fc5a3","mulSmallRate(uint256,uint256)":"228d17e0","quietAdd(uint256,int256)":"107a60da","tokenToToken(uint256,uint8,uint8,uint256)":"89f35a6c","tokenToToken(uint256,uint8,uint8,uint256,uint256)":"f8739d7c","tokenToUsd(uint256,uint8,uint256)":"6f17c0af","tokenToUsdInt(int256,uint8,int256)":"75608c3d","usdToToken(uint256,uint8,uint256)":"f5873b97","usdToTokenInt(int256,uint8,int256)":"0d65ea29"},"id":161}