{"abi":[{"type":"function","name":"getConfig","inputs":[],"outputs":[{"name":"config","type":"tuple","internalType":"struct IConfig.CommonConfigParams","components":[{"name":"chainConfig","type":"tuple","internalType":"struct AppConfig.ChainConfig","components":[{"name":"wrapperToken","type":"address","internalType":"address"},{"name":"mintGasFeeLimit","type":"uint256","internalType":"uint256"},{"name":"redeemGasFeeLimit","type":"uint256","internalType":"uint256"},{"name":"placeIncreaseOrderGasFeeLimit","type":"uint256","internalType":"uint256"},{"name":"placeDecreaseOrderGasFeeLimit","type":"uint256","internalType":"uint256"},{"name":"positionUpdateMarginGasFeeLimit","type":"uint256","internalType":"uint256"},{"name":"positionUpdateLeverageGasFeeLimit","type":"uint256","internalType":"uint256"},{"name":"withdrawGasFeeLimit","type":"uint256","internalType":"uint256"},{"name":"claimRewardsGasFeeLimit","type":"uint256","internalType":"uint256"}]},{"name":"tradeConfig","type":"tuple","internalType":"struct AppTradeConfig.TradeConfig","components":[{"name":"tradeTokens","type":"address[]","internalType":"address[]"},{"name":"tradeTokenConfigs","type":"tuple[]","internalType":"struct AppTradeTokenConfig.TradeTokenConfig[]","components":[{"name":"isSupportCollateral","type":"bool","internalType":"bool"},{"name":"precision","type":"uint256","internalType":"uint256"},{"name":"discount","type":"uint256","internalType":"uint256"},{"name":"collateralUserCap","type":"uint256","internalType":"uint256"},{"name":"collateralTotalCap","type":"uint256","internalType":"uint256"},{"name":"liabilityUserCap","type":"uint256","internalType":"uint256"},{"name":"liabilityTotalCap","type":"uint256","internalType":"uint256"},{"name":"interestRateFactor","type":"uint256","internalType":"uint256"},{"name":"liquidationFactor","type":"uint256","internalType":"uint256"}]},{"name":"minOrderMarginUSD","type":"uint256","internalType":"uint256"},{"name":"availableCollateralRatio","type":"uint256","internalType":"uint256"},{"name":"crossLtvLimit","type":"uint256","internalType":"uint256"},{"name":"maxMaintenanceMarginRate","type":"uint256","internalType":"uint256"},{"name":"fundingFeeBaseRate","type":"uint256","internalType":"uint256"},{"name":"maxFundingBaseRate","type":"uint256","internalType":"uint256"},{"name":"tradingFeeStakingRewardsRatio","type":"uint256","internalType":"uint256"},{"name":"tradingFeePoolRewardsRatio","type":"uint256","internalType":"uint256"},{"name":"tradingFeeUsdPoolRewardsRatio","type":"uint256","internalType":"uint256"},{"name":"borrowingFeeStakingRewardsRatio","type":"uint256","internalType":"uint256"},{"name":"borrowingFeePoolRewardsRatio","type":"uint256","internalType":"uint256"},{"name":"autoReduceProfitFactor","type":"uint256","internalType":"uint256"},{"name":"autoReduceLiquidityFactor","type":"uint256","internalType":"uint256"},{"name":"swapSlipperTokenFactor","type":"uint256","internalType":"uint256"}]},{"name":"stakeConfig","type":"tuple","internalType":"struct AppPoolConfig.StakeConfig","components":[{"name":"collateralProtectFactor","type":"uint256","internalType":"uint256"},{"name":"collateralFactor","type":"uint256","internalType":"uint256"},{"name":"minPrecisionMultiple","type":"uint256","internalType":"uint256"},{"name":"mintFeeStakingRewardsRatio","type":"uint256","internalType":"uint256"},{"name":"mintFeePoolRewardsRatio","type":"uint256","internalType":"uint256"},{"name":"redeemFeeStakingRewardsRatio","type":"uint256","internalType":"uint256"},{"name":"redeemFeePoolRewardsRatio","type":"uint256","internalType":"uint256"},{"name":"poolRewardsIntervalLimit","type":"uint256","internalType":"uint256"},{"name":"minApr","type":"uint256","internalType":"uint256"},{"name":"maxApr","type":"uint256","internalType":"uint256"}]},{"name":"uniswapRouter","type":"address","internalType":"address"}]}],"stateMutability":"view"},{"type":"function","name":"getPoolConfig","inputs":[{"name":"stakeToken","type":"address","internalType":"address"}],"outputs":[{"name":"","type":"tuple","internalType":"struct AppPoolConfig.LpPoolConfig","components":[{"name":"baseInterestRate","type":"uint256","internalType":"uint256"},{"name":"poolLiquidityLimit","type":"uint256","internalType":"uint256"},{"name":"mintFeeRate","type":"uint256","internalType":"uint256"},{"name":"redeemFeeRate","type":"uint256","internalType":"uint256"},{"name":"poolPnlRatioLimit","type":"uint256","internalType":"uint256"},{"name":"unsettledBaseTokenRatioLimit","type":"uint256","internalType":"uint256"},{"name":"unsettledStableTokenRatioLimit","type":"uint256","internalType":"uint256"},{"name":"poolStableTokenRatioLimit","type":"uint256","internalType":"uint256"},{"name":"poolStableTokenLossLimit","type":"uint256","internalType":"uint256"},{"name":"assetTokens","type":"address[]","internalType":"address[]"}]}],"stateMutability":"view"},{"type":"function","name":"getSymbolConfig","inputs":[{"name":"code","type":"bytes32","internalType":"bytes32"}],"outputs":[{"name":"","type":"tuple","internalType":"struct AppConfig.SymbolConfig","components":[{"name":"maxLeverage","type":"uint256","internalType":"uint256"},{"name":"tickSize","type":"uint256","internalType":"uint256"},{"name":"openFeeRate","type":"uint256","internalType":"uint256"},{"name":"closeFeeRate","type":"uint256","internalType":"uint256"},{"name":"maxLongOpenInterestCap","type":"uint256","internalType":"uint256"},{"name":"maxShortOpenInterestCap","type":"uint256","internalType":"uint256"},{"name":"longShortRatioLimit","type":"uint256","internalType":"uint256"},{"name":"longShortOiBottomLimit","type":"uint256","internalType":"uint256"}]}],"stateMutability":"view"},{"type":"function","name":"getUsdPoolConfig","inputs":[],"outputs":[{"name":"","type":"tuple","internalType":"struct AppPoolConfig.UsdPoolConfig","components":[{"name":"poolLiquidityLimit","type":"uint256","internalType":"uint256"},{"name":"mintFeeRate","type":"uint256","internalType":"uint256"},{"name":"redeemFeeRate","type":"uint256","internalType":"uint256"},{"name":"unsettledRatioLimit","type":"uint256","internalType":"uint256"},{"name":"supportStableTokens","type":"address[]","internalType":"address[]"},{"name":"stableTokensBorrowingInterestRate","type":"uint256[]","internalType":"uint256[]"}]}],"stateMutability":"view"}],"bytecode":{"object":"0x612203610039600b82828239805160001a607314602c57634e487b7160e01b600052600060045260246000fd5b30600052607381538281f3fe73000000000000000000000000000000000000000030146080604052600436106100a85760003560e01c8063b4d93e3211610070578063b4d93e321461014d578063bea9849e1461016d578063c3f909d41461018d578063e1be37bd146101a2578063f29486a11461021657600080fd5b806347da0aa7146100ad5780634f42ce05146100cf5780635a19ab07146100ed5780638e34bdc11461010d578063a9f3f0911461012d575b600080fd5b8180156100b957600080fd5b506100cd6100c8366004611177565b610236565b005b6100d76102a5565b6040516100e491906112ca565b60405180910390f35b8180156100f957600080fd5b506100cd61010836600461134f565b610354565b81801561011957600080fd5b506100cd610128366004611368565b6103df565b81801561013957600080fd5b506100cd6101483660046113aa565b6105e4565b81801561015957600080fd5b506100cd6101683660046113bc565b61062c565b81801561017957600080fd5b506100cd6101883660046113f6565b610792565b6101956107d2565b6040516100e4919061156a565b6101b56101b0366004611682565b6109bd565b6040516100e49190600061010082019050825182526020830151602083015260408301516040830152606083015160608301526080830151608083015260a083015160a083015260c083015160c083015260e083015160e083015292915050565b6102296102243660046113f6565b610a80565b6040516100e49190611718565b805160208201516040516324307b4360e21b815273__$b0eec15594c58b534ae5f5b30a1fad312d$__926390c1ed0c926102729260040161172b565b60006040518083038186803b15801561028a57600080fd5b505af415801561029e573d6000803e3d6000fd5b5050505050565b6102de6040518060c001604052806000815260200160008152602001600081526020016000815260200160608152602001606081525090565b73__$b0eec15594c58b534ae5f5b30a1fad312d$__634f42ce056040518163ffffffff1660e01b8152600401600060405180830381865af4158015610327573d6000803e3d6000fd5b505050506040513d6000823e601f3d908101601f1916820160405261034f919081019061182e565b905090565b60408051633348109560e11b81528235600482015260208301356024820152908201356044820152606082013560648201526080820135608482015260a082013560a482015260c082013560c482015260e082013560e482015261010082013561010482015273__$bda6750164d46530feeed1122c24ac1a13$__90636690212a9061012401610272565b60405163341f3af960e01b815273__$bda6750164d46530feeed1122c24ac1a13$__9063341f3af9906104169084906004016118e6565b60006040518083038186803b15801561042e57600080fd5b505af4158015610442573d6000803e3d6000fd5b5050505073__$b56fc33e0f834396fbc214489bd80c2dfc$__633bb4412b82806101200190610471919061195a565b6040518263ffffffff1660e01b815260040161048d9190611ae8565b60006040518083038186803b1580156104a557600080fd5b505af41580156104b9573d6000803e3d6000fd5b5050604051631abe244b60e11b81526101408401356004820152610160840135602482015261018084013560448201526101a084013560648201526101c084013560848201526101e084013560a482015261020084013560c482015261022084013560e482015261024084013561010482015261026084013561012482015273__$b0eec15594c58b534ae5f5b30a1fad312d$__925063357c489691506101440160006040518083038186803b15801561057257600080fd5b505af4158015610586573d6000803e3d6000fd5b5050505073__$bda6750164d46530feeed1122c24ac1a13$__63bea9849e826102800160208101906105b891906113f6565b6040516001600160e01b031960e084901b1681526001600160a01b039091166004820152602401610272565b6105f96105f460208301836113f6565b610b56565b61061161060c60408301602084016113f6565b610cb6565b61062961062460608301604084016113f6565b610d98565b50565b73__$b0eec15594c58b534ae5f5b30a1fad312d$__63ff8087516106508380611be6565b6040518263ffffffff1660e01b815260040161066c9190611bfc565b60006040518083038186803b15801561068457600080fd5b505af4158015610698573d6000803e3d6000fd5b50505050600073__$2ca09eef01f3e987781766047ffc2a4e22$__6386d5c4be6040518163ffffffff1660e01b8152600401602060405180830381865af41580156106e7573d6000803e3d6000fd5b505050506040513d601f19601f8201168201806040525081019061070b9190611c95565b905073__$2ca09eef01f3e987781766047ffc2a4e22$__63c9dbcb32826107328580611be6565b610740906080810190611cae565b6040518463ffffffff1660e01b815260040161075e93929190611cf7565b60006040518083038186803b15801561077657600080fd5b505af415801561078a573d6000803e3d6000fd5b505050505050565b604051635f54c24f60e11b81526001600160a01b038216600482015273__$bda6750164d46530feeed1122c24ac1a13$__9063bea9849e90602401610272565b6107da610e7e565b73__$bda6750164d46530feeed1122c24ac1a13$__63606c0c946040518163ffffffff1660e01b815260040161012060405180830381865af4158015610824573d6000803e3d6000fd5b505050506040513d601f19601f820116820180604052508101906108489190611d1a565b816000018190525073__$b56fc33e0f834396fbc214489bd80c2dfc$__63b45849886040518163ffffffff1660e01b8152600401600060405180830381865af4158015610899573d6000803e3d6000fd5b505050506040513d6000823e601f3d908101601f191682016040526108c19190810190611e80565b816020018190525073__$b0eec15594c58b534ae5f5b30a1fad312d$__63fe1d4ffc6040518163ffffffff1660e01b815260040161014060405180830381865af4158015610913573d6000803e3d6000fd5b505050506040513d601f19601f820116820180604052508101906109379190611fa7565b816040018190525073__$bda6750164d46530feeed1122c24ac1a13$__63524900b56040518163ffffffff1660e01b8152600401602060405180830381865af4158015610988573d6000803e3d6000fd5b505050506040513d601f19601f820116820180604052508101906109ac919061202e565b6001600160a01b0316606082015290565b610a0560405180610100016040528060008152602001600081526020016000815260200160008152602001600081526020016000815260200160008152602001600081525090565b60405163e1be37bd60e01b81526004810183905273__$bda6750164d46530feeed1122c24ac1a13$__9063e1be37bd9060240161010060405180830381865af4158015610a56573d6000803e3d6000fd5b505050506040513d601f19601f82011682018060405250810190610a7a919061204b565b92915050565b610ad6604051806101400160405280600081526020016000815260200160008152602001600081526020016000815260200160008152602001600081526020016000815260200160008152602001606081525090565b604051633daea25d60e01b81526001600160a01b038316600482015273__$b0eec15594c58b534ae5f5b30a1fad312d$__90633daea25d90602401600060405180830381865af4158015610b2e573d6000803e3d6000fd5b505050506040513d6000823e601f3d908101601f19168201604052610a7a91908101906120da565b600073__$819338afc672a9cefb034a8d5ff76e114d$__6386d5c4be6040518163ffffffff1660e01b8152600401602060405180830381865af4158015610ba1573d6000803e3d6000fd5b505050506040513d601f19601f82011682018060405250810190610bc59190611c95565b90508073__$819338afc672a9cefb034a8d5ff76e114d$__632aa337489091604051602001610bf3906121a7565b60405160208183030381529060405280519060200120604051602001610c3590602080825260089082015267131417d59055531560c21b604082015260600190565b60405160208183030381529060405280519060200120604051602001610c65929190918252602082015260400190565b60408051601f198184030181529082905280516020909101206001600160e01b031960e085901b168252600482019290925260248101919091526001600160a01b038516604482015260640161075e565b600073__$819338afc672a9cefb034a8d5ff76e114d$__6386d5c4be6040518163ffffffff1660e01b8152600401602060405180830381865af4158015610d01573d6000803e3d6000fd5b505050506040513d601f19601f82011682018060405250810190610d259190611c95565b90508073__$819338afc672a9cefb034a8d5ff76e114d$__632aa337489091604051602001610d53906121a7565b60405160208183030381529060405280519060200120604051602001610c35906020808252600b908201526a151490511157d59055531560aa1b604082015260600190565b600073__$819338afc672a9cefb034a8d5ff76e114d$__6386d5c4be6040518163ffffffff1660e01b8152600401602060405180830381865af4158015610de3573d6000803e3d6000fd5b505050506040513d601f19601f82011682018060405250810190610e079190611c95565b90508073__$819338afc672a9cefb034a8d5ff76e114d$__632aa337489091604051602001610e35906121a7565b60405160208183030381529060405280519060200120604051602001610c35906020808252600f908201526e1413d4951193d31253d7d590555315608a1b604082015260600190565b6040518060800160405280610ee160405180610120016040528060006001600160a01b0316815260200160008152602001600081526020016000815260200160008152602001600081526020016000815260200160008152602001600081525090565b8152602001610f66604051806102000160405280606081526020016060815260200160008152602001600081526020016000815260200160008152602001600081526020016000815260200160008152602001600081526020016000815260200160008152602001600081526020016000815260200160008152602001600081525090565b8152602001610fc1604051806101400160405280600081526020016000815260200160008152602001600081526020016000815260200160008152602001600081526020016000815260200160008152602001600081525090565b8152600060209091015290565b634e487b7160e01b600052604160045260246000fd5b604080519081016001600160401b038111828210171561100657611006610fce565b60405290565b60405161014081016001600160401b038111828210171561100657611006610fce565b60405160c081016001600160401b038111828210171561100657611006610fce565b60405161012081016001600160401b038111828210171561100657611006610fce565b60405161020081016001600160401b038111828210171561100657611006610fce565b604051601f8201601f191681016001600160401b03811182821017156110bf576110bf610fce565b604052919050565b6001600160a01b038116811461062957600080fd5b60006001600160401b038211156110f5576110f5610fce565b5060051b60200190565b600082601f83011261111057600080fd5b81356020611125611120836110dc565b611097565b8083825260208201915060208460051b87010193508684111561114757600080fd5b602086015b8481101561116c57803561115f816110c7565b835291830191830161114c565b509695505050505050565b60006020828403121561118957600080fd5b81356001600160401b03808211156111a057600080fd5b90830190604082860312156111b457600080fd5b6111bc610fe4565b82356111c7816110c7565b81526020830135828111156111db57600080fd5b929092019161014083870312156111f157600080fd5b6111f961100c565b833581526020840135602082015260408401356040820152606084013560608201526080840135608082015260a084013560a082015260c084013560c082015260e084013560e0820152610100808501358183015250610120808501358481111561126357600080fd5b61126f898288016110ff565b9183019190915250602082015295945050505050565b60008151808452602080850194506020840160005b838110156112bf5781516001600160a01b03168752958201959082019060010161129a565b509495945050505050565b600060208083528351818401528084015160408401526040840151606084015260608401516080840152608084015160c060a085015261130d60e0850182611285565b60a0860151858203601f190160c0870152805180835290840192506000918401905b8083101561116c578351825292840192600192909201919084019061132f565b6000610120828403121561136257600080fd5b50919050565b60006020828403121561137a57600080fd5b81356001600160401b0381111561139057600080fd5b82016102a081850312156113a357600080fd5b9392505050565b60006060828403121561136257600080fd5b6000602082840312156113ce57600080fd5b81356001600160401b038111156113e457600080fd5b8201602081850312156113a357600080fd5b60006020828403121561140857600080fd5b81356113a3816110c7565b60008151808452602080850194506020840160005b838110156112bf578151805115158852838101518489015260408082015190890152606080820151908901526080808201519089015260a0808201519089015260c0808201519089015260e0808201519089015261010090810151908801526101209096019590820190600101611428565b600061020082518185526114b082860182611285565b915050602083015184820360208601526114ca8282611413565b60408581015190870152606080860151908701526080808601519087015260a0808601519087015260c0808601519087015260e08086015190870152610100808601519087015261012080860151908701526101408086015190870152610160808601519087015261018080860151908701526101a080860151908701526101c080860151908701526101e0948501519490950193909352509192915050565b602081526000825160018060a01b038151166020840152602081015160408401526040810151606084015260608101516080840152608081015160a084015260a081015160c084015260c081015160e084015260e081015161010081818601528083015161012086015250505060208301516102a0806101408501526115f46102c085018361149a565b60408681015180516101608801526020810151610180880152908101516101a08701526060808201516101c088015260808201516101e088015260a082015161020088015260c082015161022088015260e082015161024088015261010082015161026088015261012090910151610280870152909501516001600160a01b03169301929092525090919050565b60006020828403121561169457600080fd5b5035919050565b6000610140825184526020830151602085015260408301516040850152606083015160608501526080830151608085015260a083015160a085015260c083015160c085015260e083015160e085015261010080840151818601525061012080840151828287015261170e83870182611285565b9695505050505050565b6020815260006113a3602083018461169b565b6001600160a01b038316815260406020820181905260009061174f9083018461169b565b949350505050565b8051611762816110c7565b919050565b600082601f83011261177857600080fd5b81516020611788611120836110dc565b8083825260208201915060208460051b8701019350868411156117aa57600080fd5b602086015b8481101561116c5780516117c2816110c7565b83529183019183016117af565b600082601f8301126117e057600080fd5b815160206117f0611120836110dc565b8083825260208201915060208460051b87010193508684111561181257600080fd5b602086015b8481101561116c5780518352918301918301611817565b60006020828403121561184057600080fd5b81516001600160401b038082111561185757600080fd5b9083019060c0828603121561186b57600080fd5b61187361102f565b825181526020830151602082015260408301516040820152606083015160608201526080830151828111156118a757600080fd5b6118b387828601611767565b60808301525060a0830151828111156118cb57600080fd5b6118d7878286016117cf565b60a08301525095945050505050565b610120810182356118f6816110c7565b60018060a01b0381168352506020830135602083015260408301356040830152606083013560608301526080830135608083015260a083013560a083015260c083013560c083015260e083013560e083015261010080840135818401525092915050565b600082356101fe1983360301811261197157600080fd5b9190910192915050565b6000808335601e1984360301811261199257600080fd5b83016020810192503590506001600160401b038111156119b157600080fd5b8060051b36038213156119c357600080fd5b9250929050565b8183526000602080850194508260005b858110156112bf5781356119ed816110c7565b6001600160a01b0316875295820195908201906001016119da565b6000808335601e19843603018112611a1f57600080fd5b83016020810192503590506001600160401b03811115611a3e57600080fd5b610120810236038213156119c357600080fd5b801515811461062957600080fd5b8183526000602080850194508260005b858110156112bf578135611a8281611a51565b15158752818301358388015260408083013590880152606080830135908801526080808301359088015260a0808301359088015260c0808301359088015260e0808301359088015261010080830135908801526101209687019690910190600101611a6f565b602081526000611af8838461197b565b610200806020860152611b10610220860183856119ca565b9250611b1f6020870187611a08565b868503601f190160408801529250611b38848483611a5f565b9350506040860135606086015260608601356080860152608086013560a086015260a086013560c086015260c086013560e0860152610100915060e08601358286015261012082870135818701526101409250808701358387015250610160828701358187015261018092508087013583870152506101a082870135818701526101c092508087013583870152506101e0828701358187015280870135828701525050508091505092915050565b6000823560be1983360301811261197157600080fd5b60208152813560208201526020820135604082015260408201356060820152606082013560808201526000611c34608084018461197b565b60c060a0850152611c4960e0850182846119ca565b915050611c5960a085018561197b565b848303601f190160c08601528083526001600160fb1b03811115611c7c57600080fd5b60051b8082602085013791909101602001949350505050565b600060208284031215611ca757600080fd5b5051919050565b6000808335601e19843603018112611cc557600080fd5b8301803591506001600160401b03821115611cdf57600080fd5b6020019150600581901b36038213156119c357600080fd5b838152604060208201526000611d116040830184866119ca565b95945050505050565b60006101208284031215611d2d57600080fd5b611d35611051565b611d3e83611757565b81526020830151602082015260408301516040820152606083015160608201526080830151608082015260a083015160a082015260c083015160c082015260e083015160e08201526101008084015181830152508091505092915050565b805161176281611a51565b600082601f830112611db857600080fd5b81516020611dc8611120836110dc565b8281526101209283028501820192828201919087851115611de857600080fd5b8387015b85811015611e735781818a031215611e045760008081fd5b611e0c611051565b611e1582611d9c565b8152818601518682015260408083015190820152606080830151908201526080808301519082015260a0808301519082015260c0808301519082015260e0808301519082015261010080830151908201528452928401928101611dec565b5090979650505050505050565b600060208284031215611e9257600080fd5b81516001600160401b0380821115611ea957600080fd5b908301906102008286031215611ebe57600080fd5b611ec6611074565b825182811115611ed557600080fd5b611ee187828601611767565b825250602083015182811115611ef657600080fd5b611f0287828601611da7565b60208301525060408381015190820152606080840151908201526080808401519082015260a0808401519082015260c0808401519082015260e08084015190820152610100808401519082015261012080840151908201526101408084015190820152610160808401519082015261018080840151908201526101a080840151908201526101c080840151908201526101e09283015192810192909252509392505050565b60006101408284031215611fba57600080fd5b611fc261100c565b825181526020830151602082015260408301516040820152606083015160608201526080830151608082015260a083015160a082015260c083015160c082015260e083015160e08201526101008084015181830152506101208084015181830152508091505092915050565b60006020828403121561204057600080fd5b81516113a3816110c7565b600061010080838503121561205f57600080fd5b604051908101906001600160401b038211818310171561208157612081610fce565b81604052835181526020840151602082015260408401516040820152606084015160608201526080840151608082015260a084015160a082015260c084015160c082015260e084015160e0820152809250505092915050565b6000602082840312156120ec57600080fd5b81516001600160401b038082111561210357600080fd5b90830190610140828603121561211857600080fd5b61212061100c565b825181526020830151602082015260408301516040820152606083015160608201526080830151608082015260a083015160a082015260c083015160c082015260e083015160e0820152610100808401518183015250610120808401518381111561218a57600080fd5b61219688828701611767565b918301919091525095945050505050565b6020808252600c908201526b5641554c545f434f4e46494760a01b60408201526060019056fea264697066735822122065d8e155174dd39897a411251d2aa99c435804dd83c50824f110859f83b0fc5464736f6c63430008190033","linkReferences":{"src/storage/AppConfig.sol":{"AppConfig":[{"start":1013,"length":20},{"start":1063,"length":20},{"start":1477,"length":20},{"start":2025,"length":20},{"start":2069,"length":20},{"start":2426,"length":20},{"start":2644,"length":20}]},"src/storage/AppPoolConfig.sol":{"AppPoolConfig":[{"start":645,"length":20},{"start":793,"length":20},{"start":1395,"length":20},{"start":1639,"length":20},{"start":2308,"length":20},{"start":2861,"length":20}]},"src/storage/AppStorage.sol":{"AppStorage":[{"start":2963,"length":20},{"start":3075,"length":20},{"start":3315,"length":20},{"start":3427,"length":20},{"start":3541,"length":20},{"start":3653,"length":20}]},"src/storage/AppTradeConfig.sol":{"AppTradeConfig":[{"start":1153,"length":20},{"start":2187,"length":20}]},"src/storage/UsdPool.sol":{"UsdPool":[{"start":1753,"length":20},{"start":1864,"length":20}]}}},"methodIdentifiers":{"getConfig()":"c3f909d4","getPoolConfig(address)":"f29486a1","getSymbolConfig(bytes32)":"e1be37bd","getUsdPoolConfig()":"4f42ce05","setConfig(IConfig.CommonConfigParams)":"8e34bdc1","setPoolConfig(IConfig.LpPoolConfigParams)":"47da0aa7","setSymbolConfig(IConfig.SymbolConfigParams)":"5a19ab07","setUniswapRouter(address)":"bea9849e","setUsdPoolConfig(IConfig.UsdPoolConfigParams)":"b4d93e32","setVaultConfig(IConfig.VaultConfigParams)":"a9f3f091"},"id":94}