{"abi":[{"type":"function","name":"ARBITRUM_CHAIN_ID","inputs":[],"outputs":[{"name":"","type":"uint256","internalType":"uint256"}],"stateMutability":"view"},{"type":"function","name":"ARBITRUM_SEPOLIA_CHAIN_ID","inputs":[],"outputs":[{"name":"","type":"uint256","internalType":"uint256"}],"stateMutability":"view"},{"type":"function","name":"arbSys","inputs":[],"outputs":[{"name":"","type":"ArbSys","internalType":"contract ArbSys"}],"stateMutability":"view"},{"type":"function","name":"currentBlock","inputs":[],"outputs":[{"name":"","type":"uint256","internalType":"uint256"}],"stateMutability":"view"},{"type":"function","name":"currentTimestamp","inputs":[],"outputs":[{"name":"","type":"uint256","internalType":"uint256"}],"stateMutability":"view"}],"bytecode":{"object":"0x610186610039600b82828239805160001a607314602c57634e487b7160e01b600052600060045260246000fd5b30600052607381538281f3fe73000000000000000000000000000000000000000030146080604052600436106100615760003560e01c80631057d40f146100665780631e2ff94f1461008b5780631fab59fb1461009b578063cdcdd548146100a5578063e12ed13c146100ae575b600080fd5b61006e606481565b6040516001600160a01b0390911681526020015b60405180910390f35b425b604051908152602001610082565b61008d62066eee81565b61008d61a4b181565b61008d600061a4b14614806100c5575062066eee46145b156101325760646001600160a01b031663a3b1b31d6040518163ffffffff1660e01b8152600401602060405180830381865afa158015610109573d6000803e3d6000fd5b505050506040513d601f19601f8201168201806040525081019061012d9190610137565b905090565b504390565b60006020828403121561014957600080fd5b505191905056fea2646970667358221220380329c6ab7f7358a4c6afea93be15deb57bb4e8d747d3ff73a26c008146588f64736f6c63430008190033","linkReferences":{}},"methodIdentifiers":{"ARBITRUM_CHAIN_ID()":"cdcdd548","ARBITRUM_SEPOLIA_CHAIN_ID()":"1fab59fb","arbSys()":"1057d40f","currentBlock()":"e12ed13c","currentTimestamp()":"1e2ff94f"},"id":152}