{"abi":[{"type":"function","name":"ARBITRUM_CHAIN_ID","inputs":[],"outputs":[{"name":"","type":"uint256","internalType":"uint256"}],"stateMutability":"view"},{"type":"function","name":"ARBITRUM_SEPOLIA_CHAIN_ID","inputs":[],"outputs":[{"name":"","type":"uint256","internalType":"uint256"}],"stateMutability":"view"},{"type":"function","name":"arbSys","inputs":[],"outputs":[{"name":"","type":"ArbSys","internalType":"contract ArbSys"}],"stateMutability":"view"}],"bytecode":{"object":"0x60c46037600b82828239805160001a607314602a57634e487b7160e01b600052600060045260246000fd5b30600052607381538281f3fe730000000000000000000000000000000000000000301460806040526004361060475760003560e01c80631057d40f14604c5780631fab59fb146070578063cdcdd548146086575b600080fd5b6053606481565b6040516001600160a01b0390911681526020015b60405180910390f35b607962066eee81565b6040519081526020016067565b607961a4b18156fea26469706673582212209196fc2ee52f8a3960180dbf99ff4d2d23f70cd05463664004604d22ed2aa0c164736f6c63430008190033","linkReferences":{}},"methodIdentifiers":{"ARBITRUM_CHAIN_ID()":"cdcdd548","ARBITRUM_SEPOLIA_CHAIN_ID()":"1fab59fb","arbSys()":"1057d40f"},"id":162}