{"abi":[{"type":"function","name":"getAllCleanInfo","inputs":[],"outputs":[{"name":"","type":"tuple[]","internalType":"struct LiabilityClean.LiabilityCleanInfo[]","components":[{"name":"account","type":"address","internalType":"address"},{"name":"createTime","type":"uint256","internalType":"uint256"},{"name":"liabilityTokens","type":"address[]","internalType":"address[]"},{"name":"liabilities","type":"uint256[]","internalType":"uint256[]"},{"name":"collaterals","type":"address[]","internalType":"address[]"},{"name":"collateralsAmount","type":"uint256[]","internalType":"uint256[]"}]}],"stateMutability":"view"},{"type":"function","name":"getCleanInfo","inputs":[{"name":"id","type":"uint256","internalType":"uint256"}],"outputs":[{"name":"","type":"tuple","internalType":"struct LiabilityClean.LiabilityCleanInfo","components":[{"name":"account","type":"address","internalType":"address"},{"name":"createTime","type":"uint256","internalType":"uint256"},{"name":"liabilityTokens","type":"address[]","internalType":"address[]"},{"name":"liabilities","type":"uint256[]","internalType":"uint256[]"},{"name":"collaterals","type":"address[]","internalType":"address[]"},{"name":"collateralsAmount","type":"uint256[]","internalType":"uint256[]"}]}],"stateMutability":"view"},{"type":"event","name":"LiabilityCleanEvent","inputs":[{"name":"id","type":"uint256","indexed":false,"internalType":"uint256"},{"name":"info","type":"tuple","indexed":false,"internalType":"struct LiabilityClean.LiabilityCleanInfo","components":[{"name":"account","type":"address","internalType":"address"},{"name":"createTime","type":"uint256","internalType":"uint256"},{"name":"liabilityTokens","type":"address[]","internalType":"address[]"},{"name":"liabilities","type":"uint256[]","internalType":"uint256[]"},{"name":"collaterals","type":"address[]","internalType":"address[]"},{"name":"collateralsAmount","type":"uint256[]","internalType":"uint256[]"}]}],"anonymous":false}],"bytecode":{"object":"0x611039610039600b82828239805160001a607314602c57634e487b7160e01b600052600060045260246000fd5b30600052607381538281f3fe73000000000000000000000000000000000000000030146080604052600436106100875760003560e01c80638a6bc5ea116100655780638a6bc5ea146100e7578063b45cb6b214610109578063f45625071461011e578063fc3d7d991461013e57600080fd5b8063113d49081461008c578063310a0e41146100bf57806386d5c4be146100df575b600080fd5b81801561009857600080fd5b506100ac6100a7366004610a81565b61015e565b6040519081526020015b60405180910390f35b6100d26100cd366004610a81565b610189565b6040516100b69190610b97565b6100ac61034c565b8180156100f357600080fd5b50610107610102366004610d2f565b6103ae565b005b610111610473565b6040516100b69190610e2f565b81801561012a57600080fd5b50610107610139366004610e93565b6106e1565b81801561014a57600080fd5b50610107610159366004610a81565b61071e565b60008061016961034c565b90506101758184610799565b506000928352600201602052506040902090565b61019161096c565b600061019b61034c565b600084815260028083016020908152604092839020835160c08101855281546001600160a01b031681526001820154818401529281018054855181850281018501875281815296975093959194860193919290919083018282801561022957602002820191906000526020600020905b81546001600160a01b0316815260019091019060200180831161020b575b505050505081526020016003820180548060200260200160405190810160405280929190818152602001828054801561028157602002820191906000526020600020905b81548152602001906001019080831161026d575b50505050508152602001600482018054806020026020016040519081016040528092919081815260200182805480156102e357602002820191906000526020600020905b81546001600160a01b031681526001909101906020018083116102c5575b505050505081526020016005820180548060200260200160405190810160405280929190818152602001828054801561033b57602002820191906000526020600020905b815481526020019060010190808311610327575b505050505081525050915050919050565b600080604051602001610390906020808252601f908201527f78797a2e656c66692e73746f726167652e4c696162696c697479436c65616e00604082015260600190565b60408051601f19818403018152919052805160209091012092915050565b60006103b861034c565b90506103c48184610799565b50600083815260028281016020908152604092839020855181546001600160a01b0319166001600160a01b03909116178155858201516001820155928501518051869493610417939085019201906109ab565b5060608201518051610433916003840191602090910190610a10565b506080820151805161044f9160048401916020909101906109ab565b5060a0820151805161046b916005840191602090910190610a10565b505050505050565b6060600061047f61034c565b9050600061048c826107ae565b90506000815167ffffffffffffffff8111156104aa576104aa610baa565b6040519080825280602002602001820160405280156104e357816020015b6104d061096c565b8152602001906001900390816104c85790505b50905060005b82518110156106d95783600201600084838151811061050a5761050a610eb5565b6020908102919091018101518252818101929092526040908101600020815160c08101835281546001600160a01b0316815260018201548185015260028201805484518187028101870186528181529295939486019383018282801561059957602002820191906000526020600020905b81546001600160a01b0316815260019091019060200180831161057b575b50505050508152602001600382018054806020026020016040519081016040528092919081815260200182805480156105f157602002820191906000526020600020905b8154815260200190600101908083116105dd575b505050505081526020016004820180548060200260200160405190810160405280929190818152602001828054801561065357602002820191906000526020600020905b81546001600160a01b03168152600190910190602001808311610635575b50505050508152602001600582018054806020026020016040519081016040528092919081815260200182805480156106ab57602002820191906000526020600020905b815481526020019060010190808311610697575b5050505050815250508282815181106106c6576106c6610eb5565b60209081029190910101526001016104e9565b509392505050565b7fa4a7288441eb2f92f5024e814924f8c53e12c3f5981bd9d2a2146dd24f72a6058282604051610712929190610f40565b60405180910390a15050565b600061072861034c565b905061073481836107c2565b50600082815260028083016020526040822080546001600160a01b031916815560018101839055919061076990830182610a4b565b610777600383016000610a4b565b610785600483016000610a4b565b610793600583016000610a4b565b50505050565b60006107a583836107ce565b90505b92915050565b606060006107bb8361081d565b9392505050565b60006107a58383610879565b6000818152600183016020526040812054610815575081546001818101845560008481526020808220909301849055845484825282860190935260409020919091556107a8565b5060006107a8565b60608160000180548060200260200160405190810160405280929190818152602001828054801561086d57602002820191906000526020600020905b815481526020019060010190808311610859575b50505050509050919050565b6000818152600183016020526040812054801561096257600061089d600183610fcc565b85549091506000906108b190600190610fcc565b90508181146109165760008660000182815481106108d1576108d1610eb5565b90600052602060002001549050808760000184815481106108f4576108f4610eb5565b6000918252602080832090910192909255918252600188019052604090208390555b855486908061092757610927610fed565b6001900381819060005260206000200160009055905585600101600086815260200190815260200160002060009055600193505050506107a8565b60009150506107a8565b6040518060c0016040528060006001600160a01b0316815260200160008152602001606081526020016060815260200160608152602001606081525090565b828054828255906000526020600020908101928215610a00579160200282015b82811115610a0057825182546001600160a01b0319166001600160a01b039091161782556020909201916001909101906109cb565b50610a0c929150610a6c565b5090565b828054828255906000526020600020908101928215610a00579160200282015b82811115610a00578251825591602001919060010190610a30565b5080546000825590600052602060002090810190610a699190610a6c565b50565b5b80821115610a0c5760008155600101610a6d565b600060208284031215610a9357600080fd5b5035919050565b60008151808452602080850194506020840160005b83811015610ad45781516001600160a01b031687529582019590820190600101610aaf565b509495945050505050565b60008151808452602080850194506020840160005b83811015610ad457815187529582019590820190600101610af4565b60018060a01b038151168252602081015160208301526000604082015160c06040850152610b4160c0850182610a9a565b905060608301518482036060860152610b5a8282610adf565b91505060808301518482036080860152610b748282610a9a565b91505060a083015184820360a0860152610b8e8282610adf565b95945050505050565b6020815260006107a56020830184610b10565b634e487b7160e01b600052604160045260246000fd5b60405160c0810167ffffffffffffffff81118282101715610be357610be3610baa565b60405290565b604051601f8201601f1916810167ffffffffffffffff81118282101715610c1257610c12610baa565b604052919050565b80356001600160a01b0381168114610c3157600080fd5b919050565b600067ffffffffffffffff821115610c5057610c50610baa565b5060051b60200190565b600082601f830112610c6b57600080fd5b81356020610c80610c7b83610c36565b610be9565b8083825260208201915060208460051b870101935086841115610ca257600080fd5b602086015b84811015610cc557610cb881610c1a565b8352918301918301610ca7565b509695505050505050565b600082601f830112610ce157600080fd5b81356020610cf1610c7b83610c36565b8083825260208201915060208460051b870101935086841115610d1357600080fd5b602086015b84811015610cc55780358352918301918301610d18565b60008060408385031215610d4257600080fd5b82359150602083013567ffffffffffffffff80821115610d6157600080fd5b9084019060c08287031215610d7557600080fd5b610d7d610bc0565b610d8683610c1a565b815260208301356020820152604083013582811115610da457600080fd5b610db088828601610c5a565b604083015250606083013582811115610dc857600080fd5b610dd488828601610cd0565b606083015250608083013582811115610dec57600080fd5b610df888828601610c5a565b60808301525060a083013582811115610e1057600080fd5b610e1c88828601610cd0565b60a0830152508093505050509250929050565b600060208083016020845280855180835260408601915060408160051b87010192506020870160005b82811015610e8657603f19888603018452610e74858351610b10565b94509285019290850190600101610e58565b5092979650505050505050565b60008060408385031215610ea657600080fd5b50508035926020909101359150565b634e487b7160e01b600052603260045260246000fd5b600081548084526020808501945083600052602060002060005b83811015610ad45781546001600160a01b031687529582019560019182019101610ee5565b600081548084526020808501945083600052602060002060005b83811015610ad457815487529582019560019182019101610f24565b82815260406020820181905282546001600160a01b0316908201526001820154606082015260c060808201526000610f7f610100830160028501610ecb565b603f19808483030160a0850152610f998260038701610f0a565b9150808483030160c0850152610fb28260048701610ecb565b9150808483030160e085015250610b8e8160058601610f0a565b818103818111156107a857634e487b7160e01b600052601160045260246000fd5b634e487b7160e01b600052603160045260246000fdfea26469706673582212203dcc79069a28147e7dc906da5a3d9062487427b895159a1b9cadcdf48163c52e64736f6c63430008190033","linkReferences":{}},"methodIdentifiers":{"addClean(uint256,LiabilityClean.LiabilityCleanInfo)":"8a6bc5ea","emitCleanInfo(uint256,LiabilityClean.LiabilityCleanInfo storage)":"f4562507","getAllCleanInfo()":"b45cb6b2","getCleanInfo(uint256)":"310a0e41","load()":"86d5c4be","newClean(uint256)":"113d4908","removeClean(uint256)":"fc3d7d99"},"id":140}