{"abi":[{"type":"receive","stateMutability":"payable"},{"type":"function","name":"batchCreateOrderRequest","inputs":[{"name":"params","type":"tuple[]","internalType":"struct IOrder.PlaceOrderParams[]","components":[{"name":"symbol","type":"bytes32","internalType":"bytes32"},{"name":"isCrossMargin","type":"bool","internalType":"bool"},{"name":"isNativeToken","type":"bool","internalType":"bool"},{"name":"orderSide","type":"uint8","internalType":"enum Order.Side"},{"name":"posSide","type":"uint8","internalType":"enum Order.PositionSide"},{"name":"orderType","type":"uint8","internalType":"enum Order.Type"},{"name":"stopType","type":"uint8","internalType":"enum Order.StopType"},{"name":"marginToken","type":"address","internalType":"address"},{"name":"qty","type":"uint256","internalType":"uint256"},{"name":"orderMargin","type":"uint256","internalType":"uint256"},{"name":"leverage","type":"uint256","internalType":"uint256"},{"name":"triggerPrice","type":"uint256","internalType":"uint256"},{"name":"acceptablePrice","type":"uint256","internalType":"uint256"},{"name":"executionFee","type":"uint256","internalType":"uint256"},{"name":"placeTime","type":"uint256","internalType":"uint256"}]}],"outputs":[{"name":"orderIds","type":"uint256[]","internalType":"uint256[]"}],"stateMutability":"payable"},{"type":"function","name":"cancelOrder","inputs":[{"name":"orderId","type":"uint256","internalType":"uint256"},{"name":"reasonCode","type":"bytes32","internalType":"bytes32"}],"outputs":[],"stateMutability":"nonpayable"},{"type":"function","name":"createOrderRequest","inputs":[{"name":"params","type":"tuple","internalType":"struct IOrder.PlaceOrderParams","components":[{"name":"symbol","type":"bytes32","internalType":"bytes32"},{"name":"isCrossMargin","type":"bool","internalType":"bool"},{"name":"isNativeToken","type":"bool","internalType":"bool"},{"name":"orderSide","type":"uint8","internalType":"enum Order.Side"},{"name":"posSide","type":"uint8","internalType":"enum Order.PositionSide"},{"name":"orderType","type":"uint8","internalType":"enum Order.Type"},{"name":"stopType","type":"uint8","internalType":"enum Order.StopType"},{"name":"marginToken","type":"address","internalType":"address"},{"name":"qty","type":"uint256","internalType":"uint256"},{"name":"orderMargin","type":"uint256","internalType":"uint256"},{"name":"leverage","type":"uint256","internalType":"uint256"},{"name":"triggerPrice","type":"uint256","internalType":"uint256"},{"name":"acceptablePrice","type":"uint256","internalType":"uint256"},{"name":"executionFee","type":"uint256","internalType":"uint256"},{"name":"placeTime","type":"uint256","internalType":"uint256"}]}],"outputs":[{"name":"orderId","type":"uint256","internalType":"uint256"}],"stateMutability":"payable"},{"type":"function","name":"executeOrder","inputs":[{"name":"orderId","type":"uint256","internalType":"uint256"},{"name":"oracles","type":"tuple[]","internalType":"struct OracleProcess.OracleParam[]","components":[{"name":"token","type":"address","internalType":"address"},{"name":"targetToken","type":"address","internalType":"address"},{"name":"minPrice","type":"int256","internalType":"int256"},{"name":"maxPrice","type":"int256","internalType":"int256"}]}],"outputs":[],"stateMutability":"nonpayable"},{"type":"function","name":"getAccountOrders","inputs":[{"name":"account","type":"address","internalType":"address"}],"outputs":[{"name":"result","type":"tuple[]","internalType":"struct IOrder.AccountOrder[]","components":[{"name":"orderId","type":"uint256","internalType":"uint256"},{"name":"orderInfo","type":"tuple","internalType":"struct Order.OrderInfo","components":[{"name":"account","type":"address","internalType":"address"},{"name":"symbol","type":"bytes32","internalType":"bytes32"},{"name":"orderSide","type":"uint8","internalType":"enum Order.Side"},{"name":"posSide","type":"uint8","internalType":"enum Order.PositionSide"},{"name":"orderType","type":"uint8","internalType":"enum Order.Type"},{"name":"stopType","type":"uint8","internalType":"enum Order.StopType"},{"name":"isCrossMargin","type":"bool","internalType":"bool"},{"name":"isExecutionFeeFromTradeVault","type":"bool","internalType":"bool"},{"name":"marginToken","type":"address","internalType":"address"},{"name":"qty","type":"uint256","internalType":"uint256"},{"name":"leverage","type":"uint256","internalType":"uint256"},{"name":"orderMargin","type":"uint256","internalType":"uint256"},{"name":"triggerPrice","type":"uint256","internalType":"uint256"},{"name":"acceptablePrice","type":"uint256","internalType":"uint256"},{"name":"placeTime","type":"uint256","internalType":"uint256"},{"name":"executionFee","type":"uint256","internalType":"uint256"},{"name":"lastBlock","type":"uint256","internalType":"uint256"}]}]}],"stateMutability":"view"},{"type":"event","name":"AccountOrderHoldInUsdUpdateEvent","inputs":[{"name":"account","type":"address","indexed":false,"internalType":"address"},{"name":"preOrderHoldInUsd","type":"uint256","indexed":false,"internalType":"uint256"},{"name":"orderHoldInUsd","type":"uint256","indexed":false,"internalType":"uint256"}],"anonymous":false},{"type":"event","name":"AccountTokenUpdateEvent","inputs":[{"name":"account","type":"address","indexed":false,"internalType":"address"},{"name":"token","type":"address","indexed":false,"internalType":"address"},{"name":"preBalance","type":"tuple","indexed":false,"internalType":"struct Account.TokenBalance","components":[{"name":"amount","type":"uint256","internalType":"uint256"},{"name":"usedAmount","type":"uint256","internalType":"uint256"},{"name":"interest","type":"uint256","internalType":"uint256"},{"name":"liability","type":"uint256","internalType":"uint256"}]},{"name":"balance","type":"tuple","indexed":false,"internalType":"struct Account.TokenBalance","components":[{"name":"amount","type":"uint256","internalType":"uint256"},{"name":"usedAmount","type":"uint256","internalType":"uint256"},{"name":"interest","type":"uint256","internalType":"uint256"},{"name":"liability","type":"uint256","internalType":"uint256"}]},{"name":"source","type":"uint8","indexed":false,"internalType":"enum Account.UpdateSource"}],"anonymous":false},{"type":"event","name":"CancelOrderEvent","inputs":[{"name":"orderId","type":"uint256","indexed":true,"internalType":"uint256"},{"name":"data","type":"tuple","indexed":false,"internalType":"struct Order.OrderInfo","components":[{"name":"account","type":"address","internalType":"address"},{"name":"symbol","type":"bytes32","internalType":"bytes32"},{"name":"orderSide","type":"uint8","internalType":"enum Order.Side"},{"name":"posSide","type":"uint8","internalType":"enum Order.PositionSide"},{"name":"orderType","type":"uint8","internalType":"enum Order.Type"},{"name":"stopType","type":"uint8","internalType":"enum Order.StopType"},{"name":"isCrossMargin","type":"bool","internalType":"bool"},{"name":"isExecutionFeeFromTradeVault","type":"bool","internalType":"bool"},{"name":"marginToken","type":"address","internalType":"address"},{"name":"qty","type":"uint256","internalType":"uint256"},{"name":"leverage","type":"uint256","internalType":"uint256"},{"name":"orderMargin","type":"uint256","internalType":"uint256"},{"name":"triggerPrice","type":"uint256","internalType":"uint256"},{"name":"acceptablePrice","type":"uint256","internalType":"uint256"},{"name":"placeTime","type":"uint256","internalType":"uint256"},{"name":"executionFee","type":"uint256","internalType":"uint256"},{"name":"lastBlock","type":"uint256","internalType":"uint256"}]},{"name":"reasonCode","type":"bytes32","indexed":false,"internalType":"bytes32"}],"anonymous":false},{"type":"event","name":"ChargeBorrowingFeeEvent","inputs":[{"name":"isCrossMargin","type":"bool","indexed":false,"internalType":"bool"},{"name":"stakeToken","type":"address","indexed":false,"internalType":"address"},{"name":"token","type":"address","indexed":false,"internalType":"address"},{"name":"account","type":"address","indexed":false,"internalType":"address"},{"name":"feeType","type":"bytes32","indexed":false,"internalType":"bytes32"},{"name":"fee","type":"uint256","indexed":false,"internalType":"uint256"}],"anonymous":false},{"type":"event","name":"ChargeTradingFeeEvent","inputs":[{"name":"symbol","type":"bytes32","indexed":false,"internalType":"bytes32"},{"name":"account","type":"address","indexed":false,"internalType":"address"},{"name":"positionKey","type":"bytes32","indexed":false,"internalType":"bytes32"},{"name":"feeType","type":"bytes32","indexed":false,"internalType":"bytes32"},{"name":"feeToken","type":"address","indexed":false,"internalType":"address"},{"name":"feeAmount","type":"uint256","indexed":false,"internalType":"uint256"}],"anonymous":false},{"type":"event","name":"FundsUpdateEvent","inputs":[{"name":"stakeToken","type":"address","indexed":false,"internalType":"address"},{"name":"token","type":"address","indexed":false,"internalType":"address"},{"name":"preAmount","type":"uint256","indexed":false,"internalType":"uint256"},{"name":"amount","type":"uint256","indexed":false,"internalType":"uint256"}],"anonymous":false},{"type":"event","name":"LossExecutionFeeUpdateEvent","inputs":[{"name":"preAmount","type":"uint256","indexed":false,"internalType":"uint256"},{"name":"amount","type":"uint256","indexed":false,"internalType":"uint256"}],"anonymous":false},{"type":"event","name":"MarketFundingFeeUpdateEvent","inputs":[{"name":"symbol","type":"bytes32","indexed":false,"internalType":"bytes32"},{"name":"fundingFee","type":"tuple","indexed":false,"internalType":"struct Market.FundingFee","components":[{"name":"longFundingFeePerQty","type":"int256","internalType":"int256"},{"name":"shortFundingFeePerQty","type":"int256","internalType":"int256"},{"name":"totalLongFundingFee","type":"int256","internalType":"int256"},{"name":"totalShortFundingFee","type":"int256","internalType":"int256"},{"name":"longFundingFeeRate","type":"int256","internalType":"int256"},{"name":"shortFundingFeeRate","type":"int256","internalType":"int256"},{"name":"lastUpdateTime","type":"uint256","internalType":"uint256"}]}],"anonymous":false},{"type":"event","name":"MarketOIUpdateEvent","inputs":[{"name":"symbol","type":"bytes32","indexed":false,"internalType":"bytes32"},{"name":"isLong","type":"bool","indexed":false,"internalType":"bool"},{"name":"preOpenInterest","type":"uint256","indexed":false,"internalType":"uint256"},{"name":"openInterest","type":"uint256","indexed":false,"internalType":"uint256"}],"anonymous":false},{"type":"event","name":"OrderFilledEvent","inputs":[{"name":"orderId","type":"uint256","indexed":true,"internalType":"uint256"},{"name":"data","type":"tuple","indexed":false,"internalType":"struct Order.OrderInfo","components":[{"name":"account","type":"address","internalType":"address"},{"name":"symbol","type":"bytes32","internalType":"bytes32"},{"name":"orderSide","type":"uint8","internalType":"enum Order.Side"},{"name":"posSide","type":"uint8","internalType":"enum Order.PositionSide"},{"name":"orderType","type":"uint8","internalType":"enum Order.Type"},{"name":"stopType","type":"uint8","internalType":"enum Order.StopType"},{"name":"isCrossMargin","type":"bool","internalType":"bool"},{"name":"isExecutionFeeFromTradeVault","type":"bool","internalType":"bool"},{"name":"marginToken","type":"address","internalType":"address"},{"name":"qty","type":"uint256","internalType":"uint256"},{"name":"leverage","type":"uint256","internalType":"uint256"},{"name":"orderMargin","type":"uint256","internalType":"uint256"},{"name":"triggerPrice","type":"uint256","internalType":"uint256"},{"name":"acceptablePrice","type":"uint256","internalType":"uint256"},{"name":"placeTime","type":"uint256","internalType":"uint256"},{"name":"executionFee","type":"uint256","internalType":"uint256"},{"name":"lastBlock","type":"uint256","internalType":"uint256"}]},{"name":"fillTime","type":"uint256","indexed":false,"internalType":"uint256"},{"name":"fillPrice","type":"uint256","indexed":false,"internalType":"uint256"}],"anonymous":false},{"type":"event","name":"PlaceOrderEvent","inputs":[{"name":"orderId","type":"uint256","indexed":true,"internalType":"uint256"},{"name":"data","type":"tuple","indexed":false,"internalType":"struct Order.OrderInfo","components":[{"name":"account","type":"address","internalType":"address"},{"name":"symbol","type":"bytes32","internalType":"bytes32"},{"name":"orderSide","type":"uint8","internalType":"enum Order.Side"},{"name":"posSide","type":"uint8","internalType":"enum Order.PositionSide"},{"name":"orderType","type":"uint8","internalType":"enum Order.Type"},{"name":"stopType","type":"uint8","internalType":"enum Order.StopType"},{"name":"isCrossMargin","type":"bool","internalType":"bool"},{"name":"isExecutionFeeFromTradeVault","type":"bool","internalType":"bool"},{"name":"marginToken","type":"address","internalType":"address"},{"name":"qty","type":"uint256","internalType":"uint256"},{"name":"leverage","type":"uint256","internalType":"uint256"},{"name":"orderMargin","type":"uint256","internalType":"uint256"},{"name":"triggerPrice","type":"uint256","internalType":"uint256"},{"name":"acceptablePrice","type":"uint256","internalType":"uint256"},{"name":"placeTime","type":"uint256","internalType":"uint256"},{"name":"executionFee","type":"uint256","internalType":"uint256"},{"name":"lastBlock","type":"uint256","internalType":"uint256"}]}],"anonymous":false},{"type":"event","name":"PoolBorrowingFeeUpdateEvent","inputs":[{"name":"stakeToken","type":"address","indexed":false,"internalType":"address"},{"name":"borrowingFee","type":"tuple","indexed":false,"internalType":"struct LpPool.BorrowingFee","components":[{"name":"totalBorrowingFee","type":"uint256","internalType":"uint256"},{"name":"totalRealizedBorrowingFee","type":"uint256","internalType":"uint256"},{"name":"cumulativeBorrowingFeePerToken","type":"uint256","internalType":"uint256"},{"name":"lastUpdateTime","type":"uint256","internalType":"uint256"}]}],"anonymous":false},{"type":"event","name":"PoolTokenUpdateEvent","inputs":[{"name":"stakeToken","type":"address","indexed":false,"internalType":"address"},{"name":"token","type":"address","indexed":false,"internalType":"address"},{"name":"preAmount","type":"uint256","indexed":false,"internalType":"uint256"},{"name":"preLiability","type":"uint256","indexed":false,"internalType":"uint256"},{"name":"preHoldAmount","type":"uint256","indexed":false,"internalType":"uint256"},{"name":"preUnsettledAmount","type":"int256","indexed":false,"internalType":"int256"},{"name":"preLossAmount","type":"uint256","indexed":false,"internalType":"uint256"},{"name":"amount","type":"uint256","indexed":false,"internalType":"uint256"},{"name":"liability","type":"uint256","indexed":false,"internalType":"uint256"},{"name":"holdAmount","type":"uint256","indexed":false,"internalType":"uint256"},{"name":"unsettledAmount","type":"int256","indexed":false,"internalType":"int256"},{"name":"lossAmount","type":"uint256","indexed":false,"internalType":"uint256"},{"name":"updateBlock","type":"uint256","indexed":false,"internalType":"uint256"}],"anonymous":false},{"type":"event","name":"PositionUpdateEvent","inputs":[{"name":"requestId","type":"uint256","indexed":false,"internalType":"uint256"},{"name":"positionKey","type":"bytes32","indexed":false,"internalType":"bytes32"},{"name":"from","type":"uint8","indexed":false,"internalType":"enum Position.PositionUpdateFrom"},{"name":"position","type":"tuple","indexed":false,"internalType":"struct Position.Props","components":[{"name":"key","type":"bytes32","internalType":"bytes32"},{"name":"symbol","type":"bytes32","internalType":"bytes32"},{"name":"isLong","type":"bool","internalType":"bool"},{"name":"isCrossMargin","type":"bool","internalType":"bool"},{"name":"account","type":"address","internalType":"address"},{"name":"marginToken","type":"address","internalType":"address"},{"name":"indexToken","type":"address","internalType":"address"},{"name":"qty","type":"uint256","internalType":"uint256"},{"name":"entryPrice","type":"uint256","internalType":"uint256"},{"name":"leverage","type":"uint256","internalType":"uint256"},{"name":"initialMargin","type":"uint256","internalType":"uint256"},{"name":"initialMarginInUsd","type":"uint256","internalType":"uint256"},{"name":"initialMarginInUsdFromBalance","type":"uint256","internalType":"uint256"},{"name":"holdPoolAmount","type":"uint256","internalType":"uint256"},{"name":"positionFee","type":"tuple","internalType":"struct Position.PositionFee","components":[{"name":"closeFeeInUsd","type":"uint256","internalType":"uint256"},{"name":"openBorrowingFeePerToken","type":"uint256","internalType":"uint256"},{"name":"realizedBorrowingFee","type":"uint256","internalType":"uint256"},{"name":"realizedBorrowingFeeInUsd","type":"uint256","internalType":"uint256"},{"name":"openFundingFeePerQty","type":"int256","internalType":"int256"},{"name":"realizedFundingFee","type":"int256","internalType":"int256"},{"name":"realizedFundingFeeInUsd","type":"int256","internalType":"int256"}]},{"name":"realizedPnl","type":"int256","internalType":"int256"},{"name":"lastUpdateTime","type":"uint256","internalType":"uint256"}]},{"name":"settleData","type":"tuple","indexed":false,"internalType":"struct Position.SettleData","components":[{"name":"executePrice","type":"uint256","internalType":"uint256"},{"name":"openFee","type":"uint256","internalType":"uint256"},{"name":"marginTokenPrice","type":"uint256","internalType":"uint256"},{"name":"settledMargin","type":"int256","internalType":"int256"},{"name":"settledBorrowingFee","type":"uint256","internalType":"uint256"},{"name":"settledBorrowingFeeInUsd","type":"uint256","internalType":"uint256"},{"name":"settledFundingFee","type":"int256","internalType":"int256"},{"name":"settledFundingFeeInUsd","type":"int256","internalType":"int256"},{"name":"unHoldPoolAmount","type":"uint256","internalType":"uint256"},{"name":"closeFee","type":"uint256","internalType":"uint256"},{"name":"closeFeeInUsd","type":"uint256","internalType":"uint256"},{"name":"realizedPnl","type":"int256","internalType":"int256"},{"name":"poolPnlToken","type":"int256","internalType":"int256"}]}],"anonymous":false},{"type":"event","name":"UsdPoolBorrowingFeeUpdateEvent","inputs":[{"name":"borrowingFee","type":"tuple","indexed":false,"internalType":"struct UsdPool.BorrowingFee","components":[{"name":"totalBorrowingFee","type":"uint256","internalType":"uint256"},{"name":"totalRealizedBorrowingFee","type":"uint256","internalType":"uint256"},{"name":"cumulativeBorrowingFeePerToken","type":"uint256","internalType":"uint256"},{"name":"lastUpdateTime","type":"uint256","internalType":"uint256"}]}],"anonymous":false},{"type":"event","name":"UsdPoolTokenUpdateEvent","inputs":[{"name":"token","type":"address","indexed":false,"internalType":"address"},{"name":"preAmount","type":"uint256","indexed":false,"internalType":"uint256"},{"name":"preHoldAmount","type":"uint256","indexed":false,"internalType":"uint256"},{"name":"preUnsettledAmount","type":"uint256","indexed":false,"internalType":"uint256"},{"name":"amount","type":"uint256","indexed":false,"internalType":"uint256"},{"name":"holdAmount","type":"uint256","indexed":false,"internalType":"uint256"},{"name":"unsettledAmount","type":"uint256","indexed":false,"internalType":"uint256"},{"name":"updateBlock","type":"uint256","indexed":false,"internalType":"uint256"}],"anonymous":false},{"type":"error","name":"AccountNotExist","inputs":[]},{"type":"error","name":"BalanceNotEnough","inputs":[{"name":"account","type":"address","internalType":"address"},{"name":"token","type":"address","internalType":"address"}]},{"type":"error","name":"DecreaseOrderSideInvalid","inputs":[]},{"type":"error","name":"ExecutionFeeNotEnough","inputs":[]},{"type":"error","name":"ExecutionPriceInvalid","inputs":[]},{"type":"error","name":"InvalidRoleAccess","inputs":[{"name":"account","type":"address","internalType":"address"},{"name":"role","type":"bytes32","internalType":"bytes32"}]},{"type":"error","name":"LeverageInvalid","inputs":[{"name":"symbol","type":"bytes32","internalType":"bytes32"},{"name":"leverage","type":"uint256","internalType":"uint256"}]},{"type":"error","name":"MarginModeError","inputs":[]},{"type":"error","name":"MaxOILimited","inputs":[{"name":"symbol","type":"bytes32","internalType":"bytes32"},{"name":"isLong","type":"bool","internalType":"bool"}]},{"type":"error","name":"OIRatioLimited","inputs":[]},{"type":"error","name":"OnlyDecreaseOrderSupported","inputs":[]},{"type":"error","name":"OnlyOneShortPositionSupport","inputs":[{"name":"symbol","type":"bytes32","internalType":"bytes32"}]},{"type":"error","name":"OrderMarginTooSmall","inputs":[]},{"type":"error","name":"OrderNotExists","inputs":[{"name":"orderId","type":"uint256","internalType":"uint256"}]},{"type":"error","name":"PlaceOrderWithParamsError","inputs":[]},{"type":"error","name":"PoolAmountNotEnough","inputs":[{"name":"stakeToken","type":"address","internalType":"address"},{"name":"token","type":"address","internalType":"address"}]},{"type":"error","name":"PositionNotExists","inputs":[]},{"type":"error","name":"PositionShouldBeLiquidation","inputs":[]},{"type":"error","name":"PriceIsZero","inputs":[]},{"type":"error","name":"SymbolStatusInvalid","inputs":[{"name":"symbol","type":"bytes32","internalType":"bytes32"}]},{"type":"error","name":"TokenInvalid","inputs":[{"name":"symbol","type":"bytes32","internalType":"bytes32"},{"name":"token","type":"address","internalType":"address"}]},{"type":"error","name":"TokenTransferError","inputs":[{"name":"token","type":"address","internalType":"address"},{"name":"receiver","type":"address","internalType":"address"},{"name":"amount","type":"uint256","internalType":"uint256"}]},{"type":"error","name":"TransferErrorWithVaultBalanceNotEnough","inputs":[{"name":"vault","type":"address","internalType":"address"},{"name":"token","type":"address","internalType":"address"},{"name":"receiver","type":"address","internalType":"address"},{"name":"amount","type":"uint256","internalType":"uint256"}]},{"type":"error","name":"UpdateLeverageError","inputs":[{"name":"account","type":"address","internalType":"address"},{"name":"symbol","type":"bytes32","internalType":"bytes32"},{"name":"isLong","type":"bool","internalType":"bool"},{"name":"existsLeverage","type":"uint256","internalType":"uint256"},{"name":"newLeverage","type":"uint256","internalType":"uint256"}]}],"bytecode":{"object":"0x6080604052348015600f57600080fd5b50600160005561da2b806100246000396000f3fe60806040526004361061004e5760003560e01c806322dabfa51461005a5780634b05360a1461007c57806389e74c0a146100a257806395083527146100c2578063b68fb020146100ef57600080fd5b3661005557005b600080fd5b34801561006657600080fd5b5061007a61007536600461cbe2565b61010f565b005b61008f61008a36600461cc61565b610475565b6040519081526020015b60405180910390f35b6100b56100b036600461cc74565b6105de565b604051610099919061ccea565b3480156100ce57600080fd5b506100e26100dd36600461cd4e565b6108b5565b604051610099919061ce9d565b3480156100fb57600080fd5b5061007a61010a36600461ceeb565b610b84565b60005a90506101266525a2a2a822a960d11b610fc3565b600061013185610ff6565b604080516102208101825282546001600160a01b031681526001830154602082015260028084015491939284019160ff16908111156101725761017261cd6b565b60028111156101835761018361cd6b565b81526020016002820160019054906101000a900460ff1660028111156101ab576101ab61cd6b565b60028111156101bc576101bc61cd6b565b81526020016002820160029054906101000a900460ff1660038111156101e4576101e461cd6b565b60038111156101f5576101f561cd6b565b81526020016002820160039054906101000a900460ff16600281111561021d5761021d61cd6b565b600281111561022e5761022e61cd6b565b8152600282015460ff600160201b8204811615156020840152600160281b820416151560408301526001600160a01b03600160301b9091048116606083015260038301546080830152600483015460a0830152600583015460c0830152600683015460e0830152600783015461010083015260088301546101208301526009830154610140830152600a90920154610160909101528151919250166102ee57604051636f23541360e01b8152600481018690526024015b60405180910390fd5b6103498484808060200260200160405190810160405280939291908181526020016000905b8282101561033f576103306080830286013681900381019061cf5b565b81526020019060010190610313565b5050505050611012565b6103538582611192565b61035b611316565b61046e6040518060a001604052808360e001516103d957306001600160a01b0316631f7592ea6040518163ffffffff1660e01b8152600401602060405180830381865afa1580156103b0573d6000803e3d6000fd5b505050506040513d601f19601f820116820180604052508101906103d4919061cfde565b61043b565b306001600160a01b03166397e7b7f26040518163ffffffff1660e01b8152600401602060405180830381865afa158015610417573d6000803e3d6000fd5b505050506040513d601f19601f8201168201806040525081019061043b919061cfde565b6001600160a01b0390811682526101e0850151602083015260408201869052336060830152845116608090910152611328565b5050505050565b600061047f6113d1565b33600161049260a085016080860161d013565b60028111156104a3576104a361cd6b565b1480156104bd57506104bb604084016020850161d049565b155b156105a4576104d2606084016040850161d049565b15806104e2575082610120013534145b6105395760405162461bcd60e51b815260206004820152602260248201527f4465706f736974206e617469766520746f6b656e20616d6f756e74206572726f604482015261722160f01b60648201526084016102e5565b6105a26040518060a00160405280836001600160a01b031681526020018560e0016020810190610569919061cd4e565b6001600160a01b03168152610120860135602082015260400160018152602001610599606087016040880161d049565b1515905261142a565b505b60006105af826116cd565b90506105cb816105c43687900387018761d075565b600161170a565b925050506105d96001600055565b919050565b60606105e86113d1565b3360006105f4826116cd565b9050600080610601611a64565b90506000878760008181106106185761061861d161565b90506101e002016020016020810190610631919061d049565b90508667ffffffffffffffff81111561064c5761064c61cf0d565b604051908082528060200260200182016040528015610675578160200160208202803683370190505b50955060005b878110156107dd5760018989838181106106975761069761d161565b90506101e0020160800160208101906106b0919061d013565b60028111156106c1576106c161cd6b565b036106df57604051630af64c0b60e01b815260040160405180910390fd5b8888828181106106f1576106f161d161565b90506101e00201602001602081019061070a919061d049565b15158215151461072d57604051632a61948760e01b815260040160405180910390fd5b6107588989838181106107425761074261d161565b90506101e002016101a001358460800151611e74565b61078c858a8a8481811061076e5761076e61d161565b90506101e00201803603810190610785919061d075565b600061170a565b87828151811061079e5761079e61d161565b6020026020010181815250508888828181106107bc576107bc61d161565b90506101e002016101a00135846107d3919061d18d565b935060010161067b565b508234146108415760405162461bcd60e51b815260206004820152602b60248201527f426174636820706c616365206f72646572207769746820657865637574696f6e60448201526a20666565206572726f722160a81b60648201526084016102e5565b6040805160a08101825285546001600160a01b039081168252845116602082015290810184905261089f90606081018361087c57600161087f565b60005b60038111156108905761089061cd6b565b8152600160209091015261142a565b5050505050506108af6001600055565b92915050565b606060006108c283611ea2565b90506108d781546001600160a01b0316151590565b15610b7e5760006108e782611f18565b9050805167ffffffffffffffff8111156109035761090361cf0d565b60405190808252806020026020018201604052801561093c57816020015b61092961c817565b8152602001906001900390816109215790505b5092506000610949611f26565b905060005b8251811015610b7a578281815181106109695761096961d161565b60200260200101518582815181106109835761098361d161565b602002602001015160000181815250506109bf8382815181106109a8576109a861d161565b602002602001015183611f8190919063ffffffff16565b604080516102208101825282546001600160a01b031681526001830154602082015260028084015491939284019160ff1690811115610a0057610a0061cd6b565b6002811115610a1157610a1161cd6b565b81526020016002820160019054906101000a900460ff166002811115610a3957610a3961cd6b565b6002811115610a4a57610a4a61cd6b565b81526020016002820160029054906101000a900460ff166003811115610a7257610a7261cd6b565b6003811115610a8357610a8361cd6b565b81526020016002820160039054906101000a900460ff166002811115610aab57610aab61cd6b565b6002811115610abc57610abc61cd6b565b8152600282015460ff600160201b8204811615156020840152600160281b820416151560408301526001600160a01b03600160301b90910416606082015260038201546080820152600482015460a0820152600582015460c0820152600682015460e0820152600782015461010082015260088201546101208201526009820154610140820152600a90910154610160909101528551869083908110610b6457610b6461d161565b602090810291909101810151015260010161094e565b5050505b50919050565b60005a90506000610b9484610ff6565b604080516102208101825282546001600160a01b031681526001830154602082015260028084015491939284019160ff1690811115610bd557610bd561cd6b565b6002811115610be657610be661cd6b565b81526020016002820160019054906101000a900460ff166002811115610c0e57610c0e61cd6b565b6002811115610c1f57610c1f61cd6b565b81526020016002820160029054906101000a900460ff166003811115610c4757610c4761cd6b565b6003811115610c5857610c5861cd6b565b81526020016002820160039054906101000a900460ff166002811115610c8057610c8061cd6b565b6002811115610c9157610c9161cd6b565b8152600282015460ff600160201b8204811615156020840152600160281b820416151560408301526001600160a01b03600160301b9091048116606083015260038301546080830152600483015460a0830152600583015460c0830152600683015460e0830152600783015461010083015260088301546101208301526009830154610140830152600a9092015461016090910152815191925016610d4c57604051636f23541360e01b8152600481018590526024016102e5565b6000610d606525a2a2a822a960d11b611f93565b905080158015610d7a575081516001600160a01b03163314155b15610d9b57604051636f23541360e01b8152600481018690526024016102e5565b610da6858386611f9f565b8015610ec457610ebf6040518060a001604052808460e00151610e2a57306001600160a01b0316631f7592ea6040518163ffffffff1660e01b8152600401602060405180830381865afa158015610e01573d6000803e3d6000fd5b505050506040513d601f19601f82011682018060405250810190610e25919061cfde565b610e8c565b306001600160a01b03166397e7b7f26040518163ffffffff1660e01b8152600401602060405180830381865afa158015610e68573d6000803e3d6000fd5b505050506040513d601f19601f82011682018060405250810190610e8c919061cfde565b6001600160a01b0390811682526101e0860151602083015260408201879052336060830152855116608090910152611328565b61046e565b610faf8260e00151610f3757306001600160a01b0316631f7592ea6040518163ffffffff1660e01b8152600401602060405180830381865afa158015610f0e573d6000803e3d6000fd5b505050506040513d601f19601f82011682018060405250810190610f32919061cfde565b610f99565b306001600160a01b03166397e7b7f26040518163ffffffff1660e01b8152600401602060405180830381865afa158015610f75573d6000803e3d6000fd5b505050506040513d601f19601f82011682018060405250810190610f99919061cfde565b610fa1611a64565b516101e085015130906120ea565b5061046e8260000151836101e00151612103565b610fcd3382612175565b610ff357604051632d7d0e0d60e21b8152336004820152602481018290526044016102e5565b50565b600080611001611f26565b600093845260205250506040902090565b600061101c6121a5565b905060005b825181101561118d5760006001600160a01b03168382815181106110475761104761d161565b6020026020010151602001516001600160a01b0316036110e6576110e18382815181106110765761107661d161565b602002602001015160000151604051806040016040528086858151811061109f5761109f61d161565b60200260200101516040015181526020018685815181106110c2576110c261d161565b602002602001015160600151815250846121e99092919063ffffffff16565b611185565b6111858382815181106110fb576110fb61d161565b6020026020010151600001518483815181106111195761111961d161565b60200260200101516020015160405180604001604052808786815181106111425761114261d161565b60200260200101516040015181526020018786815181106111655761116561d161565b60200260200101516060015181525085612231909392919063ffffffff16565b600101611021565b505050565b60006111a182602001516122ae565b6040805160c08101909152815481526001820154909190602083019060ff1660038111156111d1576111d161cd6b565b60038111156111e2576111e261cd6b565b815260018201546001600160a01b0361010090910481166020830152600283015481166040830152600383015416606082015260048201805460809092019161122a9061d1a0565b80601f01602080910402602001604051908101604052809291908181526020018280546112569061d1a0565b80156112a35780601f10611278576101008083540402835291602001916112a3565b820191906000526020600020905b81548152906001019060200180831161128657829003601f168201915b50505050508152505090506112b882826122f9565b816060015160028111156112ce576112ce61cd6b565b6001036112e5576112e08383836124b4565b61130d565b816060015160028111156112fb576112fb61cd6b565b60020361130d5761130d8383836129ba565b61118d83612b43565b6113266113216121a5565b612bb8565b565b60005a826040015161133a919061d1d4565b905060006113483a8361d1e7565b90506000808460200151831115611371576020850151925061136a838061d1d4565b9050611384565b828560200151611381919061d1d4565b91505b845161139f90611392611a64565b51602088015130906120ea565b506113ae856060015184612103565b81156113c2576113c2856080015183612103565b801561046e5761046e81612caf565b6002600054036114235760405162461bcd60e51b815260206004820152601f60248201527f5265656e7472616e637947756172643a207265656e7472616e742063616c6c0060448201526064016102e5565b6002600055565b6000803090506000836060015160038111156114485761144861cd6b565b15806114695750836060015160038111156114655761146561cd6b565b6003145b156114d757816001600160a01b0316631f7592ea6040518163ffffffff1660e01b8152600401602060405180830381865afa1580156114ac573d6000803e3d6000fd5b505050506040513d601f19601f820116820180604052508101906114d0919061cfde565b90506115b4565b836060015160038111156114ed576114ed61cd6b565b60010361153257816001600160a01b03166397e7b7f26040518163ffffffff1660e01b8152600401602060405180830381865afa1580156114ac573d6000803e3d6000fd5b836060015160038111156115485761154861cd6b565b6002036115b457816001600160a01b03166308ba026f6040518163ffffffff1660e01b8152600401602060405180830381865afa15801561158d573d6000803e3d6000fd5b505050506040513d601f19601f820116820180604052508101906115b1919061cfde565b90505b60208401516080850151156116a85760006115cd611a64565b60000151905085602001516001600160a01b0316816001600160a01b0316146116385760405162461bcd60e51b815260206004820152601960248201527f4465706f736974207769746820746f6b656e206572726f72210000000000000060448201526064016102e5565b806001600160a01b031663d0e30db087604001516040518263ffffffff1660e01b81526004016000604051808303818588803b15801561167757600080fd5b505af115801561168b573d6000803e3d6000fd5b50505050508091506116a282848860400151612d28565b506116c5565b845160408601516116c5916001600160a01b038416918590612d86565b949350505050565b6000806116d983611ea2565b80549091506001600160a01b03166108af5780546001600160a01b0319166001600160a01b03841617815592915050565b600061171583612de0565b60018360800151600281111561172d5761172d61cd6b565b14801561174f575060028360600151600281111561174d5761174d61cd6b565b145b801561179c57508354835160e08501516020860151611779936001600160a01b031692919061313c565b8061179c575061179c61178b85611f18565b845160e086015160208701516131df565b156117c0578251604051635741f0f360e11b815260048101919091526024016102e5565b600080836117d9578461012001518560200151156117e3565b6117e386866132d7565b9150915060006118127f79e09cdc552bc78c88e5ab90ccaf8e7890a579e25dab448d63f13eb7484e65b4613460565b9050600061181f82610ff6565b885481546001600160a01b0319166001600160a01b0390911617815587516001808301919091556060890151600280840180549495509193919260ff19909216919084908111156118725761187261cd6b565b021790555086608001518160020160016101000a81548160ff021916908360028111156118a1576118a161cd6b565b021790555060a087015160028201805462ff00001916620100008360038111156118cd576118cd61cd6b565b021790555060e0870151600280830180546001600160a01b03909316600160301b026601000000000000600160d01b0319841681178255600585018890556101008b015160038601556101608b015160068601556101808b0151600786015560c08b015193919263ff0000001990911665ffff01000000600160d01b03199092169190911790630100000090849081111561196a5761196a61cd6b565b0217905550602087015160028201805465ffff000000001916600160201b9215159290920265ff0000000000191691909117600160281b851515021790556101a0870151600982015561014087015160048201556101c087015160088201556119d16134c0565b600a820155608087015160028111156119ec576119ec61cd6b565b6001148015611a0657506002810154600160201b900460ff165b15611a1557611a158885613546565b611a1f88836135b5565b817fc61695483179d2285a7b30354e7a5c972bae45021aa266a8e7939b30c770534d82604051611a4f919061d1fe565b60405180910390a250925050505b9392505050565b611abc60405180610120016040528060006001600160a01b0316815260200160008152602001600081526020016000815260200160008152602001600081526020016000815260200160008152602001600081525090565b600080604051602001611aef906020808252600c908201526b434841494e5f434f4e46494760a01b604082015260600190565b604051602081830303815290604052805190602001209050611b9181604051602001611b3c906020808252600d908201526c2ba920a82822a92faa27a5a2a760991b604082015260600190565b60405160208183030381529060405280519060200120604051602001611b6c929190918252602082015260400190565b60405160208183030381529060405280519060200120836135d390919063ffffffff16565b6001600160a01b03168352604051611c2d908290611bd8906020016020808252601290820152711352539517d1d054d7d1915157d31253525560721b604082015260600190565b60405160208183030381529060405280519060200120604051602001611c08929190918252602082015260400190565b60405160208183030381529060405280519060200120836135f290919063ffffffff16565b836020018181525050611c7281604051602001611bd89060208082526014908201527314915111515357d1d054d7d1915157d31253525560621b604082015260600190565b836040018181525050611ccb81604051602001611bd89060208082526022908201527f504c4143455f494e4352454153455f4f524445525f4741535f4645455f4c494d604082015261125560f21b606082015260800190565b6060840152604051611d22908290611bd89060200160208082526022908201527f504c4143455f44454352454153455f4f524445525f4741535f4645455f4c494d604082015261125560f21b606082015260800190565b6080840152604051611d7b908290611bd89060200160208082526024908201527f504f534954494f4e5f5550444154455f4d415247494e5f4741535f4645455f4c6040820152631253525560e21b606082015260800190565b60a0840152604051611dd6908290611bd89060200160208082526026908201527f504f534954494f4e5f5550444154455f4c455645524147455f4741535f46454560408201526517d31253525560d21b606082015260800190565b60c0840152604051611e1b908290611bd89060200160208082526016908201527515d2551211149055d7d1d054d7d1915157d31253525560521b604082015260600190565b60e0840152604051611e67908290611bd8906020016020808252601b908201527f434c41494d5f524557415244535f4741535f4645455f4c494d49540000000000604082015260600190565b6101008401525090919050565b611e7e3a8261d1e7565b821015611e9e576040516369343e3760e11b815260040160405180910390fd5b5050565b60008082604051602001611ef9919060408082526018908201527f78797a2e656c66692e73746f726167652e4163636f756e74000000000000000060608201526001600160a01b0391909116602082015260800190565b60408051601f1981840301815291905280516020909101209392505050565b60606108af82600701613605565b600080604051602001611f63906020808252601690820152753c3cbd1732b633349739ba37b930b3b29727b93232b960511b604082015260600190565b60408051601f19818403018152919052805160209091012092915050565b60009081526020919091526040902090565b60006108af3383612175565b6000611fae8360000151611ea2565b9050611fba8185613612565b611fc384612b43565b82606001516002811115611fd957611fd961cd6b565b6001148015611fe957508260c001515b1561200457610160830151611fff90829061361f565b6120aa565b8260600151600281111561201a5761201a61cd6b565b600114801561202b57508260c00151155b156120aa576120a8306001600160a01b03166397e7b7f26040518163ffffffff1660e01b8152600401602060405180830381865afa158015612071573d6000803e3d6000fd5b505050506040513d601f19601f82011682018060405250810190612095919061cfde565b61010085015185516101608701516120ea565b505b837fa2bce5ff82d63e38ec31c6270a397e7cae4d5ed319bd73e318d4916d4ff6866884846040516120dc92919061d2fc565b60405180910390a250505050565b60006120fa858585856000613699565b95945050505050565b600061210d611a64565b51604051632e1a7d4d60e01b8152600481018490529091506001600160a01b03821690632e1a7d4d90602401600060405180830381600087803b15801561215357600080fd5b505af1158015612167573d6000803e3d6000fd5b5050505061118d83836137d6565b600080612180613879565b6001600160a01b03851660009081526020829052604090209091506116c590846138bd565b600080604051602001611f63906020808252601c908201527f78797a2e656c66692e73746f726167652e4f7261636c65507269636500000000604082015260600190565b6121f383836138d5565b6122035761220183836138f7565b505b6001600160a01b03909116600090815260029092016020908152604090922081518155910151600190910155565b604080516001600160a01b03858116602080840191909152908516828401528251808303840181526060909201909252805191012061227360048601826138bd565b61228657612284600486018261390c565b505b6000908152600690940160209081526040909420815181559301516001909301929092555050565b6040805160208101829052601760608201527f78797a2e656c66692e73746f726167652e53796d626f6c0000000000000000006080820152908101829052600090819060a001611ef9565b60006123088260000151613918565b90506000836060015160028111156123225761232261cd6b565b600114905060008460400151600281111561233f5761233f61cd6b565b60011490506123518560800151613bed565b801561235a5750815b801561237a5750836020015160038111156123775761237761cd6b565b15155b156123a05784602001516040516303035c6f60e61b81526004016102e591815260200190565b811561245d578080156123ce575083608001516001600160a01b03168561010001516001600160a01b031614155b1561240957602085015161010086015160405163a301bf4360e01b815260048101929092526001600160a01b031660248201526044016102e5565b801580156124225750612420856101000151613c42565b155b1561245d57602085015161010086015160405163a301bf4360e01b815260048101929092526001600160a01b031660248201526044016102e5565b82516101408601511180612482575061247a620186a0600161d1e7565b856101400151105b1561046e576020850151610140860151604051635c93c83760e01b8152600481019290925260248201526044016102e5565b6001826060015160028111156124cc576124cc61cd6b565b1480156124ee57506002826040015160028111156124ec576124ec61cd6b565b145b80156125125750612512826000015183602001518461010001518560c0015161313c565b15612538578160200151604051635741f0f360e11b81526004016102e591815260200190565b60006125478360000151611ea2565b905061258d6040518060c0016040528060008152602001600081526020016000815260200160006001600160a01b03168152602001600081526020016000151581525090565b836040015160028111156125a3576125a361cd6b565b60011460a082015282516125b690613c59565b6125ce83604001518260a00151866101000151613d3b565b6125dc848460600151613e14565b815261010084015160608401516001600160a01b039182169116036126075780516080820152612621565b61261b8461010001518260a001511561405f565b60808201525b61263084838360800151614084565b6040830152602082015260c08401516126bf576126bd306001600160a01b03166397e7b7f26040518163ffffffff1660e01b8152600401602060405180830381865afa158015612684573d6000803e3d6000fd5b505050506040513d601f19601f820116820180604052508101906126a8919061cfde565b856101000151856040015184602001516120ea565b505b60006126de856000015185600001518761010001518860c001516141d9565b90508060050154600003612870576126f683876141ed565b801561272057506101408501518451604087015160c088015161271d928792909185614248565b14155b156127a557845184516040870151600281111561273f5761273f61cd6b565b6001146127608688600001518a604001518b60c001518c6101400151614248565b61014089015160405163376842d360e11b81526001600160a01b039095166004860152602485019390935290151560448401526064830152608482015260a4016102e5565b60006127c4866000015186600001518861010001518960c001516144cd565b808355865160028401805460608901516004870180546001600160a01b03199081166001600160a01b03938416179091558a516001890155610100808d015160038a018054909316908416179091556101408c0151600789015560a089015160c08d015161ff01600160b01b031990941662010000939096169290920260ff1916949094179015151761ff001916901515909202919091179055905061286a848261454f565b506128e5565b8461014001518160070154146128e557845184516040870151600281111561289a5761289a61cd6b565b600160078501546101408a015160405163376842d360e11b81526001600160a01b0390961660048701526024860194909452911460448401526064830152608482015260a4016102e5565b612968846040518061012001604052808981526020018861010001516001600160a01b031681526020018560200151815260200185604001518152602001856080015181526020018560000151815260200188610140015181526020018560a00151151581526020018860c0015115158152508361456d9092919063ffffffff16565b6129728387613612565b857fef10673dbd364fccce6e85c35092a05d565adefbd902bef60aea760452983e9b864285600001516040516129aa9392919061d319565b60405180910390a2505050505050565b8151604083015160009060028111156129d5576129d561cd6b565b600114905060006129f58386602001518761010001518860c001516141d9565b9050612a0081614b56565b600281015482151560ff909116151503612a2d57604051630e8d180360e11b815260040160405180910390fd5b84610120015181600501541015612a4a5760058101546101208601525b8351612a5590613c59565b60408401516002820154610100870151612a73929160ff1690613d3b565b6000612a83868660600151613e14565b9050612ae76040518060e00160405280898152602001886020015181526020016000151581526020016000151581526020018861010001516001600160a01b0316815260200188610120015181526020018381525083614b7b90919063ffffffff16565b612afe87612af88860000151611ea2565b90613612565b867fef10673dbd364fccce6e85c35092a05d565adefbd902bef60aea760452983e9b874284604051612b329392919061d319565b60405180910390a250505050505050565b6000612b4d611f26565b6000928352602052506040812080546001600160a01b0319168155600181018290556002810180546001600160d01b031916905560038101829055600481018290556005810182905560068101829055600781018290556008810182905560098101829055600a0155565b6000612bc382613605565b905060005b815181101561118d57826002016000838381518110612be957612be961d161565b60200260200101516001600160a01b03166001600160a01b0316815260200190815260200160002060008082016000905560018201600090555050826003016000838381518110612c3c57612c3c61d161565b60200260200101516001600160a01b03166001600160a01b0316815260200190815260200160002060008082016000905560018201600090555050612ca6828281518110612c8c57612c8c61d161565b60200260200101518460000161553190919063ffffffff16565b50600101612bc8565b6000612cb9615546565b905081816007016000828254612ccf919061d18d565b909155505060078101547f5425704060c90c62f0083d9ff73df530b982ea5c64c0dab3c7d5da4761a4511990612d0690849061d1d4565b6007830154604080519283526020830191909152015b60405180910390a15050565b80600003612d3557505050565b6000612d4684848462030d4061558a565b905080612d805760405163012f3b8f60e71b81526001600160a01b03808616600483015284166024820152604481018390526064016102e5565b50505050565b604080516001600160a01b0385811660248301528416604482015260648082018490528251808303909101815260849091019091526020810180516001600160e01b03166323b872dd60e01b179052612d80908590615684565b8060a001516003811115612df657612df661cd6b565b600114158015612e1c57508060a001516003811115612e1757612e1761cd6b565b600214155b8015612e3e57508060a001516003811115612e3957612e3961cd6b565b600314155b15612e5c5760405163e1fb318b60e01b815260040160405180910390fd5b80608001516002811115612e7257612e7261cd6b565b6002148015612e845750610100810151155b15612ea25760405163e1fb318b60e01b815260040160405180910390fd5b80606001516002811115612eb857612eb861cd6b565b600003612ed85760405163e1fb318b60e01b815260040160405180910390fd5b8060a001516003811115612eee57612eee61cd6b565b6002148015612f005750610160810151155b15612f1e5760405163e1fb318b60e01b815260040160405180910390fd5b8060a001516003811115612f3457612f3461cd6b565b6002148015612f58575080608001516002811115612f5457612f5461cd6b565b6002145b15612f765760405163e1fb318b60e01b815260040160405180910390fd5b8060a001516003811115612f8c57612f8c61cd6b565b6003148015612fbb57508060c001516002811115612fac57612fac61cd6b565b1580612fbb5750610160810151155b15612fd95760405163e1fb318b60e01b815260040160405180910390fd5b80608001516002811115612fef57612fef61cd6b565b600103610ff35780610120015160000361301c5760405163e1fb318b60e01b815260040160405180910390fd5b600061302b82600001516122ae565b905061303681615759565b6130595781516040516303035c6f60e61b815260048101919091526024016102e5565b8160600151600281111561306f5761306f61cd6b565b60011480156130935750600381015460e08301516001600160a01b03908116911614155b156130b15760405163e1fb318b60e01b815260040160405180910390fd5b816060015160028111156130c7576130c761cd6b565b60021480156130e057506130de8260e00151613c42565b155b156130fe5760405163e1fb318b60e01b815260040160405180910390fd5b8160200151801561311e5750613112615775565b60400151826101200151105b15611e9e5760405163e1fb318b60e01b815260040160405180910390fd5b600080613147615db0565b905060005b81518110156131d257846001600160a01b03168282815181106131715761317161d161565b60200260200101516001600160a01b031603156131ca5760006131af88888585815181106131a1576131a161d161565b6020026020010151886141d9565b6005810154909150156131c857600193505050506116c5565b505b60010161314c565b5060009695505050505050565b6000806131ea611f26565b905060005b86518110156131d25760008260000160008984815181106132125761321261d161565b602002602001015181526020019081526020016000209050868160010154148015613254575060028101546001600160a01b03878116600160301b9092041614155b80156132725750600281015460ff600160201b909104161515851515145b801561329b57506001600282810154610100900460ff16908111156132995761329961cd6b565b145b80156132bd575060028181015460ff16818111156132bb576132bb61cd6b565b145b156132ce57600193505050506116c5565b506001016131ef565b60008060006132e4611a64565b90506000846080015160028111156132fe576132fe61cd6b565b60011461330f578160800151613315565b81606001515b9050613326856101a0015182611e74565b8460400151801561334c575060018560800151600281111561334a5761334a61cd6b565b145b801561335a57508460200151155b80156133705750846101a0015185610120015110155b1561339857846101a0015185610120015161338b919061d1d4565b6001935093505050613459565b846101a0015134146133fa5760405162461bcd60e51b815260206004820152602560248201527f706c616365206f72646572207769746820657865637574696f6e20666565206560448201526472726f722160d81b60648201526084016102e5565b6040805160a08101825287546001600160a01b0390811682528451166020808301919091526101a088015192820192909252908601516134459190606082019061087c57600161087f565b508461012001518560200151159350935050505b9250929050565b60008061346b615dcd565b60008481526020829052604090205490915061045781101561349b57613494610457600161d18d565b90506134a9565b806134a58161d33b565b9150505b600093845260209190915260409092208290555090565b600061a4b14614806134d4575062066eee46145b156135415760646001600160a01b031663a3b1b31d6040518163ffffffff1660e01b8152600401602060405180830381865afa158015613518573d6000803e3d6000fd5b505050506040513d601f19601f8201168201806040525081019061353c919061d354565b905090565b504390565b600182018054908290600061355b838561d18d565b909155505082546001840154604080516001600160a01b039093168352602083018490528201527f2fecad931c93369a4c0c3aac4f460de814ed19416a258e434e0d67940f0a8cbd906060015b60405180910390a1505050565b6135c260078301826138bd565b611e9e5761118d600783018261390c565b600090815260029190910160205260409020546001600160a01b031690565b6000908152602091909152604090205490565b60606000611a5d83615e11565b61118d6007830182615e6d565b80826001015410156136845760405162461bcd60e51b815260206004820152602860248201527f6f72646572486f6c64496e55736420697320736d616c6c6572207468616e20686044820152671bdb19125b955cd960c21b60648201526084016102e5565b600182018054908290600061355b838561d1d4565b6000826000036136ab575060006120fa565b6040516370a0823160e01b81526001600160a01b038781166004830152600091908716906370a0823190602401602060405180830381865afa1580156136f5573d6000803e3d6000fd5b505050506040513d601f19601f82011682018060405250810190613719919061d354565b90508381106137965760405163078d3b7960e01b81526001600160a01b03878116600483015286811660248301526044820186905288169063078d3b7990606401600060405180830381600087803b15801561377457600080fd5b505af1158015613788573d6000803e3d6000fd5b5050505060019150506120fa565b826131d257604051635ac09ed760e11b81526001600160a01b038089166004830152808816602483015286166044820152606481018590526084016102e5565b604080516000808252602082019092526001600160a01b038416908390604051613800919061d391565b60006040518083038185875af1925050503d806000811461383d576040519150601f19603f3d011682016040523d82523d6000602084013e613842565b606091505b505090508061118d5760405162461bcd60e51b815260206004820152600360248201526253544560e81b60448201526064016102e5565b600080604051602001611f63906020808252601e908201527f78797a2e656c66692e73746f726167652e416363657373436f6e74726f6c0000604082015260600190565b60008181526001830160205260408120541515611a5d565b6001600160a01b03811660009081526001830160205260408120541515611a5d565b6000611a5d836001600160a01b038416615e79565b6000611a5d8383615e79565b61392061c8c2565b61392861c8c2565b60008060405160200161395c906020808252600d908201526c53594d424f4c5f434f4e46494760981b604082015260600190565b60408051601f1981840301815291905280516020909101209050613981828287615ec8565b61398e5750909392505050565b6139f881866040516020016139c3906020808252600c908201526b4d41585f4c4556455241474560a01b604082015260600190565b60408051601f198184030181528282528051602091820120908301949094528101919091526060810191909152608001611c08565b8352604051613a2f90829087906139c3906020016020808252600990820152685449434b5f53495a4560b81b604082015260600190565b836020018181525050613a6e81866040516020016139c3906020808252600d908201526c4f50454e5f4645455f5241544560981b604082015260600190565b836040018181525050613aae81866040516020016139c3906020808252600e908201526d434c4f53455f4645455f5241544560901b604082015260600190565b6060840152604051613afc90829087906139c3906020016020808252601a908201527f4d41585f4c4f4e475f4f50454e5f494e5445524553545f434150000000000000604082015260600190565b6080840152604051613b4a90829087906139c3906020016020808252601b908201527f4d41585f53484f52545f4f50454e5f494e5445524553545f4341500000000000604082015260600190565b60a0840152604051613b9190829087906139c3906020016020808252601690820152751313d391d7d4d213d49517d490551253d7d31253525560521b604082015260600190565b60c0840152604051613bdf90829087906139c3906020016020808252601a908201527f4c4f4e475f53484f52545f4f495f424f54544f4d5f4c494d4954000000000000604082015260600190565b60e084015250909392505050565b6000816003811115613c0157613c0161cd6b565b60021480613c205750816003811115613c1c57613c1c61cd6b565b6001145b806108af5750816003811115613c3857613c3861cd6b565b60035b1492915050565b600080613c4d615ee2565b9050611a5d81846138d5565b600080613c6583615f26565b915091506000613c748461613e565b90508215613c8c57425b600d820155612d8081616189565b613cbd6509184e72a000613cb7613ca68560400151616209565b60e0860151613cb790610e10616277565b90616283565b600b8201556040820151613cf2906509184e72a00090613cb790613ce090616209565b610100860151613cb790610e10616277565b600c82015560e0820151600782018054600090613d1090849061d3ad565b9091555050610100820151600882018054600090613d2f90849061d3ad565b90915550429050613c7e565b8115613d9d576000613d4c8461628f565b90506000613d6082601001600301546162e6565b9050613d7581613d6f84616305565b906163a4565b601283018054600090613d8990849061d18d565b909155505042601383015561046e826163b0565b6000613da7615ee2565b6001600160a01b03831660009081526003820160205260408120919250506000613dd482600301546162e6565b9050613de481613d6f85876163f1565b826002016000828254613df7919061d18d565b9091555050426003830155613e0c838561646d565b505050505050565b60008083606001516002811115613e2d57613e2d61cd6b565b600103613e545783604001516002811115613e4a57613e4a61cd6b565b6002149050613e70565b83604001516002811115613e6a57613e6a61cd6b565b60011490505b83608001516003811115613e8657613e8661cd6b565b600103613f0d576000613e99848361405f565b9050818015613ead57506000856101a00151115b8015613ebd5750846101a0015181105b80613ee6575081158015613ed657506000856101a00151115b8015613ee65750846101a0015181115b15613f0457604051637d92407560e11b815260040160405180910390fd5b91506108af9050565b6000613f19848361405f565b9050600085604001516002811115613f3357613f3361cd6b565b600114905085608001516003811115613f4e57613f4e61cd6b565b60021480613f91575085608001516003811115613f6d57613f6d61cd6b565b6003148015613f9157508560a001516002811115613f8d57613f8d61cd6b565b6002145b15613fe957808015613fa857508186610180015110155b80613fc1575080158015613fc157508186610180015111155b15613fd0575091506108af9050565b604051637d92407560e11b815260040160405180910390fd5b85608001516003811115613fff57613fff61cd6b565b600314801561402357508560a00151600281111561401f5761401f61cd6b565b6001145b15613fd05780801561403a57508186610180015111155b80613fc1575080158015613fc157508186610180015110613fd0575091506108af9050565b60008061406b846164b6565b90508261407c5780602001516116c5565b519392505050565b610100830151825460c0850151600092839290916001600160a01b03909116901561417a5760006140b487616549565b12156141395760006140c587616549565b6140d3896101600151616209565b6140dd919061d3ad565b9050600081136141135760405163316ce6db60e01b81526001600160a01b038084166004830152841660248201526044016102e5565b61016088015161412490889061361f565b61412d81616557565b6101608901525061414a565b61016087015161414a90879061361f565b61416287610160015161415c846165a9565b8761660d565b935061417386838660006006616632565b92506141cf565b600061419488610160015161418e856165a9565b886167ee565b905061419e615775565b604001518110156141c2576040516316b2cc2b60e21b815260040160405180910390fd5b5061016087015193508392505b5050935093915050565b60006120fa6141ea868686866144cd565b90565b6000806141fc84600701613605565b905060005b815181101561423d578382828151811061421d5761421d61d161565b602002602001015114614235576001925050506108af565b600101614201565b506000949350505050565b60008061425487611f18565b90506000614260611f26565b905060005b82518110156144c057600061429c8483815181106142855761428561d161565b602002602001015184611f8190919063ffffffff16565b604080516102208101825282546001600160a01b031681526001830154602082015260028084015491939284019160ff16908111156142dd576142dd61cd6b565b60028111156142ee576142ee61cd6b565b81526020016002820160019054906101000a900460ff1660028111156143165761431661cd6b565b60028111156143275761432761cd6b565b81526020016002820160029054906101000a900460ff16600381111561434f5761434f61cd6b565b60038111156143605761436061cd6b565b81526020016002820160039054906101000a900460ff1660028111156143885761438861cd6b565b60028111156143995761439961cd6b565b81526002820154600160201b810460ff9081161515602080850191909152600160281b830490911615156040840152600160301b9091046001600160a01b0316606083015260038301546080830152600483015460a0830152600583015460c0830152600683015460e0830152600783015461010083015260088301546101208301526009830154610140830152600a90920154610160909101528101519091508914801561446d57508760028111156144555761445561cd6b565b8160400151600281111561446b5761446b61cd6b565b145b801561448f575060028160600151600281111561448c5761448c61cd6b565b14155b80156144a257508615158160c001511515145b156144b757610140015193506120fa92505050565b50600101614265565b5092979650505050505050565b6040805160a06020808301829052601960c08401527f78797a2e656c66692e73746f726167652e506f736974696f6e0000000000000060e0808501919091526001600160a01b03988916848601526060840197909752949096166080820152911515948201949094528351808203909301835261010001909252805191012090565b61455c60058301826138bd565b611e9e5761118d600583018261390c565b600061458682604001518360c001518560000151616817565b905061477e8184600001516040516020016145c6906020808252601190820152702322a2afa7a822a72fa827a9a4aa24a7a760791b604082015260600190565b604051602081830303815290604052805190602001208560200151886040518061022001604052908160008201548152602001600182015481526020016002820160009054906101000a900460ff161515151581526020016002820160019054906101000a900460ff161515151581526020016002820160029054906101000a90046001600160a01b03166001600160a01b03166001600160a01b031681526020016003820160009054906101000a90046001600160a01b03166001600160a01b03166001600160a01b031681526020016004820160009054906101000a90046001600160a01b03166001600160a01b03166001600160a01b031681526020016005820154815260200160068201548152602001600782015481526020016008820154815260200160098201548152602001600a8201548152602001600b8201548152602001600c82016040518060e001604052908160008201548152602001600182015481526020016002820154815260200160038201548152602001600482015481526020016005820154815260200160068201548152505081526020016013820154815260200160148201548152505061684b565b816101000151156147d55760028401546000906147a9906201000090046001600160a01b0316611ea2565b60208401519091506147bf908290846009616a3a565b60208301516147d2908290846009616b9e565b50505b60008183604001516147e7919061d1d4565b90506000828460600151116147fd57600061480d565b82846060015161480d919061d1d4565b9050600061481e85602001516165a9565b9050600061483e614833858860c00151616cf6565b8388608001516167ee565b9050600061484f8860000151613918565b9050886005015460000361494b57602087015160038a0180546001600160a01b0319166001600160a01b0390921691909117905560a087015160068a01556008890185905560808701516148a690869085906167ee565b89600901819055506148bd848489608001516167ee565b600a8a015560608101516148d2908390616cf6565b600c8a01556005890182905560c087015160078a01556080870151614903906148fe90889086906167ee565b616209565b61490c9061d3d5565b896013018190555061492b88604001518860e001518960200151616d06565b600d8a0155875160e08801516149419190616d59565b60108a0155614a71565b614959898960400151616d81565b61496289616e81565b61498489600501548a60060154848a60a0015185602001518c60e00151617011565b8960060181905550848960080160008282546149a0919061d18d565b925050819055506149b6858489608001516167ee565b8960090160008282546149c9919061d18d565b925050819055506149df848489608001516167ee565b89600a0160008282546149f2919061d18d565b92505081905550614a07828260600151616cf6565b600c8a018054600090614a1b90849061d18d565b9250508190555081896005016000828254614a36919061d18d565b92505081905550614a4f6148fe87858a608001516167ee565b614a589061d3d5565b896013016000828254614a6b919061d3ad565b90915550505b4260148a01556000614a9f86614a8b620186a0600161d1e7565b8a60c00151614a9a919061d1d4565b616cf6565b9050808a600b016000828254614ab5919061d18d565b92505081905550614b0f6040518060c001604052806001151581526020018b6000015181526020018a602001516001600160a01b031681526020018581526020018a60a0015181526020018a60e001511515815250617057565b604089015160038b015460e08a0151614b3492916001600160a01b0316908490617260565b875160a0890151614b4a918c916001908b617367565b50505050505050505050565b8060050154600003610ff357604051634a32858f60e01b815260040160405180910390fd5b6040805161022081018252835481526001840154602080830191909152600285015460ff80821615158486015261010080830490911615156060808601919091526001600160a01b036201000090930483166080808701919091526003890154841660a08088019190915260048a015490941660c08088019190915260058a015460e08089019190915260068b01549488019490945260078a015461012088015260088a015461014088015260098a0154610160880152600a8a0154610180880152600b8a01546101a088015287519384018852600c8a01548452600d8a015495840195909552600e89015496830196909652600f880154908201526010870154948101949094526011860154908401526012850154838201526101c082019290925260138401546101e0820152601484015461020082015290820151600091614ccf91614cc890616209565b6000617436565b90506000614ce083602001516122ae565b6040805160c08101909152815481526001820154909190602083019060ff166003811115614d1057614d1061cd6b565b6003811115614d2157614d2161cd6b565b815260018201546001600160a01b03610100909104811660208301526002830154811660408301526003830154166060820152600482018054608090920191614d699061d1a0565b80601f0160208091040260200160405190810160405280929190818152602001828054614d959061d1a0565b8015614de25780601f10614db757610100808354040283529160200191614de2565b820191906000526020600020905b815481529060010190602001808311614dc557829003601f168201915b50505050508152505090506000614dfc8460200151613918565b9050614e0c858360400151616d81565b614e1585616e81565b6000614e42868660a0015186614e2e8960c00151616209565b86606001518a604001518b60600151617446565b905060008160a00151128015614e5b5750806102a00151155b8015614e7157506002860154610100900460ff16155b15614e8e57604051627b2f7360e51b815260040160405180910390fd5b6040808401516001600160a01b0390811683529086015115156102a08301526002870154600091614ec59162010000900416611ea2565b905086600501548660a0015103614f8657600287015460018801546003890154614f1892614f11926001600160a01b03620100008304811693919291169060ff610100909104166144cd565b8290617eb8565b60006005880181905560068801819055600788018190556008880181905560098801819055600a8801819055600b8801819055600c880181905560138801819055600d8801819055600e8801819055600f8801819055601088018190556011880181905560128801556150df565b8560a00151876005016000828254614f9e919061d1d4565b909155505060c0820151600888018054600090614fbc90849061d1d4565b9091555050610120820151600988018054600090614fdb90849061d1d4565b9091555050610140820151600a88018054600090614ffa90849061d1d4565b9091555050610200820151600b8801805460009061501990849061d1d4565b909155505061026082015160138801805460009061503890849061d3ad565b9091555050610160820151600e8801805460009061505790849061d1d4565b9091555050610180820151600f8801805460009061507690849061d1d4565b90915550506101a082015160118801805460009061509590849061d3f1565b90915550506101c08201516012880180546000906150b490849061d3f1565b9091555050610240820151600c880180546000906150d390849061d1d4565b90915550504260148801555b6151a28261022001518560000151846102a001516151485760405160200161512d906020808252601290820152712322a2afa1a627a9a2afa827a9a4aa24a7a760711b604082015260600190565b60405160208183030381529060405280519060200120615192565b60405160200161517b906020808252600f908201526e2322a2afa624a8aaa4a220aa24a7a760891b604082015260600190565b604051602081830303815290604052805190602001205b602086015160a08101519061684b565b60028701546101608301516040860151602085015160a001516102a086015161526594610100810460ff1694939291620100009091046001600160a01b03169061523257604051602001615217906020808252600d908201526c4645455f424f52524f57494e4760981b604082015260600190565b60405160208183030381529060405280519060200120617ec5565b604051602001615217906020808252600f908201526e2322a2afa624a8aaa4a220aa24a7a760891b604082015260600190565b816020015160600151156152cc5760006152858760000151838a86618080565b90506152a2836020015160a001518361831190919063ffffffff16565b506152c68560400151846020015160a001518561020001518661028001518561831f565b506152fa565b6152d681836184b8565b6152fa8460400151836020015160a00151846102000151856102800151600061831f565b61533e8460400151836020015160400151846020015160a00151615322866101600151616209565b615330876101600151616209565b6153399061d3d5565b61857f565b61537b8460000151836101a001516153559061d3d5565b6020850151604081015160028c015460a0909201519091610100900460ff1615906186db565b6153d76040518060c0016040528060001515815260200186600001518152602001846020015160a001516001600160a01b031681526020018860a001518152602001600081526020018460200151604001511515815250617057565b6020808301516080810151865160a0830151606090930151604051615455959394929361543691016020808252601a908201527f43414e43454c5f574954485f504f534954494f4e5f434c4f5345000000000000604082015260600190565b60405160208183030381529060405261544e9061d411565b8b5161878d565b816102a00151156154695761546982618ab8565b6155288660000151836102a00151615482576002615485565b60075b604051806101a001604052808a60c00151815260200160008152602001866040015181526020018660a00151815260200186610160015181526020018661018001518152602001866101a001518152602001866101c00151815260200186610200015181526020018661022001518152602001866102400151815260200186610260015181526020018661028001518152508a618bbe909392919063ffffffff16565b50505050505050565b6000611a5d836001600160a01b038416618c39565b600080604051602001611f63906020808252601b908201527f78797a2e656c66692e73746f726167652e436f6d6d6f6e446174610000000000604082015260600190565b604080516001600160a01b038581166024830152604480830186905283518084039091018152606490920183526020820180516001600160e01b031663a9059cbb60e01b17905291516000928391829189169086906155ea90869061d391565b60006040518083038160008787f1925050503d8060008114615628576040519150601f19603f3d011682016040523d82523d6000602084013e61562d565b606091505b50915091508161564357600093505050506116c5565b60008151118015615665575080806020019051810190615663919061d435565b155b1561567657600093505050506116c5565b506001979650505050505050565b60006156d9826040518060400160405280602081526020017f5361666545524332303a206c6f772d6c6576656c2063616c6c206661696c6564815250856001600160a01b0316618d339092919063ffffffff16565b90508051600014806156fa5750808060200190518101906156fa919061d435565b61118d5760405162461bcd60e51b815260206004820152602a60248201527f5361666545524332303a204552433230206f7065726174696f6e20646964206e6044820152691bdd081cdd58d8d9595960b21b60648201526084016102e5565b600080600183015460ff166003811115613c3b57613c3b61cd6b565b6157f5604051806102000160405280606081526020016060815260200160008152602001600081526020016000815260200160008152602001600081526020016000815260200160008152602001600081526020016000815260200160008152602001600081526020016000815260200160008152602001600081525090565b600080604051602001615828906020808252600c908201526b54524144455f434f4e46494760a01b604082015260600190565b6040516020818303038152906040528051906020012090506158c981604051602001615874906020808252600c908201526b54524144455f544f4b454e5360a01b604082015260600190565b604051602081830303815290604052805190602001206040516020016158a4929190918252602082015260400190565b6040516020818303038152906040528051906020012083618d4290919063ffffffff16565b8084525167ffffffffffffffff8111156158e5576158e561cf0d565b60405190808252806020026020018201604052801561591e57816020015b61590b61c907565b8152602001906001900390816159035790505b50602084015260005b835151811015615980576159578460000151828151811061594a5761594a61d161565b6020026020010151618db1565b8460200151828151811061596d5761596d61d161565b6020908102919091010152600101615927565b506159bd81604051602001611bd89060208082526014908201527313525397d3d491115497d3505491d25397d554d160621b604082015260600190565b836040018181525050615a0b81604051602001611bd8906020808252601a908201527f415641494c41424c455f434f4c4c41544552414c5f524154494f000000000000604082015260600190565b6060840152604051615a49908290611bd8906020016020808252600f908201526e10d493d4d4d7d3151597d312535255608a1b604082015260600190565b6080840152604051615a95908290611bd8906020016020808252601b908201527f4d41585f4d41494e54454e414e43455f4d415247494e5f524154450000000000604082015260600190565b60a0840152604051615ad9908290611bd89060200160208082526015908201527446554e44494e475f4645455f424153455f5241544560581b604082015260600190565b60c0840152604051615b1d908290611bd8906020016020808252601590820152744d41585f46554e44494e475f424153455f5241544560581b604082015260600190565b60e0840152604051615b73908290611bd89060200160208082526021908201527f54524144494e475f4645455f5354414b494e475f524557415244535f524154496040820152604f60f81b606082015260800190565b610100840152604051615bc0908290611bd8906020016020808252601e908201527f54524144494e475f4645455f504f4f4c5f524557415244535f524154494f0000604082015260600190565b610120840152604051615c18908290611bd89060200160208082526022908201527f54524144494e475f4645455f5553445f504f4f4c5f524557415244535f524154604082015261494f60f01b606082015260800190565b610140840152604051615c71908290611bd89060200160208082526023908201527f424f52524f57494e475f4645455f5354414b494e475f524557415244535f524160408201526254494f60e81b606082015260800190565b610160840152604051615cbc908290611bd8906020016020808252818101527f424f52524f57494e475f4645455f504f4f4c5f524557415244535f524154494f604082015260600190565b610180840152604051615d09908290611bd89060200160208082526019908201527f4155544f5f5245445543455f50524f4649545f464143544f5200000000000000604082015260600190565b6101a0840152604051615d56908290611bd8906020016020808252601c908201527f4155544f5f5245445543455f4c49515549444954595f464143544f5200000000604082015260600190565b6101c0840152604051615da3908290611bd89060200160208082526019908201527f535741505f534c49505045525f544f4b454e5f464143544f5200000000000000604082015260600190565b6101e08401525090919050565b60606000615dbc615ee2565b9050615dc781613605565b91505090565b600080604051602001611f63906020808252601c908201527f78797a2e656c66692e73746f726167652e5575696443726561746f7200000000604082015260600190565b606081600001805480602002602001604051908101604052809291908181526020018280548015615e6157602002820191906000526020600020905b815481526020019060010190808311615e4d575b50505050509050919050565b6000611a5d8383618c39565b6000818152600183016020526040812054615ec0575081546001818101845560008481526020808220909301849055845484825282860190935260409020919091556108af565b5060006108af565b6000828152600d8401602052604081206116c590836138bd565b600080604051602001611f639060208082526018908201527f78797a2e656c66692e73746f726167652e557364506f6f6c0000000000000000604082015260600190565b6000615f3061c955565b615f3861c955565b6000615f438561613e565b90506000615f50866122ae565b9050615f5d826002015490565b8352615f68826190fa565b60208401528251158015615f7e57506020830151155b80615f8d575060208301518351145b15615fa057506001959194509092505050565b615fa982619179565b60408401819052600003615fc557506001959194509092505050565b6020830151835111610120840152615fdc8261919a565b606084018190526040840151845160208601516160029392613d6f9290918391906191fc565b60808401528251156160be5782610120015161603c57825160808401516160379161602d9190619212565b846040015161921e565b61604c565b8251608084015161604c91619212565b60a084018190526003820154616090916148fe91616072906001600160a01b03166165a9565b600385015461608b906001600160a01b0316600161405f565b61660d565b60e08401526101208301516160b2578260e001516160ad9061d3d5565b6160b8565b8260e001515b60e08401525b602083015115616130578261012001516160f5576160f06148fe8460200151856080015161921290919063ffffffff16565b616129565b6161206148fe6161168560200151866080015161921290919063ffffffff16565b856040015161921e565b6161299061d3d5565b6101008401525b506000959194509092505050565b6040805160208101829052601760608201527f78797a2e656c66692e73746f726167652e4d61726b65740000000000000000006080820152908101829052600090819060a001611ef9565b8054604080519182526007830154602083015260088301549082015260098201546060820152600a8201546080820152600b82015460a0820152600c82015460c0820152600d82015460e08201527f5a51d9147354371a353006fe6ea5741b6fdddd5d868eb25f5361cecc080dfa1590610100015b60405180910390a150565b60006001600160ff1b038211156162735760405162461bcd60e51b815260206004820152602860248201527f53616665436173743a2076616c756520646f65736e27742066697420696e2061604482015267371034b73a191a9b60c11b60648201526084016102e5565b5090565b6000611a5d828461d452565b6000611a5d828461d498565b60008082604051602001611ef9919060408082526017908201527f78797a2e656c66692e73746f726167652e4c70506f6f6c00000000000000000060608201526001600160a01b0391909116602082015260800190565b6000816000036162f857506000919050565b81425b6108af919061d1d4565b600481015460009015801561631c57506007820154155b1561632957506000919050565b600782015460048301546000919061634090616209565b61634a919061d3ad565b90506000811361635d5750600092915050565b6000616381846004016002015461637384616557565b670de0b6b3a7640000619240565b84549091506116c590829061639e906001600160a01b031661924d565b516195bc565b6000611a5d828461d1e7565b80546040517ff23a1644a253a05158a5664e7dcdb9169fcae91f76675245abc54ab5f98a01bb916161fe916001600160a01b0390911690601085019061d4c6565b60006163fd83836195d1565b51158015616416575061641083836195d1565b60400151155b15616423575060006108af565b600061645961643285856195d1565b6020015161644086866195d1565b6040015161644e87876195d1565b51616373919061d18d565b90506116c58161646885619637565b6195bc565b6001600160a01b03811660009081526003830160205260409081902090517f1ce920cb88be503ae9377cd07aae1e28e7ca6c64e897ad6ff9b74c2d329d7d8391612d1c9161d500565b604080518082019091526000808252602082015260006164d46121a5565b604080518082018252600080825260209182018190526001600160a01b0387168152600284018252829020825180840190935280548084526001909101549183019190915291925090158061652b57506020810151155b15611a5d5760405163907adecd60e01b815260040160405180910390fd5b60006060611a5d83826196e3565b6000808212156162735760405162461bcd60e51b815260206004820181905260248201527f53616665436173743a2076616c7565206d75737420626520706f73697469766560448201526064016102e5565b6000816001600160a01b031663313ce5676040518163ffffffff1660e01b8152600401602060405180830381865afa1580156165e9573d6000803e3d6000fd5b505050506040513d601f19601f820116820180604052508101906108af919061d52b565b60006116c58461661e85600a61d62a565b61662d856402540be4006163a4565b61978c565b600061664160028701866138d5565b6166545761665260028701866138f7565b505b6001600160a01b0385166000908152600487016020526040902083158061668b5750848160010154616686919061d18d565b815410155b6166e75760405162461bcd60e51b815260206004820152602760248201527f75736520746f6b656e206661696c6564207769746820616d6f756e74206e6f74604482015266040cadcdeeaced60cb1b60648201526084016102e5565b6040805160808101825282548152600183015460208201819052600284015492820192909252600383015460608201529061672390879061d18d565b82541061674c578582600101600082825461673e919061d18d565b909155508693506167a99050565b60018201548254111561678b576001820154825461676a919061d1d4565b925085826001016000828254616780919061d18d565b909155506167a99050565b8582600101600082825461679f919061d18d565b9091555060009350505b875460405160008051602061d9d6833981519152916167db916001600160a01b03909116908a90859087908a9061d649565b60405180910390a1505095945050505050565b60006116c56167fe84600a61d62a565b6168116402540be400613d6f88876163a4565b90619212565b60008061682383613918565b905060006168318686616cf6565b9050616841818360400151616cf6565b9695505050505050565b60008481527fb31b5831e77ebf4a20e050d886d24b00d24f44760e3342d08fb455df41d4aaf8602052604081207fb31b5831e77ebf4a20e050d886d24b00d24f44760e3342d08fb455df41d4aafa917fb31b5831e77ebf4a20e050d886d24b00d24f44760e3342d08fb455df41d4ab01906168c4615775565b90506168ce61c9aa565b6168d7896122ae565b600101546001600160a01b03610100918290041660c08301528201516168fe908b90616cf6565b6040820152610120820151616914908b90616cf6565b6060820181905260408201516169369190616930908d90619876565b90619876565b60a0820152606081015161694d9085908990619882565b60c081015160408201516169649187918a906198e3565b60c081015160a082015161697b9185918a906198e3565b8560600151156169c55760608101516169979085908990619942565b60c081015160408201516169ae9187918a906199a3565b60c081015160a08201516169c59185918a906199a3565b6080868101518751604080518d81526001600160a01b03938416602082015280820192909252606082018c9052918a169281019290925260a082018c9052517f2ae7718f4105fe717c24426c57b47946a517e684f5458c2069ef013a7b85faf19181900360c00190a150505050505050505050565b616a4760028501846138d5565b616a875760405162461bcd60e51b8152602060048201526011602482015270746f6b656e206e6f74206578697374732160781b60448201526064016102e5565b6001600160a01b0383166000908152600485016020526040902060010154821115616ae65760405162461bcd60e51b815260206004820152600f60248201526e756e557365206f766572666c6f772160881b60448201526064016102e5565b6001600160a01b03831660008181526004860160208181526040808420815160808101835281548152600182018054828601819052600284015494830194909452600390920154606082015295855292909152859290616b4790849061d1d4565b909155505084546001600160a01b03858116600090815260048801602052604090819020905160008051602061d9d683398151915293616b8f9316918891869190889061d649565b60405180910390a15050505050565b6001600160a01b038316600090815260048501602090815260408083208151608081018352815480825260018301549482019490945260028201549281019290925260038101546060830152918511616c145784826000016000828254616c05919061d1d4565b9091555060009350616c9e9050565b815415616c66578154616c27908661d1d4565b925082826003016000828254616c3d919061d18d565b9250508190555082826001016000828254616c58919061d18d565b909155505060008255616c9e565b84826003016000828254616c7a919061d18d565b9250508190555084826001016000828254616c95919061d18d565b90915550859350505b616cb28684616cab615546565b9190619a02565b865460405160008051602061d9d683398151915291616ce4916001600160a01b03909116908990859087908a9061d649565b60405180910390a15050949350505050565b6000611a5d8383620186a061978c565b60008215616d26576000616d198561628f565b601201549150611a5d9050565b6000616d30615ee2565b6001600160a01b0384166000908152600382016020526040902090915060020154915050611a5d565b600080616d658461613e565b905082616d765760088101546116c5565b600701549392505050565b60028201546003830154600091616da691849160ff16906001600160a01b0316616d06565b90506000616dd7616dc88560080154620186a08760070154614a9a919061d1d4565b600d860154616468908561d1d4565b90508084600c016002016000828254616df0919061d18d565b90915550506003840154616e37908290616e12906001600160a01b03166165a9565b60038701546002880154616e32916001600160a01b03169060ff1661405f565b6167ee565b600f85018054600090616e4b90849061d18d565b9091555050600d840182905560028401546003850154612d8091859160ff909116906001600160a01b0316600061533986616209565b60018101546002820154600091616e9a9160ff16616d59565b60108301549091508103616eac575050565b6000616ed2616ebe8460050154616209565b6010850154616ecd908561d3f1565b619a36565b600284015490915060009060ff1615616f65578190508184600c016005016000828254616eff919061d3ad565b90915550506003840154616f46908390616f21906001600160a01b03166165a9565b60038701546002880154616f41916001600160a01b03169060ff1661405f565b619a56565b601285018054600090616f5a90849061d3ad565b90915550616fe29050565b6003840154616fa7908390616f82906001600160a01b03166165a9565b60038701546002880154616fa2916001600160a01b03169060ff1661405f565b619a84565b90508084600c016005016000828254616fc0919061d3ad565b9091555050601284018054839190600090616fdc90849061d3ad565b90915550505b6010840183905560018085015460028601546003870154612d8093859260ff16916001600160a01b03166186db565b60008061703e617021878a61d18d565b61681161702e89896163a4565b6170388c8c6163a4565b90619ab9565b905061704b818585619ac5565b98975050505050505050565b6000617066826020015161613e565b905060006170778360200151613918565b8351909150801561708957508260a001515b156170a5576170a082600201848360200151619b10565b617141565b825180156170b557508260a00151155b156171035760408301516170ca908390619bd4565b6170a082600601600085604001516001600160a01b03166001600160a01b03168152602001908152602001600020848360200151619b10565b8251617141576171418360a00151617136576040808501516001600160a01b03166000908152600685016020522061713b565b826002015b84619bf2565b82511561118d576000617155836002015490565b90506000617162846190fa565b90508460a0015180156171785750826080015182115b156171ab57602085015160a0860151604051633ea6fa5360e11b81526004810192909252151560248201526044016102e5565b8460a001511580156171c057508260a0015181115b156171f357602085015160a0860151604051633ea6fa5360e11b81526004810192909252151560248201526044016102e5565b60006171ff8383619c8d565b90508360e0015181101561721557505050505050565b61722c617222838561d18d565b8560c00151616cf6565b8161723785856191fc565b617241919061d1d4565b1115613e0c576040516387fd15d760e01b815260040160405180910390fd5b80156172bf5760006172718561628f565b90508261727d82619c9c565b10156172af5760405163c5fa5f3d60e01b81526001600160a01b038087166004830152851660248201526044016102e5565b6172b98184619caa565b50612d80565b60006172c9615ee2565b905061732c816002016000866001600160a01b03166001600160a01b031681526020019081526020016000206040518060600160405290816000820154815260200160018201548152602001600282015481525050617326619d32565b85619d42565b61735c5760405163c5fa5f3d60e01b81526001600160a01b038087166004830152851660248201526044016102e5565b61046e818585619d9a565b6002850154600186015460038701547fee2b9c77532fd89e66e2f431c2001e4bcc30fb5bc62ee9cdac252f89540067ae9287926173c0926001600160a01b0362010000840481169391169060ff610100909104166144cd565b8588604051806101a00160405280888152602001878152602001600081526020016000815260200160008152602001600081526020016000815260200160008152602001600081526020016000815260200160008152602001600081526020016000815250604051616b8f95949392919061d6c5565b600060606120fa85828686619e9f565b61744e61c9f0565b876040518061022001604052908160008201548152602001600182015481526020016002820160009054906101000a900460ff161515151581526020016002820160019054906101000a900460ff161515151581526020016002820160029054906101000a90046001600160a01b03166001600160a01b03166001600160a01b031681526020016003820160009054906101000a90046001600160a01b03166001600160a01b03166001600160a01b031681526020016004820160009054906101000a90046001600160a01b03166001600160a01b03166001600160a01b031681526020016005820154815260200160068201548152602001600782015481526020016008820154815260200160098201548152602001600a8201548152602001600b8201548152602001600c82016040518060e0016040529081600082015481526020016001820154815260200160028201548152602001600382015481526020016004820154815260200160058201548152602001600682015481525050815260200160138201548152602001601482015481525050816020018190525084816060018181525050600061761c8960030160009054906101000a90046001600160a01b0316600061405f565b905061762781616557565b60408301526003890154600090617646906001600160a01b03166165a9565b9050888a6005015403617a4f57826020015161014001518360c0018181525050826020015161016001518361012001818152505082602001516101a001518361020001818152505061782f898b6040518061022001604052908160008201548152602001600182015481526020016002820160009054906101000a900460ff161515151581526020016002820160019054906101000a900460ff161515151581526020016002820160029054906101000a90046001600160a01b03166001600160a01b03166001600160a01b031681526020016003820160009054906101000a90046001600160a01b03166001600160a01b03166001600160a01b031681526020016004820160009054906101000a90046001600160a01b03166001600160a01b03166001600160a01b031681526020016005820154815260200160068201548152602001600782015481526020016008820154815260200160098201548152602001600a8201548152602001600b8201548152602001600c82016040518060e0016040529081600082015481526020016001820154815260200160028201548152602001600382015481526020016004820154815260200160058201548152602001600682015481525050815260200160138201548152602001601482015481525050619ec8565b61018085015261016084015260208301516101c0908101805160a001516101a0860152805160c00151918501919091525151610240840181905261787d90829061787885616557565b619f41565b610220840181905261788e90616209565b836101a001516178a2856101600151616209565b6178ac919061d3ad565b6178b6919061d3ad565b6101e0840152841561799e57836178ce576000617932565b6179326178e16148fe8560200151619f4e565b896178eb86619f83565b6178fd87602001516101600151616209565b617907919061d3f1565b617911919061d3ad565b61791b919061d3f1565b61792c856020015160a001516165a9565b84619a84565b60a084015260c083015161794590616209565b8360a00151617954919061d3f1565b60808401526020830151610160015161797c90899061797290616209565b61791b919061d3ad565b6179898460c00151616209565b617993919061d3f1565b610280840152617a25565b6179c7886179ab85619f83565b6179bd86602001516101600151616209565b617972919061d3f1565b60a084015260c08301516179da90616209565b8360a001516179e9919061d3f1565b608084015260208301516101600151617a0790899061797290616209565b617a148460c00151616209565b617a1e919061d3f1565b6102808401525b617a448360800151617a3e856020015160a001516165a9565b84619a56565b610260840152617e5b565b602083015160e081015161014090910151617a6f9190616811908c6163a4565b60c0840152602083015160e08101516101a090910151617a949190616811908c6163a4565b610200840152617aa48987616cf6565b83610240018181525050617c4f898b6040518061022001604052908160008201548152602001600182015481526020016002820160009054906101000a900460ff161515151581526020016002820160019054906101000a900460ff161515151581526020016002820160029054906101000a90046001600160a01b03166001600160a01b03166001600160a01b031681526020016003820160009054906101000a90046001600160a01b03166001600160a01b03166001600160a01b031681526020016004820160009054906101000a90046001600160a01b03166001600160a01b03166001600160a01b031681526020016005820154815260200160068201548152602001600782015481526020016008820154815260200160098201548152602001600a8201548152602001600b8201548152602001600c82016040518060e0016040529081600082015481526020016001820154815260200160028201548152602001600382015481526020016004820154815260200160058201548152602001600682015481525050815260200160138201548152602001601482015481525050619ec8565b610180850152610160840152617c6489616209565b8360e0018181525050617c7e836020015160e00151616209565b610100840181905260e084015160208501516101c0015160a00151617ca89291613cb79190616277565b6101a084015261010083015160e084015160208501516101c0015160c00151617cd69291613cb79190616277565b6101c08085019190915260208401510151516102408401511115617d065760208301516101c00151516102408401525b617d198184610240015161787885616557565b6102208401819052617d2a90616209565b836101a00151617d3e856101600151616209565b617d48919061d3ad565b617d52919061d3ad565b6101e084015261010083015160e0840151617da59161791b91613cb7908c617d7989619f83565b617d8b8a602001516101600151616209565b617d95919061d3f1565b617d9f919061d3ad565b90616277565b60a084015260c0830151617db890616209565b8360a00151617dc7919061d3f1565b836080018181525050617df761791b846101000151613cb78660e001518c617d9589602001516101600151616209565b617e048460c00151616209565b617e0e919061d3f1565b61028084015260058a015460208401516101600151617e329190616811908c6163a4565b6101208401526080830151602084015160a00151617e549190617a3e906165a9565b6102608401525b89600901548a600a0154846101200151617e75919061d18d565b11617e81576000617ea5565b89600901548a600a0154846101200151617e9b919061d18d565b617ea5919061d1d4565b6101408401525050979650505050505050565b61118d6005830182615e6d565b6001600160a01b03841660009081527fb31b5831e77ebf4a20e050d886d24b00d24f44760e3342d08fb455df41d4aaf9602052604081207fb31b5831e77ebf4a20e050d886d24b00d24f44760e3342d08fb455df41d4aafa917fb31b5831e77ebf4a20e050d886d24b00d24f44760e3342d08fb455df41d4ab0190617f48615775565b9050617f5261c9aa565b617f618a836101600151616cf6565b6040820152610180820151617f77908b90616cf6565b608082018190526040820151617f939190616930908d90619876565b60a08201526040810151617fac9086908b908b906198e3565b6080810151617fbe9085908a90619882565b60a0810151617fd29084908b908b906198e3565b8a15618012576040810151617fec9086908b908b906199a3565b6080810151617ffe9085908a90619942565b60a08101516180129084908b908b906199a3565b604080518c151581526001600160a01b038b811660208301528a811682840152891660608201526080810188905260a081018c905290517fc6808235a634ed03a8e9b566f817b485bebc047ac6d8ddda1f07e5173f0a18f59181900360c00190a15050505050505050505050565b600080826101e0015113156180b9576180b3826020015160a001516180a9846101e00151616557565b8691906003616b9e565b506180e6565b6180e6826020015160a001516180dc846101e001516180d79061d3d5565b616557565b8691906003619fbb565b602082015160a0015160c08301516181019186916005616a3a565b6000306001600160a01b0316631f7592ea6040518163ffffffff1660e01b8152600401602060405180830381865afa158015618141573d6000803e3d6000fd5b505050506040513d601f19601f82011682018060405250810190618165919061cfde565b90506000836080015112618217576181a1836020015160a00151618197856101e0015186608001516180d7919061d3ad565b8791906004619fbb565b6181df8360200151604001516181be576181b961a080565b6181c1565b83515b846020015160a00151836181d88760800151616557565b6001613699565b50826020015160400151618212576182106181f861a080565b602085015160a0015185516102208701516001613699565b505b61827b565b60008360800151121561827b57618249836020015160a0015161824185608001516180d79061d3d5565b87919061a09b565b915061827981846020015160a0015185600001518561826f88608001516180d79061d3d5565b6181d8919061d1d4565b505b826102a001516183085760006182948460c00151616209565b8460a001516182ca6148fe87602001516101600151616811896020015161014001518a61014001516163a490919063ffffffff16565b6182d4919061d3ad565b6182de919061d3f1565b8654602086015160a001518754929350618306928a926001600160a01b03169190859061a0aa565b505b50949350505050565b6000611a5d8383600061a177565b600061832a8661628f565b60028101549091506001600160a01b038087169116036183e25761834e818561a298565b60008312156183725761836d6183666180d78561d3d5565b829061a325565b613e0c565b8160000361838d5761836d61838684616557565b829061a331565b600061839884616557565b90506183bc8382116183ab5760006183b5565b6183b5848361d1d4565b839061a331565b6183dc8382116183cc57846183d5565b6183d584616209565b839061a33d565b50613e0c565b60006183ec615ee2565b90506183f981878761a393565b60008412156184395760006184106180d78661d3d5565b905061841d83888361a453565b61842882888361a4cd565b61843382888361a5b1565b50615528565b8260000361845b576184568661844e86616557565b84919061a638565b615528565b600061846685616557565b905061848c8785831161847a576000618484565b618484868461d1d4565b85919061a638565b6184ae8785831161849d57866184a6565b6184a686616209565b85919061a702565b5050505050505050565b806102a00151156184c7575050565b6000816080015112806184ef575060008160800151121580156184ef57508060200151604001515b1561851f578051602082015160a09081015184549184015161118d93926001600160a01b0316906181d890616557565b61855361852a61a080565b602083015160a001518351610220850151608086015161854990616557565b6181d8919061d18d565b508051602082015160a09081015184549184015161118d93926001600160a01b0316906181d890616557565b831561862b5760006185908661628f565b9050600083136185ba576185a66180d78461d3d5565b60108201546185b5919061d1d4565b6185d2565b6185c383616557565b60108201546185d2919061d18d565b6010820155600082136185ff576185eb6180d78361d3d5565b60118201546185fa919061d1d4565b618617565b61860882616557565b6011820154618617919061d18d565b6011820155618625816163b0565b5061046e565b6000618635615ee2565b6001600160a01b038516600090815260038201602052604081209192508413618675576186646180d78561d3d5565b8154618670919061d1d4565b61868a565b61867e84616557565b815461868a919061d18d565b8155600083136186b4576186a06180d78461d3d5565b81600101546186af919061d1d4565b6186cc565b6186bd83616557565b81600101546186cc919061d18d565b6001820155615528828661646d565b60006186e68661613e565b905083156187105784816007016002016000828254618705919061d3ad565b9091555061872d9050565b84816007016003016000828254618727919061d3ad565b90915550505b61873681616189565b8215613e0c576000618747876122ae565b9050600061876b8260010160019054906101000a90046001600160a01b031661628f565b905085156187825761877d818861a33d565b6184ae565b6184ae81858961a702565b600061879887611ea2565b905060006187a582611f18565b905080516000036187b7575050613e0c565b60006187c1611f26565b905060005b8251811015614b4a57848382815181106187e2576187e261d161565b60200260200101510315618ab05760006188078483815181106142855761428561d161565b604080516102208101825282546001600160a01b031681526001830154602082015260028084015491939284019160ff16908111156188485761884861cd6b565b60028111156188595761885961cd6b565b81526020016002820160019054906101000a900460ff1660028111156188815761888161cd6b565b60028111156188925761889261cd6b565b81526020016002820160029054906101000a900460ff1660038111156188ba576188ba61cd6b565b60038111156188cb576188cb61cd6b565b81526020016002820160039054906101000a900460ff1660028111156188f3576188f361cd6b565b60028111156189045761890461cd6b565b81526002820154600160201b810460ff9081161515602080850191909152600160281b830490911615156040840152600160301b9091046001600160a01b0316606083015260038301546080830152600483015460a0830152600583015460c0830152600683015460e0830152600783015461010083015260088301546101208301526009830154610140830152600a90920154610160909101528101519091508a1480156189c95750886001600160a01b03168161010001516001600160a01b0316145b80156189ea5750806080015160038111156189e6576189e661cd6b565b6003145b80156189fd57508715158160c001511515145b15618aae57618a2e848381518110618a1757618a1761d161565b60200260200101518661361290919063ffffffff16565b618a5a848381518110618a4357618a4361d161565b60200260200101518461a7b290919063ffffffff16565b838281518110618a6c57618a6c61d161565b60200260200101517fa2bce5ff82d63e38ec31c6270a397e7cae4d5ed319bd73e318d4916d4ff686688289604051618aa592919061d2fc565b60405180910390a25b505b6001016187c6565b80602001516060015115618b04578051602082015160a0810151610ff39291618aff90618ae490619f4e565b618af5866020015160a001516165a9565b866040015161660d565b61a81f565b600080826101e0015112618b6b57618b2b826102800151836101e001516180d7919061d3ad565b8260c0015111618b3c576000618b64565b618b55826102800151836101e001516180d7919061d3ad565b8260c00151618b64919061d1d4565b9050618ba7565b618b79826102800151616557565b618b8b836101e001516180d79061d3d5565b8360c00151618b9a919061d18d565b618ba4919061d1d4565b90505b611e9e8260000151836020015160a001518361a81f565b6002840154600185015460038601547fee2b9c77532fd89e66e2f431c2001e4bcc30fb5bc62ee9cdac252f89540067ae928692618c17926001600160a01b0362010000840481169391169060ff610100909104166144cd565b848785604051618c2b95949392919061d6c5565b60405180910390a150505050565b60008181526001830160205260408120548015618d22576000618c5d60018361d1d4565b8554909150600090618c719060019061d1d4565b9050818114618cd6576000866000018281548110618c9157618c9161d161565b9060005260206000200154905080876000018481548110618cb457618cb461d161565b6000918252602080832090910192909255918252600188019052604090208390555b8554869080618ce757618ce761d8bd565b6001900381819060005260206000200160009055905585600101600086815260200190815260200160002060009055600193505050506108af565b60009150506108af565b5092915050565b60606116c5848460008561a919565b6000818152600883016020908152604091829020805483518184028101840190945280845260609392830182828015618da457602002820191906000526020600020905b81546001600160a01b03168152600190910190602001808311618d86575b5050505050905092915050565b618db961c907565b618dc161c907565b600080604051602001618dfa9060208082526012908201527154524144455f544f4b454e5f434f4e46494760701b604082015260600190565b60408051601f1981840301815291905280516020909101209050618e1f82828761a9e9565b618e2c5750909392505050565b618eb78186604051602001618e6a906020808252601590820152741254d7d4d5541413d49517d0d3d313105511549053605a1b604082015260600190565b60405160208183030381529060405280519060200120604051602001618e929392919061d8d3565b604051602081830303815290604052805190602001208361aa0390919063ffffffff16565b15158352604051618f189082908790618ef090602001602080825260099082015268282922a1a4a9a4a7a760b91b604082015260600190565b60405160208183030381529060405280519060200120604051602001611c089392919061d8d3565b836020018181525050618f528186604051602001618ef090602080825260089082015267111254d0d3d5539560c21b604082015260600190565b836040018181525050618f978186604051602001618ef0906020808252601390820152720434f4c4c41544552414c5f555345525f43415606c1b604082015260600190565b6060840152604051618fdc9082908790618ef0906020016020808252601490820152730434f4c4c41544552414c5f544f54414c5f4341560641b604082015260600190565b608084015260405161901f9082908790618ef09060200160208082526012908201527104c494142494c4954595f555345525f4341560741b604082015260600190565b60a08401526040516190639082908790618ef09060200160208082526013908201527204c494142494c4954595f544f54414c5f43415606c1b604082015260600190565b60c08401526040516190a89082908790618ef09060200160208082526014908201527324a72a22a922a9aa2fa920aa22afa320a1aa27a960611b604082015260600190565b60e08401526040516190eb9082908790618ef0906020016020808252601290820152712624a8aaa4a220aa24a7a72fa320a1aa27a960711b604082015260600190565b61010084015250909392505050565b60008061910983600401613605565b90506000805b8251811015619171578460060160008483815181106191305761913061d161565b60200260200101516001600160a01b03166001600160a01b031681526020019081526020016000206000015482619167919061d18d565b915060010161910f565b509392505050565b600d810154600090810361918f57506000919050565b600d820154426162fb565b6002810154600090816191ac846190fa565b905060006191ba838361aa1c565b905060006191c8838561d18d565b90508115806191d5575080155b156191e65750600095945050505050565b616841826191f2615775565b60c001518361978c565b600081831161920b5781611a5d565b5090919050565b6000611a5d828461d8f2565b6000611a5d8361923a84619230615775565b60e00151906163a4565b90619c8d565b60006116c584838561978c565b61925561caa8565b61925d61caa8565b600080604051602001619292906020808252600e908201526d4c505f504f4f4c5f434f4e46494760901b604082015260600190565b60408051601f19818403018152919052805160209091012090506192b782828761a9e9565b6192c45750909392505050565b6192ff8186604051602001618ef090602080825260129082015271424153455f494e5445524553545f5241544560701b604082015260600190565b83526040516193419082908790618ef0906020016020808252601490820152731413d3d317d3125455525112551657d31253525560621b604082015260600190565b8360200181815250506193808186604051602001618ef0906020808252600d908201526c4d494e545f4645455f5241544560981b604082015260600190565b8360400181815250506193c18186604051602001618ef0906020808252600f908201526e52454445454d5f4645455f5241544560881b604082015260600190565b60608401526040516194069082908790618ef0906020016020808252601490820152731413d3d317d4139317d490551253d7d31253525560621b604082015260600190565b60808401526040516194529082908790618ef0906020016020808252818101527f554e534554544c45445f424153455f544f4b454e5f524154494f5f4c494d4954604082015260600190565b60a08401526040516194ab9082908790618ef09060200160208082526022908201527f554e534554544c45445f535441424c455f544f4b454e5f524154494f5f4c494d604082015261125560f21b606082015260800190565b60c08401526040516194f99082908790618ef0906020016020808252601d908201527f504f4f4c5f535441424c455f544f4b454e5f524154494f5f4c494d4954000000604082015260600190565b60e08401526040516195479082908790618ef0906020016020808252601c908201527f504f4f4c5f535441424c455f544f4b454e5f4c4f53535f4c494d495400000000604082015260600190565b6101008401526040516195ad9082908790619585906020016020808252600c908201526b41535345545f544f4b454e5360a01b604082015260600190565b604051602081830303815290604052805190602001206040516020016158a49392919061d8d3565b61012084015250909392505050565b6000611a5d8383670de0b6b3a764000061978c565b6195f560405180606001604052806000815260200160008152602001600081525090565b506001600160a01b0316600090815260029182016020908152604091829020825160608101845281548152600182015492810192909252909201549082015290565b600080611a5d604051602001619670906020808252600f908201526e5553445f504f4f4c5f434f4e46494760881b604082015260600190565b60405160208183030381529060405280519060200120846040516020016196969061d906565b604051602081830303815290604052805190602001206040516020016196be9392919061d8d3565b60405160208183030381529060405280519060200120826135f290919063ffffffff16565b6000806196f0848461aa3e565b90506000806196ff868661ab30565b91509150600061970f878761ac63565b90506197248282604001516148fe919061d18d565b815160001315619735578151619738565b60005b61974185616209565b6197638a60010154856020015189619759919061d18d565b6148fe919061d18d565b61976d919061d3f1565b619777919061d3ad565b619781919061d3f1565b979650505050505050565b60008080600019858709858702925082811083820303915050806000036197c6578382816197bc576197bc61d482565b0492505050611a5d565b80841161980d5760405162461bcd60e51b81526020600482015260156024820152744d6174683a206d756c446976206f766572666c6f7760581b60448201526064016102e5565b60008486880960026001871981018816978890046003810283188082028403028082028403028082028403028082028403028082028403029081029092039091026000889003889004909101858311909403939093029303949094049190911702949350505050565b6000611a5d828461d1d4565b61988c83836138d5565b61989c5761989a83836138f7565b505b6001600160a01b03821660009081526002840160205260409020546198c290829061d18d565b6001600160a01b039092166000908152600290930160205250604090912055565b6198ed84836138d5565b6198fd576198fb84836138f7565b505b6000619909848461ae36565b600081815260028701602052604090205490915061992890839061d18d565b600091825260029095016020526040902093909355505050565b61994c83836138d5565b61995c5761995a83836138f7565b505b6001600160a01b038216600090815260038401602052604090205461998290829061d18d565b6001600160a01b039092166000908152600390930160205250604090912055565b6199ad84836138d5565b6199bd576199bb84836138f7565b505b60006199c9848461ae36565b60008181526003870160205260409020549091506199e890839061d18d565b600091825260039095016020526040902093909355505050565b6001600160a01b038216600090815260068401602052604081208054839290619a2c90849061d18d565b9091555050505050565b6000611a5d619a4c670de0b6b3a7640000616209565b613cb78585616277565b60006116c5619a696148fe85600a61d62a565b613cb7619a7a6402540be400616209565b617d9f8887616277565b60006116c5619aa1619a9a6402540be400616209565b8490616277565b613cb7619ab26148fe87600a61d62a565b8790616277565b6000611a5d828461d18d565b600080619ad2848661d94b565b905080600003619ae55784915050611a5d565b619b0884613d6f85619af8576000619afb565b60015b60ff166170388989619212565b915050611a5d565b8254600003619b2f576080820151600184015560608201518355619b73565b619b518360000154846001015484606001518560800151858760a00151617011565b6001840155606082015183548490600090619b6d90849061d18d565b90915550505b7fe1ca63f31f0b04174a12bc0e5a08103c6403d0d7c3980afb3ae8444a47476ef582602001518360a0015184606001518660000154619bb2919061d1d4565b86546040805194855292151560208501529183015260608201526080016135a8565b619be160048301826138d5565b611e9e5761118d60048301826138f7565b6060810151825411619c0e576000600183018190558255619c2c565b8060600151826000016000828254619c26919061d1d4565b90915550505b7fe1ca63f31f0b04174a12bc0e5a08103c6403d0d7c3980afb3ae8444a47476ef581602001518260a0015183606001518560000154619c6b919061d18d565b8554604080519485529215156020850152918301526060820152608001612d1c565b600081831061920b5781611a5d565b60006060611a5d838261aec3565b619cc082600401619cba8461b0e5565b8361b106565b619cdc5760405162461bcd60e51b81526004016102e59061d95f565b81546002830154600091619d00916001600160a01b0391821691166004860161b191565b905081836004016002016000828254619d19919061d18d565b9091555050600683015461012082015261118d8161b293565b6000619d3c61b379565b51919050565b600082600003619d7757602084015160408501518551849291619d649161d18d565b619d6e919061d1d4565b10159050611a5d565b818460200151619d6486604001518760000151619d94919061d18d565b86616cf6565b619dfb836002016000846001600160a01b03166001600160a01b031681526020019081526020016000206040518060600160405290816000820154815260200160018201548152602001600282015481525050619df5619d32565b83619d42565b619e175760405162461bcd60e51b81526004016102e59061d95f565b6001600160a01b03821660009081526002840160205260408120619e3c90849061b3ba565b6001600160a01b0384166000908152600286016020526040812060010180549293508492909190619e6e90849061d18d565b90915550506001600160a01b038316600090815260028501602052604090206001015460a0820152612d808161b45d565b6000806000619eaf87878761b4e5565b9150915083619ebe5780619781565b5095945050505050565b6000808260e001518403619eee5750506101c08101516040810151606090910151613459565b619f128360e0015161681186866101c00151604001516163a490919063ffffffff16565b619f368460e0015161681187876101c00151606001516163a490919063ffffffff16565b915091509250929050565b60006116c583858461660d565b600080619f5e8360200151613918565b90506000619f6a615775565b60a0015190506116c58460e0015183600001518361b5d0565b6000816101c00151619f99836101800151616209565b619fa7846102400151616209565b619fb1919061d3ad565b6108af919061d3ad565b619fc860028501846138d5565b619fdb57619fd960028501846138f7565b505b6001600160a01b0383166000908152600485016020908152604080832081516080810183528154808252600183015494820194909452600282015492810192909252600381015460608301529290918591849161a03990849061d18d565b9091555050855460405160008051602061d9d68339815191529161a070916001600160a01b0390911690889085908790899061d649565b60405180910390a1505050505050565b60008061a08b615546565b546001600160a01b031692915050565b60006116c58484846000616b9e565b811561046e57600061a0c361a0be86611ea2565b61b5f3565b90508260005b82518110156184ae57600061a0f484838151811061a0e95761a0e961d161565b602002602001015190565b60038101549091506001600160a01b03888116911614801561a11f57506002810154610100900460ff165b1561a16e57600061a1386148fe83845489148d8b61b601565b90506000871361a1515761a14c818561d3ad565b61a15b565b61a15b818561d3f1565b93508360000361a16c5750506184ae565b505b5060010161a0c9565b6001600160a01b0382166000908152600484016020526040812060038101541580159061a1a45750805415155b1561917157604080516080810182528254808252600184015460208301526002840154928201929092526003830154606082018190529091101561a1e957815461a1ef565b81600301545b92508282600001600082825461a205919061d1d4565b925050819055508282600301600082825461a220919061d1d4565b925050819055508282600101600082825461a23b919061d1d4565b9091555061a2559050858461a24e615546565b919061b740565b855460405160008051602061d9d68339815191529161a287916001600160a01b03909116908890859087908a9061d649565b60405180910390a150509392505050565b600682015481111561a2e85760405162461bcd60e51b81526020600482015260196024820152781cdd58881a1bdb1908189a59d9d95c881d1a185b881a1bdb19603a1b60448201526064016102e5565b8154600283015460009161a30c916001600160a01b0391821691166004860161b191565b905081836004016002016000828254619d19919061d1d4565b611e9e8282600161b7e2565b611e9e8282600161b8b8565b8154600283015460009161a361916001600160a01b0391821691166004860161b191565b90508183600401600301600082825461a37a919061d3ad565b9091555050600783015461014082015261118d8161b293565b6001600160a01b038216600090815260028401602052604090206001015481111561a3fc5760405162461bcd60e51b81526020600482015260196024820152781cdd58881a1bdb1908189a59d9d95c881d1a185b881a1bdb19603a1b60448201526064016102e5565b6001600160a01b0382166000908152600284016020526040812061a42190849061b3ba565b6001600160a01b0384166000908152600286016020526040812060010180549293508492909190619e6e90849061d1d4565b61a460600c8401836138d5565b61a4735761a471600c8401836138f7565b505b6001600160a01b038083166000908152600e8501602052604081208554909261a49e9116858461b191565b90508282600401600082825461a4b4919061d18d565b9091555050600482015461016082015261046e8161b293565b61a4d883838361b912565b61a52f5760405162461bcd60e51b815260206004820152602260248201527f737562206661696c656420776974682062616c616e6365206e6f7420656e6f756044820152610ced60f31b60648201526084016102e5565b6001600160a01b0382166000908152600284016020526040812061a55490849061b3ba565b6001600160a01b038416600090815260028601602052604081208054929350849290919061a58390849061d1d4565b90915550506001600160a01b03831660009081526002850160205260409020546080820152612d808161b45d565b6001600160a01b0382166000908152600284016020526040812061a5d690849061b3ba565b6001600160a01b0384166000908152600280870160205260408220018054929350849290919061a60790849061d18d565b90915550506001600160a01b038316600090815260028086016020526040909120015460c0820152612d808161b45d565b82546001600160a01b038381166000908152600e860160205260408120909261a664921690859061b191565b905061a673600c8501846138d5565b1561a6ad576001600160a01b0383166000908152600e850160205260408120805484929061a6a290849061d18d565b9091555061a6d99050565b61a6ba600c8501846138f7565b506001600160a01b0383166000908152600e8501602052604090208290555b6001600160a01b0383166000908152600e8501602052604090205460e0820152612d808161b293565b61a70f600c8401836138d5565b61a7225761a720600c8401836138f7565b505b82546001600160a01b038381166000908152600e860160205260408120909261a74e921690859061b191565b6001600160a01b0384166000908152600e8601602052604081206003018054929350849290919061a78090849061d3ad565b90915550506001600160a01b0383166000908152600e85016020526040902060030154610140820152612d808161b293565b60009081526020919091526040812080546001600160a01b0319168155600181018290556002810180546001600160d01b031916905560038101829055600481018290556005810182905560068101829055600781018290556008810182905560098101829055600a0155565b600061a82a8461b98c565b905060008061a839838661b9e3565b91509150811561a8bb5761a8598561a851868461d18d565b85919061ba08565b507ff19b578fc2b5cd359b489ade8c3e89c78f14417b5c22c020c2ef6918f818f9d286868361a888888261d18d565b604080516001600160a01b03958616815294909316602085015291830152606082015260800160405180910390a1613e0c565b61a8c683868661ba08565b50604080516001600160a01b03808916825287166020820152600091810191909152606081018590527ff19b578fc2b5cd359b489ade8c3e89c78f14417b5c22c020c2ef6918f818f9d29060800161a070565b60608247101561a97a5760405162461bcd60e51b815260206004820152602660248201527f416464726573733a20696e73756666696369656e742062616c616e636520666f6044820152651c8818d85b1b60d21b60648201526084016102e5565b600080866001600160a01b0316858760405161a996919061d391565b60006040518083038185875af1925050503d806000811461a9d3576040519150601f19603f3d011682016040523d82523d6000602084013e61a9d8565b606091505b50915091506197818783838761ba1e565b6000828152600c8401602052604081206116c590836138d5565b6000908152600391909101602052604090205460ff1690565b600081831161aa345761aa2f838361d1d4565b611a5d565b611a5d828461d1d4565b600080600061aa4c8561ba97565b905060005b815181101561ab265761aa6f82828151811061594a5761594a61d161565b511561ab1e57600086600401600084848151811061aa8f5761aa8f61d161565b60200260200101516001600160a01b03166001600160a01b03168152602001908152602001600020604051806080016040529081600082015481526020016001820154815260200160028201548152602001600382015481525050905061ab1a61ab1384848151811061ab045761ab0461d161565b6020026020010151838961baa5565b8590619ab9565b9350505b60010161aa51565b5090949350505050565b600080600080600061ab418761ba97565b905060005b815181101561ac2857600088600401600084848151811061ab695761ab6961d161565b60200260200101516001600160a01b03166001600160a01b03168152602001908152602001600020604051806080016040529081600082015481526020016001820154815260200160028201548152602001600382015481525050905061abf461abed84848151811061abde5761abde61d161565b6020026020010151838b61bb04565b8690619ab9565b945061ac1d61ab1384848151811061ac0e5761ac0e61d161565b6020026020010151838b61bb76565b93505060010161ab46565b5060018701541561ac5757600187015461ac42908461d18d565b925086600101548261ac54919061d18d565b91505b50909590945092505050565b61ac9c6040518060c001604052806000815260200160008152602001600081526020016000815260200160008152602001600081525090565b61aca58361bbd5565b600061acb284600161bbfd565b9050600061acbe615775565b60a00151905060005b825181101561ae2d57600083828151811061ace45761ace461d161565b60200260200101519050600061ad03878360c00151846040015161be1b565b9050600061ad148360200151613918565b9050600061ad25848a856000619e9f565b9050600081131561ad645761ad5d61ad558261ad5061ad478860a00151618db1565b60400151616209565b61bebf565b89519061bed0565b885261ad90565b61ad8d61ad558261ad5061ad7b8860a00151618db1565b61010001516148fe90620186a061d18d565b88525b61adb161ada68560e0015184600001518961b5d0565b60608a015190619ab9565b6060890152610160840151602089015161adca91619ab9565b6020890152610180840151604089015161ade391619ab9565b604089015260e084015160a089015161adfb91619ab9565b60a089015261ae1861ae0d858b61bedc565b60808a01519061bed0565b608089015250506001909201915061acc79050565b50505092915050565b600060405160200161ae6d9060208082526011908201527008c8a8abe829a9eaa9ca8bea0a48a8c92b607b1b604082015260600190565b60408051601f198184030181528282528051602091820120908301526001600160a01b03808616918301919091528316606082015260800160405160208183030381529060405280519060200120905092915050565b60078201546004830154600091829161aedb90616209565b61aee5919061d3ad565b9050600081121561aefa5760009150506108af565b600061af058561c1c7565b80519091501561b09757600285015460009061af29906001600160a01b03166165a9565b600287015490915060009061af4a9087906001600160a01b0316600161be1b565b905060005b835181101561b09357600088600e01600086848151811061af725761af7261d161565b60200260200101516001600160a01b03166001600160a01b0316815260200190815260200160002090506000816004015411801561afd4575061afb88160040154616209565b6003820154825461afc890616209565b61afd2919061d3ad565b125b1561b08a57600061b058826003015461aff08460000154616209565b61affd8560040154616209565b61b007919061d3f1565b61b011919061d3f1565b61b03388868151811061b0265761b02661d161565b60200260200101516165a9565b616f418c8a888151811061b0495761b04961d161565b6020026020010151600161be1b565b9050600061b067828787619a84565b90508088131561b0825761b07b818961d3f1565b975061b087565b600097505b50505b5060010161af4f565b5050505b600061b0a98361ad506148fe8961b0e5565b905061b0bb8660040160020154616209565b811361b0c8576000616841565b61684161b0db8760040160020154616209565b6180d7908361d3f1565b805460009061b0fc906001600160a01b031661924d565b6020015192915050565b60008260000361b1535761b11982616209565b61b1268560020154616209565b6003860154865461b13690616209565b61b140919061d3ad565b61b14a919061d3f1565b12159050611a5d565b61b15c82616209565b61b1698560020154616209565b61b140866003015461b17e8860000154616209565b61b188919061d3ad565b61ad5087616209565b61b20e604051806101a0016040528060006001600160a01b0316815260200160006001600160a01b0316815260200160008152602001600081526020016000815260200160008152602001600081526020016000815260200160008152602001600081526020016000815260200160008152602001600081525090565b6001600160a01b03808516825283166020820152815460408201819052600183015460608301819052600284015460808401819052600385015460a08501819052600486015460c0860181905260e086019490945261010085019290925261012084015261014083015261016082015261b2866134c0565b6101808201529392505050565b7f3c20d1ba6bcc5e5bd62d967908bf1ce684e6b52dbaab9f84ebfbf1b184b46bf8816000015182602001518360400151846060015185608001518660a001518760c001518860e001518961010001518a61012001518b61014001518c61016001518d61018001516040516161fe9d9c9b9a999897969594939291906001600160a01b039d8e1681529b909c1660208c015260408b019990995260608a0197909752608089019590955260a088019390935260c087019190915260e08601526101008501526101208401526101408301526101608201526101808101919091526101a00190565b61b3b26040518060c001604052806000815260200160008152602001600081526020016000815260200160608152602001606081525090565b61353c61c1d5565b61b40b60405180610100016040528060006001600160a01b03168152602001600081526020016000815260200160008152602001600081526020016000815260200160008152602001600081525090565b6001600160a01b0383168152815460208201819052600183015460408301819052600284015460608401819052608084019290925260a083015260c082015261b4526134c0565b60e082015292915050565b805160208083015160408085015160608087015160808089015160a0808b015160c0808d015160e0808f01518b516001600160a01b03909f168f529c8e019b909b52988c0197909752948a0193909352908801528601528401528201527f217ba1d63771ad2228865ab2d862a89115d536eabbe8315c584eafe090d7f42290610100016161fe565b6000808460e0015160000361b4ff5750600090508061b5c8565b84604001511561b56657600061b54461b51c876101000151616209565b613cb761b53761b5308a6101000151616209565b889061c4a7565b617d9f8a60e00151616209565b905061b55d8161b5578860a001516165a9565b86619a84565b9250905061b5c8565b600061b59461b579876101000151616209565b613cb761b5378761b58e8b6101000151616209565b9061c4a7565b9050600061b5a8868860a00151600061be1b565b905061b5c18261b5bb8960a001516165a9565b83619a84565b9350909150505b935093915050565b60006116c561b5df8584616cf6565b61923a8661b5ee8760026163a4565b61c4b3565b60606108af82600501613605565b600084600a01548560090154148061b617575081155b1561b624575060006116c5565b600082131561b6a257600061b6538660090154616811886008015489600a01548a60090154613d6f919061d1d4565b905061b6628161923a85616557565b915061b68386600801546168118860090154856163a490919063ffffffff16565b86600a01600082825461b696919061d18d565b9091555061b720915050565b600061b6c186600801546168118860090154613d6f876180d79061d3d5565b90508086600a01541161b6f5576000600a87018190556009870154600888015461b6ee92616811916163a4565b915061b71e565b8086600a01600082825461b709919061d1d4565b9091555061b71b90506180d78461d3d5565b91505b505b83801561b72d5750600081115b156116c5576116c585846008600061c4c3565b6001600160a01b038216600090815260068401602052604090205481111561b7b85760405162461bcd60e51b815260206004820152602560248201527f737562546f6b656e4c696162696c697479206c657373207468616e206c696162604482015264696c69747960d81b60648201526084016102e5565b6001600160a01b038216600090815260068401602052604081208054839290619a2c90849061d1d4565b600483015482111561b8465760405162461bcd60e51b815260206004820152602760248201527f6261736520746f6b656e20616d6f756e74206c657373207468616e2073756220604482015266616d6f756e742160c81b60648201526084016102e5565b801561b8a1578254600284015460009161b870916001600160a01b0391821691166004870161b191565b90508284600401600001600082825461b889919061d1d4565b9091555050600484015460e0820152612d808161b293565b81836004016000016000828254619a2c919061d1d4565b801561b8fb578254600284015460009161b8e2916001600160a01b0391821691166004870161b191565b90508284600401600001600082825461b889919061d18d565b81836004016000016000828254619a2c919061d18d565b6001600160a01b03821660009081526002840160205260408120805483111561b93f576000915050611a5d565b600061b949619d32565b90508060000361b9705760018201548254859161b9659161d1d4565b101592505050611a5d565b6001820154825461b9659061b98690879061d1d4565b83616cf6565b60008082604051602001611ef991906040808252601e908201527f78797a2e656c66692e73746f726167652e496e737572616e636546756e64000060608201526001600160a01b0391909116602082015260800190565b600080808061b9fb866001600160a01b03871661c593565b9097909650945050505050565b60006116c5846001600160a01b0385168461c5d5565b6060831561ba8d57825160000361ba86576001600160a01b0385163b61ba865760405162461bcd60e51b815260206004820152601d60248201527f416464726573733a2063616c6c20746f206e6f6e2d636f6e747261637400000060448201526064016102e5565b50816116c5565b6116c5838361c5f2565b60606108af82600201613605565b6000826020015183600001511161babe57506000611a5d565b600061baec8460200151856000015161bad7919061d1d4565b61bae0876165a9565b616e328689600161c61c565b90506120fa8161bafb87618db1565b60400151616cf6565b6000826000015183602001511161bb1d57506000611a5d565b600061bb368460000151856020015161bad7919061d1d4565b9050600061bb4386618db1565b6101000151111561bb6f5761bb658161bb5b87618db1565b6101000151616cf6565b619b08908261d18d565b9050611a5d565b8151606083015160208401516000929161bb8f9161d1d4565b1161bb9c57506000611a5d565b8251606084015160208501516116c5929161bbb69161d1d4565b61bbc0919061d1d4565b61bbc9866165a9565b616e328588600161c61c565b80546001600160a01b0316610ff357604051633902b86b60e11b815260040160405180910390fd5b6060600061bc0a8461b5f3565b9050600061bc18828561c67e565b67ffffffffffffffff81111561bc305761bc3061cf0d565b60405190808252806020026020018201604052801561bc6957816020015b61bc5661cafb565b81526020019060019003908161bc4e5790505b5090506000805b835181101561be1057600061bc9085838151811061a0e95761a0e961d161565b6040805161022081018252825481526001830154602080830191909152600284015460ff808216151584860152610100808304909116151560608086019182526001600160a01b036201000090940484166080808801919091526003890154851660a08089019190915260048a015490951660c08089019190915260058a015460e0808a019190915260068b01549589019590955260078a015461012089015260088a015461014089015260098a0154610160890152600a8a0154610180890152600b8a01546101a089015288519485018952600c8a01548552600d8a015496850196909652600e89015497840197909752600f880154908301526010870154958201959095526011860154918101919091526012850154918101919091526101c082015260138301546101e0820152601490920154610200830152519091508715159015150361be07578084848151811061bdee5761bdee61d161565b602090810291909101015261be0460018461d18d565b92505b5060010161bc70565b509095945050505050565b6000805b845181101561beb457836001600160a01b031685828151811061be445761be4461d161565b6020026020010151600001516001600160a01b03160361beac578261be865784818151811061be755761be7561d161565b602002602001015160600151619b08565b84818151811061be985761be9861d161565b602002602001015160400151915050611a5d565b60010161be1f565b506116c5838361405f565b6000611a5d619a4c620186a0616209565b6000611a5d828461d3ad565b600061bf216040518060e001604052806000815260200160008152602001600060ff168152602001600081526020016000815260200160008152602001600081525090565b61bf3384602001518560400151616d59565b606082015260e084015161bf639061bf4a90616209565b856101c00151608001518360600151616ecd919061d3f1565b608082015260a084015161bf76906165a9565b60ff166040808301919091528401511561bfc55761bfaa81608001518260400151616f41868860a00151896040015161be1b565b846101c0015160c0015161bfbe919061d3ad565b815261bfe1565b8060800151846101c0015160c0015161bfde919061d3ad565b81525b600061bff085602001516122ae565b6040805160c08101909152815481526001820154909190602083019060ff16600381111561c0205761c02061cd6b565b600381111561c0315761c03161cd6b565b815260018201546001600160a01b0361010090910481166020830152600283015481166040830152600383015416606082015260048201805460809092019161c0799061d1a0565b80601f016020809104026020016040519081016040528092919081815260200182805461c0a59061d1a0565b801561c0f25780601f1061c0c75761010080835404028352916020019161c0f2565b820191906000526020600020905b81548152906001019060200180831161c0d557829003601f168201915b505050505081525050905061c114816040015186604001518760a00151616d06565b60a083015261014085015161012086015161c1549161c13b91614a9a90620186a09061d1d4565b866101c00151602001518460a00151616468919061d1d4565b8260c001818152505061c17d8260c001518360400151616e32878960a001518a6040015161c61c565b856101c001516060015161c191919061d18d565b6020830181905261c1a190616209565b82516101c08701515161c1b390616209565b61c1bd919061d3ad565b6120fa919061d3ad565b60606108af82600c01613605565b61c20e6040518060c001604052806000815260200160008152602001600081526020016000815260200160608152602001606081525090565b60008060405160200161c244906020808252600f908201526e5553445f504f4f4c5f434f4e46494760881b604082015260600190565b60405160208183030381529060405280519060200120905061c29881604051602001611bd8906020808252601490820152731413d3d317d3125455525112551657d31253525560621b604082015260600190565b835260405161c2d1908290611bd8906020016020808252600d908201526c4d494e545f4645455f5241544560981b604082015260600190565b83602001818152505061c31181604051602001611bd8906020808252600f908201526e52454445454d5f4645455f5241544560881b604082015260600190565b83604001818152505061c35781604051602001611bd890602080825260159082015274155394d1551513115117d490551253d7d312535255605a1b604082015260600190565b606084015260405161c39b90829061587490602001602080825260159082015274535550504f52545f535441424c455f544f4b454e5360581b604082015260600190565b608084018190525167ffffffffffffffff81111561c3bb5761c3bb61cf0d565b60405190808252806020026020018201604052801561c3e4578160200160208202803683370190505b5060a084015260005b83608001515181101561c4a15761c478828560800151838151811061c4145761c41461d161565b602002602001015160405160200161c42b9061d906565b6040516020818303038152906040528051906020012060405160200161c4539392919061d8d3565b60405160208183030381529060405280519060200120846135f290919063ffffffff16565b8460a00151828151811061c48e5761c48e61d161565b602090810291909101015260010161c3ed565b50505090565b6000611a5d828461d3f1565b6000611a5d83620186a08461978c565b6002840154600185015460038601547fee2b9c77532fd89e66e2f431c2001e4bcc30fb5bc62ee9cdac252f89540067ae92869261c51c926001600160a01b0362010000840481169391169060ff610100909104166144cd565b8487604051806101a0016040528087815260200160008152602001600081526020016000815260200160008152602001600081526020016000815260200160008152602001600081526020016000815260200160008152602001600081526020016000815250604051618c2b95949392919061d6c5565b600081815260028301602052604081205481908061c5c25761c5b5858561c80b565b9250600091506134599050565b600192509050613459565b509250929050565b600082815260028401602052604081208290556116c5848461390c565b81511561c6025781518083602001fd5b8060405162461bcd60e51b81526004016102e5919061d9a2565b6000805b845181101561beb457836001600160a01b031685828151811061c6455761c64561d161565b6020026020010151600001516001600160a01b03160361c676578261be865784818151811061be755761be7561d161565b60010161c620565b60008061c68961cafb565b60005b855181101561ab265761c6aa86828151811061a0e95761a0e961d161565b6040805161022081018252825481526001830154602080830191909152600284015460ff808216151584860152610100808304909116151560608086019182526001600160a01b036201000090940484166080808801919091526003890154851660a08089019190915260048a015490951660c08089019190915260058a015460e0808a019190915260068b01549589019590955260078a015461012089015260088a015461014089015260098a0154610160890152600a8a0154610180890152600b8a01546101a089015288519485018952600c8a01548552600d8a015496850196909652600e89015497840197909752600f880154908301526010870154958201959095526011860154918101919091526012850154918101919091526101c082015260138301546101e0820152601490920154610200830152519092508515159015150361c8035761c80060018461d18d565b92505b60010161c68c565b6000611a5d83836138bd565b60405180604001604052806000815260200161c8bd60408051610220810182526000808252602082018190529091820190815260200160008152602001600081526020016000815260200160001515815260200160001515815260200160006001600160a01b0316815260200160008152602001600081526020016000815260200160008152602001600081526020016000815260200160008152602001600081525090565b905290565b60405180610100016040528060008152602001600081526020016000815260200160008152602001600081526020016000815260200160008152602001600081525090565b60405180610120016040528060001515815260200160008152602001600081526020016000815260200160008152602001600081526020016000815260200160008152602001600081525090565b6040518061014001604052806000815260200160008152602001600081526020016000815260200160008152602001600081526020016000815260200160008152602001600081526020016000151581525090565b6040518060e0016040528060008152602001600081526020016000815260200160008152602001600081526020016000815260200160006001600160a01b031681525090565b604051806102c0016040528060006001600160a01b0316815260200161ca1461cafb565b8152602001600081526020016000815260200160008152602001600081526020016000815260200160008152602001600081526020016000815260200160008152602001600081526020016000815260200160008152602001600081526020016000815260200160008152602001600081526020016000815260200160008152602001600081526020016000151581525090565b604051806101400160405280600081526020016000815260200160008152602001600081526020016000815260200160008152602001600081526020016000815260200160008152602001606081525090565b604051806102200160405280600080191681526020016000801916815260200160001515815260200160001515815260200160006001600160a01b0316815260200160006001600160a01b0316815260200160006001600160a01b031681526020016000815260200160008152602001600081526020016000815260200160008152602001600081526020016000815260200161cbce6040518060e00160405280600081526020016000815260200160008152602001600081526020016000815260200160008152602001600081525090565b815260200160008152602001600081525090565b60008060006040848603121561cbf757600080fd5b83359250602084013567ffffffffffffffff8082111561cc1657600080fd5b818601915086601f83011261cc2a57600080fd5b81358181111561cc3957600080fd5b8760208260071b850101111561cc4e57600080fd5b6020830194508093505050509250925092565b60006101e08284031215610b7e57600080fd5b6000806020838503121561cc8757600080fd5b823567ffffffffffffffff8082111561cc9f57600080fd5b818501915085601f83011261ccb357600080fd5b81358181111561ccc257600080fd5b8660206101e08302850101111561ccd857600080fd5b60209290920196919550909350505050565b6020808252825182820181905260009190848201906040850190845b8181101561cd225783518352928401929184019160010161cd06565b50909695505050505050565b6001600160a01b0381168114610ff357600080fd5b80356105d98161cd2e565b60006020828403121561cd6057600080fd5b8135611a5d8161cd2e565b634e487b7160e01b600052602160045260246000fd5b6003811061cd915761cd9161cd6b565b9052565b6004811061cd915761cd9161cd6b565b80516001600160a01b0316825260208101516020830152604081015161cdce604084018261cd81565b50606081015161cde1606084018261cd81565b50608081015161cdf4608084018261cd95565b5060a081015161ce0760a084018261cd81565b5060c081015161ce1b60c084018215159052565b5060e081015161ce2f60e084018215159052565b50610100818101516001600160a01b03169083015261012080820151908301526101408082015190830152610160808201519083015261018080820151908301526101a080820151908301526101c080820151908301526101e0808201519083015261020090810151910152565b6020808252825182820181905260009190848201906040850190845b8181101561cd225783518051845285015161ced68685018261cda5565b5092840192610240929092019160010161ceb9565b6000806040838503121561cefe57600080fd5b50508035926020909101359150565b634e487b7160e01b600052604160045260246000fd5b6040516101e0810167ffffffffffffffff8111828210171561cf5557634e487b7160e01b600052604160045260246000fd5b60405290565b60006080828403121561cf6d57600080fd5b6040516080810181811067ffffffffffffffff8211171561cf9e57634e487b7160e01b600052604160045260246000fd5b604052823561cfac8161cd2e565b8152602083013561cfbc8161cd2e565b6020820152604083810135908201526060928301359281019290925250919050565b60006020828403121561cff057600080fd5b8151611a5d8161cd2e565b60038110610ff357600080fd5b80356105d98161cffb565b60006020828403121561d02557600080fd5b8135611a5d8161cffb565b8015158114610ff357600080fd5b80356105d98161d030565b60006020828403121561d05b57600080fd5b8135611a5d8161d030565b8035600481106105d957600080fd5b60006101e0828403121561d08857600080fd5b61d09061cf23565b8235815261d0a06020840161d03e565b602082015261d0b16040840161d03e565b604082015261d0c26060840161d008565b606082015261d0d36080840161d008565b608082015261d0e460a0840161d066565b60a082015261d0f560c0840161d008565b60c082015261d10660e0840161cd43565b60e0820152610100838101359082015261012080840135908201526101408084013590820152610160808401359082015261018080840135908201526101a080840135908201526101c0928301359281019290925250919050565b634e487b7160e01b600052603260045260246000fd5b634e487b7160e01b600052601160045260246000fd5b808201808211156108af576108af61d177565b600181811c9082168061d1b457607f821691505b602082108103610b7e57634e487b7160e01b600052602260045260246000fd5b818103818111156108af576108af61d177565b80820281158282048414176108af576108af61d177565b81546001600160a01b03168152610220810160018301546020830152600283015460ff61d2306040850182841661cd81565b61d24260608501828460081c1661cd81565b61d25460808501828460101c1661cd95565b61d26660a08501828460181c1661cd81565b61d27960c08501828460201c1615159052565b61d28c60e08501828460281c1615159052565b5060301c6001600160a01b0316610100830152600383015461012083015260048301546101408301526005830154610160830152600683015461018083015260078301546101a083015260088301546101c083015260098301546101e0830152600a909201546102009091015290565b610240810161d30b828561cda5565b826102208301529392505050565b610260810161d328828661cda5565b6102208201939093526102400152919050565b60006001820161d34d5761d34d61d177565b5060010190565b60006020828403121561d36657600080fd5b5051919050565b60005b8381101561d38857818101518382015260200161d370565b50506000910152565b6000825161d3a381846020870161d36d565b9190910192915050565b808201828112600083128015821682158216171561d3cd5761d3cd61d177565b505092915050565b6000600160ff1b820161d3ea5761d3ea61d177565b5060000390565b8181036000831280158383131683831282161715618d2c57618d2c61d177565b80516020808301519190811015610b7e5760001960209190910360031b1b16919050565b60006020828403121561d44757600080fd5b8151611a5d8161d030565b80820260008212600160ff1b8414161561d46e5761d46e61d177565b81810583148215176108af576108af61d177565b634e487b7160e01b600052601260045260246000fd5b60008261d4a75761d4a761d482565b600160ff1b82146000198414161561d4c15761d4c161d177565b500590565b6001600160a01b03831681528154602082015260018201546040820152600282015460608201526003820154608082015260a08101611a5d565b81548152600182015460208201526002820154604082015260038201546060820152608081016108af565b60006020828403121561d53d57600080fd5b815160ff81168114611a5d57600080fd5b600181815b8085111561c5cd57816000190482111561d56f5761d56f61d177565b8085161561d57c57918102915b93841c939080029061d553565b60008261d598575060016108af565b8161d5a5575060006108af565b816001811461d5bb576002811461d5c55761d5e1565b60019150506108af565b60ff84111561d5d65761d5d661d177565b50506001821b6108af565b5060208310610133831016604e8410600b841016171561d604575081810a6108af565b61d60e838361d54e565b806000190482111561d6225761d62261d177565b029392505050565b6000611a5d60ff84168361d589565b600f811061cd915761cd9161cd6b565b6001600160a01b03868116825285166020820152610160810161d6906040830186805182526020810151602083015260408101516040830152606081015160608301525050565b835460c0830152600184015460e08301526002840154610100830152600384015461012083015261684161014083018461d639565b858152602081018590526104e081016009851061d6e45761d6e461cd6b565b8460408301528354606083015260018401546080830152600284015461d71160a0840160ff831615159052565b61d72560c0840160ff8360081c1615159052565b6001600160a01b03601082901c1660e08401525060038401546001600160a01b03166001600160a01b0381166101008401525060048401546001600160a01b03166001600160a01b0381166101208401525060058401546101408301526006840154610160830152600784015461018083015260088401546101a083015260098401546101c0830152600a8401546101e0830152600b840154610200830152600c840154610220830152600d840154610240830152600e840154610260830152600f84015461028083015260108401546102a083015260118401546102c083015260128401546102e08301526013840154610300830152601484015461032083015282516103408301526020830151610360830152604083015161038083015260608301516103a083015260808301516103c083015260a08301516103e083015260c083015161040083015260e08301516104208301526101008301516104408301526101208301516104608301526101408301516104808301526101608301516104a08301526101808301516104c0830152616841565b634e487b7160e01b600052603160045260246000fd5b9283526001600160a01b03919091166020830152604082015260600190565b60008261d9015761d90161d482565b500490565b60208082526025908201527f535441424c455f544f4b454e535f424f52524f57494e475f494e5445524553546040820152645f5241544560d81b606082015260800190565b60008261d95a5761d95a61d482565b500690565b60208082526023908201527f686f6c64206661696c656420776974682062616c616e6365206e6f7420656e6f6040820152620eaced60eb1b606082015260800190565b602081526000825180602084015261d9c181604085016020870161d36d565b601f01601f1916919091016040019291505056fe1d59acd5f3bb87326c498fe747e339bda33b5370b6f8df63a48f232d73efb748a2646970667358221220b1936bfcc41c5e3f0507d3a1b0971215ab121931dff614a150308a8fc3d929b564736f6c63430008190033","linkReferences":{}},"methodIdentifiers":{"batchCreateOrderRequest((bytes32,bool,bool,uint8,uint8,uint8,uint8,address,uint256,uint256,uint256,uint256,uint256,uint256,uint256)[])":"89e74c0a","cancelOrder(uint256,bytes32)":"b68fb020","createOrderRequest((bytes32,bool,bool,uint8,uint8,uint8,uint8,address,uint256,uint256,uint256,uint256,uint256,uint256,uint256))":"4b05360a","executeOrder(uint256,(address,address,int256,int256)[])":"22dabfa5","getAccountOrders(address)":"95083527"},"id":65}