{"abi":[{"type":"function","name":"cancelClaimRewards","inputs":[{"name":"requestId","type":"uint256","internalType":"uint256"},{"name":"reasonCode","type":"bytes32","internalType":"bytes32"}],"outputs":[],"stateMutability":"nonpayable"},{"type":"function","name":"createClaimRewards","inputs":[{"name":"claimUsdToken","type":"address","internalType":"address"},{"name":"executionFee","type":"uint256","internalType":"uint256"}],"outputs":[],"stateMutability":"payable"},{"type":"function","name":"distributeFeeRewards","inputs":[{"name":"interval","type":"uint256","internalType":"uint256"},{"name":"oracles","type":"tuple[]","internalType":"struct OracleProcess.OracleParam[]","components":[{"name":"token","type":"address","internalType":"address"},{"name":"targetToken","type":"address","internalType":"address"},{"name":"minPrice","type":"int256","internalType":"int256"},{"name":"maxPrice","type":"int256","internalType":"int256"}]}],"outputs":[],"stateMutability":"nonpayable"},{"type":"function","name":"executeClaimRewards","inputs":[{"name":"requestId","type":"uint256","internalType":"uint256"},{"name":"oracles","type":"tuple[]","internalType":"struct OracleProcess.OracleParam[]","components":[{"name":"token","type":"address","internalType":"address"},{"name":"targetToken","type":"address","internalType":"address"},{"name":"minPrice","type":"int256","internalType":"int256"},{"name":"maxPrice","type":"int256","internalType":"int256"}]}],"outputs":[],"stateMutability":"nonpayable"},{"type":"function","name":"getAccountFeeRewards","inputs":[{"name":"account","type":"address","internalType":"address"}],"outputs":[{"name":"","type":"tuple","internalType":"struct IFee.AccountFeeRewards","components":[{"name":"account","type":"address","internalType":"address"},{"name":"stakeTokens","type":"address[]","internalType":"address[]"},{"name":"tokens","type":"address[]","internalType":"address[]"},{"name":"rewards","type":"uint256[]","internalType":"uint256[]"}]}],"stateMutability":"view"},{"type":"function","name":"getAccountUsdFeeReward","inputs":[{"name":"account","type":"address","internalType":"address"}],"outputs":[{"name":"","type":"tuple","internalType":"struct IFee.AccountUsdFeeReward","components":[{"name":"account","type":"address","internalType":"address"},{"name":"stakeToken","type":"address","internalType":"address"},{"name":"reward","type":"uint256","internalType":"uint256"}]}],"stateMutability":"view"},{"type":"function","name":"getAccountsFeeRewards","inputs":[{"name":"accounts","type":"address[]","internalType":"address[]"}],"outputs":[{"name":"","type":"tuple[]","internalType":"struct IFee.AccountFeeRewards[]","components":[{"name":"account","type":"address","internalType":"address"},{"name":"stakeTokens","type":"address[]","internalType":"address[]"},{"name":"tokens","type":"address[]","internalType":"address[]"},{"name":"rewards","type":"uint256[]","internalType":"uint256[]"}]}],"stateMutability":"view"},{"type":"function","name":"getCumulativeRewardsPerStakeToken","inputs":[{"name":"stakeToken","type":"address","internalType":"address"}],"outputs":[{"name":"","type":"uint256","internalType":"uint256"}],"stateMutability":"view"},{"type":"function","name":"getDaoTokenFee","inputs":[{"name":"stakeToken","type":"address","internalType":"address"},{"name":"token","type":"address","internalType":"address"}],"outputs":[{"name":"","type":"uint256","internalType":"uint256"}],"stateMutability":"view"},{"type":"function","name":"getMarketTokenFee","inputs":[{"name":"symbol","type":"bytes32","internalType":"bytes32"},{"name":"token","type":"address","internalType":"address"}],"outputs":[{"name":"","type":"uint256","internalType":"uint256"}],"stateMutability":"view"},{"type":"function","name":"getPoolTokenFee","inputs":[{"name":"stakeToken","type":"address","internalType":"address"},{"name":"token","type":"address","internalType":"address"}],"outputs":[{"name":"","type":"uint256","internalType":"uint256"}],"stateMutability":"view"},{"type":"function","name":"getStakingTokenFee","inputs":[{"name":"stakeToken","type":"address","internalType":"address"},{"name":"token","type":"address","internalType":"address"}],"outputs":[{"name":"","type":"uint256","internalType":"uint256"}],"stateMutability":"view"},{"type":"event","name":"CancelClaimRewardsEvent","inputs":[{"name":"requestId","type":"uint256","indexed":true,"internalType":"uint256"},{"name":"data","type":"tuple","indexed":false,"internalType":"struct ClaimRewards.Request","components":[{"name":"account","type":"address","internalType":"address"},{"name":"claimUsdToken","type":"address","internalType":"address"},{"name":"executionFee","type":"uint256","internalType":"uint256"}]},{"name":"reasonCode","type":"bytes32","indexed":false,"internalType":"bytes32"}],"anonymous":false},{"type":"event","name":"ClaimRewardsSuccessEvent","inputs":[{"name":"requestId","type":"uint256","indexed":true,"internalType":"uint256"},{"name":"data","type":"tuple","indexed":false,"internalType":"struct ClaimRewards.Request","components":[{"name":"account","type":"address","internalType":"address"},{"name":"claimUsdToken","type":"address","internalType":"address"},{"name":"executionFee","type":"uint256","internalType":"uint256"}]},{"name":"stakeTokens","type":"address[]","indexed":false,"internalType":"address[]"},{"name":"claimAmounts","type":"uint256[]","indexed":false,"internalType":"uint256[]"}],"anonymous":false},{"type":"event","name":"CreateClaimRewardsEvent","inputs":[{"name":"requestId","type":"uint256","indexed":true,"internalType":"uint256"},{"name":"data","type":"tuple","indexed":false,"internalType":"struct ClaimRewards.Request","components":[{"name":"account","type":"address","internalType":"address"},{"name":"claimUsdToken","type":"address","internalType":"address"},{"name":"executionFee","type":"uint256","internalType":"uint256"}]}],"anonymous":false},{"type":"event","name":"LossExecutionFeeUpdateEvent","inputs":[{"name":"preAmount","type":"uint256","indexed":false,"internalType":"uint256"},{"name":"amount","type":"uint256","indexed":false,"internalType":"uint256"}],"anonymous":false},{"type":"event","name":"PoolTokenUpdateEvent","inputs":[{"name":"stakeToken","type":"address","indexed":false,"internalType":"address"},{"name":"token","type":"address","indexed":false,"internalType":"address"},{"name":"preAmount","type":"uint256","indexed":false,"internalType":"uint256"},{"name":"preLiability","type":"uint256","indexed":false,"internalType":"uint256"},{"name":"preHoldAmount","type":"uint256","indexed":false,"internalType":"uint256"},{"name":"preUnsettledAmount","type":"int256","indexed":false,"internalType":"int256"},{"name":"preLossAmount","type":"uint256","indexed":false,"internalType":"uint256"},{"name":"amount","type":"uint256","indexed":false,"internalType":"uint256"},{"name":"liability","type":"uint256","indexed":false,"internalType":"uint256"},{"name":"holdAmount","type":"uint256","indexed":false,"internalType":"uint256"},{"name":"unsettledAmount","type":"int256","indexed":false,"internalType":"int256"},{"name":"lossAmount","type":"uint256","indexed":false,"internalType":"uint256"},{"name":"updateBlock","type":"uint256","indexed":false,"internalType":"uint256"}],"anonymous":false},{"type":"event","name":"StakingAccountFeeRewardsUpdateEvent","inputs":[{"name":"account","type":"address","indexed":false,"internalType":"address"},{"name":"stakeToken","type":"address","indexed":false,"internalType":"address"},{"name":"realisedRewardsTokenAmount","type":"uint256","indexed":false,"internalType":"uint256"},{"name":"openRewardsPerStakeToken","type":"uint256","indexed":false,"internalType":"uint256"}],"anonymous":false},{"type":"event","name":"UpdateFeeRewardsCumulativeEvent","inputs":[{"name":"stakeTokens","type":"address[]","indexed":false,"internalType":"address[]"},{"name":"cumulativeRewardsPerStakeToken","type":"tuple[]","indexed":false,"internalType":"struct FeeRewards.CumulativeRewardsPerStakeTokenData[]","components":[{"name":"cumulativeRewardsPerStakeToken","type":"uint256","internalType":"uint256"},{"name":"feeAmount","type":"uint256","internalType":"uint256"},{"name":"totalSupply","type":"uint256","internalType":"uint256"}]}],"anonymous":false},{"type":"event","name":"UsdPoolTokenUpdateEvent","inputs":[{"name":"token","type":"address","indexed":false,"internalType":"address"},{"name":"preAmount","type":"uint256","indexed":false,"internalType":"uint256"},{"name":"preHoldAmount","type":"uint256","indexed":false,"internalType":"uint256"},{"name":"preUnsettledAmount","type":"uint256","indexed":false,"internalType":"uint256"},{"name":"amount","type":"uint256","indexed":false,"internalType":"uint256"},{"name":"holdAmount","type":"uint256","indexed":false,"internalType":"uint256"},{"name":"unsettledAmount","type":"uint256","indexed":false,"internalType":"uint256"},{"name":"updateBlock","type":"uint256","indexed":false,"internalType":"uint256"}],"anonymous":false},{"type":"error","name":"ClaimRewardsRequestNotExists","inputs":[]},{"type":"error","name":"ClaimTokenNotSupported","inputs":[]},{"type":"error","name":"ExecutionFeeNotEnough","inputs":[]},{"type":"error","name":"InvalidRoleAccess","inputs":[{"name":"account","type":"address","internalType":"address"},{"name":"role","type":"bytes32","internalType":"bytes32"}]},{"type":"error","name":"PriceIsZero","inputs":[]},{"type":"error","name":"TokenTransferError","inputs":[{"name":"token","type":"address","internalType":"address"},{"name":"receiver","type":"address","internalType":"address"},{"name":"amount","type":"uint256","internalType":"uint256"}]},{"type":"error","name":"TransferErrorWithVaultBalanceNotEnough","inputs":[{"name":"vault","type":"address","internalType":"address"},{"name":"token","type":"address","internalType":"address"},{"name":"receiver","type":"address","internalType":"address"},{"name":"amount","type":"uint256","internalType":"uint256"}]}],"bytecode":{"object":"0x6080604052348015600f57600080fd5b506171518061001f6000396000f3fe6080604052600436106100a75760003560e01c8063943144b711610064578063943144b71461019b578063ada56365146101ae578063b9ee8073146101db578063bc8f47c5146101fb578063e9e6741f1461021b578063ed3bb1471461023b57600080fd5b806351ebcaad146100ac57806355be18cb146100df5780635b9e52be146100ff5780635c99abaa1461012c5780637ad18303146101595780639084692c14610179575b600080fd5b3480156100b857600080fd5b506100cc6100c736600461686f565b61025b565b6040519081526020015b60405180910390f35b3480156100eb57600080fd5b506100cc6100fa36600461686f565b610270565b34801561010b57600080fd5b5061011f61011a3660046168a8565b61027c565b6040516100d691906169f0565b34801561013857600080fd5b5061014c610147366004616a54565b61033c565b6040516100d69190616a98565b34801561016557600080fd5b506100cc610174366004616a54565b610362565b34801561018557600080fd5b50610199610194366004616aa6565b61036d565b005b6101996101a9366004616b25565b6104cf565b3480156101ba57600080fd5b506101ce6101c9366004616a54565b6104de565b6040516100d69190616b51565b3480156101e757600080fd5b506100cc6101f636600461686f565b6104ef565b34801561020757600080fd5b506100cc610216366004616b64565b6104fb565b34801561022757600080fd5b50610199610236366004616aa6565b610507565b34801561024757600080fd5b50610199610256366004616b89565b61058f565b60006102678383610633565b90505b92915050565b60006102678383610653565b606060008267ffffffffffffffff81111561029957610299616bab565b6040519080825280602002602001820160405280156102d257816020015b6102bf6167db565b8152602001906001900390816102b75790505b50905060005b838110156103345761030f8585838181106102f5576102f5616bc1565b905060200201602081019061030a9190616a54565b610685565b82828151811061032157610321616bc1565b60209081029190910101526001016102d8565b509392505050565b604080516060810182526000808252602082018190529181019190915261026a826109bb565b600061026a82610b1a565b60005a90506103846525a2a2a822a960d11b610b3a565b600061038f85610b72565b80519091506001600160a01b03166103ba57604051630749e2d560e11b815260040160405180910390fd5b6104158484808060200260200160405190810160405280939291908181526020016000905b8282101561040b576103fc60808302860136819003810190616bd7565b815260200190600101906103df565b5050505050610bdd565b61041f8582610d5d565b6104276110b7565b6104c86040518060a00160405280306001600160a01b0316631f7592ea6040518163ffffffff1660e01b8152600401602060405180830381865afa158015610473573d6000803e3d6000fd5b505050506040513d601f19601f820116820180604052508101906104979190616c5a565b6001600160a01b039081168252604080860151602084015282018690523360608301528451166080909101526110c9565b5050505050565b6104da338383611172565b5050565b6104e66167db565b61026a82610685565b6000610267838361130b565b60006102678383611334565b60005a905061051e6525a2a2a822a960d11b610b3a565b61056f8383808060200260200160405190810160405280939291908181526020016000905b8282101561040b5761056060808302860136819003810190616bd7565b81526020019060010190610543565b61057884611368565b6105806110b7565b6105898161171e565b50505050565b60005a90506105a66525a2a2a822a960d11b610b3a565b60006105b184610b72565b80519091506001600160a01b03166105dc57604051630749e2d560e11b815260040160405180910390fd5b6105e784828561174a565b6105896040518060a00160405280306001600160a01b0316631f7592ea6040518163ffffffff1660e01b8152600401602060405180830381865afa158015610473573d6000803e3d6000fd5b60008061063f84611792565b905061064b81846117cb565b949350505050565b6000807fb31b5831e77ebf4a20e050d886d24b00d24f44760e3342d08fb455df41d4aafa5b905061064b8185856117ea565b61068d6167db565b600061069883611812565b905060006106a582611888565b90506106af6167db565b6001600160a01b038516815260208101829052815167ffffffffffffffff8111156106dc576106dc616bab565b604051908082528060200260200182016040528015610705578160200160208202803683370190505b506040820152815167ffffffffffffffff81111561072557610725616bab565b60405190808252806020026020018201604052801561074e578160200160208202803683370190505b50606082015260005b82518110156109b257600061078484838151811061077757610777616bc1565b6020026020010151611792565b905060006107b485848151811061079d5761079d616bc1565b60200260200101518761189690919063ffffffff16565b905060008584815181106107ca576107ca616bc1565b60209081029190910101516040516370a0823160e01b81526001600160a01b038b81166004830152909116906370a0823190602401602060405180830381865afa15801561081c573d6000803e3d6000fd5b505050506040513d601f19601f820116820180604052508101906108409190616c77565b905085848151811061085457610854616bc1565b60200260200101516001600160a01b031661086d6118b4565b6001600160a01b03161480610880575080155b1561088d575050506109aa565b60006108b18786815181106108a4576108a4616bc1565b60200260200101516118cf565b6002810154604088015180519293506001600160a01b0390911691879081106108dc576108dc616bc1565b60200260200101906001600160a01b031690816001600160a01b0316815250506000836001015411801561092a575061091484611926565b600184015460078601546109289190616ca6565b115b15610975576109528360010154610942866007015490565b61094c9190616ca6565b83611971565b8660600151868151811061096857610968616bc1565b6020026020010181815250505b8254606087015180518790811061098e5761098e616bc1565b602002602001018181516109a29190616cb9565b905250505050505b600101610757565b50949350505050565b60408051606081018252600080825260208201819052918101829052906109e183611812565b905060006109ed6118b4565b905060006109fb8383611896565b90506000610a0883611792565b6040516370a0823160e01b81526001600160a01b0388811660048301529192506000918516906370a0823190602401602060405180830381865afa158015610a54573d6000803e3d6000fd5b505050506040513d601f19601f82011682018060405250810190610a789190616c77565b835460018501549192509015801590610aab5750610a9583611926565b60018501546007850154610aa99190616ca6565b115b15610ae057610ad38460010154610ac3856007015490565b610acd9190616ca6565b83611986565b610add9082616cb9565b90505b6040518060600160405280896001600160a01b03168152602001866001600160a01b03168152602001828152509650505050505050919050565b600080610b2683611792565b9050610b33816007015490565b9392505050565b610b443382611992565b610b6f57604051632d7d0e0d60e21b8152336004820152602481018290526044015b60405180910390fd5b50565b6040805160608101825260008082526020820181905291810182905290610b976119c2565b60009384526020908152604093849020845160608101865281546001600160a01b0390811682526001830154169281019290925260020154938101939093525090919050565b6000610be7611a24565b905060005b8251811015610d585760006001600160a01b0316838281518110610c1257610c12616bc1565b6020026020010151602001516001600160a01b031603610cb157610cac838281518110610c4157610c41616bc1565b6020026020010151600001516040518060400160405280868581518110610c6a57610c6a616bc1565b6020026020010151604001518152602001868581518110610c8d57610c8d616bc1565b60200260200101516060015181525084611a689092919063ffffffff16565b610d50565b610d50838281518110610cc657610cc6616bc1565b602002602001015160000151848381518110610ce457610ce4616bc1565b6020026020010151602001516040518060400160405280878681518110610d0d57610d0d616bc1565b6020026020010151604001518152602001878681518110610d3057610d30616bc1565b60200260200101516060015181525085611ab0909392919063ffffffff16565b600101610bec565b505050565b80516000610d69611b2d565b90506000610d7683611812565b905060008083516001610d899190616cb9565b67ffffffffffffffff811115610da157610da1616bab565b604051908082528060200260200182016040528015610dca578160200160208202803683370190505b509050600084516001610ddd9190616cb9565b67ffffffffffffffff811115610df557610df5616bab565b604051908082528060200260200182016040528015610e1e578160200160208202803683370190505b50905060005b8551811015610f4a576000868281518110610e4157610e41616bc1565b6020026020010151905080848381518110610e5e57610e5e616bc1565b60200260200101906001600160a01b031690816001600160a01b0316815250506000610e8982611792565b9050610e958983611b4d565b610e9f8783611896565b8054909650600003610eb2575050610f42565b6000610ebd836118cf565b905060008760000154905080868681518110610edb57610edb616bc1565b6020908102919091010152610ef08282611cd0565b80826015016000828254610f049190616cb9565b90915550506002820154610f249085906001600160a01b03168d84611cdc565b506000885560078301546001890155610f3d8985611cf5565b505050505b600101610e24565b50610f5c86610f576118b4565b611b4d565b610f6e610f676118b4565b8590611896565b92506000610f9b8460000154610f878a60200151611d6a565b610f968b602001516000611dce565b611df3565b9050610fa56118b4565b8360018551610fb49190616ca6565b81518110610fc457610fc4616bc1565b60200260200101906001600160a01b031690816001600160a01b031681525050808260018451610ff49190616ca6565b8151811061100457611004616bc1565b602002602001018181525050600061101a611e18565b60208a015190915061102e90829084611e5c565b8454600582018054600090611044908490616cb9565b9091555061106190506110556118b4565b8a602001518a85611cdc565b506000855561106f8a611f40565b897f1381421ebd7b09002a5190c7991c752f85090332455b3788c74243749ff0839c8a86866040516110a393929190616ccc565b60405180910390a250505050505050505050565b6110c76110c2611a24565b611f78565b565b60005a82604001516110db9190616ca6565b905060006110e93a83616d30565b90506000808460200151831115611112576020850151925061110b8380616ca6565b9050611125565b8285602001516111229190616ca6565b91505b84516111409061113361206f565b5160208801513090611cdc565b5061114f85606001518461247f565b81156111635761116385608001518361247f565b80156104c8576104c8816124f1565b61117b82612562565b61119857604051630e3acbdd60e11b815260040160405180910390fd5b60006111a261206f565b90506111b382826101000151612579565b8134146112125760405162461bcd60e51b815260206004820152602760248201527f636c61696d2072657761726473207769746820657865637574696f6e20666565604482015266206572726f722160c81b6064820152608401610b66565b6040805160a0810182526001600160a01b0386811682528351166020820152908101839052600060608201526001608082015261124e906125a3565b50600061127a7f70a4fe736d969a4f05689bca1d0942cf6c61e8aa014001ecac1eaaef91288fbf61283e565b905060006112878261289e565b80546001600160a01b038881166001600160a01b031992831681178455600184018054928a1692909316821790925560028301879055604080519283526020830191909152810186905290915082907fbad2f8e942f778318f75b73346979a17cb63f605bd65b56c472edb8f7d9508409060600160405180910390a2505050505050565b6000807fb31b5831e77ebf4a20e050d886d24b00d24f44760e3342d08fb455df41d4ab01610678565b60008281527fb31b5831e77ebf4a20e050d886d24b00d24f44760e3342d08fb455df41d4aaf860205260408120819061063f565b60006113726128ba565b90506000815160016113849190616cb9565b67ffffffffffffffff81111561139c5761139c616bab565b6040519080825280602002602001820160405280156113c5578160200160208202803683370190505b5090506113d061291c565b60005b8251811015611552576113fe8382815181106113f1576113f1616bc1565b6020026020010151612a2a565b60010160019054906101000a90046001600160a01b031682828151811061142757611427616bc1565b60200260200101906001600160a01b031690816001600160a01b0316815250506114b661149784838151811061145f5761145f616bc1565b602002602001015160009081527fb31b5831e77ebf4a20e050d886d24b00d24f44760e3342d08fb455df41d4aaf86020526040902090565b8383815181106114a9576114a9616bc1565b6020026020010151612a75565b6114ce61149783838151811061077757610777616bc1565b6114eb6114e68383815181106108a4576108a4616bc1565b612b95565b61152783828151811061150057611500616bc1565b602002602001015183838151811061151a5761151a616bc1565b6020026020010151612c1f565b61154a82828151811061153c5761153c616bc1565b602002602001015185612fd2565b6001016113d3565b5061155b6118b4565b816001835161156a9190616ca6565b8151811061157a5761157a616bc1565b60200260200101906001600160a01b031690816001600160a01b0316815250506115de6115bf82600184516115af9190616ca6565b8151811061077757610777616bc1565b82600184516115ce9190616ca6565b815181106114a9576114a9616bc1565b61160e81600183516115f09190616ca6565b8151811061160057611600616bc1565b602002602001015184612fd2565b6000815167ffffffffffffffff81111561162a5761162a616bab565b60405190808252806020026020018201604052801561167f57816020015b61166c60405180606001604052806000815260200160008152602001600081525090565b8152602001906001900390816116485790505b50905060005b600183516116939190616ca6565b8110156116e1576116bc8382815181106116af576116af616bc1565b602002602001015161311a565b8282815181106116ce576116ce616bc1565b6020908102919091010152600101611685565b506116ea61323d565b81600184516116f99190616ca6565b8151811061170957611709616bc1565b6020026020010181905250610589828261339d565b60005a61172b9083616ca6565b905060006117393a83616d30565b90508015610d5857610d58816124f1565b61175383611f40565b827f3a2ec715986e6d399c73e79ec1979502be4b77464b993f1a1bdaafbac8bc35058383604051611785929190616d5d565b60405180910390a2505050565b6001600160a01b031660009081527fb31b5831e77ebf4a20e050d886d24b00d24f44760e3342d08fb455df41d4aaf96020526040902090565b6001600160a01b03166000908152600291909101602052604090205490565b6000806117f784846133ce565b60009081526002860160205260409020549150509392505050565b6000808260405160200161186991906040808252601f908201527f78797a2e656c66692e73746f726167652e5374616b696e674163636f756e740060608201526001600160a01b0391909116602082015260800190565b60408051601f1981840301815291905280516020909101209392505050565b606061026a8260010161345b565b6001600160a01b031660009081526004919091016020526040902090565b6000806118bf613468565b546001600160a01b031692915050565b60008082604051602001611869919060408082526017908201527f78797a2e656c66692e73746f726167652e4c70506f6f6c00000000000000000060608201526001600160a01b0391909116602082015260800190565b6000805b600883015481101561196b5782600801818154811061194b5761194b616bc1565b9060005260206000200154826119619190616cb9565b915060010161192a565b50919050565b60006102678383670de0b6b3a76400006134ac565b60006102678383613596565b60008061199d6135a2565b6001600160a01b038516600090815260208290526040902090915061064b90846135e6565b600080604051602001611a06906020808252601d908201527f78797a2e656c66692e73746f726167652e436c61696d52657761726473000000604082015260600190565b60408051601f19818403018152919052805160209091012092915050565b600080604051602001611a06906020808252601c908201527f78797a2e656c66692e73746f726167652e4f7261636c65507269636500000000604082015260600190565b611a7283836135fe565b611a8257611a808383613620565b505b6001600160a01b03909116600090815260029092016020908152604090922081518155910151600190910155565b604080516001600160a01b038581166020808401919091529085168284015282518083038401815260609092019092528051910120611af260048601826135e6565b611b0557611b036004860182613635565b505b6000908152600690940160209081526040909420815181559301516001909301929092555050565b60606000611b39613468565b9050611b478160020161345b565b91505090565b6000611b5883611812565b90506000611b668284611896565b90506000611b7384611792565b9050611b80816007015490565b826001015403611b91575050505050565b6040516370a0823160e01b81526001600160a01b038681166004830152600091908616906370a0823190602401602060405180830381865afa158015611bdb573d6000803e3d6000fd5b505050506040513d601f19601f82011682018060405250810190611bff9190616c77565b9050600081118015611c2b5750611c1582611926565b60018401546007840154611c299190616ca6565b115b15611cb457611c386118b4565b6001600160a01b0316856001600160a01b031614611c7857611c738360010154611c63846007015490565b611c6d9190616ca6565b82611971565b611c9b565b611c9b8360010154611c8b846007015490565b611c959190616ca6565b82611986565b836000016000828254611cae9190616cb9565b90915550505b60078201546001840155611cc88486611cf5565b505050505050565b6104da82826001613641565b6000611cec858585856000613721565b95945050505050565b81546001600160a01b038281166000818152600486016020908152604091829020805460019091015483519590961685529084019290925282015260608101919091527f6c91b1f647ea3a524740e83eb44a468110c48521ee1961bb3bf2f0872a04dd6c906080015b60405180910390a15050565b6000816001600160a01b031663313ce5676040518163ffffffff1660e01b8152600401602060405180830381865afa158015611daa573d6000803e3d6000fd5b505050506040513d601f19601f8201168201806040525081019061026a9190616d78565b600080611dda84613863565b905082611deb57806020015161064b565b519392505050565b600061064b84611e0485600a616e7f565b611e13856402540be400613596565b6134ac565b600080604051602001611a069060208082526018908201527f78797a2e656c66692e73746f726167652e557364506f6f6c0000000000000000604082015260600190565b611e678383836138f6565b611ebe5760405162461bcd60e51b815260206004820152602260248201527f737562206661696c656420776974682062616c616e6365206e6f7420656e6f756044820152610ced60f31b6064820152608401610b66565b6001600160a01b03821660009081526002840160205260408120611ee3908490613970565b6001600160a01b0384166000908152600286016020526040812080549293508492909190611f12908490616ca6565b90915550506001600160a01b0383166000908152600285016020526040902054608082015261058981613a13565b6000611f4a6119c2565b6000928352602052506040812080546001600160a01b03199081168255600182018054909116905560020155565b6000611f838261345b565b905060005b8151811015610d5857826002016000838381518110611fa957611fa9616bc1565b60200260200101516001600160a01b03166001600160a01b0316815260200190815260200160002060008082016000905560018201600090555050826003016000838381518110611ffc57611ffc616bc1565b60200260200101516001600160a01b03166001600160a01b031681526020019081526020016000206000808201600090556001820160009055505061206682828151811061204c5761204c616bc1565b602002602001015184600001613aa290919063ffffffff16565b50600101611f88565b6120c760405180610120016040528060006001600160a01b0316815260200160008152602001600081526020016000815260200160008152602001600081526020016000815260200160008152602001600081525090565b6000806040516020016120fa906020808252600c908201526b434841494e5f434f4e46494760a01b604082015260600190565b60405160208183030381529060405280519060200120905061219c81604051602001612147906020808252600d908201526c2ba920a82822a92faa27a5a2a760991b604082015260600190565b60405160208183030381529060405280519060200120604051602001612177929190918252602082015260400190565b6040516020818303038152906040528051906020012083613ab790919063ffffffff16565b6001600160a01b031683526040516122389082906121e3906020016020808252601290820152711352539517d1d054d7d1915157d31253525560721b604082015260600190565b60405160208183030381529060405280519060200120604051602001612213929190918252602082015260400190565b6040516020818303038152906040528051906020012083613ad690919063ffffffff16565b83602001818152505061227d816040516020016121e39060208082526014908201527314915111515357d1d054d7d1915157d31253525560621b604082015260600190565b8360400181815250506122d6816040516020016121e39060208082526022908201527f504c4143455f494e4352454153455f4f524445525f4741535f4645455f4c494d604082015261125560f21b606082015260800190565b606084015260405161232d9082906121e39060200160208082526022908201527f504c4143455f44454352454153455f4f524445525f4741535f4645455f4c494d604082015261125560f21b606082015260800190565b60808401526040516123869082906121e39060200160208082526024908201527f504f534954494f4e5f5550444154455f4d415247494e5f4741535f4645455f4c6040820152631253525560e21b606082015260800190565b60a08401526040516123e19082906121e39060200160208082526026908201527f504f534954494f4e5f5550444154455f4c455645524147455f4741535f46454560408201526517d31253525560d21b606082015260800190565b60c08401526040516124269082906121e39060200160208082526016908201527515d2551211149055d7d1d054d7d1915157d31253525560521b604082015260600190565b60e08401526040516124729082906121e3906020016020808252601b908201527f434c41494d5f524557415244535f4741535f4645455f4c494d49540000000000604082015260600190565b6101008401525090919050565b600061248961206f565b51604051632e1a7d4d60e01b8152600481018490529091506001600160a01b03821690632e1a7d4d90602401600060405180830381600087803b1580156124cf57600080fd5b505af11580156124e3573d6000803e3d6000fd5b50505050610d588383613ae9565b60006124fb613468565b9050818160070160008282546125119190616cb9565b909155505060078101547f5425704060c90c62f0083d9ff73df530b982ea5c64c0dab3c7d5da4761a4511990612548908490616ca6565b600783015460408051928352602083019190915201611d5e565b60008061256d611e18565b9050610b3381846135fe565b6125833a82616d30565b8210156104da576040516369343e3760e11b815260040160405180910390fd5b6000803090506000836060015160038111156125c1576125c1616d47565b15806125e25750836060015160038111156125de576125de616d47565b6003145b1561265057816001600160a01b0316631f7592ea6040518163ffffffff1660e01b8152600401602060405180830381865afa158015612625573d6000803e3d6000fd5b505050506040513d601f19601f820116820180604052508101906126499190616c5a565b905061272d565b8360600151600381111561266657612666616d47565b6001036126ab57816001600160a01b03166397e7b7f26040518163ffffffff1660e01b8152600401602060405180830381865afa158015612625573d6000803e3d6000fd5b836060015160038111156126c1576126c1616d47565b60020361272d57816001600160a01b03166308ba026f6040518163ffffffff1660e01b8152600401602060405180830381865afa158015612706573d6000803e3d6000fd5b505050506040513d601f19601f8201168201806040525081019061272a9190616c5a565b90505b602084015160808501511561282157600061274661206f565b60000151905085602001516001600160a01b0316816001600160a01b0316146127b15760405162461bcd60e51b815260206004820152601960248201527f4465706f736974207769746820746f6b656e206572726f7221000000000000006044820152606401610b66565b806001600160a01b031663d0e30db087604001516040518263ffffffff1660e01b81526004016000604051808303818588803b1580156127f057600080fd5b505af1158015612804573d6000803e3d6000fd5b505050505080915061281b82848860400151613b8c565b5061064b565b8451604086015161064b916001600160a01b038416918590613bd0565b600080612849613c28565b600084815260208290526040902054909150610457811015612879576128726104576001616cb9565b9050612887565b8061288381616e8e565b9150505b600093845260209190915260409092208290555090565b6000806128a96119c2565b600093845260205250506040902090565b606060006128c6613468565b6001810180546040805160208084028201810190925282815293945083018282801561291157602002820191906000526020600020905b8154815260200190600101908083116128fd575b505050505091505090565b6000612926611e18565b9050600061293a6129356118b4565b611792565b9050600061294783613c6c565b905060005b815181101561058957600061298383838151811061296c5761296c616bc1565b602002602001015185613c7790919063ffffffff16565b905080156129b9576129b98383815181106129a0576129a0616bc1565b60200260200101518287613c969092919063ffffffff16565b60006129e78484815181106129d0576129d0616bc1565b6020026020010151866117cb90919063ffffffff16565b90508015612a2057612a20848481518110612a0457612a04616bc1565b60200260200101518383612a189190616ca6565b889190613d1d565b505060010161294c565b6040805160208101829052601760608201527f78797a2e656c66692e73746f726167652e53796d626f6c0000000000000000006080820152908101829052600090819060a001611869565b6000612a8083613c6c565b905060005b8151811015610589576000612abc838381518110612aa557612aa5616bc1565b602002602001015186613c7790919063ffffffff16565b905080600003612acc5750612b8d565b6000612b54306001600160a01b0316631f7592ea6040518163ffffffff1660e01b8152600401602060405180830381865afa158015612b0f573d6000803e3d6000fd5b505050506040513d601f19601f82011682018060405250810190612b339190616c5a565b858581518110612b4557612b45616bc1565b60200260200101518785613dc7565b90508015612b8a57612b8a848481518110612b7157612b71616bc1565b60200260200101518288613f389092919063ffffffff16565b50505b600101612a85565b8054600090612bac906001600160a01b0316611792565b60028301546001600160a01b031660009081526003820160205260409020549091508015612be757612be7612be082613f7f565b8490613fed565b6002830154600090612c039084906001600160a01b03166117cb565b9050801561058957610589612c188383616ca6565b8590614043565b60008281527fb31b5831e77ebf4a20e050d886d24b00d24f44760e3342d08fb455df41d4aaf8602052604081209050612c896040518060a00160405280600081526020016000815260200160006001600160a01b0316815260200160008152602001600081525090565b612c928261404f565b808252600003612ca25750505050565b8051612cba90612cb06140cf565b610140015161470a565b60208201526000612cc9611e18565b90506000612cd682613c6c565b90506000612ce56129356118b4565b905060005b8251811015612e8a576000612d21848381518110612d0a57612d0a616bc1565b6020026020010151886117cb90919063ffffffff16565b905080600003612d315750612e82565b6000612d818760200151612d5d878681518110612d5057612d50616bc1565b6020026020010151611d6a565b610f96888781518110612d7257612d72616bc1565b60200260200101516001611dce565b905080821015612dd757612dbe82612da4878681518110612d5057612d50616bc1565b612db9888781518110612d7257612d72616bc1565b61471a565b87602001818151612dcf9190616ca6565b905250612de2565b600060208801529050805b612e10858481518110612df757612df7616bc1565b60200260200101518388613d1d9092919063ffffffff16565b612e3e858481518110612e2557612e25616bc1565b602002602001015183866147439092919063ffffffff16565b612e6c858481518110612e5357612e53616bc1565b6020026020010151838a6147a49092919063ffffffff16565b8660200151600003612e7f575050612e8a565b50505b600101612cea565b506000612e96876118cf565b602086015190915015612fbd57612eac846147ca565b6001600160a01b0316604086018190526020860151612edd91612ece90611d6a565b610f9688604001516000611dce565b606086015260208501516002820154612f1c9190612f03906001600160a01b0316611d6a565b6002840154610f96906001600160a01b03166001611dce565b60808601819052612f3990612f2f6140cf565b6101e0015161470a565b85608001818151612f4a9190616cb9565b90525060408501516060860151612f62918691613c96565b60408501516060860151612f77918391614884565b6080850151612f87908290614043565b60028101546080860151612fa89188916001600160a01b03909116906147a4565b60408501516060860151612fbd918491614743565b612fc88682856148fe565b5050505050505050565b612fda6118b4565b6001600160a01b0316826001600160a01b031603613069576000612ffc611e18565b9050600061300982614ac3565b9050806000036130195750505050565b600061302485611792565b9050600061303182614ad1565b905061305985613053858161304c620186a062080520616d30565b8690613596565b90614b1e565b8460040181905550505050505050565b6000613074836118cf565b9050600061308182614b2a565b9050806000036130915750505050565b600061309c85611792565b60028401549091506000906130ef906130bf9084906001600160a01b03166117cb565b60028601546130d6906001600160a01b0316611d6a565b6002870154612db9906001600160a01b03166000611dce565b905061310a85613053858161304c620186a062080520616d30565b8460140181905550505050505050565b61313e60405180606001604052806000815260200160008152602001600081525090565b600061314983611792565b90506000613156846118cf565b60028101549091506000906131759084906001600160a01b03166117cb565b9050600061318286614b58565b905081158061318f575080155b156131b9576040805160608101825260079095015485526020850192909252908301525092915050565b60006131c58383614bbc565b9050808560070160008282546131db9190616cb9565b90915550506002848101546001600160a01b0316600090815290860160205260408120556132178161320b614bee565b60e00151879190614f4e565b506040805160608101825260079095015485526020850192909252908301525092915050565b61326160405180606001604052806000815260200160008152602001600081525090565b600061326b6118b4565b9050600061327882611792565b9050600061328582613c6c565b9050600061329284614b58565b90508151600014806132a2575080155b156132ca57604080516060810182526007909401548452600060208501528301525092915050565b60006132d584614ad1565b9050806000036133035750604080516060810182526007909401548452600060208501528301525092915050565b600061330f8284614fa4565b9050808560070160008282546133259190616cb9565b9091555061333790508161320b614bee565b60005b84518110156133775761336f85828151811061335857613358616bc1565b602002602001015187614bd190919063ffffffff16565b60010161333a565b505060408051606081018252600790950154855260208501919091528301525092915050565b7f5fa32404a8727511906f2f2d5c0c0d52c7c8b8816344948303168809a43af2188282604051611d5e929190616ea7565b60006040516020016134059060208082526011908201527008c8a8abe829a9eaa9ca8bea0a48a8c92b607b1b604082015260600190565b60408051601f198184030181528282528051602091820120908301526001600160a01b03808616918301919091528316606082015260800160405160208183030381529060405280519060200120905092915050565b60606000610b3383614fb0565b600080604051602001611a06906020808252601b908201527f78797a2e656c66692e73746f726167652e436f6d6d6f6e446174610000000000604082015260600190565b60008080600019858709858702925082811083820303915050806000036134e6578382816134dc576134dc616f13565b0492505050610b33565b80841161352d5760405162461bcd60e51b81526020600482015260156024820152744d6174683a206d756c446976206f766572666c6f7760581b6044820152606401610b66565b60008486880960026001871981018816978890046003810283188082028403028082028403028082028403028082028403028082028403029081029092039091026000889003889004909101858311909403939093029303949094049190911702949350505050565b60006102678284616d30565b600080604051602001611a06906020808252601e908201527f78797a2e656c66692e73746f726167652e416363657373436f6e74726f6c0000604082015260600190565b60008181526001830160205260408120541515610267565b6001600160a01b03811660009081526001830160205260408120541515610267565b6000610267836001600160a01b03841661500c565b6000610267838361500c565b60048301548211156136a55760405162461bcd60e51b815260206004820152602760248201527f6261736520746f6b656e20616d6f756e74206c657373207468616e2073756220604482015266616d6f756e742160c81b6064820152608401610b66565b801561370057825460028401546000916136cf916001600160a01b0391821691166004870161505b565b9050828460040160000160008282546136e89190616ca6565b9091555050600484015460e08201526105898161515d565b818360040160000160008282546137179190616ca6565b9091555050505050565b60008260000361373357506000611cec565b6040516370a0823160e01b81526001600160a01b038781166004830152600091908716906370a0823190602401602060405180830381865afa15801561377d573d6000803e3d6000fd5b505050506040513d601f19601f820116820180604052508101906137a19190616c77565b90508381106138165760405163078d3b7960e01b81526001600160a01b0388169063078d3b79906137da90899089908990600401616f29565b600060405180830381600087803b1580156137f457600080fd5b505af1158015613808573d6000803e3d6000fd5b505050506001915050611cec565b8261385657604051635ac09ed760e11b81526001600160a01b03808916600483015280881660248301528616604482015260648101859052608401610b66565b5060009695505050505050565b60408051808201909152600080825260208201526000613881611a24565b604080518082018252600080825260209182018190526001600160a01b038716815260028401825282902082518084019093528054808452600190910154918301919091529192509015806138d857506020810151155b15610b335760405163907adecd60e01b815260040160405180910390fd5b6001600160a01b038216600090815260028401602052604081208054831115613923576000915050610b33565b600061392d615243565b9050806000036139545760018201548254859161394991616ca6565b101592505050610b33565b600182015482546139499061396a908790616ca6565b8361470a565b6139c160405180610100016040528060006001600160a01b03168152602001600081526020016000815260200160008152602001600081526020016000815260200160008152602001600081525090565b6001600160a01b0383168152815460208201819052600183015460408301819052600284015460608401819052608084019290925260a083015260c0820152613a08615253565b60e082015292915050565b805160208083015160408085015160608087015160808089015160a0808b015160c0808d015160e0808f01518b516001600160a01b03909f168f529c8e019b909b52988c0197909752948a0193909352908801528601528401528201527f217ba1d63771ad2228865ab2d862a89115d536eabbe8315c584eafe090d7f42290610100015b60405180910390a150565b6000610267836001600160a01b0384166152d9565b600090815260029190910160205260409020546001600160a01b031690565b6000908152602091909152604090205490565b604080516000808252602082019092526001600160a01b038416908390604051613b139190616f71565b60006040518083038185875af1925050503d8060008114613b50576040519150601f19603f3d011682016040523d82523d6000602084013e613b55565b606091505b5050905080610d585760405162461bcd60e51b815260206004820152600360248201526253544560e81b6044820152606401610b66565b80600003613b9957505050565b6000613baa84848462030d406153d3565b9050806105895783838360405163012f3b8f60e71b8152600401610b6693929190616f29565b610589846323b872dd60e01b858585604051602401613bf193929190616f29565b60408051601f198184030181529190526020810180516001600160e01b03166001600160e01b0319909316929092179091526154cd565b600080604051602001611a06906020808252601c908201527f78797a2e656c66692e73746f726167652e5575696443726561746f7200000000604082015260600190565b606061026a8261345b565b6001600160a01b03166000908152600391909101602052604090205490565b6001600160a01b03821660009081526002840160205260408120613cbb908490613970565b6001600160a01b03841660009081526002808701602052604082200180549293508492909190613cec908490616cb9565b90915550506001600160a01b038316600090815260028086016020526040909120015460c082015261058981613a13565b613d2783836135fe565b613d735760405162461bcd60e51b815260206004820152601b60248201527f737461626c6520746f6b656e206e6f7420737570706f727465642100000000006044820152606401610b66565b6001600160a01b03821660009081526002840160205260408120613d98908490613970565b6001600160a01b0384166000908152600286016020526040812080549293508492909190611f12908490616cb9565b600081600003613dd95750600061064b565b6040516370a0823160e01b81526001600160a01b038681166004830152600091908616906370a0823190602401602060405180830381865afa158015613e23573d6000803e3d6000fd5b505050506040513d601f19601f82011682018060405250810190613e479190616c77565b905080600003613e5b57600091505061064b565b828110613ecd5760405163078d3b7960e01b81526001600160a01b0387169063078d3b7990613e9290889088908890600401616f29565b600060405180830381600087803b158015613eac57600080fd5b505af1158015613ec0573d6000803e3d6000fd5b505050508291505061064b565b60405163078d3b7960e01b81526001600160a01b0387169063078d3b7990613efd90889088908690600401616f29565b600060405180830381600087803b158015613f1757600080fd5b505af1158015613f2b573d6000803e3d6000fd5b505050508091505061064b565b6001600160a01b0382166000908152600384016020526040902054613f5e908290616ca6565b6001600160a01b039092166000908152600390930160205250604090912055565b60006001600160ff1b03821115613fe95760405162461bcd60e51b815260206004820152602860248201527f53616665436173743a2076616c756520646f65736e27742066697420696e2061604482015267371034b73a191a9b60c11b6064820152608401610b66565b5090565b81546002830154600091614011916001600160a01b0391821691166004860161505b565b90508183600401600301600082825461402a9190616f8d565b90915550506007830154610140820152610d588161515d565b6104da828260016155a2565b600080600061405d84613c6c565b905060005b81518110156140c65760006140af614085848481518110612d0a57612d0a616bc1565b61409a858581518110612d5057612d50616bc1565b612db9868681518110612d7257612d72616bc1565b90506140bb8185616cb9565b935050600101614062565b50909392505050565b61414f604051806102000160405280606081526020016060815260200160008152602001600081526020016000815260200160008152602001600081526020016000815260200160008152602001600081526020016000815260200160008152602001600081526020016000815260200160008152602001600081525090565b600080604051602001614182906020808252600c908201526b54524144455f434f4e46494760a01b604082015260600190565b604051602081830303815290604052805190602001209050614223816040516020016141ce906020808252600c908201526b54524144455f544f4b454e5360a01b604082015260600190565b604051602081830303815290604052805190602001206040516020016141fe929190918252602082015260400190565b60405160208183030381529060405280519060200120836155fc90919063ffffffff16565b8084525167ffffffffffffffff81111561423f5761423f616bab565b60405190808252806020026020018201604052801561427857816020015b61426561680c565b81526020019060019003908161425d5790505b50602084015260005b8351518110156142da576142b1846000015182815181106142a4576142a4616bc1565b602002602001015161566b565b846020015182815181106142c7576142c7616bc1565b6020908102919091010152600101614281565b50614317816040516020016121e39060208082526014908201527313525397d3d491115497d3505491d25397d554d160621b604082015260600190565b836040018181525050614365816040516020016121e3906020808252601a908201527f415641494c41424c455f434f4c4c41544552414c5f524154494f000000000000604082015260600190565b60608401526040516143a39082906121e3906020016020808252600f908201526e10d493d4d4d7d3151597d312535255608a1b604082015260600190565b60808401526040516143ef9082906121e3906020016020808252601b908201527f4d41585f4d41494e54454e414e43455f4d415247494e5f524154450000000000604082015260600190565b60a08401526040516144339082906121e39060200160208082526015908201527446554e44494e475f4645455f424153455f5241544560581b604082015260600190565b60c08401526040516144779082906121e3906020016020808252601590820152744d41585f46554e44494e475f424153455f5241544560581b604082015260600190565b60e08401526040516144cd9082906121e39060200160208082526021908201527f54524144494e475f4645455f5354414b494e475f524557415244535f524154496040820152604f60f81b606082015260800190565b61010084015260405161451a9082906121e3906020016020808252601e908201527f54524144494e475f4645455f504f4f4c5f524557415244535f524154494f0000604082015260600190565b6101208401526040516145729082906121e39060200160208082526022908201527f54524144494e475f4645455f5553445f504f4f4c5f524557415244535f524154604082015261494f60f01b606082015260800190565b6101408401526040516145cb9082906121e39060200160208082526023908201527f424f52524f57494e475f4645455f5354414b494e475f524557415244535f524160408201526254494f60e81b606082015260800190565b6101608401526040516146169082906121e3906020016020808252818101527f424f52524f57494e475f4645455f504f4f4c5f524557415244535f524154494f604082015260600190565b6101808401526040516146639082906121e39060200160208082526019908201527f4155544f5f5245445543455f50524f4649545f464143544f5200000000000000604082015260600190565b6101a08401526040516146b09082906121e3906020016020808252601c908201527f4155544f5f5245445543455f4c49515549444954595f464143544f5200000000604082015260600190565b6101c08401526040516146fd9082906121e39060200160208082526019908201527f535741505f534c49505045525f544f4b454e5f464143544f5200000000000000604082015260600190565b6101e08401525090919050565b60006102678383620186a06134ac565b600061064b61472a84600a616e7f565b6130536402540be40061473d8887613596565b90613596565b61474d83836135fe565b61475d5761475b8383613620565b505b6001600160a01b0382166000908152600284016020526040902054614783908290616cb9565b6001600160a01b039092166000908152600290930160205250604090912055565b6001600160a01b0382166000908152600284016020526040902054614783908290616ca6565b6000806147d68361345b565b90506000805b825181101561487c57600061484a86600201600086858151811061480257614802616bc1565b60200260200101516001600160a01b03166001600160a01b0316815260200190815260200160002060000154614843868581518110612d5057612d50616bc1565b60126159e8565b90508281106148735780925083828151811061486857614868616bc1565b602002602001015194505b506001016147dc565b505050919050565b614891600c8401836135fe565b6148a4576148a2600c840183613620565b505b6001600160a01b038083166000908152600e850160205260408120855490926148cf9116858461505b565b9050828260040160008282546148e59190616cb9565b909155505060048201546101608201526104c88161515d565b8154600090614915906001600160a01b0316611792565b60028401549091506000906149349086906001600160a01b03166117cb565b9050801561497a576149468482614043565b60028401546149609083906001600160a01b031683614743565b600284015461497a9086906001600160a01b0316836147a4565b6002840154600090614994906001600160a01b0316611d6a565b60028601549091506000906149b2906001600160a01b031682611dce565b905060005b8551811015612fc8576149ec8682815181106149d5576149d5616bc1565b6020026020010151896117cb90919063ffffffff16565b93508315614abb576000614a2b85614a0f898581518110612d5057612d50616bc1565b86614a258b8781518110612d7257612d72616bc1565b87615a04565b9050614a3981612f2f6140cf565b614a439082616ca6565b9050614a73878381518110614a5a57614a5a616bc1565b6020026020010151868a615a649092919063ffffffff16565b614a9f878381518110614a8857614a88616bc1565b60200260200101518a614bd190919063ffffffff16565b6002880154614ab99087906001600160a01b031683614743565b505b6001016149b7565b60006060610b338382615b2e565b6000806000614adf84613c6c565b905060005b81518110156140c6576000614b07614085848481518110612d0a57612d0a616bc1565b9050614b138185616cb9565b935050600101614ae4565b60006102678284616fb5565b600080614b3683615b5e565b90506000811315614b4f57614b4a81615b6c565b610b33565b60009392505050565b6000816001600160a01b03166318160ddd6040518163ffffffff1660e01b8152600401602060405180830381865afa158015614b98573d6000803e3d6000fd5b505050506040513d601f19601f8201168201806040525081019061026a9190616c77565b600061026783670de0b6b3a7640000846134ac565b6001600160a01b0316600090815260029091016020526040812055565b614c44604051806101400160405280600081526020016000815260200160008152602001600081526020016000815260200160008152602001600081526020016000815260200160008152602001600081525090565b600080604051602001614c77906020808252600c908201526b5354414b455f434f4e46494760a01b604082015260600190565b604051602081830303815290604052805190602001209050614cd4816040516020016121e39060208082526019908201527f434f4c4c41544552414c5f50524f544543545f464143544f5200000000000000604082015260600190565b8352604051614d119082906121e39060200160208082526011908201527021a7a62620aa22a920a62fa320a1aa27a960791b604082015260600190565b836020018181525050614d58816040516020016121e3906020808252601690820152754d494e5f505245434953494f4e5f4d554c5449504c4560501b604082015260600190565b836040018181525050614da6816040516020016121e3906020808252601e908201527f4d494e545f4645455f5354414b494e475f524557415244535f524154494f0000604082015260600190565b6060840152604051614df29082906121e3906020016020808252601b908201527f4d494e545f4645455f504f4f4c5f524557415244535f524154494f0000000000604082015260600190565b6080840152604051614e3c9082906121e3906020016020808252818101527f52454445454d5f4645455f5354414b494e475f524557415244535f524154494f604082015260600190565b60a0840152604051614e889082906121e3906020016020808252601d908201527f52454445454d5f4645455f504f4f4c5f524557415244535f524154494f000000604082015260600190565b60c0840152604051614ed49082906121e3906020016020808252601b908201527f504f4f4c5f524557415244535f494e54455256414c5f4c494d49540000000000604082015260600190565b60e0840152604051614f0a9082906121e39060200160208082526007908201526626a4a72fa0a82960c91b604082015260600190565b610100840152604051614f419082906121e39060200160208082526007908201526626a0ac2fa0a82960c91b604082015260600190565b6101208401525090919050565b80600003614f5b57505050565b60088301548111614f885782600801600081548110614f7c57614f7c616bc1565b60009182526020822001555b5060089091018054600181018255600091825260209091200155565b60006102678383614b1e565b60608160000180548060200260200160405190810160405280929190818152602001828054801561500057602002820191906000526020600020905b815481526020019060010190808311614fec575b50505050509050919050565b60008181526001830160205260408120546150535750815460018181018455600084815260208082209093018490558454848252828601909352604090209190915561026a565b50600061026a565b6150d8604051806101a0016040528060006001600160a01b0316815260200160006001600160a01b0316815260200160008152602001600081526020016000815260200160008152602001600081526020016000815260200160008152602001600081526020016000815260200160008152602001600081525090565b6001600160a01b03808516825283166020820152815460408201819052600183015460608301819052600284015460808401819052600385015460a08501819052600486015460c0860181905260e0860194909452610100850192909252610120840152610140830152610160820152615150615253565b6101808201529392505050565b7f3c20d1ba6bcc5e5bd62d967908bf1ce684e6b52dbaab9f84ebfbf1b184b46bf8816000015182602001518360400151846060015185608001518660a001518760c001518860e001518961010001518a61012001518b61014001518c61016001518d6101800151604051613a979d9c9b9a999897969594939291906001600160a01b039d8e1681529b909c1660208c015260408b019990995260608a0197909752608089019590955260a088019390935260c087019190915260e08601526101008501526101208401526101408301526101608201526101808101919091526101a00190565b600061524d615bbe565b51919050565b600061a4b1461480615267575062066eee46145b156152d45760646001600160a01b031663a3b1b31d6040518163ffffffff1660e01b8152600401602060405180830381865afa1580156152ab573d6000803e3d6000fd5b505050506040513d601f19601f820116820180604052508101906152cf9190616c77565b905090565b504390565b600081815260018301602052604081205480156153c25760006152fd600183616ca6565b855490915060009061531190600190616ca6565b905081811461537657600086600001828154811061533157615331616bc1565b906000526020600020015490508087600001848154811061535457615354616bc1565b6000918252602080832090910192909255918252600188019052604090208390555b855486908061538757615387616fc9565b60019003818190600052602060002001600090559055856001016000868152602001908152602001600020600090556001935050505061026a565b600091505061026a565b5092915050565b604080516001600160a01b038581166024830152604480830186905283518084039091018152606490920183526020820180516001600160e01b031663a9059cbb60e01b1790529151600092839182918916908690615433908690616f71565b60006040518083038160008787f1925050503d8060008114615471576040519150601f19603f3d011682016040523d82523d6000602084013e615476565b606091505b50915091508161548c576000935050505061064b565b600081511180156154ae5750808060200190518101906154ac9190616fdf565b155b156154bf576000935050505061064b565b506001979650505050505050565b6000615522826040518060400160405280602081526020017f5361666545524332303a206c6f772d6c6576656c2063616c6c206661696c6564815250856001600160a01b0316615bff9092919063ffffffff16565b90508051600014806155435750808060200190518101906155439190616fdf565b610d585760405162461bcd60e51b815260206004820152602a60248201527f5361666545524332303a204552433230206f7065726174696f6e20646964206e6044820152691bdd081cdd58d8d9595960b21b6064820152608401610b66565b80156155e557825460028401546000916155cc916001600160a01b0391821691166004870161505b565b9050828460040160000160008282546136e89190616cb9565b818360040160000160008282546137179190616cb9565b600081815260088301602090815260409182902080548351818402810184019094528084526060939283018282801561565e57602002820191906000526020600020905b81546001600160a01b03168152600190910190602001808311615640575b5050505050905092915050565b61567361680c565b61567b61680c565b6000806040516020016156b49060208082526012908201527154524144455f544f4b454e5f434f4e46494760701b604082015260600190565b60408051601f19818403018152919052805160209091012090506156d9828287615c0e565b6156e65750909392505050565b61578b8186604051602001615724906020808252601590820152741254d7d4d5541413d49517d0d3d313105511549053605a1b604082015260600190565b60405160208183030381529060405280519060200120604051602001615766939291909283526001600160a01b03919091166020830152604082015260600190565b6040516020818303038152906040528051906020012083615c2890919063ffffffff16565b1515835260405161580690829087906157c490602001602080825260099082015268282922a1a4a9a4a7a760b91b604082015260600190565b60405160208183030381529060405280519060200120604051602001612213939291909283526001600160a01b03919091166020830152604082015260600190565b83602001818152505061584081866040516020016157c490602080825260089082015267111254d0d3d5539560c21b604082015260600190565b83604001818152505061588581866040516020016157c4906020808252601390820152720434f4c4c41544552414c5f555345525f43415606c1b604082015260600190565b60608401526040516158ca90829087906157c4906020016020808252601490820152730434f4c4c41544552414c5f544f54414c5f4341560641b604082015260600190565b608084015260405161590d90829087906157c49060200160208082526012908201527104c494142494c4954595f555345525f4341560741b604082015260600190565b60a084015260405161595190829087906157c49060200160208082526013908201527204c494142494c4954595f544f54414c5f43415606c1b604082015260600190565b60c084015260405161599690829087906157c49060200160208082526014908201527324a72a22a922a9aa2fa920aa22afa320a1aa27a960611b604082015260600190565b60e08401526040516159d990829087906157c4906020016020808252601290820152712624a8aaa4a220aa24a7a72fa320a1aa27a960711b604082015260600190565b61010084015250909392505050565b600061064b846159f984600a616e7f565b611e1386600a616e7f565b60008460ff168460ff1610615a4057615a3982613053615a248888617001565b615a2f90600a616e7f565b61473d8a88613596565b9050611cec565b615a39615a4d8587617001565b615a5890600a616e7f565b61305384818a88613596565b82546001600160a01b038381166000908152600e8601602052604081209092615a90921690859061505b565b9050615a9f600c8501846135fe565b15615ad9576001600160a01b0383166000908152600e8501602052604081208054849290615ace908490616cb9565b90915550615b059050565b615ae6600c850184613620565b506001600160a01b0383166000908152600e8501602052604090208290555b6001600160a01b0383166000908152600e8501602052604090205460e08201526105898161515d565b600080615b3b8484615c41565b90506000811315615b5457615b4f81615b6c565b61064b565b5060009392505050565b60006060610b338382615d47565b600080821215613fe95760405162461bcd60e51b815260206004820181905260248201527f53616665436173743a2076616c7565206d75737420626520706f7369746976656044820152606401610b66565b615bf76040518060c001604052806000815260200160008152602001600081526020016000815260200160608152602001606081525090565b6152cf615f33565b606061064b848460008561625f565b6000828152600c84016020526040812061064b90836135fe565b6000908152600391909101602052604090205460ff1690565b60008080615c4e85613c6c565b8051909150156103345760005b8151811015615d3e576000866002016000848481518110615c7e57615c7e616bc1565b60200260200101516001600160a01b03166001600160a01b031681526020019081526020016000209050600081600001541180615cbf575060008160020154115b15615d3557615d32615d2b615cd78360020154613f7f565b8354615ce290613f7f565b615cec9190616f8d565b615d01868681518110612d5057612d50616bc1565b615d268a888881518110615d1757615d17616bc1565b6020026020010151600161633a565b6163df565b859061641e565b93505b50600101615c5b565b50509392505050565b60048201546000908190151580615d62575060078401546000125b15615e015760038401546002850154600091615d8c9186906001906001600160a01b03168161642a565b6002860154909150600090615dad9086906001600160a01b0316600161633a565b9050615dfc828760040160030154615dcb8960040160000154613f7f565b615dd59190616f8d565b615ddf9190616f8d565b6002880154615df6906001600160a01b0316611d6a565b836163df565b925050505b6000615e0c85616686565b8051909150156103345760005b8151811015615d3e57600086600e016000848481518110615e3c57615e3c616bc1565b60200260200101516001600160a01b03166001600160a01b031681526020019081526020016000209050600081600001541180615e7d575060008160030154135b15615f2a576000615eb08860030154886000878781518110615ea157615ea1616bc1565b6020026020010151600161642a565b9050615f26615f1f82615ec68560040154613f7f565b60038601548654615ed690613f7f565b615ee09190616f8d565b615eea919061701a565b615ef49190616f8d565b615f09878781518110612d5057612d50616bc1565b615d268b898981518110615d1757615d17616bc1565b869061641e565b9450505b50600101615e19565b615f6c6040518060c001604052806000815260200160008152602001600081526020016000815260200160608152602001606081525090565b600080604051602001615fa2906020808252600f908201526e5553445f504f4f4c5f434f4e46494760881b604082015260600190565b604051602081830303815290604052805190602001209050615ff6816040516020016121e3906020808252601490820152731413d3d317d3125455525112551657d31253525560621b604082015260600190565b835260405161602f9082906121e3906020016020808252600d908201526c4d494e545f4645455f5241544560981b604082015260600190565b83602001818152505061606f816040516020016121e3906020808252600f908201526e52454445454d5f4645455f5241544560881b604082015260600190565b8360400181815250506160b5816040516020016121e390602080825260159082015274155394d1551513115117d490551253d7d312535255605a1b604082015260600190565b60608401526040516160f99082906141ce90602001602080825260159082015274535550504f52545f535441424c455f544f4b454e5360581b604082015260600190565b608084018190525167ffffffffffffffff81111561611957616119616bab565b604051908082528060200260200182016040528015616142578160200160208202803683370190505b5060a084015260005b83608001515181101561625957616230828560800151838151811061617257616172616bc1565b60200260200101516040516020016161c99060208082526025908201527f535441424c455f544f4b454e535f424f52524f57494e475f494e5445524553546040820152645f5241544560d81b606082015260800190565b6040516020818303038152906040528051906020012060405160200161620b939291909283526001600160a01b03919091166020830152604082015260600190565b6040516020818303038152906040528051906020012084613ad690919063ffffffff16565b8460a00151828151811061624657616246616bc1565b602090810291909101015260010161614b565b50505090565b6060824710156162c05760405162461bcd60e51b815260206004820152602660248201527f416464726573733a20696e73756666696369656e742062616c616e636520666f6044820152651c8818d85b1b60d21b6064820152608401610b66565b600080866001600160a01b031685876040516162dc9190616f71565b60006040518083038185875af1925050503d8060008114616319576040519150601f19603f3d011682016040523d82523d6000602084013e61631e565b606091505b509150915061632f87838387616694565b979650505050505050565b6000805b84518110156163d457836001600160a01b031685828151811061636357616363616bc1565b6020026020010151600001516001600160a01b0316036163cc57826163a55784818151811061639457616394616bc1565b6020026020010151606001516163c4565b8481815181106163b7576163b7616bc1565b6020026020010151604001515b915050610b33565b60010161633e565b5061064b8383611dce565b600061064b6163f76163f285600a616e7f565b613f7f565b6164186164086402540be400613f7f565b616412888761670d565b9061670d565b90616719565b60006102678284616f8d565b60008061643687616725565b9050600061644388612a2a565b6040805160c08101909152815481526001820154909190602083019060ff16600381111561647357616473616d47565b600381111561648457616484616d47565b815260018201546001600160a01b036101009091048116602083015260028301548116604083015260038301541660608201526004820180546080909201916164cc9061703a565b80601f01602080910402602001604051908101604052809291908181526020018280546164f89061703a565b80156165455780601f1061651a57610100808354040283529160200191616545565b820191906000526020600020905b81548152906001019060200180831161652857829003601f168201915b5050505050815250509050600086616576576001600160a01b0386166000908152600684016020526040902061657b565b826002015b80549091506000036165935760009350505050611cec565b60006165a5898460600151600161633a565b90506165b081615b6c565b8260010154036165c7576000945050505050611cec565b871561665a5760006166046165df8460010154613f7f565b6164186165f96165f28760010154613f7f565b8690616770565b865461641290613f7f565b9050861561664557600061661a8b8a600061633a565b905061662f826166298b611d6a565b8361677c565b6166389061706e565b9650505050505050611cec565b61664e8161706e565b95505050505050611cec565b600061660461666c8460010154613f7f565b6164186165f9856166808860010154613f7f565b90616770565b606061026a82600c0161345b565b606083156167035782516000036166fc576001600160a01b0385163b6166fc5760405162461bcd60e51b815260206004820152601d60248201527f416464726573733a2063616c6c20746f206e6f6e2d636f6e74726163740000006044820152606401610b66565b508161064b565b61064b83836167b1565b6000610267828461708a565b600061026782846170ba565b6040805160208101829052601760608201527f78797a2e656c66692e73746f726167652e4d61726b65740000000000000000006080820152908101829052600090819060a001611869565b6000610267828461701a565b600061064b6167996167926402540be400613f7f565b849061670d565b6164186167aa6163f287600a616e7f565b879061670d565b8151156167c15781518083602001fd5b8060405162461bcd60e51b8152600401610b6691906170e8565b604051806080016040528060006001600160a01b031681526020016060815260200160608152602001606081525090565b60405180610120016040528060001515815260200160008152602001600081526020016000815260200160008152602001600081526020016000815260200160008152602001600081525090565b6001600160a01b0381168114610b6f57600080fd5b6000806040838503121561688257600080fd5b823561688d8161685a565b9150602083013561689d8161685a565b809150509250929050565b600080602083850312156168bb57600080fd5b823567ffffffffffffffff808211156168d357600080fd5b818501915085601f8301126168e757600080fd5b8135818111156168f657600080fd5b8660208260051b850101111561690b57600080fd5b60209290920196919550909350505050565b60008151808452602080850194506020840160005b838110156169575781516001600160a01b031687529582019590820190600101616932565b509495945050505050565b60018060a01b0381511682526000602080830151608082860152616989608086018261691d565b9050604084015185820360408701526169a2828261691d565b606086810151888303918901919091528051808352908501935060009250908401905b808310156169e557835182529284019260019290920191908401906169c5565b509695505050505050565b600060208083016020845280855180835260408601915060408160051b87010192506020870160005b82811015616a4757603f19888603018452616a35858351616962565b94509285019290850190600101616a19565b5092979650505050505050565b600060208284031215616a6657600080fd5b8135610b338161685a565b80516001600160a01b03908116835260208083015190911690830152604090810151910152565b6060810161026a8284616a71565b600080600060408486031215616abb57600080fd5b83359250602084013567ffffffffffffffff80821115616ada57600080fd5b818601915086601f830112616aee57600080fd5b813581811115616afd57600080fd5b8760208260071b8501011115616b1257600080fd5b6020830194508093505050509250925092565b60008060408385031215616b3857600080fd5b8235616b438161685a565b946020939093013593505050565b6020815260006102676020830184616962565b60008060408385031215616b7757600080fd5b82359150602083013561689d8161685a565b60008060408385031215616b9c57600080fd5b50508035926020909101359150565b634e487b7160e01b600052604160045260246000fd5b634e487b7160e01b600052603260045260246000fd5b600060808284031215616be957600080fd5b6040516080810181811067ffffffffffffffff82111715616c1a57634e487b7160e01b600052604160045260246000fd5b6040528235616c288161685a565b81526020830135616c388161685a565b6020820152604083810135908201526060928301359281019290925250919050565b600060208284031215616c6c57600080fd5b8151610b338161685a565b600060208284031215616c8957600080fd5b5051919050565b634e487b7160e01b600052601160045260246000fd5b8181038181111561026a5761026a616c90565b8082018082111561026a5761026a616c90565b616cd68185616a71565b60a060608201526000616cec60a083018561691d565b828103608084015283518082526020808601928101919060005b82811015616d2257845184529381019392810192600101616d06565b509198975050505050505050565b808202811582820484141761026a5761026a616c90565b634e487b7160e01b600052602160045260246000fd5b60808101616d6b8285616a71565b8260608301529392505050565b600060208284031215616d8a57600080fd5b815160ff81168114610b3357600080fd5b600181815b80851115616dd6578160001904821115616dbc57616dbc616c90565b80851615616dc957918102915b93841c9390800290616da0565b509250929050565b600082616ded5750600161026a565b81616dfa5750600061026a565b8160018114616e105760028114616e1a57616e36565b600191505061026a565b60ff841115616e2b57616e2b616c90565b50506001821b61026a565b5060208310610133831016604e8410600b8410161715616e59575081810a61026a565b616e638383616d9b565b8060001904821115616e7757616e77616c90565b029392505050565b600061026760ff841683616dde565b600060018201616ea057616ea0616c90565b5060010190565b60006040808352616ebb604084018661691d565b83810360208581019190915285518083528682019282019060005b81811015616f055784518051845284810151858501528601518684015293830193606090920191600101616ed6565b509098975050505050505050565b634e487b7160e01b600052601260045260246000fd5b6001600160a01b039384168152919092166020820152604081019190915260600190565b60005b83811015616f68578181015183820152602001616f50565b50506000910152565b60008251616f83818460208701616f4d565b9190910192915050565b8082018281126000831280158216821582161715616fad57616fad616c90565b505092915050565b600082616fc457616fc4616f13565b500490565b634e487b7160e01b600052603160045260246000fd5b600060208284031215616ff157600080fd5b81518015158114610b3357600080fd5b60ff828116828216039081111561026a5761026a616c90565b81810360008312801583831316838312821617156153cc576153cc616c90565b600181811c9082168061704e57607f821691505b60208210810361196b57634e487b7160e01b600052602260045260246000fd5b6000600160ff1b820161708357617083616c90565b5060000390565b80820260008212600160ff1b841416156170a6576170a6616c90565b818105831482151761026a5761026a616c90565b6000826170c9576170c9616f13565b600160ff1b8214600019841416156170e3576170e3616c90565b500590565b6020815260008251806020840152617107816040850160208701616f4d565b601f01601f1916919091016040019291505056fea26469706673582212202496e2747b6086a3475e1cd9ee3b943fa624603516d4037ed414f610d2c6cb6a64736f6c63430008190033","linkReferences":{}},"methodIdentifiers":{"cancelClaimRewards(uint256,bytes32)":"ed3bb147","createClaimRewards(address,uint256)":"943144b7","distributeFeeRewards(uint256,(address,address,int256,int256)[])":"e9e6741f","executeClaimRewards(uint256,(address,address,int256,int256)[])":"9084692c","getAccountFeeRewards(address)":"ada56365","getAccountUsdFeeReward(address)":"5c99abaa","getAccountsFeeRewards(address[])":"5b9e52be","getCumulativeRewardsPerStakeToken(address)":"7ad18303","getDaoTokenFee(address,address)":"b9ee8073","getMarketTokenFee(bytes32,address)":"bc8f47c5","getPoolTokenFee(address,address)":"51ebcaad","getStakingTokenFee(address,address)":"55be18cb"},"id":60}