{"abi":[{"type":"function","name":"getPoolLiquidityLimit","inputs":[],"outputs":[{"name":"","type":"uint256","internalType":"uint256"}],"stateMutability":"view"},{"type":"function","name":"getSupportedStableTokens","inputs":[],"outputs":[{"name":"","type":"address[]","internalType":"address[]"}],"stateMutability":"view"},{"type":"function","name":"isSupportStableToken","inputs":[{"name":"stableToken","type":"address","internalType":"address"}],"outputs":[{"name":"","type":"bool","internalType":"bool"}],"stateMutability":"view"},{"type":"event","name":"UsdPoolBorrowingFeeUpdateEvent","inputs":[{"name":"borrowingFee","type":"tuple","indexed":false,"internalType":"struct UsdPool.BorrowingFee","components":[{"name":"totalBorrowingFee","type":"uint256","internalType":"uint256"},{"name":"totalRealizedBorrowingFee","type":"uint256","internalType":"uint256"},{"name":"cumulativeBorrowingFeePerToken","type":"uint256","internalType":"uint256"},{"name":"lastUpdateTime","type":"uint256","internalType":"uint256"}]}],"anonymous":false},{"type":"event","name":"UsdPoolTokenUpdateEvent","inputs":[{"name":"token","type":"address","indexed":false,"internalType":"address"},{"name":"preAmount","type":"uint256","indexed":false,"internalType":"uint256"},{"name":"preHoldAmount","type":"uint256","indexed":false,"internalType":"uint256"},{"name":"preUnsettledAmount","type":"uint256","indexed":false,"internalType":"uint256"},{"name":"amount","type":"uint256","indexed":false,"internalType":"uint256"},{"name":"holdAmount","type":"uint256","indexed":false,"internalType":"uint256"},{"name":"unsettledAmount","type":"uint256","indexed":false,"internalType":"uint256"},{"name":"updateBlock","type":"uint256","indexed":false,"internalType":"uint256"}],"anonymous":false}],"bytecode":{"object":"0x611cc4610039600b82828239805160001a607314602c57634e487b7160e01b600052600060045260246000fd5b30600052607381538281f3fe730000000000000000000000000000000000000000301460806040526004361061014c5760003560e01c8063a000e361116100c2578063d421c80a11610086578063d421c80a14610345578063d548ca9e14610358578063deaa0a3714610378578063e4dd368414610398578063ff0bc0ed146103ab578063ffabfaeb146103be57600080fd5b8063a000e361146102a2578063b0900a3d146102c2578063b25c48c9146102e5578063b78c7e8e14610305578063c9dbcb321461032557600080fd5b806358b30cbb1161011457806358b30cbb146101ee5780636552dedf1461021957806367fd0ad8146102395780637606f66c1461025957806386d5c4be14610285578063954042951461028d57600080fd5b80630b4fff73146101515780632658e84d1461016c57806336dd0ce31461018e578063399b21a0146101ae5780634a637e80146101ce575b600080fd5b6101596103de565b6040519081526020015b60405180910390f35b81801561017857600080fd5b5061018c6101873660046116d3565b6103ee565b005b6101a161019c36600461170b565b6104dd565b604051610163919061173b565b6101c16101bc36600461175c565b61054b565b6040516101639190611775565b8180156101da57600080fd5b5061018c6101e93660046116d3565b610670565b6102016101fc36600461175c565b6106f7565b6040516001600160a01b039091168152602001610163565b81801561022557600080fd5b5061018c6102343660046116d3565b6108bb565b81801561024557600080fd5b5061018c6102543660046116d3565b610965565b61015961026736600461170b565b6001600160a01b031660009081526003919091016020526040902090565b610159610a5a565b610295610abc565b60405161016391906117d7565b8180156102ae57600080fd5b5061018c6102bd3660046116d3565b610ad9565b6102d56102d03660046116d3565b610be9565b6040519015158152602001610163565b8180156102f157600080fd5b5061018c610300366004611818565b610ce5565b81801561031157600080fd5b5061018c61032036600461170b565b610de2565b81801561033157600080fd5b5061018c6103403660046118fb565b610df1565b61029561035336600461175c565b610e35565b81801561036457600080fd5b5061018c61037336600461170b565b610e40565b61038b61038636600461175c565b610eb9565b60405161016391906119a6565b6102d56103a63660046119de565b610f64565b6101596103b936600461170b565b610f7b565b6103d16103cc36600461175c565b611076565b60405161016391906119fb565b60006103e86111a4565b51919050565b6103f9838383610be9565b6104555760405162461bcd60e51b815260206004820152602260248201527f737562206661696c656420776974682062616c616e6365206e6f7420656e6f756044820152610ced60f31b60648201526084015b60405180910390fd5b6001600160a01b0382166000908152600284016020526040812061047a908490611253565b6001600160a01b03841660009081526002860160205260408120805492935084929091906104a9908490611a75565b90915550506001600160a01b038316600090815260028501602052604090205460808201526104d781611365565b50505050565b61050160405180606001604052806000815260200160008152602001600081525090565b506001600160a01b03811660009081526002808401602090815260409283902083516060810185528154815260018201549281019290925290910154918101919091525b92915050565b60606000610558836113f3565b90506000815167ffffffffffffffff81111561057657610576611867565b6040519080825280602002602001820160405280156105cb57816020015b6105b860405180606001604052806000815260200160008152602001600081525090565b8152602001906001900390816105945790505b50905060005b8251811015610668578460020160008483815181106105f2576105f2611a88565b60200260200101516001600160a01b03166001600160a01b03168152602001908152602001600020604051806060016040529081600082015481526020016001820154815260200160028201548152505082828151811061065557610655611a88565b60209081029190910101526001016105d1565b509392505050565b6001600160a01b03821660009081526002840160205260408120610695908490611253565b6001600160a01b038416600090815260028087016020526040822001805492935084929091906106c6908490611a9e565b90915550506001600160a01b038316600090815260028086016020526040909120015460c08201526104d781611365565b600080610703836113f3565b90506000805b82518110156108b357600073__$54cfd135a3b5f05a8488b7e4b687d6e5b3$__63d6052ce387600201600087868151811061074657610746611a88565b60200260200101516001600160a01b03166001600160a01b031681526020019081526020016000206000015473__$27ae1b494209daa89c188ba5c7f8a7693b$__63d449a83288878151811061079e5761079e611a88565b60200260200101516040518263ffffffff1660e01b81526004016107d191906001600160a01b0391909116815260200190565b602060405180830381865af41580156107ee573d6000803e3d6000fd5b505050506040513d601f19601f820116820180604052508101906108129190611ab1565b6040516001600160e01b031960e085901b168152600481019290925260ff16602482015260126044820152606401602060405180830381865af415801561085d573d6000803e3d6000fd5b505050506040513d601f19601f820116820180604052508101906108819190611ad4565b90508281106108aa5780925083828151811061089f5761089f611a88565b602002602001015194505b50600101610709565b505050919050565b6108c58383611400565b6109115760405162461bcd60e51b815260206004820152601b60248201527f737461626c6520746f6b656e206e6f7420737570706f72746564210000000000604482015260640161044c565b6001600160a01b03821660009081526002840160205260408120610936908490611253565b6001600160a01b03841660009081526002860160205260408120805492935084929091906104a9908490611a9e565b6001600160a01b03821660009081526002840160205260409020600101548111156109d25760405162461bcd60e51b815260206004820152601960248201527f73756220686f6c6420626967676572207468616e20686f6c6400000000000000604482015260640161044c565b6001600160a01b038216600090815260028401602052604081206109f7908490611253565b6001600160a01b0384166000908152600286016020526040812060010180549293508492909190610a29908490611a75565b90915550506001600160a01b038316600090815260028501602052604090206001015460a08201526104d781611365565b600080604051602001610a9e9060208082526018908201527f78797a2e656c66692e73746f726167652e557364506f6f6c0000000000000000604082015260600190565b60408051601f19818403018152919052805160209091012092915050565b60606000610ac8610a5a565b9050610ad3816113f3565b91505090565b610b3a836002016000846001600160a01b03166001600160a01b031681526020019081526020016000206040518060600160405290816000820154815260200160018201548152602001600282015481525050610b346103de565b83611422565b610b925760405162461bcd60e51b815260206004820152602360248201527f686f6c64206661696c656420776974682062616c616e6365206e6f7420656e6f6044820152620eaced60eb1b606482015260840161044c565b6001600160a01b03821660009081526002840160205260408120610bb7908490611253565b6001600160a01b0384166000908152600286016020526040812060010180549293508492909190610a29908490611a9e565b6001600160a01b038216600090815260028401602052604081208054831115610c16576000915050610cde565b6000610c206103de565b905080600003610c4757600182015482548591610c3c91611a75565b101592505050610cde565b816001015473__$54cfd135a3b5f05a8488b7e4b687d6e5b3$__63ee7fc5a3868560000154610c769190611a75565b846040518363ffffffff1660e01b8152600401610c9d929190918252602082015260400190565b602060405180830381865af4158015610cba573d6000803e3d6000fd5b505050506040513d601f19601f82011682018060405250810190610c3c9190611ad4565b9392505050565b610cef8484611400565b610cff57610cfd84846114f3565b505b6001600160a01b03831660009081526002808601602052604090912090810154831115610d795760405162461bcd60e51b815260206004820152602260248201527f7855736420736574746c6520737461626c6520746f6b656e206f766572666c6f604482015261772160f01b606482015260840161044c565b6000610d858583611253565b905083826002016000828254610d9b9190611a75565b9091555050600282015460c08201528215610dd15783826000016000828254610dc49190611a9e565b9091555050815460808201525b610dda81611365565b505050505050565b610dec8282611508565b505050565b60005b8151811015610dec57610e2c828281518110610e1257610e12611a88565b6020026020010151846000016114f390919063ffffffff16565b50600101610df4565b6060610545826113f3565b6001600160a01b03811660009081526003830160205260409081902090517f1ce920cb88be503ae9377cd07aae1e28e7ca6c64e897ad6ff9b74c2d329d7d8391610ead91815481526001820154602082015260028201546040820152600390910154606082015260800190565b60405180910390a15050565b60606000610ec6836113f3565b90506000815167ffffffffffffffff811115610ee457610ee4611867565b604051908082528060200260200182016040528015610f0d578160200160208202803683370190505b50905060005b825181101561066857610f3f85848381518110610f3257610f32611a88565b6020026020010151610f7b565b828281518110610f5157610f51611a88565b6020908102919091010152600101610f13565b600080610f6f610a5a565b9050610cde8184611400565b6001600160a01b0381166000908152600283016020526040812081610f9e6103de565b905080600003610fc25760018201548254610fb99190611a75565b92505050610545565b600182015460405163c30b259b60e01b815260009173__$54cfd135a3b5f05a8488b7e4b687d6e5b3$__9163c30b259b9161100a918690600401918252602082015260400190565b602060405180830381865af4158015611027573d6000803e3d6000fd5b505050506040513d601f19601f8201168201806040525081019061104b9190611ad4565b90508083600001541161105f57600061106c565b825461106c908290611a75565b9350505050610545565b60606000611083836113f3565b90506000815167ffffffffffffffff8111156110a1576110a1611867565b6040519080825280602002602001820160405280156110fd57816020015b6110ea6040518060800160405280600081526020016000815260200160008152602001600081525090565b8152602001906001900390816110bf5790505b50905060005b82518110156106685784600301600084838151811061112457611124611a88565b60200260200101516001600160a01b03166001600160a01b0316815260200190815260200160002060405180608001604052908160008201548152602001600182015481526020016002820154815260200160038201548152505082828151811061119157611191611a88565b6020908102919091010152600101611103565b6111dd6040518060c001604052806000815260200160008152602001600081526020016000815260200160608152602001606081525090565b73__$b0eec15594c58b534ae5f5b30a1fad312d$__634f42ce056040518163ffffffff1660e01b8152600401600060405180830381865af4158015611226573d6000803e3d6000fd5b505050506040513d6000823e601f3d908101601f1916820160405261124e9190810190611bbf565b905090565b6112a460405180610100016040528060006001600160a01b03168152602001600081526020016000815260200160008152602001600081526020016000815260200160008152602001600081525090565b6001600160a01b03831681528154602080830182905260018401546040808501829052600286015460608601819052608086019490945260a085019190915260c0840192909252815163384bb44f60e21b8152915173__$27841a34e195c5bdb1981cd870ebbdf8d8$__9263e12ed13c9260048083019391928290030181865af4158015611336573d6000803e3d6000fd5b505050506040513d601f19601f8201168201806040525081019061135a9190611ad4565b60e082015292915050565b805160208083015160408085015160608087015160808089015160a0808b015160c0808d015160e0808f01518b516001600160a01b03909f168f529c8e019b909b52988c0197909752948a0193909352908801528601528401528201527f217ba1d63771ad2228865ab2d862a89115d536eabbe8315c584eafe090d7f422906101000160405180910390a150565b60606000610cde8361151d565b6001600160a01b03811660009081526001830160205260408120541515610cde565b6000826000036114575760208401516040850151855184929161144491611a9e565b61144e9190611a75565b10159050610cde565b81846020015173__$54cfd135a3b5f05a8488b7e4b687d6e5b3$__63ee7fc5a38760400151886000015161148b9190611a9e565b876040518363ffffffff1660e01b81526004016114b2929190918252602082015260400190565b602060405180830381865af41580156114cf573d6000803e3d6000fd5b505050506040513d601f19601f820116820180604052508101906114449190611ad4565b6000610cde836001600160a01b038416611579565b6000610cde836001600160a01b0384166115c8565b60608160000180548060200260200160405190810160405280929190818152602001828054801561156d57602002820191906000526020600020905b815481526020019060010190808311611559575b50505050509050919050565b60008181526001830160205260408120546115c057508154600181810184556000848152602080822090930184905584548482528286019093526040902091909155610545565b506000610545565b600081815260018301602052604081205480156116b15760006115ec600183611a75565b855490915060009061160090600190611a75565b905081811461166557600086600001828154811061162057611620611a88565b906000526020600020015490508087600001848154811061164357611643611a88565b6000918252602080832090910192909255918252600188019052604090208390555b855486908061167657611676611c78565b600190038181906000526020600020016000905590558560010160008681526020019081526020016000206000905560019350505050610545565b6000915050610545565b6001600160a01b03811681146116d057600080fd5b50565b6000806000606084860312156116e857600080fd5b8335925060208401356116fa816116bb565b929592945050506040919091013590565b6000806040838503121561171e57600080fd5b823591506020830135611730816116bb565b809150509250929050565b81518152602080830151908201526040808301519082015260608101610545565b60006020828403121561176e57600080fd5b5035919050565b6020808252825182820181905260009190848201906040850190845b818110156117cb576117b88385518051825260208082015190830152604090810151910152565b9284019260609290920191600101611791565b50909695505050505050565b6020808252825182820181905260009190848201906040850190845b818110156117cb5783516001600160a01b0316835292840192918401916001016117f3565b6000806000806080858703121561182e57600080fd5b843593506020850135611840816116bb565b9250604085013591506060850135801515811461185c57600080fd5b939692955090935050565b634e487b7160e01b600052604160045260246000fd5b60405160c0810167ffffffffffffffff811182821017156118a0576118a0611867565b60405290565b604051601f8201601f1916810167ffffffffffffffff811182821017156118cf576118cf611867565b604052919050565b600067ffffffffffffffff8211156118f1576118f1611867565b5060051b60200190565b6000806040838503121561190e57600080fd5b8235915060208084013567ffffffffffffffff81111561192d57600080fd5b8401601f8101861361193e57600080fd5b803561195161194c826118d7565b6118a6565b81815260059190911b8201830190838101908883111561197057600080fd5b928401925b82841015611997578335611988816116bb565b82529284019290840190611975565b80955050505050509250929050565b6020808252825182820181905260009190848201906040850190845b818110156117cb578351835292840192918401916001016119c2565b6000602082840312156119f057600080fd5b8135610cde816116bb565b602080825282518282018190526000919060409081850190868401855b82811015611a5257815180518552868101518786015285810151868601526060908101519085015260809093019290850190600101611a18565b5091979650505050505050565b634e487b7160e01b600052601160045260246000fd5b8181038181111561054557610545611a5f565b634e487b7160e01b600052603260045260246000fd5b8082018082111561054557610545611a5f565b600060208284031215611ac357600080fd5b815160ff81168114610cde57600080fd5b600060208284031215611ae657600080fd5b5051919050565b600082601f830112611afe57600080fd5b81516020611b0e61194c836118d7565b8083825260208201915060208460051b870101935086841115611b3057600080fd5b602086015b84811015611b55578051611b48816116bb565b8352918301918301611b35565b509695505050505050565b600082601f830112611b7157600080fd5b81516020611b8161194c836118d7565b8083825260208201915060208460051b870101935086841115611ba357600080fd5b602086015b84811015611b555780518352918301918301611ba8565b600060208284031215611bd157600080fd5b815167ffffffffffffffff80821115611be957600080fd5b9083019060c08286031215611bfd57600080fd5b611c0561187d565b82518152602083015160208201526040830151604082015260608301516060820152608083015182811115611c3957600080fd5b611c4587828601611aed565b60808301525060a083015182811115611c5d57600080fd5b611c6987828601611b60565b60a08301525095945050505050565b634e487b7160e01b600052603160045260246000fdfea2646970667358221220433a79e276ac3d879191782325dd0d3f634a5b53ce4b720cc0c88ebdc29620c864736f6c63430008190033","linkReferences":{"src/storage/AppPoolConfig.sol":{"AppPoolConfig":[{"start":4632,"length":20}]},"src/utils/CalUtils.sol":{"CalUtils":[{"start":1871,"length":20},{"start":3207,"length":20},{"start":4114,"length":20},{"start":5272,"length":20}]},"src/utils/ChainUtils.sol":{"ChainUtils":[{"start":4916,"length":20}]},"src/utils/TokenUtils.sol":{"TokenUtils":[{"start":1965,"length":20}]}}},"methodIdentifiers":{"addStableToken(UsdPool.Props storage,address,uint256)":"6552dedf","addSupportStableTokens(UsdPool.Props storage,address[])":"c9dbcb32","addUnsettleStableToken(UsdPool.Props storage,address,uint256)":"4a637e80","emitPoolBorrowingFeeUpdateEvent(UsdPool.Props storage,address)":"d548ca9e","getAllBorrowingFees(UsdPool.Props storage)":"ffabfaeb","getBorrowingFees(UsdPool.Props storage,address)":"7606f66c","getMaxAmountStableToken(UsdPool.Props storage)":"58b30cbb","getMaxWithdraw(UsdPool.Props storage,address)":"ff0bc0ed","getMaxWithdrawArray(UsdPool.Props storage)":"deaa0a37","getPoolLiquidityLimit()":"0b4fff73","getStableTokenBalance(UsdPool.Props storage,address)":"36dd0ce3","getStableTokenBalanceArray(UsdPool.Props storage)":"399b21a0","getStableTokens(UsdPool.Props storage)":"d421c80a","getSupportedStableTokens()":"95404295","holdStableToken(UsdPool.Props storage,address,uint256)":"a000e361","isSubAmountAllowed(UsdPool.Props storage,address,uint256)":"b0900a3d","isSupportStableToken(address)":"e4dd3684","load()":"86d5c4be","removeSupportStableToken(UsdPool.Props storage,address)":"b78c7e8e","settleStableToken(UsdPool.Props storage,address,uint256,bool)":"b25c48c9","subStableToken(UsdPool.Props storage,address,uint256)":"2658e84d","unHoldStableToken(UsdPool.Props storage,address,uint256)":"67fd0ad8"},"id":157}