{"abi":[{"type":"function","name":"getFeedUsdAddress","inputs":[{"name":"token","type":"address","internalType":"address"}],"outputs":[{"name":"","type":"address","internalType":"address"}],"stateMutability":"view"}],"bytecode":{"object":"0x610385610039600b82828239805160001a607314602c57634e487b7160e01b600052600060045260246000fd5b30600052607381538281f3fe730000000000000000000000000000000000000000301460806040526004361061004b5760003560e01c80630d464dc61461005057806386d5c4be14610083578063aff84e591461008b575b600080fd5b81801561005c57600080fd5b5061007061006b3660046102b3565b6100b6565b6040519081526020015b60405180910390f35b61007061014b565b61009e610099366004610317565b6101ad565b6040516001600160a01b03909116815260200161007a565b60006100c061014b565b905060005b8351811015610144578281815181106100e0576100e0610339565b602002602001015182600001600086848151811061010057610100610339565b6020908102919091018101516001600160a01b0390811683529082019290925260400160002080546001600160a01b031916929091169190911790556001016100c5565b5092915050565b60008060405160200161018f906020808252601b908201527f78797a2e656c66692e73746f726167652e4f7261636c65466565640000000000604082015260600190565b60408051601f19818403018152919052805160209091012092915050565b6000806101b861014b565b6001600160a01b039384166000908152602091909152604090205490921692915050565b634e487b7160e01b600052604160045260246000fd5b80356001600160a01b038116811461020957600080fd5b919050565b600082601f83011261021f57600080fd5b8135602067ffffffffffffffff8083111561023c5761023c6101dc565b8260051b604051601f19603f83011681018181108482111715610261576102616101dc565b604052938452602081870181019490810192508785111561028157600080fd5b6020870191505b848210156102a857610299826101f2565b83529183019190830190610288565b979650505050505050565b600080604083850312156102c657600080fd5b823567ffffffffffffffff808211156102de57600080fd5b6102ea8683870161020e565b9350602085013591508082111561030057600080fd5b5061030d8582860161020e565b9150509250929050565b60006020828403121561032957600080fd5b610332826101f2565b9392505050565b634e487b7160e01b600052603260045260246000fdfea26469706673582212201feb70139e5ed23123c56b91d201fad2d569d6c356a09cec1136e4164565c33d64736f6c63430008190033","linkReferences":{}},"methodIdentifiers":{"create(address[],address[])":"0d464dc6","getFeedUsdAddress(address)":"aff84e59","load()":"86d5c4be"},"id":135}