{"abi":[{"type":"function","name":"swapPortfolioToPayLiability","inputs":[{"name":"accounts","type":"address[]","internalType":"address[]"},{"name":"accountTokens","type":"address[][]","internalType":"address[][]"},{"name":"oracles","type":"tuple[]","internalType":"struct OracleProcess.OracleParam[]","components":[{"name":"token","type":"address","internalType":"address"},{"name":"targetToken","type":"address","internalType":"address"},{"name":"minPrice","type":"int256","internalType":"int256"},{"name":"maxPrice","type":"int256","internalType":"int256"}]}],"outputs":[],"stateMutability":"nonpayable"},{"type":"event","name":"AccountTokenUpdateEvent","inputs":[{"name":"account","type":"address","indexed":false,"internalType":"address"},{"name":"token","type":"address","indexed":false,"internalType":"address"},{"name":"preBalance","type":"tuple","indexed":false,"internalType":"struct Account.TokenBalance","components":[{"name":"amount","type":"uint256","internalType":"uint256"},{"name":"usedAmount","type":"uint256","internalType":"uint256"},{"name":"interest","type":"uint256","internalType":"uint256"},{"name":"liability","type":"uint256","internalType":"uint256"}]},{"name":"balance","type":"tuple","indexed":false,"internalType":"struct Account.TokenBalance","components":[{"name":"amount","type":"uint256","internalType":"uint256"},{"name":"usedAmount","type":"uint256","internalType":"uint256"},{"name":"interest","type":"uint256","internalType":"uint256"},{"name":"liability","type":"uint256","internalType":"uint256"}]},{"name":"source","type":"uint8","indexed":false,"internalType":"enum Account.UpdateSource"}],"anonymous":false},{"type":"error","name":"AccountNotExist","inputs":[]},{"type":"error","name":"IgnoreSwapWithAccountLiabilityZero","inputs":[]},{"type":"error","name":"InvalidRoleAccess","inputs":[{"name":"account","type":"address","internalType":"address"},{"name":"role","type":"bytes32","internalType":"bytes32"}]},{"type":"error","name":"PriceIsZero","inputs":[]},{"type":"error","name":"TransferErrorWithVaultBalanceNotEnough","inputs":[{"name":"vault","type":"address","internalType":"address"},{"name":"token","type":"address","internalType":"address"},{"name":"receiver","type":"address","internalType":"address"},{"name":"amount","type":"uint256","internalType":"uint256"}]}],"bytecode":{"object":"0x6080604052348015600f57600080fd5b506133048061001f6000396000f3fe608060405234801561001057600080fd5b506004361061002b5760003560e01c80637bdb02cb14610030575b600080fd5b61004361003e366004612da8565b610045565b005b6100576525a2a2a822a960d11b61019f565b6100b28282808060200260200160405190810160405280939291908181526020016000905b828210156100a85761009960808302860136819003810190612e9c565b8152602001906001019061007c565b50505050506101d7565b60005b8581101561018e5760006100ee8888848181106100d4576100d4612f1f565b90506020020160208101906100e99190612f35565b610357565b90506100f9816103cd565b60005b86868481811061010e5761010e612f1f565b90506020028101906101209190612f52565b90508110156101845761017b8288888681811061013f5761013f612f1f565b90506020028101906101519190612f52565b8481811061016157610161612f1f565b90506020020160208101906101769190612f35565b6103f5565b506001016100fc565b50506001016100b5565b506101976106d7565b505050505050565b6101a933826106e9565b6101d457604051632d7d0e0d60e21b8152336004820152602481018290526044015b60405180910390fd5b50565b60006101e1610721565b905060005b82518110156103525760006001600160a01b031683828151811061020c5761020c612f1f565b6020026020010151602001516001600160a01b0316036102ab576102a683828151811061023b5761023b612f1f565b602002602001015160000151604051806040016040528086858151811061026457610264612f1f565b602002602001015160400151815260200186858151811061028757610287612f1f565b602002602001015160600151815250846107839092919063ffffffff16565b61034a565b61034a8382815181106102c0576102c0612f1f565b6020026020010151600001518483815181106102de576102de612f1f565b602002602001015160200151604051806040016040528087868151811061030757610307612f1f565b602002602001015160400151815260200187868151811061032a5761032a612f1f565b602002602001015160600151815250856107cb909392919063ffffffff16565b6001016101e6565b505050565b600080826040516020016103ae919060408082526018908201527f78797a2e656c66692e73746f726167652e4163636f756e74000000000000000060608201526001600160a01b0391909116602082015260800190565b60408051601f1981840301815291905280516020909101209392505050565b80546001600160a01b03166101d457604051633902b86b60e11b815260040160405180910390fd5b6103fd612cd6565b60006104098484610848565b6060015190506000811161043057604051633d41f51760e11b815260040160405180910390fd5b600061043b856108c5565b90506000815167ffffffffffffffff81111561045957610459612e71565b604051908082528060200260200182016040528015610482578160200160208202803683370190505b5090506000825167ffffffffffffffff8111156104a1576104a1612e71565b6040519080825280602002602001820160405280156104ca578160200160208202803683370190505b50905060005b8351811015610610576105058482815181106104ee576104ee612f1f565b602002602001015189610b1090919063ffffffff16565b83828151811061051757610517612f1f565b60200260200101818152505082818151811061053557610535612f1f565b6020026020010151600003156106085760006105c384838151811061055c5761055c612f1f565b602002602001015161058687858151811061057957610579612f1f565b6020026020010151610b72565b61058f8b610b72565b6105b38987815181106105a4576105a4612f1f565b60200260200101516001610bd6565b6105be8d6000610bd6565b610bfb565b90506105db816105d1610c70565b6101e001516112f3565b6105e59082612fb2565b9050808383815181106105fa576105fa612f1f565b602002602001018181525050505b6001016104d0565b506000306001600160a01b0316631f7592ea6040518163ffffffff1660e01b8152600401602060405180830381865afa158015610651573d6000803e3d6000fd5b505050506040513d601f19601f820116820180604052508101906106759190612fc5565b88546040805160e0810182526001600160a01b03808516808352602083018a9052928201889052606082018790528b8116608083015260a082019290925260c081018990529293506106c99291169061130a565b955050505050505b92915050565b6106e76106e2610721565b611539565b565b6000806106f4611630565b6001600160a01b03851660009081526020829052604090209091506107199084611674565b949350505050565b600080604051602001610765906020808252601c908201527f78797a2e656c66692e73746f726167652e4f7261636c65507269636500000000604082015260600190565b60408051601f19818403018152919052805160209091012092915050565b61078d838361168c565b61079d5761079b83836116ae565b505b6001600160a01b03909116600090815260029092016020908152604090922081518155910151600190910155565b604080516001600160a01b03858116602080840191909152908516828401528251808303840181526060909201909252805191012061080d6004860182611674565b6108205761081e60048601826116c3565b505b6000908152600690940160209081526040909420815181559301516001909301929092555050565b6108736040518060800160405280600081526020016000815260200160008152602001600081525090565b506001600160a01b031660009081526004919091016020908152604091829020825160808101845281548152600182015492810192909252600281015492820192909252600390910154606082015290565b606060006108d5836002016116cf565b90506000815167ffffffffffffffff8111156108f3576108f3612e71565b60405190808252806020026020018201604052801561092c57816020015b610919612d0e565b8152602001906001900390816109115790505b50905060005b82518110156109825761095d83828151811061095057610950612f1f565b60200260200101516116dc565b82828151811061096f5761096f612f1f565b6020908102919091010152600101610932565b5060015b8151811015610b075760008282815181106109a3576109a3612f1f565b6020026020010151905060008483815181106109c1576109c1612f1f565b6020026020010151905060008390505b60018110158015610a0c5750846109e9600183612fb2565b815181106109f9576109f9612f1f565b6020026020010151604001518360400151105b15610ab25784610a1d600183612fb2565b81518110610a2d57610a2d612f1f565b6020026020010151858281518110610a4757610a47612f1f565b602090810291909101015285610a5e600183612fb2565b81518110610a6e57610a6e612f1f565b6020026020010151868281518110610a8857610a88612f1f565b6001600160a01b039092166020928302919091019091015280610aaa81612fe2565b9150506109d1565b82858281518110610ac557610ac5612f1f565b602002602001018190525081868281518110610ae357610ae3612f1f565b6001600160a01b039290921660209283029190910190910152505050600101610986565b50909392505050565b6001600160a01b03811660009081526004830160205260408120600181015490541115610b69576001600160a01b0382166000908152600484016020526040902060018101549054610b629190612fb2565b90506106d1565b50600092915050565b6000816001600160a01b031663313ce5676040518163ffffffff1660e01b8152600401602060405180830381865afa158015610bb2573d6000803e3d6000fd5b505050506040513d601f19601f820116820180604052508101906106d19190612ff9565b600080610be284611a59565b905082610bf3578060200151610719565b519392505050565b60008460ff168460ff1610610c4357610c3c82610c36610c1b888861301c565b610c2690600a613119565b610c308a88611aec565b90611aec565b90611af8565b9050610c67565b610c3c610c50858761301c565b610c5b90600a613119565b610c3684818a88611aec565b95945050505050565b610cf0604051806102000160405280606081526020016060815260200160008152602001600081526020016000815260200160008152602001600081526020016000815260200160008152602001600081526020016000815260200160008152602001600081526020016000815260200160008152602001600081525090565b600080604051602001610d23906020808252600c908201526b54524144455f434f4e46494760a01b604082015260600190565b604051602081830303815290604052805190602001209050610dc481604051602001610d6f906020808252600c908201526b54524144455f544f4b454e5360a01b604082015260600190565b60405160208183030381529060405280519060200120604051602001610d9f929190918252602082015260400190565b6040516020818303038152906040528051906020012083611b0490919063ffffffff16565b8084525167ffffffffffffffff811115610de057610de0612e71565b604051908082528060200260200182016040528015610e1957816020015b610e06612d0e565b815260200190600190039081610dfe5790505b50602084015260005b835151811015610e6e57610e458460000151828151811061095057610950612f1f565b84602001518281518110610e5b57610e5b612f1f565b6020908102919091010152600101610e22565b50610f0081604051602001610eab9060208082526014908201527313525397d3d491115497d3505491d25397d554d160621b604082015260600190565b60405160208183030381529060405280519060200120604051602001610edb929190918252602082015260400190565b6040516020818303038152906040528051906020012083611b7390919063ffffffff16565b836040018181525050610f4e81604051602001610eab906020808252601a908201527f415641494c41424c455f434f4c4c41544552414c5f524154494f000000000000604082015260600190565b6060840152604051610f8c908290610eab906020016020808252600f908201526e10d493d4d4d7d3151597d312535255608a1b604082015260600190565b6080840152604051610fd8908290610eab906020016020808252601b908201527f4d41585f4d41494e54454e414e43455f4d415247494e5f524154450000000000604082015260600190565b60a084015260405161101c908290610eab9060200160208082526015908201527446554e44494e475f4645455f424153455f5241544560581b604082015260600190565b60c0840152604051611060908290610eab906020016020808252601590820152744d41585f46554e44494e475f424153455f5241544560581b604082015260600190565b60e08401526040516110b6908290610eab9060200160208082526021908201527f54524144494e475f4645455f5354414b494e475f524557415244535f524154496040820152604f60f81b606082015260800190565b610100840152604051611103908290610eab906020016020808252601e908201527f54524144494e475f4645455f504f4f4c5f524557415244535f524154494f0000604082015260600190565b61012084015260405161115b908290610eab9060200160208082526022908201527f54524144494e475f4645455f5553445f504f4f4c5f524557415244535f524154604082015261494f60f01b606082015260800190565b6101408401526040516111b4908290610eab9060200160208082526023908201527f424f52524f57494e475f4645455f5354414b494e475f524557415244535f524160408201526254494f60e81b606082015260800190565b6101608401526040516111ff908290610eab906020016020808252818101527f424f52524f57494e475f4645455f504f4f4c5f524557415244535f524154494f604082015260600190565b61018084015260405161124c908290610eab9060200160208082526019908201527f4155544f5f5245445543455f50524f4649545f464143544f5200000000000000604082015260600190565b6101a0840152604051611299908290610eab906020016020808252601c908201527f4155544f5f5245445543455f4c49515549444954595f464143544f5200000000604082015260600190565b6101c08401526040516112e6908290610eab9060200160208082526019908201527f535741505f534c49505045525f544f4b454e5f464143544f5200000000000000604082015260600190565b6101e08401525090919050565b60006113038383620186a0611b86565b9392505050565b611312612cd6565b600061131d83611c6f565b905061134c604051806060016040528060006001600160a01b0316815260200160608152602001606081525090565b6001600160a01b0385168152815151611366906001613128565b67ffffffffffffffff81111561137e5761137e612e71565b6040519080825280602002602001820160405280156113a7578160200160208202803683370190505b5060208201528151516113bb906001613128565b67ffffffffffffffff8111156113d3576113d3612e71565b6040519080825280602002602001820160405280156113fc578160200160208202803683370190505b50604082015260005b8251518110156114b957825180518290811061142357611423612f1f565b60200260200101518260200151828151811061144157611441612f1f565b60200260200101906001600160a01b031690816001600160a01b0316815250506114878360200151828151811061147a5761147a612f1f565b602002602001015161204b565b6114909061313b565b826040015182815181106114a6576114a6612f1f565b6020908102919091010152600101611405565b5060408201516020820151835151815181106114d7576114d7612f1f565b60200260200101906001600160a01b031690816001600160a01b031681525050611504826060015161204b565b60408201518351518151811061151c5761151c612f1f565b602002602001018181525050611531816120b9565b509392505050565b6000611544826116cf565b905060005b81518110156103525782600201600083838151811061156a5761156a612f1f565b60200260200101516001600160a01b03166001600160a01b03168152602001908152602001600020600080820160009055600182016000905550508260030160008383815181106115bd576115bd612f1f565b60200260200101516001600160a01b03166001600160a01b031681526020019081526020016000206000808201600090556001820160009055505061162782828151811061160d5761160d612f1f565b60200260200101518460000161221490919063ffffffff16565b50600101611549565b600080604051602001610765906020808252601e908201527f78797a2e656c66692e73746f726167652e416363657373436f6e74726f6c0000604082015260600190565b60008181526001830160205260408120541515611303565b6001600160a01b03811660009081526001830160205260408120541515611303565b6000611303836001600160a01b038416612229565b60006113038383612229565b6060600061130383612278565b6116e4612d0e565b6116ec612d0e565b6000806040516020016117259060208082526012908201527154524144455f544f4b454e5f434f4e46494760701b604082015260600190565b60408051601f198184030181529190528051602090910120905061174a8282876122d4565b6117575750909392505050565b6117fc8186604051602001611795906020808252601590820152741254d7d4d5541413d49517d0d3d313105511549053605a1b604082015260600190565b604051602081830303815290604052805190602001206040516020016117d7939291909283526001600160a01b03919091166020830152604082015260600190565b60405160208183030381529060405280519060200120836122ee90919063ffffffff16565b15158352604051611877908290879061183590602001602080825260099082015268282922a1a4a9a4a7a760b91b604082015260600190565b60405160208183030381529060405280519060200120604051602001610edb939291909283526001600160a01b03919091166020830152604082015260600190565b8360200181815250506118b1818660405160200161183590602080825260089082015267111254d0d3d5539560c21b604082015260600190565b8360400181815250506118f68186604051602001611835906020808252601390820152720434f4c4c41544552414c5f555345525f43415606c1b604082015260600190565b606084015260405161193b9082908790611835906020016020808252601490820152730434f4c4c41544552414c5f544f54414c5f4341560641b604082015260600190565b608084015260405161197e90829087906118359060200160208082526012908201527104c494142494c4954595f555345525f4341560741b604082015260600190565b60a08401526040516119c290829087906118359060200160208082526013908201527204c494142494c4954595f544f54414c5f43415606c1b604082015260600190565b60c0840152604051611a0790829087906118359060200160208082526014908201527324a72a22a922a9aa2fa920aa22afa320a1aa27a960611b604082015260600190565b60e0840152604051611a4a9082908790611835906020016020808252601290820152712624a8aaa4a220aa24a7a72fa320a1aa27a960711b604082015260600190565b61010084015250909392505050565b60408051808201909152600080825260208201526000611a77610721565b604080518082018252600080825260209182018190526001600160a01b03871681526002840182528290208251808401909352805480845260019091015491830191909152919250901580611ace57506020810151155b156113035760405163907adecd60e01b815260040160405180910390fd5b60006113038284613157565b60006113038284613184565b6000818152600883016020908152604091829020805483518184028101840190945280845260609392830182828015611b6657602002820191906000526020600020905b81546001600160a01b03168152600190910190602001808311611b48575b5050505050905092915050565b6000908152602091909152604090205490565b6000808060001985870985870292508281108382030391505080600003611bc057838281611bb657611bb661316e565b0492505050611303565b808411611c075760405162461bcd60e51b81526020600482015260156024820152744d6174683a206d756c446976206f766572666c6f7760581b60448201526064016101cb565b600084868809600260036001881981018916988990049182028318808302840302808302840302808302840302808302840302808302840302918202909203026000889003889004909101858311909403939093029303949094049190911702949350505050565b611c77612cd6565b60208201805182526080808401516001600160a01b0316604084015260c084015190830152515167ffffffffffffffff811115611cb657611cb6612e71565b604051908082528060200260200182016040528015611cdf578160200160208202803683370190505b5060208201526000611cef612307565b905060005b83602001515181101561204457600084604001518281518110611d1957611d19612f1f565b60200260200101519050600085606001518381518110611d3b57611d3b612f1f565b6020026020010151905084606001518660c00151611d599190612fb2565b811115611e1657611dfd611d8286606001518860c00151611d7a9190612fb2565b6105d1610c70565b86606001518860c00151611d969190612fb2565b611da09190613128565b611dad8860800151610b72565b611dc68960200151878151811061057957610579612f1f565b611dd58a608001516001610bd6565b6105be8b602001518981518110611dee57611dee612f1f565b60200260200101516000610bd6565b915084606001518660c00151611e139190612fb2565b90505b81600003611e2557505061203c565b611e54866000015187602001518581518110611e4357611e43612f1f565b6020026020010151308560006123e1565b50611e7d86602001518481518110611e6e57611e6e612f1f565b6020026020010151858461252b565b600060405180610100016040528088602001518681518110611ea157611ea1612f1f565b60200260200101516001600160a01b0316815260200188608001516001600160a01b03168152602001610bb862ffffff1681526020018860a001516001600160a01b031681526020014281526020018481526020016000815260200160006001600160a01b031681525090506000856001600160a01b031663414bf389836040518263ffffffff1660e01b8152600401611f9f919081516001600160a01b03908116825260208084015182169083015260408084015162ffffff16908301526060808401518216908301526080808401519083015260a0838101519083015260c0808401519083015260e09283015116918101919091526101000190565b6020604051808303816000875af1158015611fbe573d6000803e3d6000fd5b505050506040513d601f19601f82011682018060405250810190611fe291906131a6565b90508087606001818151611ff69190613128565b905250602087015180518591908790811061201357612013612f1f565b6020026020010181815250508760c001518760600151106120375750505050612044565b505050505b600101611cf4565b5050919050565b60006001600160ff1b038211156120b55760405162461bcd60e51b815260206004820152602860248201527f53616665436173743a2076616c756520646f65736e27742066697420696e2061604482015267371034b73a191a9b60c11b60648201526084016101cb565b5090565b60006120c88260000151610357565b90506120d3816103cd565b60005b82602001515181101561035257826040015181815181106120f9576120f9612f1f565b60200260200101516000031561220c5760008360400151828151811061212157612121612f1f565b602002602001015113156121b45761217e8360200151828151811061214857612148612f1f565b60200260200101516121768560400151848151811061216957612169612f1f565b602002602001015161262b565b84919061267d565b6121ae8360200151828151811061219757612197612f1f565b60200260200101518361268a90919063ffffffff16565b5061220c565b61220c836020015182815181106121cd576121cd612f1f565b6020026020010151612204856040015184815181106121ee576121ee612f1f565b60200260200101516121ff9061313b565b61262b565b849190612698565b6001016120d6565b6000611303836001600160a01b0384166126a5565b6000818152600183016020526040812054612270575081546001818101845560008481526020808220909301849055845484825282860190935260409020919091556106d1565b5060006106d1565b6060816000018054806020026020016040519081016040528092919081815260200182805480156122c857602002820191906000526020600020905b8154815260200190600101908083116122b4575b50505050509050919050565b6000828152600c840160205260408120610719908361168c565b6000908152600391909101602052604090205460ff1690565b6000806123db60405160200161233e906020808252600d908201526c434f4d4d4f4e5f434f4e46494760981b604082015260600190565b60405160208183030381529060405280519060200120604051602001612386906020808252600e908201526d2aa724a9aba0a82fa927aaaa22a960911b604082015260600190565b604051602081830303815290604052805190602001206040516020016123b6929190918252602082015260400190565b604051602081830303815290604052805190602001208261279890919063ffffffff16565b91505090565b6000826000036123f357506000610c67565b6040516370a0823160e01b81526001600160a01b038781166004830152600091908716906370a0823190602401602060405180830381865afa15801561243d573d6000803e3d6000fd5b505050506040513d601f19601f8201168201806040525081019061246191906131a6565b90508381106124de5760405163078d3b7960e01b81526001600160a01b03878116600483015286811660248301526044820186905288169063078d3b7990606401600060405180830381600087803b1580156124bc57600080fd5b505af11580156124d0573d6000803e3d6000fd5b505050506001915050610c67565b8261251e57604051635ac09ed760e11b81526001600160a01b038089166004830152808816602483015286166044820152606481018590526084016101cb565b5060009695505050505050565b604080516001600160a01b038481166024830152604480830185905283518084039091018152606490920183526020820180516001600160e01b031663095ea7b360e01b179052915160009283929087169161258791906131bf565b6000604051808303816000865af19150503d80600081146125c4576040519150601f19603f3d011682016040523d82523d6000602084013e6125c9565b606091505b50915091508180156125f35750805115806125f35750808060200190518101906125f391906131ee565b6126245760405162461bcd60e51b8152602060048201526002602482015261534160f01b60448201526064016101cb565b5050505050565b6000808212156120b55760405162461bcd60e51b815260206004820181905260248201527f53616665436173743a2076616c7565206d75737420626520706f73697469766560448201526064016101cb565b61035283838360006127b7565b60006113038383600061288e565b61035283838360006129c1565b6000818152600183016020526040812054801561278e5760006126c9600183612fb2565b85549091506000906126dd90600190612fb2565b90508181146127425760008660000182815481106126fd576126fd612f1f565b906000526020600020015490508087600001848154811061272057612720612f1f565b6000918252602080832090910192909255918252600188019052604090208390555b855486908061275357612753613210565b6001900381819060005260206000200160009055905585600101600086815260200190815260200160002060009055600193505050506106d1565b60009150506106d1565b600090815260029190910160205260409020546001600160a01b031690565b6127c4600285018461168c565b6127d7576127d560028501846116ae565b505b6001600160a01b03831660009081526004850160209081526040808320815160808101835281548082526001830154948201949094526002820154928101929092526003810154606083015292909185918491612835908490613128565b909155505085546040517f1d59acd5f3bb87326c498fe747e339bda33b5370b6f8df63a48f232d73efb7489161287e916001600160a01b03909116908890859087908990613248565b60405180910390a1505050505050565b6001600160a01b038216600090815260048401602052604081206003810154158015906128bb5750805415155b15611531576040805160808101825282548082526001840154602083015260028401549282019290925260038301546060820181905290911015612900578154612906565b81600301545b92508282600001600082825461291c9190612fb2565b92505081905550828260030160008282546129379190612fb2565b92505081905550828260010160008282546129529190612fb2565b9091555061296c90508584612965612be6565b9190612c2a565b85546040517f1d59acd5f3bb87326c498fe747e339bda33b5370b6f8df63a48f232d73efb748916129b0916001600160a01b03909116908890859087908a90613248565b60405180910390a150509392505050565b6129ce600285018461168c565b612a0e5760405162461bcd60e51b8152602060048201526011602482015270746f6b656e206e6f74206578697374732160781b60448201526064016101cb565b6001600160a01b0383166000908152600485016020526040902054821115612a785760405162461bcd60e51b815260206004820152601860248201527f746f6b656e20616d6f756e74206e6f7420656e6f75676821000000000000000060448201526064016101cb565b6001600160a01b0383166000908152600485016020526040902060010154612aa1908390613128565b6001600160a01b03841660009081526004860160205260409020541015612b1f5760405162461bcd60e51b815260206004820152602c60248201527f746f6b656e20616d6f756e74206578636c756465207573656420616d6f756e7460448201526b206e6f7420656e6f7567682160a01b60648201526084016101cb565b6001600160a01b03831660008181526004860160208181526040808420815160808101835281548082526001830154828601526002830154938201939093526003820154606082015295855292909152859290612b7d908490612fb2565b909155505084546001600160a01b0385811660009081526004880160205260409081902090517f1d59acd5f3bb87326c498fe747e339bda33b5370b6f8df63a48f232d73efb74893612bd793169188918691908890613248565b60405180910390a15050505050565b600080604051602001610765906020808252601b908201527f78797a2e656c66692e73746f726167652e436f6d6d6f6e446174610000000000604082015260600190565b6001600160a01b0382166000908152600684016020526040902054811115612ca25760405162461bcd60e51b815260206004820152602560248201527f737562546f6b656e4c696162696c697479206c657373207468616e206c696162604482015264696c69747960d81b60648201526084016101cb565b6001600160a01b038216600090815260068401602052604081208054839290612ccc908490612fb2565b9091555050505050565b6040518060a00160405280606081526020016060815260200160006001600160a01b0316815260200160008152602001600081525090565b60405180610120016040528060001515815260200160008152602001600081526020016000815260200160008152602001600081526020016000815260200160008152602001600081525090565b60008083601f840112612d6e57600080fd5b50813567ffffffffffffffff811115612d8657600080fd5b6020830191508360208260051b8501011115612da157600080fd5b9250929050565b60008060008060008060608789031215612dc157600080fd5b863567ffffffffffffffff80821115612dd957600080fd5b612de58a838b01612d5c565b90985096506020890135915080821115612dfe57600080fd5b612e0a8a838b01612d5c565b90965094506040890135915080821115612e2357600080fd5b818901915089601f830112612e3757600080fd5b813581811115612e4657600080fd5b8a60208260071b8501011115612e5b57600080fd5b6020830194508093505050509295509295509295565b634e487b7160e01b600052604160045260246000fd5b6001600160a01b03811681146101d457600080fd5b600060808284031215612eae57600080fd5b6040516080810181811067ffffffffffffffff82111715612edf57634e487b7160e01b600052604160045260246000fd5b6040528235612eed81612e87565b81526020830135612efd81612e87565b6020820152604083810135908201526060928301359281019290925250919050565b634e487b7160e01b600052603260045260246000fd5b600060208284031215612f4757600080fd5b813561130381612e87565b6000808335601e19843603018112612f6957600080fd5b83018035915067ffffffffffffffff821115612f8457600080fd5b6020019150600581901b3603821315612da157600080fd5b634e487b7160e01b600052601160045260246000fd5b818103818111156106d1576106d1612f9c565b600060208284031215612fd757600080fd5b815161130381612e87565b600081612ff157612ff1612f9c565b506000190190565b60006020828403121561300b57600080fd5b815160ff8116811461130357600080fd5b60ff82811682821603908111156106d1576106d1612f9c565b600181815b8085111561307057816000190482111561305657613056612f9c565b8085161561306357918102915b93841c939080029061303a565b509250929050565b600082613087575060016106d1565b81613094575060006106d1565b81600181146130aa57600281146130b4576130d0565b60019150506106d1565b60ff8411156130c5576130c5612f9c565b50506001821b6106d1565b5060208310610133831016604e8410600b84101617156130f3575081810a6106d1565b6130fd8383613035565b806000190482111561311157613111612f9c565b029392505050565b600061130360ff841683613078565b808201808211156106d1576106d1612f9c565b6000600160ff1b820161315057613150612f9c565b5060000390565b80820281158282048414176106d1576106d1612f9c565b634e487b7160e01b600052601260045260246000fd5b6000826131a157634e487b7160e01b600052601260045260246000fd5b500490565b6000602082840312156131b857600080fd5b5051919050565b6000825160005b818110156131e057602081860181015185830152016131c6565b506000920191825250919050565b60006020828403121561320057600080fd5b8151801515811461130357600080fd5b634e487b7160e01b600052603160045260246000fd5b600f811061324457634e487b7160e01b600052602160045260246000fd5b9052565b6001600160a01b03868116825285166020820152610160810161328f6040830186805182526020810151602083015260408101516040830152606081015160608301525050565b835460c0830152600184015460e0830152600284015461010083015260038401546101208301526132c4610140830184613226565b969550505050505056fea26469706673582212202a7b111ba44bc7fda24d86871bbffb2a4ad846846c9f7af81911c90bd8b0110a64736f6c63430008190033","linkReferences":{}},"methodIdentifiers":{"swapPortfolioToPayLiability(address[],address[][],(address,address,int256,int256)[])":"7bdb02cb"},"id":73}