{"abi":[{"type":"function","name":"swapPortfolioToPayLiability","inputs":[{"name":"accounts","type":"address[]","internalType":"address[]"},{"name":"accountTokens","type":"address[][]","internalType":"address[][]"},{"name":"oracles","type":"tuple[]","internalType":"struct OracleProcess.OracleParam[]","components":[{"name":"token","type":"address","internalType":"address"},{"name":"targetToken","type":"address","internalType":"address"},{"name":"minPrice","type":"int256","internalType":"int256"},{"name":"maxPrice","type":"int256","internalType":"int256"}]}],"outputs":[],"stateMutability":"nonpayable"},{"type":"error","name":"IgnoreSwapWithAccountLiabilityZero","inputs":[]},{"type":"error","name":"InvalidRoleAccess","inputs":[{"name":"account","type":"address","internalType":"address"},{"name":"role","type":"bytes32","internalType":"bytes32"}]}],"bytecode":{"object":"0x6080604052348015600f57600080fd5b506118a78061001f6000396000f3fe608060405234801561001057600080fd5b506004361061002b5760003560e01c80637bdb02cb14610030575b600080fd5b61004361003e366004610f52565b610045565b005b6100576525a2a2a822a960d11b6102d6565b604051631d4cb62f60e21b815273__$bb4e55f00c0f45d2719800850b371b8ff8$__90637532d8bc90610090908590859060040161102f565b60006040518083038186803b1580156100a857600080fd5b505af41580156100bc573d6000803e3d6000fd5b5050505060005b8581101561027157600073__$1dcbc4e76af7484d3342475f6e32ea9921$__632f40e7348989858181106100f9576100f96110a9565b905060200201602081019061010e91906110bf565b6040516001600160e01b031960e084901b1681526001600160a01b039091166004820152602401602060405180830381865af4158015610152573d6000803e3d6000fd5b505050506040513d601f19601f8201168201806040525081019061017691906110dc565b60405163fa98a2b960e01b81526004810182905290915073__$1dcbc4e76af7484d3342475f6e32ea9921$__9063fa98a2b99060240160006040518083038186803b1580156101c457600080fd5b505af41580156101d8573d6000803e3d6000fd5b5050505060005b8686848181106101f1576101f16110a9565b905060200281019061020391906110f5565b90508110156102675761025e82888886818110610222576102226110a9565b905060200281019061023491906110f5565b84818110610244576102446110a9565b905060200201602081019061025991906110bf565b61030e565b506001016101df565b50506001016100c3565b5073__$bb4e55f00c0f45d2719800850b371b8ff8$__63e52ed3656040518163ffffffff1660e01b815260040160006040518083038186803b1580156102b657600080fd5b505af41580156102ca573d6000803e3d6000fd5b50505050505050505050565b6102e03382610aad565b61030b57604051632d7d0e0d60e21b8152336004820152602481018290526044015b60405180910390fd5b50565b610316610ecf565b604051635342922b60e11b8152600481018490526001600160a01b038316602482015260009073__$1dcbc4e76af7484d3342475f6e32ea9921$__9063a685245690604401608060405180830381865af4158015610378573d6000803e3d6000fd5b505050506040513d601f19601f8201168201806040525081019061039c91906111f2565b606001519050600081116103c357604051633d41f51760e11b815260040160405180910390fd5b604051633087e7f760e11b81526004810185905260009073__$1dcbc4e76af7484d3342475f6e32ea9921$__9063610fcfee90602401600060405180830381865af4158015610416573d6000803e3d6000fd5b505050506040513d6000823e601f3d908101601f1916820160405261043e9190810190611302565b9050600081516001600160401b0381111561045b5761045b61113e565b604051908082528060200260200182016040528015610484578160200160208202803683370190505b509050600082516001600160401b038111156104a2576104a261113e565b6040519080825280602002602001820160405280156104cb578160200160208202803683370190505b50905060005b83518110156109e6578773__$1dcbc4e76af7484d3342475f6e32ea9921$__63c28348879091868481518110610509576105096110a9565b60200260200101516040518363ffffffff1660e01b81526004016105409291909182526001600160a01b0316602082015260400190565b602060405180830381865af415801561055d573d6000803e3d6000fd5b505050506040513d601f19601f8201168201806040525081019061058191906110dc565b838281518110610593576105936110a9565b6020026020010181815250508281815181106105b1576105b16110a9565b6020026020010151600003156109de57600073__$54cfd135a3b5f05a8488b7e4b687d6e5b3$__63f8739d7c8584815181106105ef576105ef6110a9565b602002602001015173__$27ae1b494209daa89c188ba5c7f8a7693b$__63d449a832898781518110610623576106236110a9565b60200260200101516040518263ffffffff1660e01b815260040161065691906001600160a01b0391909116815260200190565b602060405180830381865af4158015610673573d6000803e3d6000fd5b505050506040513d601f19601f820116820180604052508101906106979190611336565b604051636a24d41960e11b81526001600160a01b038d16600482015273__$27ae1b494209daa89c188ba5c7f8a7693b$__9063d449a83290602401602060405180830381865af41580156106ef573d6000803e3d6000fd5b505050506040513d601f19601f820116820180604052508101906107139190611336565b73__$bb4e55f00c0f45d2719800850b371b8ff8$__631a0994f58b898151811061073f5761073f6110a9565b60209081029190910101516040516001600160e01b031960e084901b1681526001600160a01b03909116600482015260016024820152604401602060405180830381865af4158015610795573d6000803e3d6000fd5b505050506040513d601f19601f820116820180604052508101906107b991906110dc565b604051631a0994f560e01b81526001600160a01b038f1660048201526000602482015273__$bb4e55f00c0f45d2719800850b371b8ff8$__90631a0994f590604401602060405180830381865af4158015610818573d6000803e3d6000fd5b505050506040513d601f19601f8201168201806040525081019061083c91906110dc565b6040516001600160e01b031960e088901b168152600481019590955260ff93841660248601529290911660448401526064830152608482015260a401602060405180830381865af4158015610895573d6000803e3d6000fd5b505050506040513d601f19601f820116820180604052508101906108b991906110dc565b905073__$54cfd135a3b5f05a8488b7e4b687d6e5b3$__63ee7fc5a38273__$b56fc33e0f834396fbc214489bd80c2dfc$__63b45849886040518163ffffffff1660e01b8152600401600060405180830381865af415801561091f573d6000803e3d6000fd5b505050506040513d6000823e601f3d908101601f191682016040526109479190810190611435565b6101e001516040516001600160e01b031960e085901b16815260048101929092526024820152604401602060405180830381865af415801561098d573d6000803e3d6000fd5b505050506040513d601f19601f820116820180604052508101906109b191906110dc565b6109bb9082611572565b9050808383815181106109d0576109d06110a9565b602002602001018181525050505b6001016104d1565b506000306001600160a01b0316631f7592ea6040518163ffffffff1660e01b8152600401602060405180830381865afa158015610a27573d6000803e3d6000fd5b505050506040513d601f19601f82011682018060405250810190610a4b9190611585565b88546040805160e0810182526001600160a01b03808516808352602083018a9052928201889052606082018790528b8116608083015260a082019290925260c08101899052929350610a9f92911690610ae5565b955050505050505b92915050565b600080610ab8610de4565b6001600160a01b0385166000908152602082905260409020909150610add9084610e46565b949350505050565b610aed610ecf565b6040516322f76fdf60e01b815260009073__$ca262b080372458bd5db04e5e671d7444d$__906322f76fdf90610b27908690600401611618565b600060405180830381865af4158015610b44573d6000803e3d6000fd5b505050506040513d6000823e601f3d908101601f19168201604052610b6c91908101906116c4565b9050610b9b604051806060016040528060006001600160a01b0316815260200160608152602001606081525090565b6001600160a01b0385168152815151610bb59060016117d0565b6001600160401b03811115610bcc57610bcc61113e565b604051908082528060200260200182016040528015610bf5578160200160208202803683370190505b506020820152815151610c099060016117d0565b6001600160401b03811115610c2057610c2061113e565b604051908082528060200260200182016040528015610c49578160200160208202803683370190505b50604082015260005b825151811015610d06578251805182908110610c7057610c706110a9565b602002602001015182602001518281518110610c8e57610c8e6110a9565b60200260200101906001600160a01b031690816001600160a01b031681525050610cd483602001518281518110610cc757610cc76110a9565b6020026020010151610e61565b610cdd906117e3565b82604001518281518110610cf357610cf36110a9565b6020908102919091010152600101610c52565b506040820151602082015183515181518110610d2457610d246110a9565b60200260200101906001600160a01b031690816001600160a01b031681525050610d518260600151610e61565b604082015183515181518110610d6957610d696110a9565b602090810291909101015260405163eec5b28760e01b815273__$ea03dc6e7176064baf45a14dcf3b0b0296$__9063eec5b28790610dab9084906004016117ff565b60006040518083038186803b158015610dc357600080fd5b505af4158015610dd7573d6000803e3d6000fd5b5093979650505050505050565b600080604051602001610e28906020808252601e908201527f78797a2e656c66692e73746f726167652e416363657373436f6e74726f6c0000604082015260600190565b60408051601f19818403018152919052805160209091012092915050565b600081815260018301602052604081205415155b9392505050565b60006001600160ff1b03821115610ecb5760405162461bcd60e51b815260206004820152602860248201527f53616665436173743a2076616c756520646f65736e27742066697420696e2061604482015267371034b73a191a9b60c11b6064820152608401610302565b5090565b6040518060a00160405280606081526020016060815260200160006001600160a01b0316815260200160008152602001600081525090565b60008083601f840112610f1957600080fd5b5081356001600160401b03811115610f3057600080fd5b6020830191508360208260051b8501011115610f4b57600080fd5b9250929050565b60008060008060008060608789031215610f6b57600080fd5b86356001600160401b0380821115610f8257600080fd5b610f8e8a838b01610f07565b90985096506020890135915080821115610fa757600080fd5b610fb38a838b01610f07565b90965094506040890135915080821115610fcc57600080fd5b818901915089601f830112610fe057600080fd5b813581811115610fef57600080fd5b8a60208260071b850101111561100457600080fd5b6020830194508093505050509295509295509295565b6001600160a01b038116811461030b57600080fd5b6020808252818101839052600090604080840186845b8781101561109c5781356110588161101a565b6001600160a01b03908116845282860135906110738261101a565b168386015281840135848401526060808301359084015260809283019290910190600101611045565b5090979650505050505050565b634e487b7160e01b600052603260045260246000fd5b6000602082840312156110d157600080fd5b8135610e5a8161101a565b6000602082840312156110ee57600080fd5b5051919050565b6000808335601e1984360301811261110c57600080fd5b8301803591506001600160401b0382111561112657600080fd5b6020019150600581901b3603821315610f4b57600080fd5b634e487b7160e01b600052604160045260246000fd5b60405161012081016001600160401b03811182821017156111775761117761113e565b60405290565b60405161020081016001600160401b03811182821017156111775761117761113e565b60405160a081016001600160401b03811182821017156111775761117761113e565b604051601f8201601f191681016001600160401b03811182821017156111ea576111ea61113e565b604052919050565b60006080828403121561120457600080fd5b604051608081018181106001600160401b03821117156112265761122661113e565b8060405250825181526020830151602082015260408301516040820152606083015160608201528091505092915050565b60006001600160401b038211156112705761127061113e565b5060051b60200190565b80516112858161101a565b919050565b600082601f83011261129b57600080fd5b815160206112b06112ab83611257565b6111c2565b8083825260208201915060208460051b8701019350868411156112d257600080fd5b602086015b848110156112f75780516112ea8161101a565b83529183019183016112d7565b509695505050505050565b60006020828403121561131457600080fd5b81516001600160401b0381111561132a57600080fd5b610add8482850161128a565b60006020828403121561134857600080fd5b815160ff81168114610e5a57600080fd5b8051801515811461128557600080fd5b600082601f83011261137a57600080fd5b8151602061138a6112ab83611257565b82815261012092830285018201928282019190878511156113aa57600080fd5b8387015b8581101561109c5781818a0312156113c65760008081fd5b6113ce611154565b6113d782611359565b8152818601518682015260408083015190820152606080830151908201526080808301519082015260a0808301519082015260c0808301519082015260e08083015190820152610100808301519082015284529284019281016113ae565b60006020828403121561144757600080fd5b81516001600160401b038082111561145e57600080fd5b90830190610200828603121561147357600080fd5b61147b61117d565b82518281111561148a57600080fd5b6114968782860161128a565b8252506020830151828111156114ab57600080fd5b6114b787828601611369565b60208301525060408381015190820152606080840151908201526080808401519082015260a0808401519082015260c0808401519082015260e08084015190820152610100808401519082015261012080840151908201526101408084015190820152610160808401519082015261018080840151908201526101a080840151908201526101c080840151908201526101e09283015192810192909252509392505050565b634e487b7160e01b600052601160045260246000fd5b81810381811115610aa757610aa761155c565b60006020828403121561159757600080fd5b8151610e5a8161101a565b60008151808452602080850194506020840160005b838110156115dc5781516001600160a01b0316875295820195908201906001016115b7565b509495945050505050565b60008151808452602080850194506020840160005b838110156115dc578151875295820195908201906001016115fc565b60208152600060018060a01b03808451166020840152602084015160e060408501526116486101008501826115a2565b90506040850151601f198086840301606087015261166683836115e7565b925060608701519150808684030160808701525061168482826115e7565b9150508160808601511660a085015260a085015191506116af60c08501836001600160a01b03169052565b60c085015160e0850152809250505092915050565b600060208083850312156116d757600080fd5b82516001600160401b03808211156116ee57600080fd5b9084019060a0828703121561170257600080fd5b61170a6111a0565b82518281111561171957600080fd5b6117258882860161128a565b825250838301518281111561173957600080fd5b83019150601f8201871361174c57600080fd5b815161175a6112ab82611257565b81815260059190911b8301850190858101908983111561177957600080fd5b938601935b828510156117975784518252938601939086019061177e565b83870152506117aa90506040840161127a565b604082015260608301516060820152608083015160808201528094505050505092915050565b80820180821115610aa757610aa761155c565b6000600160ff1b82016117f8576117f861155c565b5060000390565b602080825282516001600160a01b03168282015282810151606060408401526000919061182f60808501826115a2565b6040860151858203601f19016060870152805180835290840192506000918401905b808310156112f7578351825292840192600192909201919084019061185156fea26469706673582212205f18bcca0d65b16a3fcef546238fc28487ee6a22e0d6c9cbd89df4992e281cfd64736f6c63430008190033","linkReferences":{"src/process/AssetsProcess.sol":{"AssetsProcess":[{"start":3490,"length":20}]},"src/process/OracleProcess.sol":{"OracleProcess":[{"start":133,"length":20},{"start":659,"length":20},{"start":1844,"length":20},{"start":2045,"length":20}]},"src/process/SwapProcess.sol":{"SwapProcess":[{"start":2846,"length":20}]},"src/storage/Account.sol":{"Account":[{"start":238,"length":20},{"start":430,"length":20},{"start":861,"length":20},{"start":1019,"length":20},{"start":1276,"length":20}]},"src/storage/AppTradeConfig.sol":{"AppTradeConfig":[{"start":2295,"length":20}]},"src/utils/CalUtils.sol":{"CalUtils":[{"start":1508,"length":20},{"start":2268,"length":20}]},"src/utils/TokenUtils.sol":{"TokenUtils":[{"start":1560,"length":20},{"start":1748,"length":20}]}}},"methodIdentifiers":{"swapPortfolioToPayLiability(address[],address[][],(address,address,int256,int256)[])":"7bdb02cb"},"id":73}