{"abi":[{"type":"function","name":"getLatestUsdPrice","inputs":[{"name":"token","type":"address","internalType":"address"},{"name":"min","type":"bool","internalType":"bool"}],"outputs":[{"name":"","type":"int256","internalType":"int256"}],"stateMutability":"view"},{"type":"function","name":"setOraclePrices","inputs":[{"name":"params","type":"tuple[]","internalType":"struct OracleProcess.OracleParam[]","components":[{"name":"token","type":"address","internalType":"address"},{"name":"targetToken","type":"address","internalType":"address"},{"name":"minPrice","type":"int256","internalType":"int256"},{"name":"maxPrice","type":"int256","internalType":"int256"}]}],"outputs":[],"stateMutability":"nonpayable"},{"type":"error","name":"PriceIsZero","inputs":[]}],"bytecode":{"object":"0x6080604052348015600f57600080fd5b506106918061001f6000396000f3fe608060405234801561001057600080fd5b50600436106100365760003560e01c8063180e24bb1461003b5780631d3c97b714610060575b600080fd5b61004e610049366004610514565b610075565b60405190815260200160405180910390f35b61007361006e366004610550565b61008a565b005b600061008183836100e9565b90505b92915050565b6100e58282808060200260200160405190810160405280939291908181526020016000905b828210156100db576100cc608083028601368190038101906105c5565b815260200190600101906100af565b5050505050610111565b5050565b6000806100f584610291565b905082610106578060200151610109565b80515b949350505050565b600061011b61032b565b905060005b825181101561028c5760006001600160a01b031683828151811061014657610146610645565b6020026020010151602001516001600160a01b0316036101e5576101e083828151811061017557610175610645565b602002602001015160000151604051806040016040528086858151811061019e5761019e610645565b60200260200101516040015181526020018685815181106101c1576101c1610645565b6020026020010151606001518152508461038d9092919063ffffffff16565b610284565b6102848382815181106101fa576101fa610645565b60200260200101516000015184838151811061021857610218610645565b602002602001015160200151604051806040016040528087868151811061024157610241610645565b602002602001015160400151815260200187868151811061026457610264610645565b602002602001015160600151815250856103d5909392919063ffffffff16565b600101610120565b505050565b604080518082019091526000808252602082015260006102af61032b565b604080518082018252600080825260209182018190526001600160a01b0387168152600284018252829020825180840190935280548084526001909101549183019190915291925090158061030657506020810151155b156103245760405163907adecd60e01b815260040160405180910390fd5b9392505050565b60008060405160200161036f906020808252601c908201527f78797a2e656c66692e73746f726167652e4f7261636c65507269636500000000604082015260600190565b60408051601f19818403018152919052805160209091012092915050565b6103978383610452565b6103a7576103a58383610474565b505b6001600160a01b03909116600090815260029092016020908152604090922081518155910151600190910155565b604080516001600160a01b0385811660208084019190915290851682840152825180830384018152606090920190925280519101206104176004860182610489565b61042a5761042860048601826104a1565b505b6000908152600690940160209081526040909420815181559301516001909301929092555050565b6001600160a01b03811660009081526001830160205260408120541515610081565b6000610081836001600160a01b0384166104a9565b60008181526001830160205260408120541515610081565b600061008183835b60008181526001830160205260408120546104f057508154600181810184556000848152602080822090930184905584548482528286019093526040902091909155610084565b506000610084565b80356001600160a01b038116811461050f57600080fd5b919050565b6000806040838503121561052757600080fd5b610530836104f8565b91506020830135801515811461054557600080fd5b809150509250929050565b6000806020838503121561056357600080fd5b823567ffffffffffffffff8082111561057b57600080fd5b818501915085601f83011261058f57600080fd5b81358181111561059e57600080fd5b8660208260071b85010111156105b357600080fd5b60209290920196919550909350505050565b6000608082840312156105d757600080fd5b6040516080810181811067ffffffffffffffff8211171561060857634e487b7160e01b600052604160045260246000fd5b604052610614836104f8565b8152610622602084016104f8565b602082015260408301356040820152606083013560608201528091505092915050565b634e487b7160e01b600052603260045260246000fdfea2646970667358221220e8e4c7fe1d5172d0f53f52af1be2c99fa5443fdda302d75fea95019abe96e3bf64736f6c63430008190033","linkReferences":{}},"methodIdentifiers":{"getLatestUsdPrice(address,bool)":"180e24bb","setOraclePrices((address,address,int256,int256)[])":"1d3c97b7"},"id":64}