{"abi":[{"type":"function","name":"getLatestUsdPrice","inputs":[{"name":"token","type":"address","internalType":"address"},{"name":"min","type":"bool","internalType":"bool"}],"outputs":[{"name":"","type":"int256","internalType":"int256"}],"stateMutability":"view"},{"type":"function","name":"setOraclePrices","inputs":[{"name":"params","type":"tuple[]","internalType":"struct OracleProcess.OracleParam[]","components":[{"name":"token","type":"address","internalType":"address"},{"name":"targetToken","type":"address","internalType":"address"},{"name":"minPrice","type":"int256","internalType":"int256"},{"name":"maxPrice","type":"int256","internalType":"int256"}]}],"outputs":[],"stateMutability":"nonpayable"}],"bytecode":{"object":"0x6080604052348015600f57600080fd5b506103028061001f6000396000f3fe608060405234801561001057600080fd5b50600436106100365760003560e01c8063180e24bb1461003b5780631d3c97b714610060575b600080fd5b61004e61004936600461018c565b610075565b60405190815260200160405180910390f35b61007361006e3660046101c8565b610103565b005b60405163180e24bb60e01b81526001600160a01b0383166004820152811515602482015260009073__$bb4e55f00c0f45d2719800850b371b8ff8$__9063180e24bb90604401602060405180830381865af41580156100d8573d6000803e3d6000fd5b505050506040513d601f19601f820116820180604052508101906100fc919061023d565b9392505050565b604051631d4cb62f60e21b815273__$bb4e55f00c0f45d2719800850b371b8ff8$__90637532d8bc9061013c9085908590600401610256565b60006040518083038186803b15801561015457600080fd5b505af4158015610168573d6000803e3d6000fd5b505050505050565b80356001600160a01b038116811461018757600080fd5b919050565b6000806040838503121561019f57600080fd5b6101a883610170565b9150602083013580151581146101bd57600080fd5b809150509250929050565b600080602083850312156101db57600080fd5b823567ffffffffffffffff808211156101f357600080fd5b818501915085601f83011261020757600080fd5b81358181111561021657600080fd5b8660208260071b850101111561022b57600080fd5b60209290920196919550909350505050565b60006020828403121561024f57600080fd5b5051919050565b6020808252818101839052600090604080840186845b878110156102bf576001600160a01b038061028684610170565b16845280610295878501610170565b1684870152508184013584840152606080830135908401526080928301929091019060010161026c565b509097965050505050505056fea26469706673582212205fbaa8df3b01cd0211b8eea482921f671bc15fa23aff36b990e197587f79fa7764736f6c63430008190033","linkReferences":{"src/process/OracleProcess.sol":{"OracleProcess":[{"start":189,"length":20},{"start":305,"length":20}]}}},"methodIdentifiers":{"getLatestUsdPrice(address,bool)":"180e24bb","setOraclePrices((address,address,int256,int256)[])":"1d3c97b7"},"id":64}