{"abi":[{"type":"function","name":"FEE_BORROWING","inputs":[],"outputs":[{"name":"","type":"bytes32","internalType":"bytes32"}],"stateMutability":"view"},{"type":"function","name":"FEE_CLOSE_POSITION","inputs":[],"outputs":[{"name":"","type":"bytes32","internalType":"bytes32"}],"stateMutability":"view"},{"type":"function","name":"FEE_FUNDING","inputs":[],"outputs":[{"name":"","type":"bytes32","internalType":"bytes32"}],"stateMutability":"view"},{"type":"function","name":"FEE_LIQUIDATION","inputs":[],"outputs":[{"name":"","type":"bytes32","internalType":"bytes32"}],"stateMutability":"view"},{"type":"function","name":"FEE_MINT","inputs":[],"outputs":[{"name":"","type":"bytes32","internalType":"bytes32"}],"stateMutability":"view"},{"type":"function","name":"FEE_OPEN_POSITION","inputs":[],"outputs":[{"name":"","type":"bytes32","internalType":"bytes32"}],"stateMutability":"view"},{"type":"function","name":"FEE_REDEEM","inputs":[],"outputs":[{"name":"","type":"bytes32","internalType":"bytes32"}],"stateMutability":"view"},{"type":"event","name":"ChargeBorrowingFeeEvent","inputs":[{"name":"isCrossMargin","type":"bool","indexed":false,"internalType":"bool"},{"name":"stakeToken","type":"address","indexed":false,"internalType":"address"},{"name":"token","type":"address","indexed":false,"internalType":"address"},{"name":"account","type":"address","indexed":false,"internalType":"address"},{"name":"feeType","type":"bytes32","indexed":false,"internalType":"bytes32"},{"name":"fee","type":"uint256","indexed":false,"internalType":"uint256"}],"anonymous":false},{"type":"event","name":"ChargeMintOrRedeemFeeEvent","inputs":[{"name":"params","type":"tuple","indexed":false,"internalType":"struct FeeProcess.ChargeMintOrRedeemFeeEventParams","components":[{"name":"stakeToken","type":"address","internalType":"address"},{"name":"feeToken","type":"address","internalType":"address"},{"name":"account","type":"address","internalType":"address"},{"name":"feeType","type":"bytes32","internalType":"bytes32"},{"name":"fee","type":"uint256","internalType":"uint256"}]}],"anonymous":false},{"type":"event","name":"ChargeTradingFeeEvent","inputs":[{"name":"symbol","type":"bytes32","indexed":false,"internalType":"bytes32"},{"name":"account","type":"address","indexed":false,"internalType":"address"},{"name":"positionKey","type":"bytes32","indexed":false,"internalType":"bytes32"},{"name":"feeType","type":"bytes32","indexed":false,"internalType":"bytes32"},{"name":"feeToken","type":"address","indexed":false,"internalType":"address"},{"name":"feeAmount","type":"uint256","indexed":false,"internalType":"uint256"}],"anonymous":false}],"bytecode":{"object":"0x6121a9610039600b82828239805160001a607314602c57634e487b7160e01b600052600060045260246000fd5b30600052607381538281f3fe73000000000000000000000000000000000000000030146080604052600436106100b35760003560e01c8063a63721651161007b578063a637216514610124578063ab54a22214610144578063c31e2e391461014c578063c59c46d614610154578063de79c6a31461015c578063f86ade8b1461017c57600080fd5b80632cf325d6146100b85780632d0e831a146100d257806335f011bb146100f45780637241c042146100fc5780639c40951d1461011c575b600080fd5b6100c0610184565b60405190815260200160405180910390f35b8180156100de57600080fd5b506100f26100ed366004611b6a565b6101d0565b005b6100c0610926565b81801561010857600080fd5b506100f2610117366004611bda565b610957565b6100c0610db7565b81801561013057600080fd5b506100f261013f366004611c0a565b610de5565b6100c0611366565b6100c0611395565b6100c06113c1565b81801561016857600080fd5b506100f2610177366004611c23565b6113f7565b6100c0611a42565b6040516020016101b7906020808252600f908201526e2322a2afa624a8aaa4a220aa24a7a760891b604082015260600190565b6040516020818303038152906040528051906020012081565b6101d8611afe565b600073__$b0eec15594c58b534ae5f5b30a1fad312d$__63fe1d4ffc6040518163ffffffff1660e01b815260040161014060405180830381865af4158015610224573d6000803e3d6000fd5b505050506040513d601f19601f820116820180604052508101906102489190611d4c565b90506040516020016102769060208082526008908201526711915157d352539560c21b604082015260600190565b6040516020818303038152906040528051906020012084036102a8576060810151825260808101516020830152610304565b6040516020016102d6906020808252600a90820152694645455f52454445454d60b01b604082015260600190565b6040516020818303038152906040528051906020012084036103045760a0810151825260c081015160208301525b815160405163ee7fc5a360e01b815273__$54cfd135a3b5f05a8488b7e4b687d6e5b3$__9163ee7fc5a391610346918c91600401918252602082015260400190565b602060405180830381865af4158015610363573d6000803e3d6000fd5b505050506040513d601f19601f820116820180604052508101906103879190611dd3565b6040808401919091526020830151905163ee7fc5a360e01b815273__$54cfd135a3b5f05a8488b7e4b687d6e5b3$__9163ee7fc5a3916103d4918c91600401918252602082015260400190565b602060405180830381865af41580156103f1573d6000803e3d6000fd5b505050506040513d601f19601f820116820180604052508101906104159190611dd3565b6080830181905260408301516104379190610431908b90611a77565b90611a77565b8260a0018181525050600073__$5e3296de81a496bbbf68b73ccb20888027$__63d28d611a6040518163ffffffff1660e01b8152600401602060405180830381865af415801561048b573d6000803e3d6000fd5b505050506040513d601f19601f820116820180604052508101906104af9190611dd3565b604051631fafeb5d60e31b81526001600160a01b038a16600482015290915060009073__$5e3296de81a496bbbf68b73ccb20888027$__9063fd7f5ae890602401602060405180830381865af415801561050d573d6000803e3d6000fd5b505050506040513d601f19601f820116820180604052508101906105319190611dd3565b9050600073__$5e3296de81a496bbbf68b73ccb20888027$__63604c42456040518163ffffffff1660e01b8152600401602060405180830381865af415801561057e573d6000803e3d6000fd5b505050506040513d601f19601f820116820180604052508101906105a29190611dd3565b9050851561070e57604080860151905163017f54db60e71b815273__$5e3296de81a496bbbf68b73ccb20888027$__9163bfaa6d80916105ea9187918f918f91600401611dec565b60006040518083038186803b15801561060257600080fd5b505af4158015610616573d6000803e3d6000fd5b50505050608085015160405163d791041f60e01b8152600481018490526001600160a01b038b166024820152604481019190915273__$5e3296de81a496bbbf68b73ccb20888027$__9063d791041f9060640160006040518083038186803b15801561068157600080fd5b505af4158015610695573d6000803e3d6000fd5b5050505060a085015160405163017f54db60e71b815273__$5e3296de81a496bbbf68b73ccb20888027$__9163bfaa6d80916106d99185918f918f91600401611dec565b60006040518083038186803b1580156106f157600080fd5b505af4158015610705573d6000803e3d6000fd5b5050505061086e565b60408086015190516316245ebd60e01b815273__$5e3296de81a496bbbf68b73ccb20888027$__916316245ebd9161074e9187918f918f91600401611dec565b60006040518083038186803b15801561076657600080fd5b505af415801561077a573d6000803e3d6000fd5b50505050608085015160405163336b244360e21b8152600481018490526001600160a01b038b166024820152604481019190915273__$5e3296de81a496bbbf68b73ccb20888027$__9063cdac910c9060640160006040518083038186803b1580156107e557600080fd5b505af41580156107f9573d6000803e3d6000fd5b5050505060a08501516040516316245ebd60e01b815273__$5e3296de81a496bbbf68b73ccb20888027$__916316245ebd9161083d9185918f918f91600401611dec565b60006040518083038186803b15801561085557600080fd5b505af4158015610869573d6000803e3d6000fd5b505050505b6040805160a0810182526001600160a01b03808d1682528b811660208301528a168183015260608101899052608081018d905290517f9a37589f1078970477df9d898a565f6f1c38acef28e97a1302cfa722e41ad9429061091090839081516001600160a01b03908116825260208084015182169083015260408084015190911690820152606080830151908201526080918201519181019190915260a00190565b60405180910390a1505050505050505050505050565b6040516020016101b7906020808252600d908201526c4645455f424f52524f57494e4760981b604082015260600190565b6002820154600383015460405163e674b4c560e01b81526001600160a01b03808516600483015260ff909316151560248201529116604482015260009073__$7e3e375a043b2e0c3e1b8de6f9ee6f1a85$__9063e674b4c590606401602060405180830381865af41580156109d0573d6000803e3d6000fd5b505050506040513d601f19601f820116820180604052508101906109f49190611dd3565b9050600073__$54cfd135a3b5f05a8488b7e4b687d6e5b3$__63228d17e073__$54cfd135a3b5f05a8488b7e4b687d6e5b3$__63ee7fc5a38760080154620186a08960070154610a449190611e27565b6040516001600160e01b031960e085901b16815260048101929092526024820152604401602060405180830381865af4158015610a85573d6000803e3d6000fd5b505050506040513d601f19601f82011682018060405250810190610aa99190611dd3565b600d870154610ab89086611e27565b6040516001600160e01b031960e085901b16815260048101929092526024820152604401602060405180830381865af4158015610af9573d6000803e3d6000fd5b505050506040513d601f19601f82011682018060405250810190610b1d9190611dd3565b90508084600c016002016000828254610b369190611e3a565b90915550506003840154604051636a24d41960e11b81526001600160a01b03909116600482015273__$54cfd135a3b5f05a8488b7e4b687d6e5b3$__90636f17c0af90839073__$27ae1b494209daa89c188ba5c7f8a7693b$__9063d449a83290602401602060405180830381865af4158015610bb7573d6000803e3d6000fd5b505050506040513d601f19601f82011682018060405250810190610bdb9190611e4d565b60038801546002890154604051631a0994f560e01b81526001600160a01b03909216600483015260ff161515602482015273__$bb4e55f00c0f45d2719800850b371b8ff8$__90631a0994f590604401602060405180830381865af4158015610c48573d6000803e3d6000fd5b505050506040513d601f19601f82011682018060405250810190610c6c9190611dd3565b6040516001600160e01b031960e086901b168152600481019390935260ff90911660248301526044820152606401602060405180830381865af4158015610cb7573d6000803e3d6000fd5b505050506040513d601f19601f82011682018060405250810190610cdb9190611dd3565b600f85018054600090610cef908490611e3a565b9091555050600d84018290556002840154600385015473__$8868b25be40b3801dd781a749dff41899b$__9163fe82326b91869160ff16906001600160a01b03166000610d3b87611a8c565b6040516001600160e01b031960e088901b1681526001600160a01b03958616600482015293151560248501529390911660448301526064820152608481019190915260a4015b60006040518083038186803b158015610d9957600080fd5b505af4158015610dad573d6000803e3d6000fd5b5050505050505050565b6040516020016101b7906020808252600a90820152694645455f52454445454d60b01b604082015260600190565b600181015460028201546040516327883f2b60e21b8152600481019290925260ff161515602482015260009073__$7e3e375a043b2e0c3e1b8de6f9ee6f1a85$__90639e20fcac90604401602060405180830381865af4158015610e4d573d6000803e3d6000fd5b505050506040513d601f19601f82011682018060405250810190610e719190611dd3565b60108301549091508103610e83575050565b600073__$54cfd135a3b5f05a8488b7e4b687d6e5b3$__63445b0a43610eac8560050154611a8c565b6010860154610ebb9086611e77565b6040516001600160e01b031960e085901b16815260048101929092526024820152604401602060405180830381865af4158015610efc573d6000803e3d6000fd5b505050506040513d601f19601f82011682018060405250810190610f209190611dd3565b600284015490915060009060ff1615611111578190508184600c016005016000828254610f4d9190611e9e565b90915550506003840154604051636a24d41960e11b81526001600160a01b03909116600482015273__$54cfd135a3b5f05a8488b7e4b687d6e5b3$__906375608c3d90849073__$27ae1b494209daa89c188ba5c7f8a7693b$__9063d449a83290602401602060405180830381865af4158015610fce573d6000803e3d6000fd5b505050506040513d601f19601f82011682018060405250810190610ff29190611e4d565b6003880154600289015460405163180e24bb60e01b81526001600160a01b03909216600483015260ff161515602482015273__$bb4e55f00c0f45d2719800850b371b8ff8$__9063180e24bb90604401602060405180830381865af415801561105f573d6000803e3d6000fd5b505050506040513d601f19601f820116820180604052508101906110839190611dd3565b6040516001600160e01b031960e086901b168152600481019390935260ff90911660248301526044820152606401602060405180830381865af41580156110ce573d6000803e3d6000fd5b505050506040513d601f19601f820116820180604052508101906110f29190611dd3565b601285018054600090611106908490611e9e565b909155506112ec9050565b6003840154604051636a24d41960e11b81526001600160a01b03909116600482015273__$54cfd135a3b5f05a8488b7e4b687d6e5b3$__90630d65ea2990849073__$27ae1b494209daa89c188ba5c7f8a7693b$__9063d449a83290602401602060405180830381865af415801561118d573d6000803e3d6000fd5b505050506040513d601f19601f820116820180604052508101906111b19190611e4d565b6003880154600289015460405163180e24bb60e01b81526001600160a01b03909216600483015260ff161515602482015273__$bb4e55f00c0f45d2719800850b371b8ff8$__9063180e24bb90604401602060405180830381865af415801561121e573d6000803e3d6000fd5b505050506040513d601f19601f820116820180604052508101906112429190611dd3565b6040516001600160e01b031960e086901b168152600481019390935260ff90911660248301526044820152606401602060405180830381865af415801561128d573d6000803e3d6000fd5b505050506040513d601f19601f820116820180604052508101906112b19190611dd3565b90508084600c0160050160008282546112ca9190611e9e565b90915550506012840180548391906000906112e6908490611e9e565b90915550505b6010840183905560018085015460028601546003870154604051627ef49d60e21b815260048101939093526024830185905260ff9091161515604483015260648201929092526001600160a01b03909116608482015273__$8868b25be40b3801dd781a749dff41899b$__906301fbd2749060a401610d81565b6040516020016101b7906020808252600b908201526a4645455f46554e44494e4760a81b604082015260600190565b6040516020016101b79060208082526008908201526711915157d352539560c21b604082015260600190565b6040516020016101b7906020808252601290820152712322a2afa1a627a9a2afa827a9a4aa24a7a760711b604082015260600190565b600073__$5e3296de81a496bbbf68b73ccb20888027$__63d28d611a6040518163ffffffff1660e01b8152600401602060405180830381865af4158015611442573d6000803e3d6000fd5b505050506040513d601f19601f820116820180604052508101906114669190611dd3565b604051631fafeb5d60e31b81526001600160a01b038716600482015290915060009073__$5e3296de81a496bbbf68b73ccb20888027$__9063fd7f5ae890602401602060405180830381865af41580156114c4573d6000803e3d6000fd5b505050506040513d601f19601f820116820180604052508101906114e89190611dd3565b9050600073__$5e3296de81a496bbbf68b73ccb20888027$__63604c42456040518163ffffffff1660e01b8152600401602060405180830381865af4158015611535573d6000803e3d6000fd5b505050506040513d601f19601f820116820180604052508101906115599190611dd3565b9050600073__$b56fc33e0f834396fbc214489bd80c2dfc$__63b45849886040518163ffffffff1660e01b8152600401600060405180830381865af41580156115a6573d6000803e3d6000fd5b505050506040513d6000823e601f3d908101601f191682016040526115ce919081019061204b565b90506115d8611afe565b61016082015160405163ee7fc5a360e01b815273__$54cfd135a3b5f05a8488b7e4b687d6e5b3$__9163ee7fc5a39161161e918e91600401918252602082015260400190565b602060405180830381865af415801561163b573d6000803e3d6000fd5b505050506040513d601f19601f8201168201806040525081019061165f9190611dd3565b604080830191909152610180830151905163ee7fc5a360e01b815273__$54cfd135a3b5f05a8488b7e4b687d6e5b3$__9163ee7fc5a3916116ad918e91600401918252602082015260400190565b602060405180830381865af41580156116ca573d6000803e3d6000fd5b505050506040513d601f19601f820116820180604052508101906116ee9190611dd3565b60808201819052604082015161170a9190610431908d90611a77565b60a082015260408082015190516316245ebd60e01b815273__$5e3296de81a496bbbf68b73ccb20888027$__916316245ebd9161174f9189918e918e91600401611dec565b60006040518083038186803b15801561176757600080fd5b505af415801561177b573d6000803e3d6000fd5b50505050608081015160405163336b244360e21b8152600481018690526001600160a01b038a166024820152604481019190915273__$5e3296de81a496bbbf68b73ccb20888027$__9063cdac910c9060640160006040518083038186803b1580156117e657600080fd5b505af41580156117fa573d6000803e3d6000fd5b5050505060a08101516040516316245ebd60e01b815273__$5e3296de81a496bbbf68b73ccb20888027$__916316245ebd9161183e9187918e918e91600401611dec565b60006040518083038186803b15801561185657600080fd5b505af415801561186a573d6000803e3d6000fd5b505050508a156119d457604080820151905163fe8d19bf60e01b815273__$5e3296de81a496bbbf68b73ccb20888027$__9163fe8d19bf916118b49189918e918e91600401611dec565b60006040518083038186803b1580156118cc57600080fd5b505af41580156118e0573d6000803e3d6000fd5b505050506080810151604051631bc64fb760e11b8152600481018690526001600160a01b038a166024820152604481019190915273__$5e3296de81a496bbbf68b73ccb20888027$__9063378c9f6e9060640160006040518083038186803b15801561194b57600080fd5b505af415801561195f573d6000803e3d6000fd5b5050505060a081015160405163fe8d19bf60e01b815273__$5e3296de81a496bbbf68b73ccb20888027$__9163fe8d19bf916119a39187918e918e91600401611dec565b60006040518083038186803b1580156119bb57600080fd5b505af41580156119cf573d6000803e3d6000fd5b505050505b604080518c151581526001600160a01b038b811660208301528a811682840152891660608201526080810188905260a081018c905290517fc6808235a634ed03a8e9b566f817b485bebc047ac6d8ddda1f07e5173f0a18f59181900360c00190a15050505050505050505050565b6040516020016101b7906020808252601190820152702322a2afa7a822a72fa827a9a4aa24a7a760791b604082015260600190565b6000611a838284611e27565b90505b92915050565b60006001600160ff1b03821115611afa5760405162461bcd60e51b815260206004820152602860248201527f53616665436173743a2076616c756520646f65736e27742066697420696e2061604482015267371034b73a191a9b60c11b606482015260840160405180910390fd5b5090565b6040518060e0016040528060008152602001600081526020016000815260200160008152602001600081526020016000815260200160006001600160a01b031681525090565b6001600160a01b0381168114611b5957600080fd5b50565b8015158114611b5957600080fd5b60008060008060008060c08789031215611b8357600080fd5b863595506020870135611b9581611b44565b94506040870135611ba581611b44565b93506060870135611bb581611b44565b92506080870135915060a0870135611bcc81611b5c565b809150509295509295509295565b60008060408385031215611bed57600080fd5b823591506020830135611bff81611b44565b809150509250929050565b600060208284031215611c1c57600080fd5b5035919050565b60008060008060008060c08789031215611c3c57600080fd5b8635611c4781611b5c565b9550602087013594506040870135611c5e81611b44565b93506060870135611c6e81611b44565b92506080870135611c7e81611b44565b8092505060a087013590509295509295509295565b634e487b7160e01b600052604160045260246000fd5b604051610140810167ffffffffffffffff81118282101715611ccd57611ccd611c93565b60405290565b604051610120810167ffffffffffffffff81118282101715611ccd57611ccd611c93565b604051610200810167ffffffffffffffff81118282101715611ccd57611ccd611c93565b604051601f8201601f1916810167ffffffffffffffff81118282101715611d4457611d44611c93565b604052919050565b60006101408284031215611d5f57600080fd5b611d67611ca9565b825181526020830151602082015260408301516040820152606083015160608201526080830151608082015260a083015160a082015260c083015160c082015260e083015160e08201526101008084015181830152506101208084015181830152508091505092915050565b600060208284031215611de557600080fd5b5051919050565b9384526001600160a01b03928316602085015291166040830152606082015260800190565b634e487b7160e01b600052601160045260246000fd5b81810381811115611a8657611a86611e11565b80820180821115611a8657611a86611e11565b600060208284031215611e5f57600080fd5b815160ff81168114611e7057600080fd5b9392505050565b8181036000831280158383131683831282161715611e9757611e97611e11565b5092915050565b8082018281126000831280158216821582161715611ebe57611ebe611e11565b505092915050565b600067ffffffffffffffff821115611ee057611ee0611c93565b5060051b60200190565b600082601f830112611efb57600080fd5b81516020611f10611f0b83611ec6565b611d1b565b8083825260208201915060208460051b870101935086841115611f3257600080fd5b602086015b84811015611f57578051611f4a81611b44565b8352918301918301611f37565b509695505050505050565b8051611f6d81611b5c565b919050565b600082601f830112611f8357600080fd5b81516020611f93611f0b83611ec6565b8281526101209283028501820192828201919087851115611fb357600080fd5b8387015b8581101561203e5781818a031215611fcf5760008081fd5b611fd7611cd3565b611fe082611f62565b8152818601518682015260408083015190820152606080830151908201526080808301519082015260a0808301519082015260c0808301519082015260e0808301519082015261010080830151908201528452928401928101611fb7565b5090979650505050505050565b60006020828403121561205d57600080fd5b815167ffffffffffffffff8082111561207557600080fd5b90830190610200828603121561208a57600080fd5b612092611cf7565b8251828111156120a157600080fd5b6120ad87828601611eea565b8252506020830151828111156120c257600080fd5b6120ce87828601611f72565b60208301525060408381015190820152606080840151908201526080808401519082015260a0808401519082015260c0808401519082015260e08084015190820152610100808401519082015261012080840151908201526101408084015190820152610160808401519082015261018080840151908201526101a080840151908201526101c080840151908201526101e0928301519281019290925250939250505056fea2646970667358221220432c72fe8ede8de095999dc77e0118fe6e3c3ebb1cc9320d870a5b46eb6b246964736f6c63430008190033","linkReferences":{"src/process/MarketProcess.sol":{"MarketProcess":[{"start":3392,"length":20},{"start":4989,"length":20}]},"src/process/MarketQueryProcess.sol":{"MarketQueryProcess":[{"start":2511,"length":20},{"start":3660,"length":20}]},"src/process/OracleProcess.sol":{"OracleProcess":[{"start":3143,"length":20},{"start":4190,"length":20},{"start":4637,"length":20}]},"src/storage/AppPoolConfig.sol":{"AppPoolConfig":[{"start":533,"length":20}]},"src/storage/AppTradeConfig.sol":{"AppTradeConfig":[{"start":5528,"length":20}]},"src/storage/FeeRewards.sol":{"FeeRewards":[{"start":1149,"length":20},{"start":1292,"length":20},{"start":1392,"length":20},{"start":1527,"length":20},{"start":1669,"length":20},{"start":1766,"length":20},{"start":1883,"length":20},{"start":2025,"length":20},{"start":2122,"length":20},{"start":5172,"length":20},{"start":5315,"length":20},{"start":5415,"length":20},{"start":5980,"length":20},{"start":6122,"length":20},{"start":6219,"length":20},{"start":6337,"length":20},{"start":6479,"length":20},{"start":6576,"length":20}]},"src/utils/CalUtils.sol":{"CalUtils":[{"start":846,"length":20},{"start":988,"length":20},{"start":2611,"length":20},{"start":2637,"length":20},{"start":2968,"length":20},{"start":3776,"length":20},{"start":4015,"length":20},{"start":4462,"length":20},{"start":5670,"length":20},{"start":5813,"length":20}]},"src/utils/TokenUtils.sol":{"TokenUtils":[{"start":2998,"length":20},{"start":4045,"length":20},{"start":4492,"length":20}]}}},"methodIdentifiers":{"FEE_BORROWING()":"35f011bb","FEE_CLOSE_POSITION()":"c59c46d6","FEE_FUNDING()":"ab54a222","FEE_LIQUIDATION()":"2cf325d6","FEE_MINT()":"c31e2e39","FEE_OPEN_POSITION()":"f86ade8b","FEE_REDEEM()":"9c40951d","chargeBorrowingFee(bool,uint256,address,address,address,bytes32)":"de79c6a3","chargeMintOrRedeemFee(uint256,address,address,address,bytes32,bool)":"2d0e831a","updateBorrowingFee(Position.Props storage,address)":"7241c042","updateFundingFee(Position.Props storage)":"a6372165"},"id":106}