{"abi":[{"type":"function","name":"autoReducePositions","inputs":[{"name":"positionKeys","type":"bytes32[]","internalType":"bytes32[]"}],"outputs":[],"stateMutability":"nonpayable"},{"type":"function","name":"cancelUpdateLeverageRequest","inputs":[{"name":"requestId","type":"uint256","internalType":"uint256"},{"name":"reasonCode","type":"bytes32","internalType":"bytes32"}],"outputs":[],"stateMutability":"nonpayable"},{"type":"function","name":"cancelUpdatePositionMarginRequest","inputs":[{"name":"requestId","type":"uint256","internalType":"uint256"},{"name":"reasonCode","type":"bytes32","internalType":"bytes32"}],"outputs":[],"stateMutability":"nonpayable"},{"type":"function","name":"createUpdateLeverageRequest","inputs":[{"name":"params","type":"tuple","internalType":"struct IPosition.UpdateLeverageParams","components":[{"name":"symbol","type":"bytes32","internalType":"bytes32"},{"name":"isLong","type":"bool","internalType":"bool"},{"name":"isNativeToken","type":"bool","internalType":"bool"},{"name":"isCrossMargin","type":"bool","internalType":"bool"},{"name":"leverage","type":"uint256","internalType":"uint256"},{"name":"marginToken","type":"address","internalType":"address"},{"name":"addMarginAmount","type":"uint256","internalType":"uint256"},{"name":"executionFee","type":"uint256","internalType":"uint256"}]}],"outputs":[{"name":"requestId","type":"uint256","internalType":"uint256"}],"stateMutability":"payable"},{"type":"function","name":"createUpdatePositionMarginRequest","inputs":[{"name":"params","type":"tuple","internalType":"struct IPosition.UpdatePositionMarginParams","components":[{"name":"positionKey","type":"bytes32","internalType":"bytes32"},{"name":"isAdd","type":"bool","internalType":"bool"},{"name":"isNativeToken","type":"bool","internalType":"bool"},{"name":"marginToken","type":"address","internalType":"address"},{"name":"updateMarginAmount","type":"uint256","internalType":"uint256"},{"name":"executionFee","type":"uint256","internalType":"uint256"}]}],"outputs":[{"name":"requestId","type":"uint256","internalType":"uint256"}],"stateMutability":"payable"},{"type":"function","name":"executeUpdateLeverageRequest","inputs":[{"name":"requestId","type":"uint256","internalType":"uint256"},{"name":"oracles","type":"tuple[]","internalType":"struct OracleProcess.OracleParam[]","components":[{"name":"token","type":"address","internalType":"address"},{"name":"targetToken","type":"address","internalType":"address"},{"name":"minPrice","type":"int256","internalType":"int256"},{"name":"maxPrice","type":"int256","internalType":"int256"}]}],"outputs":[],"stateMutability":"nonpayable"},{"type":"function","name":"executeUpdatePositionMarginRequest","inputs":[{"name":"requestId","type":"uint256","internalType":"uint256"},{"name":"oracles","type":"tuple[]","internalType":"struct OracleProcess.OracleParam[]","components":[{"name":"token","type":"address","internalType":"address"},{"name":"targetToken","type":"address","internalType":"address"},{"name":"minPrice","type":"int256","internalType":"int256"},{"name":"maxPrice","type":"int256","internalType":"int256"}]}],"outputs":[],"stateMutability":"nonpayable"},{"type":"function","name":"getAllPositions","inputs":[{"name":"account","type":"address","internalType":"address"}],"outputs":[{"name":"","type":"tuple[]","internalType":"struct IPosition.PositionInfo[]","components":[{"name":"position","type":"tuple","internalType":"struct Position.Props","components":[{"name":"key","type":"bytes32","internalType":"bytes32"},{"name":"symbol","type":"bytes32","internalType":"bytes32"},{"name":"isLong","type":"bool","internalType":"bool"},{"name":"isCrossMargin","type":"bool","internalType":"bool"},{"name":"account","type":"address","internalType":"address"},{"name":"marginToken","type":"address","internalType":"address"},{"name":"indexToken","type":"address","internalType":"address"},{"name":"qty","type":"uint256","internalType":"uint256"},{"name":"entryPrice","type":"uint256","internalType":"uint256"},{"name":"leverage","type":"uint256","internalType":"uint256"},{"name":"initialMargin","type":"uint256","internalType":"uint256"},{"name":"initialMarginInUsd","type":"uint256","internalType":"uint256"},{"name":"initialMarginInUsdFromBalance","type":"uint256","internalType":"uint256"},{"name":"holdPoolAmount","type":"uint256","internalType":"uint256"},{"name":"positionFee","type":"tuple","internalType":"struct Position.PositionFee","components":[{"name":"closeFeeInUsd","type":"uint256","internalType":"uint256"},{"name":"openBorrowingFeePerToken","type":"uint256","internalType":"uint256"},{"name":"realizedBorrowingFee","type":"uint256","internalType":"uint256"},{"name":"realizedBorrowingFeeInUsd","type":"uint256","internalType":"uint256"},{"name":"openFundingFeePerQty","type":"int256","internalType":"int256"},{"name":"realizedFundingFee","type":"int256","internalType":"int256"},{"name":"realizedFundingFeeInUsd","type":"int256","internalType":"int256"}]},{"name":"realizedPnl","type":"int256","internalType":"int256"},{"name":"lastUpdateTime","type":"uint256","internalType":"uint256"}]},{"name":"liquidationPrice","type":"uint256","internalType":"uint256"},{"name":"currentTimestamp","type":"uint256","internalType":"uint256"}]}],"stateMutability":"view"},{"type":"function","name":"getSinglePosition","inputs":[{"name":"account","type":"address","internalType":"address"},{"name":"symbol","type":"bytes32","internalType":"bytes32"},{"name":"marginToken","type":"address","internalType":"address"},{"name":"isCrossMargin","type":"bool","internalType":"bool"}],"outputs":[{"name":"","type":"tuple","internalType":"struct Position.Props","components":[{"name":"key","type":"bytes32","internalType":"bytes32"},{"name":"symbol","type":"bytes32","internalType":"bytes32"},{"name":"isLong","type":"bool","internalType":"bool"},{"name":"isCrossMargin","type":"bool","internalType":"bool"},{"name":"account","type":"address","internalType":"address"},{"name":"marginToken","type":"address","internalType":"address"},{"name":"indexToken","type":"address","internalType":"address"},{"name":"qty","type":"uint256","internalType":"uint256"},{"name":"entryPrice","type":"uint256","internalType":"uint256"},{"name":"leverage","type":"uint256","internalType":"uint256"},{"name":"initialMargin","type":"uint256","internalType":"uint256"},{"name":"initialMarginInUsd","type":"uint256","internalType":"uint256"},{"name":"initialMarginInUsdFromBalance","type":"uint256","internalType":"uint256"},{"name":"holdPoolAmount","type":"uint256","internalType":"uint256"},{"name":"positionFee","type":"tuple","internalType":"struct Position.PositionFee","components":[{"name":"closeFeeInUsd","type":"uint256","internalType":"uint256"},{"name":"openBorrowingFeePerToken","type":"uint256","internalType":"uint256"},{"name":"realizedBorrowingFee","type":"uint256","internalType":"uint256"},{"name":"realizedBorrowingFeeInUsd","type":"uint256","internalType":"uint256"},{"name":"openFundingFeePerQty","type":"int256","internalType":"int256"},{"name":"realizedFundingFee","type":"int256","internalType":"int256"},{"name":"realizedFundingFeeInUsd","type":"int256","internalType":"int256"}]},{"name":"realizedPnl","type":"int256","internalType":"int256"},{"name":"lastUpdateTime","type":"uint256","internalType":"uint256"}]}],"stateMutability":"pure"},{"type":"event","name":"AccountTokenUpdateEvent","inputs":[{"name":"account","type":"address","indexed":false,"internalType":"address"},{"name":"token","type":"address","indexed":false,"internalType":"address"},{"name":"preBalance","type":"tuple","indexed":false,"internalType":"struct Account.TokenBalance","components":[{"name":"amount","type":"uint256","internalType":"uint256"},{"name":"usedAmount","type":"uint256","internalType":"uint256"},{"name":"interest","type":"uint256","internalType":"uint256"},{"name":"liability","type":"uint256","internalType":"uint256"}]},{"name":"balance","type":"tuple","indexed":false,"internalType":"struct Account.TokenBalance","components":[{"name":"amount","type":"uint256","internalType":"uint256"},{"name":"usedAmount","type":"uint256","internalType":"uint256"},{"name":"interest","type":"uint256","internalType":"uint256"},{"name":"liability","type":"uint256","internalType":"uint256"}]},{"name":"source","type":"uint8","indexed":false,"internalType":"enum Account.UpdateSource"}],"anonymous":false},{"type":"event","name":"CancelOrderEvent","inputs":[{"name":"orderId","type":"uint256","indexed":true,"internalType":"uint256"},{"name":"data","type":"tuple","indexed":false,"internalType":"struct Order.OrderInfo","components":[{"name":"account","type":"address","internalType":"address"},{"name":"symbol","type":"bytes32","internalType":"bytes32"},{"name":"orderSide","type":"uint8","internalType":"enum Order.Side"},{"name":"posSide","type":"uint8","internalType":"enum Order.PositionSide"},{"name":"orderType","type":"uint8","internalType":"enum Order.Type"},{"name":"stopType","type":"uint8","internalType":"enum Order.StopType"},{"name":"isCrossMargin","type":"bool","internalType":"bool"},{"name":"isExecutionFeeFromTradeVault","type":"bool","internalType":"bool"},{"name":"marginToken","type":"address","internalType":"address"},{"name":"qty","type":"uint256","internalType":"uint256"},{"name":"leverage","type":"uint256","internalType":"uint256"},{"name":"orderMargin","type":"uint256","internalType":"uint256"},{"name":"triggerPrice","type":"uint256","internalType":"uint256"},{"name":"acceptablePrice","type":"uint256","internalType":"uint256"},{"name":"placeTime","type":"uint256","internalType":"uint256"},{"name":"executionFee","type":"uint256","internalType":"uint256"},{"name":"lastBlock","type":"uint256","internalType":"uint256"}]},{"name":"reasonCode","type":"bytes32","indexed":false,"internalType":"bytes32"}],"anonymous":false},{"type":"event","name":"CancelUpdateLeverageEvent","inputs":[{"name":"requestId","type":"uint256","indexed":true,"internalType":"uint256"},{"name":"data","type":"tuple","indexed":false,"internalType":"struct UpdateLeverage.Request","components":[{"name":"account","type":"address","internalType":"address"},{"name":"symbol","type":"bytes32","internalType":"bytes32"},{"name":"isLong","type":"bool","internalType":"bool"},{"name":"isExecutionFeeFromTradeVault","type":"bool","internalType":"bool"},{"name":"isCrossMargin","type":"bool","internalType":"bool"},{"name":"leverage","type":"uint256","internalType":"uint256"},{"name":"marginToken","type":"address","internalType":"address"},{"name":"addMarginAmount","type":"uint256","internalType":"uint256"},{"name":"executionFee","type":"uint256","internalType":"uint256"},{"name":"lastBlock","type":"uint256","internalType":"uint256"}]},{"name":"reasonCode","type":"bytes32","indexed":false,"internalType":"bytes32"}],"anonymous":false},{"type":"event","name":"CancelUpdatePositionMarginEvent","inputs":[{"name":"requestId","type":"uint256","indexed":true,"internalType":"uint256"},{"name":"data","type":"tuple","indexed":false,"internalType":"struct UpdatePositionMargin.Request","components":[{"name":"account","type":"address","internalType":"address"},{"name":"positionKey","type":"bytes32","internalType":"bytes32"},{"name":"marginToken","type":"address","internalType":"address"},{"name":"updateMarginAmount","type":"uint256","internalType":"uint256"},{"name":"executionFee","type":"uint256","internalType":"uint256"},{"name":"isAdd","type":"bool","internalType":"bool"},{"name":"isExecutionFeeFromTradeVault","type":"bool","internalType":"bool"},{"name":"lastBlock","type":"uint256","internalType":"uint256"}]},{"name":"reasonCode","type":"bytes32","indexed":false,"internalType":"bytes32"}],"anonymous":false},{"type":"event","name":"ChargeBorrowingFeeEvent","inputs":[{"name":"isCrossMargin","type":"bool","indexed":false,"internalType":"bool"},{"name":"stakeToken","type":"address","indexed":false,"internalType":"address"},{"name":"token","type":"address","indexed":false,"internalType":"address"},{"name":"account","type":"address","indexed":false,"internalType":"address"},{"name":"feeType","type":"bytes32","indexed":false,"internalType":"bytes32"},{"name":"fee","type":"uint256","indexed":false,"internalType":"uint256"}],"anonymous":false},{"type":"event","name":"ChargeTradingFeeEvent","inputs":[{"name":"symbol","type":"bytes32","indexed":false,"internalType":"bytes32"},{"name":"account","type":"address","indexed":false,"internalType":"address"},{"name":"positionKey","type":"bytes32","indexed":false,"internalType":"bytes32"},{"name":"feeType","type":"bytes32","indexed":false,"internalType":"bytes32"},{"name":"feeToken","type":"address","indexed":false,"internalType":"address"},{"name":"feeAmount","type":"uint256","indexed":false,"internalType":"uint256"}],"anonymous":false},{"type":"event","name":"CreateUpdateLeverageEvent","inputs":[{"name":"requestId","type":"uint256","indexed":true,"internalType":"uint256"},{"name":"data","type":"tuple","indexed":false,"internalType":"struct UpdateLeverage.Request","components":[{"name":"account","type":"address","internalType":"address"},{"name":"symbol","type":"bytes32","internalType":"bytes32"},{"name":"isLong","type":"bool","internalType":"bool"},{"name":"isExecutionFeeFromTradeVault","type":"bool","internalType":"bool"},{"name":"isCrossMargin","type":"bool","internalType":"bool"},{"name":"leverage","type":"uint256","internalType":"uint256"},{"name":"marginToken","type":"address","internalType":"address"},{"name":"addMarginAmount","type":"uint256","internalType":"uint256"},{"name":"executionFee","type":"uint256","internalType":"uint256"},{"name":"lastBlock","type":"uint256","internalType":"uint256"}]}],"anonymous":false},{"type":"event","name":"CreateUpdatePositionMarginEvent","inputs":[{"name":"requestId","type":"uint256","indexed":true,"internalType":"uint256"},{"name":"data","type":"tuple","indexed":false,"internalType":"struct UpdatePositionMargin.Request","components":[{"name":"account","type":"address","internalType":"address"},{"name":"positionKey","type":"bytes32","internalType":"bytes32"},{"name":"marginToken","type":"address","internalType":"address"},{"name":"updateMarginAmount","type":"uint256","internalType":"uint256"},{"name":"executionFee","type":"uint256","internalType":"uint256"},{"name":"isAdd","type":"bool","internalType":"bool"},{"name":"isExecutionFeeFromTradeVault","type":"bool","internalType":"bool"},{"name":"lastBlock","type":"uint256","internalType":"uint256"}]}],"anonymous":false},{"type":"event","name":"FundsUpdateEvent","inputs":[{"name":"stakeToken","type":"address","indexed":false,"internalType":"address"},{"name":"token","type":"address","indexed":false,"internalType":"address"},{"name":"preAmount","type":"uint256","indexed":false,"internalType":"uint256"},{"name":"amount","type":"uint256","indexed":false,"internalType":"uint256"}],"anonymous":false},{"type":"event","name":"LossExecutionFeeUpdateEvent","inputs":[{"name":"preAmount","type":"uint256","indexed":false,"internalType":"uint256"},{"name":"amount","type":"uint256","indexed":false,"internalType":"uint256"}],"anonymous":false},{"type":"event","name":"MarketFundingFeeUpdateEvent","inputs":[{"name":"symbol","type":"bytes32","indexed":false,"internalType":"bytes32"},{"name":"fundingFee","type":"tuple","indexed":false,"internalType":"struct Market.FundingFee","components":[{"name":"longFundingFeePerQty","type":"int256","internalType":"int256"},{"name":"shortFundingFeePerQty","type":"int256","internalType":"int256"},{"name":"totalLongFundingFee","type":"int256","internalType":"int256"},{"name":"totalShortFundingFee","type":"int256","internalType":"int256"},{"name":"longFundingFeeRate","type":"int256","internalType":"int256"},{"name":"shortFundingFeeRate","type":"int256","internalType":"int256"},{"name":"lastUpdateTime","type":"uint256","internalType":"uint256"}]}],"anonymous":false},{"type":"event","name":"MarketOIUpdateEvent","inputs":[{"name":"symbol","type":"bytes32","indexed":false,"internalType":"bytes32"},{"name":"isLong","type":"bool","indexed":false,"internalType":"bool"},{"name":"preOpenInterest","type":"uint256","indexed":false,"internalType":"uint256"},{"name":"openInterest","type":"uint256","indexed":false,"internalType":"uint256"}],"anonymous":false},{"type":"event","name":"PoolBorrowingFeeUpdateEvent","inputs":[{"name":"stakeToken","type":"address","indexed":false,"internalType":"address"},{"name":"borrowingFee","type":"tuple","indexed":false,"internalType":"struct LpPool.BorrowingFee","components":[{"name":"totalBorrowingFee","type":"uint256","internalType":"uint256"},{"name":"totalRealizedBorrowingFee","type":"uint256","internalType":"uint256"},{"name":"cumulativeBorrowingFeePerToken","type":"uint256","internalType":"uint256"},{"name":"lastUpdateTime","type":"uint256","internalType":"uint256"}]}],"anonymous":false},{"type":"event","name":"PoolTokenUpdateEvent","inputs":[{"name":"stakeToken","type":"address","indexed":false,"internalType":"address"},{"name":"token","type":"address","indexed":false,"internalType":"address"},{"name":"preAmount","type":"uint256","indexed":false,"internalType":"uint256"},{"name":"preLiability","type":"uint256","indexed":false,"internalType":"uint256"},{"name":"preHoldAmount","type":"uint256","indexed":false,"internalType":"uint256"},{"name":"preUnsettledAmount","type":"int256","indexed":false,"internalType":"int256"},{"name":"preLossAmount","type":"uint256","indexed":false,"internalType":"uint256"},{"name":"amount","type":"uint256","indexed":false,"internalType":"uint256"},{"name":"liability","type":"uint256","indexed":false,"internalType":"uint256"},{"name":"holdAmount","type":"uint256","indexed":false,"internalType":"uint256"},{"name":"unsettledAmount","type":"int256","indexed":false,"internalType":"int256"},{"name":"lossAmount","type":"uint256","indexed":false,"internalType":"uint256"},{"name":"updateBlock","type":"uint256","indexed":false,"internalType":"uint256"}],"anonymous":false},{"type":"event","name":"PositionUpdateEvent","inputs":[{"name":"requestId","type":"uint256","indexed":false,"internalType":"uint256"},{"name":"positionKey","type":"bytes32","indexed":false,"internalType":"bytes32"},{"name":"from","type":"uint8","indexed":false,"internalType":"enum Position.PositionUpdateFrom"},{"name":"position","type":"tuple","indexed":false,"internalType":"struct Position.Props","components":[{"name":"key","type":"bytes32","internalType":"bytes32"},{"name":"symbol","type":"bytes32","internalType":"bytes32"},{"name":"isLong","type":"bool","internalType":"bool"},{"name":"isCrossMargin","type":"bool","internalType":"bool"},{"name":"account","type":"address","internalType":"address"},{"name":"marginToken","type":"address","internalType":"address"},{"name":"indexToken","type":"address","internalType":"address"},{"name":"qty","type":"uint256","internalType":"uint256"},{"name":"entryPrice","type":"uint256","internalType":"uint256"},{"name":"leverage","type":"uint256","internalType":"uint256"},{"name":"initialMargin","type":"uint256","internalType":"uint256"},{"name":"initialMarginInUsd","type":"uint256","internalType":"uint256"},{"name":"initialMarginInUsdFromBalance","type":"uint256","internalType":"uint256"},{"name":"holdPoolAmount","type":"uint256","internalType":"uint256"},{"name":"positionFee","type":"tuple","internalType":"struct Position.PositionFee","components":[{"name":"closeFeeInUsd","type":"uint256","internalType":"uint256"},{"name":"openBorrowingFeePerToken","type":"uint256","internalType":"uint256"},{"name":"realizedBorrowingFee","type":"uint256","internalType":"uint256"},{"name":"realizedBorrowingFeeInUsd","type":"uint256","internalType":"uint256"},{"name":"openFundingFeePerQty","type":"int256","internalType":"int256"},{"name":"realizedFundingFee","type":"int256","internalType":"int256"},{"name":"realizedFundingFeeInUsd","type":"int256","internalType":"int256"}]},{"name":"realizedPnl","type":"int256","internalType":"int256"},{"name":"lastUpdateTime","type":"uint256","internalType":"uint256"}]},{"name":"settleData","type":"tuple","indexed":false,"internalType":"struct Position.SettleData","components":[{"name":"executePrice","type":"uint256","internalType":"uint256"},{"name":"openFee","type":"uint256","internalType":"uint256"},{"name":"marginTokenPrice","type":"uint256","internalType":"uint256"},{"name":"settledMargin","type":"int256","internalType":"int256"},{"name":"settledBorrowingFee","type":"uint256","internalType":"uint256"},{"name":"settledBorrowingFeeInUsd","type":"uint256","internalType":"uint256"},{"name":"settledFundingFee","type":"int256","internalType":"int256"},{"name":"settledFundingFeeInUsd","type":"int256","internalType":"int256"},{"name":"unHoldPoolAmount","type":"uint256","internalType":"uint256"},{"name":"closeFee","type":"uint256","internalType":"uint256"},{"name":"closeFeeInUsd","type":"uint256","internalType":"uint256"},{"name":"realizedPnl","type":"int256","internalType":"int256"},{"name":"poolPnlToken","type":"int256","internalType":"int256"}]}],"anonymous":false},{"type":"event","name":"UpdateLeverageSuccessEvent","inputs":[{"name":"requestId","type":"uint256","indexed":true,"internalType":"uint256"},{"name":"data","type":"tuple","indexed":false,"internalType":"struct UpdateLeverage.Request","components":[{"name":"account","type":"address","internalType":"address"},{"name":"symbol","type":"bytes32","internalType":"bytes32"},{"name":"isLong","type":"bool","internalType":"bool"},{"name":"isExecutionFeeFromTradeVault","type":"bool","internalType":"bool"},{"name":"isCrossMargin","type":"bool","internalType":"bool"},{"name":"leverage","type":"uint256","internalType":"uint256"},{"name":"marginToken","type":"address","internalType":"address"},{"name":"addMarginAmount","type":"uint256","internalType":"uint256"},{"name":"executionFee","type":"uint256","internalType":"uint256"},{"name":"lastBlock","type":"uint256","internalType":"uint256"}]}],"anonymous":false},{"type":"event","name":"UpdatePositionMarginSuccessEvent","inputs":[{"name":"requestId","type":"uint256","indexed":true,"internalType":"uint256"},{"name":"data","type":"tuple","indexed":false,"internalType":"struct UpdatePositionMargin.Request","components":[{"name":"account","type":"address","internalType":"address"},{"name":"positionKey","type":"bytes32","internalType":"bytes32"},{"name":"marginToken","type":"address","internalType":"address"},{"name":"updateMarginAmount","type":"uint256","internalType":"uint256"},{"name":"executionFee","type":"uint256","internalType":"uint256"},{"name":"isAdd","type":"bool","internalType":"bool"},{"name":"isExecutionFeeFromTradeVault","type":"bool","internalType":"bool"},{"name":"lastBlock","type":"uint256","internalType":"uint256"}]}],"anonymous":false},{"type":"event","name":"UsdPoolBorrowingFeeUpdateEvent","inputs":[{"name":"borrowingFee","type":"tuple","indexed":false,"internalType":"struct UsdPool.BorrowingFee","components":[{"name":"totalBorrowingFee","type":"uint256","internalType":"uint256"},{"name":"totalRealizedBorrowingFee","type":"uint256","internalType":"uint256"},{"name":"cumulativeBorrowingFeePerToken","type":"uint256","internalType":"uint256"},{"name":"lastUpdateTime","type":"uint256","internalType":"uint256"}]}],"anonymous":false},{"type":"event","name":"UsdPoolTokenUpdateEvent","inputs":[{"name":"token","type":"address","indexed":false,"internalType":"address"},{"name":"preAmount","type":"uint256","indexed":false,"internalType":"uint256"},{"name":"preHoldAmount","type":"uint256","indexed":false,"internalType":"uint256"},{"name":"preUnsettledAmount","type":"uint256","indexed":false,"internalType":"uint256"},{"name":"amount","type":"uint256","indexed":false,"internalType":"uint256"},{"name":"holdAmount","type":"uint256","indexed":false,"internalType":"uint256"},{"name":"unsettledAmount","type":"uint256","indexed":false,"internalType":"uint256"},{"name":"updateBlock","type":"uint256","indexed":false,"internalType":"uint256"}],"anonymous":false},{"type":"error","name":"AccountNotExist","inputs":[]},{"type":"error","name":"AddMarginTooBig","inputs":[]},{"type":"error","name":"AmountZeroNotAllowed","inputs":[]},{"type":"error","name":"BalanceNotEnough","inputs":[{"name":"account","type":"address","internalType":"address"},{"name":"token","type":"address","internalType":"address"}]},{"type":"error","name":"ExecutionFeeNotEnough","inputs":[]},{"type":"error","name":"InvalidRoleAccess","inputs":[{"name":"account","type":"address","internalType":"address"},{"name":"role","type":"bytes32","internalType":"bytes32"}]},{"type":"error","name":"LeverageInvalid","inputs":[{"name":"symbol","type":"bytes32","internalType":"bytes32"},{"name":"leverage","type":"uint256","internalType":"uint256"}]},{"type":"error","name":"MaxOILimited","inputs":[{"name":"symbol","type":"bytes32","internalType":"bytes32"},{"name":"isLong","type":"bool","internalType":"bool"}]},{"type":"error","name":"OIRatioLimited","inputs":[]},{"type":"error","name":"OnlyIsolateSupported","inputs":[]},{"type":"error","name":"PoolAmountNotEnough","inputs":[{"name":"stakeToken","type":"address","internalType":"address"},{"name":"token","type":"address","internalType":"address"}]},{"type":"error","name":"PositionNotExists","inputs":[]},{"type":"error","name":"PositionShouldBeLiquidation","inputs":[]},{"type":"error","name":"PriceIsZero","inputs":[]},{"type":"error","name":"ReduceMarginTooBig","inputs":[]},{"type":"error","name":"SymbolNotExists","inputs":[]},{"type":"error","name":"SymbolStatusInvalid","inputs":[{"name":"symbol","type":"bytes32","internalType":"bytes32"}]},{"type":"error","name":"TokenIsNotSupport","inputs":[]},{"type":"error","name":"TokenTransferError","inputs":[{"name":"token","type":"address","internalType":"address"},{"name":"receiver","type":"address","internalType":"address"},{"name":"amount","type":"uint256","internalType":"uint256"}]},{"type":"error","name":"TransferErrorWithVaultBalanceNotEnough","inputs":[{"name":"vault","type":"address","internalType":"address"},{"name":"token","type":"address","internalType":"address"},{"name":"receiver","type":"address","internalType":"address"},{"name":"amount","type":"uint256","internalType":"uint256"}]},{"type":"error","name":"UpdateLeverageRequestNotExists","inputs":[]},{"type":"error","name":"UpdateLeverageWithNoChange","inputs":[]},{"type":"error","name":"UpdatePositionMarginRequestNotExists","inputs":[]}],"bytecode":{"object":"0x6080604052348015600f57600080fd5b50600160005561c80f806100246000396000f3fe6080604052600436106100865760003560e01c806374315647116100595780637431564714610123578063cb5c8d8114610144578063e606789b14610164578063fb11e96914610184578063fe1b7245146101b157600080fd5b806309fb7aac1461008b578063311be5f4146100ad57806341065c62146100cd57806359086dc914610103575b600080fd5b34801561009757600080fd5b506100ab6100a636600461b75e565b6101c4565b005b3480156100b957600080fd5b506100ab6100c836600461b7d3565b6102d3565b3480156100d957600080fd5b506100ed6100e836600461b890565b6104a6565b6040516100fa919061ba21565b60405180910390f35b34801561010f57600080fd5b506100ab61011e36600461ba30565b6105ff565b61013661013136600461ba52565b61076a565b6040519081526020016100fa565b34801561015057600080fd5b506100ab61015f36600461b7d3565b610a86565b34801561017057600080fd5b506100ab61017f36600461ba30565b610b8b565b34801561019057600080fd5b506101a461019f36600461ba6b565b610c38565b6040516100fa919061ba88565b6101366101bf36600461baed565b610e8b565b60005a90506101db6525a2a2a822a960d11b61104c565b60006102067f8116fe254c434350c8a963d750885fee6b2213d5416ba4444044ed0bb91a725d61107f565b905060005b838110156102c357600061023486868481811061022a5761022a61baff565b9050602002013590565b905061023f816110df565b6040805160e08101825284815260018301546020820152600091810191909152600282015460ff610100820481161515606084015260038401546001600160a01b039081166080850152600585015460a085015260048501546102ba949360c08501936102b193929092169116611104565b9052829061112e565b5060010161020b565b506102cd82611ae4565b50505050565b60005a90506102ea6525a2a2a822a960d11b61104c565b60006102f585611b15565b80519091506001600160a01b03166103205760405163fd0b752360e01b815260040160405180910390fd5b61037b8484808060200260200160405190810160405280939291908181526020016000905b82821015610371576103626080830286013681900381019061bb2b565b81526020019060010190610345565b5050505050611be4565b6103858582611d5f565b61038d6120d3565b61049f6040518060a001604052808360c0015161040b57306001600160a01b0316631f7592ea6040518163ffffffff1660e01b8152600401602060405180830381865afa1580156103e2573d6000803e3d6000fd5b505050506040513d601f19601f82011682018060405250810190610406919061bbae565b61046d565b306001600160a01b03166397e7b7f26040518163ffffffff1660e01b8152600401602060405180830381865afa158015610449573d6000803e3d6000fd5b505050506040513d601f19601f8201168201806040525081019061046d919061bbae565b6001600160a01b03908116825260808086015160208401526040830187905233606084015285519091169101526120e5565b5050505050565b6104ae61b43c565b6104ba8585858561218e565b6040805161022081018252825481526001830154602080830191909152600284015460ff80821615158486015261010080830490911615156060808601919091526001600160a01b036201000090930483166080808701919091526003880154841660a080880191909152600489015490941660c080880191909152600589015460e08089019190915260068a015494880194909452600789015461012088015260088901546101408801526009890154610160880152600a890154610180880152600b8901546101a088015287519384018852600c8901548452600d89015495840195909552600e88015496830196909652600f870154908201526010860154948101949094526011850154908401526012840154908301526101c081019190915260138201546101e082015260149091015461020082015290505b949350505050565b60005a90506106166525a2a2a822a960d11b61104c565b6000610621846121ab565b80519091506001600160a01b031661064c5760405163093d047f60e21b815260040160405180910390fd5b6106578482856122ab565b6102cd6040518060a0016040528083606001516106d557306001600160a01b0316631f7592ea6040518163ffffffff1660e01b8152600401602060405180830381865afa1580156106ac573d6000803e3d6000fd5b505050506040513d601f19601f820116820180604052508101906106d0919061bbae565b610737565b306001600160a01b03166397e7b7f26040518163ffffffff1660e01b8152600401602060405180830381865afa158015610713573d6000803e3d6000fd5b505050506040513d601f19601f82011682018060405250810190610737919061bbae565b6001600160a01b0390811682526101008501516020830152604082018690523360608301528451166080909101526120e5565b60008061077783356123a3565b9050600061078584356123b4565b6040805160c08101909152815481526001820154909190602083019060ff1660038111156107b5576107b561bbcb565b60038111156107c6576107c661bbcb565b815260018201546001600160a01b0361010090910481166020830152600283015481166040830152600383015416606082015260048201805460809092019161080e9061bbe1565b80601f016020809104026020016040519081016040528092919081815260200182805461083a9061bbe1565b80156108875780601f1061085c57610100808354040283529160200191610887565b820191906000526020600020905b81548152906001019060200180831161086a57829003601f168201915b505050919092525091925061089a915050565b6000816020015160038111156108b2576108b261bbcb565b146108d8576040516303035c6f60e61b8152843560048201526024015b60405180910390fd5b8151608085013511806108fb57506108f4620186a0600161bc2b565b8460800135105b1561092657604051635c93c83760e01b815284356004820152608085013560248201526044016108cf565b3360006109328261241a565b905060008660c001351180156109555750610953608087016060880161bc42565b155b15610a4e5761096a606087016040880161bc42565b158061097957508560c0013534145b6109c15760405162461bcd60e51b81526020600482015260196024820152784465706f7369742065746820616d6f756e74206572726f722160381b60448201526064016108cf565b610a4c6040518060a00160405280846001600160a01b031681526020018860400160208101906109f1919061bc42565b610a0a57610a0560c08a0160a08b0161ba6b565b610a14565b610a12612471565b515b6001600160a01b0316815260c0890135602082015260400160018152602001610a4360608a0160408b0161bc42565b15159052612881565b505b600080610a5b8389612b1c565b9092509050610a7a84610a73368b90038b018b61bc5f565b8484612c5c565b98975050505050505050565b60005a9050610a9d6525a2a2a822a960d11b61104c565b6000610aa8856121ab565b80519091506001600160a01b0316610ad35760405163093d047f60e21b815260040160405180910390fd5b610b248484808060200260200160405190810160405280939291908181526020016000905b8282101561037157610b156080830286013681900381019061bb2b565b81526020019060010190610af8565b610b2e8582612d83565b610b366120d3565b61049f6040518060a0016040528083606001516106d557306001600160a01b0316631f7592ea6040518163ffffffff1660e01b8152600401602060405180830381865afa1580156106ac573d6000803e3d6000fd5b60005a9050610ba26525a2a2a822a960d11b61104c565b6000610bad84611b15565b80519091506001600160a01b0316610bd85760405163fd0b752360e01b815260040160405180910390fd5b610be3848285613266565b6102cd6040518060a001604052808360c0015161040b57306001600160a01b0316631f7592ea6040518163ffffffff1660e01b8152600401602060405180830381865afa1580156103e2573d6000803e3d6000fd5b60606000610c458361241a565b9050610c5a81546001600160a01b0316151590565b610c675750606092915050565b6000610c7282613330565b90506000815167ffffffffffffffff811115610c9057610c9061bb15565b604051908082528060200260200182016040528015610cc957816020015b610cb661b523565b815260200190600190039081610cae5790505b50905060005b8251811015610e82576000610cfa848381518110610cef57610cef61baff565b602002602001015190565b6040805161022081018252825481526001830154602080830191909152600284015460ff80821615158486015261010080830490911615156060808601919091526001600160a01b036201000090930483166080808701919091526003880154841660a080880191909152600489015490941660c080880191909152600589015460e08089019190915260068a015494880194909452600789015461012088015260088901546101408801526009890154610160880152600a890154610180880152600b8901546101a088015287519384018852600c8901548452600d89015495840195909552600e88015496830196909652600f870154908201526010860154948101949094526011850154908401526012840154908301526101c081019190915260138201546101e08201526014820154610200820152845191925090849084908110610e4b57610e4b61baff565b60209081029190910101515242838381518110610e6a57610e6a61baff565b60209081029190910101516040015250600101610ccf565b50949350505050565b60008160800135600003610eb257604051630b4fc37360e11b815260040160405180910390fd5b336000610ebe8261241a565b9050610ecb81853561333e565b610ee857604051634a32858f60e01b815260040160405180910390fd5b83356002810154610100900460ff1615610f1557604051633046114760e01b815260040160405180910390fd5b610f25604086016020870161bc42565b1561101557610f3a606086016040870161bc42565b1580610f495750846080013534145b610f915760405162461bcd60e51b81526020600482015260196024820152784465706f7369742065746820616d6f756e74206572726f722160381b60448201526064016108cf565b6110136040518060a00160405280856001600160a01b03168152602001876040016020810190610fc1919061bc42565b610fda57610fd56080890160608a0161ba6b565b610fe4565b610fe2612471565b515b6001600160a01b031681526080880135602082015260400160018152602001610a436060890160408a0161bc42565b505b6000806110228488613354565b90925090506110418561103a368a90038a018a61bd1e565b8484613474565b979650505050505050565b611056338261355e565b61107c57604051632d7d0e0d60e21b8152336004820152602481018290526044016108cf565b50565b60008061108a61358e565b6000848152602082905260409020549091506104578110156110ba576110b3610457600161bdbe565b90506110c8565b806110c48161bdd1565b9150505b600093845260209190915260409092208290555090565b806005015460000361107c57604051634a32858f60e01b815260040160405180910390fd5b600080611110846135f0565b905082611121578060200151611124565b80515b9150505b92915050565b6040805161022081018252835481526001840154602080830191909152600285015460ff80821615158486015261010080830490911615156060808601919091526001600160a01b036201000090930483166080808701919091526003890154841660a08088019190915260048a015490941660c08088019190915260058a015460e08089019190915260068b01549488019490945260078a015461012088015260088a015461014088015260098a0154610160880152600a8a0154610180880152600b8a01546101a088015287519384018852600c8a01548452600d8a015495840195909552600e89015496830196909652600f880154908201526010870154948101949094526011860154908401526012850154838201526101c082019290925260138401546101e08201526014840154610200820152908201516000916112829161127b90613683565b60006136f1565b9050600061129383602001516123b4565b6040805160c08101909152815481526001820154909190602083019060ff1660038111156112c3576112c361bbcb565b60038111156112d4576112d461bbcb565b815260018201546001600160a01b0361010090910481166020830152600283015481166040830152600383015416606082015260048201805460809092019161131c9061bbe1565b80601f01602080910402602001604051908101604052809291908181526020018280546113489061bbe1565b80156113955780601f1061136a57610100808354040283529160200191611395565b820191906000526020600020905b81548152906001019060200180831161137857829003601f168201915b505050505081525050905060006113af8460200151613701565b90506113bf8583604001516139d6565b6113c885613ae0565b60006113f5868660a00151866113e18960c00151613683565b86606001518a604001518b60600151613c70565b905060008160a0015112801561140e5750806102a00151155b801561142457506002860154610100900460ff16155b1561144157604051627b2f7360e51b815260040160405180910390fd5b6040808401516001600160a01b0390811683529086015115156102a08301526002870154600091611478916201000090041661241a565b905086600501548660a0015103611539576002870154600188015460038901546114cb926114c4926001600160a01b03620100008304811693919291169060ff610100909104166146f3565b8290614775565b60006005880181905560068801819055600788018190556008880181905560098801819055600a8801819055600b8801819055600c880181905560138801819055600d8801819055600e8801819055600f880181905560108801819055601188018190556012880155611692565b8560a00151876005016000828254611551919061bdea565b909155505060c082015160088801805460009061156f90849061bdea565b909155505061012082015160098801805460009061158e90849061bdea565b9091555050610140820151600a880180546000906115ad90849061bdea565b9091555050610200820151600b880180546000906115cc90849061bdea565b90915550506102608201516013880180546000906115eb90849061bdfd565b9091555050610160820151600e8801805460009061160a90849061bdea565b9091555050610180820151600f8801805460009061162990849061bdea565b90915550506101a082015160118801805460009061164890849061be25565b90915550506101c082015160128801805460009061166790849061be25565b9091555050610240820151600c8801805460009061168690849061bdea565b90915550504260148801555b6117558261022001518560000151846102a001516116fb576040516020016116e0906020808252601290820152712322a2afa1a627a9a2afa827a9a4aa24a7a760711b604082015260600190565b60405160208183030381529060405280519060200120611745565b60405160200161172e906020808252600f908201526e2322a2afa624a8aaa4a220aa24a7a760891b604082015260600190565b604051602081830303815290604052805190602001205b602086015160a081015190614782565b60028701546101608301516040860151602085015160a001516102a086015161181894610100810460ff1694939291620100009091046001600160a01b0316906117e5576040516020016117ca906020808252600d908201526c4645455f424f52524f57494e4760981b604082015260600190565b60405160208183030381529060405280519060200120614971565b6040516020016117ca906020808252600f908201526e2322a2afa624a8aaa4a220aa24a7a760891b604082015260600190565b8160200151606001511561187f5760006118388760000151838a86614b2c565b9050611855836020015160a0015183614dbc90919063ffffffff16565b506118798560400151846020015160a0015185610200015186610280015185614dca565b506118ad565b6118898183614f64565b6118ad8460400151836020015160a001518461020001518561028001516000614dca565b6118f18460400151836020015160400151846020015160a001516118d5866101600151613683565b6118e3876101600151613683565b6118ec9061be45565b61502f565b61192e8460000151836101a001516119089061be45565b6020850151604081015160028c015460a0909201519091610100900460ff16159061518b565b61198a6040518060c0016040528060001515815260200186600001518152602001846020015160a001516001600160a01b031681526020018860a00151815260200160008152602001846020015160400151151581525061523d565b6020808301516080810151865160a0830151606090930151604051611a0895939492936119e991016020808252601a908201527f43414e43454c5f574954485f504f534954494f4e5f434c4f5345000000000000604082015260600190565b604051602081830303815290604052611a019061be61565b8b51615446565b816102a0015115611a1c57611a1c8261579a565b611adb8660000151836102a00151611a35576002611a38565b60075b604051806101a001604052808a60c00151815260200160008152602001866040015181526020018660a00151815260200186610160015181526020018661018001518152602001866101a001518152602001866101c00151815260200186610200015181526020018661022001518152602001866102400151815260200186610260015181526020018661028001518152508a6158a0909392919063ffffffff16565b50505050505050565b60005a611af1908361bdea565b90506000611aff3a8361bc2b565b90508015611b1057611b108161591b565b505050565b6040805161010081018252600080825260208201819052918101829052606081018290526080810182905260a0810182905260c0810182905260e0810182905290611b5e615994565b600093845260209081526040938490208451610100808201875282546001600160a01b0390811683526001840154948301949094526002830154909316958101959095526003810154606086015260048101546080860152600581015460ff808216151560a0880152929004909116151560c08501526006015460e08401525090919050565b6000611bee6159e6565b905060005b8251811015611b105760006001600160a01b0316838281518110611c1957611c1961baff565b6020026020010151602001516001600160a01b031603611cb857611cb3838281518110611c4857611c4861baff565b6020026020010151600001516040518060400160405280868581518110611c7157611c7161baff565b6020026020010151604001518152602001868581518110611c9457611c9461baff565b60200260200101516060015181525084615a2a9092919063ffffffff16565b611d57565b611d57838281518110611ccd57611ccd61baff565b602002602001015160000151848381518110611ceb57611ceb61baff565b6020026020010151602001516040518060400160405280878681518110611d1457611d1461baff565b6020026020010151604001518152602001878681518110611d3757611d3761baff565b60200260200101516060015181525085615a72909392919063ffffffff16565b600101611bf3565b6000611d6c826020015190565b9050611d77816110df565b6002810154610100900460ff1615611da257604051633046114760e01b815260040160405180910390fd5b600381015460408301516001600160a01b03908116911614611dd7576040516348ca0fc360e11b815260040160405180910390fd5b6000611de682600101546123b4565b6040805160c08101909152815481526001820154909190602083019060ff166003811115611e1657611e1661bbcb565b6003811115611e2757611e2761bbcb565b815260018201546001600160a01b03610100909104811660208301526002830154811660408301526003830154166060820152600482018054608090920191611e6f9061bbe1565b80601f0160208091040260200160405190810160405280929190818152602001828054611e9b9061bbe1565b8015611ee85780601f10611ebd57610100808354040283529160200191611ee8565b820191906000526020600020905b815481529060010190602001808311611ecb57829003601f168201915b50505050508152505090506000611f02846000015161241a565b90508360a001511561201057611f1661b536565b60408301516001600160a01b039081168252606086015160208301526003850154611f419116615aef565b60ff908116606083015260038501546002860154611f6c926001600160a01b03909216911615611104565b604082015260006080820152611f828482615b53565b611ffb306001600160a01b03166397e7b7f26040518163ffffffff1660e01b8152600401602060405180830381865afa158015611fc3573d6000803e3d6000fd5b505050506040513d601f19601f82011682018060405250810190611fe7919061bbae565b866040015185604001518460200151615ca8565b5061200a848760036000615cb8565b5061204e565b6000612023848487606001516001615d88565b905061203d83604001518660400151876000015184615ca8565b5061204c848760046000615cb8565b505b61208b61205a82615f70565b60018501546003860154600787015460028801546001600160a01b039092169160ff80821691610100900416615f7e565b612094856160c9565b847fa97cd7c80b84202b26de1f602c4083994ba2aa2f86ed2b36aa362c3ad1ffb9db856040516120c4919061bee3565b60405180910390a25050505050565b6120e36120de6159e6565b616123565b565b60005a82604001516120f7919061bdea565b905060006121053a8361bc2b565b9050600080846020015183111561212e5760208501519250612127838061bdea565b9050612141565b82856020015161213e919061bdea565b91505b845161215c9061214f612471565b5160208801513090615ca8565b5061216b85606001518461621a565b811561217f5761217f85608001518361621a565b801561049f5761049f8161591b565b60006121a261219f868686866146f3565b90565b95945050505050565b6040805161014081018252600080825260208201819052918101829052606081018290526080810182905260a0810182905260c0810182905260e08101829052610100810182905261012081018290529061220461628c565b6000938452602090815260409384902084516101408101865281546001600160a01b039081168252600183015493820193909352600282015460ff8082161515978301979097526101008082048816151560608401526201000090910490961615156080820152600382015460a0820152600482015490921660c0830152600581015460e08301526006810154948201949094526007909301546101208401525090919050565b60006122c9836000015184602001518560c0015186608001516146f3565b60e08401519091508190158015906122eb57506002810154610100900460ff16155b1561236857612366306001600160a01b03166397e7b7f26040518163ffffffff1660e01b8152600401602060405180830381865afa158015612331573d6000803e3d6000fd5b505050506040513d601f19601f82011682018060405250810190612355919061bbae565b60c0860151865160e0880151615ca8565b505b612371856162d0565b847fd6cb966e94927ebaa6e425a8b1fa6dff12fc5a3aec79ff87e1e2b37cf12fcb7785856040516120c492919061bf8b565b6123ab61b57a565b61112882613701565b6040805160208101829052601760608201527f78797a2e656c66692e73746f726167652e53796d626f6c0000000000000000006080820152908101829052600090819060a0015b60408051601f1981840301815291905280516020909101209392505050565b600080826040516020016123fb919060408082526018908201527f78797a2e656c66692e73746f726167652e4163636f756e74000000000000000060608201526001600160a01b0391909116602082015260800190565b6124c960405180610120016040528060006001600160a01b0316815260200160008152602001600081526020016000815260200160008152602001600081526020016000815260200160008152602001600081525090565b6000806040516020016124fc906020808252600c908201526b434841494e5f434f4e46494760a01b604082015260600190565b60405160208183030381529060405280519060200120905061259e81604051602001612549906020808252600d908201526c2ba920a82822a92faa27a5a2a760991b604082015260600190565b60405160208183030381529060405280519060200120604051602001612579929190918252602082015260400190565b604051602081830303815290604052805190602001208361633290919063ffffffff16565b6001600160a01b0316835260405161263a9082906125e5906020016020808252601290820152711352539517d1d054d7d1915157d31253525560721b604082015260600190565b60405160208183030381529060405280519060200120604051602001612615929190918252602082015260400190565b604051602081830303815290604052805190602001208361635190919063ffffffff16565b83602001818152505061267f816040516020016125e59060208082526014908201527314915111515357d1d054d7d1915157d31253525560621b604082015260600190565b8360400181815250506126d8816040516020016125e59060208082526022908201527f504c4143455f494e4352454153455f4f524445525f4741535f4645455f4c494d604082015261125560f21b606082015260800190565b606084015260405161272f9082906125e59060200160208082526022908201527f504c4143455f44454352454153455f4f524445525f4741535f4645455f4c494d604082015261125560f21b606082015260800190565b60808401526040516127889082906125e59060200160208082526024908201527f504f534954494f4e5f5550444154455f4d415247494e5f4741535f4645455f4c6040820152631253525560e21b606082015260800190565b60a08401526040516127e39082906125e59060200160208082526026908201527f504f534954494f4e5f5550444154455f4c455645524147455f4741535f46454560408201526517d31253525560d21b606082015260800190565b60c08401526040516128289082906125e59060200160208082526016908201527515d2551211149055d7d1d054d7d1915157d31253525560521b604082015260600190565b60e08401526040516128749082906125e5906020016020808252601b908201527f434c41494d5f524557415244535f4741535f4645455f4c494d49540000000000604082015260600190565b6101008401525090919050565b60008030905060008360600151600381111561289f5761289f61bbcb565b15806128c05750836060015160038111156128bc576128bc61bbcb565b6003145b1561292e57816001600160a01b0316631f7592ea6040518163ffffffff1660e01b8152600401602060405180830381865afa158015612903573d6000803e3d6000fd5b505050506040513d601f19601f82011682018060405250810190612927919061bbae565b9050612a0b565b836060015160038111156129445761294461bbcb565b60010361298957816001600160a01b03166397e7b7f26040518163ffffffff1660e01b8152600401602060405180830381865afa158015612903573d6000803e3d6000fd5b8360600151600381111561299f5761299f61bbcb565b600203612a0b57816001600160a01b03166308ba026f6040518163ffffffff1660e01b8152600401602060405180830381865afa1580156129e4573d6000803e3d6000fd5b505050506040513d601f19601f82011682018060405250810190612a08919061bbae565b90505b6020840151608085015115612aff576000612a24612471565b60000151905085602001516001600160a01b0316816001600160a01b031614612a8f5760405162461bcd60e51b815260206004820152601960248201527f4465706f736974207769746820746f6b656e206572726f72210000000000000060448201526064016108cf565b806001600160a01b031663d0e30db087604001516040518263ffffffff1660e01b81526004016000604051808303818588803b158015612ace57600080fd5b505af1158015612ae2573d6000803e3d6000fd5b5050505050809150612af982848860400151616364565b506105f7565b845160408601516105f7916001600160a01b0384169185906163bc565b6000806000612b29612471565b9050612b3d8460e001358260c00151616416565b612b4d606085016040860161bc42565b8015612b6157508360e001358460c0013510155b8015612b7a5750612b78608085016060860161bc42565b155b15612b9d57612b9160e085013560c086013561bdea565b60019250925050612c55565b8360e001353414612c025760405162461bcd60e51b815260206004820152602960248201527f757064617465206c65766572616765207769746820657865637574696f6e20666044820152686565206572726f722160b81b60648201526084016108cf565b6040805160a08101825286546001600160a01b039081168252835116602082015260e086013591810191909152612c49906060810160005b81526001602090910152612881565b5050505060c081013560005b9250929050565b600080612c887f2989329a2d7c83abb9c1604d5f2fc27c0c475023f6c7e61d2c9764d957001df161107f565b90506000612c9582616440565b80546001600160a01b03199081166001600160a01b038a81169190911783558851600184015560a089015160048401805490931691161790556005810186905560808701516003820155602087015160028201805461ffff191691151561ff001916919091176101008715150217905560e087015160068201559050612d1961645c565b60078201556060860151600282018054911515620100000262ff00001990921691909117905560405182907ff10a875b95835782d2b181df1940a2bbbd0579a19b5b07cc338405dca8ce10a090612d7190849061bfa8565b60405180910390a25095945050505050565b6000612da1826000015183602001518460c0015185608001516146f3565b60a08301516007820154919250829103612dce5760405163fe2af79760e01b815260040160405180910390fd5b6000612ddd84602001516123b4565b6040805160c08101909152815481526001820154909190602083019060ff166003811115612e0d57612e0d61bbcb565b6003811115612e1e57612e1e61bbcb565b815260018201546001600160a01b03610100909104811660208301526002830154811660408301526003830154166060820152600482018054608090920191612e669061bbe1565b80601f0160208091040260200160405190810160405280929190818152602001828054612e929061bbe1565b8015612edf5780601f10612eb457610100808354040283529160200191612edf565b820191906000526020600020905b815481529060010190602001808311612ec257829003601f168201915b50505050508152505090506000612ef9856000015161241a565b905082600501546000146131f3578460a001518360070154111561315457612f1f61b536565b60408301516001600160a01b0316815260c0860151612f3d90615aef565b60ff908116606083015260038501546002860154612f68926001600160a01b03909216911615611104565b60408201526002840154610100900460ff16158015608083015261309b5760a0860151600785018190556005850154600091612fa491906164e2565b9050600085600901548211612fba576000612fc9565b6009860154612fc9908361bdea565b9050612fd4846164f2565b612fdd82613683565b1315613016578751600387015460405163316ce6db60e01b81526001600160a01b039283166004820152911660248201526044016108cf565b6130298184606001518560400151616500565b602084015260038601546130699061305a9061304f9087906001600160a01b0316616525565b602086015190616587565b8460600151856040015161659d565b60a0840152600386015460208401516130939186916001600160a01b0390911690600060076165c6565b5050506130a6565b60e086015160208201525b6130b08482615b53565b80608001516131405761313e306001600160a01b03166397e7b7f26040518163ffffffff1660e01b8152600401602060405180830381865afa1580156130fa573d6000803e3d6000fd5b505050506040513d601f19601f8201168201806040525081019061311e919061bbae565b6003860154604086015160208501516001600160a01b0390921691615ca8565b505b61314e848860066000615cb8565b506131f3565b60a085015160078401819055600584015460009161317291906164e2565b8460090154613181919061bdea565b905060006131928585846000615d88565b6002860154909150610100900460ff16156131c85760038501546131c39084906001600160a01b0316836008616782565b6131e2565b6131e084604001518860c00151896000015184615ca8565b505b6131f0858960056000615cb8565b50505b61321d6131ff82615f70565b86602001518760c001518860a0015189604001518a60800151615f7e565b613226866162d0565b857f1b0f0226eeebc76b15f2866a980cac8789fc897af5375efa3fade568a6ace35186604051613256919061c052565b60405180910390a2505050505050565b8160a00151156132e8576132e6306001600160a01b03166397e7b7f26040518163ffffffff1660e01b8152600401602060405180830381865afa1580156132b1573d6000803e3d6000fd5b505050506040513d601f19601f820116820180604052508101906132d5919061bbae565b604084015184516060860151615ca8565b505b6132f1836160c9565b827f8df4e5e333d6a48dc92c2e3bd375a167cea86324ae8ca7871df6299d85e32b42838360405161332392919061c061565b60405180910390a2505050565b6060611128826005016168e6565b600061334d60058401836168f3565b9392505050565b6000806000613361612471565b90506133758460a001358260a00151616416565b613385606085016040860161bc42565b801561339c575061339c604085016020860161bc42565b80156133b057508360a00135846080013510155b156133c757612b9160a0850135608086013561bdea565b8360a00135341461342a5760405162461bcd60e51b815260206004820152602760248201527f757064617465206d617267696e207769746820657865637574696f6e20666565604482015266206572726f722160c81b60648201526084016108cf565b6040805160a0808201835287546001600160a01b03908116835284511660208301528601359181019190915261346590606081016000612c3a565b50505050608001359160009150565b6000806134a07f29cee3f58fb5df949c95637dceabef3ba830c183deea122831b1959067d8669661107f565b905060006134ad8261690b565b80546001600160a01b03199081166001600160a01b038a8116919091178355885160018401556060890151600284018054909316911617905560038101869055602087015160058201805461ffff191691151561ff001916919091176101008715150217905560a08701516004820155905061352761645c565b600682015560405182907facd822eb0f09c844a32e8110598657bc37b23612a65161605a239defa5815ffe90612d7190849061c07e565b600080613569616916565b6001600160a01b038516600090815260208290526040902090915061112490846168f3565b6000806040516020016135d2906020808252601c908201527f78797a2e656c66692e73746f726167652e5575696443726561746f7200000000604082015260600190565b60408051601f19818403018152919052805160209091012092915050565b6040805180820190915260008082526020820152600061360e6159e6565b604080518082018252600080825260209182018190526001600160a01b0387168152600284018252829020825180840190935280548084526001909101549183019190915291925090158061366557506020810151155b1561334d5760405163907adecd60e01b815260040160405180910390fd5b60006001600160ff1b038211156136ed5760405162461bcd60e51b815260206004820152602860248201527f53616665436173743a2076616c756520646f65736e27742066697420696e2061604482015267371034b73a191a9b60c11b60648201526084016108cf565b5090565b600060606121a28582868661695a565b61370961b57a565b61371161b57a565b600080604051602001613745906020808252600d908201526c53594d424f4c5f434f4e46494760981b604082015260600190565b60408051601f198184030181529190528051602090910120905061376a828287616983565b6137775750909392505050565b6137e181866040516020016137ac906020808252600c908201526b4d41585f4c4556455241474560a01b604082015260600190565b60408051601f198184030181528282528051602091820120908301949094528101919091526060810191909152608001612615565b835260405161381890829087906137ac906020016020808252600990820152685449434b5f53495a4560b81b604082015260600190565b83602001818152505061385781866040516020016137ac906020808252600d908201526c4f50454e5f4645455f5241544560981b604082015260600190565b83604001818152505061389781866040516020016137ac906020808252600e908201526d434c4f53455f4645455f5241544560901b604082015260600190565b60608401526040516138e590829087906137ac906020016020808252601a908201527f4d41585f4c4f4e475f4f50454e5f494e5445524553545f434150000000000000604082015260600190565b608084015260405161393390829087906137ac906020016020808252601b908201527f4d41585f53484f52545f4f50454e5f494e5445524553545f4341500000000000604082015260600190565b60a084015260405161397a90829087906137ac906020016020808252601690820152751313d391d7d4d213d49517d490551253d7d31253525560521b604082015260600190565b60c08401526040516139c890829087906137ac906020016020808252601a908201527f4c4f4e475f53484f52545f4f495f424f54544f4d5f4c494d4954000000000000604082015260600190565b60e084015250909392505050565b600282015460038301546000916139fb91849160ff16906001600160a01b031661699d565b90506000613a36613a228560080154620186a08760070154613a1d919061bdea565b6169f0565b600d860154613a31908561bdea565b616a00565b90508084600c016002016000828254613a4f919061bdbe565b90915550506003840154613a96908290613a71906001600160a01b0316615aef565b60038701546002880154613a91916001600160a01b03169060ff16611104565b61659d565b600f85018054600090613aaa90849061bdbe565b9091555050600d8401829055600284015460038501546102cd91859160ff909116906001600160a01b031660006118ec86613683565b60018101546002820154600091613af99160ff16616a15565b60108301549091508103613b0b575050565b6000613b31613b1d8460050154613683565b6010850154613b2c908561be25565b616a3d565b600284015490915060009060ff1615613bc4578190508184600c016005016000828254613b5e919061bdfd565b90915550506003840154613ba5908390613b80906001600160a01b0316615aef565b60038701546002880154613ba0916001600160a01b03169060ff16611104565b616a5d565b601285018054600090613bb990849061bdfd565b90915550613c419050565b6003840154613c06908390613be1906001600160a01b0316615aef565b60038701546002880154613c01916001600160a01b03169060ff16611104565b616a8b565b90508084600c016005016000828254613c1f919061bdfd565b9091555050601284018054839190600090613c3b90849061bdfd565b90915550505b60108401839055600180850154600286015460038701546102cd93859260ff16916001600160a01b031661518b565b613c7861b5bf565b876040518061022001604052908160008201548152602001600182015481526020016002820160009054906101000a900460ff161515151581526020016002820160019054906101000a900460ff161515151581526020016002820160029054906101000a90046001600160a01b03166001600160a01b03166001600160a01b031681526020016003820160009054906101000a90046001600160a01b03166001600160a01b03166001600160a01b031681526020016004820160009054906101000a90046001600160a01b03166001600160a01b03166001600160a01b031681526020016005820154815260200160068201548152602001600782015481526020016008820154815260200160098201548152602001600a8201548152602001600b8201548152602001600c82016040518060e00160405290816000820154815260200160018201548152602001600282015481526020016003820154815260200160048201548152602001600582015481526020016006820154815250508152602001601382015481526020016014820154815250508160200181905250848160600181815250506000613e468960030160009054906101000a90046001600160a01b03166000611104565b9050613e5181616ac0565b60408301526003890154600090613e70906001600160a01b0316615aef565b9050888a600501540361427e57826020015161014001518360c0018181525050826020015161016001518361012001818152505082602001516101a0015183610200018181525050614059898b6040518061022001604052908160008201548152602001600182015481526020016002820160009054906101000a900460ff161515151581526020016002820160019054906101000a900460ff161515151581526020016002820160029054906101000a90046001600160a01b03166001600160a01b03166001600160a01b031681526020016003820160009054906101000a90046001600160a01b03166001600160a01b03166001600160a01b031681526020016004820160009054906101000a90046001600160a01b03166001600160a01b03166001600160a01b031681526020016005820154815260200160068201548152602001600782015481526020016008820154815260200160098201548152602001600a8201548152602001600b8201548152602001600c82016040518060e0016040529081600082015481526020016001820154815260200160028201548152602001600382015481526020016004820154815260200160058201548152602001600682015481525050815260200160138201548152602001601482015481525050616b12565b61018085015261016084015260208301516101c0908101805160a001516101a0860152805160c0015191850191909152515161024084018190526140a79082906140a285616ac0565b616b8b565b61022084018190526140b890613683565b836101a001516140cc856101600151613683565b6140d6919061bdfd565b6140e0919061bdfd565b6101e084015284156141cd57836140f8576000614161565b61416161411061410b8560200151616b98565b613683565b8961411a86616bcd565b61412c87602001516101600151613683565b614136919061be25565b614140919061bdfd565b61414a919061be25565b61415b856020015160a00151615aef565b84616a8b565b60a084015260c083015161417490613683565b8360a00151614183919061be25565b6080840152602083015161016001516141ab9089906141a190613683565b61414a919061bdfd565b6141b88460c00151613683565b6141c2919061be25565b610280840152614254565b6141f6886141da85616bcd565b6141ec86602001516101600151613683565b6141a1919061be25565b60a084015260c083015161420990613683565b8360a00151614218919061be25565b6080840152602083015161016001516142369089906141a190613683565b6142438460c00151613683565b61424d919061be25565b6102808401525b614273836080015161426d856020015160a00151615aef565b84616a5d565b610260840152614696565b602083015160e0810151610140909101516142a4919061429e908c616c05565b90616c11565b60c0840152602083015160e08101516101a0909101516142c9919061429e908c616c05565b6102008401526142d989876169f0565b83610240018181525050614484898b6040518061022001604052908160008201548152602001600182015481526020016002820160009054906101000a900460ff161515151581526020016002820160019054906101000a900460ff161515151581526020016002820160029054906101000a90046001600160a01b03166001600160a01b03166001600160a01b031681526020016003820160009054906101000a90046001600160a01b03166001600160a01b03166001600160a01b031681526020016004820160009054906101000a90046001600160a01b03166001600160a01b03166001600160a01b031681526020016005820154815260200160068201548152602001600782015481526020016008820154815260200160098201548152602001600a8201548152602001600b8201548152602001600c82016040518060e0016040529081600082015481526020016001820154815260200160028201548152602001600382015481526020016004820154815260200160058201548152602001600682015481525050815260200160138201548152602001601482015481525050616b12565b61018085015261016084015261449989613683565b8360e00181815250506144b3836020015160e00151613683565b610100840181905260e084015160208501516101c0015160a001516144e392916144dd9190616c1d565b90616c29565b6101a084015261010083015160e084015160208501516101c0015160c0015161451192916144dd9190616c1d565b6101c080850191909152602084015101515161024084015111156145415760208301516101c00151516102408401525b614554818461024001516140a285616ac0565b610220840181905261456590613683565b836101a00151614579856101600151613683565b614583919061bdfd565b61458d919061bdfd565b6101e084015261010083015160e08401516145e09161414a916144dd908c6145b489616bcd565b6145c68a602001516101600151613683565b6145d0919061be25565b6145da919061bdfd565b90616c1d565b60a084015260c08301516145f390613683565b8360a00151614602919061be25565b83608001818152505061463261414a8461010001516144dd8660e001518c6145d089602001516101600151613683565b61463f8460c00151613683565b614649919061be25565b61028084015260058a01546020840151610160015161466d919061429e908c616c05565b6101208401526080830151602084015160a0015161468f919061426d90615aef565b6102608401525b89600901548a600a01548461012001516146b0919061bdbe565b116146bc5760006146e0565b89600901548a600a01548461012001516146d6919061bdbe565b6146e0919061bdea565b6101408401525050979650505050505050565b6040805160a06020808301829052601960c08401527f78797a2e656c66692e73746f726167652e506f736974696f6e0000000000000060e0808501919091526001600160a01b03988916848601526060840197909752949096166080820152911515948201949094528351808203909301835261010001909252805191012090565b611b106005830182616c35565b60008481527fb31b5831e77ebf4a20e050d886d24b00d24f44760e3342d08fb455df41d4aaf8602052604081207fb31b5831e77ebf4a20e050d886d24b00d24f44760e3342d08fb455df41d4aafa917fb31b5831e77ebf4a20e050d886d24b00d24f44760e3342d08fb455df41d4ab01906147fb616c41565b905061480561b677565b61480e896123b4565b600101546001600160a01b03610100918290041660c0830152820151614835908b906169f0565b604082015261012082015161484b908b906169f0565b60608201819052604082015161486d9190614867908d9061727c565b9061727c565b60a082015260608101516148849085908990617288565b60c0810151604082015161489b9187918a906172e9565b60c081015160a08201516148b29185918a906172e9565b8560600151156148fc5760608101516148ce9085908990617348565b60c081015160408201516148e59187918a906173a9565b60c081015160a08201516148fc9185918a906173a9565b6080868101518751604080518d81526001600160a01b03938416602082015280820192909252606082018c9052918a169281019290925260a082018c9052517f2ae7718f4105fe717c24426c57b47946a517e684f5458c2069ef013a7b85faf19181900360c00190a150505050505050505050565b6001600160a01b03841660009081527fb31b5831e77ebf4a20e050d886d24b00d24f44760e3342d08fb455df41d4aaf9602052604081207fb31b5831e77ebf4a20e050d886d24b00d24f44760e3342d08fb455df41d4aafa917fb31b5831e77ebf4a20e050d886d24b00d24f44760e3342d08fb455df41d4ab01906149f4616c41565b90506149fe61b677565b614a0d8a8361016001516169f0565b6040820152610180820151614a23908b906169f0565b608082018190526040820151614a3f9190614867908d9061727c565b60a08201526040810151614a589086908b908b906172e9565b6080810151614a6a9085908a90617288565b60a0810151614a7e9084908b908b906172e9565b8a15614abe576040810151614a989086908b908b906173a9565b6080810151614aaa9085908a90617348565b60a0810151614abe9084908b908b906173a9565b604080518c151581526001600160a01b038b811660208301528a811682840152891660608201526080810188905260a081018c905290517fc6808235a634ed03a8e9b566f817b485bebc047ac6d8ddda1f07e5173f0a18f59181900360c00190a15050505050505050505050565b600080826101e001511315614b6557614b5f826020015160a00151614b55846101e00151616ac0565b8691906003617408565b50614b92565b614b92826020015160a00151614b88846101e00151614b839061be45565b616ac0565b8691906003617560565b602082015160a0015160c0830151614bad9186916005616782565b6000306001600160a01b0316631f7592ea6040518163ffffffff1660e01b8152600401602060405180830381865afa158015614bed573d6000803e3d6000fd5b505050506040513d601f19601f82011682018060405250810190614c11919061bbae565b90506000836080015112614cc357614c4d836020015160a00151614c43856101e001518660800151614b83919061bdfd565b8791906004617560565b614c8b836020015160400151614c6a57614c65617625565b614c6d565b83515b846020015160a0015183614c848760800151616ac0565b6001617640565b50826020015160400151614cbe57614cbc614ca4617625565b602085015160a0015185516102208701516001617640565b505b614d27565b600083608001511215614d2757614cf5836020015160a00151614ced8560800151614b839061be45565b87919061778a565b9150614d2581846020015160a00151856000015185614d1b8860800151614b839061be45565b614c84919061bdea565b505b826102a00151610e82576000614d408460c00151613683565b8460a00151614d7661410b8760200151610160015161429e896020015161014001518a6101400151616c0590919063ffffffff16565b614d80919061bdfd565b614d8a919061be25565b8654602086015160a001518754929350614db2928a926001600160a01b031691908590617799565b5050949350505050565b600061334d8383600061785b565b6000614dd58661797d565b60028101549091506001600160a01b03808716911603614e8d57614df981856179d4565b6000831215614e1d57614e18614e11614b838561be45565b8290617a7a565b614f5c565b81600003614e3857614e18614e3184616ac0565b8290617a86565b6000614e4384616ac0565b9050614e67838211614e56576000614e60565b614e60848361bdea565b8390617a86565b614e87838211614e775784614e80565b614e8084613683565b8390617a92565b50614f5c565b6000614e97617ae8565b9050614ea4818787617b2c565b6000841215614ee4576000614ebb614b838661be45565b9050614ec8838883617c1d565b614ed3828883617c97565b614ede828883617d7b565b50611adb565b82600003614f0657614f0186614ef986616ac0565b849190617e02565b611adb565b6000614f1185616ac0565b9050614f3787858311614f25576000614f2f565b614f2f868461bdea565b859190617e02565b614f5987858311614f485786614f51565b614f5186613683565b859190617ecc565b50505b505050505050565b806102a0015115614f73575050565b600081608001511280614f9b57506000816080015112158015614f9b57508060200151604001515b15614fcb578051602082015160a090810151845491840151611b1093926001600160a01b031690614c8490616ac0565b614fff614fd6617625565b602083015160a0015183516102208501516080860151614ff590616ac0565b614c84919061bdbe565b508051602082015160a090810151845491840151611b1093926001600160a01b031690614c8490616ac0565b5050565b83156150db5760006150408661797d565b90506000831361506a57615056614b838461be45565b6010820154615065919061bdea565b615082565b61507383616ac0565b6010820154615082919061bdbe565b6010820155600082136150af5761509b614b838361be45565b60118201546150aa919061bdea565b6150c7565b6150b882616ac0565b60118201546150c7919061bdbe565b60118201556150d581617f7c565b5061049f565b60006150e5617ae8565b6001600160a01b03851660009081526003820160205260408120919250841361512557615114614b838561be45565b8154615120919061bdea565b61513a565b61512e84616ac0565b815461513a919061bdbe565b81556000831361516457615150614b838461be45565b816001015461515f919061bdea565b61517c565b61516d83616ac0565b816001015461517c919061bdbe565b6001820155611adb8286617fc8565b600061519686618011565b905083156151c057848160070160020160008282546151b5919061bdfd565b909155506151dd9050565b848160070160030160008282546151d7919061bdfd565b90915550505b6151e68161805c565b8215614f5c5760006151f7876123b4565b9050600061521b8260010160019054906101000a90046001600160a01b031661797d565b905085156152325761522d8188617a92565b614f59565b614f59818589617ecc565b600061524c8260200151618011565b9050600061525d8360200151613701565b8351909150801561526f57508260a001515b1561528b57615286826002018483602001516180d5565b615327565b8251801561529b57508260a00151155b156152e95760408301516152b09083906181a1565b61528682600601600085604001516001600160a01b03166001600160a01b031681526020019081526020016000208483602001516180d5565b8251615327576153278360a0015161531c576040808501516001600160a01b031660009081526006850160205220615321565b826002015b846181bf565b825115611b1057600061533b836002015490565b905060006153488461825a565b90508460a00151801561535e5750826080015182115b1561539157602085015160a0860151604051633ea6fa5360e11b81526004810192909252151560248201526044016108cf565b8460a001511580156153a657508260a0015181115b156153d957602085015160a0860151604051633ea6fa5360e11b81526004810192909252151560248201526044016108cf565b60006153e58383616587565b90508360e001518110156153fb57505050505050565b615412615408838561bdbe565b8560c001516169f0565b8161541d85856182d1565b615427919061bdea565b1115614f5c576040516387fd15d760e01b815260040160405180910390fd5b60006154518761241a565b9050600061545e82615f70565b90508051600003615470575050614f5c565b600061547a6182e0565b905060005b825181101561578e578483828151811061549b5761549b61baff565b602002602001015103156157865760006154d78483815181106154c0576154c061baff565b60200260200101518461831d90919063ffffffff16565b604080516102208101825282546001600160a01b031681526001830154602082015260028084015491939284019160ff16908111156155185761551861bbcb565b60028111156155295761552961bbcb565b81526020016002820160019054906101000a900460ff1660028111156155515761555161bbcb565b60028111156155625761556261bbcb565b81526020016002820160029054906101000a900460ff16600381111561558a5761558a61bbcb565b600381111561559b5761559b61bbcb565b81526020016002820160039054906101000a900460ff1660028111156155c3576155c361bbcb565b60028111156155d4576155d461bbcb565b81526002820154640100000000810460ff90811615156020808501919091526501000000000083049091161515604084015266010000000000009091046001600160a01b0316606083015260038301546080830152600483015460a0830152600583015460c0830152600683015460e0830152600783015461010083015260088301546101208301526009830154610140830152600a90920154610160909101528101519091508a14801561569f5750886001600160a01b03168161010001516001600160a01b0316145b80156156c05750806080015160038111156156bc576156bc61bbcb565b6003145b80156156d357508715158160c001511515145b15615784576157048483815181106156ed576156ed61baff565b60200260200101518661832f90919063ffffffff16565b6157308483815181106157195761571961baff565b60200260200101518461833c90919063ffffffff16565b8382815181106157425761574261baff565b60200260200101517fa2bce5ff82d63e38ec31c6270a397e7cae4d5ed319bd73e318d4916d4ff68668828960405161577b92919061c11d565b60405180910390a25b505b60010161547f565b50505050505050505050565b806020015160600151156157e6578051602082015160a081015161107c92916157e1906157c690616b98565b6157d7866020015160a00151615aef565b8660400151616500565b6183a9565b600080826101e001511261584d5761580d826102800151836101e00151614b83919061bdfd565b8260c001511161581e576000615846565b615837826102800151836101e00151614b83919061bdfd565b8260c00151615846919061bdea565b9050615889565b61585b826102800151616ac0565b61586d836101e00151614b839061be45565b8360c0015161587c919061bdbe565b615886919061bdea565b90505b61502b8260000151836020015160a00151836183a9565b6002840154600185015460038601547fee2b9c77532fd89e66e2f431c2001e4bcc30fb5bc62ee9cdac252f89540067ae9286926158f9926001600160a01b0362010000840481169391169060ff610100909104166146f3565b84878560405161590d95949392919061c224565b60405180910390a150505050565b60006159256184a3565b90508181600701600082825461593b919061bdbe565b909155505060078101547f5425704060c90c62f0083d9ff73df530b982ea5c64c0dab3c7d5da4761a451199061597290849061bdea565b6007830154604080519283526020830191909152015b60405180910390a15050565b6000806040516020016135d29060208082526025908201527f78797a2e656c66692e73746f726167652e557064617465506f736974696f6e4d60408201526430b933b4b760d91b606082015260800190565b6000806040516020016135d2906020808252601c908201527f78797a2e656c66692e73746f726167652e4f7261636c65507269636500000000604082015260600190565b615a3483836184e7565b615a4457615a428383618509565b505b6001600160a01b03909116600090815260029092016020908152604090922081518155910151600190910155565b604080516001600160a01b038581166020808401919091529085168284015282518083038401815260609092019092528051910120615ab460048601826168f3565b615ac757615ac5600486018261851e565b505b6000908152600690940160209081526040909420815181559301516001909301929092555050565b6000816001600160a01b031663313ce5676040518163ffffffff1660e01b8152600401602060405180830381865afa158015615b2f573d6000803e3d6000fd5b505050506040513d601f19601f82011682018060405250810190611128919061c41c565b615b7982600901548360050154615b6a919061bdea565b82606001518360400151616500565b81602001511115615b9d57604051630a1e565960e41b815260040160405180910390fd5b8060200151826008016000828254615bb5919061bdbe565b9091555050608081015115615bff57615bd6826005015483600701546164e2565b600983015560a0810151600a83018054600090615bf490849061bdbe565b90915550615c529050565b615c1681602001518260600151836040015161659d565b826009016000828254615c29919061bdbe565b92505081905550615c42826005015483600901546164e2565b60078301556009820154600a8301555b6000615c6f83600b0154836020015161658790919063ffffffff16565b90508083600b016000828254615c85919061bdea565b909155505081516003840154611b1091906001600160a01b031683600080614dca565b60006121a2858585856000617640565b6002840154600185015460038601547fee2b9c77532fd89e66e2f431c2001e4bcc30fb5bc62ee9cdac252f89540067ae928692615d11926001600160a01b0362010000840481169391169060ff610100909104166146f3565b8487604051806101a001604052808781526020016000815260200160008152602001600081526020016000815260200160008152602001600081526020016000815260200160008152602001600081526020016000815260200160008152602001600081525060405161590d95949392919061c224565b600080615d988560000151613701565b90506000615dc3615da7616c41565b60400151615dbd896005015485600001516164e2565b906182d1565b8760090154615dd2919061bdea565b905080851115615df557604051637bee2c0d60e01b815260040160405180910390fd5b6003870154600090615e0f906001600160a01b0316615aef565b600389015460028a0154919250600091615e36916001600160a01b03169060ff1615611104565b90506000615e45888484616500565b60028b0154909150610100900460ff168015615e735750878a600a01548b60090154615e71919061bdea565b105b15615eb457615e9b60008b600a01548c60090154615e91919061bdea565b615dbd908b61bdea565b8a600a016000828254615eae919061bdea565b90915550505b808a6008016000828254615ec8919061bdea565b92505081905550878a6009016000828254615ee3919061bdea565b90915550508615615f0657615f008a600501548b600901546164e2565b60078b01555b60028a0154610100900460ff16615f225760098a0154600a8b01555b808a600b016000828254615f36919061bdbe565b9091555050604089015160038b015460028c0154615f6392916001600160a01b031690849060ff1661852a565b9998505050505050505050565b6060611128826007016168e6565b6000615f886182e0565b905060005b8751811015614f595760008260000160008a8481518110615fb057615fb061baff565b602002602001015181526020019081526020016000209050600060016002811115615fdd57615fdd61bbcb565b60028084015460ff1690811115615ff657615ff661bbcb565b60028401549114915060ff6401000000009091041615158515151480156160205750888260010154145b8015616045575060028201546001600160a01b03898116660100000000000090920416145b80156160b2575085151581151514801561607c57506001600283810154610100900460ff169081111561607a5761607a61bbcb565b145b806160b25750851515811515141580156160b2575060028083810154610100900460ff16908111156160b0576160b061bbcb565b145b156160bf57600482018790555b5050600101615f8d565b60006160d3615994565b6000928352602052506040812080546001600160a01b03199081168255600182018390556002820180549091169055600381018290556004810182905560058101805461ffff1916905560060155565b600061612e826168e6565b905060005b8151811015611b10578260020160008383815181106161545761615461baff565b60200260200101516001600160a01b03166001600160a01b03168152602001908152602001600020600080820160009055600182016000905550508260030160008383815181106161a7576161a761baff565b60200260200101516001600160a01b03166001600160a01b03168152602001908152602001600020600080820160009055600182016000905550506162118282815181106161f7576161f761baff565b60200260200101518460000161863190919063ffffffff16565b50600101616133565b6000616224612471565b51604051632e1a7d4d60e01b8152600481018490529091506001600160a01b03821690632e1a7d4d90602401600060405180830381600087803b15801561626a57600080fd5b505af115801561627e573d6000803e3d6000fd5b50505050611b108383618646565b6000806040516020016135d2906020808252601f908201527f78797a2e656c66692e73746f726167652e5570646174654c6576657261676500604082015260600190565b60006162da61628c565b6000928352602052506040812080546001600160a01b031990811682556001820183905560028201805462ffffff19169055600382018390556004820180549091169055600581018290556006810182905560070155565b600090815260029190910160205260409020546001600160a01b031690565b6000908152602091909152604090205490565b8060000361637157505050565b600061638284848462030d406186e9565b9050806102cd5760405163012f3b8f60e71b81526001600160a01b03808616600483015284166024820152604481018390526064016108cf565b604080516001600160a01b0385811660248301528416604482015260648082018490528251808303909101815260849091019091526020810180516001600160e01b03166323b872dd60e01b1790526102cd9085906187e3565b6164203a8261bc2b565b82101561502b576040516369343e3760e11b815260040160405180910390fd5b60008061644b61628c565b600093845260205250506040902090565b600061a4b1461480616470575062066eee46145b156164dd5760646001600160a01b031663a3b1b31d6040518163ffffffff1660e01b8152600401602060405180830381865afa1580156164b4573d6000803e3d6000fd5b505050506040513d601f19601f820116820180604052508101906164d8919061c43f565b905090565b504390565b600061334d83620186a0846188b8565b6000606061334d83826189a2565b60006105f78461651185600a61c534565b616520856402540be400616c05565b6188b8565b6001600160a01b0381166000908152600483016020526040812060018101549054111561657e576001600160a01b0382166000908152600484016020526040902060018101549054616577919061bdea565b9050611128565b50600092915050565b6000818310616596578161334d565b5090919050565b60006105f76165ad84600a61c534565b61429e6402540be4006165c08887616c05565b90616c05565b60006165d560028701866184e7565b6165e8576165e66002870186618509565b505b6001600160a01b0385166000908152600487016020526040902083158061661f575084816001015461661a919061bdbe565b815410155b61667b5760405162461bcd60e51b815260206004820152602760248201527f75736520746f6b656e206661696c6564207769746820616d6f756e74206e6f74604482015266040cadcdeeaced60cb1b60648201526084016108cf565b604080516080810182528254815260018301546020820181905260028401549282019290925260038301546060820152906166b790879061bdbe565b8254106166e057858260010160008282546166d2919061bdbe565b9091555086935061673d9050565b60018201548254111561671f57600182015482546166fe919061bdea565b925085826001016000828254616714919061bdbe565b9091555061673d9050565b85826001016000828254616733919061bdbe565b9091555060009350505b875460405160008051602061c7ba8339815191529161676f916001600160a01b03909116908a90859087908a9061c553565b60405180910390a1505095945050505050565b61678f60028501846184e7565b6167cf5760405162461bcd60e51b8152602060048201526011602482015270746f6b656e206e6f74206578697374732160781b60448201526064016108cf565b6001600160a01b038316600090815260048501602052604090206001015482111561682e5760405162461bcd60e51b815260206004820152600f60248201526e756e557365206f766572666c6f772160881b60448201526064016108cf565b6001600160a01b0383166000818152600486016020818152604080842081516080810183528154815260018201805482860181905260028401549483019490945260039092015460608201529585529290915285929061688f90849061bdea565b909155505084546001600160a01b03858116600090815260048801602052604090819020905160008051602061c7ba833981519152936168d79316918891869190889061c553565b60405180910390a15050505050565b6060600061334d83618a40565b6000818152600183016020526040812054151561334d565b60008061644b615994565b6000806040516020016135d2906020808252601e908201527f78797a2e656c66692e73746f726167652e416363657373436f6e74726f6c0000604082015260600190565b600080600061696a878787618a9c565b91509150836169795780611041565b5095945050505050565b6000828152600d8401602052604081206105f790836168f3565b600082156169bd5760006169b08561797d565b60120154915061334d9050565b60006169c7617ae8565b6001600160a01b038416600090815260038201602052604090209091506002015491505061334d565b600061334d8383620186a06188b8565b600061334d8383670de0b6b3a76400006188b8565b600080616a2184618011565b905082616a32576008810154611124565b600701549392505050565b600061334d616a53670de0b6b3a7640000613683565b6144dd8585616c1d565b60006105f7616a7061410b85600a61c534565b6144dd616a816402540be400613683565b6145da8887616c1d565b60006105f7616aa8616aa16402540be400613683565b8490616c1d565b6144dd616ab961410b87600a61c534565b8790616c1d565b6000808212156136ed5760405162461bcd60e51b815260206004820181905260248201527f53616665436173743a2076616c7565206d75737420626520706f73697469766560448201526064016108cf565b6000808260e001518403616b385750506101c08101516040810151606090910151612c55565b616b5c8360e0015161429e86866101c0015160400151616c0590919063ffffffff16565b616b808460e0015161429e87876101c0015160600151616c0590919063ffffffff16565b915091509250929050565b60006105f7838584616500565b600080616ba88360200151613701565b90506000616bb4616c41565b60a0015190506105f78460e00151836000015183618b87565b6000816101c00151616be3836101800151613683565b616bf1846102400151613683565b616bfb919061bdfd565b611128919061bdfd565b600061334d828461bc2b565b600061334d828461c5e5565b600061334d828461c5f9565b600061334d828461c629565b600061334d8383618bb0565b616cc1604051806102000160405280606081526020016060815260200160008152602001600081526020016000815260200160008152602001600081526020016000815260200160008152602001600081526020016000815260200160008152602001600081526020016000815260200160008152602001600081525090565b600080604051602001616cf4906020808252600c908201526b54524144455f434f4e46494760a01b604082015260600190565b604051602081830303815290604052805190602001209050616d9581604051602001616d40906020808252600c908201526b54524144455f544f4b454e5360a01b604082015260600190565b60405160208183030381529060405280519060200120604051602001616d70929190918252602082015260400190565b6040516020818303038152906040528051906020012083618caa90919063ffffffff16565b8084525167ffffffffffffffff811115616db157616db161bb15565b604051908082528060200260200182016040528015616dea57816020015b616dd761b6bd565b815260200190600190039081616dcf5790505b50602084015260005b835151811015616e4c57616e2384600001518281518110616e1657616e1661baff565b6020026020010151618d19565b84602001518281518110616e3957616e3961baff565b6020908102919091010152600101616df3565b50616e89816040516020016125e59060208082526014908201527313525397d3d491115497d3505491d25397d554d160621b604082015260600190565b836040018181525050616ed7816040516020016125e5906020808252601a908201527f415641494c41424c455f434f4c4c41544552414c5f524154494f000000000000604082015260600190565b6060840152604051616f159082906125e5906020016020808252600f908201526e10d493d4d4d7d3151597d312535255608a1b604082015260600190565b6080840152604051616f619082906125e5906020016020808252601b908201527f4d41585f4d41494e54454e414e43455f4d415247494e5f524154450000000000604082015260600190565b60a0840152604051616fa59082906125e59060200160208082526015908201527446554e44494e475f4645455f424153455f5241544560581b604082015260600190565b60c0840152604051616fe99082906125e5906020016020808252601590820152744d41585f46554e44494e475f424153455f5241544560581b604082015260600190565b60e084015260405161703f9082906125e59060200160208082526021908201527f54524144494e475f4645455f5354414b494e475f524557415244535f524154496040820152604f60f81b606082015260800190565b61010084015260405161708c9082906125e5906020016020808252601e908201527f54524144494e475f4645455f504f4f4c5f524557415244535f524154494f0000604082015260600190565b6101208401526040516170e49082906125e59060200160208082526022908201527f54524144494e475f4645455f5553445f504f4f4c5f524557415244535f524154604082015261494f60f01b606082015260800190565b61014084015260405161713d9082906125e59060200160208082526023908201527f424f52524f57494e475f4645455f5354414b494e475f524557415244535f524160408201526254494f60e81b606082015260800190565b6101608401526040516171889082906125e5906020016020808252818101527f424f52524f57494e475f4645455f504f4f4c5f524557415244535f524154494f604082015260600190565b6101808401526040516171d59082906125e59060200160208082526019908201527f4155544f5f5245445543455f50524f4649545f464143544f5200000000000000604082015260600190565b6101a08401526040516172229082906125e5906020016020808252601c908201527f4155544f5f5245445543455f4c49515549444954595f464143544f5200000000604082015260600190565b6101c084015260405161726f9082906125e59060200160208082526019908201527f535741505f534c49505045525f544f4b454e5f464143544f5200000000000000604082015260600190565b6101e08401525090919050565b600061334d828461bdea565b61729283836184e7565b6172a2576172a08383618509565b505b6001600160a01b03821660009081526002840160205260409020546172c890829061bdbe565b6001600160a01b039092166000908152600290930160205250604090912055565b6172f384836184e7565b617303576173018483618509565b505b600061730f8484619096565b600081815260028701602052604090205490915061732e90839061bdbe565b600091825260029095016020526040902093909355505050565b61735283836184e7565b617362576173608383618509565b505b6001600160a01b038216600090815260038401602052604090205461738890829061bdbe565b6001600160a01b039092166000908152600390930160205250604090912055565b6173b384836184e7565b6173c3576173c18483618509565b505b60006173cf8484619096565b60008181526003870160205260409020549091506173ee90839061bdbe565b600091825260039095016020526040902093909355505050565b6001600160a01b03831660009081526004850160209081526040808320815160808101835281548082526001830154948201949094526002820154928101929092526003810154606083015291851161747e578482600001600082825461746f919061bdea565b90915550600093506175089050565b8154156174d0578154617491908661bdea565b9250828260030160008282546174a7919061bdbe565b92505081905550828260010160008282546174c2919061bdbe565b909155505060008255617508565b848260030160008282546174e4919061bdbe565b92505081905550848260010160008282546174ff919061bdbe565b90915550859350505b61751c86846175156184a3565b9190619123565b865460405160008051602061c7ba8339815191529161754e916001600160a01b03909116908990859087908a9061c553565b60405180910390a15050949350505050565b61756d60028501846184e7565b6175805761757e6002850184618509565b505b6001600160a01b038316600090815260048501602090815260408083208151608081018352815480825260018301549482019490945260028201549281019290925260038101546060830152929091859184916175de90849061bdbe565b9091555050855460405160008051602061c7ba83398151915291617615916001600160a01b0390911690889085908790899061c553565b60405180910390a1505050505050565b6000806176306184a3565b546001600160a01b031692915050565b600082600003617652575060006121a2565b6040516370a0823160e01b81526001600160a01b038781166004830152600091908716906370a0823190602401602060405180830381865afa15801561769c573d6000803e3d6000fd5b505050506040513d601f19601f820116820180604052508101906176c0919061c43f565b905083811061773d5760405163078d3b7960e01b81526001600160a01b03878116600483015286811660248301526044820186905288169063078d3b7990606401600060405180830381600087803b15801561771b57600080fd5b505af115801561772f573d6000803e3d6000fd5b5050505060019150506121a2565b8261777d57604051635ac09ed760e11b81526001600160a01b038089166004830152808816602483015286166044820152606481018590526084016108cf565b5060009695505050505050565b60006105f78484846000617408565b811561049f5760006177b26177ad8661241a565b613330565b90508260005b8251811015614f595760006177d8848381518110610cef57610cef61baff565b60038101549091506001600160a01b03888116911614801561780357506002810154610100900460ff165b1561785257600061781c61410b83845489148d8b619157565b90506000871361783557617830818561bdfd565b61783f565b61783f818561be25565b935083600003617850575050614f59565b505b506001016177b8565b6001600160a01b038216600090815260048401602052604081206003810154158015906178885750805415155b156179755760408051608081018252825480825260018401546020830152600284015492820192909252600383015460608201819052909110156178cd5781546178d3565b81600301545b9250828260000160008282546178e9919061bdea565b9250508190555082826003016000828254617904919061bdea565b925050819055508282600101600082825461791f919061bdea565b90915550617939905085846179326184a3565b9190619296565b855460405160008051602061c7ba8339815191529161796b916001600160a01b03909116908890859087908a9061c553565b60405180910390a1505b509392505050565b600080826040516020016123fb919060408082526017908201527f78797a2e656c66692e73746f726167652e4c70506f6f6c00000000000000000060608201526001600160a01b0391909116602082015260800190565b6006820154811115617a245760405162461bcd60e51b81526020600482015260196024820152781cdd58881a1bdb1908189a59d9d95c881d1a185b881a1bdb19603a1b60448201526064016108cf565b81546002830154600091617a48916001600160a01b03918216911660048601619338565b905081836004016002016000828254617a61919061bdea565b90915550506006830154610120820152611b108161943a565b61502b82826001619520565b61502b828260016195f6565b81546002830154600091617ab6916001600160a01b03918216911660048601619338565b905081836004016003016000828254617acf919061bdfd565b90915550506007830154610140820152611b108161943a565b6000806040516020016135d29060208082526018908201527f78797a2e656c66692e73746f726167652e557364506f6f6c0000000000000000604082015260600190565b6001600160a01b0382166000908152600284016020526040902060010154811115617b955760405162461bcd60e51b81526020600482015260196024820152781cdd58881a1bdb1908189a59d9d95c881d1a185b881a1bdb19603a1b60448201526064016108cf565b6001600160a01b03821660009081526002840160205260408120617bba908490619650565b6001600160a01b0384166000908152600286016020526040812060010180549293508492909190617bec90849061bdea565b90915550506001600160a01b038316600090815260028501602052604090206001015460a08201526102cd816196f3565b617c2a600c8401836184e7565b617c3d57617c3b600c840183618509565b505b6001600160a01b038083166000908152600e85016020526040812085549092617c6891168584619338565b905082826004016000828254617c7e919061bdbe565b9091555050600482015461016082015261049f8161943a565b617ca283838361977b565b617cf95760405162461bcd60e51b815260206004820152602260248201527f737562206661696c656420776974682062616c616e6365206e6f7420656e6f756044820152610ced60f31b60648201526084016108cf565b6001600160a01b03821660009081526002840160205260408120617d1e908490619650565b6001600160a01b0384166000908152600286016020526040812080549293508492909190617d4d90849061bdea565b90915550506001600160a01b038316600090815260028501602052604090205460808201526102cd816196f3565b6001600160a01b03821660009081526002840160205260408120617da0908490619650565b6001600160a01b03841660009081526002808701602052604082200180549293508492909190617dd190849061bdbe565b90915550506001600160a01b038316600090815260028086016020526040909120015460c08201526102cd816196f3565b82546001600160a01b038381166000908152600e8601602052604081209092617e2e9216908590619338565b9050617e3d600c8501846184e7565b15617e77576001600160a01b0383166000908152600e8501602052604081208054849290617e6c90849061bdbe565b90915550617ea39050565b617e84600c850184618509565b506001600160a01b0383166000908152600e8501602052604090208290555b6001600160a01b0383166000908152600e8501602052604090205460e08201526102cd8161943a565b617ed9600c8401836184e7565b617eec57617eea600c840183618509565b505b82546001600160a01b038381166000908152600e8601602052604081209092617f189216908590619338565b6001600160a01b0384166000908152600e86016020526040812060030180549293508492909190617f4a90849061bdfd565b90915550506001600160a01b0383166000908152600e850160205260409020600301546101408201526102cd8161943a565b80546040517ff23a1644a253a05158a5664e7dcdb9169fcae91f76675245abc54ab5f98a01bb91617fbd916001600160a01b0390911690601085019061c657565b60405180910390a150565b6001600160a01b03811660009081526003830160205260409081902090517f1ce920cb88be503ae9377cd07aae1e28e7ca6c64e897ad6ff9b74c2d329d7d83916159889161c691565b6040805160208101829052601760608201527f78797a2e656c66692e73746f726167652e4d61726b65740000000000000000006080820152908101829052600090819060a0016123fb565b8054604080519182526007830154602083015260088301549082015260098201546060820152600a8201546080820152600b82015460a0820152600c82015460c0820152600d82015460e08201527f5a51d9147354371a353006fe6ea5741b6fdddd5d868eb25f5361cecc080dfa159061010001617fbd565b82546000036180f4576080820151600184015560608201518355618138565b6181168360000154846001015484606001518560800151858760a001516197f5565b600184015560608201518354849060009061813290849061bdbe565b90915550505b7fe1ca63f31f0b04174a12bc0e5a08103c6403d0d7c3980afb3ae8444a47476ef582602001518360a0015184606001518660000154618177919061bdea565b865460408051948552921515602085015291830152606082015260800160405180910390a1505050565b6181ae60048301826184e7565b61502b57611b106004830182618509565b60608101518254116181db5760006001830181905582556181f9565b80606001518260000160008282546181f3919061bdea565b90915550505b7fe1ca63f31f0b04174a12bc0e5a08103c6403d0d7c3980afb3ae8444a47476ef581602001518260a0015183606001518560000154618238919061bdbe565b8554604080519485529215156020850152918301526060820152608001615988565b600080618269836004016168e6565b90506000805b8251811015617975578460060160008483815181106182905761829061baff565b60200260200101516001600160a01b03166001600160a01b0316815260200190815260200160002060000154826182c7919061bdbe565b915060010161826f565b6000818311616596578161334d565b6000806040516020016135d2906020808252601690820152753c3cbd1732b633349739ba37b930b3b29727b93232b960511b604082015260600190565b60009081526020919091526040902090565b611b106007830182616c35565b60009081526020919091526040812080546001600160a01b0319168155600181018290556002810180546001600160d01b031916905560038101829055600481018290556005810182905560068101829055600781018290556008810182905560098101829055600a0155565b60006183b48461983d565b90506000806183c38386619894565b915091508115618445576183e3856183db868461bdbe565b8591906198b9565b507ff19b578fc2b5cd359b489ade8c3e89c78f14417b5c22c020c2ef6918f818f9d2868683618412888261bdbe565b604080516001600160a01b03958616815294909316602085015291830152606082015260800160405180910390a1614f5c565b6184508386866198b9565b50604080516001600160a01b03808916825287166020820152600091810191909152606081018590527ff19b578fc2b5cd359b489ade8c3e89c78f14417b5c22c020c2ef6918f818f9d290608001617615565b6000806040516020016135d2906020808252601b908201527f78797a2e656c66692e73746f726167652e436f6d6d6f6e446174610000000000604082015260600190565b6001600160a01b0381166000908152600183016020526040812054151561334d565b600061334d836001600160a01b0384166198cf565b600061334d83836198cf565b801561858957600061853b8561797d565b9050826185478261991e565b10156185795760405163c5fa5f3d60e01b81526001600160a01b038087166004830152851660248201526044016108cf565b618583818461992c565b506102cd565b6000618593617ae8565b90506185f6816002016000866001600160a01b03166001600160a01b0316815260200190815260200160002060405180606001604052908160008201548152602001600182015481526020016002820154815250506185f061999b565b856199ab565b6186265760405163c5fa5f3d60e01b81526001600160a01b038087166004830152851660248201526044016108cf565b61049f818585619a03565b600061334d836001600160a01b038416618bb0565b604080516000808252602082019092526001600160a01b038416908390604051618670919061c6e0565b60006040518083038185875af1925050503d80600081146186ad576040519150601f19603f3d011682016040523d82523d6000602084013e6186b2565b606091505b5050905080611b105760405162461bcd60e51b815260206004820152600360248201526253544560e81b60448201526064016108cf565b604080516001600160a01b038581166024830152604480830186905283518084039091018152606490920183526020820180516001600160e01b031663a9059cbb60e01b179052915160009283918291891690869061874990869061c6e0565b60006040518083038160008787f1925050503d8060008114618787576040519150601f19603f3d011682016040523d82523d6000602084013e61878c565b606091505b5091509150816187a257600093505050506105f7565b600081511180156187c45750808060200190518101906187c2919061c6fc565b155b156187d557600093505050506105f7565b506001979650505050505050565b6000618838826040518060400160405280602081526020017f5361666545524332303a206c6f772d6c6576656c2063616c6c206661696c6564815250856001600160a01b0316619ad79092919063ffffffff16565b9050805160001480618859575080806020019051810190618859919061c6fc565b611b105760405162461bcd60e51b815260206004820152602a60248201527f5361666545524332303a204552433230206f7065726174696f6e20646964206e6044820152691bdd081cdd58d8d9595960b21b60648201526084016108cf565b60008080600019858709858702925082811083820303915050806000036188f2578382816188e8576188e861c5cf565b049250505061334d565b8084116189395760405162461bcd60e51b81526020600482015260156024820152744d6174683a206d756c446976206f766572666c6f7760581b60448201526064016108cf565b60008486880960026001871981018816978890046003810283188082028403028082028403028082028403028082028403028082028403029081029092039091026000889003889004909101858311909403939093029303949094049190911702949350505050565b6000806189af8484619ae6565b90506000806189be8686619bd8565b9150915060006189ce8787619d0b565b90506189e382826040015161410b919061bdbe565b8151600013156189f45781516189f7565b60005b618a0085613683565b618a228a60010154856020015189618a18919061bdbe565b61410b919061bdbe565b618a2c919061be25565b618a36919061bdfd565b611041919061be25565b606081600001805480602002602001604051908101604052809291908181526020018280548015618a9057602002820191906000526020600020905b815481526020019060010190808311618a7c575b50505050509050919050565b6000808460e00151600003618ab657506000905080618b7f565b846040015115618b1d576000618afb618ad3876101000151613683565b6144dd618aee618ae78a6101000151613683565b8890619ede565b6145da8a60e00151613683565b9050618b1481618b0e8860a00151615aef565b86616a8b565b92509050618b7f565b6000618b4b618b30876101000151613683565b6144dd618aee87618b458b6101000151613683565b90619ede565b90506000618b5f868860a001516000619eea565b9050618b7882618b728960a00151615aef565b83616a8b565b9350909150505b935093915050565b60006105f7618b9685846169f0565b618baa86618ba5876002616c05565b6164e2565b90616587565b60008181526001830160205260408120548015618c99576000618bd460018361bdea565b8554909150600090618be89060019061bdea565b9050818114618c4d576000866000018281548110618c0857618c0861baff565b9060005260206000200154905080876000018481548110618c2b57618c2b61baff565b6000918252602080832090910192909255918252600188019052604090208390555b8554869080618c5e57618c5e61c719565b600190038181906000526020600020016000905590558560010160008681526020019081526020016000206000905560019350505050611128565b6000915050611128565b5092915050565b6000818152600883016020908152604091829020805483518184028101840190945280845260609392830182828015618d0c57602002820191906000526020600020905b81546001600160a01b03168152600190910190602001808311618cee575b5050505050905092915050565b618d2161b6bd565b618d2961b6bd565b600080604051602001618d629060208082526012908201527154524144455f544f4b454e5f434f4e46494760701b604082015260600190565b60408051601f1981840301815291905280516020909101209050618d87828287619f8f565b618d945750909392505050565b618e398186604051602001618dd2906020808252601590820152741254d7d4d5541413d49517d0d3d313105511549053605a1b604082015260600190565b60405160208183030381529060405280519060200120604051602001618e14939291909283526001600160a01b03919091166020830152604082015260600190565b6040516020818303038152906040528051906020012083619fa990919063ffffffff16565b15158352604051618eb49082908790618e7290602001602080825260099082015268282922a1a4a9a4a7a760b91b604082015260600190565b60405160208183030381529060405280519060200120604051602001612615939291909283526001600160a01b03919091166020830152604082015260600190565b836020018181525050618eee8186604051602001618e7290602080825260089082015267111254d0d3d5539560c21b604082015260600190565b836040018181525050618f338186604051602001618e72906020808252601390820152720434f4c4c41544552414c5f555345525f43415606c1b604082015260600190565b6060840152604051618f789082908790618e72906020016020808252601490820152730434f4c4c41544552414c5f544f54414c5f4341560641b604082015260600190565b6080840152604051618fbb9082908790618e729060200160208082526012908201527104c494142494c4954595f555345525f4341560741b604082015260600190565b60a0840152604051618fff9082908790618e729060200160208082526013908201527204c494142494c4954595f544f54414c5f43415606c1b604082015260600190565b60c08401526040516190449082908790618e729060200160208082526014908201527324a72a22a922a9aa2fa920aa22afa320a1aa27a960611b604082015260600190565b60e08401526040516190879082908790618e72906020016020808252601290820152712624a8aaa4a220aa24a7a72fa320a1aa27a960711b604082015260600190565b61010084015250909392505050565b60006040516020016190cd9060208082526011908201527008c8a8abe829a9eaa9ca8bea0a48a8c92b607b1b604082015260600190565b60408051601f198184030181528282528051602091820120908301526001600160a01b03808616918301919091528316606082015260800160405160208183030381529060405280519060200120905092915050565b6001600160a01b03821660009081526006840160205260408120805483929061914d90849061bdbe565b9091555050505050565b600084600a01548560090154148061916d575081155b1561917a575060006105f7565b60008213156191f85760006191a9866009015461429e886008015489600a01548a600901546165c0919061bdea565b90506191b881618baa85616ac0565b91506191d9866008015461429e886009015485616c0590919063ffffffff16565b86600a0160008282546191ec919061bdbe565b90915550619276915050565b6000619217866008015461429e88600901546165c087614b839061be45565b90508086600a01541161924b576000600a8701819055600987015460088801546192449261429e91616c05565b9150619274565b8086600a01600082825461925f919061bdea565b909155506192719050614b838461be45565b91505b505b8380156192835750600081115b156105f7576105f7858460086000615cb8565b6001600160a01b038216600090815260068401602052604090205481111561930e5760405162461bcd60e51b815260206004820152602560248201527f737562546f6b656e4c696162696c697479206c657373207468616e206c696162604482015264696c69747960d81b60648201526084016108cf565b6001600160a01b03821660009081526006840160205260408120805483929061914d90849061bdea565b6193b5604051806101a0016040528060006001600160a01b0316815260200160006001600160a01b0316815260200160008152602001600081526020016000815260200160008152602001600081526020016000815260200160008152602001600081526020016000815260200160008152602001600081525090565b6001600160a01b03808516825283166020820152815460408201819052600183015460608301819052600284015460808401819052600385015460a08501819052600486015460c0860181905260e086019490945261010085019290925261012084015261014083015261016082015261942d61645c565b6101808201529392505050565b7f3c20d1ba6bcc5e5bd62d967908bf1ce684e6b52dbaab9f84ebfbf1b184b46bf8816000015182602001518360400151846060015185608001518660a001518760c001518860e001518961010001518a61012001518b61014001518c61016001518d6101800151604051617fbd9d9c9b9a999897969594939291906001600160a01b039d8e1681529b909c1660208c015260408b019990995260608a0197909752608089019590955260a088019390935260c087019190915260e08601526101008501526101208401526101408301526101608201526101808101919091526101a00190565b60048301548211156195845760405162461bcd60e51b815260206004820152602760248201527f6261736520746f6b656e20616d6f756e74206c657373207468616e2073756220604482015266616d6f756e742160c81b60648201526084016108cf565b80156195df57825460028401546000916195ae916001600160a01b03918216911660048701619338565b9050828460040160000160008282546195c7919061bdea565b9091555050600484015460e08201526102cd8161943a565b8183600401600001600082825461914d919061bdea565b80156196395782546002840154600091619620916001600160a01b03918216911660048701619338565b9050828460040160000160008282546195c7919061bdbe565b8183600401600001600082825461914d919061bdbe565b6196a160405180610100016040528060006001600160a01b03168152602001600081526020016000815260200160008152602001600081526020016000815260200160008152602001600081525090565b6001600160a01b0383168152815460208201819052600183015460408301819052600284015460608401819052608084019290925260a083015260c08201526196e861645c565b60e082015292915050565b805160208083015160408085015160608087015160808089015160a0808b015160c0808d015160e0808f01518b516001600160a01b03909f168f529c8e019b909b52988c0197909752948a0193909352908801528601528401528201527f217ba1d63771ad2228865ab2d862a89115d536eabbe8315c584eafe090d7f4229061010001617fbd565b6001600160a01b0382166000908152600284016020526040812080548311156197a857600091505061334d565b60006197b261999b565b9050806000036197d9576001820154825485916197ce9161bdea565b10159250505061334d565b600182015482546197ce906197ef90879061bdea565b836169f0565b600080619822619805878a61bdbe565b61429e6198128989616c05565b61981c8c8c616c05565b90619fc2565b905061982f818585619fce565b9150505b9695505050505050565b600080826040516020016123fb91906040808252601e908201527f78797a2e656c66692e73746f726167652e496e737572616e636546756e64000060608201526001600160a01b0391909116602082015260800190565b60008080806198ac866001600160a01b03871661a011565b9097909650945050505050565b60006105f7846001600160a01b0385168461a053565b600081815260018301602052604081205461991657508154600181810184556000848152602080822090930184905584548482528286019093526040902091909155611128565b506000611128565b6000606061334d838261a070565b6199428260040161993c8461a292565b8361a2b3565b61995e5760405162461bcd60e51b81526004016108cf9061c72f565b81546002830154600091619982916001600160a01b03918216911660048601619338565b905081836004016002016000828254617a61919061bdbe565b60006199a561a33e565b51919050565b6000826000036199e0576020840151604085015185518492916199cd9161bdbe565b6199d7919061bdea565b1015905061334d565b8184602001516199cd866040015187600001516199fd919061bdbe565b866169f0565b619a64836002016000846001600160a01b03166001600160a01b031681526020019081526020016000206040518060600160405290816000820154815260200160018201548152602001600282015481525050619a5e61999b565b836199ab565b619a805760405162461bcd60e51b81526004016108cf9061c72f565b6001600160a01b03821660009081526002840160205260408120619aa5908490619650565b6001600160a01b0384166000908152600286016020526040812060010180549293508492909190617bec90849061bdbe565b60606105f7848460008561a37f565b6000806000619af48561a44f565b905060005b8151811015619bce57619b17828281518110616e1657616e1661baff565b5115619bc6576000866004016000848481518110619b3757619b3761baff565b60200260200101516001600160a01b03166001600160a01b031681526020019081526020016000206040518060800160405290816000820154815260200160018201548152602001600282015481526020016003820154815250509050619bc2619bbb848481518110619bac57619bac61baff565b6020026020010151838961a45d565b8590619fc2565b9350505b600101619af9565b5090949350505050565b6000806000806000619be98761a44f565b905060005b8151811015619cd0576000886004016000848481518110619c1157619c1161baff565b60200260200101516001600160a01b03166001600160a01b031681526020019081526020016000206040518060800160405290816000820154815260200160018201548152602001600282015481526020016003820154815250509050619c9c619c95848481518110619c8657619c8661baff565b6020026020010151838b61a4bc565b8690619fc2565b9450619cc5619bbb848481518110619cb657619cb661baff565b6020026020010151838b61a52e565b935050600101619bee565b50600187015415619cff576001870154619cea908461bdbe565b9250866001015482619cfc919061bdbe565b91505b50909590945092505050565b619d446040518060c001604052806000815260200160008152602001600081526020016000815260200160008152602001600081525090565b619d4d8361a58d565b6000619d5a84600161a5b5565b90506000619d66616c41565b60a00151905060005b8251811015619ed5576000838281518110619d8c57619d8c61baff565b602002602001015190506000619dab878360c001518460400151619eea565b90506000619dbc8360200151613701565b90506000619dcd848a85600061695a565b90506000811315619e0c57619e05619dfd82619df8619def8860a00151618d19565b60400151613683565b61a7d3565b89519061a7e4565b8852619e38565b619e35619dfd82619df8619e238860a00151618d19565b610100015161410b90620186a061bdbe565b88525b619e59619e4e8560e00151846000015189618b87565b60608a015190619fc2565b60608901526101608401516020890151619e7291619fc2565b60208901526101808401516040890151619e8b91619fc2565b604089015260e084015160a0890151619ea391619fc2565b60a0890152619ec0619eb5858b61a7f0565b60808a01519061a7e4565b6080890152505060019092019150619d6f9050565b50505092915050565b600061334d828461be25565b6000805b8451811015619f8457836001600160a01b0316858281518110619f1357619f1361baff565b6020026020010151600001516001600160a01b031603619f7c5782619f5557848181518110619f4457619f4461baff565b602002602001015160600151619f74565b848181518110619f6757619f6761baff565b6020026020010151604001515b91505061334d565b600101619eee565b506105f78383611104565b6000828152600c8401602052604081206105f790836184e7565b6000908152600391909101602052604090205460ff1690565b600061334d828461bdbe565b600080619fdb848661c772565b905080600003619fee578491505061334d565b619f74846165c08561a00157600061a004565b60015b60ff1661981c8989616c11565b600081815260028301602052604081205481908061a0405761a033858561aadb565b925060009150612c559050565b600192509050612c55565b509250929050565b600082815260028401602052604081208290556105f7848461851e565b60078201546004830154600091829161a08890613683565b61a092919061bdfd565b9050600081121561a0a7576000915050611128565b600061a0b28561aae7565b80519091501561a24457600285015460009061a0d6906001600160a01b0316615aef565b600287015490915060009061a0f79087906001600160a01b03166001619eea565b905060005b835181101561a24057600088600e01600086848151811061a11f5761a11f61baff565b60200260200101516001600160a01b03166001600160a01b0316815260200190815260200160002090506000816004015411801561a181575061a1658160040154613683565b6003820154825461a17590613683565b61a17f919061bdfd565b125b1561a23757600061a205826003015461a19d8460000154613683565b61a1aa8560040154613683565b61a1b4919061be25565b61a1be919061be25565b61a1e088868151811061a1d35761a1d361baff565b6020026020010151615aef565b613ba08c8a888151811061a1f65761a1f661baff565b60200260200101516001619eea565b9050600061a214828787616a8b565b90508088131561a22f5761a228818961be25565b975061a234565b600097505b50505b5060010161a0fc565b5050505b600061a25683619df861410b8961a292565b905061a2688660040160020154613683565b811361a275576000619833565b61983361a2888760040160020154613683565b614b83908361be25565b805460009061a2a9906001600160a01b031661aaf5565b6020015192915050565b60008260000361a3005761a2c682613683565b61a2d38560020154613683565b6003860154865461a2e390613683565b61a2ed919061bdfd565b61a2f7919061be25565b1215905061334d565b61a30982613683565b61a3168560020154613683565b61a2ed866003015461a32b8860000154613683565b61a335919061bdfd565b619df887613683565b61a3776040518060c001604052806000815260200160008152602001600081526020016000815260200160608152602001606081525090565b6164d861ae7e565b60608247101561a3e05760405162461bcd60e51b815260206004820152602660248201527f416464726573733a20696e73756666696369656e742062616c616e636520666f6044820152651c8818d85b1b60d21b60648201526084016108cf565b600080866001600160a01b0316858760405161a3fc919061c6e0565b60006040518083038185875af1925050503d806000811461a439576040519150601f19603f3d011682016040523d82523d6000602084013e61a43e565b606091505b50915091506110418783838761b1aa565b6060611128826002016168e6565b6000826020015183600001511161a4765750600061334d565b600061a4a48460200151856000015161a48f919061bdea565b61a49887615aef565b613a918689600161b223565b90506121a28161a4b387618d19565b604001516169f0565b6000826000015183602001511161a4d55750600061334d565b600061a4ee8460000151856020015161a48f919061bdea565b9050600061a4fb86618d19565b6101000151111561a5275761a51d8161a51387618d19565b61010001516169f0565b619f74908261bdbe565b905061334d565b8151606083015160208401516000929161a5479161bdea565b1161a5545750600061334d565b8251606084015160208501516105f7929161a56e9161bdea565b61a578919061bdea565b61a58186615aef565b613a918588600161b223565b80546001600160a01b031661107c57604051633902b86b60e11b815260040160405180910390fd5b6060600061a5c284613330565b9050600061a5d0828561b285565b67ffffffffffffffff81111561a5e85761a5e861bb15565b60405190808252806020026020018201604052801561a62157816020015b61a60e61b43c565b81526020019060019003908161a6065790505b5090506000805b835181101561a7c857600061a648858381518110610cef57610cef61baff565b6040805161022081018252825481526001830154602080830191909152600284015460ff808216151584860152610100808304909116151560608086019182526001600160a01b036201000090940484166080808801919091526003890154851660a08089019190915260048a015490951660c08089019190915260058a015460e0808a019190915260068b01549589019590955260078a015461012089015260088a015461014089015260098a0154610160890152600a8a0154610180890152600b8a01546101a089015288519485018952600c8a01548552600d8a015496850196909652600e89015497840197909752600f880154908301526010870154958201959095526011860154918101919091526012850154918101919091526101c082015260138301546101e0820152601490920154610200830152519091508715159015150361a7bf578084848151811061a7a65761a7a661baff565b602090810291909101015261a7bc60018461bdbe565b92505b5060010161a628565b509095945050505050565b600061334d616a53620186a0613683565b600061334d828461bdfd565b600061a8356040518060e001604052806000815260200160008152602001600060ff168152602001600081526020016000815260200160008152602001600081525090565b61a84784602001518560400151616a15565b606082015260e084015161a8779061a85e90613683565b856101c00151608001518360600151613b2c919061be25565b608082015260a084015161a88a90615aef565b60ff166040808301919091528401511561a8d95761a8be81608001518260400151613ba0868860a001518960400151619eea565b846101c0015160c0015161a8d2919061bdfd565b815261a8f5565b8060800151846101c0015160c0015161a8f2919061bdfd565b81525b600061a90485602001516123b4565b6040805160c08101909152815481526001820154909190602083019060ff16600381111561a9345761a93461bbcb565b600381111561a9455761a94561bbcb565b815260018201546001600160a01b0361010090910481166020830152600283015481166040830152600383015416606082015260048201805460809092019161a98d9061bbe1565b80601f016020809104026020016040519081016040528092919081815260200182805461a9b99061bbe1565b801561aa065780601f1061a9db5761010080835404028352916020019161aa06565b820191906000526020600020905b81548152906001019060200180831161a9e957829003601f168201915b505050505081525050905061aa28816040015186604001518760a0015161699d565b60a083015261014085015161012086015161aa689161aa4f91613a1d90620186a09061bdea565b866101c00151602001518460a00151613a31919061bdea565b8260c001818152505061aa918260c001518360400151613a91878960a001518a6040015161b223565b856101c001516060015161aaa5919061bdbe565b6020830181905261aab590613683565b82516101c08701515161aac790613683565b61aad1919061bdfd565b6121a2919061bdfd565b600061334d83836168f3565b606061112882600c016168e6565b61aafd61b70b565b61ab0561b70b565b60008060405160200161ab3a906020808252600e908201526d4c505f504f4f4c5f434f4e46494760901b604082015260600190565b60408051601f198184030181529190528051602090910120905061ab5f828287619f8f565b61ab6c5750909392505050565b61aba78186604051602001618e7290602080825260129082015271424153455f494e5445524553545f5241544560701b604082015260600190565b835260405161abe99082908790618e72906020016020808252601490820152731413d3d317d3125455525112551657d31253525560621b604082015260600190565b83602001818152505061ac288186604051602001618e72906020808252600d908201526c4d494e545f4645455f5241544560981b604082015260600190565b83604001818152505061ac698186604051602001618e72906020808252600f908201526e52454445454d5f4645455f5241544560881b604082015260600190565b606084015260405161acae9082908790618e72906020016020808252601490820152731413d3d317d4139317d490551253d7d31253525560621b604082015260600190565b608084015260405161acfa9082908790618e72906020016020808252818101527f554e534554544c45445f424153455f544f4b454e5f524154494f5f4c494d4954604082015260600190565b60a084015260405161ad539082908790618e729060200160208082526022908201527f554e534554544c45445f535441424c455f544f4b454e5f524154494f5f4c494d604082015261125560f21b606082015260800190565b60c084015260405161ada19082908790618e72906020016020808252601d908201527f504f4f4c5f535441424c455f544f4b454e5f524154494f5f4c494d4954000000604082015260600190565b60e084015260405161adef9082908790618e72906020016020808252601c908201527f504f4f4c5f535441424c455f544f4b454e5f4c4f53535f4c494d495400000000604082015260600190565b61010084015260405161ae6f908290879061ae2d906020016020808252600c908201526b41535345545f544f4b454e5360a01b604082015260600190565b60405160208183030381529060405280519060200120604051602001616d70939291909283526001600160a01b03919091166020830152604082015260600190565b61012084015250909392505050565b61aeb76040518060c001604052806000815260200160008152602001600081526020016000815260200160608152602001606081525090565b60008060405160200161aeed906020808252600f908201526e5553445f504f4f4c5f434f4e46494760881b604082015260600190565b60405160208183030381529060405280519060200120905061af41816040516020016125e5906020808252601490820152731413d3d317d3125455525112551657d31253525560621b604082015260600190565b835260405161af7a9082906125e5906020016020808252600d908201526c4d494e545f4645455f5241544560981b604082015260600190565b83602001818152505061afba816040516020016125e5906020808252600f908201526e52454445454d5f4645455f5241544560881b604082015260600190565b83604001818152505061b000816040516020016125e590602080825260159082015274155394d1551513115117d490551253d7d312535255605a1b604082015260600190565b606084015260405161b044908290616d4090602001602080825260159082015274535550504f52545f535441424c455f544f4b454e5360581b604082015260600190565b608084018190525167ffffffffffffffff81111561b0645761b06461bb15565b60405190808252806020026020018201604052801561b08d578160200160208202803683370190505b5060a084015260005b83608001515181101561b1a45761b17b828560800151838151811061b0bd5761b0bd61baff565b602002602001015160405160200161b1149060208082526025908201527f535441424c455f544f4b454e535f424f52524f57494e475f494e5445524553546040820152645f5241544560d81b606082015260800190565b6040516020818303038152906040528051906020012060405160200161b156939291909283526001600160a01b03919091166020830152604082015260600190565b604051602081830303815290604052805190602001208461635190919063ffffffff16565b8460a00151828151811061b1915761b19161baff565b602090810291909101015260010161b096565b50505090565b6060831561b21957825160000361b212576001600160a01b0385163b61b2125760405162461bcd60e51b815260206004820152601d60248201527f416464726573733a2063616c6c20746f206e6f6e2d636f6e747261637400000060448201526064016108cf565b50816105f7565b6105f7838361b412565b6000805b8451811015619f8457836001600160a01b031685828151811061b24c5761b24c61baff565b6020026020010151600001516001600160a01b03160361b27d5782619f5557848181518110619f4457619f4461baff565b60010161b227565b60008061b29061b43c565b60005b8551811015619bce5761b2b1868281518110610cef57610cef61baff565b6040805161022081018252825481526001830154602080830191909152600284015460ff808216151584860152610100808304909116151560608086019182526001600160a01b036201000090940484166080808801919091526003890154851660a08089019190915260048a015490951660c08089019190915260058a015460e0808a019190915260068b01549589019590955260078a015461012089015260088a015461014089015260098a0154610160890152600a8a0154610180890152600b8a01546101a089015288519485018952600c8a01548552600d8a015496850196909652600e89015497840197909752600f880154908301526010870154958201959095526011860154918101919091526012850154918101919091526101c082015260138301546101e0820152601490920154610200830152519092508515159015150361b40a5761b40760018461bdbe565b92505b60010161b293565b81511561b4225781518083602001fd5b8060405162461bcd60e51b81526004016108cf919061c786565b604051806102200160405280600080191681526020016000801916815260200160001515815260200160001515815260200160006001600160a01b0316815260200160006001600160a01b0316815260200160006001600160a01b031681526020016000815260200160008152602001600081526020016000815260200160008152602001600081526020016000815260200161b50f6040518060e00160405280600081526020016000815260200160008152602001600081526020016000815260200160008152602001600081525090565b815260200160008152602001600081525090565b604051806060016040528061b50f61b43c565b6040518060c0016040528060006001600160a01b031681526020016000815260200160008152602001600060ff168152602001600015158152602001600081525090565b60405180610100016040528060008152602001600081526020016000815260200160008152602001600081526020016000815260200160008152602001600081525090565b604051806102c0016040528060006001600160a01b0316815260200161b5e361b43c565b8152602001600081526020016000815260200160008152602001600081526020016000815260200160008152602001600081526020016000815260200160008152602001600081526020016000815260200160008152602001600081526020016000815260200160008152602001600081526020016000815260200160008152602001600081526020016000151581525090565b6040518060e0016040528060008152602001600081526020016000815260200160008152602001600081526020016000815260200160006001600160a01b031681525090565b60405180610120016040528060001515815260200160008152602001600081526020016000815260200160008152602001600081526020016000815260200160008152602001600081525090565b604051806101400160405280600081526020016000815260200160008152602001600081526020016000815260200160008152602001600081526020016000815260200160008152602001606081525090565b6000806020838503121561b77157600080fd5b823567ffffffffffffffff8082111561b78957600080fd5b818501915085601f83011261b79d57600080fd5b81358181111561b7ac57600080fd5b8660208260051b850101111561b7c157600080fd5b60209290920196919550909350505050565b60008060006040848603121561b7e857600080fd5b83359250602084013567ffffffffffffffff8082111561b80757600080fd5b818601915086601f83011261b81b57600080fd5b81358181111561b82a57600080fd5b8760208260071b850101111561b83f57600080fd5b6020830194508093505050509250925092565b6001600160a01b038116811461107c57600080fd5b803561b8728161b852565b919050565b801515811461107c57600080fd5b803561b8728161b877565b6000806000806080858703121561b8a657600080fd5b843561b8b18161b852565b935060208501359250604085013561b8c88161b852565b9150606085013561b8d88161b877565b939692955090935050565b8051825260208101516020830152604081015161b904604084018215159052565b50606081015161b918606084018215159052565b50608081015161b93360808401826001600160a01b03169052565b5060a081015161b94e60a08401826001600160a01b03169052565b5060c081015161b96960c08401826001600160a01b03169052565b5060e08181015190830152610100808201519083015261012080820151908301526101408082015190830152610160808201519083015261018080820151908301526101a080820151908301526101c08082015180518285015260208101516101e085015260408101516102008501526060810151610220850152608081015161024085015260a081015161026085015260c081015161028085015250506101e08101516102a083015261020001516102c090910152565b6102e08101611128828461b8e3565b6000806040838503121561ba4357600080fd5b50508035926020909101359150565b6000610100828403121561ba6557600080fd5b50919050565b60006020828403121561ba7d57600080fd5b813561334d8161b852565b602080825282518282018190526000919060409081850190868401855b8281101561bae057815161baba85825161b8e3565b808701516102e0860152850151610300850152610320909301929085019060010161baa5565b5091979650505050505050565b600060c0828403121561ba6557600080fd5b634e487b7160e01b600052603260045260246000fd5b634e487b7160e01b600052604160045260246000fd5b60006080828403121561bb3d57600080fd5b6040516080810181811067ffffffffffffffff8211171561bb6e57634e487b7160e01b600052604160045260246000fd5b604052823561bb7c8161b852565b8152602083013561bb8c8161b852565b6020820152604083810135908201526060928301359281019290925250919050565b60006020828403121561bbc057600080fd5b815161334d8161b852565b634e487b7160e01b600052602160045260246000fd5b600181811c9082168061bbf557607f821691505b60208210810361ba6557634e487b7160e01b600052602260045260246000fd5b634e487b7160e01b600052601160045260246000fd5b80820281158282048414176111285761112861bc15565b60006020828403121561bc5457600080fd5b813561334d8161b877565b600061010080838503121561bc7357600080fd5b6040519081019067ffffffffffffffff8211818310171561bca457634e487b7160e01b600052604160045260246000fd5b81604052833581526020840135915061bcbc8261b877565b81602082015261bcce6040850161b885565b604082015261bcdf6060850161b885565b60608201526080840135608082015261bcfa60a0850161b867565b60a082015260c084013560c082015260e084013560e0820152809250505092915050565b600060c0828403121561bd3057600080fd5b60405160c0810181811067ffffffffffffffff8211171561bd6157634e487b7160e01b600052604160045260246000fd5b60405282358152602083013561bd768161b877565b6020820152604083013561bd898161b877565b6040820152606083013561bd9c8161b852565b60608201526080838101359082015260a0928301359281019290925250919050565b808201808211156111285761112861bc15565b60006001820161bde35761bde361bc15565b5060010190565b818103818111156111285761112861bc15565b808201828112600083128015821682158216171561be1d5761be1d61bc15565b505092915050565b8181036000831280158383131683831282161715618ca357618ca361bc15565b6000600160ff1b820161be5a5761be5a61bc15565b5060000390565b8051602080830151919081101561ba655760001960209190910360031b1b16919050565b60018060a01b038082511683526020820151602084015280604083015116604084015250606081015160608301526080810151608083015260a0810151151560a083015260c0810151151560c083015260e081015160e08301525050565b6101008101611128828461be85565b80516001600160a01b0316825260208101516020830152604081015161bf1c604084018215159052565b50606081015161bf30606084018215159052565b50608081015161bf44608084018215159052565b5060a081015160a083015260c081015161bf6960c08401826001600160a01b03169052565b5060e08181015190830152610100808201519083015261012090810151910152565b610160810161bf9a828561bef2565b826101408301529392505050565b815461014082019061bfcd9083906001600160a01b03165b6001600160a01b03169052565b60018301546020830152600283015460ff81161515604084015261bffb6060840160ff8360081c1615159052565b61c00f6080840160ff8360101c1615159052565b50600383015460a083015260048301546001600160a01b031660c0830152600583015460e083015260068301546101008301526007909201546101209091015290565b6101408101611128828461bef2565b610120810161c070828561be85565b826101008301529392505050565b815461010082019061c09a9083906001600160a01b031661bfc0565b6001830154602083015260028301546001600160a01b031660408301526003830154606083015260048301546080830152600583015460ff808216151560a085015260089190911c16151560c083015260069092015460e09091015290565b6003811061c1095761c10961bbcb565b9052565b6004811061c1095761c10961bbcb565b82516001600160a01b03168152610240810160208401516020830152604084015161c14b604084018261c0f9565b50606084015161c15e606084018261c0f9565b50608084015161c171608084018261c10d565b5060a084015161c18460a084018261c0f9565b5060c084015161c19860c084018215159052565b5060e084015161c1ac60e084018215159052565b50610100848101516001600160a01b03169083015261012080850151908301526101408085015190830152610160808501519083015261018080850151908301526101a080850151908301526101c080850151908301526101e080850151908301526102009384015193820193909352610220015290565b858152602081018590526104e081016009851061c2435761c24361bbcb565b8460408301528354606083015260018401546080830152600284015461c27060a0840160ff831615159052565b61c28460c0840160ff8360081c1615159052565b6001600160a01b03601082901c1660e08401525060038401546001600160a01b03166001600160a01b0381166101008401525060048401546001600160a01b03166001600160a01b0381166101208401525060058401546101408301526006840154610160830152600784015461018083015260088401546101a083015260098401546101c0830152600a8401546101e0830152600b840154610200830152600c840154610220830152600d840154610240830152600e840154610260830152600f84015461028083015260108401546102a083015260118401546102c083015260128401546102e08301526013840154610300830152601484015461032083015282516103408301526020830151610360830152604083015161038083015260608301516103a083015260808301516103c083015260a08301516103e083015260c083015161040083015260e08301516104208301526101008301516104408301526101208301516104608301526101408301516104808301526101608301516104a08301526101808301516104c0830152619833565b60006020828403121561c42e57600080fd5b815160ff8116811461334d57600080fd5b60006020828403121561c45157600080fd5b5051919050565b600181815b8085111561a04b57816000190482111561c4795761c47961bc15565b8085161561c48657918102915b93841c939080029061c45d565b60008261c4a257506001611128565b8161c4af57506000611128565b816001811461c4c5576002811461c4cf5761c4eb565b6001915050611128565b60ff84111561c4e05761c4e061bc15565b50506001821b611128565b5060208310610133831016604e8410600b841016171561c50e575081810a611128565b61c518838361c458565b806000190482111561c52c5761c52c61bc15565b029392505050565b600061334d60ff84168361c493565b600f811061c1095761c10961bbcb565b6001600160a01b03868116825285166020820152610160810161c59a6040830186805182526020810151602083015260408101516040830152606081015160608301525050565b835460c0830152600184015460e08301526002840154610100830152600384015461012083015261983361014083018461c543565b634e487b7160e01b600052601260045260246000fd5b60008261c5f45761c5f461c5cf565b500490565b80820260008212600160ff1b8414161561c6155761c61561bc15565b81810583148215176111285761112861bc15565b60008261c6385761c63861c5cf565b600160ff1b82146000198414161561c6525761c65261bc15565b500590565b6001600160a01b03831681528154602082015260018201546040820152600282015460608201526003820154608082015260a0810161334d565b8154815260018201546020820152600282015460408201526003820154606082015260808101611128565b60005b8381101561c6d757818101518382015260200161c6bf565b50506000910152565b6000825161c6f281846020870161c6bc565b9190910192915050565b60006020828403121561c70e57600080fd5b815161334d8161b877565b634e487b7160e01b600052603160045260246000fd5b60208082526023908201527f686f6c64206661696c656420776974682062616c616e6365206e6f7420656e6f6040820152620eaced60eb1b606082015260800190565b60008261c7815761c78161c5cf565b500690565b602081526000825180602084015261c7a581604085016020870161c6bc565b601f01601f1916919091016040019291505056fe1d59acd5f3bb87326c498fe747e339bda33b5370b6f8df63a48f232d73efb748a264697066735822122008bc1da0fcc18366c20d4c322a62281fc0dce85826cb1c2b3601d0ee5b08e11b64736f6c63430008190033","linkReferences":{}},"methodIdentifiers":{"autoReducePositions(bytes32[])":"09fb7aac","cancelUpdateLeverageRequest(uint256,bytes32)":"59086dc9","cancelUpdatePositionMarginRequest(uint256,bytes32)":"e606789b","createUpdateLeverageRequest((bytes32,bool,bool,bool,uint256,address,uint256,uint256))":"74315647","createUpdatePositionMarginRequest((bytes32,bool,bool,address,uint256,uint256))":"fe1b7245","executeUpdateLeverageRequest(uint256,(address,address,int256,int256)[])":"cb5c8d81","executeUpdatePositionMarginRequest(uint256,(address,address,int256,int256)[])":"311be5f4","getAllPositions(address)":"fb11e969","getSinglePosition(address,bytes32,address,bool)":"41065c62"},"id":67}