{"abi":[{"type":"function","name":"autoReducePositions","inputs":[{"name":"positionKeys","type":"bytes32[]","internalType":"bytes32[]"}],"outputs":[],"stateMutability":"nonpayable"},{"type":"function","name":"cancelUpdateLeverageRequest","inputs":[{"name":"requestId","type":"uint256","internalType":"uint256"},{"name":"reasonCode","type":"bytes32","internalType":"bytes32"}],"outputs":[],"stateMutability":"nonpayable"},{"type":"function","name":"cancelUpdatePositionMarginRequest","inputs":[{"name":"requestId","type":"uint256","internalType":"uint256"},{"name":"reasonCode","type":"bytes32","internalType":"bytes32"}],"outputs":[],"stateMutability":"nonpayable"},{"type":"function","name":"createUpdateLeverageRequest","inputs":[{"name":"params","type":"tuple","internalType":"struct IPosition.UpdateLeverageParams","components":[{"name":"symbol","type":"bytes32","internalType":"bytes32"},{"name":"isLong","type":"bool","internalType":"bool"},{"name":"isNativeToken","type":"bool","internalType":"bool"},{"name":"isCrossMargin","type":"bool","internalType":"bool"},{"name":"leverage","type":"uint256","internalType":"uint256"},{"name":"marginToken","type":"address","internalType":"address"},{"name":"addMarginAmount","type":"uint256","internalType":"uint256"},{"name":"executionFee","type":"uint256","internalType":"uint256"}]}],"outputs":[{"name":"requestId","type":"uint256","internalType":"uint256"}],"stateMutability":"payable"},{"type":"function","name":"createUpdatePositionMarginRequest","inputs":[{"name":"params","type":"tuple","internalType":"struct IPosition.UpdatePositionMarginParams","components":[{"name":"positionKey","type":"bytes32","internalType":"bytes32"},{"name":"isAdd","type":"bool","internalType":"bool"},{"name":"isNativeToken","type":"bool","internalType":"bool"},{"name":"marginToken","type":"address","internalType":"address"},{"name":"updateMarginAmount","type":"uint256","internalType":"uint256"},{"name":"executionFee","type":"uint256","internalType":"uint256"}]}],"outputs":[{"name":"requestId","type":"uint256","internalType":"uint256"}],"stateMutability":"payable"},{"type":"function","name":"executeUpdateLeverageRequest","inputs":[{"name":"requestId","type":"uint256","internalType":"uint256"},{"name":"oracles","type":"tuple[]","internalType":"struct OracleProcess.OracleParam[]","components":[{"name":"token","type":"address","internalType":"address"},{"name":"targetToken","type":"address","internalType":"address"},{"name":"minPrice","type":"int256","internalType":"int256"},{"name":"maxPrice","type":"int256","internalType":"int256"}]}],"outputs":[],"stateMutability":"nonpayable"},{"type":"function","name":"executeUpdatePositionMarginRequest","inputs":[{"name":"requestId","type":"uint256","internalType":"uint256"},{"name":"oracles","type":"tuple[]","internalType":"struct OracleProcess.OracleParam[]","components":[{"name":"token","type":"address","internalType":"address"},{"name":"targetToken","type":"address","internalType":"address"},{"name":"minPrice","type":"int256","internalType":"int256"},{"name":"maxPrice","type":"int256","internalType":"int256"}]}],"outputs":[],"stateMutability":"nonpayable"},{"type":"function","name":"getAllPositions","inputs":[{"name":"account","type":"address","internalType":"address"}],"outputs":[{"name":"","type":"tuple[]","internalType":"struct IPosition.PositionInfo[]","components":[{"name":"position","type":"tuple","internalType":"struct Position.Props","components":[{"name":"key","type":"bytes32","internalType":"bytes32"},{"name":"symbol","type":"bytes32","internalType":"bytes32"},{"name":"isLong","type":"bool","internalType":"bool"},{"name":"isCrossMargin","type":"bool","internalType":"bool"},{"name":"account","type":"address","internalType":"address"},{"name":"marginToken","type":"address","internalType":"address"},{"name":"indexToken","type":"address","internalType":"address"},{"name":"qty","type":"uint256","internalType":"uint256"},{"name":"entryPrice","type":"uint256","internalType":"uint256"},{"name":"leverage","type":"uint256","internalType":"uint256"},{"name":"initialMargin","type":"uint256","internalType":"uint256"},{"name":"initialMarginInUsd","type":"uint256","internalType":"uint256"},{"name":"initialMarginInUsdFromBalance","type":"uint256","internalType":"uint256"},{"name":"holdPoolAmount","type":"uint256","internalType":"uint256"},{"name":"positionFee","type":"tuple","internalType":"struct Position.PositionFee","components":[{"name":"closeFeeInUsd","type":"uint256","internalType":"uint256"},{"name":"openBorrowingFeePerToken","type":"uint256","internalType":"uint256"},{"name":"realizedBorrowingFee","type":"uint256","internalType":"uint256"},{"name":"realizedBorrowingFeeInUsd","type":"uint256","internalType":"uint256"},{"name":"openFundingFeePerQty","type":"int256","internalType":"int256"},{"name":"realizedFundingFee","type":"int256","internalType":"int256"},{"name":"realizedFundingFeeInUsd","type":"int256","internalType":"int256"}]},{"name":"realizedPnl","type":"int256","internalType":"int256"},{"name":"lastUpdateTime","type":"uint256","internalType":"uint256"}]},{"name":"liquidationPrice","type":"uint256","internalType":"uint256"},{"name":"currentTimestamp","type":"uint256","internalType":"uint256"}]}],"stateMutability":"view"},{"type":"function","name":"getSinglePosition","inputs":[{"name":"account","type":"address","internalType":"address"},{"name":"symbol","type":"bytes32","internalType":"bytes32"},{"name":"marginToken","type":"address","internalType":"address"},{"name":"isCrossMargin","type":"bool","internalType":"bool"}],"outputs":[{"name":"","type":"tuple","internalType":"struct Position.Props","components":[{"name":"key","type":"bytes32","internalType":"bytes32"},{"name":"symbol","type":"bytes32","internalType":"bytes32"},{"name":"isLong","type":"bool","internalType":"bool"},{"name":"isCrossMargin","type":"bool","internalType":"bool"},{"name":"account","type":"address","internalType":"address"},{"name":"marginToken","type":"address","internalType":"address"},{"name":"indexToken","type":"address","internalType":"address"},{"name":"qty","type":"uint256","internalType":"uint256"},{"name":"entryPrice","type":"uint256","internalType":"uint256"},{"name":"leverage","type":"uint256","internalType":"uint256"},{"name":"initialMargin","type":"uint256","internalType":"uint256"},{"name":"initialMarginInUsd","type":"uint256","internalType":"uint256"},{"name":"initialMarginInUsdFromBalance","type":"uint256","internalType":"uint256"},{"name":"holdPoolAmount","type":"uint256","internalType":"uint256"},{"name":"positionFee","type":"tuple","internalType":"struct Position.PositionFee","components":[{"name":"closeFeeInUsd","type":"uint256","internalType":"uint256"},{"name":"openBorrowingFeePerToken","type":"uint256","internalType":"uint256"},{"name":"realizedBorrowingFee","type":"uint256","internalType":"uint256"},{"name":"realizedBorrowingFeeInUsd","type":"uint256","internalType":"uint256"},{"name":"openFundingFeePerQty","type":"int256","internalType":"int256"},{"name":"realizedFundingFee","type":"int256","internalType":"int256"},{"name":"realizedFundingFeeInUsd","type":"int256","internalType":"int256"}]},{"name":"realizedPnl","type":"int256","internalType":"int256"},{"name":"lastUpdateTime","type":"uint256","internalType":"uint256"}]}],"stateMutability":"pure"},{"type":"error","name":"AmountZeroNotAllowed","inputs":[]},{"type":"error","name":"InvalidRoleAccess","inputs":[{"name":"account","type":"address","internalType":"address"},{"name":"role","type":"bytes32","internalType":"bytes32"}]},{"type":"error","name":"LeverageInvalid","inputs":[{"name":"symbol","type":"bytes32","internalType":"bytes32"},{"name":"leverage","type":"uint256","internalType":"uint256"}]},{"type":"error","name":"OnlyIsolateSupported","inputs":[]},{"type":"error","name":"PositionNotExists","inputs":[]},{"type":"error","name":"SymbolNotExists","inputs":[]},{"type":"error","name":"SymbolStatusInvalid","inputs":[{"name":"symbol","type":"bytes32","internalType":"bytes32"}]},{"type":"error","name":"UpdateLeverageRequestNotExists","inputs":[]},{"type":"error","name":"UpdatePositionMarginRequestNotExists","inputs":[]}],"bytecode":{"object":"0x6080604052348015600f57600080fd5b506001600055613464806100246000396000f3fe6080604052600436106100865760003560e01c806374315647116100595780637431564714610123578063cb5c8d8114610144578063e606789b14610164578063fb11e96914610184578063fe1b7245146101b157600080fd5b806309fb7aac1461008b578063311be5f4146100ad57806341065c62146100cd57806359086dc914610103575b600080fd5b34801561009757600080fd5b506100ab6100a636600461281a565b6101c4565b005b3480156100b957600080fd5b506100ab6100c836600461288f565b610586565b3480156100d957600080fd5b506100ed6100e836600461294c565b6108f6565b6040516100fa9190612add565b60405180910390f35b34801561010f57600080fd5b506100ab61011e366004612aec565b610ad5565b610136610131366004612b0e565b610d4c565b6040519081526020016100fa565b34801561015057600080fd5b506100ab61015f36600461288f565b6112e8565b34801561017057600080fd5b506100ab61017f366004612aec565b611622565b34801561019057600080fd5b506101a461019f366004612b27565b611898565b6040516100fa9190612b44565b6101366101bf366004612ba9565b611d14565b60005a90506101db6525a2a2a822a960d11b61216e565b604051631026392960e11b81527f8116fe254c434350c8a963d750885fee6b2213d5416ba4444044ed0bb91a725d600482015260009073__$6ebb2450d5e04bda18965cfdba2d8f11f4$__9063204c725290602401602060405180830381865af415801561024d573d6000803e3d6000fd5b505050506040513d601f19601f820116820180604052508101906102719190612bbb565b905060005b8381101561051b57600073__$d6b170e28cdd9080cfdbe47025803469bd$__63f03507998787858181106102ac576102ac612bd4565b905060200201356040518263ffffffff1660e01b81526004016102d191815260200190565b602060405180830381865af41580156102ee573d6000803e3d6000fd5b505050506040513d601f19601f820116820180604052508101906103129190612bbb565b60405163a51dafc760e01b81526004810182905290915073__$d6b170e28cdd9080cfdbe47025803469bd$__9063a51dafc79060240160006040518083038186803b15801561036057600080fd5b505af4158015610374573d6000803e3d6000fd5b50506040805160e08101825286815260018501546020820152600081830152600285015460ff610100820481161515606084015260038701546001600160a01b039081166080850152600588015460a08501526004808901549551631a0994f560e01b81529590911690850152161515602483015273__$8fb5de803360e49e9972eec3a61ded82fb$__9350635b9a574e9250849160c082019073__$bb4e55f00c0f45d2719800850b371b8ff8$__90631a0994f590604401602060405180830381865af415801561044a573d6000803e3d6000fd5b505050506040513d601f19601f8201168201806040525081019061046e9190612bbb565b9052604080516001600160e01b031960e086901b168152600481019390935281516024840152602082015160448401528101511515606483015260608101511515608483015260808101516001600160a01b031660a483015260a081015160c483015260c0015160e48201526101040160006040518083038186803b1580156104f657600080fd5b505af415801561050a573d6000803e3d6000fd5b505060019093019250610276915050565b506040516307c43b6960e21b81526004810183905273__$e6ad93c07d6cc44a1daca561617df2deac$__90631f10eda4906024015b60006040518083038186803b15801561056857600080fd5b505af415801561057c573d6000803e3d6000fd5b5050505050505050565b60005a905061059d6525a2a2a822a960d11b61216e565b604051634a83e9cd60e11b81526004810185905260009073__$92d09698b02b86f60e573c24f774403d94$__90639507d39a9060240161010060405180830381865af41580156105f1573d6000803e3d6000fd5b505050506040513d601f19601f820116820180604052508101906106159190612cb9565b80519091506001600160a01b03166106405760405163fd0b752360e01b815260040160405180910390fd5b604051631d4cb62f60e21b815273__$bb4e55f00c0f45d2719800850b371b8ff8$__90637532d8bc906106799087908790600401612d4a565b60006040518083038186803b15801561069157600080fd5b505af41580156106a5573d6000803e3d6000fd5b505060405163ca7b4ab960e01b815273__$dc802fc1d3dd8347e08cf7a91e97b416c7$__925063ca7b4ab991506106e29088908590600401612e22565b60006040518083038186803b1580156106fa57600080fd5b505af415801561070e573d6000803e3d6000fd5b5050505073__$bb4e55f00c0f45d2719800850b371b8ff8$__63e52ed3656040518163ffffffff1660e01b815260040160006040518083038186803b15801561075657600080fd5b505af415801561076a573d6000803e3d6000fd5b5050505073__$e6ad93c07d6cc44a1daca561617df2deac$__634d4d56726040518060a001604052808460c0015161080357306001600160a01b0316631f7592ea6040518163ffffffff1660e01b8152600401602060405180830381865afa1580156107da573d6000803e3d6000fd5b505050506040513d601f19601f820116820180604052508101906107fe9190612e37565b610865565b306001600160a01b03166397e7b7f26040518163ffffffff1660e01b8152600401602060405180830381865afa158015610841573d6000803e3d6000fd5b505050506040513d601f19601f820116820180604052508101906108659190612e37565b6001600160a01b0316815260200184608001518152602001858152602001336001600160a01b0316815260200184600001516001600160a01b03168152506040518263ffffffff1660e01b81526004016108bf9190612e54565b60006040518083038186803b1580156108d757600080fd5b505af41580156108eb573d6000803e3d6000fd5b505050505050505050565b6108fe612720565b60405163359c683b60e11b81526001600160a01b0380871660048301526024820186905284166044820152821515606482015273__$d6b170e28cdd9080cfdbe47025803469bd$__90636b38d07690608401602060405180830381865af415801561096d573d6000803e3d6000fd5b505050506040513d601f19601f820116820180604052508101906109919190612bbb565b6040805161022081018252825481526001830154602080830191909152600284015460ff80821615158486015261010080830490911615156060808601919091526001600160a01b036201000090930483166080808701919091526003880154841660a080880191909152600489015490941660c080880191909152600589015460e08089019190915260068a015494880194909452600789015461012088015260088901546101408801526009890154610160880152600a890154610180880152600b8901546101a088015287519384018852600c8901548452600d89015495840195909552600e88015496830196909652600f870154908201526010860154948101949094526011850154908401526012840154908301526101c081019190915260138201546101e08201526014909101546102008201529050949350505050565b60005a9050610aec6525a2a2a822a960d11b61216e565b604051634a83e9cd60e11b81526004810184905260009073__$e7b259f5f25536180660cb13f6599e15f1$__90639507d39a9060240161014060405180830381865af4158015610b40573d6000803e3d6000fd5b505050506040513d601f19601f82011682018060405250810190610b649190612e97565b80519091506001600160a01b0316610b8f5760405163093d047f60e21b815260040160405180910390fd5b60405163621467b360e11b815273__$dc802fc1d3dd8347e08cf7a91e97b416c7$__9063c428cf6690610bca90879085908890600401612fd7565b60006040518083038186803b158015610be257600080fd5b505af4158015610bf6573d6000803e3d6000fd5b5050505073__$e6ad93c07d6cc44a1daca561617df2deac$__634d4d56726040518060a001604052808460600151610c8f57306001600160a01b0316631f7592ea6040518163ffffffff1660e01b8152600401602060405180830381865afa158015610c66573d6000803e3d6000fd5b505050506040513d601f19601f82011682018060405250810190610c8a9190612e37565b610cf1565b306001600160a01b03166397e7b7f26040518163ffffffff1660e01b8152600401602060405180830381865afa158015610ccd573d6000803e3d6000fd5b505050506040513d601f19601f82011682018060405250810190610cf19190612e37565b6001600160a01b031681526020018461010001518152602001858152602001336001600160a01b0316815260200184600001516001600160a01b03168152506040518263ffffffff1660e01b81526004016105509190612e54565b60405163e1be37bd60e01b815281356004820152600090819073__$acce7506676b87ccbb54b9fc6afc582415$__9063e1be37bd9060240161010060405180830381865af4158015610da2573d6000803e3d6000fd5b505050506040513d601f19601f82011682018060405250810190610dc69190612ffb565b60405163f035079960e01b81528435600482015290915060009073__$772a6c28cc3d4776ea886febacbb24816f$__9063f035079990602401602060405180830381865af4158015610e1c573d6000803e3d6000fd5b505050506040513d601f19601f82011682018060405250810190610e409190612bbb565b6040805160c08101909152815481526001820154909190602083019060ff166003811115610e7057610e7061306a565b6003811115610e8157610e8161306a565b815260018201546001600160a01b03610100909104811660208301526002830154811660408301526003830154166060820152600482018054608090920191610ec990613080565b80601f0160208091040260200160405190810160405280929190818152602001828054610ef590613080565b8015610f425780601f10610f1757610100808354040283529160200191610f42565b820191906000526020600020905b815481529060010190602001808311610f2557829003601f168201915b5050509190925250919250610f55915050565b600081602001516003811115610f6d57610f6d61306a565b14610f93576040516303035c6f60e61b8152843560048201526024015b60405180910390fd5b815160808501351180610fb65750610faf620186a060016130ca565b8460800135105b15610fe157604051635c93c83760e01b81528435600482015260808501356024820152604401610f8a565b604051630bd039cd60e21b815233600482018190529060009073__$1dcbc4e76af7484d3342475f6e32ea9921$__90632f40e73490602401602060405180830381865af4158015611036573d6000803e3d6000fd5b505050506040513d601f19601f8201168201806040525081019061105a9190612bbb565b905060008660c0013511801561107d575061107b60808701606088016130e1565b155b1561124c5761109260608701604088016130e1565b15806110a157508560c0013534145b6110e95760405162461bcd60e51b81526020600482015260196024820152784465706f7369742065746820616d6f756e74206572726f722160381b6044820152606401610f8a565b73__$ea03dc6e7176064baf45a14dcf3b0b0296$__63ef59a9d16040518060a00160405280856001600160a01b0316815260200189604001602081019061113091906130e1565b6111495761114460c08b0160a08c01612b27565b6111b9565b73__$bda6750164d46530feeed1122c24ac1a13$__63606c0c946040518163ffffffff1660e01b815260040161012060405180830381865af4158015611193573d6000803e3d6000fd5b505050506040513d601f19601f820116820180604052508101906111b791906130fe565b515b6001600160a01b0316815260c08a01356020820152604001600181526020016111e860608b0160408c016130e1565b15158152506040518263ffffffff1660e01b81526004016112099190613180565b602060405180830381865af4158015611226573d6000803e3d6000fd5b505050506040513d601f19601f8201168201806040525081019061124a9190612e37565b505b60008061125983896121a1565b604051637f4c94bd60e01b8152919350915073__$dc802fc1d3dd8347e08cf7a91e97b416c7$__90637f4c94bd9061129b9087908c90879087906004016131e7565b602060405180830381865af41580156112b8573d6000803e3d6000fd5b505050506040513d601f19601f820116820180604052508101906112dc9190612bbb565b98975050505050505050565b60005a90506112ff6525a2a2a822a960d11b61216e565b604051634a83e9cd60e11b81526004810185905260009073__$e7b259f5f25536180660cb13f6599e15f1$__90639507d39a9060240161014060405180830381865af4158015611353573d6000803e3d6000fd5b505050506040513d601f19601f820116820180604052508101906113779190612e97565b80519091506001600160a01b03166113a25760405163093d047f60e21b815260040160405180910390fd5b604051631d4cb62f60e21b815273__$bb4e55f00c0f45d2719800850b371b8ff8$__90637532d8bc906113db9087908790600401612d4a565b60006040518083038186803b1580156113f357600080fd5b505af4158015611407573d6000803e3d6000fd5b5050604051633fb2d04d60e21b815273__$dc802fc1d3dd8347e08cf7a91e97b416c7$__925063fecb41349150611444908890859060040161329f565b60006040518083038186803b15801561145c57600080fd5b505af4158015611470573d6000803e3d6000fd5b5050505073__$bb4e55f00c0f45d2719800850b371b8ff8$__63e52ed3656040518163ffffffff1660e01b815260040160006040518083038186803b1580156114b857600080fd5b505af41580156114cc573d6000803e3d6000fd5b5050505073__$e6ad93c07d6cc44a1daca561617df2deac$__634d4d56726040518060a00160405280846060015161156557306001600160a01b0316631f7592ea6040518163ffffffff1660e01b8152600401602060405180830381865afa15801561153c573d6000803e3d6000fd5b505050506040513d601f19601f820116820180604052508101906115609190612e37565b6115c7565b306001600160a01b03166397e7b7f26040518163ffffffff1660e01b8152600401602060405180830381865afa1580156115a3573d6000803e3d6000fd5b505050506040513d601f19601f820116820180604052508101906115c79190612e37565b6001600160a01b031681526020018461010001518152602001858152602001336001600160a01b0316815260200184600001516001600160a01b03168152506040518263ffffffff1660e01b81526004016108bf9190612e54565b60005a90506116396525a2a2a822a960d11b61216e565b604051634a83e9cd60e11b81526004810184905260009073__$92d09698b02b86f60e573c24f774403d94$__90639507d39a9060240161010060405180830381865af415801561168d573d6000803e3d6000fd5b505050506040513d601f19601f820116820180604052508101906116b19190612cb9565b80519091506001600160a01b03166116dc5760405163fd0b752360e01b815260040160405180910390fd5b60405163b34f305f60e01b815273__$dc802fc1d3dd8347e08cf7a91e97b416c7$__9063b34f305f90611717908790859088906004016132b4565b60006040518083038186803b15801561172f57600080fd5b505af4158015611743573d6000803e3d6000fd5b5050505073__$e6ad93c07d6cc44a1daca561617df2deac$__634d4d56726040518060a001604052808460c001516117dc57306001600160a01b0316631f7592ea6040518163ffffffff1660e01b8152600401602060405180830381865afa1580156117b3573d6000803e3d6000fd5b505050506040513d601f19601f820116820180604052508101906117d79190612e37565b61183e565b306001600160a01b03166397e7b7f26040518163ffffffff1660e01b8152600401602060405180830381865afa15801561181a573d6000803e3d6000fd5b505050506040513d601f19601f8201168201806040525081019061183e9190612e37565b6001600160a01b0316815260200184608001518152602001858152602001336001600160a01b0316815260200184600001516001600160a01b03168152506040518263ffffffff1660e01b81526004016105509190612e54565b604051630bd039cd60e21b81526001600160a01b038216600482015260609060009073__$1dcbc4e76af7484d3342475f6e32ea9921$__90632f40e73490602401602060405180830381865af41580156118f6573d6000803e3d6000fd5b505050506040513d601f19601f8201168201806040525081019061191a9190612bbb565b604051637f80ceb160e01b81526004810182905290915073__$1dcbc4e76af7484d3342475f6e32ea9921$__90637f80ceb190602401602060405180830381865af415801561196d573d6000803e3d6000fd5b505050506040513d601f19601f8201168201806040525081019061199191906132d8565b61199e5750606092915050565b6040516335cd115160e01b81526004810182905260009073__$1dcbc4e76af7484d3342475f6e32ea9921$__906335cd115190602401600060405180830381865af41580156119f1573d6000803e3d6000fd5b505050506040513d6000823e601f3d908101601f19168201604052611a1991908101906132f5565b90506000815167ffffffffffffffff811115611a3757611a37612bea565b604051908082528060200260200182016040528015611a7057816020015b611a5d612807565b815260200190600190039081611a555790505b50905060005b8251811015611d0b57600073__$d6b170e28cdd9080cfdbe47025803469bd$__63f0350799858481518110611aad57611aad612bd4565b60200260200101516040518263ffffffff1660e01b8152600401611ad391815260200190565b602060405180830381865af4158015611af0573d6000803e3d6000fd5b505050506040513d601f19601f82011682018060405250810190611b149190612bbb565b6040805161022081018252825481526001830154602080830191909152600284015460ff80821615158486015261010080830490911615156060808601919091526001600160a01b036201000090930483166080808701919091526003880154841660a080880191909152600489015490941660c080880191909152600589015460e08089019190915260068a015494880194909452600789015461012088015260088901546101408801526009890154610160880152600a890154610180880152600b8901546101a088015287519384018852600c8901548452600d89015495840195909552600e88015496830196909652600f870154908201526010860154948101949094526011850154908401526012840154908301526101c081019190915260138201546101e08201526014820154610200820152845191925090849084908110611c6557611c65612bd4565b60200260200101516000018190525073__$27841a34e195c5bdb1981cd870ebbdf8d8$__631e2ff94f6040518163ffffffff1660e01b8152600401602060405180830381865af4158015611cbd573d6000803e3d6000fd5b505050506040513d601f19601f82011682018060405250810190611ce19190612bbb565b838381518110611cf357611cf3612bd4565b60209081029190910101516040015250600101611a76565b50949350505050565b60008160800135600003611d3b57604051630b4fc37360e11b815260040160405180910390fd5b604051630bd039cd60e21b815233600482018190529060009073__$1dcbc4e76af7484d3342475f6e32ea9921$__90632f40e73490602401602060405180830381865af4158015611d90573d6000803e3d6000fd5b505050506040513d601f19601f82011682018060405250810190611db49190612bbb565b60405163cb7ccd9360e01b8152600481018290528535602482015290915073__$1dcbc4e76af7484d3342475f6e32ea9921$__9063cb7ccd9390604401602060405180830381865af4158015611e0e573d6000803e3d6000fd5b505050506040513d601f19601f82011682018060405250810190611e3291906132d8565b611e4f57604051634a32858f60e01b815260040160405180910390fd5b60405163f035079960e01b81528435600482015260009073__$d6b170e28cdd9080cfdbe47025803469bd$__9063f035079990602401602060405180830381865af4158015611ea2573d6000803e3d6000fd5b505050506040513d601f19601f82011682018060405250810190611ec69190612bbb565b6002810154909150610100900460ff1615611ef457604051633046114760e01b815260040160405180910390fd5b611f0460408601602087016130e1565b156120d357611f1960608601604087016130e1565b1580611f285750846080013534145b611f705760405162461bcd60e51b81526020600482015260196024820152784465706f7369742065746820616d6f756e74206572726f722160381b6044820152606401610f8a565b73__$ea03dc6e7176064baf45a14dcf3b0b0296$__63ef59a9d16040518060a00160405280866001600160a01b03168152602001886040016020810190611fb791906130e1565b611fd057611fcb60808a0160608b01612b27565b612040565b73__$bda6750164d46530feeed1122c24ac1a13$__63606c0c946040518163ffffffff1660e01b815260040161012060405180830381865af415801561201a573d6000803e3d6000fd5b505050506040513d601f19601f8201168201806040525081019061203e91906130fe565b515b6001600160a01b03168152608089013560208201526040016001815260200161206f60608a0160408b016130e1565b15158152506040518263ffffffff1660e01b81526004016120909190613180565b602060405180830381865af41580156120ad573d6000803e3d6000fd5b505050506040513d601f19601f820116820180604052508101906120d19190612e37565b505b6000806120e08488612411565b60405163af5c2a6b60e01b8152919350915073__$dc802fc1d3dd8347e08cf7a91e97b416c7$__9063af5c2a6b906121229088908b908790879060040161338f565b602060405180830381865af415801561213f573d6000803e3d6000fd5b505050506040513d601f19601f820116820180604052508101906121639190612bbb565b979650505050505050565b6121783382612669565b61219e57604051632d7d0e0d60e21b815233600482015260248101829052604401610f8a565b50565b600080600073__$bda6750164d46530feeed1122c24ac1a13$__63606c0c946040518163ffffffff1660e01b815260040161012060405180830381865af41580156121f0573d6000803e3d6000fd5b505050506040513d601f19601f8201168201806040525081019061221491906130fe565b60c0810151604051634b7bc68160e01b815260e08701356004820152602481019190915290915073__$e6ad93c07d6cc44a1daca561617df2deac$__90634b7bc6819060440160006040518083038186803b15801561227257600080fd5b505af4158015612286573d6000803e3d6000fd5b5061229b9250505060608501604086016130e1565b80156122af57508360e001358460c0013510155b80156122c857506122c660808501606086016130e1565b155b156122eb576122df60e085013560c086013561341b565b6001925092505061240a565b8360e0013534146123505760405162461bcd60e51b815260206004820152602960248201527f757064617465206c65766572616765207769746820657865637574696f6e20666044820152686565206572726f722160b81b6064820152608401610f8a565b6040805160a08101825286546001600160a01b039081168252835116602082015260e0860135818301526000606082015260016080820152905163ef59a9d160e01b815273__$ea03dc6e7176064baf45a14dcf3b0b0296$__9163ef59a9d1916123bd9190600401613180565b602060405180830381865af41580156123da573d6000803e3d6000fd5b505050506040513d601f19601f820116820180604052508101906123fe9190612e37565b5050505060c081013560005b9250929050565b600080600073__$bda6750164d46530feeed1122c24ac1a13$__63606c0c946040518163ffffffff1660e01b815260040161012060405180830381865af4158015612460573d6000803e3d6000fd5b505050506040513d601f19601f8201168201806040525081019061248491906130fe565b60a081810151604051634b7bc68160e01b8152918701356004830152602482015290915073__$e6ad93c07d6cc44a1daca561617df2deac$__90634b7bc6819060440160006040518083038186803b1580156124df57600080fd5b505af41580156124f3573d6000803e3d6000fd5b506125089250505060608501604086016130e1565b801561251f575061251f60408501602086016130e1565b801561253357508360a00135846080013510155b1561254a576122df60a0850135608086013561341b565b8360a0013534146125ad5760405162461bcd60e51b815260206004820152602760248201527f757064617465206d617267696e207769746820657865637574696f6e20666565604482015266206572726f722160c81b6064820152608401610f8a565b6040805160a0808201835287546001600160a01b0390811683528451166020830152860135818301526000606082015260016080820152905163ef59a9d160e01b815273__$ea03dc6e7176064baf45a14dcf3b0b0296$__9163ef59a9d1916126199190600401613180565b602060405180830381865af4158015612636573d6000803e3d6000fd5b505050506040513d601f19601f8201168201806040525081019061265a9190612e37565b50505050608001359160009150565b6000806126746126a3565b6001600160a01b03851660009081526020829052604090209091506126999084612705565b9150505b92915050565b6000806040516020016126e7906020808252601e908201527f78797a2e656c66692e73746f726167652e416363657373436f6e74726f6c0000604082015260600190565b60408051601f19818403018152919052805160209091012092915050565b600081815260018301602052604081205415155b9392505050565b604051806102200160405280600080191681526020016000801916815260200160001515815260200160001515815260200160006001600160a01b0316815260200160006001600160a01b0316815260200160006001600160a01b03168152602001600081526020016000815260200160008152602001600081526020016000815260200160008152602001600081526020016127f36040518060e00160405280600081526020016000815260200160008152602001600081526020016000815260200160008152602001600081525090565b815260200160008152602001600081525090565b60405180606001604052806127f3612720565b6000806020838503121561282d57600080fd5b823567ffffffffffffffff8082111561284557600080fd5b818501915085601f83011261285957600080fd5b81358181111561286857600080fd5b8660208260051b850101111561287d57600080fd5b60209290920196919550909350505050565b6000806000604084860312156128a457600080fd5b83359250602084013567ffffffffffffffff808211156128c357600080fd5b818601915086601f8301126128d757600080fd5b8135818111156128e657600080fd5b8760208260071b85010111156128fb57600080fd5b6020830194508093505050509250925092565b6001600160a01b038116811461219e57600080fd5b803561292e8161290e565b919050565b801515811461219e57600080fd5b803561292e81612933565b6000806000806080858703121561296257600080fd5b843561296d8161290e565b93506020850135925060408501356129848161290e565b9150606085013561299481612933565b939692955090935050565b805182526020810151602083015260408101516129c0604084018215159052565b5060608101516129d4606084018215159052565b5060808101516129ef60808401826001600160a01b03169052565b5060a0810151612a0a60a08401826001600160a01b03169052565b5060c0810151612a2560c08401826001600160a01b03169052565b5060e08181015190830152610100808201519083015261012080820151908301526101408082015190830152610160808201519083015261018080820151908301526101a080820151908301526101c08082015180518285015260208101516101e085015260408101516102008501526060810151610220850152608081015161024085015260a081015161026085015260c081015161028085015250506101e08101516102a083015261020001516102c090910152565b6102e0810161269d828461299f565b60008060408385031215612aff57600080fd5b50508035926020909101359150565b60006101008284031215612b2157600080fd5b50919050565b600060208284031215612b3957600080fd5b81356127198161290e565b602080825282518282018190526000919060409081850190868401855b82811015612b9c578151612b7685825161299f565b808701516102e08601528501516103008501526103209093019290850190600101612b61565b5091979650505050505050565b600060c08284031215612b2157600080fd5b600060208284031215612bcd57600080fd5b5051919050565b634e487b7160e01b600052603260045260246000fd5b634e487b7160e01b600052604160045260246000fd5b604051610100810167ffffffffffffffff81118282101715612c2457612c24612bea565b60405290565b604051610140810167ffffffffffffffff81118282101715612c2457612c24612bea565b604051610120810167ffffffffffffffff81118282101715612c2457612c24612bea565b604051601f8201601f1916810167ffffffffffffffff81118282101715612c9b57612c9b612bea565b604052919050565b805161292e8161290e565b805161292e81612933565b60006101008284031215612ccc57600080fd5b612cd4612c00565b8251612cdf8161290e565b8152602083810151908201526040830151612cf98161290e565b806040830152506060830151606082015260808301516080820152612d2060a08401612cae565b60a0820152612d3160c08401612cae565b60c082015260e083015160e08201528091505092915050565b6020808252818101839052600090604080840186845b87811015612db7578135612d738161290e565b6001600160a01b0390811684528286013590612d8e8261290e565b168386015281840135848401526060808301359084015260809283019290910190600101612d60565b5090979650505050505050565b60018060a01b038082511683526020820151602084015280604083015116604084015250606081015160608301526080810151608083015260a0810151151560a083015260c0810151151560c083015260e081015160e08301525050565b82815261012081016127196020830184612dc4565b600060208284031215612e4957600080fd5b81516127198161290e565b81516001600160a01b0390811682526020808401519083015260408084015190830152606080840151821690830152608092830151169181019190915260a00190565b60006101408284031215612eaa57600080fd5b612eb2612c2a565b612ebb83612ca3565b815260208301516020820152612ed360408401612cae565b6040820152612ee460608401612cae565b6060820152612ef560808401612cae565b608082015260a083015160a0820152612f1060c08401612ca3565b60c082015260e083810151908201526101008084015190820152610120928301519281019290925250919050565b80516001600160a01b03168252602081015160208301526040810151612f68604084018215159052565b506060810151612f7c606084018215159052565b506080810151612f90608084018215159052565b5060a081015160a083015260c0810151612fb560c08401826001600160a01b03169052565b5060e08181015190830152610100808201519083015261012090810151910152565b8381526101808101612fec6020830185612f3e565b82610160830152949350505050565b6000610100828403121561300e57600080fd5b613016612c00565b825181526020830151602082015260408301516040820152606083015160608201526080830151608082015260a083015160a082015260c083015160c082015260e083015160e08201528091505092915050565b634e487b7160e01b600052602160045260246000fd5b600181811c9082168061309457607f821691505b602082108103612b2157634e487b7160e01b600052602260045260246000fd5b634e487b7160e01b600052601160045260246000fd5b808202811582820484141761269d5761269d6130b4565b6000602082840312156130f357600080fd5b813561271981612933565b6000610120828403121561311157600080fd5b613119612c4e565b61312283612ca3565b81526020830151602082015260408301516040820152606083015160608201526080830151608082015260a083015160a082015260c083015160c082015260e083015160e08201526101008084015181830152508091505092915050565b81516001600160a01b0390811682526020808401519091169082015260408083015190820152606082015160a0820190600481106131ce57634e487b7160e01b600052602160045260246000fd5b8060608401525060808301511515608083015292915050565b6001600160a01b0385168152833560208083019190915261016082019085013561321081612933565b801515604084015250604085013561322781612933565b80151560608401525061323c60608601612941565b801515608084015250608085013560a083015261325b60a08601612923565b6001600160a01b03811660c08401525060c085013560e083015260e08501356101008301528361012083015261329661014083018415159052565b95945050505050565b82815261016081016127196020830184612f3e565b83815261014081016132c96020830185612dc4565b82610120830152949350505050565b6000602082840312156132ea57600080fd5b815161271981612933565b6000602080838503121561330857600080fd5b825167ffffffffffffffff8082111561332057600080fd5b818501915085601f83011261333457600080fd5b81518181111561334657613346612bea565b8060051b9150613357848301612c72565b818152918301840191848101908884111561337157600080fd5b938501935b838510156112dc57845182529385019390850190613376565b6001600160a01b0385811682528435602080840191909152610120830191908601356133ba81612933565b80151560408501525060408601356133d181612933565b80151560608501525060608601356133e88161290e565b81811660808501525050608085013560a083015260a085013560c08301528360e083015261329661010083018415159052565b8181038181111561269d5761269d6130b456fea264697066735822122036b03107ca5c1cd2e95aadfd6d6d7d148af8d69ffeb3c6ea19c5e22ff9b3d69164736f6c63430008190033","linkReferences":{"src/process/AssetsProcess.sol":{"AssetsProcess":[{"start":4367,"length":20},{"start":8086,"length":20},{"start":9146,"length":20},{"start":9750,"length":20}]},"src/process/ConfigProcess.sol":{"ConfigProcess":[{"start":3467,"length":20}]},"src/process/DecreasePositionProcess.sol":{"DecreasePositionProcess":[{"start":1039,"length":20}]},"src/process/GasProcess.sol":{"GasProcess":[{"start":1366,"length":20},{"start":1940,"length":20},{"start":3104,"length":20},{"start":5366,"length":20},{"start":5997,"length":20},{"start":8801,"length":20},{"start":9422,"length":20}]},"src/process/OracleProcess.sol":{"OracleProcess":[{"start":1076,"length":20},{"start":1651,"length":20},{"start":1848,"length":20},{"start":5077,"length":20},{"start":5274,"length":20}]},"src/process/PositionMarginProcess.sol":{"PositionMarginProcess":[{"start":1754,"length":20},{"start":3010,"length":20},{"start":4753,"length":20},{"start":5180,"length":20},{"start":5903,"length":20},{"start":8472,"length":20}]},"src/storage/Account.sol":{"Account":[{"start":4128,"length":20},{"start":6368,"length":20},{"start":6487,"length":20},{"start":6619,"length":20},{"start":7546,"length":20},{"start":7672,"length":20}]},"src/storage/AppConfig.sol":{"AppConfig":[{"start":4463,"length":20},{"start":8182,"length":20},{"start":8652,"length":20},{"start":9276,"length":20}]},"src/storage/Position.sol":{"Position":[{"start":678,"length":20},{"start":847,"length":20},{"start":2391,"length":20},{"start":6823,"length":20},{"start":7820,"length":20}]},"src/storage/Symbol.sol":{"Symbol":[{"start":3590,"length":20}]},"src/storage/UpdateLeverage.sol":{"UpdateLeverage":[{"start":2857,"length":20},{"start":4924,"length":20}]},"src/storage/UpdatePositionMargin.sol":{"UpdatePositionMargin":[{"start":1498,"length":20},{"start":5750,"length":20}]},"src/storage/UuidCreator.sol":{"UuidCreator":[{"start":567,"length":20}]},"src/utils/ChainUtils.sol":{"ChainUtils":[{"start":7322,"length":20}]}}},"methodIdentifiers":{"autoReducePositions(bytes32[])":"09fb7aac","cancelUpdateLeverageRequest(uint256,bytes32)":"59086dc9","cancelUpdatePositionMarginRequest(uint256,bytes32)":"e606789b","createUpdateLeverageRequest((bytes32,bool,bool,bool,uint256,address,uint256,uint256))":"74315647","createUpdatePositionMarginRequest((bytes32,bool,bool,address,uint256,uint256))":"fe1b7245","executeUpdateLeverageRequest(uint256,(address,address,int256,int256)[])":"cb5c8d81","executeUpdatePositionMarginRequest(uint256,(address,address,int256,int256)[])":"311be5f4","getAllPositions(address)":"fb11e969","getSinglePosition(address,bytes32,address,bool)":"41065c62"},"id":67}