{"abi":[{"type":"function","name":"getPositionKey","inputs":[{"name":"account","type":"address","internalType":"address"},{"name":"symbol","type":"bytes32","internalType":"bytes32"},{"name":"marginToken","type":"address","internalType":"address"},{"name":"isCrossMargin","type":"bool","internalType":"bool"}],"outputs":[{"name":"","type":"bytes32","internalType":"bytes32"}],"stateMutability":"pure"},{"type":"event","name":"PositionUpdateEvent","inputs":[{"name":"requestId","type":"uint256","indexed":false,"internalType":"uint256"},{"name":"positionKey","type":"bytes32","indexed":false,"internalType":"bytes32"},{"name":"from","type":"uint8","indexed":false,"internalType":"enum Position.PositionUpdateFrom"},{"name":"position","type":"tuple","indexed":false,"internalType":"struct Position.Props","components":[{"name":"key","type":"bytes32","internalType":"bytes32"},{"name":"symbol","type":"bytes32","internalType":"bytes32"},{"name":"isLong","type":"bool","internalType":"bool"},{"name":"isCrossMargin","type":"bool","internalType":"bool"},{"name":"account","type":"address","internalType":"address"},{"name":"marginToken","type":"address","internalType":"address"},{"name":"indexToken","type":"address","internalType":"address"},{"name":"qty","type":"uint256","internalType":"uint256"},{"name":"entryPrice","type":"uint256","internalType":"uint256"},{"name":"leverage","type":"uint256","internalType":"uint256"},{"name":"initialMargin","type":"uint256","internalType":"uint256"},{"name":"initialMarginInUsd","type":"uint256","internalType":"uint256"},{"name":"initialMarginInUsdFromBalance","type":"uint256","internalType":"uint256"},{"name":"holdPoolAmount","type":"uint256","internalType":"uint256"},{"name":"positionFee","type":"tuple","internalType":"struct Position.PositionFee","components":[{"name":"closeFeeInUsd","type":"uint256","internalType":"uint256"},{"name":"openBorrowingFeePerToken","type":"uint256","internalType":"uint256"},{"name":"realizedBorrowingFee","type":"uint256","internalType":"uint256"},{"name":"realizedBorrowingFeeInUsd","type":"uint256","internalType":"uint256"},{"name":"openFundingFeePerQty","type":"int256","internalType":"int256"},{"name":"realizedFundingFee","type":"int256","internalType":"int256"},{"name":"realizedFundingFeeInUsd","type":"int256","internalType":"int256"}]},{"name":"realizedPnl","type":"int256","internalType":"int256"},{"name":"lastUpdateTime","type":"uint256","internalType":"uint256"}]},{"name":"settleData","type":"tuple","indexed":false,"internalType":"struct Position.SettleData","components":[{"name":"executePrice","type":"uint256","internalType":"uint256"},{"name":"openFee","type":"uint256","internalType":"uint256"},{"name":"marginTokenPrice","type":"uint256","internalType":"uint256"},{"name":"settledMargin","type":"int256","internalType":"int256"},{"name":"settledBorrowingFee","type":"uint256","internalType":"uint256"},{"name":"settledBorrowingFeeInUsd","type":"uint256","internalType":"uint256"},{"name":"settledFundingFee","type":"int256","internalType":"int256"},{"name":"settledFundingFeeInUsd","type":"int256","internalType":"int256"},{"name":"unHoldPoolAmount","type":"uint256","internalType":"uint256"},{"name":"closeFee","type":"uint256","internalType":"uint256"},{"name":"closeFeeInUsd","type":"uint256","internalType":"uint256"},{"name":"realizedPnl","type":"int256","internalType":"int256"},{"name":"poolPnlToken","type":"int256","internalType":"int256"}]}],"anonymous":false},{"type":"error","name":"PositionNotExists","inputs":[]}],"bytecode":{"object":"0x610979610039600b82828239805160001a607314602c57634e487b7160e01b600052600060045260246000fd5b30600052607381538281f3fe730000000000000000000000000000000000000000301460806040526004361061009d5760003560e01c8063a51dafc711610070578063a51dafc714610191578063d06e0fe0146101a4578063f013b695146101c4578063f0350799146101eb578063f8d1ead6146101fc57600080fd5b80631a4c9a98146100a25780632ead7fcf146100c457806353dd3c54146100e45780636b38d0761461016b575b600080fd5b8180156100ae57600080fd5b506100c26100bd366004610548565b61020f565b005b8180156100d057600080fd5b506100c26100df366004610630565b61028a565b8180156100f057600080fd5b506100c26100ff36600461066d565b60006005820181905560068201819055600782018190556008820181905560098201819055600a8201819055600b8201819055600c820181905560138201819055600d8201819055600e8201819055600f82018190556010820181905560118201819055601290910155565b61017e61017936600461069d565b61035a565b6040519081526020015b60405180910390f35b6100c261019f36600461066d565b610374565b8180156101b057600080fd5b506100c26101bf3660046106f1565b61039c565b6101db6101d236600461066d565b60050154151590565b6040519015158152602001610188565b61017e6101f936600461066d565b90565b61017e61020a36600461069d565b61047a565b6002840154600185015460038601547fee2b9c77532fd89e66e2f431c2001e4bcc30fb5bc62ee9cdac252f89540067ae928692610268926001600160a01b0362010000840481169391169060ff6101009091041661047a565b84878560405161027c959493929190610738565b60405180910390a150505050565b6002840154600185015460038601547fee2b9c77532fd89e66e2f431c2001e4bcc30fb5bc62ee9cdac252f89540067ae9286926102e3926001600160a01b0362010000840481169391169060ff6101009091041661047a565b8487604051806101a001604052808781526020016000815260200160008152602001600081526020016000815260200160008152602001600081526020016000815260200160008152602001600081526020016000815260200160008152602001600081525060405161027c959493929190610738565b600061036b6101f98686868661047a565b95945050505050565b806005015460000361039957604051634a32858f60e01b815260040160405180910390fd5b50565b6002850154600186015460038701547fee2b9c77532fd89e66e2f431c2001e4bcc30fb5bc62ee9cdac252f89540067ae9287926103f5926001600160a01b0362010000840481169391169060ff6101009091041661047a565b8588604051806101a0016040528088815260200187815260200160008152602001600081526020016000815260200160008152602001600081526020016000815260200160008152602001600081526020016000815260200160008152602001600081525060405161046b959493929190610738565b60405180910390a15050505050565b6040805160a06020808301829052601960c08401527f78797a2e656c66692e73746f726167652e506f736974696f6e0000000000000060e0808501919091526001600160a01b03988916848601526060840197909752949096166080820152911515948201949094528351808203909301835261010001909252805191012090565b80356009811061050b57600080fd5b919050565b6040516101a0810167ffffffffffffffff8111828210171561054257634e487b7160e01b600052604160045260246000fd5b60405290565b60008060008084860361020081121561056057600080fd5b8535945060208601359350610577604087016104fc565b92506101a080605f198301121561058d57600080fd5b610595610510565b9150606087013582526080870135602083015260a0870135604083015260c0870135606083015260e087013560808301526101008088013560a08401526101208089013560c0850152610140808a013560e0860152610160808b0135848701526101809350838b013583870152848b0135828701526101c08b0135818701525050506101e08801358184015250508091505092959194509250565b6000806000806080858703121561064657600080fd5b843593506020850135925061065d604086016104fc565b9396929550929360600135925050565b60006020828403121561067f57600080fd5b5035919050565b80356001600160a01b038116811461050b57600080fd5b600080600080608085870312156106b357600080fd5b6106bc85610686565b9350602085013592506106d160408601610686565b9150606085013580151581146106e657600080fd5b939692955090935050565b600080600080600060a0868803121561070957600080fd5b8535945060208601359350610720604087016104fc565b94979396509394606081013594506080013592915050565b858152602081018590526104e081016009851061076557634e487b7160e01b600052602160045260246000fd5b8460408301528354606083015260018401546080830152600284015461079260a0840160ff831615159052565b6107a660c0840160ff8360081c1615159052565b6001600160a01b03601082901c1660e08401525060038401546001600160a01b03166001600160a01b0381166101008401525060048401546001600160a01b03166001600160a01b0381166101208401525060058401546101408301526006840154610160830152600784015461018083015260088401546101a083015260098401546101c0830152600a8401546101e0830152600b840154610200830152600c840154610220830152600d840154610240830152600e840154610260830152600f84015461028083015260108401546102a083015260118401546102c083015260128401546102e08301526013840154610300830152601484015461032083015282516103408301526020830151610360830152604083015161038083015260608301516103a083015260808301516103c083015260a08301516103e083015260c083015161040083015260e08301516104208301526101008301516104408301526101208301516104608301526101408301516104808301526101608301516104a08301526101808301516104c0830152969550505050505056fea2646970667358221220cc3cff6f6b4a878a4a50df3bc241f1b1ef4f801dc3686a481314ec5cef93b45464736f6c63430008190033","linkReferences":{}},"methodIdentifiers":{"checkExists(Position.Props storage)":"a51dafc7","emitOpenPositionUpdateEvent(Position.Props storage,uint256,Position.PositionUpdateFrom,uint256,uint256)":"d06e0fe0","emitPositionUpdateEvent(Position.Props storage,uint256,Position.PositionUpdateFrom,Position.SettleData)":"1a4c9a98","emitPositionUpdateEvent(Position.Props storage,uint256,Position.PositionUpdateFrom,uint256)":"2ead7fcf","getPositionKey(address,bytes32,address,bool)":"f8d1ead6","hasPosition(Position.Props storage)":"f013b695","load(address,bytes32,address,bool)":"6b38d076","load(bytes32)":"f0350799","reset(Position.Props storage)":"53dd3c54"},"id":149}