{"abi":[{"type":"receive","stateMutability":"payable"},{"type":"function","name":"batchUpdateAccountToken","inputs":[{"name":"params","type":"tuple","internalType":"struct AssetsProcess.UpdateAccountTokenParams","components":[{"name":"account","type":"address","internalType":"address"},{"name":"tokens","type":"address[]","internalType":"address[]"},{"name":"changedTokenAmounts","type":"int256[]","internalType":"int256[]"}]}],"outputs":[],"stateMutability":"nonpayable"},{"type":"function","name":"cancelWithdraw","inputs":[{"name":"requestId","type":"uint256","internalType":"uint256"},{"name":"reasonCode","type":"bytes32","internalType":"bytes32"}],"outputs":[],"stateMutability":"nonpayable"},{"type":"function","name":"createWithdrawRequest","inputs":[{"name":"token","type":"address","internalType":"address"},{"name":"amount","type":"uint256","internalType":"uint256"}],"outputs":[{"name":"requestId","type":"uint256","internalType":"uint256"}],"stateMutability":"nonpayable"},{"type":"function","name":"deposit","inputs":[{"name":"token","type":"address","internalType":"address"},{"name":"amount","type":"uint256","internalType":"uint256"}],"outputs":[],"stateMutability":"payable"},{"type":"function","name":"executeWithdraw","inputs":[{"name":"requestId","type":"uint256","internalType":"uint256"},{"name":"oracles","type":"tuple[]","internalType":"struct OracleProcess.OracleParam[]","components":[{"name":"token","type":"address","internalType":"address"},{"name":"targetToken","type":"address","internalType":"address"},{"name":"minPrice","type":"int256","internalType":"int256"},{"name":"maxPrice","type":"int256","internalType":"int256"}]}],"outputs":[],"stateMutability":"nonpayable"},{"type":"function","name":"getAccountInfo","inputs":[{"name":"account","type":"address","internalType":"address"}],"outputs":[{"name":"","type":"tuple","internalType":"struct IAccount.AccountInfo","components":[{"name":"owner","type":"address","internalType":"address"},{"name":"tokenBalances","type":"tuple[]","internalType":"struct Account.TokenBalance[]","components":[{"name":"amount","type":"uint256","internalType":"uint256"},{"name":"usedAmount","type":"uint256","internalType":"uint256"},{"name":"interest","type":"uint256","internalType":"uint256"},{"name":"liability","type":"uint256","internalType":"uint256"}]},{"name":"tokens","type":"address[]","internalType":"address[]"},{"name":"positions","type":"bytes32[]","internalType":"bytes32[]"},{"name":"portfolioNetValue","type":"uint256","internalType":"uint256"},{"name":"totalUsedValue","type":"uint256","internalType":"uint256"},{"name":"availableValue","type":"int256","internalType":"int256"},{"name":"orderHoldInUsd","type":"uint256","internalType":"uint256"},{"name":"crossMMR","type":"int256","internalType":"int256"},{"name":"crossNetValue","type":"int256","internalType":"int256"},{"name":"totalMM","type":"uint256","internalType":"uint256"}]}],"stateMutability":"view"},{"type":"function","name":"getAccountInfoWithOracles","inputs":[{"name":"account","type":"address","internalType":"address"},{"name":"oracles","type":"tuple[]","internalType":"struct OracleProcess.OracleParam[]","components":[{"name":"token","type":"address","internalType":"address"},{"name":"targetToken","type":"address","internalType":"address"},{"name":"minPrice","type":"int256","internalType":"int256"},{"name":"maxPrice","type":"int256","internalType":"int256"}]}],"outputs":[{"name":"","type":"tuple","internalType":"struct IAccount.AccountInfo","components":[{"name":"owner","type":"address","internalType":"address"},{"name":"tokenBalances","type":"tuple[]","internalType":"struct Account.TokenBalance[]","components":[{"name":"amount","type":"uint256","internalType":"uint256"},{"name":"usedAmount","type":"uint256","internalType":"uint256"},{"name":"interest","type":"uint256","internalType":"uint256"},{"name":"liability","type":"uint256","internalType":"uint256"}]},{"name":"tokens","type":"address[]","internalType":"address[]"},{"name":"positions","type":"bytes32[]","internalType":"bytes32[]"},{"name":"portfolioNetValue","type":"uint256","internalType":"uint256"},{"name":"totalUsedValue","type":"uint256","internalType":"uint256"},{"name":"availableValue","type":"int256","internalType":"int256"},{"name":"orderHoldInUsd","type":"uint256","internalType":"uint256"},{"name":"crossMMR","type":"int256","internalType":"int256"},{"name":"crossNetValue","type":"int256","internalType":"int256"},{"name":"totalMM","type":"uint256","internalType":"uint256"}]}],"stateMutability":"view"},{"type":"error","name":"AmountNotMatch","inputs":[{"name":"amount1","type":"uint256","internalType":"uint256"},{"name":"amount2","type":"uint256","internalType":"uint256"}]},{"type":"error","name":"AmountZeroNotAllowed","inputs":[]},{"type":"error","name":"InvalidRoleAccess","inputs":[{"name":"account","type":"address","internalType":"address"},{"name":"role","type":"bytes32","internalType":"bytes32"}]},{"type":"error","name":"OnlyCollateralSupported","inputs":[]},{"type":"error","name":"WithdrawRequestNotExists","inputs":[]}],"bytecode":{"object":"0x6080604052348015600f57600080fd5b50611d188061001f6000396000f3fe6080604052600436106100745760003560e01c806347e7ef241161004e57806347e7ef24146100e2578063750b5a19146100f55780637b510fe814610128578063abac56651461015557600080fd5b806302e9d19914610080578063115647f7146100a257806313874d37146100c257600080fd5b3661007b57005b600080fd5b34801561008c57600080fd5b506100a061009b3660046113bc565b610175565b005b3480156100ae57600080fd5b506100a06100bd366004611407565b61035d565b3480156100ce57600080fd5b506100a06100dd366004611441565b610445565b6100a06100f0366004611478565b610568565b34801561010157600080fd5b50610115610110366004611478565b61077e565b6040519081526020015b60405180910390f35b34801561013457600080fd5b506101486101433660046114a4565b610896565b60405161011f9190611588565b34801561016157600080fd5b5061014861017036600461165d565b610c5b565b6101876525a2a2a822a960d11b61122e565b604051634a83e9cd60e11b81526004810184905260009073__$83cf1728bd700ee00b2b1fab9d79aec544$__90639507d39a90602401606060405180830381865af41580156101da573d6000803e3d6000fd5b505050506040513d601f19601f820116820180604052508101906101fe9190611717565b80519091506001600160a01b0316610229576040516324d9d15b60e01b815260040160405180910390fd5b604051631d4cb62f60e21b815273__$bb4e55f00c0f45d2719800850b371b8ff8$__90637532d8bc9061026290869086906004016117ea565b60006040518083038186803b15801561027a57600080fd5b505af415801561028e573d6000803e3d6000fd5b5050604051632c7dadbd60e21b815273__$ea03dc6e7176064baf45a14dcf3b0b0296$__925063b1f6b6f491506102cb90879085906004016117fe565b60006040518083038186803b1580156102e357600080fd5b505af41580156102f7573d6000803e3d6000fd5b5050505073__$bb4e55f00c0f45d2719800850b371b8ff8$__63e52ed3656040518163ffffffff1660e01b815260040160006040518083038186803b15801561033f57600080fd5b505af4158015610353573d6000803e3d6000fd5b5050505050505050565b73__$6da87a77f33546d3f0e6244a8f7078a532$__637ff8770061038460208401846114a4565b6040516001600160e01b031960e084901b1681526001600160a01b03909116600482015260240160006040518083038186803b1580156103c357600080fd5b505af41580156103d7573d6000803e3d6000fd5b505060405163eec5b28760e01b815273__$ea03dc6e7176064baf45a14dcf3b0b0296$__925063eec5b287915061041290849060040161187c565b60006040518083038186803b15801561042a57600080fd5b505af415801561043e573d6000803e3d6000fd5b5050505050565b6104576525a2a2a822a960d11b61122e565b604051634a83e9cd60e11b81526004810183905260009073__$83cf1728bd700ee00b2b1fab9d79aec544$__90639507d39a90602401606060405180830381865af41580156104aa573d6000803e3d6000fd5b505050506040513d601f19601f820116820180604052508101906104ce9190611717565b80519091506001600160a01b03166104f9576040516324d9d15b60e01b815260040160405180910390fd5b60405162b5903160e31b815273__$ea03dc6e7176064baf45a14dcf3b0b0296$__906305ac8188906105339086908590879060040161193b565b60006040518083038186803b15801561054b57600080fd5b505af415801561055f573d6000803e3d6000fd5b50505050505050565b8060000361058957604051630b4fc37360e11b815260040160405180910390fd5b6001600160a01b038216158080156105a15750813414155b156105cd57604051630cca541d60e11b8152346004820152602481018390526044015b60405180910390fd5b80158015610656575060405163e981fddd60e01b81526001600160a01b038416600482015273__$74cab1088a768f44346aa8a34ab8d56734$__9063e981fddd9060240161012060405180830381865af415801561062f573d6000803e3d6000fd5b505050506040513d601f19601f82011682018060405250810190610653919061198f565b51155b156106745760405163219fc4b560e11b815260040160405180910390fd5b600033905073__$ea03dc6e7176064baf45a14dcf3b0b0296$__63996dd59e6040518060a00160405280846001600160a01b03168152602001856106b85787610728565b73__$bda6750164d46530feeed1122c24ac1a13$__63606c0c946040518163ffffffff1660e01b815260040161012060405180830381865af4158015610702573d6000803e3d6000fd5b505050506040513d601f19601f820116820180604052508101906107269190611a11565b515b6001600160a01b0316815260208101879052604001600081526020018515158152506040518263ffffffff1660e01b81526004016107669190611a35565b60006040518083038186803b15801561033f57600080fd5b604051627ff87760e81b81526001600160a01b038316600482015260009073__$6da87a77f33546d3f0e6244a8f7078a532$__90637ff877009060240160006040518083038186803b1580156107d357600080fd5b505af41580156107e7573d6000803e3d6000fd5b505050508160000361080c57604051630b4fc37360e11b815260040160405180910390fd5b60405163750b5a1960e01b81526001600160a01b03841660048201526024810183905273__$ea03dc6e7176064baf45a14dcf3b0b0296$__9063750b5a1990604401602060405180830381865af415801561086b573d6000803e3d6000fd5b505050506040513d601f19601f8201168201806040525081019061088f9190611a9c565b9392505050565b61089e61130e565b604051630bd039cd60e21b81526001600160a01b038316600482015260009073__$1dcbc4e76af7484d3342475f6e32ea9921$__90632f40e73490602401602060405180830381865af41580156108f9573d6000803e3d6000fd5b505050506040513d601f19601f8201168201806040525081019061091d9190611a9c565b905061092761130e565b604051637f80ceb160e01b81526004810183905273__$1dcbc4e76af7484d3342475f6e32ea9921$__90637f80ceb190602401602060405180830381865af4158015610977573d6000803e3d6000fd5b505050506040513d601f19601f8201168201806040525081019061099b9190611ab5565b6109a6579392505050565b60405163b2485df360e01b81526004810183905260009073__$1dcbc4e76af7484d3342475f6e32ea9921$__9063b2485df390602401600060405180830381865af41580156109f9573d6000803e3d6000fd5b505050506040513d6000823e601f3d908101601f19168201604052610a219190810190611af3565b9050600081516001600160401b03811115610a3e57610a3e611698565b604051908082528060200260200182016040528015610a9a57816020015b610a876040518060800160405280600081526020016000815260200160008152602001600081525090565b815260200190600190039081610a5c5790505b50905060005b8251811015610b75578473__$1dcbc4e76af7484d3342475f6e32ea9921$__63a68524569091858481518110610ad857610ad8611b91565b60200260200101516040518363ffffffff1660e01b8152600401610b0f9291909182526001600160a01b0316602082015260400190565b608060405180830381865af4158015610b2c573d6000803e3d6000fd5b505050506040513d601f19601f82011682018060405250810190610b509190611ba7565b828281518110610b6257610b62611b91565b6020908102919091010152600101610aa0565b506040516335cd115160e01b81526004810185905260009073__$1dcbc4e76af7484d3342475f6e32ea9921$__906335cd115190602401600060405180830381865af4158015610bc9573d6000803e3d6000fd5b505050506040513d6000823e601f3d908101601f19168201604052610bf19190810190611c0c565b60408051610160810182526001600160a01b0390991689526020890193909352918701929092526060860152505060006080840181905260a0840181905260c0840181905260019091015460e0840152610100830181905261012083018190526101408301525090565b610c6361130e565b604051630bd039cd60e21b81526001600160a01b038516600482015260009073__$1dcbc4e76af7484d3342475f6e32ea9921$__90632f40e73490602401602060405180830381865af4158015610cbe573d6000803e3d6000fd5b505050506040513d601f19601f82011682018060405250810190610ce29190611a9c565b9050610cec61130e565b604051637f80ceb160e01b81526004810183905273__$1dcbc4e76af7484d3342475f6e32ea9921$__90637f80ceb190602401602060405180830381865af4158015610d3c573d6000803e3d6000fd5b505050506040513d601f19601f82011682018060405250810190610d609190611ab5565b610d6d57915061088f9050565b60405163b2485df360e01b81526004810183905260009073__$1dcbc4e76af7484d3342475f6e32ea9921$__9063b2485df390602401600060405180830381865af4158015610dc0573d6000803e3d6000fd5b505050506040513d6000823e601f3d908101601f19168201604052610de89190810190611af3565b9050600081516001600160401b03811115610e0557610e05611698565b604051908082528060200260200182016040528015610e6157816020015b610e4e6040518060800160405280600081526020016000815260200160008152602001600081525090565b815260200190600190039081610e235790505b50905060005b8251811015610f3c578473__$1dcbc4e76af7484d3342475f6e32ea9921$__63a68524569091858481518110610e9f57610e9f611b91565b60200260200101516040518363ffffffff1660e01b8152600401610ed69291909182526001600160a01b0316602082015260400190565b608060405180830381865af4158015610ef3573d6000803e3d6000fd5b505050506040513d601f19601f82011682018060405250810190610f179190611ba7565b828281518110610f2957610f29611b91565b6020908102919091010152600101610e67565b5060405163c0a12cd760e01b81526000908190819073__$bda096e2a3df882a8dda445d5536da7776$__9063c0a12cd790610f7f908a908e908e90600401611c91565b606060405180830381865af4158015610f9c573d6000803e3d6000fd5b505050506040513d601f19601f82011682018060405250810190610fc09190611cb4565b604051633ca45c2f60e21b8152929550909350915060009073__$bda096e2a3df882a8dda445d5536da7776$__9063f29170bc90611006908b908f908f90600401611c91565b602060405180830381865af4158015611023573d6000803e3d6000fd5b505050506040513d601f19601f820116820180604052508101906110479190611a9c565b90506040518061016001604052808d6001600160a01b031681526020018681526020018781526020018973__$1dcbc4e76af7484d3342475f6e32ea9921$__6335cd115190916040518263ffffffff1660e01b81526004016110ab91815260200190565b600060405180830381865af41580156110c8573d6000803e3d6000fd5b505050506040513d6000823e601f3d908101601f191682016040526110f09190810190611c0c565b81526020018973__$bda096e2a3df882a8dda445d5536da7776$__639ab05b4a90918f8f6040518463ffffffff1660e01b815260040161113293929190611c91565b602060405180830381865af415801561114f573d6000803e3d6000fd5b505050506040513d601f19601f820116820180604052508101906111739190611a9c565b81526020018973__$bda096e2a3df882a8dda445d5536da7776$__633538b71090918f8f6040518463ffffffff1660e01b81526004016111b593929190611c91565b602060405180830381865af41580156111d2573d6000803e3d6000fd5b505050506040513d601f19601f820116820180604052508101906111f69190611a9c565b8152602081019290925260019098015460408201526060810193909352608083019190915260a0909101525091925050509392505050565b6112383382611261565b61125e57604051632d7d0e0d60e21b8152336004820152602481018290526044016105c4565b50565b60008061126c6112ac565b6001600160a01b03851660009081526020829052604090209091506112a490846000818152600183016020526040812054151561088f565b949350505050565b6000806040516020016112f0906020808252601e908201527f78797a2e656c66692e73746f726167652e416363657373436f6e74726f6c0000604082015260600190565b60408051601f19818403018152919052805160209091012092915050565b60405180610160016040528060006001600160a01b03168152602001606081526020016060815260200160608152602001600081526020016000815260200160008152602001600081526020016000815260200160008152602001600081525090565b60008083601f84011261138357600080fd5b5081356001600160401b0381111561139a57600080fd5b6020830191508360208260071b85010111156113b557600080fd5b9250929050565b6000806000604084860312156113d157600080fd5b8335925060208401356001600160401b038111156113ee57600080fd5b6113fa86828701611371565b9497909650939450505050565b60006020828403121561141957600080fd5b81356001600160401b0381111561142f57600080fd5b82016060818503121561088f57600080fd5b6000806040838503121561145457600080fd5b50508035926020909101359150565b6001600160a01b038116811461125e57600080fd5b6000806040838503121561148b57600080fd5b823561149681611463565b946020939093013593505050565b6000602082840312156114b657600080fd5b813561088f81611463565b60008151808452602080850194506020840160005b838110156115125781518051885283810151848901526040808201519089015260609081015190880152608090960195908201906001016114d6565b509495945050505050565b60008151808452602080850194506020840160005b838110156115125781516001600160a01b031687529582019590820190600101611532565b60008151808452602080850194506020840160005b838110156115125781518752958201959082019060010161156c565b602081526115a26020820183516001600160a01b03169052565b600060208301516101608060408501526115c06101808501836114c1565b91506040850151601f19808685030160608701526115de848361151d565b93506060870151915080868503016080870152506115fc8382611557565b925050608085015160a085015260a085015160c085015260c085015160e085015260e0850151610100818187015280870151915050610120818187015280870151915050610140818187015280870151838701525050508091505092915050565b60008060006040848603121561167257600080fd5b833561167d81611463565b925060208401356001600160401b038111156113ee57600080fd5b634e487b7160e01b600052604160045260246000fd5b60405161012081016001600160401b03811182821017156116d1576116d1611698565b60405290565b604051601f8201601f191681016001600160401b03811182821017156116ff576116ff611698565b604052919050565b805161171281611463565b919050565b60006060828403121561172957600080fd5b604051606081018181106001600160401b038211171561174b5761174b611698565b604052825161175981611463565b8152602083015161176981611463565b60208201526040928301519281019290925250919050565b8183526000602080850194508260005b858110156115125781356117a481611463565b6001600160a01b03908116885282840135906117bf82611463565b1687840152604082810135908801526060808301359088015260809687019690910190600101611791565b6020815260006112a4602083018486611781565b8281526080810161088f602083018480516001600160a01b03908116835260208083015190911690830152604090810151910152565b6000808335601e1984360301811261184b57600080fd5b83016020810192503590506001600160401b0381111561186a57600080fd5b8060051b36038213156113b557600080fd5b6000602080835260808301843561189281611463565b6001600160a01b03818116868501526118ad87850188611834565b6060604089015293849052929150600060a087015b838210156118eb5784356118d581611463565b83168152938501936001919091019085016118c2565b6118f860408a018a611834565b898303601f190160608b01528083529550935085019150600090505b8381101561193057823582529184019190840190600101611914565b509695505050505050565b83815260a08101611971602083018580516001600160a01b03908116835260208083015190911690830152604090810151910152565b826080830152949350505050565b8051801515811461171257600080fd5b600061012082840312156119a257600080fd5b6119aa6116ae565b6119b38361197f565b81526020830151602082015260408301516040820152606083015160608201526080830151608082015260a083015160a082015260c083015160c082015260e083015160e08201526101008084015181830152508091505092915050565b60006101208284031215611a2457600080fd5b611a2c6116ae565b6119b383611707565b81516001600160a01b0390811682526020808401519091169082015260408083015190820152606082015160a082019060048110611a8357634e487b7160e01b600052602160045260246000fd5b8060608401525060808301511515608083015292915050565b600060208284031215611aae57600080fd5b5051919050565b600060208284031215611ac757600080fd5b61088f8261197f565b60006001600160401b03821115611ae957611ae9611698565b5060051b60200190565b60006020808385031215611b0657600080fd5b82516001600160401b03811115611b1c57600080fd5b8301601f81018513611b2d57600080fd5b8051611b40611b3b82611ad0565b6116d7565b81815260059190911b82018301908381019087831115611b5f57600080fd5b928401925b82841015611b86578351611b7781611463565b82529284019290840190611b64565b979650505050505050565b634e487b7160e01b600052603260045260246000fd5b600060808284031215611bb957600080fd5b604051608081018181106001600160401b0382111715611bdb57611bdb611698565b8060405250825181526020830151602082015260408301516040820152606083015160608201528091505092915050565b60006020808385031215611c1f57600080fd5b82516001600160401b03811115611c3557600080fd5b8301601f81018513611c4657600080fd5b8051611c54611b3b82611ad0565b81815260059190911b82018301908381019087831115611c7357600080fd5b928401925b82841015611b8657835182529284019290840190611c78565b838152604060208201526000611cab604083018486611781565b95945050505050565b600080600060608486031215611cc957600080fd5b835192506020840151915060408401519050925092509256fea2646970667358221220b4fc458008b8c6237d99b24cbf617fab640dbb1e335ab16e8b31c2742323df5764736f6c63430008190033","linkReferences":{"src/process/AccountProcess.sol":{"AccountProcess":[{"start":3954,"length":20},{"start":4089,"length":20},{"start":4375,"length":20},{"start":4506,"length":20}]},"src/process/AssetsProcess.sol":{"AssetsProcess":[{"start":702,"length":20},{"start":1031,"length":20},{"start":1318,"length":20},{"start":1690,"length":20},{"start":2128,"length":20}]},"src/process/OracleProcess.sol":{"OracleProcess":[{"start":599,"length":20},{"start":796,"length":20}]},"src/storage/Account.sol":{"Account":[{"start":2270,"length":20},{"start":2396,"length":20},{"start":2526,"length":20},{"start":2763,"length":20},{"start":2990,"length":20},{"start":3235,"length":20},{"start":3361,"length":20},{"start":3493,"length":20},{"start":3730,"length":20},{"start":4242,"length":20}]},"src/storage/AppConfig.sol":{"AppConfig":[{"start":1753,"length":20}]},"src/storage/AppTradeTokenConfig.sol":{"AppTradeTokenConfig":[{"start":1555,"length":20}]},"src/storage/Withdraw.sol":{"Withdraw":[{"start":447,"length":20},{"start":1167,"length":20}]},"src/utils/AddressUtils.sol":{"AddressUtils":[{"start":894,"length":20},{"start":1981,"length":20}]}}},"methodIdentifiers":{"batchUpdateAccountToken((address,address[],int256[]))":"115647f7","cancelWithdraw(uint256,bytes32)":"13874d37","createWithdrawRequest(address,uint256)":"750b5a19","deposit(address,uint256)":"47e7ef24","executeWithdraw(uint256,(address,address,int256,int256)[])":"02e9d199","getAccountInfo(address)":"7b510fe8","getAccountInfoWithOracles(address,(address,address,int256,int256)[])":"abac5665"},"id":55}