{"abi":[{"type":"receive","stateMutability":"payable"},{"type":"function","name":"batchUpdateAccountToken","inputs":[{"name":"params","type":"tuple","internalType":"struct AssetsProcess.UpdateAccountTokenParams","components":[{"name":"account","type":"address","internalType":"address"},{"name":"tokens","type":"address[]","internalType":"address[]"},{"name":"changedTokenAmounts","type":"int256[]","internalType":"int256[]"}]}],"outputs":[],"stateMutability":"nonpayable"},{"type":"function","name":"cancelWithdraw","inputs":[{"name":"requestId","type":"uint256","internalType":"uint256"},{"name":"reasonCode","type":"bytes32","internalType":"bytes32"}],"outputs":[],"stateMutability":"nonpayable"},{"type":"function","name":"createWithdrawRequest","inputs":[{"name":"token","type":"address","internalType":"address"},{"name":"amount","type":"uint256","internalType":"uint256"}],"outputs":[{"name":"requestId","type":"uint256","internalType":"uint256"}],"stateMutability":"nonpayable"},{"type":"function","name":"deposit","inputs":[{"name":"token","type":"address","internalType":"address"},{"name":"amount","type":"uint256","internalType":"uint256"}],"outputs":[],"stateMutability":"payable"},{"type":"function","name":"executeWithdraw","inputs":[{"name":"requestId","type":"uint256","internalType":"uint256"},{"name":"oracles","type":"tuple[]","internalType":"struct OracleProcess.OracleParam[]","components":[{"name":"token","type":"address","internalType":"address"},{"name":"targetToken","type":"address","internalType":"address"},{"name":"minPrice","type":"int256","internalType":"int256"},{"name":"maxPrice","type":"int256","internalType":"int256"}]}],"outputs":[],"stateMutability":"nonpayable"},{"type":"function","name":"getAccountInfo","inputs":[{"name":"account","type":"address","internalType":"address"}],"outputs":[{"name":"","type":"tuple","internalType":"struct IAccount.AccountInfo","components":[{"name":"owner","type":"address","internalType":"address"},{"name":"tokenBalances","type":"tuple[]","internalType":"struct Account.TokenBalance[]","components":[{"name":"amount","type":"uint256","internalType":"uint256"},{"name":"usedAmount","type":"uint256","internalType":"uint256"},{"name":"interest","type":"uint256","internalType":"uint256"},{"name":"liability","type":"uint256","internalType":"uint256"}]},{"name":"tokens","type":"address[]","internalType":"address[]"},{"name":"positions","type":"bytes32[]","internalType":"bytes32[]"},{"name":"portfolioNetValue","type":"uint256","internalType":"uint256"},{"name":"totalUsedValue","type":"uint256","internalType":"uint256"},{"name":"availableValue","type":"int256","internalType":"int256"},{"name":"orderHoldInUsd","type":"uint256","internalType":"uint256"},{"name":"crossMMR","type":"int256","internalType":"int256"},{"name":"crossNetValue","type":"int256","internalType":"int256"},{"name":"totalMM","type":"uint256","internalType":"uint256"}]}],"stateMutability":"view"},{"type":"function","name":"getAccountInfoWithOracles","inputs":[{"name":"account","type":"address","internalType":"address"},{"name":"oracles","type":"tuple[]","internalType":"struct OracleProcess.OracleParam[]","components":[{"name":"token","type":"address","internalType":"address"},{"name":"targetToken","type":"address","internalType":"address"},{"name":"minPrice","type":"int256","internalType":"int256"},{"name":"maxPrice","type":"int256","internalType":"int256"}]}],"outputs":[{"name":"","type":"tuple","internalType":"struct IAccount.AccountInfo","components":[{"name":"owner","type":"address","internalType":"address"},{"name":"tokenBalances","type":"tuple[]","internalType":"struct Account.TokenBalance[]","components":[{"name":"amount","type":"uint256","internalType":"uint256"},{"name":"usedAmount","type":"uint256","internalType":"uint256"},{"name":"interest","type":"uint256","internalType":"uint256"},{"name":"liability","type":"uint256","internalType":"uint256"}]},{"name":"tokens","type":"address[]","internalType":"address[]"},{"name":"positions","type":"bytes32[]","internalType":"bytes32[]"},{"name":"portfolioNetValue","type":"uint256","internalType":"uint256"},{"name":"totalUsedValue","type":"uint256","internalType":"uint256"},{"name":"availableValue","type":"int256","internalType":"int256"},{"name":"orderHoldInUsd","type":"uint256","internalType":"uint256"},{"name":"crossMMR","type":"int256","internalType":"int256"},{"name":"crossNetValue","type":"int256","internalType":"int256"},{"name":"totalMM","type":"uint256","internalType":"uint256"}]}],"stateMutability":"view"},{"type":"event","name":"AccountTokenUpdateEvent","inputs":[{"name":"account","type":"address","indexed":false,"internalType":"address"},{"name":"token","type":"address","indexed":false,"internalType":"address"},{"name":"preBalance","type":"tuple","indexed":false,"internalType":"struct Account.TokenBalance","components":[{"name":"amount","type":"uint256","internalType":"uint256"},{"name":"usedAmount","type":"uint256","internalType":"uint256"},{"name":"interest","type":"uint256","internalType":"uint256"},{"name":"liability","type":"uint256","internalType":"uint256"}]},{"name":"balance","type":"tuple","indexed":false,"internalType":"struct Account.TokenBalance","components":[{"name":"amount","type":"uint256","internalType":"uint256"},{"name":"usedAmount","type":"uint256","internalType":"uint256"},{"name":"interest","type":"uint256","internalType":"uint256"},{"name":"liability","type":"uint256","internalType":"uint256"}]},{"name":"source","type":"uint8","indexed":false,"internalType":"enum Account.UpdateSource"}],"anonymous":false},{"type":"event","name":"CancelWithdrawEvent","inputs":[{"name":"requestId","type":"uint256","indexed":true,"internalType":"uint256"},{"name":"data","type":"tuple","indexed":false,"internalType":"struct Withdraw.Request","components":[{"name":"account","type":"address","internalType":"address"},{"name":"token","type":"address","internalType":"address"},{"name":"amount","type":"uint256","internalType":"uint256"}]},{"name":"reasonCode","type":"bytes32","indexed":false,"internalType":"bytes32"}],"anonymous":false},{"type":"event","name":"CreateWithdrawEvent","inputs":[{"name":"requestId","type":"uint256","indexed":true,"internalType":"uint256"},{"name":"data","type":"tuple","indexed":false,"internalType":"struct Withdraw.Request","components":[{"name":"account","type":"address","internalType":"address"},{"name":"token","type":"address","internalType":"address"},{"name":"amount","type":"uint256","internalType":"uint256"}]}],"anonymous":false},{"type":"event","name":"Deposit","inputs":[{"name":"data","type":"tuple","indexed":false,"internalType":"struct AssetsProcess.DepositParams","components":[{"name":"account","type":"address","internalType":"address"},{"name":"token","type":"address","internalType":"address"},{"name":"amount","type":"uint256","internalType":"uint256"},{"name":"from","type":"uint8","internalType":"enum AssetsProcess.DepositFrom"},{"name":"isNativeToken","type":"bool","internalType":"bool"}]}],"anonymous":false},{"type":"event","name":"PositionUpdateEvent","inputs":[{"name":"requestId","type":"uint256","indexed":false,"internalType":"uint256"},{"name":"positionKey","type":"bytes32","indexed":false,"internalType":"bytes32"},{"name":"from","type":"uint8","indexed":false,"internalType":"enum Position.PositionUpdateFrom"},{"name":"position","type":"tuple","indexed":false,"internalType":"struct Position.Props","components":[{"name":"key","type":"bytes32","internalType":"bytes32"},{"name":"symbol","type":"bytes32","internalType":"bytes32"},{"name":"isLong","type":"bool","internalType":"bool"},{"name":"isCrossMargin","type":"bool","internalType":"bool"},{"name":"account","type":"address","internalType":"address"},{"name":"marginToken","type":"address","internalType":"address"},{"name":"indexToken","type":"address","internalType":"address"},{"name":"qty","type":"uint256","internalType":"uint256"},{"name":"entryPrice","type":"uint256","internalType":"uint256"},{"name":"leverage","type":"uint256","internalType":"uint256"},{"name":"initialMargin","type":"uint256","internalType":"uint256"},{"name":"initialMarginInUsd","type":"uint256","internalType":"uint256"},{"name":"initialMarginInUsdFromBalance","type":"uint256","internalType":"uint256"},{"name":"holdPoolAmount","type":"uint256","internalType":"uint256"},{"name":"positionFee","type":"tuple","internalType":"struct Position.PositionFee","components":[{"name":"closeFeeInUsd","type":"uint256","internalType":"uint256"},{"name":"openBorrowingFeePerToken","type":"uint256","internalType":"uint256"},{"name":"realizedBorrowingFee","type":"uint256","internalType":"uint256"},{"name":"realizedBorrowingFeeInUsd","type":"uint256","internalType":"uint256"},{"name":"openFundingFeePerQty","type":"int256","internalType":"int256"},{"name":"realizedFundingFee","type":"int256","internalType":"int256"},{"name":"realizedFundingFeeInUsd","type":"int256","internalType":"int256"}]},{"name":"realizedPnl","type":"int256","internalType":"int256"},{"name":"lastUpdateTime","type":"uint256","internalType":"uint256"}]},{"name":"settleData","type":"tuple","indexed":false,"internalType":"struct Position.SettleData","components":[{"name":"executePrice","type":"uint256","internalType":"uint256"},{"name":"openFee","type":"uint256","internalType":"uint256"},{"name":"marginTokenPrice","type":"uint256","internalType":"uint256"},{"name":"settledMargin","type":"int256","internalType":"int256"},{"name":"settledBorrowingFee","type":"uint256","internalType":"uint256"},{"name":"settledBorrowingFeeInUsd","type":"uint256","internalType":"uint256"},{"name":"settledFundingFee","type":"int256","internalType":"int256"},{"name":"settledFundingFeeInUsd","type":"int256","internalType":"int256"},{"name":"unHoldPoolAmount","type":"uint256","internalType":"uint256"},{"name":"closeFee","type":"uint256","internalType":"uint256"},{"name":"closeFeeInUsd","type":"uint256","internalType":"uint256"},{"name":"realizedPnl","type":"int256","internalType":"int256"},{"name":"poolPnlToken","type":"int256","internalType":"int256"}]}],"anonymous":false},{"type":"event","name":"WithdrawSuccessEvent","inputs":[{"name":"requestId","type":"uint256","indexed":true,"internalType":"uint256"},{"name":"data","type":"tuple","indexed":false,"internalType":"struct Withdraw.Request","components":[{"name":"account","type":"address","internalType":"address"},{"name":"token","type":"address","internalType":"address"},{"name":"amount","type":"uint256","internalType":"uint256"}]}],"anonymous":false},{"type":"error","name":"AccountNotExist","inputs":[]},{"type":"error","name":"AddressZero","inputs":[]},{"type":"error","name":"AmountNotMatch","inputs":[{"name":"amount1","type":"uint256","internalType":"uint256"},{"name":"amount2","type":"uint256","internalType":"uint256"}]},{"type":"error","name":"AmountZeroNotAllowed","inputs":[]},{"type":"error","name":"CollateralTotalCapOverflow","inputs":[{"name":"token","type":"address","internalType":"address"},{"name":"cap","type":"uint256","internalType":"uint256"}]},{"type":"error","name":"CollateralUserCapOverflow","inputs":[{"name":"token","type":"address","internalType":"address"},{"name":"cap","type":"uint256","internalType":"uint256"}]},{"type":"error","name":"InvalidRoleAccess","inputs":[{"name":"account","type":"address","internalType":"address"},{"name":"role","type":"bytes32","internalType":"bytes32"}]},{"type":"error","name":"OnlyCollateralSupported","inputs":[]},{"type":"error","name":"PriceIsZero","inputs":[]},{"type":"error","name":"TokenIsNotSupportCollateral","inputs":[]},{"type":"error","name":"TokenTransferError","inputs":[{"name":"token","type":"address","internalType":"address"},{"name":"receiver","type":"address","internalType":"address"},{"name":"amount","type":"uint256","internalType":"uint256"}]},{"type":"error","name":"TransferErrorWithVaultBalanceNotEnough","inputs":[{"name":"vault","type":"address","internalType":"address"},{"name":"token","type":"address","internalType":"address"},{"name":"receiver","type":"address","internalType":"address"},{"name":"amount","type":"uint256","internalType":"uint256"}]},{"type":"error","name":"WithdrawRequestNotExists","inputs":[]},{"type":"error","name":"WithdrawWithNoEnoughAmount","inputs":[]}],"bytecode":{"object":"0x6080604052348015600f57600080fd5b5061635d8061001f6000396000f3fe6080604052600436106100745760003560e01c806347e7ef241161004e57806347e7ef24146100e2578063750b5a19146100f55780637b510fe814610128578063abac56651461015557600080fd5b806302e9d19914610080578063115647f7146100a257806313874d37146100c257600080fd5b3661007b57005b600080fd5b34801561008c57600080fd5b506100a061009b36600461571e565b610175565b005b3480156100ae57600080fd5b506100a06100bd366004615769565b610230565b3480156100ce57600080fd5b506100a06100dd3660046157a3565b610259565b6100a06100f03660046157da565b6102b1565b34801561010157600080fd5b506101156101103660046157da565b61039d565b6040519081526020015b60405180910390f35b34801561013457600080fd5b50610148610143366004615806565b6103da565b60405161011f91906158f5565b34801561016157600080fd5b506101486101703660046159ca565b610567565b6101876525a2a2a822a960d11b61087f565b6000610192846108af565b80519091506001600160a01b03166101bd576040516324d9d15b60e01b815260040160405180910390fd5b6102188383808060200260200160405190810160405280939291908181526020016000905b8282101561020e576101ff60808302860136819003810190615a73565b815260200190600101906101e2565b505050505061091a565b6102228482610a95565b61022a610b2c565b50505050565b6102456102406020830183615806565b610b3e565b61025661025182615b79565b610b65565b50565b61026b6525a2a2a822a960d11b61087f565b6000610276836108af565b80519091506001600160a01b03166102a1576040516324d9d15b60e01b815260040160405180910390fd5b6102ac838284610cc0565b505050565b806000036102d257604051630b4fc37360e11b815260040160405180910390fd5b6001600160a01b038216158080156102ea5750813414155b1561031657604051630cca541d60e11b8152346004820152602481018390526044015b60405180910390fd5b8015801561032b575061032883610d2c565b51155b156103495760405163219fc4b560e11b815260040160405180910390fd5b6040805160a08101909152338082529061022a90602081018461036c5786610376565b6103746110ce565b515b6001600160a01b0316815260208101869052604001600081526020018415158152506114b9565b60006103a883610b3e565b816000036103c957604051630b4fc37360e11b815260040160405180910390fd5b6103d38383611710565b9392505050565b6103e26154fd565b60006103ed836117cb565b90506103f76154fd565b81546001600160a01b031661040d579392505050565b600061041883611841565b9050600081516001600160401b0381111561043557610435615a05565b60405190808252806020026020018201604052801561049157816020015b61047e6040518060800160405280600081526020016000815260200160008152602001600081525090565b8152602001906001900390816104535790505b50905060005b82518110156104f1576104cc8382815181106104b5576104b5615c6e565b60200260200101518661184f90919063ffffffff16565b8282815181106104de576104de615c6e565b6020908102919091010152600101610497565b5060006104fd856118cc565b60408051610160810182526001600160a01b0390991689526020890193909352918701929092526060860152505060006080840181905260a0840181905260c0840181905260019091015460e0840152610100830181905261012083018190526101408301525090565b61056f6154fd565b600061057a856117cb565b90506105846154fd565b81546001600160a01b031661059c5791506103d39050565b60006105a783611841565b9050600081516001600160401b038111156105c4576105c4615a05565b60405190808252806020026020018201604052801561062057816020015b61060d6040518060800160405280600081526020016000815260200160008152602001600081525090565b8152602001906001900390816105e25790505b50905060005b8251811015610669576106448382815181106104b5576104b5615c6e565b82828151811061065657610656615c6e565b6020908102919091010152600101610626565b5060008060006106d48a8a808060200260200160405190810160405280939291908181526020016000905b828210156106c0576106b160808302860136819003810190615a73565b81526020019060010190610694565b5050505050886118da90919063ffffffff16565b92509250925060006107418b8b808060200260200160405190810160405280939291908181526020016000905b8282101561072d5761071e60808302860136819003810190615a73565b81526020019060010190610701565b50505050508961198490919063ffffffff16565b90506040518061016001604052808d6001600160a01b031681526020018681526020018781526020016107738a6118cc565b81526020016107dd8d8d808060200260200160405190810160405280939291908181526020016000905b828210156107c9576107ba60808302860136819003810190615a73565b8152602001906001019061079d565b50505050508b611a2d90919063ffffffff16565b81526020016108478d8d808060200260200160405190810160405280939291908181526020016000905b828210156108335761082460808302860136819003810190615a73565b81526020019060010190610807565b50505050508b611b2c90919063ffffffff16565b8152602081019290925260019098015460408201526060810193909352608083019190915260a0909101525091925050509392505050565b6108893382611c16565b61025657604051632d7d0e0d60e21b81523360048201526024810182905260440161030d565b60408051606081018252600080825260208201819052918101829052906108d4611c4e565b60009384526020908152604093849020845160608101865281546001600160a01b0390811682526001830154169281019290925260020154938101939093525090919050565b6000610924611cb0565b905060005b82518110156102ac5760006001600160a01b031683828151811061094f5761094f615c6e565b6020026020010151602001516001600160a01b0316036109ee576109e983828151811061097e5761097e615c6e565b60200260200101516000015160405180604001604052808685815181106109a7576109a7615c6e565b60200260200101516040015181526020018685815181106109ca576109ca615c6e565b60200260200101516060015181525084611cf49092919063ffffffff16565b610a8d565b610a8d838281518110610a0357610a03615c6e565b602002602001015160000151848381518110610a2157610a21615c6e565b6020026020010151602001516040518060400160405280878681518110610a4a57610a4a615c6e565b6020026020010151604001518152602001878681518110610a6d57610a6d615c6e565b60200260200101516060015181525085611d3c909392919063ffffffff16565b600101610929565b610ae782604051806080016040528060006001600160a01b0316815260200184600001516001600160a01b0316815260200184602001516001600160a01b031681526020018460400151815250611db9565b610af082611f80565b817fc4e976a134dcf8b2c86c17fbc5948d41ccdeb38bb09ec5ea9da10fd037a5c69582604051610b209190615c84565b60405180910390a25050565b610b3c610b37611cb0565b611fb8565b565b6001600160a01b03811661025657604051639fabe1c160e01b815260040160405180910390fd5b6000610b7482600001516117cb565b9050610b7f816120af565b60005b8260200151518110156102ac5782604001518181518110610ba557610ba5615c6e565b602002602001015160000315610cb857600083604001518281518110610bcd57610bcd615c6e565b60200260200101511315610c6057610c2a83602001518281518110610bf457610bf4615c6e565b6020026020010151610c2285604001518481518110610c1557610c15615c6e565b60200260200101516120d7565b84919061212d565b610c5a83602001518281518110610c4357610c43615c6e565b60200260200101518361213a90919063ffffffff16565b50610cb8565b610cb883602001518281518110610c7957610c79615c6e565b6020026020010151610cb085604001518481518110610c9a57610c9a615c6e565b6020026020010151610cab90615cc9565b6120d7565b849190612148565b600101610b82565b610cc983611f80565b6040805183516001600160a01b03908116825260208086015190911690820152838201518183015260608101839052905184917f35ed67f16a690b1b045bc38672a55a66db3dfcfeb0f4a0136fd3a08f2d1982a6919081900360800190a2505050565b610d34615560565b610d3c615560565b600080604051602001610d759060208082526012908201527154524144455f544f4b454e5f434f4e46494760701b604082015260600190565b60408051601f1981840301815291905280516020909101209050610d9a828287612155565b610da75750909392505050565b610e4c8186604051602001610de5906020808252601590820152741254d7d4d5541413d49517d0d3d313105511549053605a1b604082015260600190565b60405160208183030381529060405280519060200120604051602001610e27939291909283526001600160a01b03919091166020830152604082015260600190565b604051602081830303815290604052805190602001208361216f90919063ffffffff16565b15158352604051610eec9082908790610e8590602001602080825260099082015268282922a1a4a9a4a7a760b91b604082015260600190565b60405160208183030381529060405280519060200120604051602001610ec7939291909283526001600160a01b03919091166020830152604082015260600190565b604051602081830303815290604052805190602001208361218890919063ffffffff16565b836020018181525050610f268186604051602001610e8590602080825260089082015267111254d0d3d5539560c21b604082015260600190565b836040018181525050610f6b8186604051602001610e85906020808252601390820152720434f4c4c41544552414c5f555345525f43415606c1b604082015260600190565b6060840152604051610fb09082908790610e85906020016020808252601490820152730434f4c4c41544552414c5f544f54414c5f4341560641b604082015260600190565b6080840152604051610ff39082908790610e859060200160208082526012908201527104c494142494c4954595f555345525f4341560741b604082015260600190565b60a08401526040516110379082908790610e859060200160208082526013908201527204c494142494c4954595f544f54414c5f43415606c1b604082015260600190565b60c084015260405161107c9082908790610e859060200160208082526014908201527324a72a22a922a9aa2fa920aa22afa320a1aa27a960611b604082015260600190565b60e08401526040516110bf9082908790610e85906020016020808252601290820152712624a8aaa4a220aa24a7a72fa320a1aa27a960711b604082015260600190565b61010084015250909392505050565b61112660405180610120016040528060006001600160a01b0316815260200160008152602001600081526020016000815260200160008152602001600081526020016000815260200160008152602001600081525090565b600080604051602001611159906020808252600c908201526b434841494e5f434f4e46494760a01b604082015260600190565b6040516020818303038152906040528051906020012090506111fb816040516020016111a6906020808252600d908201526c2ba920a82822a92faa27a5a2a760991b604082015260600190565b604051602081830303815290604052805190602001206040516020016111d6929190918252602082015260400190565b604051602081830303815290604052805190602001208361219b90919063ffffffff16565b6001600160a01b03168352604051611272908290611242906020016020808252601290820152711352539517d1d054d7d1915157d31253525560721b604082015260600190565b60405160208183030381529060405280519060200120604051602001610ec7929190918252602082015260400190565b8360200181815250506112b7816040516020016112429060208082526014908201527314915111515357d1d054d7d1915157d31253525560621b604082015260600190565b836040018181525050611310816040516020016112429060208082526022908201527f504c4143455f494e4352454153455f4f524445525f4741535f4645455f4c494d604082015261125560f21b606082015260800190565b60608401526040516113679082906112429060200160208082526022908201527f504c4143455f44454352454153455f4f524445525f4741535f4645455f4c494d604082015261125560f21b606082015260800190565b60808401526040516113c09082906112429060200160208082526024908201527f504f534954494f4e5f5550444154455f4d415247494e5f4741535f4645455f4c6040820152631253525560e21b606082015260800190565b60a084015260405161141b9082906112429060200160208082526026908201527f504f534954494f4e5f5550444154455f4c455645524147455f4741535f46454560408201526517d31253525560d21b606082015260800190565b60c08401526040516114609082906112429060200160208082526016908201527515d2551211149055d7d1d054d7d1915157d31253525560521b604082015260600190565b60e08401526040516114ac908290611242906020016020808252601b908201527f434c41494d5f524557415244535f4741535f4645455f4c494d49540000000000604082015260600190565b6101008401525090919050565b60006114c4826121ba565b905060006114d58360000151612455565b9050826060015160038111156114ed576114ed615c58565b6000036116035760006114ff83610d2c565b8051909150611521576040516357f7ff6360e11b815260040160405180910390fd5b600061152b612492565b6001600160a01b038516600090815260048201602052604081205491925050826080015186604001518261155f9190615ce5565b1115611596576080830151604051633bdc32ad60e21b81526001600160a01b0387166004820152602481019190915260440161030d565b60608301516001600160a01b038616600090815260048601602052604090205411156115ed576060830151604051630bedee1d60e41b81526001600160a01b0387166004820152602481019190915260440161030d565b60408601516115ff90839087906124f5565b5050505b80546001600160a01b031661162f57825181546001600160a01b0319166001600160a01b039091161781555b604083015161164390829084906001612529565b8260600151600381111561165957611659615c58565b6000036116d457600061166c828461213a565b905080846040015111156116d25760006116a57f0a71df90d32c96273f303e05979f37d082fed3a770e0495390df72b0c7014b4c612600565b90506116d0818660000151866116c9868a604001516116c49190615cf8565b612660565b60006126ca565b505b505b7fa32eafdee495ed40909e9bb83195b776d67b1b4cfe59fab752e4018337e10e2f836040516117039190615d0b565b60405180910390a1505050565b60008061173c7f89ef89e838fe357e10066d373fa76b37475e475e31d74264268a64d3a0e5cd83612600565b90506000611749826127a1565b80546001600160a01b03199081163390811783556001830180546001600160a01b038a169316831790556002830187905560408051918252602082019290925290810186905290915082907f2d980c7b226403b42cd637658fa45806fc099a0bdcd63807557d9b3ef4f4ab2e9060600160405180910390a25090505b92915050565b60008082604051602001611822919060408082526018908201527f78797a2e656c66692e73746f726167652e4163636f756e74000000000000000060608201526001600160a01b0391909116602082015260800190565b60408051601f1981840301815291905280516020909101209392505050565b60606117c5826002016127bd565b61187a6040518060800160405280600081526020016000815260200160008152602001600081525090565b506001600160a01b031660009081526004919091016020908152604091829020825160808101845281548152600182015492810192909252600281015492820192909252600390910154606082015290565b60606117c5826005016127bd565b6000806000806118ea8686611a2d565b905060006118f88787611b2c565b9050600061190688886127ca565b9050600061191a8285858c6001015461299d565b9050600082606001511161193f5760008183606001519650965096505050505061197d565b600081131561196a576119656116c4611957836120d7565b8460600151620186a06129eb565b61196d565b60005b6060909201519196509450925050505b9250925092565b6000806119918484611a2d565b90506000806119a086866129f8565b9150915060006119b087876127ca565b90506119c58282604001516116c49190615ce5565b8151600013156119d65781516119d9565b60005b6119e285612660565b611a048a600101548560200151896119fa9190615ce5565b6116c49190615ce5565b611a0e9190615d64565b611a189190615d84565b611a229190615d64565b979650505050505050565b6000806000611a3b85611841565b905060005b8151811015611b2257611a6b828281518110611a5e57611a5e615c6e565b6020026020010151610d2c565b5115611b1a576000866004016000848481518110611a8b57611a8b615c6e565b60200260200101516001600160a01b03166001600160a01b031681526020019081526020016000206040518060800160405290816000820154815260200160018201548152602001600282015481526020016003820154815250509050611b16611b0f848481518110611b0057611b00615c6e565b60200260200101518389612b2d565b8590612b91565b9350505b600101611a40565b5090949350505050565b6000806000611b3a85611841565b905060005b8151811015611bf1576000866004016000848481518110611b6257611b62615c6e565b60200260200101516001600160a01b03166001600160a01b031681526020019081526020016000206040518060800160405290816000820154815260200160018201548152602001600282015481526020016003820154815250509050611be6611b0f848481518110611bd757611bd7615c6e565b60200260200101518389612b9d565b935050600101611b3f565b50600185015415611c0e576001850154611c0b9083615ce5565b91505b509392505050565b600080611c21612c17565b6001600160a01b0385166000908152602082905260409020909150611c469084612c5b565b949350505050565b600080604051602001611c929060208082526019908201527f78797a2e656c66692e73746f726167652e576974686472617700000000000000604082015260600190565b60408051601f19818403018152919052805160209091012092915050565b600080604051602001611c92906020808252601c908201527f78797a2e656c66692e73746f726167652e4f7261636c65507269636500000000604082015260600190565b611cfe8383612c73565b611d0e57611d0c8383612c95565b505b6001600160a01b03909116600090815260029092016020908152604090922081518155910151600190910155565b604080516001600160a01b038581166020808401919091529085168284015282518083038401815260609092019092528051910120611d7e6004860182612c5b565b611d9157611d8f6004860182612caa565b505b6000908152600690940160209081526040909420815181559301516001909301929092555050565b8060600151600003611dde57604051630b4fc37360e11b815260040160405180910390fd5b611deb8160400151610d2c565b51611e095760405163219fc4b560e11b815260040160405180910390fd5b6000611e1882602001516117cb565b90508160600151611e368360400151836124d690919063ffffffff16565b1015611e5557604051634358e5dd60e11b815260040160405180910390fd5b6000611e6683604001516000612cb6565b90506000611e886116c48560600151611e828760400151612cdb565b85612d3f565b9050611e9383612d6e565b8015611ea6575080611ea484612e66565b125b15611ec457604051634358e5dd60e11b815260040160405180910390fd5b60408401516060850151611edb9185916002612e74565b611f54306001600160a01b0316631f7592ea6040518163ffffffff1660e01b8152600401602060405180830381865afa158015611f1c573d6000803e3d6000fd5b505050506040513d601f19601f82011682018060405250810190611f409190615dac565b856040015186602001518760600151612fed565b50611f798585602001518660400151611f708860600151612660565b6116c990615cc9565b5050505050565b6000611f8a611c4e565b6000928352602052506040812080546001600160a01b03199081168255600182018054909116905560020155565b6000611fc3826127bd565b905060005b81518110156102ac57826002016000838381518110611fe957611fe9615c6e565b60200260200101516001600160a01b03166001600160a01b031681526020019081526020016000206000808201600090556001820160009055505082600301600083838151811061203c5761203c615c6e565b60200260200101516001600160a01b03166001600160a01b03168152602001908152602001600020600080820160009055600182016000905550506120a682828151811061208c5761208c615c6e565b602002602001015184600001612ffd90919063ffffffff16565b50600101611fc8565b80546001600160a01b031661025657604051633902b86b60e11b815260040160405180910390fd5b6000808212156121295760405162461bcd60e51b815260206004820181905260248201527f53616665436173743a2076616c7565206d75737420626520706f736974697665604482015260640161030d565b5090565b6102ac8383836000612529565b60006103d383836000613012565b6102ac8383836000613145565b6000828152600c840160205260408120611c469083612c73565b6000908152600391909101602052604090205460ff1690565b6000908152602091909152604090205490565b600090815260029190910160205260409020546001600160a01b031690565b6000803090506000836060015160038111156121d8576121d8615c58565b15806121f95750836060015160038111156121f5576121f5615c58565b6003145b1561226757816001600160a01b0316631f7592ea6040518163ffffffff1660e01b8152600401602060405180830381865afa15801561223c573d6000803e3d6000fd5b505050506040513d601f19601f820116820180604052508101906122609190615dac565b9050612344565b8360600151600381111561227d5761227d615c58565b6001036122c257816001600160a01b03166397e7b7f26040518163ffffffff1660e01b8152600401602060405180830381865afa15801561223c573d6000803e3d6000fd5b836060015160038111156122d8576122d8615c58565b60020361234457816001600160a01b03166308ba026f6040518163ffffffff1660e01b8152600401602060405180830381865afa15801561231d573d6000803e3d6000fd5b505050506040513d601f19601f820116820180604052508101906123419190615dac565b90505b602084015160808501511561243857600061235d6110ce565b60000151905085602001516001600160a01b0316816001600160a01b0316146123c85760405162461bcd60e51b815260206004820152601960248201527f4465706f736974207769746820746f6b656e206572726f722100000000000000604482015260640161030d565b806001600160a01b031663d0e30db087604001516040518263ffffffff1660e01b81526004016000604051808303818588803b15801561240757600080fd5b505af115801561241b573d6000803e3d6000fd5b50505050508091506124328284886040015161329e565b50611c46565b84516040860151611c46916001600160a01b0384169185906132f6565b600080612461836117cb565b80549091506001600160a01b03166117c55780546001600160a01b0319166001600160a01b03841617815592915050565b600080604051602001611c92906020808252601b908201527f78797a2e656c66692e73746f726167652e436f6d6d6f6e446174610000000000604082015260600190565b6001600160a01b03166000908152600491909101602052604090205490565b6001600160a01b03821660009081526004840160205260408120805483929061251f908490615ce5565b9091555050505050565b6125366002850184612c73565b612549576125476002850184612c95565b505b6001600160a01b038316600090815260048501602090815260408083208151608081018352815480825260018301549482019490945260028201549281019290925260038101546060830152929091859184916125a7908490615ce5565b909155505085546040517f1d59acd5f3bb87326c498fe747e339bda33b5370b6f8df63a48f232d73efb748916125f0916001600160a01b03909116908890859087908990615ddd565b60405180910390a1505050505050565b60008061260b613350565b60008481526020829052604090205490915061045781101561263b576126346104576001615ce5565b9050612649565b8061264581615e63565b9150505b600093845260209190915260409092208290555090565b60006001600160ff1b038211156121295760405162461bcd60e51b815260206004820152602860248201527f53616665436173743a2076616c756520646f65736e27742066697420696e2061604482015267371034b73a191a9b60c11b606482015260840161030d565b8115611f795760006126e36126de866117cb565b6118cc565b90508260005b825181101561279757600061271484838151811061270957612709615c6e565b602002602001015190565b60038101549091506001600160a01b03888116911614801561273f57506002810154610100900460ff165b1561278e5760006127586116c483845489148d8b613394565b9050600087136127715761276c8185615d84565b61277b565b61277b8185615d64565b93508360000361278c575050612797565b505b506001016126e9565b5050505050505050565b6000806127ac611c4e565b600093845260205250506040902090565b606060006103d3836134d9565b6128036040518060c001604052806000815260200160008152602001600081526020016000815260200160008152602001600081525090565b61280c836120af565b6000612819846001613535565b90506000612825613752565b60a00151905060005b825181101561299457600083828151811061284b5761284b615c6e565b60200260200101519050600061286a878360c001518460400151613d7f565b9050600061287b8360200151613e23565b9050600061288c848a8560006140f8565b905060008113156128cb576128c46128bc826128b76128ae8860a00151610d2c565b60400151612660565b614121565b895190614142565b88526128f7565b6128f46128bc826128b76128e28860a00151610d2c565b61010001516116c490620186a0615ce5565b88525b61291861290d8560e0015184600001518961414e565b60608a015190612b91565b6060890152610160840151602089015161293191612b91565b6020890152610180840151604089015161294a91612b91565b604089015260e084015160a089015161296291612b91565b60a089015261297f612974858b614171565b60808a015190614142565b608089015250506001909201915061282e9050565b50505092915050565b600084608001516129ad84612660565b865160208801516129c49086906119fa908a615ce5565b6129ce9190615d84565b6129d89190615d64565b6129e29190615d64565b95945050505050565b6000611c46848385614470565b6000806000806000612a0987611841565b905060005b8151811015612af0576000886004016000848481518110612a3157612a31615c6e565b60200260200101516001600160a01b03166001600160a01b031681526020019081526020016000206040518060800160405290816000820154815260200160018201548152602001600282015481526020016003820154815250509050612abc612ab5848481518110612aa657612aa6615c6e565b6020026020010151838b612b9d565b8690612b91565b9450612ae5611b0f848481518110612ad657612ad6615c6e565b6020026020010151838b61455a565b935050600101612a0e565b50600187015415612b1f576001870154612b0a9084615ce5565b9250866001015482612b1c9190615ce5565b91505b5090925090505b9250929050565b60008260200151836000015111612b46575060006103d3565b6000612b7984602001518560000151612b5f9190615cf8565b612b6887612cdb565b612b74868960016145b5565b612d3f565b90506129e281612b8887610d2c565b60400151614617565b60006103d38284615ce5565b60008260000151836020015111612bb6575060006103d3565b6000612bcf84600001518560200151612b5f9190615cf8565b90506000612bdc86610d2c565b61010001511115612c1057612bfe81612bf487610d2c565b6101000151614617565b612c089082615ce5565b9150506103d3565b90506103d3565b600080604051602001611c92906020808252601e908201527f78797a2e656c66692e73746f726167652e416363657373436f6e74726f6c0000604082015260600190565b600081815260018301602052604081205415156103d3565b6001600160a01b038116600090815260018301602052604081205415156103d3565b60006103d3836001600160a01b038416614627565b60006103d38383614627565b600080612cc284614676565b905082612cd3578060200151611c46565b519392505050565b6000816001600160a01b031663313ce5676040518163ffffffff1660e01b8152600401602060405180830381865afa158015612d1b573d6000803e3d6000fd5b505050506040513d601f19601f820116820180604052508101906117c59190615e7c565b6000611c46612d4f84600a615f83565b612d686402540be400612d628887614709565b90614709565b90614715565b6000612d7982614721565b15612d8657506001919050565b6000612d91836147a6565b90506000612d9d6147b4565b905060005b8251811015612dfe57612dd7838281518110612dc057612dc0615c6e565b6020026020010151836147f190919063ffffffff16565b60020154640100000000900460ff1615612df657506001949350505050565b600101612da2565b506000612e0a856118cc565b905060005b8151811015612e5a576000612e2f83838151811061270957612709615c6e565b6002810154909150610100900460ff1615612e51575060019695505050505050565b50600101612e0f565b50600095945050505050565b600060606103d38382611984565b612e816002850184612c73565b612ec15760405162461bcd60e51b8152602060048201526011602482015270746f6b656e206e6f74206578697374732160781b604482015260640161030d565b6001600160a01b0383166000908152600485016020526040902054821115612f265760405162461bcd60e51b8152602060048201526018602482015277746f6b656e20616d6f756e74206e6f7420656e6f7567682160401b604482015260640161030d565b6001600160a01b03831660008181526004860160208181526040808420815160808101835281548082526001830154828601526002830154938201939093526003820154606082015295855292909152859290612f84908490615cf8565b909155505084546001600160a01b0385811660009081526004880160205260409081902090517f1d59acd5f3bb87326c498fe747e339bda33b5370b6f8df63a48f232d73efb74893612fde93169188918691908890615ddd565b60405180910390a15050505050565b60006129e2858585856000614803565b60006103d3836001600160a01b03841661494d565b6001600160a01b0382166000908152600484016020526040812060038101541580159061303f5750805415155b15611c0e57604080516080810182528254808252600184015460208301526002840154928201929092526003830154606082018190529091101561308457815461308a565b81600301545b9250828260000160008282546130a09190615cf8565b92505081905550828260030160008282546130bb9190615cf8565b92505081905550828260010160008282546130d69190615cf8565b909155506130f0905085846130e9612492565b9190614a47565b85546040517f1d59acd5f3bb87326c498fe747e339bda33b5370b6f8df63a48f232d73efb74891613134916001600160a01b03909116908890859087908a90615ddd565b60405180910390a150509392505050565b6131526002850184612c73565b6131925760405162461bcd60e51b8152602060048201526011602482015270746f6b656e206e6f74206578697374732160781b604482015260640161030d565b6001600160a01b03831660009081526004850160205260409020548211156131f75760405162461bcd60e51b8152602060048201526018602482015277746f6b656e20616d6f756e74206e6f7420656e6f7567682160401b604482015260640161030d565b6001600160a01b0383166000908152600485016020526040902060010154613220908390615ce5565b6001600160a01b03841660009081526004860160205260409020541015612f265760405162461bcd60e51b815260206004820152602c60248201527f746f6b656e20616d6f756e74206578636c756465207573656420616d6f756e7460448201526b206e6f7420656e6f7567682160a01b606482015260840161030d565b806000036132ab57505050565b60006132bc84848462030d40614ae9565b90508061022a5760405163012f3b8f60e71b81526001600160a01b038086166004830152841660248201526044810183905260640161030d565b604080516001600160a01b0385811660248301528416604482015260648082018490528251808303909101815260849091019091526020810180516001600160e01b03166323b872dd60e01b17905261022a908590614be3565b600080604051602001611c92906020808252601c908201527f78797a2e656c66692e73746f726167652e5575696443726561746f7200000000604082015260600190565b600084600a0154856009015414806133aa575081155b156133b757506000611c46565b600082131561343b5760006133e68660090154612d68886008015489600a01548a60090154612d629190615cf8565b90506133fb816133f5856120d7565b90614cb8565b915061341c8660080154612d6888600901548561470990919063ffffffff16565b86600a01600082825461342f9190615ce5565b909155506134b9915050565b600061345a8660080154612d688860090154612d6287610cab90615cc9565b90508086600a01541161348e576000600a87018190556009870154600888015461348792612d6891614709565b91506134b7565b8086600a0160008282546134a29190615cf8565b909155506134b49050610cab84615cc9565b91505b505b8380156134c65750600081115b15611c4657611c46858460086000614cce565b60608160000180548060200260200160405190810160405280929190818152602001828054801561352957602002820191906000526020600020905b815481526020019060010190808311613515575b50505050509050919050565b60606000613542846118cc565b905060006135508285614e10565b6001600160401b0381111561356757613567615a05565b6040519080825280602002602001820160405280156135a057816020015b61358d6155ae565b8152602001906001900390816135855790505b5090506000805b83518110156137475760006135c785838151811061270957612709615c6e565b6040805161022081018252825481526001830154602080830191909152600284015460ff808216151584860152610100808304909116151560608086019182526001600160a01b036201000090940484166080808801919091526003890154851660a08089019190915260048a015490951660c08089019190915260058a015460e0808a019190915260068b01549589019590955260078a015461012089015260088a015461014089015260098a0154610160890152600a8a0154610180890152600b8a01546101a089015288519485018952600c8a01548552600d8a015496850196909652600e89015497840197909752600f880154908301526010870154958201959095526011860154918101919091526012850154918101919091526101c082015260138301546101e0820152601490920154610200830152519091508715159015150361373e578084848151811061372557613725615c6e565b602090810291909101015261373b600184615ce5565b92505b506001016135a7565b509095945050505050565b6137d2604051806102000160405280606081526020016060815260200160008152602001600081526020016000815260200160008152602001600081526020016000815260200160008152602001600081526020016000815260200160008152602001600081526020016000815260200160008152602001600081525090565b600080604051602001613805906020808252600c908201526b54524144455f434f4e46494760a01b604082015260600190565b6040516020818303038152906040528051906020012090506138a681604051602001613851906020808252600c908201526b54524144455f544f4b454e5360a01b604082015260600190565b60405160208183030381529060405280519060200120604051602001613881929190918252602082015260400190565b6040516020818303038152906040528051906020012083614f9d90919063ffffffff16565b808452516001600160401b038111156138c1576138c1615a05565b6040519080825280602002602001820160405280156138fa57816020015b6138e7615560565b8152602001906001900390816138df5790505b50602084015260005b83515181101561394f5761392684600001518281518110611a5e57611a5e615c6e565b8460200151828151811061393c5761393c615c6e565b6020908102919091010152600101613903565b5061398c816040516020016112429060208082526014908201527313525397d3d491115497d3505491d25397d554d160621b604082015260600190565b8360400181815250506139da81604051602001611242906020808252601a908201527f415641494c41424c455f434f4c4c41544552414c5f524154494f000000000000604082015260600190565b6060840152604051613a18908290611242906020016020808252600f908201526e10d493d4d4d7d3151597d312535255608a1b604082015260600190565b6080840152604051613a64908290611242906020016020808252601b908201527f4d41585f4d41494e54454e414e43455f4d415247494e5f524154450000000000604082015260600190565b60a0840152604051613aa89082906112429060200160208082526015908201527446554e44494e475f4645455f424153455f5241544560581b604082015260600190565b60c0840152604051613aec908290611242906020016020808252601590820152744d41585f46554e44494e475f424153455f5241544560581b604082015260600190565b60e0840152604051613b429082906112429060200160208082526021908201527f54524144494e475f4645455f5354414b494e475f524557415244535f524154496040820152604f60f81b606082015260800190565b610100840152604051613b8f908290611242906020016020808252601e908201527f54524144494e475f4645455f504f4f4c5f524557415244535f524154494f0000604082015260600190565b610120840152604051613be79082906112429060200160208082526022908201527f54524144494e475f4645455f5553445f504f4f4c5f524557415244535f524154604082015261494f60f01b606082015260800190565b610140840152604051613c409082906112429060200160208082526023908201527f424f52524f57494e475f4645455f5354414b494e475f524557415244535f524160408201526254494f60e81b606082015260800190565b610160840152604051613c8b908290611242906020016020808252818101527f424f52524f57494e475f4645455f504f4f4c5f524557415244535f524154494f604082015260600190565b610180840152604051613cd89082906112429060200160208082526019908201527f4155544f5f5245445543455f50524f4649545f464143544f5200000000000000604082015260600190565b6101a0840152604051613d25908290611242906020016020808252601c908201527f4155544f5f5245445543455f4c49515549444954595f464143544f5200000000604082015260600190565b6101c0840152604051613d729082906112429060200160208082526019908201527f535741505f534c49505045525f544f4b454e5f464143544f5200000000000000604082015260600190565b6101e08401525090919050565b6000805b8451811015613e1857836001600160a01b0316858281518110613da857613da8615c6e565b6020026020010151600001516001600160a01b031603613e105782613dea57848181518110613dd957613dd9615c6e565b602002602001015160600151612c08565b848181518110613dfc57613dfc615c6e565b6020026020010151604001519150506103d3565b600101613d83565b50611c468383612cb6565b613e2b615695565b613e33615695565b600080604051602001613e67906020808252600d908201526c53594d424f4c5f434f4e46494760981b604082015260600190565b60408051601f1981840301815291905280516020909101209050613e8c82828761500c565b613e995750909392505050565b613f038186604051602001613ece906020808252600c908201526b4d41585f4c4556455241474560a01b604082015260600190565b60408051601f198184030181528282528051602091820120908301949094528101919091526060810191909152608001610ec7565b8352604051613f3a9082908790613ece906020016020808252600990820152685449434b5f53495a4560b81b604082015260600190565b836020018181525050613f798186604051602001613ece906020808252600d908201526c4f50454e5f4645455f5241544560981b604082015260600190565b836040018181525050613fb98186604051602001613ece906020808252600e908201526d434c4f53455f4645455f5241544560901b604082015260600190565b60608401526040516140079082908790613ece906020016020808252601a908201527f4d41585f4c4f4e475f4f50454e5f494e5445524553545f434150000000000000604082015260600190565b60808401526040516140559082908790613ece906020016020808252601b908201527f4d41585f53484f52545f4f50454e5f494e5445524553545f4341500000000000604082015260600190565b60a084015260405161409c9082908790613ece906020016020808252601690820152751313d391d7d4d213d49517d490551253d7d31253525560521b604082015260600190565b60c08401526040516140ea9082908790613ece906020016020808252601a908201527f4c4f4e475f53484f52545f4f495f424f54544f4d5f4c494d4954000000000000604082015260600190565b60e084015250909392505050565b6000806000614108878787615026565b91509150836141175780611a22565b5095945050505050565b60006103d3614132620186a0612660565b61413c8585615117565b90615123565b60006103d38284615d84565b6000611c4661415d8584614617565b6133f58661416c876002614709565b61512f565b60006141b66040518060e001604052806000815260200160008152602001600060ff168152602001600081526020016000815260200160008152602001600081525090565b6141c88460200151856040015161513f565b606082015260e08401516141fd906141df90612660565b856101c001516080015183606001516141f89190615d64565b615167565b608082015260a084015161421090612cdb565b60ff16604080830191909152840151156142645761424981608001518260400151614244868860a001518960400151613d7f565b61517d565b846101c0015160c0015161425d9190615d84565b8152614280565b8060800151846101c0015160c0015161427d9190615d84565b81525b600061428f85602001516151ab565b6040805160c08101909152815481526001820154909190602083019060ff1660038111156142bf576142bf615c58565b60038111156142d0576142d0615c58565b815260018201546001600160a01b0361010090910481166020830152600283015481166040830152600383015416606082015260048201805460809092019161431890615f92565b80601f016020809104026020016040519081016040528092919081815260200182805461434490615f92565b80156143915780601f1061436657610100808354040283529160200191614391565b820191906000526020600020905b81548152906001019060200180831161437457829003601f168201915b50505050508152505090506143b3816040015186604001518760a001516151f6565b60a08301526101408501516101208601516143fd916143df916143da90620186a090615cf8565b614617565b866101c00151602001518460a001516143f89190615cf8565b615249565b8260c00181815250506144268260c001518360400151612b74878960a001518a604001516145b5565b856101c001516060015161443a9190615ce5565b6020830181905261444a90612660565b82516101c08701515161445c90612660565b6144669190615d84565b6129e29190615d84565b60008080600019858709858702925082811083820303915050806000036144aa578382816144a0576144a0615fcc565b04925050506103d3565b8084116144f15760405162461bcd60e51b81526020600482015260156024820152744d6174683a206d756c446976206f766572666c6f7760581b604482015260640161030d565b60008486880960026001871981018816978890046003810283188082028403028082028403028082028403028082028403028082028403029081029092039091026000889003889004909101858311909403939093029303949094049190911702949350505050565b8151606083015160208401516000929161457391615cf8565b11614580575060006103d3565b825160608401516020850151611c46929161459a91615cf8565b6145a49190615cf8565b6145ad86612cdb565b612b74858860015b6000805b8451811015613e1857836001600160a01b03168582815181106145de576145de615c6e565b6020026020010151600001516001600160a01b03160361460f5782613dea57848181518110613dd957613dd9615c6e565b6001016145b9565b60006103d38383620186a0614470565b600081815260018301602052604081205461466e575081546001818101845560008481526020808220909301849055845484825282860190935260409020919091556117c5565b5060006117c5565b60408051808201909152600080825260208201526000614694611cb0565b604080518082018252600080825260209182018190526001600160a01b038716815260028401825282902082518084019093528054808452600190910154918301919091529192509015806146eb57506020810151155b156103d35760405163907adecd60e01b815260040160405180910390fd5b60006103d38284615fe2565b60006103d38284615ff9565b600080614730836002016127bd565b905060005b815181101561479c57600084600401600084848151811061475857614758615c6e565b60200260200101516001600160a01b03166001600160a01b03168152602001908152602001600020600301541115614794575060019392505050565b600101614735565b5060009392505050565b60606117c5826007016127bd565b600080604051602001611c92906020808252601690820152753c3cbd1732b633349739ba37b930b3b29727b93232b960511b604082015260600190565b60009081526020919091526040902090565b600082600003614815575060006129e2565b6040516370a0823160e01b81526001600160a01b038781166004830152600091908716906370a0823190602401602060405180830381865afa15801561485f573d6000803e3d6000fd5b505050506040513d601f19601f82011682018060405250810190614883919061600d565b90508381106149005760405163078d3b7960e01b81526001600160a01b03878116600483015286811660248301526044820186905288169063078d3b7990606401600060405180830381600087803b1580156148de57600080fd5b505af11580156148f2573d6000803e3d6000fd5b5050505060019150506129e2565b8261494057604051635ac09ed760e11b81526001600160a01b0380891660048301528088166024830152861660448201526064810185905260840161030d565b5060009695505050505050565b60008181526001830160205260408120548015614a36576000614971600183615cf8565b855490915060009061498590600190615cf8565b90508181146149ea5760008660000182815481106149a5576149a5615c6e565b90600052602060002001549050808760000184815481106149c8576149c8615c6e565b6000918252602080832090910192909255918252600188019052604090208390555b85548690806149fb576149fb616026565b6001900381819060005260206000200160009055905585600101600086815260200190815260200160002060009055600193505050506117c5565b60009150506117c5565b5092915050565b6001600160a01b0382166000908152600684016020526040902054811115614abf5760405162461bcd60e51b815260206004820152602560248201527f737562546f6b656e4c696162696c697479206c657373207468616e206c696162604482015264696c69747960d81b606482015260840161030d565b6001600160a01b03821660009081526006840160205260408120805483929061251f908490615cf8565b604080516001600160a01b038581166024830152604480830186905283518084039091018152606490920183526020820180516001600160e01b031663a9059cbb60e01b1790529151600092839182918916908690614b49908690616060565b60006040518083038160008787f1925050503d8060008114614b87576040519150601f19603f3d011682016040523d82523d6000602084013e614b8c565b606091505b509150915081614ba25760009350505050611c46565b60008151118015614bc4575080806020019051810190614bc2919061607c565b155b15614bd55760009350505050611c46565b506001979650505050505050565b6000614c38826040518060400160405280602081526020017f5361666545524332303a206c6f772d6c6576656c2063616c6c206661696c6564815250856001600160a01b031661525e9092919063ffffffff16565b9050805160001480614c59575080806020019051810190614c59919061607c565b6102ac5760405162461bcd60e51b815260206004820152602a60248201527f5361666545524332303a204552433230206f7065726174696f6e20646964206e6044820152691bdd081cdd58d8d9595960b21b606482015260840161030d565b6000818310614cc757816103d3565b5090919050565b6002840154600185015460038601546040805160a06020808301829052601960c08401527f78797a2e656c66692e73746f726167652e506f736974696f6e0000000000000060e0808501919091526201000088046001600160a01b039081168587015260608501979097529590941660808301526101009586900460ff161515908201528151808203909401845290930190925280519101207fee2b9c77532fd89e66e2f431c2001e4bcc30fb5bc62ee9cdac252f89540067ae9084908487604051806101a0016040528087815260200160008152602001600081526020016000815260200160008152602001600081526020016000815260200160008152602001600081526020016000815260200160008152602001600081526020016000815250604051614e0295949392919061609e565b60405180910390a150505050565b600080614e1b6155ae565b60005b8551811015611b2257614e3c86828151811061270957612709615c6e565b6040805161022081018252825481526001830154602080830191909152600284015460ff808216151584860152610100808304909116151560608086019182526001600160a01b036201000090940484166080808801919091526003890154851660a08089019190915260048a015490951660c08089019190915260058a015460e0808a019190915260068b01549589019590955260078a015461012089015260088a015461014089015260098a0154610160890152600a8a0154610180890152600b8a01546101a089015288519485018952600c8a01548552600d8a015496850196909652600e89015497840197909752600f880154908301526010870154958201959095526011860154918101919091526012850154918101919091526101c082015260138301546101e08201526014909201546102008301525190925085151590151503614f9557614f92600184615ce5565b92505b600101614e1e565b6000818152600883016020908152604091829020805483518184028101840190945280845260609392830182828015614fff57602002820191906000526020600020905b81546001600160a01b03168152600190910190602001808311614fe1575b5050505050905092915050565b6000828152600d840160205260408120611c469083612c5b565b6000808460e001516000036150405750600090508061510f565b8460400151156150ad57600061508b61505d876101000151612660565b61413c6150786150718a6101000151612660565b889061526d565b6150858a60e00151612660565b90615117565b90506150a48161509e8860a00151612cdb565b86615279565b9250905061510f565b60006150db6150c0876101000151612660565b61413c615078876150d58b6101000151612660565b9061526d565b905060006150ef868860a001516000613d7f565b9050615108826151028960a00151612cdb565b83615279565b9350909150505b935093915050565b60006103d38284616296565b60006103d382846162c6565b60006103d383620186a084614470565b60008061514b846152ae565b90508261515c576008810154611c46565b600701549392505050565b60006103d3614132670de0b6b3a7640000612660565b6000611c466151906116c485600a615f83565b61413c6151a16402540be400612660565b6150858887615117565b6040805160208101829052601760608201527f78797a2e656c66692e73746f726167652e53796d626f6c0000000000000000006080820152908101829052600090819060a001611822565b60008215615216576000615209856152f9565b6012015491506103d39050565b6000615220615350565b6001600160a01b03841660009081526003820160205260409020909150600201549150506103d3565b60006103d38383670de0b6b3a7640000614470565b6060611c468484600085615394565b60006103d38284615d64565b6000611c4661529661528f6402540be400612660565b8490615117565b61413c6152a76116c487600a615f83565b8790615117565b6040805160208101829052601760608201527f78797a2e656c66692e73746f726167652e4d61726b65740000000000000000006080820152908101829052600090819060a001611822565b60008082604051602001611822919060408082526017908201527f78797a2e656c66692e73746f726167652e4c70506f6f6c00000000000000000060608201526001600160a01b0391909116602082015260800190565b600080604051602001611c929060208082526018908201527f78797a2e656c66692e73746f726167652e557364506f6f6c0000000000000000604082015260600190565b6060824710156153f55760405162461bcd60e51b815260206004820152602660248201527f416464726573733a20696e73756666696369656e742062616c616e636520666f6044820152651c8818d85b1b60d21b606482015260840161030d565b600080866001600160a01b031685876040516154119190616060565b60006040518083038185875af1925050503d806000811461544e576040519150601f19603f3d011682016040523d82523d6000602084013e615453565b606091505b5091509150611a2287838387606083156154ce5782516000036154c7576001600160a01b0385163b6154c75760405162461bcd60e51b815260206004820152601d60248201527f416464726573733a2063616c6c20746f206e6f6e2d636f6e7472616374000000604482015260640161030d565b5081611c46565b611c4683838151156154e35781518083602001fd5b8060405162461bcd60e51b815260040161030d91906162f4565b60405180610160016040528060006001600160a01b03168152602001606081526020016060815260200160608152602001600081526020016000815260200160008152602001600081526020016000815260200160008152602001600081525090565b60405180610120016040528060001515815260200160008152602001600081526020016000815260200160008152602001600081526020016000815260200160008152602001600081525090565b604051806102200160405280600080191681526020016000801916815260200160001515815260200160001515815260200160006001600160a01b0316815260200160006001600160a01b0316815260200160006001600160a01b03168152602001600081526020016000815260200160008152602001600081526020016000815260200160008152602001600081526020016156816040518060e00160405280600081526020016000815260200160008152602001600081526020016000815260200160008152602001600081525090565b815260200160008152602001600081525090565b60405180610100016040528060008152602001600081526020016000815260200160008152602001600081526020016000815260200160008152602001600081525090565b60008083601f8401126156ec57600080fd5b5081356001600160401b0381111561570357600080fd5b6020830191508360208260071b8501011115612b2657600080fd5b60008060006040848603121561573357600080fd5b8335925060208401356001600160401b0381111561575057600080fd5b61575c868287016156da565b9497909650939450505050565b60006020828403121561577b57600080fd5b81356001600160401b0381111561579157600080fd5b8201606081850312156103d357600080fd5b600080604083850312156157b657600080fd5b50508035926020909101359150565b6001600160a01b038116811461025657600080fd5b600080604083850312156157ed57600080fd5b82356157f8816157c5565b946020939093013593505050565b60006020828403121561581857600080fd5b81356103d3816157c5565b60008151808452602080850194506020840160005b8381101561587f5761586c878351805182526020810151602083015260408101516040830152606081015160608301525050565b6080969096019590820190600101615838565b509495945050505050565b60008151808452602080850194506020840160005b8381101561587f5781516001600160a01b03168752958201959082019060010161589f565b60008151808452602080850194506020840160005b8381101561587f578151875295820195908201906001016158d9565b6020815261590f6020820183516001600160a01b03169052565b6000602083015161016080604085015261592d610180850183615823565b91506040850151601f198086850301606087015261594b848361588a565b935060608701519150808685030160808701525061596983826158c4565b925050608085015160a085015260a085015160c085015260c085015160e085015260e0850151610100818187015280870151915050610120818187015280870151915050610140818187015280870151838701525050508091505092915050565b6000806000604084860312156159df57600080fd5b83356159ea816157c5565b925060208401356001600160401b0381111561575057600080fd5b634e487b7160e01b600052604160045260246000fd5b604051606081016001600160401b0381118282101715615a3d57615a3d615a05565b60405290565b604051601f8201601f191681016001600160401b0381118282101715615a6b57615a6b615a05565b604052919050565b600060808284031215615a8557600080fd5b604051608081018181106001600160401b0382111715615aa757615aa7615a05565b6040528235615ab5816157c5565b81526020830135615ac5816157c5565b6020820152604083810135908201526060928301359281019290925250919050565b60006001600160401b03821115615b0057615b00615a05565b5060051b60200190565b600082601f830112615b1b57600080fd5b81356020615b30615b2b83615ae7565b615a43565b8083825260208201915060208460051b870101935086841115615b5257600080fd5b602086015b84811015615b6e5780358352918301918301615b57565b509695505050505050565b600060608236031215615b8b57600080fd5b615b93615a1b565b8235615b9e816157c5565b81526020838101356001600160401b0380821115615bbb57600080fd5b9085019036601f830112615bce57600080fd5b8135615bdc615b2b82615ae7565b81815260059190911b83018401908481019036831115615bfb57600080fd5b938501935b82851015615c22578435615c13816157c5565b82529385019390850190615c00565b80868801525050506040860135925080831115615c3e57600080fd5b5050615c4c36828601615b0a565b60408301525092915050565b634e487b7160e01b600052602160045260246000fd5b634e487b7160e01b600052603260045260246000fd5b81516001600160a01b0390811682526020808401519091169082015260408083015190820152606081016117c5565b634e487b7160e01b600052601160045260246000fd5b6000600160ff1b8201615cde57615cde615cb3565b5060000390565b808201808211156117c5576117c5615cb3565b818103818111156117c5576117c5615cb3565b81516001600160a01b0390811682526020808401519091169082015260408083015190820152606082015160a082019060048110615d4b57615d4b615c58565b8060608401525060808301511515608083015292915050565b8181036000831280158383131683831282161715614a4057614a40615cb3565b8082018281126000831280158216821582161715615da457615da4615cb3565b505092915050565b600060208284031215615dbe57600080fd5b81516103d3816157c5565b600f8110615dd957615dd9615c58565b9052565b6001600160a01b038681168252851660208201526101608101615e246040830186805182526020810151602083015260408101516040830152606081015160608301525050565b835460c0830152600184015460e083015260028401546101008301526003840154610120830152615e59610140830184615dc9565b9695505050505050565b600060018201615e7557615e75615cb3565b5060010190565b600060208284031215615e8e57600080fd5b815160ff811681146103d357600080fd5b600181815b80851115615eda578160001904821115615ec057615ec0615cb3565b80851615615ecd57918102915b93841c9390800290615ea4565b509250929050565b600082615ef1575060016117c5565b81615efe575060006117c5565b8160018114615f145760028114615f1e57615f3a565b60019150506117c5565b60ff841115615f2f57615f2f615cb3565b50506001821b6117c5565b5060208310610133831016604e8410600b8410161715615f5d575081810a6117c5565b615f678383615e9f565b8060001904821115615f7b57615f7b615cb3565b029392505050565b60006103d360ff841683615ee2565b600181811c90821680615fa657607f821691505b602082108103615fc657634e487b7160e01b600052602260045260246000fd5b50919050565b634e487b7160e01b600052601260045260246000fd5b80820281158282048414176117c5576117c5615cb3565b60008261600857616008615fcc565b500490565b60006020828403121561601f57600080fd5b5051919050565b634e487b7160e01b600052603160045260246000fd5b60005b8381101561605757818101518382015260200161603f565b50506000910152565b6000825161607281846020870161603c565b9190910192915050565b60006020828403121561608e57600080fd5b815180151581146103d357600080fd5b858152602081018590526104e08101600985106160bd576160bd615c58565b846040830152835460608301526001840154608083015260028401546160ea60a0840160ff831615159052565b6160fe60c0840160ff8360081c1615159052565b6001600160a01b03601082901c1660e08401525060038401546001600160a01b03166001600160a01b0381166101008401525060048401546001600160a01b03166001600160a01b0381166101208401525060058401546101408301526006840154610160830152600784015461018083015260088401546101a083015260098401546101c0830152600a8401546101e0830152600b840154610200830152600c840154610220830152600d840154610240830152600e840154610260830152600f84015461028083015260108401546102a083015260118401546102c083015260128401546102e08301526013840154610300830152601484015461032083015282516103408301526020830151610360830152604083015161038083015260608301516103a083015260808301516103c083015260a08301516103e083015260c083015161040083015260e08301516104208301526101008301516104408301526101208301516104608301526101408301516104808301526101608301516104a08301526101808301516104c0830152615e59565b80820260008212600160ff1b841416156162b2576162b2615cb3565b81810583148215176117c5576117c5615cb3565b6000826162d5576162d5615fcc565b600160ff1b8214600019841416156162ef576162ef615cb3565b500590565b602081526000825180602084015261631381604085016020870161603c565b601f01601f1916919091016040019291505056fea264697066735822122055483a83e43c152bb3febc6db0e0df18cccb5d49cbafb13f23597d15f6d3266564736f6c63430008190033","linkReferences":{}},"methodIdentifiers":{"batchUpdateAccountToken((address,address[],int256[]))":"115647f7","cancelWithdraw(uint256,bytes32)":"13874d37","createWithdrawRequest(address,uint256)":"750b5a19","deposit(address,uint256)":"47e7ef24","executeWithdraw(uint256,(address,address,int256,int256)[])":"02e9d199","getAccountInfo(address)":"7b510fe8","getAccountInfoWithOracles(address,(address,address,int256,int256)[])":"abac5665"},"id":55}