{"abi":[{"type":"function","name":"requestTokens","inputs":[{"name":"param","type":"tuple","internalType":"struct IFaucet.RequestTokensParam","components":[{"name":"account","type":"address","internalType":"address"},{"name":"mockTokens","type":"address[]","internalType":"address[]"},{"name":"mintAmounts","type":"uint256[]","internalType":"uint256[]"},{"name":"ethAmount","type":"uint256","internalType":"uint256"}]}],"outputs":[],"stateMutability":"payable"},{"type":"error","name":"InvalidRoleAccess","inputs":[{"name":"account","type":"address","internalType":"address"},{"name":"role","type":"bytes32","internalType":"bytes32"}]}],"bytecode":{"object":"0x6080604052348015600f57600080fd5b506104208061001f6000396000f3fe60806040526004361061001e5760003560e01c8063ff88370414610023575b600080fd5b6100366100313660046102f0565b610038565b005b61004a6525a2a2a822a960d11b61015e565b60005b61005a602083018361032b565b905081101561014057610070602083018361032b565b828181106100805761008061037c565b90506020020160208101906100959190610392565b6001600160a01b03166340c10f196100b06020850185610392565b6100bd604086018661032b565b858181106100cd576100cd61037c565b6040516001600160e01b031960e087901b1681526001600160a01b0390941660048501526020029190910135602483015250604401600060405180830381600087803b15801561011c57600080fd5b505af1158015610130573d6000803e3d6000fd5b50506001909201915061004d9050565b5061015b6101516020830183610392565b8260600135610193565b50565b610168338261023b565b61015b57604051632d7d0e0d60e21b8152336004820152602481018290526044015b60405180910390fd5b604080516000808252602082019092526001600160a01b0384169083906040516101bd91906103bb565b60006040518083038185875af1925050503d80600081146101fa576040519150601f19603f3d011682016040523d82523d6000602084013e6101ff565b606091505b50509050806102365760405162461bcd60e51b815260206004820152600360248201526253544560e81b604482015260640161018a565b505050565b600080610246610273565b6001600160a01b038516600090815260208290526040902090915061026b90846102d5565b949350505050565b6000806040516020016102b7906020808252601e908201527f78797a2e656c66692e73746f726167652e416363657373436f6e74726f6c0000604082015260600190565b60408051601f19818403018152919052805160209091012092915050565b600081815260018301602052604081205415155b9392505050565b60006020828403121561030257600080fd5b813567ffffffffffffffff81111561031957600080fd5b8201608081850312156102e957600080fd5b6000808335601e1984360301811261034257600080fd5b83018035915067ffffffffffffffff82111561035d57600080fd5b6020019150600581901b360382131561037557600080fd5b9250929050565b634e487b7160e01b600052603260045260246000fd5b6000602082840312156103a457600080fd5b81356001600160a01b03811681146102e957600080fd5b6000825160005b818110156103dc57602081860181015185830152016103c2565b50600092019182525091905056fea26469706673582212203c8dff421b4643abb974ec1e379750907a933d6c3d3b2b9c2989526193be969564736f6c63430008190033","linkReferences":{}},"methodIdentifiers":{"requestTokens((address,address[],uint256[],uint256))":"ff883704"},"id":59}