{"abi":[{"type":"function","name":"getIntOraclePrices","inputs":[{"name":"params","type":"tuple[]","internalType":"struct OracleProcess.OracleParam[]","components":[{"name":"token","type":"address","internalType":"address"},{"name":"targetToken","type":"address","internalType":"address"},{"name":"minPrice","type":"int256","internalType":"int256"},{"name":"maxPrice","type":"int256","internalType":"int256"}]},{"name":"token","type":"address","internalType":"address"},{"name":"targetToken","type":"address","internalType":"address"},{"name":"isMin","type":"bool","internalType":"bool"}],"outputs":[{"name":"","type":"int256","internalType":"int256"}],"stateMutability":"view"},{"type":"function","name":"getIntOraclePrices","inputs":[{"name":"params","type":"tuple[]","internalType":"struct OracleProcess.OracleParam[]","components":[{"name":"token","type":"address","internalType":"address"},{"name":"targetToken","type":"address","internalType":"address"},{"name":"minPrice","type":"int256","internalType":"int256"},{"name":"maxPrice","type":"int256","internalType":"int256"}]},{"name":"token","type":"address","internalType":"address"},{"name":"isMin","type":"bool","internalType":"bool"}],"outputs":[{"name":"","type":"int256","internalType":"int256"}],"stateMutability":"view"},{"type":"function","name":"getLatestUsdPrice","inputs":[{"name":"token","type":"address","internalType":"address"},{"name":"min","type":"bool","internalType":"bool"}],"outputs":[{"name":"","type":"int256","internalType":"int256"}],"stateMutability":"view"},{"type":"function","name":"getLatestUsdPrice","inputs":[{"name":"token","type":"address","internalType":"address"},{"name":"targetToken","type":"address","internalType":"address"},{"name":"min","type":"bool","internalType":"bool"}],"outputs":[{"name":"","type":"int256","internalType":"int256"}],"stateMutability":"view"},{"type":"function","name":"getLatestUsdPrice","inputs":[{"name":"token","type":"address","internalType":"address"}],"outputs":[{"name":"","type":"tuple","internalType":"struct OraclePrice.Data","components":[{"name":"min","type":"int256","internalType":"int256"},{"name":"max","type":"int256","internalType":"int256"}]}],"stateMutability":"view"},{"type":"function","name":"getLatestUsdUintPrice","inputs":[{"name":"token","type":"address","internalType":"address"},{"name":"targetToken","type":"address","internalType":"address"},{"name":"min","type":"bool","internalType":"bool"}],"outputs":[{"name":"","type":"uint256","internalType":"uint256"}],"stateMutability":"view"},{"type":"function","name":"getLatestUsdUintPrice","inputs":[{"name":"token","type":"address","internalType":"address"},{"name":"min","type":"bool","internalType":"bool"}],"outputs":[{"name":"","type":"uint256","internalType":"uint256"}],"stateMutability":"view"},{"type":"function","name":"getLatestUsdUintPrice","inputs":[{"name":"token","type":"address","internalType":"address"}],"outputs":[{"name":"min","type":"uint256","internalType":"uint256"},{"name":"max","type":"uint256","internalType":"uint256"}],"stateMutability":"view"},{"type":"function","name":"getOraclePrices","inputs":[{"name":"params","type":"tuple[]","internalType":"struct OracleProcess.OracleParam[]","components":[{"name":"token","type":"address","internalType":"address"},{"name":"targetToken","type":"address","internalType":"address"},{"name":"minPrice","type":"int256","internalType":"int256"},{"name":"maxPrice","type":"int256","internalType":"int256"}]},{"name":"token","type":"address","internalType":"address"},{"name":"targetToken","type":"address","internalType":"address"},{"name":"isMin","type":"bool","internalType":"bool"}],"outputs":[{"name":"","type":"uint256","internalType":"uint256"}],"stateMutability":"view"},{"type":"function","name":"getOraclePrices","inputs":[{"name":"params","type":"tuple[]","internalType":"struct OracleProcess.OracleParam[]","components":[{"name":"token","type":"address","internalType":"address"},{"name":"targetToken","type":"address","internalType":"address"},{"name":"minPrice","type":"int256","internalType":"int256"},{"name":"maxPrice","type":"int256","internalType":"int256"}]},{"name":"token","type":"address","internalType":"address"},{"name":"isMin","type":"bool","internalType":"bool"}],"outputs":[{"name":"","type":"uint256","internalType":"uint256"}],"stateMutability":"view"},{"type":"error","name":"PriceIsZero","inputs":[]}],"bytecode":{"object":"0x610f73610039600b82828239805160001a607314602c57634e487b7160e01b600052600060045260246000fd5b30600052607381538281f3fe73000000000000000000000000000000000000000030146080604052600436106100be5760003560e01c80637532d8bc1161007b5780637532d8bc1461013557806395b1e48814610157578063bc5f656d1461016a578063c30bc48514610192578063e52ed365146101b2578063f85cce2d146101c757600080fd5b80631300fc54146100c3578063180e24bb146100e95780631a0994f5146100e95780634006b071146100fc5780636c0a96391461010f5780636c44b92914610122575b600080fd5b6100d66100d1366004610b4b565b6101da565b6040519081526020015b60405180910390f35b6100d66100f7366004610b8e565b6101f9565b6100d661010a366004610b4b565b610223565b6100d661011d366004610cf7565b610370565b6100d6610130366004610d66565b610421565b81801561014157600080fd5b50610155610150366004610dad565b6104c6565b005b6100d6610165366004610cf7565b610773565b61017d610178366004610e22565b61081c565b604080519283526020830191909152016100e0565b6101a56101a0366004610e22565b61083d565b6040516100e09190610e3d565b8180156101be57600080fd5b5061015561085a565b6100d66101d5366004610d66565b610927565b60006101ef6101ea858585610223565b610989565b90505b9392505050565b600080610205846109e3565b905082610216578060200151610219565b80515b9150505b92915050565b60008073__$37a04c5fbe21cd5a63059f7f42c43893ad$__6386d5c4be6040518163ffffffff1660e01b8152600401602060405180830381865af415801561026f573d6000803e3d6000fd5b505050506040513d601f19601f820116820180604052508101906102939190610e54565b604051633ba36b2560e01b8152600481018290526001600160a01b0380881660248301528616604482015290915060009073__$37a04c5fbe21cd5a63059f7f42c43893ad$__90633ba36b25906064016040805180830381865af41580156102ff573d6000803e3d6000fd5b505050506040513d601f19601f820116820180604052508101906103239190610e6d565b8051909150158061033657506020810151155b156103545760405163907adecd60e01b815260040160405180910390fd5b83610363578060200151610366565b80515b9695505050505050565b6000805b855181101561040a57846001600160a01b031686828151811061039957610399610ebc565b6020026020010151600001516001600160a01b03160361040257826103db578581815181106103ca576103ca610ebc565b6020026020010151606001516103fa565b8581815181106103ed576103ed610ebc565b6020026020010151604001515b915050610419565b600101610374565b506104168484846101da565b90505b949350505050565b6000805b84518110156104bb57836001600160a01b031685828151811061044a5761044a610ebc565b6020026020010151600001516001600160a01b0316036104b3578261048c5784818151811061047b5761047b610ebc565b6020026020010151606001516104ab565b84818151811061049e5761049e610ebc565b6020026020010151604001515b9150506101f2565b600101610425565b506101ef83836101f9565b600073__$37a04c5fbe21cd5a63059f7f42c43893ad$__6386d5c4be6040518163ffffffff1660e01b8152600401602060405180830381865af4158015610511573d6000803e3d6000fd5b505050506040513d601f19601f820116820180604052508101906105359190610e54565b905060005b8281101561076d57600084848381811061055657610556610ebc565b905060800201602001602081019061056e9190610e22565b6001600160a01b03160361065d5773__$37a04c5fbe21cd5a63059f7f42c43893ad$__633b3388af838686858181106105a9576105a9610ebc565b6105bf9260206080909202019081019150610e22565b60405180604001604052808989888181106105dc576105dc610ebc565b9050608002016040013581526020018989888181106105fd576105fd610ebc565b905060800201606001358152506040518463ffffffff1660e01b815260040161062893929190610ed2565b60006040518083038186803b15801561064057600080fd5b505af4158015610654573d6000803e3d6000fd5b50505050610765565b73__$37a04c5fbe21cd5a63059f7f42c43893ad$__63b13b1ab58386868581811061068a5761068a610ebc565b6106a09260206080909202019081019150610e22565b8787868181106106b2576106b2610ebc565b90506080020160200160208101906106ca9190610e22565b60405180604001604052808a8a898181106106e7576106e7610ebc565b9050608002016040013581526020018a8a8981811061070857610708610ebc565b905060800201606001358152506040518563ffffffff1660e01b81526004016107349493929190610eff565b60006040518083038186803b15801561074c57600080fd5b505af4158015610760573d6000803e3d6000fd5b505050505b60010161053a565b50505050565b6000805b855181101561081057846001600160a01b031686828151811061079c5761079c610ebc565b6020026020010151600001516001600160a01b03161480156107ec5750836001600160a01b03168682815181106107d5576107d5610ebc565b6020026020010151602001516001600160a01b0316145b1561080857826103db578581815181106103ca576103ca610ebc565b600101610777565b50610416848484610223565b600080600061082a846109e3565b8051602090910151909590945092505050565b604080518082019091526000808252602082015261021d826109e3565b73__$37a04c5fbe21cd5a63059f7f42c43893ad$__6386d5c4be6040518163ffffffff1660e01b8152600401602060405180830381865af41580156108a3573d6000803e3d6000fd5b505050506040513d601f19601f820116820180604052508101906108c79190610e54565b6040516328ba878d60e21b8152600481019190915273__$37a04c5fbe21cd5a63059f7f42c43893ad$__9063a2ea1e349060240160006040518083038186803b15801561091357600080fd5b505af415801561076d573d6000803e3d6000fd5b6000805b84518110156104bb57836001600160a01b031685828151811061095057610950610ebc565b6020026020010151600001516001600160a01b031603610981578261048c5784818151811061047b5761047b610ebc565b60010161092b565b6000808212156109df5760405162461bcd60e51b815260206004820181905260248201527f53616665436173743a2076616c7565206d75737420626520706f736974697665604482015260640160405180910390fd5b5090565b6040805180820190915260008082526020820152600073__$37a04c5fbe21cd5a63059f7f42c43893ad$__6386d5c4be6040518163ffffffff1660e01b8152600401602060405180830381865af4158015610a42573d6000803e3d6000fd5b505050506040513d601f19601f82011682018060405250810190610a669190610e54565b60405163055e9a0760e01b8152600481018290526001600160a01b038516602482015290915060009073__$37a04c5fbe21cd5a63059f7f42c43893ad$__9063055e9a07906044016040805180830381865af4158015610aca573d6000803e3d6000fd5b505050506040513d601f19601f82011682018060405250810190610aee9190610e6d565b80519091501580610b0157506020810151155b156101f25760405163907adecd60e01b815260040160405180910390fd5b80356001600160a01b0381168114610b3657600080fd5b919050565b80358015158114610b3657600080fd5b600080600060608486031215610b6057600080fd5b610b6984610b1f565b9250610b7760208501610b1f565b9150610b8560408501610b3b565b90509250925092565b60008060408385031215610ba157600080fd5b610baa83610b1f565b9150610bb860208401610b3b565b90509250929050565b634e487b7160e01b600052604160045260246000fd5b6040516080810167ffffffffffffffff81118282101715610bfa57610bfa610bc1565b60405290565b604051601f8201601f1916810167ffffffffffffffff81118282101715610c2957610c29610bc1565b604052919050565b600082601f830112610c4257600080fd5b8135602067ffffffffffffffff821115610c5e57610c5e610bc1565b610c6c818360051b01610c00565b82815260079290921b84018101918181019086841115610c8b57600080fd5b8286015b84811015610cec5760808189031215610ca85760008081fd5b610cb0610bd7565b610cb982610b1f565b8152610cc6858301610b1f565b818601526040828101359082015260608083013590820152835291830191608001610c8f565b509695505050505050565b60008060008060808587031215610d0d57600080fd5b843567ffffffffffffffff811115610d2457600080fd5b610d3087828801610c31565b945050610d3f60208601610b1f565b9250610d4d60408601610b1f565b9150610d5b60608601610b3b565b905092959194509250565b600080600060608486031215610d7b57600080fd5b833567ffffffffffffffff811115610d9257600080fd5b610d9e86828701610c31565b935050610b7760208501610b1f565b60008060208385031215610dc057600080fd5b823567ffffffffffffffff80821115610dd857600080fd5b818501915085601f830112610dec57600080fd5b813581811115610dfb57600080fd5b8660208260071b8501011115610e1057600080fd5b60209290920196919550909350505050565b600060208284031215610e3457600080fd5b6101f282610b1f565b81518152602080830151908201526040810161021d565b600060208284031215610e6657600080fd5b5051919050565b600060408284031215610e7f57600080fd5b6040516040810181811067ffffffffffffffff82111715610ea257610ea2610bc1565b604052825181526020928301519281019290925250919050565b634e487b7160e01b600052603260045260246000fd5b8381526001600160a01b038316602082015260808101610419604083018480518252602090810151910152565b8481526001600160a01b0384811660208301528316604082015260a08101610f34606083018480518252602090810151910152565b9594505050505056fea264697066735822122076079d0dc162bf080f82a7edda47415d341233f0b83d76988096aece8393b43b64736f6c63430008190033","linkReferences":{"src/storage/OraclePrice.sol":{"OraclePrice":[{"start":609,"length":20},{"start":767,"length":20},{"start":1283,"length":20},{"start":1463,"length":20},{"start":1688,"length":20},{"start":2197,"length":20},{"start":2327,"length":20},{"start":2612,"length":20},{"start":2762,"length":20}]}}},"methodIdentifiers":{"clearOraclePrice()":"e52ed365","getIntOraclePrices(OracleProcess.OracleParam[],address,address,bool)":"95b1e488","getIntOraclePrices(OracleProcess.OracleParam[],address,bool)":"f85cce2d","getLatestUsdPrice(address)":"c30bc485","getLatestUsdPrice(address,address,bool)":"4006b071","getLatestUsdPrice(address,bool)":"180e24bb","getLatestUsdUintPrice(address)":"bc5f656d","getLatestUsdUintPrice(address,address,bool)":"1300fc54","getLatestUsdUintPrice(address,bool)":"1a0994f5","getOraclePrices(OracleProcess.OracleParam[],address,address,bool)":"6c0a9639","getOraclePrices(OracleProcess.OracleParam[],address,bool)":"6c44b929","setOraclePrice(OracleProcess.OracleParam[])":"7532d8bc"},"id":108}