{"abi":[{"type":"function","name":"calcBorrowingFee","inputs":[{"name":"decreaseQty","type":"uint256","internalType":"uint256"},{"name":"position","type":"tuple","internalType":"struct Position.Props","components":[{"name":"key","type":"bytes32","internalType":"bytes32"},{"name":"symbol","type":"bytes32","internalType":"bytes32"},{"name":"isLong","type":"bool","internalType":"bool"},{"name":"isCrossMargin","type":"bool","internalType":"bool"},{"name":"account","type":"address","internalType":"address"},{"name":"marginToken","type":"address","internalType":"address"},{"name":"indexToken","type":"address","internalType":"address"},{"name":"qty","type":"uint256","internalType":"uint256"},{"name":"entryPrice","type":"uint256","internalType":"uint256"},{"name":"leverage","type":"uint256","internalType":"uint256"},{"name":"initialMargin","type":"uint256","internalType":"uint256"},{"name":"initialMarginInUsd","type":"uint256","internalType":"uint256"},{"name":"initialMarginInUsdFromBalance","type":"uint256","internalType":"uint256"},{"name":"holdPoolAmount","type":"uint256","internalType":"uint256"},{"name":"positionFee","type":"tuple","internalType":"struct Position.PositionFee","components":[{"name":"closeFeeInUsd","type":"uint256","internalType":"uint256"},{"name":"openBorrowingFeePerToken","type":"uint256","internalType":"uint256"},{"name":"realizedBorrowingFee","type":"uint256","internalType":"uint256"},{"name":"realizedBorrowingFeeInUsd","type":"uint256","internalType":"uint256"},{"name":"openFundingFeePerQty","type":"int256","internalType":"int256"},{"name":"realizedFundingFee","type":"int256","internalType":"int256"},{"name":"realizedFundingFeeInUsd","type":"int256","internalType":"int256"}]},{"name":"realizedPnl","type":"int256","internalType":"int256"},{"name":"lastUpdateTime","type":"uint256","internalType":"uint256"}]}],"outputs":[{"name":"fee","type":"uint256","internalType":"uint256"},{"name":"feeInUsd","type":"uint256","internalType":"uint256"}],"stateMutability":"pure"},{"type":"function","name":"calcCloseFee","inputs":[{"name":"tokenDecimals","type":"uint8","internalType":"uint8"},{"name":"feeInUsd","type":"uint256","internalType":"uint256"},{"name":"tokenPrice","type":"uint256","internalType":"uint256"}],"outputs":[{"name":"","type":"uint256","internalType":"uint256"}],"stateMutability":"pure"},{"type":"function","name":"calcMintOrRedeemFee","inputs":[{"name":"tokenAmount","type":"uint256","internalType":"uint256"},{"name":"feeRate","type":"uint256","internalType":"uint256"}],"outputs":[{"name":"","type":"uint256","internalType":"uint256"}],"stateMutability":"pure"},{"type":"function","name":"calcOpenFee","inputs":[{"name":"orderMargin","type":"uint256","internalType":"uint256"},{"name":"leverage","type":"uint256","internalType":"uint256"},{"name":"symbol","type":"bytes32","internalType":"bytes32"}],"outputs":[{"name":"","type":"uint256","internalType":"uint256"}],"stateMutability":"view"},{"type":"function","name":"getAccountFeeRewards","inputs":[{"name":"account","type":"address","internalType":"address"}],"outputs":[{"name":"","type":"tuple","internalType":"struct IFee.AccountFeeRewards","components":[{"name":"account","type":"address","internalType":"address"},{"name":"stakeTokens","type":"address[]","internalType":"address[]"},{"name":"tokens","type":"address[]","internalType":"address[]"},{"name":"rewards","type":"uint256[]","internalType":"uint256[]"}]}],"stateMutability":"view"},{"type":"function","name":"getAccountUsdFeeReward","inputs":[{"name":"account","type":"address","internalType":"address"}],"outputs":[{"name":"","type":"tuple","internalType":"struct IFee.AccountUsdFeeReward","components":[{"name":"account","type":"address","internalType":"address"},{"name":"stakeToken","type":"address","internalType":"address"},{"name":"reward","type":"uint256","internalType":"uint256"}]}],"stateMutability":"view"},{"type":"function","name":"getCumulativeRewardsPerStakeToken","inputs":[{"name":"stakeToken","type":"address","internalType":"address"}],"outputs":[{"name":"","type":"uint256","internalType":"uint256"}],"stateMutability":"view"},{"type":"function","name":"getDaoTokenFee","inputs":[{"name":"stakeToken","type":"address","internalType":"address"},{"name":"token","type":"address","internalType":"address"}],"outputs":[{"name":"","type":"uint256","internalType":"uint256"}],"stateMutability":"view"},{"type":"function","name":"getMarketTokenFeeAmount","inputs":[{"name":"symbol","type":"bytes32","internalType":"bytes32"},{"name":"token","type":"address","internalType":"address"}],"outputs":[{"name":"","type":"uint256","internalType":"uint256"}],"stateMutability":"view"},{"type":"function","name":"getPoolTokenFeeAmount","inputs":[{"name":"stakeToken","type":"address","internalType":"address"},{"name":"token","type":"address","internalType":"address"}],"outputs":[{"name":"","type":"uint256","internalType":"uint256"}],"stateMutability":"view"},{"type":"function","name":"getStakingTokenFee","inputs":[{"name":"stakeToken","type":"address","internalType":"address"},{"name":"token","type":"address","internalType":"address"}],"outputs":[{"name":"","type":"uint256","internalType":"uint256"}],"stateMutability":"view"}],"bytecode":{"object":"0x611bb8610039600b82828239805160001a607314602c57634e487b7160e01b600052600060045260246000fd5b30600052607381538281f3fe73000000000000000000000000000000000000000030146080604052600436106100b35760003560e01c80636c485fde1161007b5780636c485fde1461015a5780637ad1830314610182578063840ad0f1146101955780639f04c8e4146101a8578063ada56365146101bb578063b9ee8073146101db57600080fd5b80634750581d146100b85780634f9a8558146100de57806355be18cb146100f15780635c99abaa14610104578063652a5cd414610147575b600080fd5b6100cb6100c6366004611549565b6101ee565b6040519081526020015b60405180910390f35b6100cb6100ec36600461156b565b610275565b6100cb6100ff3660046115ce565b610305565b610117610112366004611607565b6103df565b6040805182516001600160a01b0390811682526020808501519091169082015291810151908201526060016100d5565b6100cb6101553660046115ce565b6108c7565b61016d610168366004611729565b610993565b604080519283526020830191909152016100d5565b6100cb610190366004611607565b610a13565b6100cb6101a336600461184e565b610b12565b6100cb6101b6366004611873565b610b4f565b6101ce6101c9366004611607565b610cd8565b6040516100d591906118e4565b6100cb6101e93660046115ce565b6114e5565b60405163ee7fc5a360e01b8152600481018390526024810182905260009073__$54cfd135a3b5f05a8488b7e4b687d6e5b3$__9063ee7fc5a390604401602060405180830381865af4158015610248573d6000803e3d6000fd5b505050506040513d601f19601f8201168201806040525081019061026c919061197f565b90505b92915050565b60405163f5873b9760e01b81526004810183905260ff841660248201526044810182905260009073__$54cfd135a3b5f05a8488b7e4b687d6e5b3$__9063f5873b97906064015b602060405180830381865af41580156102d9573d6000803e3d6000fd5b505050506040513d601f19601f820116820180604052508101906102fd919061197f565b949350505050565b60008073__$5e3296de81a496bbbf68b73ccb20888027$__63d28d611a6040518163ffffffff1660e01b8152600401602060405180830381865af4158015610351573d6000803e3d6000fd5b505050506040513d601f19601f82011682018060405250810190610375919061197f565b60405163a47e4f0560e01b8152600481018290526001600160a01b0380871660248301528516604482015290915073__$5e3296de81a496bbbf68b73ccb20888027$__9063a47e4f0590606401602060405180830381865af41580156102d9573d6000803e3d6000fd5b6040805160608101825260008082526020820181905291810191909152604051630bd039cd60e21b81526001600160a01b038316600482015260009073__$191a6263ecbfae700711f035c52cfbd3c9$__90632f40e73490602401602060405180830381865af4158015610457573d6000803e3d6000fd5b505050506040513d601f19601f8201168201806040525081019061047b919061197f565b9050600073__$743db1863e6a0ee1ad13b47ec8f30557c4$__63f141859a6040518163ffffffff1660e01b8152600401602060405180830381865af41580156104c8573d6000803e3d6000fd5b505050506040513d601f19601f820116820180604052508101906104ec9190611998565b604051635d98107560e11b8152600481018490526001600160a01b038216602482015290915060009073__$191a6263ecbfae700711f035c52cfbd3c9$__9063bb3020ea90604401602060405180830381865af4158015610551573d6000803e3d6000fd5b505050506040513d601f19601f82011682018060405250810190610575919061197f565b604051631fafeb5d60e31b81526001600160a01b038416600482015290915060009073__$5e3296de81a496bbbf68b73ccb20888027$__9063fd7f5ae890602401602060405180830381865af41580156105d3573d6000803e3d6000fd5b505050506040513d601f19601f820116820180604052508101906105f7919061197f565b6040516370a0823160e01b81526001600160a01b0388811660048301529192506000918516906370a0823190602401602060405180830381865afa158015610643573d6000803e3d6000fd5b505050506040513d601f19601f82011682018060405250810190610667919061197f565b83546001850154919250901580159061077457506040516334e1a77760e01b81526004810184905273__$5e3296de81a496bbbf68b73ccb20888027$__906334e1a77790602401602060405180830381865af41580156106cb573d6000803e3d6000fd5b505050506040513d601f19601f820116820180604052508101906106ef919061197f565b6001850154604051631cbf1dad60e21b81526004810186905273__$5e3296de81a496bbbf68b73ccb20888027$__906372fc76b490602401602060405180830381865af4158015610744573d6000803e3d6000fd5b505050506040513d601f19601f82011682018060405250810190610768919061197f565b61077291906119cb565b115b1561088d576001840154604051631cbf1dad60e21b81526004810185905273__$54cfd135a3b5f05a8488b7e4b687d6e5b3$__9163c8a4ac9c9173__$5e3296de81a496bbbf68b73ccb20888027$__906372fc76b490602401602060405180830381865af41580156107ea573d6000803e3d6000fd5b505050506040513d601f19601f8201168201806040525081019061080e919061197f565b61081891906119cb565b846040518363ffffffff1660e01b815260040161083f929190918252602082015260400190565b602060405180830381865af415801561085c573d6000803e3d6000fd5b505050506040513d601f19601f82011682018060405250810190610880919061197f565b61088a90826119de565b90505b6040518060600160405280896001600160a01b03168152602001866001600160a01b03168152602001828152509650505050505050919050565b604051631fafeb5d60e31b81526001600160a01b0383166004820152600090819073__$5e3296de81a496bbbf68b73ccb20888027$__9063fd7f5ae8906024015b602060405180830381865af4158015610925573d6000803e3d6000fd5b505050506040513d601f19601f82011682018060405250810190610949919061197f565b6040516331729d9560e21b8152600481018290526001600160a01b038516602482015290915073__$5e3296de81a496bbbf68b73ccb20888027$__9063c5ca7654906044016102bc565b6000808260e0015184036109b95750506101c08101516040810151606090910151610a0c565b6109e38360e001516109dd86866101c001516040015161153190919063ffffffff16565b9061153d565b610a078460e001516109dd87876101c001516060015161153190919063ffffffff16565b915091505b9250929050565b604051631fafeb5d60e31b81526001600160a01b0382166004820152600090819073__$5e3296de81a496bbbf68b73ccb20888027$__9063fd7f5ae890602401602060405180830381865af4158015610a70573d6000803e3d6000fd5b505050506040513d601f19601f82011682018060405250810190610a94919061197f565b604051631cbf1dad60e21b81526004810182905290915073__$5e3296de81a496bbbf68b73ccb20888027$__906372fc76b490602401602060405180830381865af4158015610ae7573d6000803e3d6000fd5b505050506040513d601f19601f82011682018060405250810190610b0b919061197f565b9392505050565b60405163214d112b60e01b815260048101839052600090819073__$5e3296de81a496bbbf68b73ccb20888027$__9063214d112b90602401610908565b60405163e1be37bd60e01b815260048101829052600090819073__$bda6750164d46530feeed1122c24ac1a13$__9063e1be37bd9060240161010060405180830381865af4158015610ba5573d6000803e3d6000fd5b505050506040513d601f19601f82011682018060405250810190610bc991906119f1565b60405163ee7fc5a360e01b8152600481018790526024810186905290915060009073__$54cfd135a3b5f05a8488b7e4b687d6e5b3$__9063ee7fc5a390604401602060405180830381865af4158015610c26573d6000803e3d6000fd5b505050506040513d601f19601f82011682018060405250810190610c4a919061197f565b604080840151905163ee7fc5a360e01b815260048101839052602481019190915290915073__$54cfd135a3b5f05a8488b7e4b687d6e5b3$__9063ee7fc5a390604401602060405180830381865af4158015610caa573d6000803e3d6000fd5b505050506040513d601f19601f82011682018060405250810190610cce919061197f565b9695505050505050565b610d0c604051806080016040528060006001600160a01b031681526020016060815260200160608152602001606081525090565b604051630bd039cd60e21b81526001600160a01b038316600482015260009073__$191a6263ecbfae700711f035c52cfbd3c9$__90632f40e73490602401602060405180830381865af4158015610d67573d6000803e3d6000fd5b505050506040513d601f19601f82011682018060405250810190610d8b919061197f565b604051632dcee2df60e21b81526004810182905290915060009073__$191a6263ecbfae700711f035c52cfbd3c9$__9063b73b8b7c90602401600060405180830381865af4158015610de1573d6000803e3d6000fd5b505050506040513d6000823e601f3d908101601f19168201604052610e099190810190611a81565b9050610e3f604051806080016040528060006001600160a01b031681526020016060815260200160608152602001606081525090565b6001600160a01b038516815260208101829052815167ffffffffffffffff811115610e6c57610e6c611624565b604051908082528060200260200182016040528015610e95578160200160208202803683370190505b506040820152815167ffffffffffffffff811115610eb557610eb5611624565b604051908082528060200260200182016040528015610ede578160200160208202803683370190505b50606082015260005b82518110156114dc57600073__$5e3296de81a496bbbf68b73ccb20888027$__63fd7f5ae8858481518110610f1e57610f1e611b33565b60200260200101516040518263ffffffff1660e01b8152600401610f5191906001600160a01b0391909116815260200190565b602060405180830381865af4158015610f6e573d6000803e3d6000fd5b505050506040513d601f19601f82011682018060405250810190610f92919061197f565b905060008573__$191a6263ecbfae700711f035c52cfbd3c9$__63bb3020ea9091878681518110610fc557610fc5611b33565b60200260200101516040518363ffffffff1660e01b8152600401610ffc9291909182526001600160a01b0316602082015260400190565b602060405180830381865af4158015611019573d6000803e3d6000fd5b505050506040513d601f19601f8201168201806040525081019061103d919061197f565b9050600085848151811061105357611053611b33565b60209081029190910101516040516370a0823160e01b81526001600160a01b038b81166004830152909116906370a0823190602401602060405180830381865afa1580156110a5573d6000803e3d6000fd5b505050506040513d601f19601f820116820180604052508101906110c9919061197f565b90508584815181106110dd576110dd611b33565b60200260200101516001600160a01b031673__$743db1863e6a0ee1ad13b47ec8f30557c4$__63f141859a6040518163ffffffff1660e01b8152600401602060405180830381865af4158015611137573d6000803e3d6000fd5b505050506040513d601f19601f8201168201806040525081019061115b9190611998565b6001600160a01b0316148061116e575080155b1561117b575050506114d4565b600073__$7b3f0eea015ed8194e857e3ec238e14f04$__632f40e7348887815181106111a9576111a9611b33565b60200260200101516040518263ffffffff1660e01b81526004016111dc91906001600160a01b0391909116815260200190565b602060405180830381865af41580156111f9573d6000803e3d6000fd5b505050506040513d601f19601f8201168201806040525081019061121d919061197f565b6002810154604088015180519293506001600160a01b03909116918790811061124857611248611b33565b60200260200101906001600160a01b031690816001600160a01b0316815250506000836001015411801561137057506040516334e1a77760e01b81526004810185905273__$5e3296de81a496bbbf68b73ccb20888027$__906334e1a77790602401602060405180830381865af41580156112c7573d6000803e3d6000fd5b505050506040513d601f19601f820116820180604052508101906112eb919061197f565b6001840154604051631cbf1dad60e21b81526004810187905273__$5e3296de81a496bbbf68b73ccb20888027$__906372fc76b490602401602060405180830381865af4158015611340573d6000803e3d6000fd5b505050506040513d601f19601f82011682018060405250810190611364919061197f565b61136e91906119cb565b115b1561149f576001830154604051631cbf1dad60e21b81526004810186905273__$54cfd135a3b5f05a8488b7e4b687d6e5b3$__9163228d17e09173__$5e3296de81a496bbbf68b73ccb20888027$__906372fc76b490602401602060405180830381865af41580156113e6573d6000803e3d6000fd5b505050506040513d601f19601f8201168201806040525081019061140a919061197f565b61141491906119cb565b846040518363ffffffff1660e01b815260040161143b929190918252602082015260400190565b602060405180830381865af4158015611458573d6000803e3d6000fd5b505050506040513d601f19601f8201168201806040525081019061147c919061197f565b8660600151868151811061149257611492611b33565b6020026020010181815250505b825460608701518051879081106114b8576114b8611b33565b602002602001018181516114cc91906119de565b905250505050505b600101610ee7565b50949350505050565b60008073__$5e3296de81a496bbbf68b73ccb20888027$__63604c42456040518163ffffffff1660e01b8152600401602060405180830381865af4158015610351573d6000803e3d6000fd5b600061026c8284611b49565b600061026c8284611b60565b6000806040838503121561155c57600080fd5b50508035926020909101359150565b60008060006060848603121561158057600080fd5b833560ff8116811461159157600080fd5b95602085013595506040909401359392505050565b6001600160a01b03811681146115bb57600080fd5b50565b80356115c9816115a6565b919050565b600080604083850312156115e157600080fd5b82356115ec816115a6565b915060208301356115fc816115a6565b809150509250929050565b60006020828403121561161957600080fd5b8135610b0b816115a6565b634e487b7160e01b600052604160045260246000fd5b604051610220810167ffffffffffffffff8111828210171561165e5761165e611624565b60405290565b604051601f8201601f1916810167ffffffffffffffff8111828210171561168d5761168d611624565b604052919050565b803580151581146115c957600080fd5b600060e082840312156116b757600080fd5b60405160e0810181811067ffffffffffffffff821117156116da576116da611624565b8060405250809150823581526020830135602082015260408301356040820152606083013560608201526080830135608082015260a083013560a082015260c083013560c08201525092915050565b60008082840361030081121561173e57600080fd5b833592506102e080601f198301121561175657600080fd5b61175e61163a565b9150602085013582526040850135602083015261177d60608601611695565b604083015261178e60808601611695565b606083015261179f60a086016115be565b60808301526117b060c086016115be565b60a08301526117c160e086016115be565b60c08301526101008086013560e084015261012080870135828501526101409150818701358185015250610160808701358285015261018091508187013581850152506101a080870135828501526101c091508187013581850152506101e061182c888289016116a5565b918401919091526102c086013590830152909301356102008401525092909150565b6000806040838503121561186157600080fd5b8235915060208301356115fc816115a6565b60008060006060848603121561188857600080fd5b505081359360208301359350604090920135919050565b60008151808452602080850194506020840160005b838110156118d95781516001600160a01b0316875295820195908201906001016118b4565b509495945050505050565b602080825282516001600160a01b03168282015282810151608060408401526000919061191460a085018261189f565b90506040850151601f1980868403016060870152611932838361189f565b6060880151878203909201608088015281518082529185019350600092508401905b808310156119745783518252928401926001929092019190840190611954565b509695505050505050565b60006020828403121561199157600080fd5b5051919050565b6000602082840312156119aa57600080fd5b8151610b0b816115a6565b634e487b7160e01b600052601160045260246000fd5b8181038181111561026f5761026f6119b5565b8082018082111561026f5761026f6119b5565b6000610100808385031215611a0557600080fd5b6040519081019067ffffffffffffffff82118183101715611a2857611a28611624565b81604052835181526020840151602082015260408401516040820152606084015160608201526080840151608082015260a084015160a082015260c084015160c082015260e084015160e0820152809250505092915050565b60006020808385031215611a9457600080fd5b825167ffffffffffffffff80821115611aac57600080fd5b818501915085601f830112611ac057600080fd5b815181811115611ad257611ad2611624565b8060051b9150611ae3848301611664565b8181529183018401918481019088841115611afd57600080fd5b938501935b83851015611b275784519250611b17836115a6565b8282529385019390850190611b02565b98975050505050505050565b634e487b7160e01b600052603260045260246000fd5b808202811582820484141761026f5761026f6119b5565b600082611b7d57634e487b7160e01b600052601260045260246000fd5b50049056fea26469706673582212209d4b34630103aaa815a10831de18976742a9bed3e8885ef20bfc8c5d5539119264736f6c63430008190033","linkReferences":{"src/storage/AppConfig.sol":{"AppConfig":[{"start":2979,"length":20}]},"src/storage/CommonData.sol":{"CommonData":[{"start":1210,"length":20},{"start":4393,"length":20}]},"src/storage/FeeRewards.sol":{"FeeRewards":[{"start":835,"length":20},{"start":990,"length":20},{"start":1490,"length":20},{"start":1738,"length":20},{"start":1859,"length":20},{"start":2025,"length":20},{"start":2339,"length":20},{"start":2474,"length":20},{"start":2671,"length":20},{"start":2790,"length":20},{"start":2918,"length":20},{"start":3885,"length":20},{"start":4806,"length":20},{"start":4927,"length":20},{"start":5093,"length":20},{"start":5411,"length":20}]},"src/storage/LpPool.sol":{"LpPool":[{"start":4536,"length":20}]},"src/storage/StakingAccount.sol":{"StakingAccount":[{"start":1110,"length":20},{"start":1360,"length":20},{"start":3430,"length":20},{"start":3552,"length":20},{"start":4050,"length":20}]},"src/utils/CalUtils.sol":{"CalUtils":[{"start":583,"length":20},{"start":727,"length":20},{"start":1997,"length":20},{"start":3109,"length":20},{"start":3241,"length":20},{"start":5065,"length":20}]}}},"methodIdentifiers":{"calcBorrowingFee(uint256,Position.Props)":"6c485fde","calcCloseFee(uint8,uint256,uint256)":"4f9a8558","calcMintOrRedeemFee(uint256,uint256)":"4750581d","calcOpenFee(uint256,uint256,bytes32)":"9f04c8e4","getAccountFeeRewards(address)":"ada56365","getAccountUsdFeeReward(address)":"5c99abaa","getCumulativeRewardsPerStakeToken(address)":"7ad18303","getDaoTokenFee(address,address)":"b9ee8073","getMarketTokenFeeAmount(bytes32,address)":"840ad0f1","getPoolTokenFeeAmount(address,address)":"652a5cd4","getStakingTokenFee(address,address)":"55be18cb"},"id":107}