{"abi":[{"type":"function","name":"COLLATERAL_TOTAL_CAP","inputs":[],"outputs":[{"name":"","type":"bytes32","internalType":"bytes32"}],"stateMutability":"view"},{"type":"function","name":"COLLATERAL_USER_CAP","inputs":[],"outputs":[{"name":"","type":"bytes32","internalType":"bytes32"}],"stateMutability":"view"},{"type":"function","name":"DISCOUNT","inputs":[],"outputs":[{"name":"","type":"bytes32","internalType":"bytes32"}],"stateMutability":"view"},{"type":"function","name":"INTEREST_RATE_FACTOR","inputs":[],"outputs":[{"name":"","type":"bytes32","internalType":"bytes32"}],"stateMutability":"view"},{"type":"function","name":"IS_SUPPORT_COLLATERAL","inputs":[],"outputs":[{"name":"","type":"bytes32","internalType":"bytes32"}],"stateMutability":"view"},{"type":"function","name":"LIABILITY_TOTAL_CAP","inputs":[],"outputs":[{"name":"","type":"bytes32","internalType":"bytes32"}],"stateMutability":"view"},{"type":"function","name":"LIABILITY_USER_CAP","inputs":[],"outputs":[{"name":"","type":"bytes32","internalType":"bytes32"}],"stateMutability":"view"},{"type":"function","name":"LIQUIDATION_FACTOR","inputs":[],"outputs":[{"name":"","type":"bytes32","internalType":"bytes32"}],"stateMutability":"view"},{"type":"function","name":"PRECISION","inputs":[],"outputs":[{"name":"","type":"bytes32","internalType":"bytes32"}],"stateMutability":"view"},{"type":"function","name":"getTradeTokenConfig","inputs":[{"name":"token","type":"address","internalType":"address"}],"outputs":[{"name":"","type":"tuple","internalType":"struct AppTradeTokenConfig.TradeTokenConfig","components":[{"name":"isSupportCollateral","type":"bool","internalType":"bool"},{"name":"precision","type":"uint256","internalType":"uint256"},{"name":"discount","type":"uint256","internalType":"uint256"},{"name":"collateralUserCap","type":"uint256","internalType":"uint256"},{"name":"collateralTotalCap","type":"uint256","internalType":"uint256"},{"name":"liabilityUserCap","type":"uint256","internalType":"uint256"},{"name":"liabilityTotalCap","type":"uint256","internalType":"uint256"},{"name":"interestRateFactor","type":"uint256","internalType":"uint256"},{"name":"liquidationFactor","type":"uint256","internalType":"uint256"}]}],"stateMutability":"view"}],"bytecode":{"object":"0x610f05610039600b82828239805160001a607314602c57634e487b7160e01b600052600060045260246000fd5b30600052607381538281f3fe73000000000000000000000000000000000000000030146080604052600436106100a85760003560e01c8063aeb8700511610070578063aeb87005146100e8578063c252796a146100f0578063d3eb5c27146100f8578063dcdb0c0314610100578063e981fddd1461010857600080fd5b80630d37b457146100ad57806346fa8dd3146100c85780637f429c72146100d057806385f3858d146100d8578063aaf5eb68146100e0575b600080fd5b6100b561018a565b6040519081526020015b60405180910390f35b6100b56101cf565b6100b5610208565b6100b5610240565b6100b5610278565b6100b56102a5565b6100b56102dc565b6100b5610313565b6100b5610349565b61011b610116366004610e45565b61037f565b6040516100bf91906000610120820190508251151582526020830151602083015260408301516040830152606083015160608301526080830151608083015260a083015160a083015260c083015160c083015260e083015160e083015261010080840151818401525092915050565b6040516020016101b690602080825260089082015267111254d0d3d5539560c21b604082015260600190565b6040516020818303038152906040528051906020012081565b6040516020016101b6906020808252601590820152741254d7d4d5541413d49517d0d3d313105511549053605a1b604082015260600190565b6040516020016101b6906020808252601490820152730434f4c4c41544552414c5f544f54414c5f4341560641b604082015260600190565b6040516020016101b69060208082526014908201527324a72a22a922a9aa2fa920aa22afa320a1aa27a960611b604082015260600190565b6040516020016101b690602080825260099082015268282922a1a4a9a4a7a760b91b604082015260600190565b6040516020016101b69060208082526013908201527204c494142494c4954595f544f54414c5f43415606c1b604082015260600190565b6040516020016101b6906020808252601390820152720434f4c4c41544552414c5f555345525f43415606c1b604082015260600190565b6040516020016101b69060208082526012908201527104c494142494c4954595f555345525f4341560741b604082015260600190565b6040516020016101b6906020808252601290820152712624a8aaa4a220aa24a7a72fa320a1aa27a960711b604082015260600190565b610387610df7565b61038f610df7565b600073__$819338afc672a9cefb034a8d5ff76e114d$__6386d5c4be6040518163ffffffff1660e01b8152600401602060405180830381865af41580156103da573d6000803e3d6000fd5b505050506040513d601f19601f820116820180604052508101906103fe9190610e75565b905060006040516020016104389060208082526012908201527154524144455f544f4b454e5f434f4e46494760701b604082015260600190565b60408051808303601f19018152908290528051602090910120632f6e7e7960e01b825260048201849052602482018190526001600160a01b0387166044830152915073__$819338afc672a9cefb034a8d5ff76e114d$__90632f6e7e7990606401602060405180830381865af41580156104b6573d6000803e3d6000fd5b505050506040513d601f19601f820116820180604052508101906104da9190610e8e565b6104e75750909392505050565b8173__$819338afc672a9cefb034a8d5ff76e114d$__637921d0b89091838860405160200161053f906020808252601590820152741254d7d4d5541413d49517d0d3d313105511549053605a1b604082015260600190565b6040516020818303038152906040528051906020012060405160200161056793929190610eb0565b604051602081830303815290604052805190602001206040518363ffffffff1660e01b81526004016105a3929190918252602082015260400190565b602060405180830381865af41580156105c0573d6000803e3d6000fd5b505050506040513d601f19601f820116820180604052508101906105e49190610e8e565b1515835260405173__$819338afc672a9cefb034a8d5ff76e114d$__90638b7764479084908490899061063790602001602080825260099082015268282922a1a4a9a4a7a760b91b604082015260600190565b6040516020818303038152906040528051906020012060405160200161065f93929190610eb0565b604051602081830303815290604052805190602001206040518363ffffffff1660e01b815260040161069b929190918252602082015260400190565b602060405180830381865af41580156106b8573d6000803e3d6000fd5b505050506040513d601f19601f820116820180604052508101906106dc9190610e75565b8360200181815250508173__$819338afc672a9cefb034a8d5ff76e114d$__638b7764479091838860405160200161073090602080825260089082015267111254d0d3d5539560c21b604082015260600190565b6040516020818303038152906040528051906020012060405160200161075893929190610eb0565b604051602081830303815290604052805190602001206040518363ffffffff1660e01b8152600401610794929190918252602082015260400190565b602060405180830381865af41580156107b1573d6000803e3d6000fd5b505050506040513d601f19601f820116820180604052508101906107d59190610e75565b8360400181815250508173__$819338afc672a9cefb034a8d5ff76e114d$__638b77644790918388604051602001610834906020808252601390820152720434f4c4c41544552414c5f555345525f43415606c1b604082015260600190565b6040516020818303038152906040528051906020012060405160200161085c93929190610eb0565b604051602081830303815290604052805190602001206040518363ffffffff1660e01b8152600401610898929190918252602082015260400190565b602060405180830381865af41580156108b5573d6000803e3d6000fd5b505050506040513d601f19601f820116820180604052508101906108d99190610e75565b606084015260405173__$819338afc672a9cefb034a8d5ff76e114d$__90638b77644790849084908990610938906020016020808252601490820152730434f4c4c41544552414c5f544f54414c5f4341560641b604082015260600190565b6040516020818303038152906040528051906020012060405160200161096093929190610eb0565b604051602081830303815290604052805190602001206040518363ffffffff1660e01b815260040161099c929190918252602082015260400190565b602060405180830381865af41580156109b9573d6000803e3d6000fd5b505050506040513d601f19601f820116820180604052508101906109dd9190610e75565b608084015260405173__$819338afc672a9cefb034a8d5ff76e114d$__90638b77644790849084908990610a3a9060200160208082526012908201527104c494142494c4954595f555345525f4341560741b604082015260600190565b60405160208183030381529060405280519060200120604051602001610a6293929190610eb0565b604051602081830303815290604052805190602001206040518363ffffffff1660e01b8152600401610a9e929190918252602082015260400190565b602060405180830381865af4158015610abb573d6000803e3d6000fd5b505050506040513d601f19601f82011682018060405250810190610adf9190610e75565b60a084015260405173__$819338afc672a9cefb034a8d5ff76e114d$__90638b77644790849084908990610b3d9060200160208082526013908201527204c494142494c4954595f544f54414c5f43415606c1b604082015260600190565b60405160208183030381529060405280519060200120604051602001610b6593929190610eb0565b604051602081830303815290604052805190602001206040518363ffffffff1660e01b8152600401610ba1929190918252602082015260400190565b602060405180830381865af4158015610bbe573d6000803e3d6000fd5b505050506040513d601f19601f82011682018060405250810190610be29190610e75565b60c084015260405173__$819338afc672a9cefb034a8d5ff76e114d$__90638b77644790849084908990610c419060200160208082526014908201527324a72a22a922a9aa2fa920aa22afa320a1aa27a960611b604082015260600190565b60405160208183030381529060405280519060200120604051602001610c6993929190610eb0565b604051602081830303815290604052805190602001206040518363ffffffff1660e01b8152600401610ca5929190918252602082015260400190565b602060405180830381865af4158015610cc2573d6000803e3d6000fd5b505050506040513d601f19601f82011682018060405250810190610ce69190610e75565b60e084015260405173__$819338afc672a9cefb034a8d5ff76e114d$__90638b77644790849084908990610d43906020016020808252601290820152712624a8aaa4a220aa24a7a72fa320a1aa27a960711b604082015260600190565b60405160208183030381529060405280519060200120604051602001610d6b93929190610eb0565b604051602081830303815290604052805190602001206040518363ffffffff1660e01b8152600401610da7929190918252602082015260400190565b602060405180830381865af4158015610dc4573d6000803e3d6000fd5b505050506040513d601f19601f82011682018060405250810190610de89190610e75565b61010084015250909392505050565b60405180610120016040528060001515815260200160008152602001600081526020016000815260200160008152602001600081526020016000815260200160008152602001600081525090565b600060208284031215610e5757600080fd5b81356001600160a01b0381168114610e6e57600080fd5b9392505050565b600060208284031215610e8757600080fd5b5051919050565b600060208284031215610ea057600080fd5b81518015158114610e6e57600080fd5b9283526001600160a01b0391909116602083015260408201526060019056fea264697066735822122022197e6084d6928eddd99f38d70a3694fb0cd7134c251b3a4feed31ceb61793864736f6c63430008190033","linkReferences":{"src/storage/AppStorage.sol":{"AppStorage":[{"start":972,"length":20},{"start":1205,"length":20},{"start":1315,"length":20},{"start":1574,"length":20},{"start":1825,"length":20},{"start":2074,"length":20},{"start":2332,"length":20},{"start":2592,"length":20},{"start":2850,"length":20},{"start":3109,"length":20},{"start":3369,"length":20}]}}},"methodIdentifiers":{"COLLATERAL_TOTAL_CAP()":"7f429c72","COLLATERAL_USER_CAP()":"c252796a","DISCOUNT()":"0d37b457","INTEREST_RATE_FACTOR()":"85f3858d","IS_SUPPORT_COLLATERAL()":"46fa8dd3","LIABILITY_TOTAL_CAP()":"aeb87005","LIABILITY_USER_CAP()":"d3eb5c27","LIQUIDATION_FACTOR()":"dcdb0c03","PRECISION()":"aaf5eb68","getTradeTokenConfig(address)":"e981fddd"},"id":124}