{"abi":[{"type":"function","name":"COLLATERAL_TOTAL_CAP","inputs":[],"outputs":[{"name":"","type":"bytes32","internalType":"bytes32"}],"stateMutability":"view"},{"type":"function","name":"COLLATERAL_USER_CAP","inputs":[],"outputs":[{"name":"","type":"bytes32","internalType":"bytes32"}],"stateMutability":"view"},{"type":"function","name":"DISCOUNT","inputs":[],"outputs":[{"name":"","type":"bytes32","internalType":"bytes32"}],"stateMutability":"view"},{"type":"function","name":"INTEREST_RATE_FACTOR","inputs":[],"outputs":[{"name":"","type":"bytes32","internalType":"bytes32"}],"stateMutability":"view"},{"type":"function","name":"IS_SUPPORT_COLLATERAL","inputs":[],"outputs":[{"name":"","type":"bytes32","internalType":"bytes32"}],"stateMutability":"view"},{"type":"function","name":"LIABILITY_TOTAL_CAP","inputs":[],"outputs":[{"name":"","type":"bytes32","internalType":"bytes32"}],"stateMutability":"view"},{"type":"function","name":"LIABILITY_USER_CAP","inputs":[],"outputs":[{"name":"","type":"bytes32","internalType":"bytes32"}],"stateMutability":"view"},{"type":"function","name":"LIQUIDATION_FACTOR","inputs":[],"outputs":[{"name":"","type":"bytes32","internalType":"bytes32"}],"stateMutability":"view"},{"type":"function","name":"PRECISION","inputs":[],"outputs":[{"name":"","type":"bytes32","internalType":"bytes32"}],"stateMutability":"view"}],"bytecode":{"object":"0x610327610039600b82828239805160001a607314602c57634e487b7160e01b600052600060045260246000fd5b30600052607381538281f3fe730000000000000000000000000000000000000000301460806040526004361061009d5760003560e01c8063aaf5eb6811610070578063aaf5eb68146100d4578063aeb87005146100dc578063c252796a146100e4578063d3eb5c27146100ec578063dcdb0c03146100f457600080fd5b80630d37b457146100a257806346fa8dd3146100bc5780637f429c72146100c457806385f3858d146100cc575b600080fd5b6100aa6100fc565b60405190815260200160405180910390f35b6100aa610141565b6100aa61017a565b6100aa6101b2565b6100aa6101ea565b6100aa610217565b6100aa61024e565b6100aa610285565b6100aa6102bb565b60405160200161012890602080825260089082015267111254d0d3d5539560c21b604082015260600190565b6040516020818303038152906040528051906020012081565b604051602001610128906020808252601590820152741254d7d4d5541413d49517d0d3d313105511549053605a1b604082015260600190565b604051602001610128906020808252601490820152730434f4c4c41544552414c5f544f54414c5f4341560641b604082015260600190565b6040516020016101289060208082526014908201527324a72a22a922a9aa2fa920aa22afa320a1aa27a960611b604082015260600190565b60405160200161012890602080825260099082015268282922a1a4a9a4a7a760b91b604082015260600190565b6040516020016101289060208082526013908201527204c494142494c4954595f544f54414c5f43415606c1b604082015260600190565b604051602001610128906020808252601390820152720434f4c4c41544552414c5f555345525f43415606c1b604082015260600190565b6040516020016101289060208082526012908201527104c494142494c4954595f555345525f4341560741b604082015260600190565b604051602001610128906020808252601290820152712624a8aaa4a220aa24a7a72fa320a1aa27a960711b60408201526060019056fea2646970667358221220f06c513eb3edbaa2e4cec331b9a86209396475b9e7b3411d849a5ed427ba9fd564736f6c63430008190033","linkReferences":{}},"methodIdentifiers":{"COLLATERAL_TOTAL_CAP()":"7f429c72","COLLATERAL_USER_CAP()":"c252796a","DISCOUNT()":"0d37b457","INTEREST_RATE_FACTOR()":"85f3858d","IS_SUPPORT_COLLATERAL()":"46fa8dd3","LIABILITY_TOTAL_CAP()":"aeb87005","LIABILITY_USER_CAP()":"d3eb5c27","LIQUIDATION_FACTOR()":"dcdb0c03","PRECISION()":"aaf5eb68"},"id":134}