{"abi":[{"type":"function","name":"CANCEL_ORDER_AUTO_REDUCE","inputs":[],"outputs":[{"name":"","type":"bytes32","internalType":"bytes32"}],"stateMutability":"view"},{"type":"function","name":"CANCEL_ORDER_LIQUIDATION","inputs":[],"outputs":[{"name":"","type":"bytes32","internalType":"bytes32"}],"stateMutability":"view"},{"type":"function","name":"CANCEL_ORDER_POSITION_CLOSE","inputs":[],"outputs":[{"name":"","type":"bytes32","internalType":"bytes32"}],"stateMutability":"view"},{"type":"event","name":"CancelOrderEvent","inputs":[{"name":"orderId","type":"uint256","indexed":true,"internalType":"uint256"},{"name":"data","type":"tuple","indexed":false,"internalType":"struct Order.OrderInfo","components":[{"name":"account","type":"address","internalType":"address"},{"name":"symbol","type":"bytes32","internalType":"bytes32"},{"name":"orderSide","type":"uint8","internalType":"enum Order.Side"},{"name":"posSide","type":"uint8","internalType":"enum Order.PositionSide"},{"name":"orderType","type":"uint8","internalType":"enum Order.Type"},{"name":"stopType","type":"uint8","internalType":"enum Order.StopType"},{"name":"isCrossMargin","type":"bool","internalType":"bool"},{"name":"isExecutionFeeFromTradeVault","type":"bool","internalType":"bool"},{"name":"marginToken","type":"address","internalType":"address"},{"name":"qty","type":"uint256","internalType":"uint256"},{"name":"leverage","type":"uint256","internalType":"uint256"},{"name":"orderMargin","type":"uint256","internalType":"uint256"},{"name":"triggerPrice","type":"uint256","internalType":"uint256"},{"name":"acceptablePrice","type":"uint256","internalType":"uint256"},{"name":"placeTime","type":"uint256","internalType":"uint256"},{"name":"executionFee","type":"uint256","internalType":"uint256"},{"name":"lastBlock","type":"uint256","internalType":"uint256"}]},{"name":"reasonCode","type":"bytes32","indexed":false,"internalType":"bytes32"}],"anonymous":false}],"bytecode":{"object":"0x61101c610039600b82828239805160001a607314602c57634e487b7160e01b600052600060045260246000fd5b30600052607381538281f3fe73000000000000000000000000000000000000000030146080604052600436106100615760003560e01c80633aba8004146100665780636bc60865146100805780638276b758146100a2578063d7ffe5cf146100aa578063e0ee6876146100ca575b600080fd5b61006e6100d2565b60405190815260200160405180910390f35b81801561008c57600080fd5b506100a061009b366004610b33565b61012e565b005b61006e610701565b8180156100b657600080fd5b506100a06100c5366004610c27565b610742565b61006e610ab1565b6040516020016101139060208082526017908201527f43414e43454c5f574954485f4c49515549444154494f4e000000000000000000604082015260600190565b60405160208183030381529060405261012b90610d68565b81565b604051630bd039cd60e21b81526001600160a01b038716600482015260009073__$1dcbc4e76af7484d3342475f6e32ea9921$__90632f40e73490602401602060405180830381865af4158015610189573d6000803e3d6000fd5b505050506040513d601f19601f820116820180604052508101906101ad9190610d8f565b604051632d6e8bd360e11b81526004810182905290915060009073__$1dcbc4e76af7484d3342475f6e32ea9921$__90635add17a690602401600060405180830381865af4158015610203573d6000803e3d6000fd5b505050506040513d6000823e601f3d908101601f1916820160405261022b9190810190610da8565b9050805160000361023d5750506106f9565b600073__$6f943ad19ffd2cc09153ac61e6a5ce1aaf$__6386d5c4be6040518163ffffffff1660e01b8152600401602060405180830381865af4158015610288573d6000803e3d6000fd5b505050506040513d601f19601f820116820180604052508101906102ac9190610d8f565b905060005b82518110156106f457848382815181106102cd576102cd610e4e565b602002602001015103156106ec5760008273__$6f943ad19ffd2cc09153ac61e6a5ce1aaf$__63c000c8ee909186858151811061030c5761030c610e4e565b60200260200101516040518363ffffffff1660e01b815260040161033a929190918252602082015260400190565b602060405180830381865af4158015610357573d6000803e3d6000fd5b505050506040513d601f19601f8201168201806040525081019061037b9190610d8f565b604080516102208101825282546001600160a01b031681526001830154602082015260028084015491939284019160ff16908111156103bc576103bc610e64565b60028111156103cd576103cd610e64565b81526020016002820160019054906101000a900460ff1660028111156103f5576103f5610e64565b600281111561040657610406610e64565b81526020016002820160029054906101000a900460ff16600381111561042e5761042e610e64565b600381111561043f5761043f610e64565b81526020016002820160039054906101000a900460ff16600281111561046757610467610e64565b600281111561047857610478610e64565b81526002820154640100000000810460ff90811615156020808501919091526501000000000083049091161515604084015266010000000000009091046001600160a01b0316606083015260038301546080830152600483015460a0830152600583015460c0830152600683015460e0830152600783015461010083015260088301546101208301526009830154610140830152600a90920154610160909101528101519091508a1480156105435750886001600160a01b03168161010001516001600160a01b0316145b801561056457508060800151600381111561056057610560610e64565b6003145b801561057757508715158160c001511515145b156106ea578473__$1dcbc4e76af7484d3342475f6e32ea9921$__63382507f590918685815181106105ab576105ab610e4e565b60200260200101516040518363ffffffff1660e01b81526004016105d9929190918252602082015260400190565b60006040518083038186803b1580156105f157600080fd5b505af4158015610605573d6000803e3d6000fd5b505050508273__$6f943ad19ffd2cc09153ac61e6a5ce1aaf$__6358b7169a909186858151811061063857610638610e4e565b60200260200101516040518363ffffffff1660e01b8152600401610666929190918252602082015260400190565b60006040518083038186803b15801561067e57600080fd5b505af4158015610692573d6000803e3d6000fd5b505050508382815181106106a8576106a8610e4e565b60200260200101517fa2bce5ff82d63e38ec31c6270a397e7cae4d5ed319bd73e318d4916d4ff6866882896040516106e1929190610e9e565b60405180910390a25b505b6001016102b1565b505050505b505050505050565b604051602001610113906020808252601a908201527f43414e43454c5f574954485f504f534954494f4e5f434c4f5345000000000000604082015260600190565b8151604051630bd039cd60e21b81526001600160a01b03909116600482015260009073__$1dcbc4e76af7484d3342475f6e32ea9921$__90632f40e73490602401602060405180830381865af41580156107a0573d6000803e3d6000fd5b505050506040513d601f19601f820116820180604052508101906107c49190610d8f565b60405163382507f560e01b8152600481018290526024810186905290915073__$1dcbc4e76af7484d3342475f6e32ea9921$__9063382507f59060440160006040518083038186803b15801561081957600080fd5b505af415801561082d573d6000803e3d6000fd5b5050604051634cc8221560e01b81526004810187905273__$6f943ad19ffd2cc09153ac61e6a5ce1aaf$__9250634cc82215915060240160006040518083038186803b15801561087c57600080fd5b505af4158015610890573d6000803e3d6000fd5b50505050826060015160028111156108aa576108aa610e64565b60011480156108ba57508260c001515b1561093a57610160830151604051635f4096e360e01b815273__$1dcbc4e76af7484d3342475f6e32ea9921$__91635f4096e391610905918591600401918252602082015260400190565b60006040518083038186803b15801561091d57600080fd5b505af4158015610931573d6000803e3d6000fd5b50505050610a71565b8260600151600281111561095057610950610e64565b600114801561096157508260c00151155b15610a715773__$eda0f617f16c95263174d8d25961933b8d$__6385e2b880306001600160a01b03166397e7b7f26040518163ffffffff1660e01b8152600401602060405180830381865afa1580156109be573d6000803e3d6000fd5b505050506040513d601f19601f820116820180604052508101906109e29190610fa5565b610100860151865161016088015160405160e086901b6001600160e01b03191681526001600160a01b0394851660048201529284166024840152921660448201526064810191909152608401602060405180830381865af4158015610a4b573d6000803e3d6000fd5b505050506040513d601f19601f82011682018060405250810190610a6f9190610fc9565b505b837fa2bce5ff82d63e38ec31c6270a397e7cae4d5ed319bd73e318d4916d4ff686688484604051610aa3929190610e9e565b60405180910390a250505050565b6040516020016101139060208082526017908201527f43414e43454c5f574954485f4155544f5f524544554345000000000000000000604082015260600190565b6001600160a01b0381168114610b0757600080fd5b50565b8035610b1581610af2565b919050565b8015158114610b0757600080fd5b8035610b1581610b1a565b60008060008060008060c08789031215610b4c57600080fd5b8635610b5781610af2565b9550602087013594506040870135610b6e81610af2565b93506060870135610b7e81610b1a565b9598949750929560808101359460a0909101359350915050565b634e487b7160e01b600052604160045260246000fd5b604051610220810167ffffffffffffffff81118282101715610bd257610bd2610b98565b60405290565b604051601f8201601f1916810167ffffffffffffffff81118282101715610c0157610c01610b98565b604052919050565b803560038110610b1557600080fd5b803560048110610b1557600080fd5b6000806000838503610260811215610c3e57600080fd5b8435935061022080601f1983011215610c5657600080fd5b610c5e610bae565b9150610c6c60208701610b0a565b825260408601356020830152610c8460608701610c09565b6040830152610c9560808701610c09565b6060830152610ca660a08701610c18565b6080830152610cb760c08701610c09565b60a0830152610cc860e08701610b28565b60c0830152610100610cdb818801610b28565b60e0840152610120610cee818901610b0a565b828501526101409150818801358185015250610160808801358285015261018091508188013581850152506101a080880135828501526101c091508188013581850152506101e080880135828501526102009150818801358185015250818701358184015250508092505061024084013590509250925092565b80516020808301519190811015610d89576000198160200360031b1b821691505b50919050565b600060208284031215610da157600080fd5b5051919050565b60006020808385031215610dbb57600080fd5b825167ffffffffffffffff80821115610dd357600080fd5b818501915085601f830112610de757600080fd5b815181811115610df957610df9610b98565b8060051b9150610e0a848301610bd8565b8181529183018401918481019088841115610e2457600080fd5b938501935b83851015610e4257845182529385019390850190610e29565b98975050505050505050565b634e487b7160e01b600052603260045260246000fd5b634e487b7160e01b600052602160045260246000fd5b60038110610e8a57610e8a610e64565b9052565b60048110610e8a57610e8a610e64565b82516001600160a01b031681526102408101602084015160208301526040840151610ecc6040840182610e7a565b506060840151610edf6060840182610e7a565b506080840151610ef26080840182610e8e565b5060a0840151610f0560a0840182610e7a565b5060c0840151610f1960c084018215159052565b5060e0840151610f2d60e084018215159052565b50610100848101516001600160a01b03169083015261012080850151908301526101408085015190830152610160808501519083015261018080850151908301526101a080850151908301526101c080850151908301526101e080850151908301526102009384015193820193909352610220015290565b600060208284031215610fb757600080fd5b8151610fc281610af2565b9392505050565b600060208284031215610fdb57600080fd5b8151610fc281610b1a56fea264697066735822122076bd9a51b274628fafa4656cd4bc1955fd6ad8950da1e21192c506fe8816cd2564736f6c63430008190033","linkReferences":{"src/process/VaultProcess.sol":{"VaultProcess":[{"start":2465,"length":20}]},"src/storage/Account.sol":{"Account":[{"start":392,"length":20},{"start":514,"length":20},{"start":1464,"length":20},{"start":1951,"length":20},{"start":2077,"length":20},{"start":2317,"length":20}]},"src/storage/Order.sol":{"Order":[{"start":634,"length":20},{"start":793,"length":20},{"start":1605,"length":20},{"start":2174,"length":20}]}}},"methodIdentifiers":{"CANCEL_ORDER_AUTO_REDUCE()":"e0ee6876","CANCEL_ORDER_LIQUIDATION()":"3aba8004","CANCEL_ORDER_POSITION_CLOSE()":"8276b758","cancelOrder(uint256,Order.OrderInfo,bytes32)":"d7ffe5cf","cancelStopOrders(address,bytes32,address,bool,bytes32,uint256)":"6bc60865"},"id":92}