{"abi":[{"type":"function","name":"CANCEL_ORDER_AUTO_REDUCE","inputs":[],"outputs":[{"name":"","type":"bytes32","internalType":"bytes32"}],"stateMutability":"view"},{"type":"function","name":"CANCEL_ORDER_LIQUIDATION","inputs":[],"outputs":[{"name":"","type":"bytes32","internalType":"bytes32"}],"stateMutability":"view"},{"type":"function","name":"CANCEL_ORDER_POSITION_CLOSE","inputs":[],"outputs":[{"name":"","type":"bytes32","internalType":"bytes32"}],"stateMutability":"view"},{"type":"event","name":"CancelOrderEvent","inputs":[{"name":"orderId","type":"uint256","indexed":true,"internalType":"uint256"},{"name":"data","type":"tuple","indexed":false,"internalType":"struct Order.OrderInfo","components":[{"name":"account","type":"address","internalType":"address"},{"name":"symbol","type":"bytes32","internalType":"bytes32"},{"name":"orderSide","type":"uint8","internalType":"enum Order.Side"},{"name":"posSide","type":"uint8","internalType":"enum Order.PositionSide"},{"name":"orderType","type":"uint8","internalType":"enum Order.Type"},{"name":"stopType","type":"uint8","internalType":"enum Order.StopType"},{"name":"isCrossMargin","type":"bool","internalType":"bool"},{"name":"isExecutionFeeFromTradeVault","type":"bool","internalType":"bool"},{"name":"marginToken","type":"address","internalType":"address"},{"name":"qty","type":"uint256","internalType":"uint256"},{"name":"leverage","type":"uint256","internalType":"uint256"},{"name":"orderMargin","type":"uint256","internalType":"uint256"},{"name":"triggerPrice","type":"uint256","internalType":"uint256"},{"name":"acceptablePrice","type":"uint256","internalType":"uint256"},{"name":"placeTime","type":"uint256","internalType":"uint256"},{"name":"executionFee","type":"uint256","internalType":"uint256"},{"name":"lastBlock","type":"uint256","internalType":"uint256"}]},{"name":"reasonCode","type":"bytes32","indexed":false,"internalType":"bytes32"}],"anonymous":false}],"bytecode":{"object":"0x6101b5610039600b82828239805160001a607314602c57634e487b7160e01b600052600060045260246000fd5b30600052607381538281f3fe730000000000000000000000000000000000000000301460806040526004361061004b5760003560e01c80633aba8004146100505780638276b7581461006a578063e0ee687614610072575b600080fd5b61005861007a565b60405190815260200160405180910390f35b6100586100d6565b610058610117565b6040516020016100bb9060208082526017908201527f43414e43454c5f574954485f4c49515549444154494f4e000000000000000000604082015260600190565b6040516020818303038152906040526100d390610158565b81565b6040516020016100bb906020808252601a908201527f43414e43454c5f574954485f504f534954494f4e5f434c4f5345000000000000604082015260600190565b6040516020016100bb9060208082526017908201527f43414e43454c5f574954485f4155544f5f524544554345000000000000000000604082015260600190565b80516020808301519190811015610179576000198160200360031b1b821691505b5091905056fea2646970667358221220caa929297c84562bcd73c52f7d08b833cfc5c005b419296472d99656cc31363164736f6c63430008190033","linkReferences":{}},"methodIdentifiers":{"CANCEL_ORDER_AUTO_REDUCE()":"e0ee6876","CANCEL_ORDER_LIQUIDATION()":"3aba8004","CANCEL_ORDER_POSITION_CLOSE()":"8276b758"},"id":102}