{"abi":[{"type":"function","name":"getLpVault","inputs":[],"outputs":[{"name":"","type":"address","internalType":"contract LpVault"}],"stateMutability":"view"},{"type":"function","name":"getLpVaultAddress","inputs":[],"outputs":[{"name":"","type":"address","internalType":"address"}],"stateMutability":"view"},{"type":"function","name":"getPortfolioVault","inputs":[],"outputs":[{"name":"","type":"address","internalType":"contract PortfolioVault"}],"stateMutability":"view"},{"type":"function","name":"getPortfolioVaultAddress","inputs":[],"outputs":[{"name":"","type":"address","internalType":"address"}],"stateMutability":"view"},{"type":"function","name":"getTradeVault","inputs":[],"outputs":[{"name":"","type":"address","internalType":"contract TradeVault"}],"stateMutability":"view"},{"type":"function","name":"getTradeVaultAddress","inputs":[],"outputs":[{"name":"","type":"address","internalType":"address"}],"stateMutability":"view"}],"bytecode":{"object":"0x6080604052348015600f57600080fd5b5061020b8061001f6000396000f3fe608060405234801561001057600080fd5b50600436106100625760003560e01c806308ba026f14610067578063131d5c8a1461008b5780631f7592ea1461009357806397e7b7f21461008b578063da57c7f814610067578063f413e81a14610093575b600080fd5b61006f61009b565b6040516001600160a01b03909116815260200160405180910390f35b61006f61010f565b61006f61015a565b600073__$29df653331a3e9d3b471959b8240e5de4a$__63da57c7f86040518163ffffffff1660e01b8152600401602060405180830381865af41580156100e6573d6000803e3d6000fd5b505050506040513d601f19601f8201168201806040525081019061010a91906101a5565b905090565b600073__$29df653331a3e9d3b471959b8240e5de4a$__63131d5c8a6040518163ffffffff1660e01b8152600401602060405180830381865af41580156100e6573d6000803e3d6000fd5b600073__$29df653331a3e9d3b471959b8240e5de4a$__63f413e81a6040518163ffffffff1660e01b8152600401602060405180830381865af41580156100e6573d6000803e3d6000fd5b6000602082840312156101b757600080fd5b81516001600160a01b03811681146101ce57600080fd5b939250505056fea2646970667358221220dffaeeced6297dc659ee81ae8dee132657af6cc94cc4a4a055afb41f9fdbddca64736f6c63430008190033","linkReferences":{"src/storage/AppVaultConfig.sol":{"AppVaultConfig":[{"start":190,"length":20},{"start":306,"length":20},{"start":381,"length":20}]}}},"methodIdentifiers":{"getLpVault()":"da57c7f8","getLpVaultAddress()":"08ba026f","getPortfolioVault()":"f413e81a","getPortfolioVaultAddress()":"1f7592ea","getTradeVault()":"131d5c8a","getTradeVaultAddress()":"97e7b7f2"},"id":74}