{"abi":[{"type":"function","name":"getMM","inputs":[{"name":"qty","type":"uint256","internalType":"uint256"},{"name":"leverage","type":"uint256","internalType":"uint256"},{"name":"maxMMRate","type":"uint256","internalType":"uint256"}],"outputs":[{"name":"","type":"uint256","internalType":"uint256"}],"stateMutability":"pure"},{"type":"function","name":"getPositionFee","inputs":[{"name":"position","type":"tuple","internalType":"struct Position.Props","components":[{"name":"key","type":"bytes32","internalType":"bytes32"},{"name":"symbol","type":"bytes32","internalType":"bytes32"},{"name":"isLong","type":"bool","internalType":"bool"},{"name":"isCrossMargin","type":"bool","internalType":"bool"},{"name":"account","type":"address","internalType":"address"},{"name":"marginToken","type":"address","internalType":"address"},{"name":"indexToken","type":"address","internalType":"address"},{"name":"qty","type":"uint256","internalType":"uint256"},{"name":"entryPrice","type":"uint256","internalType":"uint256"},{"name":"leverage","type":"uint256","internalType":"uint256"},{"name":"initialMargin","type":"uint256","internalType":"uint256"},{"name":"initialMarginInUsd","type":"uint256","internalType":"uint256"},{"name":"initialMarginInUsdFromBalance","type":"uint256","internalType":"uint256"},{"name":"holdPoolAmount","type":"uint256","internalType":"uint256"},{"name":"positionFee","type":"tuple","internalType":"struct Position.PositionFee","components":[{"name":"closeFeeInUsd","type":"uint256","internalType":"uint256"},{"name":"openBorrowingFeePerToken","type":"uint256","internalType":"uint256"},{"name":"realizedBorrowingFee","type":"uint256","internalType":"uint256"},{"name":"realizedBorrowingFeeInUsd","type":"uint256","internalType":"uint256"},{"name":"openFundingFeePerQty","type":"int256","internalType":"int256"},{"name":"realizedFundingFee","type":"int256","internalType":"int256"},{"name":"realizedFundingFeeInUsd","type":"int256","internalType":"int256"}]},{"name":"realizedPnl","type":"int256","internalType":"int256"},{"name":"lastUpdateTime","type":"uint256","internalType":"uint256"}]}],"outputs":[{"name":"","type":"int256","internalType":"int256"}],"stateMutability":"view"},{"type":"function","name":"getPositionFee","inputs":[{"name":"position","type":"tuple","internalType":"struct Position.Props","components":[{"name":"key","type":"bytes32","internalType":"bytes32"},{"name":"symbol","type":"bytes32","internalType":"bytes32"},{"name":"isLong","type":"bool","internalType":"bool"},{"name":"isCrossMargin","type":"bool","internalType":"bool"},{"name":"account","type":"address","internalType":"address"},{"name":"marginToken","type":"address","internalType":"address"},{"name":"indexToken","type":"address","internalType":"address"},{"name":"qty","type":"uint256","internalType":"uint256"},{"name":"entryPrice","type":"uint256","internalType":"uint256"},{"name":"leverage","type":"uint256","internalType":"uint256"},{"name":"initialMargin","type":"uint256","internalType":"uint256"},{"name":"initialMarginInUsd","type":"uint256","internalType":"uint256"},{"name":"initialMarginInUsdFromBalance","type":"uint256","internalType":"uint256"},{"name":"holdPoolAmount","type":"uint256","internalType":"uint256"},{"name":"positionFee","type":"tuple","internalType":"struct Position.PositionFee","components":[{"name":"closeFeeInUsd","type":"uint256","internalType":"uint256"},{"name":"openBorrowingFeePerToken","type":"uint256","internalType":"uint256"},{"name":"realizedBorrowingFee","type":"uint256","internalType":"uint256"},{"name":"realizedBorrowingFeeInUsd","type":"uint256","internalType":"uint256"},{"name":"openFundingFeePerQty","type":"int256","internalType":"int256"},{"name":"realizedFundingFee","type":"int256","internalType":"int256"},{"name":"realizedFundingFeeInUsd","type":"int256","internalType":"int256"}]},{"name":"realizedPnl","type":"int256","internalType":"int256"},{"name":"lastUpdateTime","type":"uint256","internalType":"uint256"}]},{"name":"oracles","type":"tuple[]","internalType":"struct OracleProcess.OracleParam[]","components":[{"name":"token","type":"address","internalType":"address"},{"name":"targetToken","type":"address","internalType":"address"},{"name":"minPrice","type":"int256","internalType":"int256"},{"name":"maxPrice","type":"int256","internalType":"int256"}]}],"outputs":[{"name":"","type":"int256","internalType":"int256"}],"stateMutability":"view"},{"type":"function","name":"getPositionMM","inputs":[{"name":"position","type":"tuple","internalType":"struct Position.Props","components":[{"name":"key","type":"bytes32","internalType":"bytes32"},{"name":"symbol","type":"bytes32","internalType":"bytes32"},{"name":"isLong","type":"bool","internalType":"bool"},{"name":"isCrossMargin","type":"bool","internalType":"bool"},{"name":"account","type":"address","internalType":"address"},{"name":"marginToken","type":"address","internalType":"address"},{"name":"indexToken","type":"address","internalType":"address"},{"name":"qty","type":"uint256","internalType":"uint256"},{"name":"entryPrice","type":"uint256","internalType":"uint256"},{"name":"leverage","type":"uint256","internalType":"uint256"},{"name":"initialMargin","type":"uint256","internalType":"uint256"},{"name":"initialMarginInUsd","type":"uint256","internalType":"uint256"},{"name":"initialMarginInUsdFromBalance","type":"uint256","internalType":"uint256"},{"name":"holdPoolAmount","type":"uint256","internalType":"uint256"},{"name":"positionFee","type":"tuple","internalType":"struct Position.PositionFee","components":[{"name":"closeFeeInUsd","type":"uint256","internalType":"uint256"},{"name":"openBorrowingFeePerToken","type":"uint256","internalType":"uint256"},{"name":"realizedBorrowingFee","type":"uint256","internalType":"uint256"},{"name":"realizedBorrowingFeeInUsd","type":"uint256","internalType":"uint256"},{"name":"openFundingFeePerQty","type":"int256","internalType":"int256"},{"name":"realizedFundingFee","type":"int256","internalType":"int256"},{"name":"realizedFundingFeeInUsd","type":"int256","internalType":"int256"}]},{"name":"realizedPnl","type":"int256","internalType":"int256"},{"name":"lastUpdateTime","type":"uint256","internalType":"uint256"}]}],"outputs":[{"name":"","type":"uint256","internalType":"uint256"}],"stateMutability":"view"},{"type":"function","name":"getPositionMMRate","inputs":[{"name":"position","type":"tuple","internalType":"struct Position.Props","components":[{"name":"key","type":"bytes32","internalType":"bytes32"},{"name":"symbol","type":"bytes32","internalType":"bytes32"},{"name":"isLong","type":"bool","internalType":"bool"},{"name":"isCrossMargin","type":"bool","internalType":"bool"},{"name":"account","type":"address","internalType":"address"},{"name":"marginToken","type":"address","internalType":"address"},{"name":"indexToken","type":"address","internalType":"address"},{"name":"qty","type":"uint256","internalType":"uint256"},{"name":"entryPrice","type":"uint256","internalType":"uint256"},{"name":"leverage","type":"uint256","internalType":"uint256"},{"name":"initialMargin","type":"uint256","internalType":"uint256"},{"name":"initialMarginInUsd","type":"uint256","internalType":"uint256"},{"name":"initialMarginInUsdFromBalance","type":"uint256","internalType":"uint256"},{"name":"holdPoolAmount","type":"uint256","internalType":"uint256"},{"name":"positionFee","type":"tuple","internalType":"struct Position.PositionFee","components":[{"name":"closeFeeInUsd","type":"uint256","internalType":"uint256"},{"name":"openBorrowingFeePerToken","type":"uint256","internalType":"uint256"},{"name":"realizedBorrowingFee","type":"uint256","internalType":"uint256"},{"name":"realizedBorrowingFeeInUsd","type":"uint256","internalType":"uint256"},{"name":"openFundingFeePerQty","type":"int256","internalType":"int256"},{"name":"realizedFundingFee","type":"int256","internalType":"int256"},{"name":"realizedFundingFeeInUsd","type":"int256","internalType":"int256"}]},{"name":"realizedPnl","type":"int256","internalType":"int256"},{"name":"lastUpdateTime","type":"uint256","internalType":"uint256"}]}],"outputs":[{"name":"","type":"uint256","internalType":"uint256"}],"stateMutability":"view"},{"type":"function","name":"getPositionUnPnl","inputs":[{"name":"position","type":"tuple","internalType":"struct Position.Props","components":[{"name":"key","type":"bytes32","internalType":"bytes32"},{"name":"symbol","type":"bytes32","internalType":"bytes32"},{"name":"isLong","type":"bool","internalType":"bool"},{"name":"isCrossMargin","type":"bool","internalType":"bool"},{"name":"account","type":"address","internalType":"address"},{"name":"marginToken","type":"address","internalType":"address"},{"name":"indexToken","type":"address","internalType":"address"},{"name":"qty","type":"uint256","internalType":"uint256"},{"name":"entryPrice","type":"uint256","internalType":"uint256"},{"name":"leverage","type":"uint256","internalType":"uint256"},{"name":"initialMargin","type":"uint256","internalType":"uint256"},{"name":"initialMarginInUsd","type":"uint256","internalType":"uint256"},{"name":"initialMarginInUsdFromBalance","type":"uint256","internalType":"uint256"},{"name":"holdPoolAmount","type":"uint256","internalType":"uint256"},{"name":"positionFee","type":"tuple","internalType":"struct Position.PositionFee","components":[{"name":"closeFeeInUsd","type":"uint256","internalType":"uint256"},{"name":"openBorrowingFeePerToken","type":"uint256","internalType":"uint256"},{"name":"realizedBorrowingFee","type":"uint256","internalType":"uint256"},{"name":"realizedBorrowingFeeInUsd","type":"uint256","internalType":"uint256"},{"name":"openFundingFeePerQty","type":"int256","internalType":"int256"},{"name":"realizedFundingFee","type":"int256","internalType":"int256"},{"name":"realizedFundingFeeInUsd","type":"int256","internalType":"int256"}]},{"name":"realizedPnl","type":"int256","internalType":"int256"},{"name":"lastUpdateTime","type":"uint256","internalType":"uint256"}]},{"name":"computeIndexPrice","type":"int256","internalType":"int256"},{"name":"pnlToken","type":"bool","internalType":"bool"}],"outputs":[{"name":"","type":"int256","internalType":"int256"}],"stateMutability":"view"},{"type":"function","name":"getPositionUnPnl","inputs":[{"name":"position","type":"tuple","internalType":"struct Position.Props","components":[{"name":"key","type":"bytes32","internalType":"bytes32"},{"name":"symbol","type":"bytes32","internalType":"bytes32"},{"name":"isLong","type":"bool","internalType":"bool"},{"name":"isCrossMargin","type":"bool","internalType":"bool"},{"name":"account","type":"address","internalType":"address"},{"name":"marginToken","type":"address","internalType":"address"},{"name":"indexToken","type":"address","internalType":"address"},{"name":"qty","type":"uint256","internalType":"uint256"},{"name":"entryPrice","type":"uint256","internalType":"uint256"},{"name":"leverage","type":"uint256","internalType":"uint256"},{"name":"initialMargin","type":"uint256","internalType":"uint256"},{"name":"initialMarginInUsd","type":"uint256","internalType":"uint256"},{"name":"initialMarginInUsdFromBalance","type":"uint256","internalType":"uint256"},{"name":"holdPoolAmount","type":"uint256","internalType":"uint256"},{"name":"positionFee","type":"tuple","internalType":"struct Position.PositionFee","components":[{"name":"closeFeeInUsd","type":"uint256","internalType":"uint256"},{"name":"openBorrowingFeePerToken","type":"uint256","internalType":"uint256"},{"name":"realizedBorrowingFee","type":"uint256","internalType":"uint256"},{"name":"realizedBorrowingFeeInUsd","type":"uint256","internalType":"uint256"},{"name":"openFundingFeePerQty","type":"int256","internalType":"int256"},{"name":"realizedFundingFee","type":"int256","internalType":"int256"},{"name":"realizedFundingFeeInUsd","type":"int256","internalType":"int256"}]},{"name":"realizedPnl","type":"int256","internalType":"int256"},{"name":"lastUpdateTime","type":"uint256","internalType":"uint256"}]},{"name":"oracles","type":"tuple[]","internalType":"struct OracleProcess.OracleParam[]","components":[{"name":"token","type":"address","internalType":"address"},{"name":"targetToken","type":"address","internalType":"address"},{"name":"minPrice","type":"int256","internalType":"int256"},{"name":"maxPrice","type":"int256","internalType":"int256"}]},{"name":"computeIndexPrice","type":"int256","internalType":"int256"},{"name":"pnlToken","type":"bool","internalType":"bool"}],"outputs":[{"name":"","type":"int256","internalType":"int256"}],"stateMutability":"view"},{"type":"function","name":"getPositionUnPnl","inputs":[{"name":"position","type":"tuple","internalType":"struct Position.Props","components":[{"name":"key","type":"bytes32","internalType":"bytes32"},{"name":"symbol","type":"bytes32","internalType":"bytes32"},{"name":"isLong","type":"bool","internalType":"bool"},{"name":"isCrossMargin","type":"bool","internalType":"bool"},{"name":"account","type":"address","internalType":"address"},{"name":"marginToken","type":"address","internalType":"address"},{"name":"indexToken","type":"address","internalType":"address"},{"name":"qty","type":"uint256","internalType":"uint256"},{"name":"entryPrice","type":"uint256","internalType":"uint256"},{"name":"leverage","type":"uint256","internalType":"uint256"},{"name":"initialMargin","type":"uint256","internalType":"uint256"},{"name":"initialMarginInUsd","type":"uint256","internalType":"uint256"},{"name":"initialMarginInUsdFromBalance","type":"uint256","internalType":"uint256"},{"name":"holdPoolAmount","type":"uint256","internalType":"uint256"},{"name":"positionFee","type":"tuple","internalType":"struct Position.PositionFee","components":[{"name":"closeFeeInUsd","type":"uint256","internalType":"uint256"},{"name":"openBorrowingFeePerToken","type":"uint256","internalType":"uint256"},{"name":"realizedBorrowingFee","type":"uint256","internalType":"uint256"},{"name":"realizedBorrowingFeeInUsd","type":"uint256","internalType":"uint256"},{"name":"openFundingFeePerQty","type":"int256","internalType":"int256"},{"name":"realizedFundingFee","type":"int256","internalType":"int256"},{"name":"realizedFundingFeeInUsd","type":"int256","internalType":"int256"}]},{"name":"realizedPnl","type":"int256","internalType":"int256"},{"name":"lastUpdateTime","type":"uint256","internalType":"uint256"}]},{"name":"oracles","type":"tuple[]","internalType":"struct OracleProcess.OracleParam[]","components":[{"name":"token","type":"address","internalType":"address"},{"name":"targetToken","type":"address","internalType":"address"},{"name":"minPrice","type":"int256","internalType":"int256"},{"name":"maxPrice","type":"int256","internalType":"int256"}]},{"name":"computeIndexPrice","type":"int256","internalType":"int256"}],"outputs":[{"name":"","type":"int256","internalType":"int256"},{"name":"","type":"int256","internalType":"int256"}],"stateMutability":"view"},{"type":"function","name":"hasOtherShortPosition","inputs":[{"name":"account","type":"address","internalType":"address"},{"name":"symbol","type":"bytes32","internalType":"bytes32"},{"name":"marginToken","type":"address","internalType":"address"},{"name":"isCrossMargin","type":"bool","internalType":"bool"}],"outputs":[{"name":"","type":"bool","internalType":"bool"}],"stateMutability":"view"}],"bytecode":{"object":"0x6138f7610039600b82828239805160001a607314602c57634e487b7160e01b600052600060045260246000fd5b30600052607381538281f3fe73000000000000000000000000000000000000000030146080604052600436106100ff5760003560e01c806393ef4749116100a1578063cfa2f08811610070578063cfa2f08814610251578063d3ad667f14610264578063e6877a111461028c578063e79e0de81461029f57600080fd5b806393ef474914610205578063977942e414610218578063b7bb01f61461022b578063c45132491461023e57600080fd5b806371b265e4116100dd57806371b265e41461019c57806386db4384146101af5780638701c865146101cf5780638950b263146101f257600080fd5b80631fdab8d914610104578063310da3461461012a578063392be2a91461013d575b600080fd5b610117610112366004612a7e565b6102b2565b6040519081526020015b60405180910390f35b610117610138366004612d52565b610726565b61015061014b366004612e6e565b61073f565b6040516101219190600060c082019050825182526020830151602083015260408301516040830152606083015160608301526080830151608083015260a083015160a083015292915050565b6101176101aa366004612eb4565b610c41565b6101c26101bd366004612ee0565b610d5c565b6040516101219190612f10565b6101e26101dd366004613058565b61106a565b6040519015158152602001610121565b6101176102003660046130ab565b61120d565b6101176102133660046130c8565b61121b565b610117610226366004612a7e565b611247565b61011761023936600461312b565b6115d8565b61011761024c366004612a7e565b611e0b565b61011761025f3660046130ab565b611ff0565b610277610272366004613165565b61211a565b60408051928352602083019190915201610121565b61015061029a366004612a7e565b612474565b6101176102ad3660046130ab565b6124b9565b6002810154600090819060ff161561048057600073__$7b3f0eea015ed8194e857e3ec238e14f04$__632f40e73473__$772a6c28cc3d4776ea886febacbb24816f$__63f035079987600101546040518263ffffffff1660e01b815260040161031d91815260200190565b602060405180830381865af415801561033a573d6000803e3d6000fd5b505050506040513d601f19601f8201168201806040525081019061035e91906131bf565b6001015460405160e083901b6001600160e01b03191681526101009091046001600160a01b03166004820152602401602060405180830381865af41580156103aa573d6000803e3d6000fd5b505050506040513d601f19601f820116820180604052508101906103ce91906131bf565b905060006103e282601001600301546125c9565b90506104688173__$7e3e375a043b2e0c3e1b8de6f9ee6f1a85$__63ad9f930f856040518263ffffffff1660e01b815260040161042191815260200190565b602060405180830381865af415801561043e573d6000803e3d6000fd5b505050506040513d601f19601f8201168201806040525081019061046291906131bf565b90612653565b601283015461047791906131ee565b925050506105fa565b600073__$2ca09eef01f3e987781766047ffc2a4e22$__6386d5c4be6040518163ffffffff1660e01b8152600401602060405180830381865af41580156104cb573d6000803e3d6000fd5b505050506040513d601f19601f820116820180604052508101906104ef91906131bf565b6003850154604051631d81bd9b60e21b8152600481018390526001600160a01b03909116602482015290915060009073__$2ca09eef01f3e987781766047ffc2a4e22$__90637606f66c90604401602060405180830381865af415801561055a573d6000803e3d6000fd5b505050506040513d601f19601f8201168201806040525081019061057e91906131bf565b9050600061058f82600301546125c9565b6003870154604051638863dea560e01b8152600481018690526001600160a01b0390911660248201529091506105e590829073__$7e3e375a043b2e0c3e1b8de6f9ee6f1a85$__90638863dea590604401610421565b82600201546105f491906131ee565b93505050505b73__$54cfd135a3b5f05a8488b7e4b687d6e5b3$__63228d17e073__$54cfd135a3b5f05a8488b7e4b687d6e5b3$__63ee7fc5a38660080154620186a088600701546106469190613201565b6040516001600160e01b031960e085901b16815260048101929092526024820152604401602060405180830381865af4158015610687573d6000803e3d6000fd5b505050506040513d601f19601f820116820180604052508101906106ab91906131bf565b600d8601546106ba9085613201565b6040516001600160e01b031960e085901b16815260048101929092526024820152604401602060405180830381865af41580156106fb573d6000803e3d6000fd5b505050506040513d601f19601f8201168201806040525081019061071f91906131bf565b9392505050565b600060606107368582868661121b565b95945050505050565b6107786040518060c001604052806000815260200160008152602001600081526020016000815260200160008152602001600081525090565b60405163fa98a2b960e01b81526004810184905273__$1dcbc4e76af7484d3342475f6e32ea9921$__9063fa98a2b99060240160006040518083038186803b1580156107c357600080fd5b505af41580156107d7573d6000803e3d6000fd5b5050505060006107e8846001610d5c565b9050600073__$b56fc33e0f834396fbc214489bd80c2dfc$__63b45849886040518163ffffffff1660e01b8152600401600060405180830381865af4158015610835573d6000803e3d6000fd5b505050506040513d6000823e601f3d908101601f1916820160405261085d919081019061337d565b60a00151905060005b8251811015610c38576000838281518110610883576108836134a4565b60200260200101519050600073__$bb4e55f00c0f45d2719800850b371b8ff8$__63f85cce2d888460c0015185604001516040518463ffffffff1660e01b81526004016108d2939291906134ba565b602060405180830381865af41580156108ef573d6000803e3d6000fd5b505050506040513d601f19601f8201168201806040525081019061091391906131bf565b9050600073__$bda6750164d46530feeed1122c24ac1a13$__63e1be37bd84602001516040518263ffffffff1660e01b815260040161095491815260200190565b61010060405180830381865af4158015610972573d6000803e3d6000fd5b505050506040513d601f19601f820116820180604052508101906109969190613546565b905060006109a7848a85600061121b565b90506000811315610ad85760a084015160405163e981fddd60e01b81526001600160a01b039091166004820152610ad19073__$54cfd135a3b5f05a8488b7e4b687d6e5b3$__9063aca95d54908490610a649073__$74cab1088a768f44346aa8a34ab8d56734$__9063e981fddd9060240161012060405180830381865af4158015610a37573d6000803e3d6000fd5b505050506040513d601f19601f82011682018060405250810190610a5b91906135d5565b6040015161265f565b6040516001600160e01b031960e085901b16815260048101929092526024820152604401602060405180830381865af4158015610aa5573d6000803e3d6000fd5b505050506040513d601f19601f82011682018060405250810190610ac991906131bf565b8951906126d2565b8852610b9b565b60a084015160405163e981fddd60e01b81526001600160a01b039091166004820152610b989073__$54cfd135a3b5f05a8488b7e4b687d6e5b3$__9063aca95d54908490610a649073__$74cab1088a768f44346aa8a34ab8d56734$__9063e981fddd9060240161012060405180830381865af4158015610b5d573d6000803e3d6000fd5b505050506040513d601f19601f82011682018060405250810190610b8191906135d5565b6101000151610b9390620186a06131ee565b61265f565b88525b610bbc610bb18560e00151846000015189610c41565b60608a0151906126de565b60608901526101608401516020890151610bd5916126de565b60208901526101808401516040890151610bee916126de565b604089015260e084015160a0890151610c06916126de565b60a0890152610c23610c18858b6115d8565b60808a0151906126d2565b60808901525050600190920191506108669050565b50505092915050565b60405163ee7fc5a360e01b81526004810184905260248101829052600090610d549073__$54cfd135a3b5f05a8488b7e4b687d6e5b3$__9063ee7fc5a390604401602060405180830381865af4158015610c9f573d6000803e3d6000fd5b505050506040513d601f19601f82011682018060405250810190610cc391906131bf565b73__$54cfd135a3b5f05a8488b7e4b687d6e5b3$__63c30b259b87610ce9886002612653565b6040516001600160e01b031960e085901b16815260048101929092526024820152604401602060405180830381865af4158015610d2a573d6000803e3d6000fd5b505050506040513d601f19601f82011682018060405250810190610d4e91906131bf565b906126ea565b949350505050565b6040516335cd115160e01b81526004810183905260609060009073__$1dcbc4e76af7484d3342475f6e32ea9921$__906335cd115190602401600060405180830381865af4158015610db2573d6000803e3d6000fd5b505050506040513d6000823e601f3d908101601f19168201604052610dda91908101906135f2565b90506000610de88285612700565b6001600160401b03811115610dff57610dff612a97565b604051908082528060200260200182016040528015610e3857816020015b610e25612997565b815260200190600190039081610e1d5790505b5090506000805b835181101561105d57600073__$d6b170e28cdd9080cfdbe47025803469bd$__63f0350799868481518110610e7657610e766134a4565b60200260200101516040518263ffffffff1660e01b8152600401610e9c91815260200190565b602060405180830381865af4158015610eb9573d6000803e3d6000fd5b505050506040513d601f19601f82011682018060405250810190610edd91906131bf565b6040805161022081018252825481526001830154602080830191909152600284015460ff808216151584860152610100808304909116151560608086019182526001600160a01b036201000090940484166080808801919091526003890154851660a08089019190915260048a015490951660c08089019190915260058a015460e0808a019190915260068b01549589019590955260078a015461012089015260088a015461014089015260098a0154610160890152600a8a0154610180890152600b8a01546101a089015288519485018952600c8a01548552600d8a015496850196909652600e89015497840197909752600f880154908301526010870154958201959095526011860154918101919091526012850154918101919091526101c082015260138301546101e08201526014909201546102008301525190915087151590151503611054578084848151811061103b5761103b6134a4565b60209081029190910101526110516001846131ee565b92505b50600101610e3f565b5090925050505b92915050565b60008073__$2ca09eef01f3e987781766047ffc2a4e22$__63954042956040518163ffffffff1660e01b8152600401600060405180830381865af41580156110b6573d6000803e3d6000fd5b505050506040513d6000823e601f3d908101601f191682016040526110de9190810190613677565b905060005b815181101561120057846001600160a01b0316828281518110611108576111086134a4565b60200260200101516001600160a01b031603156111f857600073__$d6b170e28cdd9080cfdbe47025803469bd$__636b38d076898986868151811061114f5761114f6134a4565b6020026020010151896040518563ffffffff1660e01b815260040161119c94939291906001600160a01b039485168152602081019390935292166040820152901515606082015260800190565b602060405180830381865af41580156111b9573d6000803e3d6000fd5b505050506040513d601f19601f820116820180604052508101906111dd91906131bf565b6005810154909150156111f65760019350505050610d54565b505b6001016110e3565b5060009695505050505050565b6000606061071f83826115d8565b600080600061122b87878761211a565b915091508361123a578061123c565b815b979650505050505050565b60008073__$bda6750164d46530feeed1122c24ac1a13$__63e1be37bd84600101546040518263ffffffff1660e01b815260040161128791815260200190565b61010060405180830381865af41580156112a5573d6000803e3d6000fd5b505050506040513d601f19601f820116820180604052508101906112c99190613546565b905060006113548460050154836000015173__$b56fc33e0f834396fbc214489bd80c2dfc$__63b45849886040518163ffffffff1660e01b8152600401600060405180830381865af4158015611323573d6000803e3d6000fd5b505050506040513d6000823e601f3d908101601f1916820160405261134b919081019061337d565b60a00151610c41565b6040805161022081018252865481526001870154602080830191909152600288015460ff80821615158486015261010080830490911615156060808601919091526001600160a01b0362010000909304831660808087019190915260038c0154841660a08088019190915260048d015490941660c08088019190915260058d015460e08089019190915260068e01549488019490945260078d015461012088015260088d015461014088015260098d0154610160880152600a8d0154610180880152600b8d01546101a088015287519384018852600c8d01548452600d8d015495840195909552600e8c015496830196909652600f8b01549082015260108a0154948101949094526011890154908401526012880154908301526101c081019190915260138601546101e0820152601486015461020082015290915060009061149c9061120d565b600286015490915060009060ff166114e057816114d184886009015489600501546114c791906131ee565b610b939190613201565b6114db91906136ab565b61150d565b8161150384886009015489600501546114f99190613201565b610b9391906131ee565b61150d91906136d2565b905060008112156115245750600095945050505050565b6000611545876005015461153f896006015461046286612915565b90612967565b60208601516002890154604051634dce22e560e11b815260048101849052602481019290925260ff161515604482015290915073__$54cfd135a3b5f05a8488b7e4b687d6e5b3$__90639b9c45ca90606401602060405180830381865af41580156115b4573d6000803e3d6000fd5b505050506040513d601f19601f8201168201806040525081019061123c91906131bf565b600061161d6040518060e001604052806000815260200160008152602001600060ff168152602001600081526020016000815260200160008152602001600081525090565b602084015160408086015190516327883f2b60e21b815273__$7e3e375a043b2e0c3e1b8de6f9ee6f1a85$__92639e20fcac92611667926004019182521515602082015260400190565b602060405180830381865af4158015611684573d6000803e3d6000fd5b505050506040513d601f19601f820116820180604052508101906116a891906131bf565b606082015260e084015173__$54cfd135a3b5f05a8488b7e4b687d6e5b3$__9063445b0a43906116d79061265f565b866101c001516080015184606001516116f091906136ab565b6040516001600160e01b031960e085901b16815260048101929092526024820152604401602060405180830381865af4158015611731573d6000803e3d6000fd5b505050506040513d601f19601f8201168201806040525081019061175591906131bf565b608082015260a0840151604051636a24d41960e11b81526001600160a01b03909116600482015273__$27ae1b494209daa89c188ba5c7f8a7693b$__9063d449a83290602401602060405180830381865af41580156117b8573d6000803e3d6000fd5b505050506040513d601f19601f820116820180604052508101906117dc91906136fa565b60ff16604080830191909152840151156119225773__$54cfd135a3b5f05a8488b7e4b687d6e5b3$__6375608c3d8260800151836040015173__$bb4e55f00c0f45d2719800850b371b8ff8$__63f85cce2d888a60a001518b604001516040518463ffffffff1660e01b8152600401611857939291906134ba565b602060405180830381865af4158015611874573d6000803e3d6000fd5b505050506040513d601f19601f8201168201806040525081019061189891906131bf565b6040516001600160e01b031960e086901b168152600481019390935260ff90911660248301526044820152606401602060405180830381865af41580156118e3573d6000803e3d6000fd5b505050506040513d601f19601f8201168201806040525081019061190791906131bf565b846101c0015160c0015161191b91906136d2565b815261193e565b8060800151846101c0015160c0015161193b91906136d2565b81525b602084015160405163f035079960e01b815260009173__$772a6c28cc3d4776ea886febacbb24816f$__9163f03507999161197f9160040190815260200190565b602060405180830381865af415801561199c573d6000803e3d6000fd5b505050506040513d601f19601f820116820180604052508101906119c091906131bf565b6040805160c08101909152815481526001820154909190602083019060ff1660038111156119f0576119f061371d565b6003811115611a0157611a0161371d565b815260018201546001600160a01b03610100909104811660208301526002830154811660408301526003830154166060820152600482018054608090920191611a4990613733565b80601f0160208091040260200160405190810160405280929190818152602001828054611a7590613733565b8015611ac25780601f10611a9757610100808354040283529160200191611ac2565b820191906000526020600020905b815481529060010190602001808311611aa557829003601f168201915b505050919092525050506040808201518782015160a0890151925163e674b4c560e01b81526001600160a01b03928316600482015290151560248201529116604482015290915073__$7e3e375a043b2e0c3e1b8de6f9ee6f1a85$__9063e674b4c590606401602060405180830381865af4158015611b45573d6000803e3d6000fd5b505050506040513d601f19601f82011682018060405250810190611b6991906131bf565b8260a001818152505073__$54cfd135a3b5f05a8488b7e4b687d6e5b3$__63228d17e073__$54cfd135a3b5f05a8488b7e4b687d6e5b3$__63ee7fc5a3886101400151620186a08a6101200151611bc09190613201565b6040516001600160e01b031960e085901b16815260048101929092526024820152604401602060405180830381865af4158015611c01573d6000803e3d6000fd5b505050506040513d601f19601f82011682018060405250810190611c2591906131bf565b876101c00151602001518560a00151611c3e9190613201565b6040516001600160e01b031960e085901b16815260048101929092526024820152604401602060405180830381865af4158015611c7f573d6000803e3d6000fd5b505050506040513d601f19601f82011682018060405250810190611ca391906131bf565b60c0830181905260408084015160a0880151888301519251636c44b92960e01b815273__$54cfd135a3b5f05a8488b7e4b687d6e5b3$__94636f17c0af9490939273__$bb4e55f00c0f45d2719800850b371b8ff8$__92636c44b92992611d11928d929091906004016134ba565b602060405180830381865af4158015611d2e573d6000803e3d6000fd5b505050506040513d601f19601f82011682018060405250810190611d5291906131bf565b6040516001600160e01b031960e086901b168152600481019390935260ff90911660248301526044820152606401602060405180830381865af4158015611d9d573d6000803e3d6000fd5b505050506040513d601f19601f82011682018060405250810190611dc191906131bf565b856101c0015160600151611dd591906131ee565b60208301819052611de59061265f565b82516101c087015151611df79061265f565b611e0191906136d2565b61073691906136d2565b60008073__$7e3e375a043b2e0c3e1b8de6f9ee6f1a85$__639343121884600101546040518263ffffffff1660e01b8152600401611e4b91815260200190565b61016060405180830381865af4158015611e69573d6000803e3d6000fd5b505050506040513d601f19601f82011682018060405250810190611e8d919061376d565b600185015460405163f035079960e01b81529193506000925073__$c8e6546537cf333e8a85b2d4d22f035259$__9163f035079991611ed29160040190815260200190565b602060405180830381865af4158015611eef573d6000803e3d6000fd5b505050506040513d601f19601f82011682018060405250810190611f1391906131bf565b600285015490915060009060ff16611f3f576101008301516008830154611f3a91906136d2565b611f53565b60e08301516007830154611f5391906136d2565b905073__$54cfd135a3b5f05a8488b7e4b687d6e5b3$__63445b0a43611f7c876005015461265f565b6010880154611f8b90856136ab565b6040516001600160e01b031960e085901b16815260048101929092526024820152604401602060405180830381865af4158015611fcc573d6000803e3d6000fd5b505050506040513d601f19601f8201168201806040525081019061073691906131bf565b60008073__$bda6750164d46530feeed1122c24ac1a13$__63e1be37bd84602001516040518263ffffffff1660e01b815260040161203091815260200190565b61010060405180830381865af415801561204e573d6000803e3d6000fd5b505050506040513d601f19601f820116820180604052508101906120729190613546565b905061071f73__$b56fc33e0f834396fbc214489bd80c2dfc$__63b45849886040518163ffffffff1660e01b8152600401600060405180830381865af41580156120c0573d6000803e3d6000fd5b505050506040513d6000823e601f3d908101601f191682016040526120e8919081019061337d565b60a00151825173__$54cfd135a3b5f05a8488b7e4b687d6e5b3$__9063c30b259b90620186a090610ce9906002612653565b6000808460e001516000036121345750600090508061246c565b8460400151156122a057600061218561215187610100015161265f565b61217f61216c6121658a610100015161265f565b8890612973565b6121798a60e0015161265f565b9061297f565b9061298b565b60a0870151604051636a24d41960e11b81526001600160a01b03909116600482015290915073__$54cfd135a3b5f05a8488b7e4b687d6e5b3$__90630d65ea2990839073__$27ae1b494209daa89c188ba5c7f8a7693b$__9063d449a83290602401602060405180830381865af4158015612204573d6000803e3d6000fd5b505050506040513d601f19601f8201168201806040525081019061222891906136fa565b6040516001600160e01b031960e085901b168152600481019290925260ff16602482015260448101879052606401602060405180830381865af4158015612273573d6000803e3d6000fd5b505050506040513d601f19601f8201168201806040525081019061229791906131bf565b9250905061246c565b60006122ce6122b387610100015161265f565b61217f61216c876122c88b610100015161265f565b90612973565b60a087015160405163f85cce2d60e01b815291925060009173__$bb4e55f00c0f45d2719800850b371b8ff8$__9163f85cce2d91612312918a9186906004016134ba565b602060405180830381865af415801561232f573d6000803e3d6000fd5b505050506040513d601f19601f8201168201806040525081019061235391906131bf565b60a0880151604051636a24d41960e11b81526001600160a01b03909116600482015290915073__$54cfd135a3b5f05a8488b7e4b687d6e5b3$__90630d65ea2990849073__$27ae1b494209daa89c188ba5c7f8a7693b$__9063d449a83290602401602060405180830381865af41580156123d2573d6000803e3d6000fd5b505050506040513d601f19601f820116820180604052508101906123f691906136fa565b6040516001600160e01b031960e085901b168152600481019290925260ff16602482015260448101849052606401602060405180830381865af4158015612441573d6000803e3d6000fd5b505050506040513d601f19601f8201168201806040525081019061246591906131bf565b9350909150505b935093915050565b6124ad6040518060c001604052806000815260200160008152602001600081526020016000815260200160008152602001600081525090565b606061071f838261073f565b60008073__$bda6750164d46530feeed1122c24ac1a13$__63e1be37bd84602001516040518263ffffffff1660e01b81526004016124f991815260200190565b61010060405180830381865af4158015612517573d6000803e3d6000fd5b505050506040513d601f19601f8201168201806040525081019061253b9190613546565b9050600073__$b56fc33e0f834396fbc214489bd80c2dfc$__63b45849886040518163ffffffff1660e01b8152600401600060405180830381865af4158015612588573d6000803e3d6000fd5b505050506040513d6000823e601f3d908101601f191682016040526125b0919081019061337d565b60a001519050610d548460e00151836000015183610c41565b6000816000036125db57506000919050565b8173__$27841a34e195c5bdb1981cd870ebbdf8d8$__631e2ff94f6040518163ffffffff1660e01b8152600401602060405180830381865af4158015612625573d6000803e3d6000fd5b505050506040513d601f19601f8201168201806040525081019061264991906131bf565b6110649190613201565b600061071f8284613822565b60006001600160ff1b038211156126ce5760405162461bcd60e51b815260206004820152602860248201527f53616665436173743a2076616c756520646f65736e27742066697420696e2061604482015267371034b73a191a9b60c11b60648201526084015b60405180910390fd5b5090565b600061071f82846136d2565b600061071f82846131ee565b60008183106126f9578161071f565b5090919050565b60008061270b612997565b60005b855181101561290b5773__$d6b170e28cdd9080cfdbe47025803469bd$__63f0350799878381518110612743576127436134a4565b60200260200101516040518263ffffffff1660e01b815260040161276991815260200190565b602060405180830381865af4158015612786573d6000803e3d6000fd5b505050506040513d601f19601f820116820180604052508101906127aa91906131bf565b6040805161022081018252825481526001830154602080830191909152600284015460ff808216151584860152610100808304909116151560608086019182526001600160a01b036201000090940484166080808801919091526003890154851660a08089019190915260048a015490951660c08089019190915260058a015460e0808a019190915260068b01549589019590955260078a015461012089015260088a015461014089015260098a0154610160890152600a8a0154610180890152600b8a01546101a089015288519485018952600c8a01548552600d8a015496850196909652600e89015497840197909752600f880154908301526010870154958201959095526011860154918101919091526012850154918101919091526101c082015260138301546101e08201526014909201546102008301525190925085151590151503612903576129006001846131ee565b92505b60010161270e565b5090949350505050565b6000808212156126ce5760405162461bcd60e51b815260206004820181905260248201527f53616665436173743a2076616c7565206d75737420626520706f73697469766560448201526064016126c5565b600061071f828461384f565b600061071f82846136ab565b600061071f8284613863565b600061071f8284613893565b604051806102200160405280600080191681526020016000801916815260200160001515815260200160001515815260200160006001600160a01b0316815260200160006001600160a01b0316815260200160006001600160a01b0316815260200160008152602001600081526020016000815260200160008152602001600081526020016000815260200160008152602001612a6a6040518060e00160405280600081526020016000815260200160008152602001600081526020016000815260200160008152602001600081525090565b815260200160008152602001600081525090565b600060208284031215612a9057600080fd5b5035919050565b634e487b7160e01b600052604160045260246000fd5b60405161022081016001600160401b0381118282101715612ad057612ad0612a97565b60405290565b604051608081016001600160401b0381118282101715612ad057612ad0612a97565b60405161012081016001600160401b0381118282101715612ad057612ad0612a97565b60405161020081016001600160401b0381118282101715612ad057612ad0612a97565b60405161014081016001600160401b0381118282101715612ad057612ad0612a97565b604051601f8201601f191681016001600160401b0381118282101715612b8957612b89612a97565b604052919050565b8015158114612b9f57600080fd5b50565b8035612bad81612b91565b919050565b6001600160a01b0381168114612b9f57600080fd5b8035612bad81612bb2565b600060e08284031215612be457600080fd5b60405160e081018181106001600160401b0382111715612c0657612c06612a97565b8060405250809150823581526020830135602082015260408301356040820152606083013560608201526080830135608082015260a083013560a082015260c083013560c08201525092915050565b60006102e08284031215612c6857600080fd5b612c70612aad565b90508135815260208201356020820152612c8c60408301612ba2565b6040820152612c9d60608301612ba2565b6060820152612cae60808301612bc7565b6080820152612cbf60a08301612bc7565b60a0820152612cd060c08301612bc7565b60c082015260e08281013590820152610100808301359082015261012080830135908201526101408083013590820152610160808301359082015261018080830135908201526101a080830135908201526101c0612d3084828501612bd2565b908201526102a08201356101e08201526102c090910135610200820152919050565b60008060006103208486031215612d6857600080fd5b612d728585612c55565b92506102e08401359150610300840135612d8b81612b91565b809150509250925092565b60006001600160401b03821115612daf57612daf612a97565b5060051b60200190565b600082601f830112612dca57600080fd5b81356020612ddf612dda83612d96565b612b61565b82815260079290921b84018101918181019086841115612dfe57600080fd5b8286015b84811015612e635760808189031215612e1b5760008081fd5b612e23612ad6565b8135612e2e81612bb2565b815281850135612e3d81612bb2565b818601526040828101359082015260608083013590820152835291830191608001612e02565b509695505050505050565b60008060408385031215612e8157600080fd5b8235915060208301356001600160401b03811115612e9e57600080fd5b612eaa85828601612db9565b9150509250929050565b600080600060608486031215612ec957600080fd5b505081359360208301359350604090920135919050565b60008060408385031215612ef357600080fd5b823591506020830135612f0581612b91565b809150509250929050565b602080825282518282018190526000919060409081850190868401855b8281101561304b578151805185528681015187860152858101511515868601526060808201511515818701526080808301516001600160a01b039081168289015260a0808501518216818a015260c080860151909216828a015260e080860151908a015261010080860151908a015261012080860151908a015261014080860151908a015261016080860151908a015261018080860151908a01526101a080860151908a01526101c0808601518051918b019190915260208101516101e0808c01919091526040820151610200808d0191909152958201516102208c0152938101516102408b0152908101516102608a015201516102808801528201516102a087015201516102c08501526102e09093019290850190600101612f2d565b5091979650505050505050565b6000806000806080858703121561306e57600080fd5b843561307981612bb2565b935060208501359250604085013561309081612bb2565b915060608501356130a081612b91565b939692955090935050565b60006102e082840312156130be57600080fd5b61071f8383612c55565b60008060008061034085870312156130df57600080fd5b6130e98686612c55565b93506102e08501356001600160401b0381111561310557600080fd5b61311187828801612db9565b93505061030085013591506103208501356130a081612b91565b600080610300838503121561313f57600080fd5b6131498484612c55565b91506102e08301356001600160401b03811115612e9e57600080fd5b6000806000610320848603121561317b57600080fd5b6131858585612c55565b92506102e08401356001600160401b038111156131a157600080fd5b6131ad86828701612db9565b92505061030084013590509250925092565b6000602082840312156131d157600080fd5b5051919050565b634e487b7160e01b600052601160045260246000fd5b80820180821115611064576110646131d8565b81810381811115611064576110646131d8565b600082601f83011261322557600080fd5b81516020613235612dda83612d96565b8083825260208201915060208460051b87010193508684111561325757600080fd5b602086015b84811015612e6357805161326f81612bb2565b835291830191830161325c565b8051612bad81612b91565b6000610120828403121561329a57600080fd5b6132a2612af8565b90506132ad8261327c565b81526020820151602082015260408201516040820152606082015160608201526080820151608082015260a082015160a082015260c082015160c082015260e082015160e082015261010080830151818301525092915050565b600082601f83011261331857600080fd5b81516020613328612dda83612d96565b80838252602082019150610120602081860288010194508785111561334c57600080fd5b602087015b85811015613370576133638982613287565b8452928401928101613351565b5090979650505050505050565b60006020828403121561338f57600080fd5b81516001600160401b03808211156133a657600080fd5b9083019061020082860312156133bb57600080fd5b6133c3612b1b565b8251828111156133d257600080fd5b6133de87828601613214565b8252506020830151828111156133f357600080fd5b6133ff87828601613307565b60208301525060408381015190820152606080840151908201526080808401519082015260a0808401519082015260c0808401519082015260e08084015190820152610100808401519082015261012080840151908201526101408084015190820152610160808401519082015261018080840151908201526101a080840151908201526101c080840151908201526101e09283015192810192909252509392505050565b634e487b7160e01b600052603260045260246000fd5b6060808252845182820181905260009190608090818501906020808a01865b8381101561351c57815180516001600160a01b039081168752848201511684870152604080820151908701528701518786015293850193908201906001016134d9565b5050506001600160a01b0388166020870152509250613539915050565b8215156040830152610d54565b600061010080838503121561355a57600080fd5b604051908101906001600160401b038211818310171561357c5761357c612a97565b81604052835181526020840151602082015260408401516040820152606084015160608201526080840151608082015260a084015160a082015260c084015160c082015260e084015160e0820152809250505092915050565b600061012082840312156135e857600080fd5b61071f8383613287565b6000602080838503121561360557600080fd5b82516001600160401b0381111561361b57600080fd5b8301601f8101851361362c57600080fd5b805161363a612dda82612d96565b81815260059190911b8201830190838101908783111561365957600080fd5b928401925b8284101561123c5783518252928401929084019061365e565b60006020828403121561368957600080fd5b81516001600160401b0381111561369f57600080fd5b610d5484828501613214565b81810360008312801583831316838312821617156136cb576136cb6131d8565b5092915050565b80820182811260008312801582168215821617156136f2576136f26131d8565b505092915050565b60006020828403121561370c57600080fd5b815160ff8116811461071f57600080fd5b634e487b7160e01b600052602160045260246000fd5b600181811c9082168061374757607f821691505b60208210810361376757634e487b7160e01b600052602260045260246000fd5b50919050565b60008082840361016081121561378257600080fd5b835161378d81612b91565b9250610140601f1982018113156137a357600080fd5b6137ab612b3e565b91506020850151825260408501516020830152606085015160408301526080850151606083015260a0850151608083015260c085015160a083015260e085015160c08301526101008086015160e0840152610120808701518285015261381283880161327c565b9084015250929590945092505050565b8082028115828204841417611064576110646131d8565b634e487b7160e01b600052601260045260246000fd5b60008261385e5761385e613839565b500490565b80820260008212600160ff1b8414161561387f5761387f6131d8565b8181058314821517611064576110646131d8565b6000826138a2576138a2613839565b600160ff1b8214600019841416156138bc576138bc6131d8565b50059056fea2646970667358221220cb016dd16b34150e094ae787e0d229395a9064f1faa80cd13b5fb32d303a890b64736f6c63430008190033","linkReferences":{"src/process/MarketQueryProcess.sol":{"MarketQueryProcess":[{"start":1059,"length":20},{"start":1532,"length":20},{"start":5743,"length":20},{"start":6980,"length":20},{"start":7753,"length":20}]},"src/process/OracleProcess.sol":{"OracleProcess":[{"start":2250,"length":20},{"start":6223,"length":20},{"start":7455,"length":20},{"start":8993,"length":20}]},"src/storage/Account.sol":{"Account":[{"start":1991,"length":20},{"start":3505,"length":20}]},"src/storage/AppConfig.sol":{"AppConfig":[{"start":2386,"length":20},{"start":4741,"length":20},{"start":8238,"length":20},{"start":9463,"length":20}]},"src/storage/AppTradeConfig.sol":{"AppTradeConfig":[{"start":2087,"length":20},{"start":4885,"length":20},{"start":8370,"length":20},{"start":9594,"length":20}]},"src/storage/AppTradeTokenConfig.sol":{"AppTradeTokenConfig":[{"start":2613,"length":20},{"start":2907,"length":20}]},"src/storage/LpPool.sol":{"LpPool":[{"start":769,"length":20}]},"src/storage/Market.sol":{"Market":[{"start":7905,"length":20}]},"src/storage/Position.sol":{"Position":[{"start":3717,"length":20},{"start":4444,"length":20},{"start":10066,"length":20}]},"src/storage/Symbol.sol":{"Symbol":[{"start":795,"length":20},{"start":6542,"length":20}]},"src/storage/UsdPool.sol":{"UsdPool":[{"start":1213,"length":20},{"start":1369,"length":20},{"start":4264,"length":20}]},"src/utils/CalUtils.sol":{"CalUtils":[{"start":1589,"length":20},{"start":1615,"length":20},{"start":2579,"length":20},{"start":2873,"length":20},{"start":3230,"length":20},{"start":3326,"length":20},{"start":5555,"length":20},{"start":5869,"length":20},{"start":6187,"length":20},{"start":7085,"length":20},{"start":7111,"length":20},{"start":7424,"length":20},{"start":8080,"length":20},{"start":8489,"length":20},{"start":8677,"length":20},{"start":9139,"length":20}]},"src/utils/ChainUtils.sol":{"ChainUtils":[{"start":9751,"length":20}]},"src/utils/TokenUtils.sol":{"TokenUtils":[{"start":6071,"length":20},{"start":8707,"length":20},{"start":9169,"length":20}]}}},"methodIdentifiers":{"getAccountAllCrossPositionValue(Account.Props storage)":"e6877a11","getAccountAllCrossPositionValue(Account.Props storage,OracleProcess.OracleParam[])":"392be2a9","getAllPosition(Account.Props storage,bool)":"86db4384","getLiquidationPrice(Position.Props storage)":"977942e4","getMM(uint256,uint256,uint256)":"71b265e4","getPositionFee(Position.Props)":"8950b263","getPositionFee(Position.Props,OracleProcess.OracleParam[])":"b7bb01f6","getPositionMM(Position.Props)":"e79e0de8","getPositionMMRate(Position.Props)":"cfa2f088","getPositionUnPnl(Position.Props,OracleProcess.OracleParam[],int256)":"d3ad667f","getPositionUnPnl(Position.Props,OracleProcess.OracleParam[],int256,bool)":"93ef4749","getPositionUnPnl(Position.Props,int256,bool)":"310da346","getUnRealisedBorrowingFee(Position.Props storage)":"1fdab8d9","getUnRealisedFundingFee(Position.Props storage)":"c4513249","hasOtherShortPosition(address,bytes32,address,bool)":"8701c865"},"id":121}