{"abi":[{"type":"function","name":"callLiabilityClean","inputs":[{"name":"cleanId","type":"uint256","internalType":"uint256"}],"outputs":[],"stateMutability":"nonpayable"},{"type":"function","name":"getAllCleanInfos","inputs":[],"outputs":[{"name":"","type":"tuple[]","internalType":"struct LiabilityClean.LiabilityCleanInfo[]","components":[{"name":"account","type":"address","internalType":"address"},{"name":"createTime","type":"uint256","internalType":"uint256"},{"name":"liabilityTokens","type":"address[]","internalType":"address[]"},{"name":"liabilities","type":"uint256[]","internalType":"uint256[]"},{"name":"collaterals","type":"address[]","internalType":"address[]"},{"name":"collateralsAmount","type":"uint256[]","internalType":"uint256[]"}]}],"stateMutability":"view"},{"type":"function","name":"getInsuranceFunds","inputs":[{"name":"stakeToken","type":"address","internalType":"address"},{"name":"token","type":"address","internalType":"address"}],"outputs":[{"name":"","type":"uint256","internalType":"uint256"}],"stateMutability":"view"},{"type":"function","name":"liquidationAccount","inputs":[{"name":"account","type":"address","internalType":"address"},{"name":"oracles","type":"tuple[]","internalType":"struct OracleProcess.OracleParam[]","components":[{"name":"token","type":"address","internalType":"address"},{"name":"targetToken","type":"address","internalType":"address"},{"name":"minPrice","type":"int256","internalType":"int256"},{"name":"maxPrice","type":"int256","internalType":"int256"}]}],"outputs":[],"stateMutability":"nonpayable"},{"type":"function","name":"liquidationLiability","inputs":[{"name":"params","type":"tuple","internalType":"struct ILiquidation.CleanLiabilityParams","components":[{"name":"account","type":"address","internalType":"address"},{"name":"liabilityToken","type":"address","internalType":"address"},{"name":"liability","type":"uint256","internalType":"uint256"},{"name":"payTokens","type":"address[]","internalType":"address[]"},{"name":"payAmounts","type":"uint256[]","internalType":"uint256[]"}]}],"outputs":[],"stateMutability":"nonpayable"},{"type":"function","name":"liquidationPosition","inputs":[{"name":"positionKey","type":"bytes32","internalType":"bytes32"},{"name":"oracles","type":"tuple[]","internalType":"struct OracleProcess.OracleParam[]","components":[{"name":"token","type":"address","internalType":"address"},{"name":"targetToken","type":"address","internalType":"address"},{"name":"minPrice","type":"int256","internalType":"int256"},{"name":"maxPrice","type":"int256","internalType":"int256"}]}],"outputs":[],"stateMutability":"nonpayable"},{"type":"event","name":"AccountOrderHoldInUsdUpdateEvent","inputs":[{"name":"account","type":"address","indexed":false,"internalType":"address"},{"name":"preOrderHoldInUsd","type":"uint256","indexed":false,"internalType":"uint256"},{"name":"orderHoldInUsd","type":"uint256","indexed":false,"internalType":"uint256"}],"anonymous":false},{"type":"event","name":"AccountTokenUpdateEvent","inputs":[{"name":"account","type":"address","indexed":false,"internalType":"address"},{"name":"token","type":"address","indexed":false,"internalType":"address"},{"name":"preBalance","type":"tuple","indexed":false,"internalType":"struct Account.TokenBalance","components":[{"name":"amount","type":"uint256","internalType":"uint256"},{"name":"usedAmount","type":"uint256","internalType":"uint256"},{"name":"interest","type":"uint256","internalType":"uint256"},{"name":"liability","type":"uint256","internalType":"uint256"}]},{"name":"balance","type":"tuple","indexed":false,"internalType":"struct Account.TokenBalance","components":[{"name":"amount","type":"uint256","internalType":"uint256"},{"name":"usedAmount","type":"uint256","internalType":"uint256"},{"name":"interest","type":"uint256","internalType":"uint256"},{"name":"liability","type":"uint256","internalType":"uint256"}]},{"name":"source","type":"uint8","indexed":false,"internalType":"enum Account.UpdateSource"}],"anonymous":false},{"type":"event","name":"CancelOrderEvent","inputs":[{"name":"orderId","type":"uint256","indexed":true,"internalType":"uint256"},{"name":"data","type":"tuple","indexed":false,"internalType":"struct Order.OrderInfo","components":[{"name":"account","type":"address","internalType":"address"},{"name":"symbol","type":"bytes32","internalType":"bytes32"},{"name":"orderSide","type":"uint8","internalType":"enum Order.Side"},{"name":"posSide","type":"uint8","internalType":"enum Order.PositionSide"},{"name":"orderType","type":"uint8","internalType":"enum Order.Type"},{"name":"stopType","type":"uint8","internalType":"enum Order.StopType"},{"name":"isCrossMargin","type":"bool","internalType":"bool"},{"name":"isExecutionFeeFromTradeVault","type":"bool","internalType":"bool"},{"name":"marginToken","type":"address","internalType":"address"},{"name":"qty","type":"uint256","internalType":"uint256"},{"name":"leverage","type":"uint256","internalType":"uint256"},{"name":"orderMargin","type":"uint256","internalType":"uint256"},{"name":"triggerPrice","type":"uint256","internalType":"uint256"},{"name":"acceptablePrice","type":"uint256","internalType":"uint256"},{"name":"placeTime","type":"uint256","internalType":"uint256"},{"name":"executionFee","type":"uint256","internalType":"uint256"},{"name":"lastBlock","type":"uint256","internalType":"uint256"}]},{"name":"reasonCode","type":"bytes32","indexed":false,"internalType":"bytes32"}],"anonymous":false},{"type":"event","name":"ChargeBorrowingFeeEvent","inputs":[{"name":"isCrossMargin","type":"bool","indexed":false,"internalType":"bool"},{"name":"stakeToken","type":"address","indexed":false,"internalType":"address"},{"name":"token","type":"address","indexed":false,"internalType":"address"},{"name":"account","type":"address","indexed":false,"internalType":"address"},{"name":"feeType","type":"bytes32","indexed":false,"internalType":"bytes32"},{"name":"fee","type":"uint256","indexed":false,"internalType":"uint256"}],"anonymous":false},{"type":"event","name":"ChargeTradingFeeEvent","inputs":[{"name":"symbol","type":"bytes32","indexed":false,"internalType":"bytes32"},{"name":"account","type":"address","indexed":false,"internalType":"address"},{"name":"positionKey","type":"bytes32","indexed":false,"internalType":"bytes32"},{"name":"feeType","type":"bytes32","indexed":false,"internalType":"bytes32"},{"name":"feeToken","type":"address","indexed":false,"internalType":"address"},{"name":"feeAmount","type":"uint256","indexed":false,"internalType":"uint256"}],"anonymous":false},{"type":"event","name":"CleanFundsUpdateEvent","inputs":[{"name":"token","type":"address","indexed":false,"internalType":"address"},{"name":"preAmount","type":"uint256","indexed":false,"internalType":"uint256"},{"name":"amount","type":"uint256","indexed":false,"internalType":"uint256"}],"anonymous":false},{"type":"event","name":"FundsUpdateEvent","inputs":[{"name":"stakeToken","type":"address","indexed":false,"internalType":"address"},{"name":"token","type":"address","indexed":false,"internalType":"address"},{"name":"preAmount","type":"uint256","indexed":false,"internalType":"uint256"},{"name":"amount","type":"uint256","indexed":false,"internalType":"uint256"}],"anonymous":false},{"type":"event","name":"LiabilityCleanEvent","inputs":[{"name":"id","type":"uint256","indexed":false,"internalType":"uint256"},{"name":"info","type":"tuple","indexed":false,"internalType":"struct LiabilityClean.LiabilityCleanInfo","components":[{"name":"account","type":"address","internalType":"address"},{"name":"createTime","type":"uint256","internalType":"uint256"},{"name":"liabilityTokens","type":"address[]","internalType":"address[]"},{"name":"liabilities","type":"uint256[]","internalType":"uint256[]"},{"name":"collaterals","type":"address[]","internalType":"address[]"},{"name":"collateralsAmount","type":"uint256[]","internalType":"uint256[]"}]}],"anonymous":false},{"type":"event","name":"LiabilityCleanSuccessful","inputs":[{"name":"cleanId","type":"uint256","indexed":false,"internalType":"uint256"}],"anonymous":false},{"type":"event","name":"LiquidationAccountIgnored","inputs":[{"name":"account","type":"address","indexed":false,"internalType":"address"}],"anonymous":false},{"type":"event","name":"LiquidationPositionIgnored","inputs":[{"name":"positionKey","type":"bytes32","indexed":false,"internalType":"bytes32"}],"anonymous":false},{"type":"event","name":"LossExecutionFeeUpdateEvent","inputs":[{"name":"preAmount","type":"uint256","indexed":false,"internalType":"uint256"},{"name":"amount","type":"uint256","indexed":false,"internalType":"uint256"}],"anonymous":false},{"type":"event","name":"MarketFundingFeeUpdateEvent","inputs":[{"name":"symbol","type":"bytes32","indexed":false,"internalType":"bytes32"},{"name":"fundingFee","type":"tuple","indexed":false,"internalType":"struct Market.FundingFee","components":[{"name":"longFundingFeePerQty","type":"int256","internalType":"int256"},{"name":"shortFundingFeePerQty","type":"int256","internalType":"int256"},{"name":"totalLongFundingFee","type":"int256","internalType":"int256"},{"name":"totalShortFundingFee","type":"int256","internalType":"int256"},{"name":"longFundingFeeRate","type":"int256","internalType":"int256"},{"name":"shortFundingFeeRate","type":"int256","internalType":"int256"},{"name":"lastUpdateTime","type":"uint256","internalType":"uint256"}]}],"anonymous":false},{"type":"event","name":"MarketOIUpdateEvent","inputs":[{"name":"symbol","type":"bytes32","indexed":false,"internalType":"bytes32"},{"name":"isLong","type":"bool","indexed":false,"internalType":"bool"},{"name":"preOpenInterest","type":"uint256","indexed":false,"internalType":"uint256"},{"name":"openInterest","type":"uint256","indexed":false,"internalType":"uint256"}],"anonymous":false},{"type":"event","name":"PoolBorrowingFeeUpdateEvent","inputs":[{"name":"stakeToken","type":"address","indexed":false,"internalType":"address"},{"name":"borrowingFee","type":"tuple","indexed":false,"internalType":"struct LpPool.BorrowingFee","components":[{"name":"totalBorrowingFee","type":"uint256","internalType":"uint256"},{"name":"totalRealizedBorrowingFee","type":"uint256","internalType":"uint256"},{"name":"cumulativeBorrowingFeePerToken","type":"uint256","internalType":"uint256"},{"name":"lastUpdateTime","type":"uint256","internalType":"uint256"}]}],"anonymous":false},{"type":"event","name":"PoolTokenUpdateEvent","inputs":[{"name":"stakeToken","type":"address","indexed":false,"internalType":"address"},{"name":"token","type":"address","indexed":false,"internalType":"address"},{"name":"preAmount","type":"uint256","indexed":false,"internalType":"uint256"},{"name":"preLiability","type":"uint256","indexed":false,"internalType":"uint256"},{"name":"preHoldAmount","type":"uint256","indexed":false,"internalType":"uint256"},{"name":"preUnsettledAmount","type":"int256","indexed":false,"internalType":"int256"},{"name":"preLossAmount","type":"uint256","indexed":false,"internalType":"uint256"},{"name":"amount","type":"uint256","indexed":false,"internalType":"uint256"},{"name":"liability","type":"uint256","indexed":false,"internalType":"uint256"},{"name":"holdAmount","type":"uint256","indexed":false,"internalType":"uint256"},{"name":"unsettledAmount","type":"int256","indexed":false,"internalType":"int256"},{"name":"lossAmount","type":"uint256","indexed":false,"internalType":"uint256"},{"name":"updateBlock","type":"uint256","indexed":false,"internalType":"uint256"}],"anonymous":false},{"type":"event","name":"PositionUpdateEvent","inputs":[{"name":"requestId","type":"uint256","indexed":false,"internalType":"uint256"},{"name":"positionKey","type":"bytes32","indexed":false,"internalType":"bytes32"},{"name":"from","type":"uint8","indexed":false,"internalType":"enum Position.PositionUpdateFrom"},{"name":"position","type":"tuple","indexed":false,"internalType":"struct Position.Props","components":[{"name":"key","type":"bytes32","internalType":"bytes32"},{"name":"symbol","type":"bytes32","internalType":"bytes32"},{"name":"isLong","type":"bool","internalType":"bool"},{"name":"isCrossMargin","type":"bool","internalType":"bool"},{"name":"account","type":"address","internalType":"address"},{"name":"marginToken","type":"address","internalType":"address"},{"name":"indexToken","type":"address","internalType":"address"},{"name":"qty","type":"uint256","internalType":"uint256"},{"name":"entryPrice","type":"uint256","internalType":"uint256"},{"name":"leverage","type":"uint256","internalType":"uint256"},{"name":"initialMargin","type":"uint256","internalType":"uint256"},{"name":"initialMarginInUsd","type":"uint256","internalType":"uint256"},{"name":"initialMarginInUsdFromBalance","type":"uint256","internalType":"uint256"},{"name":"holdPoolAmount","type":"uint256","internalType":"uint256"},{"name":"positionFee","type":"tuple","internalType":"struct Position.PositionFee","components":[{"name":"closeFeeInUsd","type":"uint256","internalType":"uint256"},{"name":"openBorrowingFeePerToken","type":"uint256","internalType":"uint256"},{"name":"realizedBorrowingFee","type":"uint256","internalType":"uint256"},{"name":"realizedBorrowingFeeInUsd","type":"uint256","internalType":"uint256"},{"name":"openFundingFeePerQty","type":"int256","internalType":"int256"},{"name":"realizedFundingFee","type":"int256","internalType":"int256"},{"name":"realizedFundingFeeInUsd","type":"int256","internalType":"int256"}]},{"name":"realizedPnl","type":"int256","internalType":"int256"},{"name":"lastUpdateTime","type":"uint256","internalType":"uint256"}]},{"name":"settleData","type":"tuple","indexed":false,"internalType":"struct Position.SettleData","components":[{"name":"executePrice","type":"uint256","internalType":"uint256"},{"name":"openFee","type":"uint256","internalType":"uint256"},{"name":"marginTokenPrice","type":"uint256","internalType":"uint256"},{"name":"settledMargin","type":"int256","internalType":"int256"},{"name":"settledBorrowingFee","type":"uint256","internalType":"uint256"},{"name":"settledBorrowingFeeInUsd","type":"uint256","internalType":"uint256"},{"name":"settledFundingFee","type":"int256","internalType":"int256"},{"name":"settledFundingFeeInUsd","type":"int256","internalType":"int256"},{"name":"unHoldPoolAmount","type":"uint256","internalType":"uint256"},{"name":"closeFee","type":"uint256","internalType":"uint256"},{"name":"closeFeeInUsd","type":"uint256","internalType":"uint256"},{"name":"realizedPnl","type":"int256","internalType":"int256"},{"name":"poolPnlToken","type":"int256","internalType":"int256"}]}],"anonymous":false},{"type":"event","name":"UsdPoolBorrowingFeeUpdateEvent","inputs":[{"name":"borrowingFee","type":"tuple","indexed":false,"internalType":"struct UsdPool.BorrowingFee","components":[{"name":"totalBorrowingFee","type":"uint256","internalType":"uint256"},{"name":"totalRealizedBorrowingFee","type":"uint256","internalType":"uint256"},{"name":"cumulativeBorrowingFeePerToken","type":"uint256","internalType":"uint256"},{"name":"lastUpdateTime","type":"uint256","internalType":"uint256"}]}],"anonymous":false},{"type":"event","name":"UsdPoolTokenUpdateEvent","inputs":[{"name":"token","type":"address","indexed":false,"internalType":"address"},{"name":"preAmount","type":"uint256","indexed":false,"internalType":"uint256"},{"name":"preHoldAmount","type":"uint256","indexed":false,"internalType":"uint256"},{"name":"preUnsettledAmount","type":"uint256","indexed":false,"internalType":"uint256"},{"name":"amount","type":"uint256","indexed":false,"internalType":"uint256"},{"name":"holdAmount","type":"uint256","indexed":false,"internalType":"uint256"},{"name":"unsettledAmount","type":"uint256","indexed":false,"internalType":"uint256"},{"name":"updateBlock","type":"uint256","indexed":false,"internalType":"uint256"}],"anonymous":false},{"type":"error","name":"AccountNotExist","inputs":[]},{"type":"error","name":"BalanceNotEnough","inputs":[{"name":"account","type":"address","internalType":"address"},{"name":"token","type":"address","internalType":"address"}]},{"type":"error","name":"CallLiabilityCleanNotExists","inputs":[{"name":"id","type":"uint256","internalType":"uint256"}]},{"type":"error","name":"InvalidRoleAccess","inputs":[{"name":"account","type":"address","internalType":"address"},{"name":"role","type":"bytes32","internalType":"bytes32"}]},{"type":"error","name":"LiquidationErrorWithBankruptcyPriceZero","inputs":[{"name":"positionKey","type":"bytes32","internalType":"bytes32"},{"name":"bankruptcyMR","type":"int256","internalType":"int256"}]},{"type":"error","name":"LiquidationIgnored","inputs":[{"name":"account","type":"address","internalType":"address"}]},{"type":"error","name":"MaxOILimited","inputs":[{"name":"symbol","type":"bytes32","internalType":"bytes32"},{"name":"isLong","type":"bool","internalType":"bool"}]},{"type":"error","name":"OIRatioLimited","inputs":[]},{"type":"error","name":"OnlyCrossSupported","inputs":[]},{"type":"error","name":"OnlyIsolateSupported","inputs":[]},{"type":"error","name":"PositionNotExists","inputs":[]},{"type":"error","name":"PositionShouldBeLiquidation","inputs":[]},{"type":"error","name":"PriceIsZero","inputs":[]},{"type":"error","name":"TokenTransferError","inputs":[{"name":"token","type":"address","internalType":"address"},{"name":"receiver","type":"address","internalType":"address"},{"name":"amount","type":"uint256","internalType":"uint256"}]},{"type":"error","name":"TransferErrorWithVaultBalanceNotEnough","inputs":[{"name":"vault","type":"address","internalType":"address"},{"name":"token","type":"address","internalType":"address"},{"name":"receiver","type":"address","internalType":"address"},{"name":"amount","type":"uint256","internalType":"uint256"}]}],"bytecode":{"object":"0x6080604052348015600f57600080fd5b5061c1278061001f6000396000f3fe608060405234801561001057600080fd5b50600436106100625760003560e01c80632358072c146100675780635a536f8f1461008557806367180d0c1461009a578063ac9deaa4146100bb578063c0828713146100ce578063d96faa28146100e1575b600080fd5b61006f6100f4565b60405161007c919061b2b6565b60405180910390f35b61009861009336600461b3ef565b610103565b005b6100ad6100a836600461b444565b610195565b60405190815260200161007c565b6100986100c936600461b47d565b6101b3565b6100986100dc36600461b4b8565b6101e8565b6100986100ef36600461b4eb565b610259565b60606100fe610441565b905090565b6101156525a2a2a822a960d11b6106af565b60005a90506101758383808060200260200160405190810160405280939291908181526020016000905b8282101561016b5761015c6080830286013681900381019061b54b565b8152602001906001019061013f565b50505050506106e2565b61017e84610862565b610186610e47565b61018f81610e59565b50505050565b60006101aa826101a485610e85565b90610efb565b90505b92915050565b6101c56525a2a2a822a960d11b6106af565b60005a90506101db6101d68361b6bb565b610f24565b6101e481610e59565b5050565b6101fa6525a2a2a822a960d11b6106af565b60005a90506102508383808060200260200160405190810160405280939291908181526020016000905b8282101561016b576102416080830286013681900381019061b54b565b81526020019060010190610224565b61017e84611218565b600061026482611437565b80519091506001600160a01b03166102975760405163527de13160e01b8152600481018390526024015b60405180910390fd5b60005b81604001515181101561033e576103356040518060a00160405280336001600160a01b03168152602001846040015184815181106102da576102da61b776565b60200260200101516001600160a01b03168152602001846060015184815181106103065761030661b776565b60200260200101518152602001600060038111156103265761032661b78c565b815260006020909101526115fa565b5060010161029a565b5060005b8160800151518110156103ff576103f6306001600160a01b0316631f7592ea6040518163ffffffff1660e01b8152600401602060405180830381865afa158015610390573d6000803e3d6000fd5b505050506040513d601f19601f820116820180604052508101906103b4919061b7a2565b836080015183815181106103ca576103ca61b776565b6020026020010151338560a0015185815181106103e9576103e961b776565b602002602001015161189d565b50600101610342565b50610409826118ad565b6040518281527f9658b573a066e713f2cff0b7a9e1d3b1c6395ce9379f271c4c3fa96552b9904f906020015b60405180910390a15050565b6060600061044d611922565b9050600061045a82611984565b90506000815167ffffffffffffffff8111156104785761047861b504565b6040519080825280602002602001820160405280156104b157816020015b61049e61aeae565b8152602001906001900390816104965790505b50905060005b82518110156106a7578360020160008483815181106104d8576104d861b776565b6020908102919091018101518252818101929092526040908101600020815160c08101835281546001600160a01b0316815260018201548185015260028201805484518187028101870186528181529295939486019383018282801561056757602002820191906000526020600020905b81546001600160a01b03168152600190910190602001808311610549575b50505050508152602001600382018054806020026020016040519081016040528092919081815260200182805480156105bf57602002820191906000526020600020905b8154815260200190600101908083116105ab575b505050505081526020016004820180548060200260200160405190810160405280929190818152602001828054801561062157602002820191906000526020600020905b81546001600160a01b03168152600190910190602001808311610603575b505050505081526020016005820180548060200260200160405190810160405280929190818152602001828054801561067957602002820191906000526020600020905b815481526020019060010190808311610665575b5050505050815250508282815181106106945761069461b776565b60209081029190910101526001016104b7565b509392505050565b6106b93382611998565b6106df57604051632d7d0e0d60e21b81523360048201526024810182905260440161028e565b50565b60006106ec6119c8565b905060005b825181101561085d5760006001600160a01b03168382815181106107175761071761b776565b6020026020010151602001516001600160a01b0316036107b6576107b18382815181106107465761074661b776565b602002602001015160000151604051806040016040528086858151811061076f5761076f61b776565b60200260200101516040015181526020018685815181106107925761079261b776565b60200260200101516060015181525084611a0c9092919063ffffffff16565b610855565b6108558382815181106107cb576107cb61b776565b6020026020010151600001518483815181106107e9576107e961b776565b60200260200101516020015160405180604001604052808786815181106108125761081261b776565b60200260200101516040015181526020018786815181106108355761083561b776565b60200260200101516060015181525085611a54909392919063ffffffff16565b6001016106f1565b505050565b600061086d82611ad1565b9050600061087c826001611b28565b905080516000036108a05760405163c47a9fb360e01b815260040160405180910390fd5b6108fc836040516020016108df9060208082526017908201527621a0a721a2a62faba4aa242fa624a8aaa4a220aa24a7a760491b604082015260600190565b6040516020818303038152906040526108f79061b7bf565b611d51565b60005b8151811015610ab557600061093083838151811061091f5761091f61b776565b60200260200101516020015161204e565b6040805160c08101909152815481526001820154909190602083019060ff1660038111156109605761096061b78c565b60038111156109715761097161b78c565b815260018201546001600160a01b036101009091048116602083015260028301548116604083015260038301541660608201526004820180546080909201916109b99061b7e6565b80601f01602080910402602001604051908101604052809291908181526020018280546109e59061b7e6565b8015610a325780601f10610a0757610100808354040283529160200191610a32565b820191906000526020600020905b815481529060010190602001808311610a1557829003601f168201915b5050505050815250509050610a63838381518110610a5257610a5261b776565b602002602001015160200151612099565b610aac8160400151848481518110610a7d57610a7d61b776565b602002602001015160400151858581518110610a9b57610a9b61b776565b602002602001015160a0015161217b565b506001016108ff565b50610abf8261224c565b610b05576040516001600160a01b03841681527fa3f59a272f1dfdb8ee3c526423aef3002127290cafba42a61fb2e9b0e82d4de4906020015b60405180910390a1505050565b600080610b1184612282565b915091506000610b328383610b2d670de0b6b3a76400006122d5565b612343565b90506000610b5f7fc98816e2f18da65e72304fdfbb48d50dfc787c8bb19f32d98f371da2a271c4ce612353565b905060005b8551811015610e34576000868281518110610b8157610b8161b776565b602002602001015190506000610b9a826020015161204e565b6040805160c08101909152815481526001820154909190602083019060ff166003811115610bca57610bca61b78c565b6003811115610bdb57610bdb61b78c565b815260018201546001600160a01b03610100909104811660208301526002830154811660408301526003830154166060820152600482018054608090920191610c239061b7e6565b80601f0160208091040260200160405190810160405280929190818152602001828054610c4f9061b7e6565b8015610c9c5780601f10610c7157610100808354040283529160200191610c9c565b820191906000526020600020905b815481529060010190602001808311610c7f57829003601f168201915b50505050508152505090506000610cbb8360c0015184604001516123b3565b90506000610ccc83600001516123d8565b90506000610d338560400151610cfc57610cf784610cf2670de0b6b3a76400008c6126ce565b612708565b610d24565b610d2484610cf28b610d15670de0b6b3a76400006122d5565b610d1f919061b830565b61271d565b8360200151876040015161276f565b905080600003610d635784516040516398525e6b60e01b815260048101919091526024810189905260440161028e565b6000610dbe8660400151610d9557610d9083610d7e896127c0565b610d8b90620186a061b850565b6127fd565b610daf565b610daf83610da2896127c0565b610d8b90620186a061b863565b8460200151886040015161276f565b9050610e226040518060e001604052808a8152602001886020015181526020016001151581526020016001151581526020018860a001516001600160a01b031681526020018860e00151815260200183815250610e1c886000015190565b9061280d565b505060019094019350610b6492505050565b50610e3e866131ba565b50505050505050565b610e57610e526119c8565b613438565b565b60005a610e66908361b863565b90506000610e743a8361b876565b9050801561085d5761085d8161352f565b60008082604051602001610edc91906040808252601e908201527f78797a2e656c66692e73746f726167652e496e737572616e636546756e64000060608201526001600160a01b0391909116602082015260800190565b60408051601f1981840301815291905280516020909101209392505050565b60008080610f0985856135a0565b9150915081610f19576000610f1b565b805b95945050505050565b6000610f338260000151611ad1565b9050610f3e816135c7565b6000610f697fedad16eb9aadcadf5a1593333748bdf916c682c15eb6462b5be78bf7faf64851612353565b90506000610f76826135ef565b845181546001600160a01b0319166001600160a01b0390911617815590504260018201556020840151600090610fad90859061361a565b9050806060015160001480610fca57508460400151816060015114155b15610ff657845160405163ac13338d60e01b81526001600160a01b03909116600482015260240161028e565b6020858101805160028501805460018082018355600092835285832090910180546001600160a01b0319166001600160a01b0390941693909317909255606085015160038701805493840181558252939020019190915551611059908590613697565b60005b85606001515181101561120657600061109b876060015183815181106110845761108461b776565b60200260200101518761361a90919063ffffffff16565b9050866080015182815181106110b3576110b361b776565b60200260200101518160000151101561111757865160608801518051849081106110df576110df61b776565b602002602001015160405163316ce6db60e01b815260040161028e9291906001600160a01b0392831681529116602082015260400190565b83600401876060015183815181106111315761113161b776565b60209081029190910181015182546001810184556000938452919092200180546001600160a01b0319166001600160a01b0390921691909117905560808701518051600586019190849081106111895761118961b776565b60209081029190910181015182546001810184556000938452919092200155606087015180516111fd9190849081106111c4576111c461b776565b6020026020010151886080015184815181106111e2576111e261b776565b6020026020010151600d896136a3909392919063ffffffff16565b5060010161105c565b5061121183836138b6565b5050505050565b80611222816138e7565b6002810154610100900460ff161561124d57604051633046114760e01b815260040160405180910390fd5b61125a8160010154612099565b61129561126a826001015461204e565b60010154600283015460038401546001600160a01b0361010090930483169260ff909216911661217b565b600481015460028201546000916112ba916001600160a01b039091169060ff166123b3565b905060006112c78361390c565b90508015806112e45750600283015460ff1680156112e457508082115b806112fe5750600283015460ff161580156112fe57508082105b1561133d576040518481527f7040bbddb3fa88f2e5a3573d4449af1d6b555e7bc48f984accd3539d24402f7b906020015b60405180910390a150505050565b6002830154600184015460038501546040516113bd936001600160a01b03620100009091048116939216906113a09060200160208082526017908201527621a0a721a2a62faba4aa242fa624a8aaa4a220aa24a7a760491b604082015260600190565b6040516020818303038152906040526113b89061b7bf565b613b5b565b61018f6040518060e001604052806113f47fc98816e2f18da65e72304fdfbb48d50dfc787c8bb19f32d98f371da2a271c4ce612353565b8152600180870154602083015260408201526000606082015260038601546001600160a01b03166080820152600586015460a082015260c001839052849061280d565b61143f61aeae565b6000611449611922565b600084815260028083016020908152604092839020835160c08101855281546001600160a01b03168152600182015481840152928101805485518185028101850187528181529697509395919486019391929091908301828280156114d757602002820191906000526020600020905b81546001600160a01b031681526001909101906020018083116114b9575b505050505081526020016003820180548060200260200160405190810160405280929190818152602001828054801561152f57602002820191906000526020600020905b81548152602001906001019080831161151b575b505050505081526020016004820180548060200260200160405190810160405280929190818152602001828054801561159157602002820191906000526020600020905b81546001600160a01b03168152600190910190602001808311611573575b50505050508152602001600582018054806020026020016040519081016040528092919081815260200182805480156115e957602002820191906000526020600020905b8154815260200190600101908083116115d5575b505050505081525050915050919050565b6000803090506000836060015160038111156116185761161861b78c565b15806116395750836060015160038111156116355761163561b78c565b6003145b156116a757816001600160a01b0316631f7592ea6040518163ffffffff1660e01b8152600401602060405180830381865afa15801561167c573d6000803e3d6000fd5b505050506040513d601f19601f820116820180604052508101906116a0919061b7a2565b9050611784565b836060015160038111156116bd576116bd61b78c565b60010361170257816001600160a01b03166397e7b7f26040518163ffffffff1660e01b8152600401602060405180830381865afa15801561167c573d6000803e3d6000fd5b836060015160038111156117185761171861b78c565b60020361178457816001600160a01b03166308ba026f6040518163ffffffff1660e01b8152600401602060405180830381865afa15801561175d573d6000803e3d6000fd5b505050506040513d601f19601f82011682018060405250810190611781919061b7a2565b90505b602084015160808501511561187857600061179d613eb4565b60000151905085602001516001600160a01b0316816001600160a01b0316146118085760405162461bcd60e51b815260206004820152601960248201527f4465706f736974207769746820746f6b656e206572726f722100000000000000604482015260640161028e565b806001600160a01b031663d0e30db087604001516040518263ffffffff1660e01b81526004016000604051808303818588803b15801561184757600080fd5b505af115801561185b573d6000803e3d6000fd5b50505050508091506118728284886040015161429f565b50611895565b84516040860151611895916001600160a01b0384169185906142f7565b949350505050565b6000610f1b858585856000614351565b60006118b7611922565b90506118c3818361449b565b50600082815260028083016020526040822080546001600160a01b03191681556001810183905591906118f89083018261aeed565b61190660038301600061aeed565b61191460048301600061aeed565b61018f60058301600061aeed565b600080604051602001611966906020808252601f908201527f78797a2e656c66692e73746f726167652e4c696162696c697479436c65616e00604082015260600190565b60408051601f19818403018152919052805160209091012092915050565b60606000611991836144a7565b9392505050565b6000806119a3614503565b6001600160a01b03851660009081526020829052604090209091506118959084614547565b600080604051602001611966906020808252601c908201527f78797a2e656c66692e73746f726167652e4f7261636c65507269636500000000604082015260600190565b611a16838361455f565b611a2657611a248383614581565b505b6001600160a01b03909116600090815260029092016020908152604090922081518155910151600190910155565b604080516001600160a01b038581166020808401919091529085168284015282518083038401815260609092019092528051910120611a966004860182614547565b611aa957611aa76004860182614596565b505b6000908152600690940160209081526040909420815181559301516001909301929092555050565b60008082604051602001610edc919060408082526018908201527f78797a2e656c66692e73746f726167652e4163636f756e74000000000000000060608201526001600160a01b0391909116602082015260800190565b60606000611b35846145a2565b90506000611b4382856145b0565b67ffffffffffffffff811115611b5b57611b5b61b504565b604051908082528060200260200182016040528015611b9457816020015b611b8161af0b565b815260200190600190039081611b795790505b5090506000805b8351811015611d46576000611bc6858381518110611bbb57611bbb61b776565b602002602001015190565b6040805161022081018252825481526001830154602080830191909152600284015460ff808216151584860152610100808304909116151560608086019182526001600160a01b036201000090940484166080808801919091526003890154851660a08089019190915260048a015490951660c08089019190915260058a015460e0808a019190915260068b01549589019590955260078a015461012089015260088a015461014089015260098a0154610160890152600a8a0154610180890152600b8a01546101a089015288519485018952600c8a01548552600d8a015496850196909652600e89015497840197909752600f880154908301526010870154958201959095526011860154918101919091526012850154918101919091526101c082015260138301546101e08201526014909201546102008301525190915087151590151503611d3d5780848481518110611d2457611d2461b776565b6020908102919091010152611d3a60018461b850565b92505b50600101611b9b565b509095945050505050565b6000611d5c83611ad1565b90506000611d6982614747565b90508051600003611d7a5750505050565b6000611d84614755565b905060005b8251811015612046576000611dc0848381518110611da957611da961b776565b60200260200101518461479290919063ffffffff16565b604080516102208101825282546001600160a01b031681526001830154602082015260028084015491939284019160ff1690811115611e0157611e0161b78c565b6002811115611e1257611e1261b78c565b81526020016002820160019054906101000a900460ff166002811115611e3a57611e3a61b78c565b6002811115611e4b57611e4b61b78c565b81526020016002820160029054906101000a900460ff166003811115611e7357611e7361b78c565b6003811115611e8457611e8461b78c565b81526020016002820160039054906101000a900460ff166002811115611eac57611eac61b78c565b6002811115611ebd57611ebd61b78c565b8152600282015460ff640100000000820481161515602084015265010000000000820416151560408301526001600160a01b03600160301b90910416606082015260038201546080820152600482015460a0820152600582015460c080830191909152600683015460e0830152600783015461010083015260088301546101208301526009830154610140830152600a90920154610160909101528101519091501561203d57611f8f848381518110611f7857611f7861b776565b6020026020010151846147a490919063ffffffff16565b611fbb848381518110611fa457611fa461b776565b60200260200101518661481190919063ffffffff16565b80606001516002811115611fd157611fd161b78c565b600103611fe957610160810151611fe990869061481e565b838281518110611ffb57611ffb61b776565b60200260200101517fa2bce5ff82d63e38ec31c6270a397e7cae4d5ed319bd73e318d4916d4ff68668828860405161203492919061b8b1565b60405180910390a25b50600101611d89565b505050505050565b6040805160208101829052601760608201527f78797a2e656c66692e73746f726167652e53796d626f6c0000000000000000006080820152908101829052600090819060a001610edc565b6000806120a5836148e9565b9150915060006120b484614b01565b905082156120cc57425b600d82015561018f81614b4c565b6120fd6509184e72a0006120f76120e685604001516122d5565b60e08601516120f790610e10614bcc565b90614bd8565b600b8201556040820151612132906509184e72a000906120f790612120906122d5565b6101008601516120f790610e10614bcc565b600c82015560e082015160078201805460009061215090849061b9b8565b909155505061010082015160088201805460009061216f90849061b9b8565b909155504290506120be565b81156121dd57600061218c84614be4565b905060006121a08260100160030154614c3b565b90506121b5816121af84614c5a565b90614cf9565b6012830180546000906121c990849061b850565b909155505042601383015561121182614d05565b60006121e7614d46565b6001600160a01b038316600090815260038201602052604081209192505060006122148260030154614c3b565b9050612224816121af8587614d8a565b826002016000828254612237919061b850565b90915550504260038301556120468385614e01565b6000606060008061225d8584614e4a565b9250925050600082131580610f1b5750806122778361271d565b111595945050505050565b600080600061229084614ef4565b9050600061229d85614f02565b905060006122aa86614f10565b90506122bc8184848960010154614f55565b94506122cb8160a001516122d5565b9350505050915091565b60006001600160ff1b0382111561233f5760405162461bcd60e51b815260206004820152602860248201527f53616665436173743a2076616c756520646f65736e27742066697420696e2061604482015267371034b73a191a9b60c11b606482015260840161028e565b5090565b6000611895836120f78685614bcc565b60008061235e614f9a565b60008481526020829052604090205490915061045781101561238e57612387610457600161b850565b905061239c565b806123988161b9e0565b9150505b600093845260209190915260409092208290555090565b6000806123bf84614fde565b9050826123d0578060200151611895565b519392505050565b6123e061aff2565b6123e861aff2565b60008060405160200161241c906020808252600d908201526c53594d424f4c5f434f4e46494760981b604082015260600190565b60408051601f1981840301815291905280516020909101209050612441828287615071565b61244e5750909392505050565b6124d98186604051602001612483906020808252600c908201526b4d41585f4c4556455241474560a01b604082015260600190565b60408051601f1981840301815282825280516020918201209083019490945281019190915260608101919091526080015b604051602081830303815290604052805190602001208361508b90919063ffffffff16565b83526040516125109082908790612483906020016020808252600990820152685449434b5f53495a4560b81b604082015260600190565b83602001818152505061254f8186604051602001612483906020808252600d908201526c4f50454e5f4645455f5241544560981b604082015260600190565b83604001818152505061258f8186604051602001612483906020808252600e908201526d434c4f53455f4645455f5241544560901b604082015260600190565b60608401526040516125dd9082908790612483906020016020808252601a908201527f4d41585f4c4f4e475f4f50454e5f494e5445524553545f434150000000000000604082015260600190565b608084015260405161262b9082908790612483906020016020808252601b908201527f4d41585f53484f52545f4f50454e5f494e5445524553545f4341500000000000604082015260600190565b60a08401526040516126729082908790612483906020016020808252601690820152751313d391d7d4d213d49517d490551253d7d31253525560521b604082015260600190565b60c08401526040516126c09082908790612483906020016020808252601a908201527f4c4f4e475f53484f52545f4f495f424f54544f4d5f4c494d4954000000000000604082015260600190565b60e084015250909392505050565b600080826126db856122d5565b6126e5919061b9b8565b905060008113156126fe576126f98161271d565b611895565b5060009392505050565b60006101aa8383670de0b6b3a764000061509e565b60008082121561233f5760405162461bcd60e51b815260206004820181905260248201527f53616665436173743a2076616c7565206d75737420626520706f736974697665604482015260640161028e565b60008061277c848661ba0f565b90508060000361278f5784915050611991565b6127b8846121af856127a25760006127a5565b60015b60ff166127b28989615188565b90615194565b915050611991565b6000806127d083602001516123d8565b90506119916127dd6151a0565b60a0015182516127f790620186a090610d8b906002614cf9565b906157db565b60006101aa83620186a08461509e565b6040805161022081018252835481526001840154602080830191909152600285015460ff80821615158486015261010080830490911615156060808601919091526001600160a01b036201000090930483166080808701919091526003890154841660a08088019190915260048a015490941660c08088019190915260058a015460e08089019190915260068b01549488019490945260078a015461012088015260088a015461014088015260098a0154610160880152600a8a0154610180880152600b8a01546101a088015287519384018852600c8a01548452600d8a015495840195909552600e89015496830196909652600f880154908201526010870154948101949094526011860154908401526012850154838201526101c082019290925260138401546101e08201526014840154610200820152908201516000916129619161295a906122d5565b60006157f1565b90506000612972836020015161204e565b6040805160c08101909152815481526001820154909190602083019060ff1660038111156129a2576129a261b78c565b60038111156129b3576129b361b78c565b815260018201546001600160a01b036101009091048116602083015260028301548116604083015260038301541660608201526004820180546080909201916129fb9061b7e6565b80601f0160208091040260200160405190810160405280929190818152602001828054612a279061b7e6565b8015612a745780601f10612a4957610100808354040283529160200191612a74565b820191906000526020600020905b815481529060010190602001808311612a5757829003601f168201915b50505050508152505090506000612a8e84602001516123d8565b9050612a9e858360400151615801565b612aa785615906565b6000612ad4868660a0015186612ac08960c001516122d5565b86606001518a604001518b60600151615a96565b905060008160a00151128015612aed5750806102a00151155b8015612b0357506002860154610100900460ff16155b15612b2057604051627b2f7360e51b815260040160405180910390fd5b6040808401516001600160a01b0390811683529086015115156102a08301526002870154600091612b579162010000900416611ad1565b905086600501548660a0015103612c1857600287015460018801546003890154612baa92612ba3926001600160a01b03620100008304811693919291169060ff61010090910416616508565b829061658a565b60006005880181905560068801819055600788018190556008880181905560098801819055600a8801819055600b8801819055600c880181905560138801819055600d8801819055600e8801819055600f880181905560108801819055601188018190556012880155612d71565b8560a00151876005016000828254612c30919061b863565b909155505060c0820151600888018054600090612c4e90849061b863565b9091555050610120820151600988018054600090612c6d90849061b863565b9091555050610140820151600a88018054600090612c8c90849061b863565b9091555050610200820151600b88018054600090612cab90849061b863565b9091555050610260820151601388018054600090612cca90849061b9b8565b9091555050610160820151600e88018054600090612ce990849061b863565b9091555050610180820151600f88018054600090612d0890849061b863565b90915550506101a0820151601188018054600090612d2790849061b830565b90915550506101c0820151601288018054600090612d4690849061b830565b9091555050610240820151600c88018054600090612d6590849061b863565b90915550504260148801555b612e348261022001518560000151846102a00151612dda57604051602001612dbf906020808252601290820152712322a2afa1a627a9a2afa827a9a4aa24a7a760711b604082015260600190565b60405160208183030381529060405280519060200120612e24565b604051602001612e0d906020808252600f908201526e2322a2afa624a8aaa4a220aa24a7a760891b604082015260600190565b604051602081830303815290604052805190602001205b602086015160a081015190616597565b60028701546101608301516040860151602085015160a001516102a0860151612ef794610100810460ff1694939291620100009091046001600160a01b031690612ec457604051602001612ea9906020808252600d908201526c4645455f424f52524f57494e4760981b604082015260600190565b60405160208183030381529060405280519060200120616786565b604051602001612ea9906020808252600f908201526e2322a2afa624a8aaa4a220aa24a7a760891b604082015260600190565b81602001516060015115612f5e576000612f178760000151838a86616941565b9050612f34836020015160a0015183616bcd90919063ffffffff16565b50612f588560400151846020015160a0015185610200015186610280015185616bdb565b50612f8c565b612f688183616d6a565b612f8c8460400151836020015160a001518461020001518561028001516000616bdb565b612fd08460400151836020015160400151846020015160a00151612fb48661016001516122d5565b612fc28761016001516122d5565b612fcb9061ba23565b616e31565b61300d8460000151836101a00151612fe79061ba23565b6020850151604081015160028c015460a0909201519091610100900460ff161590616f8d565b6130696040518060c0016040528060001515815260200186600001518152602001846020015160a001516001600160a01b031681526020018860a00151815260200160008152602001846020015160400151151581525061703f565b6020808301516080810151865160a08301516060909301516040516130e795939492936130c891016020808252601a908201527f43414e43454c5f574954485f504f534954494f4e5f434c4f5345000000000000604082015260600190565b6040516020818303038152906040526130e09061b7bf565b8b51617248565b816102a00151156130fb576130fb82617554565b610e3e8660000151836102a00151613114576002613117565b60075b604051806101a001604052808a60c00151815260200160008152602001866040015181526020018660a00151815260200186610160015181526020018661018001518152602001866101a001518152602001866101c00151815260200186610200015181526020018661022001518152602001866102400151815260200186610260015181526020018661028001518152508a61765a909392919063ffffffff16565b60006131e57fedad16eb9aadcadf5a1593333748bdf916c682c15eb6462b5be78bf7faf64851612353565b905060006131f2826135ef565b835481546001600160a01b0319166001600160a01b0390911617815590506132174290565b6001820155600080613228856176c7565b905060005b815181101561338f57600061326483838151811061324d5761324d61b776565b60200260200101518861361a90919063ffffffff16565b8051909150156132da57846004018383815181106132845761328461b776565b602090810291909101810151825460018082018555600094855283852090910180546001600160a01b0319166001600160a01b039093169290921790915583516005890180549283018155845291909220909101555b60608101511561338657846002018383815181106132fa576132fa61b776565b602090810291909101810151825460018082018555600094855283852090910180546001600160a01b0319166001600160a01b0390931692909217909155606084015160038901805492830181558452919092209091015582516133819084908490811061336a5761336a61b776565b60200260200101518861369790919063ffffffff16565b600193505b5060010161322d565b5060005b81518110156134275760006133b383838151811061324d5761324d61b776565b80519091506000036133c5575061341f565b6133f18383815181106133da576133da61b776565b60209081029190910101518251899190600e6136a3565b8361341d5761341d83838151811061340b5761340b61b776565b602002602001015182600001516176d5565b505b600101613393565b5081156112115761121184846138b6565b600061344382611984565b905060005b815181101561085d578260020160008383815181106134695761346961b776565b60200260200101516001600160a01b03166001600160a01b03168152602001908152602001600020600080820160009055600182016000905550508260030160008383815181106134bc576134bc61b776565b60200260200101516001600160a01b03166001600160a01b031681526020019081526020016000206000808201600090556001820160009055505061352682828151811061350c5761350c61b776565b60200260200101518460000161777c90919063ffffffff16565b50600101613448565b6000613539617791565b90508181600701600082825461354f919061b850565b909155505060078101547f5425704060c90c62f0083d9ff73df530b982ea5c64c0dab3c7d5da4761a451199061358690849061b863565b600783015460408051928352602083019190915201610435565b60008080806135b8866001600160a01b0387166177d5565b909450925050505b9250929050565b80546001600160a01b03166106df57604051633902b86b60e11b815260040160405180910390fd5b6000806135fa611922565b90506136068184614596565b506000928352600201602052506040902090565b6136456040518060800160405280600081526020016000815260200160008152602001600081525090565b506001600160a01b031660009081526004919091016020908152604091829020825160808101845281548152600182015492810192909252600281015492820192909252600390910154606082015290565b6101e482826000617817565b6136b0600285018461455f565b6136f05760405162461bcd60e51b8152602060048201526011602482015270746f6b656e206e6f74206578697374732160781b604482015260640161028e565b6001600160a01b038316600090815260048501602052604090205482111561375a5760405162461bcd60e51b815260206004820152601860248201527f746f6b656e20616d6f756e74206e6f7420656e6f756768210000000000000000604482015260640161028e565b6001600160a01b038316600090815260048501602052604090206001015461378390839061b850565b6001600160a01b038416600090815260048601602052604090205410156138015760405162461bcd60e51b815260206004820152602c60248201527f746f6b656e20616d6f756e74206578636c756465207573656420616d6f756e7460448201526b206e6f7420656e6f7567682160a01b606482015260840161028e565b6001600160a01b0383166000818152600486016020818152604080842081516080810183528154808252600183015482860152600283015493820193909352600382015460608201529585529290915285929061385f90849061b863565b909155505084546001600160a01b03858116600090815260048801602052604090819020905160008051602061c0d2833981519152936138a79316918891869190889061ba4f565b60405180910390a15050505050565b7fa4a7288441eb2f92f5024e814924f8c53e12c3f5981bd9d2a2146dd24f72a605828260405161043592919061bb40565b80600501546000036106df57604051634a32858f60e01b815260040160405180910390fd5b60008061391c83600101546123d8565b9050600061393e846005015483600001516139356151a0565b60a001516178d0565b6040805161022081018252865481526001870154602080830191909152600288015460ff80821615158486015261010080830490911615156060808601919091526001600160a01b0362010000909304831660808087019190915260038c0154841660a08088019190915260048d015490941660c08088019190915260058d015460e08089019190915260068e01549488019490945260078d015461012088015260088d015461014088015260098d0154610160880152600a8d0154610180880152600b8d01546101a088015287519384018852600c8d01548452600d8d015495840195909552600e8c015496830196909652600f8b01549082015260108a0154948101949094526011890154908401526012880154908301526101c081019190915260138601546101e08201526014860154610200820152909150600090613a86906178ee565b600286015490915060009060ff16613acf5781613ac08488600901548960050154613ab1919061b850565b613abb919061b863565b6122d5565b613aca919061b830565b613afc565b81613af28488600901548960050154613ae8919061b863565b613abb919061b850565b613afc919061b9b8565b90506000811215613b135750600095945050505050565b6000613b348760050154613b2e89600601546121af8661271d565b90615188565b60208601516002890154919250613b509183919060ff1661276f565b979650505050505050565b6000613b6685611ad1565b90506000613b7382614747565b90508051600003613b8557505061018f565b6000613b8f614755565b905060005b8251811015613eaa576000613bb4848381518110611da957611da961b776565b604080516102208101825282546001600160a01b031681526001830154602082015260028084015491939284019160ff1690811115613bf557613bf561b78c565b6002811115613c0657613c0661b78c565b81526020016002820160019054906101000a900460ff166002811115613c2e57613c2e61b78c565b6002811115613c3f57613c3f61b78c565b81526020016002820160029054906101000a900460ff166003811115613c6757613c6761b78c565b6003811115613c7857613c7861b78c565b81526020016002820160039054906101000a900460ff166002811115613ca057613ca061b78c565b6002811115613cb157613cb161b78c565b81526002820154640100000000810460ff908116151560208085019190915265010000000000830490911615156040840152600160301b9091046001600160a01b0316606083015260038301546080830152600483015460a0830152600583015460c0830152600683015460e0830152600783015461010083015260088301546101208301526009830154610140830152600a909201546101609091015281015190915088148015613d795750866001600160a01b03168161010001516001600160a01b0316145b8015613d87575060c0810151155b15613ea157613da1848381518110611f7857611f7861b776565b613db6848381518110611fa457611fa461b776565b80606001516002811115613dcc57613dcc61b78c565b600103613e4d57613e4b306001600160a01b03166397e7b7f26040518163ffffffff1660e01b8152600401602060405180830381865afa158015613e14573d6000803e3d6000fd5b505050506040513d601f19601f82011682018060405250810190613e38919061b7a2565b610100830151835161016085015161189d565b505b838281518110613e5f57613e5f61b776565b60200260200101517fa2bce5ff82d63e38ec31c6270a397e7cae4d5ed319bd73e318d4916d4ff686688288604051613e9892919061b8b1565b60405180910390a25b50600101613b94565b5050505050505050565b613f0c60405180610120016040528060006001600160a01b0316815260200160008152602001600081526020016000815260200160008152602001600081526020016000815260200160008152602001600081525090565b600080604051602001613f3f906020808252600c908201526b434841494e5f434f4e46494760a01b604082015260600190565b604051602081830303815290604052805190602001209050613fe181604051602001613f8c906020808252600d908201526c2ba920a82822a92faa27a5a2a760991b604082015260600190565b60405160208183030381529060405280519060200120604051602001613fbc929190918252602082015260400190565b60405160208183030381529060405280519060200120836178fc90919063ffffffff16565b6001600160a01b03168352604051614058908290614028906020016020808252601290820152711352539517d1d054d7d1915157d31253525560721b604082015260600190565b604051602081830303815290604052805190602001206040516020016124b4929190918252602082015260400190565b83602001818152505061409d816040516020016140289060208082526014908201527314915111515357d1d054d7d1915157d31253525560621b604082015260600190565b8360400181815250506140f6816040516020016140289060208082526022908201527f504c4143455f494e4352454153455f4f524445525f4741535f4645455f4c494d604082015261125560f21b606082015260800190565b606084015260405161414d9082906140289060200160208082526022908201527f504c4143455f44454352454153455f4f524445525f4741535f4645455f4c494d604082015261125560f21b606082015260800190565b60808401526040516141a69082906140289060200160208082526024908201527f504f534954494f4e5f5550444154455f4d415247494e5f4741535f4645455f4c6040820152631253525560e21b606082015260800190565b60a08401526040516142019082906140289060200160208082526026908201527f504f534954494f4e5f5550444154455f4c455645524147455f4741535f46454560408201526517d31253525560d21b606082015260800190565b60c08401526040516142469082906140289060200160208082526016908201527515d2551211149055d7d1d054d7d1915157d31253525560521b604082015260600190565b60e0840152604051614292908290614028906020016020808252601b908201527f434c41494d5f524557415244535f4741535f4645455f4c494d49540000000000604082015260600190565b6101008401525090919050565b806000036142ac57505050565b60006142bd84848462030d4061791b565b90508061018f5760405163012f3b8f60e71b81526001600160a01b038086166004830152841660248201526044810183905260640161028e565b604080516001600160a01b0385811660248301528416604482015260648082018490528251808303909101815260849091019091526020810180516001600160e01b03166323b872dd60e01b17905261018f908590617a15565b60008260000361436357506000610f1b565b6040516370a0823160e01b81526001600160a01b038781166004830152600091908716906370a0823190602401602060405180830381865afa1580156143ad573d6000803e3d6000fd5b505050506040513d601f19601f820116820180604052508101906143d1919061bbcc565b905083811061444e5760405163078d3b7960e01b81526001600160a01b03878116600483015286811660248301526044820186905288169063078d3b7990606401600060405180830381600087803b15801561442c57600080fd5b505af1158015614440573d6000803e3d6000fd5b505050506001915050610f1b565b8261448e57604051635ac09ed760e11b81526001600160a01b0380891660048301528088166024830152861660448201526064810185905260840161028e565b5060009695505050505050565b60006101aa8383617aea565b6060816000018054806020026020016040519081016040528092919081815260200182805480156144f757602002820191906000526020600020905b8154815260200190600101908083116144e3575b50505050509050919050565b600080604051602001611966906020808252601e908201527f78797a2e656c66692e73746f726167652e416363657373436f6e74726f6c0000604082015260600190565b600081815260018301602052604081205415156101aa565b6001600160a01b038116600090815260018301602052604081205415156101aa565b60006101aa836001600160a01b038416617be4565b60006101aa8383617be4565b60606101ad82600501611984565b6000806145bb61af0b565b60005b855181101561473d576145dc868281518110611bbb57611bbb61b776565b6040805161022081018252825481526001830154602080830191909152600284015460ff808216151584860152610100808304909116151560608086019182526001600160a01b036201000090940484166080808801919091526003890154851660a08089019190915260048a015490951660c08089019190915260058a015460e0808a019190915260068b01549589019590955260078a015461012089015260088a015461014089015260098a0154610160890152600a8a0154610180890152600b8a01546101a089015288519485018952600c8a01548552600d8a015496850196909652600e89015497840197909752600f880154908301526010870154958201959095526011860154918101919091526012850154918101919091526101c082015260138301546101e082015260149092015461020083015251909250851515901515036147355761473260018461b850565b92505b6001016145be565b5090949350505050565b60606101ad82600701611984565b600080604051602001611966906020808252601690820152753c3cbd1732b633349739ba37b930b3b29727b93232b960511b604082015260600190565b60009081526020919091526040902090565b60009081526020919091526040812080546001600160a01b0319168155600181018290556002810180546001600160d01b031916905560038101829055600481018290556005810182905560068101829055600781018290556008810182905560098101829055600a0155565b61085d600783018261449b565b80826001015410156148835760405162461bcd60e51b815260206004820152602860248201527f6f72646572486f6c64496e55736420697320736d616c6c6572207468616e20686044820152671bdb19125b955cd960c21b606482015260840161028e565b6001820180549082906000614898838561b863565b909155505082546001840154604080516001600160a01b039093168352602083018490528201527f2fecad931c93369a4c0c3aac4f460de814ed19416a258e434e0d67940f0a8cbd90606001610af8565b60006148f361b037565b6148fb61b037565b600061490685614b01565b905060006149138661204e565b9050614920826002015490565b835261492b82617c33565b6020840152825115801561494157506020830151155b80614950575060208301518351145b1561496357506001959194509092505050565b61496c82617caa565b6040840181905260000361498857506001959194509092505050565b602083015183511161012084015261499f82617ccb565b606084018190526040840151845160208601516149c593926121af929091839190617d37565b6080840152825115614a81578261012001516149ff57825160808401516149fa916149f09190615188565b8460400151617d46565b614a0f565b82516080840151614a0f91615188565b60a084018190526003820154614a5391613abb91614a35906001600160a01b0316617d62565b6003850154614a4e906001600160a01b031660016123b3565b617dc6565b60e0840152610120830151614a75578260e00151614a709061ba23565b614a7b565b8260e001515b60e08401525b602083015115614af357826101200151614ab857614ab3613abb8460200151856080015161518890919063ffffffff16565b614aec565b614ae3613abb614ad98560200151866080015161518890919063ffffffff16565b8560400151617d46565b614aec9061ba23565b6101008401525b506000959194509092505050565b6040805160208101829052601760608201527f78797a2e656c66692e73746f726167652e4d61726b65740000000000000000006080820152908101829052600090819060a001610edc565b8054604080519182526007830154602083015260088301549082015260098201546060820152600a8201546080820152600b82015460a0820152600c82015460c0820152600d82015460e08201527f5a51d9147354371a353006fe6ea5741b6fdddd5d868eb25f5361cecc080dfa1590610100015b60405180910390a150565b60006101aa828461bbe5565b60006101aa828461bc15565b60008082604051602001610edc919060408082526017908201527f78797a2e656c66692e73746f726167652e4c70506f6f6c00000000000000000060608201526001600160a01b0391909116602082015260800190565b600081600003614c4d57506000919050565b81425b6101ad919061b863565b6004810154600090158015614c7157506007820154155b15614c7e57506000919050565b6007820154600483015460009190614c95906122d5565b614c9f919061b9b8565b905060008113614cb25750600092915050565b6000614cd68460040160020154614cc88461271d565b670de0b6b3a7640000617deb565b8454909150611895908290614cf3906001600160a01b0316617df8565b51612708565b60006101aa828461b876565b80546040517ff23a1644a253a05158a5664e7dcdb9169fcae91f76675245abc54ab5f98a01bb91614bc1916001600160a01b0390911690601085019061bc43565b6000806040516020016119669060208082526018908201527f78797a2e656c66692e73746f726167652e557364506f6f6c0000000000000000604082015260600190565b6000614d96838361818f565b51158015614daf5750614da9838361818f565b60400151155b15614dbc575060006101ad565b6000614df2614dcb858561818f565b60200151614dd9868661818f565b60400151614de7878761818f565b51614cc8919061b850565b905061189581610cf2856181f5565b6001600160a01b03811660009081526003830160205260409081902090517f1ce920cb88be503ae9377cd07aae1e28e7ca6c64e897ad6ff9b74c2d329d7d83916104359161bc7d565b600080600080614e5a86866182a1565b90506000614e688787618389565b90506000614e768888618468565b90506000614e8a8285858c60010154614f55565b90506000826060015111614eaf57600081836060015196509650965050505050614eed565b6000811315614eda57614ed5613abb614ec78361271d565b8460600151620186a0617deb565b614edd565b60005b6060909201519196509450925050505b9250925092565b6000606061199183826182a1565b600060606119918382618389565b614f496040518060c001604052806000815260200160008152602001600081526020016000815260200160008152602001600081525090565b60606119918382618468565b60008460800151614f65846122d5565b86516020880151614f7c908690613ae8908a61b850565b614f86919061b9b8565b614f90919061b830565b610f1b919061b830565b600080604051602001611966906020808252601c908201527f78797a2e656c66692e73746f726167652e5575696443726561746f7200000000604082015260600190565b60408051808201909152600080825260208201526000614ffc6119c8565b604080518082018252600080825260209182018190526001600160a01b0387168152600284018252829020825180840190935280548084526001909101549183019190915291925090158061505357506020810151155b156119915760405163907adecd60e01b815260040160405180910390fd5b6000828152600d8401602052604081206118959083614547565b6000908152602091909152604090205490565b60008080600019858709858702925082811083820303915050806000036150d8578382816150ce576150ce61b9f9565b0492505050611991565b80841161511f5760405162461bcd60e51b81526020600482015260156024820152744d6174683a206d756c446976206f766572666c6f7760581b604482015260640161028e565b60008486880960026001871981018816978890046003810283188082028403028082028403028082028403028082028403028082028403029081029092039091026000889003889004909101858311909403939093029303949094049190911702949350505050565b60006101aa828461bca8565b60006101aa828461b850565b615220604051806102000160405280606081526020016060815260200160008152602001600081526020016000815260200160008152602001600081526020016000815260200160008152602001600081526020016000815260200160008152602001600081526020016000815260200160008152602001600081525090565b600080604051602001615253906020808252600c908201526b54524144455f434f4e46494760a01b604082015260600190565b6040516020818303038152906040528051906020012090506152f48160405160200161529f906020808252600c908201526b54524144455f544f4b454e5360a01b604082015260600190565b604051602081830303815290604052805190602001206040516020016152cf929190918252602082015260400190565b604051602081830303815290604052805190602001208361863b90919063ffffffff16565b8084525167ffffffffffffffff8111156153105761531061b504565b60405190808252806020026020018201604052801561534957816020015b61533661b08c565b81526020019060019003908161532e5790505b50602084015260005b8351518110156153ab57615382846000015182815181106153755761537561b776565b60200260200101516186aa565b846020015182815181106153985761539861b776565b6020908102919091010152600101615352565b506153e8816040516020016140289060208082526014908201527313525397d3d491115497d3505491d25397d554d160621b604082015260600190565b83604001818152505061543681604051602001614028906020808252601a908201527f415641494c41424c455f434f4c4c41544552414c5f524154494f000000000000604082015260600190565b6060840152604051615474908290614028906020016020808252600f908201526e10d493d4d4d7d3151597d312535255608a1b604082015260600190565b60808401526040516154c0908290614028906020016020808252601b908201527f4d41585f4d41494e54454e414e43455f4d415247494e5f524154450000000000604082015260600190565b60a08401526040516155049082906140289060200160208082526015908201527446554e44494e475f4645455f424153455f5241544560581b604082015260600190565b60c0840152604051615548908290614028906020016020808252601590820152744d41585f46554e44494e475f424153455f5241544560581b604082015260600190565b60e084015260405161559e9082906140289060200160208082526021908201527f54524144494e475f4645455f5354414b494e475f524557415244535f524154496040820152604f60f81b606082015260800190565b6101008401526040516155eb908290614028906020016020808252601e908201527f54524144494e475f4645455f504f4f4c5f524557415244535f524154494f0000604082015260600190565b6101208401526040516156439082906140289060200160208082526022908201527f54524144494e475f4645455f5553445f504f4f4c5f524557415244535f524154604082015261494f60f01b606082015260800190565b61014084015260405161569c9082906140289060200160208082526023908201527f424f52524f57494e475f4645455f5354414b494e475f524557415244535f524160408201526254494f60e81b606082015260800190565b6101608401526040516156e7908290614028906020016020808252818101527f424f52524f57494e475f4645455f504f4f4c5f524557415244535f524154494f604082015260600190565b6101808401526040516157349082906140289060200160208082526019908201527f4155544f5f5245445543455f50524f4649545f464143544f5200000000000000604082015260600190565b6101a0840152604051615781908290614028906020016020808252601c908201527f4155544f5f5245445543455f4c49515549444954595f464143544f5200000000604082015260600190565b6101c08401526040516157ce9082906140289060200160208082526019908201527f535741505f534c49505045525f544f4b454e5f464143544f5200000000000000604082015260600190565b6101e08401525090919050565b60008183106157ea57816101aa565b5090919050565b60006060610f1b858286866189cb565b6002820154600383015460009161582691849160ff16906001600160a01b03166189f4565b9050600061585c61584d8560080154620186a08760070154615848919061b863565b618a47565b600d860154610cf2908561b863565b90508084600c016002016000828254615875919061b850565b909155505060038401546158bc908290615897906001600160a01b0316617d62565b600387015460028801546158b7916001600160a01b03169060ff166123b3565b618a57565b600f850180546000906158d090849061b850565b9091555050600d84018290556002840154600385015461018f91859160ff909116906001600160a01b03166000612fcb866122d5565b6001810154600282015460009161591f9160ff16618a7a565b60108301549091508103615931575050565b600061595761594384600501546122d5565b6010850154615952908561b830565b618aa2565b600284015490915060009060ff16156159ea578190508184600c016005016000828254615984919061b9b8565b909155505060038401546159cb9083906159a6906001600160a01b0316617d62565b600387015460028801546159c6916001600160a01b03169060ff166123b3565b618ac2565b6012850180546000906159df90849061b9b8565b90915550615a679050565b6003840154615a2c908390615a07906001600160a01b0316617d62565b60038701546002880154615a27916001600160a01b03169060ff166123b3565b618af0565b90508084600c016005016000828254615a45919061b9b8565b9091555050601284018054839190600090615a6190849061b9b8565b90915550505b601084018390556001808501546002860154600387015461018f93859260ff16916001600160a01b0316616f8d565b615a9e61b0da565b876040518061022001604052908160008201548152602001600182015481526020016002820160009054906101000a900460ff161515151581526020016002820160019054906101000a900460ff161515151581526020016002820160029054906101000a90046001600160a01b03166001600160a01b03166001600160a01b031681526020016003820160009054906101000a90046001600160a01b03166001600160a01b03166001600160a01b031681526020016004820160009054906101000a90046001600160a01b03166001600160a01b03166001600160a01b031681526020016005820154815260200160068201548152602001600782015481526020016008820154815260200160098201548152602001600a8201548152602001600b8201548152602001600c82016040518060e00160405290816000820154815260200160018201548152602001600282015481526020016003820154815260200160048201548152602001600582015481526020016006820154815250508152602001601382015481526020016014820154815250508160200181905250848160600181815250506000615c6c8960030160009054906101000a90046001600160a01b031660006123b3565b9050615c778161271d565b60408301526003890154600090615c96906001600160a01b0316617d62565b9050888a600501540361609f57826020015161014001518360c0018181525050826020015161016001518361012001818152505082602001516101a0015183610200018181525050615e7f898b6040518061022001604052908160008201548152602001600182015481526020016002820160009054906101000a900460ff161515151581526020016002820160019054906101000a900460ff161515151581526020016002820160029054906101000a90046001600160a01b03166001600160a01b03166001600160a01b031681526020016003820160009054906101000a90046001600160a01b03166001600160a01b03166001600160a01b031681526020016004820160009054906101000a90046001600160a01b03166001600160a01b03166001600160a01b031681526020016005820154815260200160068201548152602001600782015481526020016008820154815260200160098201548152602001600a8201548152602001600b8201548152602001600c82016040518060e0016040529081600082015481526020016001820154815260200160028201548152602001600382015481526020016004820154815260200160058201548152602001600682015481525050815260200160138201548152602001601482015481525050618b25565b61018085015261016084015260208301516101c0908101805160a001516101a0860152805160c001519185019190915251516102408401819052615ecd908290615ec88561271d565b618b9e565b6102208401819052615ede906122d5565b836101a00151615ef28561016001516122d5565b615efc919061b9b8565b615f06919061b9b8565b6101e08401528415615fee5783615f1e576000615f82565b615f82615f31613abb8560200151618bab565b89615f3b86618be0565b615f4d876020015161016001516122d5565b615f57919061b830565b615f61919061b9b8565b615f6b919061b830565b615f7c856020015160a00151617d62565b84618af0565b60a084015260c0830151615f95906122d5565b8360a00151615fa4919061b830565b608084015260208301516101600151615fcc908990615fc2906122d5565b615f6b919061b9b8565b615fd98460c001516122d5565b615fe3919061b830565b610280840152616075565b61601788615ffb85618be0565b61600d866020015161016001516122d5565b615fc2919061b830565b60a084015260c083015161602a906122d5565b8360a00151616039919061b830565b608084015260208301516101600151616057908990615fc2906122d5565b6160648460c001516122d5565b61606e919061b830565b6102808401525b616094836080015161608e856020015160a00151617d62565b84618ac2565b6102608401526164ab565b602083015160e0810151610140909101516160bf9190613b2e908c614cf9565b60c0840152602083015160e08101516101a0909101516160e49190613b2e908c614cf9565b6102008401526160f48987618a47565b8361024001818152505061629f898b6040518061022001604052908160008201548152602001600182015481526020016002820160009054906101000a900460ff161515151581526020016002820160019054906101000a900460ff161515151581526020016002820160029054906101000a90046001600160a01b03166001600160a01b03166001600160a01b031681526020016003820160009054906101000a90046001600160a01b03166001600160a01b03166001600160a01b031681526020016004820160009054906101000a90046001600160a01b03166001600160a01b03166001600160a01b031681526020016005820154815260200160068201548152602001600782015481526020016008820154815260200160098201548152602001600a8201548152602001600b8201548152602001600c82016040518060e0016040529081600082015481526020016001820154815260200160028201548152602001600382015481526020016004820154815260200160058201548152602001600682015481525050815260200160138201548152602001601482015481525050618b25565b6101808501526101608401526162b4896122d5565b8360e00181815250506162ce836020015160e001516122d5565b610100840181905260e084015160208501516101c0015160a001516162f892916120f79190614bcc565b6101a084015261010083015160e084015160208501516101c0015160c0015161632692916120f79190614bcc565b6101c080850191909152602084015101515161024084015111156163565760208301516101c00151516102408401525b61636981846102400151615ec88561271d565b610220840181905261637a906122d5565b836101a0015161638e8561016001516122d5565b616398919061b9b8565b6163a2919061b9b8565b6101e084015261010083015160e08401516163f591615f6b916120f7908c6163c989618be0565b6163db8a6020015161016001516122d5565b6163e5919061b830565b6163ef919061b9b8565b90614bcc565b60a084015260c0830151616408906122d5565b8360a00151616417919061b830565b836080018181525050616447615f6b8461010001516120f78660e001518c6163e5896020015161016001516122d5565b6164548460c001516122d5565b61645e919061b830565b61028084015260058a0154602084015161016001516164829190613b2e908c614cf9565b6101208401526080830151602084015160a001516164a4919061608e90617d62565b6102608401525b89600901548a600a01548461012001516164c5919061b850565b116164d15760006164f5565b89600901548a600a01548461012001516164eb919061b850565b6164f5919061b863565b6101408401525050979650505050505050565b6040805160a06020808301829052601960c08401527f78797a2e656c66692e73746f726167652e506f736974696f6e0000000000000060e0808501919091526001600160a01b03988916848601526060840197909752949096166080820152911515948201949094528351808203909301835261010001909252805191012090565b61085d600583018261449b565b60008481527fb31b5831e77ebf4a20e050d886d24b00d24f44760e3342d08fb455df41d4aaf8602052604081207fb31b5831e77ebf4a20e050d886d24b00d24f44760e3342d08fb455df41d4aafa917fb31b5831e77ebf4a20e050d886d24b00d24f44760e3342d08fb455df41d4ab01906166106151a0565b905061661a61b192565b6166238961204e565b600101546001600160a01b03610100918290041660c083015282015161664a908b90618a47565b6040820152610120820151616660908b90618a47565b606082018190526040820151616682919061667c908d90618c18565b90618c18565b60a082015260608101516166999085908990618c24565b60c081015160408201516166b09187918a90618c85565b60c081015160a08201516166c79185918a90618c85565b8560600151156167115760608101516166e39085908990618ce4565b60c081015160408201516166fa9187918a90618d45565b60c081015160a08201516167119185918a90618d45565b6080868101518751604080518d81526001600160a01b03938416602082015280820192909252606082018c9052918a169281019290925260a082018c9052517f2ae7718f4105fe717c24426c57b47946a517e684f5458c2069ef013a7b85faf19181900360c00190a150505050505050505050565b6001600160a01b03841660009081527fb31b5831e77ebf4a20e050d886d24b00d24f44760e3342d08fb455df41d4aaf9602052604081207fb31b5831e77ebf4a20e050d886d24b00d24f44760e3342d08fb455df41d4aafa917fb31b5831e77ebf4a20e050d886d24b00d24f44760e3342d08fb455df41d4ab01906168096151a0565b905061681361b192565b6168228a836101600151618a47565b6040820152610180820151616838908b90618a47565b608082018190526040820151616854919061667c908d90618c18565b60a0820152604081015161686d9086908b908b90618c85565b608081015161687f9085908a90618c24565b60a08101516168939084908b908b90618c85565b8a156168d35760408101516168ad9086908b908b90618d45565b60808101516168bf9085908a90618ce4565b60a08101516168d39084908b908b90618d45565b604080518c151581526001600160a01b038b811660208301528a811682840152891660608201526080810188905260a081018c905290517fc6808235a634ed03a8e9b566f817b485bebc047ac6d8ddda1f07e5173f0a18f59181900360c00190a15050505050505050505050565b600080826101e00151131561697a57616974826020015160a0015161696a846101e0015161271d565b8691906003618da4565b506169a2565b6169a2826020015160a00151616998846101e00151610d1f9061ba23565b8691906003618efc565b602082015160a0015160c08301516169bd9186916005618fc1565b6000306001600160a01b0316631f7592ea6040518163ffffffff1660e01b8152600401602060405180830381865afa1580156169fd573d6000803e3d6000fd5b505050506040513d601f19601f82011682018060405250810190616a21919061b7a2565b90506000836080015112616ad357616a5d836020015160a00151616a53856101e001518660800151610d1f919061b9b8565b8791906004618efc565b616a9b836020015160400151616a7a57616a756190ce565b616a7d565b83515b846020015160a0015183616a94876080015161271d565b6001614351565b50826020015160400151616ace57616acc616ab46190ce565b602085015160a0015185516102208701516001614351565b505b616b37565b600083608001511215616b3757616b05836020015160a00151616afd8560800151610d1f9061ba23565b8791906190e9565b9150616b3581846020015160a00151856000015185616b2b8860800151610d1f9061ba23565b616a94919061b863565b505b826102a00151616bc4576000616b508460c001516122d5565b8460a00151616b86613abb87602001516101600151613b2e896020015161014001518a6101400151614cf990919063ffffffff16565b616b90919061b9b8565b616b9a919061b830565b8654602086015160a001518754929350616bc2928a926001600160a01b0316919085906190f8565b505b50949350505050565b60006101aa838360006191ba565b6000616be686614be4565b60028101549091506001600160a01b03808716911603616c9e57616c0a81856192d4565b6000831215616c2e57616c29616c22610d1f8561ba23565b829061937a565b612046565b81600003616c4957616c29616c428461271d565b8290619386565b6000616c548461271d565b9050616c78838211616c67576000616c71565b616c71848361b863565b8390619386565b616c98838211616c885784616c91565b616c91846122d5565b8390619392565b50612046565b6000616ca8614d46565b9050616cb58187876193e8565b6000841215616cf5576000616ccc610d1f8661ba23565b9050616cd98388836194d9565b616ce4828883619553565b616cef828883619637565b50610e3e565b82600003616d1757616d1286616d0a8661271d565b8491906196be565b610e3e565b6000616d228561271d565b9050616d4887858311616d36576000616d40565b616d40868461b863565b8591906196be565b613eaa87858311616d595786616d62565b616d62866122d5565b859190619788565b806102a0015115616d79575050565b600081608001511280616da157506000816080015112158015616da157508060200151604001515b15616dd1578051602082015160a09081015184549184015161085d93926001600160a01b031690616a949061271d565b616e05616ddc6190ce565b602083015160a0015183516102208501516080860151616dfb9061271d565b616a94919061b850565b508051602082015160a09081015184549184015161085d93926001600160a01b031690616a949061271d565b8315616edd576000616e4286614be4565b905060008313616e6c57616e58610d1f8461ba23565b6010820154616e67919061b863565b616e84565b616e758361271d565b6010820154616e84919061b850565b601082015560008213616eb157616e9d610d1f8361ba23565b6011820154616eac919061b863565b616ec9565b616eba8261271d565b6011820154616ec9919061b850565b6011820155616ed781614d05565b50611211565b6000616ee7614d46565b6001600160a01b038516600090815260038201602052604081209192508413616f2757616f16610d1f8561ba23565b8154616f22919061b863565b616f3c565b616f308461271d565b8154616f3c919061b850565b815560008313616f6657616f52610d1f8461ba23565b8160010154616f61919061b863565b616f7e565b616f6f8361271d565b8160010154616f7e919061b850565b6001820155610e3e8286614e01565b6000616f9886614b01565b90508315616fc25784816007016002016000828254616fb7919061b9b8565b90915550616fdf9050565b84816007016003016000828254616fd9919061b9b8565b90915550505b616fe881614b4c565b8215612046576000616ff98761204e565b9050600061701d8260010160019054906101000a90046001600160a01b0316614be4565b905085156170345761702f8188619392565b613eaa565b613eaa818589619788565b600061704e8260200151614b01565b9050600061705f83602001516123d8565b8351909150801561707157508260a001515b1561708d5761708882600201848360200151619838565b617129565b8251801561709d57508260a00151155b156170eb5760408301516170b29083906198fc565b61708882600601600085604001516001600160a01b03166001600160a01b03168152602001908152602001600020848360200151619838565b8251617129576171298360a0015161711e576040808501516001600160a01b031660009081526006850160205220617123565b826002015b8461991a565b82511561085d57600061713d836002015490565b9050600061714a84617c33565b90508460a0015180156171605750826080015182115b1561719357602085015160a0860151604051633ea6fa5360e11b815260048101929092521515602482015260440161028e565b8460a001511580156171a857508260a0015181115b156171db57602085015160a0860151604051633ea6fa5360e11b815260048101929092521515602482015260440161028e565b60006171e783836157db565b90508360e001518110156171fd57505050505050565b61721461720a838561b850565b8560c00151618a47565b8161721f8585617d37565b617229919061b863565b1115612046576040516387fd15d760e01b815260040160405180910390fd5b600061725387611ad1565b9050600061726082614747565b90508051600003617272575050612046565b600061727c614755565b905060005b8251811015617548578483828151811061729d5761729d61b776565b602002602001015103156175405760006172c2848381518110611da957611da961b776565b604080516102208101825282546001600160a01b031681526001830154602082015260028084015491939284019160ff16908111156173035761730361b78c565b60028111156173145761731461b78c565b81526020016002820160019054906101000a900460ff16600281111561733c5761733c61b78c565b600281111561734d5761734d61b78c565b81526020016002820160029054906101000a900460ff1660038111156173755761737561b78c565b60038111156173865761738661b78c565b81526020016002820160039054906101000a900460ff1660028111156173ae576173ae61b78c565b60028111156173bf576173bf61b78c565b81526002820154640100000000810460ff908116151560208085019190915265010000000000830490911615156040840152600160301b9091046001600160a01b0316606083015260038301546080830152600483015460a0830152600583015460c0830152600683015460e0830152600783015461010083015260088301546101208301526009830154610140830152600a90920154610160909101528101519091508a1480156174875750886001600160a01b03168161010001516001600160a01b0316145b80156174a85750806080015160038111156174a4576174a461b78c565b6003145b80156174bb57508715158160c001511515145b1561753e576174d5848381518110611fa457611fa461b776565b6174ea848381518110611f7857611f7861b776565b8382815181106174fc576174fc61b776565b60200260200101517fa2bce5ff82d63e38ec31c6270a397e7cae4d5ed319bd73e318d4916d4ff68668828960405161753592919061b8b1565b60405180910390a25b505b600101617281565b50505050505050505050565b806020015160600151156175a0578051602082015160a08101516106df929161759b9061758090618bab565b617591866020015160a00151617d62565b8660400151617dc6565b6199b5565b600080826101e0015112617607576175c7826102800151836101e00151610d1f919061b9b8565b8260c00151116175d8576000617600565b6175f1826102800151836101e00151610d1f919061b9b8565b8260c00151617600919061b863565b9050617643565b61761582610280015161271d565b617627836101e00151610d1f9061ba23565b8360c00151617636919061b850565b617640919061b863565b90505b6101e48260000151836020015160a00151836199b5565b6002840154600185015460038601547fee2b9c77532fd89e66e2f431c2001e4bcc30fb5bc62ee9cdac252f89540067ae9286926176b3926001600160a01b0362010000840481169391169060ff61010090910416616508565b84878560405161132f95949392919061bcbc565b60606101ad82600201611984565b60006176df617791565b90506000806176f160088401866135a0565b91509150811561771a5761771485617709868461b850565b600886019190619aaf565b5061772a565b617728600884018686619aaf565b505b7f9b4697523df9dad7380bc9824c0a740b381d50dece736d24a7f48ee23bc97fc38582617757878261b850565b604080516001600160a01b0390941684526020840192909252908201526060016138a7565b60006101aa836001600160a01b038416617aea565b600080604051602001611966906020808252601b908201527f78797a2e656c66692e73746f726167652e436f6d6d6f6e446174610000000000604082015260600190565b6000818152600283016020526040812054819080617804576177f78585619ac5565b9250600091506135c09050565b6001925090506135c0565b509250929050565b6001600160a01b038216600090815260048401602090815260409182902082516080810184528154815260018201549281019290925260028101549282019290925260038201546060820181905261787a908590617873617791565b9190619ad1565b8160030154826001016000828254617892919061b863565b909155505060006003830155845460405160008051602061c0d2833981519152916138a7916001600160a01b0390911690879085908790899061ba4f565b60006118956178df8584618a47565b6127f786610d8b876002614cf9565b600060606119918382619b7d565b600090815260029190910160205260409020546001600160a01b031690565b604080516001600160a01b038581166024830152604480830186905283518084039091018152606490920183526020820180516001600160e01b031663a9059cbb60e01b179052915160009283918291891690869061797b90869061bed8565b60006040518083038160008787f1925050503d80600081146179b9576040519150601f19603f3d011682016040523d82523d6000602084013e6179be565b606091505b5091509150816179d45760009350505050611895565b600081511180156179f65750808060200190518101906179f4919061bef4565b155b15617a075760009350505050611895565b506001979650505050505050565b6000617a6a826040518060400160405280602081526020017f5361666545524332303a206c6f772d6c6576656c2063616c6c206661696c6564815250856001600160a01b0316619e689092919063ffffffff16565b9050805160001480617a8b575080806020019051810190617a8b919061bef4565b61085d5760405162461bcd60e51b815260206004820152602a60248201527f5361666545524332303a204552433230206f7065726174696f6e20646964206e6044820152691bdd081cdd58d8d9595960b21b606482015260840161028e565b60008181526001830160205260408120548015617bd3576000617b0e60018361b863565b8554909150600090617b229060019061b863565b9050818114617b87576000866000018281548110617b4257617b4261b776565b9060005260206000200154905080876000018481548110617b6557617b6561b776565b6000918252602080832090910192909255918252600188019052604090208390555b8554869080617b9857617b9861bf16565b6001900381819060005260206000200160009055905585600101600086815260200190815260200160002060009055600193505050506101ad565b60009150506101ad565b5092915050565b6000818152600183016020526040812054617c2b575081546001818101845560008481526020808220909301849055845484825282860190935260409020919091556101ad565b5060006101ad565b600080617c4283600401611984565b90506000805b82518110156106a757846006016000848381518110617c6957617c6961b776565b60200260200101516001600160a01b03166001600160a01b031681526020019081526020016000206000015482617ca0919061b850565b9150600101617c48565b600d8101546000908103617cc057506000919050565b600d82015442614c50565b600281015460009081617cdd84617c33565b90506000617ceb8383619e77565b90506000617cf9838561b850565b9050811580617d06575080155b15617d175750600095945050505050565b617d2d82617d236151a0565b60c001518361509e565b9695505050505050565b60008183116157ea57816101aa565b60006101aa836127f784617d586151a0565b60e0015190614cf9565b6000816001600160a01b031663313ce5676040518163ffffffff1660e01b8152600401602060405180830381865afa158015617da2573d6000803e3d6000fd5b505050506040513d601f19601f820116820180604052508101906101ad919061bf2c565b600061189584617dd785600a61c02b565b617de6856402540be400614cf9565b61509e565b600061189584838561509e565b617e0061b1d8565b617e0861b1d8565b600080604051602001617e3d906020808252600e908201526d4c505f504f4f4c5f434f4e46494760901b604082015260600190565b60408051601f1981840301815291905280516020909101209050617e62828287619e99565b617e6f5750909392505050565b617ed28186604051602001617eaa90602080825260129082015271424153455f494e5445524553545f5241544560701b604082015260600190565b604051602081830303815290604052805190602001206040516020016124b49392919061c03a565b8352604051617f149082908790617eaa906020016020808252601490820152731413d3d317d3125455525112551657d31253525560621b604082015260600190565b836020018181525050617f538186604051602001617eaa906020808252600d908201526c4d494e545f4645455f5241544560981b604082015260600190565b836040018181525050617f948186604051602001617eaa906020808252600f908201526e52454445454d5f4645455f5241544560881b604082015260600190565b6060840152604051617fd99082908790617eaa906020016020808252601490820152731413d3d317d4139317d490551253d7d31253525560621b604082015260600190565b60808401526040516180259082908790617eaa906020016020808252818101527f554e534554544c45445f424153455f544f4b454e5f524154494f5f4c494d4954604082015260600190565b60a084015260405161807e9082908790617eaa9060200160208082526022908201527f554e534554544c45445f535441424c455f544f4b454e5f524154494f5f4c494d604082015261125560f21b606082015260800190565b60c08401526040516180cc9082908790617eaa906020016020808252601d908201527f504f4f4c5f535441424c455f544f4b454e5f524154494f5f4c494d4954000000604082015260600190565b60e084015260405161811a9082908790617eaa906020016020808252601c908201527f504f4f4c5f535441424c455f544f4b454e5f4c4f53535f4c494d495400000000604082015260600190565b6101008401526040516181809082908790618158906020016020808252600c908201526b41535345545f544f4b454e5360a01b604082015260600190565b604051602081830303815290604052805190602001206040516020016152cf9392919061c03a565b61012084015250909392505050565b6181b360405180606001604052806000815260200160008152602001600081525090565b506001600160a01b0316600090815260029182016020908152604091829020825160608101845281548152600182015492810192909252909201549082015290565b60008061199160405160200161822e906020808252600f908201526e5553445f504f4f4c5f434f4e46494760881b604082015260600190565b60405160208183030381529060405280519060200120846040516020016182549061c059565b6040516020818303038152906040528051906020012060405160200161827c9392919061c03a565b604051602081830303815290604052805190602001208261508b90919063ffffffff16565b60008060006182af856176c7565b905060005b815181101561473d576182d28282815181106153755761537561b776565b51156183815760008660040160008484815181106182f2576182f261b776565b60200260200101516001600160a01b03166001600160a01b03168152602001908152602001600020604051806080016040529081600082015481526020016001820154815260200160028201548152602001600382015481525050905061837d6183768484815181106183675761836761b776565b60200260200101518389619eb3565b8590615194565b9350505b6001016182b4565b6000806000618397856176c7565b905060005b815181101561844e5760008660040160008484815181106183bf576183bf61b776565b60200260200101516001600160a01b03166001600160a01b0316815260200190815260200160002060405180608001604052908160008201548152602001600182015481526020016002820154815260200160038201548152505090506184436183768484815181106184345761843461b776565b60200260200101518389619f12565b93505060010161839c565b506001850154156106a7576001850154610f1b908361b850565b6184a16040518060c001604052806000815260200160008152602001600081526020016000815260200160008152602001600081525090565b6184aa836135c7565b60006184b7846001611b28565b905060006184c36151a0565b60a00151905060005b82518110156186325760008382815181106184e9576184e961b776565b602002602001015190506000618508878360c001518460400151619f84565b9050600061851983602001516123d8565b9050600061852a848a8560006189cb565b905060008113156185695761856261855a8261855561854c8860a001516186aa565b604001516122d5565b61a028565b89519061a039565b8852618595565b61859261855a826185556185808860a001516186aa565b6101000151613abb90620186a061b850565b88525b6185b66185ab8560e001518460000151896178d0565b60608a015190615194565b606089015261016084015160208901516185cf91615194565b602089015261018084015160408901516185e891615194565b604089015260e084015160a089015161860091615194565b60a089015261861d618612858b619b7d565b60808a01519061a039565b60808901525050600190920191506184cc9050565b50505092915050565b600081815260088301602090815260409182902080548351818402810184019094528084526060939283018282801561869d57602002820191906000526020600020905b81546001600160a01b0316815260019091019060200180831161867f575b5050505050905092915050565b6186b261b08c565b6186ba61b08c565b6000806040516020016186f39060208082526012908201527154524144455f544f4b454e5f434f4e46494760701b604082015260600190565b60408051601f1981840301815291905280516020909101209050618718828287619e99565b6187255750909392505050565b6187b08186604051602001618763906020808252601590820152741254d7d4d5541413d49517d0d3d313105511549053605a1b604082015260600190565b6040516020818303038152906040528051906020012060405160200161878b9392919061c03a565b604051602081830303815290604052805190602001208361a04590919063ffffffff16565b151583526040516187e99082908790617eaa90602001602080825260099082015268282922a1a4a9a4a7a760b91b604082015260600190565b8360200181815250506188238186604051602001617eaa90602080825260089082015267111254d0d3d5539560c21b604082015260600190565b8360400181815250506188688186604051602001617eaa906020808252601390820152720434f4c4c41544552414c5f555345525f43415606c1b604082015260600190565b60608401526040516188ad9082908790617eaa906020016020808252601490820152730434f4c4c41544552414c5f544f54414c5f4341560641b604082015260600190565b60808401526040516188f09082908790617eaa9060200160208082526012908201527104c494142494c4954595f555345525f4341560741b604082015260600190565b60a08401526040516189349082908790617eaa9060200160208082526013908201527204c494142494c4954595f544f54414c5f43415606c1b604082015260600190565b60c08401526040516189799082908790617eaa9060200160208082526014908201527324a72a22a922a9aa2fa920aa22afa320a1aa27a960611b604082015260600190565b60e08401526040516189bc9082908790617eaa906020016020808252601290820152712624a8aaa4a220aa24a7a72fa320a1aa27a960711b604082015260600190565b61010084015250909392505050565b60008060006189db87878761a05e565b91509150836189ea5780613b50565b5095945050505050565b60008215618a14576000618a0785614be4565b6012015491506119919050565b6000618a1e614d46565b6001600160a01b0384166000908152600382016020526040902090915060020154915050611991565b60006101aa8383620186a061509e565b6000611895618a6784600a61c02b565b613b2e6402540be4006121af8887614cf9565b600080618a8684614b01565b905082618a97576008810154611895565b600701549392505050565b60006101aa618ab8670de0b6b3a76400006122d5565b6120f78585614bcc565b6000611895618ad5613abb85600a61c02b565b6120f7618ae66402540be4006122d5565b6163ef8887614bcc565b6000611895618b0d618b066402540be4006122d5565b8490614bcc565b6120f7618b1e613abb87600a61c02b565b8790614bcc565b6000808260e001518403618b4b5750506101c081015160408101516060909101516135c0565b618b6f8360e00151613b2e86866101c0015160400151614cf990919063ffffffff16565b618b938460e00151613b2e87876101c0015160600151614cf990919063ffffffff16565b915091509250929050565b6000611895838584617dc6565b600080618bbb83602001516123d8565b90506000618bc76151a0565b60a0015190506118958460e001518360000151836178d0565b6000816101c00151618bf68361018001516122d5565b618c048461024001516122d5565b618c0e919061b9b8565b6101ad919061b9b8565b60006101aa828461b863565b618c2e838361455f565b618c3e57618c3c8383614581565b505b6001600160a01b0382166000908152600284016020526040902054618c6490829061b850565b6001600160a01b039092166000908152600290930160205250604090912055565b618c8f848361455f565b618c9f57618c9d8483614581565b505b6000618cab848461a149565b6000818152600287016020526040902054909150618cca90839061b850565b600091825260029095016020526040902093909355505050565b618cee838361455f565b618cfe57618cfc8383614581565b505b6001600160a01b0382166000908152600384016020526040902054618d2490829061b850565b6001600160a01b039092166000908152600390930160205250604090912055565b618d4f848361455f565b618d5f57618d5d8483614581565b505b6000618d6b848461a149565b6000818152600387016020526040902054909150618d8a90839061b850565b600091825260039095016020526040902093909355505050565b6001600160a01b038316600090815260048501602090815260408083208151608081018352815480825260018301549482019490945260028201549281019290925260038101546060830152918511618e1a5784826000016000828254618e0b919061b863565b9091555060009350618ea49050565b815415618e6c578154618e2d908661b863565b925082826003016000828254618e43919061b850565b9250508190555082826001016000828254618e5e919061b850565b909155505060008255618ea4565b84826003016000828254618e80919061b850565b9250508190555084826001016000828254618e9b919061b850565b90915550859350505b618eb88684618eb1617791565b919061a1d6565b865460405160008051602061c0d283398151915291618eea916001600160a01b03909116908990859087908a9061ba4f565b60405180910390a15050949350505050565b618f09600285018461455f565b618f1c57618f1a6002850184614581565b505b6001600160a01b03831660009081526004850160209081526040808320815160808101835281548082526001830154948201949094526002820154928101929092526003810154606083015292909185918491618f7a90849061b850565b9091555050855460405160008051602061c0d283398151915291618fb1916001600160a01b0390911690889085908790899061ba4f565b60405180910390a1505050505050565b618fce600285018461455f565b61900e5760405162461bcd60e51b8152602060048201526011602482015270746f6b656e206e6f74206578697374732160781b604482015260640161028e565b6001600160a01b038316600090815260048501602052604090206001015482111561906d5760405162461bcd60e51b815260206004820152600f60248201526e756e557365206f766572666c6f772160881b604482015260640161028e565b6001600160a01b0383166000818152600486016020818152604080842081516080810183528154815260018201805482860181905260028401549483019490945260039092015460608201529585529290915285929061385f90849061b863565b6000806190d9617791565b546001600160a01b031692915050565b60006118958484846000618da4565b811561121157600061911161910c86611ad1565b6145a2565b90508260005b8251811015613eaa576000619137848381518110611bbb57611bbb61b776565b60038101549091506001600160a01b03888116911614801561916257506002810154610100900460ff165b156191b157600061917b613abb83845489148d8b61a200565b9050600087136191945761918f818561b9b8565b61919e565b61919e818561b830565b9350836000036191af575050613eaa565b505b50600101619117565b6001600160a01b038216600090815260048401602052604081206003810154158015906191e75750805415155b156106a757604080516080810182528254808252600184015460208301526002840154928201929092526003830154606082018190529091101561922c578154619232565b81600301545b925082826000016000828254619248919061b863565b9250508190555082826003016000828254619263919061b863565b925050819055508282600101600082825461927e919061b863565b9091555061929190508584617873617791565b855460405160008051602061c0d2833981519152916192c3916001600160a01b03909116908890859087908a9061ba4f565b60405180910390a150509392505050565b60068201548111156193245760405162461bcd60e51b81526020600482015260196024820152781cdd58881a1bdb1908189a59d9d95c881d1a185b881a1bdb19603a1b604482015260640161028e565b81546002830154600091619348916001600160a01b0391821691166004860161a33f565b905081836004016002016000828254619361919061b863565b9091555050600683015461012082015261085d8161a441565b6101e48282600161a527565b6101e48282600161a5fd565b815460028301546000916193b6916001600160a01b0391821691166004860161a33f565b9050818360040160030160008282546193cf919061b9b8565b9091555050600783015461014082015261085d8161a441565b6001600160a01b03821660009081526002840160205260409020600101548111156194515760405162461bcd60e51b81526020600482015260196024820152781cdd58881a1bdb1908189a59d9d95c881d1a185b881a1bdb19603a1b604482015260640161028e565b6001600160a01b0382166000908152600284016020526040812061947690849061a657565b6001600160a01b03841660009081526002860160205260408120600101805492935084929091906194a890849061b863565b90915550506001600160a01b038316600090815260028501602052604090206001015460a082015261018f8161a6fa565b6194e6600c84018361455f565b6194f9576194f7600c840183614581565b505b6001600160a01b038083166000908152600e850160205260408120855490926195249116858461a33f565b90508282600401600082825461953a919061b850565b909155505060048201546101608201526112118161a441565b61955e83838361a782565b6195b55760405162461bcd60e51b815260206004820152602260248201527f737562206661696c656420776974682062616c616e6365206e6f7420656e6f756044820152610ced60f31b606482015260840161028e565b6001600160a01b038216600090815260028401602052604081206195da90849061a657565b6001600160a01b038416600090815260028601602052604081208054929350849290919061960990849061b863565b90915550506001600160a01b0383166000908152600285016020526040902054608082015261018f8161a6fa565b6001600160a01b0382166000908152600284016020526040812061965c90849061a657565b6001600160a01b0384166000908152600280870160205260408220018054929350849290919061968d90849061b850565b90915550506001600160a01b038316600090815260028086016020526040909120015460c082015261018f8161a6fa565b82546001600160a01b038381166000908152600e86016020526040812090926196ea921690859061a33f565b90506196f9600c85018461455f565b15619733576001600160a01b0383166000908152600e850160205260408120805484929061972890849061b850565b9091555061975f9050565b619740600c850184614581565b506001600160a01b0383166000908152600e8501602052604090208290555b6001600160a01b0383166000908152600e8501602052604090205460e082015261018f8161a441565b619795600c84018361455f565b6197a8576197a6600c840183614581565b505b82546001600160a01b038381166000908152600e86016020526040812090926197d4921690859061a33f565b6001600160a01b0384166000908152600e8601602052604081206003018054929350849290919061980690849061b9b8565b90915550506001600160a01b0383166000908152600e8501602052604090206003015461014082015261018f8161a441565b825460000361985757608082015160018401556060820151835561989b565b6198798360000154846001015484606001518560800151858760a0015161a7fc565b600184015560608201518354849060009061989590849061b850565b90915550505b7fe1ca63f31f0b04174a12bc0e5a08103c6403d0d7c3980afb3ae8444a47476ef582602001518360a00151846060015186600001546198da919061b863565b8654604080519485529215156020850152918301526060820152608001610af8565b619909600483018261455f565b6101e45761085d6004830182614581565b6060810151825411619936576000600183018190558255619954565b806060015182600001600082825461994e919061b863565b90915550505b7fe1ca63f31f0b04174a12bc0e5a08103c6403d0d7c3980afb3ae8444a47476ef581602001518260a0015183606001518560000154619993919061b850565b8554604080519485529215156020850152918301526060820152608001610435565b60006199c084610e85565b90506000806199cf83866135a0565b915091508115619a51576199ef856199e7868461b850565b859190619aaf565b507ff19b578fc2b5cd359b489ade8c3e89c78f14417b5c22c020c2ef6918f818f9d2868683619a1e888261b850565b604080516001600160a01b03958616815294909316602085015291830152606082015260800160405180910390a1612046565b619a5c838686619aaf565b50604080516001600160a01b03808916825287166020820152600091810191909152606081018590527ff19b578fc2b5cd359b489ade8c3e89c78f14417b5c22c020c2ef6918f818f9d290608001618fb1565b6000611895846001600160a01b0385168461a83c565b60006101aa8383614547565b6001600160a01b0382166000908152600684016020526040902054811115619b495760405162461bcd60e51b815260206004820152602560248201527f737562546f6b656e4c696162696c697479206c657373207468616e206c696162604482015264696c69747960d81b606482015260840161028e565b6001600160a01b038216600090815260068401602052604081208054839290619b7390849061b863565b9091555050505050565b6000619bc26040518060e001604052806000815260200160008152602001600060ff168152602001600081526020016000815260200160008152602001600081525090565b619bd484602001518560400151618a7a565b606082015260e0840151619c0490619beb906122d5565b856101c00151608001518360600151615952919061b830565b608082015260a0840151619c1790617d62565b60ff1660408083019190915284015115619c6657619c4b816080015182604001516159c6868860a001518960400151619f84565b846101c0015160c00151619c5f919061b9b8565b8152619c82565b8060800151846101c0015160c00151619c7f919061b9b8565b81525b6000619c91856020015161204e565b6040805160c08101909152815481526001820154909190602083019060ff166003811115619cc157619cc161b78c565b6003811115619cd257619cd261b78c565b815260018201546001600160a01b03610100909104811660208301526002830154811660408301526003830154166060820152600482018054608090920191619d1a9061b7e6565b80601f0160208091040260200160405190810160405280929190818152602001828054619d469061b7e6565b8015619d935780601f10619d6857610100808354040283529160200191619d93565b820191906000526020600020905b815481529060010190602001808311619d7657829003601f168201915b5050505050815250509050619db5816040015186604001518760a001516189f4565b60a0830152610140850151610120860151619df591619ddc9161584890620186a09061b863565b866101c00151602001518460a00151610cf2919061b863565b8260c0018181525050619e1e8260c0015183604001516158b7878960a001518a6040015161a859565b856101c0015160600151619e32919061b850565b60208301819052619e42906122d5565b82516101c087015151619e54906122d5565b619e5e919061b9b8565b610f1b919061b9b8565b6060611895848460008561a8bb565b6000818311619e8f57619e8a838361b863565b6101aa565b6101aa828461b863565b6000828152600c840160205260408120611895908361455f565b60008260200151836000015111619ecc57506000611991565b6000619efa84602001518560000151619ee5919061b863565b619eee87617d62565b6158b78689600161a859565b9050610f1b81619f09876186aa565b60400151618a47565b60008260000151836020015111619f2b57506000611991565b6000619f4484600001518560200151619ee5919061b863565b90506000619f51866186aa565b61010001511115619f7d57619f7381619f69876186aa565b6101000151618a47565b6127b8908261b850565b9050611991565b6000805b845181101561a01d57836001600160a01b0316858281518110619fad57619fad61b776565b6020026020010151600001516001600160a01b03160361a0155782619fef57848181518110619fde57619fde61b776565b6020026020010151606001516127b8565b84818151811061a0015761a00161b776565b602002602001015160400151915050611991565b600101619f88565b5061189583836123b3565b60006101aa618ab8620186a06122d5565b60006101aa828461b9b8565b6000908152600391909101602052604090205460ff1690565b6000808460e0015160000361a0785750600090508061a141565b84604001511561a0df57600061a0bd61a0958761010001516122d5565b6120f761a0b061a0a98a61010001516122d5565b889061a98b565b6163ef8a60e001516122d5565b905061a0d68161a0d08860a00151617d62565b86618af0565b9250905061a141565b600061a10d61a0f28761010001516122d5565b6120f761a0b08761a1078b61010001516122d5565b9061a98b565b9050600061a121868860a001516000619f84565b905061a13a8261a1348960a00151617d62565b83618af0565b9350909150505b935093915050565b600060405160200161a1809060208082526011908201527008c8a8abe829a9eaa9ca8bea0a48a8c92b607b1b604082015260600190565b60408051601f198184030181528282528051602091820120908301526001600160a01b03808616918301919091528316606082015260800160405160208183030381529060405280519060200120905092915050565b6001600160a01b038216600090815260068401602052604081208054839290619b7390849061b850565b600084600a01548560090154148061a216575081155b1561a22357506000611895565b600082131561a2a157600061a2528660090154613b2e886008015489600a01548a600901546121af919061b863565b905061a261816127f78561271d565b915061a2828660080154613b2e886009015485614cf990919063ffffffff16565b86600a01600082825461a295919061b850565b9091555061a31f915050565b600061a2c08660080154613b2e88600901546121af87610d1f9061ba23565b90508086600a01541161a2f4576000600a87018190556009870154600888015461a2ed92613b2e91614cf9565b915061a31d565b8086600a01600082825461a308919061b863565b9091555061a31a9050610d1f8461ba23565b91505b505b83801561a32c5750600081115b156118955761189585846008600061a997565b61a3bc604051806101a0016040528060006001600160a01b0316815260200160006001600160a01b0316815260200160008152602001600081526020016000815260200160008152602001600081526020016000815260200160008152602001600081526020016000815260200160008152602001600081525090565b6001600160a01b03808516825283166020820152815460408201819052600183015460608301819052600284015460808401819052600385015460a08501819052600486015460c0860181905260e086019490945261010085019290925261012084015261014083015261016082015261a43461aa67565b6101808201529392505050565b7f3c20d1ba6bcc5e5bd62d967908bf1ce684e6b52dbaab9f84ebfbf1b184b46bf8816000015182602001518360400151846060015185608001518660a001518760c001518860e001518961010001518a61012001518b61014001518c61016001518d6101800151604051614bc19d9c9b9a999897969594939291906001600160a01b039d8e1681529b909c1660208c015260408b019990995260608a0197909752608089019590955260a088019390935260c087019190915260e08601526101008501526101208401526101408301526101608201526101808101919091526101a00190565b600483015482111561a58b5760405162461bcd60e51b815260206004820152602760248201527f6261736520746f6b656e20616d6f756e74206c657373207468616e2073756220604482015266616d6f756e742160c81b606482015260840161028e565b801561a5e6578254600284015460009161a5b5916001600160a01b0391821691166004870161a33f565b90508284600401600001600082825461a5ce919061b863565b9091555050600484015460e082015261018f8161a441565b81836004016000016000828254619b73919061b863565b801561a640578254600284015460009161a627916001600160a01b0391821691166004870161a33f565b90508284600401600001600082825461a5ce919061b850565b81836004016000016000828254619b73919061b850565b61a6a860405180610100016040528060006001600160a01b03168152602001600081526020016000815260200160008152602001600081526020016000815260200160008152602001600081525090565b6001600160a01b0383168152815460208201819052600183015460408301819052600284015460608401819052608084019290925260a083015260c082015261a6ef61aa67565b60e082015292915050565b805160208083015160408085015160608087015160808089015160a0808b015160c0808d015160e0808f01518b516001600160a01b03909f168f529c8e019b909b52988c0197909752948a0193909352908801528601528401528201527f217ba1d63771ad2228865ab2d862a89115d536eabbe8315c584eafe090d7f4229061010001614bc1565b6001600160a01b03821660009081526002840160205260408120805483111561a7af576000915050611991565b600061a7b961aae8565b90508060000361a7e05760018201548254859161a7d59161b863565b101592505050611991565b6001820154825461a7d59061a7f690879061b863565b83618a47565b60008061a82361a80c878a61b850565b613b2e61a8198989614cf9565b6127b28c8c614cf9565b905061a83081858561276f565b98975050505050505050565b600082815260028401602052604081208290556118958484614596565b6000805b845181101561a01d57836001600160a01b031685828151811061a8825761a88261b776565b6020026020010151600001516001600160a01b03160361a8b35782619fef57848181518110619fde57619fde61b776565b60010161a85d565b60608247101561a91c5760405162461bcd60e51b815260206004820152602660248201527f416464726573733a20696e73756666696369656e742062616c616e636520666f6044820152651c8818d85b1b60d21b606482015260840161028e565b600080866001600160a01b0316858760405161a938919061bed8565b60006040518083038185875af1925050503d806000811461a975576040519150601f19603f3d011682016040523d82523d6000602084013e61a97a565b606091505b5091509150613b508783838761aaf8565b60006101aa828461b830565b6002840154600185015460038601547fee2b9c77532fd89e66e2f431c2001e4bcc30fb5bc62ee9cdac252f89540067ae92869261a9f0926001600160a01b0362010000840481169391169060ff61010090910416616508565b8487604051806101a001604052808781526020016000815260200160008152602001600081526020016000815260200160008152602001600081526020016000815260200160008152602001600081526020016000815260200160008152602001600081525060405161132f95949392919061bcbc565b600061a4b146148061aa7b575062066eee46145b1561aae35760646001600160a01b031663a3b1b31d6040518163ffffffff1660e01b8152600401602060405180830381865afa15801561aabf573d6000803e3d6000fd5b505050506040513d601f19601f820116820180604052508101906100fe919061bbcc565b504390565b600061aaf261ab71565b51919050565b6060831561ab6757825160000361ab60576001600160a01b0385163b61ab605760405162461bcd60e51b815260206004820152601d60248201527f416464726573733a2063616c6c20746f206e6f6e2d636f6e7472616374000000604482015260640161028e565b5081611895565b611895838361abb2565b61abaa6040518060c001604052806000815260200160008152602001600081526020016000815260200160608152602001606081525090565b6100fe61abdc565b81511561abc25781518083602001fd5b8060405162461bcd60e51b815260040161028e919061c09e565b61ac156040518060c001604052806000815260200160008152602001600081526020016000815260200160608152602001606081525090565b60008060405160200161ac4b906020808252600f908201526e5553445f504f4f4c5f434f4e46494760881b604082015260600190565b60405160208183030381529060405280519060200120905061ac9f81604051602001614028906020808252601490820152731413d3d317d3125455525112551657d31253525560621b604082015260600190565b835260405161acd8908290614028906020016020808252600d908201526c4d494e545f4645455f5241544560981b604082015260600190565b83602001818152505061ad1881604051602001614028906020808252600f908201526e52454445454d5f4645455f5241544560881b604082015260600190565b83604001818152505061ad5e8160405160200161402890602080825260159082015274155394d1551513115117d490551253d7d312535255605a1b604082015260600190565b606084015260405161ada290829061529f90602001602080825260159082015274535550504f52545f535441424c455f544f4b454e5360581b604082015260600190565b608084018190525167ffffffffffffffff81111561adc25761adc261b504565b60405190808252806020026020018201604052801561adeb578160200160208202803683370190505b5060a084015260005b83608001515181101561aea85761ae7f828560800151838151811061ae1b5761ae1b61b776565b602002602001015160405160200161ae329061c059565b6040516020818303038152906040528051906020012060405160200161ae5a9392919061c03a565b604051602081830303815290604052805190602001208461508b90919063ffffffff16565b8460a00151828151811061ae955761ae9561b776565b602090810291909101015260010161adf4565b50505090565b6040518060c0016040528060006001600160a01b0316815260200160008152602001606081526020016060815260200160608152602001606081525090565b50805460008255906000526020600020908101906106df919061b22b565b604051806102200160405280600080191681526020016000801916815260200160001515815260200160001515815260200160006001600160a01b0316815260200160006001600160a01b0316815260200160006001600160a01b031681526020016000815260200160008152602001600081526020016000815260200160008152602001600081526020016000815260200161afde6040518060e00160405280600081526020016000815260200160008152602001600081526020016000815260200160008152602001600081525090565b815260200160008152602001600081525090565b60405180610100016040528060008152602001600081526020016000815260200160008152602001600081526020016000815260200160008152602001600081525090565b6040518061014001604052806000815260200160008152602001600081526020016000815260200160008152602001600081526020016000815260200160008152602001600081526020016000151581525090565b60405180610120016040528060001515815260200160008152602001600081526020016000815260200160008152602001600081526020016000815260200160008152602001600081525090565b604051806102c0016040528060006001600160a01b0316815260200161b0fe61af0b565b8152602001600081526020016000815260200160008152602001600081526020016000815260200160008152602001600081526020016000815260200160008152602001600081526020016000815260200160008152602001600081526020016000815260200160008152602001600081526020016000815260200160008152602001600081526020016000151581525090565b6040518060e0016040528060008152602001600081526020016000815260200160008152602001600081526020016000815260200160006001600160a01b031681525090565b604051806101400160405280600081526020016000815260200160008152602001600081526020016000815260200160008152602001600081526020016000815260200160008152602001606081525090565b5b8082111561233f576000815560010161b22c565b60008151808452602080850194506020840160005b8381101561b27a5781516001600160a01b03168752958201959082019060010161b255565b509495945050505050565b60008151808452602080850194506020840160005b8381101561b27a5781518752958201959082019060010161b29a565b600060208083018184528085518083526040925060408601915060408160051b87010184880160005b8381101561b38757888303603f19018552815180516001600160a01b0316845287810151888501528681015160c08886018190529061b3208287018261b240565b9150506060808301518683038288015261b33a838261b285565b925050506080808301518683038288015261b355838261b240565b9250505060a0808301519250858203818701525061b373818361b285565b96890196945050509086019060010161b2df565b509098975050505050505050565b6001600160a01b03811681146106df57600080fd5b60008083601f84011261b3bc57600080fd5b50813567ffffffffffffffff81111561b3d457600080fd5b6020830191508360208260071b85010111156135c057600080fd5b60008060006040848603121561b40457600080fd5b833561b40f8161b395565b9250602084013567ffffffffffffffff81111561b42b57600080fd5b61b4378682870161b3aa565b9497909650939450505050565b6000806040838503121561b45757600080fd5b823561b4628161b395565b9150602083013561b4728161b395565b809150509250929050565b60006020828403121561b48f57600080fd5b813567ffffffffffffffff81111561b4a657600080fd5b820160a0818503121561199157600080fd5b60008060006040848603121561b4cd57600080fd5b83359250602084013567ffffffffffffffff81111561b42b57600080fd5b60006020828403121561b4fd57600080fd5b5035919050565b634e487b7160e01b600052604160045260246000fd5b604051601f8201601f1916810167ffffffffffffffff8111828210171561b5435761b54361b504565b604052919050565b60006080828403121561b55d57600080fd5b6040516080810181811067ffffffffffffffff8211171561b5805761b58061b504565b604052823561b58e8161b395565b8152602083013561b59e8161b395565b6020820152604083810135908201526060928301359281019290925250919050565b600067ffffffffffffffff82111561b5da5761b5da61b504565b5060051b60200190565b600082601f83011261b5f557600080fd5b8135602061b60a61b6058361b5c0565b61b51a565b8083825260208201915060208460051b87010193508684111561b62c57600080fd5b602086015b8481101561b65157803561b6448161b395565b835291830191830161b631565b509695505050505050565b600082601f83011261b66d57600080fd5b8135602061b67d61b6058361b5c0565b8083825260208201915060208460051b87010193508684111561b69f57600080fd5b602086015b8481101561b651578035835291830191830161b6a4565b600060a0823603121561b6cd57600080fd5b60405160a0810167ffffffffffffffff828210818311171561b6f15761b6f161b504565b816040528435915061b7028261b395565b90825260208401359061b7148261b395565b81602084015260408501356040840152606085013591508082111561b73857600080fd5b61b7443683870161b5e4565b6060840152608085013591508082111561b75d57600080fd5b5061b76a3682860161b65c565b60808301525092915050565b634e487b7160e01b600052603260045260246000fd5b634e487b7160e01b600052602160045260246000fd5b60006020828403121561b7b457600080fd5b81516119918161b395565b8051602080830151919081101561b7e0576000198160200360031b1b821691505b50919050565b600181811c9082168061b7fa57607f821691505b60208210810361b7e057634e487b7160e01b600052602260045260246000fd5b634e487b7160e01b600052601160045260246000fd5b8181036000831280158383131683831282161715617bdd57617bdd61b81a565b808201808211156101ad576101ad61b81a565b818103818111156101ad576101ad61b81a565b80820281158282048414176101ad576101ad61b81a565b6003811061b89d5761b89d61b78c565b9052565b6004811061b89d5761b89d61b78c565b82516001600160a01b03168152610240810160208401516020830152604084015161b8df604084018261b88d565b50606084015161b8f2606084018261b88d565b50608084015161b905608084018261b8a1565b5060a084015161b91860a084018261b88d565b5060c084015161b92c60c084018215159052565b5060e084015161b94060e084018215159052565b50610100848101516001600160a01b03169083015261012080850151908301526101408085015190830152610160808501519083015261018080850151908301526101a080850151908301526101c080850151908301526101e080850151908301526102009384015193820193909352610220015290565b808201828112600083128015821682158216171561b9d85761b9d861b81a565b505092915050565b60006001820161b9f25761b9f261b81a565b5060010190565b634e487b7160e01b600052601260045260246000fd5b60008261ba1e5761ba1e61b9f9565b500690565b6000600160ff1b820161ba385761ba3861b81a565b5060000390565b600f811061b89d5761b89d61b78c565b6001600160a01b03868116825285166020820152610160810161ba966040830186805182526020810151602083015260408101516040830152606081015160608301525050565b835460c0830152600184015460e083015260028401546101008301526003840154610120830152617d2d61014083018461ba3f565b600081548084526020808501945083600052602060002060005b8381101561b27a5781546001600160a01b03168752958201956001918201910161bae5565b600081548084526020808501945083600052602060002060005b8381101561b27a5781548752958201956001918201910161bb24565b82815260406020820181905282546001600160a01b0316908201526001820154606082015260c06080820152600061bb7f61010083016002850161bacb565b603f19808483030160a085015261bb99826003870161bb0a565b9150808483030160c085015261bbb2826004870161bacb565b9150808483030160e085015250610f1b816005860161bb0a565b60006020828403121561bbde57600080fd5b5051919050565b80820260008212600160ff1b8414161561bc015761bc0161b81a565b81810583148215176101ad576101ad61b81a565b60008261bc245761bc2461b9f9565b600160ff1b82146000198414161561bc3e5761bc3e61b81a565b500590565b6001600160a01b03831681528154602082015260018201546040820152600282015460608201526003820154608082015260a08101611991565b81548152600182015460208201526002820154604082015260038201546060820152608081016101ad565b60008261bcb75761bcb761b9f9565b500490565b858152602081018590526104e081016009851061bcdb5761bcdb61b78c565b8460408301528354606083015260018401546080830152600284015461bd0860a0840160ff831615159052565b61bd1c60c0840160ff8360081c1615159052565b6001600160a01b03601082901c1660e08401525060038401546001600160a01b03166001600160a01b0381166101008401525060048401546001600160a01b03166001600160a01b0381166101208401525060058401546101408301526006840154610160830152600784015461018083015260088401546101a083015260098401546101c0830152600a8401546101e0830152600b840154610200830152600c840154610220830152600d840154610240830152600e840154610260830152600f84015461028083015260108401546102a083015260118401546102c083015260128401546102e08301526013840154610300830152601484015461032083015282516103408301526020830151610360830152604083015161038083015260608301516103a083015260808301516103c083015260a08301516103e083015260c083015161040083015260e08301516104208301526101008301516104408301526101208301516104608301526101408301516104808301526101608301516104a08301526101808301516104c0830152617d2d565b60005b8381101561becf57818101518382015260200161beb7565b50506000910152565b6000825161beea81846020870161beb4565b9190910192915050565b60006020828403121561bf0657600080fd5b8151801515811461199157600080fd5b634e487b7160e01b600052603160045260246000fd5b60006020828403121561bf3e57600080fd5b815160ff8116811461199157600080fd5b600181815b8085111561780f57816000190482111561bf705761bf7061b81a565b8085161561bf7d57918102915b93841c939080029061bf54565b60008261bf99575060016101ad565b8161bfa6575060006101ad565b816001811461bfbc576002811461bfc65761bfe2565b60019150506101ad565b60ff84111561bfd75761bfd761b81a565b50506001821b6101ad565b5060208310610133831016604e8410600b841016171561c005575081810a6101ad565b61c00f838361bf4f565b806000190482111561c0235761c02361b81a565b029392505050565b60006101aa60ff84168361bf8a565b9283526001600160a01b03919091166020830152604082015260600190565b60208082526025908201527f535441424c455f544f4b454e535f424f52524f57494e475f494e5445524553546040820152645f5241544560d81b606082015260800190565b602081526000825180602084015261c0bd81604085016020870161beb4565b601f01601f1916919091016040019291505056fe1d59acd5f3bb87326c498fe747e339bda33b5370b6f8df63a48f232d73efb748a2646970667358221220fcba205e66896244afa8433e4ce43f6dc5130cf67f2f5ddac5c4db756f319d3e64736f6c63430008190033","linkReferences":{}},"methodIdentifiers":{"callLiabilityClean(uint256)":"d96faa28","getAllCleanInfos()":"2358072c","getInsuranceFunds(address,address)":"67180d0c","liquidationAccount(address,(address,address,int256,int256)[])":"5a536f8f","liquidationLiability((address,address,uint256,address[],uint256[]))":"ac9deaa4","liquidationPosition(bytes32,(address,address,int256,int256)[])":"c0828713"},"id":61}