{"abi":[{"type":"function","name":"get","inputs":[{"name":"requestId","type":"uint256","internalType":"uint256"}],"outputs":[{"name":"","type":"tuple","internalType":"struct UpdatePositionMargin.Request","components":[{"name":"account","type":"address","internalType":"address"},{"name":"positionKey","type":"bytes32","internalType":"bytes32"},{"name":"marginToken","type":"address","internalType":"address"},{"name":"updateMarginAmount","type":"uint256","internalType":"uint256"},{"name":"executionFee","type":"uint256","internalType":"uint256"},{"name":"isAdd","type":"bool","internalType":"bool"},{"name":"isExecutionFeeFromTradeVault","type":"bool","internalType":"bool"},{"name":"lastBlock","type":"uint256","internalType":"uint256"}]}],"stateMutability":"view"}],"bytecode":{"object":"0x61032d610039600b82828239805160001a607314602c57634e487b7160e01b600052600060045260246000fd5b30600052607381538281f3fe73000000000000000000000000000000000000000030146080604052600436106100565760003560e01c80634cc822151461005b578063780900dc1461007d57806386d5c4be146100a35780639507d39a146100ab575b600080fd5b81801561006757600080fd5b5061007b6100763660046102de565b610129565b005b61009061008b3660046102de565b610183565b6040519081526020015b60405180910390f35b61009061019f565b6100be6100b93660046102de565b61020f565b6040805182516001600160a01b03908116825260208085015190830152838301511691810191909152606080830151908201526080808301519082015260a08083015115159082015260c08083015115159082015260e091820151918101919091526101000161009a565b600061013361019f565b6000928352602052506040812080546001600160a01b03199081168255600182018390556002820180549091169055600381018290556004810182905560058101805461ffff1916905560060155565b60008061018e61019f565b600093845260205250506040902090565b6000806040516020016101f19060208082526025908201527f78797a2e656c66692e73746f726167652e557064617465506f736974696f6e4d60408201526430b933b4b760d91b606082015260800190565b60408051601f19818403018152919052805160209091012092915050565b6040805161010081018252600080825260208201819052918101829052606081018290526080810182905260a0810182905260c0810182905260e081018290529061025861019f565b600093845260209081526040938490208451610100808201875282546001600160a01b0390811683526001840154948301949094526002830154909316958101959095526003810154606086015260048101546080860152600581015460ff808216151560a0880152929004909116151560c08501526006015460e08401525090919050565b6000602082840312156102f057600080fd5b503591905056fea2646970667358221220e00168c58903a4a155dea74843a94193cd7e8fe74632a57e151e5693aea84b3064736f6c63430008190033","linkReferences":{}},"methodIdentifiers":{"create(uint256)":"780900dc","get(uint256)":"9507d39a","load()":"86d5c4be","remove(uint256)":"4cc82215"},"id":156}